{
  "_format": "hh-sol-artifact-1",
  "contractName": "autoBalancer",
  "sourceName": "contracts/autoBalancer.sol",
  "abi": [
    {
      "inputs": [],
      "stateMutability": "nonpayable",
      "type": "constructor"
    },
    {
      "anonymous": false,
      "inputs": [
        {
          "indexed": true,
          "internalType": "address",
          "name": "owner",
          "type": "address"
        },
        {
          "indexed": true,
          "internalType": "address",
          "name": "spender",
          "type": "address"
        },
        {
          "indexed": false,
          "internalType": "uint256",
          "name": "value",
          "type": "uint256"
        }
      ],
      "name": "Approval",
      "type": "event"
    },
    {
      "anonymous": false,
      "inputs": [
        {
          "indexed": true,
          "internalType": "address",
          "name": "from",
          "type": "address"
        },
        {
          "indexed": true,
          "internalType": "address",
          "name": "to",
          "type": "address"
        },
        {
          "indexed": false,
          "internalType": "uint256",
          "name": "value",
          "type": "uint256"
        }
      ],
      "name": "Transfer",
      "type": "event"
    },
    {
      "inputs": [],
      "name": "BTC_USD_ORACLE",
      "outputs": [
        {
          "internalType": "address",
          "name": "",
          "type": "address"
        }
      ],
      "stateMutability": "view",
      "type": "function"
    },
    {
      "inputs": [],
      "name": "ETH_USD_ORACLE",
      "outputs": [
        {
          "internalType": "address",
          "name": "",
          "type": "address"
        }
      ],
      "stateMutability": "view",
      "type": "function"
    },
    {
      "inputs": [],
      "name": "MATIC_USD_ORACLE",
      "outputs": [
        {
          "internalType": "address",
          "name": "",
          "type": "address"
        }
      ],
      "stateMutability": "view",
      "type": "function"
    },
    {
      "inputs": [],
      "name": "QUICKSWAP_ROUTER",
      "outputs": [
        {
          "internalType": "address",
          "name": "",
          "type": "address"
        }
      ],
      "stateMutability": "view",
      "type": "function"
    },
    {
      "inputs": [
        {
          "internalType": "uint256",
          "name": "",
          "type": "uint256"
        }
      ],
      "name": "SANDToUSDCPath",
      "outputs": [
        {
          "internalType": "address",
          "name": "",
          "type": "address"
        }
      ],
      "stateMutability": "view",
      "type": "function"
    },
    {
      "inputs": [],
      "name": "SAND_ADDRESS",
      "outputs": [
        {
          "internalType": "address",
          "name": "",
          "type": "address"
        }
      ],
      "stateMutability": "view",
      "type": "function"
    },
    {
      "inputs": [],
      "name": "SAND_USD_ORACLE",
      "outputs": [
        {
          "internalType": "address",
          "name": "",
          "type": "address"
        }
      ],
      "stateMutability": "view",
      "type": "function"
    },
    {
      "inputs": [
        {
          "internalType": "uint256",
          "name": "",
          "type": "uint256"
        }
      ],
      "name": "USDCToSANDPath",
      "outputs": [
        {
          "internalType": "address",
          "name": "",
          "type": "address"
        }
      ],
      "stateMutability": "view",
      "type": "function"
    },
    {
      "inputs": [
        {
          "internalType": "uint256",
          "name": "",
          "type": "uint256"
        }
      ],
      "name": "USDCToWBTCPath",
      "outputs": [
        {
          "internalType": "address",
          "name": "",
          "type": "address"
        }
      ],
      "stateMutability": "view",
      "type": "function"
    },
    {
      "inputs": [
        {
          "internalType": "uint256",
          "name": "",
          "type": "uint256"
        }
      ],
      "name": "USDCToWETHPath",
      "outputs": [
        {
          "internalType": "address",
          "name": "",
          "type": "address"
        }
      ],
      "stateMutability": "view",
      "type": "function"
    },
    {
      "inputs": [
        {
          "internalType": "uint256",
          "name": "",
          "type": "uint256"
        }
      ],
      "name": "USDCToWMATICPath",
      "outputs": [
        {
          "internalType": "address",
          "name": "",
          "type": "address"
        }
      ],
      "stateMutability": "view",
      "type": "function"
    },
    {
      "inputs": [],
      "name": "USDC_ADDRESS",
      "outputs": [
        {
          "internalType": "address",
          "name": "",
          "type": "address"
        }
      ],
      "stateMutability": "view",
      "type": "function"
    },
    {
      "inputs": [
        {
          "internalType": "uint256",
          "name": "",
          "type": "uint256"
        }
      ],
      "name": "WBTCToUSDCPath",
      "outputs": [
        {
          "internalType": "address",
          "name": "",
          "type": "address"
        }
      ],
      "stateMutability": "view",
      "type": "function"
    },
    {
      "inputs": [],
      "name": "WBTC_ADDRESS",
      "outputs": [
        {
          "internalType": "address",
          "name": "",
          "type": "address"
        }
      ],
      "stateMutability": "view",
      "type": "function"
    },
    {
      "inputs": [
        {
          "internalType": "uint256",
          "name": "",
          "type": "uint256"
        }
      ],
      "name": "WETHToUSDCPath",
      "outputs": [
        {
          "internalType": "address",
          "name": "",
          "type": "address"
        }
      ],
      "stateMutability": "view",
      "type": "function"
    },
    {
      "inputs": [],
      "name": "WETH_ADDRESS",
      "outputs": [
        {
          "internalType": "address",
          "name": "",
          "type": "address"
        }
      ],
      "stateMutability": "view",
      "type": "function"
    },
    {
      "inputs": [
        {
          "internalType": "uint256",
          "name": "",
          "type": "uint256"
        }
      ],
      "name": "WMATICToUSDCPath",
      "outputs": [
        {
          "internalType": "address",
          "name": "",
          "type": "address"
        }
      ],
      "stateMutability": "view",
      "type": "function"
    },
    {
      "inputs": [],
      "name": "WMATIC_ADDRESS",
      "outputs": [
        {
          "internalType": "address",
          "name": "",
          "type": "address"
        }
      ],
      "stateMutability": "view",
      "type": "function"
    },
    {
      "inputs": [
        {
          "internalType": "address",
          "name": "owner",
          "type": "address"
        },
        {
          "internalType": "address",
          "name": "spender",
          "type": "address"
        }
      ],
      "name": "allowance",
      "outputs": [
        {
          "internalType": "uint256",
          "name": "",
          "type": "uint256"
        }
      ],
      "stateMutability": "view",
      "type": "function"
    },
    {
      "inputs": [
        {
          "internalType": "address",
          "name": "spender",
          "type": "address"
        },
        {
          "internalType": "uint256",
          "name": "amount",
          "type": "uint256"
        }
      ],
      "name": "approve",
      "outputs": [
        {
          "internalType": "bool",
          "name": "",
          "type": "bool"
        }
      ],
      "stateMutability": "nonpayable",
      "type": "function"
    },
    {
      "inputs": [
        {
          "internalType": "address",
          "name": "_token",
          "type": "address"
        },
        {
          "internalType": "address",
          "name": "_spender",
          "type": "address"
        }
      ],
      "name": "approveSpendingWholeBalance",
      "outputs": [],
      "stateMutability": "nonpayable",
      "type": "function"
    },
    {
      "inputs": [
        {
          "internalType": "address",
          "name": "token_address",
          "type": "address"
        },
        {
          "internalType": "address",
          "name": "spender_address",
          "type": "address"
        },
        {
          "internalType": "uint256",
          "name": "amount_to_approve",
          "type": "uint256"
        }
      ],
      "name": "approve_spending",
      "outputs": [],
      "stateMutability": "nonpayable",
      "type": "function"
    },
    {
      "inputs": [
        {
          "internalType": "address",
          "name": "account",
          "type": "address"
        }
      ],
      "name": "balanceOf",
      "outputs": [
        {
          "internalType": "uint256",
          "name": "",
          "type": "uint256"
        }
      ],
      "stateMutability": "view",
      "type": "function"
    },
    {
      "inputs": [
        {
          "internalType": "bytes",
          "name": "",
          "type": "bytes"
        }
      ],
      "name": "checkUpkeep",
      "outputs": [
        {
          "internalType": "bool",
          "name": "upkeepNeeded",
          "type": "bool"
        },
        {
          "internalType": "bytes",
          "name": "performData",
          "type": "bytes"
        }
      ],
      "stateMutability": "view",
      "type": "function"
    },
    {
      "inputs": [],
      "name": "decimals",
      "outputs": [
        {
          "internalType": "uint8",
          "name": "",
          "type": "uint8"
        }
      ],
      "stateMutability": "view",
      "type": "function"
    },
    {
      "inputs": [
        {
          "internalType": "address",
          "name": "spender",
          "type": "address"
        },
        {
          "internalType": "uint256",
          "name": "subtractedValue",
          "type": "uint256"
        }
      ],
      "name": "decreaseAllowance",
      "outputs": [
        {
          "internalType": "bool",
          "name": "",
          "type": "bool"
        }
      ],
      "stateMutability": "nonpayable",
      "type": "function"
    },
    {
      "inputs": [
        {
          "internalType": "uint256",
          "name": "amount_",
          "type": "uint256"
        }
      ],
      "name": "depositUserFunds",
      "outputs": [],
      "stateMutability": "nonpayable",
      "type": "function"
    },
    {
      "inputs": [
        {
          "internalType": "address",
          "name": "_oracle_address",
          "type": "address"
        }
      ],
      "name": "getLatestPrice",
      "outputs": [
        {
          "internalType": "int256",
          "name": "",
          "type": "int256"
        }
      ],
      "stateMutability": "view",
      "type": "function"
    },
    {
      "inputs": [
        {
          "internalType": "address",
          "name": "token_address",
          "type": "address"
        },
        {
          "internalType": "address",
          "name": "oracle_address",
          "type": "address"
        },
        {
          "internalType": "uint256",
          "name": "token_decimals",
          "type": "uint256"
        }
      ],
      "name": "getUSDTokenBalanceOf",
      "outputs": [
        {
          "internalType": "uint256",
          "name": "",
          "type": "uint256"
        }
      ],
      "stateMutability": "view",
      "type": "function"
    },
    {
      "inputs": [
        {
          "internalType": "address",
          "name": "spender",
          "type": "address"
        },
        {
          "internalType": "uint256",
          "name": "addedValue",
          "type": "uint256"
        }
      ],
      "name": "increaseAllowance",
      "outputs": [
        {
          "internalType": "bool",
          "name": "",
          "type": "bool"
        }
      ],
      "stateMutability": "nonpayable",
      "type": "function"
    },
    {
      "inputs": [],
      "name": "interval",
      "outputs": [
        {
          "internalType": "uint256",
          "name": "",
          "type": "uint256"
        }
      ],
      "stateMutability": "view",
      "type": "function"
    },
    {
      "inputs": [],
      "name": "lastTimeStamp",
      "outputs": [
        {
          "internalType": "uint256",
          "name": "",
          "type": "uint256"
        }
      ],
      "stateMutability": "view",
      "type": "function"
    },
    {
      "inputs": [
        {
          "internalType": "address",
          "name": "user",
          "type": "address"
        },
        {
          "internalType": "uint256",
          "name": "total_in_USD",
          "type": "uint256"
        },
        {
          "internalType": "uint256",
          "name": "deposit_amount",
          "type": "uint256"
        }
      ],
      "name": "mintOnDeposit",
      "outputs": [],
      "stateMutability": "nonpayable",
      "type": "function"
    },
    {
      "inputs": [
        {
          "internalType": "address",
          "name": "user",
          "type": "address"
        },
        {
          "internalType": "uint256",
          "name": "deposit_amount",
          "type": "uint256"
        }
      ],
      "name": "mintOnFirstDeposit",
      "outputs": [],
      "stateMutability": "nonpayable",
      "type": "function"
    },
    {
      "inputs": [],
      "name": "name",
      "outputs": [
        {
          "internalType": "string",
          "name": "",
          "type": "string"
        }
      ],
      "stateMutability": "view",
      "type": "function"
    },
    {
      "inputs": [
        {
          "internalType": "bytes",
          "name": "performData",
          "type": "bytes"
        }
      ],
      "name": "performUpkeep",
      "outputs": [],
      "stateMutability": "nonpayable",
      "type": "function"
    },
    {
      "inputs": [],
      "name": "quickSwapRouter",
      "outputs": [
        {
          "internalType": "contract IUniswapV2Router02",
          "name": "",
          "type": "address"
        }
      ],
      "stateMutability": "view",
      "type": "function"
    },
    {
      "inputs": [
        {
          "internalType": "uint256",
          "name": "new_interval",
          "type": "uint256"
        }
      ],
      "name": "setInterval",
      "outputs": [],
      "stateMutability": "nonpayable",
      "type": "function"
    },
    {
      "inputs": [
        {
          "internalType": "uint256",
          "name": "_amountIn",
          "type": "uint256"
        },
        {
          "internalType": "uint256",
          "name": "_amountOutMin",
          "type": "uint256"
        },
        {
          "internalType": "address[]",
          "name": "_path",
          "type": "address[]"
        },
        {
          "internalType": "address",
          "name": "_acct",
          "type": "address"
        },
        {
          "internalType": "uint256",
          "name": "_deadline",
          "type": "uint256"
        }
      ],
      "name": "swap",
      "outputs": [],
      "stateMutability": "nonpayable",
      "type": "function"
    },
    {
      "inputs": [
        {
          "internalType": "address",
          "name": "_token",
          "type": "address"
        },
        {
          "internalType": "uint256",
          "name": "_amount",
          "type": "uint256"
        }
      ],
      "name": "swapBackToUSDC",
      "outputs": [],
      "stateMutability": "nonpayable",
      "type": "function"
    },
    {
      "inputs": [
        {
          "internalType": "uint256",
          "name": "amount",
          "type": "uint256"
        }
      ],
      "name": "swapIntoFourEqualParts",
      "outputs": [],
      "stateMutability": "nonpayable",
      "type": "function"
    },
    {
      "inputs": [
        {
          "internalType": "uint256",
          "name": "WMATIC_amount",
          "type": "uint256"
        },
        {
          "internalType": "uint256",
          "name": "SAND_amount",
          "type": "uint256"
        },
        {
          "internalType": "uint256",
          "name": "WETH_amount",
          "type": "uint256"
        },
        {
          "internalType": "uint256",
          "name": "WBTC_amount",
          "type": "uint256"
        },
        {
          "internalType": "uint256",
          "name": "totalUSDAmount",
          "type": "uint256"
        },
        {
          "internalType": "uint256",
          "name": "depositAmount",
          "type": "uint256"
        }
      ],
      "name": "swapProportionately",
      "outputs": [],
      "stateMutability": "nonpayable",
      "type": "function"
    },
    {
      "inputs": [],
      "name": "symbol",
      "outputs": [
        {
          "internalType": "string",
          "name": "",
          "type": "string"
        }
      ],
      "stateMutability": "view",
      "type": "function"
    },
    {
      "inputs": [
        {
          "internalType": "address",
          "name": "token_address",
          "type": "address"
        },
        {
          "internalType": "address",
          "name": "user_address",
          "type": "address"
        }
      ],
      "name": "tokenBalanceOf",
      "outputs": [
        {
          "internalType": "uint256",
          "name": "token_balance",
          "type": "uint256"
        }
      ],
      "stateMutability": "view",
      "type": "function"
    },
    {
      "inputs": [],
      "name": "totalSupply",
      "outputs": [
        {
          "internalType": "uint256",
          "name": "",
          "type": "uint256"
        }
      ],
      "stateMutability": "view",
      "type": "function"
    },
    {
      "inputs": [
        {
          "internalType": "address",
          "name": "to",
          "type": "address"
        },
        {
          "internalType": "uint256",
          "name": "amount",
          "type": "uint256"
        }
      ],
      "name": "transfer",
      "outputs": [
        {
          "internalType": "bool",
          "name": "",
          "type": "bool"
        }
      ],
      "stateMutability": "nonpayable",
      "type": "function"
    },
    {
      "inputs": [
        {
          "internalType": "address",
          "name": "from",
          "type": "address"
        },
        {
          "internalType": "address",
          "name": "to",
          "type": "address"
        },
        {
          "internalType": "uint256",
          "name": "amount",
          "type": "uint256"
        }
      ],
      "name": "transferFrom",
      "outputs": [
        {
          "internalType": "bool",
          "name": "",
          "type": "bool"
        }
      ],
      "stateMutability": "nonpayable",
      "type": "function"
    },
    {
      "inputs": [
        {
          "internalType": "uint256",
          "name": "amount_",
          "type": "uint256"
        },
        {
          "internalType": "address",
          "name": "token_address",
          "type": "address"
        },
        {
          "internalType": "address",
          "name": "address_to",
          "type": "address"
        }
      ],
      "name": "withdraw",
      "outputs": [],
      "stateMutability": "nonpayable",
      "type": "function"
    },
    {
      "inputs": [
        {
          "internalType": "address",
          "name": "user",
          "type": "address"
        }
      ],
      "name": "withdrawUserFunds",
      "outputs": [],
      "stateMutability": "nonpayable",
      "type": "function"
    },
    {
      "stateMutability": "payable",
      "type": "receive"
    }
  ],
  "bytecode": "0x60806040523462000274576200002962000018620002bf565b62000022620002e5565b90620009ee565b620002326200003762000290565b6000805160206200528783398151915281526200007660209162000070838201730d500b1d8e8ef31e21c99d1db9a6444d3adf12709052565b6200031b565b620000b56200008462000290565b60008051602062005287833981519152815273bbba073c31bf03b8acf7c28ef0738decf369568381840152620003bc565b620000f4620000c362000290565b600080516020620052878339815191528152737ceb23fd6bc0add59e62ac25578270cff1b9f619818401526200045d565b620001336200010262000290565b600080516020620052878339815191528152731bfd67037b42cf73acf2047067bd4f2c47d9bfd681840152620004fe565b620001726200014162000290565b730d500b1d8e8ef31e21c99d1db9a6444d3adf1270815260008051602062005287833981519152818401526200059f565b620001b16200018062000290565b73bbba073c31bf03b8acf7c28ef0738decf36956838152600080516020620052878339815191528184015262000640565b620001f0620001bf62000290565b737ceb23fd6bc0add59e62ac25578270cff1b9f61981526000805160206200528783398151915281840152620006e1565b6200022c620001fe62000290565b731bfd67037b42cf73acf2047067bd4f2c47d9bfd68152918201600080516020620052878339815191529052565b62000782565b6200023e610e10600e55565b600f80546001600160a01b03191673a5e0829caced8ffdd4de3c43696c57f7d7a678ff17905560405161477f908162000b088239f35b600080fd5b50634e487b7160e01b600052604160045260246000fd5b60408051919082016001600160401b03811183821017620002b057604052565b620002ba62000279565b604052565b620002c962000290565b90600c82526b30baba37a130b630b731b2b960a11b6020830152565b620002ef62000290565b90600382526241424160e81b6020830152565b8181106200030e575050565b6000815560010162000302565b60055490600291826005558083106200037e575b5060056000526020806000206000925b8484106200034e575050505050565b805182546001600160a01b0319166001600160a01b0391909116178255600193840193919091019082016200033f565b6005600052620003b5907f036b6384b5eca791c62761152d0c79bb0604c104a5fb6f4eb0703f3154bb3db090810190840162000302565b386200032f565b60065490600291826006558083106200041f575b5060066000526020806000206000925b848410620003ef575050505050565b805182546001600160a01b0319166001600160a01b039190911617825560019384019391909101908201620003e0565b600660005262000456907ff652222313e28459528d920b65115c16c04f3efc82aaedc97be59f3f377c0d3f90810190840162000302565b38620003d0565b6007549060029182600755808310620004c0575b5060076000526020806000206000925b84841062000490575050505050565b805182546001600160a01b0319166001600160a01b03919091161782556001938401939190910190820162000481565b6007600052620004f7907fa66cc928b5edb82af9bd49922954155ab7b0942694bea4ce44661d9a8736c68890810190840162000302565b3862000471565b600854906002918260085580831062000561575b5060086000526020806000206000925b84841062000531575050505050565b805182546001600160a01b0319166001600160a01b03919091161782556001938401939190910190820162000522565b600860005262000598907ff3f7a9fe364faab93b216da50a3214154f22a0a2b415b23a84c8169e8b636ee390810190840162000302565b3862000512565b600954906002918260095580831062000602575b5060096000526020806000206000925b848410620005d2575050505050565b805182546001600160a01b0319166001600160a01b039190911617825560019384019391909101908201620005c3565b600960005262000639907f6e1540171b6c0c960b71a7020d9f60077f6af931a8bbf590da0223dacf75c7af90810190840162000302565b38620005b3565b600a549060029182600a55808310620006a3575b50600a6000526020806000206000925b84841062000673575050505050565b805182546001600160a01b0319166001600160a01b03919091161782556001938401939190910190820162000664565b600a600052620006da907fc65a7bb8d6351c1cf70c95a316cc6a92839c986682d98bc35f958f4883f9d2a890810190840162000302565b3862000654565b600b549060029182600b5580831062000744575b50600b6000526020806000206000925b84841062000714575050505050565b805182546001600160a01b0319166001600160a01b03919091161782556001938401939190910190820162000705565b600b6000526200077b907f0175b7a638427703f0dbe7bb9bbf987a2551717b34e79f33b5b1008d1fa01db990810190840162000302565b38620006f5565b600c549060029182600c55808310620007e5575b50600c6000526020806000206000925b848410620007b5575050505050565b805182546001600160a01b0319166001600160a01b039190911617825560019384019391909101908201620007a6565b600c6000526200081c907fdf6966c971051c3d54ec59162606531493a51404a002842f56009d7e5cf4a8c790810190840162000302565b3862000796565b90600182811c9216801562000855575b60208310146200083f57565b634e487b7160e01b600052602260045260246000fd5b91607f169162000833565b90601f82116200086e575050565b6200089f9160036000526020600020906020601f840160051c83019310620008a1575b601f0160051c019062000302565b565b909150819062000891565b90601f8211620008ba575050565b6200089f9160046000526020600020906020601f840160051c83019310620008a157601f0160051c019062000302565b80519091906001600160401b038111620009de575b62000917816200091160045462000823565b620008ac565b602080601f83116001146200095657508192936000926200094a575b50508160011b916000199060031b1c191617600455565b01519050388062000933565b6004600052601f198316949091907f8a35acfbc15ff81a39ae7d344fd709f28e8600b4aa8c65c6b64bfe7fe36bd19b926000905b878210620009c5575050836001959610620009ab575b505050811b01600455565b015160001960f88460031b161c19169055388080620009a0565b806001859682949686015181550195019301906200098a565b620009e862000279565b620008ff565b80519091906001600160401b03811162000af7575b62000a1b8162000a1560035462000823565b62000860565b602080601f831160011462000a62575081906200089f9460009262000a56575b50508160011b916000199060031b1c191617600355620008ea565b01519050388062000a3b565b60036000529293919291601f1984167fc2575a0e9e593c00f959f8c92f12db2869c3395a3b0502d05e2516446f71f85b936000905b82821062000ade5750509160019391856200089f9796941062000ac4575b505050811b01600355620008ea565b015160001960f88460031b161c1916905538808062000ab5565b8060018697829497870151815501960194019062000a97565b62000b0162000279565b62000a0356fe6080604052600436101561001b575b361561001957600080fd5b005b60003560e01c806301f10d2a146103ef578063040141e5146103e657806306fdde03146103dd578063095ea7b3146103d457806316345f18146103cb57806318160ddd146103c25780631bea8006146103b957806322a90082146103b057806323aad7af146103a757806323b872dd1461039e57806324e2e7bb1461039557806329a97ec21461038c5780632d365d3114610383578063313ce5671461037a57806339509351146103715780633f3b3b271461036857806344345f231461035f5780634585e33b1461035657806351f548871461034d578063681bcf131461034457806369bc43881461033b5780636e04ff0d1461033257806370a0823114610329578063718176e514610320578063764f96f91461031757806388e42b081461030e5780638db9f39a1461030557806390f11e84146102fc578063947a36fb146102f357806395d89b41146102ea578063a15c7d10146102e1578063a457c2d7146102d8578063a48ce279146102cf578063a9059cbb146102c6578063aa5a7aa3146102bd578063b460af94146102b4578063b6e20a6a146102ab578063bb09d9b7146102a2578063bdd5915f14610299578063c5764eec14610290578063ca97090514610287578063cb3601b11461027e578063cd3f5b5314610275578063cf4128101461026c578063d091911614610263578063dd62ed3e1461025a578063e189eb4214610251578063e95d8328146102485763f8c0f6b40361000e57610243612847565b61000e565b506102436127f9565b506102436127a6565b50610243612710565b506102436126c2565b50610243612612565b506102436125c4565b5061024361253e565b506102436124b8565b5061024361236b565b5061024361231d565b506102436122cf565b50610243612281565b50610243612187565b506102436120b5565b50610243612070565b50610243611fea565b50610243611ede565b50610243611e58565b50610243611d76565b50610243611d39565b50610243611c24565b50610243611ab6565b50610243611a7b565b50610243611a31565b506102436119e3565b5061024361197d565b50610243611220565b50610243611181565b506102436110fb565b50610243611071565b50610243610e4f565b50610243610d61565b50610243610d24565b50610243610c9f565b50610243610c64565b50610243610c16565b50610243610bfe565b50610243610a40565b50610243610929565b50610243610843565b506102436107db565b50610243610790565b50610243610753565b50610243610709565b506102436106b9565b5061024361055c565b5061024361048b565b50610243610443565b6004359073ffffffffffffffffffffffffffffffffffffffff8216820361041b57565b600080fd5b6024359073ffffffffffffffffffffffffffffffffffffffff8216820361041b57565b503461041b5760607ffffffffffffffffffffffffffffffffffffffffffffffffffffffffffffffffc36011261041b5761001961047e6103f8565b6044359060243590613f47565b503461041b5760007ffffffffffffffffffffffffffffffffffffffffffffffffffffffffffffffffc36011261041b576020604051737ceb23fd6bc0add59e62ac25578270cff1b9f6198152f35b91908251928382526000905b8482106105305750601f84602094957fffffffffffffffffffffffffffffffffffffffffffffffffffffffffffffffe09311610523575b0116010190565b600085828601015261051c565b906020908180828501015190828601015201906104e5565b9060206105599281815201906104d9565b90565b503461041b576000807ffffffffffffffffffffffffffffffffffffffffffffffffffffffffffffffffc3601126106b65760405190806003549060019180831c928082169283156106ac575b602092838610851461067f57858852602088019490811561064557506001146105ec575b6105e8876105dc81890382611b34565b60405191829182610548565b0390f35b600360005294509192917fc2575a0e9e593c00f959f8c92f12db2869c3395a3b0502d05e2516446f71f85b5b83861061063457505050910190506105dc826105e838806105cc565b805485870152948201948101610618565b7fffffffffffffffffffffffffffffffffffffffffffffffffffffffffffffff001685525050500191506105dc9050826105e838806105cc565b6024827f4e487b710000000000000000000000000000000000000000000000000000000081526022600452fd5b93607f16936105a8565b80fd5b503461041b5760407ffffffffffffffffffffffffffffffffffffffffffffffffffffffffffffffffc36011261041b576106fe6106f46103f8565b6024359033612b72565b602060405160018152f35b503461041b5760207ffffffffffffffffffffffffffffffffffffffffffffffffffffffffffffffffc36011261041b57602061074b6107466103f8565b612d50565b604051908152f35b503461041b5760007ffffffffffffffffffffffffffffffffffffffffffffffffffffffffffffffffc36011261041b576020600254604051908152f35b503461041b5760407ffffffffffffffffffffffffffffffffffffffffffffffffffffffffffffffffc36011261041b57602061074b6107cd6103f8565b6107d5610420565b906145bb565b503461041b5760207ffffffffffffffffffffffffffffffffffffffffffffffffffffffffffffffffc36011261041b57600435600e55005b507f4e487b7100000000000000000000000000000000000000000000000000000000600052603260045260246000fd5b503461041b5760207ffffffffffffffffffffffffffffffffffffffffffffffffffffffffffffffffc36011261041b5760043560065481101561041b5773ffffffffffffffffffffffffffffffffffffffff60209160066000527ff652222313e28459528d920b65115c16c04f3efc82aaedc97be59f3f377c0d3f015416604051908152f35b7ffffffffffffffffffffffffffffffffffffffffffffffffffffffffffffffffc606091011261041b5773ffffffffffffffffffffffffffffffffffffffff90600435828116810361041b5791602435908116810361041b579060443590565b503461041b57610938366108c9565b9073ffffffffffffffffffffffffffffffffffffffff831660005260016020526109863360406000209073ffffffffffffffffffffffffffffffffffffffff16600052602052604060002090565b54927fffffffffffffffffffffffffffffffffffffffffffffffffffffffffffffffff84036109c6575b6109ba93506129e9565b60405160018152602090f35b8284106109e2576109dd836109ba95033383612b72565b6109b0565b60646040517f08c379a000000000000000000000000000000000000000000000000000000000815260206004820152601d60248201527f45524332303a20696e73756666696369656e7420616c6c6f77616e63650000006044820152fd5b503461041b5760207ffffffffffffffffffffffffffffffffffffffffffffffffffffffffffffffffc36011261041b57610019610a7b6103f8565b73ffffffffffffffffffffffffffffffffffffffff81166000526000602052610bbb610ab5604060002054610aaf30614360565b90612ffa565b610bb6610ac56002548093613083565b91610bb1610b0982610b04610afa8973ffffffffffffffffffffffffffffffffffffffff166000526000602052604060002090565b54610aaf306143f7565b613083565b610bac610b82610b4a85610b04610b408c73ffffffffffffffffffffffffffffffffffffffff166000526000602052604060002090565b54610aaf30614468565b94610b04610b788b73ffffffffffffffffffffffffffffffffffffffff166000526000602052604060002090565b54610aaf306144d9565b95610b8c816134cd565b610b9583613567565b610b9e856135d9565b610ba78761364b565b6141ba565b61422e565b614294565b6142fa565b610bcd81610bc83061454a565b614145565b610bf78173ffffffffffffffffffffffffffffffffffffffff166000526000602052604060002090565b5490613f73565b503461041b57610019610c10366108c9565b916137a6565b503461041b5760007ffffffffffffffffffffffffffffffffffffffffffffffffffffffffffffffffc36011261041b57602060405173bbba073c31bf03b8acf7c28ef0738decf36956838152f35b503461041b5760007ffffffffffffffffffffffffffffffffffffffffffffffffffffffffffffffffc36011261041b57602060405160128152f35b503461041b5760407ffffffffffffffffffffffffffffffffffffffffffffffffffffffffffffffffc36011261041b576106fe610cda6103f8565b336000526001602052610d1d602435610d178360406000209073ffffffffffffffffffffffffffffffffffffffff16600052602052604060002090565b546128bb565b9033612b72565b503461041b5760007ffffffffffffffffffffffffffffffffffffffffffffffffffffffffffffffffc36011261041b576020600d54604051908152f35b503461041b5760207ffffffffffffffffffffffffffffffffffffffffffffffffffffffffffffffffc36011261041b57600435600b5481101561041b5773ffffffffffffffffffffffffffffffffffffffff602091600b6000527f0175b7a638427703f0dbe7bb9bbf987a2551717b34e79f33b5b1008d1fa01db9015416604051908152f35b9060207ffffffffffffffffffffffffffffffffffffffffffffffffffffffffffffffffc83011261041b5760043567ffffffffffffffff9283821161041b578060238301121561041b57816004013593841161041b576024848301011161041b576024019190565b503461041b57610e5e36610de7565b90610e6b600d5442612e4a565b600e5410610e7557005b610e7e42600d55565b610e9b610e89613154565b91610e9261318f565b938101906133e7565b9160005b83519060ff81169182101561001957610fd191610efe610eed610ed3610ecd610ec786613317565b60ff1690565b88612f60565b5173ffffffffffffffffffffffffffffffffffffffff1690565b610ef78389612f60565b51906136bd565b730d500b1d8e8ef31e21c99d1db9a6444d3adf127080610f48610f2f610ed3610f29610ec788613317565b8a612f60565b73ffffffffffffffffffffffffffffffffffffffff1690565b1490811561104a575b5015610fd657610fc3610fcc91610f97610f73610ed3610f29610ec788613317565b610f7c88612f17565b9073ffffffffffffffffffffffffffffffffffffffff169052565b610fbd610fb4610ed3610f29610ec7610faf89613317565b61333e565b610f7c88612f2d565b87612f60565b51843091614696565b612f82565b610e9f565b611041610fcc91610ffb610ff2610ed3610f29610ec788613317565b610f7c8b612f17565b6110206110078a612f2d565b730d500b1d8e8ef31e21c99d1db9a6444d3adf12709052565b610fbd611038610ed3610f29610ec7610faf89613317565b610f7c8b612f3e565b51873091614696565b905061106a610f2f610ed3611064610ec7610faf88613317565b89612f60565b1438610f51565b503461041b576020610aaf6110d160026110a261109c611090366108c9565b969192909230906145bb565b91612d50565b927ffffffffffffffffffffffffffffffffffffffffffffffffffffffffffffffffd81116110ee575b01613037565b80156110e1575b60405191048152f35b6110e9613053565b6110d8565b6110f661288b565b6110cb565b503461041b5760207ffffffffffffffffffffffffffffffffffffffffffffffffffffffffffffffffc36011261041b5760043560095481101561041b5773ffffffffffffffffffffffffffffffffffffffff60209160096000527f6e1540171b6c0c960b71a7020d9f60077f6af931a8bbf590da0223dacf75c7af015416604051908152f35b503461041b5760207ffffffffffffffffffffffffffffffffffffffffffffffffffffffffffffffffc36011261041b5760043560055481101561041b5773ffffffffffffffffffffffffffffffffffffffff60209160056000527f036b6384b5eca791c62761152d0c79bb0604c104a5fb6f4eb0703f3154bb3db0015416604051908152f35b60409061055993921515815281602082015201906104d9565b503461041b5761122f36610de7565b505061123d600d5442612e4a565b600e5410611249612ec0565b611251612e61565b90602092611274848401730d500b1d8e8ef31e21c99d1db9a6444d3adf12709052565b60409261129684820173ab594600376ec9fd91f8e885dadf0ce036862de09052565b61129e612e61565b73bbba073c31bf03b8acf7c28ef0738decf369568381870152733d49406edd4d52fb7ffd25485f32e073b529c924818601526112d8612e61565b731bfd67037b42cf73acf2047067bd4f2c47d9bfd6878201529073c907e116054ad103354f2d350fd2514433d57f6f82870152611313612e61565b737ceb23fd6bc0add59e62ac25578270cff1b9f619888201529273f9680d99d6c9589e2a93a78a04a279e5092059458488015261134f86612f17565b5261135985612f17565b5061136385612f2d565b5261136d84612f2d565b5061137784612f3e565b5261138183612f3e565b5061138b83612f4f565b5261139582612f4f565b50600093845b835160ff8716908110156115c85761154e916115489161153f61152761151d6114ec60ff8b868b8f6113f1610f2f80846113d58789612f60565b51015173ffffffffffffffffffffffffffffffffffffffff1690565b9061147d610746826113d58151977f70a082310000000000000000000000000000000000000000000000000000000089526004988881806114528d3090830191909173ffffffffffffffffffffffffffffffffffffffff6020820193169052565b03818b5afa9081156115bb575b60009161158e575b506080611474838d612f60565b51015289612f60565b60e06114898d88612f60565b51015251928380927f313ce5670000000000000000000000000000000000000000000000000000000082525afa908115611581575b600091611554575b506114d78860609485931693612f60565b5101526114e4868d612f60565b510151612e00565b610aaf6115178c60e061150e8960806115058286612f60565b51015193612f60565b51015190612ffa565b91613037565b6305f5e100900490565b9160a09283611536838c612f60565b51015288612f60565b510151906128bb565b95612f82565b9461139b565b61157491508c8d3d1061157a575b61156c8183611b34565b810190612fa3565b386114c6565b503d611562565b611589612d43565b6114be565b6115ae9150893d8b116115b4575b6115a68183611b34565b810190612f94565b38611467565b503d61159c565b6115c3612d43565b61145f565b509190945060005b835160ff82169081101561161f57908160c061161261160b60a06115f761161a978b612f60565b5101516116058a518a613083565b90613099565b9288612f60565b510152612f82565b6115d0565b858388876000918294839461163c6116378551612e1c565b613105565b9261165261163761164d8751612e1c565b612fbc565b86915b61165f8751612e1c565b9460ff948585169687101561192e5760005b8951878216908110156116ec5760c08b8d82848161168f8286612f60565b510151151593846116d3575b505050506116b4575b50506116af90612f82565b611671565b909d50819b506116c86116af929e8c612f60565b5101519a908e6116a4565b6116df92939450612f60565b510151138d82848f61169b565b50969a7f7fffffffffffffffffffffffffffffffffffffffffffffffffffffffffffffff9a5094979396509194919060005b89518d8583169182101561179b575060c08b8d82848161173e8286612f60565b51015115159384611782575b50505050611763575b505061175e90612f82565b61171e565b909650819b5061177761175e92978c612f60565b5101519a908e611753565b61178e92939450612f60565b510151128d82848f61174a565b6118bd925088978892506118b7819f610fcc969b8f8b9f999e9b926113d5916118a2948d6118d59e6113d59a169360c091826117d78787612f60565b5101519a16809a6117f4846117ec8489612f60565b51015161347d565b12156118de578261180e61189c946117ec60009489612f60565b6118188487612f60565b526118238386612f60565b5161183c826118328a8a612f60565b5101918251613099565b90526118488c87612f60565b51015261189661187961186461185e8487612f60565b51613235565b60e06118708989612f60565b510151906132a8565b61189061188b60606114e48a8a612f60565b613037565b906132a8565b92612f60565b52612f60565b610f7c6118b1610ec78a613317565b8b612f60565b8c612f60565b610f7c6118cf610ec7610faf86613317565b86612f60565b91939293611655565b506000826118f361189c946117ec8989612f60565b6118fd8487612f60565b528b61192282611918611910878a612f60565b51938a612f60565b51019182516131c9565b90526118488787612f60565b91906119736105e8926119478a8451978893840161339a565b037fffffffffffffffffffffffffffffffffffffffffffffffffffffffffffffffe08101865285611b34565b5192839283611207565b503461041b5760207ffffffffffffffffffffffffffffffffffffffffffffffffffffffffffffffffc36011261041b5773ffffffffffffffffffffffffffffffffffffffff6119ca6103f8565b1660005260006020526020604060002054604051908152f35b503461041b5760007ffffffffffffffffffffffffffffffffffffffffffffffffffffffffffffffffc36011261041b57602060405173f9680d99d6c9589e2a93a78a04a279e5092059458152f35b503461041b5760c07ffffffffffffffffffffffffffffffffffffffffffffffffffffffffffffffffc36011261041b5761001960a435608435606435604435602435600435613c25565b503461041b5760207ffffffffffffffffffffffffffffffffffffffffffffffffffffffffffffffffc36011261041b57610019600435613d2b565b503461041b5760007ffffffffffffffffffffffffffffffffffffffffffffffffffffffffffffffffc36011261041b57602060405173ab594600376ec9fd91f8e885dadf0ce036862de08152f35b507f4e487b7100000000000000000000000000000000000000000000000000000000600052604160045260246000fd5b90601f7fffffffffffffffffffffffffffffffffffffffffffffffffffffffffffffffe0910116810190811067ffffffffffffffff821117611b7557604052565b611b7d611b04565b604052565b60209067ffffffffffffffff8111611b9c575b60051b0190565b611ba4611b04565b611b95565b81601f8201121561041b57803591611bc083611b82565b92611bce6040519485611b34565b808452602092838086019260051b82010192831161041b578301905b828210611bf8575050505090565b813573ffffffffffffffffffffffffffffffffffffffff8116810361041b578152908301908301611bea565b503461041b5760a07ffffffffffffffffffffffffffffffffffffffffffffffffffffffffffffffffc36011261041b5760443567ffffffffffffffff811161041b57611c74903690600401611ba9565b6064359073ffffffffffffffffffffffffffffffffffffffff80831680930361041b57600091611cf191600f541690836040518096819582947f38ed17390000000000000000000000000000000000000000000000000000000084526004356004850152602435602485015260a0604485015260a4840190613350565b906064830152608435608483015203925af18015611d2c575b611d1057005b610019903d806000833e611d248183611b34565b81019061461c565b611d34612d43565b611d0a565b503461041b5760007ffffffffffffffffffffffffffffffffffffffffffffffffffffffffffffffffc36011261041b576020600e54604051908152f35b503461041b576000807ffffffffffffffffffffffffffffffffffffffffffffffffffffffffffffffffc3601126106b65760405190806004549060019180831c92808216928315611e4e575b602092838610851461067f5785885260208801949081156106455750600114611df5576105e8876105dc81890382611b34565b600460005294509192917f8a35acfbc15ff81a39ae7d344fd709f28e8600b4aa8c65c6b64bfe7fe36bd19b5b838610611e3d57505050910190506105dc826105e838806105cc565b805485870152948201948101611e21565b93607f1693611dc2565b503461041b5760207ffffffffffffffffffffffffffffffffffffffffffffffffffffffffffffffffc36011261041b5760043560085481101561041b5773ffffffffffffffffffffffffffffffffffffffff60209160086000527ff3f7a9fe364faab93b216da50a3214154f22a0a2b415b23a84c8169e8b636ee3015416604051908152f35b503461041b5760407ffffffffffffffffffffffffffffffffffffffffffffffffffffffffffffffffc36011261041b57611f166103f8565b60243590336000526001602052611f518160406000209073ffffffffffffffffffffffffffffffffffffffff16600052602052604060002090565b5491808310611f66576109ba92039033612b72565b60846040517f08c379a000000000000000000000000000000000000000000000000000000000815260206004820152602560248201527f45524332303a2064656372656173656420616c6c6f77616e63652062656c6f7760448201527f207a65726f0000000000000000000000000000000000000000000000000000006064820152fd5b503461041b5760207ffffffffffffffffffffffffffffffffffffffffffffffffffffffffffffffffc36011261041b57600435600a5481101561041b5773ffffffffffffffffffffffffffffffffffffffff602091600a6000527fc65a7bb8d6351c1cf70c95a316cc6a92839c986682d98bc35f958f4883f9d2a8015416604051908152f35b503461041b5760407ffffffffffffffffffffffffffffffffffffffffffffffffffffffffffffffffc36011261041b576106fe6120ab6103f8565b60243590336129e9565b503461041b5760407ffffffffffffffffffffffffffffffffffffffffffffffffffffffffffffffffc36011261041b576100196120f06103f8565b6120f8610420565b604051917f70a0823100000000000000000000000000000000000000000000000000000000835230600484015260208360248173ffffffffffffffffffffffffffffffffffffffff85165afa92831561217a575b60009361215a575b506137a6565b61217391935060203d81116115b4576115a68183611b34565b9138612154565b612182612d43565b61214c565b503461041b5760607ffffffffffffffffffffffffffffffffffffffffffffffffffffffffffffffffc36011261041b576121bf610420565b73ffffffffffffffffffffffffffffffffffffffff90604435828116810361041b576040517fa9059cbb00000000000000000000000000000000000000000000000000000000815273ffffffffffffffffffffffffffffffffffffffff919091166004808301919091523560248201529160209183916044918391600091165af18015612274575b61224d57005b6100199060203d811161226d575b6122658183611b34565b8101906134b5565b503d61225b565b61227c612d43565b612247565b503461041b5760007ffffffffffffffffffffffffffffffffffffffffffffffffffffffffffffffffc36011261041b57602060405173c907e116054ad103354f2d350fd2514433d57f6f8152f35b503461041b5760007ffffffffffffffffffffffffffffffffffffffffffffffffffffffffffffffffc36011261041b576020604051732791bca1f2de4661ed88a30c99a7a9449aa841748152f35b503461041b5760007ffffffffffffffffffffffffffffffffffffffffffffffffffffffffffffffffc36011261041b576020604051731bfd67037b42cf73acf2047067bd4f2c47d9bfd68152f35b503461041b5760207ffffffffffffffffffffffffffffffffffffffffffffffffffffffffffffffffc36011261041b576040517f23b872dd000000000000000000000000000000000000000000000000000000008152336004808301919091523060248301523560448201819052906020816064816000732791bca1f2de4661ed88a30c99a7a9449aa841745af180156124ab575b61248d575b5061240e61380e565b906124176138e9565b61241f613958565b92826124296139c7565b946124418661243c8361243c88886128bb565b6128bb565b95869161244d84613734565b82158015969061247a5761246095613c25565b1561246f576100199133613f47565b610019915033613e56565b505050506124889150613d2b565b612460565b6124a49060203d811161226d576122658183611b34565b5038612405565b6124b3612d43565b612400565b503461041b5760207ffffffffffffffffffffffffffffffffffffffffffffffffffffffffffffffffc36011261041b57600435600c5481101561041b5773ffffffffffffffffffffffffffffffffffffffff602091600c6000527fdf6966c971051c3d54ec59162606531493a51404a002842f56009d7e5cf4a8c7015416604051908152f35b503461041b5760207ffffffffffffffffffffffffffffffffffffffffffffffffffffffffffffffffc36011261041b5760043560075481101561041b5773ffffffffffffffffffffffffffffffffffffffff60209160076000527fa66cc928b5edb82af9bd49922954155ab7b0942694bea4ce44661d9a8736c688015416604051908152f35b503461041b5760007ffffffffffffffffffffffffffffffffffffffffffffffffffffffffffffffffc36011261041b576020604051733d49406edd4d52fb7ffd25485f32e073b529c9248152f35b503461041b5760407ffffffffffffffffffffffffffffffffffffffffffffffffffffffffffffffffc36011261041b5761001961264d6103f8565b73ffffffffffffffffffffffffffffffffffffffff61266a613154565b918251156126b5575b1660208201528051600110156126a8575b732791bca1f2de4661ed88a30c99a7a9449aa8417460408201523090602435614696565b6126b0610813565b612684565b6126bd610813565b612673565b503461041b5760007ffffffffffffffffffffffffffffffffffffffffffffffffffffffffffffffffc36011261041b57602060405173a5e0829caced8ffdd4de3c43696c57f7d7a678ff8152f35b503461041b5760407ffffffffffffffffffffffffffffffffffffffffffffffffffffffffffffffffc36011261041b57602061279d61274d6103f8565b73ffffffffffffffffffffffffffffffffffffffff61276a610420565b91166000526001835260406000209073ffffffffffffffffffffffffffffffffffffffff16600052602052604060002090565b54604051908152f35b503461041b5760007ffffffffffffffffffffffffffffffffffffffffffffffffffffffffffffffffc36011261041b57602073ffffffffffffffffffffffffffffffffffffffff600f5416604051908152f35b503461041b5760007ffffffffffffffffffffffffffffffffffffffffffffffffffffffffffffffffc36011261041b576020604051730d500b1d8e8ef31e21c99d1db9a6444d3adf12708152f35b503461041b5760407ffffffffffffffffffffffffffffffffffffffffffffffffffffffffffffffffc36011261041b576100196128826103f8565b60243590613e56565b507f4e487b7100000000000000000000000000000000000000000000000000000000600052601160045260246000fd5b811981116128c7570190565b6128cf61288b565b0190565b156128da57565b60846040517f08c379a000000000000000000000000000000000000000000000000000000000815260206004820152602360248201527f45524332303a207472616e7366657220746f20746865207a65726f206164647260448201527f65737300000000000000000000000000000000000000000000000000000000006064820152fd5b1561296557565b60846040517f08c379a000000000000000000000000000000000000000000000000000000000815260206004820152602660248201527f45524332303a207472616e7366657220616d6f756e742065786365656473206260448201527f616c616e636500000000000000000000000000000000000000000000000000006064820152fd5b919073ffffffffffffffffffffffffffffffffffffffff90818416928315612aee57612acc827fddf252ad1be2c89b69c2b068fc378daa952ba7f163c4a11628f55a4df523b3ef94612ae9941696612a428815156128d3565b612aa584612a708373ffffffffffffffffffffffffffffffffffffffff166000526000602052604060002090565b54612a7d8282101561295e565b039173ffffffffffffffffffffffffffffffffffffffff166000526000602052604060002090565b5573ffffffffffffffffffffffffffffffffffffffff166000526000602052604060002090565b612ad78282546128bb565b90556040519081529081906020820190565b0390a3565b60846040517f08c379a000000000000000000000000000000000000000000000000000000000815260206004820152602560248201527f45524332303a207472616e736665722066726f6d20746865207a65726f20616460448201527f64726573730000000000000000000000000000000000000000000000000000006064820152fd5b9073ffffffffffffffffffffffffffffffffffffffff91828116928315612ca9578216938415612c255780612c147f8c5be1e5ebec7d5bd14f71427d1e84f3dd0314c0f7b2291e5b200ac8c7c3b92594612bef612ae99573ffffffffffffffffffffffffffffffffffffffff166000526001602052604060002090565b9073ffffffffffffffffffffffffffffffffffffffff16600052602052604060002090565b556040519081529081906020820190565b60846040517f08c379a000000000000000000000000000000000000000000000000000000000815260206004820152602260248201527f45524332303a20617070726f766520746f20746865207a65726f20616464726560448201527f73730000000000000000000000000000000000000000000000000000000000006064820152fd5b60846040517f08c379a0000000000000000000000000000000000000000000000000000000008152602060048201526024808201527f45524332303a20617070726f76652066726f6d20746865207a65726f2061646460448201527f72657373000000000000000000000000000000000000000000000000000000006064820152fd5b519069ffffffffffffffffffff8216820361041b57565b506040513d6000823e3d90fd5b60a073ffffffffffffffffffffffffffffffffffffffff916004604051809481937ffeaf968c000000000000000000000000000000000000000000000000000000008352165afa908115612df3575b600091612daa575090565b9060a0823d8211612deb575b81612dc360a09383611b34565b810103126106b65750612dd581612d2c565b50612de7608060208301519201612d2c565b5090565b3d9150612db6565b612dfb612d43565b612d9f565b80601210612e0f575b60120390565b612e1761288b565b612e09565b7fffffffffffffffffffffffffffffffffffffffffffffffffffffffffffffffff90600181106128c7570190565b818110612e55570390565b612e5d61288b565b0390565b60405190610100820182811067ffffffffffffffff821117612eb3575b604052816060815260e06000918260208201528260408201528260608201528260808201528260a08201528260c08201520152565b612ebb611b04565b612e7e565b6040519060a0820182811067ffffffffffffffff821117612f0a575b604052600482528160005b60808110612ef3575050565b602090612efe612e61565b82828501015201612ee7565b612f12611b04565b612edc565b602090805115612f25570190565b6128cf610813565b604090805160011015612f25570190565b606090805160021015612f25570190565b608090805160031015612f25570190565b6020918151811015612f75575b60051b010190565b612f7d610813565b612f6d565b60ff6001911660ff81146128c7570190565b9081602091031261041b575190565b9081602091031261041b575160ff8116810361041b5790565b7f7fffffffffffffffffffffffffffffffffffffffffffffffffffffffffffffff8111600116612fed575b60011b90565b612ff561288b565b612fe7565b807fffffffffffffffffffffffffffffffffffffffffffffffffffffffffffffffff0482118115151661302b570290565b61303361288b565b0290565b604d8111613046575b600a0a90565b61304e61288b565b613040565b507f4e487b7100000000000000000000000000000000000000000000000000000000600052601260045260246000fd5b811561308d570490565b613095613053565b0490565b60008212827f80000000000000000000000000000000000000000000000000000000000000000182128115166130f8575b827f7fffffffffffffffffffffffffffffffffffffffffffffffffffffffffffffff01821316612e55570390565b61310061288b565b6130ca565b9061310f82611b82565b61311c6040519182611b34565b8281527fffffffffffffffffffffffffffffffffffffffffffffffffffffffffffffffe061314a8294611b82565b0190602036910137565b604051906060820182811067ffffffffffffffff821117613182575b60405260028252604082602036910137565b61318a611b04565b613170565b604051906080820182811067ffffffffffffffff8211176131bc575b604052600382526060366020840137565b6131c4611b04565b6131ab565b60008112817f7fffffffffffffffffffffffffffffffffffffffffffffffffffffffffffffff038313811516613228575b817f8000000000000000000000000000000000000000000000000000000000000000038312166128c7570190565b61323061288b565b6131fa565b6305f5e1009060017c15798ee2308c39df9fb841a566d74f87a7a9a7aeb02c2d2f8e0d1e768d821160008313161661329b575b60017fffffffea86711dcf73c6206047be5a9928b078585658514fd3d2d071f2e18973821260008312161661302b570290565b6132a361288b565b613268565b811561330a575b7fffffffffffffffffffffffffffffffffffffffffffffffffffffffffffffffff82147f80000000000000000000000000000000000000000000000000000000000000008214166132fe570590565b61330661288b565b0590565b613312613053565b6132af565b6101fe90607f60ff821611600116613331575b60011b1690565b61333961288b565b61332a565b60ff6001911660fe81116128c7570190565b90815180825260208080930193019160005b828110613370575050505090565b835173ffffffffffffffffffffffffffffffffffffffff1685529381019392810192600101613362565b906133ad90604083526040830190613350565b81810360209283015282518082529082019282019160005b8281106133d3575050505090565b8351855293810193928101926001016133c5565b919060408382031261041b5767ffffffffffffffff92803584811161041b5782613412918301611ba9565b936020918281013591821161041b57019180601f8401121561041b57823561343981611b82565b936134476040519586611b34565b818552838086019260051b82010192831161041b578301905b82821061346e575050505090565b81358152908301908301613460565b600080821261348a575090565b7f80000000000000000000000000000000000000000000000000000000000000008214612e55570390565b9081602091031261041b5751801515810361041b5790565b604051907f095ea7b300000000000000000000000000000000000000000000000000000000825273a5e0829caced8ffdd4de3c43696c57f7d7a678ff600483015260248201526020816044816000730d500b1d8e8ef31e21c99d1db9a6444d3adf12705af1801561355a575b6135405750565b6135579060203d811161226d576122658183611b34565b50565b613562612d43565b613539565b604051907f095ea7b300000000000000000000000000000000000000000000000000000000825273a5e0829caced8ffdd4de3c43696c57f7d7a678ff60048301526024820152602081604481600073bbba073c31bf03b8acf7c28ef0738decf36956835af1801561355a576135405750565b604051907f095ea7b300000000000000000000000000000000000000000000000000000000825273a5e0829caced8ffdd4de3c43696c57f7d7a678ff600483015260248201526020816044816000737ceb23fd6bc0add59e62ac25578270cff1b9f6195af1801561355a576135405750565b604051907f095ea7b300000000000000000000000000000000000000000000000000000000825273a5e0829caced8ffdd4de3c43696c57f7d7a678ff600483015260248201526020816044816000731bfd67037b42cf73acf2047067bd4f2c47d9bfd65af1801561355a576135405750565b602090604473ffffffffffffffffffffffffffffffffffffffff93600060405195869485937f095ea7b300000000000000000000000000000000000000000000000000000000855273a5e0829caced8ffdd4de3c43696c57f7d7a678ff60048601526024850152165af1801561355a576135405750565b604051907f095ea7b300000000000000000000000000000000000000000000000000000000825273a5e0829caced8ffdd4de3c43696c57f7d7a678ff600483015260248201526020816044816000732791bca1f2de4661ed88a30c99a7a9449aa841745af1801561355a576135405750565b6040517f095ea7b300000000000000000000000000000000000000000000000000000000815273ffffffffffffffffffffffffffffffffffffffff9283166004820152602481019390935260209183916044918391600091165af1801561355a576135405750565b61381730614360565b6040517ffeaf968c00000000000000000000000000000000000000000000000000000000815260a08160048173ab594600376ec9fd91f8e885dadf0ce036862de05afa9081156138dc575b60009161387f575b506130959068056bc75e2d6310000092612ffa565b9060a0823d82116138d4575b8161389860a09383611b34565b810103126106b6575068056bc75e2d6310000091816138b961309593612d2c565b506138cb608060208301519201612d2c565b5091509161386a565b3d915061388b565b6138e4612d43565b613862565b6138f2306143f7565b6040517ffeaf968c00000000000000000000000000000000000000000000000000000000815260a081600481733d49406edd4d52fb7ffd25485f32e073b529c9245afa9081156138dc5760009161387f57506130959068056bc75e2d6310000092612ffa565b61396130614468565b6040517ffeaf968c00000000000000000000000000000000000000000000000000000000815260a08160048173f9680d99d6c9589e2a93a78a04a279e5092059455afa9081156138dc5760009161387f57506130959068056bc75e2d6310000092612ffa565b6139d0306144d9565b6040517ffeaf968c00000000000000000000000000000000000000000000000000000000815260a08160048173c907e116054ad103354f2d350fd2514433d57f6f5afa908115613a8d575b600091613a34575b50613095906402540be40092612ffa565b9060a0823d8211613a85575b81613a4d60a09383611b34565b810103126106b657506402540be4009181613a6a61309593612d2c565b50613a7c608060208301519201612d2c565b50915091613a23565b3d9150613a40565b613a95612d43565b613a1b565b60405190600654808352826020918282019060066000527ff652222313e28459528d920b65115c16c04f3efc82aaedc97be59f3f377c0d3f936000905b828210613aef57505050613aed92500383611b34565b565b855473ffffffffffffffffffffffffffffffffffffffff1684526001958601958895509381019390910190613ad7565b60405190600754808352826020918282019060076000527fa66cc928b5edb82af9bd49922954155ab7b0942694bea4ce44661d9a8736c688936000905b828210613b7257505050613aed92500383611b34565b855473ffffffffffffffffffffffffffffffffffffffff1684526001958601958895509381019390910190613b5c565b60405190600854808352826020918282019060086000527ff3f7a9fe364faab93b216da50a3214154f22a0a2b415b23a84c8169e8b636ee3936000905b828210613bf557505050613aed92500383611b34565b855473ffffffffffffffffffffffffffffffffffffffff1684526001958601958895509381019390910190613bdf565b8585613c558282613c4e82613c42839e9d613c5c999d9a9d612ffa565b9b8315613d1e57612ffa565b0496612ffa565b0494612ffa565b04926040519586906005549788815260208091019860056000527f036b6384b5eca791c62761152d0c79bb0604c104a5fb6f4eb0703f3154bb3db0916000905b828210613cf15750505050613cdd9282613ccd92613cc5613ce7989795613aed9b9c0383611b34565b309204614696565b3090613cd7613a9a565b90614696565b3090613cd7613b1f565b3090613cd7613ba2565b835473ffffffffffffffffffffffffffffffffffffffff168c529a8b019a60019384019390910190613c9c565b613d26613053565b612ffa565b60021c6040518060055480835260208093019060056000527f036b6384b5eca791c62761152d0c79bb0604c104a5fb6f4eb0703f3154bb3db09060005b85828210613e2c575050505090613d8481613d8c930382611b34565b309084614696565b60405180918060065492838152019160066000527ff652222313e28459528d920b65115c16c04f3efc82aaedc97be59f3f377c0d3f916000905b828210613dff575050505081613de5613aed9493613ded930382611b34565b309083614696565b613ce730613df9613b1f565b83614696565b835473ffffffffffffffffffffffffffffffffffffffff1685529384019360019384019390910190613dc6565b835473ffffffffffffffffffffffffffffffffffffffff1685529093019260019283019201613d68565b73ffffffffffffffffffffffffffffffffffffffff8116918215613ee957602081613ed3600094613eaa7fddf252ad1be2c89b69c2b068fc378daa952ba7f163c4a11628f55a4df523b3ef956002546128bb565b60025573ffffffffffffffffffffffffffffffffffffffff166000526000602052604060002090565b613ede8282546128bb565b9055604051908152a3565b60646040517f08c379a000000000000000000000000000000000000000000000000000000000815260206004820152601f60248201527f45524332303a206d696e7420746f20746865207a65726f2061646472657373006044820152fd5b90613f58613aed9360025490612ffa565b8115613f66575b0490613e56565b613f6e613053565b613f5f565b73ffffffffffffffffffffffffffffffffffffffff81169081156140c157613fbb8173ffffffffffffffffffffffffffffffffffffffff166000526000602052604060002090565b5483811061403d57837fddf252ad1be2c89b69c2b068fc378daa952ba7f163c4a11628f55a4df523b3ef92614018600096612ae994039173ffffffffffffffffffffffffffffffffffffffff166000526000602052604060002090565b5561402d61402882600254612e4a565b600255565b6040519081529081906020820190565b60846040517f08c379a000000000000000000000000000000000000000000000000000000000815260206004820152602260248201527f45524332303a206275726e20616d6f756e7420657863656564732062616c616e60448201527f63650000000000000000000000000000000000000000000000000000000000006064820152fd5b60846040517f08c379a000000000000000000000000000000000000000000000000000000000815260206004820152602160248201527f45524332303a206275726e2066726f6d20746865207a65726f2061646472657360448201527f73000000000000000000000000000000000000000000000000000000000000006064820152fd5b6040517fa9059cbb00000000000000000000000000000000000000000000000000000000815273ffffffffffffffffffffffffffffffffffffffff92909216600483015260248201526020816044816000732791bca1f2de4661ed88a30c99a7a9449aa841745af1801561355a576135405750565b613aed906141c6613154565b805115614221575b730d500b1d8e8ef31e21c99d1db9a6444d3adf12706020820152805160011015614214575b732791bca1f2de4661ed88a30c99a7a9449aa8417460408201523091614696565b61421c610813565b6141f3565b614229610813565b6141ce565b613aed9061423a613154565b805115614287575b73bbba073c31bf03b8acf7c28ef0738decf3695683602082015280516001101561421457732791bca1f2de4661ed88a30c99a7a9449aa8417460408201523091614696565b61428f610813565b614242565b613aed906142a0613154565b8051156142ed575b737ceb23fd6bc0add59e62ac25578270cff1b9f619602082015280516001101561421457732791bca1f2de4661ed88a30c99a7a9449aa8417460408201523091614696565b6142f5610813565b6142a8565b613aed90614306613154565b805115614353575b731bfd67037b42cf73acf2047067bd4f2c47d9bfd6602082015280516001101561421457732791bca1f2de4661ed88a30c99a7a9449aa8417460408201523091614696565b61435b610813565b61430e565b73ffffffffffffffffffffffffffffffffffffffff604051917f70a08231000000000000000000000000000000000000000000000000000000008352166004820152602081602481730d500b1d8e8ef31e21c99d1db9a6444d3adf12705afa9081156143ea575b6000916143d2575090565b610559915060203d81116115b4576115a68183611b34565b6143f2612d43565b6143c7565b73ffffffffffffffffffffffffffffffffffffffff604051917f70a0823100000000000000000000000000000000000000000000000000000000835216600482015260208160248173bbba073c31bf03b8acf7c28ef0738decf36956835afa9081156143ea576000916143d2575090565b73ffffffffffffffffffffffffffffffffffffffff604051917f70a08231000000000000000000000000000000000000000000000000000000008352166004820152602081602481737ceb23fd6bc0add59e62ac25578270cff1b9f6195afa9081156143ea576000916143d2575090565b73ffffffffffffffffffffffffffffffffffffffff604051917f70a08231000000000000000000000000000000000000000000000000000000008352166004820152602081602481731bfd67037b42cf73acf2047067bd4f2c47d9bfd65afa9081156143ea576000916143d2575090565b73ffffffffffffffffffffffffffffffffffffffff604051917f70a08231000000000000000000000000000000000000000000000000000000008352166004820152602081602481732791bca1f2de4661ed88a30c99a7a9449aa841745afa9081156143ea576000916143d2575090565b6020906024604051809481937f70a0823100000000000000000000000000000000000000000000000000000000835273ffffffffffffffffffffffffffffffffffffffff8092166004840152165afa9081156143ea576000916143d2575090565b602090818184031261041b5780519067ffffffffffffffff821161041b57019180601f8401121561041b57825161465281611b82565b936146606040519586611b34565b818552838086019260051b82010192831161041b578301905b828210614687575050505090565b81518152908301908301614679565b91614704906000928373ffffffffffffffffffffffffffffffffffffffff9586600f541693604051978896879586947f38ed1739000000000000000000000000000000000000000000000000000000008652600486015285602486015260a0604486015260a4850190613350565b9116606483015264174876e7ff608483015203925af1801561473c575b6147285750565b613557903d806000833e611d248183611b34565b614744612d43565b61472156fea2646970667358221220ae896067fd42672dd8e70ced9d5a566dbd1b52724761d11883f6ae2836c920a064736f6c634300080d00330000000000000000000000002791bca1f2de4661ed88a30c99a7a9449aa84174",
  "linkReferences": {},
  "deployedLinkReferences": {}
}