{
  "_format": "hh-sol-artifact-1",
  "contractName": "autoBalancer",
  "sourceName": "contracts/autoBalancer.sol",
  "abi": [
    {
      "inputs": [],
      "stateMutability": "nonpayable",
      "type": "constructor"
    },
    {
      "anonymous": false,
      "inputs": [
        {
          "indexed": true,
          "internalType": "address",
          "name": "owner",
          "type": "address"
        },
        {
          "indexed": true,
          "internalType": "address",
          "name": "spender",
          "type": "address"
        },
        {
          "indexed": false,
          "internalType": "uint256",
          "name": "value",
          "type": "uint256"
        }
      ],
      "name": "Approval",
      "type": "event"
    },
    {
      "anonymous": false,
      "inputs": [
        {
          "indexed": true,
          "internalType": "address",
          "name": "from",
          "type": "address"
        },
        {
          "indexed": true,
          "internalType": "address",
          "name": "to",
          "type": "address"
        },
        {
          "indexed": false,
          "internalType": "uint256",
          "name": "value",
          "type": "uint256"
        }
      ],
      "name": "Transfer",
      "type": "event"
    },
    {
      "inputs": [],
      "name": "BTC_USD_ORACLE",
      "outputs": [
        {
          "internalType": "address",
          "name": "",
          "type": "address"
        }
      ],
      "stateMutability": "view",
      "type": "function"
    },
    {
      "inputs": [],
      "name": "ETH_USD_ORACLE",
      "outputs": [
        {
          "internalType": "address",
          "name": "",
          "type": "address"
        }
      ],
      "stateMutability": "view",
      "type": "function"
    },
    {
      "inputs": [],
      "name": "MATIC_USD_ORACLE",
      "outputs": [
        {
          "internalType": "address",
          "name": "",
          "type": "address"
        }
      ],
      "stateMutability": "view",
      "type": "function"
    },
    {
      "inputs": [],
      "name": "QUICKSWAP_ROUTER",
      "outputs": [
        {
          "internalType": "address",
          "name": "",
          "type": "address"
        }
      ],
      "stateMutability": "view",
      "type": "function"
    },
    {
      "inputs": [
        {
          "internalType": "uint256",
          "name": "",
          "type": "uint256"
        }
      ],
      "name": "SANDToUSDCPath",
      "outputs": [
        {
          "internalType": "address",
          "name": "",
          "type": "address"
        }
      ],
      "stateMutability": "view",
      "type": "function"
    },
    {
      "inputs": [],
      "name": "SAND_ADDRESS",
      "outputs": [
        {
          "internalType": "address",
          "name": "",
          "type": "address"
        }
      ],
      "stateMutability": "view",
      "type": "function"
    },
    {
      "inputs": [],
      "name": "SAND_USD_ORACLE",
      "outputs": [
        {
          "internalType": "address",
          "name": "",
          "type": "address"
        }
      ],
      "stateMutability": "view",
      "type": "function"
    },
    {
      "inputs": [
        {
          "internalType": "uint256",
          "name": "",
          "type": "uint256"
        }
      ],
      "name": "USDCToSANDPath",
      "outputs": [
        {
          "internalType": "address",
          "name": "",
          "type": "address"
        }
      ],
      "stateMutability": "view",
      "type": "function"
    },
    {
      "inputs": [
        {
          "internalType": "uint256",
          "name": "",
          "type": "uint256"
        }
      ],
      "name": "USDCToWBTCPath",
      "outputs": [
        {
          "internalType": "address",
          "name": "",
          "type": "address"
        }
      ],
      "stateMutability": "view",
      "type": "function"
    },
    {
      "inputs": [
        {
          "internalType": "uint256",
          "name": "",
          "type": "uint256"
        }
      ],
      "name": "USDCToWETHPath",
      "outputs": [
        {
          "internalType": "address",
          "name": "",
          "type": "address"
        }
      ],
      "stateMutability": "view",
      "type": "function"
    },
    {
      "inputs": [
        {
          "internalType": "uint256",
          "name": "",
          "type": "uint256"
        }
      ],
      "name": "USDCToWMATICPath",
      "outputs": [
        {
          "internalType": "address",
          "name": "",
          "type": "address"
        }
      ],
      "stateMutability": "view",
      "type": "function"
    },
    {
      "inputs": [],
      "name": "USDC_ADDRESS",
      "outputs": [
        {
          "internalType": "address",
          "name": "",
          "type": "address"
        }
      ],
      "stateMutability": "view",
      "type": "function"
    },
    {
      "inputs": [
        {
          "internalType": "uint256",
          "name": "",
          "type": "uint256"
        }
      ],
      "name": "WBTCToUSDCPath",
      "outputs": [
        {
          "internalType": "address",
          "name": "",
          "type": "address"
        }
      ],
      "stateMutability": "view",
      "type": "function"
    },
    {
      "inputs": [],
      "name": "WBTC_ADDRESS",
      "outputs": [
        {
          "internalType": "address",
          "name": "",
          "type": "address"
        }
      ],
      "stateMutability": "view",
      "type": "function"
    },
    {
      "inputs": [
        {
          "internalType": "uint256",
          "name": "",
          "type": "uint256"
        }
      ],
      "name": "WETHToUSDCPath",
      "outputs": [
        {
          "internalType": "address",
          "name": "",
          "type": "address"
        }
      ],
      "stateMutability": "view",
      "type": "function"
    },
    {
      "inputs": [],
      "name": "WETH_ADDRESS",
      "outputs": [
        {
          "internalType": "address",
          "name": "",
          "type": "address"
        }
      ],
      "stateMutability": "view",
      "type": "function"
    },
    {
      "inputs": [
        {
          "internalType": "uint256",
          "name": "",
          "type": "uint256"
        }
      ],
      "name": "WMATICToUSDCPath",
      "outputs": [
        {
          "internalType": "address",
          "name": "",
          "type": "address"
        }
      ],
      "stateMutability": "view",
      "type": "function"
    },
    {
      "inputs": [],
      "name": "WMATIC_ADDRESS",
      "outputs": [
        {
          "internalType": "address",
          "name": "",
          "type": "address"
        }
      ],
      "stateMutability": "view",
      "type": "function"
    },
    {
      "inputs": [
        {
          "internalType": "address",
          "name": "owner",
          "type": "address"
        },
        {
          "internalType": "address",
          "name": "spender",
          "type": "address"
        }
      ],
      "name": "allowance",
      "outputs": [
        {
          "internalType": "uint256",
          "name": "",
          "type": "uint256"
        }
      ],
      "stateMutability": "view",
      "type": "function"
    },
    {
      "inputs": [
        {
          "internalType": "address",
          "name": "spender",
          "type": "address"
        },
        {
          "internalType": "uint256",
          "name": "amount",
          "type": "uint256"
        }
      ],
      "name": "approve",
      "outputs": [
        {
          "internalType": "bool",
          "name": "",
          "type": "bool"
        }
      ],
      "stateMutability": "nonpayable",
      "type": "function"
    },
    {
      "inputs": [
        {
          "internalType": "address",
          "name": "_token",
          "type": "address"
        },
        {
          "internalType": "address",
          "name": "_spender",
          "type": "address"
        }
      ],
      "name": "approveSpendingWholeBalance",
      "outputs": [],
      "stateMutability": "nonpayable",
      "type": "function"
    },
    {
      "inputs": [
        {
          "internalType": "address",
          "name": "token_address",
          "type": "address"
        },
        {
          "internalType": "address",
          "name": "spender_address",
          "type": "address"
        },
        {
          "internalType": "uint256",
          "name": "amount_to_approve",
          "type": "uint256"
        }
      ],
      "name": "approve_spending",
      "outputs": [],
      "stateMutability": "nonpayable",
      "type": "function"
    },
    {
      "inputs": [
        {
          "internalType": "address",
          "name": "account",
          "type": "address"
        }
      ],
      "name": "balanceOf",
      "outputs": [
        {
          "internalType": "uint256",
          "name": "",
          "type": "uint256"
        }
      ],
      "stateMutability": "view",
      "type": "function"
    },
    {
      "inputs": [
        {
          "internalType": "bytes",
          "name": "",
          "type": "bytes"
        }
      ],
      "name": "checkUpkeep",
      "outputs": [
        {
          "internalType": "bool",
          "name": "upkeepNeeded",
          "type": "bool"
        },
        {
          "internalType": "bytes",
          "name": "performData",
          "type": "bytes"
        }
      ],
      "stateMutability": "view",
      "type": "function"
    },
    {
      "inputs": [],
      "name": "decimals",
      "outputs": [
        {
          "internalType": "uint8",
          "name": "",
          "type": "uint8"
        }
      ],
      "stateMutability": "view",
      "type": "function"
    },
    {
      "inputs": [
        {
          "internalType": "address",
          "name": "spender",
          "type": "address"
        },
        {
          "internalType": "uint256",
          "name": "subtractedValue",
          "type": "uint256"
        }
      ],
      "name": "decreaseAllowance",
      "outputs": [
        {
          "internalType": "bool",
          "name": "",
          "type": "bool"
        }
      ],
      "stateMutability": "nonpayable",
      "type": "function"
    },
    {
      "inputs": [
        {
          "internalType": "uint256",
          "name": "deposit_amount",
          "type": "uint256"
        }
      ],
      "name": "depositUserFunds",
      "outputs": [],
      "stateMutability": "nonpayable",
      "type": "function"
    },
    {
      "inputs": [
        {
          "internalType": "address",
          "name": "_oracle_address",
          "type": "address"
        }
      ],
      "name": "getLatestPrice",
      "outputs": [
        {
          "internalType": "int256",
          "name": "",
          "type": "int256"
        }
      ],
      "stateMutability": "view",
      "type": "function"
    },
    {
      "inputs": [],
      "name": "getUSDPortfolioTotal",
      "outputs": [
        {
          "internalType": "uint256",
          "name": "Total_in_USD",
          "type": "uint256"
        }
      ],
      "stateMutability": "view",
      "type": "function"
    },
    {
      "inputs": [
        {
          "internalType": "address",
          "name": "token_address",
          "type": "address"
        },
        {
          "internalType": "address",
          "name": "oracle_address",
          "type": "address"
        },
        {
          "internalType": "uint256",
          "name": "token_decimals",
          "type": "uint256"
        }
      ],
      "name": "getUSDTokenBalanceOf",
      "outputs": [
        {
          "internalType": "uint256",
          "name": "",
          "type": "uint256"
        }
      ],
      "stateMutability": "view",
      "type": "function"
    },
    {
      "inputs": [
        {
          "internalType": "address",
          "name": "spender",
          "type": "address"
        },
        {
          "internalType": "uint256",
          "name": "addedValue",
          "type": "uint256"
        }
      ],
      "name": "increaseAllowance",
      "outputs": [
        {
          "internalType": "bool",
          "name": "",
          "type": "bool"
        }
      ],
      "stateMutability": "nonpayable",
      "type": "function"
    },
    {
      "inputs": [],
      "name": "interval",
      "outputs": [
        {
          "internalType": "uint256",
          "name": "",
          "type": "uint256"
        }
      ],
      "stateMutability": "view",
      "type": "function"
    },
    {
      "inputs": [],
      "name": "lastTimeStamp",
      "outputs": [
        {
          "internalType": "uint256",
          "name": "",
          "type": "uint256"
        }
      ],
      "stateMutability": "view",
      "type": "function"
    },
    {
      "inputs": [
        {
          "internalType": "address",
          "name": "user",
          "type": "address"
        },
        {
          "internalType": "uint256",
          "name": "portfolio_value_usd",
          "type": "uint256"
        }
      ],
      "name": "mintOnDeposit",
      "outputs": [],
      "stateMutability": "nonpayable",
      "type": "function"
    },
    {
      "inputs": [],
      "name": "name",
      "outputs": [
        {
          "internalType": "string",
          "name": "",
          "type": "string"
        }
      ],
      "stateMutability": "view",
      "type": "function"
    },
    {
      "inputs": [
        {
          "internalType": "bytes",
          "name": "performData",
          "type": "bytes"
        }
      ],
      "name": "performUpkeep",
      "outputs": [],
      "stateMutability": "nonpayable",
      "type": "function"
    },
    {
      "inputs": [],
      "name": "quickSwapRouter",
      "outputs": [
        {
          "internalType": "contract IUniswapV2Router02",
          "name": "",
          "type": "address"
        }
      ],
      "stateMutability": "view",
      "type": "function"
    },
    {
      "inputs": [
        {
          "internalType": "uint256",
          "name": "new_interval",
          "type": "uint256"
        }
      ],
      "name": "setInterval",
      "outputs": [],
      "stateMutability": "nonpayable",
      "type": "function"
    },
    {
      "inputs": [
        {
          "internalType": "uint256",
          "name": "_amountIn",
          "type": "uint256"
        },
        {
          "internalType": "uint256",
          "name": "_amountOutMin",
          "type": "uint256"
        },
        {
          "internalType": "address[]",
          "name": "_path",
          "type": "address[]"
        },
        {
          "internalType": "address",
          "name": "_acct",
          "type": "address"
        },
        {
          "internalType": "uint256",
          "name": "_deadline",
          "type": "uint256"
        }
      ],
      "name": "swap",
      "outputs": [],
      "stateMutability": "nonpayable",
      "type": "function"
    },
    {
      "inputs": [
        {
          "internalType": "address",
          "name": "_token",
          "type": "address"
        },
        {
          "internalType": "uint256",
          "name": "_amount",
          "type": "uint256"
        }
      ],
      "name": "swapBackToUSDC",
      "outputs": [],
      "stateMutability": "nonpayable",
      "type": "function"
    },
    {
      "inputs": [
        {
          "internalType": "uint256",
          "name": "amount",
          "type": "uint256"
        }
      ],
      "name": "swapIntoFourEqualParts",
      "outputs": [],
      "stateMutability": "nonpayable",
      "type": "function"
    },
    {
      "inputs": [
        {
          "internalType": "uint256",
          "name": "WMATIC_amount",
          "type": "uint256"
        },
        {
          "internalType": "uint256",
          "name": "SAND_amount",
          "type": "uint256"
        },
        {
          "internalType": "uint256",
          "name": "WETH_amount",
          "type": "uint256"
        },
        {
          "internalType": "uint256",
          "name": "WBTC_amount",
          "type": "uint256"
        },
        {
          "internalType": "uint256",
          "name": "totalUSDAmount",
          "type": "uint256"
        },
        {
          "internalType": "uint256",
          "name": "depositAmount",
          "type": "uint256"
        }
      ],
      "name": "swapProportionately",
      "outputs": [],
      "stateMutability": "nonpayable",
      "type": "function"
    },
    {
      "inputs": [],
      "name": "symbol",
      "outputs": [
        {
          "internalType": "string",
          "name": "",
          "type": "string"
        }
      ],
      "stateMutability": "view",
      "type": "function"
    },
    {
      "inputs": [
        {
          "internalType": "address",
          "name": "token_address",
          "type": "address"
        },
        {
          "internalType": "address",
          "name": "user_address",
          "type": "address"
        }
      ],
      "name": "tokenBalanceOf",
      "outputs": [
        {
          "internalType": "uint256",
          "name": "token_balance",
          "type": "uint256"
        }
      ],
      "stateMutability": "view",
      "type": "function"
    },
    {
      "inputs": [],
      "name": "totalSupply",
      "outputs": [
        {
          "internalType": "uint256",
          "name": "",
          "type": "uint256"
        }
      ],
      "stateMutability": "view",
      "type": "function"
    },
    {
      "inputs": [
        {
          "internalType": "address",
          "name": "to",
          "type": "address"
        },
        {
          "internalType": "uint256",
          "name": "amount",
          "type": "uint256"
        }
      ],
      "name": "transfer",
      "outputs": [
        {
          "internalType": "bool",
          "name": "",
          "type": "bool"
        }
      ],
      "stateMutability": "nonpayable",
      "type": "function"
    },
    {
      "inputs": [
        {
          "internalType": "address",
          "name": "from",
          "type": "address"
        },
        {
          "internalType": "address",
          "name": "to",
          "type": "address"
        },
        {
          "internalType": "uint256",
          "name": "amount",
          "type": "uint256"
        }
      ],
      "name": "transferFrom",
      "outputs": [
        {
          "internalType": "bool",
          "name": "",
          "type": "bool"
        }
      ],
      "stateMutability": "nonpayable",
      "type": "function"
    },
    {
      "inputs": [
        {
          "internalType": "uint256",
          "name": "amount_",
          "type": "uint256"
        },
        {
          "internalType": "address",
          "name": "token_address",
          "type": "address"
        },
        {
          "internalType": "address",
          "name": "address_to",
          "type": "address"
        }
      ],
      "name": "withdraw",
      "outputs": [],
      "stateMutability": "nonpayable",
      "type": "function"
    },
    {
      "inputs": [
        {
          "internalType": "address",
          "name": "user",
          "type": "address"
        }
      ],
      "name": "withdrawUserFunds",
      "outputs": [],
      "stateMutability": "nonpayable",
      "type": "function"
    },
    {
      "stateMutability": "payable",
      "type": "receive"
    }
  ],
  "bytecode": "0x60806040523462000274576200002962000018620002bf565b62000022620002e5565b90620009ee565b620002326200003762000290565b600080516020620051b983398151915281526200007660209162000070838201730d500b1d8e8ef31e21c99d1db9a6444d3adf12709052565b6200031b565b620000b56200008462000290565b600080516020620051b9833981519152815273bbba073c31bf03b8acf7c28ef0738decf369568381840152620003bc565b620000f4620000c362000290565b600080516020620051b98339815191528152737ceb23fd6bc0add59e62ac25578270cff1b9f619818401526200045d565b620001336200010262000290565b600080516020620051b98339815191528152731bfd67037b42cf73acf2047067bd4f2c47d9bfd681840152620004fe565b620001726200014162000290565b730d500b1d8e8ef31e21c99d1db9a6444d3adf12708152600080516020620051b9833981519152818401526200059f565b620001b16200018062000290565b73bbba073c31bf03b8acf7c28ef0738decf36956838152600080516020620051b98339815191528184015262000640565b620001f0620001bf62000290565b737ceb23fd6bc0add59e62ac25578270cff1b9f6198152600080516020620051b983398151915281840152620006e1565b6200022c620001fe62000290565b731bfd67037b42cf73acf2047067bd4f2c47d9bfd68152918201600080516020620051b98339815191529052565b62000782565b6200023e610e10600e55565b600f80546001600160a01b03191673a5e0829caced8ffdd4de3c43696c57f7d7a678ff1790556040516146b1908162000b088239f35b600080fd5b50634e487b7160e01b600052604160045260246000fd5b60408051919082016001600160401b03811183821017620002b057604052565b620002ba62000279565b604052565b620002c962000290565b90600c82526b30baba37a130b630b731b2b960a11b6020830152565b620002ef62000290565b90600382526241424160e81b6020830152565b8181106200030e575050565b6000815560010162000302565b60055490600291826005558083106200037e575b5060056000526020806000206000925b8484106200034e575050505050565b805182546001600160a01b0319166001600160a01b0391909116178255600193840193919091019082016200033f565b6005600052620003b5907f036b6384b5eca791c62761152d0c79bb0604c104a5fb6f4eb0703f3154bb3db090810190840162000302565b386200032f565b60065490600291826006558083106200041f575b5060066000526020806000206000925b848410620003ef575050505050565b805182546001600160a01b0319166001600160a01b039190911617825560019384019391909101908201620003e0565b600660005262000456907ff652222313e28459528d920b65115c16c04f3efc82aaedc97be59f3f377c0d3f90810190840162000302565b38620003d0565b6007549060029182600755808310620004c0575b5060076000526020806000206000925b84841062000490575050505050565b805182546001600160a01b0319166001600160a01b03919091161782556001938401939190910190820162000481565b6007600052620004f7907fa66cc928b5edb82af9bd49922954155ab7b0942694bea4ce44661d9a8736c68890810190840162000302565b3862000471565b600854906002918260085580831062000561575b5060086000526020806000206000925b84841062000531575050505050565b805182546001600160a01b0319166001600160a01b03919091161782556001938401939190910190820162000522565b600860005262000598907ff3f7a9fe364faab93b216da50a3214154f22a0a2b415b23a84c8169e8b636ee390810190840162000302565b3862000512565b600954906002918260095580831062000602575b5060096000526020806000206000925b848410620005d2575050505050565b805182546001600160a01b0319166001600160a01b039190911617825560019384019391909101908201620005c3565b600960005262000639907f6e1540171b6c0c960b71a7020d9f60077f6af931a8bbf590da0223dacf75c7af90810190840162000302565b38620005b3565b600a549060029182600a55808310620006a3575b50600a6000526020806000206000925b84841062000673575050505050565b805182546001600160a01b0319166001600160a01b03919091161782556001938401939190910190820162000664565b600a600052620006da907fc65a7bb8d6351c1cf70c95a316cc6a92839c986682d98bc35f958f4883f9d2a890810190840162000302565b3862000654565b600b549060029182600b5580831062000744575b50600b6000526020806000206000925b84841062000714575050505050565b805182546001600160a01b0319166001600160a01b03919091161782556001938401939190910190820162000705565b600b6000526200077b907f0175b7a638427703f0dbe7bb9bbf987a2551717b34e79f33b5b1008d1fa01db990810190840162000302565b38620006f5565b600c549060029182600c55808310620007e5575b50600c6000526020806000206000925b848410620007b5575050505050565b805182546001600160a01b0319166001600160a01b039190911617825560019384019391909101908201620007a6565b600c6000526200081c907fdf6966c971051c3d54ec59162606531493a51404a002842f56009d7e5cf4a8c790810190840162000302565b3862000796565b90600182811c9216801562000855575b60208310146200083f57565b634e487b7160e01b600052602260045260246000fd5b91607f169162000833565b90601f82116200086e575050565b6200089f9160036000526020600020906020601f840160051c83019310620008a1575b601f0160051c019062000302565b565b909150819062000891565b90601f8211620008ba575050565b6200089f9160046000526020600020906020601f840160051c83019310620008a157601f0160051c019062000302565b80519091906001600160401b038111620009de575b62000917816200091160045462000823565b620008ac565b602080601f83116001146200095657508192936000926200094a575b50508160011b916000199060031b1c191617600455565b01519050388062000933565b6004600052601f198316949091907f8a35acfbc15ff81a39ae7d344fd709f28e8600b4aa8c65c6b64bfe7fe36bd19b926000905b878210620009c5575050836001959610620009ab575b505050811b01600455565b015160001960f88460031b161c19169055388080620009a0565b806001859682949686015181550195019301906200098a565b620009e862000279565b620008ff565b80519091906001600160401b03811162000af7575b62000a1b8162000a1560035462000823565b62000860565b602080601f831160011462000a62575081906200089f9460009262000a56575b50508160011b916000199060031b1c191617600355620008ea565b01519050388062000a3b565b60036000529293919291601f1984167fc2575a0e9e593c00f959f8c92f12db2869c3395a3b0502d05e2516446f71f85b936000905b82821062000ade5750509160019391856200089f9796941062000ac4575b505050811b01600355620008ea565b015160001960f88460031b161c1916905538808062000ab5565b8060018697829497870151815501960194019062000a97565b62000b0162000279565b62000a0356fe6080604052600436101561001b575b361561001957600080fd5b005b60003560e01c8063040141e5146103ef57806306fdde03146103e6578063095ea7b3146103dd578063153f29c7146103d457806316345f18146103cb57806318160ddd146103c25780631bea8006146103b957806322a90082146103b057806323aad7af146103a757806323b872dd1461039e57806324e2e7bb1461039557806329a97ec21461038c5780632d365d3114610383578063313ce5671461037a57806339509351146103715780633f3b3b271461036857806344345f231461035f5780634585e33b1461035657806351f548871461034d578063681bcf131461034457806369bc43881461033b5780636e04ff0d1461033257806370a0823114610329578063718176e514610320578063764f96f91461031757806388e42b081461030e5780638db9f39a1461030557806390f11e84146102fc57806394362e8b146102f3578063947a36fb146102ea57806395d89b41146102e1578063a15c7d10146102d8578063a457c2d7146102cf578063a48ce279146102c6578063a9059cbb146102bd578063aa5a7aa3146102b4578063b460af94146102ab578063b6e20a6a146102a2578063bb09d9b714610299578063bdd5915f14610290578063c5764eec14610287578063ca9709051461027e578063cb3601b114610275578063cd3f5b531461026c578063cf41281014610263578063d09191161461025a578063dd62ed3e14610251578063e189eb42146102485763e95d83280361000e57610243612816565b61000e565b506102436127c3565b5061024361272d565b506102436126df565b5061024361262f565b506102436125e1565b5061024361255b565b506102436124d5565b50610243612398565b5061024361234a565b506102436122fc565b506102436122ae565b506102436121b4565b506102436120e2565b5061024361209d565b50610243612017565b50610243611f0b565b50610243611e85565b50610243611da3565b50610243611d66565b50610243611d22565b50610243611c0d565b50610243611a9f565b50610243611a64565b50610243611a1a565b506102436119cc565b50610243611966565b50610243611209565b5061024361116a565b506102436110e4565b5061024361105a565b50610243610e38565b50610243610d4a565b50610243610d0d565b50610243610c88565b50610243610c4d565b50610243610bff565b50610243610be7565b50610243610a29565b50610243610912565b5061024361082c565b506102436107c4565b50610243610779565b5061024361073c565b506102436106fa565b506102436106b8565b50610243610668565b506102436104c5565b503461043d5760007ffffffffffffffffffffffffffffffffffffffffffffffffffffffffffffffffc36011261043d576020604051737ceb23fd6bc0add59e62ac25578270cff1b9f6198152f35b600080fd5b91908251928382526000905b8482106104995750601f84602094957fffffffffffffffffffffffffffffffffffffffffffffffffffffffffffffffe0931161048c575b0116010190565b6000858286010152610485565b9060209081808285010151908286010152019061044e565b9060206104c2928181520190610442565b90565b503461043d576000807ffffffffffffffffffffffffffffffffffffffffffffffffffffffffffffffffc36011261061f5760405190806003549060019180831c92808216928315610615575b60209283861085146105e85785885260208801949081156105ae5750600114610555575b6105518761054581890382611b1d565b604051918291826104b1565b0390f35b600360005294509192917fc2575a0e9e593c00f959f8c92f12db2869c3395a3b0502d05e2516446f71f85b5b83861061059d5750505091019050610545826105513880610535565b805485870152948201948101610581565b7fffffffffffffffffffffffffffffffffffffffffffffffffffffffffffffff001685525050500191506105459050826105513880610535565b6024827f4e487b710000000000000000000000000000000000000000000000000000000081526022600452fd5b93607f1693610511565b80fd5b6004359073ffffffffffffffffffffffffffffffffffffffff8216820361043d57565b6024359073ffffffffffffffffffffffffffffffffffffffff8216820361043d57565b503461043d5760407ffffffffffffffffffffffffffffffffffffffffffffffffffffffffffffffffc36011261043d576106ad6106a3610622565b6024359033612b4b565b602060405160018152f35b503461043d5760007ffffffffffffffffffffffffffffffffffffffffffffffffffffffffffffffffc36011261043d5760206106f2613b64565b604051908152f35b503461043d5760207ffffffffffffffffffffffffffffffffffffffffffffffffffffffffffffffffc36011261043d5760206106f2610737610622565b612d29565b503461043d5760007ffffffffffffffffffffffffffffffffffffffffffffffffffffffffffffffffc36011261043d576020600254604051908152f35b503461043d5760407ffffffffffffffffffffffffffffffffffffffffffffffffffffffffffffffffc36011261043d5760206106f26107b6610622565b6107be610645565b906144ed565b503461043d5760207ffffffffffffffffffffffffffffffffffffffffffffffffffffffffffffffffc36011261043d57600435600e55005b507f4e487b7100000000000000000000000000000000000000000000000000000000600052603260045260246000fd5b503461043d5760207ffffffffffffffffffffffffffffffffffffffffffffffffffffffffffffffffc36011261043d5760043560065481101561043d5773ffffffffffffffffffffffffffffffffffffffff60209160066000527ff652222313e28459528d920b65115c16c04f3efc82aaedc97be59f3f377c0d3f015416604051908152f35b7ffffffffffffffffffffffffffffffffffffffffffffffffffffffffffffffffc606091011261043d5773ffffffffffffffffffffffffffffffffffffffff90600435828116810361043d5791602435908116810361043d579060443590565b503461043d57610921366108b2565b9073ffffffffffffffffffffffffffffffffffffffff8316600052600160205261096f3360406000209073ffffffffffffffffffffffffffffffffffffffff16600052602052604060002090565b54927fffffffffffffffffffffffffffffffffffffffffffffffffffffffffffffffff84036109af575b6109a393506129c2565b60405160018152602090f35b8284106109cb576109c6836109a395033383612b4b565b610999565b60646040517f08c379a000000000000000000000000000000000000000000000000000000000815260206004820152601d60248201527f45524332303a20696e73756666696369656e7420616c6c6f77616e63650000006044820152fd5b503461043d5760207ffffffffffffffffffffffffffffffffffffffffffffffffffffffffffffffffc36011261043d57610019610a64610622565b73ffffffffffffffffffffffffffffffffffffffff81166000526000602052610ba4610a9e604060002054610a9830614292565b90612fd3565b610b9f610aae600254809361305c565b91610b9a610af282610aed610ae38973ffffffffffffffffffffffffffffffffffffffff166000526000602052604060002090565b54610a9830614329565b61305c565b610b95610b6b610b3385610aed610b298c73ffffffffffffffffffffffffffffffffffffffff166000526000602052604060002090565b54610a983061439a565b94610aed610b618b73ffffffffffffffffffffffffffffffffffffffff166000526000602052604060002090565b54610a983061440b565b95610b75816134a6565b610b7e83613540565b610b87856135b2565b610b9087613624565b6140ec565b614160565b6141c6565b61422c565b610bb681610bb13061447c565b614077565b610be08173ffffffffffffffffffffffffffffffffffffffff166000526000602052604060002090565b5490613ea5565b503461043d57610019610bf9366108b2565b9161377f565b503461043d5760007ffffffffffffffffffffffffffffffffffffffffffffffffffffffffffffffffc36011261043d57602060405173bbba073c31bf03b8acf7c28ef0738decf36956838152f35b503461043d5760007ffffffffffffffffffffffffffffffffffffffffffffffffffffffffffffffffc36011261043d57602060405160128152f35b503461043d5760407ffffffffffffffffffffffffffffffffffffffffffffffffffffffffffffffffc36011261043d576106ad610cc3610622565b336000526001602052610d06602435610d008360406000209073ffffffffffffffffffffffffffffffffffffffff16600052602052604060002090565b54612894565b9033612b4b565b503461043d5760007ffffffffffffffffffffffffffffffffffffffffffffffffffffffffffffffffc36011261043d576020600d54604051908152f35b503461043d5760207ffffffffffffffffffffffffffffffffffffffffffffffffffffffffffffffffc36011261043d57600435600b5481101561043d5773ffffffffffffffffffffffffffffffffffffffff602091600b6000527f0175b7a638427703f0dbe7bb9bbf987a2551717b34e79f33b5b1008d1fa01db9015416604051908152f35b9060207ffffffffffffffffffffffffffffffffffffffffffffffffffffffffffffffffc83011261043d5760043567ffffffffffffffff9283821161043d578060238301121561043d57816004013593841161043d576024848301011161043d576024019190565b503461043d57610e4736610dd0565b90610e54600d5442612e23565b600e5410610e5e57005b610e6742600d55565b610e84610e7261312d565b91610e7b613168565b938101906133c0565b9160005b83519060ff81169182101561001957610fba91610ee7610ed6610ebc610eb6610eb0866132f0565b60ff1690565b88612f39565b5173ffffffffffffffffffffffffffffffffffffffff1690565b610ee08389612f39565b5190613696565b730d500b1d8e8ef31e21c99d1db9a6444d3adf127080610f31610f18610ebc610f12610eb0886132f0565b8a612f39565b73ffffffffffffffffffffffffffffffffffffffff1690565b14908115611033575b5015610fbf57610fac610fb591610f80610f5c610ebc610f12610eb0886132f0565b610f6588612ef0565b9073ffffffffffffffffffffffffffffffffffffffff169052565b610fa6610f9d610ebc610f12610eb0610f98896132f0565b613317565b610f6588612f06565b87612f39565b518430916145c8565b612f5b565b610e88565b61102a610fb591610fe4610fdb610ebc610f12610eb0886132f0565b610f658b612ef0565b611009610ff08a612f06565b730d500b1d8e8ef31e21c99d1db9a6444d3adf12709052565b610fa6611021610ebc610f12610eb0610f98896132f0565b610f658b612f17565b518730916145c8565b9050611053610f18610ebc61104d610eb0610f98886132f0565b89612f39565b1438610f3a565b503461043d576020610a986110ba600261108b611085611079366108b2565b969192909230906144ed565b91612d29565b927ffffffffffffffffffffffffffffffffffffffffffffffffffffffffffffffffd81116110d7575b01613010565b80156110ca575b60405191048152f35b6110d261302c565b6110c1565b6110df612864565b6110b4565b503461043d5760207ffffffffffffffffffffffffffffffffffffffffffffffffffffffffffffffffc36011261043d5760043560095481101561043d5773ffffffffffffffffffffffffffffffffffffffff60209160096000527f6e1540171b6c0c960b71a7020d9f60077f6af931a8bbf590da0223dacf75c7af015416604051908152f35b503461043d5760207ffffffffffffffffffffffffffffffffffffffffffffffffffffffffffffffffc36011261043d5760043560055481101561043d5773ffffffffffffffffffffffffffffffffffffffff60209160056000527f036b6384b5eca791c62761152d0c79bb0604c104a5fb6f4eb0703f3154bb3db0015416604051908152f35b6040906104c29392151581528160208201520190610442565b503461043d5761121836610dd0565b5050611226600d5442612e23565b600e5410611232612e99565b61123a612e3a565b9060209261125d848401730d500b1d8e8ef31e21c99d1db9a6444d3adf12709052565b60409261127f84820173ab594600376ec9fd91f8e885dadf0ce036862de09052565b611287612e3a565b73bbba073c31bf03b8acf7c28ef0738decf369568381870152733d49406edd4d52fb7ffd25485f32e073b529c924818601526112c1612e3a565b731bfd67037b42cf73acf2047067bd4f2c47d9bfd6878201529073c907e116054ad103354f2d350fd2514433d57f6f828701526112fc612e3a565b737ceb23fd6bc0add59e62ac25578270cff1b9f619888201529273f9680d99d6c9589e2a93a78a04a279e5092059458488015261133886612ef0565b5261134285612ef0565b5061134c85612f06565b5261135684612f06565b5061136084612f17565b5261136a83612f17565b5061137483612f28565b5261137e82612f28565b50600093845b835160ff8716908110156115b15761153791611531916115286115106115066114d560ff8b868b8f6113da610f1880846113be8789612f39565b51015173ffffffffffffffffffffffffffffffffffffffff1690565b90611466610737826113be8151977f70a0823100000000000000000000000000000000000000000000000000000000895260049888818061143b8d3090830191909173ffffffffffffffffffffffffffffffffffffffff6020820193169052565b03818b5afa9081156115a4575b600091611577575b50608061145d838d612f39565b51015289612f39565b60e06114728d88612f39565b51015251928380927f313ce5670000000000000000000000000000000000000000000000000000000082525afa90811561156a575b60009161153d575b506114c08860609485931693612f39565b5101526114cd868d612f39565b510151612dd9565b610a986115008c60e06114f78960806114ee8286612f39565b51015193612f39565b51015190612fd3565b91613010565b6305f5e100900490565b9160a0928361151f838c612f39565b51015288612f39565b51015190612894565b95612f5b565b94611384565b61155d91508c8d3d10611563575b6115558183611b1d565b810190612f7c565b386114af565b503d61154b565b611572612d1c565b6114a7565b6115979150893d8b1161159d575b61158f8183611b1d565b810190612f6d565b38611450565b503d611585565b6115ac612d1c565b611448565b509190945060005b835160ff82169081101561160857908160c06115fb6115f460a06115e0611603978b612f39565b5101516115ee8a518a61305c565b90613072565b9288612f39565b510152612f5b565b6115b9565b85838887600091829483946116256116208551612df5565b6130de565b9261163b6116206116368751612df5565b612f95565b86915b6116488751612df5565b9460ff94858516968710156119175760005b8951878216908110156116d55760c08b8d8284816116788286612f39565b510151151593846116bc575b5050505061169d575b505061169890612f5b565b61165a565b909d50819b506116b1611698929e8c612f39565b5101519a908e61168d565b6116c892939450612f39565b510151138d82848f611684565b50969a7f7fffffffffffffffffffffffffffffffffffffffffffffffffffffffffffffff9a5094979396509194919060005b89518d85831691821015611784575060c08b8d8284816117278286612f39565b5101511515938461176b575b5050505061174c575b505061174790612f5b565b611707565b909650819b5061176061174792978c612f39565b5101519a908e61173c565b61177792939450612f39565b510151128d82848f611733565b6118a6925088978892506118a0819f610fb5969b8f8b9f999e9b926113be9161188b948d6118be9e6113be9a169360c091826117c08787612f39565b5101519a16809a6117dd846117d58489612f39565b510151613456565b12156118c757826117f7611885946117d560009489612f39565b6118018487612f39565b5261180c8386612f39565b516118258261181b8a8a612f39565b5101918251613072565b90526118318c87612f39565b51015261187f61186261184d6118478487612f39565b5161320e565b60e06118598989612f39565b51015190613281565b61187961187460606114cd8a8a612f39565b613010565b90613281565b92612f39565b52612f39565b610f6561189a610eb08a6132f0565b8b612f39565b8c612f39565b610f656118b8610eb0610f98866132f0565b86612f39565b9193929361163e565b506000826118dc611885946117d58989612f39565b6118e68487612f39565b528b61190b826119016118f9878a612f39565b51938a612f39565b51019182516131a2565b90526118318787612f39565b919061195c610551926119308a84519788938401613373565b037fffffffffffffffffffffffffffffffffffffffffffffffffffffffffffffffe08101865285611b1d565b51928392836111f0565b503461043d5760207ffffffffffffffffffffffffffffffffffffffffffffffffffffffffffffffffc36011261043d5773ffffffffffffffffffffffffffffffffffffffff6119b3610622565b1660005260006020526020604060002054604051908152f35b503461043d5760007ffffffffffffffffffffffffffffffffffffffffffffffffffffffffffffffffc36011261043d57602060405173f9680d99d6c9589e2a93a78a04a279e5092059458152f35b503461043d5760c07ffffffffffffffffffffffffffffffffffffffffffffffffffffffffffffffffc36011261043d5761001960a435608435606435604435602435600435613da2565b503461043d5760207ffffffffffffffffffffffffffffffffffffffffffffffffffffffffffffffffc36011261043d57610019600435613e2a565b503461043d5760007ffffffffffffffffffffffffffffffffffffffffffffffffffffffffffffffffc36011261043d57602060405173ab594600376ec9fd91f8e885dadf0ce036862de08152f35b507f4e487b7100000000000000000000000000000000000000000000000000000000600052604160045260246000fd5b90601f7fffffffffffffffffffffffffffffffffffffffffffffffffffffffffffffffe0910116810190811067ffffffffffffffff821117611b5e57604052565b611b66611aed565b604052565b60209067ffffffffffffffff8111611b85575b60051b0190565b611b8d611aed565b611b7e565b81601f8201121561043d57803591611ba983611b6b565b92611bb76040519485611b1d565b808452602092838086019260051b82010192831161043d578301905b828210611be1575050505090565b813573ffffffffffffffffffffffffffffffffffffffff8116810361043d578152908301908301611bd3565b503461043d5760a07ffffffffffffffffffffffffffffffffffffffffffffffffffffffffffffffffc36011261043d5760443567ffffffffffffffff811161043d57611c5d903690600401611b92565b6064359073ffffffffffffffffffffffffffffffffffffffff80831680930361043d57600091611cda91600f541690836040518096819582947f38ed17390000000000000000000000000000000000000000000000000000000084526004356004850152602435602485015260a0604485015260a4840190613329565b906064830152608435608483015203925af18015611d15575b611cf957005b610019903d806000833e611d0d8183611b1d565b81019061454e565b611d1d612d1c565b611cf3565b503461043d5760407ffffffffffffffffffffffffffffffffffffffffffffffffffffffffffffffffc36011261043d57610019611d5d610622565b60243590613e5b565b503461043d5760007ffffffffffffffffffffffffffffffffffffffffffffffffffffffffffffffffc36011261043d576020600e54604051908152f35b503461043d576000807ffffffffffffffffffffffffffffffffffffffffffffffffffffffffffffffffc36011261061f5760405190806004549060019180831c92808216928315611e7b575b60209283861085146105e85785885260208801949081156105ae5750600114611e22576105518761054581890382611b1d565b600460005294509192917f8a35acfbc15ff81a39ae7d344fd709f28e8600b4aa8c65c6b64bfe7fe36bd19b5b838610611e6a5750505091019050610545826105513880610535565b805485870152948201948101611e4e565b93607f1693611def565b503461043d5760207ffffffffffffffffffffffffffffffffffffffffffffffffffffffffffffffffc36011261043d5760043560085481101561043d5773ffffffffffffffffffffffffffffffffffffffff60209160086000527ff3f7a9fe364faab93b216da50a3214154f22a0a2b415b23a84c8169e8b636ee3015416604051908152f35b503461043d5760407ffffffffffffffffffffffffffffffffffffffffffffffffffffffffffffffffc36011261043d57611f43610622565b60243590336000526001602052611f7e8160406000209073ffffffffffffffffffffffffffffffffffffffff16600052602052604060002090565b5491808310611f93576109a392039033612b4b565b60846040517f08c379a000000000000000000000000000000000000000000000000000000000815260206004820152602560248201527f45524332303a2064656372656173656420616c6c6f77616e63652062656c6f7760448201527f207a65726f0000000000000000000000000000000000000000000000000000006064820152fd5b503461043d5760207ffffffffffffffffffffffffffffffffffffffffffffffffffffffffffffffffc36011261043d57600435600a5481101561043d5773ffffffffffffffffffffffffffffffffffffffff602091600a6000527fc65a7bb8d6351c1cf70c95a316cc6a92839c986682d98bc35f958f4883f9d2a8015416604051908152f35b503461043d5760407ffffffffffffffffffffffffffffffffffffffffffffffffffffffffffffffffc36011261043d576106ad6120d8610622565b60243590336129c2565b503461043d5760407ffffffffffffffffffffffffffffffffffffffffffffffffffffffffffffffffc36011261043d5761001961211d610622565b612125610645565b604051917f70a0823100000000000000000000000000000000000000000000000000000000835230600484015260208360248173ffffffffffffffffffffffffffffffffffffffff85165afa9283156121a7575b600093612187575b5061377f565b6121a091935060203d811161159d5761158f8183611b1d565b9138612181565b6121af612d1c565b612179565b503461043d5760607ffffffffffffffffffffffffffffffffffffffffffffffffffffffffffffffffc36011261043d576121ec610645565b73ffffffffffffffffffffffffffffffffffffffff90604435828116810361043d576040517fa9059cbb00000000000000000000000000000000000000000000000000000000815273ffffffffffffffffffffffffffffffffffffffff919091166004808301919091523560248201529160209183916044918391600091165af180156122a1575b61227a57005b6100199060203d811161229a575b6122928183611b1d565b81019061348e565b503d612288565b6122a9612d1c565b612274565b503461043d5760007ffffffffffffffffffffffffffffffffffffffffffffffffffffffffffffffffc36011261043d57602060405173c907e116054ad103354f2d350fd2514433d57f6f8152f35b503461043d5760007ffffffffffffffffffffffffffffffffffffffffffffffffffffffffffffffffc36011261043d576020604051732791bca1f2de4661ed88a30c99a7a9449aa841748152f35b503461043d5760007ffffffffffffffffffffffffffffffffffffffffffffffffffffffffffffffffc36011261043d576020604051731bfd67037b42cf73acf2047067bd4f2c47d9bfd68152f35b503461043d5760207ffffffffffffffffffffffffffffffffffffffffffffffffffffffffffffffffc36011261043d576040517f23b872dd000000000000000000000000000000000000000000000000000000008152336004808301919091523060248301523560448201819052906020816064816000732791bca1f2de4661ed88a30c99a7a9449aa841745af180156124c8575b6124aa575b5061243b6138d8565b6124436139b3565b61244b613a22565b612453613a91565b9161246b83612466846124668589612894565b612894565b936124758661370d565b841561249257926100199592859261248c95613da2565b33613e5b565b5050505050806124a461001992613e2a565b336137e7565b6124c19060203d811161229a576122928183611b1d565b5038612432565b6124d0612d1c565b61242d565b503461043d5760207ffffffffffffffffffffffffffffffffffffffffffffffffffffffffffffffffc36011261043d57600435600c5481101561043d5773ffffffffffffffffffffffffffffffffffffffff602091600c6000527fdf6966c971051c3d54ec59162606531493a51404a002842f56009d7e5cf4a8c7015416604051908152f35b503461043d5760207ffffffffffffffffffffffffffffffffffffffffffffffffffffffffffffffffc36011261043d5760043560075481101561043d5773ffffffffffffffffffffffffffffffffffffffff60209160076000527fa66cc928b5edb82af9bd49922954155ab7b0942694bea4ce44661d9a8736c688015416604051908152f35b503461043d5760007ffffffffffffffffffffffffffffffffffffffffffffffffffffffffffffffffc36011261043d576020604051733d49406edd4d52fb7ffd25485f32e073b529c9248152f35b503461043d5760407ffffffffffffffffffffffffffffffffffffffffffffffffffffffffffffffffc36011261043d5761001961266a610622565b73ffffffffffffffffffffffffffffffffffffffff61268761312d565b918251156126d2575b1660208201528051600110156126c5575b732791bca1f2de4661ed88a30c99a7a9449aa84174604082015230906024356145c8565b6126cd6107fc565b6126a1565b6126da6107fc565b612690565b503461043d5760007ffffffffffffffffffffffffffffffffffffffffffffffffffffffffffffffffc36011261043d57602060405173a5e0829caced8ffdd4de3c43696c57f7d7a678ff8152f35b503461043d5760407ffffffffffffffffffffffffffffffffffffffffffffffffffffffffffffffffc36011261043d5760206127ba61276a610622565b73ffffffffffffffffffffffffffffffffffffffff612787610645565b91166000526001835260406000209073ffffffffffffffffffffffffffffffffffffffff16600052602052604060002090565b54604051908152f35b503461043d5760007ffffffffffffffffffffffffffffffffffffffffffffffffffffffffffffffffc36011261043d57602073ffffffffffffffffffffffffffffffffffffffff600f5416604051908152f35b503461043d5760007ffffffffffffffffffffffffffffffffffffffffffffffffffffffffffffffffc36011261043d576020604051730d500b1d8e8ef31e21c99d1db9a6444d3adf12708152f35b507f4e487b7100000000000000000000000000000000000000000000000000000000600052601160045260246000fd5b811981116128a0570190565b6128a8612864565b0190565b156128b357565b60846040517f08c379a000000000000000000000000000000000000000000000000000000000815260206004820152602360248201527f45524332303a207472616e7366657220746f20746865207a65726f206164647260448201527f65737300000000000000000000000000000000000000000000000000000000006064820152fd5b1561293e57565b60846040517f08c379a000000000000000000000000000000000000000000000000000000000815260206004820152602660248201527f45524332303a207472616e7366657220616d6f756e742065786365656473206260448201527f616c616e636500000000000000000000000000000000000000000000000000006064820152fd5b919073ffffffffffffffffffffffffffffffffffffffff90818416928315612ac757612aa5827fddf252ad1be2c89b69c2b068fc378daa952ba7f163c4a11628f55a4df523b3ef94612ac2941696612a1b8815156128ac565b612a7e84612a498373ffffffffffffffffffffffffffffffffffffffff166000526000602052604060002090565b54612a5682821015612937565b039173ffffffffffffffffffffffffffffffffffffffff166000526000602052604060002090565b5573ffffffffffffffffffffffffffffffffffffffff166000526000602052604060002090565b612ab0828254612894565b90556040519081529081906020820190565b0390a3565b60846040517f08c379a000000000000000000000000000000000000000000000000000000000815260206004820152602560248201527f45524332303a207472616e736665722066726f6d20746865207a65726f20616460448201527f64726573730000000000000000000000000000000000000000000000000000006064820152fd5b9073ffffffffffffffffffffffffffffffffffffffff91828116928315612c82578216938415612bfe5780612bed7f8c5be1e5ebec7d5bd14f71427d1e84f3dd0314c0f7b2291e5b200ac8c7c3b92594612bc8612ac29573ffffffffffffffffffffffffffffffffffffffff166000526001602052604060002090565b9073ffffffffffffffffffffffffffffffffffffffff16600052602052604060002090565b556040519081529081906020820190565b60846040517f08c379a000000000000000000000000000000000000000000000000000000000815260206004820152602260248201527f45524332303a20617070726f766520746f20746865207a65726f20616464726560448201527f73730000000000000000000000000000000000000000000000000000000000006064820152fd5b60846040517f08c379a0000000000000000000000000000000000000000000000000000000008152602060048201526024808201527f45524332303a20617070726f76652066726f6d20746865207a65726f2061646460448201527f72657373000000000000000000000000000000000000000000000000000000006064820152fd5b519069ffffffffffffffffffff8216820361043d57565b506040513d6000823e3d90fd5b60a073ffffffffffffffffffffffffffffffffffffffff916004604051809481937ffeaf968c000000000000000000000000000000000000000000000000000000008352165afa908115612dcc575b600091612d83575090565b9060a0823d8211612dc4575b81612d9c60a09383611b1d565b8101031261061f5750612dae81612d05565b50612dc0608060208301519201612d05565b5090565b3d9150612d8f565b612dd4612d1c565b612d78565b80601210612de8575b60120390565b612df0612864565b612de2565b7fffffffffffffffffffffffffffffffffffffffffffffffffffffffffffffffff90600181106128a0570190565b818110612e2e570390565b612e36612864565b0390565b60405190610100820182811067ffffffffffffffff821117612e8c575b604052816060815260e06000918260208201528260408201528260608201528260808201528260a08201528260c08201520152565b612e94611aed565b612e57565b6040519060a0820182811067ffffffffffffffff821117612ee3575b604052600482528160005b60808110612ecc575050565b602090612ed7612e3a565b82828501015201612ec0565b612eeb611aed565b612eb5565b602090805115612efe570190565b6128a86107fc565b604090805160011015612efe570190565b606090805160021015612efe570190565b608090805160031015612efe570190565b6020918151811015612f4e575b60051b010190565b612f566107fc565b612f46565b60ff6001911660ff81146128a0570190565b9081602091031261043d575190565b9081602091031261043d575160ff8116810361043d5790565b7f7fffffffffffffffffffffffffffffffffffffffffffffffffffffffffffffff8111600116612fc6575b60011b90565b612fce612864565b612fc0565b807fffffffffffffffffffffffffffffffffffffffffffffffffffffffffffffffff04821181151516613004570290565b61300c612864565b0290565b604d811161301f575b600a0a90565b613027612864565b613019565b507f4e487b7100000000000000000000000000000000000000000000000000000000600052601260045260246000fd5b8115613066570490565b61306e61302c565b0490565b60008212827f80000000000000000000000000000000000000000000000000000000000000000182128115166130d1575b827f7fffffffffffffffffffffffffffffffffffffffffffffffffffffffffffffff01821316612e2e570390565b6130d9612864565b6130a3565b906130e882611b6b565b6130f56040519182611b1d565b8281527fffffffffffffffffffffffffffffffffffffffffffffffffffffffffffffffe06131238294611b6b565b0190602036910137565b604051906060820182811067ffffffffffffffff82111761315b575b60405260028252604082602036910137565b613163611aed565b613149565b604051906080820182811067ffffffffffffffff821117613195575b604052600382526060366020840137565b61319d611aed565b613184565b60008112817f7fffffffffffffffffffffffffffffffffffffffffffffffffffffffffffffff038313811516613201575b817f8000000000000000000000000000000000000000000000000000000000000000038312166128a0570190565b613209612864565b6131d3565b6305f5e1009060017c15798ee2308c39df9fb841a566d74f87a7a9a7aeb02c2d2f8e0d1e768d8211600083131616613274575b60017fffffffea86711dcf73c6206047be5a9928b078585658514fd3d2d071f2e189738212600083121616613004570290565b61327c612864565b613241565b81156132e3575b7fffffffffffffffffffffffffffffffffffffffffffffffffffffffffffffffff82147f80000000000000000000000000000000000000000000000000000000000000008214166132d7570590565b6132df612864565b0590565b6132eb61302c565b613288565b6101fe90607f60ff82161160011661330a575b60011b1690565b613312612864565b613303565b60ff6001911660fe81116128a0570190565b90815180825260208080930193019160005b828110613349575050505090565b835173ffffffffffffffffffffffffffffffffffffffff168552938101939281019260010161333b565b9061338690604083526040830190613329565b81810360209283015282518082529082019282019160005b8281106133ac575050505090565b83518552938101939281019260010161339e565b919060408382031261043d5767ffffffffffffffff92803584811161043d57826133eb918301611b92565b936020918281013591821161043d57019180601f8401121561043d57823561341281611b6b565b936134206040519586611b1d565b818552838086019260051b82010192831161043d578301905b828210613447575050505090565b81358152908301908301613439565b6000808212613463575090565b7f80000000000000000000000000000000000000000000000000000000000000008214612e2e570390565b9081602091031261043d5751801515810361043d5790565b604051907f095ea7b300000000000000000000000000000000000000000000000000000000825273a5e0829caced8ffdd4de3c43696c57f7d7a678ff600483015260248201526020816044816000730d500b1d8e8ef31e21c99d1db9a6444d3adf12705af18015613533575b6135195750565b6135309060203d811161229a576122928183611b1d565b50565b61353b612d1c565b613512565b604051907f095ea7b300000000000000000000000000000000000000000000000000000000825273a5e0829caced8ffdd4de3c43696c57f7d7a678ff60048301526024820152602081604481600073bbba073c31bf03b8acf7c28ef0738decf36956835af18015613533576135195750565b604051907f095ea7b300000000000000000000000000000000000000000000000000000000825273a5e0829caced8ffdd4de3c43696c57f7d7a678ff600483015260248201526020816044816000737ceb23fd6bc0add59e62ac25578270cff1b9f6195af18015613533576135195750565b604051907f095ea7b300000000000000000000000000000000000000000000000000000000825273a5e0829caced8ffdd4de3c43696c57f7d7a678ff600483015260248201526020816044816000731bfd67037b42cf73acf2047067bd4f2c47d9bfd65af18015613533576135195750565b602090604473ffffffffffffffffffffffffffffffffffffffff93600060405195869485937f095ea7b300000000000000000000000000000000000000000000000000000000855273a5e0829caced8ffdd4de3c43696c57f7d7a678ff60048601526024850152165af18015613533576135195750565b604051907f095ea7b300000000000000000000000000000000000000000000000000000000825273a5e0829caced8ffdd4de3c43696c57f7d7a678ff600483015260248201526020816044816000732791bca1f2de4661ed88a30c99a7a9449aa841745af18015613533576135195750565b6040517f095ea7b300000000000000000000000000000000000000000000000000000000815273ffffffffffffffffffffffffffffffffffffffff9283166004820152602481019390935260209183916044918391600091165af18015613533576135195750565b73ffffffffffffffffffffffffffffffffffffffff811691821561387a5760208161386460009461383b7fddf252ad1be2c89b69c2b068fc378daa952ba7f163c4a11628f55a4df523b3ef95600254612894565b60025573ffffffffffffffffffffffffffffffffffffffff166000526000602052604060002090565b61386f828254612894565b9055604051908152a3565b60646040517f08c379a000000000000000000000000000000000000000000000000000000000815260206004820152601f60248201527f45524332303a206d696e7420746f20746865207a65726f2061646472657373006044820152fd5b6138e130614292565b6040517ffeaf968c00000000000000000000000000000000000000000000000000000000815260a08160048173ab594600376ec9fd91f8e885dadf0ce036862de05afa9081156139a6575b600091613949575b5061306e9068056bc75e2d6310000092612fd3565b9060a0823d821161399e575b8161396260a09383611b1d565b8101031261061f575068056bc75e2d63100000918161398361306e93612d05565b50613995608060208301519201612d05565b50915091613934565b3d9150613955565b6139ae612d1c565b61392c565b6139bc30614329565b6040517ffeaf968c00000000000000000000000000000000000000000000000000000000815260a081600481733d49406edd4d52fb7ffd25485f32e073b529c9245afa9081156139a657600091613949575061306e9068056bc75e2d6310000092612fd3565b613a2b3061439a565b6040517ffeaf968c00000000000000000000000000000000000000000000000000000000815260a08160048173f9680d99d6c9589e2a93a78a04a279e5092059455afa9081156139a657600091613949575061306e9068056bc75e2d6310000092612fd3565b613a9a3061440b565b6040517ffeaf968c00000000000000000000000000000000000000000000000000000000815260a08160048173c907e116054ad103354f2d350fd2514433d57f6f5afa908115613b57575b600091613afe575b5061306e906402540be40092612fd3565b9060a0823d8211613b4f575b81613b1760a09383611b1d565b8101031261061f57506402540be4009181613b3461306e93612d05565b50613b46608060208301519201612d05565b50915091613aed565b3d9150613b0a565b613b5f612d1c565b613ae5565b6104c2613b6f6138d8565b612466613b7a6139b3565b612466613b85613a22565b91613b8e613a91565b94612894565b60405190600554808352826020918282019060056000527f036b6384b5eca791c62761152d0c79bb0604c104a5fb6f4eb0703f3154bb3db0936000905b828210613be957505050613be792500383611b1d565b565b855473ffffffffffffffffffffffffffffffffffffffff1684526001958601958895509381019390910190613bd1565b60405190600654808352826020918282019060066000527ff652222313e28459528d920b65115c16c04f3efc82aaedc97be59f3f377c0d3f936000905b828210613c6c57505050613be792500383611b1d565b855473ffffffffffffffffffffffffffffffffffffffff1684526001958601958895509381019390910190613c56565b60405190600754808352826020918282019060076000527fa66cc928b5edb82af9bd49922954155ab7b0942694bea4ce44661d9a8736c688936000905b828210613cef57505050613be792500383611b1d565b855473ffffffffffffffffffffffffffffffffffffffff1684526001958601958895509381019390910190613cd9565b60405190600854808352826020918282019060086000527ff3f7a9fe364faab93b216da50a3214154f22a0a2b415b23a84c8169e8b636ee3936000905b828210613d7257505050613be792500383611b1d565b855473ffffffffffffffffffffffffffffffffffffffff1684526001958601958895509381019390910190613d5c565b91613df98580613de68982613ddf82613e09999c613dd8613be79f613dcc613e139f9e8290612fd3565b9f8315613e1d57612fd3565b0498612fd3565b0497612fd3565b04963091613df2613b94565b91046145c8565b3090613e03613c19565b906145c8565b3090613e03613c9c565b3090613e03613d1f565b613e2561302c565b612fd3565b613be79060021c613e4330613e3d613b94565b836145c8565b613e4f30613e3d613c19565b613e1330613e3d613c9c565b613be791613e7d613e6a613b64565b828110613e98575b826002549103612fd3565b8115613e8b575b04906137e7565b613e9361302c565b613e84565b613ea0612864565b613e72565b73ffffffffffffffffffffffffffffffffffffffff8116908115613ff357613eed8173ffffffffffffffffffffffffffffffffffffffff166000526000602052604060002090565b54838110613f6f57837fddf252ad1be2c89b69c2b068fc378daa952ba7f163c4a11628f55a4df523b3ef92613f4a600096612ac294039173ffffffffffffffffffffffffffffffffffffffff166000526000602052604060002090565b55613f5f613f5a82600254612e23565b600255565b6040519081529081906020820190565b60846040517f08c379a000000000000000000000000000000000000000000000000000000000815260206004820152602260248201527f45524332303a206275726e20616d6f756e7420657863656564732062616c616e60448201527f63650000000000000000000000000000000000000000000000000000000000006064820152fd5b60846040517f08c379a000000000000000000000000000000000000000000000000000000000815260206004820152602160248201527f45524332303a206275726e2066726f6d20746865207a65726f2061646472657360448201527f73000000000000000000000000000000000000000000000000000000000000006064820152fd5b6040517fa9059cbb00000000000000000000000000000000000000000000000000000000815273ffffffffffffffffffffffffffffffffffffffff92909216600483015260248201526020816044816000732791bca1f2de4661ed88a30c99a7a9449aa841745af18015613533576135195750565b613be7906140f861312d565b805115614153575b730d500b1d8e8ef31e21c99d1db9a6444d3adf12706020820152805160011015614146575b732791bca1f2de4661ed88a30c99a7a9449aa84174604082015230916145c8565b61414e6107fc565b614125565b61415b6107fc565b614100565b613be79061416c61312d565b8051156141b9575b73bbba073c31bf03b8acf7c28ef0738decf3695683602082015280516001101561414657732791bca1f2de4661ed88a30c99a7a9449aa84174604082015230916145c8565b6141c16107fc565b614174565b613be7906141d261312d565b80511561421f575b737ceb23fd6bc0add59e62ac25578270cff1b9f619602082015280516001101561414657732791bca1f2de4661ed88a30c99a7a9449aa84174604082015230916145c8565b6142276107fc565b6141da565b613be79061423861312d565b805115614285575b731bfd67037b42cf73acf2047067bd4f2c47d9bfd6602082015280516001101561414657732791bca1f2de4661ed88a30c99a7a9449aa84174604082015230916145c8565b61428d6107fc565b614240565b73ffffffffffffffffffffffffffffffffffffffff604051917f70a08231000000000000000000000000000000000000000000000000000000008352166004820152602081602481730d500b1d8e8ef31e21c99d1db9a6444d3adf12705afa90811561431c575b600091614304575090565b6104c2915060203d811161159d5761158f8183611b1d565b614324612d1c565b6142f9565b73ffffffffffffffffffffffffffffffffffffffff604051917f70a0823100000000000000000000000000000000000000000000000000000000835216600482015260208160248173bbba073c31bf03b8acf7c28ef0738decf36956835afa90811561431c57600091614304575090565b73ffffffffffffffffffffffffffffffffffffffff604051917f70a08231000000000000000000000000000000000000000000000000000000008352166004820152602081602481737ceb23fd6bc0add59e62ac25578270cff1b9f6195afa90811561431c57600091614304575090565b73ffffffffffffffffffffffffffffffffffffffff604051917f70a08231000000000000000000000000000000000000000000000000000000008352166004820152602081602481731bfd67037b42cf73acf2047067bd4f2c47d9bfd65afa90811561431c57600091614304575090565b73ffffffffffffffffffffffffffffffffffffffff604051917f70a08231000000000000000000000000000000000000000000000000000000008352166004820152602081602481732791bca1f2de4661ed88a30c99a7a9449aa841745afa90811561431c57600091614304575090565b6020906024604051809481937f70a0823100000000000000000000000000000000000000000000000000000000835273ffffffffffffffffffffffffffffffffffffffff8092166004840152165afa90811561431c57600091614304575090565b602090818184031261043d5780519067ffffffffffffffff821161043d57019180601f8401121561043d57825161458481611b6b565b936145926040519586611b1d565b818552838086019260051b82010192831161043d578301905b8282106145b9575050505090565b815181529083019083016145ab565b91614636906000928373ffffffffffffffffffffffffffffffffffffffff9586600f541693604051978896879586947f38ed1739000000000000000000000000000000000000000000000000000000008652600486015285602486015260a0604486015260a4850190613329565b9116606483015264174876e7ff608483015203925af1801561466e575b61465a5750565b613530903d806000833e611d0d8183611b1d565b614676612d1c565b61465356fea2646970667358221220eb0ae572de753c572d6c981bb086429f500b96bbd3f24fe69a0e11dd547cee2e64736f6c634300080d00330000000000000000000000002791bca1f2de4661ed88a30c99a7a9449aa84174",
  "linkReferences": {},
  "deployedLinkReferences": {}
}