{
  "_format": "hh-sol-artifact-1",
  "contractName": "autoBalancer",
  "sourceName": "contracts/autoBalancer.sol",
  "abi": [
    {
      "inputs": [],
      "stateMutability": "nonpayable",
      "type": "constructor"
    },
    {
      "anonymous": false,
      "inputs": [
        {
          "indexed": true,
          "internalType": "address",
          "name": "owner",
          "type": "address"
        },
        {
          "indexed": true,
          "internalType": "address",
          "name": "spender",
          "type": "address"
        },
        {
          "indexed": false,
          "internalType": "uint256",
          "name": "value",
          "type": "uint256"
        }
      ],
      "name": "Approval",
      "type": "event"
    },
    {
      "anonymous": false,
      "inputs": [
        {
          "indexed": true,
          "internalType": "address",
          "name": "from",
          "type": "address"
        },
        {
          "indexed": true,
          "internalType": "address",
          "name": "to",
          "type": "address"
        },
        {
          "indexed": false,
          "internalType": "uint256",
          "name": "value",
          "type": "uint256"
        }
      ],
      "name": "Transfer",
      "type": "event"
    },
    {
      "inputs": [],
      "name": "BTC_USD_ORACLE",
      "outputs": [
        {
          "internalType": "address",
          "name": "",
          "type": "address"
        }
      ],
      "stateMutability": "view",
      "type": "function"
    },
    {
      "inputs": [],
      "name": "ETH_USD_ORACLE",
      "outputs": [
        {
          "internalType": "address",
          "name": "",
          "type": "address"
        }
      ],
      "stateMutability": "view",
      "type": "function"
    },
    {
      "inputs": [],
      "name": "MATIC_USD_ORACLE",
      "outputs": [
        {
          "internalType": "address",
          "name": "",
          "type": "address"
        }
      ],
      "stateMutability": "view",
      "type": "function"
    },
    {
      "inputs": [],
      "name": "QUICKSWAP_ROUTER",
      "outputs": [
        {
          "internalType": "address",
          "name": "",
          "type": "address"
        }
      ],
      "stateMutability": "view",
      "type": "function"
    },
    {
      "inputs": [
        {
          "internalType": "uint256",
          "name": "",
          "type": "uint256"
        }
      ],
      "name": "SANDToUSDCPath",
      "outputs": [
        {
          "internalType": "address",
          "name": "",
          "type": "address"
        }
      ],
      "stateMutability": "view",
      "type": "function"
    },
    {
      "inputs": [],
      "name": "SAND_ADDRESS",
      "outputs": [
        {
          "internalType": "address",
          "name": "",
          "type": "address"
        }
      ],
      "stateMutability": "view",
      "type": "function"
    },
    {
      "inputs": [],
      "name": "SAND_USD_ORACLE",
      "outputs": [
        {
          "internalType": "address",
          "name": "",
          "type": "address"
        }
      ],
      "stateMutability": "view",
      "type": "function"
    },
    {
      "inputs": [
        {
          "internalType": "uint256",
          "name": "",
          "type": "uint256"
        }
      ],
      "name": "USDCToSANDPath",
      "outputs": [
        {
          "internalType": "address",
          "name": "",
          "type": "address"
        }
      ],
      "stateMutability": "view",
      "type": "function"
    },
    {
      "inputs": [
        {
          "internalType": "uint256",
          "name": "",
          "type": "uint256"
        }
      ],
      "name": "USDCToWBTCPath",
      "outputs": [
        {
          "internalType": "address",
          "name": "",
          "type": "address"
        }
      ],
      "stateMutability": "view",
      "type": "function"
    },
    {
      "inputs": [
        {
          "internalType": "uint256",
          "name": "",
          "type": "uint256"
        }
      ],
      "name": "USDCToWETHPath",
      "outputs": [
        {
          "internalType": "address",
          "name": "",
          "type": "address"
        }
      ],
      "stateMutability": "view",
      "type": "function"
    },
    {
      "inputs": [
        {
          "internalType": "uint256",
          "name": "",
          "type": "uint256"
        }
      ],
      "name": "USDCToWMATICPath",
      "outputs": [
        {
          "internalType": "address",
          "name": "",
          "type": "address"
        }
      ],
      "stateMutability": "view",
      "type": "function"
    },
    {
      "inputs": [],
      "name": "USDC_ADDRESS",
      "outputs": [
        {
          "internalType": "address",
          "name": "",
          "type": "address"
        }
      ],
      "stateMutability": "view",
      "type": "function"
    },
    {
      "inputs": [
        {
          "internalType": "uint256",
          "name": "",
          "type": "uint256"
        }
      ],
      "name": "WBTCToUSDCPath",
      "outputs": [
        {
          "internalType": "address",
          "name": "",
          "type": "address"
        }
      ],
      "stateMutability": "view",
      "type": "function"
    },
    {
      "inputs": [],
      "name": "WBTC_ADDRESS",
      "outputs": [
        {
          "internalType": "address",
          "name": "",
          "type": "address"
        }
      ],
      "stateMutability": "view",
      "type": "function"
    },
    {
      "inputs": [
        {
          "internalType": "uint256",
          "name": "",
          "type": "uint256"
        }
      ],
      "name": "WETHToUSDCPath",
      "outputs": [
        {
          "internalType": "address",
          "name": "",
          "type": "address"
        }
      ],
      "stateMutability": "view",
      "type": "function"
    },
    {
      "inputs": [],
      "name": "WETH_ADDRESS",
      "outputs": [
        {
          "internalType": "address",
          "name": "",
          "type": "address"
        }
      ],
      "stateMutability": "view",
      "type": "function"
    },
    {
      "inputs": [
        {
          "internalType": "uint256",
          "name": "",
          "type": "uint256"
        }
      ],
      "name": "WMATICToUSDCPath",
      "outputs": [
        {
          "internalType": "address",
          "name": "",
          "type": "address"
        }
      ],
      "stateMutability": "view",
      "type": "function"
    },
    {
      "inputs": [],
      "name": "WMATIC_ADDRESS",
      "outputs": [
        {
          "internalType": "address",
          "name": "",
          "type": "address"
        }
      ],
      "stateMutability": "view",
      "type": "function"
    },
    {
      "inputs": [
        {
          "internalType": "address",
          "name": "owner",
          "type": "address"
        },
        {
          "internalType": "address",
          "name": "spender",
          "type": "address"
        }
      ],
      "name": "allowance",
      "outputs": [
        {
          "internalType": "uint256",
          "name": "",
          "type": "uint256"
        }
      ],
      "stateMutability": "view",
      "type": "function"
    },
    {
      "inputs": [
        {
          "internalType": "address",
          "name": "spender",
          "type": "address"
        },
        {
          "internalType": "uint256",
          "name": "amount",
          "type": "uint256"
        }
      ],
      "name": "approve",
      "outputs": [
        {
          "internalType": "bool",
          "name": "",
          "type": "bool"
        }
      ],
      "stateMutability": "nonpayable",
      "type": "function"
    },
    {
      "inputs": [
        {
          "internalType": "address",
          "name": "_token",
          "type": "address"
        },
        {
          "internalType": "address",
          "name": "_spender",
          "type": "address"
        }
      ],
      "name": "approveSpendingWholeBalance",
      "outputs": [],
      "stateMutability": "nonpayable",
      "type": "function"
    },
    {
      "inputs": [
        {
          "internalType": "address",
          "name": "token_address",
          "type": "address"
        },
        {
          "internalType": "address",
          "name": "spender_address",
          "type": "address"
        },
        {
          "internalType": "uint256",
          "name": "amount_to_approve",
          "type": "uint256"
        }
      ],
      "name": "approve_spending",
      "outputs": [],
      "stateMutability": "nonpayable",
      "type": "function"
    },
    {
      "inputs": [
        {
          "internalType": "address",
          "name": "account",
          "type": "address"
        }
      ],
      "name": "balanceOf",
      "outputs": [
        {
          "internalType": "uint256",
          "name": "",
          "type": "uint256"
        }
      ],
      "stateMutability": "view",
      "type": "function"
    },
    {
      "inputs": [
        {
          "internalType": "bytes",
          "name": "",
          "type": "bytes"
        }
      ],
      "name": "checkUpkeep",
      "outputs": [
        {
          "internalType": "bool",
          "name": "upkeepNeeded",
          "type": "bool"
        },
        {
          "internalType": "bytes",
          "name": "performData",
          "type": "bytes"
        }
      ],
      "stateMutability": "view",
      "type": "function"
    },
    {
      "inputs": [],
      "name": "decimals",
      "outputs": [
        {
          "internalType": "uint8",
          "name": "",
          "type": "uint8"
        }
      ],
      "stateMutability": "view",
      "type": "function"
    },
    {
      "inputs": [
        {
          "internalType": "address",
          "name": "spender",
          "type": "address"
        },
        {
          "internalType": "uint256",
          "name": "subtractedValue",
          "type": "uint256"
        }
      ],
      "name": "decreaseAllowance",
      "outputs": [
        {
          "internalType": "bool",
          "name": "",
          "type": "bool"
        }
      ],
      "stateMutability": "nonpayable",
      "type": "function"
    },
    {
      "inputs": [
        {
          "internalType": "uint256",
          "name": "deposit_amount",
          "type": "uint256"
        }
      ],
      "name": "depositUserFunds",
      "outputs": [],
      "stateMutability": "nonpayable",
      "type": "function"
    },
    {
      "inputs": [
        {
          "internalType": "address",
          "name": "_oracle_address",
          "type": "address"
        }
      ],
      "name": "getLatestPrice",
      "outputs": [
        {
          "internalType": "int256",
          "name": "",
          "type": "int256"
        }
      ],
      "stateMutability": "view",
      "type": "function"
    },
    {
      "inputs": [],
      "name": "getUSDPortfolioTotal",
      "outputs": [
        {
          "internalType": "uint256",
          "name": "Total_in_USD",
          "type": "uint256"
        }
      ],
      "stateMutability": "view",
      "type": "function"
    },
    {
      "inputs": [
        {
          "internalType": "address",
          "name": "token_address",
          "type": "address"
        },
        {
          "internalType": "address",
          "name": "oracle_address",
          "type": "address"
        },
        {
          "internalType": "uint256",
          "name": "token_decimals",
          "type": "uint256"
        }
      ],
      "name": "getUSDTokenBalanceOf",
      "outputs": [
        {
          "internalType": "uint256",
          "name": "",
          "type": "uint256"
        }
      ],
      "stateMutability": "view",
      "type": "function"
    },
    {
      "inputs": [
        {
          "internalType": "address",
          "name": "spender",
          "type": "address"
        },
        {
          "internalType": "uint256",
          "name": "addedValue",
          "type": "uint256"
        }
      ],
      "name": "increaseAllowance",
      "outputs": [
        {
          "internalType": "bool",
          "name": "",
          "type": "bool"
        }
      ],
      "stateMutability": "nonpayable",
      "type": "function"
    },
    {
      "inputs": [],
      "name": "interval",
      "outputs": [
        {
          "internalType": "uint256",
          "name": "",
          "type": "uint256"
        }
      ],
      "stateMutability": "view",
      "type": "function"
    },
    {
      "inputs": [],
      "name": "lastTimeStamp",
      "outputs": [
        {
          "internalType": "uint256",
          "name": "",
          "type": "uint256"
        }
      ],
      "stateMutability": "view",
      "type": "function"
    },
    {
      "inputs": [
        {
          "internalType": "address",
          "name": "user",
          "type": "address"
        },
        {
          "internalType": "uint256",
          "name": "portfolio_value_usd",
          "type": "uint256"
        }
      ],
      "name": "mintOnDeposit",
      "outputs": [],
      "stateMutability": "nonpayable",
      "type": "function"
    },
    {
      "inputs": [],
      "name": "name",
      "outputs": [
        {
          "internalType": "string",
          "name": "",
          "type": "string"
        }
      ],
      "stateMutability": "view",
      "type": "function"
    },
    {
      "inputs": [
        {
          "internalType": "bytes",
          "name": "performData",
          "type": "bytes"
        }
      ],
      "name": "performUpkeep",
      "outputs": [],
      "stateMutability": "nonpayable",
      "type": "function"
    },
    {
      "inputs": [],
      "name": "quickSwapRouter",
      "outputs": [
        {
          "internalType": "contract IUniswapV2Router02",
          "name": "",
          "type": "address"
        }
      ],
      "stateMutability": "view",
      "type": "function"
    },
    {
      "inputs": [
        {
          "internalType": "uint256",
          "name": "new_interval",
          "type": "uint256"
        }
      ],
      "name": "setInterval",
      "outputs": [],
      "stateMutability": "nonpayable",
      "type": "function"
    },
    {
      "inputs": [
        {
          "internalType": "uint256",
          "name": "_amountIn",
          "type": "uint256"
        },
        {
          "internalType": "uint256",
          "name": "_amountOutMin",
          "type": "uint256"
        },
        {
          "internalType": "address[]",
          "name": "_path",
          "type": "address[]"
        },
        {
          "internalType": "address",
          "name": "_acct",
          "type": "address"
        },
        {
          "internalType": "uint256",
          "name": "_deadline",
          "type": "uint256"
        }
      ],
      "name": "swap",
      "outputs": [],
      "stateMutability": "nonpayable",
      "type": "function"
    },
    {
      "inputs": [
        {
          "internalType": "address",
          "name": "_token",
          "type": "address"
        },
        {
          "internalType": "uint256",
          "name": "_amount",
          "type": "uint256"
        }
      ],
      "name": "swapBackToUSDC",
      "outputs": [],
      "stateMutability": "nonpayable",
      "type": "function"
    },
    {
      "inputs": [
        {
          "internalType": "uint256",
          "name": "amount",
          "type": "uint256"
        }
      ],
      "name": "swapIntoFourEqualParts",
      "outputs": [],
      "stateMutability": "nonpayable",
      "type": "function"
    },
    {
      "inputs": [
        {
          "internalType": "uint256",
          "name": "WMATIC_amount",
          "type": "uint256"
        },
        {
          "internalType": "uint256",
          "name": "SAND_amount",
          "type": "uint256"
        },
        {
          "internalType": "uint256",
          "name": "WETH_amount",
          "type": "uint256"
        },
        {
          "internalType": "uint256",
          "name": "WBTC_amount",
          "type": "uint256"
        },
        {
          "internalType": "uint256",
          "name": "totalUSDAmount",
          "type": "uint256"
        },
        {
          "internalType": "uint256",
          "name": "depositAmount",
          "type": "uint256"
        }
      ],
      "name": "swapProportionately",
      "outputs": [],
      "stateMutability": "nonpayable",
      "type": "function"
    },
    {
      "inputs": [],
      "name": "symbol",
      "outputs": [
        {
          "internalType": "string",
          "name": "",
          "type": "string"
        }
      ],
      "stateMutability": "view",
      "type": "function"
    },
    {
      "inputs": [],
      "name": "threshold_percentage",
      "outputs": [
        {
          "internalType": "uint256",
          "name": "",
          "type": "uint256"
        }
      ],
      "stateMutability": "view",
      "type": "function"
    },
    {
      "inputs": [
        {
          "internalType": "address",
          "name": "token_address",
          "type": "address"
        },
        {
          "internalType": "address",
          "name": "user_address",
          "type": "address"
        }
      ],
      "name": "tokenBalanceOf",
      "outputs": [
        {
          "internalType": "uint256",
          "name": "token_balance",
          "type": "uint256"
        }
      ],
      "stateMutability": "view",
      "type": "function"
    },
    {
      "inputs": [],
      "name": "totalSupply",
      "outputs": [
        {
          "internalType": "uint256",
          "name": "",
          "type": "uint256"
        }
      ],
      "stateMutability": "view",
      "type": "function"
    },
    {
      "inputs": [
        {
          "internalType": "address",
          "name": "to",
          "type": "address"
        },
        {
          "internalType": "uint256",
          "name": "amount",
          "type": "uint256"
        }
      ],
      "name": "transfer",
      "outputs": [
        {
          "internalType": "bool",
          "name": "",
          "type": "bool"
        }
      ],
      "stateMutability": "nonpayable",
      "type": "function"
    },
    {
      "inputs": [
        {
          "internalType": "address",
          "name": "from",
          "type": "address"
        },
        {
          "internalType": "address",
          "name": "to",
          "type": "address"
        },
        {
          "internalType": "uint256",
          "name": "amount",
          "type": "uint256"
        }
      ],
      "name": "transferFrom",
      "outputs": [
        {
          "internalType": "bool",
          "name": "",
          "type": "bool"
        }
      ],
      "stateMutability": "nonpayable",
      "type": "function"
    },
    {
      "inputs": [
        {
          "internalType": "uint256",
          "name": "amount_",
          "type": "uint256"
        },
        {
          "internalType": "address",
          "name": "token_address",
          "type": "address"
        },
        {
          "internalType": "address",
          "name": "address_to",
          "type": "address"
        }
      ],
      "name": "withdraw",
      "outputs": [],
      "stateMutability": "nonpayable",
      "type": "function"
    },
    {
      "inputs": [
        {
          "internalType": "address",
          "name": "user",
          "type": "address"
        }
      ],
      "name": "withdrawUserFunds",
      "outputs": [],
      "stateMutability": "nonpayable",
      "type": "function"
    },
    {
      "stateMutability": "payable",
      "type": "receive"
    }
  ],
  "bytecode": "0x6080604052346200027f576200002962000018620002ca565b62000022620002f0565b90620009f9565b62000232620000376200029b565b6000805160206200526283398151915281526200007660209162000070838201730d500b1d8e8ef31e21c99d1db9a6444d3adf12709052565b62000326565b620000b5620000846200029b565b60008051602062005262833981519152815273bbba073c31bf03b8acf7c28ef0738decf369568381840152620003c7565b620000f4620000c36200029b565b600080516020620052628339815191528152737ceb23fd6bc0add59e62ac25578270cff1b9f6198184015262000468565b62000133620001026200029b565b600080516020620052628339815191528152731bfd67037b42cf73acf2047067bd4f2c47d9bfd68184015262000509565b62000172620001416200029b565b730d500b1d8e8ef31e21c99d1db9a6444d3adf127081526000805160206200526283398151915281840152620005aa565b620001b1620001806200029b565b73bbba073c31bf03b8acf7c28ef0738decf3695683815260008051602062005262833981519152818401526200064b565b620001f0620001bf6200029b565b737ceb23fd6bc0add59e62ac25578270cff1b9f61981526000805160206200526283398151915281840152620006ec565b6200022c620001fe6200029b565b731bfd67037b42cf73acf2047067bd4f2c47d9bfd68152918201600080516020620052628339815191529052565b6200078d565b6200023e610e10600e55565b620002496005600f55565b601080546001600160a01b03191673a5e0829caced8ffdd4de3c43696c57f7d7a678ff17905560405161474f908162000b138239f35b600080fd5b50634e487b7160e01b600052604160045260246000fd5b60408051919082016001600160401b03811183821017620002bb57604052565b620002c562000284565b604052565b620002d46200029b565b90600c82526b30baba37a130b630b731b2b960a11b6020830152565b620002fa6200029b565b90600382526241424160e81b6020830152565b81811062000319575050565b600081556001016200030d565b600554906002918260055580831062000389575b5060056000526020806000206000925b84841062000359575050505050565b805182546001600160a01b0319166001600160a01b0391909116178255600193840193919091019082016200034a565b6005600052620003c0907f036b6384b5eca791c62761152d0c79bb0604c104a5fb6f4eb0703f3154bb3db09081019084016200030d565b386200033a565b60065490600291826006558083106200042a575b5060066000526020806000206000925b848410620003fa575050505050565b805182546001600160a01b0319166001600160a01b039190911617825560019384019391909101908201620003eb565b600660005262000461907ff652222313e28459528d920b65115c16c04f3efc82aaedc97be59f3f377c0d3f9081019084016200030d565b38620003db565b6007549060029182600755808310620004cb575b5060076000526020806000206000925b8484106200049b575050505050565b805182546001600160a01b0319166001600160a01b0391909116178255600193840193919091019082016200048c565b600760005262000502907fa66cc928b5edb82af9bd49922954155ab7b0942694bea4ce44661d9a8736c6889081019084016200030d565b386200047c565b60085490600291826008558083106200056c575b5060086000526020806000206000925b8484106200053c575050505050565b805182546001600160a01b0319166001600160a01b0391909116178255600193840193919091019082016200052d565b6008600052620005a3907ff3f7a9fe364faab93b216da50a3214154f22a0a2b415b23a84c8169e8b636ee39081019084016200030d565b386200051d565b60095490600291826009558083106200060d575b5060096000526020806000206000925b848410620005dd575050505050565b805182546001600160a01b0319166001600160a01b039190911617825560019384019391909101908201620005ce565b600960005262000644907f6e1540171b6c0c960b71a7020d9f60077f6af931a8bbf590da0223dacf75c7af9081019084016200030d565b38620005be565b600a549060029182600a55808310620006ae575b50600a6000526020806000206000925b8484106200067e575050505050565b805182546001600160a01b0319166001600160a01b0391909116178255600193840193919091019082016200066f565b600a600052620006e5907fc65a7bb8d6351c1cf70c95a316cc6a92839c986682d98bc35f958f4883f9d2a89081019084016200030d565b386200065f565b600b549060029182600b558083106200074f575b50600b6000526020806000206000925b8484106200071f575050505050565b805182546001600160a01b0319166001600160a01b03919091161782556001938401939190910190820162000710565b600b60005262000786907f0175b7a638427703f0dbe7bb9bbf987a2551717b34e79f33b5b1008d1fa01db99081019084016200030d565b3862000700565b600c549060029182600c55808310620007f0575b50600c6000526020806000206000925b848410620007c0575050505050565b805182546001600160a01b0319166001600160a01b039190911617825560019384019391909101908201620007b1565b600c60005262000827907fdf6966c971051c3d54ec59162606531493a51404a002842f56009d7e5cf4a8c79081019084016200030d565b38620007a1565b90600182811c9216801562000860575b60208310146200084a57565b634e487b7160e01b600052602260045260246000fd5b91607f16916200083e565b90601f821162000879575050565b620008aa9160036000526020600020906020601f840160051c83019310620008ac575b601f0160051c01906200030d565b565b90915081906200089c565b90601f8211620008c5575050565b620008aa9160046000526020600020906020601f840160051c83019310620008ac57601f0160051c01906200030d565b80519091906001600160401b038111620009e9575b62000922816200091c6004546200082e565b620008b7565b602080601f831160011462000961575081929360009262000955575b50508160011b916000199060031b1c191617600455565b0151905038806200093e565b6004600052601f198316949091907f8a35acfbc15ff81a39ae7d344fd709f28e8600b4aa8c65c6b64bfe7fe36bd19b926000905b878210620009d0575050836001959610620009b6575b505050811b01600455565b015160001960f88460031b161c19169055388080620009ab565b8060018596829496860151815501950193019062000995565b620009f362000284565b6200090a565b80519091906001600160401b03811162000b02575b62000a268162000a206003546200082e565b6200086b565b602080601f831160011462000a6d57508190620008aa9460009262000a61575b50508160011b916000199060031b1c191617600355620008f5565b01519050388062000a46565b60036000529293919291601f1984167fc2575a0e9e593c00f959f8c92f12db2869c3395a3b0502d05e2516446f71f85b936000905b82821062000ae9575050916001939185620008aa9796941062000acf575b505050811b01600355620008f5565b015160001960f88460031b161c1916905538808062000ac0565b8060018697829497870151815501960194019062000aa2565b62000b0c62000284565b62000a0e56fe6080604052600436101561001b575b361561001957600080fd5b005b60003560e01c8063040141e51461040357806306fdde03146103fa578063095ea7b3146103f1578063153f29c7146103e857806316345f18146103df57806318160ddd146103d65780631bea8006146103cd57806322a90082146103c457806323aad7af146103bb57806323b872dd146103b257806324e2e7bb146103a957806329a97ec2146103a05780632d365d3114610397578063313ce5671461038e57806339509351146103855780633f3b3b271461037c57806344345f23146103735780634585e33b1461036a57806351f5488714610361578063681bcf131461035857806369bc43881461034f5780636e04ff0d1461034657806370a082311461033d578063718176e514610334578063764f96f91461032b57806388e42b08146103225780638db9f39a1461031957806390f11e841461031057806394362e8b14610307578063947a36fb146102fe57806395d89b41146102f5578063a15c7d10146102ec578063a457c2d7146102e3578063a48ce279146102da578063a9059cbb146102d1578063aa5a7aa3146102c8578063b460af94146102bf578063b6e20a6a146102b6578063bb09d9b7146102ad578063bdd5915f146102a4578063c5764eec1461029b578063ca97090514610292578063cb3601b114610289578063cd3f5b5314610280578063cf41281014610277578063d09191161461026e578063d239c68114610265578063dd62ed3e1461025c578063e189eb42146102535763e95d83280361000e5761024e612880565b61000e565b5061024e61282d565b5061024e612797565b5061024e61275a565b5061024e61270c565b5061024e61265c565b5061024e61260e565b5061024e612588565b5061024e612502565b5061024e6123c5565b5061024e612377565b5061024e612329565b5061024e6122db565b5061024e6121e1565b5061024e61210f565b5061024e6120ca565b5061024e612044565b5061024e611f38565b5061024e611eb2565b5061024e611dd0565b5061024e611d93565b5061024e611d4f565b5061024e611c3a565b5061024e611acc565b5061024e611a91565b5061024e611a47565b5061024e6119f9565b5061024e611993565b5061024e6111fe565b5061024e61115f565b5061024e6110d9565b5061024e61104f565b5061024e610e4c565b5061024e610d5e565b5061024e610d21565b5061024e610c9c565b5061024e610c61565b5061024e610c13565b5061024e610bfb565b5061024e610a3d565b5061024e610926565b5061024e610840565b5061024e6107d8565b5061024e61078d565b5061024e610750565b5061024e61070e565b5061024e6106cc565b5061024e61067c565b5061024e6104d9565b50346104515760007ffffffffffffffffffffffffffffffffffffffffffffffffffffffffffffffffc360112610451576020604051737ceb23fd6bc0add59e62ac25578270cff1b9f6198152f35b600080fd5b91908251928382526000905b8482106104ad5750601f84602094957fffffffffffffffffffffffffffffffffffffffffffffffffffffffffffffffe093116104a0575b0116010190565b6000858286010152610499565b90602090818082850101519082860101520190610462565b9060206104d6928181520190610456565b90565b5034610451576000807ffffffffffffffffffffffffffffffffffffffffffffffffffffffffffffffffc3601126106335760405190806003549060019180831c92808216928315610629575b60209283861085146105fc5785885260208801949081156105c25750600114610569575b6105658761055981890382611b4a565b604051918291826104c5565b0390f35b600360005294509192917fc2575a0e9e593c00f959f8c92f12db2869c3395a3b0502d05e2516446f71f85b5b8386106105b15750505091019050610559826105653880610549565b805485870152948201948101610595565b7fffffffffffffffffffffffffffffffffffffffffffffffffffffffffffffff001685525050500191506105599050826105653880610549565b6024827f4e487b710000000000000000000000000000000000000000000000000000000081526022600452fd5b93607f1693610525565b80fd5b6004359073ffffffffffffffffffffffffffffffffffffffff8216820361045157565b6024359073ffffffffffffffffffffffffffffffffffffffff8216820361045157565b50346104515760407ffffffffffffffffffffffffffffffffffffffffffffffffffffffffffffffffc360112610451576106c16106b7610636565b6024359033612bb5565b602060405160018152f35b50346104515760007ffffffffffffffffffffffffffffffffffffffffffffffffffffffffffffffffc360112610451576020610706613c02565b604051908152f35b50346104515760207ffffffffffffffffffffffffffffffffffffffffffffffffffffffffffffffffc36011261045157602061070661074b610636565b612d93565b50346104515760007ffffffffffffffffffffffffffffffffffffffffffffffffffffffffffffffffc360112610451576020600254604051908152f35b50346104515760407ffffffffffffffffffffffffffffffffffffffffffffffffffffffffffffffffc3601126104515760206107066107ca610636565b6107d2610659565b9061458b565b50346104515760207ffffffffffffffffffffffffffffffffffffffffffffffffffffffffffffffffc36011261045157600435600e55005b507f4e487b7100000000000000000000000000000000000000000000000000000000600052603260045260246000fd5b50346104515760207ffffffffffffffffffffffffffffffffffffffffffffffffffffffffffffffffc360112610451576004356006548110156104515773ffffffffffffffffffffffffffffffffffffffff60209160066000527ff652222313e28459528d920b65115c16c04f3efc82aaedc97be59f3f377c0d3f015416604051908152f35b7ffffffffffffffffffffffffffffffffffffffffffffffffffffffffffffffffc60609101126104515773ffffffffffffffffffffffffffffffffffffffff90600435828116810361045157916024359081168103610451579060443590565b503461045157610935366108c6565b9073ffffffffffffffffffffffffffffffffffffffff831660005260016020526109833360406000209073ffffffffffffffffffffffffffffffffffffffff16600052602052604060002090565b54927fffffffffffffffffffffffffffffffffffffffffffffffffffffffffffffffff84036109c3575b6109b79350612a2c565b60405160018152602090f35b8284106109df576109da836109b795033383612bb5565b6109ad565b60646040517f08c379a000000000000000000000000000000000000000000000000000000000815260206004820152601d60248201527f45524332303a20696e73756666696369656e7420616c6c6f77616e63650000006044820152fd5b50346104515760207ffffffffffffffffffffffffffffffffffffffffffffffffffffffffffffffffc36011261045157610019610a78610636565b73ffffffffffffffffffffffffffffffffffffffff81166000526000602052610bb8610ab2604060002054610aac30614330565b9061307d565b610bb3610ac260025480936130fa565b91610bae610b0682610b01610af78973ffffffffffffffffffffffffffffffffffffffff166000526000602052604060002090565b54610aac306143c7565b6130fa565b610ba9610b7f610b4785610b01610b3d8c73ffffffffffffffffffffffffffffffffffffffff166000526000602052604060002090565b54610aac30614438565b94610b01610b758b73ffffffffffffffffffffffffffffffffffffffff166000526000602052604060002090565b54610aac306144a9565b95610b8981613544565b610b92836135de565b610b9b85613650565b610ba4876136c2565b61418a565b6141fe565b614264565b6142ca565b610bca81610bc53061451a565b614115565b610bf48173ffffffffffffffffffffffffffffffffffffffff166000526000602052604060002090565b5490613f43565b503461045157610019610c0d366108c6565b9161381d565b50346104515760007ffffffffffffffffffffffffffffffffffffffffffffffffffffffffffffffffc36011261045157602060405173bbba073c31bf03b8acf7c28ef0738decf36956838152f35b50346104515760007ffffffffffffffffffffffffffffffffffffffffffffffffffffffffffffffffc36011261045157602060405160128152f35b50346104515760407ffffffffffffffffffffffffffffffffffffffffffffffffffffffffffffffffc360112610451576106c1610cd7610636565b336000526001602052610d1a602435610d148360406000209073ffffffffffffffffffffffffffffffffffffffff16600052602052604060002090565b546128fe565b9033612bb5565b50346104515760007ffffffffffffffffffffffffffffffffffffffffffffffffffffffffffffffffc360112610451576020600d54604051908152f35b50346104515760207ffffffffffffffffffffffffffffffffffffffffffffffffffffffffffffffffc36011261045157600435600b548110156104515773ffffffffffffffffffffffffffffffffffffffff602091600b6000527f0175b7a638427703f0dbe7bb9bbf987a2551717b34e79f33b5b1008d1fa01db9015416604051908152f35b9060207ffffffffffffffffffffffffffffffffffffffffffffffffffffffffffffffffc8301126104515760043567ffffffffffffffff9283821161045157806023830112156104515781600401359384116104515760248483010111610451576024019190565b503461045157610e5b36610de4565b90610e79610e676131cb565b91610e70613206565b9381019061345e565b9160005b83519060ff81169182101561001957610faf91610edc610ecb610eb1610eab610ea58661338e565b60ff1690565b88612f42565b5173ffffffffffffffffffffffffffffffffffffffff1690565b610ed58389612f42565b5190613734565b730d500b1d8e8ef31e21c99d1db9a6444d3adf127080610f26610f0d610eb1610f07610ea58861338e565b8a612f42565b73ffffffffffffffffffffffffffffffffffffffff1690565b14908115611028575b5015610fb457610fa1610faa91610f75610f51610eb1610f07610ea58861338e565b610f5a88612ef9565b9073ffffffffffffffffffffffffffffffffffffffff169052565b610f9b610f92610eb1610f07610ea5610f8d8961338e565b6133b5565b610f5a88612f0f565b87612f42565b51843091614666565b612f64565b610e7d565b61101f610faa91610fd9610fd0610eb1610f07610ea58861338e565b610f5a8b612ef9565b610ffe610fe58a612f0f565b730d500b1d8e8ef31e21c99d1db9a6444d3adf12709052565b610f9b611016610eb1610f07610ea5610f8d8961338e565b610f5a8b612f20565b51873091614666565b9050611048610f0d610eb1611042610ea5610f8d8861338e565b89612f42565b1438610f2f565b5034610451576020610aac6110af600261108061107a61106e366108c6565b9691929092309061458b565b91612d93565b927ffffffffffffffffffffffffffffffffffffffffffffffffffffffffffffffffd81116110cc575b016130ae565b80156110bf575b60405191048152f35b6110c76130ca565b6110b6565b6110d46128ce565b6110a9565b50346104515760207ffffffffffffffffffffffffffffffffffffffffffffffffffffffffffffffffc360112610451576004356009548110156104515773ffffffffffffffffffffffffffffffffffffffff60209160096000527f6e1540171b6c0c960b71a7020d9f60077f6af931a8bbf590da0223dacf75c7af015416604051908152f35b50346104515760207ffffffffffffffffffffffffffffffffffffffffffffffffffffffffffffffffc360112610451576004356005548110156104515773ffffffffffffffffffffffffffffffffffffffff60209160056000527f036b6384b5eca791c62761152d0c79bb0604c104a5fb6f4eb0703f3154bb3db0015416604051908152f35b6040906104d69392151581528160208201520190610456565b50346104515761120d36610de4565b50506000611219612ea2565b90611222612e43565b730d500b1d8e8ef31e21c99d1db9a6444d3adf127060208201529060409161125f83820173ab594600376ec9fd91f8e885dadf0ce036862de09052565b611267612e43565b73bbba073c31bf03b8acf7c28ef0738decf36956836020820152733d49406edd4d52fb7ffd25485f32e073b529c924818501526112a2612e43565b731bfd67037b42cf73acf2047067bd4f2c47d9bfd660208201529073c907e116054ad103354f2d350fd2514433d57f6f828601526112de612e43565b737ceb23fd6bc0add59e62ac25578270cff1b9f61960208201529273f9680d99d6c9589e2a93a78a04a279e5092059458487015261131b87612ef9565b5261132586612ef9565b5061132f86612f0f565b5261133985612f0f565b5061134385612f20565b5261134d84612f20565b5061135784612f31565b5261136183612f31565b5080805b845160ff9081841610156115ac5761153091816115216115056114fb8a610aac6114f58a60e06114ec8f8f9c8061152a9e8960206114d1956113cf610f0d610f0d846113b3898f1688612f42565b51015173ffffffffffffffffffffffffffffffffffffffff1690565b908a8a61146c8351967f70a0823100000000000000000000000000000000000000000000000000000000885260049787818061142a308d830191909173ffffffffffffffffffffffffffffffffffffffff6020820193169052565b03818a5afa90811561159f575b8a91611572575b50608061144d8c871684612f42565b5101528961146461074b876113b384891686612f42565b941690612f42565b51015251928380927f313ce5670000000000000000000000000000000000000000000000000000000082525afa918215611565575b91611536575b506114ba6060938492169288168b612f42565b5101526114c98c861689612f42565b510151612f9e565b958a60806114e182871684612f42565b510151941690612f42565b5101519061307d565b916130ae565b6305f5e100900490565b9160a09283611516838a168d612f42565b510152861689612f42565b510151906128fe565b91612f64565b90611365565b611558915060203d60201161155e575b6115508183611b4a565b810190612f85565b386114a7565b503d611546565b61156d612d86565b6114a1565b6115929150883d8a11611598575b61158a8183611b4a565b810190612f76565b3861143e565b503d611580565b6115a7612d86565b611437565b5083838681600f54925b825160ff8216908110156116385761161b87610b016116168461160e816115f760a06115e38e9a8e612f42565b5101516115f18d51896130fa565b90613110565b8b61160560c0958692612f42565b5101528a612f42565b5101516134f4565b612fff565b1161162f575b61162a90612f64565b6115b6565b60019150611621565b5050929150600090819382936116566116518451612fba565b61317c565b9161166c6116516116678651612fba565b61303f565b96855b6116798651612fba565b9360ff93848316958610156119435760005b8851868216908110156117065760c08a8c8284816116a98286612f42565b510151151593846116ed575b505050506116ce575b50506116c990612f64565b61168b565b909550819a506116e26116c992968b612f42565b51015199908d6116be565b6116f992939450612f42565b510151138c82848e6116b5565b505090975097929093979491947f7fffffffffffffffffffffffffffffffffffffffffffffffffffffffffffffff9760005b88518c858316918210156117b5575060c08a8c8284816117588286612f42565b5101511515938461179c575b5050505061177d575b505061177890612f64565b611738565b909650819a5061179161177892978b612f42565b51015199908d61176d565b6117a892939450612f42565b510151128c82848e611764565b6118d3925060209150876118cd6113b392610faa969a9f6118ba8f8c9f9c9a9e9a610f5a9389928f926118eb9f806113b395169360c091826117f78787612f42565b5101519c16809c61180c8461160e8489612f42565b12156118f357826118608261182a6118b49661160e6000968b612f42565b6118348689612f42565b5261183f8588612f42565b516118588461184e8c8c612f42565b5101918251613110565b905287612f42565b5101526118ae61189161187c6118768487612f42565b516132ac565b60e06118888989612f42565b5101519061331f565b6118a86118a360606114c98a8a612f42565b6130ae565b9061331f565b92612f42565b52612f42565b916118c7610ea58b61338e565b90612f42565b8b612f42565b610f5a6118e5610ea5610f8d8661338e565b8d612f42565b92919261166f565b506000826119086118b49461160e8989612f42565b6119128487612f42565b528d6119378261192d611925878a612f42565b51938a612f42565b5101918251613240565b90526118608787612f42565b61056587926119898d61195d835196879260208401613411565b037fffffffffffffffffffffffffffffffffffffffffffffffffffffffffffffffe08101865285611b4a565b51928392836111e5565b50346104515760207ffffffffffffffffffffffffffffffffffffffffffffffffffffffffffffffffc3601126104515773ffffffffffffffffffffffffffffffffffffffff6119e0610636565b1660005260006020526020604060002054604051908152f35b50346104515760007ffffffffffffffffffffffffffffffffffffffffffffffffffffffffffffffffc36011261045157602060405173f9680d99d6c9589e2a93a78a04a279e5092059458152f35b50346104515760c07ffffffffffffffffffffffffffffffffffffffffffffffffffffffffffffffffc3601126104515761001960a435608435606435604435602435600435613e40565b50346104515760207ffffffffffffffffffffffffffffffffffffffffffffffffffffffffffffffffc36011261045157610019600435613ec8565b50346104515760007ffffffffffffffffffffffffffffffffffffffffffffffffffffffffffffffffc36011261045157602060405173ab594600376ec9fd91f8e885dadf0ce036862de08152f35b507f4e487b7100000000000000000000000000000000000000000000000000000000600052604160045260246000fd5b90601f7fffffffffffffffffffffffffffffffffffffffffffffffffffffffffffffffe0910116810190811067ffffffffffffffff821117611b8b57604052565b611b93611b1a565b604052565b60209067ffffffffffffffff8111611bb2575b60051b0190565b611bba611b1a565b611bab565b81601f8201121561045157803591611bd683611b98565b92611be46040519485611b4a565b808452602092838086019260051b820101928311610451578301905b828210611c0e575050505090565b813573ffffffffffffffffffffffffffffffffffffffff81168103610451578152908301908301611c00565b50346104515760a07ffffffffffffffffffffffffffffffffffffffffffffffffffffffffffffffffc3601126104515760443567ffffffffffffffff811161045157611c8a903690600401611bbf565b6064359073ffffffffffffffffffffffffffffffffffffffff80831680930361045157600091611d07916010541690836040518096819582947f38ed17390000000000000000000000000000000000000000000000000000000084526004356004850152602435602485015260a0604485015260a48401906133c7565b906064830152608435608483015203925af18015611d42575b611d2657005b610019903d806000833e611d3a8183611b4a565b8101906145ec565b611d4a612d86565b611d20565b50346104515760407ffffffffffffffffffffffffffffffffffffffffffffffffffffffffffffffffc36011261045157610019611d8a610636565b60243590613ef9565b50346104515760007ffffffffffffffffffffffffffffffffffffffffffffffffffffffffffffffffc360112610451576020600e54604051908152f35b5034610451576000807ffffffffffffffffffffffffffffffffffffffffffffffffffffffffffffffffc3601126106335760405190806004549060019180831c92808216928315611ea8575b60209283861085146105fc5785885260208801949081156105c25750600114611e4f576105658761055981890382611b4a565b600460005294509192917f8a35acfbc15ff81a39ae7d344fd709f28e8600b4aa8c65c6b64bfe7fe36bd19b5b838610611e975750505091019050610559826105653880610549565b805485870152948201948101611e7b565b93607f1693611e1c565b50346104515760207ffffffffffffffffffffffffffffffffffffffffffffffffffffffffffffffffc360112610451576004356008548110156104515773ffffffffffffffffffffffffffffffffffffffff60209160086000527ff3f7a9fe364faab93b216da50a3214154f22a0a2b415b23a84c8169e8b636ee3015416604051908152f35b50346104515760407ffffffffffffffffffffffffffffffffffffffffffffffffffffffffffffffffc36011261045157611f70610636565b60243590336000526001602052611fab8160406000209073ffffffffffffffffffffffffffffffffffffffff16600052602052604060002090565b5491808310611fc0576109b792039033612bb5565b60846040517f08c379a000000000000000000000000000000000000000000000000000000000815260206004820152602560248201527f45524332303a2064656372656173656420616c6c6f77616e63652062656c6f7760448201527f207a65726f0000000000000000000000000000000000000000000000000000006064820152fd5b50346104515760207ffffffffffffffffffffffffffffffffffffffffffffffffffffffffffffffffc36011261045157600435600a548110156104515773ffffffffffffffffffffffffffffffffffffffff602091600a6000527fc65a7bb8d6351c1cf70c95a316cc6a92839c986682d98bc35f958f4883f9d2a8015416604051908152f35b50346104515760407ffffffffffffffffffffffffffffffffffffffffffffffffffffffffffffffffc360112610451576106c1612105610636565b6024359033612a2c565b50346104515760407ffffffffffffffffffffffffffffffffffffffffffffffffffffffffffffffffc3601126104515761001961214a610636565b612152610659565b604051917f70a0823100000000000000000000000000000000000000000000000000000000835230600484015260208360248173ffffffffffffffffffffffffffffffffffffffff85165afa9283156121d4575b6000936121b4575b5061381d565b6121cd91935060203d81116115985761158a8183611b4a565b91386121ae565b6121dc612d86565b6121a6565b50346104515760607ffffffffffffffffffffffffffffffffffffffffffffffffffffffffffffffffc36011261045157612219610659565b73ffffffffffffffffffffffffffffffffffffffff906044358281168103610451576040517fa9059cbb00000000000000000000000000000000000000000000000000000000815273ffffffffffffffffffffffffffffffffffffffff919091166004808301919091523560248201529160209183916044918391600091165af180156122ce575b6122a757005b6100199060203d81116122c7575b6122bf8183611b4a565b81019061352c565b503d6122b5565b6122d6612d86565b6122a1565b50346104515760007ffffffffffffffffffffffffffffffffffffffffffffffffffffffffffffffffc36011261045157602060405173c907e116054ad103354f2d350fd2514433d57f6f8152f35b50346104515760007ffffffffffffffffffffffffffffffffffffffffffffffffffffffffffffffffc360112610451576020604051732791bca1f2de4661ed88a30c99a7a9449aa841748152f35b50346104515760007ffffffffffffffffffffffffffffffffffffffffffffffffffffffffffffffffc360112610451576020604051731bfd67037b42cf73acf2047067bd4f2c47d9bfd68152f35b50346104515760207ffffffffffffffffffffffffffffffffffffffffffffffffffffffffffffffffc360112610451576040517f23b872dd000000000000000000000000000000000000000000000000000000008152336004808301919091523060248301523560448201819052906020816064816000732791bca1f2de4661ed88a30c99a7a9449aa841745af180156124f5575b6124d7575b50612468613976565b612470613a51565b612478613ac0565b612480613b2f565b91612498836124938461249385896128fe565b6128fe565b936124a2866137ab565b84156124bf5792610019959285926124b995613e40565b33613ef9565b5050505050806124d161001992613ec8565b33613885565b6124ee9060203d81116122c7576122bf8183611b4a565b503861245f565b6124fd612d86565b61245a565b50346104515760207ffffffffffffffffffffffffffffffffffffffffffffffffffffffffffffffffc36011261045157600435600c548110156104515773ffffffffffffffffffffffffffffffffffffffff602091600c6000527fdf6966c971051c3d54ec59162606531493a51404a002842f56009d7e5cf4a8c7015416604051908152f35b50346104515760207ffffffffffffffffffffffffffffffffffffffffffffffffffffffffffffffffc360112610451576004356007548110156104515773ffffffffffffffffffffffffffffffffffffffff60209160076000527fa66cc928b5edb82af9bd49922954155ab7b0942694bea4ce44661d9a8736c688015416604051908152f35b50346104515760007ffffffffffffffffffffffffffffffffffffffffffffffffffffffffffffffffc360112610451576020604051733d49406edd4d52fb7ffd25485f32e073b529c9248152f35b50346104515760407ffffffffffffffffffffffffffffffffffffffffffffffffffffffffffffffffc36011261045157610019612697610636565b73ffffffffffffffffffffffffffffffffffffffff6126b46131cb565b918251156126ff575b1660208201528051600110156126f2575b732791bca1f2de4661ed88a30c99a7a9449aa8417460408201523090602435614666565b6126fa610810565b6126ce565b612707610810565b6126bd565b50346104515760007ffffffffffffffffffffffffffffffffffffffffffffffffffffffffffffffffc36011261045157602060405173a5e0829caced8ffdd4de3c43696c57f7d7a678ff8152f35b50346104515760007ffffffffffffffffffffffffffffffffffffffffffffffffffffffffffffffffc360112610451576020600f54604051908152f35b50346104515760407ffffffffffffffffffffffffffffffffffffffffffffffffffffffffffffffffc3601126104515760206128246127d4610636565b73ffffffffffffffffffffffffffffffffffffffff6127f1610659565b91166000526001835260406000209073ffffffffffffffffffffffffffffffffffffffff16600052602052604060002090565b54604051908152f35b50346104515760007ffffffffffffffffffffffffffffffffffffffffffffffffffffffffffffffffc36011261045157602073ffffffffffffffffffffffffffffffffffffffff60105416604051908152f35b50346104515760007ffffffffffffffffffffffffffffffffffffffffffffffffffffffffffffffffc360112610451576020604051730d500b1d8e8ef31e21c99d1db9a6444d3adf12708152f35b507f4e487b7100000000000000000000000000000000000000000000000000000000600052601160045260246000fd5b8119811161290a570190565b6129126128ce565b0190565b1561291d57565b60846040517f08c379a000000000000000000000000000000000000000000000000000000000815260206004820152602360248201527f45524332303a207472616e7366657220746f20746865207a65726f206164647260448201527f65737300000000000000000000000000000000000000000000000000000000006064820152fd5b156129a857565b60846040517f08c379a000000000000000000000000000000000000000000000000000000000815260206004820152602660248201527f45524332303a207472616e7366657220616d6f756e742065786365656473206260448201527f616c616e636500000000000000000000000000000000000000000000000000006064820152fd5b919073ffffffffffffffffffffffffffffffffffffffff90818416928315612b3157612b0f827fddf252ad1be2c89b69c2b068fc378daa952ba7f163c4a11628f55a4df523b3ef94612b2c941696612a85881515612916565b612ae884612ab38373ffffffffffffffffffffffffffffffffffffffff166000526000602052604060002090565b54612ac0828210156129a1565b039173ffffffffffffffffffffffffffffffffffffffff166000526000602052604060002090565b5573ffffffffffffffffffffffffffffffffffffffff166000526000602052604060002090565b612b1a8282546128fe565b90556040519081529081906020820190565b0390a3565b60846040517f08c379a000000000000000000000000000000000000000000000000000000000815260206004820152602560248201527f45524332303a207472616e736665722066726f6d20746865207a65726f20616460448201527f64726573730000000000000000000000000000000000000000000000000000006064820152fd5b9073ffffffffffffffffffffffffffffffffffffffff91828116928315612cec578216938415612c685780612c577f8c5be1e5ebec7d5bd14f71427d1e84f3dd0314c0f7b2291e5b200ac8c7c3b92594612c32612b2c9573ffffffffffffffffffffffffffffffffffffffff166000526001602052604060002090565b9073ffffffffffffffffffffffffffffffffffffffff16600052602052604060002090565b556040519081529081906020820190565b60846040517f08c379a000000000000000000000000000000000000000000000000000000000815260206004820152602260248201527f45524332303a20617070726f766520746f20746865207a65726f20616464726560448201527f73730000000000000000000000000000000000000000000000000000000000006064820152fd5b60846040517f08c379a0000000000000000000000000000000000000000000000000000000008152602060048201526024808201527f45524332303a20617070726f76652066726f6d20746865207a65726f2061646460448201527f72657373000000000000000000000000000000000000000000000000000000006064820152fd5b519069ffffffffffffffffffff8216820361045157565b506040513d6000823e3d90fd5b60a073ffffffffffffffffffffffffffffffffffffffff916004604051809481937ffeaf968c000000000000000000000000000000000000000000000000000000008352165afa908115612e36575b600091612ded575090565b9060a0823d8211612e2e575b81612e0660a09383611b4a565b810103126106335750612e1881612d6f565b50612e2a608060208301519201612d6f565b5090565b3d9150612df9565b612e3e612d86565b612de2565b60405190610100820182811067ffffffffffffffff821117612e95575b604052816060815260e06000918260208201528260408201528260608201528260808201528260a08201528260c08201520152565b612e9d611b1a565b612e60565b6040519060a0820182811067ffffffffffffffff821117612eec575b604052600482528160005b60808110612ed5575050565b602090612ee0612e43565b82828501015201612ec9565b612ef4611b1a565b612ebe565b602090805115612f07570190565b612912610810565b604090805160011015612f07570190565b606090805160021015612f07570190565b608090805160031015612f07570190565b6020918151811015612f57575b60051b010190565b612f5f610810565b612f4f565b60ff6001911660ff811461290a570190565b90816020910312610451575190565b90816020910312610451575160ff811681036104515790565b80601210612fad575b60120390565b612fb56128ce565b612fa7565b7fffffffffffffffffffffffffffffffffffffffffffffffffffffffffffffffff906001811061290a570190565b818110612ff3570390565b612ffb6128ce565b0390565b606490807fffffffffffffffffffffffffffffffffffffffffffffffffffffffffffffffff04821181151516613033570290565b61303b6128ce565b0290565b7f7fffffffffffffffffffffffffffffffffffffffffffffffffffffffffffffff8111600116613070575b60011b90565b6130786128ce565b61306a565b807fffffffffffffffffffffffffffffffffffffffffffffffffffffffffffffffff04821181151516613033570290565b604d81116130bd575b600a0a90565b6130c56128ce565b6130b7565b507f4e487b7100000000000000000000000000000000000000000000000000000000600052601260045260246000fd5b8115613104570490565b61310c6130ca565b0490565b60008212827f800000000000000000000000000000000000000000000000000000000000000001821281151661316f575b827f7fffffffffffffffffffffffffffffffffffffffffffffffffffffffffffffff01821316612ff3570390565b6131776128ce565b613141565b9061318682611b98565b6131936040519182611b4a565b8281527fffffffffffffffffffffffffffffffffffffffffffffffffffffffffffffffe06131c18294611b98565b0190602036910137565b604051906060820182811067ffffffffffffffff8211176131f9575b60405260028252604082602036910137565b613201611b1a565b6131e7565b604051906080820182811067ffffffffffffffff821117613233575b604052600382526060366020840137565b61323b611b1a565b613222565b60008112817f7fffffffffffffffffffffffffffffffffffffffffffffffffffffffffffffff03831381151661329f575b817f80000000000000000000000000000000000000000000000000000000000000000383121661290a570190565b6132a76128ce565b613271565b6305f5e1009060017c15798ee2308c39df9fb841a566d74f87a7a9a7aeb02c2d2f8e0d1e768d8211600083131616613312575b60017fffffffea86711dcf73c6206047be5a9928b078585658514fd3d2d071f2e189738212600083121616613033570290565b61331a6128ce565b6132df565b8115613381575b7fffffffffffffffffffffffffffffffffffffffffffffffffffffffffffffffff82147f8000000000000000000000000000000000000000000000000000000000000000821416613375570590565b61337d6128ce565b0590565b6133896130ca565b613326565b6101fe90607f60ff8216116001166133a8575b60011b1690565b6133b06128ce565b6133a1565b60ff6001911660fe811161290a570190565b90815180825260208080930193019160005b8281106133e7575050505090565b835173ffffffffffffffffffffffffffffffffffffffff16855293810193928101926001016133d9565b90613424906040835260408301906133c7565b81810360209283015282518082529082019282019160005b82811061344a575050505090565b83518552938101939281019260010161343c565b91906040838203126104515767ffffffffffffffff9280358481116104515782613489918301611bbf565b936020918281013591821161045157019180601f840112156104515782356134b081611b98565b936134be6040519586611b4a565b818552838086019260051b820101928311610451578301905b8282106134e5575050505090565b813581529083019083016134d7565b6000808212613501575090565b7f80000000000000000000000000000000000000000000000000000000000000008214612ff3570390565b90816020910312610451575180151581036104515790565b604051907f095ea7b300000000000000000000000000000000000000000000000000000000825273a5e0829caced8ffdd4de3c43696c57f7d7a678ff600483015260248201526020816044816000730d500b1d8e8ef31e21c99d1db9a6444d3adf12705af180156135d1575b6135b75750565b6135ce9060203d81116122c7576122bf8183611b4a565b50565b6135d9612d86565b6135b0565b604051907f095ea7b300000000000000000000000000000000000000000000000000000000825273a5e0829caced8ffdd4de3c43696c57f7d7a678ff60048301526024820152602081604481600073bbba073c31bf03b8acf7c28ef0738decf36956835af180156135d1576135b75750565b604051907f095ea7b300000000000000000000000000000000000000000000000000000000825273a5e0829caced8ffdd4de3c43696c57f7d7a678ff600483015260248201526020816044816000737ceb23fd6bc0add59e62ac25578270cff1b9f6195af180156135d1576135b75750565b604051907f095ea7b300000000000000000000000000000000000000000000000000000000825273a5e0829caced8ffdd4de3c43696c57f7d7a678ff600483015260248201526020816044816000731bfd67037b42cf73acf2047067bd4f2c47d9bfd65af180156135d1576135b75750565b602090604473ffffffffffffffffffffffffffffffffffffffff93600060405195869485937f095ea7b300000000000000000000000000000000000000000000000000000000855273a5e0829caced8ffdd4de3c43696c57f7d7a678ff60048601526024850152165af180156135d1576135b75750565b604051907f095ea7b300000000000000000000000000000000000000000000000000000000825273a5e0829caced8ffdd4de3c43696c57f7d7a678ff600483015260248201526020816044816000732791bca1f2de4661ed88a30c99a7a9449aa841745af180156135d1576135b75750565b6040517f095ea7b300000000000000000000000000000000000000000000000000000000815273ffffffffffffffffffffffffffffffffffffffff9283166004820152602481019390935260209183916044918391600091165af180156135d1576135b75750565b73ffffffffffffffffffffffffffffffffffffffff8116918215613918576020816139026000946138d97fddf252ad1be2c89b69c2b068fc378daa952ba7f163c4a11628f55a4df523b3ef956002546128fe565b60025573ffffffffffffffffffffffffffffffffffffffff166000526000602052604060002090565b61390d8282546128fe565b9055604051908152a3565b60646040517f08c379a000000000000000000000000000000000000000000000000000000000815260206004820152601f60248201527f45524332303a206d696e7420746f20746865207a65726f2061646472657373006044820152fd5b61397f30614330565b6040517ffeaf968c00000000000000000000000000000000000000000000000000000000815260a08160048173ab594600376ec9fd91f8e885dadf0ce036862de05afa908115613a44575b6000916139e7575b5061310c9068056bc75e2d631000009261307d565b9060a0823d8211613a3c575b81613a0060a09383611b4a565b81010312610633575068056bc75e2d631000009181613a2161310c93612d6f565b50613a33608060208301519201612d6f565b509150916139d2565b3d91506139f3565b613a4c612d86565b6139ca565b613a5a306143c7565b6040517ffeaf968c00000000000000000000000000000000000000000000000000000000815260a081600481733d49406edd4d52fb7ffd25485f32e073b529c9245afa908115613a44576000916139e7575061310c9068056bc75e2d631000009261307d565b613ac930614438565b6040517ffeaf968c00000000000000000000000000000000000000000000000000000000815260a08160048173f9680d99d6c9589e2a93a78a04a279e5092059455afa908115613a44576000916139e7575061310c9068056bc75e2d631000009261307d565b613b38306144a9565b6040517ffeaf968c00000000000000000000000000000000000000000000000000000000815260a08160048173c907e116054ad103354f2d350fd2514433d57f6f5afa908115613bf5575b600091613b9c575b5061310c906402540be4009261307d565b9060a0823d8211613bed575b81613bb560a09383611b4a565b8101031261063357506402540be4009181613bd261310c93612d6f565b50613be4608060208301519201612d6f565b50915091613b8b565b3d9150613ba8565b613bfd612d86565b613b83565b6104d6613c0d613976565b612493613c18613a51565b612493613c23613ac0565b91613c2c613b2f565b946128fe565b60405190600554808352826020918282019060056000527f036b6384b5eca791c62761152d0c79bb0604c104a5fb6f4eb0703f3154bb3db0936000905b828210613c8757505050613c8592500383611b4a565b565b855473ffffffffffffffffffffffffffffffffffffffff1684526001958601958895509381019390910190613c6f565b60405190600654808352826020918282019060066000527ff652222313e28459528d920b65115c16c04f3efc82aaedc97be59f3f377c0d3f936000905b828210613d0a57505050613c8592500383611b4a565b855473ffffffffffffffffffffffffffffffffffffffff1684526001958601958895509381019390910190613cf4565b60405190600754808352826020918282019060076000527fa66cc928b5edb82af9bd49922954155ab7b0942694bea4ce44661d9a8736c688936000905b828210613d8d57505050613c8592500383611b4a565b855473ffffffffffffffffffffffffffffffffffffffff1684526001958601958895509381019390910190613d77565b60405190600854808352826020918282019060086000527ff3f7a9fe364faab93b216da50a3214154f22a0a2b415b23a84c8169e8b636ee3936000905b828210613e1057505050613c8592500383611b4a565b855473ffffffffffffffffffffffffffffffffffffffff1684526001958601958895509381019390910190613dfa565b91613e978580613e848982613e7d82613ea7999c613e76613c859f613e6a613eb19f9e829061307d565b9f8315613ebb5761307d565b049861307d565b049761307d565b04963091613e90613c32565b9104614666565b3090613ea1613cb7565b90614666565b3090613ea1613d3a565b3090613ea1613dbd565b613ec36130ca565b61307d565b613c859060021c613ee130613edb613c32565b83614666565b613eed30613edb613cb7565b613eb130613edb613d3a565b613c8591613f1b613f08613c02565b828110613f36575b82600254910361307d565b8115613f29575b0490613885565b613f316130ca565b613f22565b613f3e6128ce565b613f10565b73ffffffffffffffffffffffffffffffffffffffff811690811561409157613f8b8173ffffffffffffffffffffffffffffffffffffffff166000526000602052604060002090565b5483811061400d57837fddf252ad1be2c89b69c2b068fc378daa952ba7f163c4a11628f55a4df523b3ef92613fe8600096612b2c94039173ffffffffffffffffffffffffffffffffffffffff166000526000602052604060002090565b55613ffd613ff882600254612fe8565b600255565b6040519081529081906020820190565b60846040517f08c379a000000000000000000000000000000000000000000000000000000000815260206004820152602260248201527f45524332303a206275726e20616d6f756e7420657863656564732062616c616e60448201527f63650000000000000000000000000000000000000000000000000000000000006064820152fd5b60846040517f08c379a000000000000000000000000000000000000000000000000000000000815260206004820152602160248201527f45524332303a206275726e2066726f6d20746865207a65726f2061646472657360448201527f73000000000000000000000000000000000000000000000000000000000000006064820152fd5b6040517fa9059cbb00000000000000000000000000000000000000000000000000000000815273ffffffffffffffffffffffffffffffffffffffff92909216600483015260248201526020816044816000732791bca1f2de4661ed88a30c99a7a9449aa841745af180156135d1576135b75750565b613c85906141966131cb565b8051156141f1575b730d500b1d8e8ef31e21c99d1db9a6444d3adf127060208201528051600110156141e4575b732791bca1f2de4661ed88a30c99a7a9449aa8417460408201523091614666565b6141ec610810565b6141c3565b6141f9610810565b61419e565b613c859061420a6131cb565b805115614257575b73bbba073c31bf03b8acf7c28ef0738decf369568360208201528051600110156141e457732791bca1f2de4661ed88a30c99a7a9449aa8417460408201523091614666565b61425f610810565b614212565b613c85906142706131cb565b8051156142bd575b737ceb23fd6bc0add59e62ac25578270cff1b9f61960208201528051600110156141e457732791bca1f2de4661ed88a30c99a7a9449aa8417460408201523091614666565b6142c5610810565b614278565b613c85906142d66131cb565b805115614323575b731bfd67037b42cf73acf2047067bd4f2c47d9bfd660208201528051600110156141e457732791bca1f2de4661ed88a30c99a7a9449aa8417460408201523091614666565b61432b610810565b6142de565b73ffffffffffffffffffffffffffffffffffffffff604051917f70a08231000000000000000000000000000000000000000000000000000000008352166004820152602081602481730d500b1d8e8ef31e21c99d1db9a6444d3adf12705afa9081156143ba575b6000916143a2575090565b6104d6915060203d81116115985761158a8183611b4a565b6143c2612d86565b614397565b73ffffffffffffffffffffffffffffffffffffffff604051917f70a0823100000000000000000000000000000000000000000000000000000000835216600482015260208160248173bbba073c31bf03b8acf7c28ef0738decf36956835afa9081156143ba576000916143a2575090565b73ffffffffffffffffffffffffffffffffffffffff604051917f70a08231000000000000000000000000000000000000000000000000000000008352166004820152602081602481737ceb23fd6bc0add59e62ac25578270cff1b9f6195afa9081156143ba576000916143a2575090565b73ffffffffffffffffffffffffffffffffffffffff604051917f70a08231000000000000000000000000000000000000000000000000000000008352166004820152602081602481731bfd67037b42cf73acf2047067bd4f2c47d9bfd65afa9081156143ba576000916143a2575090565b73ffffffffffffffffffffffffffffffffffffffff604051917f70a08231000000000000000000000000000000000000000000000000000000008352166004820152602081602481732791bca1f2de4661ed88a30c99a7a9449aa841745afa9081156143ba576000916143a2575090565b6020906024604051809481937f70a0823100000000000000000000000000000000000000000000000000000000835273ffffffffffffffffffffffffffffffffffffffff8092166004840152165afa9081156143ba576000916143a2575090565b60209081818403126104515780519067ffffffffffffffff821161045157019180601f8401121561045157825161462281611b98565b936146306040519586611b4a565b818552838086019260051b820101928311610451578301905b828210614657575050505090565b81518152908301908301614649565b916146d4906000928373ffffffffffffffffffffffffffffffffffffffff95866010541693604051978896879586947f38ed1739000000000000000000000000000000000000000000000000000000008652600486015285602486015260a0604486015260a48501906133c7565b9116606483015264174876e7ff608483015203925af1801561470c575b6146f85750565b6135ce903d806000833e611d3a8183611b4a565b614714612d86565b6146f156fea26469706673582212202a767ecd7871434bd23f1110cdc650193d1cf45f7976b9599e6879aa5327536a64736f6c634300080d00330000000000000000000000002791bca1f2de4661ed88a30c99a7a9449aa84174",
  "linkReferences": {},
  "deployedLinkReferences": {}
}