{
  "_format": "hh-sol-artifact-1",
  "contractName": "autoBalancer",
  "sourceName": "contracts/autoBalancer.sol",
  "abi": [
    {
      "inputs": [],
      "stateMutability": "nonpayable",
      "type": "constructor"
    },
    {
      "anonymous": false,
      "inputs": [
        {
          "indexed": true,
          "internalType": "address",
          "name": "owner",
          "type": "address"
        },
        {
          "indexed": true,
          "internalType": "address",
          "name": "spender",
          "type": "address"
        },
        {
          "indexed": false,
          "internalType": "uint256",
          "name": "value",
          "type": "uint256"
        }
      ],
      "name": "Approval",
      "type": "event"
    },
    {
      "anonymous": false,
      "inputs": [
        {
          "indexed": true,
          "internalType": "address",
          "name": "from",
          "type": "address"
        },
        {
          "indexed": true,
          "internalType": "address",
          "name": "to",
          "type": "address"
        },
        {
          "indexed": false,
          "internalType": "uint256",
          "name": "value",
          "type": "uint256"
        }
      ],
      "name": "Transfer",
      "type": "event"
    },
    {
      "inputs": [],
      "name": "BTC_USD_ORACLE",
      "outputs": [
        {
          "internalType": "address",
          "name": "",
          "type": "address"
        }
      ],
      "stateMutability": "view",
      "type": "function"
    },
    {
      "inputs": [],
      "name": "ETH_USD_ORACLE",
      "outputs": [
        {
          "internalType": "address",
          "name": "",
          "type": "address"
        }
      ],
      "stateMutability": "view",
      "type": "function"
    },
    {
      "inputs": [],
      "name": "MATIC_USD_ORACLE",
      "outputs": [
        {
          "internalType": "address",
          "name": "",
          "type": "address"
        }
      ],
      "stateMutability": "view",
      "type": "function"
    },
    {
      "inputs": [],
      "name": "QUICKSWAP_ROUTER",
      "outputs": [
        {
          "internalType": "address",
          "name": "",
          "type": "address"
        }
      ],
      "stateMutability": "view",
      "type": "function"
    },
    {
      "inputs": [
        {
          "internalType": "uint256",
          "name": "",
          "type": "uint256"
        }
      ],
      "name": "SANDToUSDCPath",
      "outputs": [
        {
          "internalType": "address",
          "name": "",
          "type": "address"
        }
      ],
      "stateMutability": "view",
      "type": "function"
    },
    {
      "inputs": [],
      "name": "SAND_ADDRESS",
      "outputs": [
        {
          "internalType": "address",
          "name": "",
          "type": "address"
        }
      ],
      "stateMutability": "view",
      "type": "function"
    },
    {
      "inputs": [],
      "name": "SAND_USD_ORACLE",
      "outputs": [
        {
          "internalType": "address",
          "name": "",
          "type": "address"
        }
      ],
      "stateMutability": "view",
      "type": "function"
    },
    {
      "inputs": [
        {
          "internalType": "uint256",
          "name": "",
          "type": "uint256"
        }
      ],
      "name": "USDCToSANDPath",
      "outputs": [
        {
          "internalType": "address",
          "name": "",
          "type": "address"
        }
      ],
      "stateMutability": "view",
      "type": "function"
    },
    {
      "inputs": [
        {
          "internalType": "uint256",
          "name": "",
          "type": "uint256"
        }
      ],
      "name": "USDCToWBTCPath",
      "outputs": [
        {
          "internalType": "address",
          "name": "",
          "type": "address"
        }
      ],
      "stateMutability": "view",
      "type": "function"
    },
    {
      "inputs": [
        {
          "internalType": "uint256",
          "name": "",
          "type": "uint256"
        }
      ],
      "name": "USDCToWETHPath",
      "outputs": [
        {
          "internalType": "address",
          "name": "",
          "type": "address"
        }
      ],
      "stateMutability": "view",
      "type": "function"
    },
    {
      "inputs": [
        {
          "internalType": "uint256",
          "name": "",
          "type": "uint256"
        }
      ],
      "name": "USDCToWMATICPath",
      "outputs": [
        {
          "internalType": "address",
          "name": "",
          "type": "address"
        }
      ],
      "stateMutability": "view",
      "type": "function"
    },
    {
      "inputs": [],
      "name": "USDC_ADDRESS",
      "outputs": [
        {
          "internalType": "address",
          "name": "",
          "type": "address"
        }
      ],
      "stateMutability": "view",
      "type": "function"
    },
    {
      "inputs": [
        {
          "internalType": "uint256",
          "name": "",
          "type": "uint256"
        }
      ],
      "name": "WBTCToUSDCPath",
      "outputs": [
        {
          "internalType": "address",
          "name": "",
          "type": "address"
        }
      ],
      "stateMutability": "view",
      "type": "function"
    },
    {
      "inputs": [],
      "name": "WBTC_ADDRESS",
      "outputs": [
        {
          "internalType": "address",
          "name": "",
          "type": "address"
        }
      ],
      "stateMutability": "view",
      "type": "function"
    },
    {
      "inputs": [
        {
          "internalType": "uint256",
          "name": "",
          "type": "uint256"
        }
      ],
      "name": "WETHToUSDCPath",
      "outputs": [
        {
          "internalType": "address",
          "name": "",
          "type": "address"
        }
      ],
      "stateMutability": "view",
      "type": "function"
    },
    {
      "inputs": [],
      "name": "WETH_ADDRESS",
      "outputs": [
        {
          "internalType": "address",
          "name": "",
          "type": "address"
        }
      ],
      "stateMutability": "view",
      "type": "function"
    },
    {
      "inputs": [
        {
          "internalType": "uint256",
          "name": "",
          "type": "uint256"
        }
      ],
      "name": "WMATICToUSDCPath",
      "outputs": [
        {
          "internalType": "address",
          "name": "",
          "type": "address"
        }
      ],
      "stateMutability": "view",
      "type": "function"
    },
    {
      "inputs": [],
      "name": "WMATIC_ADDRESS",
      "outputs": [
        {
          "internalType": "address",
          "name": "",
          "type": "address"
        }
      ],
      "stateMutability": "view",
      "type": "function"
    },
    {
      "inputs": [
        {
          "internalType": "address",
          "name": "owner",
          "type": "address"
        },
        {
          "internalType": "address",
          "name": "spender",
          "type": "address"
        }
      ],
      "name": "allowance",
      "outputs": [
        {
          "internalType": "uint256",
          "name": "",
          "type": "uint256"
        }
      ],
      "stateMutability": "view",
      "type": "function"
    },
    {
      "inputs": [
        {
          "internalType": "address",
          "name": "spender",
          "type": "address"
        },
        {
          "internalType": "uint256",
          "name": "amount",
          "type": "uint256"
        }
      ],
      "name": "approve",
      "outputs": [
        {
          "internalType": "bool",
          "name": "",
          "type": "bool"
        }
      ],
      "stateMutability": "nonpayable",
      "type": "function"
    },
    {
      "inputs": [
        {
          "internalType": "address",
          "name": "_token",
          "type": "address"
        },
        {
          "internalType": "address",
          "name": "_spender",
          "type": "address"
        }
      ],
      "name": "approveSpendingWholeBalance",
      "outputs": [],
      "stateMutability": "nonpayable",
      "type": "function"
    },
    {
      "inputs": [
        {
          "internalType": "address",
          "name": "token_address",
          "type": "address"
        },
        {
          "internalType": "address",
          "name": "spender_address",
          "type": "address"
        },
        {
          "internalType": "uint256",
          "name": "amount_to_approve",
          "type": "uint256"
        }
      ],
      "name": "approve_spending",
      "outputs": [],
      "stateMutability": "nonpayable",
      "type": "function"
    },
    {
      "inputs": [
        {
          "internalType": "address",
          "name": "account",
          "type": "address"
        }
      ],
      "name": "balanceOf",
      "outputs": [
        {
          "internalType": "uint256",
          "name": "",
          "type": "uint256"
        }
      ],
      "stateMutability": "view",
      "type": "function"
    },
    {
      "inputs": [
        {
          "internalType": "bytes",
          "name": "",
          "type": "bytes"
        }
      ],
      "name": "checkUpkeep",
      "outputs": [
        {
          "internalType": "bool",
          "name": "upkeepNeeded",
          "type": "bool"
        },
        {
          "internalType": "bytes",
          "name": "performData",
          "type": "bytes"
        }
      ],
      "stateMutability": "view",
      "type": "function"
    },
    {
      "inputs": [],
      "name": "decimals",
      "outputs": [
        {
          "internalType": "uint8",
          "name": "",
          "type": "uint8"
        }
      ],
      "stateMutability": "view",
      "type": "function"
    },
    {
      "inputs": [
        {
          "internalType": "address",
          "name": "spender",
          "type": "address"
        },
        {
          "internalType": "uint256",
          "name": "subtractedValue",
          "type": "uint256"
        }
      ],
      "name": "decreaseAllowance",
      "outputs": [
        {
          "internalType": "bool",
          "name": "",
          "type": "bool"
        }
      ],
      "stateMutability": "nonpayable",
      "type": "function"
    },
    {
      "inputs": [
        {
          "internalType": "uint256",
          "name": "amount_",
          "type": "uint256"
        }
      ],
      "name": "depositUserFunds",
      "outputs": [],
      "stateMutability": "nonpayable",
      "type": "function"
    },
    {
      "inputs": [
        {
          "internalType": "address",
          "name": "_oracle_address",
          "type": "address"
        }
      ],
      "name": "getLatestPrice",
      "outputs": [
        {
          "internalType": "int256",
          "name": "",
          "type": "int256"
        }
      ],
      "stateMutability": "view",
      "type": "function"
    },
    {
      "inputs": [],
      "name": "getUSDPortfolioTotal",
      "outputs": [
        {
          "internalType": "uint256",
          "name": "Total_in_USD",
          "type": "uint256"
        }
      ],
      "stateMutability": "view",
      "type": "function"
    },
    {
      "inputs": [
        {
          "internalType": "address",
          "name": "token_address",
          "type": "address"
        },
        {
          "internalType": "address",
          "name": "oracle_address",
          "type": "address"
        },
        {
          "internalType": "uint256",
          "name": "token_decimals",
          "type": "uint256"
        }
      ],
      "name": "getUSDTokenBalanceOf",
      "outputs": [
        {
          "internalType": "uint256",
          "name": "",
          "type": "uint256"
        }
      ],
      "stateMutability": "view",
      "type": "function"
    },
    {
      "inputs": [
        {
          "internalType": "address",
          "name": "spender",
          "type": "address"
        },
        {
          "internalType": "uint256",
          "name": "addedValue",
          "type": "uint256"
        }
      ],
      "name": "increaseAllowance",
      "outputs": [
        {
          "internalType": "bool",
          "name": "",
          "type": "bool"
        }
      ],
      "stateMutability": "nonpayable",
      "type": "function"
    },
    {
      "inputs": [],
      "name": "interval",
      "outputs": [
        {
          "internalType": "uint256",
          "name": "",
          "type": "uint256"
        }
      ],
      "stateMutability": "view",
      "type": "function"
    },
    {
      "inputs": [],
      "name": "lastTimeStamp",
      "outputs": [
        {
          "internalType": "uint256",
          "name": "",
          "type": "uint256"
        }
      ],
      "stateMutability": "view",
      "type": "function"
    },
    {
      "inputs": [
        {
          "internalType": "address",
          "name": "user",
          "type": "address"
        },
        {
          "internalType": "uint256",
          "name": "portfolio_value_usd",
          "type": "uint256"
        },
        {
          "internalType": "uint256",
          "name": "portfolio_increase_usd",
          "type": "uint256"
        }
      ],
      "name": "mintOnDeposit",
      "outputs": [],
      "stateMutability": "nonpayable",
      "type": "function"
    },
    {
      "inputs": [],
      "name": "name",
      "outputs": [
        {
          "internalType": "string",
          "name": "",
          "type": "string"
        }
      ],
      "stateMutability": "view",
      "type": "function"
    },
    {
      "inputs": [
        {
          "internalType": "bytes",
          "name": "performData",
          "type": "bytes"
        }
      ],
      "name": "performUpkeep",
      "outputs": [],
      "stateMutability": "nonpayable",
      "type": "function"
    },
    {
      "inputs": [],
      "name": "quickSwapRouter",
      "outputs": [
        {
          "internalType": "contract IUniswapV2Router02",
          "name": "",
          "type": "address"
        }
      ],
      "stateMutability": "view",
      "type": "function"
    },
    {
      "inputs": [
        {
          "internalType": "uint256",
          "name": "new_interval",
          "type": "uint256"
        }
      ],
      "name": "setInterval",
      "outputs": [],
      "stateMutability": "nonpayable",
      "type": "function"
    },
    {
      "inputs": [
        {
          "internalType": "uint256",
          "name": "_amountIn",
          "type": "uint256"
        },
        {
          "internalType": "uint256",
          "name": "_amountOutMin",
          "type": "uint256"
        },
        {
          "internalType": "address[]",
          "name": "_path",
          "type": "address[]"
        },
        {
          "internalType": "address",
          "name": "_acct",
          "type": "address"
        },
        {
          "internalType": "uint256",
          "name": "_deadline",
          "type": "uint256"
        }
      ],
      "name": "swap",
      "outputs": [],
      "stateMutability": "nonpayable",
      "type": "function"
    },
    {
      "inputs": [
        {
          "internalType": "address",
          "name": "_token",
          "type": "address"
        },
        {
          "internalType": "uint256",
          "name": "_amount",
          "type": "uint256"
        }
      ],
      "name": "swapBackToUSDC",
      "outputs": [],
      "stateMutability": "nonpayable",
      "type": "function"
    },
    {
      "inputs": [
        {
          "internalType": "uint256",
          "name": "amount",
          "type": "uint256"
        }
      ],
      "name": "swapIntoFourEqualParts",
      "outputs": [],
      "stateMutability": "nonpayable",
      "type": "function"
    },
    {
      "inputs": [
        {
          "internalType": "uint256",
          "name": "WMATIC_amount",
          "type": "uint256"
        },
        {
          "internalType": "uint256",
          "name": "SAND_amount",
          "type": "uint256"
        },
        {
          "internalType": "uint256",
          "name": "WETH_amount",
          "type": "uint256"
        },
        {
          "internalType": "uint256",
          "name": "WBTC_amount",
          "type": "uint256"
        },
        {
          "internalType": "uint256",
          "name": "totalUSDAmount",
          "type": "uint256"
        },
        {
          "internalType": "uint256",
          "name": "depositAmount",
          "type": "uint256"
        }
      ],
      "name": "swapProportionately",
      "outputs": [],
      "stateMutability": "nonpayable",
      "type": "function"
    },
    {
      "inputs": [],
      "name": "symbol",
      "outputs": [
        {
          "internalType": "string",
          "name": "",
          "type": "string"
        }
      ],
      "stateMutability": "view",
      "type": "function"
    },
    {
      "inputs": [
        {
          "internalType": "address",
          "name": "token_address",
          "type": "address"
        },
        {
          "internalType": "address",
          "name": "user_address",
          "type": "address"
        }
      ],
      "name": "tokenBalanceOf",
      "outputs": [
        {
          "internalType": "uint256",
          "name": "token_balance",
          "type": "uint256"
        }
      ],
      "stateMutability": "view",
      "type": "function"
    },
    {
      "inputs": [],
      "name": "totalSupply",
      "outputs": [
        {
          "internalType": "uint256",
          "name": "",
          "type": "uint256"
        }
      ],
      "stateMutability": "view",
      "type": "function"
    },
    {
      "inputs": [
        {
          "internalType": "address",
          "name": "to",
          "type": "address"
        },
        {
          "internalType": "uint256",
          "name": "amount",
          "type": "uint256"
        }
      ],
      "name": "transfer",
      "outputs": [
        {
          "internalType": "bool",
          "name": "",
          "type": "bool"
        }
      ],
      "stateMutability": "nonpayable",
      "type": "function"
    },
    {
      "inputs": [
        {
          "internalType": "address",
          "name": "from",
          "type": "address"
        },
        {
          "internalType": "address",
          "name": "to",
          "type": "address"
        },
        {
          "internalType": "uint256",
          "name": "amount",
          "type": "uint256"
        }
      ],
      "name": "transferFrom",
      "outputs": [
        {
          "internalType": "bool",
          "name": "",
          "type": "bool"
        }
      ],
      "stateMutability": "nonpayable",
      "type": "function"
    },
    {
      "inputs": [
        {
          "internalType": "uint256",
          "name": "amount_",
          "type": "uint256"
        },
        {
          "internalType": "address",
          "name": "token_address",
          "type": "address"
        },
        {
          "internalType": "address",
          "name": "address_to",
          "type": "address"
        }
      ],
      "name": "withdraw",
      "outputs": [],
      "stateMutability": "nonpayable",
      "type": "function"
    },
    {
      "inputs": [
        {
          "internalType": "address",
          "name": "user",
          "type": "address"
        }
      ],
      "name": "withdrawUserFunds",
      "outputs": [],
      "stateMutability": "nonpayable",
      "type": "function"
    },
    {
      "stateMutability": "payable",
      "type": "receive"
    }
  ],
  "bytecode": "0x60806040523462000274576200002962000018620002bf565b62000022620002e5565b90620009ee565b620002326200003762000290565b600080516020620051ba83398151915281526200007660209162000070838201730d500b1d8e8ef31e21c99d1db9a6444d3adf12709052565b6200031b565b620000b56200008462000290565b600080516020620051ba833981519152815273bbba073c31bf03b8acf7c28ef0738decf369568381840152620003bc565b620000f4620000c362000290565b600080516020620051ba8339815191528152737ceb23fd6bc0add59e62ac25578270cff1b9f619818401526200045d565b620001336200010262000290565b600080516020620051ba8339815191528152731bfd67037b42cf73acf2047067bd4f2c47d9bfd681840152620004fe565b620001726200014162000290565b730d500b1d8e8ef31e21c99d1db9a6444d3adf12708152600080516020620051ba833981519152818401526200059f565b620001b16200018062000290565b73bbba073c31bf03b8acf7c28ef0738decf36956838152600080516020620051ba8339815191528184015262000640565b620001f0620001bf62000290565b737ceb23fd6bc0add59e62ac25578270cff1b9f6198152600080516020620051ba83398151915281840152620006e1565b6200022c620001fe62000290565b731bfd67037b42cf73acf2047067bd4f2c47d9bfd68152918201600080516020620051ba8339815191529052565b62000782565b6200023e610e10600e55565b600f80546001600160a01b03191673a5e0829caced8ffdd4de3c43696c57f7d7a678ff1790556040516146b2908162000b088239f35b600080fd5b50634e487b7160e01b600052604160045260246000fd5b60408051919082016001600160401b03811183821017620002b057604052565b620002ba62000279565b604052565b620002c962000290565b90600c82526b30baba37a130b630b731b2b960a11b6020830152565b620002ef62000290565b90600382526241424160e81b6020830152565b8181106200030e575050565b6000815560010162000302565b60055490600291826005558083106200037e575b5060056000526020806000206000925b8484106200034e575050505050565b805182546001600160a01b0319166001600160a01b0391909116178255600193840193919091019082016200033f565b6005600052620003b5907f036b6384b5eca791c62761152d0c79bb0604c104a5fb6f4eb0703f3154bb3db090810190840162000302565b386200032f565b60065490600291826006558083106200041f575b5060066000526020806000206000925b848410620003ef575050505050565b805182546001600160a01b0319166001600160a01b039190911617825560019384019391909101908201620003e0565b600660005262000456907ff652222313e28459528d920b65115c16c04f3efc82aaedc97be59f3f377c0d3f90810190840162000302565b38620003d0565b6007549060029182600755808310620004c0575b5060076000526020806000206000925b84841062000490575050505050565b805182546001600160a01b0319166001600160a01b03919091161782556001938401939190910190820162000481565b6007600052620004f7907fa66cc928b5edb82af9bd49922954155ab7b0942694bea4ce44661d9a8736c68890810190840162000302565b3862000471565b600854906002918260085580831062000561575b5060086000526020806000206000925b84841062000531575050505050565b805182546001600160a01b0319166001600160a01b03919091161782556001938401939190910190820162000522565b600860005262000598907ff3f7a9fe364faab93b216da50a3214154f22a0a2b415b23a84c8169e8b636ee390810190840162000302565b3862000512565b600954906002918260095580831062000602575b5060096000526020806000206000925b848410620005d2575050505050565b805182546001600160a01b0319166001600160a01b039190911617825560019384019391909101908201620005c3565b600960005262000639907f6e1540171b6c0c960b71a7020d9f60077f6af931a8bbf590da0223dacf75c7af90810190840162000302565b38620005b3565b600a549060029182600a55808310620006a3575b50600a6000526020806000206000925b84841062000673575050505050565b805182546001600160a01b0319166001600160a01b03919091161782556001938401939190910190820162000664565b600a600052620006da907fc65a7bb8d6351c1cf70c95a316cc6a92839c986682d98bc35f958f4883f9d2a890810190840162000302565b3862000654565b600b549060029182600b5580831062000744575b50600b6000526020806000206000925b84841062000714575050505050565b805182546001600160a01b0319166001600160a01b03919091161782556001938401939190910190820162000705565b600b6000526200077b907f0175b7a638427703f0dbe7bb9bbf987a2551717b34e79f33b5b1008d1fa01db990810190840162000302565b38620006f5565b600c549060029182600c55808310620007e5575b50600c6000526020806000206000925b848410620007b5575050505050565b805182546001600160a01b0319166001600160a01b039190911617825560019384019391909101908201620007a6565b600c6000526200081c907fdf6966c971051c3d54ec59162606531493a51404a002842f56009d7e5cf4a8c790810190840162000302565b3862000796565b90600182811c9216801562000855575b60208310146200083f57565b634e487b7160e01b600052602260045260246000fd5b91607f169162000833565b90601f82116200086e575050565b6200089f9160036000526020600020906020601f840160051c83019310620008a1575b601f0160051c019062000302565b565b909150819062000891565b90601f8211620008ba575050565b6200089f9160046000526020600020906020601f840160051c83019310620008a157601f0160051c019062000302565b80519091906001600160401b038111620009de575b62000917816200091160045462000823565b620008ac565b602080601f83116001146200095657508192936000926200094a575b50508160011b916000199060031b1c191617600455565b01519050388062000933565b6004600052601f198316949091907f8a35acfbc15ff81a39ae7d344fd709f28e8600b4aa8c65c6b64bfe7fe36bd19b926000905b878210620009c5575050836001959610620009ab575b505050811b01600455565b015160001960f88460031b161c19169055388080620009a0565b806001859682949686015181550195019301906200098a565b620009e862000279565b620008ff565b80519091906001600160401b03811162000af7575b62000a1b8162000a1560035462000823565b62000860565b602080601f831160011462000a62575081906200089f9460009262000a56575b50508160011b916000199060031b1c191617600355620008ea565b01519050388062000a3b565b60036000529293919291601f1984167fc2575a0e9e593c00f959f8c92f12db2869c3395a3b0502d05e2516446f71f85b936000905b82821062000ade5750509160019391856200089f9796941062000ac4575b505050811b01600355620008ea565b015160001960f88460031b161c1916905538808062000ab5565b8060018697829497870151815501960194019062000a97565b62000b0162000279565b62000a0356fe6080604052600436101561001b575b361561001957600080fd5b005b60003560e01c806301f10d2a146103ef578063040141e5146103e657806306fdde03146103dd578063095ea7b3146103d4578063153f29c7146103cb57806316345f18146103c257806318160ddd146103b95780631bea8006146103b057806322a90082146103a757806323aad7af1461039e57806323b872dd1461039557806324e2e7bb1461038c57806329a97ec2146103835780632d365d311461037a578063313ce5671461037157806339509351146103685780633f3b3b271461035f57806344345f23146103565780634585e33b1461034d57806351f5488714610344578063681bcf131461033b57806369bc4388146103325780636e04ff0d1461032957806370a0823114610320578063718176e514610317578063764f96f91461030e57806388e42b08146103055780638db9f39a146102fc57806390f11e84146102f3578063947a36fb146102ea57806395d89b41146102e1578063a15c7d10146102d8578063a457c2d7146102cf578063a48ce279146102c6578063a9059cbb146102bd578063aa5a7aa3146102b4578063b460af94146102ab578063b6e20a6a146102a2578063bb09d9b714610299578063bdd5915f14610290578063c5764eec14610287578063ca9709051461027e578063cb3601b114610275578063cd3f5b531461026c578063cf41281014610263578063d09191161461025a578063dd62ed3e14610251578063e189eb42146102485763e95d83280361000e57610243612835565b61000e565b506102436127e2565b5061024361274c565b506102436126fe565b5061024361264e565b50610243612600565b5061024361257a565b506102436124f4565b506102436123a5565b50610243612357565b50610243612309565b506102436122bb565b506102436121c1565b506102436120ef565b506102436120aa565b50610243612024565b50610243611f18565b50610243611e92565b50610243611db0565b50610243611d73565b50610243611c5e565b50610243611af0565b50610243611ab5565b50610243611a6b565b50610243611a1d565b506102436119b7565b5061024361125a565b506102436111bb565b50610243611135565b506102436110ab565b50610243610e89565b50610243610d9b565b50610243610d5e565b50610243610cd9565b50610243610c9e565b50610243610c50565b50610243610c38565b50610243610a7a565b50610243610963565b5061024361087d565b50610243610815565b506102436107ca565b5061024361078d565b5061024361074b565b50610243610709565b506102436106b9565b5061024361055c565b5061024361048b565b50610243610443565b6004359073ffffffffffffffffffffffffffffffffffffffff8216820361041b57565b600080fd5b6024359073ffffffffffffffffffffffffffffffffffffffff8216820361041b57565b503461041b5760607ffffffffffffffffffffffffffffffffffffffffffffffffffffffffffffffffc36011261041b5761001961047e6103f8565b6044359060243590613e7a565b503461041b5760007ffffffffffffffffffffffffffffffffffffffffffffffffffffffffffffffffc36011261041b576020604051737ceb23fd6bc0add59e62ac25578270cff1b9f6198152f35b91908251928382526000905b8482106105305750601f84602094957fffffffffffffffffffffffffffffffffffffffffffffffffffffffffffffffe09311610523575b0116010190565b600085828601015261051c565b906020908180828501015190828601015201906104e5565b9060206105599281815201906104d9565b90565b503461041b576000807ffffffffffffffffffffffffffffffffffffffffffffffffffffffffffffffffc3601126106b65760405190806003549060019180831c928082169283156106ac575b602092838610851461067f57858852602088019490811561064557506001146105ec575b6105e8876105dc81890382611b6e565b60405191829182610548565b0390f35b600360005294509192917fc2575a0e9e593c00f959f8c92f12db2869c3395a3b0502d05e2516446f71f85b5b83861061063457505050910190506105dc826105e838806105cc565b805485870152948201948101610618565b7fffffffffffffffffffffffffffffffffffffffffffffffffffffffffffffff001685525050500191506105dc9050826105e838806105cc565b6024827f4e487b710000000000000000000000000000000000000000000000000000000081526022600452fd5b93607f16936105a8565b80fd5b503461041b5760407ffffffffffffffffffffffffffffffffffffffffffffffffffffffffffffffffc36011261041b576106fe6106f46103f8565b6024359033612b6a565b602060405160018152f35b503461041b5760007ffffffffffffffffffffffffffffffffffffffffffffffffffffffffffffffffc36011261041b576020610743613b83565b604051908152f35b503461041b5760207ffffffffffffffffffffffffffffffffffffffffffffffffffffffffffffffffc36011261041b5760206107436107886103f8565b612d48565b503461041b5760007ffffffffffffffffffffffffffffffffffffffffffffffffffffffffffffffffc36011261041b576020600254604051908152f35b503461041b5760407ffffffffffffffffffffffffffffffffffffffffffffffffffffffffffffffffc36011261041b5760206107436108076103f8565b61080f610420565b906144ee565b503461041b5760207ffffffffffffffffffffffffffffffffffffffffffffffffffffffffffffffffc36011261041b57600435600e55005b507f4e487b7100000000000000000000000000000000000000000000000000000000600052603260045260246000fd5b503461041b5760207ffffffffffffffffffffffffffffffffffffffffffffffffffffffffffffffffc36011261041b5760043560065481101561041b5773ffffffffffffffffffffffffffffffffffffffff60209160066000527ff652222313e28459528d920b65115c16c04f3efc82aaedc97be59f3f377c0d3f015416604051908152f35b7ffffffffffffffffffffffffffffffffffffffffffffffffffffffffffffffffc606091011261041b5773ffffffffffffffffffffffffffffffffffffffff90600435828116810361041b5791602435908116810361041b579060443590565b503461041b5761097236610903565b9073ffffffffffffffffffffffffffffffffffffffff831660005260016020526109c03360406000209073ffffffffffffffffffffffffffffffffffffffff16600052602052604060002090565b54927fffffffffffffffffffffffffffffffffffffffffffffffffffffffffffffffff8403610a00575b6109f493506129e1565b60405160018152602090f35b828410610a1c57610a17836109f495033383612b6a565b6109ea565b60646040517f08c379a000000000000000000000000000000000000000000000000000000000815260206004820152601d60248201527f45524332303a20696e73756666696369656e7420616c6c6f77616e63650000006044820152fd5b503461041b5760207ffffffffffffffffffffffffffffffffffffffffffffffffffffffffffffffffc36011261041b57610019610ab56103f8565b73ffffffffffffffffffffffffffffffffffffffff81166000526000602052610bf5610aef604060002054610ae930614293565b90612ff2565b610bf0610aff600254809361307b565b91610beb610b4382610b3e610b348973ffffffffffffffffffffffffffffffffffffffff166000526000602052604060002090565b54610ae93061432a565b61307b565b610be6610bbc610b8485610b3e610b7a8c73ffffffffffffffffffffffffffffffffffffffff166000526000602052604060002090565b54610ae93061439b565b94610b3e610bb28b73ffffffffffffffffffffffffffffffffffffffff166000526000602052604060002090565b54610ae93061440c565b95610bc6816134c5565b610bcf8361355f565b610bd8856135d1565b610be187613643565b6140ed565b614161565b6141c7565b61422d565b610c0781610c023061447d565b614078565b610c318173ffffffffffffffffffffffffffffffffffffffff166000526000602052604060002090565b5490613ea6565b503461041b57610019610c4a36610903565b9161379e565b503461041b5760007ffffffffffffffffffffffffffffffffffffffffffffffffffffffffffffffffc36011261041b57602060405173bbba073c31bf03b8acf7c28ef0738decf36956838152f35b503461041b5760007ffffffffffffffffffffffffffffffffffffffffffffffffffffffffffffffffc36011261041b57602060405160128152f35b503461041b5760407ffffffffffffffffffffffffffffffffffffffffffffffffffffffffffffffffc36011261041b576106fe610d146103f8565b336000526001602052610d57602435610d518360406000209073ffffffffffffffffffffffffffffffffffffffff16600052602052604060002090565b546128b3565b9033612b6a565b503461041b5760007ffffffffffffffffffffffffffffffffffffffffffffffffffffffffffffffffc36011261041b576020600d54604051908152f35b503461041b5760207ffffffffffffffffffffffffffffffffffffffffffffffffffffffffffffffffc36011261041b57600435600b5481101561041b5773ffffffffffffffffffffffffffffffffffffffff602091600b6000527f0175b7a638427703f0dbe7bb9bbf987a2551717b34e79f33b5b1008d1fa01db9015416604051908152f35b9060207ffffffffffffffffffffffffffffffffffffffffffffffffffffffffffffffffc83011261041b5760043567ffffffffffffffff9283821161041b578060238301121561041b57816004013593841161041b576024848301011161041b576024019190565b503461041b57610e9836610e21565b90610ea5600d5442612e42565b600e5410610eaf57005b610eb842600d55565b610ed5610ec361314c565b91610ecc613187565b938101906133df565b9160005b83519060ff8116918210156100195761100b91610f38610f27610f0d610f07610f018661330f565b60ff1690565b88612f58565b5173ffffffffffffffffffffffffffffffffffffffff1690565b610f318389612f58565b51906136b5565b730d500b1d8e8ef31e21c99d1db9a6444d3adf127080610f82610f69610f0d610f63610f018861330f565b8a612f58565b73ffffffffffffffffffffffffffffffffffffffff1690565b14908115611084575b501561101057610ffd61100691610fd1610fad610f0d610f63610f018861330f565b610fb688612f0f565b9073ffffffffffffffffffffffffffffffffffffffff169052565b610ff7610fee610f0d610f63610f01610fe98961330f565b613336565b610fb688612f25565b87612f58565b518430916145c9565b612f7a565b610ed9565b61107b6110069161103561102c610f0d610f63610f018861330f565b610fb68b612f0f565b61105a6110418a612f25565b730d500b1d8e8ef31e21c99d1db9a6444d3adf12709052565b610ff7611072610f0d610f63610f01610fe98961330f565b610fb68b612f36565b518730916145c9565b90506110a4610f69610f0d61109e610f01610fe98861330f565b89612f58565b1438610f8b565b503461041b576020610ae961110b60026110dc6110d66110ca36610903565b969192909230906144ee565b91612d48565b927ffffffffffffffffffffffffffffffffffffffffffffffffffffffffffffffffd8111611128575b0161302f565b801561111b575b60405191048152f35b61112361304b565b611112565b611130612883565b611105565b503461041b5760207ffffffffffffffffffffffffffffffffffffffffffffffffffffffffffffffffc36011261041b5760043560095481101561041b5773ffffffffffffffffffffffffffffffffffffffff60209160096000527f6e1540171b6c0c960b71a7020d9f60077f6af931a8bbf590da0223dacf75c7af015416604051908152f35b503461041b5760207ffffffffffffffffffffffffffffffffffffffffffffffffffffffffffffffffc36011261041b5760043560055481101561041b5773ffffffffffffffffffffffffffffffffffffffff60209160056000527f036b6384b5eca791c62761152d0c79bb0604c104a5fb6f4eb0703f3154bb3db0015416604051908152f35b60409061055993921515815281602082015201906104d9565b503461041b5761126936610e21565b5050611277600d5442612e42565b600e5410611283612eb8565b61128b612e59565b906020926112ae848401730d500b1d8e8ef31e21c99d1db9a6444d3adf12709052565b6040926112d084820173ab594600376ec9fd91f8e885dadf0ce036862de09052565b6112d8612e59565b73bbba073c31bf03b8acf7c28ef0738decf369568381870152733d49406edd4d52fb7ffd25485f32e073b529c92481860152611312612e59565b731bfd67037b42cf73acf2047067bd4f2c47d9bfd6878201529073c907e116054ad103354f2d350fd2514433d57f6f8287015261134d612e59565b737ceb23fd6bc0add59e62ac25578270cff1b9f619888201529273f9680d99d6c9589e2a93a78a04a279e5092059458488015261138986612f0f565b5261139385612f0f565b5061139d85612f25565b526113a784612f25565b506113b184612f36565b526113bb83612f36565b506113c583612f47565b526113cf82612f47565b50600093845b835160ff87169081101561160257611588916115829161157961156161155761152660ff8b868b8f61142b610f69808461140f8789612f58565b51015173ffffffffffffffffffffffffffffffffffffffff1690565b906114b76107888261140f8151977f70a0823100000000000000000000000000000000000000000000000000000000895260049888818061148c8d3090830191909173ffffffffffffffffffffffffffffffffffffffff6020820193169052565b03818b5afa9081156115f5575b6000916115c8575b5060806114ae838d612f58565b51015289612f58565b60e06114c38d88612f58565b51015251928380927f313ce5670000000000000000000000000000000000000000000000000000000082525afa9081156115bb575b60009161158e575b506115118860609485931693612f58565b51015261151e868d612f58565b510151612df8565b610ae96115518c60e061154889608061153f8286612f58565b51015193612f58565b51015190612ff2565b9161302f565b6305f5e100900490565b9160a09283611570838c612f58565b51015288612f58565b510151906128b3565b95612f7a565b946113d5565b6115ae91508c8d3d106115b4575b6115a68183611b6e565b810190612f9b565b38611500565b503d61159c565b6115c3612d3b565b6114f8565b6115e89150893d8b116115ee575b6115e08183611b6e565b810190612f8c565b386114a1565b503d6115d6565b6115fd612d3b565b611499565b509190945060005b835160ff82169081101561165957908160c061164c61164560a0611631611654978b612f58565b51015161163f8a518a61307b565b90613091565b9288612f58565b510152612f7a565b61160a565b85838887600091829483946116766116718551612e14565b6130fd565b9261168c6116716116878751612e14565b612fb4565b86915b6116998751612e14565b9460ff94858516968710156119685760005b8951878216908110156117265760c08b8d8284816116c98286612f58565b5101511515938461170d575b505050506116ee575b50506116e990612f7a565b6116ab565b909d50819b506117026116e9929e8c612f58565b5101519a908e6116de565b61171992939450612f58565b510151138d82848f6116d5565b50969a7f7fffffffffffffffffffffffffffffffffffffffffffffffffffffffffffffff9a5094979396509194919060005b89518d858316918210156117d5575060c08b8d8284816117788286612f58565b510151151593846117bc575b5050505061179d575b505061179890612f7a565b611758565b909650819b506117b161179892978c612f58565b5101519a908e61178d565b6117c892939450612f58565b510151128d82848f611784565b6118f7925088978892506118f1819f611006969b8f8b9f999e9b9261140f916118dc948d61190f9e61140f9a169360c091826118118787612f58565b5101519a16809a61182e846118268489612f58565b510151613475565b121561191857826118486118d69461182660009489612f58565b6118528487612f58565b5261185d8386612f58565b516118768261186c8a8a612f58565b5101918251613091565b90526118828c87612f58565b5101526118d06118b361189e6118988487612f58565b5161322d565b60e06118aa8989612f58565b510151906132a0565b6118ca6118c5606061151e8a8a612f58565b61302f565b906132a0565b92612f58565b52612f58565b610fb66118eb610f018a61330f565b8b612f58565b8c612f58565b610fb6611909610f01610fe98661330f565b86612f58565b9193929361168f565b5060008261192d6118d6946118268989612f58565b6119378487612f58565b528b61195c8261195261194a878a612f58565b51938a612f58565b51019182516131c1565b90526118828787612f58565b91906119ad6105e8926119818a84519788938401613392565b037fffffffffffffffffffffffffffffffffffffffffffffffffffffffffffffffe08101865285611b6e565b5192839283611241565b503461041b5760207ffffffffffffffffffffffffffffffffffffffffffffffffffffffffffffffffc36011261041b5773ffffffffffffffffffffffffffffffffffffffff611a046103f8565b1660005260006020526020604060002054604051908152f35b503461041b5760007ffffffffffffffffffffffffffffffffffffffffffffffffffffffffffffffffc36011261041b57602060405173f9680d99d6c9589e2a93a78a04a279e5092059458152f35b503461041b5760c07ffffffffffffffffffffffffffffffffffffffffffffffffffffffffffffffffc36011261041b5761001960a435608435606435604435602435600435613dc1565b503461041b5760207ffffffffffffffffffffffffffffffffffffffffffffffffffffffffffffffffc36011261041b57610019600435613e49565b503461041b5760007ffffffffffffffffffffffffffffffffffffffffffffffffffffffffffffffffc36011261041b57602060405173ab594600376ec9fd91f8e885dadf0ce036862de08152f35b507f4e487b7100000000000000000000000000000000000000000000000000000000600052604160045260246000fd5b90601f7fffffffffffffffffffffffffffffffffffffffffffffffffffffffffffffffe0910116810190811067ffffffffffffffff821117611baf57604052565b611bb7611b3e565b604052565b60209067ffffffffffffffff8111611bd6575b60051b0190565b611bde611b3e565b611bcf565b81601f8201121561041b57803591611bfa83611bbc565b92611c086040519485611b6e565b808452602092838086019260051b82010192831161041b578301905b828210611c32575050505090565b813573ffffffffffffffffffffffffffffffffffffffff8116810361041b578152908301908301611c24565b503461041b5760a07ffffffffffffffffffffffffffffffffffffffffffffffffffffffffffffffffc36011261041b5760443567ffffffffffffffff811161041b57611cae903690600401611be3565b6064359073ffffffffffffffffffffffffffffffffffffffff80831680930361041b57600091611d2b91600f541690836040518096819582947f38ed17390000000000000000000000000000000000000000000000000000000084526004356004850152602435602485015260a0604485015260a4840190613348565b906064830152608435608483015203925af18015611d66575b611d4a57005b610019903d806000833e611d5e8183611b6e565b81019061454f565b611d6e612d3b565b611d44565b503461041b5760007ffffffffffffffffffffffffffffffffffffffffffffffffffffffffffffffffc36011261041b576020600e54604051908152f35b503461041b576000807ffffffffffffffffffffffffffffffffffffffffffffffffffffffffffffffffc3601126106b65760405190806004549060019180831c92808216928315611e88575b602092838610851461067f5785885260208801949081156106455750600114611e2f576105e8876105dc81890382611b6e565b600460005294509192917f8a35acfbc15ff81a39ae7d344fd709f28e8600b4aa8c65c6b64bfe7fe36bd19b5b838610611e7757505050910190506105dc826105e838806105cc565b805485870152948201948101611e5b565b93607f1693611dfc565b503461041b5760207ffffffffffffffffffffffffffffffffffffffffffffffffffffffffffffffffc36011261041b5760043560085481101561041b5773ffffffffffffffffffffffffffffffffffffffff60209160086000527ff3f7a9fe364faab93b216da50a3214154f22a0a2b415b23a84c8169e8b636ee3015416604051908152f35b503461041b5760407ffffffffffffffffffffffffffffffffffffffffffffffffffffffffffffffffc36011261041b57611f506103f8565b60243590336000526001602052611f8b8160406000209073ffffffffffffffffffffffffffffffffffffffff16600052602052604060002090565b5491808310611fa0576109f492039033612b6a565b60846040517f08c379a000000000000000000000000000000000000000000000000000000000815260206004820152602560248201527f45524332303a2064656372656173656420616c6c6f77616e63652062656c6f7760448201527f207a65726f0000000000000000000000000000000000000000000000000000006064820152fd5b503461041b5760207ffffffffffffffffffffffffffffffffffffffffffffffffffffffffffffffffc36011261041b57600435600a5481101561041b5773ffffffffffffffffffffffffffffffffffffffff602091600a6000527fc65a7bb8d6351c1cf70c95a316cc6a92839c986682d98bc35f958f4883f9d2a8015416604051908152f35b503461041b5760407ffffffffffffffffffffffffffffffffffffffffffffffffffffffffffffffffc36011261041b576106fe6120e56103f8565b60243590336129e1565b503461041b5760407ffffffffffffffffffffffffffffffffffffffffffffffffffffffffffffffffc36011261041b5761001961212a6103f8565b612132610420565b604051917f70a0823100000000000000000000000000000000000000000000000000000000835230600484015260208360248173ffffffffffffffffffffffffffffffffffffffff85165afa9283156121b4575b600093612194575b5061379e565b6121ad91935060203d81116115ee576115e08183611b6e565b913861218e565b6121bc612d3b565b612186565b503461041b5760607ffffffffffffffffffffffffffffffffffffffffffffffffffffffffffffffffc36011261041b576121f9610420565b73ffffffffffffffffffffffffffffffffffffffff90604435828116810361041b576040517fa9059cbb00000000000000000000000000000000000000000000000000000000815273ffffffffffffffffffffffffffffffffffffffff919091166004808301919091523560248201529160209183916044918391600091165af180156122ae575b61228757005b6100199060203d81116122a7575b61229f8183611b6e565b8101906134ad565b503d612295565b6122b6612d3b565b612281565b503461041b5760007ffffffffffffffffffffffffffffffffffffffffffffffffffffffffffffffffc36011261041b57602060405173c907e116054ad103354f2d350fd2514433d57f6f8152f35b503461041b5760007ffffffffffffffffffffffffffffffffffffffffffffffffffffffffffffffffc36011261041b576020604051732791bca1f2de4661ed88a30c99a7a9449aa841748152f35b503461041b5760007ffffffffffffffffffffffffffffffffffffffffffffffffffffffffffffffffc36011261041b576020604051731bfd67037b42cf73acf2047067bd4f2c47d9bfd68152f35b503461041b5760207ffffffffffffffffffffffffffffffffffffffffffffffffffffffffffffffffc36011261041b576040517f23b872dd000000000000000000000000000000000000000000000000000000008152336004808301919091523060248301523560448201819052906020816064816000732791bca1f2de4661ed88a30c99a7a9449aa841745af180156124e7575b6124c9575b506124486138f7565b6124506139d2565b612458613a41565b612460613ab0565b91612478836124738461247385896128b3565b6128b3565b936124828661372c565b84156124b157926100199592859261249995613dc1565b6124aa816124a5613b83565b612e42565b9033613e7a565b5050505050806124c361001992613e49565b33613806565b6124e09060203d81116122a75761229f8183611b6e565b503861243f565b6124ef612d3b565b61243a565b503461041b5760207ffffffffffffffffffffffffffffffffffffffffffffffffffffffffffffffffc36011261041b57600435600c5481101561041b5773ffffffffffffffffffffffffffffffffffffffff602091600c6000527fdf6966c971051c3d54ec59162606531493a51404a002842f56009d7e5cf4a8c7015416604051908152f35b503461041b5760207ffffffffffffffffffffffffffffffffffffffffffffffffffffffffffffffffc36011261041b5760043560075481101561041b5773ffffffffffffffffffffffffffffffffffffffff60209160076000527fa66cc928b5edb82af9bd49922954155ab7b0942694bea4ce44661d9a8736c688015416604051908152f35b503461041b5760007ffffffffffffffffffffffffffffffffffffffffffffffffffffffffffffffffc36011261041b576020604051733d49406edd4d52fb7ffd25485f32e073b529c9248152f35b503461041b5760407ffffffffffffffffffffffffffffffffffffffffffffffffffffffffffffffffc36011261041b576100196126896103f8565b73ffffffffffffffffffffffffffffffffffffffff6126a661314c565b918251156126f1575b1660208201528051600110156126e4575b732791bca1f2de4661ed88a30c99a7a9449aa84174604082015230906024356145c9565b6126ec61084d565b6126c0565b6126f961084d565b6126af565b503461041b5760007ffffffffffffffffffffffffffffffffffffffffffffffffffffffffffffffffc36011261041b57602060405173a5e0829caced8ffdd4de3c43696c57f7d7a678ff8152f35b503461041b5760407ffffffffffffffffffffffffffffffffffffffffffffffffffffffffffffffffc36011261041b5760206127d96127896103f8565b73ffffffffffffffffffffffffffffffffffffffff6127a6610420565b91166000526001835260406000209073ffffffffffffffffffffffffffffffffffffffff16600052602052604060002090565b54604051908152f35b503461041b5760007ffffffffffffffffffffffffffffffffffffffffffffffffffffffffffffffffc36011261041b57602073ffffffffffffffffffffffffffffffffffffffff600f5416604051908152f35b503461041b5760007ffffffffffffffffffffffffffffffffffffffffffffffffffffffffffffffffc36011261041b576020604051730d500b1d8e8ef31e21c99d1db9a6444d3adf12708152f35b507f4e487b7100000000000000000000000000000000000000000000000000000000600052601160045260246000fd5b811981116128bf570190565b6128c7612883565b0190565b156128d257565b60846040517f08c379a000000000000000000000000000000000000000000000000000000000815260206004820152602360248201527f45524332303a207472616e7366657220746f20746865207a65726f206164647260448201527f65737300000000000000000000000000000000000000000000000000000000006064820152fd5b1561295d57565b60846040517f08c379a000000000000000000000000000000000000000000000000000000000815260206004820152602660248201527f45524332303a207472616e7366657220616d6f756e742065786365656473206260448201527f616c616e636500000000000000000000000000000000000000000000000000006064820152fd5b919073ffffffffffffffffffffffffffffffffffffffff90818416928315612ae657612ac4827fddf252ad1be2c89b69c2b068fc378daa952ba7f163c4a11628f55a4df523b3ef94612ae1941696612a3a8815156128cb565b612a9d84612a688373ffffffffffffffffffffffffffffffffffffffff166000526000602052604060002090565b54612a7582821015612956565b039173ffffffffffffffffffffffffffffffffffffffff166000526000602052604060002090565b5573ffffffffffffffffffffffffffffffffffffffff166000526000602052604060002090565b612acf8282546128b3565b90556040519081529081906020820190565b0390a3565b60846040517f08c379a000000000000000000000000000000000000000000000000000000000815260206004820152602560248201527f45524332303a207472616e736665722066726f6d20746865207a65726f20616460448201527f64726573730000000000000000000000000000000000000000000000000000006064820152fd5b9073ffffffffffffffffffffffffffffffffffffffff91828116928315612ca1578216938415612c1d5780612c0c7f8c5be1e5ebec7d5bd14f71427d1e84f3dd0314c0f7b2291e5b200ac8c7c3b92594612be7612ae19573ffffffffffffffffffffffffffffffffffffffff166000526001602052604060002090565b9073ffffffffffffffffffffffffffffffffffffffff16600052602052604060002090565b556040519081529081906020820190565b60846040517f08c379a000000000000000000000000000000000000000000000000000000000815260206004820152602260248201527f45524332303a20617070726f766520746f20746865207a65726f20616464726560448201527f73730000000000000000000000000000000000000000000000000000000000006064820152fd5b60846040517f08c379a0000000000000000000000000000000000000000000000000000000008152602060048201526024808201527f45524332303a20617070726f76652066726f6d20746865207a65726f2061646460448201527f72657373000000000000000000000000000000000000000000000000000000006064820152fd5b519069ffffffffffffffffffff8216820361041b57565b506040513d6000823e3d90fd5b60a073ffffffffffffffffffffffffffffffffffffffff916004604051809481937ffeaf968c000000000000000000000000000000000000000000000000000000008352165afa908115612deb575b600091612da2575090565b9060a0823d8211612de3575b81612dbb60a09383611b6e565b810103126106b65750612dcd81612d24565b50612ddf608060208301519201612d24565b5090565b3d9150612dae565b612df3612d3b565b612d97565b80601210612e07575b60120390565b612e0f612883565b612e01565b7fffffffffffffffffffffffffffffffffffffffffffffffffffffffffffffffff90600181106128bf570190565b818110612e4d570390565b612e55612883565b0390565b60405190610100820182811067ffffffffffffffff821117612eab575b604052816060815260e06000918260208201528260408201528260608201528260808201528260a08201528260c08201520152565b612eb3611b3e565b612e76565b6040519060a0820182811067ffffffffffffffff821117612f02575b604052600482528160005b60808110612eeb575050565b602090612ef6612e59565b82828501015201612edf565b612f0a611b3e565b612ed4565b602090805115612f1d570190565b6128c761084d565b604090805160011015612f1d570190565b606090805160021015612f1d570190565b608090805160031015612f1d570190565b6020918151811015612f6d575b60051b010190565b612f7561084d565b612f65565b60ff6001911660ff81146128bf570190565b9081602091031261041b575190565b9081602091031261041b575160ff8116810361041b5790565b7f7fffffffffffffffffffffffffffffffffffffffffffffffffffffffffffffff8111600116612fe5575b60011b90565b612fed612883565b612fdf565b807fffffffffffffffffffffffffffffffffffffffffffffffffffffffffffffffff04821181151516613023570290565b61302b612883565b0290565b604d811161303e575b600a0a90565b613046612883565b613038565b507f4e487b7100000000000000000000000000000000000000000000000000000000600052601260045260246000fd5b8115613085570490565b61308d61304b565b0490565b60008212827f80000000000000000000000000000000000000000000000000000000000000000182128115166130f0575b827f7fffffffffffffffffffffffffffffffffffffffffffffffffffffffffffffff01821316612e4d570390565b6130f8612883565b6130c2565b9061310782611bbc565b6131146040519182611b6e565b8281527fffffffffffffffffffffffffffffffffffffffffffffffffffffffffffffffe06131428294611bbc565b0190602036910137565b604051906060820182811067ffffffffffffffff82111761317a575b60405260028252604082602036910137565b613182611b3e565b613168565b604051906080820182811067ffffffffffffffff8211176131b4575b604052600382526060366020840137565b6131bc611b3e565b6131a3565b60008112817f7fffffffffffffffffffffffffffffffffffffffffffffffffffffffffffffff038313811516613220575b817f8000000000000000000000000000000000000000000000000000000000000000038312166128bf570190565b613228612883565b6131f2565b6305f5e1009060017c15798ee2308c39df9fb841a566d74f87a7a9a7aeb02c2d2f8e0d1e768d8211600083131616613293575b60017fffffffea86711dcf73c6206047be5a9928b078585658514fd3d2d071f2e189738212600083121616613023570290565b61329b612883565b613260565b8115613302575b7fffffffffffffffffffffffffffffffffffffffffffffffffffffffffffffffff82147f80000000000000000000000000000000000000000000000000000000000000008214166132f6570590565b6132fe612883565b0590565b61330a61304b565b6132a7565b6101fe90607f60ff821611600116613329575b60011b1690565b613331612883565b613322565b60ff6001911660fe81116128bf570190565b90815180825260208080930193019160005b828110613368575050505090565b835173ffffffffffffffffffffffffffffffffffffffff168552938101939281019260010161335a565b906133a590604083526040830190613348565b81810360209283015282518082529082019282019160005b8281106133cb575050505090565b8351855293810193928101926001016133bd565b919060408382031261041b5767ffffffffffffffff92803584811161041b578261340a918301611be3565b936020918281013591821161041b57019180601f8401121561041b57823561343181611bbc565b9361343f6040519586611b6e565b818552838086019260051b82010192831161041b578301905b828210613466575050505090565b81358152908301908301613458565b6000808212613482575090565b7f80000000000000000000000000000000000000000000000000000000000000008214612e4d570390565b9081602091031261041b5751801515810361041b5790565b604051907f095ea7b300000000000000000000000000000000000000000000000000000000825273a5e0829caced8ffdd4de3c43696c57f7d7a678ff600483015260248201526020816044816000730d500b1d8e8ef31e21c99d1db9a6444d3adf12705af18015613552575b6135385750565b61354f9060203d81116122a75761229f8183611b6e565b50565b61355a612d3b565b613531565b604051907f095ea7b300000000000000000000000000000000000000000000000000000000825273a5e0829caced8ffdd4de3c43696c57f7d7a678ff60048301526024820152602081604481600073bbba073c31bf03b8acf7c28ef0738decf36956835af18015613552576135385750565b604051907f095ea7b300000000000000000000000000000000000000000000000000000000825273a5e0829caced8ffdd4de3c43696c57f7d7a678ff600483015260248201526020816044816000737ceb23fd6bc0add59e62ac25578270cff1b9f6195af18015613552576135385750565b604051907f095ea7b300000000000000000000000000000000000000000000000000000000825273a5e0829caced8ffdd4de3c43696c57f7d7a678ff600483015260248201526020816044816000731bfd67037b42cf73acf2047067bd4f2c47d9bfd65af18015613552576135385750565b602090604473ffffffffffffffffffffffffffffffffffffffff93600060405195869485937f095ea7b300000000000000000000000000000000000000000000000000000000855273a5e0829caced8ffdd4de3c43696c57f7d7a678ff60048601526024850152165af18015613552576135385750565b604051907f095ea7b300000000000000000000000000000000000000000000000000000000825273a5e0829caced8ffdd4de3c43696c57f7d7a678ff600483015260248201526020816044816000732791bca1f2de4661ed88a30c99a7a9449aa841745af18015613552576135385750565b6040517f095ea7b300000000000000000000000000000000000000000000000000000000815273ffffffffffffffffffffffffffffffffffffffff9283166004820152602481019390935260209183916044918391600091165af18015613552576135385750565b73ffffffffffffffffffffffffffffffffffffffff81169182156138995760208161388360009461385a7fddf252ad1be2c89b69c2b068fc378daa952ba7f163c4a11628f55a4df523b3ef956002546128b3565b60025573ffffffffffffffffffffffffffffffffffffffff166000526000602052604060002090565b61388e8282546128b3565b9055604051908152a3565b60646040517f08c379a000000000000000000000000000000000000000000000000000000000815260206004820152601f60248201527f45524332303a206d696e7420746f20746865207a65726f2061646472657373006044820152fd5b61390030614293565b6040517ffeaf968c00000000000000000000000000000000000000000000000000000000815260a08160048173ab594600376ec9fd91f8e885dadf0ce036862de05afa9081156139c5575b600091613968575b5061308d9068056bc75e2d6310000092612ff2565b9060a0823d82116139bd575b8161398160a09383611b6e565b810103126106b6575068056bc75e2d6310000091816139a261308d93612d24565b506139b4608060208301519201612d24565b50915091613953565b3d9150613974565b6139cd612d3b565b61394b565b6139db3061432a565b6040517ffeaf968c00000000000000000000000000000000000000000000000000000000815260a081600481733d49406edd4d52fb7ffd25485f32e073b529c9245afa9081156139c557600091613968575061308d9068056bc75e2d6310000092612ff2565b613a4a3061439b565b6040517ffeaf968c00000000000000000000000000000000000000000000000000000000815260a08160048173f9680d99d6c9589e2a93a78a04a279e5092059455afa9081156139c557600091613968575061308d9068056bc75e2d6310000092612ff2565b613ab93061440c565b6040517ffeaf968c00000000000000000000000000000000000000000000000000000000815260a08160048173c907e116054ad103354f2d350fd2514433d57f6f5afa908115613b76575b600091613b1d575b5061308d906402540be40092612ff2565b9060a0823d8211613b6e575b81613b3660a09383611b6e565b810103126106b657506402540be4009181613b5361308d93612d24565b50613b65608060208301519201612d24565b50915091613b0c565b3d9150613b29565b613b7e612d3b565b613b04565b610559613b8e6138f7565b612473613b996139d2565b612473613ba4613a41565b91613bad613ab0565b946128b3565b60405190600554808352826020918282019060056000527f036b6384b5eca791c62761152d0c79bb0604c104a5fb6f4eb0703f3154bb3db0936000905b828210613c0857505050613c0692500383611b6e565b565b855473ffffffffffffffffffffffffffffffffffffffff1684526001958601958895509381019390910190613bf0565b60405190600654808352826020918282019060066000527ff652222313e28459528d920b65115c16c04f3efc82aaedc97be59f3f377c0d3f936000905b828210613c8b57505050613c0692500383611b6e565b855473ffffffffffffffffffffffffffffffffffffffff1684526001958601958895509381019390910190613c75565b60405190600754808352826020918282019060076000527fa66cc928b5edb82af9bd49922954155ab7b0942694bea4ce44661d9a8736c688936000905b828210613d0e57505050613c0692500383611b6e565b855473ffffffffffffffffffffffffffffffffffffffff1684526001958601958895509381019390910190613cf8565b60405190600854808352826020918282019060086000527ff3f7a9fe364faab93b216da50a3214154f22a0a2b415b23a84c8169e8b636ee3936000905b828210613d9157505050613c0692500383611b6e565b855473ffffffffffffffffffffffffffffffffffffffff1684526001958601958895509381019390910190613d7b565b91613e188580613e058982613dfe82613e28999c613df7613c069f613deb613e329f9e8290612ff2565b9f8315613e3c57612ff2565b0498612ff2565b0497612ff2565b04963091613e11613bb3565b91046145c9565b3090613e22613c38565b906145c9565b3090613e22613cbb565b3090613e22613d3e565b613e4461304b565b612ff2565b613c069060021c613e6230613e5c613bb3565b836145c9565b613e6e30613e5c613c38565b613e3230613e5c613cbb565b90613e8b613c069360025490612ff2565b8115613e99575b0490613806565b613ea161304b565b613e92565b73ffffffffffffffffffffffffffffffffffffffff8116908115613ff457613eee8173ffffffffffffffffffffffffffffffffffffffff166000526000602052604060002090565b54838110613f7057837fddf252ad1be2c89b69c2b068fc378daa952ba7f163c4a11628f55a4df523b3ef92613f4b600096612ae194039173ffffffffffffffffffffffffffffffffffffffff166000526000602052604060002090565b55613f60613f5b82600254612e42565b600255565b6040519081529081906020820190565b60846040517f08c379a000000000000000000000000000000000000000000000000000000000815260206004820152602260248201527f45524332303a206275726e20616d6f756e7420657863656564732062616c616e60448201527f63650000000000000000000000000000000000000000000000000000000000006064820152fd5b60846040517f08c379a000000000000000000000000000000000000000000000000000000000815260206004820152602160248201527f45524332303a206275726e2066726f6d20746865207a65726f2061646472657360448201527f73000000000000000000000000000000000000000000000000000000000000006064820152fd5b6040517fa9059cbb00000000000000000000000000000000000000000000000000000000815273ffffffffffffffffffffffffffffffffffffffff92909216600483015260248201526020816044816000732791bca1f2de4661ed88a30c99a7a9449aa841745af18015613552576135385750565b613c06906140f961314c565b805115614154575b730d500b1d8e8ef31e21c99d1db9a6444d3adf12706020820152805160011015614147575b732791bca1f2de4661ed88a30c99a7a9449aa84174604082015230916145c9565b61414f61084d565b614126565b61415c61084d565b614101565b613c069061416d61314c565b8051156141ba575b73bbba073c31bf03b8acf7c28ef0738decf3695683602082015280516001101561414757732791bca1f2de4661ed88a30c99a7a9449aa84174604082015230916145c9565b6141c261084d565b614175565b613c06906141d361314c565b805115614220575b737ceb23fd6bc0add59e62ac25578270cff1b9f619602082015280516001101561414757732791bca1f2de4661ed88a30c99a7a9449aa84174604082015230916145c9565b61422861084d565b6141db565b613c069061423961314c565b805115614286575b731bfd67037b42cf73acf2047067bd4f2c47d9bfd6602082015280516001101561414757732791bca1f2de4661ed88a30c99a7a9449aa84174604082015230916145c9565b61428e61084d565b614241565b73ffffffffffffffffffffffffffffffffffffffff604051917f70a08231000000000000000000000000000000000000000000000000000000008352166004820152602081602481730d500b1d8e8ef31e21c99d1db9a6444d3adf12705afa90811561431d575b600091614305575090565b610559915060203d81116115ee576115e08183611b6e565b614325612d3b565b6142fa565b73ffffffffffffffffffffffffffffffffffffffff604051917f70a0823100000000000000000000000000000000000000000000000000000000835216600482015260208160248173bbba073c31bf03b8acf7c28ef0738decf36956835afa90811561431d57600091614305575090565b73ffffffffffffffffffffffffffffffffffffffff604051917f70a08231000000000000000000000000000000000000000000000000000000008352166004820152602081602481737ceb23fd6bc0add59e62ac25578270cff1b9f6195afa90811561431d57600091614305575090565b73ffffffffffffffffffffffffffffffffffffffff604051917f70a08231000000000000000000000000000000000000000000000000000000008352166004820152602081602481731bfd67037b42cf73acf2047067bd4f2c47d9bfd65afa90811561431d57600091614305575090565b73ffffffffffffffffffffffffffffffffffffffff604051917f70a08231000000000000000000000000000000000000000000000000000000008352166004820152602081602481732791bca1f2de4661ed88a30c99a7a9449aa841745afa90811561431d57600091614305575090565b6020906024604051809481937f70a0823100000000000000000000000000000000000000000000000000000000835273ffffffffffffffffffffffffffffffffffffffff8092166004840152165afa90811561431d57600091614305575090565b602090818184031261041b5780519067ffffffffffffffff821161041b57019180601f8401121561041b57825161458581611bbc565b936145936040519586611b6e565b818552838086019260051b82010192831161041b578301905b8282106145ba575050505090565b815181529083019083016145ac565b91614637906000928373ffffffffffffffffffffffffffffffffffffffff9586600f541693604051978896879586947f38ed1739000000000000000000000000000000000000000000000000000000008652600486015285602486015260a0604486015260a4850190613348565b9116606483015264174876e7ff608483015203925af1801561466f575b61465b5750565b61354f903d806000833e611d5e8183611b6e565b614677612d3b565b61465456fea2646970667358221220b98ea39a1d0cd9a3e88e76ade0558227c2e7d2285984de1dc8cf4322608dcc6664736f6c634300080d00330000000000000000000000002791bca1f2de4661ed88a30c99a7a9449aa84174",
  "linkReferences": {},
  "deployedLinkReferences": {}
}