{
  "_format": "hh-sol-artifact-1",
  "contractName": "autoBalancer",
  "sourceName": "contracts/autoBalancer.sol",
  "abi": [
    {
      "inputs": [],
      "stateMutability": "nonpayable",
      "type": "constructor"
    },
    {
      "anonymous": false,
      "inputs": [
        {
          "indexed": true,
          "internalType": "address",
          "name": "owner",
          "type": "address"
        },
        {
          "indexed": true,
          "internalType": "address",
          "name": "spender",
          "type": "address"
        },
        {
          "indexed": false,
          "internalType": "uint256",
          "name": "value",
          "type": "uint256"
        }
      ],
      "name": "Approval",
      "type": "event"
    },
    {
      "anonymous": false,
      "inputs": [
        {
          "indexed": true,
          "internalType": "address",
          "name": "from",
          "type": "address"
        },
        {
          "indexed": true,
          "internalType": "address",
          "name": "to",
          "type": "address"
        },
        {
          "indexed": false,
          "internalType": "uint256",
          "name": "value",
          "type": "uint256"
        }
      ],
      "name": "Transfer",
      "type": "event"
    },
    {
      "inputs": [],
      "name": "BTC_USD_ORACLE",
      "outputs": [
        {
          "internalType": "address",
          "name": "",
          "type": "address"
        }
      ],
      "stateMutability": "view",
      "type": "function"
    },
    {
      "inputs": [],
      "name": "ETH_USD_ORACLE",
      "outputs": [
        {
          "internalType": "address",
          "name": "",
          "type": "address"
        }
      ],
      "stateMutability": "view",
      "type": "function"
    },
    {
      "inputs": [],
      "name": "MATIC_USD_ORACLE",
      "outputs": [
        {
          "internalType": "address",
          "name": "",
          "type": "address"
        }
      ],
      "stateMutability": "view",
      "type": "function"
    },
    {
      "inputs": [],
      "name": "QUICKSWAP_ROUTER",
      "outputs": [
        {
          "internalType": "address",
          "name": "",
          "type": "address"
        }
      ],
      "stateMutability": "view",
      "type": "function"
    },
    {
      "inputs": [
        {
          "internalType": "uint256",
          "name": "",
          "type": "uint256"
        }
      ],
      "name": "SANDToUSDCPath",
      "outputs": [
        {
          "internalType": "address",
          "name": "",
          "type": "address"
        }
      ],
      "stateMutability": "view",
      "type": "function"
    },
    {
      "inputs": [],
      "name": "SAND_ADDRESS",
      "outputs": [
        {
          "internalType": "address",
          "name": "",
          "type": "address"
        }
      ],
      "stateMutability": "view",
      "type": "function"
    },
    {
      "inputs": [],
      "name": "SAND_USD_ORACLE",
      "outputs": [
        {
          "internalType": "address",
          "name": "",
          "type": "address"
        }
      ],
      "stateMutability": "view",
      "type": "function"
    },
    {
      "inputs": [
        {
          "internalType": "uint256",
          "name": "",
          "type": "uint256"
        }
      ],
      "name": "USDCToSANDPath",
      "outputs": [
        {
          "internalType": "address",
          "name": "",
          "type": "address"
        }
      ],
      "stateMutability": "view",
      "type": "function"
    },
    {
      "inputs": [
        {
          "internalType": "uint256",
          "name": "",
          "type": "uint256"
        }
      ],
      "name": "USDCToWBTCPath",
      "outputs": [
        {
          "internalType": "address",
          "name": "",
          "type": "address"
        }
      ],
      "stateMutability": "view",
      "type": "function"
    },
    {
      "inputs": [
        {
          "internalType": "uint256",
          "name": "",
          "type": "uint256"
        }
      ],
      "name": "USDCToWETHPath",
      "outputs": [
        {
          "internalType": "address",
          "name": "",
          "type": "address"
        }
      ],
      "stateMutability": "view",
      "type": "function"
    },
    {
      "inputs": [
        {
          "internalType": "uint256",
          "name": "",
          "type": "uint256"
        }
      ],
      "name": "USDCToWMATICPath",
      "outputs": [
        {
          "internalType": "address",
          "name": "",
          "type": "address"
        }
      ],
      "stateMutability": "view",
      "type": "function"
    },
    {
      "inputs": [],
      "name": "USDC_ADDRESS",
      "outputs": [
        {
          "internalType": "address",
          "name": "",
          "type": "address"
        }
      ],
      "stateMutability": "view",
      "type": "function"
    },
    {
      "inputs": [
        {
          "internalType": "uint256",
          "name": "",
          "type": "uint256"
        }
      ],
      "name": "WBTCToUSDCPath",
      "outputs": [
        {
          "internalType": "address",
          "name": "",
          "type": "address"
        }
      ],
      "stateMutability": "view",
      "type": "function"
    },
    {
      "inputs": [],
      "name": "WBTC_ADDRESS",
      "outputs": [
        {
          "internalType": "address",
          "name": "",
          "type": "address"
        }
      ],
      "stateMutability": "view",
      "type": "function"
    },
    {
      "inputs": [
        {
          "internalType": "uint256",
          "name": "",
          "type": "uint256"
        }
      ],
      "name": "WETHToUSDCPath",
      "outputs": [
        {
          "internalType": "address",
          "name": "",
          "type": "address"
        }
      ],
      "stateMutability": "view",
      "type": "function"
    },
    {
      "inputs": [],
      "name": "WETH_ADDRESS",
      "outputs": [
        {
          "internalType": "address",
          "name": "",
          "type": "address"
        }
      ],
      "stateMutability": "view",
      "type": "function"
    },
    {
      "inputs": [
        {
          "internalType": "uint256",
          "name": "",
          "type": "uint256"
        }
      ],
      "name": "WMATICToUSDCPath",
      "outputs": [
        {
          "internalType": "address",
          "name": "",
          "type": "address"
        }
      ],
      "stateMutability": "view",
      "type": "function"
    },
    {
      "inputs": [],
      "name": "WMATIC_ADDRESS",
      "outputs": [
        {
          "internalType": "address",
          "name": "",
          "type": "address"
        }
      ],
      "stateMutability": "view",
      "type": "function"
    },
    {
      "inputs": [
        {
          "internalType": "address",
          "name": "owner",
          "type": "address"
        },
        {
          "internalType": "address",
          "name": "spender",
          "type": "address"
        }
      ],
      "name": "allowance",
      "outputs": [
        {
          "internalType": "uint256",
          "name": "",
          "type": "uint256"
        }
      ],
      "stateMutability": "view",
      "type": "function"
    },
    {
      "inputs": [
        {
          "internalType": "address",
          "name": "spender",
          "type": "address"
        },
        {
          "internalType": "uint256",
          "name": "amount",
          "type": "uint256"
        }
      ],
      "name": "approve",
      "outputs": [
        {
          "internalType": "bool",
          "name": "",
          "type": "bool"
        }
      ],
      "stateMutability": "nonpayable",
      "type": "function"
    },
    {
      "inputs": [
        {
          "internalType": "address",
          "name": "_token",
          "type": "address"
        },
        {
          "internalType": "address",
          "name": "_spender",
          "type": "address"
        }
      ],
      "name": "approveSpendingWholeBalance",
      "outputs": [],
      "stateMutability": "nonpayable",
      "type": "function"
    },
    {
      "inputs": [
        {
          "internalType": "address",
          "name": "token_address",
          "type": "address"
        },
        {
          "internalType": "address",
          "name": "spender_address",
          "type": "address"
        },
        {
          "internalType": "uint256",
          "name": "amount_to_approve",
          "type": "uint256"
        }
      ],
      "name": "approve_spending",
      "outputs": [],
      "stateMutability": "nonpayable",
      "type": "function"
    },
    {
      "inputs": [
        {
          "internalType": "address",
          "name": "account",
          "type": "address"
        }
      ],
      "name": "balanceOf",
      "outputs": [
        {
          "internalType": "uint256",
          "name": "",
          "type": "uint256"
        }
      ],
      "stateMutability": "view",
      "type": "function"
    },
    {
      "inputs": [
        {
          "internalType": "bytes",
          "name": "",
          "type": "bytes"
        }
      ],
      "name": "checkUpkeep",
      "outputs": [
        {
          "internalType": "bool",
          "name": "upkeepNeeded",
          "type": "bool"
        },
        {
          "internalType": "bytes",
          "name": "performData",
          "type": "bytes"
        }
      ],
      "stateMutability": "view",
      "type": "function"
    },
    {
      "inputs": [],
      "name": "decimals",
      "outputs": [
        {
          "internalType": "uint8",
          "name": "",
          "type": "uint8"
        }
      ],
      "stateMutability": "view",
      "type": "function"
    },
    {
      "inputs": [
        {
          "internalType": "address",
          "name": "spender",
          "type": "address"
        },
        {
          "internalType": "uint256",
          "name": "subtractedValue",
          "type": "uint256"
        }
      ],
      "name": "decreaseAllowance",
      "outputs": [
        {
          "internalType": "bool",
          "name": "",
          "type": "bool"
        }
      ],
      "stateMutability": "nonpayable",
      "type": "function"
    },
    {
      "inputs": [
        {
          "internalType": "uint256",
          "name": "deposit_amount",
          "type": "uint256"
        }
      ],
      "name": "depositUserFunds",
      "outputs": [],
      "stateMutability": "nonpayable",
      "type": "function"
    },
    {
      "inputs": [
        {
          "internalType": "address",
          "name": "_oracle_address",
          "type": "address"
        }
      ],
      "name": "getLatestPrice",
      "outputs": [
        {
          "internalType": "int256",
          "name": "",
          "type": "int256"
        }
      ],
      "stateMutability": "view",
      "type": "function"
    },
    {
      "inputs": [],
      "name": "getUSDPortfolioTotal",
      "outputs": [
        {
          "internalType": "uint256",
          "name": "Total_in_USD",
          "type": "uint256"
        }
      ],
      "stateMutability": "view",
      "type": "function"
    },
    {
      "inputs": [
        {
          "internalType": "address",
          "name": "token_address",
          "type": "address"
        },
        {
          "internalType": "address",
          "name": "oracle_address",
          "type": "address"
        },
        {
          "internalType": "uint256",
          "name": "token_decimals",
          "type": "uint256"
        }
      ],
      "name": "getUSDTokenBalanceOf",
      "outputs": [
        {
          "internalType": "uint256",
          "name": "",
          "type": "uint256"
        }
      ],
      "stateMutability": "view",
      "type": "function"
    },
    {
      "inputs": [
        {
          "internalType": "address",
          "name": "spender",
          "type": "address"
        },
        {
          "internalType": "uint256",
          "name": "addedValue",
          "type": "uint256"
        }
      ],
      "name": "increaseAllowance",
      "outputs": [
        {
          "internalType": "bool",
          "name": "",
          "type": "bool"
        }
      ],
      "stateMutability": "nonpayable",
      "type": "function"
    },
    {
      "inputs": [],
      "name": "interval",
      "outputs": [
        {
          "internalType": "uint256",
          "name": "",
          "type": "uint256"
        }
      ],
      "stateMutability": "view",
      "type": "function"
    },
    {
      "inputs": [],
      "name": "lastTimeStamp",
      "outputs": [
        {
          "internalType": "uint256",
          "name": "",
          "type": "uint256"
        }
      ],
      "stateMutability": "view",
      "type": "function"
    },
    {
      "inputs": [
        {
          "internalType": "address",
          "name": "user",
          "type": "address"
        },
        {
          "internalType": "uint256",
          "name": "portfolio_value_usd",
          "type": "uint256"
        }
      ],
      "name": "mintOnDeposit",
      "outputs": [],
      "stateMutability": "nonpayable",
      "type": "function"
    },
    {
      "inputs": [],
      "name": "name",
      "outputs": [
        {
          "internalType": "string",
          "name": "",
          "type": "string"
        }
      ],
      "stateMutability": "view",
      "type": "function"
    },
    {
      "inputs": [
        {
          "internalType": "bytes",
          "name": "performData",
          "type": "bytes"
        }
      ],
      "name": "performUpkeep",
      "outputs": [],
      "stateMutability": "nonpayable",
      "type": "function"
    },
    {
      "inputs": [],
      "name": "quickSwapRouter",
      "outputs": [
        {
          "internalType": "contract IUniswapV2Router02",
          "name": "",
          "type": "address"
        }
      ],
      "stateMutability": "view",
      "type": "function"
    },
    {
      "inputs": [
        {
          "internalType": "uint256",
          "name": "new_interval",
          "type": "uint256"
        }
      ],
      "name": "setInterval",
      "outputs": [],
      "stateMutability": "nonpayable",
      "type": "function"
    },
    {
      "inputs": [
        {
          "internalType": "uint256",
          "name": "_amountIn",
          "type": "uint256"
        },
        {
          "internalType": "uint256",
          "name": "_amountOutMin",
          "type": "uint256"
        },
        {
          "internalType": "address[]",
          "name": "_path",
          "type": "address[]"
        },
        {
          "internalType": "address",
          "name": "_acct",
          "type": "address"
        },
        {
          "internalType": "uint256",
          "name": "_deadline",
          "type": "uint256"
        }
      ],
      "name": "swap",
      "outputs": [],
      "stateMutability": "nonpayable",
      "type": "function"
    },
    {
      "inputs": [
        {
          "internalType": "address",
          "name": "_token",
          "type": "address"
        },
        {
          "internalType": "uint256",
          "name": "_amount",
          "type": "uint256"
        }
      ],
      "name": "swapBackToUSDC",
      "outputs": [],
      "stateMutability": "nonpayable",
      "type": "function"
    },
    {
      "inputs": [
        {
          "internalType": "uint256",
          "name": "amount",
          "type": "uint256"
        }
      ],
      "name": "swapIntoFourEqualParts",
      "outputs": [],
      "stateMutability": "nonpayable",
      "type": "function"
    },
    {
      "inputs": [
        {
          "internalType": "uint256",
          "name": "WMATIC_amount",
          "type": "uint256"
        },
        {
          "internalType": "uint256",
          "name": "SAND_amount",
          "type": "uint256"
        },
        {
          "internalType": "uint256",
          "name": "WETH_amount",
          "type": "uint256"
        },
        {
          "internalType": "uint256",
          "name": "WBTC_amount",
          "type": "uint256"
        },
        {
          "internalType": "uint256",
          "name": "totalUSDAmount",
          "type": "uint256"
        },
        {
          "internalType": "uint256",
          "name": "depositAmount",
          "type": "uint256"
        }
      ],
      "name": "swapProportionately",
      "outputs": [],
      "stateMutability": "nonpayable",
      "type": "function"
    },
    {
      "inputs": [],
      "name": "symbol",
      "outputs": [
        {
          "internalType": "string",
          "name": "",
          "type": "string"
        }
      ],
      "stateMutability": "view",
      "type": "function"
    },
    {
      "inputs": [],
      "name": "threshold_percentage",
      "outputs": [
        {
          "internalType": "uint256",
          "name": "",
          "type": "uint256"
        }
      ],
      "stateMutability": "view",
      "type": "function"
    },
    {
      "inputs": [
        {
          "internalType": "address",
          "name": "token_address",
          "type": "address"
        },
        {
          "internalType": "address",
          "name": "user_address",
          "type": "address"
        }
      ],
      "name": "tokenBalanceOf",
      "outputs": [
        {
          "internalType": "uint256",
          "name": "token_balance",
          "type": "uint256"
        }
      ],
      "stateMutability": "view",
      "type": "function"
    },
    {
      "inputs": [],
      "name": "totalSupply",
      "outputs": [
        {
          "internalType": "uint256",
          "name": "",
          "type": "uint256"
        }
      ],
      "stateMutability": "view",
      "type": "function"
    },
    {
      "inputs": [
        {
          "internalType": "address",
          "name": "to",
          "type": "address"
        },
        {
          "internalType": "uint256",
          "name": "amount",
          "type": "uint256"
        }
      ],
      "name": "transfer",
      "outputs": [
        {
          "internalType": "bool",
          "name": "",
          "type": "bool"
        }
      ],
      "stateMutability": "nonpayable",
      "type": "function"
    },
    {
      "inputs": [
        {
          "internalType": "address",
          "name": "from",
          "type": "address"
        },
        {
          "internalType": "address",
          "name": "to",
          "type": "address"
        },
        {
          "internalType": "uint256",
          "name": "amount",
          "type": "uint256"
        }
      ],
      "name": "transferFrom",
      "outputs": [
        {
          "internalType": "bool",
          "name": "",
          "type": "bool"
        }
      ],
      "stateMutability": "nonpayable",
      "type": "function"
    },
    {
      "inputs": [
        {
          "internalType": "uint256",
          "name": "amount_",
          "type": "uint256"
        },
        {
          "internalType": "address",
          "name": "token_address",
          "type": "address"
        },
        {
          "internalType": "address",
          "name": "address_to",
          "type": "address"
        }
      ],
      "name": "withdraw",
      "outputs": [],
      "stateMutability": "nonpayable",
      "type": "function"
    },
    {
      "inputs": [
        {
          "internalType": "address",
          "name": "user",
          "type": "address"
        }
      ],
      "name": "withdrawUserFunds",
      "outputs": [],
      "stateMutability": "nonpayable",
      "type": "function"
    },
    {
      "stateMutability": "payable",
      "type": "receive"
    }
  ],
  "bytecode": "0x6080604052346200027f576200002962000018620002ca565b62000022620002f0565b90620009f9565b62000232620000376200029b565b6000805160206200528183398151915281526200007660209162000070838201730d500b1d8e8ef31e21c99d1db9a6444d3adf12709052565b62000326565b620000b5620000846200029b565b60008051602062005281833981519152815273bbba073c31bf03b8acf7c28ef0738decf369568381840152620003c7565b620000f4620000c36200029b565b600080516020620052818339815191528152737ceb23fd6bc0add59e62ac25578270cff1b9f6198184015262000468565b62000133620001026200029b565b600080516020620052818339815191528152731bfd67037b42cf73acf2047067bd4f2c47d9bfd68184015262000509565b62000172620001416200029b565b730d500b1d8e8ef31e21c99d1db9a6444d3adf127081526000805160206200528183398151915281840152620005aa565b620001b1620001806200029b565b73bbba073c31bf03b8acf7c28ef0738decf3695683815260008051602062005281833981519152818401526200064b565b620001f0620001bf6200029b565b737ceb23fd6bc0add59e62ac25578270cff1b9f61981526000805160206200528183398151915281840152620006ec565b6200022c620001fe6200029b565b731bfd67037b42cf73acf2047067bd4f2c47d9bfd68152918201600080516020620052818339815191529052565b6200078d565b6200023e610e10600e55565b620002496005600f55565b601080546001600160a01b03191673a5e0829caced8ffdd4de3c43696c57f7d7a678ff17905560405161476e908162000b138239f35b600080fd5b50634e487b7160e01b600052604160045260246000fd5b60408051919082016001600160401b03811183821017620002bb57604052565b620002c562000284565b604052565b620002d46200029b565b90600c82526b30baba37a130b630b731b2b960a11b6020830152565b620002fa6200029b565b90600382526241424160e81b6020830152565b81811062000319575050565b600081556001016200030d565b600554906002918260055580831062000389575b5060056000526020806000206000925b84841062000359575050505050565b805182546001600160a01b0319166001600160a01b0391909116178255600193840193919091019082016200034a565b6005600052620003c0907f036b6384b5eca791c62761152d0c79bb0604c104a5fb6f4eb0703f3154bb3db09081019084016200030d565b386200033a565b60065490600291826006558083106200042a575b5060066000526020806000206000925b848410620003fa575050505050565b805182546001600160a01b0319166001600160a01b039190911617825560019384019391909101908201620003eb565b600660005262000461907ff652222313e28459528d920b65115c16c04f3efc82aaedc97be59f3f377c0d3f9081019084016200030d565b38620003db565b6007549060029182600755808310620004cb575b5060076000526020806000206000925b8484106200049b575050505050565b805182546001600160a01b0319166001600160a01b0391909116178255600193840193919091019082016200048c565b600760005262000502907fa66cc928b5edb82af9bd49922954155ab7b0942694bea4ce44661d9a8736c6889081019084016200030d565b386200047c565b60085490600291826008558083106200056c575b5060086000526020806000206000925b8484106200053c575050505050565b805182546001600160a01b0319166001600160a01b0391909116178255600193840193919091019082016200052d565b6008600052620005a3907ff3f7a9fe364faab93b216da50a3214154f22a0a2b415b23a84c8169e8b636ee39081019084016200030d565b386200051d565b60095490600291826009558083106200060d575b5060096000526020806000206000925b848410620005dd575050505050565b805182546001600160a01b0319166001600160a01b039190911617825560019384019391909101908201620005ce565b600960005262000644907f6e1540171b6c0c960b71a7020d9f60077f6af931a8bbf590da0223dacf75c7af9081019084016200030d565b38620005be565b600a549060029182600a55808310620006ae575b50600a6000526020806000206000925b8484106200067e575050505050565b805182546001600160a01b0319166001600160a01b0391909116178255600193840193919091019082016200066f565b600a600052620006e5907fc65a7bb8d6351c1cf70c95a316cc6a92839c986682d98bc35f958f4883f9d2a89081019084016200030d565b386200065f565b600b549060029182600b558083106200074f575b50600b6000526020806000206000925b8484106200071f575050505050565b805182546001600160a01b0319166001600160a01b03919091161782556001938401939190910190820162000710565b600b60005262000786907f0175b7a638427703f0dbe7bb9bbf987a2551717b34e79f33b5b1008d1fa01db99081019084016200030d565b3862000700565b600c549060029182600c55808310620007f0575b50600c6000526020806000206000925b848410620007c0575050505050565b805182546001600160a01b0319166001600160a01b039190911617825560019384019391909101908201620007b1565b600c60005262000827907fdf6966c971051c3d54ec59162606531493a51404a002842f56009d7e5cf4a8c79081019084016200030d565b38620007a1565b90600182811c9216801562000860575b60208310146200084a57565b634e487b7160e01b600052602260045260246000fd5b91607f16916200083e565b90601f821162000879575050565b620008aa9160036000526020600020906020601f840160051c83019310620008ac575b601f0160051c01906200030d565b565b90915081906200089c565b90601f8211620008c5575050565b620008aa9160046000526020600020906020601f840160051c83019310620008ac57601f0160051c01906200030d565b80519091906001600160401b038111620009e9575b62000922816200091c6004546200082e565b620008b7565b602080601f831160011462000961575081929360009262000955575b50508160011b916000199060031b1c191617600455565b0151905038806200093e565b6004600052601f198316949091907f8a35acfbc15ff81a39ae7d344fd709f28e8600b4aa8c65c6b64bfe7fe36bd19b926000905b878210620009d0575050836001959610620009b6575b505050811b01600455565b015160001960f88460031b161c19169055388080620009ab565b8060018596829496860151815501950193019062000995565b620009f362000284565b6200090a565b80519091906001600160401b03811162000b02575b62000a268162000a206003546200082e565b6200086b565b602080601f831160011462000a6d57508190620008aa9460009262000a61575b50508160011b916000199060031b1c191617600355620008f5565b01519050388062000a46565b60036000529293919291601f1984167fc2575a0e9e593c00f959f8c92f12db2869c3395a3b0502d05e2516446f71f85b936000905b82821062000ae9575050916001939185620008aa9796941062000acf575b505050811b01600355620008f5565b015160001960f88460031b161c1916905538808062000ac0565b8060018697829497870151815501960194019062000aa2565b62000b0c62000284565b62000a0e56fe6080604052600436101561001b575b361561001957600080fd5b005b60003560e01c8063040141e51461040357806306fdde03146103fa578063095ea7b3146103f1578063153f29c7146103e857806316345f18146103df57806318160ddd146103d65780631bea8006146103cd57806322a90082146103c457806323aad7af146103bb57806323b872dd146103b257806324e2e7bb146103a957806329a97ec2146103a05780632d365d3114610397578063313ce5671461038e57806339509351146103855780633f3b3b271461037c57806344345f23146103735780634585e33b1461036a57806351f5488714610361578063681bcf131461035857806369bc43881461034f5780636e04ff0d1461034657806370a082311461033d578063718176e514610334578063764f96f91461032b57806388e42b08146103225780638db9f39a1461031957806390f11e841461031057806394362e8b14610307578063947a36fb146102fe57806395d89b41146102f5578063a15c7d10146102ec578063a457c2d7146102e3578063a48ce279146102da578063a9059cbb146102d1578063aa5a7aa3146102c8578063b460af94146102bf578063b6e20a6a146102b6578063bb09d9b7146102ad578063bdd5915f146102a4578063c5764eec1461029b578063ca97090514610292578063cb3601b114610289578063cd3f5b5314610280578063cf41281014610277578063d09191161461026e578063d239c68114610265578063dd62ed3e1461025c578063e189eb42146102535763e95d83280361000e5761024e61289f565b61000e565b5061024e61284c565b5061024e6127b6565b5061024e612779565b5061024e61272b565b5061024e61267b565b5061024e61262d565b5061024e6125a7565b5061024e612521565b5061024e6123e4565b5061024e612396565b5061024e612348565b5061024e6122fa565b5061024e612200565b5061024e61212e565b5061024e6120e9565b5061024e612063565b5061024e611f57565b5061024e611ed1565b5061024e611def565b5061024e611db2565b5061024e611d6e565b5061024e611c59565b5061024e611aeb565b5061024e611ab0565b5061024e611a66565b5061024e611a18565b5061024e6119b2565b5061024e61121d565b5061024e61117e565b5061024e6110f8565b5061024e61106e565b5061024e610e4c565b5061024e610d5e565b5061024e610d21565b5061024e610c9c565b5061024e610c61565b5061024e610c13565b5061024e610bfb565b5061024e610a3d565b5061024e610926565b5061024e610840565b5061024e6107d8565b5061024e61078d565b5061024e610750565b5061024e61070e565b5061024e6106cc565b5061024e61067c565b5061024e6104d9565b50346104515760007ffffffffffffffffffffffffffffffffffffffffffffffffffffffffffffffffc360112610451576020604051737ceb23fd6bc0add59e62ac25578270cff1b9f6198152f35b600080fd5b91908251928382526000905b8482106104ad5750601f84602094957fffffffffffffffffffffffffffffffffffffffffffffffffffffffffffffffe093116104a0575b0116010190565b6000858286010152610499565b90602090818082850101519082860101520190610462565b9060206104d6928181520190610456565b90565b5034610451576000807ffffffffffffffffffffffffffffffffffffffffffffffffffffffffffffffffc3601126106335760405190806003549060019180831c92808216928315610629575b60209283861085146105fc5785885260208801949081156105c25750600114610569575b6105658761055981890382611b69565b604051918291826104c5565b0390f35b600360005294509192917fc2575a0e9e593c00f959f8c92f12db2869c3395a3b0502d05e2516446f71f85b5b8386106105b15750505091019050610559826105653880610549565b805485870152948201948101610595565b7fffffffffffffffffffffffffffffffffffffffffffffffffffffffffffffff001685525050500191506105599050826105653880610549565b6024827f4e487b710000000000000000000000000000000000000000000000000000000081526022600452fd5b93607f1693610525565b80fd5b6004359073ffffffffffffffffffffffffffffffffffffffff8216820361045157565b6024359073ffffffffffffffffffffffffffffffffffffffff8216820361045157565b50346104515760407ffffffffffffffffffffffffffffffffffffffffffffffffffffffffffffffffc360112610451576106c16106b7610636565b6024359033612bd4565b602060405160018152f35b50346104515760007ffffffffffffffffffffffffffffffffffffffffffffffffffffffffffffffffc360112610451576020610706613c21565b604051908152f35b50346104515760207ffffffffffffffffffffffffffffffffffffffffffffffffffffffffffffffffc36011261045157602061070661074b610636565b612db2565b50346104515760007ffffffffffffffffffffffffffffffffffffffffffffffffffffffffffffffffc360112610451576020600254604051908152f35b50346104515760407ffffffffffffffffffffffffffffffffffffffffffffffffffffffffffffffffc3601126104515760206107066107ca610636565b6107d2610659565b906145aa565b50346104515760207ffffffffffffffffffffffffffffffffffffffffffffffffffffffffffffffffc36011261045157600435600e55005b507f4e487b7100000000000000000000000000000000000000000000000000000000600052603260045260246000fd5b50346104515760207ffffffffffffffffffffffffffffffffffffffffffffffffffffffffffffffffc360112610451576004356006548110156104515773ffffffffffffffffffffffffffffffffffffffff60209160066000527ff652222313e28459528d920b65115c16c04f3efc82aaedc97be59f3f377c0d3f015416604051908152f35b7ffffffffffffffffffffffffffffffffffffffffffffffffffffffffffffffffc60609101126104515773ffffffffffffffffffffffffffffffffffffffff90600435828116810361045157916024359081168103610451579060443590565b503461045157610935366108c6565b9073ffffffffffffffffffffffffffffffffffffffff831660005260016020526109833360406000209073ffffffffffffffffffffffffffffffffffffffff16600052602052604060002090565b54927fffffffffffffffffffffffffffffffffffffffffffffffffffffffffffffffff84036109c3575b6109b79350612a4b565b60405160018152602090f35b8284106109df576109da836109b795033383612bd4565b6109ad565b60646040517f08c379a000000000000000000000000000000000000000000000000000000000815260206004820152601d60248201527f45524332303a20696e73756666696369656e7420616c6c6f77616e63650000006044820152fd5b50346104515760207ffffffffffffffffffffffffffffffffffffffffffffffffffffffffffffffffc36011261045157610019610a78610636565b73ffffffffffffffffffffffffffffffffffffffff81166000526000602052610bb8610ab2604060002054610aac3061434f565b9061309c565b610bb3610ac26002548093613119565b91610bae610b0682610b01610af78973ffffffffffffffffffffffffffffffffffffffff166000526000602052604060002090565b54610aac306143e6565b613119565b610ba9610b7f610b4785610b01610b3d8c73ffffffffffffffffffffffffffffffffffffffff166000526000602052604060002090565b54610aac30614457565b94610b01610b758b73ffffffffffffffffffffffffffffffffffffffff166000526000602052604060002090565b54610aac306144c8565b95610b8981613563565b610b92836135fd565b610b9b8561366f565b610ba4876136e1565b6141a9565b61421d565b614283565b6142e9565b610bca81610bc530614539565b614134565b610bf48173ffffffffffffffffffffffffffffffffffffffff166000526000602052604060002090565b5490613f62565b503461045157610019610c0d366108c6565b9161383c565b50346104515760007ffffffffffffffffffffffffffffffffffffffffffffffffffffffffffffffffc36011261045157602060405173bbba073c31bf03b8acf7c28ef0738decf36956838152f35b50346104515760007ffffffffffffffffffffffffffffffffffffffffffffffffffffffffffffffffc36011261045157602060405160128152f35b50346104515760407ffffffffffffffffffffffffffffffffffffffffffffffffffffffffffffffffc360112610451576106c1610cd7610636565b336000526001602052610d1a602435610d148360406000209073ffffffffffffffffffffffffffffffffffffffff16600052602052604060002090565b5461291d565b9033612bd4565b50346104515760007ffffffffffffffffffffffffffffffffffffffffffffffffffffffffffffffffc360112610451576020600d54604051908152f35b50346104515760207ffffffffffffffffffffffffffffffffffffffffffffffffffffffffffffffffc36011261045157600435600b548110156104515773ffffffffffffffffffffffffffffffffffffffff602091600b6000527f0175b7a638427703f0dbe7bb9bbf987a2551717b34e79f33b5b1008d1fa01db9015416604051908152f35b9060207ffffffffffffffffffffffffffffffffffffffffffffffffffffffffffffffffc8301126104515760043567ffffffffffffffff9283821161045157806023830112156104515781600401359384116104515760248483010111610451576024019190565b503461045157610e5b36610de4565b90610e68600d5442613007565b600e5410610e7257005b610e7b42600d55565b610e98610e866131ea565b91610e8f613225565b9381019061347d565b9160005b83519060ff81169182101561001957610fce91610efb610eea610ed0610eca610ec4866133ad565b60ff1690565b88612f61565b5173ffffffffffffffffffffffffffffffffffffffff1690565b610ef48389612f61565b5190613753565b730d500b1d8e8ef31e21c99d1db9a6444d3adf127080610f45610f2c610ed0610f26610ec4886133ad565b8a612f61565b73ffffffffffffffffffffffffffffffffffffffff1690565b14908115611047575b5015610fd357610fc0610fc991610f94610f70610ed0610f26610ec4886133ad565b610f7988612f18565b9073ffffffffffffffffffffffffffffffffffffffff169052565b610fba610fb1610ed0610f26610ec4610fac896133ad565b6133d4565b610f7988612f2e565b87612f61565b51843091614685565b612f83565b610e9c565b61103e610fc991610ff8610fef610ed0610f26610ec4886133ad565b610f798b612f18565b61101d6110048a612f2e565b730d500b1d8e8ef31e21c99d1db9a6444d3adf12709052565b610fba611035610ed0610f26610ec4610fac896133ad565b610f798b612f3f565b51873091614685565b9050611067610f2c610ed0611061610ec4610fac886133ad565b89612f61565b1438610f4e565b5034610451576020610aac6110ce600261109f61109961108d366108c6565b969192909230906145aa565b91612db2565b927ffffffffffffffffffffffffffffffffffffffffffffffffffffffffffffffffd81116110eb575b016130cd565b80156110de575b60405191048152f35b6110e66130e9565b6110d5565b6110f36128ed565b6110c8565b50346104515760207ffffffffffffffffffffffffffffffffffffffffffffffffffffffffffffffffc360112610451576004356009548110156104515773ffffffffffffffffffffffffffffffffffffffff60209160096000527f6e1540171b6c0c960b71a7020d9f60077f6af931a8bbf590da0223dacf75c7af015416604051908152f35b50346104515760207ffffffffffffffffffffffffffffffffffffffffffffffffffffffffffffffffc360112610451576004356005548110156104515773ffffffffffffffffffffffffffffffffffffffff60209160056000527f036b6384b5eca791c62761152d0c79bb0604c104a5fb6f4eb0703f3154bb3db0015416604051908152f35b6040906104d69392151581528160208201520190610456565b50346104515761122c36610de4565b50506000611238612ec1565b90611241612e62565b730d500b1d8e8ef31e21c99d1db9a6444d3adf127060208201529060409161127e83820173ab594600376ec9fd91f8e885dadf0ce036862de09052565b611286612e62565b73bbba073c31bf03b8acf7c28ef0738decf36956836020820152733d49406edd4d52fb7ffd25485f32e073b529c924818501526112c1612e62565b731bfd67037b42cf73acf2047067bd4f2c47d9bfd660208201529073c907e116054ad103354f2d350fd2514433d57f6f828601526112fd612e62565b737ceb23fd6bc0add59e62ac25578270cff1b9f61960208201529273f9680d99d6c9589e2a93a78a04a279e5092059458487015261133a87612f18565b5261134486612f18565b5061134e86612f2e565b5261135885612f2e565b5061136285612f3f565b5261136c84612f3f565b5061137684612f50565b5261138083612f50565b5080805b845160ff9081841610156115cb5761154f918161154061152461151a8a610aac6115148a60e061150b8f8f9c806115499e8960206114f0956113ee610f2c610f2c846113d2898f1688612f61565b51015173ffffffffffffffffffffffffffffffffffffffff1690565b908a8a61148b8351967f70a08231000000000000000000000000000000000000000000000000000000008852600497878180611449308d830191909173ffffffffffffffffffffffffffffffffffffffff6020820193169052565b03818a5afa9081156115be575b8a91611591575b50608061146c8c871684612f61565b5101528961148361074b876113d284891686612f61565b941690612f61565b51015251928380927f313ce5670000000000000000000000000000000000000000000000000000000082525afa918215611584575b91611555575b506114d96060938492169288168b612f61565b5101526114e88c861689612f61565b510151612fbd565b958a608061150082871684612f61565b510151941690612f61565b5101519061309c565b916130cd565b6305f5e100900490565b9160a09283611535838a168d612f61565b510152861689612f61565b5101519061291d565b91612f83565b90611384565b611577915060203d60201161157d575b61156f8183611b69565b810190612fa4565b386114c6565b503d611565565b61158c612da5565b6114c0565b6115b19150883d8a116115b7575b6115a98183611b69565b810190612f95565b3861145d565b503d61159f565b6115c6612da5565b611456565b5083838681600f54925b825160ff8216908110156116575761163a87610b016116358461162d8161161660a06116028e9a8e612f61565b5101516116108d5189613119565b9061312f565b8b61162460c0958692612f61565b5101528a612f61565b510151613513565b61301e565b1161164e575b61164990612f83565b6115d5565b60019150611640565b5050929150600090819382936116756116708451612fd9565b61319b565b9161168b6116706116868651612fd9565b61305e565b96855b6116988651612fd9565b9360ff93848316958610156119625760005b8851868216908110156117255760c08a8c8284816116c88286612f61565b5101511515938461170c575b505050506116ed575b50506116e890612f83565b6116aa565b909550819a506117016116e892968b612f61565b51015199908d6116dd565b61171892939450612f61565b510151138c82848e6116d4565b505090975097929093979491947f7fffffffffffffffffffffffffffffffffffffffffffffffffffffffffffffff9760005b88518c858316918210156117d4575060c08a8c8284816117778286612f61565b510151151593846117bb575b5050505061179c575b505061179790612f83565b611757565b909650819a506117b061179792978b612f61565b51015199908d61178c565b6117c792939450612f61565b510151128c82848e611783565b6118f2925060209150876118ec6113d292610fc9969a9f6118d98f8c9f9c9a9e9a610f799389928f9261190a9f806113d295169360c091826118168787612f61565b5101519c16809c61182b8461162d8489612f61565b1215611912578261187f826118496118d39661162d6000968b612f61565b6118538689612f61565b5261185e8588612f61565b516118778461186d8c8c612f61565b510191825161312f565b905287612f61565b5101526118cd6118b061189b6118958487612f61565b516132cb565b60e06118a78989612f61565b5101519061333e565b6118c76118c260606114e88a8a612f61565b6130cd565b9061333e565b92612f61565b52612f61565b916118e6610ec48b6133ad565b90612f61565b8b612f61565b610f79611904610ec4610fac866133ad565b8d612f61565b92919261168e565b506000826119276118d39461162d8989612f61565b6119318487612f61565b528d6119568261194c611944878a612f61565b51938a612f61565b510191825161325f565b905261187f8787612f61565b61056587926119a88d61197c835196879260208401613430565b037fffffffffffffffffffffffffffffffffffffffffffffffffffffffffffffffe08101865285611b69565b5192839283611204565b50346104515760207ffffffffffffffffffffffffffffffffffffffffffffffffffffffffffffffffc3601126104515773ffffffffffffffffffffffffffffffffffffffff6119ff610636565b1660005260006020526020604060002054604051908152f35b50346104515760007ffffffffffffffffffffffffffffffffffffffffffffffffffffffffffffffffc36011261045157602060405173f9680d99d6c9589e2a93a78a04a279e5092059458152f35b50346104515760c07ffffffffffffffffffffffffffffffffffffffffffffffffffffffffffffffffc3601126104515761001960a435608435606435604435602435600435613e5f565b50346104515760207ffffffffffffffffffffffffffffffffffffffffffffffffffffffffffffffffc36011261045157610019600435613ee7565b50346104515760007ffffffffffffffffffffffffffffffffffffffffffffffffffffffffffffffffc36011261045157602060405173ab594600376ec9fd91f8e885dadf0ce036862de08152f35b507f4e487b7100000000000000000000000000000000000000000000000000000000600052604160045260246000fd5b90601f7fffffffffffffffffffffffffffffffffffffffffffffffffffffffffffffffe0910116810190811067ffffffffffffffff821117611baa57604052565b611bb2611b39565b604052565b60209067ffffffffffffffff8111611bd1575b60051b0190565b611bd9611b39565b611bca565b81601f8201121561045157803591611bf583611bb7565b92611c036040519485611b69565b808452602092838086019260051b820101928311610451578301905b828210611c2d575050505090565b813573ffffffffffffffffffffffffffffffffffffffff81168103610451578152908301908301611c1f565b50346104515760a07ffffffffffffffffffffffffffffffffffffffffffffffffffffffffffffffffc3601126104515760443567ffffffffffffffff811161045157611ca9903690600401611bde565b6064359073ffffffffffffffffffffffffffffffffffffffff80831680930361045157600091611d26916010541690836040518096819582947f38ed17390000000000000000000000000000000000000000000000000000000084526004356004850152602435602485015260a0604485015260a48401906133e6565b906064830152608435608483015203925af18015611d61575b611d4557005b610019903d806000833e611d598183611b69565b81019061460b565b611d69612da5565b611d3f565b50346104515760407ffffffffffffffffffffffffffffffffffffffffffffffffffffffffffffffffc36011261045157610019611da9610636565b60243590613f18565b50346104515760007ffffffffffffffffffffffffffffffffffffffffffffffffffffffffffffffffc360112610451576020600e54604051908152f35b5034610451576000807ffffffffffffffffffffffffffffffffffffffffffffffffffffffffffffffffc3601126106335760405190806004549060019180831c92808216928315611ec7575b60209283861085146105fc5785885260208801949081156105c25750600114611e6e576105658761055981890382611b69565b600460005294509192917f8a35acfbc15ff81a39ae7d344fd709f28e8600b4aa8c65c6b64bfe7fe36bd19b5b838610611eb65750505091019050610559826105653880610549565b805485870152948201948101611e9a565b93607f1693611e3b565b50346104515760207ffffffffffffffffffffffffffffffffffffffffffffffffffffffffffffffffc360112610451576004356008548110156104515773ffffffffffffffffffffffffffffffffffffffff60209160086000527ff3f7a9fe364faab93b216da50a3214154f22a0a2b415b23a84c8169e8b636ee3015416604051908152f35b50346104515760407ffffffffffffffffffffffffffffffffffffffffffffffffffffffffffffffffc36011261045157611f8f610636565b60243590336000526001602052611fca8160406000209073ffffffffffffffffffffffffffffffffffffffff16600052602052604060002090565b5491808310611fdf576109b792039033612bd4565b60846040517f08c379a000000000000000000000000000000000000000000000000000000000815260206004820152602560248201527f45524332303a2064656372656173656420616c6c6f77616e63652062656c6f7760448201527f207a65726f0000000000000000000000000000000000000000000000000000006064820152fd5b50346104515760207ffffffffffffffffffffffffffffffffffffffffffffffffffffffffffffffffc36011261045157600435600a548110156104515773ffffffffffffffffffffffffffffffffffffffff602091600a6000527fc65a7bb8d6351c1cf70c95a316cc6a92839c986682d98bc35f958f4883f9d2a8015416604051908152f35b50346104515760407ffffffffffffffffffffffffffffffffffffffffffffffffffffffffffffffffc360112610451576106c1612124610636565b6024359033612a4b565b50346104515760407ffffffffffffffffffffffffffffffffffffffffffffffffffffffffffffffffc36011261045157610019612169610636565b612171610659565b604051917f70a0823100000000000000000000000000000000000000000000000000000000835230600484015260208360248173ffffffffffffffffffffffffffffffffffffffff85165afa9283156121f3575b6000936121d3575b5061383c565b6121ec91935060203d81116115b7576115a98183611b69565b91386121cd565b6121fb612da5565b6121c5565b50346104515760607ffffffffffffffffffffffffffffffffffffffffffffffffffffffffffffffffc36011261045157612238610659565b73ffffffffffffffffffffffffffffffffffffffff906044358281168103610451576040517fa9059cbb00000000000000000000000000000000000000000000000000000000815273ffffffffffffffffffffffffffffffffffffffff919091166004808301919091523560248201529160209183916044918391600091165af180156122ed575b6122c657005b6100199060203d81116122e6575b6122de8183611b69565b81019061354b565b503d6122d4565b6122f5612da5565b6122c0565b50346104515760007ffffffffffffffffffffffffffffffffffffffffffffffffffffffffffffffffc36011261045157602060405173c907e116054ad103354f2d350fd2514433d57f6f8152f35b50346104515760007ffffffffffffffffffffffffffffffffffffffffffffffffffffffffffffffffc360112610451576020604051732791bca1f2de4661ed88a30c99a7a9449aa841748152f35b50346104515760007ffffffffffffffffffffffffffffffffffffffffffffffffffffffffffffffffc360112610451576020604051731bfd67037b42cf73acf2047067bd4f2c47d9bfd68152f35b50346104515760207ffffffffffffffffffffffffffffffffffffffffffffffffffffffffffffffffc360112610451576040517f23b872dd000000000000000000000000000000000000000000000000000000008152336004808301919091523060248301523560448201819052906020816064816000732791bca1f2de4661ed88a30c99a7a9449aa841745af18015612514575b6124f6575b50612487613995565b61248f613a70565b612497613adf565b61249f613b4e565b916124b7836124b2846124b2858961291d565b61291d565b936124c1866137ca565b84156124de5792610019959285926124d895613e5f565b33613f18565b5050505050806124f061001992613ee7565b336138a4565b61250d9060203d81116122e6576122de8183611b69565b503861247e565b61251c612da5565b612479565b50346104515760207ffffffffffffffffffffffffffffffffffffffffffffffffffffffffffffffffc36011261045157600435600c548110156104515773ffffffffffffffffffffffffffffffffffffffff602091600c6000527fdf6966c971051c3d54ec59162606531493a51404a002842f56009d7e5cf4a8c7015416604051908152f35b50346104515760207ffffffffffffffffffffffffffffffffffffffffffffffffffffffffffffffffc360112610451576004356007548110156104515773ffffffffffffffffffffffffffffffffffffffff60209160076000527fa66cc928b5edb82af9bd49922954155ab7b0942694bea4ce44661d9a8736c688015416604051908152f35b50346104515760007ffffffffffffffffffffffffffffffffffffffffffffffffffffffffffffffffc360112610451576020604051733d49406edd4d52fb7ffd25485f32e073b529c9248152f35b50346104515760407ffffffffffffffffffffffffffffffffffffffffffffffffffffffffffffffffc360112610451576100196126b6610636565b73ffffffffffffffffffffffffffffffffffffffff6126d36131ea565b9182511561271e575b166020820152805160011015612711575b732791bca1f2de4661ed88a30c99a7a9449aa8417460408201523090602435614685565b612719610810565b6126ed565b612726610810565b6126dc565b50346104515760007ffffffffffffffffffffffffffffffffffffffffffffffffffffffffffffffffc36011261045157602060405173a5e0829caced8ffdd4de3c43696c57f7d7a678ff8152f35b50346104515760007ffffffffffffffffffffffffffffffffffffffffffffffffffffffffffffffffc360112610451576020600f54604051908152f35b50346104515760407ffffffffffffffffffffffffffffffffffffffffffffffffffffffffffffffffc3601126104515760206128436127f3610636565b73ffffffffffffffffffffffffffffffffffffffff612810610659565b91166000526001835260406000209073ffffffffffffffffffffffffffffffffffffffff16600052602052604060002090565b54604051908152f35b50346104515760007ffffffffffffffffffffffffffffffffffffffffffffffffffffffffffffffffc36011261045157602073ffffffffffffffffffffffffffffffffffffffff60105416604051908152f35b50346104515760007ffffffffffffffffffffffffffffffffffffffffffffffffffffffffffffffffc360112610451576020604051730d500b1d8e8ef31e21c99d1db9a6444d3adf12708152f35b507f4e487b7100000000000000000000000000000000000000000000000000000000600052601160045260246000fd5b81198111612929570190565b6129316128ed565b0190565b1561293c57565b60846040517f08c379a000000000000000000000000000000000000000000000000000000000815260206004820152602360248201527f45524332303a207472616e7366657220746f20746865207a65726f206164647260448201527f65737300000000000000000000000000000000000000000000000000000000006064820152fd5b156129c757565b60846040517f08c379a000000000000000000000000000000000000000000000000000000000815260206004820152602660248201527f45524332303a207472616e7366657220616d6f756e742065786365656473206260448201527f616c616e636500000000000000000000000000000000000000000000000000006064820152fd5b919073ffffffffffffffffffffffffffffffffffffffff90818416928315612b5057612b2e827fddf252ad1be2c89b69c2b068fc378daa952ba7f163c4a11628f55a4df523b3ef94612b4b941696612aa4881515612935565b612b0784612ad28373ffffffffffffffffffffffffffffffffffffffff166000526000602052604060002090565b54612adf828210156129c0565b039173ffffffffffffffffffffffffffffffffffffffff166000526000602052604060002090565b5573ffffffffffffffffffffffffffffffffffffffff166000526000602052604060002090565b612b3982825461291d565b90556040519081529081906020820190565b0390a3565b60846040517f08c379a000000000000000000000000000000000000000000000000000000000815260206004820152602560248201527f45524332303a207472616e736665722066726f6d20746865207a65726f20616460448201527f64726573730000000000000000000000000000000000000000000000000000006064820152fd5b9073ffffffffffffffffffffffffffffffffffffffff91828116928315612d0b578216938415612c875780612c767f8c5be1e5ebec7d5bd14f71427d1e84f3dd0314c0f7b2291e5b200ac8c7c3b92594612c51612b4b9573ffffffffffffffffffffffffffffffffffffffff166000526001602052604060002090565b9073ffffffffffffffffffffffffffffffffffffffff16600052602052604060002090565b556040519081529081906020820190565b60846040517f08c379a000000000000000000000000000000000000000000000000000000000815260206004820152602260248201527f45524332303a20617070726f766520746f20746865207a65726f20616464726560448201527f73730000000000000000000000000000000000000000000000000000000000006064820152fd5b60846040517f08c379a0000000000000000000000000000000000000000000000000000000008152602060048201526024808201527f45524332303a20617070726f76652066726f6d20746865207a65726f2061646460448201527f72657373000000000000000000000000000000000000000000000000000000006064820152fd5b519069ffffffffffffffffffff8216820361045157565b506040513d6000823e3d90fd5b60a073ffffffffffffffffffffffffffffffffffffffff916004604051809481937ffeaf968c000000000000000000000000000000000000000000000000000000008352165afa908115612e55575b600091612e0c575090565b9060a0823d8211612e4d575b81612e2560a09383611b69565b810103126106335750612e3781612d8e565b50612e49608060208301519201612d8e565b5090565b3d9150612e18565b612e5d612da5565b612e01565b60405190610100820182811067ffffffffffffffff821117612eb4575b604052816060815260e06000918260208201528260408201528260608201528260808201528260a08201528260c08201520152565b612ebc611b39565b612e7f565b6040519060a0820182811067ffffffffffffffff821117612f0b575b604052600482528160005b60808110612ef4575050565b602090612eff612e62565b82828501015201612ee8565b612f13611b39565b612edd565b602090805115612f26570190565b612931610810565b604090805160011015612f26570190565b606090805160021015612f26570190565b608090805160031015612f26570190565b6020918151811015612f76575b60051b010190565b612f7e610810565b612f6e565b60ff6001911660ff8114612929570190565b90816020910312610451575190565b90816020910312610451575160ff811681036104515790565b80601210612fcc575b60120390565b612fd46128ed565b612fc6565b7fffffffffffffffffffffffffffffffffffffffffffffffffffffffffffffffff9060018110612929570190565b818110613012570390565b61301a6128ed565b0390565b606490807fffffffffffffffffffffffffffffffffffffffffffffffffffffffffffffffff04821181151516613052570290565b61305a6128ed565b0290565b7f7fffffffffffffffffffffffffffffffffffffffffffffffffffffffffffffff811160011661308f575b60011b90565b6130976128ed565b613089565b807fffffffffffffffffffffffffffffffffffffffffffffffffffffffffffffffff04821181151516613052570290565b604d81116130dc575b600a0a90565b6130e46128ed565b6130d6565b507f4e487b7100000000000000000000000000000000000000000000000000000000600052601260045260246000fd5b8115613123570490565b61312b6130e9565b0490565b60008212827f800000000000000000000000000000000000000000000000000000000000000001821281151661318e575b827f7fffffffffffffffffffffffffffffffffffffffffffffffffffffffffffffff01821316613012570390565b6131966128ed565b613160565b906131a582611bb7565b6131b26040519182611b69565b8281527fffffffffffffffffffffffffffffffffffffffffffffffffffffffffffffffe06131e08294611bb7565b0190602036910137565b604051906060820182811067ffffffffffffffff821117613218575b60405260028252604082602036910137565b613220611b39565b613206565b604051906080820182811067ffffffffffffffff821117613252575b604052600382526060366020840137565b61325a611b39565b613241565b60008112817f7fffffffffffffffffffffffffffffffffffffffffffffffffffffffffffffff0383138115166132be575b817f800000000000000000000000000000000000000000000000000000000000000003831216612929570190565b6132c66128ed565b613290565b6305f5e1009060017c15798ee2308c39df9fb841a566d74f87a7a9a7aeb02c2d2f8e0d1e768d8211600083131616613331575b60017fffffffea86711dcf73c6206047be5a9928b078585658514fd3d2d071f2e189738212600083121616613052570290565b6133396128ed565b6132fe565b81156133a0575b7fffffffffffffffffffffffffffffffffffffffffffffffffffffffffffffffff82147f8000000000000000000000000000000000000000000000000000000000000000821416613394570590565b61339c6128ed565b0590565b6133a86130e9565b613345565b6101fe90607f60ff8216116001166133c7575b60011b1690565b6133cf6128ed565b6133c0565b60ff6001911660fe8111612929570190565b90815180825260208080930193019160005b828110613406575050505090565b835173ffffffffffffffffffffffffffffffffffffffff16855293810193928101926001016133f8565b90613443906040835260408301906133e6565b81810360209283015282518082529082019282019160005b828110613469575050505090565b83518552938101939281019260010161345b565b91906040838203126104515767ffffffffffffffff92803584811161045157826134a8918301611bde565b936020918281013591821161045157019180601f840112156104515782356134cf81611bb7565b936134dd6040519586611b69565b818552838086019260051b820101928311610451578301905b828210613504575050505090565b813581529083019083016134f6565b6000808212613520575090565b7f80000000000000000000000000000000000000000000000000000000000000008214613012570390565b90816020910312610451575180151581036104515790565b604051907f095ea7b300000000000000000000000000000000000000000000000000000000825273a5e0829caced8ffdd4de3c43696c57f7d7a678ff600483015260248201526020816044816000730d500b1d8e8ef31e21c99d1db9a6444d3adf12705af180156135f0575b6135d65750565b6135ed9060203d81116122e6576122de8183611b69565b50565b6135f8612da5565b6135cf565b604051907f095ea7b300000000000000000000000000000000000000000000000000000000825273a5e0829caced8ffdd4de3c43696c57f7d7a678ff60048301526024820152602081604481600073bbba073c31bf03b8acf7c28ef0738decf36956835af180156135f0576135d65750565b604051907f095ea7b300000000000000000000000000000000000000000000000000000000825273a5e0829caced8ffdd4de3c43696c57f7d7a678ff600483015260248201526020816044816000737ceb23fd6bc0add59e62ac25578270cff1b9f6195af180156135f0576135d65750565b604051907f095ea7b300000000000000000000000000000000000000000000000000000000825273a5e0829caced8ffdd4de3c43696c57f7d7a678ff600483015260248201526020816044816000731bfd67037b42cf73acf2047067bd4f2c47d9bfd65af180156135f0576135d65750565b602090604473ffffffffffffffffffffffffffffffffffffffff93600060405195869485937f095ea7b300000000000000000000000000000000000000000000000000000000855273a5e0829caced8ffdd4de3c43696c57f7d7a678ff60048601526024850152165af180156135f0576135d65750565b604051907f095ea7b300000000000000000000000000000000000000000000000000000000825273a5e0829caced8ffdd4de3c43696c57f7d7a678ff600483015260248201526020816044816000732791bca1f2de4661ed88a30c99a7a9449aa841745af180156135f0576135d65750565b6040517f095ea7b300000000000000000000000000000000000000000000000000000000815273ffffffffffffffffffffffffffffffffffffffff9283166004820152602481019390935260209183916044918391600091165af180156135f0576135d65750565b73ffffffffffffffffffffffffffffffffffffffff8116918215613937576020816139216000946138f87fddf252ad1be2c89b69c2b068fc378daa952ba7f163c4a11628f55a4df523b3ef9560025461291d565b60025573ffffffffffffffffffffffffffffffffffffffff166000526000602052604060002090565b61392c82825461291d565b9055604051908152a3565b60646040517f08c379a000000000000000000000000000000000000000000000000000000000815260206004820152601f60248201527f45524332303a206d696e7420746f20746865207a65726f2061646472657373006044820152fd5b61399e3061434f565b6040517ffeaf968c00000000000000000000000000000000000000000000000000000000815260a08160048173ab594600376ec9fd91f8e885dadf0ce036862de05afa908115613a63575b600091613a06575b5061312b9068056bc75e2d631000009261309c565b9060a0823d8211613a5b575b81613a1f60a09383611b69565b81010312610633575068056bc75e2d631000009181613a4061312b93612d8e565b50613a52608060208301519201612d8e565b509150916139f1565b3d9150613a12565b613a6b612da5565b6139e9565b613a79306143e6565b6040517ffeaf968c00000000000000000000000000000000000000000000000000000000815260a081600481733d49406edd4d52fb7ffd25485f32e073b529c9245afa908115613a6357600091613a06575061312b9068056bc75e2d631000009261309c565b613ae830614457565b6040517ffeaf968c00000000000000000000000000000000000000000000000000000000815260a08160048173f9680d99d6c9589e2a93a78a04a279e5092059455afa908115613a6357600091613a06575061312b9068056bc75e2d631000009261309c565b613b57306144c8565b6040517ffeaf968c00000000000000000000000000000000000000000000000000000000815260a08160048173c907e116054ad103354f2d350fd2514433d57f6f5afa908115613c14575b600091613bbb575b5061312b906402540be4009261309c565b9060a0823d8211613c0c575b81613bd460a09383611b69565b8101031261063357506402540be4009181613bf161312b93612d8e565b50613c03608060208301519201612d8e565b50915091613baa565b3d9150613bc7565b613c1c612da5565b613ba2565b6104d6613c2c613995565b6124b2613c37613a70565b6124b2613c42613adf565b91613c4b613b4e565b9461291d565b60405190600554808352826020918282019060056000527f036b6384b5eca791c62761152d0c79bb0604c104a5fb6f4eb0703f3154bb3db0936000905b828210613ca657505050613ca492500383611b69565b565b855473ffffffffffffffffffffffffffffffffffffffff1684526001958601958895509381019390910190613c8e565b60405190600654808352826020918282019060066000527ff652222313e28459528d920b65115c16c04f3efc82aaedc97be59f3f377c0d3f936000905b828210613d2957505050613ca492500383611b69565b855473ffffffffffffffffffffffffffffffffffffffff1684526001958601958895509381019390910190613d13565b60405190600754808352826020918282019060076000527fa66cc928b5edb82af9bd49922954155ab7b0942694bea4ce44661d9a8736c688936000905b828210613dac57505050613ca492500383611b69565b855473ffffffffffffffffffffffffffffffffffffffff1684526001958601958895509381019390910190613d96565b60405190600854808352826020918282019060086000527ff3f7a9fe364faab93b216da50a3214154f22a0a2b415b23a84c8169e8b636ee3936000905b828210613e2f57505050613ca492500383611b69565b855473ffffffffffffffffffffffffffffffffffffffff1684526001958601958895509381019390910190613e19565b91613eb68580613ea38982613e9c82613ec6999c613e95613ca49f613e89613ed09f9e829061309c565b9f8315613eda5761309c565b049861309c565b049761309c565b04963091613eaf613c51565b9104614685565b3090613ec0613cd6565b90614685565b3090613ec0613d59565b3090613ec0613ddc565b613ee26130e9565b61309c565b613ca49060021c613f0030613efa613c51565b83614685565b613f0c30613efa613cd6565b613ed030613efa613d59565b613ca491613f3a613f27613c21565b828110613f55575b82600254910361309c565b8115613f48575b04906138a4565b613f506130e9565b613f41565b613f5d6128ed565b613f2f565b73ffffffffffffffffffffffffffffffffffffffff81169081156140b057613faa8173ffffffffffffffffffffffffffffffffffffffff166000526000602052604060002090565b5483811061402c57837fddf252ad1be2c89b69c2b068fc378daa952ba7f163c4a11628f55a4df523b3ef92614007600096612b4b94039173ffffffffffffffffffffffffffffffffffffffff166000526000602052604060002090565b5561401c61401782600254613007565b600255565b6040519081529081906020820190565b60846040517f08c379a000000000000000000000000000000000000000000000000000000000815260206004820152602260248201527f45524332303a206275726e20616d6f756e7420657863656564732062616c616e60448201527f63650000000000000000000000000000000000000000000000000000000000006064820152fd5b60846040517f08c379a000000000000000000000000000000000000000000000000000000000815260206004820152602160248201527f45524332303a206275726e2066726f6d20746865207a65726f2061646472657360448201527f73000000000000000000000000000000000000000000000000000000000000006064820152fd5b6040517fa9059cbb00000000000000000000000000000000000000000000000000000000815273ffffffffffffffffffffffffffffffffffffffff92909216600483015260248201526020816044816000732791bca1f2de4661ed88a30c99a7a9449aa841745af180156135f0576135d65750565b613ca4906141b56131ea565b805115614210575b730d500b1d8e8ef31e21c99d1db9a6444d3adf12706020820152805160011015614203575b732791bca1f2de4661ed88a30c99a7a9449aa8417460408201523091614685565b61420b610810565b6141e2565b614218610810565b6141bd565b613ca4906142296131ea565b805115614276575b73bbba073c31bf03b8acf7c28ef0738decf3695683602082015280516001101561420357732791bca1f2de4661ed88a30c99a7a9449aa8417460408201523091614685565b61427e610810565b614231565b613ca49061428f6131ea565b8051156142dc575b737ceb23fd6bc0add59e62ac25578270cff1b9f619602082015280516001101561420357732791bca1f2de4661ed88a30c99a7a9449aa8417460408201523091614685565b6142e4610810565b614297565b613ca4906142f56131ea565b805115614342575b731bfd67037b42cf73acf2047067bd4f2c47d9bfd6602082015280516001101561420357732791bca1f2de4661ed88a30c99a7a9449aa8417460408201523091614685565b61434a610810565b6142fd565b73ffffffffffffffffffffffffffffffffffffffff604051917f70a08231000000000000000000000000000000000000000000000000000000008352166004820152602081602481730d500b1d8e8ef31e21c99d1db9a6444d3adf12705afa9081156143d9575b6000916143c1575090565b6104d6915060203d81116115b7576115a98183611b69565b6143e1612da5565b6143b6565b73ffffffffffffffffffffffffffffffffffffffff604051917f70a0823100000000000000000000000000000000000000000000000000000000835216600482015260208160248173bbba073c31bf03b8acf7c28ef0738decf36956835afa9081156143d9576000916143c1575090565b73ffffffffffffffffffffffffffffffffffffffff604051917f70a08231000000000000000000000000000000000000000000000000000000008352166004820152602081602481737ceb23fd6bc0add59e62ac25578270cff1b9f6195afa9081156143d9576000916143c1575090565b73ffffffffffffffffffffffffffffffffffffffff604051917f70a08231000000000000000000000000000000000000000000000000000000008352166004820152602081602481731bfd67037b42cf73acf2047067bd4f2c47d9bfd65afa9081156143d9576000916143c1575090565b73ffffffffffffffffffffffffffffffffffffffff604051917f70a08231000000000000000000000000000000000000000000000000000000008352166004820152602081602481732791bca1f2de4661ed88a30c99a7a9449aa841745afa9081156143d9576000916143c1575090565b6020906024604051809481937f70a0823100000000000000000000000000000000000000000000000000000000835273ffffffffffffffffffffffffffffffffffffffff8092166004840152165afa9081156143d9576000916143c1575090565b60209081818403126104515780519067ffffffffffffffff821161045157019180601f8401121561045157825161464181611bb7565b9361464f6040519586611b69565b818552838086019260051b820101928311610451578301905b828210614676575050505090565b81518152908301908301614668565b916146f3906000928373ffffffffffffffffffffffffffffffffffffffff95866010541693604051978896879586947f38ed1739000000000000000000000000000000000000000000000000000000008652600486015285602486015260a0604486015260a48501906133e6565b9116606483015264174876e7ff608483015203925af1801561472b575b6147175750565b6135ed903d806000833e611d598183611b69565b614733612da5565b61471056fea2646970667358221220a4747d05d301f9bbc5da1f60d15c83e3acfbe25798b772a54a9e9d9e9e5b10fa64736f6c634300080d00330000000000000000000000002791bca1f2de4661ed88a30c99a7a9449aa84174",
  "linkReferences": {},
  "deployedLinkReferences": {}
}