{
	"BentoboxDappFlattened.sol": {
		"bentoboxDapp": {
			"abi": [
				{
					"inputs": [],
					"name": "BENTOBOX_MASTER_CONTRACT_ADDRESS",
					"outputs": [
						{
							"internalType": "address",
							"name": "",
							"type": "address"
						}
					],
					"stateMutability": "view",
					"type": "function"
				},
				{
					"inputs": [],
					"name": "BentoMasterContract",
					"outputs": [
						{
							"internalType": "contract IBentoBoxV1",
							"name": "",
							"type": "address"
						}
					],
					"stateMutability": "view",
					"type": "function"
				},
				{
					"inputs": [
						{
							"internalType": "address",
							"name": "token_address",
							"type": "address"
						},
						{
							"internalType": "address",
							"name": "user_address",
							"type": "address"
						}
					],
					"name": "BentoTokenBalanceOf",
					"outputs": [
						{
							"internalType": "uint256",
							"name": "token_balance",
							"type": "uint256"
						}
					],
					"stateMutability": "view",
					"type": "function"
				},
				{
					"inputs": [],
					"name": "SUSHISWAP_ROUTER",
					"outputs": [
						{
							"internalType": "address",
							"name": "",
							"type": "address"
						}
					],
					"stateMutability": "view",
					"type": "function"
				},
				{
					"inputs": [],
					"name": "USDC_ADDRESS",
					"outputs": [
						{
							"internalType": "address",
							"name": "",
							"type": "address"
						}
					],
					"stateMutability": "view",
					"type": "function"
				},
				{
					"inputs": [],
					"name": "WETH_ADDRESS",
					"outputs": [
						{
							"internalType": "address",
							"name": "",
							"type": "address"
						}
					],
					"stateMutability": "view",
					"type": "function"
				},
				{
					"inputs": [
						{
							"internalType": "address",
							"name": "token_address",
							"type": "address"
						},
						{
							"internalType": "address",
							"name": "spender_address",
							"type": "address"
						},
						{
							"internalType": "uint256",
							"name": "amount_to_approve",
							"type": "uint256"
						}
					],
					"name": "approve_spending",
					"outputs": [],
					"stateMutability": "nonpayable",
					"type": "function"
				},
				{
					"inputs": [
						{
							"internalType": "uint256",
							"name": "amount_",
							"type": "uint256"
						},
						{
							"internalType": "address",
							"name": "token_address",
							"type": "address"
						},
						{
							"internalType": "address",
							"name": "address_from",
							"type": "address"
						},
						{
							"internalType": "address",
							"name": "address_to",
							"type": "address"
						}
					],
					"name": "depositToBento",
					"outputs": [],
					"stateMutability": "nonpayable",
					"type": "function"
				},
				{
					"inputs": [
						{
							"internalType": "address",
							"name": "token_address",
							"type": "address"
						},
						{
							"internalType": "address",
							"name": "address_from",
							"type": "address"
						},
						{
							"internalType": "address",
							"name": "address_to",
							"type": "address"
						}
					],
					"name": "depositTokenBalanceToBento",
					"outputs": [],
					"stateMutability": "nonpayable",
					"type": "function"
				},
				{
					"inputs": [],
					"name": "getTotalShares",
					"outputs": [
						{
							"internalType": "uint256",
							"name": "totalNumberOfShares",
							"type": "uint256"
						}
					],
					"stateMutability": "view",
					"type": "function"
				},
				{
					"inputs": [
						{
							"internalType": "address",
							"name": "user",
							"type": "address"
						}
					],
					"name": "getUserShares",
					"outputs": [
						{
							"internalType": "uint256",
							"name": "userShares",
							"type": "uint256"
						}
					],
					"stateMutability": "view",
					"type": "function"
				},
				{
					"inputs": [],
					"name": "registerProtocol",
					"outputs": [],
					"stateMutability": "nonpayable",
					"type": "function"
				},
				{
					"inputs": [],
					"name": "sushiSwapRouter",
					"outputs": [
						{
							"internalType": "contract IUniswapV2Router02",
							"name": "",
							"type": "address"
						}
					],
					"stateMutability": "view",
					"type": "function"
				},
				{
					"inputs": [
						{
							"internalType": "uint256",
							"name": "_amountIn",
							"type": "uint256"
						},
						{
							"internalType": "uint256",
							"name": "_amountOutMin",
							"type": "uint256"
						},
						{
							"internalType": "address[]",
							"name": "_path",
							"type": "address[]"
						},
						{
							"internalType": "address",
							"name": "_acct",
							"type": "address"
						},
						{
							"internalType": "uint256",
							"name": "_deadline",
							"type": "uint256"
						}
					],
					"name": "swap",
					"outputs": [],
					"stateMutability": "nonpayable",
					"type": "function"
				},
				{
					"inputs": [],
					"name": "totalNumberOfShares",
					"outputs": [
						{
							"internalType": "uint256",
							"name": "",
							"type": "uint256"
						}
					],
					"stateMutability": "view",
					"type": "function"
				},
				{
					"inputs": [
						{
							"internalType": "address",
							"name": "token_address",
							"type": "address"
						},
						{
							"internalType": "uint256",
							"name": "_share",
							"type": "uint256"
						},
						{
							"internalType": "address",
							"name": "address_from",
							"type": "address"
						},
						{
							"internalType": "address",
							"name": "address_to",
							"type": "address"
						}
					],
					"name": "transfer",
					"outputs": [],
					"stateMutability": "nonpayable",
					"type": "function"
				},
				{
					"inputs": [
						{
							"internalType": "address",
							"name": "user",
							"type": "address"
						},
						{
							"internalType": "uint256",
							"name": "newSharesToBeAdded",
							"type": "uint256"
						}
					],
					"name": "updateSharesOnDeposit",
					"outputs": [],
					"stateMutability": "nonpayable",
					"type": "function"
				},
				{
					"inputs": [
						{
							"internalType": "address",
							"name": "user",
							"type": "address"
						}
					],
					"name": "updateSharesOnWithdrawal",
					"outputs": [],
					"stateMutability": "nonpayable",
					"type": "function"
				},
				{
					"inputs": [
						{
							"internalType": "address",
							"name": "",
							"type": "address"
						}
					],
					"name": "userNumberOfShares",
					"outputs": [
						{
							"internalType": "uint256",
							"name": "",
							"type": "uint256"
						}
					],
					"stateMutability": "view",
					"type": "function"
				},
				{
					"inputs": [
						{
							"internalType": "uint256",
							"name": "amount_",
							"type": "uint256"
						},
						{
							"internalType": "address",
							"name": "token_address",
							"type": "address"
						},
						{
							"internalType": "address",
							"name": "address_from",
							"type": "address"
						},
						{
							"internalType": "address",
							"name": "address_to",
							"type": "address"
						}
					],
					"name": "withdraw",
					"outputs": [],
					"stateMutability": "nonpayable",
					"type": "function"
				},
				{
					"inputs": [
						{
							"internalType": "uint256",
							"name": "amount_",
							"type": "uint256"
						}
					],
					"name": "withdraw_matic",
					"outputs": [],
					"stateMutability": "nonpayable",
					"type": "function"
				},
				{
					"stateMutability": "payable",
					"type": "receive"
				}
			],
			"devdoc": {
				"kind": "dev",
				"methods": {},
				"version": 1
			},
			"evm": {
				"assembly": "    /* \"BentoboxDappFlattened.sol\":17654:22720  contract bentoboxDapp {... */\n  mstore(0x40, 0x80)\n    /* \"BentoboxDappFlattened.sol\":17741:17783  0x0319000133d3AdA02600f0875d2cf03D442C3367 */\n  0x0319000133d3ada02600f0875d2cf03d442c3367\n    /* \"BentoboxDappFlattened.sol\":18160:18246  IBentoBoxV1 public BentoMasterContract = IBentoBoxV1(BENTOBOX_MASTER_CONTRACT_ADDRESS) */\n  0x02\n  exp(0x0100, 0x00)\n  dup2\n  sload\n  dup2\n  0xffffffffffffffffffffffffffffffffffffffff\n  mul\n  not\n  and\n  swap1\n  dup4\n  0xffffffffffffffffffffffffffffffffffffffff\n  and\n  mul\n  or\n  swap1\n  sstore\n  pop\n    /* \"BentoboxDappFlattened.sol\":18006:18048  0x1b02dA8Cb0d097eB8D57A175b88c7D8b47997506 */\n  0x1b02da8cb0d097eb8d57a175b88c7d8b47997506\n    /* \"BentoboxDappFlattened.sol\":18252:18332  IUniswapV2Router02 public sushiSwapRouter = IUniswapV2Router02(SUSHISWAP_ROUTER) */\n  0x03\n  exp(0x0100, 0x00)\n  dup2\n  sload\n  dup2\n  0xffffffffffffffffffffffffffffffffffffffff\n  mul\n  not\n  and\n  swap1\n  dup4\n  0xffffffffffffffffffffffffffffffffffffffff\n  and\n  mul\n  or\n  swap1\n  sstore\n  pop\n    /* \"BentoboxDappFlattened.sol\":17654:22720  contract bentoboxDapp {... */\n  callvalue\n  dup1\n  iszero\n  tag_1\n  jumpi\n  0x00\n  dup1\n  revert\ntag_1:\n  pop\n  dataSize(sub_0)\n  dup1\n  dataOffset(sub_0)\n  0x00\n  codecopy\n  0x00\n  return\nstop\n\nsub_0: assembly {\n        /* \"BentoboxDappFlattened.sol\":17654:22720  contract bentoboxDapp {... */\n      mstore(0x40, 0x80)\n      jumpi(tag_1, lt(calldatasize, 0x04))\n      shr(0xe0, calldataload(0x00))\n      dup1\n      0xba0cb22b\n      gt\n      tag_24\n      jumpi\n      dup1\n      0xd9155b11\n      gt\n      tag_25\n      jumpi\n      dup1\n      0xd9155b11\n      eq\n      tag_18\n      jumpi\n      dup1\n      0xec8def84\n      eq\n      tag_19\n      jumpi\n      dup1\n      0xedc46f3d\n      eq\n      tag_20\n      jumpi\n      dup1\n      0xef455bad\n      eq\n      tag_21\n      jumpi\n      dup1\n      0xefc89ee3\n      eq\n      tag_22\n      jumpi\n      dup1\n      0xfd829a23\n      eq\n      tag_23\n      jumpi\n      jump(tag_2)\n    tag_25:\n      dup1\n      0xba0cb22b\n      eq\n      tag_13\n      jumpi\n      dup1\n      0xbb09d9b7\n      eq\n      tag_14\n      jumpi\n      dup1\n      0xc3f5a305\n      eq\n      tag_15\n      jumpi\n      dup1\n      0xd5002f2e\n      eq\n      tag_16\n      jumpi\n      dup1\n      0xd58c5b0b\n      eq\n      tag_17\n      jumpi\n      jump(tag_2)\n    tag_24:\n      dup1\n      0x35c67cd6\n      gt\n      tag_26\n      jumpi\n      dup1\n      0x35c67cd6\n      eq\n      tag_8\n      jumpi\n      dup1\n      0x4690738c\n      eq\n      tag_9\n      jumpi\n      dup1\n      0x90f11e84\n      eq\n      tag_10\n      jumpi\n      dup1\n      0xa6c4e467\n      eq\n      tag_11\n      jumpi\n      dup1\n      0xaee4d1b2\n      eq\n      tag_12\n      jumpi\n      jump(tag_2)\n    tag_26:\n      dup1\n      0x040141e5\n      eq\n      tag_3\n      jumpi\n      dup1\n      0x0d36b76b\n      eq\n      tag_4\n      jumpi\n      dup1\n      0x23e103a8\n      eq\n      tag_5\n      jumpi\n      dup1\n      0x277754ed\n      eq\n      tag_6\n      jumpi\n      dup1\n      0x29a97ec2\n      eq\n      tag_7\n      jumpi\n      jump(tag_2)\n    tag_1:\n      jumpi(tag_2, calldatasize)\n        /* \"BentoboxDappFlattened.sol\":19948:19961  uint256 value */\n      0x00\n        /* \"BentoboxDappFlattened.sol\":19964:19973  msg.value */\n      callvalue\n        /* \"BentoboxDappFlattened.sol\":19948:19973  uint256 value = msg.value */\n      swap1\n      pop\n        /* \"BentoboxDappFlattened.sol\":19911:19981  receive() external payable {... */\n      pop\n        /* \"BentoboxDappFlattened.sol\":17654:22720  contract bentoboxDapp {... */\n      stop\n    tag_2:\n      0x00\n      dup1\n      revert\n        /* \"BentoboxDappFlattened.sol\":17876:17957  address public constant WETH_ADDRESS = 0x7ceB23fD6bC0adD59E62ac25578270cFf1b9f619 */\n    tag_3:\n      callvalue\n      dup1\n      iszero\n      tag_29\n      jumpi\n      0x00\n      dup1\n      revert\n    tag_29:\n      pop\n      tag_30\n      tag_31\n      jump\t// in\n    tag_30:\n      mload(0x40)\n      tag_32\n      swap2\n      swap1\n      tag_33\n      jump\t// in\n    tag_32:\n      mload(0x40)\n      dup1\n      swap2\n      sub\n      swap1\n      return\n        /* \"BentoboxDappFlattened.sol\":20509:21049  function depositTokenBalanceToBento (address token_address, address address_from, address address_to) public  {... */\n    tag_4:\n      callvalue\n      dup1\n      iszero\n      tag_34\n      jumpi\n      0x00\n      dup1\n      revert\n    tag_34:\n      pop\n      tag_35\n      0x04\n      dup1\n      calldatasize\n      sub\n      dup2\n      add\n      swap1\n      tag_36\n      swap2\n      swap1\n      tag_37\n      jump\t// in\n    tag_36:\n      tag_38\n      jump\t// in\n    tag_35:\n      stop\n        /* \"BentoboxDappFlattened.sol\":21059:21503  function withdraw(uint256 amount_, address token_address, address address_from, address address_to) public  {... */\n    tag_5:\n      callvalue\n      dup1\n      iszero\n      tag_39\n      jumpi\n      0x00\n      dup1\n      revert\n    tag_39:\n      pop\n      tag_40\n      0x04\n      dup1\n      calldatasize\n      sub\n      dup2\n      add\n      swap1\n      tag_41\n      swap2\n      swap1\n      tag_42\n      jump\t// in\n    tag_41:\n      tag_43\n      jump\t// in\n    tag_40:\n      stop\n        /* \"BentoboxDappFlattened.sol\":17963:18048  address public constant SUSHISWAP_ROUTER = 0x1b02dA8Cb0d097eB8D57A175b88c7D8b47997506 */\n    tag_6:\n      callvalue\n      dup1\n      iszero\n      tag_44\n      jumpi\n      0x00\n      dup1\n      revert\n    tag_44:\n      pop\n      tag_45\n      tag_46\n      jump\t// in\n    tag_45:\n      mload(0x40)\n      tag_47\n      swap2\n      swap1\n      tag_33\n      jump\t// in\n    tag_47:\n      mload(0x40)\n      dup1\n      swap2\n      sub\n      swap1\n      return\n        /* \"BentoboxDappFlattened.sol\":19705:19900  function approve_spending (address token_address, address spender_address, uint256 amount_to_approve) public {... */\n    tag_7:\n      callvalue\n      dup1\n      iszero\n      tag_48\n      jumpi\n      0x00\n      dup1\n      revert\n    tag_48:\n      pop\n      tag_49\n      0x04\n      dup1\n      calldatasize\n      sub\n      dup2\n      add\n      swap1\n      tag_50\n      swap2\n      swap1\n      tag_51\n      jump\t// in\n    tag_50:\n      tag_52\n      jump\t// in\n    tag_49:\n      stop\n        /* \"BentoboxDappFlattened.sol\":19987:20499  function depositToBento (uint256 amount_, address token_address, address address_from, address address_to) public  {... */\n    tag_8:\n      callvalue\n      dup1\n      iszero\n      tag_53\n      jumpi\n      0x00\n      dup1\n      revert\n    tag_53:\n      pop\n      tag_54\n      0x04\n      dup1\n      calldatasize\n      sub\n      dup2\n      add\n      swap1\n      tag_55\n      swap2\n      swap1\n      tag_42\n      jump\t// in\n    tag_55:\n      tag_56\n      jump\t// in\n    tag_54:\n      stop\n        /* \"BentoboxDappFlattened.sol\":19075:19375  function updateSharesOnWithdrawal(address user) public { //make this ownable - only contract itself can update this?... */\n    tag_9:\n      callvalue\n      dup1\n      iszero\n      tag_57\n      jumpi\n      0x00\n      dup1\n      revert\n    tag_57:\n      pop\n      tag_58\n      0x04\n      dup1\n      calldatasize\n      sub\n      dup2\n      add\n      swap1\n      tag_59\n      swap2\n      swap1\n      tag_60\n      jump\t// in\n    tag_59:\n      tag_61\n      jump\t// in\n    tag_58:\n      stop\n        /* \"BentoboxDappFlattened.sol\":22410:22714  function swap(uint256 _amountIn, uint256 _amountOutMin, address[] calldata _path, address _acct, uint256 _deadline) public {... */\n    tag_10:\n      callvalue\n      dup1\n      iszero\n      tag_62\n      jumpi\n      0x00\n      dup1\n      revert\n    tag_62:\n      pop\n      tag_63\n      0x04\n      dup1\n      calldatasize\n      sub\n      dup2\n      add\n      swap1\n      tag_64\n      swap2\n      swap1\n      tag_65\n      jump\t// in\n    tag_64:\n      tag_66\n      jump\t// in\n    tag_63:\n      stop\n        /* \"BentoboxDappFlattened.sol\":21616:22115  function transfer(address token_address, uint256 _share, address address_from, address address_to) public  {... */\n    tag_11:\n      callvalue\n      dup1\n      iszero\n      tag_67\n      jumpi\n      0x00\n      dup1\n      revert\n    tag_67:\n      pop\n      tag_68\n      0x04\n      dup1\n      calldatasize\n      sub\n      dup2\n      add\n      swap1\n      tag_69\n      swap2\n      swap1\n      tag_70\n      jump\t// in\n    tag_69:\n      tag_71\n      jump\t// in\n    tag_68:\n      stop\n        /* \"BentoboxDappFlattened.sol\":18559:18650  function registerProtocol () public {... */\n    tag_12:\n      callvalue\n      dup1\n      iszero\n      tag_72\n      jumpi\n      0x00\n      dup1\n      revert\n    tag_72:\n      pop\n      tag_73\n      tag_74\n      jump\t// in\n    tag_73:\n      stop\n        /* \"BentoboxDappFlattened.sol\":19381:19507  function getUserShares(address user) public view returns (uint256 userShares) {... */\n    tag_13:\n      callvalue\n      dup1\n      iszero\n      tag_75\n      jumpi\n      0x00\n      dup1\n      revert\n    tag_75:\n      pop\n      tag_76\n      0x04\n      dup1\n      calldatasize\n      sub\n      dup2\n      add\n      swap1\n      tag_77\n      swap2\n      swap1\n      tag_60\n      jump\t// in\n    tag_77:\n      tag_78\n      jump\t// in\n    tag_76:\n      mload(0x40)\n      tag_79\n      swap2\n      swap1\n      tag_80\n      jump\t// in\n    tag_79:\n      mload(0x40)\n      dup1\n      swap2\n      sub\n      swap1\n      return\n        /* \"BentoboxDappFlattened.sol\":17789:17870  address public constant USDC_ADDRESS = 0x2791Bca1f2de4661ED88A30C99A7a9449Aa84174 */\n    tag_14:\n      callvalue\n      dup1\n      iszero\n      tag_81\n      jumpi\n      0x00\n      dup1\n      revert\n    tag_81:\n      pop\n      tag_82\n      tag_83\n      jump\t// in\n    tag_82:\n      mload(0x40)\n      tag_84\n      swap2\n      swap1\n      tag_33\n      jump\t// in\n    tag_84:\n      mload(0x40)\n      dup1\n      swap2\n      sub\n      swap1\n      return\n        /* \"BentoboxDappFlattened.sol\":18059:18093  uint256 public totalNumberOfShares */\n    tag_15:\n      callvalue\n      dup1\n      iszero\n      tag_85\n      jumpi\n      0x00\n      dup1\n      revert\n    tag_85:\n      pop\n      tag_86\n      tag_87\n      jump\t// in\n    tag_86:\n      mload(0x40)\n      tag_88\n      swap2\n      swap1\n      tag_80\n      jump\t// in\n    tag_88:\n      mload(0x40)\n      dup1\n      swap2\n      sub\n      swap1\n      return\n        /* \"BentoboxDappFlattened.sol\":19513:19699  function getTotalShares() public view returns (uint256 totalNumberOfShares) { //do I need this, if it's a public variable should be easy to get?... */\n    tag_16:\n      callvalue\n      dup1\n      iszero\n      tag_89\n      jumpi\n      0x00\n      dup1\n      revert\n    tag_89:\n      pop\n      tag_90\n      tag_91\n      jump\t// in\n    tag_90:\n      mload(0x40)\n      tag_92\n      swap2\n      swap1\n      tag_80\n      jump\t// in\n    tag_92:\n      mload(0x40)\n      dup1\n      swap2\n      sub\n      swap1\n      return\n        /* \"BentoboxDappFlattened.sol\":18160:18246  IBentoBoxV1 public BentoMasterContract = IBentoBoxV1(BENTOBOX_MASTER_CONTRACT_ADDRESS) */\n    tag_17:\n      callvalue\n      dup1\n      iszero\n      tag_93\n      jumpi\n      0x00\n      dup1\n      revert\n    tag_93:\n      pop\n      tag_94\n      tag_95\n      jump\t// in\n    tag_94:\n      mload(0x40)\n      tag_96\n      swap2\n      swap1\n      tag_97\n      jump\t// in\n    tag_96:\n      mload(0x40)\n      dup1\n      swap2\n      sub\n      swap1\n      return\n        /* \"BentoboxDappFlattened.sol\":21513:21606  function withdraw_matic(uint256 amount_) public {... */\n    tag_18:\n      callvalue\n      dup1\n      iszero\n      tag_98\n      jumpi\n      0x00\n      dup1\n      revert\n    tag_98:\n      pop\n      tag_99\n      0x04\n      dup1\n      calldatasize\n      sub\n      dup2\n      add\n      swap1\n      tag_100\n      swap2\n      swap1\n      tag_101\n      jump\t// in\n    tag_100:\n      tag_102\n      jump\t// in\n    tag_99:\n      stop\n        /* \"BentoboxDappFlattened.sol\":22121:22400  function BentoTokenBalanceOf(address token_address, address user_address) public view returns (uint256 token_balance) {... */\n    tag_19:\n      callvalue\n      dup1\n      iszero\n      tag_103\n      jumpi\n      0x00\n      dup1\n      revert\n    tag_103:\n      pop\n      tag_104\n      0x04\n      dup1\n      calldatasize\n      sub\n      dup2\n      add\n      swap1\n      tag_105\n      swap2\n      swap1\n      tag_106\n      jump\t// in\n    tag_105:\n      tag_107\n      jump\t// in\n    tag_104:\n      mload(0x40)\n      tag_108\n      swap2\n      swap1\n      tag_80\n      jump\t// in\n    tag_108:\n      mload(0x40)\n      dup1\n      swap2\n      sub\n      swap1\n      return\n        /* \"BentoboxDappFlattened.sol\":17682:17783  address public constant BENTOBOX_MASTER_CONTRACT_ADDRESS = 0x0319000133d3AdA02600f0875d2cf03D442C3367 */\n    tag_20:\n      callvalue\n      dup1\n      iszero\n      tag_109\n      jumpi\n      0x00\n      dup1\n      revert\n    tag_109:\n      pop\n      tag_110\n      tag_111\n      jump\t// in\n    tag_110:\n      mload(0x40)\n      tag_112\n      swap2\n      swap1\n      tag_33\n      jump\t// in\n    tag_112:\n      mload(0x40)\n      dup1\n      swap2\n      sub\n      swap1\n      return\n        /* \"BentoboxDappFlattened.sol\":18099:18152  mapping(address => uint256) public userNumberOfShares */\n    tag_21:\n      callvalue\n      dup1\n      iszero\n      tag_113\n      jumpi\n      0x00\n      dup1\n      revert\n    tag_113:\n      pop\n      tag_114\n      0x04\n      dup1\n      calldatasize\n      sub\n      dup2\n      add\n      swap1\n      tag_115\n      swap2\n      swap1\n      tag_60\n      jump\t// in\n    tag_115:\n      tag_116\n      jump\t// in\n    tag_114:\n      mload(0x40)\n      tag_117\n      swap2\n      swap1\n      tag_80\n      jump\t// in\n    tag_117:\n      mload(0x40)\n      dup1\n      swap2\n      sub\n      swap1\n      return\n        /* \"BentoboxDappFlattened.sol\":18660:19069  function updateSharesOnDeposit(address user, uint256 newSharesToBeAdded) public { //make this ownable - only contract itself can update this?... */\n    tag_22:\n      callvalue\n      dup1\n      iszero\n      tag_118\n      jumpi\n      0x00\n      dup1\n      revert\n    tag_118:\n      pop\n      tag_119\n      0x04\n      dup1\n      calldatasize\n      sub\n      dup2\n      add\n      swap1\n      tag_120\n      swap2\n      swap1\n      tag_121\n      jump\t// in\n    tag_120:\n      tag_122\n      jump\t// in\n    tag_119:\n      stop\n        /* \"BentoboxDappFlattened.sol\":18252:18332  IUniswapV2Router02 public sushiSwapRouter = IUniswapV2Router02(SUSHISWAP_ROUTER) */\n    tag_23:\n      callvalue\n      dup1\n      iszero\n      tag_123\n      jumpi\n      0x00\n      dup1\n      revert\n    tag_123:\n      pop\n      tag_124\n      tag_125\n      jump\t// in\n    tag_124:\n      mload(0x40)\n      tag_126\n      swap2\n      swap1\n      tag_127\n      jump\t// in\n    tag_126:\n      mload(0x40)\n      dup1\n      swap2\n      sub\n      swap1\n      return\n        /* \"BentoboxDappFlattened.sol\":17876:17957  address public constant WETH_ADDRESS = 0x7ceB23fD6bC0adD59E62ac25578270cFf1b9f619 */\n    tag_31:\n        /* \"BentoboxDappFlattened.sol\":17915:17957  0x7ceB23fD6bC0adD59E62ac25578270cFf1b9f619 */\n      0x7ceb23fd6bc0add59e62ac25578270cff1b9f619\n        /* \"BentoboxDappFlattened.sol\":17876:17957  address public constant WETH_ADDRESS = 0x7ceB23fD6bC0adD59E62ac25578270cFf1b9f619 */\n      dup2\n      jump\t// out\n        /* \"BentoboxDappFlattened.sol\":20509:21049  function depositTokenBalanceToBento (address token_address, address address_from, address address_to) public  {... */\n    tag_38:\n        /* \"BentoboxDappFlattened.sol\":20629:20642  IERC20 token_ */\n      0x00\n        /* \"BentoboxDappFlattened.sol\":20652:20665  token_address */\n      dup4\n        /* \"BentoboxDappFlattened.sol\":20629:20666  IERC20 token_ = IERC20(token_address) */\n      swap1\n      pop\n        /* \"BentoboxDappFlattened.sol\":20676:20696  uint256 tokenBalance */\n      0x00\n        /* \"BentoboxDappFlattened.sol\":20699:20705  token_ */\n      dup2\n        /* \"BentoboxDappFlattened.sol\":20699:20715  token_.balanceOf */\n      0xffffffffffffffffffffffffffffffffffffffff\n      and\n      0x70a08231\n        /* \"BentoboxDappFlattened.sol\":20716:20728  address_from */\n      dup6\n        /* \"BentoboxDappFlattened.sol\":20699:20729  token_.balanceOf(address_from) */\n      mload(0x40)\n      dup3\n      0xffffffff\n      and\n      0xe0\n      shl\n      dup2\n      mstore\n      0x04\n      add\n      tag_129\n      swap2\n      swap1\n      tag_33\n      jump\t// in\n    tag_129:\n      0x20\n      mload(0x40)\n      dup1\n      dup4\n      sub\n      dup2\n      dup7\n      dup1\n      extcodesize\n      iszero\n      dup1\n      iszero\n      tag_130\n      jumpi\n      0x00\n      dup1\n      revert\n    tag_130:\n      pop\n      gas\n      staticcall\n      iszero\n      dup1\n      iszero\n      tag_132\n      jumpi\n      returndatasize\n      0x00\n      dup1\n      returndatacopy\n      revert(0x00, returndatasize)\n    tag_132:\n      pop\n      pop\n      pop\n      pop\n      mload(0x40)\n      returndatasize\n      not(0x1f)\n      0x1f\n      dup3\n      add\n      and\n      dup3\n      add\n      dup1\n      0x40\n      mstore\n      pop\n      dup2\n      add\n      swap1\n      tag_133\n      swap2\n      swap1\n      tag_134\n      jump\t// in\n    tag_133:\n        /* \"BentoboxDappFlattened.sol\":20676:20729  uint256 tokenBalance = token_.balanceOf(address_from) */\n      swap1\n      pop\n        /* \"BentoboxDappFlattened.sol\":20748:20767  BentoMasterContract */\n      0x02\n      0x00\n      swap1\n      sload\n      swap1\n      0x0100\n      exp\n      swap1\n      div\n      0xffffffffffffffffffffffffffffffffffffffff\n      and\n        /* \"BentoboxDappFlattened.sol\":20748:20775  BentoMasterContract.deposit */\n      0xffffffffffffffffffffffffffffffffffffffff\n      and\n      0x02b9446c\n        /* \"BentoboxDappFlattened.sol\":20785:20791  token_ */\n      dup4\n        /* \"BentoboxDappFlattened.sol\":20850:20862  address_from */\n      dup7\n        /* \"BentoboxDappFlattened.sol\":20921:20931  address_to */\n      dup7\n        /* \"BentoboxDappFlattened.sol\":20974:20986  tokenBalance */\n      dup6\n        /* \"BentoboxDappFlattened.sol\":21006:21007  0 */\n      0x00\n        /* \"BentoboxDappFlattened.sol\":20748:21042  BentoMasterContract.deposit(... */\n      mload(0x40)\n      dup7\n      0xffffffff\n      and\n      0xe0\n      shl\n      dup2\n      mstore\n      0x04\n      add\n      tag_135\n      swap6\n      swap5\n      swap4\n      swap3\n      swap2\n      swap1\n      tag_136\n      jump\t// in\n    tag_135:\n      0x40\n      dup1\n      mload\n      dup1\n      dup4\n      sub\n      dup2\n      0x00\n      dup8\n      dup1\n      extcodesize\n      iszero\n      dup1\n      iszero\n      tag_137\n      jumpi\n      0x00\n      dup1\n      revert\n    tag_137:\n      pop\n      gas\n      call\n      iszero\n      dup1\n      iszero\n      tag_139\n      jumpi\n      returndatasize\n      0x00\n      dup1\n      returndatacopy\n      revert(0x00, returndatasize)\n    tag_139:\n      pop\n      pop\n      pop\n      pop\n      mload(0x40)\n      returndatasize\n      not(0x1f)\n      0x1f\n      dup3\n      add\n      and\n      dup3\n      add\n      dup1\n      0x40\n      mstore\n      pop\n      dup2\n      add\n      swap1\n      tag_140\n      swap2\n      swap1\n      tag_141\n      jump\t// in\n    tag_140:\n      pop\n      pop\n        /* \"BentoboxDappFlattened.sol\":20509:21049  function depositTokenBalanceToBento (address token_address, address address_from, address address_to) public  {... */\n      pop\n      pop\n      pop\n      pop\n      pop\n      jump\t// out\n        /* \"BentoboxDappFlattened.sol\":21059:21503  function withdraw(uint256 amount_, address token_address, address address_from, address address_to) public  {... */\n    tag_43:\n        /* \"BentoboxDappFlattened.sol\":21177:21190  IERC20 token_ */\n      0x00\n        /* \"BentoboxDappFlattened.sol\":21200:21213  token_address */\n      dup4\n        /* \"BentoboxDappFlattened.sol\":21177:21214  IERC20 token_ = IERC20(token_address) */\n      swap1\n      pop\n        /* \"BentoboxDappFlattened.sol\":21242:21261  BentoMasterContract */\n      0x02\n      0x00\n      swap1\n      sload\n      swap1\n      0x0100\n      exp\n      swap1\n      div\n      0xffffffffffffffffffffffffffffffffffffffff\n      and\n        /* \"BentoboxDappFlattened.sol\":21242:21270  BentoMasterContract.withdraw */\n      0xffffffffffffffffffffffffffffffffffffffff\n      and\n      0x97da6d30\n        /* \"BentoboxDappFlattened.sol\":21280:21286  token_ */\n      dup3\n        /* \"BentoboxDappFlattened.sol\":21297:21309  address_from */\n      dup6\n        /* \"BentoboxDappFlattened.sol\":21375:21385  address_to */\n      dup6\n        /* \"BentoboxDappFlattened.sol\":21441:21448  amount_ */\n      dup10\n        /* \"BentoboxDappFlattened.sol\":21473:21474  0 */\n      0x00\n        /* \"BentoboxDappFlattened.sol\":21242:21496  BentoMasterContract.withdraw(... */\n      mload(0x40)\n      dup7\n      0xffffffff\n      and\n      0xe0\n      shl\n      dup2\n      mstore\n      0x04\n      add\n      tag_143\n      swap6\n      swap5\n      swap4\n      swap3\n      swap2\n      swap1\n      tag_136\n      jump\t// in\n    tag_143:\n      0x40\n      dup1\n      mload\n      dup1\n      dup4\n      sub\n      dup2\n      0x00\n      dup8\n      dup1\n      extcodesize\n      iszero\n      dup1\n      iszero\n      tag_144\n      jumpi\n      0x00\n      dup1\n      revert\n    tag_144:\n      pop\n      gas\n      call\n      iszero\n      dup1\n      iszero\n      tag_146\n      jumpi\n      returndatasize\n      0x00\n      dup1\n      returndatacopy\n      revert(0x00, returndatasize)\n    tag_146:\n      pop\n      pop\n      pop\n      pop\n      mload(0x40)\n      returndatasize\n      not(0x1f)\n      0x1f\n      dup3\n      add\n      and\n      dup3\n      add\n      dup1\n      0x40\n      mstore\n      pop\n      dup2\n      add\n      swap1\n      tag_147\n      swap2\n      swap1\n      tag_141\n      jump\t// in\n    tag_147:\n      pop\n      pop\n        /* \"BentoboxDappFlattened.sol\":21059:21503  function withdraw(uint256 amount_, address token_address, address address_from, address address_to) public  {... */\n      pop\n      pop\n      pop\n      pop\n      pop\n      jump\t// out\n        /* \"BentoboxDappFlattened.sol\":17963:18048  address public constant SUSHISWAP_ROUTER = 0x1b02dA8Cb0d097eB8D57A175b88c7D8b47997506 */\n    tag_46:\n        /* \"BentoboxDappFlattened.sol\":18006:18048  0x1b02dA8Cb0d097eB8D57A175b88c7D8b47997506 */\n      0x1b02da8cb0d097eb8d57a175b88c7d8b47997506\n        /* \"BentoboxDappFlattened.sol\":17963:18048  address public constant SUSHISWAP_ROUTER = 0x1b02dA8Cb0d097eB8D57A175b88c7D8b47997506 */\n      dup2\n      jump\t// out\n        /* \"BentoboxDappFlattened.sol\":19705:19900  function approve_spending (address token_address, address spender_address, uint256 amount_to_approve) public {... */\n    tag_52:\n        /* \"BentoboxDappFlattened.sol\":19835:19848  token_address */\n      dup3\n        /* \"BentoboxDappFlattened.sol\":19828:19857  IERC20(token_address).approve */\n      0xffffffffffffffffffffffffffffffffffffffff\n      and\n      0x095ea7b3\n        /* \"BentoboxDappFlattened.sol\":19858:19873  spender_address */\n      dup4\n        /* \"BentoboxDappFlattened.sol\":19875:19892  amount_to_approve */\n      dup4\n        /* \"BentoboxDappFlattened.sol\":19828:19893  IERC20(token_address).approve(spender_address, amount_to_approve) */\n      mload(0x40)\n      dup4\n      0xffffffff\n      and\n      0xe0\n      shl\n      dup2\n      mstore\n      0x04\n      add\n      tag_149\n      swap3\n      swap2\n      swap1\n      tag_150\n      jump\t// in\n    tag_149:\n      0x20\n      mload(0x40)\n      dup1\n      dup4\n      sub\n      dup2\n      0x00\n      dup8\n      dup1\n      extcodesize\n      iszero\n      dup1\n      iszero\n      tag_151\n      jumpi\n      0x00\n      dup1\n      revert\n    tag_151:\n      pop\n      gas\n      call\n      iszero\n      dup1\n      iszero\n      tag_153\n      jumpi\n      returndatasize\n      0x00\n      dup1\n      returndatacopy\n      revert(0x00, returndatasize)\n    tag_153:\n      pop\n      pop\n      pop\n      pop\n      mload(0x40)\n      returndatasize\n      not(0x1f)\n      0x1f\n      dup3\n      add\n      and\n      dup3\n      add\n      dup1\n      0x40\n      mstore\n      pop\n      dup2\n      add\n      swap1\n      tag_154\n      swap2\n      swap1\n      tag_155\n      jump\t// in\n    tag_154:\n      pop\n        /* \"BentoboxDappFlattened.sol\":19705:19900  function approve_spending (address token_address, address spender_address, uint256 amount_to_approve) public {... */\n      pop\n      pop\n      pop\n      jump\t// out\n        /* \"BentoboxDappFlattened.sol\":19987:20499  function depositToBento (uint256 amount_, address token_address, address address_from, address address_to) public  {... */\n    tag_56:\n        /* \"BentoboxDappFlattened.sol\":20112:20125  IERC20 token_ */\n      0x00\n        /* \"BentoboxDappFlattened.sol\":20135:20148  token_address */\n      dup4\n        /* \"BentoboxDappFlattened.sol\":20112:20149  IERC20 token_ = IERC20(token_address) */\n      swap1\n      pop\n        /* \"BentoboxDappFlattened.sol\":20160:20179  BentoMasterContract */\n      0x02\n      0x00\n      swap1\n      sload\n      swap1\n      0x0100\n      exp\n      swap1\n      div\n      0xffffffffffffffffffffffffffffffffffffffff\n      and\n        /* \"BentoboxDappFlattened.sol\":20160:20187  BentoMasterContract.deposit */\n      0xffffffffffffffffffffffffffffffffffffffff\n      and\n      0x02b9446c\n        /* \"BentoboxDappFlattened.sol\":20197:20203  token_ */\n      dup3\n        /* \"BentoboxDappFlattened.sol\":20316:20328  address_from */\n      dup6\n        /* \"BentoboxDappFlattened.sol\":20375:20385  address_to */\n      dup6\n        /* \"BentoboxDappFlattened.sol\":20429:20436  amount_ */\n      dup10\n        /* \"BentoboxDappFlattened.sol\":20456:20457  0 */\n      0x00\n        /* \"BentoboxDappFlattened.sol\":20160:20492  BentoMasterContract.deposit(... */\n      mload(0x40)\n      dup7\n      0xffffffff\n      and\n      0xe0\n      shl\n      dup2\n      mstore\n      0x04\n      add\n      tag_157\n      swap6\n      swap5\n      swap4\n      swap3\n      swap2\n      swap1\n      tag_136\n      jump\t// in\n    tag_157:\n      0x40\n      dup1\n      mload\n      dup1\n      dup4\n      sub\n      dup2\n      0x00\n      dup8\n      dup1\n      extcodesize\n      iszero\n      dup1\n      iszero\n      tag_158\n      jumpi\n      0x00\n      dup1\n      revert\n    tag_158:\n      pop\n      gas\n      call\n      iszero\n      dup1\n      iszero\n      tag_160\n      jumpi\n      returndatasize\n      0x00\n      dup1\n      returndatacopy\n      revert(0x00, returndatasize)\n    tag_160:\n      pop\n      pop\n      pop\n      pop\n      mload(0x40)\n      returndatasize\n      not(0x1f)\n      0x1f\n      dup3\n      add\n      and\n      dup3\n      add\n      dup1\n      0x40\n      mstore\n      pop\n      dup2\n      add\n      swap1\n      tag_161\n      swap2\n      swap1\n      tag_141\n      jump\t// in\n    tag_161:\n      pop\n      pop\n        /* \"BentoboxDappFlattened.sol\":19987:20499  function depositToBento (uint256 amount_, address token_address, address address_from, address address_to) public  {... */\n      pop\n      pop\n      pop\n      pop\n      pop\n      jump\t// out\n        /* \"BentoboxDappFlattened.sol\":19075:19375  function updateSharesOnWithdrawal(address user) public { //make this ownable - only contract itself can update this?... */\n    tag_61:\n        /* \"BentoboxDappFlattened.sol\":19236:19237  0 */\n      0x00\n        /* \"BentoboxDappFlattened.sol\":19209:19227  userNumberOfShares */\n      0x01\n        /* \"BentoboxDappFlattened.sol\":19209:19233  userNumberOfShares[user] */\n      0x00\n        /* \"BentoboxDappFlattened.sol\":19228:19232  user */\n      dup4\n        /* \"BentoboxDappFlattened.sol\":19209:19233  userNumberOfShares[user] */\n      0xffffffffffffffffffffffffffffffffffffffff\n      and\n      0xffffffffffffffffffffffffffffffffffffffff\n      and\n      dup2\n      mstore\n      0x20\n      add\n      swap1\n      dup2\n      mstore\n      0x20\n      add\n      0x00\n      keccak256\n      sload\n        /* \"BentoboxDappFlattened.sol\":19209:19237  userNumberOfShares[user] > 0 */\n      gt\n        /* \"BentoboxDappFlattened.sol\":19200:19273  require (userNumberOfShares[user] > 0, \"Error - This user has no shares\") */\n      tag_163\n      jumpi\n      mload(0x40)\n      0x08c379a000000000000000000000000000000000000000000000000000000000\n      dup2\n      mstore\n      0x04\n      add\n      tag_164\n      swap1\n      tag_165\n      jump\t// in\n    tag_164:\n      mload(0x40)\n      dup1\n      swap2\n      sub\n      swap1\n      revert\n    tag_163:\n        /* \"BentoboxDappFlattened.sol\":19306:19324  userNumberOfShares */\n      0x01\n        /* \"BentoboxDappFlattened.sol\":19306:19330  userNumberOfShares[user] */\n      0x00\n        /* \"BentoboxDappFlattened.sol\":19325:19329  user */\n      dup3\n        /* \"BentoboxDappFlattened.sol\":19306:19330  userNumberOfShares[user] */\n      0xffffffffffffffffffffffffffffffffffffffff\n      and\n      0xffffffffffffffffffffffffffffffffffffffff\n      and\n      dup2\n      mstore\n      0x20\n      add\n      swap1\n      dup2\n      mstore\n      0x20\n      add\n      0x00\n      keccak256\n      sload\n        /* \"BentoboxDappFlattened.sol\":19283:19302  totalNumberOfShares */\n      0x00\n      dup1\n        /* \"BentoboxDappFlattened.sol\":19283:19330  totalNumberOfShares -= userNumberOfShares[user] */\n      dup3\n      dup3\n      sload\n      sub\n      swap3\n      pop\n      pop\n      dup2\n      swap1\n      sstore\n      pop\n        /* \"BentoboxDappFlattened.sol\":19367:19368  0 */\n      0x00\n        /* \"BentoboxDappFlattened.sol\":19340:19358  userNumberOfShares */\n      0x01\n        /* \"BentoboxDappFlattened.sol\":19340:19364  userNumberOfShares[user] */\n      0x00\n        /* \"BentoboxDappFlattened.sol\":19359:19363  user */\n      dup4\n        /* \"BentoboxDappFlattened.sol\":19340:19364  userNumberOfShares[user] */\n      0xffffffffffffffffffffffffffffffffffffffff\n      and\n      0xffffffffffffffffffffffffffffffffffffffff\n      and\n      dup2\n      mstore\n      0x20\n      add\n      swap1\n      dup2\n      mstore\n      0x20\n      add\n      0x00\n      keccak256\n        /* \"BentoboxDappFlattened.sol\":19340:19368  userNumberOfShares[user] = 0 */\n      dup2\n      swap1\n      sstore\n      pop\n        /* \"BentoboxDappFlattened.sol\":19075:19375  function updateSharesOnWithdrawal(address user) public { //make this ownable - only contract itself can update this?... */\n      pop\n      jump\t// out\n        /* \"BentoboxDappFlattened.sol\":22410:22714  function swap(uint256 _amountIn, uint256 _amountOutMin, address[] calldata _path, address _acct, uint256 _deadline) public {... */\n    tag_66:\n        /* \"BentoboxDappFlattened.sol\":22551:22566  sushiSwapRouter */\n      0x03\n      0x00\n      swap1\n      sload\n      swap1\n      0x0100\n      exp\n      swap1\n      div\n      0xffffffffffffffffffffffffffffffffffffffff\n      and\n        /* \"BentoboxDappFlattened.sol\":22551:22591  sushiSwapRouter.swapExactTokensForTokens */\n      0xffffffffffffffffffffffffffffffffffffffff\n      and\n      0x38ed1739\n        /* \"BentoboxDappFlattened.sol\":22605:22614  _amountIn */\n      dup8\n        /* \"BentoboxDappFlattened.sol\":22628:22641  _amountOutMin */\n      dup8\n        /* \"BentoboxDappFlattened.sol\":22655:22660  _path */\n      dup8\n      dup8\n        /* \"BentoboxDappFlattened.sol\":22674:22679  _acct */\n      dup8\n        /* \"BentoboxDappFlattened.sol\":22693:22702  _deadline */\n      dup8\n        /* \"BentoboxDappFlattened.sol\":22551:22703  sushiSwapRouter.swapExactTokensForTokens(... */\n      mload(0x40)\n      dup8\n      0xffffffff\n      and\n      0xe0\n      shl\n      dup2\n      mstore\n      0x04\n      add\n      tag_167\n      swap7\n      swap6\n      swap5\n      swap4\n      swap3\n      swap2\n      swap1\n      tag_168\n      jump\t// in\n    tag_167:\n      0x00\n      mload(0x40)\n      dup1\n      dup4\n      sub\n      dup2\n      0x00\n      dup8\n      dup1\n      extcodesize\n      iszero\n      dup1\n      iszero\n      tag_169\n      jumpi\n      0x00\n      dup1\n      revert\n    tag_169:\n      pop\n      gas\n      call\n      iszero\n      dup1\n      iszero\n      tag_171\n      jumpi\n      returndatasize\n      0x00\n      dup1\n      returndatacopy\n      revert(0x00, returndatasize)\n    tag_171:\n      pop\n      pop\n      pop\n      pop\n      mload(0x40)\n      returndatasize\n      0x00\n      dup3\n      returndatacopy\n      returndatasize\n      not(0x1f)\n      0x1f\n      dup3\n      add\n      and\n      dup3\n      add\n      dup1\n      0x40\n      mstore\n      pop\n      dup2\n      add\n      swap1\n      tag_172\n      swap2\n      swap1\n      tag_173\n      jump\t// in\n    tag_172:\n      pop\n        /* \"BentoboxDappFlattened.sol\":22410:22714  function swap(uint256 _amountIn, uint256 _amountOutMin, address[] calldata _path, address _acct, uint256 _deadline) public {... */\n      pop\n      pop\n      pop\n      pop\n      pop\n      pop\n      jump\t// out\n        /* \"BentoboxDappFlattened.sol\":21616:22115  function transfer(address token_address, uint256 _share, address address_from, address address_to) public  {... */\n    tag_71:\n        /* \"BentoboxDappFlattened.sol\":21733:21746  IERC20 _token */\n      0x00\n        /* \"BentoboxDappFlattened.sol\":21756:21769  token_address */\n      dup5\n        /* \"BentoboxDappFlattened.sol\":21733:21770  IERC20 _token = IERC20(token_address) */\n      swap1\n      pop\n        /* \"BentoboxDappFlattened.sol\":21873:21892  BentoMasterContract */\n      0x02\n      0x00\n      swap1\n      sload\n      swap1\n      0x0100\n      exp\n      swap1\n      div\n      0xffffffffffffffffffffffffffffffffffffffff\n      and\n        /* \"BentoboxDappFlattened.sol\":21873:21901  BentoMasterContract.transfer */\n      0xffffffffffffffffffffffffffffffffffffffff\n      and\n      0xf18d03cc\n        /* \"BentoboxDappFlattened.sol\":21911:21917  _token */\n      dup3\n        /* \"BentoboxDappFlattened.sol\":21942:21954  address_from */\n      dup6\n        /* \"BentoboxDappFlattened.sol\":22006:22016  address_to */\n      dup6\n        /* \"BentoboxDappFlattened.sol\":22076:22082  _share */\n      dup9\n        /* \"BentoboxDappFlattened.sol\":21873:22108  BentoMasterContract.transfer(... */\n      mload(0x40)\n      dup6\n      0xffffffff\n      and\n      0xe0\n      shl\n      dup2\n      mstore\n      0x04\n      add\n      tag_175\n      swap5\n      swap4\n      swap3\n      swap2\n      swap1\n      tag_176\n      jump\t// in\n    tag_175:\n      0x00\n      mload(0x40)\n      dup1\n      dup4\n      sub\n      dup2\n      0x00\n      dup8\n      dup1\n      extcodesize\n      iszero\n      dup1\n      iszero\n      tag_177\n      jumpi\n      0x00\n      dup1\n      revert\n    tag_177:\n      pop\n      gas\n      call\n      iszero\n      dup1\n      iszero\n      tag_179\n      jumpi\n      returndatasize\n      0x00\n      dup1\n      returndatacopy\n      revert(0x00, returndatasize)\n    tag_179:\n      pop\n      pop\n      pop\n      pop\n        /* \"BentoboxDappFlattened.sol\":21616:22115  function transfer(address token_address, uint256 _share, address address_from, address address_to) public  {... */\n      pop\n      pop\n      pop\n      pop\n      pop\n      jump\t// out\n        /* \"BentoboxDappFlattened.sol\":18559:18650  function registerProtocol () public {... */\n    tag_74:\n        /* \"BentoboxDappFlattened.sol\":18605:18624  BentoMasterContract */\n      0x02\n      0x00\n      swap1\n      sload\n      swap1\n      0x0100\n      exp\n      swap1\n      div\n      0xffffffffffffffffffffffffffffffffffffffff\n      and\n        /* \"BentoboxDappFlattened.sol\":18605:18641  BentoMasterContract.registerProtocol */\n      0xffffffffffffffffffffffffffffffffffffffff\n      and\n      0xaee4d1b2\n        /* \"BentoboxDappFlattened.sol\":18605:18643  BentoMasterContract.registerProtocol() */\n      mload(0x40)\n      dup2\n      0xffffffff\n      and\n      0xe0\n      shl\n      dup2\n      mstore\n      0x04\n      add\n      0x00\n      mload(0x40)\n      dup1\n      dup4\n      sub\n      dup2\n      0x00\n      dup8\n      dup1\n      extcodesize\n      iszero\n      dup1\n      iszero\n      tag_181\n      jumpi\n      0x00\n      dup1\n      revert\n    tag_181:\n      pop\n      gas\n      call\n      iszero\n      dup1\n      iszero\n      tag_183\n      jumpi\n      returndatasize\n      0x00\n      dup1\n      returndatacopy\n      revert(0x00, returndatasize)\n    tag_183:\n      pop\n      pop\n      pop\n      pop\n        /* \"BentoboxDappFlattened.sol\":18559:18650  function registerProtocol () public {... */\n      jump\t// out\n        /* \"BentoboxDappFlattened.sol\":19381:19507  function getUserShares(address user) public view returns (uint256 userShares) {... */\n    tag_78:\n        /* \"BentoboxDappFlattened.sol\":19439:19457  uint256 userShares */\n      0x00\n        /* \"BentoboxDappFlattened.sol\":19476:19494  userNumberOfShares */\n      0x01\n        /* \"BentoboxDappFlattened.sol\":19476:19500  userNumberOfShares[user] */\n      0x00\n        /* \"BentoboxDappFlattened.sol\":19495:19499  user */\n      dup4\n        /* \"BentoboxDappFlattened.sol\":19476:19500  userNumberOfShares[user] */\n      0xffffffffffffffffffffffffffffffffffffffff\n      and\n      0xffffffffffffffffffffffffffffffffffffffff\n      and\n      dup2\n      mstore\n      0x20\n      add\n      swap1\n      dup2\n      mstore\n      0x20\n      add\n      0x00\n      keccak256\n      sload\n        /* \"BentoboxDappFlattened.sol\":19469:19500  return userNumberOfShares[user] */\n      swap1\n      pop\n        /* \"BentoboxDappFlattened.sol\":19381:19507  function getUserShares(address user) public view returns (uint256 userShares) {... */\n      swap2\n      swap1\n      pop\n      jump\t// out\n        /* \"BentoboxDappFlattened.sol\":17789:17870  address public constant USDC_ADDRESS = 0x2791Bca1f2de4661ED88A30C99A7a9449Aa84174 */\n    tag_83:\n        /* \"BentoboxDappFlattened.sol\":17828:17870  0x2791Bca1f2de4661ED88A30C99A7a9449Aa84174 */\n      0x2791bca1f2de4661ed88a30c99a7a9449aa84174\n        /* \"BentoboxDappFlattened.sol\":17789:17870  address public constant USDC_ADDRESS = 0x2791Bca1f2de4661ED88A30C99A7a9449Aa84174 */\n      dup2\n      jump\t// out\n        /* \"BentoboxDappFlattened.sol\":18059:18093  uint256 public totalNumberOfShares */\n    tag_87:\n      sload(0x00)\n      dup2\n      jump\t// out\n        /* \"BentoboxDappFlattened.sol\":19513:19699  function getTotalShares() public view returns (uint256 totalNumberOfShares) { //do I need this, if it's a public variable should be easy to get?... */\n    tag_91:\n        /* \"BentoboxDappFlattened.sol\":19560:19587  uint256 totalNumberOfShares */\n      0x00\n        /* \"BentoboxDappFlattened.sol\":19513:19699  function getTotalShares() public view returns (uint256 totalNumberOfShares) { //do I need this, if it's a public variable should be easy to get?... */\n      swap1\n      jump\t// out\n        /* \"BentoboxDappFlattened.sol\":18160:18246  IBentoBoxV1 public BentoMasterContract = IBentoBoxV1(BENTOBOX_MASTER_CONTRACT_ADDRESS) */\n    tag_95:\n      0x02\n      0x00\n      swap1\n      sload\n      swap1\n      0x0100\n      exp\n      swap1\n      div\n      0xffffffffffffffffffffffffffffffffffffffff\n      and\n      dup2\n      jump\t// out\n        /* \"BentoboxDappFlattened.sol\":21513:21606  function withdraw_matic(uint256 amount_) public {... */\n    tag_102:\n        /* \"BentoboxDappFlattened.sol\":21571:21581  msg.sender */\n      caller\n        /* \"BentoboxDappFlattened.sol\":21571:21590  msg.sender.transfer */\n      0xffffffffffffffffffffffffffffffffffffffff\n      and\n        /* \"BentoboxDappFlattened.sol\":21571:21599  msg.sender.transfer(amount_) */\n      0x08fc\n        /* \"BentoboxDappFlattened.sol\":21591:21598  amount_ */\n      dup3\n        /* \"BentoboxDappFlattened.sol\":21571:21599  msg.sender.transfer(amount_) */\n      swap1\n      dup2\n      iszero\n      mul\n      swap1\n      mload(0x40)\n      0x00\n      mload(0x40)\n      dup1\n      dup4\n      sub\n      dup2\n      dup6\n      dup9\n      dup9\n      call\n      swap4\n      pop\n      pop\n      pop\n      pop\n      iszero\n      dup1\n      iszero\n      tag_188\n      jumpi\n      returndatasize\n      0x00\n      dup1\n      returndatacopy\n      revert(0x00, returndatasize)\n    tag_188:\n      pop\n        /* \"BentoboxDappFlattened.sol\":21513:21606  function withdraw_matic(uint256 amount_) public {... */\n      pop\n      jump\t// out\n        /* \"BentoboxDappFlattened.sol\":22121:22400  function BentoTokenBalanceOf(address token_address, address user_address) public view returns (uint256 token_balance) {... */\n    tag_107:\n        /* \"BentoboxDappFlattened.sol\":22216:22237  uint256 token_balance */\n      0x00\n        /* \"BentoboxDappFlattened.sol\":22249:22262  IERC20 _token */\n      dup1\n        /* \"BentoboxDappFlattened.sol\":22272:22285  token_address */\n      dup4\n        /* \"BentoboxDappFlattened.sol\":22249:22286  IERC20 _token = IERC20(token_address) */\n      swap1\n      pop\n        /* \"BentoboxDappFlattened.sol\":22312:22331  BentoMasterContract */\n      0x02\n      0x00\n      swap1\n      sload\n      swap1\n      0x0100\n      exp\n      swap1\n      div\n      0xffffffffffffffffffffffffffffffffffffffff\n      and\n        /* \"BentoboxDappFlattened.sol\":22312:22341  BentoMasterContract.balanceOf */\n      0xffffffffffffffffffffffffffffffffffffffff\n      and\n      0xf7888aec\n        /* \"BentoboxDappFlattened.sol\":22342:22348  _token */\n      dup3\n        /* \"BentoboxDappFlattened.sol\":22350:22362  user_address */\n      dup6\n        /* \"BentoboxDappFlattened.sol\":22312:22363  BentoMasterContract.balanceOf(_token, user_address) */\n      mload(0x40)\n      dup4\n      0xffffffff\n      and\n      0xe0\n      shl\n      dup2\n      mstore\n      0x04\n      add\n      tag_190\n      swap3\n      swap2\n      swap1\n      tag_191\n      jump\t// in\n    tag_190:\n      0x20\n      mload(0x40)\n      dup1\n      dup4\n      sub\n      dup2\n      dup7\n      dup1\n      extcodesize\n      iszero\n      dup1\n      iszero\n      tag_192\n      jumpi\n      0x00\n      dup1\n      revert\n    tag_192:\n      pop\n      gas\n      staticcall\n      iszero\n      dup1\n      iszero\n      tag_194\n      jumpi\n      returndatasize\n      0x00\n      dup1\n      returndatacopy\n      revert(0x00, returndatasize)\n    tag_194:\n      pop\n      pop\n      pop\n      pop\n      mload(0x40)\n      returndatasize\n      not(0x1f)\n      0x1f\n      dup3\n      add\n      and\n      dup3\n      add\n      dup1\n      0x40\n      mstore\n      pop\n      dup2\n      add\n      swap1\n      tag_195\n      swap2\n      swap1\n      tag_134\n      jump\t// in\n    tag_195:\n        /* \"BentoboxDappFlattened.sol\":22296:22363  token_balance = BentoMasterContract.balanceOf(_token, user_address) */\n      swap2\n      pop\n        /* \"BentoboxDappFlattened.sol\":22373:22393  return token_balance */\n      pop\n        /* \"BentoboxDappFlattened.sol\":22121:22400  function BentoTokenBalanceOf(address token_address, address user_address) public view returns (uint256 token_balance) {... */\n      swap3\n      swap2\n      pop\n      pop\n      jump\t// out\n        /* \"BentoboxDappFlattened.sol\":17682:17783  address public constant BENTOBOX_MASTER_CONTRACT_ADDRESS = 0x0319000133d3AdA02600f0875d2cf03D442C3367 */\n    tag_111:\n        /* \"BentoboxDappFlattened.sol\":17741:17783  0x0319000133d3AdA02600f0875d2cf03D442C3367 */\n      0x0319000133d3ada02600f0875d2cf03d442c3367\n        /* \"BentoboxDappFlattened.sol\":17682:17783  address public constant BENTOBOX_MASTER_CONTRACT_ADDRESS = 0x0319000133d3AdA02600f0875d2cf03D442C3367 */\n      dup2\n      jump\t// out\n        /* \"BentoboxDappFlattened.sol\":18099:18152  mapping(address => uint256) public userNumberOfShares */\n    tag_116:\n      mstore(0x20, 0x01)\n      dup1\n      0x00\n      mstore\n      keccak256(0x00, 0x40)\n      0x00\n      swap2\n      pop\n      swap1\n      pop\n      sload\n      dup2\n      jump\t// out\n        /* \"BentoboxDappFlattened.sol\":18660:19069  function updateSharesOnDeposit(address user, uint256 newSharesToBeAdded) public { //make this ownable - only contract itself can update this?... */\n    tag_122:\n        /* \"BentoboxDappFlattened.sol\":18841:18842  0 */\n      0x00\n        /* \"BentoboxDappFlattened.sol\":18814:18832  userNumberOfShares */\n      0x01\n        /* \"BentoboxDappFlattened.sol\":18814:18838  userNumberOfShares[user] */\n      0x00\n        /* \"BentoboxDappFlattened.sol\":18833:18837  user */\n      dup5\n        /* \"BentoboxDappFlattened.sol\":18814:18838  userNumberOfShares[user] */\n      0xffffffffffffffffffffffffffffffffffffffff\n      and\n      0xffffffffffffffffffffffffffffffffffffffff\n      and\n      dup2\n      mstore\n      0x20\n      add\n      swap1\n      dup2\n      mstore\n      0x20\n      add\n      0x00\n      keccak256\n      sload\n        /* \"BentoboxDappFlattened.sol\":18814:18842  userNumberOfShares[user] ==0 */\n      eq\n        /* \"BentoboxDappFlattened.sol\":18810:19012  if (userNumberOfShares[user] ==0) {... */\n      iszero\n      tag_197\n      jumpi\n        /* \"BentoboxDappFlattened.sol\":18885:18903  newSharesToBeAdded */\n      dup1\n        /* \"BentoboxDappFlattened.sol\":18858:18876  userNumberOfShares */\n      0x01\n        /* \"BentoboxDappFlattened.sol\":18858:18882  userNumberOfShares[user] */\n      0x00\n        /* \"BentoboxDappFlattened.sol\":18877:18881  user */\n      dup5\n        /* \"BentoboxDappFlattened.sol\":18858:18882  userNumberOfShares[user] */\n      0xffffffffffffffffffffffffffffffffffffffff\n      and\n      0xffffffffffffffffffffffffffffffffffffffff\n      and\n      dup2\n      mstore\n      0x20\n      add\n      swap1\n      dup2\n      mstore\n      0x20\n      add\n      0x00\n      keccak256\n        /* \"BentoboxDappFlattened.sol\":18858:18903  userNumberOfShares[user] = newSharesToBeAdded */\n      dup2\n      swap1\n      sstore\n      pop\n        /* \"BentoboxDappFlattened.sol\":18810:19012  if (userNumberOfShares[user] ==0) {... */\n      jump(tag_198)\n    tag_197:\n        /* \"BentoboxDappFlattened.sol\":18983:19001  newSharesToBeAdded */\n      dup1\n        /* \"BentoboxDappFlattened.sol\":18955:18973  userNumberOfShares */\n      0x01\n        /* \"BentoboxDappFlattened.sol\":18955:18979  userNumberOfShares[user] */\n      0x00\n        /* \"BentoboxDappFlattened.sol\":18974:18978  user */\n      dup5\n        /* \"BentoboxDappFlattened.sol\":18955:18979  userNumberOfShares[user] */\n      0xffffffffffffffffffffffffffffffffffffffff\n      and\n      0xffffffffffffffffffffffffffffffffffffffff\n      and\n      dup2\n      mstore\n      0x20\n      add\n      swap1\n      dup2\n      mstore\n      0x20\n      add\n      0x00\n      keccak256\n      0x00\n        /* \"BentoboxDappFlattened.sol\":18955:19001  userNumberOfShares[user] += newSharesToBeAdded */\n      dup3\n      dup3\n      sload\n      add\n      swap3\n      pop\n      pop\n      dup2\n      swap1\n      sstore\n      pop\n        /* \"BentoboxDappFlattened.sol\":18810:19012  if (userNumberOfShares[user] ==0) {... */\n    tag_198:\n        /* \"BentoboxDappFlattened.sol\":19044:19062  newSharesToBeAdded */\n      dup1\n        /* \"BentoboxDappFlattened.sol\":19021:19040  totalNumberOfShares */\n      0x00\n      dup1\n        /* \"BentoboxDappFlattened.sol\":19021:19062  totalNumberOfShares += newSharesToBeAdded */\n      dup3\n      dup3\n      sload\n      add\n      swap3\n      pop\n      pop\n      dup2\n      swap1\n      sstore\n      pop\n        /* \"BentoboxDappFlattened.sol\":18660:19069  function updateSharesOnDeposit(address user, uint256 newSharesToBeAdded) public { //make this ownable - only contract itself can update this?... */\n      pop\n      pop\n      jump\t// out\n        /* \"BentoboxDappFlattened.sol\":18252:18332  IUniswapV2Router02 public sushiSwapRouter = IUniswapV2Router02(SUSHISWAP_ROUTER) */\n    tag_125:\n      0x03\n      0x00\n      swap1\n      sload\n      swap1\n      0x0100\n      exp\n      swap1\n      div\n      0xffffffffffffffffffffffffffffffffffffffff\n      and\n      dup2\n      jump\t// out\n        /* \"--CODEGEN--\":5:135   */\n    tag_200:\n      0x00\n        /* \"--CODEGEN--\":85:91   */\n      dup2\n        /* \"--CODEGEN--\":72:92   */\n      calldataload\n        /* \"--CODEGEN--\":63:92   */\n      swap1\n      pop\n        /* \"--CODEGEN--\":97:130   */\n      tag_202\n        /* \"--CODEGEN--\":124:129   */\n      dup2\n        /* \"--CODEGEN--\":97:130   */\n      tag_203\n      jump\t// in\n    tag_202:\n        /* \"--CODEGEN--\":57:135   */\n      swap3\n      swap2\n      pop\n      pop\n      jump\t// out\n        /* \"--CODEGEN--\":160:512   */\n    tag_204:\n      0x00\n      dup1\n        /* \"--CODEGEN--\":290:293   */\n      dup4\n        /* \"--CODEGEN--\":283:287   */\n      0x1f\n        /* \"--CODEGEN--\":275:281   */\n      dup5\n        /* \"--CODEGEN--\":271:288   */\n      add\n        /* \"--CODEGEN--\":267:294   */\n      slt\n        /* \"--CODEGEN--\":257:259   */\n      tag_206\n      jumpi\n        /* \"--CODEGEN--\":308:309   */\n      0x00\n        /* \"--CODEGEN--\":305:306   */\n      dup1\n        /* \"--CODEGEN--\":298:310   */\n      revert\n        /* \"--CODEGEN--\":257:259   */\n    tag_206:\n        /* \"--CODEGEN--\":341:347   */\n      dup3\n        /* \"--CODEGEN--\":328:348   */\n      calldataload\n        /* \"--CODEGEN--\":318:348   */\n      swap1\n      pop\n        /* \"--CODEGEN--\":368:386   */\n      0xffffffffffffffff\n        /* \"--CODEGEN--\":360:366   */\n      dup2\n        /* \"--CODEGEN--\":357:387   */\n      gt\n        /* \"--CODEGEN--\":354:356   */\n      iszero\n      tag_207\n      jumpi\n        /* \"--CODEGEN--\":400:401   */\n      0x00\n        /* \"--CODEGEN--\":397:398   */\n      dup1\n        /* \"--CODEGEN--\":390:402   */\n      revert\n        /* \"--CODEGEN--\":354:356   */\n    tag_207:\n        /* \"--CODEGEN--\":434:438   */\n      0x20\n        /* \"--CODEGEN--\":426:432   */\n      dup4\n        /* \"--CODEGEN--\":422:439   */\n      add\n        /* \"--CODEGEN--\":410:439   */\n      swap2\n      pop\n        /* \"--CODEGEN--\":485:488   */\n      dup4\n        /* \"--CODEGEN--\":477:481   */\n      0x20\n        /* \"--CODEGEN--\":469:475   */\n      dup3\n        /* \"--CODEGEN--\":465:482   */\n      mul\n        /* \"--CODEGEN--\":455:463   */\n      dup4\n        /* \"--CODEGEN--\":451:483   */\n      add\n        /* \"--CODEGEN--\":448:489   */\n      gt\n        /* \"--CODEGEN--\":445:447   */\n      iszero\n      tag_208\n      jumpi\n        /* \"--CODEGEN--\":502:503   */\n      0x00\n        /* \"--CODEGEN--\":499:500   */\n      dup1\n        /* \"--CODEGEN--\":492:504   */\n      revert\n        /* \"--CODEGEN--\":445:447   */\n    tag_208:\n        /* \"--CODEGEN--\":250:512   */\n      swap3\n      pop\n      swap3\n      swap1\n      pop\n      jump\t// out\n        /* \"--CODEGEN--\":538:1260   */\n    tag_209:\n      0x00\n        /* \"--CODEGEN--\":666:669   */\n      dup3\n        /* \"--CODEGEN--\":659:663   */\n      0x1f\n        /* \"--CODEGEN--\":651:657   */\n      dup4\n        /* \"--CODEGEN--\":647:664   */\n      add\n        /* \"--CODEGEN--\":643:670   */\n      slt\n        /* \"--CODEGEN--\":633:635   */\n      tag_211\n      jumpi\n        /* \"--CODEGEN--\":684:685   */\n      0x00\n        /* \"--CODEGEN--\":681:682   */\n      dup1\n        /* \"--CODEGEN--\":674:686   */\n      revert\n        /* \"--CODEGEN--\":633:635   */\n    tag_211:\n        /* \"--CODEGEN--\":714:720   */\n      dup2\n        /* \"--CODEGEN--\":708:721   */\n      mload\n        /* \"--CODEGEN--\":736:816   */\n      tag_212\n        /* \"--CODEGEN--\":751:815   */\n      tag_213\n        /* \"--CODEGEN--\":808:814   */\n      dup3\n        /* \"--CODEGEN--\":751:815   */\n      tag_214\n      jump\t// in\n    tag_213:\n        /* \"--CODEGEN--\":736:816   */\n      tag_215\n      jump\t// in\n    tag_212:\n        /* \"--CODEGEN--\":727:816   */\n      swap2\n      pop\n        /* \"--CODEGEN--\":833:838   */\n      dup2\n        /* \"--CODEGEN--\":858:864   */\n      dup2\n        /* \"--CODEGEN--\":851:856   */\n      dup4\n        /* \"--CODEGEN--\":844:865   */\n      mstore\n        /* \"--CODEGEN--\":888:892   */\n      0x20\n        /* \"--CODEGEN--\":880:886   */\n      dup5\n        /* \"--CODEGEN--\":876:893   */\n      add\n        /* \"--CODEGEN--\":866:893   */\n      swap4\n      pop\n        /* \"--CODEGEN--\":910:914   */\n      0x20\n        /* \"--CODEGEN--\":905:908   */\n      dup2\n        /* \"--CODEGEN--\":901:915   */\n      add\n        /* \"--CODEGEN--\":894:915   */\n      swap1\n      pop\n        /* \"--CODEGEN--\":963:969   */\n      dup4\n        /* \"--CODEGEN--\":1010:1013   */\n      dup6\n        /* \"--CODEGEN--\":1002:1006   */\n      0x20\n        /* \"--CODEGEN--\":994:1000   */\n      dup5\n        /* \"--CODEGEN--\":990:1007   */\n      mul\n        /* \"--CODEGEN--\":985:988   */\n      dup3\n        /* \"--CODEGEN--\":981:1008   */\n      add\n        /* \"--CODEGEN--\":978:1014   */\n      gt\n        /* \"--CODEGEN--\":975:977   */\n      iszero\n      tag_216\n      jumpi\n        /* \"--CODEGEN--\":1027:1028   */\n      0x00\n        /* \"--CODEGEN--\":1024:1025   */\n      dup1\n        /* \"--CODEGEN--\":1017:1029   */\n      revert\n        /* \"--CODEGEN--\":975:977   */\n    tag_216:\n        /* \"--CODEGEN--\":1052:1053   */\n      0x00\n        /* \"--CODEGEN--\":1037:1254   */\n    tag_217:\n        /* \"--CODEGEN--\":1062:1068   */\n      dup4\n        /* \"--CODEGEN--\":1059:1060   */\n      dup2\n        /* \"--CODEGEN--\":1056:1069   */\n      lt\n        /* \"--CODEGEN--\":1037:1254   */\n      iszero\n      tag_219\n      jumpi\n        /* \"--CODEGEN--\":1120:1123   */\n      dup2\n        /* \"--CODEGEN--\":1142:1190   */\n      tag_220\n        /* \"--CODEGEN--\":1186:1189   */\n      dup9\n        /* \"--CODEGEN--\":1174:1184   */\n      dup3\n        /* \"--CODEGEN--\":1142:1190   */\n      tag_221\n      jump\t// in\n    tag_220:\n        /* \"--CODEGEN--\":1137:1140   */\n      dup5\n        /* \"--CODEGEN--\":1130:1191   */\n      mstore\n        /* \"--CODEGEN--\":1214:1218   */\n      0x20\n        /* \"--CODEGEN--\":1209:1212   */\n      dup5\n        /* \"--CODEGEN--\":1205:1219   */\n      add\n        /* \"--CODEGEN--\":1198:1219   */\n      swap4\n      pop\n        /* \"--CODEGEN--\":1242:1246   */\n      0x20\n        /* \"--CODEGEN--\":1237:1240   */\n      dup4\n        /* \"--CODEGEN--\":1233:1247   */\n      add\n        /* \"--CODEGEN--\":1226:1247   */\n      swap3\n      pop\n        /* \"--CODEGEN--\":1094:1254   */\n      pop\n        /* \"--CODEGEN--\":1084:1085   */\n      0x01\n        /* \"--CODEGEN--\":1081:1082   */\n      dup2\n        /* \"--CODEGEN--\":1077:1086   */\n      add\n        /* \"--CODEGEN--\":1072:1086   */\n      swap1\n      pop\n        /* \"--CODEGEN--\":1037:1254   */\n      jump(tag_217)\n    tag_219:\n        /* \"--CODEGEN--\":1041:1055   */\n      pop\n        /* \"--CODEGEN--\":626:1260   */\n      pop\n      pop\n      pop\n      swap3\n      swap2\n      pop\n      pop\n      jump\t// out\n        /* \"--CODEGEN--\":1268:1396   */\n    tag_222:\n      0x00\n        /* \"--CODEGEN--\":1349:1355   */\n      dup2\n        /* \"--CODEGEN--\":1343:1356   */\n      mload\n        /* \"--CODEGEN--\":1334:1356   */\n      swap1\n      pop\n        /* \"--CODEGEN--\":1361:1391   */\n      tag_224\n        /* \"--CODEGEN--\":1385:1390   */\n      dup2\n        /* \"--CODEGEN--\":1361:1391   */\n      tag_225\n      jump\t// in\n    tag_224:\n        /* \"--CODEGEN--\":1328:1396   */\n      swap3\n      swap2\n      pop\n      pop\n      jump\t// out\n        /* \"--CODEGEN--\":1403:1533   */\n    tag_226:\n      0x00\n        /* \"--CODEGEN--\":1483:1489   */\n      dup2\n        /* \"--CODEGEN--\":1470:1490   */\n      calldataload\n        /* \"--CODEGEN--\":1461:1490   */\n      swap1\n      pop\n        /* \"--CODEGEN--\":1495:1528   */\n      tag_228\n        /* \"--CODEGEN--\":1522:1527   */\n      dup2\n        /* \"--CODEGEN--\":1495:1528   */\n      tag_229\n      jump\t// in\n    tag_228:\n        /* \"--CODEGEN--\":1455:1533   */\n      swap3\n      swap2\n      pop\n      pop\n      jump\t// out\n        /* \"--CODEGEN--\":1540:1674   */\n    tag_221:\n      0x00\n        /* \"--CODEGEN--\":1624:1630   */\n      dup2\n        /* \"--CODEGEN--\":1618:1631   */\n      mload\n        /* \"--CODEGEN--\":1609:1631   */\n      swap1\n      pop\n        /* \"--CODEGEN--\":1636:1669   */\n      tag_231\n        /* \"--CODEGEN--\":1663:1668   */\n      dup2\n        /* \"--CODEGEN--\":1636:1669   */\n      tag_229\n      jump\t// in\n    tag_231:\n        /* \"--CODEGEN--\":1603:1674   */\n      swap3\n      swap2\n      pop\n      pop\n      jump\t// out\n        /* \"--CODEGEN--\":1681:1922   */\n    tag_60:\n      0x00\n        /* \"--CODEGEN--\":1785:1787   */\n      0x20\n        /* \"--CODEGEN--\":1773:1782   */\n      dup3\n        /* \"--CODEGEN--\":1764:1771   */\n      dup5\n        /* \"--CODEGEN--\":1760:1783   */\n      sub\n        /* \"--CODEGEN--\":1756:1788   */\n      slt\n        /* \"--CODEGEN--\":1753:1755   */\n      iszero\n      tag_233\n      jumpi\n        /* \"--CODEGEN--\":1801:1802   */\n      0x00\n        /* \"--CODEGEN--\":1798:1799   */\n      dup1\n        /* \"--CODEGEN--\":1791:1803   */\n      revert\n        /* \"--CODEGEN--\":1753:1755   */\n    tag_233:\n        /* \"--CODEGEN--\":1836:1837   */\n      0x00\n        /* \"--CODEGEN--\":1853:1906   */\n      tag_234\n        /* \"--CODEGEN--\":1898:1905   */\n      dup5\n        /* \"--CODEGEN--\":1889:1895   */\n      dup3\n        /* \"--CODEGEN--\":1878:1887   */\n      dup6\n        /* \"--CODEGEN--\":1874:1896   */\n      add\n        /* \"--CODEGEN--\":1853:1906   */\n      tag_200\n      jump\t// in\n    tag_234:\n        /* \"--CODEGEN--\":1843:1906   */\n      swap2\n      pop\n        /* \"--CODEGEN--\":1815:1912   */\n      pop\n        /* \"--CODEGEN--\":1747:1922   */\n      swap3\n      swap2\n      pop\n      pop\n      jump\t// out\n        /* \"--CODEGEN--\":1929:2295   */\n    tag_106:\n      0x00\n      dup1\n        /* \"--CODEGEN--\":2050:2052   */\n      0x40\n        /* \"--CODEGEN--\":2038:2047   */\n      dup4\n        /* \"--CODEGEN--\":2029:2036   */\n      dup6\n        /* \"--CODEGEN--\":2025:2048   */\n      sub\n        /* \"--CODEGEN--\":2021:2053   */\n      slt\n        /* \"--CODEGEN--\":2018:2020   */\n      iszero\n      tag_236\n      jumpi\n        /* \"--CODEGEN--\":2066:2067   */\n      0x00\n        /* \"--CODEGEN--\":2063:2064   */\n      dup1\n        /* \"--CODEGEN--\":2056:2068   */\n      revert\n        /* \"--CODEGEN--\":2018:2020   */\n    tag_236:\n        /* \"--CODEGEN--\":2101:2102   */\n      0x00\n        /* \"--CODEGEN--\":2118:2171   */\n      tag_237\n        /* \"--CODEGEN--\":2163:2170   */\n      dup6\n        /* \"--CODEGEN--\":2154:2160   */\n      dup3\n        /* \"--CODEGEN--\":2143:2152   */\n      dup7\n        /* \"--CODEGEN--\":2139:2161   */\n      add\n        /* \"--CODEGEN--\":2118:2171   */\n      tag_200\n      jump\t// in\n    tag_237:\n        /* \"--CODEGEN--\":2108:2171   */\n      swap3\n      pop\n        /* \"--CODEGEN--\":2080:2177   */\n      pop\n        /* \"--CODEGEN--\":2208:2210   */\n      0x20\n        /* \"--CODEGEN--\":2226:2279   */\n      tag_238\n        /* \"--CODEGEN--\":2271:2278   */\n      dup6\n        /* \"--CODEGEN--\":2262:2268   */\n      dup3\n        /* \"--CODEGEN--\":2251:2260   */\n      dup7\n        /* \"--CODEGEN--\":2247:2269   */\n      add\n        /* \"--CODEGEN--\":2226:2279   */\n      tag_200\n      jump\t// in\n    tag_238:\n        /* \"--CODEGEN--\":2216:2279   */\n      swap2\n      pop\n        /* \"--CODEGEN--\":2187:2285   */\n      pop\n        /* \"--CODEGEN--\":2012:2295   */\n      swap3\n      pop\n      swap3\n      swap1\n      pop\n      jump\t// out\n        /* \"--CODEGEN--\":2302:2793   */\n    tag_37:\n      0x00\n      dup1\n      0x00\n        /* \"--CODEGEN--\":2440:2442   */\n      0x60\n        /* \"--CODEGEN--\":2428:2437   */\n      dup5\n        /* \"--CODEGEN--\":2419:2426   */\n      dup7\n        /* \"--CODEGEN--\":2415:2438   */\n      sub\n        /* \"--CODEGEN--\":2411:2443   */\n      slt\n        /* \"--CODEGEN--\":2408:2410   */\n      iszero\n      tag_240\n      jumpi\n        /* \"--CODEGEN--\":2456:2457   */\n      0x00\n        /* \"--CODEGEN--\":2453:2454   */\n      dup1\n        /* \"--CODEGEN--\":2446:2458   */\n      revert\n        /* \"--CODEGEN--\":2408:2410   */\n    tag_240:\n        /* \"--CODEGEN--\":2491:2492   */\n      0x00\n        /* \"--CODEGEN--\":2508:2561   */\n      tag_241\n        /* \"--CODEGEN--\":2553:2560   */\n      dup7\n        /* \"--CODEGEN--\":2544:2550   */\n      dup3\n        /* \"--CODEGEN--\":2533:2542   */\n      dup8\n        /* \"--CODEGEN--\":2529:2551   */\n      add\n        /* \"--CODEGEN--\":2508:2561   */\n      tag_200\n      jump\t// in\n    tag_241:\n        /* \"--CODEGEN--\":2498:2561   */\n      swap4\n      pop\n        /* \"--CODEGEN--\":2470:2567   */\n      pop\n        /* \"--CODEGEN--\":2598:2600   */\n      0x20\n        /* \"--CODEGEN--\":2616:2669   */\n      tag_242\n        /* \"--CODEGEN--\":2661:2668   */\n      dup7\n        /* \"--CODEGEN--\":2652:2658   */\n      dup3\n        /* \"--CODEGEN--\":2641:2650   */\n      dup8\n        /* \"--CODEGEN--\":2637:2659   */\n      add\n        /* \"--CODEGEN--\":2616:2669   */\n      tag_200\n      jump\t// in\n    tag_242:\n        /* \"--CODEGEN--\":2606:2669   */\n      swap3\n      pop\n        /* \"--CODEGEN--\":2577:2675   */\n      pop\n        /* \"--CODEGEN--\":2706:2708   */\n      0x40\n        /* \"--CODEGEN--\":2724:2777   */\n      tag_243\n        /* \"--CODEGEN--\":2769:2776   */\n      dup7\n        /* \"--CODEGEN--\":2760:2766   */\n      dup3\n        /* \"--CODEGEN--\":2749:2758   */\n      dup8\n        /* \"--CODEGEN--\":2745:2767   */\n      add\n        /* \"--CODEGEN--\":2724:2777   */\n      tag_200\n      jump\t// in\n    tag_243:\n        /* \"--CODEGEN--\":2714:2777   */\n      swap2\n      pop\n        /* \"--CODEGEN--\":2685:2783   */\n      pop\n        /* \"--CODEGEN--\":2402:2793   */\n      swap3\n      pop\n      swap3\n      pop\n      swap3\n      jump\t// out\n        /* \"--CODEGEN--\":2800:3291   */\n    tag_51:\n      0x00\n      dup1\n      0x00\n        /* \"--CODEGEN--\":2938:2940   */\n      0x60\n        /* \"--CODEGEN--\":2926:2935   */\n      dup5\n        /* \"--CODEGEN--\":2917:2924   */\n      dup7\n        /* \"--CODEGEN--\":2913:2936   */\n      sub\n        /* \"--CODEGEN--\":2909:2941   */\n      slt\n        /* \"--CODEGEN--\":2906:2908   */\n      iszero\n      tag_245\n      jumpi\n        /* \"--CODEGEN--\":2954:2955   */\n      0x00\n        /* \"--CODEGEN--\":2951:2952   */\n      dup1\n        /* \"--CODEGEN--\":2944:2956   */\n      revert\n        /* \"--CODEGEN--\":2906:2908   */\n    tag_245:\n        /* \"--CODEGEN--\":2989:2990   */\n      0x00\n        /* \"--CODEGEN--\":3006:3059   */\n      tag_246\n        /* \"--CODEGEN--\":3051:3058   */\n      dup7\n        /* \"--CODEGEN--\":3042:3048   */\n      dup3\n        /* \"--CODEGEN--\":3031:3040   */\n      dup8\n        /* \"--CODEGEN--\":3027:3049   */\n      add\n        /* \"--CODEGEN--\":3006:3059   */\n      tag_200\n      jump\t// in\n    tag_246:\n        /* \"--CODEGEN--\":2996:3059   */\n      swap4\n      pop\n        /* \"--CODEGEN--\":2968:3065   */\n      pop\n        /* \"--CODEGEN--\":3096:3098   */\n      0x20\n        /* \"--CODEGEN--\":3114:3167   */\n      tag_247\n        /* \"--CODEGEN--\":3159:3166   */\n      dup7\n        /* \"--CODEGEN--\":3150:3156   */\n      dup3\n        /* \"--CODEGEN--\":3139:3148   */\n      dup8\n        /* \"--CODEGEN--\":3135:3157   */\n      add\n        /* \"--CODEGEN--\":3114:3167   */\n      tag_200\n      jump\t// in\n    tag_247:\n        /* \"--CODEGEN--\":3104:3167   */\n      swap3\n      pop\n        /* \"--CODEGEN--\":3075:3173   */\n      pop\n        /* \"--CODEGEN--\":3204:3206   */\n      0x40\n        /* \"--CODEGEN--\":3222:3275   */\n      tag_248\n        /* \"--CODEGEN--\":3267:3274   */\n      dup7\n        /* \"--CODEGEN--\":3258:3264   */\n      dup3\n        /* \"--CODEGEN--\":3247:3256   */\n      dup8\n        /* \"--CODEGEN--\":3243:3265   */\n      add\n        /* \"--CODEGEN--\":3222:3275   */\n      tag_226\n      jump\t// in\n    tag_248:\n        /* \"--CODEGEN--\":3212:3275   */\n      swap2\n      pop\n        /* \"--CODEGEN--\":3183:3281   */\n      pop\n        /* \"--CODEGEN--\":2900:3291   */\n      swap3\n      pop\n      swap3\n      pop\n      swap3\n      jump\t// out\n        /* \"--CODEGEN--\":3298:3664   */\n    tag_121:\n      0x00\n      dup1\n        /* \"--CODEGEN--\":3419:3421   */\n      0x40\n        /* \"--CODEGEN--\":3407:3416   */\n      dup4\n        /* \"--CODEGEN--\":3398:3405   */\n      dup6\n        /* \"--CODEGEN--\":3394:3417   */\n      sub\n        /* \"--CODEGEN--\":3390:3422   */\n      slt\n        /* \"--CODEGEN--\":3387:3389   */\n      iszero\n      tag_250\n      jumpi\n        /* \"--CODEGEN--\":3435:3436   */\n      0x00\n        /* \"--CODEGEN--\":3432:3433   */\n      dup1\n        /* \"--CODEGEN--\":3425:3437   */\n      revert\n        /* \"--CODEGEN--\":3387:3389   */\n    tag_250:\n        /* \"--CODEGEN--\":3470:3471   */\n      0x00\n        /* \"--CODEGEN--\":3487:3540   */\n      tag_251\n        /* \"--CODEGEN--\":3532:3539   */\n      dup6\n        /* \"--CODEGEN--\":3523:3529   */\n      dup3\n        /* \"--CODEGEN--\":3512:3521   */\n      dup7\n        /* \"--CODEGEN--\":3508:3530   */\n      add\n        /* \"--CODEGEN--\":3487:3540   */\n      tag_200\n      jump\t// in\n    tag_251:\n        /* \"--CODEGEN--\":3477:3540   */\n      swap3\n      pop\n        /* \"--CODEGEN--\":3449:3546   */\n      pop\n        /* \"--CODEGEN--\":3577:3579   */\n      0x20\n        /* \"--CODEGEN--\":3595:3648   */\n      tag_252\n        /* \"--CODEGEN--\":3640:3647   */\n      dup6\n        /* \"--CODEGEN--\":3631:3637   */\n      dup3\n        /* \"--CODEGEN--\":3620:3629   */\n      dup7\n        /* \"--CODEGEN--\":3616:3638   */\n      add\n        /* \"--CODEGEN--\":3595:3648   */\n      tag_226\n      jump\t// in\n    tag_252:\n        /* \"--CODEGEN--\":3585:3648   */\n      swap2\n      pop\n        /* \"--CODEGEN--\":3556:3654   */\n      pop\n        /* \"--CODEGEN--\":3381:3664   */\n      swap3\n      pop\n      swap3\n      swap1\n      pop\n      jump\t// out\n        /* \"--CODEGEN--\":3671:4288   */\n    tag_70:\n      0x00\n      dup1\n      0x00\n      dup1\n        /* \"--CODEGEN--\":3826:3829   */\n      0x80\n        /* \"--CODEGEN--\":3814:3823   */\n      dup6\n        /* \"--CODEGEN--\":3805:3812   */\n      dup8\n        /* \"--CODEGEN--\":3801:3824   */\n      sub\n        /* \"--CODEGEN--\":3797:3830   */\n      slt\n        /* \"--CODEGEN--\":3794:3796   */\n      iszero\n      tag_254\n      jumpi\n        /* \"--CODEGEN--\":3843:3844   */\n      0x00\n        /* \"--CODEGEN--\":3840:3841   */\n      dup1\n        /* \"--CODEGEN--\":3833:3845   */\n      revert\n        /* \"--CODEGEN--\":3794:3796   */\n    tag_254:\n        /* \"--CODEGEN--\":3878:3879   */\n      0x00\n        /* \"--CODEGEN--\":3895:3948   */\n      tag_255\n        /* \"--CODEGEN--\":3940:3947   */\n      dup8\n        /* \"--CODEGEN--\":3931:3937   */\n      dup3\n        /* \"--CODEGEN--\":3920:3929   */\n      dup9\n        /* \"--CODEGEN--\":3916:3938   */\n      add\n        /* \"--CODEGEN--\":3895:3948   */\n      tag_200\n      jump\t// in\n    tag_255:\n        /* \"--CODEGEN--\":3885:3948   */\n      swap5\n      pop\n        /* \"--CODEGEN--\":3857:3954   */\n      pop\n        /* \"--CODEGEN--\":3985:3987   */\n      0x20\n        /* \"--CODEGEN--\":4003:4056   */\n      tag_256\n        /* \"--CODEGEN--\":4048:4055   */\n      dup8\n        /* \"--CODEGEN--\":4039:4045   */\n      dup3\n        /* \"--CODEGEN--\":4028:4037   */\n      dup9\n        /* \"--CODEGEN--\":4024:4046   */\n      add\n        /* \"--CODEGEN--\":4003:4056   */\n      tag_226\n      jump\t// in\n    tag_256:\n        /* \"--CODEGEN--\":3993:4056   */\n      swap4\n      pop\n        /* \"--CODEGEN--\":3964:4062   */\n      pop\n        /* \"--CODEGEN--\":4093:4095   */\n      0x40\n        /* \"--CODEGEN--\":4111:4164   */\n      tag_257\n        /* \"--CODEGEN--\":4156:4163   */\n      dup8\n        /* \"--CODEGEN--\":4147:4153   */\n      dup3\n        /* \"--CODEGEN--\":4136:4145   */\n      dup9\n        /* \"--CODEGEN--\":4132:4154   */\n      add\n        /* \"--CODEGEN--\":4111:4164   */\n      tag_200\n      jump\t// in\n    tag_257:\n        /* \"--CODEGEN--\":4101:4164   */\n      swap3\n      pop\n        /* \"--CODEGEN--\":4072:4170   */\n      pop\n        /* \"--CODEGEN--\":4201:4203   */\n      0x60\n        /* \"--CODEGEN--\":4219:4272   */\n      tag_258\n        /* \"--CODEGEN--\":4264:4271   */\n      dup8\n        /* \"--CODEGEN--\":4255:4261   */\n      dup3\n        /* \"--CODEGEN--\":4244:4253   */\n      dup9\n        /* \"--CODEGEN--\":4240:4262   */\n      add\n        /* \"--CODEGEN--\":4219:4272   */\n      tag_200\n      jump\t// in\n    tag_258:\n        /* \"--CODEGEN--\":4209:4272   */\n      swap2\n      pop\n        /* \"--CODEGEN--\":4180:4278   */\n      pop\n        /* \"--CODEGEN--\":3788:4288   */\n      swap3\n      swap6\n      swap2\n      swap5\n      pop\n      swap3\n      pop\n      jump\t// out\n        /* \"--CODEGEN--\":4295:4687   */\n    tag_173:\n      0x00\n        /* \"--CODEGEN--\":4435:4437   */\n      0x20\n        /* \"--CODEGEN--\":4423:4432   */\n      dup3\n        /* \"--CODEGEN--\":4414:4421   */\n      dup5\n        /* \"--CODEGEN--\":4410:4433   */\n      sub\n        /* \"--CODEGEN--\":4406:4438   */\n      slt\n        /* \"--CODEGEN--\":4403:4405   */\n      iszero\n      tag_260\n      jumpi\n        /* \"--CODEGEN--\":4451:4452   */\n      0x00\n        /* \"--CODEGEN--\":4448:4449   */\n      dup1\n        /* \"--CODEGEN--\":4441:4453   */\n      revert\n        /* \"--CODEGEN--\":4403:4405   */\n    tag_260:\n        /* \"--CODEGEN--\":4507:4508   */\n      0x00\n        /* \"--CODEGEN--\":4496:4505   */\n      dup3\n        /* \"--CODEGEN--\":4492:4509   */\n      add\n        /* \"--CODEGEN--\":4486:4510   */\n      mload\n        /* \"--CODEGEN--\":4530:4548   */\n      0xffffffffffffffff\n        /* \"--CODEGEN--\":4522:4528   */\n      dup2\n        /* \"--CODEGEN--\":4519:4549   */\n      gt\n        /* \"--CODEGEN--\":4516:4518   */\n      iszero\n      tag_261\n      jumpi\n        /* \"--CODEGEN--\":4562:4563   */\n      0x00\n        /* \"--CODEGEN--\":4559:4560   */\n      dup1\n        /* \"--CODEGEN--\":4552:4564   */\n      revert\n        /* \"--CODEGEN--\":4516:4518   */\n    tag_261:\n        /* \"--CODEGEN--\":4582:4671   */\n      tag_262\n        /* \"--CODEGEN--\":4663:4670   */\n      dup5\n        /* \"--CODEGEN--\":4654:4660   */\n      dup3\n        /* \"--CODEGEN--\":4643:4652   */\n      dup6\n        /* \"--CODEGEN--\":4639:4661   */\n      add\n        /* \"--CODEGEN--\":4582:4671   */\n      tag_209\n      jump\t// in\n    tag_262:\n        /* \"--CODEGEN--\":4572:4671   */\n      swap2\n      pop\n        /* \"--CODEGEN--\":4465:4677   */\n      pop\n        /* \"--CODEGEN--\":4397:4687   */\n      swap3\n      swap2\n      pop\n      pop\n      jump\t// out\n        /* \"--CODEGEN--\":4694:4951   */\n    tag_155:\n      0x00\n        /* \"--CODEGEN--\":4806:4808   */\n      0x20\n        /* \"--CODEGEN--\":4794:4803   */\n      dup3\n        /* \"--CODEGEN--\":4785:4792   */\n      dup5\n        /* \"--CODEGEN--\":4781:4804   */\n      sub\n        /* \"--CODEGEN--\":4777:4809   */\n      slt\n        /* \"--CODEGEN--\":4774:4776   */\n      iszero\n      tag_264\n      jumpi\n        /* \"--CODEGEN--\":4822:4823   */\n      0x00\n        /* \"--CODEGEN--\":4819:4820   */\n      dup1\n        /* \"--CODEGEN--\":4812:4824   */\n      revert\n        /* \"--CODEGEN--\":4774:4776   */\n    tag_264:\n        /* \"--CODEGEN--\":4857:4858   */\n      0x00\n        /* \"--CODEGEN--\":4874:4935   */\n      tag_265\n        /* \"--CODEGEN--\":4927:4934   */\n      dup5\n        /* \"--CODEGEN--\":4918:4924   */\n      dup3\n        /* \"--CODEGEN--\":4907:4916   */\n      dup6\n        /* \"--CODEGEN--\":4903:4925   */\n      add\n        /* \"--CODEGEN--\":4874:4935   */\n      tag_222\n      jump\t// in\n    tag_265:\n        /* \"--CODEGEN--\":4864:4935   */\n      swap2\n      pop\n        /* \"--CODEGEN--\":4836:4941   */\n      pop\n        /* \"--CODEGEN--\":4768:4951   */\n      swap3\n      swap2\n      pop\n      pop\n      jump\t// out\n        /* \"--CODEGEN--\":4958:5199   */\n    tag_101:\n      0x00\n        /* \"--CODEGEN--\":5062:5064   */\n      0x20\n        /* \"--CODEGEN--\":5050:5059   */\n      dup3\n        /* \"--CODEGEN--\":5041:5048   */\n      dup5\n        /* \"--CODEGEN--\":5037:5060   */\n      sub\n        /* \"--CODEGEN--\":5033:5065   */\n      slt\n        /* \"--CODEGEN--\":5030:5032   */\n      iszero\n      tag_267\n      jumpi\n        /* \"--CODEGEN--\":5078:5079   */\n      0x00\n        /* \"--CODEGEN--\":5075:5076   */\n      dup1\n        /* \"--CODEGEN--\":5068:5080   */\n      revert\n        /* \"--CODEGEN--\":5030:5032   */\n    tag_267:\n        /* \"--CODEGEN--\":5113:5114   */\n      0x00\n        /* \"--CODEGEN--\":5130:5183   */\n      tag_268\n        /* \"--CODEGEN--\":5175:5182   */\n      dup5\n        /* \"--CODEGEN--\":5166:5172   */\n      dup3\n        /* \"--CODEGEN--\":5155:5164   */\n      dup6\n        /* \"--CODEGEN--\":5151:5173   */\n      add\n        /* \"--CODEGEN--\":5130:5183   */\n      tag_226\n      jump\t// in\n    tag_268:\n        /* \"--CODEGEN--\":5120:5183   */\n      swap2\n      pop\n        /* \"--CODEGEN--\":5092:5189   */\n      pop\n        /* \"--CODEGEN--\":5024:5199   */\n      swap3\n      swap2\n      pop\n      pop\n      jump\t// out\n        /* \"--CODEGEN--\":5206:5469   */\n    tag_134:\n      0x00\n        /* \"--CODEGEN--\":5321:5323   */\n      0x20\n        /* \"--CODEGEN--\":5309:5318   */\n      dup3\n        /* \"--CODEGEN--\":5300:5307   */\n      dup5\n        /* \"--CODEGEN--\":5296:5319   */\n      sub\n        /* \"--CODEGEN--\":5292:5324   */\n      slt\n        /* \"--CODEGEN--\":5289:5291   */\n      iszero\n      tag_270\n      jumpi\n        /* \"--CODEGEN--\":5337:5338   */\n      0x00\n        /* \"--CODEGEN--\":5334:5335   */\n      dup1\n        /* \"--CODEGEN--\":5327:5339   */\n      revert\n        /* \"--CODEGEN--\":5289:5291   */\n    tag_270:\n        /* \"--CODEGEN--\":5372:5373   */\n      0x00\n        /* \"--CODEGEN--\":5389:5453   */\n      tag_271\n        /* \"--CODEGEN--\":5445:5452   */\n      dup5\n        /* \"--CODEGEN--\":5436:5442   */\n      dup3\n        /* \"--CODEGEN--\":5425:5434   */\n      dup6\n        /* \"--CODEGEN--\":5421:5443   */\n      add\n        /* \"--CODEGEN--\":5389:5453   */\n      tag_221\n      jump\t// in\n    tag_271:\n        /* \"--CODEGEN--\":5379:5453   */\n      swap2\n      pop\n        /* \"--CODEGEN--\":5351:5459   */\n      pop\n        /* \"--CODEGEN--\":5283:5469   */\n      swap3\n      swap2\n      pop\n      pop\n      jump\t// out\n        /* \"--CODEGEN--\":5476:6093   */\n    tag_42:\n      0x00\n      dup1\n      0x00\n      dup1\n        /* \"--CODEGEN--\":5631:5634   */\n      0x80\n        /* \"--CODEGEN--\":5619:5628   */\n      dup6\n        /* \"--CODEGEN--\":5610:5617   */\n      dup8\n        /* \"--CODEGEN--\":5606:5629   */\n      sub\n        /* \"--CODEGEN--\":5602:5635   */\n      slt\n        /* \"--CODEGEN--\":5599:5601   */\n      iszero\n      tag_273\n      jumpi\n        /* \"--CODEGEN--\":5648:5649   */\n      0x00\n        /* \"--CODEGEN--\":5645:5646   */\n      dup1\n        /* \"--CODEGEN--\":5638:5650   */\n      revert\n        /* \"--CODEGEN--\":5599:5601   */\n    tag_273:\n        /* \"--CODEGEN--\":5683:5684   */\n      0x00\n        /* \"--CODEGEN--\":5700:5753   */\n      tag_274\n        /* \"--CODEGEN--\":5745:5752   */\n      dup8\n        /* \"--CODEGEN--\":5736:5742   */\n      dup3\n        /* \"--CODEGEN--\":5725:5734   */\n      dup9\n        /* \"--CODEGEN--\":5721:5743   */\n      add\n        /* \"--CODEGEN--\":5700:5753   */\n      tag_226\n      jump\t// in\n    tag_274:\n        /* \"--CODEGEN--\":5690:5753   */\n      swap5\n      pop\n        /* \"--CODEGEN--\":5662:5759   */\n      pop\n        /* \"--CODEGEN--\":5790:5792   */\n      0x20\n        /* \"--CODEGEN--\":5808:5861   */\n      tag_275\n        /* \"--CODEGEN--\":5853:5860   */\n      dup8\n        /* \"--CODEGEN--\":5844:5850   */\n      dup3\n        /* \"--CODEGEN--\":5833:5842   */\n      dup9\n        /* \"--CODEGEN--\":5829:5851   */\n      add\n        /* \"--CODEGEN--\":5808:5861   */\n      tag_200\n      jump\t// in\n    tag_275:\n        /* \"--CODEGEN--\":5798:5861   */\n      swap4\n      pop\n        /* \"--CODEGEN--\":5769:5867   */\n      pop\n        /* \"--CODEGEN--\":5898:5900   */\n      0x40\n        /* \"--CODEGEN--\":5916:5969   */\n      tag_276\n        /* \"--CODEGEN--\":5961:5968   */\n      dup8\n        /* \"--CODEGEN--\":5952:5958   */\n      dup3\n        /* \"--CODEGEN--\":5941:5950   */\n      dup9\n        /* \"--CODEGEN--\":5937:5959   */\n      add\n        /* \"--CODEGEN--\":5916:5969   */\n      tag_200\n      jump\t// in\n    tag_276:\n        /* \"--CODEGEN--\":5906:5969   */\n      swap3\n      pop\n        /* \"--CODEGEN--\":5877:5975   */\n      pop\n        /* \"--CODEGEN--\":6006:6008   */\n      0x60\n        /* \"--CODEGEN--\":6024:6077   */\n      tag_277\n        /* \"--CODEGEN--\":6069:6076   */\n      dup8\n        /* \"--CODEGEN--\":6060:6066   */\n      dup3\n        /* \"--CODEGEN--\":6049:6058   */\n      dup9\n        /* \"--CODEGEN--\":6045:6067   */\n      add\n        /* \"--CODEGEN--\":6024:6077   */\n      tag_200\n      jump\t// in\n    tag_277:\n        /* \"--CODEGEN--\":6014:6077   */\n      swap2\n      pop\n        /* \"--CODEGEN--\":5985:6083   */\n      pop\n        /* \"--CODEGEN--\":5593:6093   */\n      swap3\n      swap6\n      swap2\n      swap5\n      pop\n      swap3\n      pop\n      jump\t// out\n        /* \"--CODEGEN--\":6100:6499   */\n    tag_141:\n      0x00\n      dup1\n        /* \"--CODEGEN--\":6232:6234   */\n      0x40\n        /* \"--CODEGEN--\":6220:6229   */\n      dup4\n        /* \"--CODEGEN--\":6211:6218   */\n      dup6\n        /* \"--CODEGEN--\":6207:6230   */\n      sub\n        /* \"--CODEGEN--\":6203:6235   */\n      slt\n        /* \"--CODEGEN--\":6200:6202   */\n      iszero\n      tag_279\n      jumpi\n        /* \"--CODEGEN--\":6248:6249   */\n      0x00\n        /* \"--CODEGEN--\":6245:6246   */\n      dup1\n        /* \"--CODEGEN--\":6238:6250   */\n      revert\n        /* \"--CODEGEN--\":6200:6202   */\n    tag_279:\n        /* \"--CODEGEN--\":6283:6284   */\n      0x00\n        /* \"--CODEGEN--\":6300:6364   */\n      tag_280\n        /* \"--CODEGEN--\":6356:6363   */\n      dup6\n        /* \"--CODEGEN--\":6347:6353   */\n      dup3\n        /* \"--CODEGEN--\":6336:6345   */\n      dup7\n        /* \"--CODEGEN--\":6332:6354   */\n      add\n        /* \"--CODEGEN--\":6300:6364   */\n      tag_221\n      jump\t// in\n    tag_280:\n        /* \"--CODEGEN--\":6290:6364   */\n      swap3\n      pop\n        /* \"--CODEGEN--\":6262:6370   */\n      pop\n        /* \"--CODEGEN--\":6401:6403   */\n      0x20\n        /* \"--CODEGEN--\":6419:6483   */\n      tag_281\n        /* \"--CODEGEN--\":6475:6482   */\n      dup6\n        /* \"--CODEGEN--\":6466:6472   */\n      dup3\n        /* \"--CODEGEN--\":6455:6464   */\n      dup7\n        /* \"--CODEGEN--\":6451:6473   */\n      add\n        /* \"--CODEGEN--\":6419:6483   */\n      tag_221\n      jump\t// in\n    tag_281:\n        /* \"--CODEGEN--\":6409:6483   */\n      swap2\n      pop\n        /* \"--CODEGEN--\":6380:6489   */\n      pop\n        /* \"--CODEGEN--\":6194:6499   */\n      swap3\n      pop\n      swap3\n      swap1\n      pop\n      jump\t// out\n        /* \"--CODEGEN--\":6506:7405   */\n    tag_65:\n      0x00\n      dup1\n      0x00\n      dup1\n      0x00\n      dup1\n        /* \"--CODEGEN--\":6713:6716   */\n      0xa0\n        /* \"--CODEGEN--\":6701:6710   */\n      dup8\n        /* \"--CODEGEN--\":6692:6699   */\n      dup10\n        /* \"--CODEGEN--\":6688:6711   */\n      sub\n        /* \"--CODEGEN--\":6684:6717   */\n      slt\n        /* \"--CODEGEN--\":6681:6683   */\n      iszero\n      tag_283\n      jumpi\n        /* \"--CODEGEN--\":6730:6731   */\n      0x00\n        /* \"--CODEGEN--\":6727:6728   */\n      dup1\n        /* \"--CODEGEN--\":6720:6732   */\n      revert\n        /* \"--CODEGEN--\":6681:6683   */\n    tag_283:\n        /* \"--CODEGEN--\":6765:6766   */\n      0x00\n        /* \"--CODEGEN--\":6782:6835   */\n      tag_284\n        /* \"--CODEGEN--\":6827:6834   */\n      dup10\n        /* \"--CODEGEN--\":6818:6824   */\n      dup3\n        /* \"--CODEGEN--\":6807:6816   */\n      dup11\n        /* \"--CODEGEN--\":6803:6825   */\n      add\n        /* \"--CODEGEN--\":6782:6835   */\n      tag_226\n      jump\t// in\n    tag_284:\n        /* \"--CODEGEN--\":6772:6835   */\n      swap7\n      pop\n        /* \"--CODEGEN--\":6744:6841   */\n      pop\n        /* \"--CODEGEN--\":6872:6874   */\n      0x20\n        /* \"--CODEGEN--\":6890:6943   */\n      tag_285\n        /* \"--CODEGEN--\":6935:6942   */\n      dup10\n        /* \"--CODEGEN--\":6926:6932   */\n      dup3\n        /* \"--CODEGEN--\":6915:6924   */\n      dup11\n        /* \"--CODEGEN--\":6911:6933   */\n      add\n        /* \"--CODEGEN--\":6890:6943   */\n      tag_226\n      jump\t// in\n    tag_285:\n        /* \"--CODEGEN--\":6880:6943   */\n      swap6\n      pop\n        /* \"--CODEGEN--\":6851:6949   */\n      pop\n        /* \"--CODEGEN--\":7008:7010   */\n      0x40\n        /* \"--CODEGEN--\":6997:7006   */\n      dup8\n        /* \"--CODEGEN--\":6993:7011   */\n      add\n        /* \"--CODEGEN--\":6980:7012   */\n      calldataload\n        /* \"--CODEGEN--\":7032:7050   */\n      0xffffffffffffffff\n        /* \"--CODEGEN--\":7024:7030   */\n      dup2\n        /* \"--CODEGEN--\":7021:7051   */\n      gt\n        /* \"--CODEGEN--\":7018:7020   */\n      iszero\n      tag_286\n      jumpi\n        /* \"--CODEGEN--\":7064:7065   */\n      0x00\n        /* \"--CODEGEN--\":7061:7062   */\n      dup1\n        /* \"--CODEGEN--\":7054:7066   */\n      revert\n        /* \"--CODEGEN--\":7018:7020   */\n    tag_286:\n        /* \"--CODEGEN--\":7092:7172   */\n      tag_287\n        /* \"--CODEGEN--\":7164:7171   */\n      dup10\n        /* \"--CODEGEN--\":7155:7161   */\n      dup3\n        /* \"--CODEGEN--\":7144:7153   */\n      dup11\n        /* \"--CODEGEN--\":7140:7162   */\n      add\n        /* \"--CODEGEN--\":7092:7172   */\n      tag_204\n      jump\t// in\n    tag_287:\n        /* \"--CODEGEN--\":7074:7172   */\n      swap5\n      pop\n      swap5\n      pop\n        /* \"--CODEGEN--\":6959:7178   */\n      pop\n        /* \"--CODEGEN--\":7209:7211   */\n      0x60\n        /* \"--CODEGEN--\":7227:7280   */\n      tag_288\n        /* \"--CODEGEN--\":7272:7279   */\n      dup10\n        /* \"--CODEGEN--\":7263:7269   */\n      dup3\n        /* \"--CODEGEN--\":7252:7261   */\n      dup11\n        /* \"--CODEGEN--\":7248:7270   */\n      add\n        /* \"--CODEGEN--\":7227:7280   */\n      tag_200\n      jump\t// in\n    tag_288:\n        /* \"--CODEGEN--\":7217:7280   */\n      swap3\n      pop\n        /* \"--CODEGEN--\":7188:7286   */\n      pop\n        /* \"--CODEGEN--\":7317:7320   */\n      0x80\n        /* \"--CODEGEN--\":7336:7389   */\n      tag_289\n        /* \"--CODEGEN--\":7381:7388   */\n      dup10\n        /* \"--CODEGEN--\":7372:7378   */\n      dup3\n        /* \"--CODEGEN--\":7361:7370   */\n      dup11\n        /* \"--CODEGEN--\":7357:7379   */\n      add\n        /* \"--CODEGEN--\":7336:7389   */\n      tag_226\n      jump\t// in\n    tag_289:\n        /* \"--CODEGEN--\":7326:7389   */\n      swap2\n      pop\n        /* \"--CODEGEN--\":7296:7395   */\n      pop\n        /* \"--CODEGEN--\":6675:7405   */\n      swap3\n      swap6\n      pop\n      swap3\n      swap6\n      pop\n      swap3\n      swap6\n      jump\t// out\n        /* \"--CODEGEN--\":7413:7586   */\n    tag_290:\n      0x00\n        /* \"--CODEGEN--\":7500:7546   */\n      tag_292\n        /* \"--CODEGEN--\":7542:7545   */\n      dup4\n        /* \"--CODEGEN--\":7534:7540   */\n      dup4\n        /* \"--CODEGEN--\":7500:7546   */\n      tag_293\n      jump\t// in\n    tag_292:\n        /* \"--CODEGEN--\":7575:7579   */\n      0x20\n        /* \"--CODEGEN--\":7570:7573   */\n      dup4\n        /* \"--CODEGEN--\":7566:7580   */\n      add\n        /* \"--CODEGEN--\":7552:7580   */\n      swap1\n      pop\n        /* \"--CODEGEN--\":7493:7586   */\n      swap3\n      swap2\n      pop\n      pop\n      jump\t// out\n        /* \"--CODEGEN--\":7594:7697   */\n    tag_293:\n        /* \"--CODEGEN--\":7667:7691   */\n      tag_295\n        /* \"--CODEGEN--\":7685:7690   */\n      dup2\n        /* \"--CODEGEN--\":7667:7691   */\n      tag_296\n      jump\t// in\n    tag_295:\n        /* \"--CODEGEN--\":7662:7665   */\n      dup3\n        /* \"--CODEGEN--\":7655:7692   */\n      mstore\n        /* \"--CODEGEN--\":7649:7697   */\n      pop\n      pop\n      jump\t// out\n        /* \"--CODEGEN--\":7704:7817   */\n    tag_297:\n        /* \"--CODEGEN--\":7787:7811   */\n      tag_299\n        /* \"--CODEGEN--\":7805:7810   */\n      dup2\n        /* \"--CODEGEN--\":7787:7811   */\n      tag_296\n      jump\t// in\n    tag_299:\n        /* \"--CODEGEN--\":7782:7785   */\n      dup3\n        /* \"--CODEGEN--\":7775:7812   */\n      mstore\n        /* \"--CODEGEN--\":7769:7817   */\n      pop\n      pop\n      jump\t// out\n        /* \"--CODEGEN--\":7855:8520   */\n    tag_300:\n      0x00\n        /* \"--CODEGEN--\":8009:8095   */\n      tag_302\n        /* \"--CODEGEN--\":8088:8094   */\n      dup4\n        /* \"--CODEGEN--\":8083:8086   */\n      dup6\n        /* \"--CODEGEN--\":8009:8095   */\n      tag_303\n      jump\t// in\n    tag_302:\n        /* \"--CODEGEN--\":8002:8095   */\n      swap4\n      pop\n        /* \"--CODEGEN--\":8116:8174   */\n      tag_304\n        /* \"--CODEGEN--\":8168:8173   */\n      dup3\n        /* \"--CODEGEN--\":8116:8174   */\n      tag_305\n      jump\t// in\n    tag_304:\n        /* \"--CODEGEN--\":8194:8201   */\n      dup1\n        /* \"--CODEGEN--\":8222:8223   */\n      0x00\n        /* \"--CODEGEN--\":8207:8498   */\n    tag_306:\n        /* \"--CODEGEN--\":8232:8238   */\n      dup6\n        /* \"--CODEGEN--\":8229:8230   */\n      dup2\n        /* \"--CODEGEN--\":8226:8239   */\n      lt\n        /* \"--CODEGEN--\":8207:8498   */\n      iszero\n      tag_308\n      jumpi\n        /* \"--CODEGEN--\":8293:8335   */\n      tag_309\n        /* \"--CODEGEN--\":8328:8334   */\n      dup3\n        /* \"--CODEGEN--\":8319:8326   */\n      dup5\n        /* \"--CODEGEN--\":8293:8335   */\n      tag_310\n      jump\t// in\n    tag_309:\n        /* \"--CODEGEN--\":8349:8412   */\n      tag_311\n        /* \"--CODEGEN--\":8408:8411   */\n      dup9\n        /* \"--CODEGEN--\":8393:8406   */\n      dup3\n        /* \"--CODEGEN--\":8349:8412   */\n      tag_290\n      jump\t// in\n    tag_311:\n        /* \"--CODEGEN--\":8342:8412   */\n      swap8\n      pop\n        /* \"--CODEGEN--\":8429:8491   */\n      tag_312\n        /* \"--CODEGEN--\":8484:8490   */\n      dup4\n        /* \"--CODEGEN--\":8429:8491   */\n      tag_313\n      jump\t// in\n    tag_312:\n        /* \"--CODEGEN--\":8419:8491   */\n      swap3\n      pop\n        /* \"--CODEGEN--\":8264:8498   */\n      pop\n        /* \"--CODEGEN--\":8254:8255   */\n      0x01\n        /* \"--CODEGEN--\":8251:8252   */\n      dup2\n        /* \"--CODEGEN--\":8247:8256   */\n      add\n        /* \"--CODEGEN--\":8242:8256   */\n      swap1\n      pop\n        /* \"--CODEGEN--\":8207:8498   */\n      jump(tag_306)\n    tag_308:\n        /* \"--CODEGEN--\":8211:8225   */\n      pop\n        /* \"--CODEGEN--\":8511:8514   */\n      dup6\n        /* \"--CODEGEN--\":8504:8514   */\n      swap3\n      pop\n        /* \"--CODEGEN--\":7989:8520   */\n      pop\n      pop\n      swap4\n      swap3\n      pop\n      pop\n      pop\n      jump\t// out\n        /* \"--CODEGEN--\":8528:8694   */\n    tag_314:\n        /* \"--CODEGEN--\":8631:8688   */\n      tag_316\n        /* \"--CODEGEN--\":8682:8687   */\n      dup2\n        /* \"--CODEGEN--\":8631:8688   */\n      tag_317\n      jump\t// in\n    tag_316:\n        /* \"--CODEGEN--\":8626:8629   */\n      dup3\n        /* \"--CODEGEN--\":8619:8689   */\n      mstore\n        /* \"--CODEGEN--\":8613:8694   */\n      pop\n      pop\n      jump\t// out\n        /* \"--CODEGEN--\":8701:8853   */\n    tag_318:\n        /* \"--CODEGEN--\":8797:8847   */\n      tag_320\n        /* \"--CODEGEN--\":8841:8846   */\n      dup2\n        /* \"--CODEGEN--\":8797:8847   */\n      tag_321\n      jump\t// in\n    tag_320:\n        /* \"--CODEGEN--\":8792:8795   */\n      dup3\n        /* \"--CODEGEN--\":8785:8848   */\n      mstore\n        /* \"--CODEGEN--\":8779:8853   */\n      pop\n      pop\n      jump\t// out\n        /* \"--CODEGEN--\":8860:9040   */\n    tag_322:\n        /* \"--CODEGEN--\":8970:9034   */\n      tag_324\n        /* \"--CODEGEN--\":9028:9033   */\n      dup2\n        /* \"--CODEGEN--\":8970:9034   */\n      tag_325\n      jump\t// in\n    tag_324:\n        /* \"--CODEGEN--\":8965:8968   */\n      dup3\n        /* \"--CODEGEN--\":8958:9035   */\n      mstore\n        /* \"--CODEGEN--\":8952:9040   */\n      pop\n      pop\n      jump\t// out\n        /* \"--CODEGEN--\":9047:9189   */\n    tag_326:\n        /* \"--CODEGEN--\":9138:9183   */\n      tag_328\n        /* \"--CODEGEN--\":9177:9182   */\n      dup2\n        /* \"--CODEGEN--\":9138:9183   */\n      tag_329\n      jump\t// in\n    tag_328:\n        /* \"--CODEGEN--\":9133:9136   */\n      dup3\n        /* \"--CODEGEN--\":9126:9184   */\n      mstore\n        /* \"--CODEGEN--\":9120:9189   */\n      pop\n      pop\n      jump\t// out\n        /* \"--CODEGEN--\":9197:9528   */\n    tag_330:\n      0x00\n        /* \"--CODEGEN--\":9357:9424   */\n      tag_332\n        /* \"--CODEGEN--\":9421:9423   */\n      0x1f\n        /* \"--CODEGEN--\":9416:9419   */\n      dup4\n        /* \"--CODEGEN--\":9357:9424   */\n      tag_333\n      jump\t// in\n    tag_332:\n        /* \"--CODEGEN--\":9350:9424   */\n      swap2\n      pop\n        /* \"--CODEGEN--\":9457:9490   */\n      0x4572726f72202d2054686973207573657220686173206e6f2073686172657300\n        /* \"--CODEGEN--\":9453:9454   */\n      0x00\n        /* \"--CODEGEN--\":9448:9451   */\n      dup4\n        /* \"--CODEGEN--\":9444:9455   */\n      add\n        /* \"--CODEGEN--\":9437:9491   */\n      mstore\n        /* \"--CODEGEN--\":9519:9521   */\n      0x20\n        /* \"--CODEGEN--\":9514:9517   */\n      dup3\n        /* \"--CODEGEN--\":9510:9522   */\n      add\n        /* \"--CODEGEN--\":9503:9522   */\n      swap1\n      pop\n        /* \"--CODEGEN--\":9343:9528   */\n      swap2\n      swap1\n      pop\n      jump\t// out\n        /* \"--CODEGEN--\":9536:9649   */\n    tag_334:\n        /* \"--CODEGEN--\":9619:9643   */\n      tag_336\n        /* \"--CODEGEN--\":9637:9642   */\n      dup2\n        /* \"--CODEGEN--\":9619:9643   */\n      tag_337\n      jump\t// in\n    tag_336:\n        /* \"--CODEGEN--\":9614:9617   */\n      dup3\n        /* \"--CODEGEN--\":9607:9644   */\n      mstore\n        /* \"--CODEGEN--\":9601:9649   */\n      pop\n      pop\n      jump\t// out\n        /* \"--CODEGEN--\":9656:9878   */\n    tag_33:\n      0x00\n        /* \"--CODEGEN--\":9783:9785   */\n      0x20\n        /* \"--CODEGEN--\":9772:9781   */\n      dup3\n        /* \"--CODEGEN--\":9768:9786   */\n      add\n        /* \"--CODEGEN--\":9760:9786   */\n      swap1\n      pop\n        /* \"--CODEGEN--\":9797:9868   */\n      tag_339\n        /* \"--CODEGEN--\":9865:9866   */\n      0x00\n        /* \"--CODEGEN--\":9854:9863   */\n      dup4\n        /* \"--CODEGEN--\":9850:9867   */\n      add\n        /* \"--CODEGEN--\":9841:9847   */\n      dup5\n        /* \"--CODEGEN--\":9797:9868   */\n      tag_297\n      jump\t// in\n    tag_339:\n        /* \"--CODEGEN--\":9754:9878   */\n      swap3\n      swap2\n      pop\n      pop\n      jump\t// out\n        /* \"--CODEGEN--\":9885:10218   */\n    tag_150:\n      0x00\n        /* \"--CODEGEN--\":10040:10042   */\n      0x40\n        /* \"--CODEGEN--\":10029:10038   */\n      dup3\n        /* \"--CODEGEN--\":10025:10043   */\n      add\n        /* \"--CODEGEN--\":10017:10043   */\n      swap1\n      pop\n        /* \"--CODEGEN--\":10054:10125   */\n      tag_341\n        /* \"--CODEGEN--\":10122:10123   */\n      0x00\n        /* \"--CODEGEN--\":10111:10120   */\n      dup4\n        /* \"--CODEGEN--\":10107:10124   */\n      add\n        /* \"--CODEGEN--\":10098:10104   */\n      dup6\n        /* \"--CODEGEN--\":10054:10125   */\n      tag_297\n      jump\t// in\n    tag_341:\n        /* \"--CODEGEN--\":10136:10208   */\n      tag_342\n        /* \"--CODEGEN--\":10204:10206   */\n      0x20\n        /* \"--CODEGEN--\":10193:10202   */\n      dup4\n        /* \"--CODEGEN--\":10189:10207   */\n      add\n        /* \"--CODEGEN--\":10180:10186   */\n      dup5\n        /* \"--CODEGEN--\":10136:10208   */\n      tag_334\n      jump\t// in\n    tag_342:\n        /* \"--CODEGEN--\":10011:10218   */\n      swap4\n      swap3\n      pop\n      pop\n      pop\n      jump\t// out\n        /* \"--CODEGEN--\":10225:10487   */\n    tag_97:\n      0x00\n        /* \"--CODEGEN--\":10372:10374   */\n      0x20\n        /* \"--CODEGEN--\":10361:10370   */\n      dup3\n        /* \"--CODEGEN--\":10357:10375   */\n      add\n        /* \"--CODEGEN--\":10349:10375   */\n      swap1\n      pop\n        /* \"--CODEGEN--\":10386:10477   */\n      tag_344\n        /* \"--CODEGEN--\":10474:10475   */\n      0x00\n        /* \"--CODEGEN--\":10463:10472   */\n      dup4\n        /* \"--CODEGEN--\":10459:10476   */\n      add\n        /* \"--CODEGEN--\":10450:10456   */\n      dup5\n        /* \"--CODEGEN--\":10386:10477   */\n      tag_314\n      jump\t// in\n    tag_344:\n        /* \"--CODEGEN--\":10343:10487   */\n      swap3\n      swap2\n      pop\n      pop\n      jump\t// out\n        /* \"--CODEGEN--\":10494:10853   */\n    tag_191:\n      0x00\n        /* \"--CODEGEN--\":10662:10664   */\n      0x40\n        /* \"--CODEGEN--\":10651:10660   */\n      dup3\n        /* \"--CODEGEN--\":10647:10665   */\n      add\n        /* \"--CODEGEN--\":10639:10665   */\n      swap1\n      pop\n        /* \"--CODEGEN--\":10676:10760   */\n      tag_346\n        /* \"--CODEGEN--\":10757:10758   */\n      0x00\n        /* \"--CODEGEN--\":10746:10755   */\n      dup4\n        /* \"--CODEGEN--\":10742:10759   */\n      add\n        /* \"--CODEGEN--\":10733:10739   */\n      dup6\n        /* \"--CODEGEN--\":10676:10760   */\n      tag_318\n      jump\t// in\n    tag_346:\n        /* \"--CODEGEN--\":10771:10843   */\n      tag_347\n        /* \"--CODEGEN--\":10839:10841   */\n      0x20\n        /* \"--CODEGEN--\":10828:10837   */\n      dup4\n        /* \"--CODEGEN--\":10824:10842   */\n      add\n        /* \"--CODEGEN--\":10815:10821   */\n      dup5\n        /* \"--CODEGEN--\":10771:10843   */\n      tag_297\n      jump\t// in\n    tag_347:\n        /* \"--CODEGEN--\":10633:10853   */\n      swap4\n      swap3\n      pop\n      pop\n      pop\n      jump\t// out\n        /* \"--CODEGEN--\":10860:11442   */\n    tag_176:\n      0x00\n        /* \"--CODEGEN--\":11084:11087   */\n      0x80\n        /* \"--CODEGEN--\":11073:11082   */\n      dup3\n        /* \"--CODEGEN--\":11069:11088   */\n      add\n        /* \"--CODEGEN--\":11061:11088   */\n      swap1\n      pop\n        /* \"--CODEGEN--\":11099:11183   */\n      tag_349\n        /* \"--CODEGEN--\":11180:11181   */\n      0x00\n        /* \"--CODEGEN--\":11169:11178   */\n      dup4\n        /* \"--CODEGEN--\":11165:11182   */\n      add\n        /* \"--CODEGEN--\":11156:11162   */\n      dup8\n        /* \"--CODEGEN--\":11099:11183   */\n      tag_318\n      jump\t// in\n    tag_349:\n        /* \"--CODEGEN--\":11194:11266   */\n      tag_350\n        /* \"--CODEGEN--\":11262:11264   */\n      0x20\n        /* \"--CODEGEN--\":11251:11260   */\n      dup4\n        /* \"--CODEGEN--\":11247:11265   */\n      add\n        /* \"--CODEGEN--\":11238:11244   */\n      dup7\n        /* \"--CODEGEN--\":11194:11266   */\n      tag_297\n      jump\t// in\n    tag_350:\n        /* \"--CODEGEN--\":11277:11349   */\n      tag_351\n        /* \"--CODEGEN--\":11345:11347   */\n      0x40\n        /* \"--CODEGEN--\":11334:11343   */\n      dup4\n        /* \"--CODEGEN--\":11330:11348   */\n      add\n        /* \"--CODEGEN--\":11321:11327   */\n      dup6\n        /* \"--CODEGEN--\":11277:11349   */\n      tag_297\n      jump\t// in\n    tag_351:\n        /* \"--CODEGEN--\":11360:11432   */\n      tag_352\n        /* \"--CODEGEN--\":11428:11430   */\n      0x60\n        /* \"--CODEGEN--\":11417:11426   */\n      dup4\n        /* \"--CODEGEN--\":11413:11431   */\n      add\n        /* \"--CODEGEN--\":11404:11410   */\n      dup5\n        /* \"--CODEGEN--\":11360:11432   */\n      tag_334\n      jump\t// in\n    tag_352:\n        /* \"--CODEGEN--\":11055:11442   */\n      swap6\n      swap5\n      pop\n      pop\n      pop\n      pop\n      pop\n      jump\t// out\n        /* \"--CODEGEN--\":11449:12159   */\n    tag_136:\n      0x00\n        /* \"--CODEGEN--\":11709:11712   */\n      0xa0\n        /* \"--CODEGEN--\":11698:11707   */\n      dup3\n        /* \"--CODEGEN--\":11694:11713   */\n      add\n        /* \"--CODEGEN--\":11686:11713   */\n      swap1\n      pop\n        /* \"--CODEGEN--\":11724:11808   */\n      tag_354\n        /* \"--CODEGEN--\":11805:11806   */\n      0x00\n        /* \"--CODEGEN--\":11794:11803   */\n      dup4\n        /* \"--CODEGEN--\":11790:11807   */\n      add\n        /* \"--CODEGEN--\":11781:11787   */\n      dup9\n        /* \"--CODEGEN--\":11724:11808   */\n      tag_318\n      jump\t// in\n    tag_354:\n        /* \"--CODEGEN--\":11819:11891   */\n      tag_355\n        /* \"--CODEGEN--\":11887:11889   */\n      0x20\n        /* \"--CODEGEN--\":11876:11885   */\n      dup4\n        /* \"--CODEGEN--\":11872:11890   */\n      add\n        /* \"--CODEGEN--\":11863:11869   */\n      dup8\n        /* \"--CODEGEN--\":11819:11891   */\n      tag_297\n      jump\t// in\n    tag_355:\n        /* \"--CODEGEN--\":11902:11974   */\n      tag_356\n        /* \"--CODEGEN--\":11970:11972   */\n      0x40\n        /* \"--CODEGEN--\":11959:11968   */\n      dup4\n        /* \"--CODEGEN--\":11955:11973   */\n      add\n        /* \"--CODEGEN--\":11946:11952   */\n      dup7\n        /* \"--CODEGEN--\":11902:11974   */\n      tag_297\n      jump\t// in\n    tag_356:\n        /* \"--CODEGEN--\":11985:12057   */\n      tag_357\n        /* \"--CODEGEN--\":12053:12055   */\n      0x60\n        /* \"--CODEGEN--\":12042:12051   */\n      dup4\n        /* \"--CODEGEN--\":12038:12056   */\n      add\n        /* \"--CODEGEN--\":12029:12035   */\n      dup6\n        /* \"--CODEGEN--\":11985:12057   */\n      tag_334\n      jump\t// in\n    tag_357:\n        /* \"--CODEGEN--\":12068:12149   */\n      tag_358\n        /* \"--CODEGEN--\":12144:12147   */\n      0x80\n        /* \"--CODEGEN--\":12133:12142   */\n      dup4\n        /* \"--CODEGEN--\":12129:12148   */\n      add\n        /* \"--CODEGEN--\":12120:12126   */\n      dup5\n        /* \"--CODEGEN--\":12068:12149   */\n      tag_326\n      jump\t// in\n    tag_358:\n        /* \"--CODEGEN--\":11680:12159   */\n      swap7\n      swap6\n      pop\n      pop\n      pop\n      pop\n      pop\n      pop\n      jump\t// out\n        /* \"--CODEGEN--\":12166:12442   */\n    tag_127:\n      0x00\n        /* \"--CODEGEN--\":12320:12322   */\n      0x20\n        /* \"--CODEGEN--\":12309:12318   */\n      dup3\n        /* \"--CODEGEN--\":12305:12323   */\n      add\n        /* \"--CODEGEN--\":12297:12323   */\n      swap1\n      pop\n        /* \"--CODEGEN--\":12334:12432   */\n      tag_360\n        /* \"--CODEGEN--\":12429:12430   */\n      0x00\n        /* \"--CODEGEN--\":12418:12427   */\n      dup4\n        /* \"--CODEGEN--\":12414:12431   */\n      add\n        /* \"--CODEGEN--\":12405:12411   */\n      dup5\n        /* \"--CODEGEN--\":12334:12432   */\n      tag_322\n      jump\t// in\n    tag_360:\n        /* \"--CODEGEN--\":12291:12442   */\n      swap3\n      swap2\n      pop\n      pop\n      jump\t// out\n        /* \"--CODEGEN--\":12449:12865   */\n    tag_165:\n      0x00\n        /* \"--CODEGEN--\":12649:12651   */\n      0x20\n        /* \"--CODEGEN--\":12638:12647   */\n      dup3\n        /* \"--CODEGEN--\":12634:12652   */\n      add\n        /* \"--CODEGEN--\":12626:12652   */\n      swap1\n      pop\n        /* \"--CODEGEN--\":12699:12708   */\n      dup2\n        /* \"--CODEGEN--\":12693:12697   */\n      dup2\n        /* \"--CODEGEN--\":12689:12709   */\n      sub\n        /* \"--CODEGEN--\":12685:12686   */\n      0x00\n        /* \"--CODEGEN--\":12674:12683   */\n      dup4\n        /* \"--CODEGEN--\":12670:12687   */\n      add\n        /* \"--CODEGEN--\":12663:12710   */\n      mstore\n        /* \"--CODEGEN--\":12724:12855   */\n      tag_362\n        /* \"--CODEGEN--\":12850:12854   */\n      dup2\n        /* \"--CODEGEN--\":12724:12855   */\n      tag_330\n      jump\t// in\n    tag_362:\n        /* \"--CODEGEN--\":12716:12855   */\n      swap1\n      pop\n        /* \"--CODEGEN--\":12620:12865   */\n      swap2\n      swap1\n      pop\n      jump\t// out\n        /* \"--CODEGEN--\":12872:13094   */\n    tag_80:\n      0x00\n        /* \"--CODEGEN--\":12999:13001   */\n      0x20\n        /* \"--CODEGEN--\":12988:12997   */\n      dup3\n        /* \"--CODEGEN--\":12984:13002   */\n      add\n        /* \"--CODEGEN--\":12976:13002   */\n      swap1\n      pop\n        /* \"--CODEGEN--\":13013:13084   */\n      tag_364\n        /* \"--CODEGEN--\":13081:13082   */\n      0x00\n        /* \"--CODEGEN--\":13070:13079   */\n      dup4\n        /* \"--CODEGEN--\":13066:13083   */\n      add\n        /* \"--CODEGEN--\":13057:13063   */\n      dup5\n        /* \"--CODEGEN--\":13013:13084   */\n      tag_334\n      jump\t// in\n    tag_364:\n        /* \"--CODEGEN--\":12970:13094   */\n      swap3\n      swap2\n      pop\n      pop\n      jump\t// out\n        /* \"--CODEGEN--\":13101:13937   */\n    tag_168:\n      0x00\n        /* \"--CODEGEN--\":13400:13403   */\n      0xa0\n        /* \"--CODEGEN--\":13389:13398   */\n      dup3\n        /* \"--CODEGEN--\":13385:13404   */\n      add\n        /* \"--CODEGEN--\":13377:13404   */\n      swap1\n      pop\n        /* \"--CODEGEN--\":13415:13486   */\n      tag_366\n        /* \"--CODEGEN--\":13483:13484   */\n      0x00\n        /* \"--CODEGEN--\":13472:13481   */\n      dup4\n        /* \"--CODEGEN--\":13468:13485   */\n      add\n        /* \"--CODEGEN--\":13459:13465   */\n      dup10\n        /* \"--CODEGEN--\":13415:13486   */\n      tag_334\n      jump\t// in\n    tag_366:\n        /* \"--CODEGEN--\":13497:13569   */\n      tag_367\n        /* \"--CODEGEN--\":13565:13567   */\n      0x20\n        /* \"--CODEGEN--\":13554:13563   */\n      dup4\n        /* \"--CODEGEN--\":13550:13568   */\n      add\n        /* \"--CODEGEN--\":13541:13547   */\n      dup9\n        /* \"--CODEGEN--\":13497:13569   */\n      tag_334\n      jump\t// in\n    tag_367:\n        /* \"--CODEGEN--\":13617:13626   */\n      dup2\n        /* \"--CODEGEN--\":13611:13615   */\n      dup2\n        /* \"--CODEGEN--\":13607:13627   */\n      sub\n        /* \"--CODEGEN--\":13602:13604   */\n      0x40\n        /* \"--CODEGEN--\":13591:13600   */\n      dup4\n        /* \"--CODEGEN--\":13587:13605   */\n      add\n        /* \"--CODEGEN--\":13580:13628   */\n      mstore\n        /* \"--CODEGEN--\":13642:13760   */\n      tag_368\n        /* \"--CODEGEN--\":13755:13759   */\n      dup2\n        /* \"--CODEGEN--\":13746:13752   */\n      dup7\n        /* \"--CODEGEN--\":13738:13744   */\n      dup9\n        /* \"--CODEGEN--\":13642:13760   */\n      tag_300\n      jump\t// in\n    tag_368:\n        /* \"--CODEGEN--\":13634:13760   */\n      swap1\n      pop\n        /* \"--CODEGEN--\":13771:13843   */\n      tag_369\n        /* \"--CODEGEN--\":13839:13841   */\n      0x60\n        /* \"--CODEGEN--\":13828:13837   */\n      dup4\n        /* \"--CODEGEN--\":13824:13842   */\n      add\n        /* \"--CODEGEN--\":13815:13821   */\n      dup6\n        /* \"--CODEGEN--\":13771:13843   */\n      tag_297\n      jump\t// in\n    tag_369:\n        /* \"--CODEGEN--\":13854:13927   */\n      tag_370\n        /* \"--CODEGEN--\":13922:13925   */\n      0x80\n        /* \"--CODEGEN--\":13911:13920   */\n      dup4\n        /* \"--CODEGEN--\":13907:13926   */\n      add\n        /* \"--CODEGEN--\":13898:13904   */\n      dup5\n        /* \"--CODEGEN--\":13854:13927   */\n      tag_334\n      jump\t// in\n    tag_370:\n        /* \"--CODEGEN--\":13371:13937   */\n      swap8\n      swap7\n      pop\n      pop\n      pop\n      pop\n      pop\n      pop\n      pop\n      jump\t// out\n        /* \"--CODEGEN--\":13944:14200   */\n    tag_215:\n      0x00\n        /* \"--CODEGEN--\":14006:14008   */\n      0x40\n        /* \"--CODEGEN--\":14000:14009   */\n      mload\n        /* \"--CODEGEN--\":13990:14009   */\n      swap1\n      pop\n        /* \"--CODEGEN--\":14044:14048   */\n      dup2\n        /* \"--CODEGEN--\":14036:14042   */\n      dup2\n        /* \"--CODEGEN--\":14032:14049   */\n      add\n        /* \"--CODEGEN--\":14143:14149   */\n      dup2\n        /* \"--CODEGEN--\":14131:14141   */\n      dup2\n        /* \"--CODEGEN--\":14128:14150   */\n      lt\n        /* \"--CODEGEN--\":14107:14125   */\n      0xffffffffffffffff\n        /* \"--CODEGEN--\":14095:14105   */\n      dup3\n        /* \"--CODEGEN--\":14092:14126   */\n      gt\n        /* \"--CODEGEN--\":14089:14151   */\n      or\n        /* \"--CODEGEN--\":14086:14088   */\n      iszero\n      tag_372\n      jumpi\n        /* \"--CODEGEN--\":14164:14165   */\n      0x00\n        /* \"--CODEGEN--\":14161:14162   */\n      dup1\n        /* \"--CODEGEN--\":14154:14166   */\n      revert\n        /* \"--CODEGEN--\":14086:14088   */\n    tag_372:\n        /* \"--CODEGEN--\":14184:14194   */\n      dup1\n        /* \"--CODEGEN--\":14180:14182   */\n      0x40\n        /* \"--CODEGEN--\":14173:14195   */\n      mstore\n        /* \"--CODEGEN--\":13984:14200   */\n      pop\n      swap2\n      swap1\n      pop\n      jump\t// out\n        /* \"--CODEGEN--\":14207:14511   */\n    tag_214:\n      0x00\n        /* \"--CODEGEN--\":14366:14384   */\n      0xffffffffffffffff\n        /* \"--CODEGEN--\":14358:14364   */\n      dup3\n        /* \"--CODEGEN--\":14355:14385   */\n      gt\n        /* \"--CODEGEN--\":14352:14354   */\n      iszero\n      tag_374\n      jumpi\n        /* \"--CODEGEN--\":14398:14399   */\n      0x00\n        /* \"--CODEGEN--\":14395:14396   */\n      dup1\n        /* \"--CODEGEN--\":14388:14400   */\n      revert\n        /* \"--CODEGEN--\":14352:14354   */\n    tag_374:\n        /* \"--CODEGEN--\":14433:14437   */\n      0x20\n        /* \"--CODEGEN--\":14425:14431   */\n      dup3\n        /* \"--CODEGEN--\":14421:14438   */\n      mul\n        /* \"--CODEGEN--\":14413:14438   */\n      swap1\n      pop\n        /* \"--CODEGEN--\":14496:14500   */\n      0x20\n        /* \"--CODEGEN--\":14490:14494   */\n      dup2\n        /* \"--CODEGEN--\":14486:14501   */\n      add\n        /* \"--CODEGEN--\":14478:14501   */\n      swap1\n      pop\n        /* \"--CODEGEN--\":14289:14511   */\n      swap2\n      swap1\n      pop\n      jump\t// out\n        /* \"--CODEGEN--\":14518:14636   */\n    tag_305:\n      0x00\n        /* \"--CODEGEN--\":14606:14609   */\n      dup2\n        /* \"--CODEGEN--\":14598:14609   */\n      swap1\n      pop\n        /* \"--CODEGEN--\":14592:14636   */\n      swap2\n      swap1\n      pop\n      jump\t// out\n        /* \"--CODEGEN--\":14643:14753   */\n    tag_313:\n      0x00\n        /* \"--CODEGEN--\":14743:14747   */\n      0x20\n        /* \"--CODEGEN--\":14738:14741   */\n      dup3\n        /* \"--CODEGEN--\":14734:14748   */\n      add\n        /* \"--CODEGEN--\":14726:14748   */\n      swap1\n      pop\n        /* \"--CODEGEN--\":14720:14753   */\n      swap2\n      swap1\n      pop\n      jump\t// out\n        /* \"--CODEGEN--\":14761:14939   */\n    tag_303:\n      0x00\n        /* \"--CODEGEN--\":14891:14897   */\n      dup3\n        /* \"--CODEGEN--\":14886:14889   */\n      dup3\n        /* \"--CODEGEN--\":14879:14898   */\n      mstore\n        /* \"--CODEGEN--\":14928:14932   */\n      0x20\n        /* \"--CODEGEN--\":14923:14926   */\n      dup3\n        /* \"--CODEGEN--\":14919:14933   */\n      add\n        /* \"--CODEGEN--\":14904:14933   */\n      swap1\n      pop\n        /* \"--CODEGEN--\":14872:14939   */\n      swap3\n      swap2\n      pop\n      pop\n      jump\t// out\n        /* \"--CODEGEN--\":14948:15111   */\n    tag_333:\n      0x00\n        /* \"--CODEGEN--\":15063:15069   */\n      dup3\n        /* \"--CODEGEN--\":15058:15061   */\n      dup3\n        /* \"--CODEGEN--\":15051:15070   */\n      mstore\n        /* \"--CODEGEN--\":15100:15104   */\n      0x20\n        /* \"--CODEGEN--\":15095:15098   */\n      dup3\n        /* \"--CODEGEN--\":15091:15105   */\n      add\n        /* \"--CODEGEN--\":15076:15105   */\n      swap1\n      pop\n        /* \"--CODEGEN--\":15044:15111   */\n      swap3\n      swap2\n      pop\n      pop\n      jump\t// out\n        /* \"--CODEGEN--\":15120:15239   */\n    tag_310:\n      0x00\n        /* \"--CODEGEN--\":15194:15233   */\n      tag_380\n        /* \"--CODEGEN--\":15229:15231   */\n      0x20\n        /* \"--CODEGEN--\":15224:15227   */\n      dup5\n        /* \"--CODEGEN--\":15220:15232   */\n      add\n        /* \"--CODEGEN--\":15215:15218   */\n      dup5\n        /* \"--CODEGEN--\":15194:15233   */\n      tag_200\n      jump\t// in\n    tag_380:\n        /* \"--CODEGEN--\":15185:15233   */\n      swap1\n      pop\n        /* \"--CODEGEN--\":15178:15239   */\n      swap3\n      swap2\n      pop\n      pop\n      jump\t// out\n        /* \"--CODEGEN--\":15247:15338   */\n    tag_296:\n      0x00\n        /* \"--CODEGEN--\":15309:15333   */\n      tag_382\n        /* \"--CODEGEN--\":15327:15332   */\n      dup3\n        /* \"--CODEGEN--\":15309:15333   */\n      tag_383\n      jump\t// in\n    tag_382:\n        /* \"--CODEGEN--\":15298:15333   */\n      swap1\n      pop\n        /* \"--CODEGEN--\":15292:15338   */\n      swap2\n      swap1\n      pop\n      jump\t// out\n        /* \"--CODEGEN--\":15345:15430   */\n    tag_384:\n      0x00\n        /* \"--CODEGEN--\":15418:15423   */\n      dup2\n        /* \"--CODEGEN--\":15411:15424   */\n      iszero\n        /* \"--CODEGEN--\":15404:15425   */\n      iszero\n        /* \"--CODEGEN--\":15393:15425   */\n      swap1\n      pop\n        /* \"--CODEGEN--\":15387:15430   */\n      swap2\n      swap1\n      pop\n      jump\t// out\n        /* \"--CODEGEN--\":15437:15558   */\n    tag_383:\n      0x00\n        /* \"--CODEGEN--\":15510:15552   */\n      0xffffffffffffffffffffffffffffffffffffffff\n        /* \"--CODEGEN--\":15503:15508   */\n      dup3\n        /* \"--CODEGEN--\":15499:15553   */\n      and\n        /* \"--CODEGEN--\":15488:15553   */\n      swap1\n      pop\n        /* \"--CODEGEN--\":15482:15558   */\n      swap2\n      swap1\n      pop\n      jump\t// out\n        /* \"--CODEGEN--\":15565:15637   */\n    tag_337:\n      0x00\n        /* \"--CODEGEN--\":15627:15632   */\n      dup2\n        /* \"--CODEGEN--\":15616:15632   */\n      swap1\n      pop\n        /* \"--CODEGEN--\":15610:15637   */\n      swap2\n      swap1\n      pop\n      jump\t// out\n        /* \"--CODEGEN--\":15644:15805   */\n    tag_317:\n      0x00\n        /* \"--CODEGEN--\":15743:15800   */\n      tag_389\n        /* \"--CODEGEN--\":15794:15799   */\n      dup3\n        /* \"--CODEGEN--\":15743:15800   */\n      tag_390\n      jump\t// in\n    tag_389:\n        /* \"--CODEGEN--\":15730:15800   */\n      swap1\n      pop\n        /* \"--CODEGEN--\":15724:15805   */\n      swap2\n      swap1\n      pop\n      jump\t// out\n        /* \"--CODEGEN--\":15812:15940   */\n    tag_390:\n      0x00\n        /* \"--CODEGEN--\":15911:15935   */\n      tag_392\n        /* \"--CODEGEN--\":15929:15934   */\n      dup3\n        /* \"--CODEGEN--\":15911:15935   */\n      tag_383\n      jump\t// in\n    tag_392:\n        /* \"--CODEGEN--\":15898:15935   */\n      swap1\n      pop\n        /* \"--CODEGEN--\":15892:15940   */\n      swap2\n      swap1\n      pop\n      jump\t// out\n        /* \"--CODEGEN--\":15947:16094   */\n    tag_321:\n      0x00\n        /* \"--CODEGEN--\":16039:16089   */\n      tag_394\n        /* \"--CODEGEN--\":16083:16088   */\n      dup3\n        /* \"--CODEGEN--\":16039:16089   */\n      tag_395\n      jump\t// in\n    tag_394:\n        /* \"--CODEGEN--\":16026:16089   */\n      swap1\n      pop\n        /* \"--CODEGEN--\":16020:16094   */\n      swap2\n      swap1\n      pop\n      jump\t// out\n        /* \"--CODEGEN--\":16101:16222   */\n    tag_395:\n      0x00\n        /* \"--CODEGEN--\":16193:16217   */\n      tag_397\n        /* \"--CODEGEN--\":16211:16216   */\n      dup3\n        /* \"--CODEGEN--\":16193:16217   */\n      tag_383\n      jump\t// in\n    tag_397:\n        /* \"--CODEGEN--\":16180:16217   */\n      swap1\n      pop\n        /* \"--CODEGEN--\":16174:16222   */\n      swap2\n      swap1\n      pop\n      jump\t// out\n        /* \"--CODEGEN--\":16229:16404   */\n    tag_325:\n      0x00\n        /* \"--CODEGEN--\":16335:16399   */\n      tag_399\n        /* \"--CODEGEN--\":16393:16398   */\n      dup3\n        /* \"--CODEGEN--\":16335:16399   */\n      tag_400\n      jump\t// in\n    tag_399:\n        /* \"--CODEGEN--\":16322:16399   */\n      swap1\n      pop\n        /* \"--CODEGEN--\":16316:16404   */\n      swap2\n      swap1\n      pop\n      jump\t// out\n        /* \"--CODEGEN--\":16411:16546   */\n    tag_400:\n      0x00\n        /* \"--CODEGEN--\":16517:16541   */\n      tag_402\n        /* \"--CODEGEN--\":16535:16540   */\n      dup3\n        /* \"--CODEGEN--\":16517:16541   */\n      tag_383\n      jump\t// in\n    tag_402:\n        /* \"--CODEGEN--\":16504:16541   */\n      swap1\n      pop\n        /* \"--CODEGEN--\":16498:16546   */\n      swap2\n      swap1\n      pop\n      jump\t// out\n        /* \"--CODEGEN--\":16553:16669   */\n    tag_329:\n      0x00\n        /* \"--CODEGEN--\":16640:16664   */\n      tag_404\n        /* \"--CODEGEN--\":16658:16663   */\n      dup3\n        /* \"--CODEGEN--\":16640:16664   */\n      tag_337\n      jump\t// in\n    tag_404:\n        /* \"--CODEGEN--\":16627:16664   */\n      swap1\n      pop\n        /* \"--CODEGEN--\":16621:16669   */\n      swap2\n      swap1\n      pop\n      jump\t// out\n        /* \"--CODEGEN--\":16676:16793   */\n    tag_203:\n        /* \"--CODEGEN--\":16745:16769   */\n      tag_406\n        /* \"--CODEGEN--\":16763:16768   */\n      dup2\n        /* \"--CODEGEN--\":16745:16769   */\n      tag_296\n      jump\t// in\n    tag_406:\n        /* \"--CODEGEN--\":16738:16743   */\n      dup2\n        /* \"--CODEGEN--\":16735:16770   */\n      eq\n        /* \"--CODEGEN--\":16725:16727   */\n      tag_407\n      jumpi\n        /* \"--CODEGEN--\":16784:16785   */\n      0x00\n        /* \"--CODEGEN--\":16781:16782   */\n      dup1\n        /* \"--CODEGEN--\":16774:16786   */\n      revert\n        /* \"--CODEGEN--\":16725:16727   */\n    tag_407:\n        /* \"--CODEGEN--\":16719:16793   */\n      pop\n      jump\t// out\n        /* \"--CODEGEN--\":16800:16911   */\n    tag_225:\n        /* \"--CODEGEN--\":16866:16887   */\n      tag_409\n        /* \"--CODEGEN--\":16881:16886   */\n      dup2\n        /* \"--CODEGEN--\":16866:16887   */\n      tag_384\n      jump\t// in\n    tag_409:\n        /* \"--CODEGEN--\":16859:16864   */\n      dup2\n        /* \"--CODEGEN--\":16856:16888   */\n      eq\n        /* \"--CODEGEN--\":16846:16848   */\n      tag_410\n      jumpi\n        /* \"--CODEGEN--\":16902:16903   */\n      0x00\n        /* \"--CODEGEN--\":16899:16900   */\n      dup1\n        /* \"--CODEGEN--\":16892:16904   */\n      revert\n        /* \"--CODEGEN--\":16846:16848   */\n    tag_410:\n        /* \"--CODEGEN--\":16840:16911   */\n      pop\n      jump\t// out\n        /* \"--CODEGEN--\":16918:17035   */\n    tag_229:\n        /* \"--CODEGEN--\":16987:17011   */\n      tag_412\n        /* \"--CODEGEN--\":17005:17010   */\n      dup2\n        /* \"--CODEGEN--\":16987:17011   */\n      tag_337\n      jump\t// in\n    tag_412:\n        /* \"--CODEGEN--\":16980:16985   */\n      dup2\n        /* \"--CODEGEN--\":16977:17012   */\n      eq\n        /* \"--CODEGEN--\":16967:16969   */\n      tag_413\n      jumpi\n        /* \"--CODEGEN--\":17026:17027   */\n      0x00\n        /* \"--CODEGEN--\":17023:17024   */\n      dup1\n        /* \"--CODEGEN--\":17016:17028   */\n      revert\n        /* \"--CODEGEN--\":16967:16969   */\n    tag_413:\n        /* \"--CODEGEN--\":16961:17035   */\n      pop\n      jump\t// out\n\n    auxdata: 0xa2646970667358221220d1624ac63cd4f0b654c1a55ded683822e8ee46fb90070ffbd3c1a0e516b052f264736f6c634300060c0033\n}\n",
				"bytecode": {
					"linkReferences": {},
					"object": "6080604052730319000133d3ada02600f0875d2cf03d442c3367600260006101000a81548173ffffffffffffffffffffffffffffffffffffffff021916908373ffffffffffffffffffffffffffffffffffffffff160217905550731b02da8cb0d097eb8d57a175b88c7d8b47997506600360006101000a81548173ffffffffffffffffffffffffffffffffffffffff021916908373ffffffffffffffffffffffffffffffffffffffff1602179055503480156100ba57600080fd5b506117d6806100ca6000396000f3fe60806040526004361061012e5760003560e01c8063ba0cb22b116100ab578063d9155b111161006f578063d9155b11146103b5578063ec8def84146103de578063edc46f3d1461041b578063ef455bad14610446578063efc89ee314610483578063fd829a23146104ac5761013b565b8063ba0cb22b146102cc578063bb09d9b714610309578063c3f5a30514610334578063d5002f2e1461035f578063d58c5b0b1461038a5761013b565b806335c67cd6116100f257806335c67cd6146102115780634690738c1461023a57806390f11e8414610263578063a6c4e4671461028c578063aee4d1b2146102b55761013b565b8063040141e5146101405780630d36b76b1461016b57806323e103a814610194578063277754ed146101bd57806329a97ec2146101e85761013b565b3661013b57600034905050005b600080fd5b34801561014c57600080fd5b506101556104d7565b604051610162919061141e565b60405180910390f35b34801561017757600080fd5b50610192600480360381019061018d9190610fd6565b6104ef565b005b3480156101a057600080fd5b506101bb60048036038101906101b691906111cf565b61063f565b005b3480156101c957600080fd5b506101d2610702565b6040516101df919061141e565b60405180910390f35b3480156101f457600080fd5b5061020f600480360381019061020a9190611025565b61071a565b005b34801561021d57600080fd5b50610238600480360381019061023391906111cf565b6107ad565b005b34801561024657600080fd5b50610261600480360381019061025c9190610f71565b610870565b005b34801561026f57600080fd5b5061028a6004803603810190610285919061126e565b610988565b005b34801561029857600080fd5b506102b360048036038101906102ae91906110b0565b610a4d565b005b3480156102c157600080fd5b506102ca610aec565b005b3480156102d857600080fd5b506102f360048036038101906102ee9190610f71565b610b70565b6040516103009190611579565b60405180910390f35b34801561031557600080fd5b5061031e610bb9565b60405161032b919061141e565b60405180910390f35b34801561034057600080fd5b50610349610bd1565b6040516103569190611579565b60405180910390f35b34801561036b57600080fd5b50610374610bd7565b6040516103819190611579565b60405180910390f35b34801561039657600080fd5b5061039f610bdc565b6040516103ac9190611462565b60405180910390f35b3480156103c157600080fd5b506103dc60048036038101906103d7919061117d565b610c02565b005b3480156103ea57600080fd5b5061040560048036038101906104009190610f9a565b610c4c565b6040516104129190611579565b60405180910390f35b34801561042757600080fd5b50610430610d08565b60405161043d919061141e565b60405180910390f35b34801561045257600080fd5b5061046d60048036038101906104689190610f71565b610d20565b60405161047a9190611579565b60405180910390f35b34801561048f57600080fd5b506104aa60048036038101906104a59190611074565b610d38565b005b3480156104b857600080fd5b506104c1610e2a565b6040516104ce919061153e565b60405180910390f35b737ceb23fd6bc0add59e62ac25578270cff1b9f61981565b600083905060008173ffffffffffffffffffffffffffffffffffffffff166370a08231856040518263ffffffff1660e01b815260040161052f919061141e565b60206040518083038186803b15801561054757600080fd5b505afa15801561055b573d6000803e3d6000fd5b505050506040513d601f19601f8201168201806040525081019061057f91906111a6565b9050600260009054906101000a900473ffffffffffffffffffffffffffffffffffffffff1673ffffffffffffffffffffffffffffffffffffffff166302b9446c8386868560006040518663ffffffff1660e01b81526004016105e59594939291906114eb565b6040805180830381600087803b1580156105fe57600080fd5b505af1158015610612573d6000803e3d6000fd5b505050506040513d601f19601f820116820180604052508101906106369190611232565b50505050505050565b6000839050600260009054906101000a900473ffffffffffffffffffffffffffffffffffffffff1673ffffffffffffffffffffffffffffffffffffffff166397da6d308285858960006040518663ffffffff1660e01b81526004016106a89594939291906114eb565b6040805180830381600087803b1580156106c157600080fd5b505af11580156106d5573d6000803e3d6000fd5b505050506040513d601f19601f820116820180604052508101906106f99190611232565b50505050505050565b731b02da8cb0d097eb8d57a175b88c7d8b4799750681565b8273ffffffffffffffffffffffffffffffffffffffff1663095ea7b383836040518363ffffffff1660e01b8152600401610755929190611439565b602060405180830381600087803b15801561076f57600080fd5b505af1158015610783573d6000803e3d6000fd5b505050506040513d601f19601f820116820180604052508101906107a79190611154565b50505050565b6000839050600260009054906101000a900473ffffffffffffffffffffffffffffffffffffffff1673ffffffffffffffffffffffffffffffffffffffff166302b9446c8285858960006040518663ffffffff1660e01b81526004016108169594939291906114eb565b6040805180830381600087803b15801561082f57600080fd5b505af1158015610843573d6000803e3d6000fd5b505050506040513d601f19601f820116820180604052508101906108679190611232565b50505050505050565b6000600160008373ffffffffffffffffffffffffffffffffffffffff1673ffffffffffffffffffffffffffffffffffffffff16815260200190815260200160002054116108f2576040517f08c379a00000000000000000000000000000000000000000000000000000000081526004016108e990611559565b60405180910390fd5b600160008273ffffffffffffffffffffffffffffffffffffffff1673ffffffffffffffffffffffffffffffffffffffff1681526020019081526020016000205460008082825403925050819055506000600160008373ffffffffffffffffffffffffffffffffffffffff1673ffffffffffffffffffffffffffffffffffffffff1681526020019081526020016000208190555050565b600360009054906101000a900473ffffffffffffffffffffffffffffffffffffffff1673ffffffffffffffffffffffffffffffffffffffff166338ed17398787878787876040518763ffffffff1660e01b81526004016109ed96959493929190611594565b600060405180830381600087803b158015610a0757600080fd5b505af1158015610a1b573d6000803e3d6000fd5b505050506040513d6000823e3d601f19601f82011682018060405250810190610a449190611113565b50505050505050565b6000849050600260009054906101000a900473ffffffffffffffffffffffffffffffffffffffff1673ffffffffffffffffffffffffffffffffffffffff1663f18d03cc828585886040518563ffffffff1660e01b8152600401610ab394939291906114a6565b600060405180830381600087803b158015610acd57600080fd5b505af1158015610ae1573d6000803e3d6000fd5b505050505050505050565b600260009054906101000a900473ffffffffffffffffffffffffffffffffffffffff1673ffffffffffffffffffffffffffffffffffffffff1663aee4d1b26040518163ffffffff1660e01b8152600401600060405180830381600087803b158015610b5657600080fd5b505af1158015610b6a573d6000803e3d6000fd5b50505050565b6000600160008373ffffffffffffffffffffffffffffffffffffffff1673ffffffffffffffffffffffffffffffffffffffff168152602001908152602001600020549050919050565b732791bca1f2de4661ed88a30c99a7a9449aa8417481565b60005481565b600090565b600260009054906101000a900473ffffffffffffffffffffffffffffffffffffffff1681565b3373ffffffffffffffffffffffffffffffffffffffff166108fc829081150290604051600060405180830381858888f19350505050158015610c48573d6000803e3d6000fd5b5050565b600080839050600260009054906101000a900473ffffffffffffffffffffffffffffffffffffffff1673ffffffffffffffffffffffffffffffffffffffff1663f7888aec82856040518363ffffffff1660e01b8152600401610caf92919061147d565b60206040518083038186803b158015610cc757600080fd5b505afa158015610cdb573d6000803e3d6000fd5b505050506040513d601f19601f82011682018060405250810190610cff91906111a6565b91505092915050565b730319000133d3ada02600f0875d2cf03d442c336781565b60016020528060005260406000206000915090505481565b6000600160008473ffffffffffffffffffffffffffffffffffffffff1673ffffffffffffffffffffffffffffffffffffffff168152602001908152602001600020541415610dc95780600160008473ffffffffffffffffffffffffffffffffffffffff1673ffffffffffffffffffffffffffffffffffffffff16815260200190815260200160002081905550610e17565b80600160008473ffffffffffffffffffffffffffffffffffffffff1673ffffffffffffffffffffffffffffffffffffffff168152602001908152602001600020600082825401925050819055505b8060008082825401925050819055505050565b600360009054906101000a900473ffffffffffffffffffffffffffffffffffffffff1681565b600081359050610e5f8161175b565b92915050565b60008083601f840112610e7757600080fd5b8235905067ffffffffffffffff811115610e9057600080fd5b602083019150836020820283011115610ea857600080fd5b9250929050565b600082601f830112610ec057600080fd5b8151610ed3610ece8261161d565b6115f0565b91508181835260208401935060208101905083856020840282011115610ef857600080fd5b60005b83811015610f285781610f0e8882610f5c565b845260208401935060208301925050600181019050610efb565b5050505092915050565b600081519050610f4181611772565b92915050565b600081359050610f5681611789565b92915050565b600081519050610f6b81611789565b92915050565b600060208284031215610f8357600080fd5b6000610f9184828501610e50565b91505092915050565b60008060408385031215610fad57600080fd5b6000610fbb85828601610e50565b9250506020610fcc85828601610e50565b9150509250929050565b600080600060608486031215610feb57600080fd5b6000610ff986828701610e50565b935050602061100a86828701610e50565b925050604061101b86828701610e50565b9150509250925092565b60008060006060848603121561103a57600080fd5b600061104886828701610e50565b935050602061105986828701610e50565b925050604061106a86828701610f47565b9150509250925092565b6000806040838503121561108757600080fd5b600061109585828601610e50565b92505060206110a685828601610f47565b9150509250929050565b600080600080608085870312156110c657600080fd5b60006110d487828801610e50565b94505060206110e587828801610f47565b93505060406110f687828801610e50565b925050606061110787828801610e50565b91505092959194509250565b60006020828403121561112557600080fd5b600082015167ffffffffffffffff81111561113f57600080fd5b61114b84828501610eaf565b91505092915050565b60006020828403121561116657600080fd5b600061117484828501610f32565b91505092915050565b60006020828403121561118f57600080fd5b600061119d84828501610f47565b91505092915050565b6000602082840312156111b857600080fd5b60006111c684828501610f5c565b91505092915050565b600080600080608085870312156111e557600080fd5b60006111f387828801610f47565b945050602061120487828801610e50565b935050604061121587828801610e50565b925050606061122687828801610e50565b91505092959194509250565b6000806040838503121561124557600080fd5b600061125385828601610f5c565b925050602061126485828601610f5c565b9150509250929050565b60008060008060008060a0878903121561128757600080fd5b600061129589828a01610f47565b96505060206112a689828a01610f47565b955050604087013567ffffffffffffffff8111156112c357600080fd5b6112cf89828a01610e65565b945094505060606112e289828a01610e50565b92505060806112f389828a01610f47565b9150509295509295509295565b600061130c8383611318565b60208301905092915050565b61132181611695565b82525050565b61133081611695565b82525050565b6000611342838561165c565b935061134d82611645565b8060005b8581101561138657611363828461167e565b61136d8882611300565b97506113788361164f565b925050600181019050611351565b5085925050509392505050565b61139c816116dd565b82525050565b6113ab81611701565b82525050565b6113ba81611725565b82525050565b6113c981611749565b82525050565b60006113dc601f8361166d565b91507f4572726f72202d2054686973207573657220686173206e6f20736861726573006000830152602082019050919050565b611418816116d3565b82525050565b60006020820190506114336000830184611327565b92915050565b600060408201905061144e6000830185611327565b61145b602083018461140f565b9392505050565b60006020820190506114776000830184611393565b92915050565b600060408201905061149260008301856113a2565b61149f6020830184611327565b9392505050565b60006080820190506114bb60008301876113a2565b6114c86020830186611327565b6114d56040830185611327565b6114e2606083018461140f565b95945050505050565b600060a08201905061150060008301886113a2565b61150d6020830187611327565b61151a6040830186611327565b611527606083018561140f565b61153460808301846113c0565b9695505050505050565b600060208201905061155360008301846113b1565b92915050565b60006020820190508181036000830152611572816113cf565b9050919050565b600060208201905061158e600083018461140f565b92915050565b600060a0820190506115a9600083018961140f565b6115b6602083018861140f565b81810360408301526115c9818688611336565b90506115d86060830185611327565b6115e5608083018461140f565b979650505050505050565b6000604051905081810181811067ffffffffffffffff8211171561161357600080fd5b8060405250919050565b600067ffffffffffffffff82111561163457600080fd5b602082029050602081019050919050565b6000819050919050565b6000602082019050919050565b600082825260208201905092915050565b600082825260208201905092915050565b600061168d6020840184610e50565b905092915050565b60006116a0826116b3565b9050919050565b60008115159050919050565b600073ffffffffffffffffffffffffffffffffffffffff82169050919050565b6000819050919050565b60006116e8826116ef565b9050919050565b60006116fa826116b3565b9050919050565b600061170c82611713565b9050919050565b600061171e826116b3565b9050919050565b600061173082611737565b9050919050565b6000611742826116b3565b9050919050565b6000611754826116d3565b9050919050565b61176481611695565b811461176f57600080fd5b50565b61177b816116a7565b811461178657600080fd5b50565b611792816116d3565b811461179d57600080fd5b5056fea2646970667358221220d1624ac63cd4f0b654c1a55ded683822e8ee46fb90070ffbd3c1a0e516b052f264736f6c634300060c0033",
					"opcodes": "PUSH1 0x80 PUSH1 0x40 MSTORE PUSH20 0x319000133D3ADA02600F0875D2CF03D442C3367 PUSH1 0x2 PUSH1 0x0 PUSH2 0x100 EXP DUP2 SLOAD DUP2 PUSH20 0xFFFFFFFFFFFFFFFFFFFFFFFFFFFFFFFFFFFFFFFF MUL NOT AND SWAP1 DUP4 PUSH20 0xFFFFFFFFFFFFFFFFFFFFFFFFFFFFFFFFFFFFFFFF AND MUL OR SWAP1 SSTORE POP PUSH20 0x1B02DA8CB0D097EB8D57A175B88C7D8B47997506 PUSH1 0x3 PUSH1 0x0 PUSH2 0x100 EXP DUP2 SLOAD DUP2 PUSH20 0xFFFFFFFFFFFFFFFFFFFFFFFFFFFFFFFFFFFFFFFF MUL NOT AND SWAP1 DUP4 PUSH20 0xFFFFFFFFFFFFFFFFFFFFFFFFFFFFFFFFFFFFFFFF AND MUL OR SWAP1 SSTORE POP CALLVALUE DUP1 ISZERO PUSH2 0xBA JUMPI PUSH1 0x0 DUP1 REVERT JUMPDEST POP PUSH2 0x17D6 DUP1 PUSH2 0xCA PUSH1 0x0 CODECOPY PUSH1 0x0 RETURN INVALID PUSH1 0x80 PUSH1 0x40 MSTORE PUSH1 0x4 CALLDATASIZE LT PUSH2 0x12E JUMPI PUSH1 0x0 CALLDATALOAD PUSH1 0xE0 SHR DUP1 PUSH4 0xBA0CB22B GT PUSH2 0xAB JUMPI DUP1 PUSH4 0xD9155B11 GT PUSH2 0x6F JUMPI DUP1 PUSH4 0xD9155B11 EQ PUSH2 0x3B5 JUMPI DUP1 PUSH4 0xEC8DEF84 EQ PUSH2 0x3DE JUMPI DUP1 PUSH4 0xEDC46F3D EQ PUSH2 0x41B JUMPI DUP1 PUSH4 0xEF455BAD EQ PUSH2 0x446 JUMPI DUP1 PUSH4 0xEFC89EE3 EQ PUSH2 0x483 JUMPI DUP1 PUSH4 0xFD829A23 EQ PUSH2 0x4AC JUMPI PUSH2 0x13B JUMP JUMPDEST DUP1 PUSH4 0xBA0CB22B EQ PUSH2 0x2CC JUMPI DUP1 PUSH4 0xBB09D9B7 EQ PUSH2 0x309 JUMPI DUP1 PUSH4 0xC3F5A305 EQ PUSH2 0x334 JUMPI DUP1 PUSH4 0xD5002F2E EQ PUSH2 0x35F JUMPI DUP1 PUSH4 0xD58C5B0B EQ PUSH2 0x38A JUMPI PUSH2 0x13B JUMP JUMPDEST DUP1 PUSH4 0x35C67CD6 GT PUSH2 0xF2 JUMPI DUP1 PUSH4 0x35C67CD6 EQ PUSH2 0x211 JUMPI DUP1 PUSH4 0x4690738C EQ PUSH2 0x23A JUMPI DUP1 PUSH4 0x90F11E84 EQ PUSH2 0x263 JUMPI DUP1 PUSH4 0xA6C4E467 EQ PUSH2 0x28C JUMPI DUP1 PUSH4 0xAEE4D1B2 EQ PUSH2 0x2B5 JUMPI PUSH2 0x13B JUMP JUMPDEST DUP1 PUSH4 0x40141E5 EQ PUSH2 0x140 JUMPI DUP1 PUSH4 0xD36B76B EQ PUSH2 0x16B JUMPI DUP1 PUSH4 0x23E103A8 EQ PUSH2 0x194 JUMPI DUP1 PUSH4 0x277754ED EQ PUSH2 0x1BD JUMPI DUP1 PUSH4 0x29A97EC2 EQ PUSH2 0x1E8 JUMPI PUSH2 0x13B JUMP JUMPDEST CALLDATASIZE PUSH2 0x13B JUMPI PUSH1 0x0 CALLVALUE SWAP1 POP POP STOP JUMPDEST PUSH1 0x0 DUP1 REVERT JUMPDEST CALLVALUE DUP1 ISZERO PUSH2 0x14C JUMPI PUSH1 0x0 DUP1 REVERT JUMPDEST POP PUSH2 0x155 PUSH2 0x4D7 JUMP JUMPDEST PUSH1 0x40 MLOAD PUSH2 0x162 SWAP2 SWAP1 PUSH2 0x141E JUMP JUMPDEST PUSH1 0x40 MLOAD DUP1 SWAP2 SUB SWAP1 RETURN JUMPDEST CALLVALUE DUP1 ISZERO PUSH2 0x177 JUMPI PUSH1 0x0 DUP1 REVERT JUMPDEST POP PUSH2 0x192 PUSH1 0x4 DUP1 CALLDATASIZE SUB DUP2 ADD SWAP1 PUSH2 0x18D SWAP2 SWAP1 PUSH2 0xFD6 JUMP JUMPDEST PUSH2 0x4EF JUMP JUMPDEST STOP JUMPDEST CALLVALUE DUP1 ISZERO PUSH2 0x1A0 JUMPI PUSH1 0x0 DUP1 REVERT JUMPDEST POP PUSH2 0x1BB PUSH1 0x4 DUP1 CALLDATASIZE SUB DUP2 ADD SWAP1 PUSH2 0x1B6 SWAP2 SWAP1 PUSH2 0x11CF JUMP JUMPDEST PUSH2 0x63F JUMP JUMPDEST STOP JUMPDEST CALLVALUE DUP1 ISZERO PUSH2 0x1C9 JUMPI PUSH1 0x0 DUP1 REVERT JUMPDEST POP PUSH2 0x1D2 PUSH2 0x702 JUMP JUMPDEST PUSH1 0x40 MLOAD PUSH2 0x1DF SWAP2 SWAP1 PUSH2 0x141E JUMP JUMPDEST PUSH1 0x40 MLOAD DUP1 SWAP2 SUB SWAP1 RETURN JUMPDEST CALLVALUE DUP1 ISZERO PUSH2 0x1F4 JUMPI PUSH1 0x0 DUP1 REVERT JUMPDEST POP PUSH2 0x20F PUSH1 0x4 DUP1 CALLDATASIZE SUB DUP2 ADD SWAP1 PUSH2 0x20A SWAP2 SWAP1 PUSH2 0x1025 JUMP JUMPDEST PUSH2 0x71A JUMP JUMPDEST STOP JUMPDEST CALLVALUE DUP1 ISZERO PUSH2 0x21D JUMPI PUSH1 0x0 DUP1 REVERT JUMPDEST POP PUSH2 0x238 PUSH1 0x4 DUP1 CALLDATASIZE SUB DUP2 ADD SWAP1 PUSH2 0x233 SWAP2 SWAP1 PUSH2 0x11CF JUMP JUMPDEST PUSH2 0x7AD JUMP JUMPDEST STOP JUMPDEST CALLVALUE DUP1 ISZERO PUSH2 0x246 JUMPI PUSH1 0x0 DUP1 REVERT JUMPDEST POP PUSH2 0x261 PUSH1 0x4 DUP1 CALLDATASIZE SUB DUP2 ADD SWAP1 PUSH2 0x25C SWAP2 SWAP1 PUSH2 0xF71 JUMP JUMPDEST PUSH2 0x870 JUMP JUMPDEST STOP JUMPDEST CALLVALUE DUP1 ISZERO PUSH2 0x26F JUMPI PUSH1 0x0 DUP1 REVERT JUMPDEST POP PUSH2 0x28A PUSH1 0x4 DUP1 CALLDATASIZE SUB DUP2 ADD SWAP1 PUSH2 0x285 SWAP2 SWAP1 PUSH2 0x126E JUMP JUMPDEST PUSH2 0x988 JUMP JUMPDEST STOP JUMPDEST CALLVALUE DUP1 ISZERO PUSH2 0x298 JUMPI PUSH1 0x0 DUP1 REVERT JUMPDEST POP PUSH2 0x2B3 PUSH1 0x4 DUP1 CALLDATASIZE SUB DUP2 ADD SWAP1 PUSH2 0x2AE SWAP2 SWAP1 PUSH2 0x10B0 JUMP JUMPDEST PUSH2 0xA4D JUMP JUMPDEST STOP JUMPDEST CALLVALUE DUP1 ISZERO PUSH2 0x2C1 JUMPI PUSH1 0x0 DUP1 REVERT JUMPDEST POP PUSH2 0x2CA PUSH2 0xAEC JUMP JUMPDEST STOP JUMPDEST CALLVALUE DUP1 ISZERO PUSH2 0x2D8 JUMPI PUSH1 0x0 DUP1 REVERT JUMPDEST POP PUSH2 0x2F3 PUSH1 0x4 DUP1 CALLDATASIZE SUB DUP2 ADD SWAP1 PUSH2 0x2EE SWAP2 SWAP1 PUSH2 0xF71 JUMP JUMPDEST PUSH2 0xB70 JUMP JUMPDEST PUSH1 0x40 MLOAD PUSH2 0x300 SWAP2 SWAP1 PUSH2 0x1579 JUMP JUMPDEST PUSH1 0x40 MLOAD DUP1 SWAP2 SUB SWAP1 RETURN JUMPDEST CALLVALUE DUP1 ISZERO PUSH2 0x315 JUMPI PUSH1 0x0 DUP1 REVERT JUMPDEST POP PUSH2 0x31E PUSH2 0xBB9 JUMP JUMPDEST PUSH1 0x40 MLOAD PUSH2 0x32B SWAP2 SWAP1 PUSH2 0x141E JUMP JUMPDEST PUSH1 0x40 MLOAD DUP1 SWAP2 SUB SWAP1 RETURN JUMPDEST CALLVALUE DUP1 ISZERO PUSH2 0x340 JUMPI PUSH1 0x0 DUP1 REVERT JUMPDEST POP PUSH2 0x349 PUSH2 0xBD1 JUMP JUMPDEST PUSH1 0x40 MLOAD PUSH2 0x356 SWAP2 SWAP1 PUSH2 0x1579 JUMP JUMPDEST PUSH1 0x40 MLOAD DUP1 SWAP2 SUB SWAP1 RETURN JUMPDEST CALLVALUE DUP1 ISZERO PUSH2 0x36B JUMPI PUSH1 0x0 DUP1 REVERT JUMPDEST POP PUSH2 0x374 PUSH2 0xBD7 JUMP JUMPDEST PUSH1 0x40 MLOAD PUSH2 0x381 SWAP2 SWAP1 PUSH2 0x1579 JUMP JUMPDEST PUSH1 0x40 MLOAD DUP1 SWAP2 SUB SWAP1 RETURN JUMPDEST CALLVALUE DUP1 ISZERO PUSH2 0x396 JUMPI PUSH1 0x0 DUP1 REVERT JUMPDEST POP PUSH2 0x39F PUSH2 0xBDC JUMP JUMPDEST PUSH1 0x40 MLOAD PUSH2 0x3AC SWAP2 SWAP1 PUSH2 0x1462 JUMP JUMPDEST PUSH1 0x40 MLOAD DUP1 SWAP2 SUB SWAP1 RETURN JUMPDEST CALLVALUE DUP1 ISZERO PUSH2 0x3C1 JUMPI PUSH1 0x0 DUP1 REVERT JUMPDEST POP PUSH2 0x3DC PUSH1 0x4 DUP1 CALLDATASIZE SUB DUP2 ADD SWAP1 PUSH2 0x3D7 SWAP2 SWAP1 PUSH2 0x117D JUMP JUMPDEST PUSH2 0xC02 JUMP JUMPDEST STOP JUMPDEST CALLVALUE DUP1 ISZERO PUSH2 0x3EA JUMPI PUSH1 0x0 DUP1 REVERT JUMPDEST POP PUSH2 0x405 PUSH1 0x4 DUP1 CALLDATASIZE SUB DUP2 ADD SWAP1 PUSH2 0x400 SWAP2 SWAP1 PUSH2 0xF9A JUMP JUMPDEST PUSH2 0xC4C JUMP JUMPDEST PUSH1 0x40 MLOAD PUSH2 0x412 SWAP2 SWAP1 PUSH2 0x1579 JUMP JUMPDEST PUSH1 0x40 MLOAD DUP1 SWAP2 SUB SWAP1 RETURN JUMPDEST CALLVALUE DUP1 ISZERO PUSH2 0x427 JUMPI PUSH1 0x0 DUP1 REVERT JUMPDEST POP PUSH2 0x430 PUSH2 0xD08 JUMP JUMPDEST PUSH1 0x40 MLOAD PUSH2 0x43D SWAP2 SWAP1 PUSH2 0x141E JUMP JUMPDEST PUSH1 0x40 MLOAD DUP1 SWAP2 SUB SWAP1 RETURN JUMPDEST CALLVALUE DUP1 ISZERO PUSH2 0x452 JUMPI PUSH1 0x0 DUP1 REVERT JUMPDEST POP PUSH2 0x46D PUSH1 0x4 DUP1 CALLDATASIZE SUB DUP2 ADD SWAP1 PUSH2 0x468 SWAP2 SWAP1 PUSH2 0xF71 JUMP JUMPDEST PUSH2 0xD20 JUMP JUMPDEST PUSH1 0x40 MLOAD PUSH2 0x47A SWAP2 SWAP1 PUSH2 0x1579 JUMP JUMPDEST PUSH1 0x40 MLOAD DUP1 SWAP2 SUB SWAP1 RETURN JUMPDEST CALLVALUE DUP1 ISZERO PUSH2 0x48F JUMPI PUSH1 0x0 DUP1 REVERT JUMPDEST POP PUSH2 0x4AA PUSH1 0x4 DUP1 CALLDATASIZE SUB DUP2 ADD SWAP1 PUSH2 0x4A5 SWAP2 SWAP1 PUSH2 0x1074 JUMP JUMPDEST PUSH2 0xD38 JUMP JUMPDEST STOP JUMPDEST CALLVALUE DUP1 ISZERO PUSH2 0x4B8 JUMPI PUSH1 0x0 DUP1 REVERT JUMPDEST POP PUSH2 0x4C1 PUSH2 0xE2A JUMP JUMPDEST PUSH1 0x40 MLOAD PUSH2 0x4CE SWAP2 SWAP1 PUSH2 0x153E JUMP JUMPDEST PUSH1 0x40 MLOAD DUP1 SWAP2 SUB SWAP1 RETURN JUMPDEST PUSH20 0x7CEB23FD6BC0ADD59E62AC25578270CFF1B9F619 DUP2 JUMP JUMPDEST PUSH1 0x0 DUP4 SWAP1 POP PUSH1 0x0 DUP2 PUSH20 0xFFFFFFFFFFFFFFFFFFFFFFFFFFFFFFFFFFFFFFFF AND PUSH4 0x70A08231 DUP6 PUSH1 0x40 MLOAD DUP3 PUSH4 0xFFFFFFFF AND PUSH1 0xE0 SHL DUP2 MSTORE PUSH1 0x4 ADD PUSH2 0x52F SWAP2 SWAP1 PUSH2 0x141E JUMP JUMPDEST PUSH1 0x20 PUSH1 0x40 MLOAD DUP1 DUP4 SUB DUP2 DUP7 DUP1 EXTCODESIZE ISZERO DUP1 ISZERO PUSH2 0x547 JUMPI PUSH1 0x0 DUP1 REVERT JUMPDEST POP GAS STATICCALL ISZERO DUP1 ISZERO PUSH2 0x55B JUMPI RETURNDATASIZE PUSH1 0x0 DUP1 RETURNDATACOPY RETURNDATASIZE PUSH1 0x0 REVERT JUMPDEST POP POP POP POP PUSH1 0x40 MLOAD RETURNDATASIZE PUSH1 0x1F NOT PUSH1 0x1F DUP3 ADD AND DUP3 ADD DUP1 PUSH1 0x40 MSTORE POP DUP2 ADD SWAP1 PUSH2 0x57F SWAP2 SWAP1 PUSH2 0x11A6 JUMP JUMPDEST SWAP1 POP PUSH1 0x2 PUSH1 0x0 SWAP1 SLOAD SWAP1 PUSH2 0x100 EXP SWAP1 DIV PUSH20 0xFFFFFFFFFFFFFFFFFFFFFFFFFFFFFFFFFFFFFFFF AND PUSH20 0xFFFFFFFFFFFFFFFFFFFFFFFFFFFFFFFFFFFFFFFF AND PUSH4 0x2B9446C DUP4 DUP7 DUP7 DUP6 PUSH1 0x0 PUSH1 0x40 MLOAD DUP7 PUSH4 0xFFFFFFFF AND PUSH1 0xE0 SHL DUP2 MSTORE PUSH1 0x4 ADD PUSH2 0x5E5 SWAP6 SWAP5 SWAP4 SWAP3 SWAP2 SWAP1 PUSH2 0x14EB JUMP JUMPDEST PUSH1 0x40 DUP1 MLOAD DUP1 DUP4 SUB DUP2 PUSH1 0x0 DUP8 DUP1 EXTCODESIZE ISZERO DUP1 ISZERO PUSH2 0x5FE JUMPI PUSH1 0x0 DUP1 REVERT JUMPDEST POP GAS CALL ISZERO DUP1 ISZERO PUSH2 0x612 JUMPI RETURNDATASIZE PUSH1 0x0 DUP1 RETURNDATACOPY RETURNDATASIZE PUSH1 0x0 REVERT JUMPDEST POP POP POP POP PUSH1 0x40 MLOAD RETURNDATASIZE PUSH1 0x1F NOT PUSH1 0x1F DUP3 ADD AND DUP3 ADD DUP1 PUSH1 0x40 MSTORE POP DUP2 ADD SWAP1 PUSH2 0x636 SWAP2 SWAP1 PUSH2 0x1232 JUMP JUMPDEST POP POP POP POP POP POP POP JUMP JUMPDEST PUSH1 0x0 DUP4 SWAP1 POP PUSH1 0x2 PUSH1 0x0 SWAP1 SLOAD SWAP1 PUSH2 0x100 EXP SWAP1 DIV PUSH20 0xFFFFFFFFFFFFFFFFFFFFFFFFFFFFFFFFFFFFFFFF AND PUSH20 0xFFFFFFFFFFFFFFFFFFFFFFFFFFFFFFFFFFFFFFFF AND PUSH4 0x97DA6D30 DUP3 DUP6 DUP6 DUP10 PUSH1 0x0 PUSH1 0x40 MLOAD DUP7 PUSH4 0xFFFFFFFF AND PUSH1 0xE0 SHL DUP2 MSTORE PUSH1 0x4 ADD PUSH2 0x6A8 SWAP6 SWAP5 SWAP4 SWAP3 SWAP2 SWAP1 PUSH2 0x14EB JUMP JUMPDEST PUSH1 0x40 DUP1 MLOAD DUP1 DUP4 SUB DUP2 PUSH1 0x0 DUP8 DUP1 EXTCODESIZE ISZERO DUP1 ISZERO PUSH2 0x6C1 JUMPI PUSH1 0x0 DUP1 REVERT JUMPDEST POP GAS CALL ISZERO DUP1 ISZERO PUSH2 0x6D5 JUMPI RETURNDATASIZE PUSH1 0x0 DUP1 RETURNDATACOPY RETURNDATASIZE PUSH1 0x0 REVERT JUMPDEST POP POP POP POP PUSH1 0x40 MLOAD RETURNDATASIZE PUSH1 0x1F NOT PUSH1 0x1F DUP3 ADD AND DUP3 ADD DUP1 PUSH1 0x40 MSTORE POP DUP2 ADD SWAP1 PUSH2 0x6F9 SWAP2 SWAP1 PUSH2 0x1232 JUMP JUMPDEST POP POP POP POP POP POP POP JUMP JUMPDEST PUSH20 0x1B02DA8CB0D097EB8D57A175B88C7D8B47997506 DUP2 JUMP JUMPDEST DUP3 PUSH20 0xFFFFFFFFFFFFFFFFFFFFFFFFFFFFFFFFFFFFFFFF AND PUSH4 0x95EA7B3 DUP4 DUP4 PUSH1 0x40 MLOAD DUP4 PUSH4 0xFFFFFFFF AND PUSH1 0xE0 SHL DUP2 MSTORE PUSH1 0x4 ADD PUSH2 0x755 SWAP3 SWAP2 SWAP1 PUSH2 0x1439 JUMP JUMPDEST PUSH1 0x20 PUSH1 0x40 MLOAD DUP1 DUP4 SUB DUP2 PUSH1 0x0 DUP8 DUP1 EXTCODESIZE ISZERO DUP1 ISZERO PUSH2 0x76F JUMPI PUSH1 0x0 DUP1 REVERT JUMPDEST POP GAS CALL ISZERO DUP1 ISZERO PUSH2 0x783 JUMPI RETURNDATASIZE PUSH1 0x0 DUP1 RETURNDATACOPY RETURNDATASIZE PUSH1 0x0 REVERT JUMPDEST POP POP POP POP PUSH1 0x40 MLOAD RETURNDATASIZE PUSH1 0x1F NOT PUSH1 0x1F DUP3 ADD AND DUP3 ADD DUP1 PUSH1 0x40 MSTORE POP DUP2 ADD SWAP1 PUSH2 0x7A7 SWAP2 SWAP1 PUSH2 0x1154 JUMP JUMPDEST POP POP POP POP JUMP JUMPDEST PUSH1 0x0 DUP4 SWAP1 POP PUSH1 0x2 PUSH1 0x0 SWAP1 SLOAD SWAP1 PUSH2 0x100 EXP SWAP1 DIV PUSH20 0xFFFFFFFFFFFFFFFFFFFFFFFFFFFFFFFFFFFFFFFF AND PUSH20 0xFFFFFFFFFFFFFFFFFFFFFFFFFFFFFFFFFFFFFFFF AND PUSH4 0x2B9446C DUP3 DUP6 DUP6 DUP10 PUSH1 0x0 PUSH1 0x40 MLOAD DUP7 PUSH4 0xFFFFFFFF AND PUSH1 0xE0 SHL DUP2 MSTORE PUSH1 0x4 ADD PUSH2 0x816 SWAP6 SWAP5 SWAP4 SWAP3 SWAP2 SWAP1 PUSH2 0x14EB JUMP JUMPDEST PUSH1 0x40 DUP1 MLOAD DUP1 DUP4 SUB DUP2 PUSH1 0x0 DUP8 DUP1 EXTCODESIZE ISZERO DUP1 ISZERO PUSH2 0x82F JUMPI PUSH1 0x0 DUP1 REVERT JUMPDEST POP GAS CALL ISZERO DUP1 ISZERO PUSH2 0x843 JUMPI RETURNDATASIZE PUSH1 0x0 DUP1 RETURNDATACOPY RETURNDATASIZE PUSH1 0x0 REVERT JUMPDEST POP POP POP POP PUSH1 0x40 MLOAD RETURNDATASIZE PUSH1 0x1F NOT PUSH1 0x1F DUP3 ADD AND DUP3 ADD DUP1 PUSH1 0x40 MSTORE POP DUP2 ADD SWAP1 PUSH2 0x867 SWAP2 SWAP1 PUSH2 0x1232 JUMP JUMPDEST POP POP POP POP POP POP POP JUMP JUMPDEST PUSH1 0x0 PUSH1 0x1 PUSH1 0x0 DUP4 PUSH20 0xFFFFFFFFFFFFFFFFFFFFFFFFFFFFFFFFFFFFFFFF AND PUSH20 0xFFFFFFFFFFFFFFFFFFFFFFFFFFFFFFFFFFFFFFFF AND DUP2 MSTORE PUSH1 0x20 ADD SWAP1 DUP2 MSTORE PUSH1 0x20 ADD PUSH1 0x0 KECCAK256 SLOAD GT PUSH2 0x8F2 JUMPI PUSH1 0x40 MLOAD PUSH32 0x8C379A000000000000000000000000000000000000000000000000000000000 DUP2 MSTORE PUSH1 0x4 ADD PUSH2 0x8E9 SWAP1 PUSH2 0x1559 JUMP JUMPDEST PUSH1 0x40 MLOAD DUP1 SWAP2 SUB SWAP1 REVERT JUMPDEST PUSH1 0x1 PUSH1 0x0 DUP3 PUSH20 0xFFFFFFFFFFFFFFFFFFFFFFFFFFFFFFFFFFFFFFFF AND PUSH20 0xFFFFFFFFFFFFFFFFFFFFFFFFFFFFFFFFFFFFFFFF AND DUP2 MSTORE PUSH1 0x20 ADD SWAP1 DUP2 MSTORE PUSH1 0x20 ADD PUSH1 0x0 KECCAK256 SLOAD PUSH1 0x0 DUP1 DUP3 DUP3 SLOAD SUB SWAP3 POP POP DUP2 SWAP1 SSTORE POP PUSH1 0x0 PUSH1 0x1 PUSH1 0x0 DUP4 PUSH20 0xFFFFFFFFFFFFFFFFFFFFFFFFFFFFFFFFFFFFFFFF AND PUSH20 0xFFFFFFFFFFFFFFFFFFFFFFFFFFFFFFFFFFFFFFFF AND DUP2 MSTORE PUSH1 0x20 ADD SWAP1 DUP2 MSTORE PUSH1 0x20 ADD PUSH1 0x0 KECCAK256 DUP2 SWAP1 SSTORE POP POP JUMP JUMPDEST PUSH1 0x3 PUSH1 0x0 SWAP1 SLOAD SWAP1 PUSH2 0x100 EXP SWAP1 DIV PUSH20 0xFFFFFFFFFFFFFFFFFFFFFFFFFFFFFFFFFFFFFFFF AND PUSH20 0xFFFFFFFFFFFFFFFFFFFFFFFFFFFFFFFFFFFFFFFF AND PUSH4 0x38ED1739 DUP8 DUP8 DUP8 DUP8 DUP8 DUP8 PUSH1 0x40 MLOAD DUP8 PUSH4 0xFFFFFFFF AND PUSH1 0xE0 SHL DUP2 MSTORE PUSH1 0x4 ADD PUSH2 0x9ED SWAP7 SWAP6 SWAP5 SWAP4 SWAP3 SWAP2 SWAP1 PUSH2 0x1594 JUMP JUMPDEST PUSH1 0x0 PUSH1 0x40 MLOAD DUP1 DUP4 SUB DUP2 PUSH1 0x0 DUP8 DUP1 EXTCODESIZE ISZERO DUP1 ISZERO PUSH2 0xA07 JUMPI PUSH1 0x0 DUP1 REVERT JUMPDEST POP GAS CALL ISZERO DUP1 ISZERO PUSH2 0xA1B JUMPI RETURNDATASIZE PUSH1 0x0 DUP1 RETURNDATACOPY RETURNDATASIZE PUSH1 0x0 REVERT JUMPDEST POP POP POP POP PUSH1 0x40 MLOAD RETURNDATASIZE PUSH1 0x0 DUP3 RETURNDATACOPY RETURNDATASIZE PUSH1 0x1F NOT PUSH1 0x1F DUP3 ADD AND DUP3 ADD DUP1 PUSH1 0x40 MSTORE POP DUP2 ADD SWAP1 PUSH2 0xA44 SWAP2 SWAP1 PUSH2 0x1113 JUMP JUMPDEST POP POP POP POP POP POP POP JUMP JUMPDEST PUSH1 0x0 DUP5 SWAP1 POP PUSH1 0x2 PUSH1 0x0 SWAP1 SLOAD SWAP1 PUSH2 0x100 EXP SWAP1 DIV PUSH20 0xFFFFFFFFFFFFFFFFFFFFFFFFFFFFFFFFFFFFFFFF AND PUSH20 0xFFFFFFFFFFFFFFFFFFFFFFFFFFFFFFFFFFFFFFFF AND PUSH4 0xF18D03CC DUP3 DUP6 DUP6 DUP9 PUSH1 0x40 MLOAD DUP6 PUSH4 0xFFFFFFFF AND PUSH1 0xE0 SHL DUP2 MSTORE PUSH1 0x4 ADD PUSH2 0xAB3 SWAP5 SWAP4 SWAP3 SWAP2 SWAP1 PUSH2 0x14A6 JUMP JUMPDEST PUSH1 0x0 PUSH1 0x40 MLOAD DUP1 DUP4 SUB DUP2 PUSH1 0x0 DUP8 DUP1 EXTCODESIZE ISZERO DUP1 ISZERO PUSH2 0xACD JUMPI PUSH1 0x0 DUP1 REVERT JUMPDEST POP GAS CALL ISZERO DUP1 ISZERO PUSH2 0xAE1 JUMPI RETURNDATASIZE PUSH1 0x0 DUP1 RETURNDATACOPY RETURNDATASIZE PUSH1 0x0 REVERT JUMPDEST POP POP POP POP POP POP POP POP POP JUMP JUMPDEST PUSH1 0x2 PUSH1 0x0 SWAP1 SLOAD SWAP1 PUSH2 0x100 EXP SWAP1 DIV PUSH20 0xFFFFFFFFFFFFFFFFFFFFFFFFFFFFFFFFFFFFFFFF AND PUSH20 0xFFFFFFFFFFFFFFFFFFFFFFFFFFFFFFFFFFFFFFFF AND PUSH4 0xAEE4D1B2 PUSH1 0x40 MLOAD DUP2 PUSH4 0xFFFFFFFF AND PUSH1 0xE0 SHL DUP2 MSTORE PUSH1 0x4 ADD PUSH1 0x0 PUSH1 0x40 MLOAD DUP1 DUP4 SUB DUP2 PUSH1 0x0 DUP8 DUP1 EXTCODESIZE ISZERO DUP1 ISZERO PUSH2 0xB56 JUMPI PUSH1 0x0 DUP1 REVERT JUMPDEST POP GAS CALL ISZERO DUP1 ISZERO PUSH2 0xB6A JUMPI RETURNDATASIZE PUSH1 0x0 DUP1 RETURNDATACOPY RETURNDATASIZE PUSH1 0x0 REVERT JUMPDEST POP POP POP POP JUMP JUMPDEST PUSH1 0x0 PUSH1 0x1 PUSH1 0x0 DUP4 PUSH20 0xFFFFFFFFFFFFFFFFFFFFFFFFFFFFFFFFFFFFFFFF AND PUSH20 0xFFFFFFFFFFFFFFFFFFFFFFFFFFFFFFFFFFFFFFFF AND DUP2 MSTORE PUSH1 0x20 ADD SWAP1 DUP2 MSTORE PUSH1 0x20 ADD PUSH1 0x0 KECCAK256 SLOAD SWAP1 POP SWAP2 SWAP1 POP JUMP JUMPDEST PUSH20 0x2791BCA1F2DE4661ED88A30C99A7A9449AA84174 DUP2 JUMP JUMPDEST PUSH1 0x0 SLOAD DUP2 JUMP JUMPDEST PUSH1 0x0 SWAP1 JUMP JUMPDEST PUSH1 0x2 PUSH1 0x0 SWAP1 SLOAD SWAP1 PUSH2 0x100 EXP SWAP1 DIV PUSH20 0xFFFFFFFFFFFFFFFFFFFFFFFFFFFFFFFFFFFFFFFF AND DUP2 JUMP JUMPDEST CALLER PUSH20 0xFFFFFFFFFFFFFFFFFFFFFFFFFFFFFFFFFFFFFFFF AND PUSH2 0x8FC DUP3 SWAP1 DUP2 ISZERO MUL SWAP1 PUSH1 0x40 MLOAD PUSH1 0x0 PUSH1 0x40 MLOAD DUP1 DUP4 SUB DUP2 DUP6 DUP9 DUP9 CALL SWAP4 POP POP POP POP ISZERO DUP1 ISZERO PUSH2 0xC48 JUMPI RETURNDATASIZE PUSH1 0x0 DUP1 RETURNDATACOPY RETURNDATASIZE PUSH1 0x0 REVERT JUMPDEST POP POP JUMP JUMPDEST PUSH1 0x0 DUP1 DUP4 SWAP1 POP PUSH1 0x2 PUSH1 0x0 SWAP1 SLOAD SWAP1 PUSH2 0x100 EXP SWAP1 DIV PUSH20 0xFFFFFFFFFFFFFFFFFFFFFFFFFFFFFFFFFFFFFFFF AND PUSH20 0xFFFFFFFFFFFFFFFFFFFFFFFFFFFFFFFFFFFFFFFF AND PUSH4 0xF7888AEC DUP3 DUP6 PUSH1 0x40 MLOAD DUP4 PUSH4 0xFFFFFFFF AND PUSH1 0xE0 SHL DUP2 MSTORE PUSH1 0x4 ADD PUSH2 0xCAF SWAP3 SWAP2 SWAP1 PUSH2 0x147D JUMP JUMPDEST PUSH1 0x20 PUSH1 0x40 MLOAD DUP1 DUP4 SUB DUP2 DUP7 DUP1 EXTCODESIZE ISZERO DUP1 ISZERO PUSH2 0xCC7 JUMPI PUSH1 0x0 DUP1 REVERT JUMPDEST POP GAS STATICCALL ISZERO DUP1 ISZERO PUSH2 0xCDB JUMPI RETURNDATASIZE PUSH1 0x0 DUP1 RETURNDATACOPY RETURNDATASIZE PUSH1 0x0 REVERT JUMPDEST POP POP POP POP PUSH1 0x40 MLOAD RETURNDATASIZE PUSH1 0x1F NOT PUSH1 0x1F DUP3 ADD AND DUP3 ADD DUP1 PUSH1 0x40 MSTORE POP DUP2 ADD SWAP1 PUSH2 0xCFF SWAP2 SWAP1 PUSH2 0x11A6 JUMP JUMPDEST SWAP2 POP POP SWAP3 SWAP2 POP POP JUMP JUMPDEST PUSH20 0x319000133D3ADA02600F0875D2CF03D442C3367 DUP2 JUMP JUMPDEST PUSH1 0x1 PUSH1 0x20 MSTORE DUP1 PUSH1 0x0 MSTORE PUSH1 0x40 PUSH1 0x0 KECCAK256 PUSH1 0x0 SWAP2 POP SWAP1 POP SLOAD DUP2 JUMP JUMPDEST PUSH1 0x0 PUSH1 0x1 PUSH1 0x0 DUP5 PUSH20 0xFFFFFFFFFFFFFFFFFFFFFFFFFFFFFFFFFFFFFFFF AND PUSH20 0xFFFFFFFFFFFFFFFFFFFFFFFFFFFFFFFFFFFFFFFF AND DUP2 MSTORE PUSH1 0x20 ADD SWAP1 DUP2 MSTORE PUSH1 0x20 ADD PUSH1 0x0 KECCAK256 SLOAD EQ ISZERO PUSH2 0xDC9 JUMPI DUP1 PUSH1 0x1 PUSH1 0x0 DUP5 PUSH20 0xFFFFFFFFFFFFFFFFFFFFFFFFFFFFFFFFFFFFFFFF AND PUSH20 0xFFFFFFFFFFFFFFFFFFFFFFFFFFFFFFFFFFFFFFFF AND DUP2 MSTORE PUSH1 0x20 ADD SWAP1 DUP2 MSTORE PUSH1 0x20 ADD PUSH1 0x0 KECCAK256 DUP2 SWAP1 SSTORE POP PUSH2 0xE17 JUMP JUMPDEST DUP1 PUSH1 0x1 PUSH1 0x0 DUP5 PUSH20 0xFFFFFFFFFFFFFFFFFFFFFFFFFFFFFFFFFFFFFFFF AND PUSH20 0xFFFFFFFFFFFFFFFFFFFFFFFFFFFFFFFFFFFFFFFF AND DUP2 MSTORE PUSH1 0x20 ADD SWAP1 DUP2 MSTORE PUSH1 0x20 ADD PUSH1 0x0 KECCAK256 PUSH1 0x0 DUP3 DUP3 SLOAD ADD SWAP3 POP POP DUP2 SWAP1 SSTORE POP JUMPDEST DUP1 PUSH1 0x0 DUP1 DUP3 DUP3 SLOAD ADD SWAP3 POP POP DUP2 SWAP1 SSTORE POP POP POP JUMP JUMPDEST PUSH1 0x3 PUSH1 0x0 SWAP1 SLOAD SWAP1 PUSH2 0x100 EXP SWAP1 DIV PUSH20 0xFFFFFFFFFFFFFFFFFFFFFFFFFFFFFFFFFFFFFFFF AND DUP2 JUMP JUMPDEST PUSH1 0x0 DUP2 CALLDATALOAD SWAP1 POP PUSH2 0xE5F DUP2 PUSH2 0x175B JUMP JUMPDEST SWAP3 SWAP2 POP POP JUMP JUMPDEST PUSH1 0x0 DUP1 DUP4 PUSH1 0x1F DUP5 ADD SLT PUSH2 0xE77 JUMPI PUSH1 0x0 DUP1 REVERT JUMPDEST DUP3 CALLDATALOAD SWAP1 POP PUSH8 0xFFFFFFFFFFFFFFFF DUP2 GT ISZERO PUSH2 0xE90 JUMPI PUSH1 0x0 DUP1 REVERT JUMPDEST PUSH1 0x20 DUP4 ADD SWAP2 POP DUP4 PUSH1 0x20 DUP3 MUL DUP4 ADD GT ISZERO PUSH2 0xEA8 JUMPI PUSH1 0x0 DUP1 REVERT JUMPDEST SWAP3 POP SWAP3 SWAP1 POP JUMP JUMPDEST PUSH1 0x0 DUP3 PUSH1 0x1F DUP4 ADD SLT PUSH2 0xEC0 JUMPI PUSH1 0x0 DUP1 REVERT JUMPDEST DUP2 MLOAD PUSH2 0xED3 PUSH2 0xECE DUP3 PUSH2 0x161D JUMP JUMPDEST PUSH2 0x15F0 JUMP JUMPDEST SWAP2 POP DUP2 DUP2 DUP4 MSTORE PUSH1 0x20 DUP5 ADD SWAP4 POP PUSH1 0x20 DUP2 ADD SWAP1 POP DUP4 DUP6 PUSH1 0x20 DUP5 MUL DUP3 ADD GT ISZERO PUSH2 0xEF8 JUMPI PUSH1 0x0 DUP1 REVERT JUMPDEST PUSH1 0x0 JUMPDEST DUP4 DUP2 LT ISZERO PUSH2 0xF28 JUMPI DUP2 PUSH2 0xF0E DUP9 DUP3 PUSH2 0xF5C JUMP JUMPDEST DUP5 MSTORE PUSH1 0x20 DUP5 ADD SWAP4 POP PUSH1 0x20 DUP4 ADD SWAP3 POP POP PUSH1 0x1 DUP2 ADD SWAP1 POP PUSH2 0xEFB JUMP JUMPDEST POP POP POP POP SWAP3 SWAP2 POP POP JUMP JUMPDEST PUSH1 0x0 DUP2 MLOAD SWAP1 POP PUSH2 0xF41 DUP2 PUSH2 0x1772 JUMP JUMPDEST SWAP3 SWAP2 POP POP JUMP JUMPDEST PUSH1 0x0 DUP2 CALLDATALOAD SWAP1 POP PUSH2 0xF56 DUP2 PUSH2 0x1789 JUMP JUMPDEST SWAP3 SWAP2 POP POP JUMP JUMPDEST PUSH1 0x0 DUP2 MLOAD SWAP1 POP PUSH2 0xF6B DUP2 PUSH2 0x1789 JUMP JUMPDEST SWAP3 SWAP2 POP POP JUMP JUMPDEST PUSH1 0x0 PUSH1 0x20 DUP3 DUP5 SUB SLT ISZERO PUSH2 0xF83 JUMPI PUSH1 0x0 DUP1 REVERT JUMPDEST PUSH1 0x0 PUSH2 0xF91 DUP5 DUP3 DUP6 ADD PUSH2 0xE50 JUMP JUMPDEST SWAP2 POP POP SWAP3 SWAP2 POP POP JUMP JUMPDEST PUSH1 0x0 DUP1 PUSH1 0x40 DUP4 DUP6 SUB SLT ISZERO PUSH2 0xFAD JUMPI PUSH1 0x0 DUP1 REVERT JUMPDEST PUSH1 0x0 PUSH2 0xFBB DUP6 DUP3 DUP7 ADD PUSH2 0xE50 JUMP JUMPDEST SWAP3 POP POP PUSH1 0x20 PUSH2 0xFCC DUP6 DUP3 DUP7 ADD PUSH2 0xE50 JUMP JUMPDEST SWAP2 POP POP SWAP3 POP SWAP3 SWAP1 POP JUMP JUMPDEST PUSH1 0x0 DUP1 PUSH1 0x0 PUSH1 0x60 DUP5 DUP7 SUB SLT ISZERO PUSH2 0xFEB JUMPI PUSH1 0x0 DUP1 REVERT JUMPDEST PUSH1 0x0 PUSH2 0xFF9 DUP7 DUP3 DUP8 ADD PUSH2 0xE50 JUMP JUMPDEST SWAP4 POP POP PUSH1 0x20 PUSH2 0x100A DUP7 DUP3 DUP8 ADD PUSH2 0xE50 JUMP JUMPDEST SWAP3 POP POP PUSH1 0x40 PUSH2 0x101B DUP7 DUP3 DUP8 ADD PUSH2 0xE50 JUMP JUMPDEST SWAP2 POP POP SWAP3 POP SWAP3 POP SWAP3 JUMP JUMPDEST PUSH1 0x0 DUP1 PUSH1 0x0 PUSH1 0x60 DUP5 DUP7 SUB SLT ISZERO PUSH2 0x103A JUMPI PUSH1 0x0 DUP1 REVERT JUMPDEST PUSH1 0x0 PUSH2 0x1048 DUP7 DUP3 DUP8 ADD PUSH2 0xE50 JUMP JUMPDEST SWAP4 POP POP PUSH1 0x20 PUSH2 0x1059 DUP7 DUP3 DUP8 ADD PUSH2 0xE50 JUMP JUMPDEST SWAP3 POP POP PUSH1 0x40 PUSH2 0x106A DUP7 DUP3 DUP8 ADD PUSH2 0xF47 JUMP JUMPDEST SWAP2 POP POP SWAP3 POP SWAP3 POP SWAP3 JUMP JUMPDEST PUSH1 0x0 DUP1 PUSH1 0x40 DUP4 DUP6 SUB SLT ISZERO PUSH2 0x1087 JUMPI PUSH1 0x0 DUP1 REVERT JUMPDEST PUSH1 0x0 PUSH2 0x1095 DUP6 DUP3 DUP7 ADD PUSH2 0xE50 JUMP JUMPDEST SWAP3 POP POP PUSH1 0x20 PUSH2 0x10A6 DUP6 DUP3 DUP7 ADD PUSH2 0xF47 JUMP JUMPDEST SWAP2 POP POP SWAP3 POP SWAP3 SWAP1 POP JUMP JUMPDEST PUSH1 0x0 DUP1 PUSH1 0x0 DUP1 PUSH1 0x80 DUP6 DUP8 SUB SLT ISZERO PUSH2 0x10C6 JUMPI PUSH1 0x0 DUP1 REVERT JUMPDEST PUSH1 0x0 PUSH2 0x10D4 DUP8 DUP3 DUP9 ADD PUSH2 0xE50 JUMP JUMPDEST SWAP5 POP POP PUSH1 0x20 PUSH2 0x10E5 DUP8 DUP3 DUP9 ADD PUSH2 0xF47 JUMP JUMPDEST SWAP4 POP POP PUSH1 0x40 PUSH2 0x10F6 DUP8 DUP3 DUP9 ADD PUSH2 0xE50 JUMP JUMPDEST SWAP3 POP POP PUSH1 0x60 PUSH2 0x1107 DUP8 DUP3 DUP9 ADD PUSH2 0xE50 JUMP JUMPDEST SWAP2 POP POP SWAP3 SWAP6 SWAP2 SWAP5 POP SWAP3 POP JUMP JUMPDEST PUSH1 0x0 PUSH1 0x20 DUP3 DUP5 SUB SLT ISZERO PUSH2 0x1125 JUMPI PUSH1 0x0 DUP1 REVERT JUMPDEST PUSH1 0x0 DUP3 ADD MLOAD PUSH8 0xFFFFFFFFFFFFFFFF DUP2 GT ISZERO PUSH2 0x113F JUMPI PUSH1 0x0 DUP1 REVERT JUMPDEST PUSH2 0x114B DUP5 DUP3 DUP6 ADD PUSH2 0xEAF JUMP JUMPDEST SWAP2 POP POP SWAP3 SWAP2 POP POP JUMP JUMPDEST PUSH1 0x0 PUSH1 0x20 DUP3 DUP5 SUB SLT ISZERO PUSH2 0x1166 JUMPI PUSH1 0x0 DUP1 REVERT JUMPDEST PUSH1 0x0 PUSH2 0x1174 DUP5 DUP3 DUP6 ADD PUSH2 0xF32 JUMP JUMPDEST SWAP2 POP POP SWAP3 SWAP2 POP POP JUMP JUMPDEST PUSH1 0x0 PUSH1 0x20 DUP3 DUP5 SUB SLT ISZERO PUSH2 0x118F JUMPI PUSH1 0x0 DUP1 REVERT JUMPDEST PUSH1 0x0 PUSH2 0x119D DUP5 DUP3 DUP6 ADD PUSH2 0xF47 JUMP JUMPDEST SWAP2 POP POP SWAP3 SWAP2 POP POP JUMP JUMPDEST PUSH1 0x0 PUSH1 0x20 DUP3 DUP5 SUB SLT ISZERO PUSH2 0x11B8 JUMPI PUSH1 0x0 DUP1 REVERT JUMPDEST PUSH1 0x0 PUSH2 0x11C6 DUP5 DUP3 DUP6 ADD PUSH2 0xF5C JUMP JUMPDEST SWAP2 POP POP SWAP3 SWAP2 POP POP JUMP JUMPDEST PUSH1 0x0 DUP1 PUSH1 0x0 DUP1 PUSH1 0x80 DUP6 DUP8 SUB SLT ISZERO PUSH2 0x11E5 JUMPI PUSH1 0x0 DUP1 REVERT JUMPDEST PUSH1 0x0 PUSH2 0x11F3 DUP8 DUP3 DUP9 ADD PUSH2 0xF47 JUMP JUMPDEST SWAP5 POP POP PUSH1 0x20 PUSH2 0x1204 DUP8 DUP3 DUP9 ADD PUSH2 0xE50 JUMP JUMPDEST SWAP4 POP POP PUSH1 0x40 PUSH2 0x1215 DUP8 DUP3 DUP9 ADD PUSH2 0xE50 JUMP JUMPDEST SWAP3 POP POP PUSH1 0x60 PUSH2 0x1226 DUP8 DUP3 DUP9 ADD PUSH2 0xE50 JUMP JUMPDEST SWAP2 POP POP SWAP3 SWAP6 SWAP2 SWAP5 POP SWAP3 POP JUMP JUMPDEST PUSH1 0x0 DUP1 PUSH1 0x40 DUP4 DUP6 SUB SLT ISZERO PUSH2 0x1245 JUMPI PUSH1 0x0 DUP1 REVERT JUMPDEST PUSH1 0x0 PUSH2 0x1253 DUP6 DUP3 DUP7 ADD PUSH2 0xF5C JUMP JUMPDEST SWAP3 POP POP PUSH1 0x20 PUSH2 0x1264 DUP6 DUP3 DUP7 ADD PUSH2 0xF5C JUMP JUMPDEST SWAP2 POP POP SWAP3 POP SWAP3 SWAP1 POP JUMP JUMPDEST PUSH1 0x0 DUP1 PUSH1 0x0 DUP1 PUSH1 0x0 DUP1 PUSH1 0xA0 DUP8 DUP10 SUB SLT ISZERO PUSH2 0x1287 JUMPI PUSH1 0x0 DUP1 REVERT JUMPDEST PUSH1 0x0 PUSH2 0x1295 DUP10 DUP3 DUP11 ADD PUSH2 0xF47 JUMP JUMPDEST SWAP7 POP POP PUSH1 0x20 PUSH2 0x12A6 DUP10 DUP3 DUP11 ADD PUSH2 0xF47 JUMP JUMPDEST SWAP6 POP POP PUSH1 0x40 DUP8 ADD CALLDATALOAD PUSH8 0xFFFFFFFFFFFFFFFF DUP2 GT ISZERO PUSH2 0x12C3 JUMPI PUSH1 0x0 DUP1 REVERT JUMPDEST PUSH2 0x12CF DUP10 DUP3 DUP11 ADD PUSH2 0xE65 JUMP JUMPDEST SWAP5 POP SWAP5 POP POP PUSH1 0x60 PUSH2 0x12E2 DUP10 DUP3 DUP11 ADD PUSH2 0xE50 JUMP JUMPDEST SWAP3 POP POP PUSH1 0x80 PUSH2 0x12F3 DUP10 DUP3 DUP11 ADD PUSH2 0xF47 JUMP JUMPDEST SWAP2 POP POP SWAP3 SWAP6 POP SWAP3 SWAP6 POP SWAP3 SWAP6 JUMP JUMPDEST PUSH1 0x0 PUSH2 0x130C DUP4 DUP4 PUSH2 0x1318 JUMP JUMPDEST PUSH1 0x20 DUP4 ADD SWAP1 POP SWAP3 SWAP2 POP POP JUMP JUMPDEST PUSH2 0x1321 DUP2 PUSH2 0x1695 JUMP JUMPDEST DUP3 MSTORE POP POP JUMP JUMPDEST PUSH2 0x1330 DUP2 PUSH2 0x1695 JUMP JUMPDEST DUP3 MSTORE POP POP JUMP JUMPDEST PUSH1 0x0 PUSH2 0x1342 DUP4 DUP6 PUSH2 0x165C JUMP JUMPDEST SWAP4 POP PUSH2 0x134D DUP3 PUSH2 0x1645 JUMP JUMPDEST DUP1 PUSH1 0x0 JUMPDEST DUP6 DUP2 LT ISZERO PUSH2 0x1386 JUMPI PUSH2 0x1363 DUP3 DUP5 PUSH2 0x167E JUMP JUMPDEST PUSH2 0x136D DUP9 DUP3 PUSH2 0x1300 JUMP JUMPDEST SWAP8 POP PUSH2 0x1378 DUP4 PUSH2 0x164F JUMP JUMPDEST SWAP3 POP POP PUSH1 0x1 DUP2 ADD SWAP1 POP PUSH2 0x1351 JUMP JUMPDEST POP DUP6 SWAP3 POP POP POP SWAP4 SWAP3 POP POP POP JUMP JUMPDEST PUSH2 0x139C DUP2 PUSH2 0x16DD JUMP JUMPDEST DUP3 MSTORE POP POP JUMP JUMPDEST PUSH2 0x13AB DUP2 PUSH2 0x1701 JUMP JUMPDEST DUP3 MSTORE POP POP JUMP JUMPDEST PUSH2 0x13BA DUP2 PUSH2 0x1725 JUMP JUMPDEST DUP3 MSTORE POP POP JUMP JUMPDEST PUSH2 0x13C9 DUP2 PUSH2 0x1749 JUMP JUMPDEST DUP3 MSTORE POP POP JUMP JUMPDEST PUSH1 0x0 PUSH2 0x13DC PUSH1 0x1F DUP4 PUSH2 0x166D JUMP JUMPDEST SWAP2 POP PUSH32 0x4572726F72202D2054686973207573657220686173206E6F2073686172657300 PUSH1 0x0 DUP4 ADD MSTORE PUSH1 0x20 DUP3 ADD SWAP1 POP SWAP2 SWAP1 POP JUMP JUMPDEST PUSH2 0x1418 DUP2 PUSH2 0x16D3 JUMP JUMPDEST DUP3 MSTORE POP POP JUMP JUMPDEST PUSH1 0x0 PUSH1 0x20 DUP3 ADD SWAP1 POP PUSH2 0x1433 PUSH1 0x0 DUP4 ADD DUP5 PUSH2 0x1327 JUMP JUMPDEST SWAP3 SWAP2 POP POP JUMP JUMPDEST PUSH1 0x0 PUSH1 0x40 DUP3 ADD SWAP1 POP PUSH2 0x144E PUSH1 0x0 DUP4 ADD DUP6 PUSH2 0x1327 JUMP JUMPDEST PUSH2 0x145B PUSH1 0x20 DUP4 ADD DUP5 PUSH2 0x140F JUMP JUMPDEST SWAP4 SWAP3 POP POP POP JUMP JUMPDEST PUSH1 0x0 PUSH1 0x20 DUP3 ADD SWAP1 POP PUSH2 0x1477 PUSH1 0x0 DUP4 ADD DUP5 PUSH2 0x1393 JUMP JUMPDEST SWAP3 SWAP2 POP POP JUMP JUMPDEST PUSH1 0x0 PUSH1 0x40 DUP3 ADD SWAP1 POP PUSH2 0x1492 PUSH1 0x0 DUP4 ADD DUP6 PUSH2 0x13A2 JUMP JUMPDEST PUSH2 0x149F PUSH1 0x20 DUP4 ADD DUP5 PUSH2 0x1327 JUMP JUMPDEST SWAP4 SWAP3 POP POP POP JUMP JUMPDEST PUSH1 0x0 PUSH1 0x80 DUP3 ADD SWAP1 POP PUSH2 0x14BB PUSH1 0x0 DUP4 ADD DUP8 PUSH2 0x13A2 JUMP JUMPDEST PUSH2 0x14C8 PUSH1 0x20 DUP4 ADD DUP7 PUSH2 0x1327 JUMP JUMPDEST PUSH2 0x14D5 PUSH1 0x40 DUP4 ADD DUP6 PUSH2 0x1327 JUMP JUMPDEST PUSH2 0x14E2 PUSH1 0x60 DUP4 ADD DUP5 PUSH2 0x140F JUMP JUMPDEST SWAP6 SWAP5 POP POP POP POP POP JUMP JUMPDEST PUSH1 0x0 PUSH1 0xA0 DUP3 ADD SWAP1 POP PUSH2 0x1500 PUSH1 0x0 DUP4 ADD DUP9 PUSH2 0x13A2 JUMP JUMPDEST PUSH2 0x150D PUSH1 0x20 DUP4 ADD DUP8 PUSH2 0x1327 JUMP JUMPDEST PUSH2 0x151A PUSH1 0x40 DUP4 ADD DUP7 PUSH2 0x1327 JUMP JUMPDEST PUSH2 0x1527 PUSH1 0x60 DUP4 ADD DUP6 PUSH2 0x140F JUMP JUMPDEST PUSH2 0x1534 PUSH1 0x80 DUP4 ADD DUP5 PUSH2 0x13C0 JUMP JUMPDEST SWAP7 SWAP6 POP POP POP POP POP POP JUMP JUMPDEST PUSH1 0x0 PUSH1 0x20 DUP3 ADD SWAP1 POP PUSH2 0x1553 PUSH1 0x0 DUP4 ADD DUP5 PUSH2 0x13B1 JUMP JUMPDEST SWAP3 SWAP2 POP POP JUMP JUMPDEST PUSH1 0x0 PUSH1 0x20 DUP3 ADD SWAP1 POP DUP2 DUP2 SUB PUSH1 0x0 DUP4 ADD MSTORE PUSH2 0x1572 DUP2 PUSH2 0x13CF JUMP JUMPDEST SWAP1 POP SWAP2 SWAP1 POP JUMP JUMPDEST PUSH1 0x0 PUSH1 0x20 DUP3 ADD SWAP1 POP PUSH2 0x158E PUSH1 0x0 DUP4 ADD DUP5 PUSH2 0x140F JUMP JUMPDEST SWAP3 SWAP2 POP POP JUMP JUMPDEST PUSH1 0x0 PUSH1 0xA0 DUP3 ADD SWAP1 POP PUSH2 0x15A9 PUSH1 0x0 DUP4 ADD DUP10 PUSH2 0x140F JUMP JUMPDEST PUSH2 0x15B6 PUSH1 0x20 DUP4 ADD DUP9 PUSH2 0x140F JUMP JUMPDEST DUP2 DUP2 SUB PUSH1 0x40 DUP4 ADD MSTORE PUSH2 0x15C9 DUP2 DUP7 DUP9 PUSH2 0x1336 JUMP JUMPDEST SWAP1 POP PUSH2 0x15D8 PUSH1 0x60 DUP4 ADD DUP6 PUSH2 0x1327 JUMP JUMPDEST PUSH2 0x15E5 PUSH1 0x80 DUP4 ADD DUP5 PUSH2 0x140F JUMP JUMPDEST SWAP8 SWAP7 POP POP POP POP POP POP POP JUMP JUMPDEST PUSH1 0x0 PUSH1 0x40 MLOAD SWAP1 POP DUP2 DUP2 ADD DUP2 DUP2 LT PUSH8 0xFFFFFFFFFFFFFFFF DUP3 GT OR ISZERO PUSH2 0x1613 JUMPI PUSH1 0x0 DUP1 REVERT JUMPDEST DUP1 PUSH1 0x40 MSTORE POP SWAP2 SWAP1 POP JUMP JUMPDEST PUSH1 0x0 PUSH8 0xFFFFFFFFFFFFFFFF DUP3 GT ISZERO PUSH2 0x1634 JUMPI PUSH1 0x0 DUP1 REVERT JUMPDEST PUSH1 0x20 DUP3 MUL SWAP1 POP PUSH1 0x20 DUP2 ADD SWAP1 POP SWAP2 SWAP1 POP JUMP JUMPDEST PUSH1 0x0 DUP2 SWAP1 POP SWAP2 SWAP1 POP JUMP JUMPDEST PUSH1 0x0 PUSH1 0x20 DUP3 ADD SWAP1 POP SWAP2 SWAP1 POP JUMP JUMPDEST PUSH1 0x0 DUP3 DUP3 MSTORE PUSH1 0x20 DUP3 ADD SWAP1 POP SWAP3 SWAP2 POP POP JUMP JUMPDEST PUSH1 0x0 DUP3 DUP3 MSTORE PUSH1 0x20 DUP3 ADD SWAP1 POP SWAP3 SWAP2 POP POP JUMP JUMPDEST PUSH1 0x0 PUSH2 0x168D PUSH1 0x20 DUP5 ADD DUP5 PUSH2 0xE50 JUMP JUMPDEST SWAP1 POP SWAP3 SWAP2 POP POP JUMP JUMPDEST PUSH1 0x0 PUSH2 0x16A0 DUP3 PUSH2 0x16B3 JUMP JUMPDEST SWAP1 POP SWAP2 SWAP1 POP JUMP JUMPDEST PUSH1 0x0 DUP2 ISZERO ISZERO SWAP1 POP SWAP2 SWAP1 POP JUMP JUMPDEST PUSH1 0x0 PUSH20 0xFFFFFFFFFFFFFFFFFFFFFFFFFFFFFFFFFFFFFFFF DUP3 AND SWAP1 POP SWAP2 SWAP1 POP JUMP JUMPDEST PUSH1 0x0 DUP2 SWAP1 POP SWAP2 SWAP1 POP JUMP JUMPDEST PUSH1 0x0 PUSH2 0x16E8 DUP3 PUSH2 0x16EF JUMP JUMPDEST SWAP1 POP SWAP2 SWAP1 POP JUMP JUMPDEST PUSH1 0x0 PUSH2 0x16FA DUP3 PUSH2 0x16B3 JUMP JUMPDEST SWAP1 POP SWAP2 SWAP1 POP JUMP JUMPDEST PUSH1 0x0 PUSH2 0x170C DUP3 PUSH2 0x1713 JUMP JUMPDEST SWAP1 POP SWAP2 SWAP1 POP JUMP JUMPDEST PUSH1 0x0 PUSH2 0x171E DUP3 PUSH2 0x16B3 JUMP JUMPDEST SWAP1 POP SWAP2 SWAP1 POP JUMP JUMPDEST PUSH1 0x0 PUSH2 0x1730 DUP3 PUSH2 0x1737 JUMP JUMPDEST SWAP1 POP SWAP2 SWAP1 POP JUMP JUMPDEST PUSH1 0x0 PUSH2 0x1742 DUP3 PUSH2 0x16B3 JUMP JUMPDEST SWAP1 POP SWAP2 SWAP1 POP JUMP JUMPDEST PUSH1 0x0 PUSH2 0x1754 DUP3 PUSH2 0x16D3 JUMP JUMPDEST SWAP1 POP SWAP2 SWAP1 POP JUMP JUMPDEST PUSH2 0x1764 DUP2 PUSH2 0x1695 JUMP JUMPDEST DUP2 EQ PUSH2 0x176F JUMPI PUSH1 0x0 DUP1 REVERT JUMPDEST POP JUMP JUMPDEST PUSH2 0x177B DUP2 PUSH2 0x16A7 JUMP JUMPDEST DUP2 EQ PUSH2 0x1786 JUMPI PUSH1 0x0 DUP1 REVERT JUMPDEST POP JUMP JUMPDEST PUSH2 0x1792 DUP2 PUSH2 0x16D3 JUMP JUMPDEST DUP2 EQ PUSH2 0x179D JUMPI PUSH1 0x0 DUP1 REVERT JUMPDEST POP JUMP INVALID LOG2 PUSH5 0x6970667358 0x22 SLT KECCAK256 0xD1 PUSH3 0x4AC63C 0xD4 CREATE 0xB6 SLOAD 0xC1 0xA5 0x5D 0xED PUSH9 0x3822E8EE46FB90070F 0xFB 0xD3 0xC1 LOG0 0xE5 AND 0xB0 MSTORE CALLCODE PUSH5 0x736F6C6343 STOP MOD 0xC STOP CALLER "
				},
				"gasEstimates": {
					"creation": {
						"codeDepositCost": "1220400",
						"executionCost": "43002",
						"totalCost": "1263402"
					},
					"external": {
						"BENTOBOX_MASTER_CONTRACT_ADDRESS()": "444",
						"BentoMasterContract()": "1368",
						"BentoTokenBalanceOf(address,address)": "infinite",
						"SUSHISWAP_ROUTER()": "468",
						"USDC_ADDRESS()": "423",
						"WETH_ADDRESS()": "402",
						"approve_spending(address,address,uint256)": "infinite",
						"depositToBento(uint256,address,address,address)": "infinite",
						"depositTokenBalanceToBento(address,address,address)": "infinite",
						"getTotalShares()": "418",
						"getUserShares(address)": "1564",
						"registerProtocol()": "infinite",
						"sushiSwapRouter()": "1389",
						"swap(uint256,uint256,address[],address,uint256)": "infinite",
						"totalNumberOfShares()": "1196",
						"transfer(address,uint256,address,address)": "infinite",
						"updateSharesOnDeposit(address,uint256)": "43411",
						"updateSharesOnWithdrawal(address)": "28240",
						"userNumberOfShares(address)": "1602",
						"withdraw(uint256,address,address,address)": "infinite",
						"withdraw_matic(uint256)": "infinite"
					}
				},
				"methodIdentifiers": {
					"BENTOBOX_MASTER_CONTRACT_ADDRESS()": "edc46f3d",
					"BentoMasterContract()": "d58c5b0b",
					"BentoTokenBalanceOf(address,address)": "ec8def84",
					"SUSHISWAP_ROUTER()": "277754ed",
					"USDC_ADDRESS()": "bb09d9b7",
					"WETH_ADDRESS()": "040141e5",
					"approve_spending(address,address,uint256)": "29a97ec2",
					"depositToBento(uint256,address,address,address)": "35c67cd6",
					"depositTokenBalanceToBento(address,address,address)": "0d36b76b",
					"getTotalShares()": "d5002f2e",
					"getUserShares(address)": "ba0cb22b",
					"registerProtocol()": "aee4d1b2",
					"sushiSwapRouter()": "fd829a23",
					"swap(uint256,uint256,address[],address,uint256)": "90f11e84",
					"totalNumberOfShares()": "c3f5a305",
					"transfer(address,uint256,address,address)": "a6c4e467",
					"updateSharesOnDeposit(address,uint256)": "efc89ee3",
					"updateSharesOnWithdrawal(address)": "4690738c",
					"userNumberOfShares(address)": "ef455bad",
					"withdraw(uint256,address,address,address)": "23e103a8",
					"withdraw_matic(uint256)": "d9155b11"
				}
			},
			"storageLayout": {
				"storage": [
					{
						"astId": 1597,
						"contract": "BentoboxDappFlattened.sol:bentoboxDapp",
						"label": "totalNumberOfShares",
						"offset": 0,
						"slot": "0",
						"type": "t_uint256"
					},
					{
						"astId": 1601,
						"contract": "BentoboxDappFlattened.sol:bentoboxDapp",
						"label": "userNumberOfShares",
						"offset": 0,
						"slot": "1",
						"type": "t_mapping(t_address,t_uint256)"
					},
					{
						"astId": 1606,
						"contract": "BentoboxDappFlattened.sol:bentoboxDapp",
						"label": "BentoMasterContract",
						"offset": 0,
						"slot": "2",
						"type": "t_contract(IBentoBoxV1)1189"
					},
					{
						"astId": 1611,
						"contract": "BentoboxDappFlattened.sol:bentoboxDapp",
						"label": "sushiSwapRouter",
						"offset": 0,
						"slot": "3",
						"type": "t_contract(IUniswapV2Router02)1582"
					}
				],
				"types": {
					"t_address": {
						"encoding": "inplace",
						"label": "address",
						"numberOfBytes": "20"
					},
					"t_contract(IBentoBoxV1)1189": {
						"encoding": "inplace",
						"label": "contract IBentoBoxV1",
						"numberOfBytes": "20"
					},
					"t_contract(IUniswapV2Router02)1582": {
						"encoding": "inplace",
						"label": "contract IUniswapV2Router02",
						"numberOfBytes": "20"
					},
					"t_mapping(t_address,t_uint256)": {
						"encoding": "mapping",
						"key": "t_address",
						"label": "mapping(address => uint256)",
						"numberOfBytes": "32",
						"value": "t_uint256"
					},
					"t_uint256": {
						"encoding": "inplace",
						"label": "uint256",
						"numberOfBytes": "32"
					}
				}
			},
			"userdoc": {
				"kind": "user",
				"methods": {},
				"version": 1
			}
		}
	}
}