{"contracts/autoBalancer.sol":{"autoBalancer":{"abi":[{"inputs":[],"stateMutability":"nonpayable","type":"constructor"},{"anonymous":false,"inputs":[{"indexed":true,"internalType":"address","name":"owner","type":"address"},{"indexed":true,"internalType":"address","name":"spender","type":"address"},{"indexed":false,"internalType":"uint256","name":"value","type":"uint256"}],"name":"Approval","type":"event"},{"anonymous":false,"inputs":[{"indexed":true,"internalType":"address","name":"from","type":"address"},{"indexed":true,"internalType":"address","name":"to","type":"address"},{"indexed":false,"internalType":"uint256","name":"value","type":"uint256"}],"name":"Transfer","type":"event"},{"inputs":[],"name":"BTC_USD_ORACLE","outputs":[{"internalType":"address","name":"","type":"address"}],"stateMutability":"view","type":"function"},{"inputs":[],"name":"ETH_USD_ORACLE","outputs":[{"internalType":"address","name":"","type":"address"}],"stateMutability":"view","type":"function"},{"inputs":[],"name":"MATIC_USD_ORACLE","outputs":[{"internalType":"address","name":"","type":"address"}],"stateMutability":"view","type":"function"},{"inputs":[],"name":"QUICKSWAP_ROUTER","outputs":[{"internalType":"address","name":"","type":"address"}],"stateMutability":"view","type":"function"},{"inputs":[{"internalType":"uint256","name":"","type":"uint256"}],"name":"SANDToUSDCPath","outputs":[{"internalType":"address","name":"","type":"address"}],"stateMutability":"view","type":"function"},{"inputs":[],"name":"SAND_ADDRESS","outputs":[{"internalType":"address","name":"","type":"address"}],"stateMutability":"view","type":"function"},{"inputs":[],"name":"SAND_USD_ORACLE","outputs":[{"internalType":"address","name":"","type":"address"}],"stateMutability":"view","type":"function"},{"inputs":[{"internalType":"uint256","name":"","type":"uint256"}],"name":"USDCToSANDPath","outputs":[{"internalType":"address","name":"","type":"address"}],"stateMutability":"view","type":"function"},{"inputs":[{"internalType":"uint256","name":"","type":"uint256"}],"name":"USDCToWBTCPath","outputs":[{"internalType":"address","name":"","type":"address"}],"stateMutability":"view","type":"function"},{"inputs":[{"internalType":"uint256","name":"","type":"uint256"}],"name":"USDCToWETHPath","outputs":[{"internalType":"address","name":"","type":"address"}],"stateMutability":"view","type":"function"},{"inputs":[{"internalType":"uint256","name":"","type":"uint256"}],"name":"USDCToWMATICPath","outputs":[{"internalType":"address","name":"","type":"address"}],"stateMutability":"view","type":"function"},{"inputs":[],"name":"USDC_ADDRESS","outputs":[{"internalType":"address","name":"","type":"address"}],"stateMutability":"view","type":"function"},{"inputs":[{"internalType":"uint256","name":"","type":"uint256"}],"name":"WBTCToUSDCPath","outputs":[{"internalType":"address","name":"","type":"address"}],"stateMutability":"view","type":"function"},{"inputs":[],"name":"WBTC_ADDRESS","outputs":[{"internalType":"address","name":"","type":"address"}],"stateMutability":"view","type":"function"},{"inputs":[{"internalType":"uint256","name":"","type":"uint256"}],"name":"WETHToUSDCPath","outputs":[{"internalType":"address","name":"","type":"address"}],"stateMutability":"view","type":"function"},{"inputs":[],"name":"WETH_ADDRESS","outputs":[{"internalType":"address","name":"","type":"address"}],"stateMutability":"view","type":"function"},{"inputs":[{"internalType":"uint256","name":"","type":"uint256"}],"name":"WMATICToUSDCPath","outputs":[{"internalType":"address","name":"","type":"address"}],"stateMutability":"view","type":"function"},{"inputs":[],"name":"WMATIC_ADDRESS","outputs":[{"internalType":"address","name":"","type":"address"}],"stateMutability":"view","type":"function"},{"inputs":[{"internalType":"address","name":"owner","type":"address"},{"internalType":"address","name":"spender","type":"address"}],"name":"allowance","outputs":[{"internalType":"uint256","name":"","type":"uint256"}],"stateMutability":"view","type":"function"},{"inputs":[{"internalType":"address","name":"spender","type":"address"},{"internalType":"uint256","name":"amount","type":"uint256"}],"name":"approve","outputs":[{"internalType":"bool","name":"","type":"bool"}],"stateMutability":"nonpayable","type":"function"},{"inputs":[{"internalType":"address","name":"_token","type":"address"},{"internalType":"address","name":"_spender","type":"address"}],"name":"approveSpendingWholeBalance","outputs":[],"stateMutability":"nonpayable","type":"function"},{"inputs":[{"internalType":"address","name":"token_address","type":"address"},{"internalType":"address","name":"spender_address","type":"address"},{"internalType":"uint256","name":"amount_to_approve","type":"uint256"}],"name":"approve_spending","outputs":[],"stateMutability":"nonpayable","type":"function"},{"inputs":[{"internalType":"address","name":"account","type":"address"}],"name":"balanceOf","outputs":[{"internalType":"uint256","name":"","type":"uint256"}],"stateMutability":"view","type":"function"},{"inputs":[{"internalType":"bytes","name":"","type":"bytes"}],"name":"checkUpkeep","outputs":[{"internalType":"bool","name":"upkeepNeeded","type":"bool"},{"internalType":"bytes","name":"performData","type":"bytes"}],"stateMutability":"view","type":"function"},{"inputs":[],"name":"decimals","outputs":[{"internalType":"uint8","name":"","type":"uint8"}],"stateMutability":"view","type":"function"},{"inputs":[{"internalType":"address","name":"spender","type":"address"},{"internalType":"uint256","name":"subtractedValue","type":"uint256"}],"name":"decreaseAllowance","outputs":[{"internalType":"bool","name":"","type":"bool"}],"stateMutability":"nonpayable","type":"function"},{"inputs":[{"internalType":"uint256","name":"amount_","type":"uint256"}],"name":"depositUserFunds","outputs":[],"stateMutability":"nonpayable","type":"function"},{"inputs":[{"internalType":"address","name":"_oracle_address","type":"address"}],"name":"getLatestPrice","outputs":[{"internalType":"int256","name":"","type":"int256"}],"stateMutability":"view","type":"function"},{"inputs":[],"name":"getUSDPortfolioTotal","outputs":[{"internalType":"uint256","name":"Total_in_USD","type":"uint256"}],"stateMutability":"view","type":"function"},{"inputs":[{"internalType":"address","name":"token_address","type":"address"},{"internalType":"address","name":"oracle_address","type":"address"},{"internalType":"uint256","name":"token_decimals","type":"uint256"}],"name":"getUSDTokenBalanceOf","outputs":[{"internalType":"uint256","name":"","type":"uint256"}],"stateMutability":"view","type":"function"},{"inputs":[{"internalType":"address","name":"spender","type":"address"},{"internalType":"uint256","name":"addedValue","type":"uint256"}],"name":"increaseAllowance","outputs":[{"internalType":"bool","name":"","type":"bool"}],"stateMutability":"nonpayable","type":"function"},{"inputs":[],"name":"interval","outputs":[{"internalType":"uint256","name":"","type":"uint256"}],"stateMutability":"view","type":"function"},{"inputs":[],"name":"lastTimeStamp","outputs":[{"internalType":"uint256","name":"","type":"uint256"}],"stateMutability":"view","type":"function"},{"inputs":[{"internalType":"address","name":"user","type":"address"},{"internalType":"uint256","name":"portfolio_value_usd","type":"uint256"},{"internalType":"uint256","name":"portfolio_increase_usd","type":"uint256"}],"name":"mintOnDeposit","outputs":[],"stateMutability":"nonpayable","type":"function"},{"inputs":[],"name":"name","outputs":[{"internalType":"string","name":"","type":"string"}],"stateMutability":"view","type":"function"},{"inputs":[{"internalType":"bytes","name":"performData","type":"bytes"}],"name":"performUpkeep","outputs":[],"stateMutability":"nonpayable","type":"function"},{"inputs":[],"name":"quickSwapRouter","outputs":[{"internalType":"contract IUniswapV2Router02","name":"","type":"address"}],"stateMutability":"view","type":"function"},{"inputs":[{"internalType":"uint256","name":"new_interval","type":"uint256"}],"name":"setInterval","outputs":[],"stateMutability":"nonpayable","type":"function"},{"inputs":[{"internalType":"uint256","name":"_amountIn","type":"uint256"},{"internalType":"uint256","name":"_amountOutMin","type":"uint256"},{"internalType":"address[]","name":"_path","type":"address[]"},{"internalType":"address","name":"_acct","type":"address"},{"internalType":"uint256","name":"_deadline","type":"uint256"}],"name":"swap","outputs":[],"stateMutability":"nonpayable","type":"function"},{"inputs":[{"internalType":"address","name":"_token","type":"address"},{"internalType":"uint256","name":"_amount","type":"uint256"}],"name":"swapBackToUSDC","outputs":[],"stateMutability":"nonpayable","type":"function"},{"inputs":[{"internalType":"uint256","name":"amount","type":"uint256"}],"name":"swapIntoFourEqualParts","outputs":[],"stateMutability":"nonpayable","type":"function"},{"inputs":[{"internalType":"uint256","name":"WMATIC_amount","type":"uint256"},{"internalType":"uint256","name":"SAND_amount","type":"uint256"},{"internalType":"uint256","name":"WETH_amount","type":"uint256"},{"internalType":"uint256","name":"WBTC_amount","type":"uint256"},{"internalType":"uint256","name":"totalUSDAmount","type":"uint256"},{"internalType":"uint256","name":"depositAmount","type":"uint256"}],"name":"swapProportionately","outputs":[],"stateMutability":"nonpayable","type":"function"},{"inputs":[],"name":"symbol","outputs":[{"internalType":"string","name":"","type":"string"}],"stateMutability":"view","type":"function"},{"inputs":[{"internalType":"address","name":"token_address","type":"address"},{"internalType":"address","name":"user_address","type":"address"}],"name":"tokenBalanceOf","outputs":[{"internalType":"uint256","name":"token_balance","type":"uint256"}],"stateMutability":"view","type":"function"},{"inputs":[],"name":"totalSupply","outputs":[{"internalType":"uint256","name":"","type":"uint256"}],"stateMutability":"view","type":"function"},{"inputs":[{"internalType":"address","name":"to","type":"address"},{"internalType":"uint256","name":"amount","type":"uint256"}],"name":"transfer","outputs":[{"internalType":"bool","name":"","type":"bool"}],"stateMutability":"nonpayable","type":"function"},{"inputs":[{"internalType":"address","name":"from","type":"address"},{"internalType":"address","name":"to","type":"address"},{"internalType":"uint256","name":"amount","type":"uint256"}],"name":"transferFrom","outputs":[{"internalType":"bool","name":"","type":"bool"}],"stateMutability":"nonpayable","type":"function"},{"inputs":[{"internalType":"uint256","name":"amount_","type":"uint256"},{"internalType":"address","name":"token_address","type":"address"},{"internalType":"address","name":"address_to","type":"address"}],"name":"withdraw","outputs":[],"stateMutability":"nonpayable","type":"function"},{"inputs":[{"internalType":"address","name":"user","type":"address"}],"name":"withdrawUserFunds","outputs":[],"stateMutability":"nonpayable","type":"function"},{"stateMutability":"payable","type":"receive"}],"evm":{"bytecode":{"linkReferences":{},"object":"60806040523462000274576200002962000018620002bf565b62000022620002e5565b90620009ee565b620002326200003762000290565b600080516020620051ba83398151915281526200007660209162000070838201730d500b1d8e8ef31e21c99d1db9a6444d3adf12709052565b6200031b565b620000b56200008462000290565b600080516020620051ba833981519152815273bbba073c31bf03b8acf7c28ef0738decf369568381840152620003bc565b620000f4620000c362000290565b600080516020620051ba8339815191528152737ceb23fd6bc0add59e62ac25578270cff1b9f619818401526200045d565b620001336200010262000290565b600080516020620051ba8339815191528152731bfd67037b42cf73acf2047067bd4f2c47d9bfd681840152620004fe565b620001726200014162000290565b730d500b1d8e8ef31e21c99d1db9a6444d3adf12708152600080516020620051ba833981519152818401526200059f565b620001b16200018062000290565b73bbba073c31bf03b8acf7c28ef0738decf36956838152600080516020620051ba8339815191528184015262000640565b620001f0620001bf62000290565b737ceb23fd6bc0add59e62ac25578270cff1b9f6198152600080516020620051ba83398151915281840152620006e1565b6200022c620001fe62000290565b731bfd67037b42cf73acf2047067bd4f2c47d9bfd68152918201600080516020620051ba8339815191529052565b62000782565b6200023e610e10600e55565b600f80546001600160a01b03191673a5e0829caced8ffdd4de3c43696c57f7d7a678ff1790556040516146b2908162000b088239f35b600080fd5b50634e487b7160e01b600052604160045260246000fd5b60408051919082016001600160401b03811183821017620002b057604052565b620002ba62000279565b604052565b620002c962000290565b90600c82526b30baba37a130b630b731b2b960a11b6020830152565b620002ef62000290565b90600382526241424160e81b6020830152565b8181106200030e575050565b6000815560010162000302565b60055490600291826005558083106200037e575b5060056000526020806000206000925b8484106200034e575050505050565b805182546001600160a01b0319166001600160a01b0391909116178255600193840193919091019082016200033f565b6005600052620003b5907f036b6384b5eca791c62761152d0c79bb0604c104a5fb6f4eb0703f3154bb3db090810190840162000302565b386200032f565b60065490600291826006558083106200041f575b5060066000526020806000206000925b848410620003ef575050505050565b805182546001600160a01b0319166001600160a01b039190911617825560019384019391909101908201620003e0565b600660005262000456907ff652222313e28459528d920b65115c16c04f3efc82aaedc97be59f3f377c0d3f90810190840162000302565b38620003d0565b6007549060029182600755808310620004c0575b5060076000526020806000206000925b84841062000490575050505050565b805182546001600160a01b0319166001600160a01b03919091161782556001938401939190910190820162000481565b6007600052620004f7907fa66cc928b5edb82af9bd49922954155ab7b0942694bea4ce44661d9a8736c68890810190840162000302565b3862000471565b600854906002918260085580831062000561575b5060086000526020806000206000925b84841062000531575050505050565b805182546001600160a01b0319166001600160a01b03919091161782556001938401939190910190820162000522565b600860005262000598907ff3f7a9fe364faab93b216da50a3214154f22a0a2b415b23a84c8169e8b636ee390810190840162000302565b3862000512565b600954906002918260095580831062000602575b5060096000526020806000206000925b848410620005d2575050505050565b805182546001600160a01b0319166001600160a01b039190911617825560019384019391909101908201620005c3565b600960005262000639907f6e1540171b6c0c960b71a7020d9f60077f6af931a8bbf590da0223dacf75c7af90810190840162000302565b38620005b3565b600a549060029182600a55808310620006a3575b50600a6000526020806000206000925b84841062000673575050505050565b805182546001600160a01b0319166001600160a01b03919091161782556001938401939190910190820162000664565b600a600052620006da907fc65a7bb8d6351c1cf70c95a316cc6a92839c986682d98bc35f958f4883f9d2a890810190840162000302565b3862000654565b600b549060029182600b5580831062000744575b50600b6000526020806000206000925b84841062000714575050505050565b805182546001600160a01b0319166001600160a01b03919091161782556001938401939190910190820162000705565b600b6000526200077b907f0175b7a638427703f0dbe7bb9bbf987a2551717b34e79f33b5b1008d1fa01db990810190840162000302565b38620006f5565b600c549060029182600c55808310620007e5575b50600c6000526020806000206000925b848410620007b5575050505050565b805182546001600160a01b0319166001600160a01b039190911617825560019384019391909101908201620007a6565b600c6000526200081c907fdf6966c971051c3d54ec59162606531493a51404a002842f56009d7e5cf4a8c790810190840162000302565b3862000796565b90600182811c9216801562000855575b60208310146200083f57565b634e487b7160e01b600052602260045260246000fd5b91607f169162000833565b90601f82116200086e575050565b6200089f9160036000526020600020906020601f840160051c83019310620008a1575b601f0160051c019062000302565b565b909150819062000891565b90601f8211620008ba575050565b6200089f9160046000526020600020906020601f840160051c83019310620008a157601f0160051c019062000302565b80519091906001600160401b038111620009de575b62000917816200091160045462000823565b620008ac565b602080601f83116001146200095657508192936000926200094a575b50508160011b916000199060031b1c191617600455565b01519050388062000933565b6004600052601f198316949091907f8a35acfbc15ff81a39ae7d344fd709f28e8600b4aa8c65c6b64bfe7fe36bd19b926000905b878210620009c5575050836001959610620009ab575b505050811b01600455565b015160001960f88460031b161c19169055388080620009a0565b806001859682949686015181550195019301906200098a565b620009e862000279565b620008ff565b80519091906001600160401b03811162000af7575b62000a1b8162000a1560035462000823565b62000860565b602080601f831160011462000a62575081906200089f9460009262000a56575b50508160011b916000199060031b1c191617600355620008ea565b01519050388062000a3b565b60036000529293919291601f1984167fc2575a0e9e593c00f959f8c92f12db2869c3395a3b0502d05e2516446f71f85b936000905b82821062000ade5750509160019391856200089f9796941062000ac4575b505050811b01600355620008ea565b015160001960f88460031b161c1916905538808062000ab5565b8060018697829497870151815501960194019062000a97565b62000b0162000279565b62000a0356fe6080604052600436101561001b575b361561001957600080fd5b005b60003560e01c806301f10d2a146103ef578063040141e5146103e657806306fdde03146103dd578063095ea7b3146103d4578063153f29c7146103cb57806316345f18146103c257806318160ddd146103b95780631bea8006146103b057806322a90082146103a757806323aad7af1461039e57806323b872dd1461039557806324e2e7bb1461038c57806329a97ec2146103835780632d365d311461037a578063313ce5671461037157806339509351146103685780633f3b3b271461035f57806344345f23146103565780634585e33b1461034d57806351f5488714610344578063681bcf131461033b57806369bc4388146103325780636e04ff0d1461032957806370a0823114610320578063718176e514610317578063764f96f91461030e57806388e42b08146103055780638db9f39a146102fc57806390f11e84146102f3578063947a36fb146102ea57806395d89b41146102e1578063a15c7d10146102d8578063a457c2d7146102cf578063a48ce279146102c6578063a9059cbb146102bd578063aa5a7aa3146102b4578063b460af94146102ab578063b6e20a6a146102a2578063bb09d9b714610299578063bdd5915f14610290578063c5764eec14610287578063ca9709051461027e578063cb3601b114610275578063cd3f5b531461026c578063cf41281014610263578063d09191161461025a578063dd62ed3e14610251578063e189eb42146102485763e95d83280361000e57610243612835565b61000e565b506102436127e2565b5061024361274c565b506102436126fe565b5061024361264e565b50610243612600565b5061024361257a565b506102436124f4565b506102436123a5565b50610243612357565b50610243612309565b506102436122bb565b506102436121c1565b506102436120ef565b506102436120aa565b50610243612024565b50610243611f18565b50610243611e92565b50610243611db0565b50610243611d73565b50610243611c5e565b50610243611af0565b50610243611ab5565b50610243611a6b565b50610243611a1d565b506102436119b7565b5061024361125a565b506102436111bb565b50610243611135565b506102436110ab565b50610243610e89565b50610243610d9b565b50610243610d5e565b50610243610cd9565b50610243610c9e565b50610243610c50565b50610243610c38565b50610243610a7a565b50610243610963565b5061024361087d565b50610243610815565b506102436107ca565b5061024361078d565b5061024361074b565b50610243610709565b506102436106b9565b5061024361055c565b5061024361048b565b50610243610443565b6004359073ffffffffffffffffffffffffffffffffffffffff8216820361041b57565b600080fd5b6024359073ffffffffffffffffffffffffffffffffffffffff8216820361041b57565b503461041b5760607ffffffffffffffffffffffffffffffffffffffffffffffffffffffffffffffffc36011261041b5761001961047e6103f8565b6044359060243590613e7a565b503461041b5760007ffffffffffffffffffffffffffffffffffffffffffffffffffffffffffffffffc36011261041b576020604051737ceb23fd6bc0add59e62ac25578270cff1b9f6198152f35b91908251928382526000905b8482106105305750601f84602094957fffffffffffffffffffffffffffffffffffffffffffffffffffffffffffffffe09311610523575b0116010190565b600085828601015261051c565b906020908180828501015190828601015201906104e5565b9060206105599281815201906104d9565b90565b503461041b576000807ffffffffffffffffffffffffffffffffffffffffffffffffffffffffffffffffc3601126106b65760405190806003549060019180831c928082169283156106ac575b602092838610851461067f57858852602088019490811561064557506001146105ec575b6105e8876105dc81890382611b6e565b60405191829182610548565b0390f35b600360005294509192917fc2575a0e9e593c00f959f8c92f12db2869c3395a3b0502d05e2516446f71f85b5b83861061063457505050910190506105dc826105e838806105cc565b805485870152948201948101610618565b7fffffffffffffffffffffffffffffffffffffffffffffffffffffffffffffff001685525050500191506105dc9050826105e838806105cc565b6024827f4e487b710000000000000000000000000000000000000000000000000000000081526022600452fd5b93607f16936105a8565b80fd5b503461041b5760407ffffffffffffffffffffffffffffffffffffffffffffffffffffffffffffffffc36011261041b576106fe6106f46103f8565b6024359033612b6a565b602060405160018152f35b503461041b5760007ffffffffffffffffffffffffffffffffffffffffffffffffffffffffffffffffc36011261041b576020610743613b83565b604051908152f35b503461041b5760207ffffffffffffffffffffffffffffffffffffffffffffffffffffffffffffffffc36011261041b5760206107436107886103f8565b612d48565b503461041b5760007ffffffffffffffffffffffffffffffffffffffffffffffffffffffffffffffffc36011261041b576020600254604051908152f35b503461041b5760407ffffffffffffffffffffffffffffffffffffffffffffffffffffffffffffffffc36011261041b5760206107436108076103f8565b61080f610420565b906144ee565b503461041b5760207ffffffffffffffffffffffffffffffffffffffffffffffffffffffffffffffffc36011261041b57600435600e55005b507f4e487b7100000000000000000000000000000000000000000000000000000000600052603260045260246000fd5b503461041b5760207ffffffffffffffffffffffffffffffffffffffffffffffffffffffffffffffffc36011261041b5760043560065481101561041b5773ffffffffffffffffffffffffffffffffffffffff60209160066000527ff652222313e28459528d920b65115c16c04f3efc82aaedc97be59f3f377c0d3f015416604051908152f35b7ffffffffffffffffffffffffffffffffffffffffffffffffffffffffffffffffc606091011261041b5773ffffffffffffffffffffffffffffffffffffffff90600435828116810361041b5791602435908116810361041b579060443590565b503461041b5761097236610903565b9073ffffffffffffffffffffffffffffffffffffffff831660005260016020526109c03360406000209073ffffffffffffffffffffffffffffffffffffffff16600052602052604060002090565b54927fffffffffffffffffffffffffffffffffffffffffffffffffffffffffffffffff8403610a00575b6109f493506129e1565b60405160018152602090f35b828410610a1c57610a17836109f495033383612b6a565b6109ea565b60646040517f08c379a000000000000000000000000000000000000000000000000000000000815260206004820152601d60248201527f45524332303a20696e73756666696369656e7420616c6c6f77616e63650000006044820152fd5b503461041b5760207ffffffffffffffffffffffffffffffffffffffffffffffffffffffffffffffffc36011261041b57610019610ab56103f8565b73ffffffffffffffffffffffffffffffffffffffff81166000526000602052610bf5610aef604060002054610ae930614293565b90612ff2565b610bf0610aff600254809361307b565b91610beb610b4382610b3e610b348973ffffffffffffffffffffffffffffffffffffffff166000526000602052604060002090565b54610ae93061432a565b61307b565b610be6610bbc610b8485610b3e610b7a8c73ffffffffffffffffffffffffffffffffffffffff166000526000602052604060002090565b54610ae93061439b565b94610b3e610bb28b73ffffffffffffffffffffffffffffffffffffffff166000526000602052604060002090565b54610ae93061440c565b95610bc6816134c5565b610bcf8361355f565b610bd8856135d1565b610be187613643565b6140ed565b614161565b6141c7565b61422d565b610c0781610c023061447d565b614078565b610c318173ffffffffffffffffffffffffffffffffffffffff166000526000602052604060002090565b5490613ea6565b503461041b57610019610c4a36610903565b9161379e565b503461041b5760007ffffffffffffffffffffffffffffffffffffffffffffffffffffffffffffffffc36011261041b57602060405173bbba073c31bf03b8acf7c28ef0738decf36956838152f35b503461041b5760007ffffffffffffffffffffffffffffffffffffffffffffffffffffffffffffffffc36011261041b57602060405160128152f35b503461041b5760407ffffffffffffffffffffffffffffffffffffffffffffffffffffffffffffffffc36011261041b576106fe610d146103f8565b336000526001602052610d57602435610d518360406000209073ffffffffffffffffffffffffffffffffffffffff16600052602052604060002090565b546128b3565b9033612b6a565b503461041b5760007ffffffffffffffffffffffffffffffffffffffffffffffffffffffffffffffffc36011261041b576020600d54604051908152f35b503461041b5760207ffffffffffffffffffffffffffffffffffffffffffffffffffffffffffffffffc36011261041b57600435600b5481101561041b5773ffffffffffffffffffffffffffffffffffffffff602091600b6000527f0175b7a638427703f0dbe7bb9bbf987a2551717b34e79f33b5b1008d1fa01db9015416604051908152f35b9060207ffffffffffffffffffffffffffffffffffffffffffffffffffffffffffffffffc83011261041b5760043567ffffffffffffffff9283821161041b578060238301121561041b57816004013593841161041b576024848301011161041b576024019190565b503461041b57610e9836610e21565b90610ea5600d5442612e42565b600e5410610eaf57005b610eb842600d55565b610ed5610ec361314c565b91610ecc613187565b938101906133df565b9160005b83519060ff8116918210156100195761100b91610f38610f27610f0d610f07610f018661330f565b60ff1690565b88612f58565b5173ffffffffffffffffffffffffffffffffffffffff1690565b610f318389612f58565b51906136b5565b730d500b1d8e8ef31e21c99d1db9a6444d3adf127080610f82610f69610f0d610f63610f018861330f565b8a612f58565b73ffffffffffffffffffffffffffffffffffffffff1690565b14908115611084575b501561101057610ffd61100691610fd1610fad610f0d610f63610f018861330f565b610fb688612f0f565b9073ffffffffffffffffffffffffffffffffffffffff169052565b610ff7610fee610f0d610f63610f01610fe98961330f565b613336565b610fb688612f25565b87612f58565b518430916145c9565b612f7a565b610ed9565b61107b6110069161103561102c610f0d610f63610f018861330f565b610fb68b612f0f565b61105a6110418a612f25565b730d500b1d8e8ef31e21c99d1db9a6444d3adf12709052565b610ff7611072610f0d610f63610f01610fe98961330f565b610fb68b612f36565b518730916145c9565b90506110a4610f69610f0d61109e610f01610fe98861330f565b89612f58565b1438610f8b565b503461041b576020610ae961110b60026110dc6110d66110ca36610903565b969192909230906144ee565b91612d48565b927ffffffffffffffffffffffffffffffffffffffffffffffffffffffffffffffffd8111611128575b0161302f565b801561111b575b60405191048152f35b61112361304b565b611112565b611130612883565b611105565b503461041b5760207ffffffffffffffffffffffffffffffffffffffffffffffffffffffffffffffffc36011261041b5760043560095481101561041b5773ffffffffffffffffffffffffffffffffffffffff60209160096000527f6e1540171b6c0c960b71a7020d9f60077f6af931a8bbf590da0223dacf75c7af015416604051908152f35b503461041b5760207ffffffffffffffffffffffffffffffffffffffffffffffffffffffffffffffffc36011261041b5760043560055481101561041b5773ffffffffffffffffffffffffffffffffffffffff60209160056000527f036b6384b5eca791c62761152d0c79bb0604c104a5fb6f4eb0703f3154bb3db0015416604051908152f35b60409061055993921515815281602082015201906104d9565b503461041b5761126936610e21565b5050611277600d5442612e42565b600e5410611283612eb8565b61128b612e59565b906020926112ae848401730d500b1d8e8ef31e21c99d1db9a6444d3adf12709052565b6040926112d084820173ab594600376ec9fd91f8e885dadf0ce036862de09052565b6112d8612e59565b73bbba073c31bf03b8acf7c28ef0738decf369568381870152733d49406edd4d52fb7ffd25485f32e073b529c92481860152611312612e59565b731bfd67037b42cf73acf2047067bd4f2c47d9bfd6878201529073c907e116054ad103354f2d350fd2514433d57f6f8287015261134d612e59565b737ceb23fd6bc0add59e62ac25578270cff1b9f619888201529273f9680d99d6c9589e2a93a78a04a279e5092059458488015261138986612f0f565b5261139385612f0f565b5061139d85612f25565b526113a784612f25565b506113b184612f36565b526113bb83612f36565b506113c583612f47565b526113cf82612f47565b50600093845b835160ff87169081101561160257611588916115829161157961156161155761152660ff8b868b8f61142b610f69808461140f8789612f58565b51015173ffffffffffffffffffffffffffffffffffffffff1690565b906114b76107888261140f8151977f70a0823100000000000000000000000000000000000000000000000000000000895260049888818061148c8d3090830191909173ffffffffffffffffffffffffffffffffffffffff6020820193169052565b03818b5afa9081156115f5575b6000916115c8575b5060806114ae838d612f58565b51015289612f58565b60e06114c38d88612f58565b51015251928380927f313ce5670000000000000000000000000000000000000000000000000000000082525afa9081156115bb575b60009161158e575b506115118860609485931693612f58565b51015261151e868d612f58565b510151612df8565b610ae96115518c60e061154889608061153f8286612f58565b51015193612f58565b51015190612ff2565b9161302f565b6305f5e100900490565b9160a09283611570838c612f58565b51015288612f58565b510151906128b3565b95612f7a565b946113d5565b6115ae91508c8d3d106115b4575b6115a68183611b6e565b810190612f9b565b38611500565b503d61159c565b6115c3612d3b565b6114f8565b6115e89150893d8b116115ee575b6115e08183611b6e565b810190612f8c565b386114a1565b503d6115d6565b6115fd612d3b565b611499565b509190945060005b835160ff82169081101561165957908160c061164c61164560a0611631611654978b612f58565b51015161163f8a518a61307b565b90613091565b9288612f58565b510152612f7a565b61160a565b85838887600091829483946116766116718551612e14565b6130fd565b9261168c6116716116878751612e14565b612fb4565b86915b6116998751612e14565b9460ff94858516968710156119685760005b8951878216908110156117265760c08b8d8284816116c98286612f58565b5101511515938461170d575b505050506116ee575b50506116e990612f7a565b6116ab565b909d50819b506117026116e9929e8c612f58565b5101519a908e6116de565b61171992939450612f58565b510151138d82848f6116d5565b50969a7f7fffffffffffffffffffffffffffffffffffffffffffffffffffffffffffffff9a5094979396509194919060005b89518d858316918210156117d5575060c08b8d8284816117788286612f58565b510151151593846117bc575b5050505061179d575b505061179890612f7a565b611758565b909650819b506117b161179892978c612f58565b5101519a908e61178d565b6117c892939450612f58565b510151128d82848f611784565b6118f7925088978892506118f1819f611006969b8f8b9f999e9b9261140f916118dc948d61190f9e61140f9a169360c091826118118787612f58565b5101519a16809a61182e846118268489612f58565b510151613475565b121561191857826118486118d69461182660009489612f58565b6118528487612f58565b5261185d8386612f58565b516118768261186c8a8a612f58565b5101918251613091565b90526118828c87612f58565b5101526118d06118b361189e6118988487612f58565b5161322d565b60e06118aa8989612f58565b510151906132a0565b6118ca6118c5606061151e8a8a612f58565b61302f565b906132a0565b92612f58565b52612f58565b610fb66118eb610f018a61330f565b8b612f58565b8c612f58565b610fb6611909610f01610fe98661330f565b86612f58565b9193929361168f565b5060008261192d6118d6946118268989612f58565b6119378487612f58565b528b61195c8261195261194a878a612f58565b51938a612f58565b51019182516131c1565b90526118828787612f58565b91906119ad6105e8926119818a84519788938401613392565b037fffffffffffffffffffffffffffffffffffffffffffffffffffffffffffffffe08101865285611b6e565b5192839283611241565b503461041b5760207ffffffffffffffffffffffffffffffffffffffffffffffffffffffffffffffffc36011261041b5773ffffffffffffffffffffffffffffffffffffffff611a046103f8565b1660005260006020526020604060002054604051908152f35b503461041b5760007ffffffffffffffffffffffffffffffffffffffffffffffffffffffffffffffffc36011261041b57602060405173f9680d99d6c9589e2a93a78a04a279e5092059458152f35b503461041b5760c07ffffffffffffffffffffffffffffffffffffffffffffffffffffffffffffffffc36011261041b5761001960a435608435606435604435602435600435613dc1565b503461041b5760207ffffffffffffffffffffffffffffffffffffffffffffffffffffffffffffffffc36011261041b57610019600435613e49565b503461041b5760007ffffffffffffffffffffffffffffffffffffffffffffffffffffffffffffffffc36011261041b57602060405173ab594600376ec9fd91f8e885dadf0ce036862de08152f35b507f4e487b7100000000000000000000000000000000000000000000000000000000600052604160045260246000fd5b90601f7fffffffffffffffffffffffffffffffffffffffffffffffffffffffffffffffe0910116810190811067ffffffffffffffff821117611baf57604052565b611bb7611b3e565b604052565b60209067ffffffffffffffff8111611bd6575b60051b0190565b611bde611b3e565b611bcf565b81601f8201121561041b57803591611bfa83611bbc565b92611c086040519485611b6e565b808452602092838086019260051b82010192831161041b578301905b828210611c32575050505090565b813573ffffffffffffffffffffffffffffffffffffffff8116810361041b578152908301908301611c24565b503461041b5760a07ffffffffffffffffffffffffffffffffffffffffffffffffffffffffffffffffc36011261041b5760443567ffffffffffffffff811161041b57611cae903690600401611be3565b6064359073ffffffffffffffffffffffffffffffffffffffff80831680930361041b57600091611d2b91600f541690836040518096819582947f38ed17390000000000000000000000000000000000000000000000000000000084526004356004850152602435602485015260a0604485015260a4840190613348565b906064830152608435608483015203925af18015611d66575b611d4a57005b610019903d806000833e611d5e8183611b6e565b81019061454f565b611d6e612d3b565b611d44565b503461041b5760007ffffffffffffffffffffffffffffffffffffffffffffffffffffffffffffffffc36011261041b576020600e54604051908152f35b503461041b576000807ffffffffffffffffffffffffffffffffffffffffffffffffffffffffffffffffc3601126106b65760405190806004549060019180831c92808216928315611e88575b602092838610851461067f5785885260208801949081156106455750600114611e2f576105e8876105dc81890382611b6e565b600460005294509192917f8a35acfbc15ff81a39ae7d344fd709f28e8600b4aa8c65c6b64bfe7fe36bd19b5b838610611e7757505050910190506105dc826105e838806105cc565b805485870152948201948101611e5b565b93607f1693611dfc565b503461041b5760207ffffffffffffffffffffffffffffffffffffffffffffffffffffffffffffffffc36011261041b5760043560085481101561041b5773ffffffffffffffffffffffffffffffffffffffff60209160086000527ff3f7a9fe364faab93b216da50a3214154f22a0a2b415b23a84c8169e8b636ee3015416604051908152f35b503461041b5760407ffffffffffffffffffffffffffffffffffffffffffffffffffffffffffffffffc36011261041b57611f506103f8565b60243590336000526001602052611f8b8160406000209073ffffffffffffffffffffffffffffffffffffffff16600052602052604060002090565b5491808310611fa0576109f492039033612b6a565b60846040517f08c379a000000000000000000000000000000000000000000000000000000000815260206004820152602560248201527f45524332303a2064656372656173656420616c6c6f77616e63652062656c6f7760448201527f207a65726f0000000000000000000000000000000000000000000000000000006064820152fd5b503461041b5760207ffffffffffffffffffffffffffffffffffffffffffffffffffffffffffffffffc36011261041b57600435600a5481101561041b5773ffffffffffffffffffffffffffffffffffffffff602091600a6000527fc65a7bb8d6351c1cf70c95a316cc6a92839c986682d98bc35f958f4883f9d2a8015416604051908152f35b503461041b5760407ffffffffffffffffffffffffffffffffffffffffffffffffffffffffffffffffc36011261041b576106fe6120e56103f8565b60243590336129e1565b503461041b5760407ffffffffffffffffffffffffffffffffffffffffffffffffffffffffffffffffc36011261041b5761001961212a6103f8565b612132610420565b604051917f70a0823100000000000000000000000000000000000000000000000000000000835230600484015260208360248173ffffffffffffffffffffffffffffffffffffffff85165afa9283156121b4575b600093612194575b5061379e565b6121ad91935060203d81116115ee576115e08183611b6e565b913861218e565b6121bc612d3b565b612186565b503461041b5760607ffffffffffffffffffffffffffffffffffffffffffffffffffffffffffffffffc36011261041b576121f9610420565b73ffffffffffffffffffffffffffffffffffffffff90604435828116810361041b576040517fa9059cbb00000000000000000000000000000000000000000000000000000000815273ffffffffffffffffffffffffffffffffffffffff919091166004808301919091523560248201529160209183916044918391600091165af180156122ae575b61228757005b6100199060203d81116122a7575b61229f8183611b6e565b8101906134ad565b503d612295565b6122b6612d3b565b612281565b503461041b5760007ffffffffffffffffffffffffffffffffffffffffffffffffffffffffffffffffc36011261041b57602060405173c907e116054ad103354f2d350fd2514433d57f6f8152f35b503461041b5760007ffffffffffffffffffffffffffffffffffffffffffffffffffffffffffffffffc36011261041b576020604051732791bca1f2de4661ed88a30c99a7a9449aa841748152f35b503461041b5760007ffffffffffffffffffffffffffffffffffffffffffffffffffffffffffffffffc36011261041b576020604051731bfd67037b42cf73acf2047067bd4f2c47d9bfd68152f35b503461041b5760207ffffffffffffffffffffffffffffffffffffffffffffffffffffffffffffffffc36011261041b576040517f23b872dd000000000000000000000000000000000000000000000000000000008152336004808301919091523060248301523560448201819052906020816064816000732791bca1f2de4661ed88a30c99a7a9449aa841745af180156124e7575b6124c9575b506124486138f7565b6124506139d2565b612458613a41565b612460613ab0565b91612478836124738461247385896128b3565b6128b3565b936124828661372c565b84156124b157926100199592859261249995613dc1565b6124aa816124a5613b83565b612e42565b9033613e7a565b5050505050806124c361001992613e49565b33613806565b6124e09060203d81116122a75761229f8183611b6e565b503861243f565b6124ef612d3b565b61243a565b503461041b5760207ffffffffffffffffffffffffffffffffffffffffffffffffffffffffffffffffc36011261041b57600435600c5481101561041b5773ffffffffffffffffffffffffffffffffffffffff602091600c6000527fdf6966c971051c3d54ec59162606531493a51404a002842f56009d7e5cf4a8c7015416604051908152f35b503461041b5760207ffffffffffffffffffffffffffffffffffffffffffffffffffffffffffffffffc36011261041b5760043560075481101561041b5773ffffffffffffffffffffffffffffffffffffffff60209160076000527fa66cc928b5edb82af9bd49922954155ab7b0942694bea4ce44661d9a8736c688015416604051908152f35b503461041b5760007ffffffffffffffffffffffffffffffffffffffffffffffffffffffffffffffffc36011261041b576020604051733d49406edd4d52fb7ffd25485f32e073b529c9248152f35b503461041b5760407ffffffffffffffffffffffffffffffffffffffffffffffffffffffffffffffffc36011261041b576100196126896103f8565b73ffffffffffffffffffffffffffffffffffffffff6126a661314c565b918251156126f1575b1660208201528051600110156126e4575b732791bca1f2de4661ed88a30c99a7a9449aa84174604082015230906024356145c9565b6126ec61084d565b6126c0565b6126f961084d565b6126af565b503461041b5760007ffffffffffffffffffffffffffffffffffffffffffffffffffffffffffffffffc36011261041b57602060405173a5e0829caced8ffdd4de3c43696c57f7d7a678ff8152f35b503461041b5760407ffffffffffffffffffffffffffffffffffffffffffffffffffffffffffffffffc36011261041b5760206127d96127896103f8565b73ffffffffffffffffffffffffffffffffffffffff6127a6610420565b91166000526001835260406000209073ffffffffffffffffffffffffffffffffffffffff16600052602052604060002090565b54604051908152f35b503461041b5760007ffffffffffffffffffffffffffffffffffffffffffffffffffffffffffffffffc36011261041b57602073ffffffffffffffffffffffffffffffffffffffff600f5416604051908152f35b503461041b5760007ffffffffffffffffffffffffffffffffffffffffffffffffffffffffffffffffc36011261041b576020604051730d500b1d8e8ef31e21c99d1db9a6444d3adf12708152f35b507f4e487b7100000000000000000000000000000000000000000000000000000000600052601160045260246000fd5b811981116128bf570190565b6128c7612883565b0190565b156128d257565b60846040517f08c379a000000000000000000000000000000000000000000000000000000000815260206004820152602360248201527f45524332303a207472616e7366657220746f20746865207a65726f206164647260448201527f65737300000000000000000000000000000000000000000000000000000000006064820152fd5b1561295d57565b60846040517f08c379a000000000000000000000000000000000000000000000000000000000815260206004820152602660248201527f45524332303a207472616e7366657220616d6f756e742065786365656473206260448201527f616c616e636500000000000000000000000000000000000000000000000000006064820152fd5b919073ffffffffffffffffffffffffffffffffffffffff90818416928315612ae657612ac4827fddf252ad1be2c89b69c2b068fc378daa952ba7f163c4a11628f55a4df523b3ef94612ae1941696612a3a8815156128cb565b612a9d84612a688373ffffffffffffffffffffffffffffffffffffffff166000526000602052604060002090565b54612a7582821015612956565b039173ffffffffffffffffffffffffffffffffffffffff166000526000602052604060002090565b5573ffffffffffffffffffffffffffffffffffffffff166000526000602052604060002090565b612acf8282546128b3565b90556040519081529081906020820190565b0390a3565b60846040517f08c379a000000000000000000000000000000000000000000000000000000000815260206004820152602560248201527f45524332303a207472616e736665722066726f6d20746865207a65726f20616460448201527f64726573730000000000000000000000000000000000000000000000000000006064820152fd5b9073ffffffffffffffffffffffffffffffffffffffff91828116928315612ca1578216938415612c1d5780612c0c7f8c5be1e5ebec7d5bd14f71427d1e84f3dd0314c0f7b2291e5b200ac8c7c3b92594612be7612ae19573ffffffffffffffffffffffffffffffffffffffff166000526001602052604060002090565b9073ffffffffffffffffffffffffffffffffffffffff16600052602052604060002090565b556040519081529081906020820190565b60846040517f08c379a000000000000000000000000000000000000000000000000000000000815260206004820152602260248201527f45524332303a20617070726f766520746f20746865207a65726f20616464726560448201527f73730000000000000000000000000000000000000000000000000000000000006064820152fd5b60846040517f08c379a0000000000000000000000000000000000000000000000000000000008152602060048201526024808201527f45524332303a20617070726f76652066726f6d20746865207a65726f2061646460448201527f72657373000000000000000000000000000000000000000000000000000000006064820152fd5b519069ffffffffffffffffffff8216820361041b57565b506040513d6000823e3d90fd5b60a073ffffffffffffffffffffffffffffffffffffffff916004604051809481937ffeaf968c000000000000000000000000000000000000000000000000000000008352165afa908115612deb575b600091612da2575090565b9060a0823d8211612de3575b81612dbb60a09383611b6e565b810103126106b65750612dcd81612d24565b50612ddf608060208301519201612d24565b5090565b3d9150612dae565b612df3612d3b565b612d97565b80601210612e07575b60120390565b612e0f612883565b612e01565b7fffffffffffffffffffffffffffffffffffffffffffffffffffffffffffffffff90600181106128bf570190565b818110612e4d570390565b612e55612883565b0390565b60405190610100820182811067ffffffffffffffff821117612eab575b604052816060815260e06000918260208201528260408201528260608201528260808201528260a08201528260c08201520152565b612eb3611b3e565b612e76565b6040519060a0820182811067ffffffffffffffff821117612f02575b604052600482528160005b60808110612eeb575050565b602090612ef6612e59565b82828501015201612edf565b612f0a611b3e565b612ed4565b602090805115612f1d570190565b6128c761084d565b604090805160011015612f1d570190565b606090805160021015612f1d570190565b608090805160031015612f1d570190565b6020918151811015612f6d575b60051b010190565b612f7561084d565b612f65565b60ff6001911660ff81146128bf570190565b9081602091031261041b575190565b9081602091031261041b575160ff8116810361041b5790565b7f7fffffffffffffffffffffffffffffffffffffffffffffffffffffffffffffff8111600116612fe5575b60011b90565b612fed612883565b612fdf565b807fffffffffffffffffffffffffffffffffffffffffffffffffffffffffffffffff04821181151516613023570290565b61302b612883565b0290565b604d811161303e575b600a0a90565b613046612883565b613038565b507f4e487b7100000000000000000000000000000000000000000000000000000000600052601260045260246000fd5b8115613085570490565b61308d61304b565b0490565b60008212827f80000000000000000000000000000000000000000000000000000000000000000182128115166130f0575b827f7fffffffffffffffffffffffffffffffffffffffffffffffffffffffffffffff01821316612e4d570390565b6130f8612883565b6130c2565b9061310782611bbc565b6131146040519182611b6e565b8281527fffffffffffffffffffffffffffffffffffffffffffffffffffffffffffffffe06131428294611bbc565b0190602036910137565b604051906060820182811067ffffffffffffffff82111761317a575b60405260028252604082602036910137565b613182611b3e565b613168565b604051906080820182811067ffffffffffffffff8211176131b4575b604052600382526060366020840137565b6131bc611b3e565b6131a3565b60008112817f7fffffffffffffffffffffffffffffffffffffffffffffffffffffffffffffff038313811516613220575b817f8000000000000000000000000000000000000000000000000000000000000000038312166128bf570190565b613228612883565b6131f2565b6305f5e1009060017c15798ee2308c39df9fb841a566d74f87a7a9a7aeb02c2d2f8e0d1e768d8211600083131616613293575b60017fffffffea86711dcf73c6206047be5a9928b078585658514fd3d2d071f2e189738212600083121616613023570290565b61329b612883565b613260565b8115613302575b7fffffffffffffffffffffffffffffffffffffffffffffffffffffffffffffffff82147f80000000000000000000000000000000000000000000000000000000000000008214166132f6570590565b6132fe612883565b0590565b61330a61304b565b6132a7565b6101fe90607f60ff821611600116613329575b60011b1690565b613331612883565b613322565b60ff6001911660fe81116128bf570190565b90815180825260208080930193019160005b828110613368575050505090565b835173ffffffffffffffffffffffffffffffffffffffff168552938101939281019260010161335a565b906133a590604083526040830190613348565b81810360209283015282518082529082019282019160005b8281106133cb575050505090565b8351855293810193928101926001016133bd565b919060408382031261041b5767ffffffffffffffff92803584811161041b578261340a918301611be3565b936020918281013591821161041b57019180601f8401121561041b57823561343181611bbc565b9361343f6040519586611b6e565b818552838086019260051b82010192831161041b578301905b828210613466575050505090565b81358152908301908301613458565b6000808212613482575090565b7f80000000000000000000000000000000000000000000000000000000000000008214612e4d570390565b9081602091031261041b5751801515810361041b5790565b604051907f095ea7b300000000000000000000000000000000000000000000000000000000825273a5e0829caced8ffdd4de3c43696c57f7d7a678ff600483015260248201526020816044816000730d500b1d8e8ef31e21c99d1db9a6444d3adf12705af18015613552575b6135385750565b61354f9060203d81116122a75761229f8183611b6e565b50565b61355a612d3b565b613531565b604051907f095ea7b300000000000000000000000000000000000000000000000000000000825273a5e0829caced8ffdd4de3c43696c57f7d7a678ff60048301526024820152602081604481600073bbba073c31bf03b8acf7c28ef0738decf36956835af18015613552576135385750565b604051907f095ea7b300000000000000000000000000000000000000000000000000000000825273a5e0829caced8ffdd4de3c43696c57f7d7a678ff600483015260248201526020816044816000737ceb23fd6bc0add59e62ac25578270cff1b9f6195af18015613552576135385750565b604051907f095ea7b300000000000000000000000000000000000000000000000000000000825273a5e0829caced8ffdd4de3c43696c57f7d7a678ff600483015260248201526020816044816000731bfd67037b42cf73acf2047067bd4f2c47d9bfd65af18015613552576135385750565b602090604473ffffffffffffffffffffffffffffffffffffffff93600060405195869485937f095ea7b300000000000000000000000000000000000000000000000000000000855273a5e0829caced8ffdd4de3c43696c57f7d7a678ff60048601526024850152165af18015613552576135385750565b604051907f095ea7b300000000000000000000000000000000000000000000000000000000825273a5e0829caced8ffdd4de3c43696c57f7d7a678ff600483015260248201526020816044816000732791bca1f2de4661ed88a30c99a7a9449aa841745af18015613552576135385750565b6040517f095ea7b300000000000000000000000000000000000000000000000000000000815273ffffffffffffffffffffffffffffffffffffffff9283166004820152602481019390935260209183916044918391600091165af18015613552576135385750565b73ffffffffffffffffffffffffffffffffffffffff81169182156138995760208161388360009461385a7fddf252ad1be2c89b69c2b068fc378daa952ba7f163c4a11628f55a4df523b3ef956002546128b3565b60025573ffffffffffffffffffffffffffffffffffffffff166000526000602052604060002090565b61388e8282546128b3565b9055604051908152a3565b60646040517f08c379a000000000000000000000000000000000000000000000000000000000815260206004820152601f60248201527f45524332303a206d696e7420746f20746865207a65726f2061646472657373006044820152fd5b61390030614293565b6040517ffeaf968c00000000000000000000000000000000000000000000000000000000815260a08160048173ab594600376ec9fd91f8e885dadf0ce036862de05afa9081156139c5575b600091613968575b5061308d9068056bc75e2d6310000092612ff2565b9060a0823d82116139bd575b8161398160a09383611b6e565b810103126106b6575068056bc75e2d6310000091816139a261308d93612d24565b506139b4608060208301519201612d24565b50915091613953565b3d9150613974565b6139cd612d3b565b61394b565b6139db3061432a565b6040517ffeaf968c00000000000000000000000000000000000000000000000000000000815260a081600481733d49406edd4d52fb7ffd25485f32e073b529c9245afa9081156139c557600091613968575061308d9068056bc75e2d6310000092612ff2565b613a4a3061439b565b6040517ffeaf968c00000000000000000000000000000000000000000000000000000000815260a08160048173f9680d99d6c9589e2a93a78a04a279e5092059455afa9081156139c557600091613968575061308d9068056bc75e2d6310000092612ff2565b613ab93061440c565b6040517ffeaf968c00000000000000000000000000000000000000000000000000000000815260a08160048173c907e116054ad103354f2d350fd2514433d57f6f5afa908115613b76575b600091613b1d575b5061308d906402540be40092612ff2565b9060a0823d8211613b6e575b81613b3660a09383611b6e565b810103126106b657506402540be4009181613b5361308d93612d24565b50613b65608060208301519201612d24565b50915091613b0c565b3d9150613b29565b613b7e612d3b565b613b04565b610559613b8e6138f7565b612473613b996139d2565b612473613ba4613a41565b91613bad613ab0565b946128b3565b60405190600554808352826020918282019060056000527f036b6384b5eca791c62761152d0c79bb0604c104a5fb6f4eb0703f3154bb3db0936000905b828210613c0857505050613c0692500383611b6e565b565b855473ffffffffffffffffffffffffffffffffffffffff1684526001958601958895509381019390910190613bf0565b60405190600654808352826020918282019060066000527ff652222313e28459528d920b65115c16c04f3efc82aaedc97be59f3f377c0d3f936000905b828210613c8b57505050613c0692500383611b6e565b855473ffffffffffffffffffffffffffffffffffffffff1684526001958601958895509381019390910190613c75565b60405190600754808352826020918282019060076000527fa66cc928b5edb82af9bd49922954155ab7b0942694bea4ce44661d9a8736c688936000905b828210613d0e57505050613c0692500383611b6e565b855473ffffffffffffffffffffffffffffffffffffffff1684526001958601958895509381019390910190613cf8565b60405190600854808352826020918282019060086000527ff3f7a9fe364faab93b216da50a3214154f22a0a2b415b23a84c8169e8b636ee3936000905b828210613d9157505050613c0692500383611b6e565b855473ffffffffffffffffffffffffffffffffffffffff1684526001958601958895509381019390910190613d7b565b91613e188580613e058982613dfe82613e28999c613df7613c069f613deb613e329f9e8290612ff2565b9f8315613e3c57612ff2565b0498612ff2565b0497612ff2565b04963091613e11613bb3565b91046145c9565b3090613e22613c38565b906145c9565b3090613e22613cbb565b3090613e22613d3e565b613e4461304b565b612ff2565b613c069060021c613e6230613e5c613bb3565b836145c9565b613e6e30613e5c613c38565b613e3230613e5c613cbb565b90613e8b613c069360025490612ff2565b8115613e99575b0490613806565b613ea161304b565b613e92565b73ffffffffffffffffffffffffffffffffffffffff8116908115613ff457613eee8173ffffffffffffffffffffffffffffffffffffffff166000526000602052604060002090565b54838110613f7057837fddf252ad1be2c89b69c2b068fc378daa952ba7f163c4a11628f55a4df523b3ef92613f4b600096612ae194039173ffffffffffffffffffffffffffffffffffffffff166000526000602052604060002090565b55613f60613f5b82600254612e42565b600255565b6040519081529081906020820190565b60846040517f08c379a000000000000000000000000000000000000000000000000000000000815260206004820152602260248201527f45524332303a206275726e20616d6f756e7420657863656564732062616c616e60448201527f63650000000000000000000000000000000000000000000000000000000000006064820152fd5b60846040517f08c379a000000000000000000000000000000000000000000000000000000000815260206004820152602160248201527f45524332303a206275726e2066726f6d20746865207a65726f2061646472657360448201527f73000000000000000000000000000000000000000000000000000000000000006064820152fd5b6040517fa9059cbb00000000000000000000000000000000000000000000000000000000815273ffffffffffffffffffffffffffffffffffffffff92909216600483015260248201526020816044816000732791bca1f2de4661ed88a30c99a7a9449aa841745af18015613552576135385750565b613c06906140f961314c565b805115614154575b730d500b1d8e8ef31e21c99d1db9a6444d3adf12706020820152805160011015614147575b732791bca1f2de4661ed88a30c99a7a9449aa84174604082015230916145c9565b61414f61084d565b614126565b61415c61084d565b614101565b613c069061416d61314c565b8051156141ba575b73bbba073c31bf03b8acf7c28ef0738decf3695683602082015280516001101561414757732791bca1f2de4661ed88a30c99a7a9449aa84174604082015230916145c9565b6141c261084d565b614175565b613c06906141d361314c565b805115614220575b737ceb23fd6bc0add59e62ac25578270cff1b9f619602082015280516001101561414757732791bca1f2de4661ed88a30c99a7a9449aa84174604082015230916145c9565b61422861084d565b6141db565b613c069061423961314c565b805115614286575b731bfd67037b42cf73acf2047067bd4f2c47d9bfd6602082015280516001101561414757732791bca1f2de4661ed88a30c99a7a9449aa84174604082015230916145c9565b61428e61084d565b614241565b73ffffffffffffffffffffffffffffffffffffffff604051917f70a08231000000000000000000000000000000000000000000000000000000008352166004820152602081602481730d500b1d8e8ef31e21c99d1db9a6444d3adf12705afa90811561431d575b600091614305575090565b610559915060203d81116115ee576115e08183611b6e565b614325612d3b565b6142fa565b73ffffffffffffffffffffffffffffffffffffffff604051917f70a0823100000000000000000000000000000000000000000000000000000000835216600482015260208160248173bbba073c31bf03b8acf7c28ef0738decf36956835afa90811561431d57600091614305575090565b73ffffffffffffffffffffffffffffffffffffffff604051917f70a08231000000000000000000000000000000000000000000000000000000008352166004820152602081602481737ceb23fd6bc0add59e62ac25578270cff1b9f6195afa90811561431d57600091614305575090565b73ffffffffffffffffffffffffffffffffffffffff604051917f70a08231000000000000000000000000000000000000000000000000000000008352166004820152602081602481731bfd67037b42cf73acf2047067bd4f2c47d9bfd65afa90811561431d57600091614305575090565b73ffffffffffffffffffffffffffffffffffffffff604051917f70a08231000000000000000000000000000000000000000000000000000000008352166004820152602081602481732791bca1f2de4661ed88a30c99a7a9449aa841745afa90811561431d57600091614305575090565b6020906024604051809481937f70a0823100000000000000000000000000000000000000000000000000000000835273ffffffffffffffffffffffffffffffffffffffff8092166004840152165afa90811561431d57600091614305575090565b602090818184031261041b5780519067ffffffffffffffff821161041b57019180601f8401121561041b57825161458581611bbc565b936145936040519586611b6e565b818552838086019260051b82010192831161041b578301905b8282106145ba575050505090565b815181529083019083016145ac565b91614637906000928373ffffffffffffffffffffffffffffffffffffffff9586600f541693604051978896879586947f38ed1739000000000000000000000000000000000000000000000000000000008652600486015285602486015260a0604486015260a4850190613348565b9116606483015264174876e7ff608483015203925af1801561466f575b61465b5750565b61354f903d806000833e611d5e8183611b6e565b614677612d3b565b61465456fea2646970667358221220b98ea39a1d0cd9a3e88e76ade0558227c2e7d2285984de1dc8cf4322608dcc6664736f6c634300080d00330000000000000000000000002791bca1f2de4661ed88a30c99a7a9449aa84174","opcodes":"PUSH1 0x80 PUSH1 0x40 MSTORE CALLVALUE PUSH3 0x274 JUMPI PUSH3 0x29 PUSH3 0x18 PUSH3 0x2BF JUMP JUMPDEST PUSH3 0x22 PUSH3 0x2E5 JUMP JUMPDEST SWAP1 PUSH3 0x9EE JUMP JUMPDEST PUSH3 0x232 PUSH3 0x37 PUSH3 0x290 JUMP JUMPDEST PUSH1 0x0 DUP1 MLOAD PUSH1 0x20 PUSH3 0x51BA DUP4 CODECOPY DUP2 MLOAD SWAP2 MSTORE DUP2 MSTORE PUSH3 0x76 PUSH1 0x20 SWAP2 PUSH3 0x70 DUP4 DUP3 ADD PUSH20 0xD500B1D8E8EF31E21C99D1DB9A6444D3ADF1270 SWAP1 MSTORE JUMP JUMPDEST PUSH3 0x31B JUMP JUMPDEST PUSH3 0xB5 PUSH3 0x84 PUSH3 0x290 JUMP JUMPDEST PUSH1 0x0 DUP1 MLOAD PUSH1 0x20 PUSH3 0x51BA DUP4 CODECOPY DUP2 MLOAD SWAP2 MSTORE DUP2 MSTORE PUSH20 0xBBBA073C31BF03B8ACF7C28EF0738DECF3695683 DUP2 DUP5 ADD MSTORE PUSH3 0x3BC JUMP JUMPDEST PUSH3 0xF4 PUSH3 0xC3 PUSH3 0x290 JUMP JUMPDEST PUSH1 0x0 DUP1 MLOAD PUSH1 0x20 PUSH3 0x51BA DUP4 CODECOPY DUP2 MLOAD SWAP2 MSTORE DUP2 MSTORE PUSH20 0x7CEB23FD6BC0ADD59E62AC25578270CFF1B9F619 DUP2 DUP5 ADD MSTORE PUSH3 0x45D JUMP JUMPDEST PUSH3 0x133 PUSH3 0x102 PUSH3 0x290 JUMP JUMPDEST PUSH1 0x0 DUP1 MLOAD PUSH1 0x20 PUSH3 0x51BA DUP4 CODECOPY DUP2 MLOAD SWAP2 MSTORE DUP2 MSTORE PUSH20 0x1BFD67037B42CF73ACF2047067BD4F2C47D9BFD6 DUP2 DUP5 ADD MSTORE PUSH3 0x4FE JUMP JUMPDEST PUSH3 0x172 PUSH3 0x141 PUSH3 0x290 JUMP JUMPDEST PUSH20 0xD500B1D8E8EF31E21C99D1DB9A6444D3ADF1270 DUP2 MSTORE PUSH1 0x0 DUP1 MLOAD PUSH1 0x20 PUSH3 0x51BA DUP4 CODECOPY DUP2 MLOAD SWAP2 MSTORE DUP2 DUP5 ADD MSTORE PUSH3 0x59F JUMP JUMPDEST PUSH3 0x1B1 PUSH3 0x180 PUSH3 0x290 JUMP JUMPDEST PUSH20 0xBBBA073C31BF03B8ACF7C28EF0738DECF3695683 DUP2 MSTORE PUSH1 0x0 DUP1 MLOAD PUSH1 0x20 PUSH3 0x51BA DUP4 CODECOPY DUP2 MLOAD SWAP2 MSTORE DUP2 DUP5 ADD MSTORE PUSH3 0x640 JUMP JUMPDEST PUSH3 0x1F0 PUSH3 0x1BF PUSH3 0x290 JUMP JUMPDEST PUSH20 0x7CEB23FD6BC0ADD59E62AC25578270CFF1B9F619 DUP2 MSTORE PUSH1 0x0 DUP1 MLOAD PUSH1 0x20 PUSH3 0x51BA DUP4 CODECOPY DUP2 MLOAD SWAP2 MSTORE DUP2 DUP5 ADD MSTORE PUSH3 0x6E1 JUMP JUMPDEST PUSH3 0x22C PUSH3 0x1FE PUSH3 0x290 JUMP JUMPDEST PUSH20 0x1BFD67037B42CF73ACF2047067BD4F2C47D9BFD6 DUP2 MSTORE SWAP2 DUP3 ADD PUSH1 0x0 DUP1 MLOAD PUSH1 0x20 PUSH3 0x51BA DUP4 CODECOPY DUP2 MLOAD SWAP2 MSTORE SWAP1 MSTORE JUMP JUMPDEST PUSH3 0x782 JUMP JUMPDEST PUSH3 0x23E PUSH2 0xE10 PUSH1 0xE SSTORE JUMP JUMPDEST PUSH1 0xF DUP1 SLOAD PUSH1 0x1 PUSH1 0x1 PUSH1 0xA0 SHL SUB NOT AND PUSH20 0xA5E0829CACED8FFDD4DE3C43696C57F7D7A678FF OR SWAP1 SSTORE PUSH1 0x40 MLOAD PUSH2 0x46B2 SWAP1 DUP2 PUSH3 0xB08 DUP3 CODECOPY RETURN JUMPDEST PUSH1 0x0 DUP1 REVERT JUMPDEST POP PUSH4 0x4E487B71 PUSH1 0xE0 SHL PUSH1 0x0 MSTORE PUSH1 0x41 PUSH1 0x4 MSTORE PUSH1 0x24 PUSH1 0x0 REVERT JUMPDEST PUSH1 0x40 DUP1 MLOAD SWAP2 SWAP1 DUP3 ADD PUSH1 0x1 PUSH1 0x1 PUSH1 0x40 SHL SUB DUP2 GT DUP4 DUP3 LT OR PUSH3 0x2B0 JUMPI PUSH1 0x40 MSTORE JUMP JUMPDEST PUSH3 0x2BA PUSH3 0x279 JUMP JUMPDEST PUSH1 0x40 MSTORE JUMP JUMPDEST PUSH3 0x2C9 PUSH3 0x290 JUMP JUMPDEST SWAP1 PUSH1 0xC DUP3 MSTORE PUSH12 0x30BABA37A130B630B731B2B9 PUSH1 0xA1 SHL PUSH1 0x20 DUP4 ADD MSTORE JUMP JUMPDEST PUSH3 0x2EF PUSH3 0x290 JUMP JUMPDEST SWAP1 PUSH1 0x3 DUP3 MSTORE PUSH3 0x414241 PUSH1 0xE8 SHL PUSH1 0x20 DUP4 ADD MSTORE JUMP JUMPDEST DUP2 DUP2 LT PUSH3 0x30E JUMPI POP POP JUMP JUMPDEST PUSH1 0x0 DUP2 SSTORE PUSH1 0x1 ADD PUSH3 0x302 JUMP JUMPDEST PUSH1 0x5 SLOAD SWAP1 PUSH1 0x2 SWAP2 DUP3 PUSH1 0x5 SSTORE DUP1 DUP4 LT PUSH3 0x37E JUMPI JUMPDEST POP PUSH1 0x5 PUSH1 0x0 MSTORE PUSH1 0x20 DUP1 PUSH1 0x0 KECCAK256 PUSH1 0x0 SWAP3 JUMPDEST DUP5 DUP5 LT PUSH3 0x34E JUMPI POP POP POP POP POP JUMP JUMPDEST DUP1 MLOAD DUP3 SLOAD PUSH1 0x1 PUSH1 0x1 PUSH1 0xA0 SHL SUB NOT AND PUSH1 0x1 PUSH1 0x1 PUSH1 0xA0 SHL SUB SWAP2 SWAP1 SWAP2 AND OR DUP3 SSTORE PUSH1 0x1 SWAP4 DUP5 ADD SWAP4 SWAP2 SWAP1 SWAP2 ADD SWAP1 DUP3 ADD PUSH3 0x33F JUMP JUMPDEST PUSH1 0x5 PUSH1 0x0 MSTORE PUSH3 0x3B5 SWAP1 PUSH32 0x36B6384B5ECA791C62761152D0C79BB0604C104A5FB6F4EB0703F3154BB3DB0 SWAP1 DUP2 ADD SWAP1 DUP5 ADD PUSH3 0x302 JUMP JUMPDEST CODESIZE PUSH3 0x32F JUMP JUMPDEST PUSH1 0x6 SLOAD SWAP1 PUSH1 0x2 SWAP2 DUP3 PUSH1 0x6 SSTORE DUP1 DUP4 LT PUSH3 0x41F JUMPI JUMPDEST POP PUSH1 0x6 PUSH1 0x0 MSTORE PUSH1 0x20 DUP1 PUSH1 0x0 KECCAK256 PUSH1 0x0 SWAP3 JUMPDEST DUP5 DUP5 LT PUSH3 0x3EF JUMPI POP POP POP POP POP JUMP JUMPDEST DUP1 MLOAD DUP3 SLOAD PUSH1 0x1 PUSH1 0x1 PUSH1 0xA0 SHL SUB NOT AND PUSH1 0x1 PUSH1 0x1 PUSH1 0xA0 SHL SUB SWAP2 SWAP1 SWAP2 AND OR DUP3 SSTORE PUSH1 0x1 SWAP4 DUP5 ADD SWAP4 SWAP2 SWAP1 SWAP2 ADD SWAP1 DUP3 ADD PUSH3 0x3E0 JUMP JUMPDEST PUSH1 0x6 PUSH1 0x0 MSTORE PUSH3 0x456 SWAP1 PUSH32 0xF652222313E28459528D920B65115C16C04F3EFC82AAEDC97BE59F3F377C0D3F SWAP1 DUP2 ADD SWAP1 DUP5 ADD PUSH3 0x302 JUMP JUMPDEST CODESIZE PUSH3 0x3D0 JUMP JUMPDEST PUSH1 0x7 SLOAD SWAP1 PUSH1 0x2 SWAP2 DUP3 PUSH1 0x7 SSTORE DUP1 DUP4 LT PUSH3 0x4C0 JUMPI JUMPDEST POP PUSH1 0x7 PUSH1 0x0 MSTORE PUSH1 0x20 DUP1 PUSH1 0x0 KECCAK256 PUSH1 0x0 SWAP3 JUMPDEST DUP5 DUP5 LT PUSH3 0x490 JUMPI POP POP POP POP POP JUMP JUMPDEST DUP1 MLOAD DUP3 SLOAD PUSH1 0x1 PUSH1 0x1 PUSH1 0xA0 SHL SUB NOT AND PUSH1 0x1 PUSH1 0x1 PUSH1 0xA0 SHL SUB SWAP2 SWAP1 SWAP2 AND OR DUP3 SSTORE PUSH1 0x1 SWAP4 DUP5 ADD SWAP4 SWAP2 SWAP1 SWAP2 ADD SWAP1 DUP3 ADD PUSH3 0x481 JUMP JUMPDEST PUSH1 0x7 PUSH1 0x0 MSTORE PUSH3 0x4F7 SWAP1 PUSH32 0xA66CC928B5EDB82AF9BD49922954155AB7B0942694BEA4CE44661D9A8736C688 SWAP1 DUP2 ADD SWAP1 DUP5 ADD PUSH3 0x302 JUMP JUMPDEST CODESIZE PUSH3 0x471 JUMP JUMPDEST PUSH1 0x8 SLOAD SWAP1 PUSH1 0x2 SWAP2 DUP3 PUSH1 0x8 SSTORE DUP1 DUP4 LT PUSH3 0x561 JUMPI JUMPDEST POP PUSH1 0x8 PUSH1 0x0 MSTORE PUSH1 0x20 DUP1 PUSH1 0x0 KECCAK256 PUSH1 0x0 SWAP3 JUMPDEST DUP5 DUP5 LT PUSH3 0x531 JUMPI POP POP POP POP POP JUMP JUMPDEST DUP1 MLOAD DUP3 SLOAD PUSH1 0x1 PUSH1 0x1 PUSH1 0xA0 SHL SUB NOT AND PUSH1 0x1 PUSH1 0x1 PUSH1 0xA0 SHL SUB SWAP2 SWAP1 SWAP2 AND OR DUP3 SSTORE PUSH1 0x1 SWAP4 DUP5 ADD SWAP4 SWAP2 SWAP1 SWAP2 ADD SWAP1 DUP3 ADD PUSH3 0x522 JUMP JUMPDEST PUSH1 0x8 PUSH1 0x0 MSTORE PUSH3 0x598 SWAP1 PUSH32 0xF3F7A9FE364FAAB93B216DA50A3214154F22A0A2B415B23A84C8169E8B636EE3 SWAP1 DUP2 ADD SWAP1 DUP5 ADD PUSH3 0x302 JUMP JUMPDEST CODESIZE PUSH3 0x512 JUMP JUMPDEST PUSH1 0x9 SLOAD SWAP1 PUSH1 0x2 SWAP2 DUP3 PUSH1 0x9 SSTORE DUP1 DUP4 LT PUSH3 0x602 JUMPI JUMPDEST POP PUSH1 0x9 PUSH1 0x0 MSTORE PUSH1 0x20 DUP1 PUSH1 0x0 KECCAK256 PUSH1 0x0 SWAP3 JUMPDEST DUP5 DUP5 LT PUSH3 0x5D2 JUMPI POP POP POP POP POP JUMP JUMPDEST DUP1 MLOAD DUP3 SLOAD PUSH1 0x1 PUSH1 0x1 PUSH1 0xA0 SHL SUB NOT AND PUSH1 0x1 PUSH1 0x1 PUSH1 0xA0 SHL SUB SWAP2 SWAP1 SWAP2 AND OR DUP3 SSTORE PUSH1 0x1 SWAP4 DUP5 ADD SWAP4 SWAP2 SWAP1 SWAP2 ADD SWAP1 DUP3 ADD PUSH3 0x5C3 JUMP JUMPDEST PUSH1 0x9 PUSH1 0x0 MSTORE PUSH3 0x639 SWAP1 PUSH32 0x6E1540171B6C0C960B71A7020D9F60077F6AF931A8BBF590DA0223DACF75C7AF SWAP1 DUP2 ADD SWAP1 DUP5 ADD PUSH3 0x302 JUMP JUMPDEST CODESIZE PUSH3 0x5B3 JUMP JUMPDEST PUSH1 0xA SLOAD SWAP1 PUSH1 0x2 SWAP2 DUP3 PUSH1 0xA SSTORE DUP1 DUP4 LT PUSH3 0x6A3 JUMPI JUMPDEST POP PUSH1 0xA PUSH1 0x0 MSTORE PUSH1 0x20 DUP1 PUSH1 0x0 KECCAK256 PUSH1 0x0 SWAP3 JUMPDEST DUP5 DUP5 LT PUSH3 0x673 JUMPI POP POP POP POP POP JUMP JUMPDEST DUP1 MLOAD DUP3 SLOAD PUSH1 0x1 PUSH1 0x1 PUSH1 0xA0 SHL SUB NOT AND PUSH1 0x1 PUSH1 0x1 PUSH1 0xA0 SHL SUB SWAP2 SWAP1 SWAP2 AND OR DUP3 SSTORE PUSH1 0x1 SWAP4 DUP5 ADD SWAP4 SWAP2 SWAP1 SWAP2 ADD SWAP1 DUP3 ADD PUSH3 0x664 JUMP JUMPDEST PUSH1 0xA PUSH1 0x0 MSTORE PUSH3 0x6DA SWAP1 PUSH32 0xC65A7BB8D6351C1CF70C95A316CC6A92839C986682D98BC35F958F4883F9D2A8 SWAP1 DUP2 ADD SWAP1 DUP5 ADD PUSH3 0x302 JUMP JUMPDEST CODESIZE PUSH3 0x654 JUMP JUMPDEST PUSH1 0xB SLOAD SWAP1 PUSH1 0x2 SWAP2 DUP3 PUSH1 0xB SSTORE DUP1 DUP4 LT PUSH3 0x744 JUMPI JUMPDEST POP PUSH1 0xB PUSH1 0x0 MSTORE PUSH1 0x20 DUP1 PUSH1 0x0 KECCAK256 PUSH1 0x0 SWAP3 JUMPDEST DUP5 DUP5 LT PUSH3 0x714 JUMPI POP POP POP POP POP JUMP JUMPDEST DUP1 MLOAD DUP3 SLOAD PUSH1 0x1 PUSH1 0x1 PUSH1 0xA0 SHL SUB NOT AND PUSH1 0x1 PUSH1 0x1 PUSH1 0xA0 SHL SUB SWAP2 SWAP1 SWAP2 AND OR DUP3 SSTORE PUSH1 0x1 SWAP4 DUP5 ADD SWAP4 SWAP2 SWAP1 SWAP2 ADD SWAP1 DUP3 ADD PUSH3 0x705 JUMP JUMPDEST PUSH1 0xB PUSH1 0x0 MSTORE PUSH3 0x77B SWAP1 PUSH32 0x175B7A638427703F0DBE7BB9BBF987A2551717B34E79F33B5B1008D1FA01DB9 SWAP1 DUP2 ADD SWAP1 DUP5 ADD PUSH3 0x302 JUMP JUMPDEST CODESIZE PUSH3 0x6F5 JUMP JUMPDEST PUSH1 0xC SLOAD SWAP1 PUSH1 0x2 SWAP2 DUP3 PUSH1 0xC SSTORE DUP1 DUP4 LT PUSH3 0x7E5 JUMPI JUMPDEST POP PUSH1 0xC PUSH1 0x0 MSTORE PUSH1 0x20 DUP1 PUSH1 0x0 KECCAK256 PUSH1 0x0 SWAP3 JUMPDEST DUP5 DUP5 LT PUSH3 0x7B5 JUMPI POP POP POP POP POP JUMP JUMPDEST DUP1 MLOAD DUP3 SLOAD PUSH1 0x1 PUSH1 0x1 PUSH1 0xA0 SHL SUB NOT AND PUSH1 0x1 PUSH1 0x1 PUSH1 0xA0 SHL SUB SWAP2 SWAP1 SWAP2 AND OR DUP3 SSTORE PUSH1 0x1 SWAP4 DUP5 ADD SWAP4 SWAP2 SWAP1 SWAP2 ADD SWAP1 DUP3 ADD PUSH3 0x7A6 JUMP JUMPDEST PUSH1 0xC PUSH1 0x0 MSTORE PUSH3 0x81C SWAP1 PUSH32 0xDF6966C971051C3D54EC59162606531493A51404A002842F56009D7E5CF4A8C7 SWAP1 DUP2 ADD SWAP1 DUP5 ADD PUSH3 0x302 JUMP JUMPDEST CODESIZE PUSH3 0x796 JUMP JUMPDEST SWAP1 PUSH1 0x1 DUP3 DUP2 SHR SWAP3 AND DUP1 ISZERO PUSH3 0x855 JUMPI JUMPDEST PUSH1 0x20 DUP4 LT EQ PUSH3 0x83F JUMPI JUMP JUMPDEST PUSH4 0x4E487B71 PUSH1 0xE0 SHL PUSH1 0x0 MSTORE PUSH1 0x22 PUSH1 0x4 MSTORE PUSH1 0x24 PUSH1 0x0 REVERT JUMPDEST SWAP2 PUSH1 0x7F AND SWAP2 PUSH3 0x833 JUMP JUMPDEST SWAP1 PUSH1 0x1F DUP3 GT PUSH3 0x86E JUMPI POP POP JUMP JUMPDEST PUSH3 0x89F SWAP2 PUSH1 0x3 PUSH1 0x0 MSTORE PUSH1 0x20 PUSH1 0x0 KECCAK256 SWAP1 PUSH1 0x20 PUSH1 0x1F DUP5 ADD PUSH1 0x5 SHR DUP4 ADD SWAP4 LT PUSH3 0x8A1 JUMPI JUMPDEST PUSH1 0x1F ADD PUSH1 0x5 SHR ADD SWAP1 PUSH3 0x302 JUMP JUMPDEST JUMP JUMPDEST SWAP1 SWAP2 POP DUP2 SWAP1 PUSH3 0x891 JUMP JUMPDEST SWAP1 PUSH1 0x1F DUP3 GT PUSH3 0x8BA JUMPI POP POP JUMP JUMPDEST PUSH3 0x89F SWAP2 PUSH1 0x4 PUSH1 0x0 MSTORE PUSH1 0x20 PUSH1 0x0 KECCAK256 SWAP1 PUSH1 0x20 PUSH1 0x1F DUP5 ADD PUSH1 0x5 SHR DUP4 ADD SWAP4 LT PUSH3 0x8A1 JUMPI PUSH1 0x1F ADD PUSH1 0x5 SHR ADD SWAP1 PUSH3 0x302 JUMP JUMPDEST DUP1 MLOAD SWAP1 SWAP2 SWAP1 PUSH1 0x1 PUSH1 0x1 PUSH1 0x40 SHL SUB DUP2 GT PUSH3 0x9DE JUMPI JUMPDEST PUSH3 0x917 DUP2 PUSH3 0x911 PUSH1 0x4 SLOAD PUSH3 0x823 JUMP JUMPDEST PUSH3 0x8AC JUMP JUMPDEST PUSH1 0x20 DUP1 PUSH1 0x1F DUP4 GT PUSH1 0x1 EQ PUSH3 0x956 JUMPI POP DUP2 SWAP3 SWAP4 PUSH1 0x0 SWAP3 PUSH3 0x94A JUMPI JUMPDEST POP POP DUP2 PUSH1 0x1 SHL SWAP2 PUSH1 0x0 NOT SWAP1 PUSH1 0x3 SHL SHR NOT AND OR PUSH1 0x4 SSTORE JUMP JUMPDEST ADD MLOAD SWAP1 POP CODESIZE DUP1 PUSH3 0x933 JUMP JUMPDEST PUSH1 0x4 PUSH1 0x0 MSTORE PUSH1 0x1F NOT DUP4 AND SWAP5 SWAP1 SWAP2 SWAP1 PUSH32 0x8A35ACFBC15FF81A39AE7D344FD709F28E8600B4AA8C65C6B64BFE7FE36BD19B SWAP3 PUSH1 0x0 SWAP1 JUMPDEST DUP8 DUP3 LT PUSH3 0x9C5 JUMPI POP POP DUP4 PUSH1 0x1 SWAP6 SWAP7 LT PUSH3 0x9AB JUMPI JUMPDEST POP POP POP DUP2 SHL ADD PUSH1 0x4 SSTORE JUMP JUMPDEST ADD MLOAD PUSH1 0x0 NOT PUSH1 0xF8 DUP5 PUSH1 0x3 SHL AND SHR NOT AND SWAP1 SSTORE CODESIZE DUP1 DUP1 PUSH3 0x9A0 JUMP JUMPDEST DUP1 PUSH1 0x1 DUP6 SWAP7 DUP3 SWAP5 SWAP7 DUP7 ADD MLOAD DUP2 SSTORE ADD SWAP6 ADD SWAP4 ADD SWAP1 PUSH3 0x98A JUMP JUMPDEST PUSH3 0x9E8 PUSH3 0x279 JUMP JUMPDEST PUSH3 0x8FF JUMP JUMPDEST DUP1 MLOAD SWAP1 SWAP2 SWAP1 PUSH1 0x1 PUSH1 0x1 PUSH1 0x40 SHL SUB DUP2 GT PUSH3 0xAF7 JUMPI JUMPDEST PUSH3 0xA1B DUP2 PUSH3 0xA15 PUSH1 0x3 SLOAD PUSH3 0x823 JUMP JUMPDEST PUSH3 0x860 JUMP JUMPDEST PUSH1 0x20 DUP1 PUSH1 0x1F DUP4 GT PUSH1 0x1 EQ PUSH3 0xA62 JUMPI POP DUP2 SWAP1 PUSH3 0x89F SWAP5 PUSH1 0x0 SWAP3 PUSH3 0xA56 JUMPI JUMPDEST POP POP DUP2 PUSH1 0x1 SHL SWAP2 PUSH1 0x0 NOT SWAP1 PUSH1 0x3 SHL SHR NOT AND OR PUSH1 0x3 SSTORE PUSH3 0x8EA JUMP JUMPDEST ADD MLOAD SWAP1 POP CODESIZE DUP1 PUSH3 0xA3B JUMP JUMPDEST PUSH1 0x3 PUSH1 0x0 MSTORE SWAP3 SWAP4 SWAP2 SWAP3 SWAP2 PUSH1 0x1F NOT DUP5 AND PUSH32 0xC2575A0E9E593C00F959F8C92F12DB2869C3395A3B0502D05E2516446F71F85B SWAP4 PUSH1 0x0 SWAP1 JUMPDEST DUP3 DUP3 LT PUSH3 0xADE JUMPI POP POP SWAP2 PUSH1 0x1 SWAP4 SWAP2 DUP6 PUSH3 0x89F SWAP8 SWAP7 SWAP5 LT PUSH3 0xAC4 JUMPI JUMPDEST POP POP POP DUP2 SHL ADD PUSH1 0x3 SSTORE PUSH3 0x8EA JUMP JUMPDEST ADD MLOAD PUSH1 0x0 NOT PUSH1 0xF8 DUP5 PUSH1 0x3 SHL AND SHR NOT AND SWAP1 SSTORE CODESIZE DUP1 DUP1 PUSH3 0xAB5 JUMP JUMPDEST DUP1 PUSH1 0x1 DUP7 SWAP8 DUP3 SWAP5 SWAP8 DUP8 ADD MLOAD DUP2 SSTORE ADD SWAP7 ADD SWAP5 ADD SWAP1 PUSH3 0xA97 JUMP JUMPDEST PUSH3 0xB01 PUSH3 0x279 JUMP JUMPDEST PUSH3 0xA03 JUMP INVALID PUSH1 0x80 PUSH1 0x40 MSTORE PUSH1 0x4 CALLDATASIZE LT ISZERO PUSH2 0x1B JUMPI JUMPDEST CALLDATASIZE ISZERO PUSH2 0x19 JUMPI PUSH1 0x0 DUP1 REVERT JUMPDEST STOP JUMPDEST PUSH1 0x0 CALLDATALOAD PUSH1 0xE0 SHR DUP1 PUSH4 0x1F10D2A EQ PUSH2 0x3EF JUMPI DUP1 PUSH4 0x40141E5 EQ PUSH2 0x3E6 JUMPI DUP1 PUSH4 0x6FDDE03 EQ PUSH2 0x3DD JUMPI DUP1 PUSH4 0x95EA7B3 EQ PUSH2 0x3D4 JUMPI DUP1 PUSH4 0x153F29C7 EQ PUSH2 0x3CB JUMPI DUP1 PUSH4 0x16345F18 EQ PUSH2 0x3C2 JUMPI DUP1 PUSH4 0x18160DDD EQ PUSH2 0x3B9 JUMPI DUP1 PUSH4 0x1BEA8006 EQ PUSH2 0x3B0 JUMPI DUP1 PUSH4 0x22A90082 EQ PUSH2 0x3A7 JUMPI DUP1 PUSH4 0x23AAD7AF EQ PUSH2 0x39E JUMPI DUP1 PUSH4 0x23B872DD EQ PUSH2 0x395 JUMPI DUP1 PUSH4 0x24E2E7BB EQ PUSH2 0x38C JUMPI DUP1 PUSH4 0x29A97EC2 EQ PUSH2 0x383 JUMPI DUP1 PUSH4 0x2D365D31 EQ PUSH2 0x37A JUMPI DUP1 PUSH4 0x313CE567 EQ PUSH2 0x371 JUMPI DUP1 PUSH4 0x39509351 EQ PUSH2 0x368 JUMPI DUP1 PUSH4 0x3F3B3B27 EQ PUSH2 0x35F JUMPI DUP1 PUSH4 0x44345F23 EQ PUSH2 0x356 JUMPI DUP1 PUSH4 0x4585E33B EQ PUSH2 0x34D JUMPI DUP1 PUSH4 0x51F54887 EQ PUSH2 0x344 JUMPI DUP1 PUSH4 0x681BCF13 EQ PUSH2 0x33B JUMPI DUP1 PUSH4 0x69BC4388 EQ PUSH2 0x332 JUMPI DUP1 PUSH4 0x6E04FF0D EQ PUSH2 0x329 JUMPI DUP1 PUSH4 0x70A08231 EQ PUSH2 0x320 JUMPI DUP1 PUSH4 0x718176E5 EQ PUSH2 0x317 JUMPI DUP1 PUSH4 0x764F96F9 EQ PUSH2 0x30E JUMPI DUP1 PUSH4 0x88E42B08 EQ PUSH2 0x305 JUMPI DUP1 PUSH4 0x8DB9F39A EQ PUSH2 0x2FC JUMPI DUP1 PUSH4 0x90F11E84 EQ PUSH2 0x2F3 JUMPI DUP1 PUSH4 0x947A36FB EQ PUSH2 0x2EA JUMPI DUP1 PUSH4 0x95D89B41 EQ PUSH2 0x2E1 JUMPI DUP1 PUSH4 0xA15C7D10 EQ PUSH2 0x2D8 JUMPI DUP1 PUSH4 0xA457C2D7 EQ PUSH2 0x2CF JUMPI DUP1 PUSH4 0xA48CE279 EQ PUSH2 0x2C6 JUMPI DUP1 PUSH4 0xA9059CBB EQ PUSH2 0x2BD JUMPI DUP1 PUSH4 0xAA5A7AA3 EQ PUSH2 0x2B4 JUMPI DUP1 PUSH4 0xB460AF94 EQ PUSH2 0x2AB JUMPI DUP1 PUSH4 0xB6E20A6A EQ PUSH2 0x2A2 JUMPI DUP1 PUSH4 0xBB09D9B7 EQ PUSH2 0x299 JUMPI DUP1 PUSH4 0xBDD5915F EQ PUSH2 0x290 JUMPI DUP1 PUSH4 0xC5764EEC EQ PUSH2 0x287 JUMPI DUP1 PUSH4 0xCA970905 EQ PUSH2 0x27E JUMPI DUP1 PUSH4 0xCB3601B1 EQ PUSH2 0x275 JUMPI DUP1 PUSH4 0xCD3F5B53 EQ PUSH2 0x26C JUMPI DUP1 PUSH4 0xCF412810 EQ PUSH2 0x263 JUMPI DUP1 PUSH4 0xD0919116 EQ PUSH2 0x25A JUMPI DUP1 PUSH4 0xDD62ED3E EQ PUSH2 0x251 JUMPI DUP1 PUSH4 0xE189EB42 EQ PUSH2 0x248 JUMPI PUSH4 0xE95D8328 SUB PUSH2 0xE JUMPI PUSH2 0x243 PUSH2 0x2835 JUMP JUMPDEST PUSH2 0xE JUMP JUMPDEST POP PUSH2 0x243 PUSH2 0x27E2 JUMP JUMPDEST POP PUSH2 0x243 PUSH2 0x274C JUMP JUMPDEST POP PUSH2 0x243 PUSH2 0x26FE JUMP JUMPDEST POP PUSH2 0x243 PUSH2 0x264E JUMP JUMPDEST POP PUSH2 0x243 PUSH2 0x2600 JUMP JUMPDEST POP PUSH2 0x243 PUSH2 0x257A JUMP JUMPDEST POP PUSH2 0x243 PUSH2 0x24F4 JUMP JUMPDEST POP PUSH2 0x243 PUSH2 0x23A5 JUMP JUMPDEST POP PUSH2 0x243 PUSH2 0x2357 JUMP JUMPDEST POP PUSH2 0x243 PUSH2 0x2309 JUMP JUMPDEST POP PUSH2 0x243 PUSH2 0x22BB JUMP JUMPDEST POP PUSH2 0x243 PUSH2 0x21C1 JUMP JUMPDEST POP PUSH2 0x243 PUSH2 0x20EF JUMP JUMPDEST POP PUSH2 0x243 PUSH2 0x20AA JUMP JUMPDEST POP PUSH2 0x243 PUSH2 0x2024 JUMP JUMPDEST POP PUSH2 0x243 PUSH2 0x1F18 JUMP JUMPDEST POP PUSH2 0x243 PUSH2 0x1E92 JUMP JUMPDEST POP PUSH2 0x243 PUSH2 0x1DB0 JUMP JUMPDEST POP PUSH2 0x243 PUSH2 0x1D73 JUMP JUMPDEST POP PUSH2 0x243 PUSH2 0x1C5E JUMP JUMPDEST POP PUSH2 0x243 PUSH2 0x1AF0 JUMP JUMPDEST POP PUSH2 0x243 PUSH2 0x1AB5 JUMP JUMPDEST POP PUSH2 0x243 PUSH2 0x1A6B JUMP JUMPDEST POP PUSH2 0x243 PUSH2 0x1A1D JUMP JUMPDEST POP PUSH2 0x243 PUSH2 0x19B7 JUMP JUMPDEST POP PUSH2 0x243 PUSH2 0x125A JUMP JUMPDEST POP PUSH2 0x243 PUSH2 0x11BB JUMP JUMPDEST POP PUSH2 0x243 PUSH2 0x1135 JUMP JUMPDEST POP PUSH2 0x243 PUSH2 0x10AB JUMP JUMPDEST POP PUSH2 0x243 PUSH2 0xE89 JUMP JUMPDEST POP PUSH2 0x243 PUSH2 0xD9B JUMP JUMPDEST POP PUSH2 0x243 PUSH2 0xD5E JUMP JUMPDEST POP PUSH2 0x243 PUSH2 0xCD9 JUMP JUMPDEST POP PUSH2 0x243 PUSH2 0xC9E JUMP JUMPDEST POP PUSH2 0x243 PUSH2 0xC50 JUMP JUMPDEST POP PUSH2 0x243 PUSH2 0xC38 JUMP JUMPDEST POP PUSH2 0x243 PUSH2 0xA7A JUMP JUMPDEST POP PUSH2 0x243 PUSH2 0x963 JUMP JUMPDEST POP PUSH2 0x243 PUSH2 0x87D JUMP JUMPDEST POP PUSH2 0x243 PUSH2 0x815 JUMP JUMPDEST POP PUSH2 0x243 PUSH2 0x7CA JUMP JUMPDEST POP PUSH2 0x243 PUSH2 0x78D JUMP JUMPDEST POP PUSH2 0x243 PUSH2 0x74B JUMP JUMPDEST POP PUSH2 0x243 PUSH2 0x709 JUMP JUMPDEST POP PUSH2 0x243 PUSH2 0x6B9 JUMP JUMPDEST POP PUSH2 0x243 PUSH2 0x55C JUMP JUMPDEST POP PUSH2 0x243 PUSH2 0x48B JUMP JUMPDEST POP PUSH2 0x243 PUSH2 0x443 JUMP JUMPDEST PUSH1 0x4 CALLDATALOAD SWAP1 PUSH20 0xFFFFFFFFFFFFFFFFFFFFFFFFFFFFFFFFFFFFFFFF DUP3 AND DUP3 SUB PUSH2 0x41B JUMPI JUMP JUMPDEST PUSH1 0x0 DUP1 REVERT JUMPDEST PUSH1 0x24 CALLDATALOAD SWAP1 PUSH20 0xFFFFFFFFFFFFFFFFFFFFFFFFFFFFFFFFFFFFFFFF DUP3 AND DUP3 SUB PUSH2 0x41B JUMPI JUMP JUMPDEST POP CALLVALUE PUSH2 0x41B JUMPI PUSH1 0x60 PUSH32 0xFFFFFFFFFFFFFFFFFFFFFFFFFFFFFFFFFFFFFFFFFFFFFFFFFFFFFFFFFFFFFFFC CALLDATASIZE ADD SLT PUSH2 0x41B JUMPI PUSH2 0x19 PUSH2 0x47E PUSH2 0x3F8 JUMP JUMPDEST PUSH1 0x44 CALLDATALOAD SWAP1 PUSH1 0x24 CALLDATALOAD SWAP1 PUSH2 0x3E7A JUMP JUMPDEST POP CALLVALUE PUSH2 0x41B JUMPI PUSH1 0x0 PUSH32 0xFFFFFFFFFFFFFFFFFFFFFFFFFFFFFFFFFFFFFFFFFFFFFFFFFFFFFFFFFFFFFFFC CALLDATASIZE ADD SLT PUSH2 0x41B JUMPI PUSH1 0x20 PUSH1 0x40 MLOAD PUSH20 0x7CEB23FD6BC0ADD59E62AC25578270CFF1B9F619 DUP2 MSTORE RETURN JUMPDEST SWAP2 SWAP1 DUP3 MLOAD SWAP3 DUP4 DUP3 MSTORE PUSH1 0x0 SWAP1 JUMPDEST DUP5 DUP3 LT PUSH2 0x530 JUMPI POP PUSH1 0x1F DUP5 PUSH1 0x20 SWAP5 SWAP6 PUSH32 0xFFFFFFFFFFFFFFFFFFFFFFFFFFFFFFFFFFFFFFFFFFFFFFFFFFFFFFFFFFFFFFE0 SWAP4 GT PUSH2 0x523 JUMPI JUMPDEST ADD AND ADD ADD SWAP1 JUMP JUMPDEST PUSH1 0x0 DUP6 DUP3 DUP7 ADD ADD MSTORE PUSH2 0x51C JUMP JUMPDEST SWAP1 PUSH1 0x20 SWAP1 DUP2 DUP1 DUP3 DUP6 ADD ADD MLOAD SWAP1 DUP3 DUP7 ADD ADD MSTORE ADD SWAP1 PUSH2 0x4E5 JUMP JUMPDEST SWAP1 PUSH1 0x20 PUSH2 0x559 SWAP3 DUP2 DUP2 MSTORE ADD SWAP1 PUSH2 0x4D9 JUMP JUMPDEST SWAP1 JUMP JUMPDEST POP CALLVALUE PUSH2 0x41B JUMPI PUSH1 0x0 DUP1 PUSH32 0xFFFFFFFFFFFFFFFFFFFFFFFFFFFFFFFFFFFFFFFFFFFFFFFFFFFFFFFFFFFFFFFC CALLDATASIZE ADD SLT PUSH2 0x6B6 JUMPI PUSH1 0x40 MLOAD SWAP1 DUP1 PUSH1 0x3 SLOAD SWAP1 PUSH1 0x1 SWAP2 DUP1 DUP4 SHR SWAP3 DUP1 DUP3 AND SWAP3 DUP4 ISZERO PUSH2 0x6AC JUMPI JUMPDEST PUSH1 0x20 SWAP3 DUP4 DUP7 LT DUP6 EQ PUSH2 0x67F JUMPI DUP6 DUP9 MSTORE PUSH1 0x20 DUP9 ADD SWAP5 SWAP1 DUP2 ISZERO PUSH2 0x645 JUMPI POP PUSH1 0x1 EQ PUSH2 0x5EC JUMPI JUMPDEST PUSH2 0x5E8 DUP8 PUSH2 0x5DC DUP2 DUP10 SUB DUP3 PUSH2 0x1B6E JUMP JUMPDEST PUSH1 0x40 MLOAD SWAP2 DUP3 SWAP2 DUP3 PUSH2 0x548 JUMP JUMPDEST SUB SWAP1 RETURN JUMPDEST PUSH1 0x3 PUSH1 0x0 MSTORE SWAP5 POP SWAP2 SWAP3 SWAP2 PUSH32 0xC2575A0E9E593C00F959F8C92F12DB2869C3395A3B0502D05E2516446F71F85B JUMPDEST DUP4 DUP7 LT PUSH2 0x634 JUMPI POP POP POP SWAP2 ADD SWAP1 POP PUSH2 0x5DC DUP3 PUSH2 0x5E8 CODESIZE DUP1 PUSH2 0x5CC JUMP JUMPDEST DUP1 SLOAD DUP6 DUP8 ADD MSTORE SWAP5 DUP3 ADD SWAP5 DUP2 ADD PUSH2 0x618 JUMP JUMPDEST PUSH32 0xFFFFFFFFFFFFFFFFFFFFFFFFFFFFFFFFFFFFFFFFFFFFFFFFFFFFFFFFFFFFFF00 AND DUP6 MSTORE POP POP POP ADD SWAP2 POP PUSH2 0x5DC SWAP1 POP DUP3 PUSH2 0x5E8 CODESIZE DUP1 PUSH2 0x5CC JUMP JUMPDEST PUSH1 0x24 DUP3 PUSH32 0x4E487B7100000000000000000000000000000000000000000000000000000000 DUP2 MSTORE PUSH1 0x22 PUSH1 0x4 MSTORE REVERT JUMPDEST SWAP4 PUSH1 0x7F AND SWAP4 PUSH2 0x5A8 JUMP JUMPDEST DUP1 REVERT JUMPDEST POP CALLVALUE PUSH2 0x41B JUMPI PUSH1 0x40 PUSH32 0xFFFFFFFFFFFFFFFFFFFFFFFFFFFFFFFFFFFFFFFFFFFFFFFFFFFFFFFFFFFFFFFC CALLDATASIZE ADD SLT PUSH2 0x41B JUMPI PUSH2 0x6FE PUSH2 0x6F4 PUSH2 0x3F8 JUMP JUMPDEST PUSH1 0x24 CALLDATALOAD SWAP1 CALLER PUSH2 0x2B6A JUMP JUMPDEST PUSH1 0x20 PUSH1 0x40 MLOAD PUSH1 0x1 DUP2 MSTORE RETURN JUMPDEST POP CALLVALUE PUSH2 0x41B JUMPI PUSH1 0x0 PUSH32 0xFFFFFFFFFFFFFFFFFFFFFFFFFFFFFFFFFFFFFFFFFFFFFFFFFFFFFFFFFFFFFFFC CALLDATASIZE ADD SLT PUSH2 0x41B JUMPI PUSH1 0x20 PUSH2 0x743 PUSH2 0x3B83 JUMP JUMPDEST PUSH1 0x40 MLOAD SWAP1 DUP2 MSTORE RETURN JUMPDEST POP CALLVALUE PUSH2 0x41B JUMPI PUSH1 0x20 PUSH32 0xFFFFFFFFFFFFFFFFFFFFFFFFFFFFFFFFFFFFFFFFFFFFFFFFFFFFFFFFFFFFFFFC CALLDATASIZE ADD SLT PUSH2 0x41B JUMPI PUSH1 0x20 PUSH2 0x743 PUSH2 0x788 PUSH2 0x3F8 JUMP JUMPDEST PUSH2 0x2D48 JUMP JUMPDEST POP CALLVALUE PUSH2 0x41B JUMPI PUSH1 0x0 PUSH32 0xFFFFFFFFFFFFFFFFFFFFFFFFFFFFFFFFFFFFFFFFFFFFFFFFFFFFFFFFFFFFFFFC CALLDATASIZE ADD SLT PUSH2 0x41B JUMPI PUSH1 0x20 PUSH1 0x2 SLOAD PUSH1 0x40 MLOAD SWAP1 DUP2 MSTORE RETURN JUMPDEST POP CALLVALUE PUSH2 0x41B JUMPI PUSH1 0x40 PUSH32 0xFFFFFFFFFFFFFFFFFFFFFFFFFFFFFFFFFFFFFFFFFFFFFFFFFFFFFFFFFFFFFFFC CALLDATASIZE ADD SLT PUSH2 0x41B JUMPI PUSH1 0x20 PUSH2 0x743 PUSH2 0x807 PUSH2 0x3F8 JUMP JUMPDEST PUSH2 0x80F PUSH2 0x420 JUMP JUMPDEST SWAP1 PUSH2 0x44EE JUMP JUMPDEST POP CALLVALUE PUSH2 0x41B JUMPI PUSH1 0x20 PUSH32 0xFFFFFFFFFFFFFFFFFFFFFFFFFFFFFFFFFFFFFFFFFFFFFFFFFFFFFFFFFFFFFFFC CALLDATASIZE ADD SLT PUSH2 0x41B JUMPI PUSH1 0x4 CALLDATALOAD PUSH1 0xE SSTORE STOP JUMPDEST POP PUSH32 0x4E487B7100000000000000000000000000000000000000000000000000000000 PUSH1 0x0 MSTORE PUSH1 0x32 PUSH1 0x4 MSTORE PUSH1 0x24 PUSH1 0x0 REVERT JUMPDEST POP CALLVALUE PUSH2 0x41B JUMPI PUSH1 0x20 PUSH32 0xFFFFFFFFFFFFFFFFFFFFFFFFFFFFFFFFFFFFFFFFFFFFFFFFFFFFFFFFFFFFFFFC CALLDATASIZE ADD SLT PUSH2 0x41B JUMPI PUSH1 0x4 CALLDATALOAD PUSH1 0x6 SLOAD DUP2 LT ISZERO PUSH2 0x41B JUMPI PUSH20 0xFFFFFFFFFFFFFFFFFFFFFFFFFFFFFFFFFFFFFFFF PUSH1 0x20 SWAP2 PUSH1 0x6 PUSH1 0x0 MSTORE PUSH32 0xF652222313E28459528D920B65115C16C04F3EFC82AAEDC97BE59F3F377C0D3F ADD SLOAD AND PUSH1 0x40 MLOAD SWAP1 DUP2 MSTORE RETURN JUMPDEST PUSH32 0xFFFFFFFFFFFFFFFFFFFFFFFFFFFFFFFFFFFFFFFFFFFFFFFFFFFFFFFFFFFFFFFC PUSH1 0x60 SWAP2 ADD SLT PUSH2 0x41B JUMPI PUSH20 0xFFFFFFFFFFFFFFFFFFFFFFFFFFFFFFFFFFFFFFFF SWAP1 PUSH1 0x4 CALLDATALOAD DUP3 DUP2 AND DUP2 SUB PUSH2 0x41B JUMPI SWAP2 PUSH1 0x24 CALLDATALOAD SWAP1 DUP2 AND DUP2 SUB PUSH2 0x41B JUMPI SWAP1 PUSH1 0x44 CALLDATALOAD SWAP1 JUMP JUMPDEST POP CALLVALUE PUSH2 0x41B JUMPI PUSH2 0x972 CALLDATASIZE PUSH2 0x903 JUMP JUMPDEST SWAP1 PUSH20 0xFFFFFFFFFFFFFFFFFFFFFFFFFFFFFFFFFFFFFFFF DUP4 AND PUSH1 0x0 MSTORE PUSH1 0x1 PUSH1 0x20 MSTORE PUSH2 0x9C0 CALLER PUSH1 0x40 PUSH1 0x0 KECCAK256 SWAP1 PUSH20 0xFFFFFFFFFFFFFFFFFFFFFFFFFFFFFFFFFFFFFFFF AND PUSH1 0x0 MSTORE PUSH1 0x20 MSTORE PUSH1 0x40 PUSH1 0x0 KECCAK256 SWAP1 JUMP JUMPDEST SLOAD SWAP3 PUSH32 0xFFFFFFFFFFFFFFFFFFFFFFFFFFFFFFFFFFFFFFFFFFFFFFFFFFFFFFFFFFFFFFFF DUP5 SUB PUSH2 0xA00 JUMPI JUMPDEST PUSH2 0x9F4 SWAP4 POP PUSH2 0x29E1 JUMP JUMPDEST PUSH1 0x40 MLOAD PUSH1 0x1 DUP2 MSTORE PUSH1 0x20 SWAP1 RETURN JUMPDEST DUP3 DUP5 LT PUSH2 0xA1C JUMPI PUSH2 0xA17 DUP4 PUSH2 0x9F4 SWAP6 SUB CALLER DUP4 PUSH2 0x2B6A JUMP JUMPDEST PUSH2 0x9EA JUMP JUMPDEST PUSH1 0x64 PUSH1 0x40 MLOAD PUSH32 0x8C379A000000000000000000000000000000000000000000000000000000000 DUP2 MSTORE PUSH1 0x20 PUSH1 0x4 DUP3 ADD MSTORE PUSH1 0x1D PUSH1 0x24 DUP3 ADD MSTORE PUSH32 0x45524332303A20696E73756666696369656E7420616C6C6F77616E6365000000 PUSH1 0x44 DUP3 ADD MSTORE REVERT JUMPDEST POP CALLVALUE PUSH2 0x41B JUMPI PUSH1 0x20 PUSH32 0xFFFFFFFFFFFFFFFFFFFFFFFFFFFFFFFFFFFFFFFFFFFFFFFFFFFFFFFFFFFFFFFC CALLDATASIZE ADD SLT PUSH2 0x41B JUMPI PUSH2 0x19 PUSH2 0xAB5 PUSH2 0x3F8 JUMP JUMPDEST PUSH20 0xFFFFFFFFFFFFFFFFFFFFFFFFFFFFFFFFFFFFFFFF DUP2 AND PUSH1 0x0 MSTORE PUSH1 0x0 PUSH1 0x20 MSTORE PUSH2 0xBF5 PUSH2 0xAEF PUSH1 0x40 PUSH1 0x0 KECCAK256 SLOAD PUSH2 0xAE9 ADDRESS PUSH2 0x4293 JUMP JUMPDEST SWAP1 PUSH2 0x2FF2 JUMP JUMPDEST PUSH2 0xBF0 PUSH2 0xAFF PUSH1 0x2 SLOAD DUP1 SWAP4 PUSH2 0x307B JUMP JUMPDEST SWAP2 PUSH2 0xBEB PUSH2 0xB43 DUP3 PUSH2 0xB3E PUSH2 0xB34 DUP10 PUSH20 0xFFFFFFFFFFFFFFFFFFFFFFFFFFFFFFFFFFFFFFFF AND PUSH1 0x0 MSTORE PUSH1 0x0 PUSH1 0x20 MSTORE PUSH1 0x40 PUSH1 0x0 KECCAK256 SWAP1 JUMP JUMPDEST SLOAD PUSH2 0xAE9 ADDRESS PUSH2 0x432A JUMP JUMPDEST PUSH2 0x307B JUMP JUMPDEST PUSH2 0xBE6 PUSH2 0xBBC PUSH2 0xB84 DUP6 PUSH2 0xB3E PUSH2 0xB7A DUP13 PUSH20 0xFFFFFFFFFFFFFFFFFFFFFFFFFFFFFFFFFFFFFFFF AND PUSH1 0x0 MSTORE PUSH1 0x0 PUSH1 0x20 MSTORE PUSH1 0x40 PUSH1 0x0 KECCAK256 SWAP1 JUMP JUMPDEST SLOAD PUSH2 0xAE9 ADDRESS PUSH2 0x439B JUMP JUMPDEST SWAP5 PUSH2 0xB3E PUSH2 0xBB2 DUP12 PUSH20 0xFFFFFFFFFFFFFFFFFFFFFFFFFFFFFFFFFFFFFFFF AND PUSH1 0x0 MSTORE PUSH1 0x0 PUSH1 0x20 MSTORE PUSH1 0x40 PUSH1 0x0 KECCAK256 SWAP1 JUMP JUMPDEST SLOAD PUSH2 0xAE9 ADDRESS PUSH2 0x440C JUMP JUMPDEST SWAP6 PUSH2 0xBC6 DUP2 PUSH2 0x34C5 JUMP JUMPDEST PUSH2 0xBCF DUP4 PUSH2 0x355F JUMP JUMPDEST PUSH2 0xBD8 DUP6 PUSH2 0x35D1 JUMP JUMPDEST PUSH2 0xBE1 DUP8 PUSH2 0x3643 JUMP JUMPDEST PUSH2 0x40ED JUMP JUMPDEST PUSH2 0x4161 JUMP JUMPDEST PUSH2 0x41C7 JUMP JUMPDEST PUSH2 0x422D JUMP JUMPDEST PUSH2 0xC07 DUP2 PUSH2 0xC02 ADDRESS PUSH2 0x447D JUMP JUMPDEST PUSH2 0x4078 JUMP JUMPDEST PUSH2 0xC31 DUP2 PUSH20 0xFFFFFFFFFFFFFFFFFFFFFFFFFFFFFFFFFFFFFFFF AND PUSH1 0x0 MSTORE PUSH1 0x0 PUSH1 0x20 MSTORE PUSH1 0x40 PUSH1 0x0 KECCAK256 SWAP1 JUMP JUMPDEST SLOAD SWAP1 PUSH2 0x3EA6 JUMP JUMPDEST POP CALLVALUE PUSH2 0x41B JUMPI PUSH2 0x19 PUSH2 0xC4A CALLDATASIZE PUSH2 0x903 JUMP JUMPDEST SWAP2 PUSH2 0x379E JUMP JUMPDEST POP CALLVALUE PUSH2 0x41B JUMPI PUSH1 0x0 PUSH32 0xFFFFFFFFFFFFFFFFFFFFFFFFFFFFFFFFFFFFFFFFFFFFFFFFFFFFFFFFFFFFFFFC CALLDATASIZE ADD SLT PUSH2 0x41B JUMPI PUSH1 0x20 PUSH1 0x40 MLOAD PUSH20 0xBBBA073C31BF03B8ACF7C28EF0738DECF3695683 DUP2 MSTORE RETURN JUMPDEST POP CALLVALUE PUSH2 0x41B JUMPI PUSH1 0x0 PUSH32 0xFFFFFFFFFFFFFFFFFFFFFFFFFFFFFFFFFFFFFFFFFFFFFFFFFFFFFFFFFFFFFFFC CALLDATASIZE ADD SLT PUSH2 0x41B JUMPI PUSH1 0x20 PUSH1 0x40 MLOAD PUSH1 0x12 DUP2 MSTORE RETURN JUMPDEST POP CALLVALUE PUSH2 0x41B JUMPI PUSH1 0x40 PUSH32 0xFFFFFFFFFFFFFFFFFFFFFFFFFFFFFFFFFFFFFFFFFFFFFFFFFFFFFFFFFFFFFFFC CALLDATASIZE ADD SLT PUSH2 0x41B JUMPI PUSH2 0x6FE PUSH2 0xD14 PUSH2 0x3F8 JUMP JUMPDEST CALLER PUSH1 0x0 MSTORE PUSH1 0x1 PUSH1 0x20 MSTORE PUSH2 0xD57 PUSH1 0x24 CALLDATALOAD PUSH2 0xD51 DUP4 PUSH1 0x40 PUSH1 0x0 KECCAK256 SWAP1 PUSH20 0xFFFFFFFFFFFFFFFFFFFFFFFFFFFFFFFFFFFFFFFF AND PUSH1 0x0 MSTORE PUSH1 0x20 MSTORE PUSH1 0x40 PUSH1 0x0 KECCAK256 SWAP1 JUMP JUMPDEST SLOAD PUSH2 0x28B3 JUMP JUMPDEST SWAP1 CALLER PUSH2 0x2B6A JUMP JUMPDEST POP CALLVALUE PUSH2 0x41B JUMPI PUSH1 0x0 PUSH32 0xFFFFFFFFFFFFFFFFFFFFFFFFFFFFFFFFFFFFFFFFFFFFFFFFFFFFFFFFFFFFFFFC CALLDATASIZE ADD SLT PUSH2 0x41B JUMPI PUSH1 0x20 PUSH1 0xD SLOAD PUSH1 0x40 MLOAD SWAP1 DUP2 MSTORE RETURN JUMPDEST POP CALLVALUE PUSH2 0x41B JUMPI PUSH1 0x20 PUSH32 0xFFFFFFFFFFFFFFFFFFFFFFFFFFFFFFFFFFFFFFFFFFFFFFFFFFFFFFFFFFFFFFFC CALLDATASIZE ADD SLT PUSH2 0x41B JUMPI PUSH1 0x4 CALLDATALOAD PUSH1 0xB SLOAD DUP2 LT ISZERO PUSH2 0x41B JUMPI PUSH20 0xFFFFFFFFFFFFFFFFFFFFFFFFFFFFFFFFFFFFFFFF PUSH1 0x20 SWAP2 PUSH1 0xB PUSH1 0x0 MSTORE PUSH32 0x175B7A638427703F0DBE7BB9BBF987A2551717B34E79F33B5B1008D1FA01DB9 ADD SLOAD AND PUSH1 0x40 MLOAD SWAP1 DUP2 MSTORE RETURN JUMPDEST SWAP1 PUSH1 0x20 PUSH32 0xFFFFFFFFFFFFFFFFFFFFFFFFFFFFFFFFFFFFFFFFFFFFFFFFFFFFFFFFFFFFFFFC DUP4 ADD SLT PUSH2 0x41B JUMPI PUSH1 0x4 CALLDATALOAD PUSH8 0xFFFFFFFFFFFFFFFF SWAP3 DUP4 DUP3 GT PUSH2 0x41B JUMPI DUP1 PUSH1 0x23 DUP4 ADD SLT ISZERO PUSH2 0x41B JUMPI DUP2 PUSH1 0x4 ADD CALLDATALOAD SWAP4 DUP5 GT PUSH2 0x41B JUMPI PUSH1 0x24 DUP5 DUP4 ADD ADD GT PUSH2 0x41B JUMPI PUSH1 0x24 ADD SWAP2 SWAP1 JUMP JUMPDEST POP CALLVALUE PUSH2 0x41B JUMPI PUSH2 0xE98 CALLDATASIZE PUSH2 0xE21 JUMP JUMPDEST SWAP1 PUSH2 0xEA5 PUSH1 0xD SLOAD TIMESTAMP PUSH2 0x2E42 JUMP JUMPDEST PUSH1 0xE SLOAD LT PUSH2 0xEAF JUMPI STOP JUMPDEST PUSH2 0xEB8 TIMESTAMP PUSH1 0xD SSTORE JUMP JUMPDEST PUSH2 0xED5 PUSH2 0xEC3 PUSH2 0x314C JUMP JUMPDEST SWAP2 PUSH2 0xECC PUSH2 0x3187 JUMP JUMPDEST SWAP4 DUP2 ADD SWAP1 PUSH2 0x33DF JUMP JUMPDEST SWAP2 PUSH1 0x0 JUMPDEST DUP4 MLOAD SWAP1 PUSH1 0xFF DUP2 AND SWAP2 DUP3 LT ISZERO PUSH2 0x19 JUMPI PUSH2 0x100B SWAP2 PUSH2 0xF38 PUSH2 0xF27 PUSH2 0xF0D PUSH2 0xF07 PUSH2 0xF01 DUP7 PUSH2 0x330F JUMP JUMPDEST PUSH1 0xFF AND SWAP1 JUMP JUMPDEST DUP9 PUSH2 0x2F58 JUMP JUMPDEST MLOAD PUSH20 0xFFFFFFFFFFFFFFFFFFFFFFFFFFFFFFFFFFFFFFFF AND SWAP1 JUMP JUMPDEST PUSH2 0xF31 DUP4 DUP10 PUSH2 0x2F58 JUMP JUMPDEST MLOAD SWAP1 PUSH2 0x36B5 JUMP JUMPDEST PUSH20 0xD500B1D8E8EF31E21C99D1DB9A6444D3ADF1270 DUP1 PUSH2 0xF82 PUSH2 0xF69 PUSH2 0xF0D PUSH2 0xF63 PUSH2 0xF01 DUP9 PUSH2 0x330F JUMP JUMPDEST DUP11 PUSH2 0x2F58 JUMP JUMPDEST PUSH20 0xFFFFFFFFFFFFFFFFFFFFFFFFFFFFFFFFFFFFFFFF AND SWAP1 JUMP JUMPDEST EQ SWAP1 DUP2 ISZERO PUSH2 0x1084 JUMPI JUMPDEST POP ISZERO PUSH2 0x1010 JUMPI PUSH2 0xFFD PUSH2 0x1006 SWAP2 PUSH2 0xFD1 PUSH2 0xFAD PUSH2 0xF0D PUSH2 0xF63 PUSH2 0xF01 DUP9 PUSH2 0x330F JUMP JUMPDEST PUSH2 0xFB6 DUP9 PUSH2 0x2F0F JUMP JUMPDEST SWAP1 PUSH20 0xFFFFFFFFFFFFFFFFFFFFFFFFFFFFFFFFFFFFFFFF AND SWAP1 MSTORE JUMP JUMPDEST PUSH2 0xFF7 PUSH2 0xFEE PUSH2 0xF0D PUSH2 0xF63 PUSH2 0xF01 PUSH2 0xFE9 DUP10 PUSH2 0x330F JUMP JUMPDEST PUSH2 0x3336 JUMP JUMPDEST PUSH2 0xFB6 DUP9 PUSH2 0x2F25 JUMP JUMPDEST DUP8 PUSH2 0x2F58 JUMP JUMPDEST MLOAD DUP5 ADDRESS SWAP2 PUSH2 0x45C9 JUMP JUMPDEST PUSH2 0x2F7A JUMP JUMPDEST PUSH2 0xED9 JUMP JUMPDEST PUSH2 0x107B PUSH2 0x1006 SWAP2 PUSH2 0x1035 PUSH2 0x102C PUSH2 0xF0D PUSH2 0xF63 PUSH2 0xF01 DUP9 PUSH2 0x330F JUMP JUMPDEST PUSH2 0xFB6 DUP12 PUSH2 0x2F0F JUMP JUMPDEST PUSH2 0x105A PUSH2 0x1041 DUP11 PUSH2 0x2F25 JUMP JUMPDEST PUSH20 0xD500B1D8E8EF31E21C99D1DB9A6444D3ADF1270 SWAP1 MSTORE JUMP JUMPDEST PUSH2 0xFF7 PUSH2 0x1072 PUSH2 0xF0D PUSH2 0xF63 PUSH2 0xF01 PUSH2 0xFE9 DUP10 PUSH2 0x330F JUMP JUMPDEST PUSH2 0xFB6 DUP12 PUSH2 0x2F36 JUMP JUMPDEST MLOAD DUP8 ADDRESS SWAP2 PUSH2 0x45C9 JUMP JUMPDEST SWAP1 POP PUSH2 0x10A4 PUSH2 0xF69 PUSH2 0xF0D PUSH2 0x109E PUSH2 0xF01 PUSH2 0xFE9 DUP9 PUSH2 0x330F JUMP JUMPDEST DUP10 PUSH2 0x2F58 JUMP JUMPDEST EQ CODESIZE PUSH2 0xF8B JUMP JUMPDEST POP CALLVALUE PUSH2 0x41B JUMPI PUSH1 0x20 PUSH2 0xAE9 PUSH2 0x110B PUSH1 0x2 PUSH2 0x10DC PUSH2 0x10D6 PUSH2 0x10CA CALLDATASIZE PUSH2 0x903 JUMP JUMPDEST SWAP7 SWAP2 SWAP3 SWAP1 SWAP3 ADDRESS SWAP1 PUSH2 0x44EE JUMP JUMPDEST SWAP2 PUSH2 0x2D48 JUMP JUMPDEST SWAP3 PUSH32 0xFFFFFFFFFFFFFFFFFFFFFFFFFFFFFFFFFFFFFFFFFFFFFFFFFFFFFFFFFFFFFFFD DUP2 GT PUSH2 0x1128 JUMPI JUMPDEST ADD PUSH2 0x302F JUMP JUMPDEST DUP1 ISZERO PUSH2 0x111B JUMPI JUMPDEST PUSH1 0x40 MLOAD SWAP2 DIV DUP2 MSTORE RETURN JUMPDEST PUSH2 0x1123 PUSH2 0x304B JUMP JUMPDEST PUSH2 0x1112 JUMP JUMPDEST PUSH2 0x1130 PUSH2 0x2883 JUMP JUMPDEST PUSH2 0x1105 JUMP JUMPDEST POP CALLVALUE PUSH2 0x41B JUMPI PUSH1 0x20 PUSH32 0xFFFFFFFFFFFFFFFFFFFFFFFFFFFFFFFFFFFFFFFFFFFFFFFFFFFFFFFFFFFFFFFC CALLDATASIZE ADD SLT PUSH2 0x41B JUMPI PUSH1 0x4 CALLDATALOAD PUSH1 0x9 SLOAD DUP2 LT ISZERO PUSH2 0x41B JUMPI PUSH20 0xFFFFFFFFFFFFFFFFFFFFFFFFFFFFFFFFFFFFFFFF PUSH1 0x20 SWAP2 PUSH1 0x9 PUSH1 0x0 MSTORE PUSH32 0x6E1540171B6C0C960B71A7020D9F60077F6AF931A8BBF590DA0223DACF75C7AF ADD SLOAD AND PUSH1 0x40 MLOAD SWAP1 DUP2 MSTORE RETURN JUMPDEST POP CALLVALUE PUSH2 0x41B JUMPI PUSH1 0x20 PUSH32 0xFFFFFFFFFFFFFFFFFFFFFFFFFFFFFFFFFFFFFFFFFFFFFFFFFFFFFFFFFFFFFFFC CALLDATASIZE ADD SLT PUSH2 0x41B JUMPI PUSH1 0x4 CALLDATALOAD PUSH1 0x5 SLOAD DUP2 LT ISZERO PUSH2 0x41B JUMPI PUSH20 0xFFFFFFFFFFFFFFFFFFFFFFFFFFFFFFFFFFFFFFFF PUSH1 0x20 SWAP2 PUSH1 0x5 PUSH1 0x0 MSTORE PUSH32 0x36B6384B5ECA791C62761152D0C79BB0604C104A5FB6F4EB0703F3154BB3DB0 ADD SLOAD AND PUSH1 0x40 MLOAD SWAP1 DUP2 MSTORE RETURN JUMPDEST PUSH1 0x40 SWAP1 PUSH2 0x559 SWAP4 SWAP3 ISZERO ISZERO DUP2 MSTORE DUP2 PUSH1 0x20 DUP3 ADD MSTORE ADD SWAP1 PUSH2 0x4D9 JUMP JUMPDEST POP CALLVALUE PUSH2 0x41B JUMPI PUSH2 0x1269 CALLDATASIZE PUSH2 0xE21 JUMP JUMPDEST POP POP PUSH2 0x1277 PUSH1 0xD SLOAD TIMESTAMP PUSH2 0x2E42 JUMP JUMPDEST PUSH1 0xE SLOAD LT PUSH2 0x1283 PUSH2 0x2EB8 JUMP JUMPDEST PUSH2 0x128B PUSH2 0x2E59 JUMP JUMPDEST SWAP1 PUSH1 0x20 SWAP3 PUSH2 0x12AE DUP5 DUP5 ADD PUSH20 0xD500B1D8E8EF31E21C99D1DB9A6444D3ADF1270 SWAP1 MSTORE JUMP JUMPDEST PUSH1 0x40 SWAP3 PUSH2 0x12D0 DUP5 DUP3 ADD PUSH20 0xAB594600376EC9FD91F8E885DADF0CE036862DE0 SWAP1 MSTORE JUMP JUMPDEST PUSH2 0x12D8 PUSH2 0x2E59 JUMP JUMPDEST PUSH20 0xBBBA073C31BF03B8ACF7C28EF0738DECF3695683 DUP2 DUP8 ADD MSTORE PUSH20 0x3D49406EDD4D52FB7FFD25485F32E073B529C924 DUP2 DUP7 ADD MSTORE PUSH2 0x1312 PUSH2 0x2E59 JUMP JUMPDEST PUSH20 0x1BFD67037B42CF73ACF2047067BD4F2C47D9BFD6 DUP8 DUP3 ADD MSTORE SWAP1 PUSH20 0xC907E116054AD103354F2D350FD2514433D57F6F DUP3 DUP8 ADD MSTORE PUSH2 0x134D PUSH2 0x2E59 JUMP JUMPDEST PUSH20 0x7CEB23FD6BC0ADD59E62AC25578270CFF1B9F619 DUP9 DUP3 ADD MSTORE SWAP3 PUSH20 0xF9680D99D6C9589E2A93A78A04A279E509205945 DUP5 DUP9 ADD MSTORE PUSH2 0x1389 DUP7 PUSH2 0x2F0F JUMP JUMPDEST MSTORE PUSH2 0x1393 DUP6 PUSH2 0x2F0F JUMP JUMPDEST POP PUSH2 0x139D DUP6 PUSH2 0x2F25 JUMP JUMPDEST MSTORE PUSH2 0x13A7 DUP5 PUSH2 0x2F25 JUMP JUMPDEST POP PUSH2 0x13B1 DUP5 PUSH2 0x2F36 JUMP JUMPDEST MSTORE PUSH2 0x13BB DUP4 PUSH2 0x2F36 JUMP JUMPDEST POP PUSH2 0x13C5 DUP4 PUSH2 0x2F47 JUMP JUMPDEST MSTORE PUSH2 0x13CF DUP3 PUSH2 0x2F47 JUMP JUMPDEST POP PUSH1 0x0 SWAP4 DUP5 JUMPDEST DUP4 MLOAD PUSH1 0xFF DUP8 AND SWAP1 DUP2 LT ISZERO PUSH2 0x1602 JUMPI PUSH2 0x1588 SWAP2 PUSH2 0x1582 SWAP2 PUSH2 0x1579 PUSH2 0x1561 PUSH2 0x1557 PUSH2 0x1526 PUSH1 0xFF DUP12 DUP7 DUP12 DUP16 PUSH2 0x142B PUSH2 0xF69 DUP1 DUP5 PUSH2 0x140F DUP8 DUP10 PUSH2 0x2F58 JUMP JUMPDEST MLOAD ADD MLOAD PUSH20 0xFFFFFFFFFFFFFFFFFFFFFFFFFFFFFFFFFFFFFFFF AND SWAP1 JUMP JUMPDEST SWAP1 PUSH2 0x14B7 PUSH2 0x788 DUP3 PUSH2 0x140F DUP2 MLOAD SWAP8 PUSH32 0x70A0823100000000000000000000000000000000000000000000000000000000 DUP10 MSTORE PUSH1 0x4 SWAP9 DUP9 DUP2 DUP1 PUSH2 0x148C DUP14 ADDRESS SWAP1 DUP4 ADD SWAP2 SWAP1 SWAP2 PUSH20 0xFFFFFFFFFFFFFFFFFFFFFFFFFFFFFFFFFFFFFFFF PUSH1 0x20 DUP3 ADD SWAP4 AND SWAP1 MSTORE JUMP JUMPDEST SUB DUP2 DUP12 GAS STATICCALL SWAP1 DUP2 ISZERO PUSH2 0x15F5 JUMPI JUMPDEST PUSH1 0x0 SWAP2 PUSH2 0x15C8 JUMPI JUMPDEST POP PUSH1 0x80 PUSH2 0x14AE DUP4 DUP14 PUSH2 0x2F58 JUMP JUMPDEST MLOAD ADD MSTORE DUP10 PUSH2 0x2F58 JUMP JUMPDEST PUSH1 0xE0 PUSH2 0x14C3 DUP14 DUP9 PUSH2 0x2F58 JUMP JUMPDEST MLOAD ADD MSTORE MLOAD SWAP3 DUP4 DUP1 SWAP3 PUSH32 0x313CE56700000000000000000000000000000000000000000000000000000000 DUP3 MSTORE GAS STATICCALL SWAP1 DUP2 ISZERO PUSH2 0x15BB JUMPI JUMPDEST PUSH1 0x0 SWAP2 PUSH2 0x158E JUMPI JUMPDEST POP PUSH2 0x1511 DUP9 PUSH1 0x60 SWAP5 DUP6 SWAP4 AND SWAP4 PUSH2 0x2F58 JUMP JUMPDEST MLOAD ADD MSTORE PUSH2 0x151E DUP7 DUP14 PUSH2 0x2F58 JUMP JUMPDEST MLOAD ADD MLOAD PUSH2 0x2DF8 JUMP JUMPDEST PUSH2 0xAE9 PUSH2 0x1551 DUP13 PUSH1 0xE0 PUSH2 0x1548 DUP10 PUSH1 0x80 PUSH2 0x153F DUP3 DUP7 PUSH2 0x2F58 JUMP JUMPDEST MLOAD ADD MLOAD SWAP4 PUSH2 0x2F58 JUMP JUMPDEST MLOAD ADD MLOAD SWAP1 PUSH2 0x2FF2 JUMP JUMPDEST SWAP2 PUSH2 0x302F JUMP JUMPDEST PUSH4 0x5F5E100 SWAP1 DIV SWAP1 JUMP JUMPDEST SWAP2 PUSH1 0xA0 SWAP3 DUP4 PUSH2 0x1570 DUP4 DUP13 PUSH2 0x2F58 JUMP JUMPDEST MLOAD ADD MSTORE DUP9 PUSH2 0x2F58 JUMP JUMPDEST MLOAD ADD MLOAD SWAP1 PUSH2 0x28B3 JUMP JUMPDEST SWAP6 PUSH2 0x2F7A JUMP JUMPDEST SWAP5 PUSH2 0x13D5 JUMP JUMPDEST PUSH2 0x15AE SWAP2 POP DUP13 DUP14 RETURNDATASIZE LT PUSH2 0x15B4 JUMPI JUMPDEST PUSH2 0x15A6 DUP2 DUP4 PUSH2 0x1B6E JUMP JUMPDEST DUP2 ADD SWAP1 PUSH2 0x2F9B JUMP JUMPDEST CODESIZE PUSH2 0x1500 JUMP JUMPDEST POP RETURNDATASIZE PUSH2 0x159C JUMP JUMPDEST PUSH2 0x15C3 PUSH2 0x2D3B JUMP JUMPDEST PUSH2 0x14F8 JUMP JUMPDEST PUSH2 0x15E8 SWAP2 POP DUP10 RETURNDATASIZE DUP12 GT PUSH2 0x15EE JUMPI JUMPDEST PUSH2 0x15E0 DUP2 DUP4 PUSH2 0x1B6E JUMP JUMPDEST DUP2 ADD SWAP1 PUSH2 0x2F8C JUMP JUMPDEST CODESIZE PUSH2 0x14A1 JUMP JUMPDEST POP RETURNDATASIZE PUSH2 0x15D6 JUMP JUMPDEST PUSH2 0x15FD PUSH2 0x2D3B JUMP JUMPDEST PUSH2 0x1499 JUMP JUMPDEST POP SWAP2 SWAP1 SWAP5 POP PUSH1 0x0 JUMPDEST DUP4 MLOAD PUSH1 0xFF DUP3 AND SWAP1 DUP2 LT ISZERO PUSH2 0x1659 JUMPI SWAP1 DUP2 PUSH1 0xC0 PUSH2 0x164C PUSH2 0x1645 PUSH1 0xA0 PUSH2 0x1631 PUSH2 0x1654 SWAP8 DUP12 PUSH2 0x2F58 JUMP JUMPDEST MLOAD ADD MLOAD PUSH2 0x163F DUP11 MLOAD DUP11 PUSH2 0x307B JUMP JUMPDEST SWAP1 PUSH2 0x3091 JUMP JUMPDEST SWAP3 DUP9 PUSH2 0x2F58 JUMP JUMPDEST MLOAD ADD MSTORE PUSH2 0x2F7A JUMP JUMPDEST PUSH2 0x160A JUMP JUMPDEST DUP6 DUP4 DUP9 DUP8 PUSH1 0x0 SWAP2 DUP3 SWAP5 DUP4 SWAP5 PUSH2 0x1676 PUSH2 0x1671 DUP6 MLOAD PUSH2 0x2E14 JUMP JUMPDEST PUSH2 0x30FD JUMP JUMPDEST SWAP3 PUSH2 0x168C PUSH2 0x1671 PUSH2 0x1687 DUP8 MLOAD PUSH2 0x2E14 JUMP JUMPDEST PUSH2 0x2FB4 JUMP JUMPDEST DUP7 SWAP2 JUMPDEST PUSH2 0x1699 DUP8 MLOAD PUSH2 0x2E14 JUMP JUMPDEST SWAP5 PUSH1 0xFF SWAP5 DUP6 DUP6 AND SWAP7 DUP8 LT ISZERO PUSH2 0x1968 JUMPI PUSH1 0x0 JUMPDEST DUP10 MLOAD DUP8 DUP3 AND SWAP1 DUP2 LT ISZERO PUSH2 0x1726 JUMPI PUSH1 0xC0 DUP12 DUP14 DUP3 DUP5 DUP2 PUSH2 0x16C9 DUP3 DUP7 PUSH2 0x2F58 JUMP JUMPDEST MLOAD ADD MLOAD ISZERO ISZERO SWAP4 DUP5 PUSH2 0x170D JUMPI JUMPDEST POP POP POP POP PUSH2 0x16EE JUMPI JUMPDEST POP POP PUSH2 0x16E9 SWAP1 PUSH2 0x2F7A JUMP JUMPDEST PUSH2 0x16AB JUMP JUMPDEST SWAP1 SWAP14 POP DUP2 SWAP12 POP PUSH2 0x1702 PUSH2 0x16E9 SWAP3 SWAP15 DUP13 PUSH2 0x2F58 JUMP JUMPDEST MLOAD ADD MLOAD SWAP11 SWAP1 DUP15 PUSH2 0x16DE JUMP JUMPDEST PUSH2 0x1719 SWAP3 SWAP4 SWAP5 POP PUSH2 0x2F58 JUMP JUMPDEST MLOAD ADD MLOAD SGT DUP14 DUP3 DUP5 DUP16 PUSH2 0x16D5 JUMP JUMPDEST POP SWAP7 SWAP11 PUSH32 0x7FFFFFFFFFFFFFFFFFFFFFFFFFFFFFFFFFFFFFFFFFFFFFFFFFFFFFFFFFFFFFFF SWAP11 POP SWAP5 SWAP8 SWAP4 SWAP7 POP SWAP2 SWAP5 SWAP2 SWAP1 PUSH1 0x0 JUMPDEST DUP10 MLOAD DUP14 DUP6 DUP4 AND SWAP2 DUP3 LT ISZERO PUSH2 0x17D5 JUMPI POP PUSH1 0xC0 DUP12 DUP14 DUP3 DUP5 DUP2 PUSH2 0x1778 DUP3 DUP7 PUSH2 0x2F58 JUMP JUMPDEST MLOAD ADD MLOAD ISZERO ISZERO SWAP4 DUP5 PUSH2 0x17BC JUMPI JUMPDEST POP POP POP POP PUSH2 0x179D JUMPI JUMPDEST POP POP PUSH2 0x1798 SWAP1 PUSH2 0x2F7A JUMP JUMPDEST PUSH2 0x1758 JUMP JUMPDEST SWAP1 SWAP7 POP DUP2 SWAP12 POP PUSH2 0x17B1 PUSH2 0x1798 SWAP3 SWAP8 DUP13 PUSH2 0x2F58 JUMP JUMPDEST MLOAD ADD MLOAD SWAP11 SWAP1 DUP15 PUSH2 0x178D JUMP JUMPDEST PUSH2 0x17C8 SWAP3 SWAP4 SWAP5 POP PUSH2 0x2F58 JUMP JUMPDEST MLOAD ADD MLOAD SLT DUP14 DUP3 DUP5 DUP16 PUSH2 0x1784 JUMP JUMPDEST PUSH2 0x18F7 SWAP3 POP DUP9 SWAP8 DUP9 SWAP3 POP PUSH2 0x18F1 DUP2 SWAP16 PUSH2 0x1006 SWAP7 SWAP12 DUP16 DUP12 SWAP16 SWAP10 SWAP15 SWAP12 SWAP3 PUSH2 0x140F SWAP2 PUSH2 0x18DC SWAP5 DUP14 PUSH2 0x190F SWAP15 PUSH2 0x140F SWAP11 AND SWAP4 PUSH1 0xC0 SWAP2 DUP3 PUSH2 0x1811 DUP8 DUP8 PUSH2 0x2F58 JUMP JUMPDEST MLOAD ADD MLOAD SWAP11 AND DUP1 SWAP11 PUSH2 0x182E DUP5 PUSH2 0x1826 DUP5 DUP10 PUSH2 0x2F58 JUMP JUMPDEST MLOAD ADD MLOAD PUSH2 0x3475 JUMP JUMPDEST SLT ISZERO PUSH2 0x1918 JUMPI DUP3 PUSH2 0x1848 PUSH2 0x18D6 SWAP5 PUSH2 0x1826 PUSH1 0x0 SWAP5 DUP10 PUSH2 0x2F58 JUMP JUMPDEST PUSH2 0x1852 DUP5 DUP8 PUSH2 0x2F58 JUMP JUMPDEST MSTORE PUSH2 0x185D DUP4 DUP7 PUSH2 0x2F58 JUMP JUMPDEST MLOAD PUSH2 0x1876 DUP3 PUSH2 0x186C DUP11 DUP11 PUSH2 0x2F58 JUMP JUMPDEST MLOAD ADD SWAP2 DUP3 MLOAD PUSH2 0x3091 JUMP JUMPDEST SWAP1 MSTORE PUSH2 0x1882 DUP13 DUP8 PUSH2 0x2F58 JUMP JUMPDEST MLOAD ADD MSTORE PUSH2 0x18D0 PUSH2 0x18B3 PUSH2 0x189E PUSH2 0x1898 DUP5 DUP8 PUSH2 0x2F58 JUMP JUMPDEST MLOAD PUSH2 0x322D JUMP JUMPDEST PUSH1 0xE0 PUSH2 0x18AA DUP10 DUP10 PUSH2 0x2F58 JUMP JUMPDEST MLOAD ADD MLOAD SWAP1 PUSH2 0x32A0 JUMP JUMPDEST PUSH2 0x18CA PUSH2 0x18C5 PUSH1 0x60 PUSH2 0x151E DUP11 DUP11 PUSH2 0x2F58 JUMP JUMPDEST PUSH2 0x302F JUMP JUMPDEST SWAP1 PUSH2 0x32A0 JUMP JUMPDEST SWAP3 PUSH2 0x2F58 JUMP JUMPDEST MSTORE PUSH2 0x2F58 JUMP JUMPDEST PUSH2 0xFB6 PUSH2 0x18EB PUSH2 0xF01 DUP11 PUSH2 0x330F JUMP JUMPDEST DUP12 PUSH2 0x2F58 JUMP JUMPDEST DUP13 PUSH2 0x2F58 JUMP JUMPDEST PUSH2 0xFB6 PUSH2 0x1909 PUSH2 0xF01 PUSH2 0xFE9 DUP7 PUSH2 0x330F JUMP JUMPDEST DUP7 PUSH2 0x2F58 JUMP JUMPDEST SWAP2 SWAP4 SWAP3 SWAP4 PUSH2 0x168F JUMP JUMPDEST POP PUSH1 0x0 DUP3 PUSH2 0x192D PUSH2 0x18D6 SWAP5 PUSH2 0x1826 DUP10 DUP10 PUSH2 0x2F58 JUMP JUMPDEST PUSH2 0x1937 DUP5 DUP8 PUSH2 0x2F58 JUMP JUMPDEST MSTORE DUP12 PUSH2 0x195C DUP3 PUSH2 0x1952 PUSH2 0x194A DUP8 DUP11 PUSH2 0x2F58 JUMP JUMPDEST MLOAD SWAP4 DUP11 PUSH2 0x2F58 JUMP JUMPDEST MLOAD ADD SWAP2 DUP3 MLOAD PUSH2 0x31C1 JUMP JUMPDEST SWAP1 MSTORE PUSH2 0x1882 DUP8 DUP8 PUSH2 0x2F58 JUMP JUMPDEST SWAP2 SWAP1 PUSH2 0x19AD PUSH2 0x5E8 SWAP3 PUSH2 0x1981 DUP11 DUP5 MLOAD SWAP8 DUP9 SWAP4 DUP5 ADD PUSH2 0x3392 JUMP JUMPDEST SUB PUSH32 0xFFFFFFFFFFFFFFFFFFFFFFFFFFFFFFFFFFFFFFFFFFFFFFFFFFFFFFFFFFFFFFE0 DUP2 ADD DUP7 MSTORE DUP6 PUSH2 0x1B6E JUMP JUMPDEST MLOAD SWAP3 DUP4 SWAP3 DUP4 PUSH2 0x1241 JUMP JUMPDEST POP CALLVALUE PUSH2 0x41B JUMPI PUSH1 0x20 PUSH32 0xFFFFFFFFFFFFFFFFFFFFFFFFFFFFFFFFFFFFFFFFFFFFFFFFFFFFFFFFFFFFFFFC CALLDATASIZE ADD SLT PUSH2 0x41B JUMPI PUSH20 0xFFFFFFFFFFFFFFFFFFFFFFFFFFFFFFFFFFFFFFFF PUSH2 0x1A04 PUSH2 0x3F8 JUMP JUMPDEST AND PUSH1 0x0 MSTORE PUSH1 0x0 PUSH1 0x20 MSTORE PUSH1 0x20 PUSH1 0x40 PUSH1 0x0 KECCAK256 SLOAD PUSH1 0x40 MLOAD SWAP1 DUP2 MSTORE RETURN JUMPDEST POP CALLVALUE PUSH2 0x41B JUMPI PUSH1 0x0 PUSH32 0xFFFFFFFFFFFFFFFFFFFFFFFFFFFFFFFFFFFFFFFFFFFFFFFFFFFFFFFFFFFFFFFC CALLDATASIZE ADD SLT PUSH2 0x41B JUMPI PUSH1 0x20 PUSH1 0x40 MLOAD PUSH20 0xF9680D99D6C9589E2A93A78A04A279E509205945 DUP2 MSTORE RETURN JUMPDEST POP CALLVALUE PUSH2 0x41B JUMPI PUSH1 0xC0 PUSH32 0xFFFFFFFFFFFFFFFFFFFFFFFFFFFFFFFFFFFFFFFFFFFFFFFFFFFFFFFFFFFFFFFC CALLDATASIZE ADD SLT PUSH2 0x41B JUMPI PUSH2 0x19 PUSH1 0xA4 CALLDATALOAD PUSH1 0x84 CALLDATALOAD PUSH1 0x64 CALLDATALOAD PUSH1 0x44 CALLDATALOAD PUSH1 0x24 CALLDATALOAD PUSH1 0x4 CALLDATALOAD PUSH2 0x3DC1 JUMP JUMPDEST POP CALLVALUE PUSH2 0x41B JUMPI PUSH1 0x20 PUSH32 0xFFFFFFFFFFFFFFFFFFFFFFFFFFFFFFFFFFFFFFFFFFFFFFFFFFFFFFFFFFFFFFFC CALLDATASIZE ADD SLT PUSH2 0x41B JUMPI PUSH2 0x19 PUSH1 0x4 CALLDATALOAD PUSH2 0x3E49 JUMP JUMPDEST POP CALLVALUE PUSH2 0x41B JUMPI PUSH1 0x0 PUSH32 0xFFFFFFFFFFFFFFFFFFFFFFFFFFFFFFFFFFFFFFFFFFFFFFFFFFFFFFFFFFFFFFFC CALLDATASIZE ADD SLT PUSH2 0x41B JUMPI PUSH1 0x20 PUSH1 0x40 MLOAD PUSH20 0xAB594600376EC9FD91F8E885DADF0CE036862DE0 DUP2 MSTORE RETURN JUMPDEST POP PUSH32 0x4E487B7100000000000000000000000000000000000000000000000000000000 PUSH1 0x0 MSTORE PUSH1 0x41 PUSH1 0x4 MSTORE PUSH1 0x24 PUSH1 0x0 REVERT JUMPDEST SWAP1 PUSH1 0x1F PUSH32 0xFFFFFFFFFFFFFFFFFFFFFFFFFFFFFFFFFFFFFFFFFFFFFFFFFFFFFFFFFFFFFFE0 SWAP2 ADD AND DUP2 ADD SWAP1 DUP2 LT PUSH8 0xFFFFFFFFFFFFFFFF DUP3 GT OR PUSH2 0x1BAF JUMPI PUSH1 0x40 MSTORE JUMP JUMPDEST PUSH2 0x1BB7 PUSH2 0x1B3E JUMP JUMPDEST PUSH1 0x40 MSTORE JUMP JUMPDEST PUSH1 0x20 SWAP1 PUSH8 0xFFFFFFFFFFFFFFFF DUP2 GT PUSH2 0x1BD6 JUMPI JUMPDEST PUSH1 0x5 SHL ADD SWAP1 JUMP JUMPDEST PUSH2 0x1BDE PUSH2 0x1B3E JUMP JUMPDEST PUSH2 0x1BCF JUMP JUMPDEST DUP2 PUSH1 0x1F DUP3 ADD SLT ISZERO PUSH2 0x41B JUMPI DUP1 CALLDATALOAD SWAP2 PUSH2 0x1BFA DUP4 PUSH2 0x1BBC JUMP JUMPDEST SWAP3 PUSH2 0x1C08 PUSH1 0x40 MLOAD SWAP5 DUP6 PUSH2 0x1B6E JUMP JUMPDEST DUP1 DUP5 MSTORE PUSH1 0x20 SWAP3 DUP4 DUP1 DUP7 ADD SWAP3 PUSH1 0x5 SHL DUP3 ADD ADD SWAP3 DUP4 GT PUSH2 0x41B JUMPI DUP4 ADD SWAP1 JUMPDEST DUP3 DUP3 LT PUSH2 0x1C32 JUMPI POP POP POP POP SWAP1 JUMP JUMPDEST DUP2 CALLDATALOAD PUSH20 0xFFFFFFFFFFFFFFFFFFFFFFFFFFFFFFFFFFFFFFFF DUP2 AND DUP2 SUB PUSH2 0x41B JUMPI DUP2 MSTORE SWAP1 DUP4 ADD SWAP1 DUP4 ADD PUSH2 0x1C24 JUMP JUMPDEST POP CALLVALUE PUSH2 0x41B JUMPI PUSH1 0xA0 PUSH32 0xFFFFFFFFFFFFFFFFFFFFFFFFFFFFFFFFFFFFFFFFFFFFFFFFFFFFFFFFFFFFFFFC CALLDATASIZE ADD SLT PUSH2 0x41B JUMPI PUSH1 0x44 CALLDATALOAD PUSH8 0xFFFFFFFFFFFFFFFF DUP2 GT PUSH2 0x41B JUMPI PUSH2 0x1CAE SWAP1 CALLDATASIZE SWAP1 PUSH1 0x4 ADD PUSH2 0x1BE3 JUMP JUMPDEST PUSH1 0x64 CALLDATALOAD SWAP1 PUSH20 0xFFFFFFFFFFFFFFFFFFFFFFFFFFFFFFFFFFFFFFFF DUP1 DUP4 AND DUP1 SWAP4 SUB PUSH2 0x41B JUMPI PUSH1 0x0 SWAP2 PUSH2 0x1D2B SWAP2 PUSH1 0xF SLOAD AND SWAP1 DUP4 PUSH1 0x40 MLOAD DUP1 SWAP7 DUP2 SWAP6 DUP3 SWAP5 PUSH32 0x38ED173900000000000000000000000000000000000000000000000000000000 DUP5 MSTORE PUSH1 0x4 CALLDATALOAD PUSH1 0x4 DUP6 ADD MSTORE PUSH1 0x24 CALLDATALOAD PUSH1 0x24 DUP6 ADD MSTORE PUSH1 0xA0 PUSH1 0x44 DUP6 ADD MSTORE PUSH1 0xA4 DUP5 ADD SWAP1 PUSH2 0x3348 JUMP JUMPDEST SWAP1 PUSH1 0x64 DUP4 ADD MSTORE PUSH1 0x84 CALLDATALOAD PUSH1 0x84 DUP4 ADD MSTORE SUB SWAP3 GAS CALL DUP1 ISZERO PUSH2 0x1D66 JUMPI JUMPDEST PUSH2 0x1D4A JUMPI STOP JUMPDEST PUSH2 0x19 SWAP1 RETURNDATASIZE DUP1 PUSH1 0x0 DUP4 RETURNDATACOPY PUSH2 0x1D5E DUP2 DUP4 PUSH2 0x1B6E JUMP JUMPDEST DUP2 ADD SWAP1 PUSH2 0x454F JUMP JUMPDEST PUSH2 0x1D6E PUSH2 0x2D3B JUMP JUMPDEST PUSH2 0x1D44 JUMP JUMPDEST POP CALLVALUE PUSH2 0x41B JUMPI PUSH1 0x0 PUSH32 0xFFFFFFFFFFFFFFFFFFFFFFFFFFFFFFFFFFFFFFFFFFFFFFFFFFFFFFFFFFFFFFFC CALLDATASIZE ADD SLT PUSH2 0x41B JUMPI PUSH1 0x20 PUSH1 0xE SLOAD PUSH1 0x40 MLOAD SWAP1 DUP2 MSTORE RETURN JUMPDEST POP CALLVALUE PUSH2 0x41B JUMPI PUSH1 0x0 DUP1 PUSH32 0xFFFFFFFFFFFFFFFFFFFFFFFFFFFFFFFFFFFFFFFFFFFFFFFFFFFFFFFFFFFFFFFC CALLDATASIZE ADD SLT PUSH2 0x6B6 JUMPI PUSH1 0x40 MLOAD SWAP1 DUP1 PUSH1 0x4 SLOAD SWAP1 PUSH1 0x1 SWAP2 DUP1 DUP4 SHR SWAP3 DUP1 DUP3 AND SWAP3 DUP4 ISZERO PUSH2 0x1E88 JUMPI JUMPDEST PUSH1 0x20 SWAP3 DUP4 DUP7 LT DUP6 EQ PUSH2 0x67F JUMPI DUP6 DUP9 MSTORE PUSH1 0x20 DUP9 ADD SWAP5 SWAP1 DUP2 ISZERO PUSH2 0x645 JUMPI POP PUSH1 0x1 EQ PUSH2 0x1E2F JUMPI PUSH2 0x5E8 DUP8 PUSH2 0x5DC DUP2 DUP10 SUB DUP3 PUSH2 0x1B6E JUMP JUMPDEST PUSH1 0x4 PUSH1 0x0 MSTORE SWAP5 POP SWAP2 SWAP3 SWAP2 PUSH32 0x8A35ACFBC15FF81A39AE7D344FD709F28E8600B4AA8C65C6B64BFE7FE36BD19B JUMPDEST DUP4 DUP7 LT PUSH2 0x1E77 JUMPI POP POP POP SWAP2 ADD SWAP1 POP PUSH2 0x5DC DUP3 PUSH2 0x5E8 CODESIZE DUP1 PUSH2 0x5CC JUMP JUMPDEST DUP1 SLOAD DUP6 DUP8 ADD MSTORE SWAP5 DUP3 ADD SWAP5 DUP2 ADD PUSH2 0x1E5B JUMP JUMPDEST SWAP4 PUSH1 0x7F AND SWAP4 PUSH2 0x1DFC JUMP JUMPDEST POP CALLVALUE PUSH2 0x41B JUMPI PUSH1 0x20 PUSH32 0xFFFFFFFFFFFFFFFFFFFFFFFFFFFFFFFFFFFFFFFFFFFFFFFFFFFFFFFFFFFFFFFC CALLDATASIZE ADD SLT PUSH2 0x41B JUMPI PUSH1 0x4 CALLDATALOAD PUSH1 0x8 SLOAD DUP2 LT ISZERO PUSH2 0x41B JUMPI PUSH20 0xFFFFFFFFFFFFFFFFFFFFFFFFFFFFFFFFFFFFFFFF PUSH1 0x20 SWAP2 PUSH1 0x8 PUSH1 0x0 MSTORE PUSH32 0xF3F7A9FE364FAAB93B216DA50A3214154F22A0A2B415B23A84C8169E8B636EE3 ADD SLOAD AND PUSH1 0x40 MLOAD SWAP1 DUP2 MSTORE RETURN JUMPDEST POP CALLVALUE PUSH2 0x41B JUMPI PUSH1 0x40 PUSH32 0xFFFFFFFFFFFFFFFFFFFFFFFFFFFFFFFFFFFFFFFFFFFFFFFFFFFFFFFFFFFFFFFC CALLDATASIZE ADD SLT PUSH2 0x41B JUMPI PUSH2 0x1F50 PUSH2 0x3F8 JUMP JUMPDEST PUSH1 0x24 CALLDATALOAD SWAP1 CALLER PUSH1 0x0 MSTORE PUSH1 0x1 PUSH1 0x20 MSTORE PUSH2 0x1F8B DUP2 PUSH1 0x40 PUSH1 0x0 KECCAK256 SWAP1 PUSH20 0xFFFFFFFFFFFFFFFFFFFFFFFFFFFFFFFFFFFFFFFF AND PUSH1 0x0 MSTORE PUSH1 0x20 MSTORE PUSH1 0x40 PUSH1 0x0 KECCAK256 SWAP1 JUMP JUMPDEST SLOAD SWAP2 DUP1 DUP4 LT PUSH2 0x1FA0 JUMPI PUSH2 0x9F4 SWAP3 SUB SWAP1 CALLER PUSH2 0x2B6A JUMP JUMPDEST PUSH1 0x84 PUSH1 0x40 MLOAD PUSH32 0x8C379A000000000000000000000000000000000000000000000000000000000 DUP2 MSTORE PUSH1 0x20 PUSH1 0x4 DUP3 ADD MSTORE PUSH1 0x25 PUSH1 0x24 DUP3 ADD MSTORE PUSH32 0x45524332303A2064656372656173656420616C6C6F77616E63652062656C6F77 PUSH1 0x44 DUP3 ADD MSTORE PUSH32 0x207A65726F000000000000000000000000000000000000000000000000000000 PUSH1 0x64 DUP3 ADD MSTORE REVERT JUMPDEST POP CALLVALUE PUSH2 0x41B JUMPI PUSH1 0x20 PUSH32 0xFFFFFFFFFFFFFFFFFFFFFFFFFFFFFFFFFFFFFFFFFFFFFFFFFFFFFFFFFFFFFFFC CALLDATASIZE ADD SLT PUSH2 0x41B JUMPI PUSH1 0x4 CALLDATALOAD PUSH1 0xA SLOAD DUP2 LT ISZERO PUSH2 0x41B JUMPI PUSH20 0xFFFFFFFFFFFFFFFFFFFFFFFFFFFFFFFFFFFFFFFF PUSH1 0x20 SWAP2 PUSH1 0xA PUSH1 0x0 MSTORE PUSH32 0xC65A7BB8D6351C1CF70C95A316CC6A92839C986682D98BC35F958F4883F9D2A8 ADD SLOAD AND PUSH1 0x40 MLOAD SWAP1 DUP2 MSTORE RETURN JUMPDEST POP CALLVALUE PUSH2 0x41B JUMPI PUSH1 0x40 PUSH32 0xFFFFFFFFFFFFFFFFFFFFFFFFFFFFFFFFFFFFFFFFFFFFFFFFFFFFFFFFFFFFFFFC CALLDATASIZE ADD SLT PUSH2 0x41B JUMPI PUSH2 0x6FE PUSH2 0x20E5 PUSH2 0x3F8 JUMP JUMPDEST PUSH1 0x24 CALLDATALOAD SWAP1 CALLER PUSH2 0x29E1 JUMP JUMPDEST POP CALLVALUE PUSH2 0x41B JUMPI PUSH1 0x40 PUSH32 0xFFFFFFFFFFFFFFFFFFFFFFFFFFFFFFFFFFFFFFFFFFFFFFFFFFFFFFFFFFFFFFFC CALLDATASIZE ADD SLT PUSH2 0x41B JUMPI PUSH2 0x19 PUSH2 0x212A PUSH2 0x3F8 JUMP JUMPDEST PUSH2 0x2132 PUSH2 0x420 JUMP JUMPDEST PUSH1 0x40 MLOAD SWAP2 PUSH32 0x70A0823100000000000000000000000000000000000000000000000000000000 DUP4 MSTORE ADDRESS PUSH1 0x4 DUP5 ADD MSTORE PUSH1 0x20 DUP4 PUSH1 0x24 DUP2 PUSH20 0xFFFFFFFFFFFFFFFFFFFFFFFFFFFFFFFFFFFFFFFF DUP6 AND GAS STATICCALL SWAP3 DUP4 ISZERO PUSH2 0x21B4 JUMPI JUMPDEST PUSH1 0x0 SWAP4 PUSH2 0x2194 JUMPI JUMPDEST POP PUSH2 0x379E JUMP JUMPDEST PUSH2 0x21AD SWAP2 SWAP4 POP PUSH1 0x20 RETURNDATASIZE DUP2 GT PUSH2 0x15EE JUMPI PUSH2 0x15E0 DUP2 DUP4 PUSH2 0x1B6E JUMP JUMPDEST SWAP2 CODESIZE PUSH2 0x218E JUMP JUMPDEST PUSH2 0x21BC PUSH2 0x2D3B JUMP JUMPDEST PUSH2 0x2186 JUMP JUMPDEST POP CALLVALUE PUSH2 0x41B JUMPI PUSH1 0x60 PUSH32 0xFFFFFFFFFFFFFFFFFFFFFFFFFFFFFFFFFFFFFFFFFFFFFFFFFFFFFFFFFFFFFFFC CALLDATASIZE ADD SLT PUSH2 0x41B JUMPI PUSH2 0x21F9 PUSH2 0x420 JUMP JUMPDEST PUSH20 0xFFFFFFFFFFFFFFFFFFFFFFFFFFFFFFFFFFFFFFFF SWAP1 PUSH1 0x44 CALLDATALOAD DUP3 DUP2 AND DUP2 SUB PUSH2 0x41B JUMPI PUSH1 0x40 MLOAD PUSH32 0xA9059CBB00000000000000000000000000000000000000000000000000000000 DUP2 MSTORE PUSH20 0xFFFFFFFFFFFFFFFFFFFFFFFFFFFFFFFFFFFFFFFF SWAP2 SWAP1 SWAP2 AND PUSH1 0x4 DUP1 DUP4 ADD SWAP2 SWAP1 SWAP2 MSTORE CALLDATALOAD PUSH1 0x24 DUP3 ADD MSTORE SWAP2 PUSH1 0x20 SWAP2 DUP4 SWAP2 PUSH1 0x44 SWAP2 DUP4 SWAP2 PUSH1 0x0 SWAP2 AND GAS CALL DUP1 ISZERO PUSH2 0x22AE JUMPI JUMPDEST PUSH2 0x2287 JUMPI STOP JUMPDEST PUSH2 0x19 SWAP1 PUSH1 0x20 RETURNDATASIZE DUP2 GT PUSH2 0x22A7 JUMPI JUMPDEST PUSH2 0x229F DUP2 DUP4 PUSH2 0x1B6E JUMP JUMPDEST DUP2 ADD SWAP1 PUSH2 0x34AD JUMP JUMPDEST POP RETURNDATASIZE PUSH2 0x2295 JUMP JUMPDEST PUSH2 0x22B6 PUSH2 0x2D3B JUMP JUMPDEST PUSH2 0x2281 JUMP JUMPDEST POP CALLVALUE PUSH2 0x41B JUMPI PUSH1 0x0 PUSH32 0xFFFFFFFFFFFFFFFFFFFFFFFFFFFFFFFFFFFFFFFFFFFFFFFFFFFFFFFFFFFFFFFC CALLDATASIZE ADD SLT PUSH2 0x41B JUMPI PUSH1 0x20 PUSH1 0x40 MLOAD PUSH20 0xC907E116054AD103354F2D350FD2514433D57F6F DUP2 MSTORE RETURN JUMPDEST POP CALLVALUE PUSH2 0x41B JUMPI PUSH1 0x0 PUSH32 0xFFFFFFFFFFFFFFFFFFFFFFFFFFFFFFFFFFFFFFFFFFFFFFFFFFFFFFFFFFFFFFFC CALLDATASIZE ADD SLT PUSH2 0x41B JUMPI PUSH1 0x20 PUSH1 0x40 MLOAD PUSH20 0x2791BCA1F2DE4661ED88A30C99A7A9449AA84174 DUP2 MSTORE RETURN JUMPDEST POP CALLVALUE PUSH2 0x41B JUMPI PUSH1 0x0 PUSH32 0xFFFFFFFFFFFFFFFFFFFFFFFFFFFFFFFFFFFFFFFFFFFFFFFFFFFFFFFFFFFFFFFC CALLDATASIZE ADD SLT PUSH2 0x41B JUMPI PUSH1 0x20 PUSH1 0x40 MLOAD PUSH20 0x1BFD67037B42CF73ACF2047067BD4F2C47D9BFD6 DUP2 MSTORE RETURN JUMPDEST POP CALLVALUE PUSH2 0x41B JUMPI PUSH1 0x20 PUSH32 0xFFFFFFFFFFFFFFFFFFFFFFFFFFFFFFFFFFFFFFFFFFFFFFFFFFFFFFFFFFFFFFFC CALLDATASIZE ADD SLT PUSH2 0x41B JUMPI PUSH1 0x40 MLOAD PUSH32 0x23B872DD00000000000000000000000000000000000000000000000000000000 DUP2 MSTORE CALLER PUSH1 0x4 DUP1 DUP4 ADD SWAP2 SWAP1 SWAP2 MSTORE ADDRESS PUSH1 0x24 DUP4 ADD MSTORE CALLDATALOAD PUSH1 0x44 DUP3 ADD DUP2 SWAP1 MSTORE SWAP1 PUSH1 0x20 DUP2 PUSH1 0x64 DUP2 PUSH1 0x0 PUSH20 0x2791BCA1F2DE4661ED88A30C99A7A9449AA84174 GAS CALL DUP1 ISZERO PUSH2 0x24E7 JUMPI JUMPDEST PUSH2 0x24C9 JUMPI JUMPDEST POP PUSH2 0x2448 PUSH2 0x38F7 JUMP JUMPDEST PUSH2 0x2450 PUSH2 0x39D2 JUMP JUMPDEST PUSH2 0x2458 PUSH2 0x3A41 JUMP JUMPDEST PUSH2 0x2460 PUSH2 0x3AB0 JUMP JUMPDEST SWAP2 PUSH2 0x2478 DUP4 PUSH2 0x2473 DUP5 PUSH2 0x2473 DUP6 DUP10 PUSH2 0x28B3 JUMP JUMPDEST PUSH2 0x28B3 JUMP JUMPDEST SWAP4 PUSH2 0x2482 DUP7 PUSH2 0x372C JUMP JUMPDEST DUP5 ISZERO PUSH2 0x24B1 JUMPI SWAP3 PUSH2 0x19 SWAP6 SWAP3 DUP6 SWAP3 PUSH2 0x2499 SWAP6 PUSH2 0x3DC1 JUMP JUMPDEST PUSH2 0x24AA DUP2 PUSH2 0x24A5 PUSH2 0x3B83 JUMP JUMPDEST PUSH2 0x2E42 JUMP JUMPDEST SWAP1 CALLER PUSH2 0x3E7A JUMP JUMPDEST POP POP POP POP POP DUP1 PUSH2 0x24C3 PUSH2 0x19 SWAP3 PUSH2 0x3E49 JUMP JUMPDEST CALLER PUSH2 0x3806 JUMP JUMPDEST PUSH2 0x24E0 SWAP1 PUSH1 0x20 RETURNDATASIZE DUP2 GT PUSH2 0x22A7 JUMPI PUSH2 0x229F DUP2 DUP4 PUSH2 0x1B6E JUMP JUMPDEST POP CODESIZE PUSH2 0x243F JUMP JUMPDEST PUSH2 0x24EF PUSH2 0x2D3B JUMP JUMPDEST PUSH2 0x243A JUMP JUMPDEST POP CALLVALUE PUSH2 0x41B JUMPI PUSH1 0x20 PUSH32 0xFFFFFFFFFFFFFFFFFFFFFFFFFFFFFFFFFFFFFFFFFFFFFFFFFFFFFFFFFFFFFFFC CALLDATASIZE ADD SLT PUSH2 0x41B JUMPI PUSH1 0x4 CALLDATALOAD PUSH1 0xC SLOAD DUP2 LT ISZERO PUSH2 0x41B JUMPI PUSH20 0xFFFFFFFFFFFFFFFFFFFFFFFFFFFFFFFFFFFFFFFF PUSH1 0x20 SWAP2 PUSH1 0xC PUSH1 0x0 MSTORE PUSH32 0xDF6966C971051C3D54EC59162606531493A51404A002842F56009D7E5CF4A8C7 ADD SLOAD AND PUSH1 0x40 MLOAD SWAP1 DUP2 MSTORE RETURN JUMPDEST POP CALLVALUE PUSH2 0x41B JUMPI PUSH1 0x20 PUSH32 0xFFFFFFFFFFFFFFFFFFFFFFFFFFFFFFFFFFFFFFFFFFFFFFFFFFFFFFFFFFFFFFFC CALLDATASIZE ADD SLT PUSH2 0x41B JUMPI PUSH1 0x4 CALLDATALOAD PUSH1 0x7 SLOAD DUP2 LT ISZERO PUSH2 0x41B JUMPI PUSH20 0xFFFFFFFFFFFFFFFFFFFFFFFFFFFFFFFFFFFFFFFF PUSH1 0x20 SWAP2 PUSH1 0x7 PUSH1 0x0 MSTORE PUSH32 0xA66CC928B5EDB82AF9BD49922954155AB7B0942694BEA4CE44661D9A8736C688 ADD SLOAD AND PUSH1 0x40 MLOAD SWAP1 DUP2 MSTORE RETURN JUMPDEST POP CALLVALUE PUSH2 0x41B JUMPI PUSH1 0x0 PUSH32 0xFFFFFFFFFFFFFFFFFFFFFFFFFFFFFFFFFFFFFFFFFFFFFFFFFFFFFFFFFFFFFFFC CALLDATASIZE ADD SLT PUSH2 0x41B JUMPI PUSH1 0x20 PUSH1 0x40 MLOAD PUSH20 0x3D49406EDD4D52FB7FFD25485F32E073B529C924 DUP2 MSTORE RETURN JUMPDEST POP CALLVALUE PUSH2 0x41B JUMPI PUSH1 0x40 PUSH32 0xFFFFFFFFFFFFFFFFFFFFFFFFFFFFFFFFFFFFFFFFFFFFFFFFFFFFFFFFFFFFFFFC CALLDATASIZE ADD SLT PUSH2 0x41B JUMPI PUSH2 0x19 PUSH2 0x2689 PUSH2 0x3F8 JUMP JUMPDEST PUSH20 0xFFFFFFFFFFFFFFFFFFFFFFFFFFFFFFFFFFFFFFFF PUSH2 0x26A6 PUSH2 0x314C JUMP JUMPDEST SWAP2 DUP3 MLOAD ISZERO PUSH2 0x26F1 JUMPI JUMPDEST AND PUSH1 0x20 DUP3 ADD MSTORE DUP1 MLOAD PUSH1 0x1 LT ISZERO PUSH2 0x26E4 JUMPI JUMPDEST PUSH20 0x2791BCA1F2DE4661ED88A30C99A7A9449AA84174 PUSH1 0x40 DUP3 ADD MSTORE ADDRESS SWAP1 PUSH1 0x24 CALLDATALOAD PUSH2 0x45C9 JUMP JUMPDEST PUSH2 0x26EC PUSH2 0x84D JUMP JUMPDEST PUSH2 0x26C0 JUMP JUMPDEST PUSH2 0x26F9 PUSH2 0x84D JUMP JUMPDEST PUSH2 0x26AF JUMP JUMPDEST POP CALLVALUE PUSH2 0x41B JUMPI PUSH1 0x0 PUSH32 0xFFFFFFFFFFFFFFFFFFFFFFFFFFFFFFFFFFFFFFFFFFFFFFFFFFFFFFFFFFFFFFFC CALLDATASIZE ADD SLT PUSH2 0x41B JUMPI PUSH1 0x20 PUSH1 0x40 MLOAD PUSH20 0xA5E0829CACED8FFDD4DE3C43696C57F7D7A678FF DUP2 MSTORE RETURN JUMPDEST POP CALLVALUE PUSH2 0x41B JUMPI PUSH1 0x40 PUSH32 0xFFFFFFFFFFFFFFFFFFFFFFFFFFFFFFFFFFFFFFFFFFFFFFFFFFFFFFFFFFFFFFFC CALLDATASIZE ADD SLT PUSH2 0x41B JUMPI PUSH1 0x20 PUSH2 0x27D9 PUSH2 0x2789 PUSH2 0x3F8 JUMP JUMPDEST PUSH20 0xFFFFFFFFFFFFFFFFFFFFFFFFFFFFFFFFFFFFFFFF PUSH2 0x27A6 PUSH2 0x420 JUMP JUMPDEST SWAP2 AND PUSH1 0x0 MSTORE PUSH1 0x1 DUP4 MSTORE PUSH1 0x40 PUSH1 0x0 KECCAK256 SWAP1 PUSH20 0xFFFFFFFFFFFFFFFFFFFFFFFFFFFFFFFFFFFFFFFF AND PUSH1 0x0 MSTORE PUSH1 0x20 MSTORE PUSH1 0x40 PUSH1 0x0 KECCAK256 SWAP1 JUMP JUMPDEST SLOAD PUSH1 0x40 MLOAD SWAP1 DUP2 MSTORE RETURN JUMPDEST POP CALLVALUE PUSH2 0x41B JUMPI PUSH1 0x0 PUSH32 0xFFFFFFFFFFFFFFFFFFFFFFFFFFFFFFFFFFFFFFFFFFFFFFFFFFFFFFFFFFFFFFFC CALLDATASIZE ADD SLT PUSH2 0x41B JUMPI PUSH1 0x20 PUSH20 0xFFFFFFFFFFFFFFFFFFFFFFFFFFFFFFFFFFFFFFFF PUSH1 0xF SLOAD AND PUSH1 0x40 MLOAD SWAP1 DUP2 MSTORE RETURN JUMPDEST POP CALLVALUE PUSH2 0x41B JUMPI PUSH1 0x0 PUSH32 0xFFFFFFFFFFFFFFFFFFFFFFFFFFFFFFFFFFFFFFFFFFFFFFFFFFFFFFFFFFFFFFFC CALLDATASIZE ADD SLT PUSH2 0x41B JUMPI PUSH1 0x20 PUSH1 0x40 MLOAD PUSH20 0xD500B1D8E8EF31E21C99D1DB9A6444D3ADF1270 DUP2 MSTORE RETURN JUMPDEST POP PUSH32 0x4E487B7100000000000000000000000000000000000000000000000000000000 PUSH1 0x0 MSTORE PUSH1 0x11 PUSH1 0x4 MSTORE PUSH1 0x24 PUSH1 0x0 REVERT JUMPDEST DUP2 NOT DUP2 GT PUSH2 0x28BF JUMPI ADD SWAP1 JUMP JUMPDEST PUSH2 0x28C7 PUSH2 0x2883 JUMP JUMPDEST ADD SWAP1 JUMP JUMPDEST ISZERO PUSH2 0x28D2 JUMPI JUMP JUMPDEST PUSH1 0x84 PUSH1 0x40 MLOAD PUSH32 0x8C379A000000000000000000000000000000000000000000000000000000000 DUP2 MSTORE PUSH1 0x20 PUSH1 0x4 DUP3 ADD MSTORE PUSH1 0x23 PUSH1 0x24 DUP3 ADD MSTORE PUSH32 0x45524332303A207472616E7366657220746F20746865207A65726F2061646472 PUSH1 0x44 DUP3 ADD MSTORE PUSH32 0x6573730000000000000000000000000000000000000000000000000000000000 PUSH1 0x64 DUP3 ADD MSTORE REVERT JUMPDEST ISZERO PUSH2 0x295D JUMPI JUMP JUMPDEST PUSH1 0x84 PUSH1 0x40 MLOAD PUSH32 0x8C379A000000000000000000000000000000000000000000000000000000000 DUP2 MSTORE PUSH1 0x20 PUSH1 0x4 DUP3 ADD MSTORE PUSH1 0x26 PUSH1 0x24 DUP3 ADD MSTORE PUSH32 0x45524332303A207472616E7366657220616D6F756E7420657863656564732062 PUSH1 0x44 DUP3 ADD MSTORE PUSH32 0x616C616E63650000000000000000000000000000000000000000000000000000 PUSH1 0x64 DUP3 ADD MSTORE REVERT JUMPDEST SWAP2 SWAP1 PUSH20 0xFFFFFFFFFFFFFFFFFFFFFFFFFFFFFFFFFFFFFFFF SWAP1 DUP2 DUP5 AND SWAP3 DUP4 ISZERO PUSH2 0x2AE6 JUMPI PUSH2 0x2AC4 DUP3 PUSH32 0xDDF252AD1BE2C89B69C2B068FC378DAA952BA7F163C4A11628F55A4DF523B3EF SWAP5 PUSH2 0x2AE1 SWAP5 AND SWAP7 PUSH2 0x2A3A DUP9 ISZERO ISZERO PUSH2 0x28CB JUMP JUMPDEST PUSH2 0x2A9D DUP5 PUSH2 0x2A68 DUP4 PUSH20 0xFFFFFFFFFFFFFFFFFFFFFFFFFFFFFFFFFFFFFFFF AND PUSH1 0x0 MSTORE PUSH1 0x0 PUSH1 0x20 MSTORE PUSH1 0x40 PUSH1 0x0 KECCAK256 SWAP1 JUMP JUMPDEST SLOAD PUSH2 0x2A75 DUP3 DUP3 LT ISZERO PUSH2 0x2956 JUMP JUMPDEST SUB SWAP2 PUSH20 0xFFFFFFFFFFFFFFFFFFFFFFFFFFFFFFFFFFFFFFFF AND PUSH1 0x0 MSTORE PUSH1 0x0 PUSH1 0x20 MSTORE PUSH1 0x40 PUSH1 0x0 KECCAK256 SWAP1 JUMP JUMPDEST SSTORE PUSH20 0xFFFFFFFFFFFFFFFFFFFFFFFFFFFFFFFFFFFFFFFF AND PUSH1 0x0 MSTORE PUSH1 0x0 PUSH1 0x20 MSTORE PUSH1 0x40 PUSH1 0x0 KECCAK256 SWAP1 JUMP JUMPDEST PUSH2 0x2ACF DUP3 DUP3 SLOAD PUSH2 0x28B3 JUMP JUMPDEST SWAP1 SSTORE PUSH1 0x40 MLOAD SWAP1 DUP2 MSTORE SWAP1 DUP2 SWAP1 PUSH1 0x20 DUP3 ADD SWAP1 JUMP JUMPDEST SUB SWAP1 LOG3 JUMP JUMPDEST PUSH1 0x84 PUSH1 0x40 MLOAD PUSH32 0x8C379A000000000000000000000000000000000000000000000000000000000 DUP2 MSTORE PUSH1 0x20 PUSH1 0x4 DUP3 ADD MSTORE PUSH1 0x25 PUSH1 0x24 DUP3 ADD MSTORE PUSH32 0x45524332303A207472616E736665722066726F6D20746865207A65726F206164 PUSH1 0x44 DUP3 ADD MSTORE PUSH32 0x6472657373000000000000000000000000000000000000000000000000000000 PUSH1 0x64 DUP3 ADD MSTORE REVERT JUMPDEST SWAP1 PUSH20 0xFFFFFFFFFFFFFFFFFFFFFFFFFFFFFFFFFFFFFFFF SWAP2 DUP3 DUP2 AND SWAP3 DUP4 ISZERO PUSH2 0x2CA1 JUMPI DUP3 AND SWAP4 DUP5 ISZERO PUSH2 0x2C1D JUMPI DUP1 PUSH2 0x2C0C PUSH32 0x8C5BE1E5EBEC7D5BD14F71427D1E84F3DD0314C0F7B2291E5B200AC8C7C3B925 SWAP5 PUSH2 0x2BE7 PUSH2 0x2AE1 SWAP6 PUSH20 0xFFFFFFFFFFFFFFFFFFFFFFFFFFFFFFFFFFFFFFFF AND PUSH1 0x0 MSTORE PUSH1 0x1 PUSH1 0x20 MSTORE PUSH1 0x40 PUSH1 0x0 KECCAK256 SWAP1 JUMP JUMPDEST SWAP1 PUSH20 0xFFFFFFFFFFFFFFFFFFFFFFFFFFFFFFFFFFFFFFFF AND PUSH1 0x0 MSTORE PUSH1 0x20 MSTORE PUSH1 0x40 PUSH1 0x0 KECCAK256 SWAP1 JUMP JUMPDEST SSTORE PUSH1 0x40 MLOAD SWAP1 DUP2 MSTORE SWAP1 DUP2 SWAP1 PUSH1 0x20 DUP3 ADD SWAP1 JUMP JUMPDEST PUSH1 0x84 PUSH1 0x40 MLOAD PUSH32 0x8C379A000000000000000000000000000000000000000000000000000000000 DUP2 MSTORE PUSH1 0x20 PUSH1 0x4 DUP3 ADD MSTORE PUSH1 0x22 PUSH1 0x24 DUP3 ADD MSTORE PUSH32 0x45524332303A20617070726F766520746F20746865207A65726F206164647265 PUSH1 0x44 DUP3 ADD MSTORE PUSH32 0x7373000000000000000000000000000000000000000000000000000000000000 PUSH1 0x64 DUP3 ADD MSTORE REVERT JUMPDEST PUSH1 0x84 PUSH1 0x40 MLOAD PUSH32 0x8C379A000000000000000000000000000000000000000000000000000000000 DUP2 MSTORE PUSH1 0x20 PUSH1 0x4 DUP3 ADD MSTORE PUSH1 0x24 DUP1 DUP3 ADD MSTORE PUSH32 0x45524332303A20617070726F76652066726F6D20746865207A65726F20616464 PUSH1 0x44 DUP3 ADD MSTORE PUSH32 0x7265737300000000000000000000000000000000000000000000000000000000 PUSH1 0x64 DUP3 ADD MSTORE REVERT JUMPDEST MLOAD SWAP1 PUSH10 0xFFFFFFFFFFFFFFFFFFFF DUP3 AND DUP3 SUB PUSH2 0x41B JUMPI JUMP JUMPDEST POP PUSH1 0x40 MLOAD RETURNDATASIZE PUSH1 0x0 DUP3 RETURNDATACOPY RETURNDATASIZE SWAP1 REVERT JUMPDEST PUSH1 0xA0 PUSH20 0xFFFFFFFFFFFFFFFFFFFFFFFFFFFFFFFFFFFFFFFF SWAP2 PUSH1 0x4 PUSH1 0x40 MLOAD DUP1 SWAP5 DUP2 SWAP4 PUSH32 0xFEAF968C00000000000000000000000000000000000000000000000000000000 DUP4 MSTORE AND GAS STATICCALL SWAP1 DUP2 ISZERO PUSH2 0x2DEB JUMPI JUMPDEST PUSH1 0x0 SWAP2 PUSH2 0x2DA2 JUMPI POP SWAP1 JUMP JUMPDEST SWAP1 PUSH1 0xA0 DUP3 RETURNDATASIZE DUP3 GT PUSH2 0x2DE3 JUMPI JUMPDEST DUP2 PUSH2 0x2DBB PUSH1 0xA0 SWAP4 DUP4 PUSH2 0x1B6E JUMP JUMPDEST DUP2 ADD SUB SLT PUSH2 0x6B6 JUMPI POP PUSH2 0x2DCD DUP2 PUSH2 0x2D24 JUMP JUMPDEST POP PUSH2 0x2DDF PUSH1 0x80 PUSH1 0x20 DUP4 ADD MLOAD SWAP3 ADD PUSH2 0x2D24 JUMP JUMPDEST POP SWAP1 JUMP JUMPDEST RETURNDATASIZE SWAP2 POP PUSH2 0x2DAE JUMP JUMPDEST PUSH2 0x2DF3 PUSH2 0x2D3B JUMP JUMPDEST PUSH2 0x2D97 JUMP JUMPDEST DUP1 PUSH1 0x12 LT PUSH2 0x2E07 JUMPI JUMPDEST PUSH1 0x12 SUB SWAP1 JUMP JUMPDEST PUSH2 0x2E0F PUSH2 0x2883 JUMP JUMPDEST PUSH2 0x2E01 JUMP JUMPDEST PUSH32 0xFFFFFFFFFFFFFFFFFFFFFFFFFFFFFFFFFFFFFFFFFFFFFFFFFFFFFFFFFFFFFFFF SWAP1 PUSH1 0x1 DUP2 LT PUSH2 0x28BF JUMPI ADD SWAP1 JUMP JUMPDEST DUP2 DUP2 LT PUSH2 0x2E4D JUMPI SUB SWAP1 JUMP JUMPDEST PUSH2 0x2E55 PUSH2 0x2883 JUMP JUMPDEST SUB SWAP1 JUMP JUMPDEST PUSH1 0x40 MLOAD SWAP1 PUSH2 0x100 DUP3 ADD DUP3 DUP2 LT PUSH8 0xFFFFFFFFFFFFFFFF DUP3 GT OR PUSH2 0x2EAB JUMPI JUMPDEST PUSH1 0x40 MSTORE DUP2 PUSH1 0x60 DUP2 MSTORE PUSH1 0xE0 PUSH1 0x0 SWAP2 DUP3 PUSH1 0x20 DUP3 ADD MSTORE DUP3 PUSH1 0x40 DUP3 ADD MSTORE DUP3 PUSH1 0x60 DUP3 ADD MSTORE DUP3 PUSH1 0x80 DUP3 ADD MSTORE DUP3 PUSH1 0xA0 DUP3 ADD MSTORE DUP3 PUSH1 0xC0 DUP3 ADD MSTORE ADD MSTORE JUMP JUMPDEST PUSH2 0x2EB3 PUSH2 0x1B3E JUMP JUMPDEST PUSH2 0x2E76 JUMP JUMPDEST PUSH1 0x40 MLOAD SWAP1 PUSH1 0xA0 DUP3 ADD DUP3 DUP2 LT PUSH8 0xFFFFFFFFFFFFFFFF DUP3 GT OR PUSH2 0x2F02 JUMPI JUMPDEST PUSH1 0x40 MSTORE PUSH1 0x4 DUP3 MSTORE DUP2 PUSH1 0x0 JUMPDEST PUSH1 0x80 DUP2 LT PUSH2 0x2EEB JUMPI POP POP JUMP JUMPDEST PUSH1 0x20 SWAP1 PUSH2 0x2EF6 PUSH2 0x2E59 JUMP JUMPDEST DUP3 DUP3 DUP6 ADD ADD MSTORE ADD PUSH2 0x2EDF JUMP JUMPDEST PUSH2 0x2F0A PUSH2 0x1B3E JUMP JUMPDEST PUSH2 0x2ED4 JUMP JUMPDEST PUSH1 0x20 SWAP1 DUP1 MLOAD ISZERO PUSH2 0x2F1D JUMPI ADD SWAP1 JUMP JUMPDEST PUSH2 0x28C7 PUSH2 0x84D JUMP JUMPDEST PUSH1 0x40 SWAP1 DUP1 MLOAD PUSH1 0x1 LT ISZERO PUSH2 0x2F1D JUMPI ADD SWAP1 JUMP JUMPDEST PUSH1 0x60 SWAP1 DUP1 MLOAD PUSH1 0x2 LT ISZERO PUSH2 0x2F1D JUMPI ADD SWAP1 JUMP JUMPDEST PUSH1 0x80 SWAP1 DUP1 MLOAD PUSH1 0x3 LT ISZERO PUSH2 0x2F1D JUMPI ADD SWAP1 JUMP JUMPDEST PUSH1 0x20 SWAP2 DUP2 MLOAD DUP2 LT ISZERO PUSH2 0x2F6D JUMPI JUMPDEST PUSH1 0x5 SHL ADD ADD SWAP1 JUMP JUMPDEST PUSH2 0x2F75 PUSH2 0x84D JUMP JUMPDEST PUSH2 0x2F65 JUMP JUMPDEST PUSH1 0xFF PUSH1 0x1 SWAP2 AND PUSH1 0xFF DUP2 EQ PUSH2 0x28BF JUMPI ADD SWAP1 JUMP JUMPDEST SWAP1 DUP2 PUSH1 0x20 SWAP2 SUB SLT PUSH2 0x41B JUMPI MLOAD SWAP1 JUMP JUMPDEST SWAP1 DUP2 PUSH1 0x20 SWAP2 SUB SLT PUSH2 0x41B JUMPI MLOAD PUSH1 0xFF DUP2 AND DUP2 SUB PUSH2 0x41B JUMPI SWAP1 JUMP JUMPDEST PUSH32 0x7FFFFFFFFFFFFFFFFFFFFFFFFFFFFFFFFFFFFFFFFFFFFFFFFFFFFFFFFFFFFFFF DUP2 GT PUSH1 0x1 AND PUSH2 0x2FE5 JUMPI JUMPDEST PUSH1 0x1 SHL SWAP1 JUMP JUMPDEST PUSH2 0x2FED PUSH2 0x2883 JUMP JUMPDEST PUSH2 0x2FDF JUMP JUMPDEST DUP1 PUSH32 0xFFFFFFFFFFFFFFFFFFFFFFFFFFFFFFFFFFFFFFFFFFFFFFFFFFFFFFFFFFFFFFFF DIV DUP3 GT DUP2 ISZERO ISZERO AND PUSH2 0x3023 JUMPI MUL SWAP1 JUMP JUMPDEST PUSH2 0x302B PUSH2 0x2883 JUMP JUMPDEST MUL SWAP1 JUMP JUMPDEST PUSH1 0x4D DUP2 GT PUSH2 0x303E JUMPI JUMPDEST PUSH1 0xA EXP SWAP1 JUMP JUMPDEST PUSH2 0x3046 PUSH2 0x2883 JUMP JUMPDEST PUSH2 0x3038 JUMP JUMPDEST POP PUSH32 0x4E487B7100000000000000000000000000000000000000000000000000000000 PUSH1 0x0 MSTORE PUSH1 0x12 PUSH1 0x4 MSTORE PUSH1 0x24 PUSH1 0x0 REVERT JUMPDEST DUP2 ISZERO PUSH2 0x3085 JUMPI DIV SWAP1 JUMP JUMPDEST PUSH2 0x308D PUSH2 0x304B JUMP JUMPDEST DIV SWAP1 JUMP JUMPDEST PUSH1 0x0 DUP3 SLT DUP3 PUSH32 0x8000000000000000000000000000000000000000000000000000000000000000 ADD DUP3 SLT DUP2 ISZERO AND PUSH2 0x30F0 JUMPI JUMPDEST DUP3 PUSH32 0x7FFFFFFFFFFFFFFFFFFFFFFFFFFFFFFFFFFFFFFFFFFFFFFFFFFFFFFFFFFFFFFF ADD DUP3 SGT AND PUSH2 0x2E4D JUMPI SUB SWAP1 JUMP JUMPDEST PUSH2 0x30F8 PUSH2 0x2883 JUMP JUMPDEST PUSH2 0x30C2 JUMP JUMPDEST SWAP1 PUSH2 0x3107 DUP3 PUSH2 0x1BBC JUMP JUMPDEST PUSH2 0x3114 PUSH1 0x40 MLOAD SWAP2 DUP3 PUSH2 0x1B6E JUMP JUMPDEST DUP3 DUP2 MSTORE PUSH32 0xFFFFFFFFFFFFFFFFFFFFFFFFFFFFFFFFFFFFFFFFFFFFFFFFFFFFFFFFFFFFFFE0 PUSH2 0x3142 DUP3 SWAP5 PUSH2 0x1BBC JUMP JUMPDEST ADD SWAP1 PUSH1 0x20 CALLDATASIZE SWAP2 ADD CALLDATACOPY JUMP JUMPDEST PUSH1 0x40 MLOAD SWAP1 PUSH1 0x60 DUP3 ADD DUP3 DUP2 LT PUSH8 0xFFFFFFFFFFFFFFFF DUP3 GT OR PUSH2 0x317A JUMPI JUMPDEST PUSH1 0x40 MSTORE PUSH1 0x2 DUP3 MSTORE PUSH1 0x40 DUP3 PUSH1 0x20 CALLDATASIZE SWAP2 ADD CALLDATACOPY JUMP JUMPDEST PUSH2 0x3182 PUSH2 0x1B3E JUMP JUMPDEST PUSH2 0x3168 JUMP JUMPDEST PUSH1 0x40 MLOAD SWAP1 PUSH1 0x80 DUP3 ADD DUP3 DUP2 LT PUSH8 0xFFFFFFFFFFFFFFFF DUP3 GT OR PUSH2 0x31B4 JUMPI JUMPDEST PUSH1 0x40 MSTORE PUSH1 0x3 DUP3 MSTORE PUSH1 0x60 CALLDATASIZE PUSH1 0x20 DUP5 ADD CALLDATACOPY JUMP JUMPDEST PUSH2 0x31BC PUSH2 0x1B3E JUMP JUMPDEST PUSH2 0x31A3 JUMP JUMPDEST PUSH1 0x0 DUP2 SLT DUP2 PUSH32 0x7FFFFFFFFFFFFFFFFFFFFFFFFFFFFFFFFFFFFFFFFFFFFFFFFFFFFFFFFFFFFFFF SUB DUP4 SGT DUP2 ISZERO AND PUSH2 0x3220 JUMPI JUMPDEST DUP2 PUSH32 0x8000000000000000000000000000000000000000000000000000000000000000 SUB DUP4 SLT AND PUSH2 0x28BF JUMPI ADD SWAP1 JUMP JUMPDEST PUSH2 0x3228 PUSH2 0x2883 JUMP JUMPDEST PUSH2 0x31F2 JUMP JUMPDEST PUSH4 0x5F5E100 SWAP1 PUSH1 0x1 PUSH29 0x15798EE2308C39DF9FB841A566D74F87A7A9A7AEB02C2D2F8E0D1E768D DUP3 GT PUSH1 0x0 DUP4 SGT AND AND PUSH2 0x3293 JUMPI JUMPDEST PUSH1 0x1 PUSH32 0xFFFFFFEA86711DCF73C6206047BE5A9928B078585658514FD3D2D071F2E18973 DUP3 SLT PUSH1 0x0 DUP4 SLT AND AND PUSH2 0x3023 JUMPI MUL SWAP1 JUMP JUMPDEST PUSH2 0x329B PUSH2 0x2883 JUMP JUMPDEST PUSH2 0x3260 JUMP JUMPDEST DUP2 ISZERO PUSH2 0x3302 JUMPI JUMPDEST PUSH32 0xFFFFFFFFFFFFFFFFFFFFFFFFFFFFFFFFFFFFFFFFFFFFFFFFFFFFFFFFFFFFFFFF DUP3 EQ PUSH32 0x8000000000000000000000000000000000000000000000000000000000000000 DUP3 EQ AND PUSH2 0x32F6 JUMPI SDIV SWAP1 JUMP JUMPDEST PUSH2 0x32FE PUSH2 0x2883 JUMP JUMPDEST SDIV SWAP1 JUMP JUMPDEST PUSH2 0x330A PUSH2 0x304B JUMP JUMPDEST PUSH2 0x32A7 JUMP JUMPDEST PUSH2 0x1FE SWAP1 PUSH1 0x7F PUSH1 0xFF DUP3 AND GT PUSH1 0x1 AND PUSH2 0x3329 JUMPI JUMPDEST PUSH1 0x1 SHL AND SWAP1 JUMP JUMPDEST PUSH2 0x3331 PUSH2 0x2883 JUMP JUMPDEST PUSH2 0x3322 JUMP JUMPDEST PUSH1 0xFF PUSH1 0x1 SWAP2 AND PUSH1 0xFE DUP2 GT PUSH2 0x28BF JUMPI ADD SWAP1 JUMP JUMPDEST SWAP1 DUP2 MLOAD DUP1 DUP3 MSTORE PUSH1 0x20 DUP1 DUP1 SWAP4 ADD SWAP4 ADD SWAP2 PUSH1 0x0 JUMPDEST DUP3 DUP2 LT PUSH2 0x3368 JUMPI POP POP POP POP SWAP1 JUMP JUMPDEST DUP4 MLOAD PUSH20 0xFFFFFFFFFFFFFFFFFFFFFFFFFFFFFFFFFFFFFFFF AND DUP6 MSTORE SWAP4 DUP2 ADD SWAP4 SWAP3 DUP2 ADD SWAP3 PUSH1 0x1 ADD PUSH2 0x335A JUMP JUMPDEST SWAP1 PUSH2 0x33A5 SWAP1 PUSH1 0x40 DUP4 MSTORE PUSH1 0x40 DUP4 ADD SWAP1 PUSH2 0x3348 JUMP JUMPDEST DUP2 DUP2 SUB PUSH1 0x20 SWAP3 DUP4 ADD MSTORE DUP3 MLOAD DUP1 DUP3 MSTORE SWAP1 DUP3 ADD SWAP3 DUP3 ADD SWAP2 PUSH1 0x0 JUMPDEST DUP3 DUP2 LT PUSH2 0x33CB JUMPI POP POP POP POP SWAP1 JUMP JUMPDEST DUP4 MLOAD DUP6 MSTORE SWAP4 DUP2 ADD SWAP4 SWAP3 DUP2 ADD SWAP3 PUSH1 0x1 ADD PUSH2 0x33BD JUMP JUMPDEST SWAP2 SWAP1 PUSH1 0x40 DUP4 DUP3 SUB SLT PUSH2 0x41B JUMPI PUSH8 0xFFFFFFFFFFFFFFFF SWAP3 DUP1 CALLDATALOAD DUP5 DUP2 GT PUSH2 0x41B JUMPI DUP3 PUSH2 0x340A SWAP2 DUP4 ADD PUSH2 0x1BE3 JUMP JUMPDEST SWAP4 PUSH1 0x20 SWAP2 DUP3 DUP2 ADD CALLDATALOAD SWAP2 DUP3 GT PUSH2 0x41B JUMPI ADD SWAP2 DUP1 PUSH1 0x1F DUP5 ADD SLT ISZERO PUSH2 0x41B JUMPI DUP3 CALLDATALOAD PUSH2 0x3431 DUP2 PUSH2 0x1BBC JUMP JUMPDEST SWAP4 PUSH2 0x343F PUSH1 0x40 MLOAD SWAP6 DUP7 PUSH2 0x1B6E JUMP JUMPDEST DUP2 DUP6 MSTORE DUP4 DUP1 DUP7 ADD SWAP3 PUSH1 0x5 SHL DUP3 ADD ADD SWAP3 DUP4 GT PUSH2 0x41B JUMPI DUP4 ADD SWAP1 JUMPDEST DUP3 DUP3 LT PUSH2 0x3466 JUMPI POP POP POP POP SWAP1 JUMP JUMPDEST DUP2 CALLDATALOAD DUP2 MSTORE SWAP1 DUP4 ADD SWAP1 DUP4 ADD PUSH2 0x3458 JUMP JUMPDEST PUSH1 0x0 DUP1 DUP3 SLT PUSH2 0x3482 JUMPI POP SWAP1 JUMP JUMPDEST PUSH32 0x8000000000000000000000000000000000000000000000000000000000000000 DUP3 EQ PUSH2 0x2E4D JUMPI SUB SWAP1 JUMP JUMPDEST SWAP1 DUP2 PUSH1 0x20 SWAP2 SUB SLT PUSH2 0x41B JUMPI MLOAD DUP1 ISZERO ISZERO DUP2 SUB PUSH2 0x41B JUMPI SWAP1 JUMP JUMPDEST PUSH1 0x40 MLOAD SWAP1 PUSH32 0x95EA7B300000000000000000000000000000000000000000000000000000000 DUP3 MSTORE PUSH20 0xA5E0829CACED8FFDD4DE3C43696C57F7D7A678FF PUSH1 0x4 DUP4 ADD MSTORE PUSH1 0x24 DUP3 ADD MSTORE PUSH1 0x20 DUP2 PUSH1 0x44 DUP2 PUSH1 0x0 PUSH20 0xD500B1D8E8EF31E21C99D1DB9A6444D3ADF1270 GAS CALL DUP1 ISZERO PUSH2 0x3552 JUMPI JUMPDEST PUSH2 0x3538 JUMPI POP JUMP JUMPDEST PUSH2 0x354F SWAP1 PUSH1 0x20 RETURNDATASIZE DUP2 GT PUSH2 0x22A7 JUMPI PUSH2 0x229F DUP2 DUP4 PUSH2 0x1B6E JUMP JUMPDEST POP JUMP JUMPDEST PUSH2 0x355A PUSH2 0x2D3B JUMP JUMPDEST PUSH2 0x3531 JUMP JUMPDEST PUSH1 0x40 MLOAD SWAP1 PUSH32 0x95EA7B300000000000000000000000000000000000000000000000000000000 DUP3 MSTORE PUSH20 0xA5E0829CACED8FFDD4DE3C43696C57F7D7A678FF PUSH1 0x4 DUP4 ADD MSTORE PUSH1 0x24 DUP3 ADD MSTORE PUSH1 0x20 DUP2 PUSH1 0x44 DUP2 PUSH1 0x0 PUSH20 0xBBBA073C31BF03B8ACF7C28EF0738DECF3695683 GAS CALL DUP1 ISZERO PUSH2 0x3552 JUMPI PUSH2 0x3538 JUMPI POP JUMP JUMPDEST PUSH1 0x40 MLOAD SWAP1 PUSH32 0x95EA7B300000000000000000000000000000000000000000000000000000000 DUP3 MSTORE PUSH20 0xA5E0829CACED8FFDD4DE3C43696C57F7D7A678FF PUSH1 0x4 DUP4 ADD MSTORE PUSH1 0x24 DUP3 ADD MSTORE PUSH1 0x20 DUP2 PUSH1 0x44 DUP2 PUSH1 0x0 PUSH20 0x7CEB23FD6BC0ADD59E62AC25578270CFF1B9F619 GAS CALL DUP1 ISZERO PUSH2 0x3552 JUMPI PUSH2 0x3538 JUMPI POP JUMP JUMPDEST PUSH1 0x40 MLOAD SWAP1 PUSH32 0x95EA7B300000000000000000000000000000000000000000000000000000000 DUP3 MSTORE PUSH20 0xA5E0829CACED8FFDD4DE3C43696C57F7D7A678FF PUSH1 0x4 DUP4 ADD MSTORE PUSH1 0x24 DUP3 ADD MSTORE PUSH1 0x20 DUP2 PUSH1 0x44 DUP2 PUSH1 0x0 PUSH20 0x1BFD67037B42CF73ACF2047067BD4F2C47D9BFD6 GAS CALL DUP1 ISZERO PUSH2 0x3552 JUMPI PUSH2 0x3538 JUMPI POP JUMP JUMPDEST PUSH1 0x20 SWAP1 PUSH1 0x44 PUSH20 0xFFFFFFFFFFFFFFFFFFFFFFFFFFFFFFFFFFFFFFFF SWAP4 PUSH1 0x0 PUSH1 0x40 MLOAD SWAP6 DUP7 SWAP5 DUP6 SWAP4 PUSH32 0x95EA7B300000000000000000000000000000000000000000000000000000000 DUP6 MSTORE PUSH20 0xA5E0829CACED8FFDD4DE3C43696C57F7D7A678FF PUSH1 0x4 DUP7 ADD MSTORE PUSH1 0x24 DUP6 ADD MSTORE AND GAS CALL DUP1 ISZERO PUSH2 0x3552 JUMPI PUSH2 0x3538 JUMPI POP JUMP JUMPDEST PUSH1 0x40 MLOAD SWAP1 PUSH32 0x95EA7B300000000000000000000000000000000000000000000000000000000 DUP3 MSTORE PUSH20 0xA5E0829CACED8FFDD4DE3C43696C57F7D7A678FF PUSH1 0x4 DUP4 ADD MSTORE PUSH1 0x24 DUP3 ADD MSTORE PUSH1 0x20 DUP2 PUSH1 0x44 DUP2 PUSH1 0x0 PUSH20 0x2791BCA1F2DE4661ED88A30C99A7A9449AA84174 GAS CALL DUP1 ISZERO PUSH2 0x3552 JUMPI PUSH2 0x3538 JUMPI POP JUMP JUMPDEST PUSH1 0x40 MLOAD PUSH32 0x95EA7B300000000000000000000000000000000000000000000000000000000 DUP2 MSTORE PUSH20 0xFFFFFFFFFFFFFFFFFFFFFFFFFFFFFFFFFFFFFFFF SWAP3 DUP4 AND PUSH1 0x4 DUP3 ADD MSTORE PUSH1 0x24 DUP2 ADD SWAP4 SWAP1 SWAP4 MSTORE PUSH1 0x20 SWAP2 DUP4 SWAP2 PUSH1 0x44 SWAP2 DUP4 SWAP2 PUSH1 0x0 SWAP2 AND GAS CALL DUP1 ISZERO PUSH2 0x3552 JUMPI PUSH2 0x3538 JUMPI POP JUMP JUMPDEST PUSH20 0xFFFFFFFFFFFFFFFFFFFFFFFFFFFFFFFFFFFFFFFF DUP2 AND SWAP2 DUP3 ISZERO PUSH2 0x3899 JUMPI PUSH1 0x20 DUP2 PUSH2 0x3883 PUSH1 0x0 SWAP5 PUSH2 0x385A PUSH32 0xDDF252AD1BE2C89B69C2B068FC378DAA952BA7F163C4A11628F55A4DF523B3EF SWAP6 PUSH1 0x2 SLOAD PUSH2 0x28B3 JUMP JUMPDEST PUSH1 0x2 SSTORE PUSH20 0xFFFFFFFFFFFFFFFFFFFFFFFFFFFFFFFFFFFFFFFF AND PUSH1 0x0 MSTORE PUSH1 0x0 PUSH1 0x20 MSTORE PUSH1 0x40 PUSH1 0x0 KECCAK256 SWAP1 JUMP JUMPDEST PUSH2 0x388E DUP3 DUP3 SLOAD PUSH2 0x28B3 JUMP JUMPDEST SWAP1 SSTORE PUSH1 0x40 MLOAD SWAP1 DUP2 MSTORE LOG3 JUMP JUMPDEST PUSH1 0x64 PUSH1 0x40 MLOAD PUSH32 0x8C379A000000000000000000000000000000000000000000000000000000000 DUP2 MSTORE PUSH1 0x20 PUSH1 0x4 DUP3 ADD MSTORE PUSH1 0x1F PUSH1 0x24 DUP3 ADD MSTORE PUSH32 0x45524332303A206D696E7420746F20746865207A65726F206164647265737300 PUSH1 0x44 DUP3 ADD MSTORE REVERT JUMPDEST PUSH2 0x3900 ADDRESS PUSH2 0x4293 JUMP JUMPDEST PUSH1 0x40 MLOAD PUSH32 0xFEAF968C00000000000000000000000000000000000000000000000000000000 DUP2 MSTORE PUSH1 0xA0 DUP2 PUSH1 0x4 DUP2 PUSH20 0xAB594600376EC9FD91F8E885DADF0CE036862DE0 GAS STATICCALL SWAP1 DUP2 ISZERO PUSH2 0x39C5 JUMPI JUMPDEST PUSH1 0x0 SWAP2 PUSH2 0x3968 JUMPI JUMPDEST POP PUSH2 0x308D SWAP1 PUSH9 0x56BC75E2D63100000 SWAP3 PUSH2 0x2FF2 JUMP JUMPDEST SWAP1 PUSH1 0xA0 DUP3 RETURNDATASIZE DUP3 GT PUSH2 0x39BD JUMPI JUMPDEST DUP2 PUSH2 0x3981 PUSH1 0xA0 SWAP4 DUP4 PUSH2 0x1B6E JUMP JUMPDEST DUP2 ADD SUB SLT PUSH2 0x6B6 JUMPI POP PUSH9 0x56BC75E2D63100000 SWAP2 DUP2 PUSH2 0x39A2 PUSH2 0x308D SWAP4 PUSH2 0x2D24 JUMP JUMPDEST POP PUSH2 0x39B4 PUSH1 0x80 PUSH1 0x20 DUP4 ADD MLOAD SWAP3 ADD PUSH2 0x2D24 JUMP JUMPDEST POP SWAP2 POP SWAP2 PUSH2 0x3953 JUMP JUMPDEST RETURNDATASIZE SWAP2 POP PUSH2 0x3974 JUMP JUMPDEST PUSH2 0x39CD PUSH2 0x2D3B JUMP JUMPDEST PUSH2 0x394B JUMP JUMPDEST PUSH2 0x39DB ADDRESS PUSH2 0x432A JUMP JUMPDEST PUSH1 0x40 MLOAD PUSH32 0xFEAF968C00000000000000000000000000000000000000000000000000000000 DUP2 MSTORE PUSH1 0xA0 DUP2 PUSH1 0x4 DUP2 PUSH20 0x3D49406EDD4D52FB7FFD25485F32E073B529C924 GAS STATICCALL SWAP1 DUP2 ISZERO PUSH2 0x39C5 JUMPI PUSH1 0x0 SWAP2 PUSH2 0x3968 JUMPI POP PUSH2 0x308D SWAP1 PUSH9 0x56BC75E2D63100000 SWAP3 PUSH2 0x2FF2 JUMP JUMPDEST PUSH2 0x3A4A ADDRESS PUSH2 0x439B JUMP JUMPDEST PUSH1 0x40 MLOAD PUSH32 0xFEAF968C00000000000000000000000000000000000000000000000000000000 DUP2 MSTORE PUSH1 0xA0 DUP2 PUSH1 0x4 DUP2 PUSH20 0xF9680D99D6C9589E2A93A78A04A279E509205945 GAS STATICCALL SWAP1 DUP2 ISZERO PUSH2 0x39C5 JUMPI PUSH1 0x0 SWAP2 PUSH2 0x3968 JUMPI POP PUSH2 0x308D SWAP1 PUSH9 0x56BC75E2D63100000 SWAP3 PUSH2 0x2FF2 JUMP JUMPDEST PUSH2 0x3AB9 ADDRESS PUSH2 0x440C JUMP JUMPDEST PUSH1 0x40 MLOAD PUSH32 0xFEAF968C00000000000000000000000000000000000000000000000000000000 DUP2 MSTORE PUSH1 0xA0 DUP2 PUSH1 0x4 DUP2 PUSH20 0xC907E116054AD103354F2D350FD2514433D57F6F GAS STATICCALL SWAP1 DUP2 ISZERO PUSH2 0x3B76 JUMPI JUMPDEST PUSH1 0x0 SWAP2 PUSH2 0x3B1D JUMPI JUMPDEST POP PUSH2 0x308D SWAP1 PUSH5 0x2540BE400 SWAP3 PUSH2 0x2FF2 JUMP JUMPDEST SWAP1 PUSH1 0xA0 DUP3 RETURNDATASIZE DUP3 GT PUSH2 0x3B6E JUMPI JUMPDEST DUP2 PUSH2 0x3B36 PUSH1 0xA0 SWAP4 DUP4 PUSH2 0x1B6E JUMP JUMPDEST DUP2 ADD SUB SLT PUSH2 0x6B6 JUMPI POP PUSH5 0x2540BE400 SWAP2 DUP2 PUSH2 0x3B53 PUSH2 0x308D SWAP4 PUSH2 0x2D24 JUMP JUMPDEST POP PUSH2 0x3B65 PUSH1 0x80 PUSH1 0x20 DUP4 ADD MLOAD SWAP3 ADD PUSH2 0x2D24 JUMP JUMPDEST POP SWAP2 POP SWAP2 PUSH2 0x3B0C JUMP JUMPDEST RETURNDATASIZE SWAP2 POP PUSH2 0x3B29 JUMP JUMPDEST PUSH2 0x3B7E PUSH2 0x2D3B JUMP JUMPDEST PUSH2 0x3B04 JUMP JUMPDEST PUSH2 0x559 PUSH2 0x3B8E PUSH2 0x38F7 JUMP JUMPDEST PUSH2 0x2473 PUSH2 0x3B99 PUSH2 0x39D2 JUMP JUMPDEST PUSH2 0x2473 PUSH2 0x3BA4 PUSH2 0x3A41 JUMP JUMPDEST SWAP2 PUSH2 0x3BAD PUSH2 0x3AB0 JUMP JUMPDEST SWAP5 PUSH2 0x28B3 JUMP JUMPDEST PUSH1 0x40 MLOAD SWAP1 PUSH1 0x5 SLOAD DUP1 DUP4 MSTORE DUP3 PUSH1 0x20 SWAP2 DUP3 DUP3 ADD SWAP1 PUSH1 0x5 PUSH1 0x0 MSTORE PUSH32 0x36B6384B5ECA791C62761152D0C79BB0604C104A5FB6F4EB0703F3154BB3DB0 SWAP4 PUSH1 0x0 SWAP1 JUMPDEST DUP3 DUP3 LT PUSH2 0x3C08 JUMPI POP POP POP PUSH2 0x3C06 SWAP3 POP SUB DUP4 PUSH2 0x1B6E JUMP JUMPDEST JUMP JUMPDEST DUP6 SLOAD PUSH20 0xFFFFFFFFFFFFFFFFFFFFFFFFFFFFFFFFFFFFFFFF AND DUP5 MSTORE PUSH1 0x1 SWAP6 DUP7 ADD SWAP6 DUP9 SWAP6 POP SWAP4 DUP2 ADD SWAP4 SWAP1 SWAP2 ADD SWAP1 PUSH2 0x3BF0 JUMP JUMPDEST PUSH1 0x40 MLOAD SWAP1 PUSH1 0x6 SLOAD DUP1 DUP4 MSTORE DUP3 PUSH1 0x20 SWAP2 DUP3 DUP3 ADD SWAP1 PUSH1 0x6 PUSH1 0x0 MSTORE PUSH32 0xF652222313E28459528D920B65115C16C04F3EFC82AAEDC97BE59F3F377C0D3F SWAP4 PUSH1 0x0 SWAP1 JUMPDEST DUP3 DUP3 LT PUSH2 0x3C8B JUMPI POP POP POP PUSH2 0x3C06 SWAP3 POP SUB DUP4 PUSH2 0x1B6E JUMP JUMPDEST DUP6 SLOAD PUSH20 0xFFFFFFFFFFFFFFFFFFFFFFFFFFFFFFFFFFFFFFFF AND DUP5 MSTORE PUSH1 0x1 SWAP6 DUP7 ADD SWAP6 DUP9 SWAP6 POP SWAP4 DUP2 ADD SWAP4 SWAP1 SWAP2 ADD SWAP1 PUSH2 0x3C75 JUMP JUMPDEST PUSH1 0x40 MLOAD SWAP1 PUSH1 0x7 SLOAD DUP1 DUP4 MSTORE DUP3 PUSH1 0x20 SWAP2 DUP3 DUP3 ADD SWAP1 PUSH1 0x7 PUSH1 0x0 MSTORE PUSH32 0xA66CC928B5EDB82AF9BD49922954155AB7B0942694BEA4CE44661D9A8736C688 SWAP4 PUSH1 0x0 SWAP1 JUMPDEST DUP3 DUP3 LT PUSH2 0x3D0E JUMPI POP POP POP PUSH2 0x3C06 SWAP3 POP SUB DUP4 PUSH2 0x1B6E JUMP JUMPDEST DUP6 SLOAD PUSH20 0xFFFFFFFFFFFFFFFFFFFFFFFFFFFFFFFFFFFFFFFF AND DUP5 MSTORE PUSH1 0x1 SWAP6 DUP7 ADD SWAP6 DUP9 SWAP6 POP SWAP4 DUP2 ADD SWAP4 SWAP1 SWAP2 ADD SWAP1 PUSH2 0x3CF8 JUMP JUMPDEST PUSH1 0x40 MLOAD SWAP1 PUSH1 0x8 SLOAD DUP1 DUP4 MSTORE DUP3 PUSH1 0x20 SWAP2 DUP3 DUP3 ADD SWAP1 PUSH1 0x8 PUSH1 0x0 MSTORE PUSH32 0xF3F7A9FE364FAAB93B216DA50A3214154F22A0A2B415B23A84C8169E8B636EE3 SWAP4 PUSH1 0x0 SWAP1 JUMPDEST DUP3 DUP3 LT PUSH2 0x3D91 JUMPI POP POP POP PUSH2 0x3C06 SWAP3 POP SUB DUP4 PUSH2 0x1B6E JUMP JUMPDEST DUP6 SLOAD PUSH20 0xFFFFFFFFFFFFFFFFFFFFFFFFFFFFFFFFFFFFFFFF AND DUP5 MSTORE PUSH1 0x1 SWAP6 DUP7 ADD SWAP6 DUP9 SWAP6 POP SWAP4 DUP2 ADD SWAP4 SWAP1 SWAP2 ADD SWAP1 PUSH2 0x3D7B JUMP JUMPDEST SWAP2 PUSH2 0x3E18 DUP6 DUP1 PUSH2 0x3E05 DUP10 DUP3 PUSH2 0x3DFE DUP3 PUSH2 0x3E28 SWAP10 SWAP13 PUSH2 0x3DF7 PUSH2 0x3C06 SWAP16 PUSH2 0x3DEB PUSH2 0x3E32 SWAP16 SWAP15 DUP3 SWAP1 PUSH2 0x2FF2 JUMP JUMPDEST SWAP16 DUP4 ISZERO PUSH2 0x3E3C JUMPI PUSH2 0x2FF2 JUMP JUMPDEST DIV SWAP9 PUSH2 0x2FF2 JUMP JUMPDEST DIV SWAP8 PUSH2 0x2FF2 JUMP JUMPDEST DIV SWAP7 ADDRESS SWAP2 PUSH2 0x3E11 PUSH2 0x3BB3 JUMP JUMPDEST SWAP2 DIV PUSH2 0x45C9 JUMP JUMPDEST ADDRESS SWAP1 PUSH2 0x3E22 PUSH2 0x3C38 JUMP JUMPDEST SWAP1 PUSH2 0x45C9 JUMP JUMPDEST ADDRESS SWAP1 PUSH2 0x3E22 PUSH2 0x3CBB JUMP JUMPDEST ADDRESS SWAP1 PUSH2 0x3E22 PUSH2 0x3D3E JUMP JUMPDEST PUSH2 0x3E44 PUSH2 0x304B JUMP JUMPDEST PUSH2 0x2FF2 JUMP JUMPDEST PUSH2 0x3C06 SWAP1 PUSH1 0x2 SHR PUSH2 0x3E62 ADDRESS PUSH2 0x3E5C PUSH2 0x3BB3 JUMP JUMPDEST DUP4 PUSH2 0x45C9 JUMP JUMPDEST PUSH2 0x3E6E ADDRESS PUSH2 0x3E5C PUSH2 0x3C38 JUMP JUMPDEST PUSH2 0x3E32 ADDRESS PUSH2 0x3E5C PUSH2 0x3CBB JUMP JUMPDEST SWAP1 PUSH2 0x3E8B PUSH2 0x3C06 SWAP4 PUSH1 0x2 SLOAD SWAP1 PUSH2 0x2FF2 JUMP JUMPDEST DUP2 ISZERO PUSH2 0x3E99 JUMPI JUMPDEST DIV SWAP1 PUSH2 0x3806 JUMP JUMPDEST PUSH2 0x3EA1 PUSH2 0x304B JUMP JUMPDEST PUSH2 0x3E92 JUMP JUMPDEST PUSH20 0xFFFFFFFFFFFFFFFFFFFFFFFFFFFFFFFFFFFFFFFF DUP2 AND SWAP1 DUP2 ISZERO PUSH2 0x3FF4 JUMPI PUSH2 0x3EEE DUP2 PUSH20 0xFFFFFFFFFFFFFFFFFFFFFFFFFFFFFFFFFFFFFFFF AND PUSH1 0x0 MSTORE PUSH1 0x0 PUSH1 0x20 MSTORE PUSH1 0x40 PUSH1 0x0 KECCAK256 SWAP1 JUMP JUMPDEST SLOAD DUP4 DUP2 LT PUSH2 0x3F70 JUMPI DUP4 PUSH32 0xDDF252AD1BE2C89B69C2B068FC378DAA952BA7F163C4A11628F55A4DF523B3EF SWAP3 PUSH2 0x3F4B PUSH1 0x0 SWAP7 PUSH2 0x2AE1 SWAP5 SUB SWAP2 PUSH20 0xFFFFFFFFFFFFFFFFFFFFFFFFFFFFFFFFFFFFFFFF AND PUSH1 0x0 MSTORE PUSH1 0x0 PUSH1 0x20 MSTORE PUSH1 0x40 PUSH1 0x0 KECCAK256 SWAP1 JUMP JUMPDEST SSTORE PUSH2 0x3F60 PUSH2 0x3F5B DUP3 PUSH1 0x2 SLOAD PUSH2 0x2E42 JUMP JUMPDEST PUSH1 0x2 SSTORE JUMP JUMPDEST PUSH1 0x40 MLOAD SWAP1 DUP2 MSTORE SWAP1 DUP2 SWAP1 PUSH1 0x20 DUP3 ADD SWAP1 JUMP JUMPDEST PUSH1 0x84 PUSH1 0x40 MLOAD PUSH32 0x8C379A000000000000000000000000000000000000000000000000000000000 DUP2 MSTORE PUSH1 0x20 PUSH1 0x4 DUP3 ADD MSTORE PUSH1 0x22 PUSH1 0x24 DUP3 ADD MSTORE PUSH32 0x45524332303A206275726E20616D6F756E7420657863656564732062616C616E PUSH1 0x44 DUP3 ADD MSTORE PUSH32 0x6365000000000000000000000000000000000000000000000000000000000000 PUSH1 0x64 DUP3 ADD MSTORE REVERT JUMPDEST PUSH1 0x84 PUSH1 0x40 MLOAD PUSH32 0x8C379A000000000000000000000000000000000000000000000000000000000 DUP2 MSTORE PUSH1 0x20 PUSH1 0x4 DUP3 ADD MSTORE PUSH1 0x21 PUSH1 0x24 DUP3 ADD MSTORE PUSH32 0x45524332303A206275726E2066726F6D20746865207A65726F20616464726573 PUSH1 0x44 DUP3 ADD MSTORE PUSH32 0x7300000000000000000000000000000000000000000000000000000000000000 PUSH1 0x64 DUP3 ADD MSTORE REVERT JUMPDEST PUSH1 0x40 MLOAD PUSH32 0xA9059CBB00000000000000000000000000000000000000000000000000000000 DUP2 MSTORE PUSH20 0xFFFFFFFFFFFFFFFFFFFFFFFFFFFFFFFFFFFFFFFF SWAP3 SWAP1 SWAP3 AND PUSH1 0x4 DUP4 ADD MSTORE PUSH1 0x24 DUP3 ADD MSTORE PUSH1 0x20 DUP2 PUSH1 0x44 DUP2 PUSH1 0x0 PUSH20 0x2791BCA1F2DE4661ED88A30C99A7A9449AA84174 GAS CALL DUP1 ISZERO PUSH2 0x3552 JUMPI PUSH2 0x3538 JUMPI POP JUMP JUMPDEST PUSH2 0x3C06 SWAP1 PUSH2 0x40F9 PUSH2 0x314C JUMP JUMPDEST DUP1 MLOAD ISZERO PUSH2 0x4154 JUMPI JUMPDEST PUSH20 0xD500B1D8E8EF31E21C99D1DB9A6444D3ADF1270 PUSH1 0x20 DUP3 ADD MSTORE DUP1 MLOAD PUSH1 0x1 LT ISZERO PUSH2 0x4147 JUMPI JUMPDEST PUSH20 0x2791BCA1F2DE4661ED88A30C99A7A9449AA84174 PUSH1 0x40 DUP3 ADD MSTORE ADDRESS SWAP2 PUSH2 0x45C9 JUMP JUMPDEST PUSH2 0x414F PUSH2 0x84D JUMP JUMPDEST PUSH2 0x4126 JUMP JUMPDEST PUSH2 0x415C PUSH2 0x84D JUMP JUMPDEST PUSH2 0x4101 JUMP JUMPDEST PUSH2 0x3C06 SWAP1 PUSH2 0x416D PUSH2 0x314C JUMP JUMPDEST DUP1 MLOAD ISZERO PUSH2 0x41BA JUMPI JUMPDEST PUSH20 0xBBBA073C31BF03B8ACF7C28EF0738DECF3695683 PUSH1 0x20 DUP3 ADD MSTORE DUP1 MLOAD PUSH1 0x1 LT ISZERO PUSH2 0x4147 JUMPI PUSH20 0x2791BCA1F2DE4661ED88A30C99A7A9449AA84174 PUSH1 0x40 DUP3 ADD MSTORE ADDRESS SWAP2 PUSH2 0x45C9 JUMP JUMPDEST PUSH2 0x41C2 PUSH2 0x84D JUMP JUMPDEST PUSH2 0x4175 JUMP JUMPDEST PUSH2 0x3C06 SWAP1 PUSH2 0x41D3 PUSH2 0x314C JUMP JUMPDEST DUP1 MLOAD ISZERO PUSH2 0x4220 JUMPI JUMPDEST PUSH20 0x7CEB23FD6BC0ADD59E62AC25578270CFF1B9F619 PUSH1 0x20 DUP3 ADD MSTORE DUP1 MLOAD PUSH1 0x1 LT ISZERO PUSH2 0x4147 JUMPI PUSH20 0x2791BCA1F2DE4661ED88A30C99A7A9449AA84174 PUSH1 0x40 DUP3 ADD MSTORE ADDRESS SWAP2 PUSH2 0x45C9 JUMP JUMPDEST PUSH2 0x4228 PUSH2 0x84D JUMP JUMPDEST PUSH2 0x41DB JUMP JUMPDEST PUSH2 0x3C06 SWAP1 PUSH2 0x4239 PUSH2 0x314C JUMP JUMPDEST DUP1 MLOAD ISZERO PUSH2 0x4286 JUMPI JUMPDEST PUSH20 0x1BFD67037B42CF73ACF2047067BD4F2C47D9BFD6 PUSH1 0x20 DUP3 ADD MSTORE DUP1 MLOAD PUSH1 0x1 LT ISZERO PUSH2 0x4147 JUMPI PUSH20 0x2791BCA1F2DE4661ED88A30C99A7A9449AA84174 PUSH1 0x40 DUP3 ADD MSTORE ADDRESS SWAP2 PUSH2 0x45C9 JUMP JUMPDEST PUSH2 0x428E PUSH2 0x84D JUMP JUMPDEST PUSH2 0x4241 JUMP JUMPDEST PUSH20 0xFFFFFFFFFFFFFFFFFFFFFFFFFFFFFFFFFFFFFFFF PUSH1 0x40 MLOAD SWAP2 PUSH32 0x70A0823100000000000000000000000000000000000000000000000000000000 DUP4 MSTORE AND PUSH1 0x4 DUP3 ADD MSTORE PUSH1 0x20 DUP2 PUSH1 0x24 DUP2 PUSH20 0xD500B1D8E8EF31E21C99D1DB9A6444D3ADF1270 GAS STATICCALL SWAP1 DUP2 ISZERO PUSH2 0x431D JUMPI JUMPDEST PUSH1 0x0 SWAP2 PUSH2 0x4305 JUMPI POP SWAP1 JUMP JUMPDEST PUSH2 0x559 SWAP2 POP PUSH1 0x20 RETURNDATASIZE DUP2 GT PUSH2 0x15EE JUMPI PUSH2 0x15E0 DUP2 DUP4 PUSH2 0x1B6E JUMP JUMPDEST PUSH2 0x4325 PUSH2 0x2D3B JUMP JUMPDEST PUSH2 0x42FA JUMP JUMPDEST PUSH20 0xFFFFFFFFFFFFFFFFFFFFFFFFFFFFFFFFFFFFFFFF PUSH1 0x40 MLOAD SWAP2 PUSH32 0x70A0823100000000000000000000000000000000000000000000000000000000 DUP4 MSTORE AND PUSH1 0x4 DUP3 ADD MSTORE PUSH1 0x20 DUP2 PUSH1 0x24 DUP2 PUSH20 0xBBBA073C31BF03B8ACF7C28EF0738DECF3695683 GAS STATICCALL SWAP1 DUP2 ISZERO PUSH2 0x431D JUMPI PUSH1 0x0 SWAP2 PUSH2 0x4305 JUMPI POP SWAP1 JUMP JUMPDEST PUSH20 0xFFFFFFFFFFFFFFFFFFFFFFFFFFFFFFFFFFFFFFFF PUSH1 0x40 MLOAD SWAP2 PUSH32 0x70A0823100000000000000000000000000000000000000000000000000000000 DUP4 MSTORE AND PUSH1 0x4 DUP3 ADD MSTORE PUSH1 0x20 DUP2 PUSH1 0x24 DUP2 PUSH20 0x7CEB23FD6BC0ADD59E62AC25578270CFF1B9F619 GAS STATICCALL SWAP1 DUP2 ISZERO PUSH2 0x431D JUMPI PUSH1 0x0 SWAP2 PUSH2 0x4305 JUMPI POP SWAP1 JUMP JUMPDEST PUSH20 0xFFFFFFFFFFFFFFFFFFFFFFFFFFFFFFFFFFFFFFFF PUSH1 0x40 MLOAD SWAP2 PUSH32 0x70A0823100000000000000000000000000000000000000000000000000000000 DUP4 MSTORE AND PUSH1 0x4 DUP3 ADD MSTORE PUSH1 0x20 DUP2 PUSH1 0x24 DUP2 PUSH20 0x1BFD67037B42CF73ACF2047067BD4F2C47D9BFD6 GAS STATICCALL SWAP1 DUP2 ISZERO PUSH2 0x431D JUMPI PUSH1 0x0 SWAP2 PUSH2 0x4305 JUMPI POP SWAP1 JUMP JUMPDEST PUSH20 0xFFFFFFFFFFFFFFFFFFFFFFFFFFFFFFFFFFFFFFFF PUSH1 0x40 MLOAD SWAP2 PUSH32 0x70A0823100000000000000000000000000000000000000000000000000000000 DUP4 MSTORE AND PUSH1 0x4 DUP3 ADD MSTORE PUSH1 0x20 DUP2 PUSH1 0x24 DUP2 PUSH20 0x2791BCA1F2DE4661ED88A30C99A7A9449AA84174 GAS STATICCALL SWAP1 DUP2 ISZERO PUSH2 0x431D JUMPI PUSH1 0x0 SWAP2 PUSH2 0x4305 JUMPI POP SWAP1 JUMP JUMPDEST PUSH1 0x20 SWAP1 PUSH1 0x24 PUSH1 0x40 MLOAD DUP1 SWAP5 DUP2 SWAP4 PUSH32 0x70A0823100000000000000000000000000000000000000000000000000000000 DUP4 MSTORE PUSH20 0xFFFFFFFFFFFFFFFFFFFFFFFFFFFFFFFFFFFFFFFF DUP1 SWAP3 AND PUSH1 0x4 DUP5 ADD MSTORE AND GAS STATICCALL SWAP1 DUP2 ISZERO PUSH2 0x431D JUMPI PUSH1 0x0 SWAP2 PUSH2 0x4305 JUMPI POP SWAP1 JUMP JUMPDEST PUSH1 0x20 SWAP1 DUP2 DUP2 DUP5 SUB SLT PUSH2 0x41B JUMPI DUP1 MLOAD SWAP1 PUSH8 0xFFFFFFFFFFFFFFFF DUP3 GT PUSH2 0x41B JUMPI ADD SWAP2 DUP1 PUSH1 0x1F DUP5 ADD SLT ISZERO PUSH2 0x41B JUMPI DUP3 MLOAD PUSH2 0x4585 DUP2 PUSH2 0x1BBC JUMP JUMPDEST SWAP4 PUSH2 0x4593 PUSH1 0x40 MLOAD SWAP6 DUP7 PUSH2 0x1B6E JUMP JUMPDEST DUP2 DUP6 MSTORE DUP4 DUP1 DUP7 ADD SWAP3 PUSH1 0x5 SHL DUP3 ADD ADD SWAP3 DUP4 GT PUSH2 0x41B JUMPI DUP4 ADD SWAP1 JUMPDEST DUP3 DUP3 LT PUSH2 0x45BA JUMPI POP POP POP POP SWAP1 JUMP JUMPDEST DUP2 MLOAD DUP2 MSTORE SWAP1 DUP4 ADD SWAP1 DUP4 ADD PUSH2 0x45AC JUMP JUMPDEST SWAP2 PUSH2 0x4637 SWAP1 PUSH1 0x0 SWAP3 DUP4 PUSH20 0xFFFFFFFFFFFFFFFFFFFFFFFFFFFFFFFFFFFFFFFF SWAP6 DUP7 PUSH1 0xF SLOAD AND SWAP4 PUSH1 0x40 MLOAD SWAP8 DUP9 SWAP7 DUP8 SWAP6 DUP7 SWAP5 PUSH32 0x38ED173900000000000000000000000000000000000000000000000000000000 DUP7 MSTORE PUSH1 0x4 DUP7 ADD MSTORE DUP6 PUSH1 0x24 DUP7 ADD MSTORE PUSH1 0xA0 PUSH1 0x44 DUP7 ADD MSTORE PUSH1 0xA4 DUP6 ADD SWAP1 PUSH2 0x3348 JUMP JUMPDEST SWAP2 AND PUSH1 0x64 DUP4 ADD MSTORE PUSH5 0x174876E7FF PUSH1 0x84 DUP4 ADD MSTORE SUB SWAP3 GAS CALL DUP1 ISZERO PUSH2 0x466F JUMPI JUMPDEST PUSH2 0x465B JUMPI POP JUMP JUMPDEST PUSH2 0x354F SWAP1 RETURNDATASIZE DUP1 PUSH1 0x0 DUP4 RETURNDATACOPY PUSH2 0x1D5E DUP2 DUP4 PUSH2 0x1B6E JUMP JUMPDEST PUSH2 0x4677 PUSH2 0x2D3B JUMP JUMPDEST PUSH2 0x4654 JUMP INVALID LOG2 PUSH5 0x6970667358 0x22 SLT KECCAK256 0xB9 DUP15 LOG3 SWAP11 SAR 0xC 0xD9 LOG3 0xE8 DUP15 PUSH23 0xADE0558227C2E7D2285984DE1DC8CF4322608DCC666473 PUSH16 0x6C634300080D00330000000000000000 STOP STOP STOP STOP 0x27 SWAP2 0xBC LOG1 CALLCODE 0xDE CHAINID PUSH2 0xED88 LOG3 0xC SWAP10 0xA7 0xA9 DIFFICULTY SWAP11 0xA8 COINBASE PUSH21 0x0 "},"methodIdentifiers":{"BTC_USD_ORACLE()":"b6e20a6a","ETH_USD_ORACLE()":"718176e5","MATIC_USD_ORACLE()":"8db9f39a","QUICKSWAP_ROUTER()":"d0919116","SANDToUSDCPath(uint256)":"a48ce279","SAND_ADDRESS()":"2d365d31","SAND_USD_ORACLE()":"cd3f5b53","USDCToSANDPath(uint256)":"23aad7af","USDCToWBTCPath(uint256)":"a15c7d10","USDCToWETHPath(uint256)":"cb3601b1","USDCToWMATICPath(uint256)":"69bc4388","USDC_ADDRESS()":"bb09d9b7","WBTCToUSDCPath(uint256)":"ca970905","WBTC_ADDRESS()":"bdd5915f","WETHToUSDCPath(uint256)":"44345f23","WETH_ADDRESS()":"040141e5","WMATICToUSDCPath(uint256)":"681bcf13","WMATIC_ADDRESS()":"e95d8328","allowance(address,address)":"dd62ed3e","approve(address,uint256)":"095ea7b3","approveSpendingWholeBalance(address,address)":"aa5a7aa3","approve_spending(address,address,uint256)":"29a97ec2","balanceOf(address)":"70a08231","checkUpkeep(bytes)":"6e04ff0d","decimals()":"313ce567","decreaseAllowance(address,uint256)":"a457c2d7","depositUserFunds(uint256)":"c5764eec","getLatestPrice(address)":"16345f18","getUSDPortfolioTotal()":"153f29c7","getUSDTokenBalanceOf(address,address,uint256)":"51f54887","increaseAllowance(address,uint256)":"39509351","interval()":"947a36fb","lastTimeStamp()":"3f3b3b27","mintOnDeposit(address,uint256,uint256)":"01f10d2a","name()":"06fdde03","performUpkeep(bytes)":"4585e33b","quickSwapRouter()":"e189eb42","setInterval(uint256)":"22a90082","swap(uint256,uint256,address[],address,uint256)":"90f11e84","swapBackToUSDC(address,uint256)":"cf412810","swapIntoFourEqualParts(uint256)":"88e42b08","swapProportionately(uint256,uint256,uint256,uint256,uint256,uint256)":"764f96f9","symbol()":"95d89b41","tokenBalanceOf(address,address)":"1bea8006","totalSupply()":"18160ddd","transfer(address,uint256)":"a9059cbb","transferFrom(address,address,uint256)":"23b872dd","withdraw(uint256,address,address)":"b460af94","withdrawUserFunds(address)":"24e2e7bb"}}}}}