{"contracts/autoBalancer.sol":{"autoBalancer":{"abi":[{"inputs":[],"stateMutability":"nonpayable","type":"constructor"},{"anonymous":false,"inputs":[{"indexed":true,"internalType":"address","name":"owner","type":"address"},{"indexed":true,"internalType":"address","name":"spender","type":"address"},{"indexed":false,"internalType":"uint256","name":"value","type":"uint256"}],"name":"Approval","type":"event"},{"anonymous":false,"inputs":[{"indexed":true,"internalType":"address","name":"from","type":"address"},{"indexed":true,"internalType":"address","name":"to","type":"address"},{"indexed":false,"internalType":"uint256","name":"value","type":"uint256"}],"name":"Transfer","type":"event"},{"inputs":[],"name":"BTC_USD_ORACLE","outputs":[{"internalType":"address","name":"","type":"address"}],"stateMutability":"view","type":"function"},{"inputs":[],"name":"ETH_USD_ORACLE","outputs":[{"internalType":"address","name":"","type":"address"}],"stateMutability":"view","type":"function"},{"inputs":[],"name":"MATIC_USD_ORACLE","outputs":[{"internalType":"address","name":"","type":"address"}],"stateMutability":"view","type":"function"},{"inputs":[],"name":"QUICKSWAP_ROUTER","outputs":[{"internalType":"address","name":"","type":"address"}],"stateMutability":"view","type":"function"},{"inputs":[{"internalType":"uint256","name":"","type":"uint256"}],"name":"SANDToUSDCPath","outputs":[{"internalType":"address","name":"","type":"address"}],"stateMutability":"view","type":"function"},{"inputs":[],"name":"SAND_ADDRESS","outputs":[{"internalType":"address","name":"","type":"address"}],"stateMutability":"view","type":"function"},{"inputs":[],"name":"SAND_USD_ORACLE","outputs":[{"internalType":"address","name":"","type":"address"}],"stateMutability":"view","type":"function"},{"inputs":[{"internalType":"uint256","name":"","type":"uint256"}],"name":"USDCToSANDPath","outputs":[{"internalType":"address","name":"","type":"address"}],"stateMutability":"view","type":"function"},{"inputs":[{"internalType":"uint256","name":"","type":"uint256"}],"name":"USDCToWBTCPath","outputs":[{"internalType":"address","name":"","type":"address"}],"stateMutability":"view","type":"function"},{"inputs":[{"internalType":"uint256","name":"","type":"uint256"}],"name":"USDCToWETHPath","outputs":[{"internalType":"address","name":"","type":"address"}],"stateMutability":"view","type":"function"},{"inputs":[{"internalType":"uint256","name":"","type":"uint256"}],"name":"USDCToWMATICPath","outputs":[{"internalType":"address","name":"","type":"address"}],"stateMutability":"view","type":"function"},{"inputs":[],"name":"USDC_ADDRESS","outputs":[{"internalType":"address","name":"","type":"address"}],"stateMutability":"view","type":"function"},{"inputs":[{"internalType":"uint256","name":"","type":"uint256"}],"name":"WBTCToUSDCPath","outputs":[{"internalType":"address","name":"","type":"address"}],"stateMutability":"view","type":"function"},{"inputs":[],"name":"WBTC_ADDRESS","outputs":[{"internalType":"address","name":"","type":"address"}],"stateMutability":"view","type":"function"},{"inputs":[{"internalType":"uint256","name":"","type":"uint256"}],"name":"WETHToUSDCPath","outputs":[{"internalType":"address","name":"","type":"address"}],"stateMutability":"view","type":"function"},{"inputs":[],"name":"WETH_ADDRESS","outputs":[{"internalType":"address","name":"","type":"address"}],"stateMutability":"view","type":"function"},{"inputs":[{"internalType":"uint256","name":"","type":"uint256"}],"name":"WMATICToUSDCPath","outputs":[{"internalType":"address","name":"","type":"address"}],"stateMutability":"view","type":"function"},{"inputs":[],"name":"WMATIC_ADDRESS","outputs":[{"internalType":"address","name":"","type":"address"}],"stateMutability":"view","type":"function"},{"inputs":[{"internalType":"address","name":"owner","type":"address"},{"internalType":"address","name":"spender","type":"address"}],"name":"allowance","outputs":[{"internalType":"uint256","name":"","type":"uint256"}],"stateMutability":"view","type":"function"},{"inputs":[{"internalType":"address","name":"spender","type":"address"},{"internalType":"uint256","name":"amount","type":"uint256"}],"name":"approve","outputs":[{"internalType":"bool","name":"","type":"bool"}],"stateMutability":"nonpayable","type":"function"},{"inputs":[{"internalType":"address","name":"_token","type":"address"},{"internalType":"address","name":"_spender","type":"address"}],"name":"approveSpendingWholeBalance","outputs":[],"stateMutability":"nonpayable","type":"function"},{"inputs":[{"internalType":"address","name":"token_address","type":"address"},{"internalType":"address","name":"spender_address","type":"address"},{"internalType":"uint256","name":"amount_to_approve","type":"uint256"}],"name":"approve_spending","outputs":[],"stateMutability":"nonpayable","type":"function"},{"inputs":[{"internalType":"address","name":"account","type":"address"}],"name":"balanceOf","outputs":[{"internalType":"uint256","name":"","type":"uint256"}],"stateMutability":"view","type":"function"},{"inputs":[{"internalType":"bytes","name":"","type":"bytes"}],"name":"checkUpkeep","outputs":[{"internalType":"bool","name":"upkeepNeeded","type":"bool"},{"internalType":"bytes","name":"performData","type":"bytes"}],"stateMutability":"view","type":"function"},{"inputs":[],"name":"decimals","outputs":[{"internalType":"uint8","name":"","type":"uint8"}],"stateMutability":"view","type":"function"},{"inputs":[{"internalType":"address","name":"spender","type":"address"},{"internalType":"uint256","name":"subtractedValue","type":"uint256"}],"name":"decreaseAllowance","outputs":[{"internalType":"bool","name":"","type":"bool"}],"stateMutability":"nonpayable","type":"function"},{"inputs":[{"internalType":"uint256","name":"deposit_amount","type":"uint256"}],"name":"depositUserFunds","outputs":[],"stateMutability":"nonpayable","type":"function"},{"inputs":[{"internalType":"address","name":"_oracle_address","type":"address"}],"name":"getLatestPrice","outputs":[{"internalType":"int256","name":"","type":"int256"}],"stateMutability":"view","type":"function"},{"inputs":[],"name":"getUSDPortfolioTotal","outputs":[{"internalType":"uint256","name":"Total_in_USD","type":"uint256"}],"stateMutability":"view","type":"function"},{"inputs":[{"internalType":"address","name":"token_address","type":"address"},{"internalType":"address","name":"oracle_address","type":"address"},{"internalType":"uint256","name":"token_decimals","type":"uint256"}],"name":"getUSDTokenBalanceOf","outputs":[{"internalType":"uint256","name":"","type":"uint256"}],"stateMutability":"view","type":"function"},{"inputs":[{"internalType":"address","name":"spender","type":"address"},{"internalType":"uint256","name":"addedValue","type":"uint256"}],"name":"increaseAllowance","outputs":[{"internalType":"bool","name":"","type":"bool"}],"stateMutability":"nonpayable","type":"function"},{"inputs":[],"name":"interval","outputs":[{"internalType":"uint256","name":"","type":"uint256"}],"stateMutability":"view","type":"function"},{"inputs":[],"name":"lastTimeStamp","outputs":[{"internalType":"uint256","name":"","type":"uint256"}],"stateMutability":"view","type":"function"},{"inputs":[{"internalType":"address","name":"user","type":"address"},{"internalType":"uint256","name":"portfolio_value_usd","type":"uint256"}],"name":"mintOnDeposit","outputs":[],"stateMutability":"nonpayable","type":"function"},{"inputs":[],"name":"name","outputs":[{"internalType":"string","name":"","type":"string"}],"stateMutability":"view","type":"function"},{"inputs":[{"internalType":"bytes","name":"performData","type":"bytes"}],"name":"performUpkeep","outputs":[],"stateMutability":"nonpayable","type":"function"},{"inputs":[],"name":"quickSwapRouter","outputs":[{"internalType":"contract IUniswapV2Router02","name":"","type":"address"}],"stateMutability":"view","type":"function"},{"inputs":[{"internalType":"uint256","name":"new_interval","type":"uint256"}],"name":"setInterval","outputs":[],"stateMutability":"nonpayable","type":"function"},{"inputs":[{"internalType":"uint256","name":"_amountIn","type":"uint256"},{"internalType":"uint256","name":"_amountOutMin","type":"uint256"},{"internalType":"address[]","name":"_path","type":"address[]"},{"internalType":"address","name":"_acct","type":"address"},{"internalType":"uint256","name":"_deadline","type":"uint256"}],"name":"swap","outputs":[],"stateMutability":"nonpayable","type":"function"},{"inputs":[{"internalType":"address","name":"_token","type":"address"},{"internalType":"uint256","name":"_amount","type":"uint256"}],"name":"swapBackToUSDC","outputs":[],"stateMutability":"nonpayable","type":"function"},{"inputs":[{"internalType":"uint256","name":"amount","type":"uint256"}],"name":"swapIntoFourEqualParts","outputs":[],"stateMutability":"nonpayable","type":"function"},{"inputs":[{"internalType":"uint256","name":"WMATIC_amount","type":"uint256"},{"internalType":"uint256","name":"SAND_amount","type":"uint256"},{"internalType":"uint256","name":"WETH_amount","type":"uint256"},{"internalType":"uint256","name":"WBTC_amount","type":"uint256"},{"internalType":"uint256","name":"totalUSDAmount","type":"uint256"},{"internalType":"uint256","name":"depositAmount","type":"uint256"}],"name":"swapProportionately","outputs":[],"stateMutability":"nonpayable","type":"function"},{"inputs":[],"name":"symbol","outputs":[{"internalType":"string","name":"","type":"string"}],"stateMutability":"view","type":"function"},{"inputs":[],"name":"threshold_percentage","outputs":[{"internalType":"uint256","name":"","type":"uint256"}],"stateMutability":"view","type":"function"},{"inputs":[{"internalType":"address","name":"token_address","type":"address"},{"internalType":"address","name":"user_address","type":"address"}],"name":"tokenBalanceOf","outputs":[{"internalType":"uint256","name":"token_balance","type":"uint256"}],"stateMutability":"view","type":"function"},{"inputs":[],"name":"totalSupply","outputs":[{"internalType":"uint256","name":"","type":"uint256"}],"stateMutability":"view","type":"function"},{"inputs":[{"internalType":"address","name":"to","type":"address"},{"internalType":"uint256","name":"amount","type":"uint256"}],"name":"transfer","outputs":[{"internalType":"bool","name":"","type":"bool"}],"stateMutability":"nonpayable","type":"function"},{"inputs":[{"internalType":"address","name":"from","type":"address"},{"internalType":"address","name":"to","type":"address"},{"internalType":"uint256","name":"amount","type":"uint256"}],"name":"transferFrom","outputs":[{"internalType":"bool","name":"","type":"bool"}],"stateMutability":"nonpayable","type":"function"},{"inputs":[{"internalType":"uint256","name":"amount_","type":"uint256"},{"internalType":"address","name":"token_address","type":"address"},{"internalType":"address","name":"address_to","type":"address"}],"name":"withdraw","outputs":[],"stateMutability":"nonpayable","type":"function"},{"inputs":[{"internalType":"address","name":"user","type":"address"}],"name":"withdrawUserFunds","outputs":[],"stateMutability":"nonpayable","type":"function"},{"stateMutability":"payable","type":"receive"}],"evm":{"bytecode":{"linkReferences":{},"object":"6080604052346200027f576200002962000018620002ca565b62000022620002f0565b90620009f9565b62000232620000376200029b565b6000805160206200528183398151915281526200007660209162000070838201730d500b1d8e8ef31e21c99d1db9a6444d3adf12709052565b62000326565b620000b5620000846200029b565b60008051602062005281833981519152815273bbba073c31bf03b8acf7c28ef0738decf369568381840152620003c7565b620000f4620000c36200029b565b600080516020620052818339815191528152737ceb23fd6bc0add59e62ac25578270cff1b9f6198184015262000468565b62000133620001026200029b565b600080516020620052818339815191528152731bfd67037b42cf73acf2047067bd4f2c47d9bfd68184015262000509565b62000172620001416200029b565b730d500b1d8e8ef31e21c99d1db9a6444d3adf127081526000805160206200528183398151915281840152620005aa565b620001b1620001806200029b565b73bbba073c31bf03b8acf7c28ef0738decf3695683815260008051602062005281833981519152818401526200064b565b620001f0620001bf6200029b565b737ceb23fd6bc0add59e62ac25578270cff1b9f61981526000805160206200528183398151915281840152620006ec565b6200022c620001fe6200029b565b731bfd67037b42cf73acf2047067bd4f2c47d9bfd68152918201600080516020620052818339815191529052565b6200078d565b6200023e610e10600e55565b620002496005600f55565b601080546001600160a01b03191673a5e0829caced8ffdd4de3c43696c57f7d7a678ff17905560405161476e908162000b138239f35b600080fd5b50634e487b7160e01b600052604160045260246000fd5b60408051919082016001600160401b03811183821017620002bb57604052565b620002c562000284565b604052565b620002d46200029b565b90600c82526b30baba37a130b630b731b2b960a11b6020830152565b620002fa6200029b565b90600382526241424160e81b6020830152565b81811062000319575050565b600081556001016200030d565b600554906002918260055580831062000389575b5060056000526020806000206000925b84841062000359575050505050565b805182546001600160a01b0319166001600160a01b0391909116178255600193840193919091019082016200034a565b6005600052620003c0907f036b6384b5eca791c62761152d0c79bb0604c104a5fb6f4eb0703f3154bb3db09081019084016200030d565b386200033a565b60065490600291826006558083106200042a575b5060066000526020806000206000925b848410620003fa575050505050565b805182546001600160a01b0319166001600160a01b039190911617825560019384019391909101908201620003eb565b600660005262000461907ff652222313e28459528d920b65115c16c04f3efc82aaedc97be59f3f377c0d3f9081019084016200030d565b38620003db565b6007549060029182600755808310620004cb575b5060076000526020806000206000925b8484106200049b575050505050565b805182546001600160a01b0319166001600160a01b0391909116178255600193840193919091019082016200048c565b600760005262000502907fa66cc928b5edb82af9bd49922954155ab7b0942694bea4ce44661d9a8736c6889081019084016200030d565b386200047c565b60085490600291826008558083106200056c575b5060086000526020806000206000925b8484106200053c575050505050565b805182546001600160a01b0319166001600160a01b0391909116178255600193840193919091019082016200052d565b6008600052620005a3907ff3f7a9fe364faab93b216da50a3214154f22a0a2b415b23a84c8169e8b636ee39081019084016200030d565b386200051d565b60095490600291826009558083106200060d575b5060096000526020806000206000925b848410620005dd575050505050565b805182546001600160a01b0319166001600160a01b039190911617825560019384019391909101908201620005ce565b600960005262000644907f6e1540171b6c0c960b71a7020d9f60077f6af931a8bbf590da0223dacf75c7af9081019084016200030d565b38620005be565b600a549060029182600a55808310620006ae575b50600a6000526020806000206000925b8484106200067e575050505050565b805182546001600160a01b0319166001600160a01b0391909116178255600193840193919091019082016200066f565b600a600052620006e5907fc65a7bb8d6351c1cf70c95a316cc6a92839c986682d98bc35f958f4883f9d2a89081019084016200030d565b386200065f565b600b549060029182600b558083106200074f575b50600b6000526020806000206000925b8484106200071f575050505050565b805182546001600160a01b0319166001600160a01b03919091161782556001938401939190910190820162000710565b600b60005262000786907f0175b7a638427703f0dbe7bb9bbf987a2551717b34e79f33b5b1008d1fa01db99081019084016200030d565b3862000700565b600c549060029182600c55808310620007f0575b50600c6000526020806000206000925b848410620007c0575050505050565b805182546001600160a01b0319166001600160a01b039190911617825560019384019391909101908201620007b1565b600c60005262000827907fdf6966c971051c3d54ec59162606531493a51404a002842f56009d7e5cf4a8c79081019084016200030d565b38620007a1565b90600182811c9216801562000860575b60208310146200084a57565b634e487b7160e01b600052602260045260246000fd5b91607f16916200083e565b90601f821162000879575050565b620008aa9160036000526020600020906020601f840160051c83019310620008ac575b601f0160051c01906200030d565b565b90915081906200089c565b90601f8211620008c5575050565b620008aa9160046000526020600020906020601f840160051c83019310620008ac57601f0160051c01906200030d565b80519091906001600160401b038111620009e9575b62000922816200091c6004546200082e565b620008b7565b602080601f831160011462000961575081929360009262000955575b50508160011b916000199060031b1c191617600455565b0151905038806200093e565b6004600052601f198316949091907f8a35acfbc15ff81a39ae7d344fd709f28e8600b4aa8c65c6b64bfe7fe36bd19b926000905b878210620009d0575050836001959610620009b6575b505050811b01600455565b015160001960f88460031b161c19169055388080620009ab565b8060018596829496860151815501950193019062000995565b620009f362000284565b6200090a565b80519091906001600160401b03811162000b02575b62000a268162000a206003546200082e565b6200086b565b602080601f831160011462000a6d57508190620008aa9460009262000a61575b50508160011b916000199060031b1c191617600355620008f5565b01519050388062000a46565b60036000529293919291601f1984167fc2575a0e9e593c00f959f8c92f12db2869c3395a3b0502d05e2516446f71f85b936000905b82821062000ae9575050916001939185620008aa9796941062000acf575b505050811b01600355620008f5565b015160001960f88460031b161c1916905538808062000ac0565b8060018697829497870151815501960194019062000aa2565b62000b0c62000284565b62000a0e56fe6080604052600436101561001b575b361561001957600080fd5b005b60003560e01c8063040141e51461040357806306fdde03146103fa578063095ea7b3146103f1578063153f29c7146103e857806316345f18146103df57806318160ddd146103d65780631bea8006146103cd57806322a90082146103c457806323aad7af146103bb57806323b872dd146103b257806324e2e7bb146103a957806329a97ec2146103a05780632d365d3114610397578063313ce5671461038e57806339509351146103855780633f3b3b271461037c57806344345f23146103735780634585e33b1461036a57806351f5488714610361578063681bcf131461035857806369bc43881461034f5780636e04ff0d1461034657806370a082311461033d578063718176e514610334578063764f96f91461032b57806388e42b08146103225780638db9f39a1461031957806390f11e841461031057806394362e8b14610307578063947a36fb146102fe57806395d89b41146102f5578063a15c7d10146102ec578063a457c2d7146102e3578063a48ce279146102da578063a9059cbb146102d1578063aa5a7aa3146102c8578063b460af94146102bf578063b6e20a6a146102b6578063bb09d9b7146102ad578063bdd5915f146102a4578063c5764eec1461029b578063ca97090514610292578063cb3601b114610289578063cd3f5b5314610280578063cf41281014610277578063d09191161461026e578063d239c68114610265578063dd62ed3e1461025c578063e189eb42146102535763e95d83280361000e5761024e61289f565b61000e565b5061024e61284c565b5061024e6127b6565b5061024e612779565b5061024e61272b565b5061024e61267b565b5061024e61262d565b5061024e6125a7565b5061024e612521565b5061024e6123e4565b5061024e612396565b5061024e612348565b5061024e6122fa565b5061024e612200565b5061024e61212e565b5061024e6120e9565b5061024e612063565b5061024e611f57565b5061024e611ed1565b5061024e611def565b5061024e611db2565b5061024e611d6e565b5061024e611c59565b5061024e611aeb565b5061024e611ab0565b5061024e611a66565b5061024e611a18565b5061024e6119b2565b5061024e61121d565b5061024e61117e565b5061024e6110f8565b5061024e61106e565b5061024e610e4c565b5061024e610d5e565b5061024e610d21565b5061024e610c9c565b5061024e610c61565b5061024e610c13565b5061024e610bfb565b5061024e610a3d565b5061024e610926565b5061024e610840565b5061024e6107d8565b5061024e61078d565b5061024e610750565b5061024e61070e565b5061024e6106cc565b5061024e61067c565b5061024e6104d9565b50346104515760007ffffffffffffffffffffffffffffffffffffffffffffffffffffffffffffffffc360112610451576020604051737ceb23fd6bc0add59e62ac25578270cff1b9f6198152f35b600080fd5b91908251928382526000905b8482106104ad5750601f84602094957fffffffffffffffffffffffffffffffffffffffffffffffffffffffffffffffe093116104a0575b0116010190565b6000858286010152610499565b90602090818082850101519082860101520190610462565b9060206104d6928181520190610456565b90565b5034610451576000807ffffffffffffffffffffffffffffffffffffffffffffffffffffffffffffffffc3601126106335760405190806003549060019180831c92808216928315610629575b60209283861085146105fc5785885260208801949081156105c25750600114610569575b6105658761055981890382611b69565b604051918291826104c5565b0390f35b600360005294509192917fc2575a0e9e593c00f959f8c92f12db2869c3395a3b0502d05e2516446f71f85b5b8386106105b15750505091019050610559826105653880610549565b805485870152948201948101610595565b7fffffffffffffffffffffffffffffffffffffffffffffffffffffffffffffff001685525050500191506105599050826105653880610549565b6024827f4e487b710000000000000000000000000000000000000000000000000000000081526022600452fd5b93607f1693610525565b80fd5b6004359073ffffffffffffffffffffffffffffffffffffffff8216820361045157565b6024359073ffffffffffffffffffffffffffffffffffffffff8216820361045157565b50346104515760407ffffffffffffffffffffffffffffffffffffffffffffffffffffffffffffffffc360112610451576106c16106b7610636565b6024359033612bd4565b602060405160018152f35b50346104515760007ffffffffffffffffffffffffffffffffffffffffffffffffffffffffffffffffc360112610451576020610706613c21565b604051908152f35b50346104515760207ffffffffffffffffffffffffffffffffffffffffffffffffffffffffffffffffc36011261045157602061070661074b610636565b612db2565b50346104515760007ffffffffffffffffffffffffffffffffffffffffffffffffffffffffffffffffc360112610451576020600254604051908152f35b50346104515760407ffffffffffffffffffffffffffffffffffffffffffffffffffffffffffffffffc3601126104515760206107066107ca610636565b6107d2610659565b906145aa565b50346104515760207ffffffffffffffffffffffffffffffffffffffffffffffffffffffffffffffffc36011261045157600435600e55005b507f4e487b7100000000000000000000000000000000000000000000000000000000600052603260045260246000fd5b50346104515760207ffffffffffffffffffffffffffffffffffffffffffffffffffffffffffffffffc360112610451576004356006548110156104515773ffffffffffffffffffffffffffffffffffffffff60209160066000527ff652222313e28459528d920b65115c16c04f3efc82aaedc97be59f3f377c0d3f015416604051908152f35b7ffffffffffffffffffffffffffffffffffffffffffffffffffffffffffffffffc60609101126104515773ffffffffffffffffffffffffffffffffffffffff90600435828116810361045157916024359081168103610451579060443590565b503461045157610935366108c6565b9073ffffffffffffffffffffffffffffffffffffffff831660005260016020526109833360406000209073ffffffffffffffffffffffffffffffffffffffff16600052602052604060002090565b54927fffffffffffffffffffffffffffffffffffffffffffffffffffffffffffffffff84036109c3575b6109b79350612a4b565b60405160018152602090f35b8284106109df576109da836109b795033383612bd4565b6109ad565b60646040517f08c379a000000000000000000000000000000000000000000000000000000000815260206004820152601d60248201527f45524332303a20696e73756666696369656e7420616c6c6f77616e63650000006044820152fd5b50346104515760207ffffffffffffffffffffffffffffffffffffffffffffffffffffffffffffffffc36011261045157610019610a78610636565b73ffffffffffffffffffffffffffffffffffffffff81166000526000602052610bb8610ab2604060002054610aac3061434f565b9061309c565b610bb3610ac26002548093613119565b91610bae610b0682610b01610af78973ffffffffffffffffffffffffffffffffffffffff166000526000602052604060002090565b54610aac306143e6565b613119565b610ba9610b7f610b4785610b01610b3d8c73ffffffffffffffffffffffffffffffffffffffff166000526000602052604060002090565b54610aac30614457565b94610b01610b758b73ffffffffffffffffffffffffffffffffffffffff166000526000602052604060002090565b54610aac306144c8565b95610b8981613563565b610b92836135fd565b610b9b8561366f565b610ba4876136e1565b6141a9565b61421d565b614283565b6142e9565b610bca81610bc530614539565b614134565b610bf48173ffffffffffffffffffffffffffffffffffffffff166000526000602052604060002090565b5490613f62565b503461045157610019610c0d366108c6565b9161383c565b50346104515760007ffffffffffffffffffffffffffffffffffffffffffffffffffffffffffffffffc36011261045157602060405173bbba073c31bf03b8acf7c28ef0738decf36956838152f35b50346104515760007ffffffffffffffffffffffffffffffffffffffffffffffffffffffffffffffffc36011261045157602060405160128152f35b50346104515760407ffffffffffffffffffffffffffffffffffffffffffffffffffffffffffffffffc360112610451576106c1610cd7610636565b336000526001602052610d1a602435610d148360406000209073ffffffffffffffffffffffffffffffffffffffff16600052602052604060002090565b5461291d565b9033612bd4565b50346104515760007ffffffffffffffffffffffffffffffffffffffffffffffffffffffffffffffffc360112610451576020600d54604051908152f35b50346104515760207ffffffffffffffffffffffffffffffffffffffffffffffffffffffffffffffffc36011261045157600435600b548110156104515773ffffffffffffffffffffffffffffffffffffffff602091600b6000527f0175b7a638427703f0dbe7bb9bbf987a2551717b34e79f33b5b1008d1fa01db9015416604051908152f35b9060207ffffffffffffffffffffffffffffffffffffffffffffffffffffffffffffffffc8301126104515760043567ffffffffffffffff9283821161045157806023830112156104515781600401359384116104515760248483010111610451576024019190565b503461045157610e5b36610de4565b90610e68600d5442613007565b600e5410610e7257005b610e7b42600d55565b610e98610e866131ea565b91610e8f613225565b9381019061347d565b9160005b83519060ff81169182101561001957610fce91610efb610eea610ed0610eca610ec4866133ad565b60ff1690565b88612f61565b5173ffffffffffffffffffffffffffffffffffffffff1690565b610ef48389612f61565b5190613753565b730d500b1d8e8ef31e21c99d1db9a6444d3adf127080610f45610f2c610ed0610f26610ec4886133ad565b8a612f61565b73ffffffffffffffffffffffffffffffffffffffff1690565b14908115611047575b5015610fd357610fc0610fc991610f94610f70610ed0610f26610ec4886133ad565b610f7988612f18565b9073ffffffffffffffffffffffffffffffffffffffff169052565b610fba610fb1610ed0610f26610ec4610fac896133ad565b6133d4565b610f7988612f2e565b87612f61565b51843091614685565b612f83565b610e9c565b61103e610fc991610ff8610fef610ed0610f26610ec4886133ad565b610f798b612f18565b61101d6110048a612f2e565b730d500b1d8e8ef31e21c99d1db9a6444d3adf12709052565b610fba611035610ed0610f26610ec4610fac896133ad565b610f798b612f3f565b51873091614685565b9050611067610f2c610ed0611061610ec4610fac886133ad565b89612f61565b1438610f4e565b5034610451576020610aac6110ce600261109f61109961108d366108c6565b969192909230906145aa565b91612db2565b927ffffffffffffffffffffffffffffffffffffffffffffffffffffffffffffffffd81116110eb575b016130cd565b80156110de575b60405191048152f35b6110e66130e9565b6110d5565b6110f36128ed565b6110c8565b50346104515760207ffffffffffffffffffffffffffffffffffffffffffffffffffffffffffffffffc360112610451576004356009548110156104515773ffffffffffffffffffffffffffffffffffffffff60209160096000527f6e1540171b6c0c960b71a7020d9f60077f6af931a8bbf590da0223dacf75c7af015416604051908152f35b50346104515760207ffffffffffffffffffffffffffffffffffffffffffffffffffffffffffffffffc360112610451576004356005548110156104515773ffffffffffffffffffffffffffffffffffffffff60209160056000527f036b6384b5eca791c62761152d0c79bb0604c104a5fb6f4eb0703f3154bb3db0015416604051908152f35b6040906104d69392151581528160208201520190610456565b50346104515761122c36610de4565b50506000611238612ec1565b90611241612e62565b730d500b1d8e8ef31e21c99d1db9a6444d3adf127060208201529060409161127e83820173ab594600376ec9fd91f8e885dadf0ce036862de09052565b611286612e62565b73bbba073c31bf03b8acf7c28ef0738decf36956836020820152733d49406edd4d52fb7ffd25485f32e073b529c924818501526112c1612e62565b731bfd67037b42cf73acf2047067bd4f2c47d9bfd660208201529073c907e116054ad103354f2d350fd2514433d57f6f828601526112fd612e62565b737ceb23fd6bc0add59e62ac25578270cff1b9f61960208201529273f9680d99d6c9589e2a93a78a04a279e5092059458487015261133a87612f18565b5261134486612f18565b5061134e86612f2e565b5261135885612f2e565b5061136285612f3f565b5261136c84612f3f565b5061137684612f50565b5261138083612f50565b5080805b845160ff9081841610156115cb5761154f918161154061152461151a8a610aac6115148a60e061150b8f8f9c806115499e8960206114f0956113ee610f2c610f2c846113d2898f1688612f61565b51015173ffffffffffffffffffffffffffffffffffffffff1690565b908a8a61148b8351967f70a08231000000000000000000000000000000000000000000000000000000008852600497878180611449308d830191909173ffffffffffffffffffffffffffffffffffffffff6020820193169052565b03818a5afa9081156115be575b8a91611591575b50608061146c8c871684612f61565b5101528961148361074b876113d284891686612f61565b941690612f61565b51015251928380927f313ce5670000000000000000000000000000000000000000000000000000000082525afa918215611584575b91611555575b506114d96060938492169288168b612f61565b5101526114e88c861689612f61565b510151612fbd565b958a608061150082871684612f61565b510151941690612f61565b5101519061309c565b916130cd565b6305f5e100900490565b9160a09283611535838a168d612f61565b510152861689612f61565b5101519061291d565b91612f83565b90611384565b611577915060203d60201161157d575b61156f8183611b69565b810190612fa4565b386114c6565b503d611565565b61158c612da5565b6114c0565b6115b19150883d8a116115b7575b6115a98183611b69565b810190612f95565b3861145d565b503d61159f565b6115c6612da5565b611456565b5083838681600f54925b825160ff8216908110156116575761163a87610b016116358461162d8161161660a06116028e9a8e612f61565b5101516116108d5189613119565b9061312f565b8b61162460c0958692612f61565b5101528a612f61565b510151613513565b61301e565b1161164e575b61164990612f83565b6115d5565b60019150611640565b5050929150600090819382936116756116708451612fd9565b61319b565b9161168b6116706116868651612fd9565b61305e565b96855b6116988651612fd9565b9360ff93848316958610156119625760005b8851868216908110156117255760c08a8c8284816116c88286612f61565b5101511515938461170c575b505050506116ed575b50506116e890612f83565b6116aa565b909550819a506117016116e892968b612f61565b51015199908d6116dd565b61171892939450612f61565b510151138c82848e6116d4565b505090975097929093979491947f7fffffffffffffffffffffffffffffffffffffffffffffffffffffffffffffff9760005b88518c858316918210156117d4575060c08a8c8284816117778286612f61565b510151151593846117bb575b5050505061179c575b505061179790612f83565b611757565b909650819a506117b061179792978b612f61565b51015199908d61178c565b6117c792939450612f61565b510151128c82848e611783565b6118f2925060209150876118ec6113d292610fc9969a9f6118d98f8c9f9c9a9e9a610f799389928f9261190a9f806113d295169360c091826118168787612f61565b5101519c16809c61182b8461162d8489612f61565b1215611912578261187f826118496118d39661162d6000968b612f61565b6118538689612f61565b5261185e8588612f61565b516118778461186d8c8c612f61565b510191825161312f565b905287612f61565b5101526118cd6118b061189b6118958487612f61565b516132cb565b60e06118a78989612f61565b5101519061333e565b6118c76118c260606114e88a8a612f61565b6130cd565b9061333e565b92612f61565b52612f61565b916118e6610ec48b6133ad565b90612f61565b8b612f61565b610f79611904610ec4610fac866133ad565b8d612f61565b92919261168e565b506000826119276118d39461162d8989612f61565b6119318487612f61565b528d6119568261194c611944878a612f61565b51938a612f61565b510191825161325f565b905261187f8787612f61565b61056587926119a88d61197c835196879260208401613430565b037fffffffffffffffffffffffffffffffffffffffffffffffffffffffffffffffe08101865285611b69565b5192839283611204565b50346104515760207ffffffffffffffffffffffffffffffffffffffffffffffffffffffffffffffffc3601126104515773ffffffffffffffffffffffffffffffffffffffff6119ff610636565b1660005260006020526020604060002054604051908152f35b50346104515760007ffffffffffffffffffffffffffffffffffffffffffffffffffffffffffffffffc36011261045157602060405173f9680d99d6c9589e2a93a78a04a279e5092059458152f35b50346104515760c07ffffffffffffffffffffffffffffffffffffffffffffffffffffffffffffffffc3601126104515761001960a435608435606435604435602435600435613e5f565b50346104515760207ffffffffffffffffffffffffffffffffffffffffffffffffffffffffffffffffc36011261045157610019600435613ee7565b50346104515760007ffffffffffffffffffffffffffffffffffffffffffffffffffffffffffffffffc36011261045157602060405173ab594600376ec9fd91f8e885dadf0ce036862de08152f35b507f4e487b7100000000000000000000000000000000000000000000000000000000600052604160045260246000fd5b90601f7fffffffffffffffffffffffffffffffffffffffffffffffffffffffffffffffe0910116810190811067ffffffffffffffff821117611baa57604052565b611bb2611b39565b604052565b60209067ffffffffffffffff8111611bd1575b60051b0190565b611bd9611b39565b611bca565b81601f8201121561045157803591611bf583611bb7565b92611c036040519485611b69565b808452602092838086019260051b820101928311610451578301905b828210611c2d575050505090565b813573ffffffffffffffffffffffffffffffffffffffff81168103610451578152908301908301611c1f565b50346104515760a07ffffffffffffffffffffffffffffffffffffffffffffffffffffffffffffffffc3601126104515760443567ffffffffffffffff811161045157611ca9903690600401611bde565b6064359073ffffffffffffffffffffffffffffffffffffffff80831680930361045157600091611d26916010541690836040518096819582947f38ed17390000000000000000000000000000000000000000000000000000000084526004356004850152602435602485015260a0604485015260a48401906133e6565b906064830152608435608483015203925af18015611d61575b611d4557005b610019903d806000833e611d598183611b69565b81019061460b565b611d69612da5565b611d3f565b50346104515760407ffffffffffffffffffffffffffffffffffffffffffffffffffffffffffffffffc36011261045157610019611da9610636565b60243590613f18565b50346104515760007ffffffffffffffffffffffffffffffffffffffffffffffffffffffffffffffffc360112610451576020600e54604051908152f35b5034610451576000807ffffffffffffffffffffffffffffffffffffffffffffffffffffffffffffffffc3601126106335760405190806004549060019180831c92808216928315611ec7575b60209283861085146105fc5785885260208801949081156105c25750600114611e6e576105658761055981890382611b69565b600460005294509192917f8a35acfbc15ff81a39ae7d344fd709f28e8600b4aa8c65c6b64bfe7fe36bd19b5b838610611eb65750505091019050610559826105653880610549565b805485870152948201948101611e9a565b93607f1693611e3b565b50346104515760207ffffffffffffffffffffffffffffffffffffffffffffffffffffffffffffffffc360112610451576004356008548110156104515773ffffffffffffffffffffffffffffffffffffffff60209160086000527ff3f7a9fe364faab93b216da50a3214154f22a0a2b415b23a84c8169e8b636ee3015416604051908152f35b50346104515760407ffffffffffffffffffffffffffffffffffffffffffffffffffffffffffffffffc36011261045157611f8f610636565b60243590336000526001602052611fca8160406000209073ffffffffffffffffffffffffffffffffffffffff16600052602052604060002090565b5491808310611fdf576109b792039033612bd4565b60846040517f08c379a000000000000000000000000000000000000000000000000000000000815260206004820152602560248201527f45524332303a2064656372656173656420616c6c6f77616e63652062656c6f7760448201527f207a65726f0000000000000000000000000000000000000000000000000000006064820152fd5b50346104515760207ffffffffffffffffffffffffffffffffffffffffffffffffffffffffffffffffc36011261045157600435600a548110156104515773ffffffffffffffffffffffffffffffffffffffff602091600a6000527fc65a7bb8d6351c1cf70c95a316cc6a92839c986682d98bc35f958f4883f9d2a8015416604051908152f35b50346104515760407ffffffffffffffffffffffffffffffffffffffffffffffffffffffffffffffffc360112610451576106c1612124610636565b6024359033612a4b565b50346104515760407ffffffffffffffffffffffffffffffffffffffffffffffffffffffffffffffffc36011261045157610019612169610636565b612171610659565b604051917f70a0823100000000000000000000000000000000000000000000000000000000835230600484015260208360248173ffffffffffffffffffffffffffffffffffffffff85165afa9283156121f3575b6000936121d3575b5061383c565b6121ec91935060203d81116115b7576115a98183611b69565b91386121cd565b6121fb612da5565b6121c5565b50346104515760607ffffffffffffffffffffffffffffffffffffffffffffffffffffffffffffffffc36011261045157612238610659565b73ffffffffffffffffffffffffffffffffffffffff906044358281168103610451576040517fa9059cbb00000000000000000000000000000000000000000000000000000000815273ffffffffffffffffffffffffffffffffffffffff919091166004808301919091523560248201529160209183916044918391600091165af180156122ed575b6122c657005b6100199060203d81116122e6575b6122de8183611b69565b81019061354b565b503d6122d4565b6122f5612da5565b6122c0565b50346104515760007ffffffffffffffffffffffffffffffffffffffffffffffffffffffffffffffffc36011261045157602060405173c907e116054ad103354f2d350fd2514433d57f6f8152f35b50346104515760007ffffffffffffffffffffffffffffffffffffffffffffffffffffffffffffffffc360112610451576020604051732791bca1f2de4661ed88a30c99a7a9449aa841748152f35b50346104515760007ffffffffffffffffffffffffffffffffffffffffffffffffffffffffffffffffc360112610451576020604051731bfd67037b42cf73acf2047067bd4f2c47d9bfd68152f35b50346104515760207ffffffffffffffffffffffffffffffffffffffffffffffffffffffffffffffffc360112610451576040517f23b872dd000000000000000000000000000000000000000000000000000000008152336004808301919091523060248301523560448201819052906020816064816000732791bca1f2de4661ed88a30c99a7a9449aa841745af18015612514575b6124f6575b50612487613995565b61248f613a70565b612497613adf565b61249f613b4e565b916124b7836124b2846124b2858961291d565b61291d565b936124c1866137ca565b84156124de5792610019959285926124d895613e5f565b33613f18565b5050505050806124f061001992613ee7565b336138a4565b61250d9060203d81116122e6576122de8183611b69565b503861247e565b61251c612da5565b612479565b50346104515760207ffffffffffffffffffffffffffffffffffffffffffffffffffffffffffffffffc36011261045157600435600c548110156104515773ffffffffffffffffffffffffffffffffffffffff602091600c6000527fdf6966c971051c3d54ec59162606531493a51404a002842f56009d7e5cf4a8c7015416604051908152f35b50346104515760207ffffffffffffffffffffffffffffffffffffffffffffffffffffffffffffffffc360112610451576004356007548110156104515773ffffffffffffffffffffffffffffffffffffffff60209160076000527fa66cc928b5edb82af9bd49922954155ab7b0942694bea4ce44661d9a8736c688015416604051908152f35b50346104515760007ffffffffffffffffffffffffffffffffffffffffffffffffffffffffffffffffc360112610451576020604051733d49406edd4d52fb7ffd25485f32e073b529c9248152f35b50346104515760407ffffffffffffffffffffffffffffffffffffffffffffffffffffffffffffffffc360112610451576100196126b6610636565b73ffffffffffffffffffffffffffffffffffffffff6126d36131ea565b9182511561271e575b166020820152805160011015612711575b732791bca1f2de4661ed88a30c99a7a9449aa8417460408201523090602435614685565b612719610810565b6126ed565b612726610810565b6126dc565b50346104515760007ffffffffffffffffffffffffffffffffffffffffffffffffffffffffffffffffc36011261045157602060405173a5e0829caced8ffdd4de3c43696c57f7d7a678ff8152f35b50346104515760007ffffffffffffffffffffffffffffffffffffffffffffffffffffffffffffffffc360112610451576020600f54604051908152f35b50346104515760407ffffffffffffffffffffffffffffffffffffffffffffffffffffffffffffffffc3601126104515760206128436127f3610636565b73ffffffffffffffffffffffffffffffffffffffff612810610659565b91166000526001835260406000209073ffffffffffffffffffffffffffffffffffffffff16600052602052604060002090565b54604051908152f35b50346104515760007ffffffffffffffffffffffffffffffffffffffffffffffffffffffffffffffffc36011261045157602073ffffffffffffffffffffffffffffffffffffffff60105416604051908152f35b50346104515760007ffffffffffffffffffffffffffffffffffffffffffffffffffffffffffffffffc360112610451576020604051730d500b1d8e8ef31e21c99d1db9a6444d3adf12708152f35b507f4e487b7100000000000000000000000000000000000000000000000000000000600052601160045260246000fd5b81198111612929570190565b6129316128ed565b0190565b1561293c57565b60846040517f08c379a000000000000000000000000000000000000000000000000000000000815260206004820152602360248201527f45524332303a207472616e7366657220746f20746865207a65726f206164647260448201527f65737300000000000000000000000000000000000000000000000000000000006064820152fd5b156129c757565b60846040517f08c379a000000000000000000000000000000000000000000000000000000000815260206004820152602660248201527f45524332303a207472616e7366657220616d6f756e742065786365656473206260448201527f616c616e636500000000000000000000000000000000000000000000000000006064820152fd5b919073ffffffffffffffffffffffffffffffffffffffff90818416928315612b5057612b2e827fddf252ad1be2c89b69c2b068fc378daa952ba7f163c4a11628f55a4df523b3ef94612b4b941696612aa4881515612935565b612b0784612ad28373ffffffffffffffffffffffffffffffffffffffff166000526000602052604060002090565b54612adf828210156129c0565b039173ffffffffffffffffffffffffffffffffffffffff166000526000602052604060002090565b5573ffffffffffffffffffffffffffffffffffffffff166000526000602052604060002090565b612b3982825461291d565b90556040519081529081906020820190565b0390a3565b60846040517f08c379a000000000000000000000000000000000000000000000000000000000815260206004820152602560248201527f45524332303a207472616e736665722066726f6d20746865207a65726f20616460448201527f64726573730000000000000000000000000000000000000000000000000000006064820152fd5b9073ffffffffffffffffffffffffffffffffffffffff91828116928315612d0b578216938415612c875780612c767f8c5be1e5ebec7d5bd14f71427d1e84f3dd0314c0f7b2291e5b200ac8c7c3b92594612c51612b4b9573ffffffffffffffffffffffffffffffffffffffff166000526001602052604060002090565b9073ffffffffffffffffffffffffffffffffffffffff16600052602052604060002090565b556040519081529081906020820190565b60846040517f08c379a000000000000000000000000000000000000000000000000000000000815260206004820152602260248201527f45524332303a20617070726f766520746f20746865207a65726f20616464726560448201527f73730000000000000000000000000000000000000000000000000000000000006064820152fd5b60846040517f08c379a0000000000000000000000000000000000000000000000000000000008152602060048201526024808201527f45524332303a20617070726f76652066726f6d20746865207a65726f2061646460448201527f72657373000000000000000000000000000000000000000000000000000000006064820152fd5b519069ffffffffffffffffffff8216820361045157565b506040513d6000823e3d90fd5b60a073ffffffffffffffffffffffffffffffffffffffff916004604051809481937ffeaf968c000000000000000000000000000000000000000000000000000000008352165afa908115612e55575b600091612e0c575090565b9060a0823d8211612e4d575b81612e2560a09383611b69565b810103126106335750612e3781612d8e565b50612e49608060208301519201612d8e565b5090565b3d9150612e18565b612e5d612da5565b612e01565b60405190610100820182811067ffffffffffffffff821117612eb4575b604052816060815260e06000918260208201528260408201528260608201528260808201528260a08201528260c08201520152565b612ebc611b39565b612e7f565b6040519060a0820182811067ffffffffffffffff821117612f0b575b604052600482528160005b60808110612ef4575050565b602090612eff612e62565b82828501015201612ee8565b612f13611b39565b612edd565b602090805115612f26570190565b612931610810565b604090805160011015612f26570190565b606090805160021015612f26570190565b608090805160031015612f26570190565b6020918151811015612f76575b60051b010190565b612f7e610810565b612f6e565b60ff6001911660ff8114612929570190565b90816020910312610451575190565b90816020910312610451575160ff811681036104515790565b80601210612fcc575b60120390565b612fd46128ed565b612fc6565b7fffffffffffffffffffffffffffffffffffffffffffffffffffffffffffffffff9060018110612929570190565b818110613012570390565b61301a6128ed565b0390565b606490807fffffffffffffffffffffffffffffffffffffffffffffffffffffffffffffffff04821181151516613052570290565b61305a6128ed565b0290565b7f7fffffffffffffffffffffffffffffffffffffffffffffffffffffffffffffff811160011661308f575b60011b90565b6130976128ed565b613089565b807fffffffffffffffffffffffffffffffffffffffffffffffffffffffffffffffff04821181151516613052570290565b604d81116130dc575b600a0a90565b6130e46128ed565b6130d6565b507f4e487b7100000000000000000000000000000000000000000000000000000000600052601260045260246000fd5b8115613123570490565b61312b6130e9565b0490565b60008212827f800000000000000000000000000000000000000000000000000000000000000001821281151661318e575b827f7fffffffffffffffffffffffffffffffffffffffffffffffffffffffffffffff01821316613012570390565b6131966128ed565b613160565b906131a582611bb7565b6131b26040519182611b69565b8281527fffffffffffffffffffffffffffffffffffffffffffffffffffffffffffffffe06131e08294611bb7565b0190602036910137565b604051906060820182811067ffffffffffffffff821117613218575b60405260028252604082602036910137565b613220611b39565b613206565b604051906080820182811067ffffffffffffffff821117613252575b604052600382526060366020840137565b61325a611b39565b613241565b60008112817f7fffffffffffffffffffffffffffffffffffffffffffffffffffffffffffffff0383138115166132be575b817f800000000000000000000000000000000000000000000000000000000000000003831216612929570190565b6132c66128ed565b613290565b6305f5e1009060017c15798ee2308c39df9fb841a566d74f87a7a9a7aeb02c2d2f8e0d1e768d8211600083131616613331575b60017fffffffea86711dcf73c6206047be5a9928b078585658514fd3d2d071f2e189738212600083121616613052570290565b6133396128ed565b6132fe565b81156133a0575b7fffffffffffffffffffffffffffffffffffffffffffffffffffffffffffffffff82147f8000000000000000000000000000000000000000000000000000000000000000821416613394570590565b61339c6128ed565b0590565b6133a86130e9565b613345565b6101fe90607f60ff8216116001166133c7575b60011b1690565b6133cf6128ed565b6133c0565b60ff6001911660fe8111612929570190565b90815180825260208080930193019160005b828110613406575050505090565b835173ffffffffffffffffffffffffffffffffffffffff16855293810193928101926001016133f8565b90613443906040835260408301906133e6565b81810360209283015282518082529082019282019160005b828110613469575050505090565b83518552938101939281019260010161345b565b91906040838203126104515767ffffffffffffffff92803584811161045157826134a8918301611bde565b936020918281013591821161045157019180601f840112156104515782356134cf81611bb7565b936134dd6040519586611b69565b818552838086019260051b820101928311610451578301905b828210613504575050505090565b813581529083019083016134f6565b6000808212613520575090565b7f80000000000000000000000000000000000000000000000000000000000000008214613012570390565b90816020910312610451575180151581036104515790565b604051907f095ea7b300000000000000000000000000000000000000000000000000000000825273a5e0829caced8ffdd4de3c43696c57f7d7a678ff600483015260248201526020816044816000730d500b1d8e8ef31e21c99d1db9a6444d3adf12705af180156135f0575b6135d65750565b6135ed9060203d81116122e6576122de8183611b69565b50565b6135f8612da5565b6135cf565b604051907f095ea7b300000000000000000000000000000000000000000000000000000000825273a5e0829caced8ffdd4de3c43696c57f7d7a678ff60048301526024820152602081604481600073bbba073c31bf03b8acf7c28ef0738decf36956835af180156135f0576135d65750565b604051907f095ea7b300000000000000000000000000000000000000000000000000000000825273a5e0829caced8ffdd4de3c43696c57f7d7a678ff600483015260248201526020816044816000737ceb23fd6bc0add59e62ac25578270cff1b9f6195af180156135f0576135d65750565b604051907f095ea7b300000000000000000000000000000000000000000000000000000000825273a5e0829caced8ffdd4de3c43696c57f7d7a678ff600483015260248201526020816044816000731bfd67037b42cf73acf2047067bd4f2c47d9bfd65af180156135f0576135d65750565b602090604473ffffffffffffffffffffffffffffffffffffffff93600060405195869485937f095ea7b300000000000000000000000000000000000000000000000000000000855273a5e0829caced8ffdd4de3c43696c57f7d7a678ff60048601526024850152165af180156135f0576135d65750565b604051907f095ea7b300000000000000000000000000000000000000000000000000000000825273a5e0829caced8ffdd4de3c43696c57f7d7a678ff600483015260248201526020816044816000732791bca1f2de4661ed88a30c99a7a9449aa841745af180156135f0576135d65750565b6040517f095ea7b300000000000000000000000000000000000000000000000000000000815273ffffffffffffffffffffffffffffffffffffffff9283166004820152602481019390935260209183916044918391600091165af180156135f0576135d65750565b73ffffffffffffffffffffffffffffffffffffffff8116918215613937576020816139216000946138f87fddf252ad1be2c89b69c2b068fc378daa952ba7f163c4a11628f55a4df523b3ef9560025461291d565b60025573ffffffffffffffffffffffffffffffffffffffff166000526000602052604060002090565b61392c82825461291d565b9055604051908152a3565b60646040517f08c379a000000000000000000000000000000000000000000000000000000000815260206004820152601f60248201527f45524332303a206d696e7420746f20746865207a65726f2061646472657373006044820152fd5b61399e3061434f565b6040517ffeaf968c00000000000000000000000000000000000000000000000000000000815260a08160048173ab594600376ec9fd91f8e885dadf0ce036862de05afa908115613a63575b600091613a06575b5061312b9068056bc75e2d631000009261309c565b9060a0823d8211613a5b575b81613a1f60a09383611b69565b81010312610633575068056bc75e2d631000009181613a4061312b93612d8e565b50613a52608060208301519201612d8e565b509150916139f1565b3d9150613a12565b613a6b612da5565b6139e9565b613a79306143e6565b6040517ffeaf968c00000000000000000000000000000000000000000000000000000000815260a081600481733d49406edd4d52fb7ffd25485f32e073b529c9245afa908115613a6357600091613a06575061312b9068056bc75e2d631000009261309c565b613ae830614457565b6040517ffeaf968c00000000000000000000000000000000000000000000000000000000815260a08160048173f9680d99d6c9589e2a93a78a04a279e5092059455afa908115613a6357600091613a06575061312b9068056bc75e2d631000009261309c565b613b57306144c8565b6040517ffeaf968c00000000000000000000000000000000000000000000000000000000815260a08160048173c907e116054ad103354f2d350fd2514433d57f6f5afa908115613c14575b600091613bbb575b5061312b906402540be4009261309c565b9060a0823d8211613c0c575b81613bd460a09383611b69565b8101031261063357506402540be4009181613bf161312b93612d8e565b50613c03608060208301519201612d8e565b50915091613baa565b3d9150613bc7565b613c1c612da5565b613ba2565b6104d6613c2c613995565b6124b2613c37613a70565b6124b2613c42613adf565b91613c4b613b4e565b9461291d565b60405190600554808352826020918282019060056000527f036b6384b5eca791c62761152d0c79bb0604c104a5fb6f4eb0703f3154bb3db0936000905b828210613ca657505050613ca492500383611b69565b565b855473ffffffffffffffffffffffffffffffffffffffff1684526001958601958895509381019390910190613c8e565b60405190600654808352826020918282019060066000527ff652222313e28459528d920b65115c16c04f3efc82aaedc97be59f3f377c0d3f936000905b828210613d2957505050613ca492500383611b69565b855473ffffffffffffffffffffffffffffffffffffffff1684526001958601958895509381019390910190613d13565b60405190600754808352826020918282019060076000527fa66cc928b5edb82af9bd49922954155ab7b0942694bea4ce44661d9a8736c688936000905b828210613dac57505050613ca492500383611b69565b855473ffffffffffffffffffffffffffffffffffffffff1684526001958601958895509381019390910190613d96565b60405190600854808352826020918282019060086000527ff3f7a9fe364faab93b216da50a3214154f22a0a2b415b23a84c8169e8b636ee3936000905b828210613e2f57505050613ca492500383611b69565b855473ffffffffffffffffffffffffffffffffffffffff1684526001958601958895509381019390910190613e19565b91613eb68580613ea38982613e9c82613ec6999c613e95613ca49f613e89613ed09f9e829061309c565b9f8315613eda5761309c565b049861309c565b049761309c565b04963091613eaf613c51565b9104614685565b3090613ec0613cd6565b90614685565b3090613ec0613d59565b3090613ec0613ddc565b613ee26130e9565b61309c565b613ca49060021c613f0030613efa613c51565b83614685565b613f0c30613efa613cd6565b613ed030613efa613d59565b613ca491613f3a613f27613c21565b828110613f55575b82600254910361309c565b8115613f48575b04906138a4565b613f506130e9565b613f41565b613f5d6128ed565b613f2f565b73ffffffffffffffffffffffffffffffffffffffff81169081156140b057613faa8173ffffffffffffffffffffffffffffffffffffffff166000526000602052604060002090565b5483811061402c57837fddf252ad1be2c89b69c2b068fc378daa952ba7f163c4a11628f55a4df523b3ef92614007600096612b4b94039173ffffffffffffffffffffffffffffffffffffffff166000526000602052604060002090565b5561401c61401782600254613007565b600255565b6040519081529081906020820190565b60846040517f08c379a000000000000000000000000000000000000000000000000000000000815260206004820152602260248201527f45524332303a206275726e20616d6f756e7420657863656564732062616c616e60448201527f63650000000000000000000000000000000000000000000000000000000000006064820152fd5b60846040517f08c379a000000000000000000000000000000000000000000000000000000000815260206004820152602160248201527f45524332303a206275726e2066726f6d20746865207a65726f2061646472657360448201527f73000000000000000000000000000000000000000000000000000000000000006064820152fd5b6040517fa9059cbb00000000000000000000000000000000000000000000000000000000815273ffffffffffffffffffffffffffffffffffffffff92909216600483015260248201526020816044816000732791bca1f2de4661ed88a30c99a7a9449aa841745af180156135f0576135d65750565b613ca4906141b56131ea565b805115614210575b730d500b1d8e8ef31e21c99d1db9a6444d3adf12706020820152805160011015614203575b732791bca1f2de4661ed88a30c99a7a9449aa8417460408201523091614685565b61420b610810565b6141e2565b614218610810565b6141bd565b613ca4906142296131ea565b805115614276575b73bbba073c31bf03b8acf7c28ef0738decf3695683602082015280516001101561420357732791bca1f2de4661ed88a30c99a7a9449aa8417460408201523091614685565b61427e610810565b614231565b613ca49061428f6131ea565b8051156142dc575b737ceb23fd6bc0add59e62ac25578270cff1b9f619602082015280516001101561420357732791bca1f2de4661ed88a30c99a7a9449aa8417460408201523091614685565b6142e4610810565b614297565b613ca4906142f56131ea565b805115614342575b731bfd67037b42cf73acf2047067bd4f2c47d9bfd6602082015280516001101561420357732791bca1f2de4661ed88a30c99a7a9449aa8417460408201523091614685565b61434a610810565b6142fd565b73ffffffffffffffffffffffffffffffffffffffff604051917f70a08231000000000000000000000000000000000000000000000000000000008352166004820152602081602481730d500b1d8e8ef31e21c99d1db9a6444d3adf12705afa9081156143d9575b6000916143c1575090565b6104d6915060203d81116115b7576115a98183611b69565b6143e1612da5565b6143b6565b73ffffffffffffffffffffffffffffffffffffffff604051917f70a0823100000000000000000000000000000000000000000000000000000000835216600482015260208160248173bbba073c31bf03b8acf7c28ef0738decf36956835afa9081156143d9576000916143c1575090565b73ffffffffffffffffffffffffffffffffffffffff604051917f70a08231000000000000000000000000000000000000000000000000000000008352166004820152602081602481737ceb23fd6bc0add59e62ac25578270cff1b9f6195afa9081156143d9576000916143c1575090565b73ffffffffffffffffffffffffffffffffffffffff604051917f70a08231000000000000000000000000000000000000000000000000000000008352166004820152602081602481731bfd67037b42cf73acf2047067bd4f2c47d9bfd65afa9081156143d9576000916143c1575090565b73ffffffffffffffffffffffffffffffffffffffff604051917f70a08231000000000000000000000000000000000000000000000000000000008352166004820152602081602481732791bca1f2de4661ed88a30c99a7a9449aa841745afa9081156143d9576000916143c1575090565b6020906024604051809481937f70a0823100000000000000000000000000000000000000000000000000000000835273ffffffffffffffffffffffffffffffffffffffff8092166004840152165afa9081156143d9576000916143c1575090565b60209081818403126104515780519067ffffffffffffffff821161045157019180601f8401121561045157825161464181611bb7565b9361464f6040519586611b69565b818552838086019260051b820101928311610451578301905b828210614676575050505090565b81518152908301908301614668565b916146f3906000928373ffffffffffffffffffffffffffffffffffffffff95866010541693604051978896879586947f38ed1739000000000000000000000000000000000000000000000000000000008652600486015285602486015260a0604486015260a48501906133e6565b9116606483015264174876e7ff608483015203925af1801561472b575b6147175750565b6135ed903d806000833e611d598183611b69565b614733612da5565b61471056fea2646970667358221220a4747d05d301f9bbc5da1f60d15c83e3acfbe25798b772a54a9e9d9e9e5b10fa64736f6c634300080d00330000000000000000000000002791bca1f2de4661ed88a30c99a7a9449aa84174","opcodes":"PUSH1 0x80 PUSH1 0x40 MSTORE CALLVALUE PUSH3 0x27F JUMPI PUSH3 0x29 PUSH3 0x18 PUSH3 0x2CA JUMP JUMPDEST PUSH3 0x22 PUSH3 0x2F0 JUMP JUMPDEST SWAP1 PUSH3 0x9F9 JUMP JUMPDEST PUSH3 0x232 PUSH3 0x37 PUSH3 0x29B JUMP JUMPDEST PUSH1 0x0 DUP1 MLOAD PUSH1 0x20 PUSH3 0x5281 DUP4 CODECOPY DUP2 MLOAD SWAP2 MSTORE DUP2 MSTORE PUSH3 0x76 PUSH1 0x20 SWAP2 PUSH3 0x70 DUP4 DUP3 ADD PUSH20 0xD500B1D8E8EF31E21C99D1DB9A6444D3ADF1270 SWAP1 MSTORE JUMP JUMPDEST PUSH3 0x326 JUMP JUMPDEST PUSH3 0xB5 PUSH3 0x84 PUSH3 0x29B JUMP JUMPDEST PUSH1 0x0 DUP1 MLOAD PUSH1 0x20 PUSH3 0x5281 DUP4 CODECOPY DUP2 MLOAD SWAP2 MSTORE DUP2 MSTORE PUSH20 0xBBBA073C31BF03B8ACF7C28EF0738DECF3695683 DUP2 DUP5 ADD MSTORE PUSH3 0x3C7 JUMP JUMPDEST PUSH3 0xF4 PUSH3 0xC3 PUSH3 0x29B JUMP JUMPDEST PUSH1 0x0 DUP1 MLOAD PUSH1 0x20 PUSH3 0x5281 DUP4 CODECOPY DUP2 MLOAD SWAP2 MSTORE DUP2 MSTORE PUSH20 0x7CEB23FD6BC0ADD59E62AC25578270CFF1B9F619 DUP2 DUP5 ADD MSTORE PUSH3 0x468 JUMP JUMPDEST PUSH3 0x133 PUSH3 0x102 PUSH3 0x29B JUMP JUMPDEST PUSH1 0x0 DUP1 MLOAD PUSH1 0x20 PUSH3 0x5281 DUP4 CODECOPY DUP2 MLOAD SWAP2 MSTORE DUP2 MSTORE PUSH20 0x1BFD67037B42CF73ACF2047067BD4F2C47D9BFD6 DUP2 DUP5 ADD MSTORE PUSH3 0x509 JUMP JUMPDEST PUSH3 0x172 PUSH3 0x141 PUSH3 0x29B JUMP JUMPDEST PUSH20 0xD500B1D8E8EF31E21C99D1DB9A6444D3ADF1270 DUP2 MSTORE PUSH1 0x0 DUP1 MLOAD PUSH1 0x20 PUSH3 0x5281 DUP4 CODECOPY DUP2 MLOAD SWAP2 MSTORE DUP2 DUP5 ADD MSTORE PUSH3 0x5AA JUMP JUMPDEST PUSH3 0x1B1 PUSH3 0x180 PUSH3 0x29B JUMP JUMPDEST PUSH20 0xBBBA073C31BF03B8ACF7C28EF0738DECF3695683 DUP2 MSTORE PUSH1 0x0 DUP1 MLOAD PUSH1 0x20 PUSH3 0x5281 DUP4 CODECOPY DUP2 MLOAD SWAP2 MSTORE DUP2 DUP5 ADD MSTORE PUSH3 0x64B JUMP JUMPDEST PUSH3 0x1F0 PUSH3 0x1BF PUSH3 0x29B JUMP JUMPDEST PUSH20 0x7CEB23FD6BC0ADD59E62AC25578270CFF1B9F619 DUP2 MSTORE PUSH1 0x0 DUP1 MLOAD PUSH1 0x20 PUSH3 0x5281 DUP4 CODECOPY DUP2 MLOAD SWAP2 MSTORE DUP2 DUP5 ADD MSTORE PUSH3 0x6EC JUMP JUMPDEST PUSH3 0x22C PUSH3 0x1FE PUSH3 0x29B JUMP JUMPDEST PUSH20 0x1BFD67037B42CF73ACF2047067BD4F2C47D9BFD6 DUP2 MSTORE SWAP2 DUP3 ADD PUSH1 0x0 DUP1 MLOAD PUSH1 0x20 PUSH3 0x5281 DUP4 CODECOPY DUP2 MLOAD SWAP2 MSTORE SWAP1 MSTORE JUMP JUMPDEST PUSH3 0x78D JUMP JUMPDEST PUSH3 0x23E PUSH2 0xE10 PUSH1 0xE SSTORE JUMP JUMPDEST PUSH3 0x249 PUSH1 0x5 PUSH1 0xF SSTORE JUMP JUMPDEST PUSH1 0x10 DUP1 SLOAD PUSH1 0x1 PUSH1 0x1 PUSH1 0xA0 SHL SUB NOT AND PUSH20 0xA5E0829CACED8FFDD4DE3C43696C57F7D7A678FF OR SWAP1 SSTORE PUSH1 0x40 MLOAD PUSH2 0x476E SWAP1 DUP2 PUSH3 0xB13 DUP3 CODECOPY RETURN JUMPDEST PUSH1 0x0 DUP1 REVERT JUMPDEST POP PUSH4 0x4E487B71 PUSH1 0xE0 SHL PUSH1 0x0 MSTORE PUSH1 0x41 PUSH1 0x4 MSTORE PUSH1 0x24 PUSH1 0x0 REVERT JUMPDEST PUSH1 0x40 DUP1 MLOAD SWAP2 SWAP1 DUP3 ADD PUSH1 0x1 PUSH1 0x1 PUSH1 0x40 SHL SUB DUP2 GT DUP4 DUP3 LT OR PUSH3 0x2BB JUMPI PUSH1 0x40 MSTORE JUMP JUMPDEST PUSH3 0x2C5 PUSH3 0x284 JUMP JUMPDEST PUSH1 0x40 MSTORE JUMP JUMPDEST PUSH3 0x2D4 PUSH3 0x29B JUMP JUMPDEST SWAP1 PUSH1 0xC DUP3 MSTORE PUSH12 0x30BABA37A130B630B731B2B9 PUSH1 0xA1 SHL PUSH1 0x20 DUP4 ADD MSTORE JUMP JUMPDEST PUSH3 0x2FA PUSH3 0x29B JUMP JUMPDEST SWAP1 PUSH1 0x3 DUP3 MSTORE PUSH3 0x414241 PUSH1 0xE8 SHL PUSH1 0x20 DUP4 ADD MSTORE JUMP JUMPDEST DUP2 DUP2 LT PUSH3 0x319 JUMPI POP POP JUMP JUMPDEST PUSH1 0x0 DUP2 SSTORE PUSH1 0x1 ADD PUSH3 0x30D JUMP JUMPDEST PUSH1 0x5 SLOAD SWAP1 PUSH1 0x2 SWAP2 DUP3 PUSH1 0x5 SSTORE DUP1 DUP4 LT PUSH3 0x389 JUMPI JUMPDEST POP PUSH1 0x5 PUSH1 0x0 MSTORE PUSH1 0x20 DUP1 PUSH1 0x0 KECCAK256 PUSH1 0x0 SWAP3 JUMPDEST DUP5 DUP5 LT PUSH3 0x359 JUMPI POP POP POP POP POP JUMP JUMPDEST DUP1 MLOAD DUP3 SLOAD PUSH1 0x1 PUSH1 0x1 PUSH1 0xA0 SHL SUB NOT AND PUSH1 0x1 PUSH1 0x1 PUSH1 0xA0 SHL SUB SWAP2 SWAP1 SWAP2 AND OR DUP3 SSTORE PUSH1 0x1 SWAP4 DUP5 ADD SWAP4 SWAP2 SWAP1 SWAP2 ADD SWAP1 DUP3 ADD PUSH3 0x34A JUMP JUMPDEST PUSH1 0x5 PUSH1 0x0 MSTORE PUSH3 0x3C0 SWAP1 PUSH32 0x36B6384B5ECA791C62761152D0C79BB0604C104A5FB6F4EB0703F3154BB3DB0 SWAP1 DUP2 ADD SWAP1 DUP5 ADD PUSH3 0x30D JUMP JUMPDEST CODESIZE PUSH3 0x33A JUMP JUMPDEST PUSH1 0x6 SLOAD SWAP1 PUSH1 0x2 SWAP2 DUP3 PUSH1 0x6 SSTORE DUP1 DUP4 LT PUSH3 0x42A JUMPI JUMPDEST POP PUSH1 0x6 PUSH1 0x0 MSTORE PUSH1 0x20 DUP1 PUSH1 0x0 KECCAK256 PUSH1 0x0 SWAP3 JUMPDEST DUP5 DUP5 LT PUSH3 0x3FA JUMPI POP POP POP POP POP JUMP JUMPDEST DUP1 MLOAD DUP3 SLOAD PUSH1 0x1 PUSH1 0x1 PUSH1 0xA0 SHL SUB NOT AND PUSH1 0x1 PUSH1 0x1 PUSH1 0xA0 SHL SUB SWAP2 SWAP1 SWAP2 AND OR DUP3 SSTORE PUSH1 0x1 SWAP4 DUP5 ADD SWAP4 SWAP2 SWAP1 SWAP2 ADD SWAP1 DUP3 ADD PUSH3 0x3EB JUMP JUMPDEST PUSH1 0x6 PUSH1 0x0 MSTORE PUSH3 0x461 SWAP1 PUSH32 0xF652222313E28459528D920B65115C16C04F3EFC82AAEDC97BE59F3F377C0D3F SWAP1 DUP2 ADD SWAP1 DUP5 ADD PUSH3 0x30D JUMP JUMPDEST CODESIZE PUSH3 0x3DB JUMP JUMPDEST PUSH1 0x7 SLOAD SWAP1 PUSH1 0x2 SWAP2 DUP3 PUSH1 0x7 SSTORE DUP1 DUP4 LT PUSH3 0x4CB JUMPI JUMPDEST POP PUSH1 0x7 PUSH1 0x0 MSTORE PUSH1 0x20 DUP1 PUSH1 0x0 KECCAK256 PUSH1 0x0 SWAP3 JUMPDEST DUP5 DUP5 LT PUSH3 0x49B JUMPI POP POP POP POP POP JUMP JUMPDEST DUP1 MLOAD DUP3 SLOAD PUSH1 0x1 PUSH1 0x1 PUSH1 0xA0 SHL SUB NOT AND PUSH1 0x1 PUSH1 0x1 PUSH1 0xA0 SHL SUB SWAP2 SWAP1 SWAP2 AND OR DUP3 SSTORE PUSH1 0x1 SWAP4 DUP5 ADD SWAP4 SWAP2 SWAP1 SWAP2 ADD SWAP1 DUP3 ADD PUSH3 0x48C JUMP JUMPDEST PUSH1 0x7 PUSH1 0x0 MSTORE PUSH3 0x502 SWAP1 PUSH32 0xA66CC928B5EDB82AF9BD49922954155AB7B0942694BEA4CE44661D9A8736C688 SWAP1 DUP2 ADD SWAP1 DUP5 ADD PUSH3 0x30D JUMP JUMPDEST CODESIZE PUSH3 0x47C JUMP JUMPDEST PUSH1 0x8 SLOAD SWAP1 PUSH1 0x2 SWAP2 DUP3 PUSH1 0x8 SSTORE DUP1 DUP4 LT PUSH3 0x56C JUMPI JUMPDEST POP PUSH1 0x8 PUSH1 0x0 MSTORE PUSH1 0x20 DUP1 PUSH1 0x0 KECCAK256 PUSH1 0x0 SWAP3 JUMPDEST DUP5 DUP5 LT PUSH3 0x53C JUMPI POP POP POP POP POP JUMP JUMPDEST DUP1 MLOAD DUP3 SLOAD PUSH1 0x1 PUSH1 0x1 PUSH1 0xA0 SHL SUB NOT AND PUSH1 0x1 PUSH1 0x1 PUSH1 0xA0 SHL SUB SWAP2 SWAP1 SWAP2 AND OR DUP3 SSTORE PUSH1 0x1 SWAP4 DUP5 ADD SWAP4 SWAP2 SWAP1 SWAP2 ADD SWAP1 DUP3 ADD PUSH3 0x52D JUMP JUMPDEST PUSH1 0x8 PUSH1 0x0 MSTORE PUSH3 0x5A3 SWAP1 PUSH32 0xF3F7A9FE364FAAB93B216DA50A3214154F22A0A2B415B23A84C8169E8B636EE3 SWAP1 DUP2 ADD SWAP1 DUP5 ADD PUSH3 0x30D JUMP JUMPDEST CODESIZE PUSH3 0x51D JUMP JUMPDEST PUSH1 0x9 SLOAD SWAP1 PUSH1 0x2 SWAP2 DUP3 PUSH1 0x9 SSTORE DUP1 DUP4 LT PUSH3 0x60D JUMPI JUMPDEST POP PUSH1 0x9 PUSH1 0x0 MSTORE PUSH1 0x20 DUP1 PUSH1 0x0 KECCAK256 PUSH1 0x0 SWAP3 JUMPDEST DUP5 DUP5 LT PUSH3 0x5DD JUMPI POP POP POP POP POP JUMP JUMPDEST DUP1 MLOAD DUP3 SLOAD PUSH1 0x1 PUSH1 0x1 PUSH1 0xA0 SHL SUB NOT AND PUSH1 0x1 PUSH1 0x1 PUSH1 0xA0 SHL SUB SWAP2 SWAP1 SWAP2 AND OR DUP3 SSTORE PUSH1 0x1 SWAP4 DUP5 ADD SWAP4 SWAP2 SWAP1 SWAP2 ADD SWAP1 DUP3 ADD PUSH3 0x5CE JUMP JUMPDEST PUSH1 0x9 PUSH1 0x0 MSTORE PUSH3 0x644 SWAP1 PUSH32 0x6E1540171B6C0C960B71A7020D9F60077F6AF931A8BBF590DA0223DACF75C7AF SWAP1 DUP2 ADD SWAP1 DUP5 ADD PUSH3 0x30D JUMP JUMPDEST CODESIZE PUSH3 0x5BE JUMP JUMPDEST PUSH1 0xA SLOAD SWAP1 PUSH1 0x2 SWAP2 DUP3 PUSH1 0xA SSTORE DUP1 DUP4 LT PUSH3 0x6AE JUMPI JUMPDEST POP PUSH1 0xA PUSH1 0x0 MSTORE PUSH1 0x20 DUP1 PUSH1 0x0 KECCAK256 PUSH1 0x0 SWAP3 JUMPDEST DUP5 DUP5 LT PUSH3 0x67E JUMPI POP POP POP POP POP JUMP JUMPDEST DUP1 MLOAD DUP3 SLOAD PUSH1 0x1 PUSH1 0x1 PUSH1 0xA0 SHL SUB NOT AND PUSH1 0x1 PUSH1 0x1 PUSH1 0xA0 SHL SUB SWAP2 SWAP1 SWAP2 AND OR DUP3 SSTORE PUSH1 0x1 SWAP4 DUP5 ADD SWAP4 SWAP2 SWAP1 SWAP2 ADD SWAP1 DUP3 ADD PUSH3 0x66F JUMP JUMPDEST PUSH1 0xA PUSH1 0x0 MSTORE PUSH3 0x6E5 SWAP1 PUSH32 0xC65A7BB8D6351C1CF70C95A316CC6A92839C986682D98BC35F958F4883F9D2A8 SWAP1 DUP2 ADD SWAP1 DUP5 ADD PUSH3 0x30D JUMP JUMPDEST CODESIZE PUSH3 0x65F JUMP JUMPDEST PUSH1 0xB SLOAD SWAP1 PUSH1 0x2 SWAP2 DUP3 PUSH1 0xB SSTORE DUP1 DUP4 LT PUSH3 0x74F JUMPI JUMPDEST POP PUSH1 0xB PUSH1 0x0 MSTORE PUSH1 0x20 DUP1 PUSH1 0x0 KECCAK256 PUSH1 0x0 SWAP3 JUMPDEST DUP5 DUP5 LT PUSH3 0x71F JUMPI POP POP POP POP POP JUMP JUMPDEST DUP1 MLOAD DUP3 SLOAD PUSH1 0x1 PUSH1 0x1 PUSH1 0xA0 SHL SUB NOT AND PUSH1 0x1 PUSH1 0x1 PUSH1 0xA0 SHL SUB SWAP2 SWAP1 SWAP2 AND OR DUP3 SSTORE PUSH1 0x1 SWAP4 DUP5 ADD SWAP4 SWAP2 SWAP1 SWAP2 ADD SWAP1 DUP3 ADD PUSH3 0x710 JUMP JUMPDEST PUSH1 0xB PUSH1 0x0 MSTORE PUSH3 0x786 SWAP1 PUSH32 0x175B7A638427703F0DBE7BB9BBF987A2551717B34E79F33B5B1008D1FA01DB9 SWAP1 DUP2 ADD SWAP1 DUP5 ADD PUSH3 0x30D JUMP JUMPDEST CODESIZE PUSH3 0x700 JUMP JUMPDEST PUSH1 0xC SLOAD SWAP1 PUSH1 0x2 SWAP2 DUP3 PUSH1 0xC SSTORE DUP1 DUP4 LT PUSH3 0x7F0 JUMPI JUMPDEST POP PUSH1 0xC PUSH1 0x0 MSTORE PUSH1 0x20 DUP1 PUSH1 0x0 KECCAK256 PUSH1 0x0 SWAP3 JUMPDEST DUP5 DUP5 LT PUSH3 0x7C0 JUMPI POP POP POP POP POP JUMP JUMPDEST DUP1 MLOAD DUP3 SLOAD PUSH1 0x1 PUSH1 0x1 PUSH1 0xA0 SHL SUB NOT AND PUSH1 0x1 PUSH1 0x1 PUSH1 0xA0 SHL SUB SWAP2 SWAP1 SWAP2 AND OR DUP3 SSTORE PUSH1 0x1 SWAP4 DUP5 ADD SWAP4 SWAP2 SWAP1 SWAP2 ADD SWAP1 DUP3 ADD PUSH3 0x7B1 JUMP JUMPDEST PUSH1 0xC PUSH1 0x0 MSTORE PUSH3 0x827 SWAP1 PUSH32 0xDF6966C971051C3D54EC59162606531493A51404A002842F56009D7E5CF4A8C7 SWAP1 DUP2 ADD SWAP1 DUP5 ADD PUSH3 0x30D JUMP JUMPDEST CODESIZE PUSH3 0x7A1 JUMP JUMPDEST SWAP1 PUSH1 0x1 DUP3 DUP2 SHR SWAP3 AND DUP1 ISZERO PUSH3 0x860 JUMPI JUMPDEST PUSH1 0x20 DUP4 LT EQ PUSH3 0x84A JUMPI JUMP JUMPDEST PUSH4 0x4E487B71 PUSH1 0xE0 SHL PUSH1 0x0 MSTORE PUSH1 0x22 PUSH1 0x4 MSTORE PUSH1 0x24 PUSH1 0x0 REVERT JUMPDEST SWAP2 PUSH1 0x7F AND SWAP2 PUSH3 0x83E JUMP JUMPDEST SWAP1 PUSH1 0x1F DUP3 GT PUSH3 0x879 JUMPI POP POP JUMP JUMPDEST PUSH3 0x8AA SWAP2 PUSH1 0x3 PUSH1 0x0 MSTORE PUSH1 0x20 PUSH1 0x0 KECCAK256 SWAP1 PUSH1 0x20 PUSH1 0x1F DUP5 ADD PUSH1 0x5 SHR DUP4 ADD SWAP4 LT PUSH3 0x8AC JUMPI JUMPDEST PUSH1 0x1F ADD PUSH1 0x5 SHR ADD SWAP1 PUSH3 0x30D JUMP JUMPDEST JUMP JUMPDEST SWAP1 SWAP2 POP DUP2 SWAP1 PUSH3 0x89C JUMP JUMPDEST SWAP1 PUSH1 0x1F DUP3 GT PUSH3 0x8C5 JUMPI POP POP JUMP JUMPDEST PUSH3 0x8AA SWAP2 PUSH1 0x4 PUSH1 0x0 MSTORE PUSH1 0x20 PUSH1 0x0 KECCAK256 SWAP1 PUSH1 0x20 PUSH1 0x1F DUP5 ADD PUSH1 0x5 SHR DUP4 ADD SWAP4 LT PUSH3 0x8AC JUMPI PUSH1 0x1F ADD PUSH1 0x5 SHR ADD SWAP1 PUSH3 0x30D JUMP JUMPDEST DUP1 MLOAD SWAP1 SWAP2 SWAP1 PUSH1 0x1 PUSH1 0x1 PUSH1 0x40 SHL SUB DUP2 GT PUSH3 0x9E9 JUMPI JUMPDEST PUSH3 0x922 DUP2 PUSH3 0x91C PUSH1 0x4 SLOAD PUSH3 0x82E JUMP JUMPDEST PUSH3 0x8B7 JUMP JUMPDEST PUSH1 0x20 DUP1 PUSH1 0x1F DUP4 GT PUSH1 0x1 EQ PUSH3 0x961 JUMPI POP DUP2 SWAP3 SWAP4 PUSH1 0x0 SWAP3 PUSH3 0x955 JUMPI JUMPDEST POP POP DUP2 PUSH1 0x1 SHL SWAP2 PUSH1 0x0 NOT SWAP1 PUSH1 0x3 SHL SHR NOT AND OR PUSH1 0x4 SSTORE JUMP JUMPDEST ADD MLOAD SWAP1 POP CODESIZE DUP1 PUSH3 0x93E JUMP JUMPDEST PUSH1 0x4 PUSH1 0x0 MSTORE PUSH1 0x1F NOT DUP4 AND SWAP5 SWAP1 SWAP2 SWAP1 PUSH32 0x8A35ACFBC15FF81A39AE7D344FD709F28E8600B4AA8C65C6B64BFE7FE36BD19B SWAP3 PUSH1 0x0 SWAP1 JUMPDEST DUP8 DUP3 LT PUSH3 0x9D0 JUMPI POP POP DUP4 PUSH1 0x1 SWAP6 SWAP7 LT PUSH3 0x9B6 JUMPI JUMPDEST POP POP POP DUP2 SHL ADD PUSH1 0x4 SSTORE JUMP JUMPDEST ADD MLOAD PUSH1 0x0 NOT PUSH1 0xF8 DUP5 PUSH1 0x3 SHL AND SHR NOT AND SWAP1 SSTORE CODESIZE DUP1 DUP1 PUSH3 0x9AB JUMP JUMPDEST DUP1 PUSH1 0x1 DUP6 SWAP7 DUP3 SWAP5 SWAP7 DUP7 ADD MLOAD DUP2 SSTORE ADD SWAP6 ADD SWAP4 ADD SWAP1 PUSH3 0x995 JUMP JUMPDEST PUSH3 0x9F3 PUSH3 0x284 JUMP JUMPDEST PUSH3 0x90A JUMP JUMPDEST DUP1 MLOAD SWAP1 SWAP2 SWAP1 PUSH1 0x1 PUSH1 0x1 PUSH1 0x40 SHL SUB DUP2 GT PUSH3 0xB02 JUMPI JUMPDEST PUSH3 0xA26 DUP2 PUSH3 0xA20 PUSH1 0x3 SLOAD PUSH3 0x82E JUMP JUMPDEST PUSH3 0x86B JUMP JUMPDEST PUSH1 0x20 DUP1 PUSH1 0x1F DUP4 GT PUSH1 0x1 EQ PUSH3 0xA6D JUMPI POP DUP2 SWAP1 PUSH3 0x8AA SWAP5 PUSH1 0x0 SWAP3 PUSH3 0xA61 JUMPI JUMPDEST POP POP DUP2 PUSH1 0x1 SHL SWAP2 PUSH1 0x0 NOT SWAP1 PUSH1 0x3 SHL SHR NOT AND OR PUSH1 0x3 SSTORE PUSH3 0x8F5 JUMP JUMPDEST ADD MLOAD SWAP1 POP CODESIZE DUP1 PUSH3 0xA46 JUMP JUMPDEST PUSH1 0x3 PUSH1 0x0 MSTORE SWAP3 SWAP4 SWAP2 SWAP3 SWAP2 PUSH1 0x1F NOT DUP5 AND PUSH32 0xC2575A0E9E593C00F959F8C92F12DB2869C3395A3B0502D05E2516446F71F85B SWAP4 PUSH1 0x0 SWAP1 JUMPDEST DUP3 DUP3 LT PUSH3 0xAE9 JUMPI POP POP SWAP2 PUSH1 0x1 SWAP4 SWAP2 DUP6 PUSH3 0x8AA SWAP8 SWAP7 SWAP5 LT PUSH3 0xACF JUMPI JUMPDEST POP POP POP DUP2 SHL ADD PUSH1 0x3 SSTORE PUSH3 0x8F5 JUMP JUMPDEST ADD MLOAD PUSH1 0x0 NOT PUSH1 0xF8 DUP5 PUSH1 0x3 SHL AND SHR NOT AND SWAP1 SSTORE CODESIZE DUP1 DUP1 PUSH3 0xAC0 JUMP JUMPDEST DUP1 PUSH1 0x1 DUP7 SWAP8 DUP3 SWAP5 SWAP8 DUP8 ADD MLOAD DUP2 SSTORE ADD SWAP7 ADD SWAP5 ADD SWAP1 PUSH3 0xAA2 JUMP JUMPDEST PUSH3 0xB0C PUSH3 0x284 JUMP JUMPDEST PUSH3 0xA0E JUMP INVALID PUSH1 0x80 PUSH1 0x40 MSTORE PUSH1 0x4 CALLDATASIZE LT ISZERO PUSH2 0x1B JUMPI JUMPDEST CALLDATASIZE ISZERO PUSH2 0x19 JUMPI PUSH1 0x0 DUP1 REVERT JUMPDEST STOP JUMPDEST PUSH1 0x0 CALLDATALOAD PUSH1 0xE0 SHR DUP1 PUSH4 0x40141E5 EQ PUSH2 0x403 JUMPI DUP1 PUSH4 0x6FDDE03 EQ PUSH2 0x3FA JUMPI DUP1 PUSH4 0x95EA7B3 EQ PUSH2 0x3F1 JUMPI DUP1 PUSH4 0x153F29C7 EQ PUSH2 0x3E8 JUMPI DUP1 PUSH4 0x16345F18 EQ PUSH2 0x3DF JUMPI DUP1 PUSH4 0x18160DDD EQ PUSH2 0x3D6 JUMPI DUP1 PUSH4 0x1BEA8006 EQ PUSH2 0x3CD JUMPI DUP1 PUSH4 0x22A90082 EQ PUSH2 0x3C4 JUMPI DUP1 PUSH4 0x23AAD7AF EQ PUSH2 0x3BB JUMPI DUP1 PUSH4 0x23B872DD EQ PUSH2 0x3B2 JUMPI DUP1 PUSH4 0x24E2E7BB EQ PUSH2 0x3A9 JUMPI DUP1 PUSH4 0x29A97EC2 EQ PUSH2 0x3A0 JUMPI DUP1 PUSH4 0x2D365D31 EQ PUSH2 0x397 JUMPI DUP1 PUSH4 0x313CE567 EQ PUSH2 0x38E JUMPI DUP1 PUSH4 0x39509351 EQ PUSH2 0x385 JUMPI DUP1 PUSH4 0x3F3B3B27 EQ PUSH2 0x37C JUMPI DUP1 PUSH4 0x44345F23 EQ PUSH2 0x373 JUMPI DUP1 PUSH4 0x4585E33B EQ PUSH2 0x36A JUMPI DUP1 PUSH4 0x51F54887 EQ PUSH2 0x361 JUMPI DUP1 PUSH4 0x681BCF13 EQ PUSH2 0x358 JUMPI DUP1 PUSH4 0x69BC4388 EQ PUSH2 0x34F JUMPI DUP1 PUSH4 0x6E04FF0D EQ PUSH2 0x346 JUMPI DUP1 PUSH4 0x70A08231 EQ PUSH2 0x33D JUMPI DUP1 PUSH4 0x718176E5 EQ PUSH2 0x334 JUMPI DUP1 PUSH4 0x764F96F9 EQ PUSH2 0x32B JUMPI DUP1 PUSH4 0x88E42B08 EQ PUSH2 0x322 JUMPI DUP1 PUSH4 0x8DB9F39A EQ PUSH2 0x319 JUMPI DUP1 PUSH4 0x90F11E84 EQ PUSH2 0x310 JUMPI DUP1 PUSH4 0x94362E8B EQ PUSH2 0x307 JUMPI DUP1 PUSH4 0x947A36FB EQ PUSH2 0x2FE JUMPI DUP1 PUSH4 0x95D89B41 EQ PUSH2 0x2F5 JUMPI DUP1 PUSH4 0xA15C7D10 EQ PUSH2 0x2EC JUMPI DUP1 PUSH4 0xA457C2D7 EQ PUSH2 0x2E3 JUMPI DUP1 PUSH4 0xA48CE279 EQ PUSH2 0x2DA JUMPI DUP1 PUSH4 0xA9059CBB EQ PUSH2 0x2D1 JUMPI DUP1 PUSH4 0xAA5A7AA3 EQ PUSH2 0x2C8 JUMPI DUP1 PUSH4 0xB460AF94 EQ PUSH2 0x2BF JUMPI DUP1 PUSH4 0xB6E20A6A EQ PUSH2 0x2B6 JUMPI DUP1 PUSH4 0xBB09D9B7 EQ PUSH2 0x2AD JUMPI DUP1 PUSH4 0xBDD5915F EQ PUSH2 0x2A4 JUMPI DUP1 PUSH4 0xC5764EEC EQ PUSH2 0x29B JUMPI DUP1 PUSH4 0xCA970905 EQ PUSH2 0x292 JUMPI DUP1 PUSH4 0xCB3601B1 EQ PUSH2 0x289 JUMPI DUP1 PUSH4 0xCD3F5B53 EQ PUSH2 0x280 JUMPI DUP1 PUSH4 0xCF412810 EQ PUSH2 0x277 JUMPI DUP1 PUSH4 0xD0919116 EQ PUSH2 0x26E JUMPI DUP1 PUSH4 0xD239C681 EQ PUSH2 0x265 JUMPI DUP1 PUSH4 0xDD62ED3E EQ PUSH2 0x25C JUMPI DUP1 PUSH4 0xE189EB42 EQ PUSH2 0x253 JUMPI PUSH4 0xE95D8328 SUB PUSH2 0xE JUMPI PUSH2 0x24E PUSH2 0x289F JUMP JUMPDEST PUSH2 0xE JUMP JUMPDEST POP PUSH2 0x24E PUSH2 0x284C JUMP JUMPDEST POP PUSH2 0x24E PUSH2 0x27B6 JUMP JUMPDEST POP PUSH2 0x24E PUSH2 0x2779 JUMP JUMPDEST POP PUSH2 0x24E PUSH2 0x272B JUMP JUMPDEST POP PUSH2 0x24E PUSH2 0x267B JUMP JUMPDEST POP PUSH2 0x24E PUSH2 0x262D JUMP JUMPDEST POP PUSH2 0x24E PUSH2 0x25A7 JUMP JUMPDEST POP PUSH2 0x24E PUSH2 0x2521 JUMP JUMPDEST POP PUSH2 0x24E PUSH2 0x23E4 JUMP JUMPDEST POP PUSH2 0x24E PUSH2 0x2396 JUMP JUMPDEST POP PUSH2 0x24E PUSH2 0x2348 JUMP JUMPDEST POP PUSH2 0x24E PUSH2 0x22FA JUMP JUMPDEST POP PUSH2 0x24E PUSH2 0x2200 JUMP JUMPDEST POP PUSH2 0x24E PUSH2 0x212E JUMP JUMPDEST POP PUSH2 0x24E PUSH2 0x20E9 JUMP JUMPDEST POP PUSH2 0x24E PUSH2 0x2063 JUMP JUMPDEST POP PUSH2 0x24E PUSH2 0x1F57 JUMP JUMPDEST POP PUSH2 0x24E PUSH2 0x1ED1 JUMP JUMPDEST POP PUSH2 0x24E PUSH2 0x1DEF JUMP JUMPDEST POP PUSH2 0x24E PUSH2 0x1DB2 JUMP JUMPDEST POP PUSH2 0x24E PUSH2 0x1D6E JUMP JUMPDEST POP PUSH2 0x24E PUSH2 0x1C59 JUMP JUMPDEST POP PUSH2 0x24E PUSH2 0x1AEB JUMP JUMPDEST POP PUSH2 0x24E PUSH2 0x1AB0 JUMP JUMPDEST POP PUSH2 0x24E PUSH2 0x1A66 JUMP JUMPDEST POP PUSH2 0x24E PUSH2 0x1A18 JUMP JUMPDEST POP PUSH2 0x24E PUSH2 0x19B2 JUMP JUMPDEST POP PUSH2 0x24E PUSH2 0x121D JUMP JUMPDEST POP PUSH2 0x24E PUSH2 0x117E JUMP JUMPDEST POP PUSH2 0x24E PUSH2 0x10F8 JUMP JUMPDEST POP PUSH2 0x24E PUSH2 0x106E JUMP JUMPDEST POP PUSH2 0x24E PUSH2 0xE4C JUMP JUMPDEST POP PUSH2 0x24E PUSH2 0xD5E JUMP JUMPDEST POP PUSH2 0x24E PUSH2 0xD21 JUMP JUMPDEST POP PUSH2 0x24E PUSH2 0xC9C JUMP JUMPDEST POP PUSH2 0x24E PUSH2 0xC61 JUMP JUMPDEST POP PUSH2 0x24E PUSH2 0xC13 JUMP JUMPDEST POP PUSH2 0x24E PUSH2 0xBFB JUMP JUMPDEST POP PUSH2 0x24E PUSH2 0xA3D JUMP JUMPDEST POP PUSH2 0x24E PUSH2 0x926 JUMP JUMPDEST POP PUSH2 0x24E PUSH2 0x840 JUMP JUMPDEST POP PUSH2 0x24E PUSH2 0x7D8 JUMP JUMPDEST POP PUSH2 0x24E PUSH2 0x78D JUMP JUMPDEST POP PUSH2 0x24E PUSH2 0x750 JUMP JUMPDEST POP PUSH2 0x24E PUSH2 0x70E JUMP JUMPDEST POP PUSH2 0x24E PUSH2 0x6CC JUMP JUMPDEST POP PUSH2 0x24E PUSH2 0x67C JUMP JUMPDEST POP PUSH2 0x24E PUSH2 0x4D9 JUMP JUMPDEST POP CALLVALUE PUSH2 0x451 JUMPI PUSH1 0x0 PUSH32 0xFFFFFFFFFFFFFFFFFFFFFFFFFFFFFFFFFFFFFFFFFFFFFFFFFFFFFFFFFFFFFFFC CALLDATASIZE ADD SLT PUSH2 0x451 JUMPI PUSH1 0x20 PUSH1 0x40 MLOAD PUSH20 0x7CEB23FD6BC0ADD59E62AC25578270CFF1B9F619 DUP2 MSTORE RETURN JUMPDEST PUSH1 0x0 DUP1 REVERT JUMPDEST SWAP2 SWAP1 DUP3 MLOAD SWAP3 DUP4 DUP3 MSTORE PUSH1 0x0 SWAP1 JUMPDEST DUP5 DUP3 LT PUSH2 0x4AD JUMPI POP PUSH1 0x1F DUP5 PUSH1 0x20 SWAP5 SWAP6 PUSH32 0xFFFFFFFFFFFFFFFFFFFFFFFFFFFFFFFFFFFFFFFFFFFFFFFFFFFFFFFFFFFFFFE0 SWAP4 GT PUSH2 0x4A0 JUMPI JUMPDEST ADD AND ADD ADD SWAP1 JUMP JUMPDEST PUSH1 0x0 DUP6 DUP3 DUP7 ADD ADD MSTORE PUSH2 0x499 JUMP JUMPDEST SWAP1 PUSH1 0x20 SWAP1 DUP2 DUP1 DUP3 DUP6 ADD ADD MLOAD SWAP1 DUP3 DUP7 ADD ADD MSTORE ADD SWAP1 PUSH2 0x462 JUMP JUMPDEST SWAP1 PUSH1 0x20 PUSH2 0x4D6 SWAP3 DUP2 DUP2 MSTORE ADD SWAP1 PUSH2 0x456 JUMP JUMPDEST SWAP1 JUMP JUMPDEST POP CALLVALUE PUSH2 0x451 JUMPI PUSH1 0x0 DUP1 PUSH32 0xFFFFFFFFFFFFFFFFFFFFFFFFFFFFFFFFFFFFFFFFFFFFFFFFFFFFFFFFFFFFFFFC CALLDATASIZE ADD SLT PUSH2 0x633 JUMPI PUSH1 0x40 MLOAD SWAP1 DUP1 PUSH1 0x3 SLOAD SWAP1 PUSH1 0x1 SWAP2 DUP1 DUP4 SHR SWAP3 DUP1 DUP3 AND SWAP3 DUP4 ISZERO PUSH2 0x629 JUMPI JUMPDEST PUSH1 0x20 SWAP3 DUP4 DUP7 LT DUP6 EQ PUSH2 0x5FC JUMPI DUP6 DUP9 MSTORE PUSH1 0x20 DUP9 ADD SWAP5 SWAP1 DUP2 ISZERO PUSH2 0x5C2 JUMPI POP PUSH1 0x1 EQ PUSH2 0x569 JUMPI JUMPDEST PUSH2 0x565 DUP8 PUSH2 0x559 DUP2 DUP10 SUB DUP3 PUSH2 0x1B69 JUMP JUMPDEST PUSH1 0x40 MLOAD SWAP2 DUP3 SWAP2 DUP3 PUSH2 0x4C5 JUMP JUMPDEST SUB SWAP1 RETURN JUMPDEST PUSH1 0x3 PUSH1 0x0 MSTORE SWAP5 POP SWAP2 SWAP3 SWAP2 PUSH32 0xC2575A0E9E593C00F959F8C92F12DB2869C3395A3B0502D05E2516446F71F85B JUMPDEST DUP4 DUP7 LT PUSH2 0x5B1 JUMPI POP POP POP SWAP2 ADD SWAP1 POP PUSH2 0x559 DUP3 PUSH2 0x565 CODESIZE DUP1 PUSH2 0x549 JUMP JUMPDEST DUP1 SLOAD DUP6 DUP8 ADD MSTORE SWAP5 DUP3 ADD SWAP5 DUP2 ADD PUSH2 0x595 JUMP JUMPDEST PUSH32 0xFFFFFFFFFFFFFFFFFFFFFFFFFFFFFFFFFFFFFFFFFFFFFFFFFFFFFFFFFFFFFF00 AND DUP6 MSTORE POP POP POP ADD SWAP2 POP PUSH2 0x559 SWAP1 POP DUP3 PUSH2 0x565 CODESIZE DUP1 PUSH2 0x549 JUMP JUMPDEST PUSH1 0x24 DUP3 PUSH32 0x4E487B7100000000000000000000000000000000000000000000000000000000 DUP2 MSTORE PUSH1 0x22 PUSH1 0x4 MSTORE REVERT JUMPDEST SWAP4 PUSH1 0x7F AND SWAP4 PUSH2 0x525 JUMP JUMPDEST DUP1 REVERT JUMPDEST PUSH1 0x4 CALLDATALOAD SWAP1 PUSH20 0xFFFFFFFFFFFFFFFFFFFFFFFFFFFFFFFFFFFFFFFF DUP3 AND DUP3 SUB PUSH2 0x451 JUMPI JUMP JUMPDEST PUSH1 0x24 CALLDATALOAD SWAP1 PUSH20 0xFFFFFFFFFFFFFFFFFFFFFFFFFFFFFFFFFFFFFFFF DUP3 AND DUP3 SUB PUSH2 0x451 JUMPI JUMP JUMPDEST POP CALLVALUE PUSH2 0x451 JUMPI PUSH1 0x40 PUSH32 0xFFFFFFFFFFFFFFFFFFFFFFFFFFFFFFFFFFFFFFFFFFFFFFFFFFFFFFFFFFFFFFFC CALLDATASIZE ADD SLT PUSH2 0x451 JUMPI PUSH2 0x6C1 PUSH2 0x6B7 PUSH2 0x636 JUMP JUMPDEST PUSH1 0x24 CALLDATALOAD SWAP1 CALLER PUSH2 0x2BD4 JUMP JUMPDEST PUSH1 0x20 PUSH1 0x40 MLOAD PUSH1 0x1 DUP2 MSTORE RETURN JUMPDEST POP CALLVALUE PUSH2 0x451 JUMPI PUSH1 0x0 PUSH32 0xFFFFFFFFFFFFFFFFFFFFFFFFFFFFFFFFFFFFFFFFFFFFFFFFFFFFFFFFFFFFFFFC CALLDATASIZE ADD SLT PUSH2 0x451 JUMPI PUSH1 0x20 PUSH2 0x706 PUSH2 0x3C21 JUMP JUMPDEST PUSH1 0x40 MLOAD SWAP1 DUP2 MSTORE RETURN JUMPDEST POP CALLVALUE PUSH2 0x451 JUMPI PUSH1 0x20 PUSH32 0xFFFFFFFFFFFFFFFFFFFFFFFFFFFFFFFFFFFFFFFFFFFFFFFFFFFFFFFFFFFFFFFC CALLDATASIZE ADD SLT PUSH2 0x451 JUMPI PUSH1 0x20 PUSH2 0x706 PUSH2 0x74B PUSH2 0x636 JUMP JUMPDEST PUSH2 0x2DB2 JUMP JUMPDEST POP CALLVALUE PUSH2 0x451 JUMPI PUSH1 0x0 PUSH32 0xFFFFFFFFFFFFFFFFFFFFFFFFFFFFFFFFFFFFFFFFFFFFFFFFFFFFFFFFFFFFFFFC CALLDATASIZE ADD SLT PUSH2 0x451 JUMPI PUSH1 0x20 PUSH1 0x2 SLOAD PUSH1 0x40 MLOAD SWAP1 DUP2 MSTORE RETURN JUMPDEST POP CALLVALUE PUSH2 0x451 JUMPI PUSH1 0x40 PUSH32 0xFFFFFFFFFFFFFFFFFFFFFFFFFFFFFFFFFFFFFFFFFFFFFFFFFFFFFFFFFFFFFFFC CALLDATASIZE ADD SLT PUSH2 0x451 JUMPI PUSH1 0x20 PUSH2 0x706 PUSH2 0x7CA PUSH2 0x636 JUMP JUMPDEST PUSH2 0x7D2 PUSH2 0x659 JUMP JUMPDEST SWAP1 PUSH2 0x45AA JUMP JUMPDEST POP CALLVALUE PUSH2 0x451 JUMPI PUSH1 0x20 PUSH32 0xFFFFFFFFFFFFFFFFFFFFFFFFFFFFFFFFFFFFFFFFFFFFFFFFFFFFFFFFFFFFFFFC CALLDATASIZE ADD SLT PUSH2 0x451 JUMPI PUSH1 0x4 CALLDATALOAD PUSH1 0xE SSTORE STOP JUMPDEST POP PUSH32 0x4E487B7100000000000000000000000000000000000000000000000000000000 PUSH1 0x0 MSTORE PUSH1 0x32 PUSH1 0x4 MSTORE PUSH1 0x24 PUSH1 0x0 REVERT JUMPDEST POP CALLVALUE PUSH2 0x451 JUMPI PUSH1 0x20 PUSH32 0xFFFFFFFFFFFFFFFFFFFFFFFFFFFFFFFFFFFFFFFFFFFFFFFFFFFFFFFFFFFFFFFC CALLDATASIZE ADD SLT PUSH2 0x451 JUMPI PUSH1 0x4 CALLDATALOAD PUSH1 0x6 SLOAD DUP2 LT ISZERO PUSH2 0x451 JUMPI PUSH20 0xFFFFFFFFFFFFFFFFFFFFFFFFFFFFFFFFFFFFFFFF PUSH1 0x20 SWAP2 PUSH1 0x6 PUSH1 0x0 MSTORE PUSH32 0xF652222313E28459528D920B65115C16C04F3EFC82AAEDC97BE59F3F377C0D3F ADD SLOAD AND PUSH1 0x40 MLOAD SWAP1 DUP2 MSTORE RETURN JUMPDEST PUSH32 0xFFFFFFFFFFFFFFFFFFFFFFFFFFFFFFFFFFFFFFFFFFFFFFFFFFFFFFFFFFFFFFFC PUSH1 0x60 SWAP2 ADD SLT PUSH2 0x451 JUMPI PUSH20 0xFFFFFFFFFFFFFFFFFFFFFFFFFFFFFFFFFFFFFFFF SWAP1 PUSH1 0x4 CALLDATALOAD DUP3 DUP2 AND DUP2 SUB PUSH2 0x451 JUMPI SWAP2 PUSH1 0x24 CALLDATALOAD SWAP1 DUP2 AND DUP2 SUB PUSH2 0x451 JUMPI SWAP1 PUSH1 0x44 CALLDATALOAD SWAP1 JUMP JUMPDEST POP CALLVALUE PUSH2 0x451 JUMPI PUSH2 0x935 CALLDATASIZE PUSH2 0x8C6 JUMP JUMPDEST SWAP1 PUSH20 0xFFFFFFFFFFFFFFFFFFFFFFFFFFFFFFFFFFFFFFFF DUP4 AND PUSH1 0x0 MSTORE PUSH1 0x1 PUSH1 0x20 MSTORE PUSH2 0x983 CALLER PUSH1 0x40 PUSH1 0x0 KECCAK256 SWAP1 PUSH20 0xFFFFFFFFFFFFFFFFFFFFFFFFFFFFFFFFFFFFFFFF AND PUSH1 0x0 MSTORE PUSH1 0x20 MSTORE PUSH1 0x40 PUSH1 0x0 KECCAK256 SWAP1 JUMP JUMPDEST SLOAD SWAP3 PUSH32 0xFFFFFFFFFFFFFFFFFFFFFFFFFFFFFFFFFFFFFFFFFFFFFFFFFFFFFFFFFFFFFFFF DUP5 SUB PUSH2 0x9C3 JUMPI JUMPDEST PUSH2 0x9B7 SWAP4 POP PUSH2 0x2A4B JUMP JUMPDEST PUSH1 0x40 MLOAD PUSH1 0x1 DUP2 MSTORE PUSH1 0x20 SWAP1 RETURN JUMPDEST DUP3 DUP5 LT PUSH2 0x9DF JUMPI PUSH2 0x9DA DUP4 PUSH2 0x9B7 SWAP6 SUB CALLER DUP4 PUSH2 0x2BD4 JUMP JUMPDEST PUSH2 0x9AD JUMP JUMPDEST PUSH1 0x64 PUSH1 0x40 MLOAD PUSH32 0x8C379A000000000000000000000000000000000000000000000000000000000 DUP2 MSTORE PUSH1 0x20 PUSH1 0x4 DUP3 ADD MSTORE PUSH1 0x1D PUSH1 0x24 DUP3 ADD MSTORE PUSH32 0x45524332303A20696E73756666696369656E7420616C6C6F77616E6365000000 PUSH1 0x44 DUP3 ADD MSTORE REVERT JUMPDEST POP CALLVALUE PUSH2 0x451 JUMPI PUSH1 0x20 PUSH32 0xFFFFFFFFFFFFFFFFFFFFFFFFFFFFFFFFFFFFFFFFFFFFFFFFFFFFFFFFFFFFFFFC CALLDATASIZE ADD SLT PUSH2 0x451 JUMPI PUSH2 0x19 PUSH2 0xA78 PUSH2 0x636 JUMP JUMPDEST PUSH20 0xFFFFFFFFFFFFFFFFFFFFFFFFFFFFFFFFFFFFFFFF DUP2 AND PUSH1 0x0 MSTORE PUSH1 0x0 PUSH1 0x20 MSTORE PUSH2 0xBB8 PUSH2 0xAB2 PUSH1 0x40 PUSH1 0x0 KECCAK256 SLOAD PUSH2 0xAAC ADDRESS PUSH2 0x434F JUMP JUMPDEST SWAP1 PUSH2 0x309C JUMP JUMPDEST PUSH2 0xBB3 PUSH2 0xAC2 PUSH1 0x2 SLOAD DUP1 SWAP4 PUSH2 0x3119 JUMP JUMPDEST SWAP2 PUSH2 0xBAE PUSH2 0xB06 DUP3 PUSH2 0xB01 PUSH2 0xAF7 DUP10 PUSH20 0xFFFFFFFFFFFFFFFFFFFFFFFFFFFFFFFFFFFFFFFF AND PUSH1 0x0 MSTORE PUSH1 0x0 PUSH1 0x20 MSTORE PUSH1 0x40 PUSH1 0x0 KECCAK256 SWAP1 JUMP JUMPDEST SLOAD PUSH2 0xAAC ADDRESS PUSH2 0x43E6 JUMP JUMPDEST PUSH2 0x3119 JUMP JUMPDEST PUSH2 0xBA9 PUSH2 0xB7F PUSH2 0xB47 DUP6 PUSH2 0xB01 PUSH2 0xB3D DUP13 PUSH20 0xFFFFFFFFFFFFFFFFFFFFFFFFFFFFFFFFFFFFFFFF AND PUSH1 0x0 MSTORE PUSH1 0x0 PUSH1 0x20 MSTORE PUSH1 0x40 PUSH1 0x0 KECCAK256 SWAP1 JUMP JUMPDEST SLOAD PUSH2 0xAAC ADDRESS PUSH2 0x4457 JUMP JUMPDEST SWAP5 PUSH2 0xB01 PUSH2 0xB75 DUP12 PUSH20 0xFFFFFFFFFFFFFFFFFFFFFFFFFFFFFFFFFFFFFFFF AND PUSH1 0x0 MSTORE PUSH1 0x0 PUSH1 0x20 MSTORE PUSH1 0x40 PUSH1 0x0 KECCAK256 SWAP1 JUMP JUMPDEST SLOAD PUSH2 0xAAC ADDRESS PUSH2 0x44C8 JUMP JUMPDEST SWAP6 PUSH2 0xB89 DUP2 PUSH2 0x3563 JUMP JUMPDEST PUSH2 0xB92 DUP4 PUSH2 0x35FD JUMP JUMPDEST PUSH2 0xB9B DUP6 PUSH2 0x366F JUMP JUMPDEST PUSH2 0xBA4 DUP8 PUSH2 0x36E1 JUMP JUMPDEST PUSH2 0x41A9 JUMP JUMPDEST PUSH2 0x421D JUMP JUMPDEST PUSH2 0x4283 JUMP JUMPDEST PUSH2 0x42E9 JUMP JUMPDEST PUSH2 0xBCA DUP2 PUSH2 0xBC5 ADDRESS PUSH2 0x4539 JUMP JUMPDEST PUSH2 0x4134 JUMP JUMPDEST PUSH2 0xBF4 DUP2 PUSH20 0xFFFFFFFFFFFFFFFFFFFFFFFFFFFFFFFFFFFFFFFF AND PUSH1 0x0 MSTORE PUSH1 0x0 PUSH1 0x20 MSTORE PUSH1 0x40 PUSH1 0x0 KECCAK256 SWAP1 JUMP JUMPDEST SLOAD SWAP1 PUSH2 0x3F62 JUMP JUMPDEST POP CALLVALUE PUSH2 0x451 JUMPI PUSH2 0x19 PUSH2 0xC0D CALLDATASIZE PUSH2 0x8C6 JUMP JUMPDEST SWAP2 PUSH2 0x383C JUMP JUMPDEST POP CALLVALUE PUSH2 0x451 JUMPI PUSH1 0x0 PUSH32 0xFFFFFFFFFFFFFFFFFFFFFFFFFFFFFFFFFFFFFFFFFFFFFFFFFFFFFFFFFFFFFFFC CALLDATASIZE ADD SLT PUSH2 0x451 JUMPI PUSH1 0x20 PUSH1 0x40 MLOAD PUSH20 0xBBBA073C31BF03B8ACF7C28EF0738DECF3695683 DUP2 MSTORE RETURN JUMPDEST POP CALLVALUE PUSH2 0x451 JUMPI PUSH1 0x0 PUSH32 0xFFFFFFFFFFFFFFFFFFFFFFFFFFFFFFFFFFFFFFFFFFFFFFFFFFFFFFFFFFFFFFFC CALLDATASIZE ADD SLT PUSH2 0x451 JUMPI PUSH1 0x20 PUSH1 0x40 MLOAD PUSH1 0x12 DUP2 MSTORE RETURN JUMPDEST POP CALLVALUE PUSH2 0x451 JUMPI PUSH1 0x40 PUSH32 0xFFFFFFFFFFFFFFFFFFFFFFFFFFFFFFFFFFFFFFFFFFFFFFFFFFFFFFFFFFFFFFFC CALLDATASIZE ADD SLT PUSH2 0x451 JUMPI PUSH2 0x6C1 PUSH2 0xCD7 PUSH2 0x636 JUMP JUMPDEST CALLER PUSH1 0x0 MSTORE PUSH1 0x1 PUSH1 0x20 MSTORE PUSH2 0xD1A PUSH1 0x24 CALLDATALOAD PUSH2 0xD14 DUP4 PUSH1 0x40 PUSH1 0x0 KECCAK256 SWAP1 PUSH20 0xFFFFFFFFFFFFFFFFFFFFFFFFFFFFFFFFFFFFFFFF AND PUSH1 0x0 MSTORE PUSH1 0x20 MSTORE PUSH1 0x40 PUSH1 0x0 KECCAK256 SWAP1 JUMP JUMPDEST SLOAD PUSH2 0x291D JUMP JUMPDEST SWAP1 CALLER PUSH2 0x2BD4 JUMP JUMPDEST POP CALLVALUE PUSH2 0x451 JUMPI PUSH1 0x0 PUSH32 0xFFFFFFFFFFFFFFFFFFFFFFFFFFFFFFFFFFFFFFFFFFFFFFFFFFFFFFFFFFFFFFFC CALLDATASIZE ADD SLT PUSH2 0x451 JUMPI PUSH1 0x20 PUSH1 0xD SLOAD PUSH1 0x40 MLOAD SWAP1 DUP2 MSTORE RETURN JUMPDEST POP CALLVALUE PUSH2 0x451 JUMPI PUSH1 0x20 PUSH32 0xFFFFFFFFFFFFFFFFFFFFFFFFFFFFFFFFFFFFFFFFFFFFFFFFFFFFFFFFFFFFFFFC CALLDATASIZE ADD SLT PUSH2 0x451 JUMPI PUSH1 0x4 CALLDATALOAD PUSH1 0xB SLOAD DUP2 LT ISZERO PUSH2 0x451 JUMPI PUSH20 0xFFFFFFFFFFFFFFFFFFFFFFFFFFFFFFFFFFFFFFFF PUSH1 0x20 SWAP2 PUSH1 0xB PUSH1 0x0 MSTORE PUSH32 0x175B7A638427703F0DBE7BB9BBF987A2551717B34E79F33B5B1008D1FA01DB9 ADD SLOAD AND PUSH1 0x40 MLOAD SWAP1 DUP2 MSTORE RETURN JUMPDEST SWAP1 PUSH1 0x20 PUSH32 0xFFFFFFFFFFFFFFFFFFFFFFFFFFFFFFFFFFFFFFFFFFFFFFFFFFFFFFFFFFFFFFFC DUP4 ADD SLT PUSH2 0x451 JUMPI PUSH1 0x4 CALLDATALOAD PUSH8 0xFFFFFFFFFFFFFFFF SWAP3 DUP4 DUP3 GT PUSH2 0x451 JUMPI DUP1 PUSH1 0x23 DUP4 ADD SLT ISZERO PUSH2 0x451 JUMPI DUP2 PUSH1 0x4 ADD CALLDATALOAD SWAP4 DUP5 GT PUSH2 0x451 JUMPI PUSH1 0x24 DUP5 DUP4 ADD ADD GT PUSH2 0x451 JUMPI PUSH1 0x24 ADD SWAP2 SWAP1 JUMP JUMPDEST POP CALLVALUE PUSH2 0x451 JUMPI PUSH2 0xE5B CALLDATASIZE PUSH2 0xDE4 JUMP JUMPDEST SWAP1 PUSH2 0xE68 PUSH1 0xD SLOAD TIMESTAMP PUSH2 0x3007 JUMP JUMPDEST PUSH1 0xE SLOAD LT PUSH2 0xE72 JUMPI STOP JUMPDEST PUSH2 0xE7B TIMESTAMP PUSH1 0xD SSTORE JUMP JUMPDEST PUSH2 0xE98 PUSH2 0xE86 PUSH2 0x31EA JUMP JUMPDEST SWAP2 PUSH2 0xE8F PUSH2 0x3225 JUMP JUMPDEST SWAP4 DUP2 ADD SWAP1 PUSH2 0x347D JUMP JUMPDEST SWAP2 PUSH1 0x0 JUMPDEST DUP4 MLOAD SWAP1 PUSH1 0xFF DUP2 AND SWAP2 DUP3 LT ISZERO PUSH2 0x19 JUMPI PUSH2 0xFCE SWAP2 PUSH2 0xEFB PUSH2 0xEEA PUSH2 0xED0 PUSH2 0xECA PUSH2 0xEC4 DUP7 PUSH2 0x33AD JUMP JUMPDEST PUSH1 0xFF AND SWAP1 JUMP JUMPDEST DUP9 PUSH2 0x2F61 JUMP JUMPDEST MLOAD PUSH20 0xFFFFFFFFFFFFFFFFFFFFFFFFFFFFFFFFFFFFFFFF AND SWAP1 JUMP JUMPDEST PUSH2 0xEF4 DUP4 DUP10 PUSH2 0x2F61 JUMP JUMPDEST MLOAD SWAP1 PUSH2 0x3753 JUMP JUMPDEST PUSH20 0xD500B1D8E8EF31E21C99D1DB9A6444D3ADF1270 DUP1 PUSH2 0xF45 PUSH2 0xF2C PUSH2 0xED0 PUSH2 0xF26 PUSH2 0xEC4 DUP9 PUSH2 0x33AD JUMP JUMPDEST DUP11 PUSH2 0x2F61 JUMP JUMPDEST PUSH20 0xFFFFFFFFFFFFFFFFFFFFFFFFFFFFFFFFFFFFFFFF AND SWAP1 JUMP JUMPDEST EQ SWAP1 DUP2 ISZERO PUSH2 0x1047 JUMPI JUMPDEST POP ISZERO PUSH2 0xFD3 JUMPI PUSH2 0xFC0 PUSH2 0xFC9 SWAP2 PUSH2 0xF94 PUSH2 0xF70 PUSH2 0xED0 PUSH2 0xF26 PUSH2 0xEC4 DUP9 PUSH2 0x33AD JUMP JUMPDEST PUSH2 0xF79 DUP9 PUSH2 0x2F18 JUMP JUMPDEST SWAP1 PUSH20 0xFFFFFFFFFFFFFFFFFFFFFFFFFFFFFFFFFFFFFFFF AND SWAP1 MSTORE JUMP JUMPDEST PUSH2 0xFBA PUSH2 0xFB1 PUSH2 0xED0 PUSH2 0xF26 PUSH2 0xEC4 PUSH2 0xFAC DUP10 PUSH2 0x33AD JUMP JUMPDEST PUSH2 0x33D4 JUMP JUMPDEST PUSH2 0xF79 DUP9 PUSH2 0x2F2E JUMP JUMPDEST DUP8 PUSH2 0x2F61 JUMP JUMPDEST MLOAD DUP5 ADDRESS SWAP2 PUSH2 0x4685 JUMP JUMPDEST PUSH2 0x2F83 JUMP JUMPDEST PUSH2 0xE9C JUMP JUMPDEST PUSH2 0x103E PUSH2 0xFC9 SWAP2 PUSH2 0xFF8 PUSH2 0xFEF PUSH2 0xED0 PUSH2 0xF26 PUSH2 0xEC4 DUP9 PUSH2 0x33AD JUMP JUMPDEST PUSH2 0xF79 DUP12 PUSH2 0x2F18 JUMP JUMPDEST PUSH2 0x101D PUSH2 0x1004 DUP11 PUSH2 0x2F2E JUMP JUMPDEST PUSH20 0xD500B1D8E8EF31E21C99D1DB9A6444D3ADF1270 SWAP1 MSTORE JUMP JUMPDEST PUSH2 0xFBA PUSH2 0x1035 PUSH2 0xED0 PUSH2 0xF26 PUSH2 0xEC4 PUSH2 0xFAC DUP10 PUSH2 0x33AD JUMP JUMPDEST PUSH2 0xF79 DUP12 PUSH2 0x2F3F JUMP JUMPDEST MLOAD DUP8 ADDRESS SWAP2 PUSH2 0x4685 JUMP JUMPDEST SWAP1 POP PUSH2 0x1067 PUSH2 0xF2C PUSH2 0xED0 PUSH2 0x1061 PUSH2 0xEC4 PUSH2 0xFAC DUP9 PUSH2 0x33AD JUMP JUMPDEST DUP10 PUSH2 0x2F61 JUMP JUMPDEST EQ CODESIZE PUSH2 0xF4E JUMP JUMPDEST POP CALLVALUE PUSH2 0x451 JUMPI PUSH1 0x20 PUSH2 0xAAC PUSH2 0x10CE PUSH1 0x2 PUSH2 0x109F PUSH2 0x1099 PUSH2 0x108D CALLDATASIZE PUSH2 0x8C6 JUMP JUMPDEST SWAP7 SWAP2 SWAP3 SWAP1 SWAP3 ADDRESS SWAP1 PUSH2 0x45AA JUMP JUMPDEST SWAP2 PUSH2 0x2DB2 JUMP JUMPDEST SWAP3 PUSH32 0xFFFFFFFFFFFFFFFFFFFFFFFFFFFFFFFFFFFFFFFFFFFFFFFFFFFFFFFFFFFFFFFD DUP2 GT PUSH2 0x10EB JUMPI JUMPDEST ADD PUSH2 0x30CD JUMP JUMPDEST DUP1 ISZERO PUSH2 0x10DE JUMPI JUMPDEST PUSH1 0x40 MLOAD SWAP2 DIV DUP2 MSTORE RETURN JUMPDEST PUSH2 0x10E6 PUSH2 0x30E9 JUMP JUMPDEST PUSH2 0x10D5 JUMP JUMPDEST PUSH2 0x10F3 PUSH2 0x28ED JUMP JUMPDEST PUSH2 0x10C8 JUMP JUMPDEST POP CALLVALUE PUSH2 0x451 JUMPI PUSH1 0x20 PUSH32 0xFFFFFFFFFFFFFFFFFFFFFFFFFFFFFFFFFFFFFFFFFFFFFFFFFFFFFFFFFFFFFFFC CALLDATASIZE ADD SLT PUSH2 0x451 JUMPI PUSH1 0x4 CALLDATALOAD PUSH1 0x9 SLOAD DUP2 LT ISZERO PUSH2 0x451 JUMPI PUSH20 0xFFFFFFFFFFFFFFFFFFFFFFFFFFFFFFFFFFFFFFFF PUSH1 0x20 SWAP2 PUSH1 0x9 PUSH1 0x0 MSTORE PUSH32 0x6E1540171B6C0C960B71A7020D9F60077F6AF931A8BBF590DA0223DACF75C7AF ADD SLOAD AND PUSH1 0x40 MLOAD SWAP1 DUP2 MSTORE RETURN JUMPDEST POP CALLVALUE PUSH2 0x451 JUMPI PUSH1 0x20 PUSH32 0xFFFFFFFFFFFFFFFFFFFFFFFFFFFFFFFFFFFFFFFFFFFFFFFFFFFFFFFFFFFFFFFC CALLDATASIZE ADD SLT PUSH2 0x451 JUMPI PUSH1 0x4 CALLDATALOAD PUSH1 0x5 SLOAD DUP2 LT ISZERO PUSH2 0x451 JUMPI PUSH20 0xFFFFFFFFFFFFFFFFFFFFFFFFFFFFFFFFFFFFFFFF PUSH1 0x20 SWAP2 PUSH1 0x5 PUSH1 0x0 MSTORE PUSH32 0x36B6384B5ECA791C62761152D0C79BB0604C104A5FB6F4EB0703F3154BB3DB0 ADD SLOAD AND PUSH1 0x40 MLOAD SWAP1 DUP2 MSTORE RETURN JUMPDEST PUSH1 0x40 SWAP1 PUSH2 0x4D6 SWAP4 SWAP3 ISZERO ISZERO DUP2 MSTORE DUP2 PUSH1 0x20 DUP3 ADD MSTORE ADD SWAP1 PUSH2 0x456 JUMP JUMPDEST POP CALLVALUE PUSH2 0x451 JUMPI PUSH2 0x122C CALLDATASIZE PUSH2 0xDE4 JUMP JUMPDEST POP POP PUSH1 0x0 PUSH2 0x1238 PUSH2 0x2EC1 JUMP JUMPDEST SWAP1 PUSH2 0x1241 PUSH2 0x2E62 JUMP JUMPDEST PUSH20 0xD500B1D8E8EF31E21C99D1DB9A6444D3ADF1270 PUSH1 0x20 DUP3 ADD MSTORE SWAP1 PUSH1 0x40 SWAP2 PUSH2 0x127E DUP4 DUP3 ADD PUSH20 0xAB594600376EC9FD91F8E885DADF0CE036862DE0 SWAP1 MSTORE JUMP JUMPDEST PUSH2 0x1286 PUSH2 0x2E62 JUMP JUMPDEST PUSH20 0xBBBA073C31BF03B8ACF7C28EF0738DECF3695683 PUSH1 0x20 DUP3 ADD MSTORE PUSH20 0x3D49406EDD4D52FB7FFD25485F32E073B529C924 DUP2 DUP6 ADD MSTORE PUSH2 0x12C1 PUSH2 0x2E62 JUMP JUMPDEST PUSH20 0x1BFD67037B42CF73ACF2047067BD4F2C47D9BFD6 PUSH1 0x20 DUP3 ADD MSTORE SWAP1 PUSH20 0xC907E116054AD103354F2D350FD2514433D57F6F DUP3 DUP7 ADD MSTORE PUSH2 0x12FD PUSH2 0x2E62 JUMP JUMPDEST PUSH20 0x7CEB23FD6BC0ADD59E62AC25578270CFF1B9F619 PUSH1 0x20 DUP3 ADD MSTORE SWAP3 PUSH20 0xF9680D99D6C9589E2A93A78A04A279E509205945 DUP5 DUP8 ADD MSTORE PUSH2 0x133A DUP8 PUSH2 0x2F18 JUMP JUMPDEST MSTORE PUSH2 0x1344 DUP7 PUSH2 0x2F18 JUMP JUMPDEST POP PUSH2 0x134E DUP7 PUSH2 0x2F2E JUMP JUMPDEST MSTORE PUSH2 0x1358 DUP6 PUSH2 0x2F2E JUMP JUMPDEST POP PUSH2 0x1362 DUP6 PUSH2 0x2F3F JUMP JUMPDEST MSTORE PUSH2 0x136C DUP5 PUSH2 0x2F3F JUMP JUMPDEST POP PUSH2 0x1376 DUP5 PUSH2 0x2F50 JUMP JUMPDEST MSTORE PUSH2 0x1380 DUP4 PUSH2 0x2F50 JUMP JUMPDEST POP DUP1 DUP1 JUMPDEST DUP5 MLOAD PUSH1 0xFF SWAP1 DUP2 DUP5 AND LT ISZERO PUSH2 0x15CB JUMPI PUSH2 0x154F SWAP2 DUP2 PUSH2 0x1540 PUSH2 0x1524 PUSH2 0x151A DUP11 PUSH2 0xAAC PUSH2 0x1514 DUP11 PUSH1 0xE0 PUSH2 0x150B DUP16 DUP16 SWAP13 DUP1 PUSH2 0x1549 SWAP15 DUP10 PUSH1 0x20 PUSH2 0x14F0 SWAP6 PUSH2 0x13EE PUSH2 0xF2C PUSH2 0xF2C DUP5 PUSH2 0x13D2 DUP10 DUP16 AND DUP9 PUSH2 0x2F61 JUMP JUMPDEST MLOAD ADD MLOAD PUSH20 0xFFFFFFFFFFFFFFFFFFFFFFFFFFFFFFFFFFFFFFFF AND SWAP1 JUMP JUMPDEST SWAP1 DUP11 DUP11 PUSH2 0x148B DUP4 MLOAD SWAP7 PUSH32 0x70A0823100000000000000000000000000000000000000000000000000000000 DUP9 MSTORE PUSH1 0x4 SWAP8 DUP8 DUP2 DUP1 PUSH2 0x1449 ADDRESS DUP14 DUP4 ADD SWAP2 SWAP1 SWAP2 PUSH20 0xFFFFFFFFFFFFFFFFFFFFFFFFFFFFFFFFFFFFFFFF PUSH1 0x20 DUP3 ADD SWAP4 AND SWAP1 MSTORE JUMP JUMPDEST SUB DUP2 DUP11 GAS STATICCALL SWAP1 DUP2 ISZERO PUSH2 0x15BE JUMPI JUMPDEST DUP11 SWAP2 PUSH2 0x1591 JUMPI JUMPDEST POP PUSH1 0x80 PUSH2 0x146C DUP13 DUP8 AND DUP5 PUSH2 0x2F61 JUMP JUMPDEST MLOAD ADD MSTORE DUP10 PUSH2 0x1483 PUSH2 0x74B DUP8 PUSH2 0x13D2 DUP5 DUP10 AND DUP7 PUSH2 0x2F61 JUMP JUMPDEST SWAP5 AND SWAP1 PUSH2 0x2F61 JUMP JUMPDEST MLOAD ADD MSTORE MLOAD SWAP3 DUP4 DUP1 SWAP3 PUSH32 0x313CE56700000000000000000000000000000000000000000000000000000000 DUP3 MSTORE GAS STATICCALL SWAP2 DUP3 ISZERO PUSH2 0x1584 JUMPI JUMPDEST SWAP2 PUSH2 0x1555 JUMPI JUMPDEST POP PUSH2 0x14D9 PUSH1 0x60 SWAP4 DUP5 SWAP3 AND SWAP3 DUP9 AND DUP12 PUSH2 0x2F61 JUMP JUMPDEST MLOAD ADD MSTORE PUSH2 0x14E8 DUP13 DUP7 AND DUP10 PUSH2 0x2F61 JUMP JUMPDEST MLOAD ADD MLOAD PUSH2 0x2FBD JUMP JUMPDEST SWAP6 DUP11 PUSH1 0x80 PUSH2 0x1500 DUP3 DUP8 AND DUP5 PUSH2 0x2F61 JUMP JUMPDEST MLOAD ADD MLOAD SWAP5 AND SWAP1 PUSH2 0x2F61 JUMP JUMPDEST MLOAD ADD MLOAD SWAP1 PUSH2 0x309C JUMP JUMPDEST SWAP2 PUSH2 0x30CD JUMP JUMPDEST PUSH4 0x5F5E100 SWAP1 DIV SWAP1 JUMP JUMPDEST SWAP2 PUSH1 0xA0 SWAP3 DUP4 PUSH2 0x1535 DUP4 DUP11 AND DUP14 PUSH2 0x2F61 JUMP JUMPDEST MLOAD ADD MSTORE DUP7 AND DUP10 PUSH2 0x2F61 JUMP JUMPDEST MLOAD ADD MLOAD SWAP1 PUSH2 0x291D JUMP JUMPDEST SWAP2 PUSH2 0x2F83 JUMP JUMPDEST SWAP1 PUSH2 0x1384 JUMP JUMPDEST PUSH2 0x1577 SWAP2 POP PUSH1 0x20 RETURNDATASIZE PUSH1 0x20 GT PUSH2 0x157D JUMPI JUMPDEST PUSH2 0x156F DUP2 DUP4 PUSH2 0x1B69 JUMP JUMPDEST DUP2 ADD SWAP1 PUSH2 0x2FA4 JUMP JUMPDEST CODESIZE PUSH2 0x14C6 JUMP JUMPDEST POP RETURNDATASIZE PUSH2 0x1565 JUMP JUMPDEST PUSH2 0x158C PUSH2 0x2DA5 JUMP JUMPDEST PUSH2 0x14C0 JUMP JUMPDEST PUSH2 0x15B1 SWAP2 POP DUP9 RETURNDATASIZE DUP11 GT PUSH2 0x15B7 JUMPI JUMPDEST PUSH2 0x15A9 DUP2 DUP4 PUSH2 0x1B69 JUMP JUMPDEST DUP2 ADD SWAP1 PUSH2 0x2F95 JUMP JUMPDEST CODESIZE PUSH2 0x145D JUMP JUMPDEST POP RETURNDATASIZE PUSH2 0x159F JUMP JUMPDEST PUSH2 0x15C6 PUSH2 0x2DA5 JUMP JUMPDEST PUSH2 0x1456 JUMP JUMPDEST POP DUP4 DUP4 DUP7 DUP2 PUSH1 0xF SLOAD SWAP3 JUMPDEST DUP3 MLOAD PUSH1 0xFF DUP3 AND SWAP1 DUP2 LT ISZERO PUSH2 0x1657 JUMPI PUSH2 0x163A DUP8 PUSH2 0xB01 PUSH2 0x1635 DUP5 PUSH2 0x162D DUP2 PUSH2 0x1616 PUSH1 0xA0 PUSH2 0x1602 DUP15 SWAP11 DUP15 PUSH2 0x2F61 JUMP JUMPDEST MLOAD ADD MLOAD PUSH2 0x1610 DUP14 MLOAD DUP10 PUSH2 0x3119 JUMP JUMPDEST SWAP1 PUSH2 0x312F JUMP JUMPDEST DUP12 PUSH2 0x1624 PUSH1 0xC0 SWAP6 DUP7 SWAP3 PUSH2 0x2F61 JUMP JUMPDEST MLOAD ADD MSTORE DUP11 PUSH2 0x2F61 JUMP JUMPDEST MLOAD ADD MLOAD PUSH2 0x3513 JUMP JUMPDEST PUSH2 0x301E JUMP JUMPDEST GT PUSH2 0x164E JUMPI JUMPDEST PUSH2 0x1649 SWAP1 PUSH2 0x2F83 JUMP JUMPDEST PUSH2 0x15D5 JUMP JUMPDEST PUSH1 0x1 SWAP2 POP PUSH2 0x1640 JUMP JUMPDEST POP POP SWAP3 SWAP2 POP PUSH1 0x0 SWAP1 DUP2 SWAP4 DUP3 SWAP4 PUSH2 0x1675 PUSH2 0x1670 DUP5 MLOAD PUSH2 0x2FD9 JUMP JUMPDEST PUSH2 0x319B JUMP JUMPDEST SWAP2 PUSH2 0x168B PUSH2 0x1670 PUSH2 0x1686 DUP7 MLOAD PUSH2 0x2FD9 JUMP JUMPDEST PUSH2 0x305E JUMP JUMPDEST SWAP7 DUP6 JUMPDEST PUSH2 0x1698 DUP7 MLOAD PUSH2 0x2FD9 JUMP JUMPDEST SWAP4 PUSH1 0xFF SWAP4 DUP5 DUP4 AND SWAP6 DUP7 LT ISZERO PUSH2 0x1962 JUMPI PUSH1 0x0 JUMPDEST DUP9 MLOAD DUP7 DUP3 AND SWAP1 DUP2 LT ISZERO PUSH2 0x1725 JUMPI PUSH1 0xC0 DUP11 DUP13 DUP3 DUP5 DUP2 PUSH2 0x16C8 DUP3 DUP7 PUSH2 0x2F61 JUMP JUMPDEST MLOAD ADD MLOAD ISZERO ISZERO SWAP4 DUP5 PUSH2 0x170C JUMPI JUMPDEST POP POP POP POP PUSH2 0x16ED JUMPI JUMPDEST POP POP PUSH2 0x16E8 SWAP1 PUSH2 0x2F83 JUMP JUMPDEST PUSH2 0x16AA JUMP JUMPDEST SWAP1 SWAP6 POP DUP2 SWAP11 POP PUSH2 0x1701 PUSH2 0x16E8 SWAP3 SWAP7 DUP12 PUSH2 0x2F61 JUMP JUMPDEST MLOAD ADD MLOAD SWAP10 SWAP1 DUP14 PUSH2 0x16DD JUMP JUMPDEST PUSH2 0x1718 SWAP3 SWAP4 SWAP5 POP PUSH2 0x2F61 JUMP JUMPDEST MLOAD ADD MLOAD SGT DUP13 DUP3 DUP5 DUP15 PUSH2 0x16D4 JUMP JUMPDEST POP POP SWAP1 SWAP8 POP SWAP8 SWAP3 SWAP1 SWAP4 SWAP8 SWAP5 SWAP2 SWAP5 PUSH32 0x7FFFFFFFFFFFFFFFFFFFFFFFFFFFFFFFFFFFFFFFFFFFFFFFFFFFFFFFFFFFFFFF SWAP8 PUSH1 0x0 JUMPDEST DUP9 MLOAD DUP13 DUP6 DUP4 AND SWAP2 DUP3 LT ISZERO PUSH2 0x17D4 JUMPI POP PUSH1 0xC0 DUP11 DUP13 DUP3 DUP5 DUP2 PUSH2 0x1777 DUP3 DUP7 PUSH2 0x2F61 JUMP JUMPDEST MLOAD ADD MLOAD ISZERO ISZERO SWAP4 DUP5 PUSH2 0x17BB JUMPI JUMPDEST POP POP POP POP PUSH2 0x179C JUMPI JUMPDEST POP POP PUSH2 0x1797 SWAP1 PUSH2 0x2F83 JUMP JUMPDEST PUSH2 0x1757 JUMP JUMPDEST SWAP1 SWAP7 POP DUP2 SWAP11 POP PUSH2 0x17B0 PUSH2 0x1797 SWAP3 SWAP8 DUP12 PUSH2 0x2F61 JUMP JUMPDEST MLOAD ADD MLOAD SWAP10 SWAP1 DUP14 PUSH2 0x178C JUMP JUMPDEST PUSH2 0x17C7 SWAP3 SWAP4 SWAP5 POP PUSH2 0x2F61 JUMP JUMPDEST MLOAD ADD MLOAD SLT DUP13 DUP3 DUP5 DUP15 PUSH2 0x1783 JUMP JUMPDEST PUSH2 0x18F2 SWAP3 POP PUSH1 0x20 SWAP2 POP DUP8 PUSH2 0x18EC PUSH2 0x13D2 SWAP3 PUSH2 0xFC9 SWAP7 SWAP11 SWAP16 PUSH2 0x18D9 DUP16 DUP13 SWAP16 SWAP13 SWAP11 SWAP15 SWAP11 PUSH2 0xF79 SWAP4 DUP10 SWAP3 DUP16 SWAP3 PUSH2 0x190A SWAP16 DUP1 PUSH2 0x13D2 SWAP6 AND SWAP4 PUSH1 0xC0 SWAP2 DUP3 PUSH2 0x1816 DUP8 DUP8 PUSH2 0x2F61 JUMP JUMPDEST MLOAD ADD MLOAD SWAP13 AND DUP1 SWAP13 PUSH2 0x182B DUP5 PUSH2 0x162D DUP5 DUP10 PUSH2 0x2F61 JUMP JUMPDEST SLT ISZERO PUSH2 0x1912 JUMPI DUP3 PUSH2 0x187F DUP3 PUSH2 0x1849 PUSH2 0x18D3 SWAP7 PUSH2 0x162D PUSH1 0x0 SWAP7 DUP12 PUSH2 0x2F61 JUMP JUMPDEST PUSH2 0x1853 DUP7 DUP10 PUSH2 0x2F61 JUMP JUMPDEST MSTORE PUSH2 0x185E DUP6 DUP9 PUSH2 0x2F61 JUMP JUMPDEST MLOAD PUSH2 0x1877 DUP5 PUSH2 0x186D DUP13 DUP13 PUSH2 0x2F61 JUMP JUMPDEST MLOAD ADD SWAP2 DUP3 MLOAD PUSH2 0x312F JUMP JUMPDEST SWAP1 MSTORE DUP8 PUSH2 0x2F61 JUMP JUMPDEST MLOAD ADD MSTORE PUSH2 0x18CD PUSH2 0x18B0 PUSH2 0x189B PUSH2 0x1895 DUP5 DUP8 PUSH2 0x2F61 JUMP JUMPDEST MLOAD PUSH2 0x32CB JUMP JUMPDEST PUSH1 0xE0 PUSH2 0x18A7 DUP10 DUP10 PUSH2 0x2F61 JUMP JUMPDEST MLOAD ADD MLOAD SWAP1 PUSH2 0x333E JUMP JUMPDEST PUSH2 0x18C7 PUSH2 0x18C2 PUSH1 0x60 PUSH2 0x14E8 DUP11 DUP11 PUSH2 0x2F61 JUMP JUMPDEST PUSH2 0x30CD JUMP JUMPDEST SWAP1 PUSH2 0x333E JUMP JUMPDEST SWAP3 PUSH2 0x2F61 JUMP JUMPDEST MSTORE PUSH2 0x2F61 JUMP JUMPDEST SWAP2 PUSH2 0x18E6 PUSH2 0xEC4 DUP12 PUSH2 0x33AD JUMP JUMPDEST SWAP1 PUSH2 0x2F61 JUMP JUMPDEST DUP12 PUSH2 0x2F61 JUMP JUMPDEST PUSH2 0xF79 PUSH2 0x1904 PUSH2 0xEC4 PUSH2 0xFAC DUP7 PUSH2 0x33AD JUMP JUMPDEST DUP14 PUSH2 0x2F61 JUMP JUMPDEST SWAP3 SWAP2 SWAP3 PUSH2 0x168E JUMP JUMPDEST POP PUSH1 0x0 DUP3 PUSH2 0x1927 PUSH2 0x18D3 SWAP5 PUSH2 0x162D DUP10 DUP10 PUSH2 0x2F61 JUMP JUMPDEST PUSH2 0x1931 DUP5 DUP8 PUSH2 0x2F61 JUMP JUMPDEST MSTORE DUP14 PUSH2 0x1956 DUP3 PUSH2 0x194C PUSH2 0x1944 DUP8 DUP11 PUSH2 0x2F61 JUMP JUMPDEST MLOAD SWAP4 DUP11 PUSH2 0x2F61 JUMP JUMPDEST MLOAD ADD SWAP2 DUP3 MLOAD PUSH2 0x325F JUMP JUMPDEST SWAP1 MSTORE PUSH2 0x187F DUP8 DUP8 PUSH2 0x2F61 JUMP JUMPDEST PUSH2 0x565 DUP8 SWAP3 PUSH2 0x19A8 DUP14 PUSH2 0x197C DUP4 MLOAD SWAP7 DUP8 SWAP3 PUSH1 0x20 DUP5 ADD PUSH2 0x3430 JUMP JUMPDEST SUB PUSH32 0xFFFFFFFFFFFFFFFFFFFFFFFFFFFFFFFFFFFFFFFFFFFFFFFFFFFFFFFFFFFFFFE0 DUP2 ADD DUP7 MSTORE DUP6 PUSH2 0x1B69 JUMP JUMPDEST MLOAD SWAP3 DUP4 SWAP3 DUP4 PUSH2 0x1204 JUMP JUMPDEST POP CALLVALUE PUSH2 0x451 JUMPI PUSH1 0x20 PUSH32 0xFFFFFFFFFFFFFFFFFFFFFFFFFFFFFFFFFFFFFFFFFFFFFFFFFFFFFFFFFFFFFFFC CALLDATASIZE ADD SLT PUSH2 0x451 JUMPI PUSH20 0xFFFFFFFFFFFFFFFFFFFFFFFFFFFFFFFFFFFFFFFF PUSH2 0x19FF PUSH2 0x636 JUMP JUMPDEST AND PUSH1 0x0 MSTORE PUSH1 0x0 PUSH1 0x20 MSTORE PUSH1 0x20 PUSH1 0x40 PUSH1 0x0 KECCAK256 SLOAD PUSH1 0x40 MLOAD SWAP1 DUP2 MSTORE RETURN JUMPDEST POP CALLVALUE PUSH2 0x451 JUMPI PUSH1 0x0 PUSH32 0xFFFFFFFFFFFFFFFFFFFFFFFFFFFFFFFFFFFFFFFFFFFFFFFFFFFFFFFFFFFFFFFC CALLDATASIZE ADD SLT PUSH2 0x451 JUMPI PUSH1 0x20 PUSH1 0x40 MLOAD PUSH20 0xF9680D99D6C9589E2A93A78A04A279E509205945 DUP2 MSTORE RETURN JUMPDEST POP CALLVALUE PUSH2 0x451 JUMPI PUSH1 0xC0 PUSH32 0xFFFFFFFFFFFFFFFFFFFFFFFFFFFFFFFFFFFFFFFFFFFFFFFFFFFFFFFFFFFFFFFC CALLDATASIZE ADD SLT PUSH2 0x451 JUMPI PUSH2 0x19 PUSH1 0xA4 CALLDATALOAD PUSH1 0x84 CALLDATALOAD PUSH1 0x64 CALLDATALOAD PUSH1 0x44 CALLDATALOAD PUSH1 0x24 CALLDATALOAD PUSH1 0x4 CALLDATALOAD PUSH2 0x3E5F JUMP JUMPDEST POP CALLVALUE PUSH2 0x451 JUMPI PUSH1 0x20 PUSH32 0xFFFFFFFFFFFFFFFFFFFFFFFFFFFFFFFFFFFFFFFFFFFFFFFFFFFFFFFFFFFFFFFC CALLDATASIZE ADD SLT PUSH2 0x451 JUMPI PUSH2 0x19 PUSH1 0x4 CALLDATALOAD PUSH2 0x3EE7 JUMP JUMPDEST POP CALLVALUE PUSH2 0x451 JUMPI PUSH1 0x0 PUSH32 0xFFFFFFFFFFFFFFFFFFFFFFFFFFFFFFFFFFFFFFFFFFFFFFFFFFFFFFFFFFFFFFFC CALLDATASIZE ADD SLT PUSH2 0x451 JUMPI PUSH1 0x20 PUSH1 0x40 MLOAD PUSH20 0xAB594600376EC9FD91F8E885DADF0CE036862DE0 DUP2 MSTORE RETURN JUMPDEST POP PUSH32 0x4E487B7100000000000000000000000000000000000000000000000000000000 PUSH1 0x0 MSTORE PUSH1 0x41 PUSH1 0x4 MSTORE PUSH1 0x24 PUSH1 0x0 REVERT JUMPDEST SWAP1 PUSH1 0x1F PUSH32 0xFFFFFFFFFFFFFFFFFFFFFFFFFFFFFFFFFFFFFFFFFFFFFFFFFFFFFFFFFFFFFFE0 SWAP2 ADD AND DUP2 ADD SWAP1 DUP2 LT PUSH8 0xFFFFFFFFFFFFFFFF DUP3 GT OR PUSH2 0x1BAA JUMPI PUSH1 0x40 MSTORE JUMP JUMPDEST PUSH2 0x1BB2 PUSH2 0x1B39 JUMP JUMPDEST PUSH1 0x40 MSTORE JUMP JUMPDEST PUSH1 0x20 SWAP1 PUSH8 0xFFFFFFFFFFFFFFFF DUP2 GT PUSH2 0x1BD1 JUMPI JUMPDEST PUSH1 0x5 SHL ADD SWAP1 JUMP JUMPDEST PUSH2 0x1BD9 PUSH2 0x1B39 JUMP JUMPDEST PUSH2 0x1BCA JUMP JUMPDEST DUP2 PUSH1 0x1F DUP3 ADD SLT ISZERO PUSH2 0x451 JUMPI DUP1 CALLDATALOAD SWAP2 PUSH2 0x1BF5 DUP4 PUSH2 0x1BB7 JUMP JUMPDEST SWAP3 PUSH2 0x1C03 PUSH1 0x40 MLOAD SWAP5 DUP6 PUSH2 0x1B69 JUMP JUMPDEST DUP1 DUP5 MSTORE PUSH1 0x20 SWAP3 DUP4 DUP1 DUP7 ADD SWAP3 PUSH1 0x5 SHL DUP3 ADD ADD SWAP3 DUP4 GT PUSH2 0x451 JUMPI DUP4 ADD SWAP1 JUMPDEST DUP3 DUP3 LT PUSH2 0x1C2D JUMPI POP POP POP POP SWAP1 JUMP JUMPDEST DUP2 CALLDATALOAD PUSH20 0xFFFFFFFFFFFFFFFFFFFFFFFFFFFFFFFFFFFFFFFF DUP2 AND DUP2 SUB PUSH2 0x451 JUMPI DUP2 MSTORE SWAP1 DUP4 ADD SWAP1 DUP4 ADD PUSH2 0x1C1F JUMP JUMPDEST POP CALLVALUE PUSH2 0x451 JUMPI PUSH1 0xA0 PUSH32 0xFFFFFFFFFFFFFFFFFFFFFFFFFFFFFFFFFFFFFFFFFFFFFFFFFFFFFFFFFFFFFFFC CALLDATASIZE ADD SLT PUSH2 0x451 JUMPI PUSH1 0x44 CALLDATALOAD PUSH8 0xFFFFFFFFFFFFFFFF DUP2 GT PUSH2 0x451 JUMPI PUSH2 0x1CA9 SWAP1 CALLDATASIZE SWAP1 PUSH1 0x4 ADD PUSH2 0x1BDE JUMP JUMPDEST PUSH1 0x64 CALLDATALOAD SWAP1 PUSH20 0xFFFFFFFFFFFFFFFFFFFFFFFFFFFFFFFFFFFFFFFF DUP1 DUP4 AND DUP1 SWAP4 SUB PUSH2 0x451 JUMPI PUSH1 0x0 SWAP2 PUSH2 0x1D26 SWAP2 PUSH1 0x10 SLOAD AND SWAP1 DUP4 PUSH1 0x40 MLOAD DUP1 SWAP7 DUP2 SWAP6 DUP3 SWAP5 PUSH32 0x38ED173900000000000000000000000000000000000000000000000000000000 DUP5 MSTORE PUSH1 0x4 CALLDATALOAD PUSH1 0x4 DUP6 ADD MSTORE PUSH1 0x24 CALLDATALOAD PUSH1 0x24 DUP6 ADD MSTORE PUSH1 0xA0 PUSH1 0x44 DUP6 ADD MSTORE PUSH1 0xA4 DUP5 ADD SWAP1 PUSH2 0x33E6 JUMP JUMPDEST SWAP1 PUSH1 0x64 DUP4 ADD MSTORE PUSH1 0x84 CALLDATALOAD PUSH1 0x84 DUP4 ADD MSTORE SUB SWAP3 GAS CALL DUP1 ISZERO PUSH2 0x1D61 JUMPI JUMPDEST PUSH2 0x1D45 JUMPI STOP JUMPDEST PUSH2 0x19 SWAP1 RETURNDATASIZE DUP1 PUSH1 0x0 DUP4 RETURNDATACOPY PUSH2 0x1D59 DUP2 DUP4 PUSH2 0x1B69 JUMP JUMPDEST DUP2 ADD SWAP1 PUSH2 0x460B JUMP JUMPDEST PUSH2 0x1D69 PUSH2 0x2DA5 JUMP JUMPDEST PUSH2 0x1D3F JUMP JUMPDEST POP CALLVALUE PUSH2 0x451 JUMPI PUSH1 0x40 PUSH32 0xFFFFFFFFFFFFFFFFFFFFFFFFFFFFFFFFFFFFFFFFFFFFFFFFFFFFFFFFFFFFFFFC CALLDATASIZE ADD SLT PUSH2 0x451 JUMPI PUSH2 0x19 PUSH2 0x1DA9 PUSH2 0x636 JUMP JUMPDEST PUSH1 0x24 CALLDATALOAD SWAP1 PUSH2 0x3F18 JUMP JUMPDEST POP CALLVALUE PUSH2 0x451 JUMPI PUSH1 0x0 PUSH32 0xFFFFFFFFFFFFFFFFFFFFFFFFFFFFFFFFFFFFFFFFFFFFFFFFFFFFFFFFFFFFFFFC CALLDATASIZE ADD SLT PUSH2 0x451 JUMPI PUSH1 0x20 PUSH1 0xE SLOAD PUSH1 0x40 MLOAD SWAP1 DUP2 MSTORE RETURN JUMPDEST POP CALLVALUE PUSH2 0x451 JUMPI PUSH1 0x0 DUP1 PUSH32 0xFFFFFFFFFFFFFFFFFFFFFFFFFFFFFFFFFFFFFFFFFFFFFFFFFFFFFFFFFFFFFFFC CALLDATASIZE ADD SLT PUSH2 0x633 JUMPI PUSH1 0x40 MLOAD SWAP1 DUP1 PUSH1 0x4 SLOAD SWAP1 PUSH1 0x1 SWAP2 DUP1 DUP4 SHR SWAP3 DUP1 DUP3 AND SWAP3 DUP4 ISZERO PUSH2 0x1EC7 JUMPI JUMPDEST PUSH1 0x20 SWAP3 DUP4 DUP7 LT DUP6 EQ PUSH2 0x5FC JUMPI DUP6 DUP9 MSTORE PUSH1 0x20 DUP9 ADD SWAP5 SWAP1 DUP2 ISZERO PUSH2 0x5C2 JUMPI POP PUSH1 0x1 EQ PUSH2 0x1E6E JUMPI PUSH2 0x565 DUP8 PUSH2 0x559 DUP2 DUP10 SUB DUP3 PUSH2 0x1B69 JUMP JUMPDEST PUSH1 0x4 PUSH1 0x0 MSTORE SWAP5 POP SWAP2 SWAP3 SWAP2 PUSH32 0x8A35ACFBC15FF81A39AE7D344FD709F28E8600B4AA8C65C6B64BFE7FE36BD19B JUMPDEST DUP4 DUP7 LT PUSH2 0x1EB6 JUMPI POP POP POP SWAP2 ADD SWAP1 POP PUSH2 0x559 DUP3 PUSH2 0x565 CODESIZE DUP1 PUSH2 0x549 JUMP JUMPDEST DUP1 SLOAD DUP6 DUP8 ADD MSTORE SWAP5 DUP3 ADD SWAP5 DUP2 ADD PUSH2 0x1E9A JUMP JUMPDEST SWAP4 PUSH1 0x7F AND SWAP4 PUSH2 0x1E3B JUMP JUMPDEST POP CALLVALUE PUSH2 0x451 JUMPI PUSH1 0x20 PUSH32 0xFFFFFFFFFFFFFFFFFFFFFFFFFFFFFFFFFFFFFFFFFFFFFFFFFFFFFFFFFFFFFFFC CALLDATASIZE ADD SLT PUSH2 0x451 JUMPI PUSH1 0x4 CALLDATALOAD PUSH1 0x8 SLOAD DUP2 LT ISZERO PUSH2 0x451 JUMPI PUSH20 0xFFFFFFFFFFFFFFFFFFFFFFFFFFFFFFFFFFFFFFFF PUSH1 0x20 SWAP2 PUSH1 0x8 PUSH1 0x0 MSTORE PUSH32 0xF3F7A9FE364FAAB93B216DA50A3214154F22A0A2B415B23A84C8169E8B636EE3 ADD SLOAD AND PUSH1 0x40 MLOAD SWAP1 DUP2 MSTORE RETURN JUMPDEST POP CALLVALUE PUSH2 0x451 JUMPI PUSH1 0x40 PUSH32 0xFFFFFFFFFFFFFFFFFFFFFFFFFFFFFFFFFFFFFFFFFFFFFFFFFFFFFFFFFFFFFFFC CALLDATASIZE ADD SLT PUSH2 0x451 JUMPI PUSH2 0x1F8F PUSH2 0x636 JUMP JUMPDEST PUSH1 0x24 CALLDATALOAD SWAP1 CALLER PUSH1 0x0 MSTORE PUSH1 0x1 PUSH1 0x20 MSTORE PUSH2 0x1FCA DUP2 PUSH1 0x40 PUSH1 0x0 KECCAK256 SWAP1 PUSH20 0xFFFFFFFFFFFFFFFFFFFFFFFFFFFFFFFFFFFFFFFF AND PUSH1 0x0 MSTORE PUSH1 0x20 MSTORE PUSH1 0x40 PUSH1 0x0 KECCAK256 SWAP1 JUMP JUMPDEST SLOAD SWAP2 DUP1 DUP4 LT PUSH2 0x1FDF JUMPI PUSH2 0x9B7 SWAP3 SUB SWAP1 CALLER PUSH2 0x2BD4 JUMP JUMPDEST PUSH1 0x84 PUSH1 0x40 MLOAD PUSH32 0x8C379A000000000000000000000000000000000000000000000000000000000 DUP2 MSTORE PUSH1 0x20 PUSH1 0x4 DUP3 ADD MSTORE PUSH1 0x25 PUSH1 0x24 DUP3 ADD MSTORE PUSH32 0x45524332303A2064656372656173656420616C6C6F77616E63652062656C6F77 PUSH1 0x44 DUP3 ADD MSTORE PUSH32 0x207A65726F000000000000000000000000000000000000000000000000000000 PUSH1 0x64 DUP3 ADD MSTORE REVERT JUMPDEST POP CALLVALUE PUSH2 0x451 JUMPI PUSH1 0x20 PUSH32 0xFFFFFFFFFFFFFFFFFFFFFFFFFFFFFFFFFFFFFFFFFFFFFFFFFFFFFFFFFFFFFFFC CALLDATASIZE ADD SLT PUSH2 0x451 JUMPI PUSH1 0x4 CALLDATALOAD PUSH1 0xA SLOAD DUP2 LT ISZERO PUSH2 0x451 JUMPI PUSH20 0xFFFFFFFFFFFFFFFFFFFFFFFFFFFFFFFFFFFFFFFF PUSH1 0x20 SWAP2 PUSH1 0xA PUSH1 0x0 MSTORE PUSH32 0xC65A7BB8D6351C1CF70C95A316CC6A92839C986682D98BC35F958F4883F9D2A8 ADD SLOAD AND PUSH1 0x40 MLOAD SWAP1 DUP2 MSTORE RETURN JUMPDEST POP CALLVALUE PUSH2 0x451 JUMPI PUSH1 0x40 PUSH32 0xFFFFFFFFFFFFFFFFFFFFFFFFFFFFFFFFFFFFFFFFFFFFFFFFFFFFFFFFFFFFFFFC CALLDATASIZE ADD SLT PUSH2 0x451 JUMPI PUSH2 0x6C1 PUSH2 0x2124 PUSH2 0x636 JUMP JUMPDEST PUSH1 0x24 CALLDATALOAD SWAP1 CALLER PUSH2 0x2A4B JUMP JUMPDEST POP CALLVALUE PUSH2 0x451 JUMPI PUSH1 0x40 PUSH32 0xFFFFFFFFFFFFFFFFFFFFFFFFFFFFFFFFFFFFFFFFFFFFFFFFFFFFFFFFFFFFFFFC CALLDATASIZE ADD SLT PUSH2 0x451 JUMPI PUSH2 0x19 PUSH2 0x2169 PUSH2 0x636 JUMP JUMPDEST PUSH2 0x2171 PUSH2 0x659 JUMP JUMPDEST PUSH1 0x40 MLOAD SWAP2 PUSH32 0x70A0823100000000000000000000000000000000000000000000000000000000 DUP4 MSTORE ADDRESS PUSH1 0x4 DUP5 ADD MSTORE PUSH1 0x20 DUP4 PUSH1 0x24 DUP2 PUSH20 0xFFFFFFFFFFFFFFFFFFFFFFFFFFFFFFFFFFFFFFFF DUP6 AND GAS STATICCALL SWAP3 DUP4 ISZERO PUSH2 0x21F3 JUMPI JUMPDEST PUSH1 0x0 SWAP4 PUSH2 0x21D3 JUMPI JUMPDEST POP PUSH2 0x383C JUMP JUMPDEST PUSH2 0x21EC SWAP2 SWAP4 POP PUSH1 0x20 RETURNDATASIZE DUP2 GT PUSH2 0x15B7 JUMPI PUSH2 0x15A9 DUP2 DUP4 PUSH2 0x1B69 JUMP JUMPDEST SWAP2 CODESIZE PUSH2 0x21CD JUMP JUMPDEST PUSH2 0x21FB PUSH2 0x2DA5 JUMP JUMPDEST PUSH2 0x21C5 JUMP JUMPDEST POP CALLVALUE PUSH2 0x451 JUMPI PUSH1 0x60 PUSH32 0xFFFFFFFFFFFFFFFFFFFFFFFFFFFFFFFFFFFFFFFFFFFFFFFFFFFFFFFFFFFFFFFC CALLDATASIZE ADD SLT PUSH2 0x451 JUMPI PUSH2 0x2238 PUSH2 0x659 JUMP JUMPDEST PUSH20 0xFFFFFFFFFFFFFFFFFFFFFFFFFFFFFFFFFFFFFFFF SWAP1 PUSH1 0x44 CALLDATALOAD DUP3 DUP2 AND DUP2 SUB PUSH2 0x451 JUMPI PUSH1 0x40 MLOAD PUSH32 0xA9059CBB00000000000000000000000000000000000000000000000000000000 DUP2 MSTORE PUSH20 0xFFFFFFFFFFFFFFFFFFFFFFFFFFFFFFFFFFFFFFFF SWAP2 SWAP1 SWAP2 AND PUSH1 0x4 DUP1 DUP4 ADD SWAP2 SWAP1 SWAP2 MSTORE CALLDATALOAD PUSH1 0x24 DUP3 ADD MSTORE SWAP2 PUSH1 0x20 SWAP2 DUP4 SWAP2 PUSH1 0x44 SWAP2 DUP4 SWAP2 PUSH1 0x0 SWAP2 AND GAS CALL DUP1 ISZERO PUSH2 0x22ED JUMPI JUMPDEST PUSH2 0x22C6 JUMPI STOP JUMPDEST PUSH2 0x19 SWAP1 PUSH1 0x20 RETURNDATASIZE DUP2 GT PUSH2 0x22E6 JUMPI JUMPDEST PUSH2 0x22DE DUP2 DUP4 PUSH2 0x1B69 JUMP JUMPDEST DUP2 ADD SWAP1 PUSH2 0x354B JUMP JUMPDEST POP RETURNDATASIZE PUSH2 0x22D4 JUMP JUMPDEST PUSH2 0x22F5 PUSH2 0x2DA5 JUMP JUMPDEST PUSH2 0x22C0 JUMP JUMPDEST POP CALLVALUE PUSH2 0x451 JUMPI PUSH1 0x0 PUSH32 0xFFFFFFFFFFFFFFFFFFFFFFFFFFFFFFFFFFFFFFFFFFFFFFFFFFFFFFFFFFFFFFFC CALLDATASIZE ADD SLT PUSH2 0x451 JUMPI PUSH1 0x20 PUSH1 0x40 MLOAD PUSH20 0xC907E116054AD103354F2D350FD2514433D57F6F DUP2 MSTORE RETURN JUMPDEST POP CALLVALUE PUSH2 0x451 JUMPI PUSH1 0x0 PUSH32 0xFFFFFFFFFFFFFFFFFFFFFFFFFFFFFFFFFFFFFFFFFFFFFFFFFFFFFFFFFFFFFFFC CALLDATASIZE ADD SLT PUSH2 0x451 JUMPI PUSH1 0x20 PUSH1 0x40 MLOAD PUSH20 0x2791BCA1F2DE4661ED88A30C99A7A9449AA84174 DUP2 MSTORE RETURN JUMPDEST POP CALLVALUE PUSH2 0x451 JUMPI PUSH1 0x0 PUSH32 0xFFFFFFFFFFFFFFFFFFFFFFFFFFFFFFFFFFFFFFFFFFFFFFFFFFFFFFFFFFFFFFFC CALLDATASIZE ADD SLT PUSH2 0x451 JUMPI PUSH1 0x20 PUSH1 0x40 MLOAD PUSH20 0x1BFD67037B42CF73ACF2047067BD4F2C47D9BFD6 DUP2 MSTORE RETURN JUMPDEST POP CALLVALUE PUSH2 0x451 JUMPI PUSH1 0x20 PUSH32 0xFFFFFFFFFFFFFFFFFFFFFFFFFFFFFFFFFFFFFFFFFFFFFFFFFFFFFFFFFFFFFFFC CALLDATASIZE ADD SLT PUSH2 0x451 JUMPI PUSH1 0x40 MLOAD PUSH32 0x23B872DD00000000000000000000000000000000000000000000000000000000 DUP2 MSTORE CALLER PUSH1 0x4 DUP1 DUP4 ADD SWAP2 SWAP1 SWAP2 MSTORE ADDRESS PUSH1 0x24 DUP4 ADD MSTORE CALLDATALOAD PUSH1 0x44 DUP3 ADD DUP2 SWAP1 MSTORE SWAP1 PUSH1 0x20 DUP2 PUSH1 0x64 DUP2 PUSH1 0x0 PUSH20 0x2791BCA1F2DE4661ED88A30C99A7A9449AA84174 GAS CALL DUP1 ISZERO PUSH2 0x2514 JUMPI JUMPDEST PUSH2 0x24F6 JUMPI JUMPDEST POP PUSH2 0x2487 PUSH2 0x3995 JUMP JUMPDEST PUSH2 0x248F PUSH2 0x3A70 JUMP JUMPDEST PUSH2 0x2497 PUSH2 0x3ADF JUMP JUMPDEST PUSH2 0x249F PUSH2 0x3B4E JUMP JUMPDEST SWAP2 PUSH2 0x24B7 DUP4 PUSH2 0x24B2 DUP5 PUSH2 0x24B2 DUP6 DUP10 PUSH2 0x291D JUMP JUMPDEST PUSH2 0x291D JUMP JUMPDEST SWAP4 PUSH2 0x24C1 DUP7 PUSH2 0x37CA JUMP JUMPDEST DUP5 ISZERO PUSH2 0x24DE JUMPI SWAP3 PUSH2 0x19 SWAP6 SWAP3 DUP6 SWAP3 PUSH2 0x24D8 SWAP6 PUSH2 0x3E5F JUMP JUMPDEST CALLER PUSH2 0x3F18 JUMP JUMPDEST POP POP POP POP POP DUP1 PUSH2 0x24F0 PUSH2 0x19 SWAP3 PUSH2 0x3EE7 JUMP JUMPDEST CALLER PUSH2 0x38A4 JUMP JUMPDEST PUSH2 0x250D SWAP1 PUSH1 0x20 RETURNDATASIZE DUP2 GT PUSH2 0x22E6 JUMPI PUSH2 0x22DE DUP2 DUP4 PUSH2 0x1B69 JUMP JUMPDEST POP CODESIZE PUSH2 0x247E JUMP JUMPDEST PUSH2 0x251C PUSH2 0x2DA5 JUMP JUMPDEST PUSH2 0x2479 JUMP JUMPDEST POP CALLVALUE PUSH2 0x451 JUMPI PUSH1 0x20 PUSH32 0xFFFFFFFFFFFFFFFFFFFFFFFFFFFFFFFFFFFFFFFFFFFFFFFFFFFFFFFFFFFFFFFC CALLDATASIZE ADD SLT PUSH2 0x451 JUMPI PUSH1 0x4 CALLDATALOAD PUSH1 0xC SLOAD DUP2 LT ISZERO PUSH2 0x451 JUMPI PUSH20 0xFFFFFFFFFFFFFFFFFFFFFFFFFFFFFFFFFFFFFFFF PUSH1 0x20 SWAP2 PUSH1 0xC PUSH1 0x0 MSTORE PUSH32 0xDF6966C971051C3D54EC59162606531493A51404A002842F56009D7E5CF4A8C7 ADD SLOAD AND PUSH1 0x40 MLOAD SWAP1 DUP2 MSTORE RETURN JUMPDEST POP CALLVALUE PUSH2 0x451 JUMPI PUSH1 0x20 PUSH32 0xFFFFFFFFFFFFFFFFFFFFFFFFFFFFFFFFFFFFFFFFFFFFFFFFFFFFFFFFFFFFFFFC CALLDATASIZE ADD SLT PUSH2 0x451 JUMPI PUSH1 0x4 CALLDATALOAD PUSH1 0x7 SLOAD DUP2 LT ISZERO PUSH2 0x451 JUMPI PUSH20 0xFFFFFFFFFFFFFFFFFFFFFFFFFFFFFFFFFFFFFFFF PUSH1 0x20 SWAP2 PUSH1 0x7 PUSH1 0x0 MSTORE PUSH32 0xA66CC928B5EDB82AF9BD49922954155AB7B0942694BEA4CE44661D9A8736C688 ADD SLOAD AND PUSH1 0x40 MLOAD SWAP1 DUP2 MSTORE RETURN JUMPDEST POP CALLVALUE PUSH2 0x451 JUMPI PUSH1 0x0 PUSH32 0xFFFFFFFFFFFFFFFFFFFFFFFFFFFFFFFFFFFFFFFFFFFFFFFFFFFFFFFFFFFFFFFC CALLDATASIZE ADD SLT PUSH2 0x451 JUMPI PUSH1 0x20 PUSH1 0x40 MLOAD PUSH20 0x3D49406EDD4D52FB7FFD25485F32E073B529C924 DUP2 MSTORE RETURN JUMPDEST POP CALLVALUE PUSH2 0x451 JUMPI PUSH1 0x40 PUSH32 0xFFFFFFFFFFFFFFFFFFFFFFFFFFFFFFFFFFFFFFFFFFFFFFFFFFFFFFFFFFFFFFFC CALLDATASIZE ADD SLT PUSH2 0x451 JUMPI PUSH2 0x19 PUSH2 0x26B6 PUSH2 0x636 JUMP JUMPDEST PUSH20 0xFFFFFFFFFFFFFFFFFFFFFFFFFFFFFFFFFFFFFFFF PUSH2 0x26D3 PUSH2 0x31EA JUMP JUMPDEST SWAP2 DUP3 MLOAD ISZERO PUSH2 0x271E JUMPI JUMPDEST AND PUSH1 0x20 DUP3 ADD MSTORE DUP1 MLOAD PUSH1 0x1 LT ISZERO PUSH2 0x2711 JUMPI JUMPDEST PUSH20 0x2791BCA1F2DE4661ED88A30C99A7A9449AA84174 PUSH1 0x40 DUP3 ADD MSTORE ADDRESS SWAP1 PUSH1 0x24 CALLDATALOAD PUSH2 0x4685 JUMP JUMPDEST PUSH2 0x2719 PUSH2 0x810 JUMP JUMPDEST PUSH2 0x26ED JUMP JUMPDEST PUSH2 0x2726 PUSH2 0x810 JUMP JUMPDEST PUSH2 0x26DC JUMP JUMPDEST POP CALLVALUE PUSH2 0x451 JUMPI PUSH1 0x0 PUSH32 0xFFFFFFFFFFFFFFFFFFFFFFFFFFFFFFFFFFFFFFFFFFFFFFFFFFFFFFFFFFFFFFFC CALLDATASIZE ADD SLT PUSH2 0x451 JUMPI PUSH1 0x20 PUSH1 0x40 MLOAD PUSH20 0xA5E0829CACED8FFDD4DE3C43696C57F7D7A678FF DUP2 MSTORE RETURN JUMPDEST POP CALLVALUE PUSH2 0x451 JUMPI PUSH1 0x0 PUSH32 0xFFFFFFFFFFFFFFFFFFFFFFFFFFFFFFFFFFFFFFFFFFFFFFFFFFFFFFFFFFFFFFFC CALLDATASIZE ADD SLT PUSH2 0x451 JUMPI PUSH1 0x20 PUSH1 0xF SLOAD PUSH1 0x40 MLOAD SWAP1 DUP2 MSTORE RETURN JUMPDEST POP CALLVALUE PUSH2 0x451 JUMPI PUSH1 0x40 PUSH32 0xFFFFFFFFFFFFFFFFFFFFFFFFFFFFFFFFFFFFFFFFFFFFFFFFFFFFFFFFFFFFFFFC CALLDATASIZE ADD SLT PUSH2 0x451 JUMPI PUSH1 0x20 PUSH2 0x2843 PUSH2 0x27F3 PUSH2 0x636 JUMP JUMPDEST PUSH20 0xFFFFFFFFFFFFFFFFFFFFFFFFFFFFFFFFFFFFFFFF PUSH2 0x2810 PUSH2 0x659 JUMP JUMPDEST SWAP2 AND PUSH1 0x0 MSTORE PUSH1 0x1 DUP4 MSTORE PUSH1 0x40 PUSH1 0x0 KECCAK256 SWAP1 PUSH20 0xFFFFFFFFFFFFFFFFFFFFFFFFFFFFFFFFFFFFFFFF AND PUSH1 0x0 MSTORE PUSH1 0x20 MSTORE PUSH1 0x40 PUSH1 0x0 KECCAK256 SWAP1 JUMP JUMPDEST SLOAD PUSH1 0x40 MLOAD SWAP1 DUP2 MSTORE RETURN JUMPDEST POP CALLVALUE PUSH2 0x451 JUMPI PUSH1 0x0 PUSH32 0xFFFFFFFFFFFFFFFFFFFFFFFFFFFFFFFFFFFFFFFFFFFFFFFFFFFFFFFFFFFFFFFC CALLDATASIZE ADD SLT PUSH2 0x451 JUMPI PUSH1 0x20 PUSH20 0xFFFFFFFFFFFFFFFFFFFFFFFFFFFFFFFFFFFFFFFF PUSH1 0x10 SLOAD AND PUSH1 0x40 MLOAD SWAP1 DUP2 MSTORE RETURN JUMPDEST POP CALLVALUE PUSH2 0x451 JUMPI PUSH1 0x0 PUSH32 0xFFFFFFFFFFFFFFFFFFFFFFFFFFFFFFFFFFFFFFFFFFFFFFFFFFFFFFFFFFFFFFFC CALLDATASIZE ADD SLT PUSH2 0x451 JUMPI PUSH1 0x20 PUSH1 0x40 MLOAD PUSH20 0xD500B1D8E8EF31E21C99D1DB9A6444D3ADF1270 DUP2 MSTORE RETURN JUMPDEST POP PUSH32 0x4E487B7100000000000000000000000000000000000000000000000000000000 PUSH1 0x0 MSTORE PUSH1 0x11 PUSH1 0x4 MSTORE PUSH1 0x24 PUSH1 0x0 REVERT JUMPDEST DUP2 NOT DUP2 GT PUSH2 0x2929 JUMPI ADD SWAP1 JUMP JUMPDEST PUSH2 0x2931 PUSH2 0x28ED JUMP JUMPDEST ADD SWAP1 JUMP JUMPDEST ISZERO PUSH2 0x293C JUMPI JUMP JUMPDEST PUSH1 0x84 PUSH1 0x40 MLOAD PUSH32 0x8C379A000000000000000000000000000000000000000000000000000000000 DUP2 MSTORE PUSH1 0x20 PUSH1 0x4 DUP3 ADD MSTORE PUSH1 0x23 PUSH1 0x24 DUP3 ADD MSTORE PUSH32 0x45524332303A207472616E7366657220746F20746865207A65726F2061646472 PUSH1 0x44 DUP3 ADD MSTORE PUSH32 0x6573730000000000000000000000000000000000000000000000000000000000 PUSH1 0x64 DUP3 ADD MSTORE REVERT JUMPDEST ISZERO PUSH2 0x29C7 JUMPI JUMP JUMPDEST PUSH1 0x84 PUSH1 0x40 MLOAD PUSH32 0x8C379A000000000000000000000000000000000000000000000000000000000 DUP2 MSTORE PUSH1 0x20 PUSH1 0x4 DUP3 ADD MSTORE PUSH1 0x26 PUSH1 0x24 DUP3 ADD MSTORE PUSH32 0x45524332303A207472616E7366657220616D6F756E7420657863656564732062 PUSH1 0x44 DUP3 ADD MSTORE PUSH32 0x616C616E63650000000000000000000000000000000000000000000000000000 PUSH1 0x64 DUP3 ADD MSTORE REVERT JUMPDEST SWAP2 SWAP1 PUSH20 0xFFFFFFFFFFFFFFFFFFFFFFFFFFFFFFFFFFFFFFFF SWAP1 DUP2 DUP5 AND SWAP3 DUP4 ISZERO PUSH2 0x2B50 JUMPI PUSH2 0x2B2E DUP3 PUSH32 0xDDF252AD1BE2C89B69C2B068FC378DAA952BA7F163C4A11628F55A4DF523B3EF SWAP5 PUSH2 0x2B4B SWAP5 AND SWAP7 PUSH2 0x2AA4 DUP9 ISZERO ISZERO PUSH2 0x2935 JUMP JUMPDEST PUSH2 0x2B07 DUP5 PUSH2 0x2AD2 DUP4 PUSH20 0xFFFFFFFFFFFFFFFFFFFFFFFFFFFFFFFFFFFFFFFF AND PUSH1 0x0 MSTORE PUSH1 0x0 PUSH1 0x20 MSTORE PUSH1 0x40 PUSH1 0x0 KECCAK256 SWAP1 JUMP JUMPDEST SLOAD PUSH2 0x2ADF DUP3 DUP3 LT ISZERO PUSH2 0x29C0 JUMP JUMPDEST SUB SWAP2 PUSH20 0xFFFFFFFFFFFFFFFFFFFFFFFFFFFFFFFFFFFFFFFF AND PUSH1 0x0 MSTORE PUSH1 0x0 PUSH1 0x20 MSTORE PUSH1 0x40 PUSH1 0x0 KECCAK256 SWAP1 JUMP JUMPDEST SSTORE PUSH20 0xFFFFFFFFFFFFFFFFFFFFFFFFFFFFFFFFFFFFFFFF AND PUSH1 0x0 MSTORE PUSH1 0x0 PUSH1 0x20 MSTORE PUSH1 0x40 PUSH1 0x0 KECCAK256 SWAP1 JUMP JUMPDEST PUSH2 0x2B39 DUP3 DUP3 SLOAD PUSH2 0x291D JUMP JUMPDEST SWAP1 SSTORE PUSH1 0x40 MLOAD SWAP1 DUP2 MSTORE SWAP1 DUP2 SWAP1 PUSH1 0x20 DUP3 ADD SWAP1 JUMP JUMPDEST SUB SWAP1 LOG3 JUMP JUMPDEST PUSH1 0x84 PUSH1 0x40 MLOAD PUSH32 0x8C379A000000000000000000000000000000000000000000000000000000000 DUP2 MSTORE PUSH1 0x20 PUSH1 0x4 DUP3 ADD MSTORE PUSH1 0x25 PUSH1 0x24 DUP3 ADD MSTORE PUSH32 0x45524332303A207472616E736665722066726F6D20746865207A65726F206164 PUSH1 0x44 DUP3 ADD MSTORE PUSH32 0x6472657373000000000000000000000000000000000000000000000000000000 PUSH1 0x64 DUP3 ADD MSTORE REVERT JUMPDEST SWAP1 PUSH20 0xFFFFFFFFFFFFFFFFFFFFFFFFFFFFFFFFFFFFFFFF SWAP2 DUP3 DUP2 AND SWAP3 DUP4 ISZERO PUSH2 0x2D0B JUMPI DUP3 AND SWAP4 DUP5 ISZERO PUSH2 0x2C87 JUMPI DUP1 PUSH2 0x2C76 PUSH32 0x8C5BE1E5EBEC7D5BD14F71427D1E84F3DD0314C0F7B2291E5B200AC8C7C3B925 SWAP5 PUSH2 0x2C51 PUSH2 0x2B4B SWAP6 PUSH20 0xFFFFFFFFFFFFFFFFFFFFFFFFFFFFFFFFFFFFFFFF AND PUSH1 0x0 MSTORE PUSH1 0x1 PUSH1 0x20 MSTORE PUSH1 0x40 PUSH1 0x0 KECCAK256 SWAP1 JUMP JUMPDEST SWAP1 PUSH20 0xFFFFFFFFFFFFFFFFFFFFFFFFFFFFFFFFFFFFFFFF AND PUSH1 0x0 MSTORE PUSH1 0x20 MSTORE PUSH1 0x40 PUSH1 0x0 KECCAK256 SWAP1 JUMP JUMPDEST SSTORE PUSH1 0x40 MLOAD SWAP1 DUP2 MSTORE SWAP1 DUP2 SWAP1 PUSH1 0x20 DUP3 ADD SWAP1 JUMP JUMPDEST PUSH1 0x84 PUSH1 0x40 MLOAD PUSH32 0x8C379A000000000000000000000000000000000000000000000000000000000 DUP2 MSTORE PUSH1 0x20 PUSH1 0x4 DUP3 ADD MSTORE PUSH1 0x22 PUSH1 0x24 DUP3 ADD MSTORE PUSH32 0x45524332303A20617070726F766520746F20746865207A65726F206164647265 PUSH1 0x44 DUP3 ADD MSTORE PUSH32 0x7373000000000000000000000000000000000000000000000000000000000000 PUSH1 0x64 DUP3 ADD MSTORE REVERT JUMPDEST PUSH1 0x84 PUSH1 0x40 MLOAD PUSH32 0x8C379A000000000000000000000000000000000000000000000000000000000 DUP2 MSTORE PUSH1 0x20 PUSH1 0x4 DUP3 ADD MSTORE PUSH1 0x24 DUP1 DUP3 ADD MSTORE PUSH32 0x45524332303A20617070726F76652066726F6D20746865207A65726F20616464 PUSH1 0x44 DUP3 ADD MSTORE PUSH32 0x7265737300000000000000000000000000000000000000000000000000000000 PUSH1 0x64 DUP3 ADD MSTORE REVERT JUMPDEST MLOAD SWAP1 PUSH10 0xFFFFFFFFFFFFFFFFFFFF DUP3 AND DUP3 SUB PUSH2 0x451 JUMPI JUMP JUMPDEST POP PUSH1 0x40 MLOAD RETURNDATASIZE PUSH1 0x0 DUP3 RETURNDATACOPY RETURNDATASIZE SWAP1 REVERT JUMPDEST PUSH1 0xA0 PUSH20 0xFFFFFFFFFFFFFFFFFFFFFFFFFFFFFFFFFFFFFFFF SWAP2 PUSH1 0x4 PUSH1 0x40 MLOAD DUP1 SWAP5 DUP2 SWAP4 PUSH32 0xFEAF968C00000000000000000000000000000000000000000000000000000000 DUP4 MSTORE AND GAS STATICCALL SWAP1 DUP2 ISZERO PUSH2 0x2E55 JUMPI JUMPDEST PUSH1 0x0 SWAP2 PUSH2 0x2E0C JUMPI POP SWAP1 JUMP JUMPDEST SWAP1 PUSH1 0xA0 DUP3 RETURNDATASIZE DUP3 GT PUSH2 0x2E4D JUMPI JUMPDEST DUP2 PUSH2 0x2E25 PUSH1 0xA0 SWAP4 DUP4 PUSH2 0x1B69 JUMP JUMPDEST DUP2 ADD SUB SLT PUSH2 0x633 JUMPI POP PUSH2 0x2E37 DUP2 PUSH2 0x2D8E JUMP JUMPDEST POP PUSH2 0x2E49 PUSH1 0x80 PUSH1 0x20 DUP4 ADD MLOAD SWAP3 ADD PUSH2 0x2D8E JUMP JUMPDEST POP SWAP1 JUMP JUMPDEST RETURNDATASIZE SWAP2 POP PUSH2 0x2E18 JUMP JUMPDEST PUSH2 0x2E5D PUSH2 0x2DA5 JUMP JUMPDEST PUSH2 0x2E01 JUMP JUMPDEST PUSH1 0x40 MLOAD SWAP1 PUSH2 0x100 DUP3 ADD DUP3 DUP2 LT PUSH8 0xFFFFFFFFFFFFFFFF DUP3 GT OR PUSH2 0x2EB4 JUMPI JUMPDEST PUSH1 0x40 MSTORE DUP2 PUSH1 0x60 DUP2 MSTORE PUSH1 0xE0 PUSH1 0x0 SWAP2 DUP3 PUSH1 0x20 DUP3 ADD MSTORE DUP3 PUSH1 0x40 DUP3 ADD MSTORE DUP3 PUSH1 0x60 DUP3 ADD MSTORE DUP3 PUSH1 0x80 DUP3 ADD MSTORE DUP3 PUSH1 0xA0 DUP3 ADD MSTORE DUP3 PUSH1 0xC0 DUP3 ADD MSTORE ADD MSTORE JUMP JUMPDEST PUSH2 0x2EBC PUSH2 0x1B39 JUMP JUMPDEST PUSH2 0x2E7F JUMP JUMPDEST PUSH1 0x40 MLOAD SWAP1 PUSH1 0xA0 DUP3 ADD DUP3 DUP2 LT PUSH8 0xFFFFFFFFFFFFFFFF DUP3 GT OR PUSH2 0x2F0B JUMPI JUMPDEST PUSH1 0x40 MSTORE PUSH1 0x4 DUP3 MSTORE DUP2 PUSH1 0x0 JUMPDEST PUSH1 0x80 DUP2 LT PUSH2 0x2EF4 JUMPI POP POP JUMP JUMPDEST PUSH1 0x20 SWAP1 PUSH2 0x2EFF PUSH2 0x2E62 JUMP JUMPDEST DUP3 DUP3 DUP6 ADD ADD MSTORE ADD PUSH2 0x2EE8 JUMP JUMPDEST PUSH2 0x2F13 PUSH2 0x1B39 JUMP JUMPDEST PUSH2 0x2EDD JUMP JUMPDEST PUSH1 0x20 SWAP1 DUP1 MLOAD ISZERO PUSH2 0x2F26 JUMPI ADD SWAP1 JUMP JUMPDEST PUSH2 0x2931 PUSH2 0x810 JUMP JUMPDEST PUSH1 0x40 SWAP1 DUP1 MLOAD PUSH1 0x1 LT ISZERO PUSH2 0x2F26 JUMPI ADD SWAP1 JUMP JUMPDEST PUSH1 0x60 SWAP1 DUP1 MLOAD PUSH1 0x2 LT ISZERO PUSH2 0x2F26 JUMPI ADD SWAP1 JUMP JUMPDEST PUSH1 0x80 SWAP1 DUP1 MLOAD PUSH1 0x3 LT ISZERO PUSH2 0x2F26 JUMPI ADD SWAP1 JUMP JUMPDEST PUSH1 0x20 SWAP2 DUP2 MLOAD DUP2 LT ISZERO PUSH2 0x2F76 JUMPI JUMPDEST PUSH1 0x5 SHL ADD ADD SWAP1 JUMP JUMPDEST PUSH2 0x2F7E PUSH2 0x810 JUMP JUMPDEST PUSH2 0x2F6E JUMP JUMPDEST PUSH1 0xFF PUSH1 0x1 SWAP2 AND PUSH1 0xFF DUP2 EQ PUSH2 0x2929 JUMPI ADD SWAP1 JUMP JUMPDEST SWAP1 DUP2 PUSH1 0x20 SWAP2 SUB SLT PUSH2 0x451 JUMPI MLOAD SWAP1 JUMP JUMPDEST SWAP1 DUP2 PUSH1 0x20 SWAP2 SUB SLT PUSH2 0x451 JUMPI MLOAD PUSH1 0xFF DUP2 AND DUP2 SUB PUSH2 0x451 JUMPI SWAP1 JUMP JUMPDEST DUP1 PUSH1 0x12 LT PUSH2 0x2FCC JUMPI JUMPDEST PUSH1 0x12 SUB SWAP1 JUMP JUMPDEST PUSH2 0x2FD4 PUSH2 0x28ED JUMP JUMPDEST PUSH2 0x2FC6 JUMP JUMPDEST PUSH32 0xFFFFFFFFFFFFFFFFFFFFFFFFFFFFFFFFFFFFFFFFFFFFFFFFFFFFFFFFFFFFFFFF SWAP1 PUSH1 0x1 DUP2 LT PUSH2 0x2929 JUMPI ADD SWAP1 JUMP JUMPDEST DUP2 DUP2 LT PUSH2 0x3012 JUMPI SUB SWAP1 JUMP JUMPDEST PUSH2 0x301A PUSH2 0x28ED JUMP JUMPDEST SUB SWAP1 JUMP JUMPDEST PUSH1 0x64 SWAP1 DUP1 PUSH32 0xFFFFFFFFFFFFFFFFFFFFFFFFFFFFFFFFFFFFFFFFFFFFFFFFFFFFFFFFFFFFFFFF DIV DUP3 GT DUP2 ISZERO ISZERO AND PUSH2 0x3052 JUMPI MUL SWAP1 JUMP JUMPDEST PUSH2 0x305A PUSH2 0x28ED JUMP JUMPDEST MUL SWAP1 JUMP JUMPDEST PUSH32 0x7FFFFFFFFFFFFFFFFFFFFFFFFFFFFFFFFFFFFFFFFFFFFFFFFFFFFFFFFFFFFFFF DUP2 GT PUSH1 0x1 AND PUSH2 0x308F JUMPI JUMPDEST PUSH1 0x1 SHL SWAP1 JUMP JUMPDEST PUSH2 0x3097 PUSH2 0x28ED JUMP JUMPDEST PUSH2 0x3089 JUMP JUMPDEST DUP1 PUSH32 0xFFFFFFFFFFFFFFFFFFFFFFFFFFFFFFFFFFFFFFFFFFFFFFFFFFFFFFFFFFFFFFFF DIV DUP3 GT DUP2 ISZERO ISZERO AND PUSH2 0x3052 JUMPI MUL SWAP1 JUMP JUMPDEST PUSH1 0x4D DUP2 GT PUSH2 0x30DC JUMPI JUMPDEST PUSH1 0xA EXP SWAP1 JUMP JUMPDEST PUSH2 0x30E4 PUSH2 0x28ED JUMP JUMPDEST PUSH2 0x30D6 JUMP JUMPDEST POP PUSH32 0x4E487B7100000000000000000000000000000000000000000000000000000000 PUSH1 0x0 MSTORE PUSH1 0x12 PUSH1 0x4 MSTORE PUSH1 0x24 PUSH1 0x0 REVERT JUMPDEST DUP2 ISZERO PUSH2 0x3123 JUMPI DIV SWAP1 JUMP JUMPDEST PUSH2 0x312B PUSH2 0x30E9 JUMP JUMPDEST DIV SWAP1 JUMP JUMPDEST PUSH1 0x0 DUP3 SLT DUP3 PUSH32 0x8000000000000000000000000000000000000000000000000000000000000000 ADD DUP3 SLT DUP2 ISZERO AND PUSH2 0x318E JUMPI JUMPDEST DUP3 PUSH32 0x7FFFFFFFFFFFFFFFFFFFFFFFFFFFFFFFFFFFFFFFFFFFFFFFFFFFFFFFFFFFFFFF ADD DUP3 SGT AND PUSH2 0x3012 JUMPI SUB SWAP1 JUMP JUMPDEST PUSH2 0x3196 PUSH2 0x28ED JUMP JUMPDEST PUSH2 0x3160 JUMP JUMPDEST SWAP1 PUSH2 0x31A5 DUP3 PUSH2 0x1BB7 JUMP JUMPDEST PUSH2 0x31B2 PUSH1 0x40 MLOAD SWAP2 DUP3 PUSH2 0x1B69 JUMP JUMPDEST DUP3 DUP2 MSTORE PUSH32 0xFFFFFFFFFFFFFFFFFFFFFFFFFFFFFFFFFFFFFFFFFFFFFFFFFFFFFFFFFFFFFFE0 PUSH2 0x31E0 DUP3 SWAP5 PUSH2 0x1BB7 JUMP JUMPDEST ADD SWAP1 PUSH1 0x20 CALLDATASIZE SWAP2 ADD CALLDATACOPY JUMP JUMPDEST PUSH1 0x40 MLOAD SWAP1 PUSH1 0x60 DUP3 ADD DUP3 DUP2 LT PUSH8 0xFFFFFFFFFFFFFFFF DUP3 GT OR PUSH2 0x3218 JUMPI JUMPDEST PUSH1 0x40 MSTORE PUSH1 0x2 DUP3 MSTORE PUSH1 0x40 DUP3 PUSH1 0x20 CALLDATASIZE SWAP2 ADD CALLDATACOPY JUMP JUMPDEST PUSH2 0x3220 PUSH2 0x1B39 JUMP JUMPDEST PUSH2 0x3206 JUMP JUMPDEST PUSH1 0x40 MLOAD SWAP1 PUSH1 0x80 DUP3 ADD DUP3 DUP2 LT PUSH8 0xFFFFFFFFFFFFFFFF DUP3 GT OR PUSH2 0x3252 JUMPI JUMPDEST PUSH1 0x40 MSTORE PUSH1 0x3 DUP3 MSTORE PUSH1 0x60 CALLDATASIZE PUSH1 0x20 DUP5 ADD CALLDATACOPY JUMP JUMPDEST PUSH2 0x325A PUSH2 0x1B39 JUMP JUMPDEST PUSH2 0x3241 JUMP JUMPDEST PUSH1 0x0 DUP2 SLT DUP2 PUSH32 0x7FFFFFFFFFFFFFFFFFFFFFFFFFFFFFFFFFFFFFFFFFFFFFFFFFFFFFFFFFFFFFFF SUB DUP4 SGT DUP2 ISZERO AND PUSH2 0x32BE JUMPI JUMPDEST DUP2 PUSH32 0x8000000000000000000000000000000000000000000000000000000000000000 SUB DUP4 SLT AND PUSH2 0x2929 JUMPI ADD SWAP1 JUMP JUMPDEST PUSH2 0x32C6 PUSH2 0x28ED JUMP JUMPDEST PUSH2 0x3290 JUMP JUMPDEST PUSH4 0x5F5E100 SWAP1 PUSH1 0x1 PUSH29 0x15798EE2308C39DF9FB841A566D74F87A7A9A7AEB02C2D2F8E0D1E768D DUP3 GT PUSH1 0x0 DUP4 SGT AND AND PUSH2 0x3331 JUMPI JUMPDEST PUSH1 0x1 PUSH32 0xFFFFFFEA86711DCF73C6206047BE5A9928B078585658514FD3D2D071F2E18973 DUP3 SLT PUSH1 0x0 DUP4 SLT AND AND PUSH2 0x3052 JUMPI MUL SWAP1 JUMP JUMPDEST PUSH2 0x3339 PUSH2 0x28ED JUMP JUMPDEST PUSH2 0x32FE JUMP JUMPDEST DUP2 ISZERO PUSH2 0x33A0 JUMPI JUMPDEST PUSH32 0xFFFFFFFFFFFFFFFFFFFFFFFFFFFFFFFFFFFFFFFFFFFFFFFFFFFFFFFFFFFFFFFF DUP3 EQ PUSH32 0x8000000000000000000000000000000000000000000000000000000000000000 DUP3 EQ AND PUSH2 0x3394 JUMPI SDIV SWAP1 JUMP JUMPDEST PUSH2 0x339C PUSH2 0x28ED JUMP JUMPDEST SDIV SWAP1 JUMP JUMPDEST PUSH2 0x33A8 PUSH2 0x30E9 JUMP JUMPDEST PUSH2 0x3345 JUMP JUMPDEST PUSH2 0x1FE SWAP1 PUSH1 0x7F PUSH1 0xFF DUP3 AND GT PUSH1 0x1 AND PUSH2 0x33C7 JUMPI JUMPDEST PUSH1 0x1 SHL AND SWAP1 JUMP JUMPDEST PUSH2 0x33CF PUSH2 0x28ED JUMP JUMPDEST PUSH2 0x33C0 JUMP JUMPDEST PUSH1 0xFF PUSH1 0x1 SWAP2 AND PUSH1 0xFE DUP2 GT PUSH2 0x2929 JUMPI ADD SWAP1 JUMP JUMPDEST SWAP1 DUP2 MLOAD DUP1 DUP3 MSTORE PUSH1 0x20 DUP1 DUP1 SWAP4 ADD SWAP4 ADD SWAP2 PUSH1 0x0 JUMPDEST DUP3 DUP2 LT PUSH2 0x3406 JUMPI POP POP POP POP SWAP1 JUMP JUMPDEST DUP4 MLOAD PUSH20 0xFFFFFFFFFFFFFFFFFFFFFFFFFFFFFFFFFFFFFFFF AND DUP6 MSTORE SWAP4 DUP2 ADD SWAP4 SWAP3 DUP2 ADD SWAP3 PUSH1 0x1 ADD PUSH2 0x33F8 JUMP JUMPDEST SWAP1 PUSH2 0x3443 SWAP1 PUSH1 0x40 DUP4 MSTORE PUSH1 0x40 DUP4 ADD SWAP1 PUSH2 0x33E6 JUMP JUMPDEST DUP2 DUP2 SUB PUSH1 0x20 SWAP3 DUP4 ADD MSTORE DUP3 MLOAD DUP1 DUP3 MSTORE SWAP1 DUP3 ADD SWAP3 DUP3 ADD SWAP2 PUSH1 0x0 JUMPDEST DUP3 DUP2 LT PUSH2 0x3469 JUMPI POP POP POP POP SWAP1 JUMP JUMPDEST DUP4 MLOAD DUP6 MSTORE SWAP4 DUP2 ADD SWAP4 SWAP3 DUP2 ADD SWAP3 PUSH1 0x1 ADD PUSH2 0x345B JUMP JUMPDEST SWAP2 SWAP1 PUSH1 0x40 DUP4 DUP3 SUB SLT PUSH2 0x451 JUMPI PUSH8 0xFFFFFFFFFFFFFFFF SWAP3 DUP1 CALLDATALOAD DUP5 DUP2 GT PUSH2 0x451 JUMPI DUP3 PUSH2 0x34A8 SWAP2 DUP4 ADD PUSH2 0x1BDE JUMP JUMPDEST SWAP4 PUSH1 0x20 SWAP2 DUP3 DUP2 ADD CALLDATALOAD SWAP2 DUP3 GT PUSH2 0x451 JUMPI ADD SWAP2 DUP1 PUSH1 0x1F DUP5 ADD SLT ISZERO PUSH2 0x451 JUMPI DUP3 CALLDATALOAD PUSH2 0x34CF DUP2 PUSH2 0x1BB7 JUMP JUMPDEST SWAP4 PUSH2 0x34DD PUSH1 0x40 MLOAD SWAP6 DUP7 PUSH2 0x1B69 JUMP JUMPDEST DUP2 DUP6 MSTORE DUP4 DUP1 DUP7 ADD SWAP3 PUSH1 0x5 SHL DUP3 ADD ADD SWAP3 DUP4 GT PUSH2 0x451 JUMPI DUP4 ADD SWAP1 JUMPDEST DUP3 DUP3 LT PUSH2 0x3504 JUMPI POP POP POP POP SWAP1 JUMP JUMPDEST DUP2 CALLDATALOAD DUP2 MSTORE SWAP1 DUP4 ADD SWAP1 DUP4 ADD PUSH2 0x34F6 JUMP JUMPDEST PUSH1 0x0 DUP1 DUP3 SLT PUSH2 0x3520 JUMPI POP SWAP1 JUMP JUMPDEST PUSH32 0x8000000000000000000000000000000000000000000000000000000000000000 DUP3 EQ PUSH2 0x3012 JUMPI SUB SWAP1 JUMP JUMPDEST SWAP1 DUP2 PUSH1 0x20 SWAP2 SUB SLT PUSH2 0x451 JUMPI MLOAD DUP1 ISZERO ISZERO DUP2 SUB PUSH2 0x451 JUMPI SWAP1 JUMP JUMPDEST PUSH1 0x40 MLOAD SWAP1 PUSH32 0x95EA7B300000000000000000000000000000000000000000000000000000000 DUP3 MSTORE PUSH20 0xA5E0829CACED8FFDD4DE3C43696C57F7D7A678FF PUSH1 0x4 DUP4 ADD MSTORE PUSH1 0x24 DUP3 ADD MSTORE PUSH1 0x20 DUP2 PUSH1 0x44 DUP2 PUSH1 0x0 PUSH20 0xD500B1D8E8EF31E21C99D1DB9A6444D3ADF1270 GAS CALL DUP1 ISZERO PUSH2 0x35F0 JUMPI JUMPDEST PUSH2 0x35D6 JUMPI POP JUMP JUMPDEST PUSH2 0x35ED SWAP1 PUSH1 0x20 RETURNDATASIZE DUP2 GT PUSH2 0x22E6 JUMPI PUSH2 0x22DE DUP2 DUP4 PUSH2 0x1B69 JUMP JUMPDEST POP JUMP JUMPDEST PUSH2 0x35F8 PUSH2 0x2DA5 JUMP JUMPDEST PUSH2 0x35CF JUMP JUMPDEST PUSH1 0x40 MLOAD SWAP1 PUSH32 0x95EA7B300000000000000000000000000000000000000000000000000000000 DUP3 MSTORE PUSH20 0xA5E0829CACED8FFDD4DE3C43696C57F7D7A678FF PUSH1 0x4 DUP4 ADD MSTORE PUSH1 0x24 DUP3 ADD MSTORE PUSH1 0x20 DUP2 PUSH1 0x44 DUP2 PUSH1 0x0 PUSH20 0xBBBA073C31BF03B8ACF7C28EF0738DECF3695683 GAS CALL DUP1 ISZERO PUSH2 0x35F0 JUMPI PUSH2 0x35D6 JUMPI POP JUMP JUMPDEST PUSH1 0x40 MLOAD SWAP1 PUSH32 0x95EA7B300000000000000000000000000000000000000000000000000000000 DUP3 MSTORE PUSH20 0xA5E0829CACED8FFDD4DE3C43696C57F7D7A678FF PUSH1 0x4 DUP4 ADD MSTORE PUSH1 0x24 DUP3 ADD MSTORE PUSH1 0x20 DUP2 PUSH1 0x44 DUP2 PUSH1 0x0 PUSH20 0x7CEB23FD6BC0ADD59E62AC25578270CFF1B9F619 GAS CALL DUP1 ISZERO PUSH2 0x35F0 JUMPI PUSH2 0x35D6 JUMPI POP JUMP JUMPDEST PUSH1 0x40 MLOAD SWAP1 PUSH32 0x95EA7B300000000000000000000000000000000000000000000000000000000 DUP3 MSTORE PUSH20 0xA5E0829CACED8FFDD4DE3C43696C57F7D7A678FF PUSH1 0x4 DUP4 ADD MSTORE PUSH1 0x24 DUP3 ADD MSTORE PUSH1 0x20 DUP2 PUSH1 0x44 DUP2 PUSH1 0x0 PUSH20 0x1BFD67037B42CF73ACF2047067BD4F2C47D9BFD6 GAS CALL DUP1 ISZERO PUSH2 0x35F0 JUMPI PUSH2 0x35D6 JUMPI POP JUMP JUMPDEST PUSH1 0x20 SWAP1 PUSH1 0x44 PUSH20 0xFFFFFFFFFFFFFFFFFFFFFFFFFFFFFFFFFFFFFFFF SWAP4 PUSH1 0x0 PUSH1 0x40 MLOAD SWAP6 DUP7 SWAP5 DUP6 SWAP4 PUSH32 0x95EA7B300000000000000000000000000000000000000000000000000000000 DUP6 MSTORE PUSH20 0xA5E0829CACED8FFDD4DE3C43696C57F7D7A678FF PUSH1 0x4 DUP7 ADD MSTORE PUSH1 0x24 DUP6 ADD MSTORE AND GAS CALL DUP1 ISZERO PUSH2 0x35F0 JUMPI PUSH2 0x35D6 JUMPI POP JUMP JUMPDEST PUSH1 0x40 MLOAD SWAP1 PUSH32 0x95EA7B300000000000000000000000000000000000000000000000000000000 DUP3 MSTORE PUSH20 0xA5E0829CACED8FFDD4DE3C43696C57F7D7A678FF PUSH1 0x4 DUP4 ADD MSTORE PUSH1 0x24 DUP3 ADD MSTORE PUSH1 0x20 DUP2 PUSH1 0x44 DUP2 PUSH1 0x0 PUSH20 0x2791BCA1F2DE4661ED88A30C99A7A9449AA84174 GAS CALL DUP1 ISZERO PUSH2 0x35F0 JUMPI PUSH2 0x35D6 JUMPI POP JUMP JUMPDEST PUSH1 0x40 MLOAD PUSH32 0x95EA7B300000000000000000000000000000000000000000000000000000000 DUP2 MSTORE PUSH20 0xFFFFFFFFFFFFFFFFFFFFFFFFFFFFFFFFFFFFFFFF SWAP3 DUP4 AND PUSH1 0x4 DUP3 ADD MSTORE PUSH1 0x24 DUP2 ADD SWAP4 SWAP1 SWAP4 MSTORE PUSH1 0x20 SWAP2 DUP4 SWAP2 PUSH1 0x44 SWAP2 DUP4 SWAP2 PUSH1 0x0 SWAP2 AND GAS CALL DUP1 ISZERO PUSH2 0x35F0 JUMPI PUSH2 0x35D6 JUMPI POP JUMP JUMPDEST PUSH20 0xFFFFFFFFFFFFFFFFFFFFFFFFFFFFFFFFFFFFFFFF DUP2 AND SWAP2 DUP3 ISZERO PUSH2 0x3937 JUMPI PUSH1 0x20 DUP2 PUSH2 0x3921 PUSH1 0x0 SWAP5 PUSH2 0x38F8 PUSH32 0xDDF252AD1BE2C89B69C2B068FC378DAA952BA7F163C4A11628F55A4DF523B3EF SWAP6 PUSH1 0x2 SLOAD PUSH2 0x291D JUMP JUMPDEST PUSH1 0x2 SSTORE PUSH20 0xFFFFFFFFFFFFFFFFFFFFFFFFFFFFFFFFFFFFFFFF AND PUSH1 0x0 MSTORE PUSH1 0x0 PUSH1 0x20 MSTORE PUSH1 0x40 PUSH1 0x0 KECCAK256 SWAP1 JUMP JUMPDEST PUSH2 0x392C DUP3 DUP3 SLOAD PUSH2 0x291D JUMP JUMPDEST SWAP1 SSTORE PUSH1 0x40 MLOAD SWAP1 DUP2 MSTORE LOG3 JUMP JUMPDEST PUSH1 0x64 PUSH1 0x40 MLOAD PUSH32 0x8C379A000000000000000000000000000000000000000000000000000000000 DUP2 MSTORE PUSH1 0x20 PUSH1 0x4 DUP3 ADD MSTORE PUSH1 0x1F PUSH1 0x24 DUP3 ADD MSTORE PUSH32 0x45524332303A206D696E7420746F20746865207A65726F206164647265737300 PUSH1 0x44 DUP3 ADD MSTORE REVERT JUMPDEST PUSH2 0x399E ADDRESS PUSH2 0x434F JUMP JUMPDEST PUSH1 0x40 MLOAD PUSH32 0xFEAF968C00000000000000000000000000000000000000000000000000000000 DUP2 MSTORE PUSH1 0xA0 DUP2 PUSH1 0x4 DUP2 PUSH20 0xAB594600376EC9FD91F8E885DADF0CE036862DE0 GAS STATICCALL SWAP1 DUP2 ISZERO PUSH2 0x3A63 JUMPI JUMPDEST PUSH1 0x0 SWAP2 PUSH2 0x3A06 JUMPI JUMPDEST POP PUSH2 0x312B SWAP1 PUSH9 0x56BC75E2D63100000 SWAP3 PUSH2 0x309C JUMP JUMPDEST SWAP1 PUSH1 0xA0 DUP3 RETURNDATASIZE DUP3 GT PUSH2 0x3A5B JUMPI JUMPDEST DUP2 PUSH2 0x3A1F PUSH1 0xA0 SWAP4 DUP4 PUSH2 0x1B69 JUMP JUMPDEST DUP2 ADD SUB SLT PUSH2 0x633 JUMPI POP PUSH9 0x56BC75E2D63100000 SWAP2 DUP2 PUSH2 0x3A40 PUSH2 0x312B SWAP4 PUSH2 0x2D8E JUMP JUMPDEST POP PUSH2 0x3A52 PUSH1 0x80 PUSH1 0x20 DUP4 ADD MLOAD SWAP3 ADD PUSH2 0x2D8E JUMP JUMPDEST POP SWAP2 POP SWAP2 PUSH2 0x39F1 JUMP JUMPDEST RETURNDATASIZE SWAP2 POP PUSH2 0x3A12 JUMP JUMPDEST PUSH2 0x3A6B PUSH2 0x2DA5 JUMP JUMPDEST PUSH2 0x39E9 JUMP JUMPDEST PUSH2 0x3A79 ADDRESS PUSH2 0x43E6 JUMP JUMPDEST PUSH1 0x40 MLOAD PUSH32 0xFEAF968C00000000000000000000000000000000000000000000000000000000 DUP2 MSTORE PUSH1 0xA0 DUP2 PUSH1 0x4 DUP2 PUSH20 0x3D49406EDD4D52FB7FFD25485F32E073B529C924 GAS STATICCALL SWAP1 DUP2 ISZERO PUSH2 0x3A63 JUMPI PUSH1 0x0 SWAP2 PUSH2 0x3A06 JUMPI POP PUSH2 0x312B SWAP1 PUSH9 0x56BC75E2D63100000 SWAP3 PUSH2 0x309C JUMP JUMPDEST PUSH2 0x3AE8 ADDRESS PUSH2 0x4457 JUMP JUMPDEST PUSH1 0x40 MLOAD PUSH32 0xFEAF968C00000000000000000000000000000000000000000000000000000000 DUP2 MSTORE PUSH1 0xA0 DUP2 PUSH1 0x4 DUP2 PUSH20 0xF9680D99D6C9589E2A93A78A04A279E509205945 GAS STATICCALL SWAP1 DUP2 ISZERO PUSH2 0x3A63 JUMPI PUSH1 0x0 SWAP2 PUSH2 0x3A06 JUMPI POP PUSH2 0x312B SWAP1 PUSH9 0x56BC75E2D63100000 SWAP3 PUSH2 0x309C JUMP JUMPDEST PUSH2 0x3B57 ADDRESS PUSH2 0x44C8 JUMP JUMPDEST PUSH1 0x40 MLOAD PUSH32 0xFEAF968C00000000000000000000000000000000000000000000000000000000 DUP2 MSTORE PUSH1 0xA0 DUP2 PUSH1 0x4 DUP2 PUSH20 0xC907E116054AD103354F2D350FD2514433D57F6F GAS STATICCALL SWAP1 DUP2 ISZERO PUSH2 0x3C14 JUMPI JUMPDEST PUSH1 0x0 SWAP2 PUSH2 0x3BBB JUMPI JUMPDEST POP PUSH2 0x312B SWAP1 PUSH5 0x2540BE400 SWAP3 PUSH2 0x309C JUMP JUMPDEST SWAP1 PUSH1 0xA0 DUP3 RETURNDATASIZE DUP3 GT PUSH2 0x3C0C JUMPI JUMPDEST DUP2 PUSH2 0x3BD4 PUSH1 0xA0 SWAP4 DUP4 PUSH2 0x1B69 JUMP JUMPDEST DUP2 ADD SUB SLT PUSH2 0x633 JUMPI POP PUSH5 0x2540BE400 SWAP2 DUP2 PUSH2 0x3BF1 PUSH2 0x312B SWAP4 PUSH2 0x2D8E JUMP JUMPDEST POP PUSH2 0x3C03 PUSH1 0x80 PUSH1 0x20 DUP4 ADD MLOAD SWAP3 ADD PUSH2 0x2D8E JUMP JUMPDEST POP SWAP2 POP SWAP2 PUSH2 0x3BAA JUMP JUMPDEST RETURNDATASIZE SWAP2 POP PUSH2 0x3BC7 JUMP JUMPDEST PUSH2 0x3C1C PUSH2 0x2DA5 JUMP JUMPDEST PUSH2 0x3BA2 JUMP JUMPDEST PUSH2 0x4D6 PUSH2 0x3C2C PUSH2 0x3995 JUMP JUMPDEST PUSH2 0x24B2 PUSH2 0x3C37 PUSH2 0x3A70 JUMP JUMPDEST PUSH2 0x24B2 PUSH2 0x3C42 PUSH2 0x3ADF JUMP JUMPDEST SWAP2 PUSH2 0x3C4B PUSH2 0x3B4E JUMP JUMPDEST SWAP5 PUSH2 0x291D JUMP JUMPDEST PUSH1 0x40 MLOAD SWAP1 PUSH1 0x5 SLOAD DUP1 DUP4 MSTORE DUP3 PUSH1 0x20 SWAP2 DUP3 DUP3 ADD SWAP1 PUSH1 0x5 PUSH1 0x0 MSTORE PUSH32 0x36B6384B5ECA791C62761152D0C79BB0604C104A5FB6F4EB0703F3154BB3DB0 SWAP4 PUSH1 0x0 SWAP1 JUMPDEST DUP3 DUP3 LT PUSH2 0x3CA6 JUMPI POP POP POP PUSH2 0x3CA4 SWAP3 POP SUB DUP4 PUSH2 0x1B69 JUMP JUMPDEST JUMP JUMPDEST DUP6 SLOAD PUSH20 0xFFFFFFFFFFFFFFFFFFFFFFFFFFFFFFFFFFFFFFFF AND DUP5 MSTORE PUSH1 0x1 SWAP6 DUP7 ADD SWAP6 DUP9 SWAP6 POP SWAP4 DUP2 ADD SWAP4 SWAP1 SWAP2 ADD SWAP1 PUSH2 0x3C8E JUMP JUMPDEST PUSH1 0x40 MLOAD SWAP1 PUSH1 0x6 SLOAD DUP1 DUP4 MSTORE DUP3 PUSH1 0x20 SWAP2 DUP3 DUP3 ADD SWAP1 PUSH1 0x6 PUSH1 0x0 MSTORE PUSH32 0xF652222313E28459528D920B65115C16C04F3EFC82AAEDC97BE59F3F377C0D3F SWAP4 PUSH1 0x0 SWAP1 JUMPDEST DUP3 DUP3 LT PUSH2 0x3D29 JUMPI POP POP POP PUSH2 0x3CA4 SWAP3 POP SUB DUP4 PUSH2 0x1B69 JUMP JUMPDEST DUP6 SLOAD PUSH20 0xFFFFFFFFFFFFFFFFFFFFFFFFFFFFFFFFFFFFFFFF AND DUP5 MSTORE PUSH1 0x1 SWAP6 DUP7 ADD SWAP6 DUP9 SWAP6 POP SWAP4 DUP2 ADD SWAP4 SWAP1 SWAP2 ADD SWAP1 PUSH2 0x3D13 JUMP JUMPDEST PUSH1 0x40 MLOAD SWAP1 PUSH1 0x7 SLOAD DUP1 DUP4 MSTORE DUP3 PUSH1 0x20 SWAP2 DUP3 DUP3 ADD SWAP1 PUSH1 0x7 PUSH1 0x0 MSTORE PUSH32 0xA66CC928B5EDB82AF9BD49922954155AB7B0942694BEA4CE44661D9A8736C688 SWAP4 PUSH1 0x0 SWAP1 JUMPDEST DUP3 DUP3 LT PUSH2 0x3DAC JUMPI POP POP POP PUSH2 0x3CA4 SWAP3 POP SUB DUP4 PUSH2 0x1B69 JUMP JUMPDEST DUP6 SLOAD PUSH20 0xFFFFFFFFFFFFFFFFFFFFFFFFFFFFFFFFFFFFFFFF AND DUP5 MSTORE PUSH1 0x1 SWAP6 DUP7 ADD SWAP6 DUP9 SWAP6 POP SWAP4 DUP2 ADD SWAP4 SWAP1 SWAP2 ADD SWAP1 PUSH2 0x3D96 JUMP JUMPDEST PUSH1 0x40 MLOAD SWAP1 PUSH1 0x8 SLOAD DUP1 DUP4 MSTORE DUP3 PUSH1 0x20 SWAP2 DUP3 DUP3 ADD SWAP1 PUSH1 0x8 PUSH1 0x0 MSTORE PUSH32 0xF3F7A9FE364FAAB93B216DA50A3214154F22A0A2B415B23A84C8169E8B636EE3 SWAP4 PUSH1 0x0 SWAP1 JUMPDEST DUP3 DUP3 LT PUSH2 0x3E2F JUMPI POP POP POP PUSH2 0x3CA4 SWAP3 POP SUB DUP4 PUSH2 0x1B69 JUMP JUMPDEST DUP6 SLOAD PUSH20 0xFFFFFFFFFFFFFFFFFFFFFFFFFFFFFFFFFFFFFFFF AND DUP5 MSTORE PUSH1 0x1 SWAP6 DUP7 ADD SWAP6 DUP9 SWAP6 POP SWAP4 DUP2 ADD SWAP4 SWAP1 SWAP2 ADD SWAP1 PUSH2 0x3E19 JUMP JUMPDEST SWAP2 PUSH2 0x3EB6 DUP6 DUP1 PUSH2 0x3EA3 DUP10 DUP3 PUSH2 0x3E9C DUP3 PUSH2 0x3EC6 SWAP10 SWAP13 PUSH2 0x3E95 PUSH2 0x3CA4 SWAP16 PUSH2 0x3E89 PUSH2 0x3ED0 SWAP16 SWAP15 DUP3 SWAP1 PUSH2 0x309C JUMP JUMPDEST SWAP16 DUP4 ISZERO PUSH2 0x3EDA JUMPI PUSH2 0x309C JUMP JUMPDEST DIV SWAP9 PUSH2 0x309C JUMP JUMPDEST DIV SWAP8 PUSH2 0x309C JUMP JUMPDEST DIV SWAP7 ADDRESS SWAP2 PUSH2 0x3EAF PUSH2 0x3C51 JUMP JUMPDEST SWAP2 DIV PUSH2 0x4685 JUMP JUMPDEST ADDRESS SWAP1 PUSH2 0x3EC0 PUSH2 0x3CD6 JUMP JUMPDEST SWAP1 PUSH2 0x4685 JUMP JUMPDEST ADDRESS SWAP1 PUSH2 0x3EC0 PUSH2 0x3D59 JUMP JUMPDEST ADDRESS SWAP1 PUSH2 0x3EC0 PUSH2 0x3DDC JUMP JUMPDEST PUSH2 0x3EE2 PUSH2 0x30E9 JUMP JUMPDEST PUSH2 0x309C JUMP JUMPDEST PUSH2 0x3CA4 SWAP1 PUSH1 0x2 SHR PUSH2 0x3F00 ADDRESS PUSH2 0x3EFA PUSH2 0x3C51 JUMP JUMPDEST DUP4 PUSH2 0x4685 JUMP JUMPDEST PUSH2 0x3F0C ADDRESS PUSH2 0x3EFA PUSH2 0x3CD6 JUMP JUMPDEST PUSH2 0x3ED0 ADDRESS PUSH2 0x3EFA PUSH2 0x3D59 JUMP JUMPDEST PUSH2 0x3CA4 SWAP2 PUSH2 0x3F3A PUSH2 0x3F27 PUSH2 0x3C21 JUMP JUMPDEST DUP3 DUP2 LT PUSH2 0x3F55 JUMPI JUMPDEST DUP3 PUSH1 0x2 SLOAD SWAP2 SUB PUSH2 0x309C JUMP JUMPDEST DUP2 ISZERO PUSH2 0x3F48 JUMPI JUMPDEST DIV SWAP1 PUSH2 0x38A4 JUMP JUMPDEST PUSH2 0x3F50 PUSH2 0x30E9 JUMP JUMPDEST PUSH2 0x3F41 JUMP JUMPDEST PUSH2 0x3F5D PUSH2 0x28ED JUMP JUMPDEST PUSH2 0x3F2F JUMP JUMPDEST PUSH20 0xFFFFFFFFFFFFFFFFFFFFFFFFFFFFFFFFFFFFFFFF DUP2 AND SWAP1 DUP2 ISZERO PUSH2 0x40B0 JUMPI PUSH2 0x3FAA DUP2 PUSH20 0xFFFFFFFFFFFFFFFFFFFFFFFFFFFFFFFFFFFFFFFF AND PUSH1 0x0 MSTORE PUSH1 0x0 PUSH1 0x20 MSTORE PUSH1 0x40 PUSH1 0x0 KECCAK256 SWAP1 JUMP JUMPDEST SLOAD DUP4 DUP2 LT PUSH2 0x402C JUMPI DUP4 PUSH32 0xDDF252AD1BE2C89B69C2B068FC378DAA952BA7F163C4A11628F55A4DF523B3EF SWAP3 PUSH2 0x4007 PUSH1 0x0 SWAP7 PUSH2 0x2B4B SWAP5 SUB SWAP2 PUSH20 0xFFFFFFFFFFFFFFFFFFFFFFFFFFFFFFFFFFFFFFFF AND PUSH1 0x0 MSTORE PUSH1 0x0 PUSH1 0x20 MSTORE PUSH1 0x40 PUSH1 0x0 KECCAK256 SWAP1 JUMP JUMPDEST SSTORE PUSH2 0x401C PUSH2 0x4017 DUP3 PUSH1 0x2 SLOAD PUSH2 0x3007 JUMP JUMPDEST PUSH1 0x2 SSTORE JUMP JUMPDEST PUSH1 0x40 MLOAD SWAP1 DUP2 MSTORE SWAP1 DUP2 SWAP1 PUSH1 0x20 DUP3 ADD SWAP1 JUMP JUMPDEST PUSH1 0x84 PUSH1 0x40 MLOAD PUSH32 0x8C379A000000000000000000000000000000000000000000000000000000000 DUP2 MSTORE PUSH1 0x20 PUSH1 0x4 DUP3 ADD MSTORE PUSH1 0x22 PUSH1 0x24 DUP3 ADD MSTORE PUSH32 0x45524332303A206275726E20616D6F756E7420657863656564732062616C616E PUSH1 0x44 DUP3 ADD MSTORE PUSH32 0x6365000000000000000000000000000000000000000000000000000000000000 PUSH1 0x64 DUP3 ADD MSTORE REVERT JUMPDEST PUSH1 0x84 PUSH1 0x40 MLOAD PUSH32 0x8C379A000000000000000000000000000000000000000000000000000000000 DUP2 MSTORE PUSH1 0x20 PUSH1 0x4 DUP3 ADD MSTORE PUSH1 0x21 PUSH1 0x24 DUP3 ADD MSTORE PUSH32 0x45524332303A206275726E2066726F6D20746865207A65726F20616464726573 PUSH1 0x44 DUP3 ADD MSTORE PUSH32 0x7300000000000000000000000000000000000000000000000000000000000000 PUSH1 0x64 DUP3 ADD MSTORE REVERT JUMPDEST PUSH1 0x40 MLOAD PUSH32 0xA9059CBB00000000000000000000000000000000000000000000000000000000 DUP2 MSTORE PUSH20 0xFFFFFFFFFFFFFFFFFFFFFFFFFFFFFFFFFFFFFFFF SWAP3 SWAP1 SWAP3 AND PUSH1 0x4 DUP4 ADD MSTORE PUSH1 0x24 DUP3 ADD MSTORE PUSH1 0x20 DUP2 PUSH1 0x44 DUP2 PUSH1 0x0 PUSH20 0x2791BCA1F2DE4661ED88A30C99A7A9449AA84174 GAS CALL DUP1 ISZERO PUSH2 0x35F0 JUMPI PUSH2 0x35D6 JUMPI POP JUMP JUMPDEST PUSH2 0x3CA4 SWAP1 PUSH2 0x41B5 PUSH2 0x31EA JUMP JUMPDEST DUP1 MLOAD ISZERO PUSH2 0x4210 JUMPI JUMPDEST PUSH20 0xD500B1D8E8EF31E21C99D1DB9A6444D3ADF1270 PUSH1 0x20 DUP3 ADD MSTORE DUP1 MLOAD PUSH1 0x1 LT ISZERO PUSH2 0x4203 JUMPI JUMPDEST PUSH20 0x2791BCA1F2DE4661ED88A30C99A7A9449AA84174 PUSH1 0x40 DUP3 ADD MSTORE ADDRESS SWAP2 PUSH2 0x4685 JUMP JUMPDEST PUSH2 0x420B PUSH2 0x810 JUMP JUMPDEST PUSH2 0x41E2 JUMP JUMPDEST PUSH2 0x4218 PUSH2 0x810 JUMP JUMPDEST PUSH2 0x41BD JUMP JUMPDEST PUSH2 0x3CA4 SWAP1 PUSH2 0x4229 PUSH2 0x31EA JUMP JUMPDEST DUP1 MLOAD ISZERO PUSH2 0x4276 JUMPI JUMPDEST PUSH20 0xBBBA073C31BF03B8ACF7C28EF0738DECF3695683 PUSH1 0x20 DUP3 ADD MSTORE DUP1 MLOAD PUSH1 0x1 LT ISZERO PUSH2 0x4203 JUMPI PUSH20 0x2791BCA1F2DE4661ED88A30C99A7A9449AA84174 PUSH1 0x40 DUP3 ADD MSTORE ADDRESS SWAP2 PUSH2 0x4685 JUMP JUMPDEST PUSH2 0x427E PUSH2 0x810 JUMP JUMPDEST PUSH2 0x4231 JUMP JUMPDEST PUSH2 0x3CA4 SWAP1 PUSH2 0x428F PUSH2 0x31EA JUMP JUMPDEST DUP1 MLOAD ISZERO PUSH2 0x42DC JUMPI JUMPDEST PUSH20 0x7CEB23FD6BC0ADD59E62AC25578270CFF1B9F619 PUSH1 0x20 DUP3 ADD MSTORE DUP1 MLOAD PUSH1 0x1 LT ISZERO PUSH2 0x4203 JUMPI PUSH20 0x2791BCA1F2DE4661ED88A30C99A7A9449AA84174 PUSH1 0x40 DUP3 ADD MSTORE ADDRESS SWAP2 PUSH2 0x4685 JUMP JUMPDEST PUSH2 0x42E4 PUSH2 0x810 JUMP JUMPDEST PUSH2 0x4297 JUMP JUMPDEST PUSH2 0x3CA4 SWAP1 PUSH2 0x42F5 PUSH2 0x31EA JUMP JUMPDEST DUP1 MLOAD ISZERO PUSH2 0x4342 JUMPI JUMPDEST PUSH20 0x1BFD67037B42CF73ACF2047067BD4F2C47D9BFD6 PUSH1 0x20 DUP3 ADD MSTORE DUP1 MLOAD PUSH1 0x1 LT ISZERO PUSH2 0x4203 JUMPI PUSH20 0x2791BCA1F2DE4661ED88A30C99A7A9449AA84174 PUSH1 0x40 DUP3 ADD MSTORE ADDRESS SWAP2 PUSH2 0x4685 JUMP JUMPDEST PUSH2 0x434A PUSH2 0x810 JUMP JUMPDEST PUSH2 0x42FD JUMP JUMPDEST PUSH20 0xFFFFFFFFFFFFFFFFFFFFFFFFFFFFFFFFFFFFFFFF PUSH1 0x40 MLOAD SWAP2 PUSH32 0x70A0823100000000000000000000000000000000000000000000000000000000 DUP4 MSTORE AND PUSH1 0x4 DUP3 ADD MSTORE PUSH1 0x20 DUP2 PUSH1 0x24 DUP2 PUSH20 0xD500B1D8E8EF31E21C99D1DB9A6444D3ADF1270 GAS STATICCALL SWAP1 DUP2 ISZERO PUSH2 0x43D9 JUMPI JUMPDEST PUSH1 0x0 SWAP2 PUSH2 0x43C1 JUMPI POP SWAP1 JUMP JUMPDEST PUSH2 0x4D6 SWAP2 POP PUSH1 0x20 RETURNDATASIZE DUP2 GT PUSH2 0x15B7 JUMPI PUSH2 0x15A9 DUP2 DUP4 PUSH2 0x1B69 JUMP JUMPDEST PUSH2 0x43E1 PUSH2 0x2DA5 JUMP JUMPDEST PUSH2 0x43B6 JUMP JUMPDEST PUSH20 0xFFFFFFFFFFFFFFFFFFFFFFFFFFFFFFFFFFFFFFFF PUSH1 0x40 MLOAD SWAP2 PUSH32 0x70A0823100000000000000000000000000000000000000000000000000000000 DUP4 MSTORE AND PUSH1 0x4 DUP3 ADD MSTORE PUSH1 0x20 DUP2 PUSH1 0x24 DUP2 PUSH20 0xBBBA073C31BF03B8ACF7C28EF0738DECF3695683 GAS STATICCALL SWAP1 DUP2 ISZERO PUSH2 0x43D9 JUMPI PUSH1 0x0 SWAP2 PUSH2 0x43C1 JUMPI POP SWAP1 JUMP JUMPDEST PUSH20 0xFFFFFFFFFFFFFFFFFFFFFFFFFFFFFFFFFFFFFFFF PUSH1 0x40 MLOAD SWAP2 PUSH32 0x70A0823100000000000000000000000000000000000000000000000000000000 DUP4 MSTORE AND PUSH1 0x4 DUP3 ADD MSTORE PUSH1 0x20 DUP2 PUSH1 0x24 DUP2 PUSH20 0x7CEB23FD6BC0ADD59E62AC25578270CFF1B9F619 GAS STATICCALL SWAP1 DUP2 ISZERO PUSH2 0x43D9 JUMPI PUSH1 0x0 SWAP2 PUSH2 0x43C1 JUMPI POP SWAP1 JUMP JUMPDEST PUSH20 0xFFFFFFFFFFFFFFFFFFFFFFFFFFFFFFFFFFFFFFFF PUSH1 0x40 MLOAD SWAP2 PUSH32 0x70A0823100000000000000000000000000000000000000000000000000000000 DUP4 MSTORE AND PUSH1 0x4 DUP3 ADD MSTORE PUSH1 0x20 DUP2 PUSH1 0x24 DUP2 PUSH20 0x1BFD67037B42CF73ACF2047067BD4F2C47D9BFD6 GAS STATICCALL SWAP1 DUP2 ISZERO PUSH2 0x43D9 JUMPI PUSH1 0x0 SWAP2 PUSH2 0x43C1 JUMPI POP SWAP1 JUMP JUMPDEST PUSH20 0xFFFFFFFFFFFFFFFFFFFFFFFFFFFFFFFFFFFFFFFF PUSH1 0x40 MLOAD SWAP2 PUSH32 0x70A0823100000000000000000000000000000000000000000000000000000000 DUP4 MSTORE AND PUSH1 0x4 DUP3 ADD MSTORE PUSH1 0x20 DUP2 PUSH1 0x24 DUP2 PUSH20 0x2791BCA1F2DE4661ED88A30C99A7A9449AA84174 GAS STATICCALL SWAP1 DUP2 ISZERO PUSH2 0x43D9 JUMPI PUSH1 0x0 SWAP2 PUSH2 0x43C1 JUMPI POP SWAP1 JUMP JUMPDEST PUSH1 0x20 SWAP1 PUSH1 0x24 PUSH1 0x40 MLOAD DUP1 SWAP5 DUP2 SWAP4 PUSH32 0x70A0823100000000000000000000000000000000000000000000000000000000 DUP4 MSTORE PUSH20 0xFFFFFFFFFFFFFFFFFFFFFFFFFFFFFFFFFFFFFFFF DUP1 SWAP3 AND PUSH1 0x4 DUP5 ADD MSTORE AND GAS STATICCALL SWAP1 DUP2 ISZERO PUSH2 0x43D9 JUMPI PUSH1 0x0 SWAP2 PUSH2 0x43C1 JUMPI POP SWAP1 JUMP JUMPDEST PUSH1 0x20 SWAP1 DUP2 DUP2 DUP5 SUB SLT PUSH2 0x451 JUMPI DUP1 MLOAD SWAP1 PUSH8 0xFFFFFFFFFFFFFFFF DUP3 GT PUSH2 0x451 JUMPI ADD SWAP2 DUP1 PUSH1 0x1F DUP5 ADD SLT ISZERO PUSH2 0x451 JUMPI DUP3 MLOAD PUSH2 0x4641 DUP2 PUSH2 0x1BB7 JUMP JUMPDEST SWAP4 PUSH2 0x464F PUSH1 0x40 MLOAD SWAP6 DUP7 PUSH2 0x1B69 JUMP JUMPDEST DUP2 DUP6 MSTORE DUP4 DUP1 DUP7 ADD SWAP3 PUSH1 0x5 SHL DUP3 ADD ADD SWAP3 DUP4 GT PUSH2 0x451 JUMPI DUP4 ADD SWAP1 JUMPDEST DUP3 DUP3 LT PUSH2 0x4676 JUMPI POP POP POP POP SWAP1 JUMP JUMPDEST DUP2 MLOAD DUP2 MSTORE SWAP1 DUP4 ADD SWAP1 DUP4 ADD PUSH2 0x4668 JUMP JUMPDEST SWAP2 PUSH2 0x46F3 SWAP1 PUSH1 0x0 SWAP3 DUP4 PUSH20 0xFFFFFFFFFFFFFFFFFFFFFFFFFFFFFFFFFFFFFFFF SWAP6 DUP7 PUSH1 0x10 SLOAD AND SWAP4 PUSH1 0x40 MLOAD SWAP8 DUP9 SWAP7 DUP8 SWAP6 DUP7 SWAP5 PUSH32 0x38ED173900000000000000000000000000000000000000000000000000000000 DUP7 MSTORE PUSH1 0x4 DUP7 ADD MSTORE DUP6 PUSH1 0x24 DUP7 ADD MSTORE PUSH1 0xA0 PUSH1 0x44 DUP7 ADD MSTORE PUSH1 0xA4 DUP6 ADD SWAP1 PUSH2 0x33E6 JUMP JUMPDEST SWAP2 AND PUSH1 0x64 DUP4 ADD MSTORE PUSH5 0x174876E7FF PUSH1 0x84 DUP4 ADD MSTORE SUB SWAP3 GAS CALL DUP1 ISZERO PUSH2 0x472B JUMPI JUMPDEST PUSH2 0x4717 JUMPI POP JUMP JUMPDEST PUSH2 0x35ED SWAP1 RETURNDATASIZE DUP1 PUSH1 0x0 DUP4 RETURNDATACOPY PUSH2 0x1D59 DUP2 DUP4 PUSH2 0x1B69 JUMP JUMPDEST PUSH2 0x4733 PUSH2 0x2DA5 JUMP JUMPDEST PUSH2 0x4710 JUMP INVALID LOG2 PUSH5 0x6970667358 0x22 SLT KECCAK256 LOG4 PUSH21 0x7D05D301F9BBC5DA1F60D15C83E3ACFBE25798B772 0xA5 0x4A SWAP15 SWAP14 SWAP15 SWAP15 JUMPDEST LT STATICCALL PUSH5 0x736F6C6343 STOP ADDMOD 0xD STOP CALLER STOP STOP STOP STOP STOP STOP STOP STOP STOP STOP STOP STOP 0x27 SWAP2 0xBC LOG1 CALLCODE 0xDE CHAINID PUSH2 0xED88 LOG3 0xC SWAP10 0xA7 0xA9 DIFFICULTY SWAP11 0xA8 COINBASE PUSH21 0x0 "},"methodIdentifiers":{"BTC_USD_ORACLE()":"b6e20a6a","ETH_USD_ORACLE()":"718176e5","MATIC_USD_ORACLE()":"8db9f39a","QUICKSWAP_ROUTER()":"d0919116","SANDToUSDCPath(uint256)":"a48ce279","SAND_ADDRESS()":"2d365d31","SAND_USD_ORACLE()":"cd3f5b53","USDCToSANDPath(uint256)":"23aad7af","USDCToWBTCPath(uint256)":"a15c7d10","USDCToWETHPath(uint256)":"cb3601b1","USDCToWMATICPath(uint256)":"69bc4388","USDC_ADDRESS()":"bb09d9b7","WBTCToUSDCPath(uint256)":"ca970905","WBTC_ADDRESS()":"bdd5915f","WETHToUSDCPath(uint256)":"44345f23","WETH_ADDRESS()":"040141e5","WMATICToUSDCPath(uint256)":"681bcf13","WMATIC_ADDRESS()":"e95d8328","allowance(address,address)":"dd62ed3e","approve(address,uint256)":"095ea7b3","approveSpendingWholeBalance(address,address)":"aa5a7aa3","approve_spending(address,address,uint256)":"29a97ec2","balanceOf(address)":"70a08231","checkUpkeep(bytes)":"6e04ff0d","decimals()":"313ce567","decreaseAllowance(address,uint256)":"a457c2d7","depositUserFunds(uint256)":"c5764eec","getLatestPrice(address)":"16345f18","getUSDPortfolioTotal()":"153f29c7","getUSDTokenBalanceOf(address,address,uint256)":"51f54887","increaseAllowance(address,uint256)":"39509351","interval()":"947a36fb","lastTimeStamp()":"3f3b3b27","mintOnDeposit(address,uint256)":"94362e8b","name()":"06fdde03","performUpkeep(bytes)":"4585e33b","quickSwapRouter()":"e189eb42","setInterval(uint256)":"22a90082","swap(uint256,uint256,address[],address,uint256)":"90f11e84","swapBackToUSDC(address,uint256)":"cf412810","swapIntoFourEqualParts(uint256)":"88e42b08","swapProportionately(uint256,uint256,uint256,uint256,uint256,uint256)":"764f96f9","symbol()":"95d89b41","threshold_percentage()":"d239c681","tokenBalanceOf(address,address)":"1bea8006","totalSupply()":"18160ddd","transfer(address,uint256)":"a9059cbb","transferFrom(address,address,uint256)":"23b872dd","withdraw(uint256,address,address)":"b460af94","withdrawUserFunds(address)":"24e2e7bb"}}}}}