{"contracts/autoBalancer.sol":{"autoBalancer":{"abi":[{"inputs":[],"stateMutability":"nonpayable","type":"constructor"},{"anonymous":false,"inputs":[{"indexed":true,"internalType":"address","name":"owner","type":"address"},{"indexed":true,"internalType":"address","name":"spender","type":"address"},{"indexed":false,"internalType":"uint256","name":"value","type":"uint256"}],"name":"Approval","type":"event"},{"anonymous":false,"inputs":[{"indexed":true,"internalType":"address","name":"from","type":"address"},{"indexed":true,"internalType":"address","name":"to","type":"address"},{"indexed":false,"internalType":"uint256","name":"value","type":"uint256"}],"name":"Transfer","type":"event"},{"inputs":[],"name":"BTC_USD_ORACLE","outputs":[{"internalType":"address","name":"","type":"address"}],"stateMutability":"view","type":"function"},{"inputs":[],"name":"ETH_USD_ORACLE","outputs":[{"internalType":"address","name":"","type":"address"}],"stateMutability":"view","type":"function"},{"inputs":[],"name":"MATIC_USD_ORACLE","outputs":[{"internalType":"address","name":"","type":"address"}],"stateMutability":"view","type":"function"},{"inputs":[],"name":"QUICKSWAP_ROUTER","outputs":[{"internalType":"address","name":"","type":"address"}],"stateMutability":"view","type":"function"},{"inputs":[{"internalType":"uint256","name":"","type":"uint256"}],"name":"SANDToUSDCPath","outputs":[{"internalType":"address","name":"","type":"address"}],"stateMutability":"view","type":"function"},{"inputs":[],"name":"SAND_ADDRESS","outputs":[{"internalType":"address","name":"","type":"address"}],"stateMutability":"view","type":"function"},{"inputs":[],"name":"SAND_USD_ORACLE","outputs":[{"internalType":"address","name":"","type":"address"}],"stateMutability":"view","type":"function"},{"inputs":[{"internalType":"uint256","name":"","type":"uint256"}],"name":"USDCToSANDPath","outputs":[{"internalType":"address","name":"","type":"address"}],"stateMutability":"view","type":"function"},{"inputs":[{"internalType":"uint256","name":"","type":"uint256"}],"name":"USDCToWBTCPath","outputs":[{"internalType":"address","name":"","type":"address"}],"stateMutability":"view","type":"function"},{"inputs":[{"internalType":"uint256","name":"","type":"uint256"}],"name":"USDCToWETHPath","outputs":[{"internalType":"address","name":"","type":"address"}],"stateMutability":"view","type":"function"},{"inputs":[{"internalType":"uint256","name":"","type":"uint256"}],"name":"USDCToWMATICPath","outputs":[{"internalType":"address","name":"","type":"address"}],"stateMutability":"view","type":"function"},{"inputs":[],"name":"USDC_ADDRESS","outputs":[{"internalType":"address","name":"","type":"address"}],"stateMutability":"view","type":"function"},{"inputs":[{"internalType":"uint256","name":"","type":"uint256"}],"name":"WBTCToUSDCPath","outputs":[{"internalType":"address","name":"","type":"address"}],"stateMutability":"view","type":"function"},{"inputs":[],"name":"WBTC_ADDRESS","outputs":[{"internalType":"address","name":"","type":"address"}],"stateMutability":"view","type":"function"},{"inputs":[{"internalType":"uint256","name":"","type":"uint256"}],"name":"WETHToUSDCPath","outputs":[{"internalType":"address","name":"","type":"address"}],"stateMutability":"view","type":"function"},{"inputs":[],"name":"WETH_ADDRESS","outputs":[{"internalType":"address","name":"","type":"address"}],"stateMutability":"view","type":"function"},{"inputs":[{"internalType":"uint256","name":"","type":"uint256"}],"name":"WMATICToUSDCPath","outputs":[{"internalType":"address","name":"","type":"address"}],"stateMutability":"view","type":"function"},{"inputs":[],"name":"WMATIC_ADDRESS","outputs":[{"internalType":"address","name":"","type":"address"}],"stateMutability":"view","type":"function"},{"inputs":[{"internalType":"address","name":"owner","type":"address"},{"internalType":"address","name":"spender","type":"address"}],"name":"allowance","outputs":[{"internalType":"uint256","name":"","type":"uint256"}],"stateMutability":"view","type":"function"},{"inputs":[{"internalType":"address","name":"spender","type":"address"},{"internalType":"uint256","name":"amount","type":"uint256"}],"name":"approve","outputs":[{"internalType":"bool","name":"","type":"bool"}],"stateMutability":"nonpayable","type":"function"},{"inputs":[{"internalType":"address","name":"_token","type":"address"},{"internalType":"address","name":"_spender","type":"address"}],"name":"approveSpendingWholeBalance","outputs":[],"stateMutability":"nonpayable","type":"function"},{"inputs":[{"internalType":"address","name":"token_address","type":"address"},{"internalType":"address","name":"spender_address","type":"address"},{"internalType":"uint256","name":"amount_to_approve","type":"uint256"}],"name":"approve_spending","outputs":[],"stateMutability":"nonpayable","type":"function"},{"inputs":[{"internalType":"address","name":"account","type":"address"}],"name":"balanceOf","outputs":[{"internalType":"uint256","name":"","type":"uint256"}],"stateMutability":"view","type":"function"},{"inputs":[{"internalType":"bytes","name":"","type":"bytes"}],"name":"checkUpkeep","outputs":[{"internalType":"bool","name":"upkeepNeeded","type":"bool"},{"internalType":"bytes","name":"performData","type":"bytes"}],"stateMutability":"view","type":"function"},{"inputs":[],"name":"decimals","outputs":[{"internalType":"uint8","name":"","type":"uint8"}],"stateMutability":"view","type":"function"},{"inputs":[{"internalType":"address","name":"spender","type":"address"},{"internalType":"uint256","name":"subtractedValue","type":"uint256"}],"name":"decreaseAllowance","outputs":[{"internalType":"bool","name":"","type":"bool"}],"stateMutability":"nonpayable","type":"function"},{"inputs":[{"internalType":"uint256","name":"deposit_amount","type":"uint256"}],"name":"depositUserFunds","outputs":[],"stateMutability":"nonpayable","type":"function"},{"inputs":[{"internalType":"address","name":"_oracle_address","type":"address"}],"name":"getLatestPrice","outputs":[{"internalType":"int256","name":"","type":"int256"}],"stateMutability":"view","type":"function"},{"inputs":[],"name":"getUSDPortfolioTotal","outputs":[{"internalType":"uint256","name":"Total_in_USD","type":"uint256"}],"stateMutability":"view","type":"function"},{"inputs":[{"internalType":"address","name":"token_address","type":"address"},{"internalType":"address","name":"oracle_address","type":"address"},{"internalType":"uint256","name":"token_decimals","type":"uint256"}],"name":"getUSDTokenBalanceOf","outputs":[{"internalType":"uint256","name":"","type":"uint256"}],"stateMutability":"view","type":"function"},{"inputs":[{"internalType":"address","name":"spender","type":"address"},{"internalType":"uint256","name":"addedValue","type":"uint256"}],"name":"increaseAllowance","outputs":[{"internalType":"bool","name":"","type":"bool"}],"stateMutability":"nonpayable","type":"function"},{"inputs":[],"name":"interval","outputs":[{"internalType":"uint256","name":"","type":"uint256"}],"stateMutability":"view","type":"function"},{"inputs":[],"name":"lastTimeStamp","outputs":[{"internalType":"uint256","name":"","type":"uint256"}],"stateMutability":"view","type":"function"},{"inputs":[{"internalType":"address","name":"user","type":"address"},{"internalType":"uint256","name":"portfolio_value_usd","type":"uint256"}],"name":"mintOnDeposit","outputs":[],"stateMutability":"nonpayable","type":"function"},{"inputs":[],"name":"name","outputs":[{"internalType":"string","name":"","type":"string"}],"stateMutability":"view","type":"function"},{"inputs":[{"internalType":"bytes","name":"performData","type":"bytes"}],"name":"performUpkeep","outputs":[],"stateMutability":"nonpayable","type":"function"},{"inputs":[],"name":"quickSwapRouter","outputs":[{"internalType":"contract IUniswapV2Router02","name":"","type":"address"}],"stateMutability":"view","type":"function"},{"inputs":[{"internalType":"uint256","name":"new_interval","type":"uint256"}],"name":"setInterval","outputs":[],"stateMutability":"nonpayable","type":"function"},{"inputs":[{"internalType":"uint256","name":"_amountIn","type":"uint256"},{"internalType":"uint256","name":"_amountOutMin","type":"uint256"},{"internalType":"address[]","name":"_path","type":"address[]"},{"internalType":"address","name":"_acct","type":"address"},{"internalType":"uint256","name":"_deadline","type":"uint256"}],"name":"swap","outputs":[],"stateMutability":"nonpayable","type":"function"},{"inputs":[{"internalType":"address","name":"_token","type":"address"},{"internalType":"uint256","name":"_amount","type":"uint256"}],"name":"swapBackToUSDC","outputs":[],"stateMutability":"nonpayable","type":"function"},{"inputs":[{"internalType":"uint256","name":"amount","type":"uint256"}],"name":"swapIntoFourEqualParts","outputs":[],"stateMutability":"nonpayable","type":"function"},{"inputs":[{"internalType":"uint256","name":"WMATIC_amount","type":"uint256"},{"internalType":"uint256","name":"SAND_amount","type":"uint256"},{"internalType":"uint256","name":"WETH_amount","type":"uint256"},{"internalType":"uint256","name":"WBTC_amount","type":"uint256"},{"internalType":"uint256","name":"totalUSDAmount","type":"uint256"},{"internalType":"uint256","name":"depositAmount","type":"uint256"}],"name":"swapProportionately","outputs":[],"stateMutability":"nonpayable","type":"function"},{"inputs":[],"name":"symbol","outputs":[{"internalType":"string","name":"","type":"string"}],"stateMutability":"view","type":"function"},{"inputs":[{"internalType":"address","name":"token_address","type":"address"},{"internalType":"address","name":"user_address","type":"address"}],"name":"tokenBalanceOf","outputs":[{"internalType":"uint256","name":"token_balance","type":"uint256"}],"stateMutability":"view","type":"function"},{"inputs":[],"name":"totalSupply","outputs":[{"internalType":"uint256","name":"","type":"uint256"}],"stateMutability":"view","type":"function"},{"inputs":[{"internalType":"address","name":"to","type":"address"},{"internalType":"uint256","name":"amount","type":"uint256"}],"name":"transfer","outputs":[{"internalType":"bool","name":"","type":"bool"}],"stateMutability":"nonpayable","type":"function"},{"inputs":[{"internalType":"address","name":"from","type":"address"},{"internalType":"address","name":"to","type":"address"},{"internalType":"uint256","name":"amount","type":"uint256"}],"name":"transferFrom","outputs":[{"internalType":"bool","name":"","type":"bool"}],"stateMutability":"nonpayable","type":"function"},{"inputs":[{"internalType":"uint256","name":"amount_","type":"uint256"},{"internalType":"address","name":"token_address","type":"address"},{"internalType":"address","name":"address_to","type":"address"}],"name":"withdraw","outputs":[],"stateMutability":"nonpayable","type":"function"},{"inputs":[{"internalType":"address","name":"user","type":"address"}],"name":"withdrawUserFunds","outputs":[],"stateMutability":"nonpayable","type":"function"},{"stateMutability":"payable","type":"receive"}],"evm":{"bytecode":{"linkReferences":{},"object":"60806040523462000274576200002962000018620002bf565b62000022620002e5565b90620009ee565b620002326200003762000290565b600080516020620051b983398151915281526200007660209162000070838201730d500b1d8e8ef31e21c99d1db9a6444d3adf12709052565b6200031b565b620000b56200008462000290565b600080516020620051b9833981519152815273bbba073c31bf03b8acf7c28ef0738decf369568381840152620003bc565b620000f4620000c362000290565b600080516020620051b98339815191528152737ceb23fd6bc0add59e62ac25578270cff1b9f619818401526200045d565b620001336200010262000290565b600080516020620051b98339815191528152731bfd67037b42cf73acf2047067bd4f2c47d9bfd681840152620004fe565b620001726200014162000290565b730d500b1d8e8ef31e21c99d1db9a6444d3adf12708152600080516020620051b9833981519152818401526200059f565b620001b16200018062000290565b73bbba073c31bf03b8acf7c28ef0738decf36956838152600080516020620051b98339815191528184015262000640565b620001f0620001bf62000290565b737ceb23fd6bc0add59e62ac25578270cff1b9f6198152600080516020620051b983398151915281840152620006e1565b6200022c620001fe62000290565b731bfd67037b42cf73acf2047067bd4f2c47d9bfd68152918201600080516020620051b98339815191529052565b62000782565b6200023e610e10600e55565b600f80546001600160a01b03191673a5e0829caced8ffdd4de3c43696c57f7d7a678ff1790556040516146b1908162000b088239f35b600080fd5b50634e487b7160e01b600052604160045260246000fd5b60408051919082016001600160401b03811183821017620002b057604052565b620002ba62000279565b604052565b620002c962000290565b90600c82526b30baba37a130b630b731b2b960a11b6020830152565b620002ef62000290565b90600382526241424160e81b6020830152565b8181106200030e575050565b6000815560010162000302565b60055490600291826005558083106200037e575b5060056000526020806000206000925b8484106200034e575050505050565b805182546001600160a01b0319166001600160a01b0391909116178255600193840193919091019082016200033f565b6005600052620003b5907f036b6384b5eca791c62761152d0c79bb0604c104a5fb6f4eb0703f3154bb3db090810190840162000302565b386200032f565b60065490600291826006558083106200041f575b5060066000526020806000206000925b848410620003ef575050505050565b805182546001600160a01b0319166001600160a01b039190911617825560019384019391909101908201620003e0565b600660005262000456907ff652222313e28459528d920b65115c16c04f3efc82aaedc97be59f3f377c0d3f90810190840162000302565b38620003d0565b6007549060029182600755808310620004c0575b5060076000526020806000206000925b84841062000490575050505050565b805182546001600160a01b0319166001600160a01b03919091161782556001938401939190910190820162000481565b6007600052620004f7907fa66cc928b5edb82af9bd49922954155ab7b0942694bea4ce44661d9a8736c68890810190840162000302565b3862000471565b600854906002918260085580831062000561575b5060086000526020806000206000925b84841062000531575050505050565b805182546001600160a01b0319166001600160a01b03919091161782556001938401939190910190820162000522565b600860005262000598907ff3f7a9fe364faab93b216da50a3214154f22a0a2b415b23a84c8169e8b636ee390810190840162000302565b3862000512565b600954906002918260095580831062000602575b5060096000526020806000206000925b848410620005d2575050505050565b805182546001600160a01b0319166001600160a01b039190911617825560019384019391909101908201620005c3565b600960005262000639907f6e1540171b6c0c960b71a7020d9f60077f6af931a8bbf590da0223dacf75c7af90810190840162000302565b38620005b3565b600a549060029182600a55808310620006a3575b50600a6000526020806000206000925b84841062000673575050505050565b805182546001600160a01b0319166001600160a01b03919091161782556001938401939190910190820162000664565b600a600052620006da907fc65a7bb8d6351c1cf70c95a316cc6a92839c986682d98bc35f958f4883f9d2a890810190840162000302565b3862000654565b600b549060029182600b5580831062000744575b50600b6000526020806000206000925b84841062000714575050505050565b805182546001600160a01b0319166001600160a01b03919091161782556001938401939190910190820162000705565b600b6000526200077b907f0175b7a638427703f0dbe7bb9bbf987a2551717b34e79f33b5b1008d1fa01db990810190840162000302565b38620006f5565b600c549060029182600c55808310620007e5575b50600c6000526020806000206000925b848410620007b5575050505050565b805182546001600160a01b0319166001600160a01b039190911617825560019384019391909101908201620007a6565b600c6000526200081c907fdf6966c971051c3d54ec59162606531493a51404a002842f56009d7e5cf4a8c790810190840162000302565b3862000796565b90600182811c9216801562000855575b60208310146200083f57565b634e487b7160e01b600052602260045260246000fd5b91607f169162000833565b90601f82116200086e575050565b6200089f9160036000526020600020906020601f840160051c83019310620008a1575b601f0160051c019062000302565b565b909150819062000891565b90601f8211620008ba575050565b6200089f9160046000526020600020906020601f840160051c83019310620008a157601f0160051c019062000302565b80519091906001600160401b038111620009de575b62000917816200091160045462000823565b620008ac565b602080601f83116001146200095657508192936000926200094a575b50508160011b916000199060031b1c191617600455565b01519050388062000933565b6004600052601f198316949091907f8a35acfbc15ff81a39ae7d344fd709f28e8600b4aa8c65c6b64bfe7fe36bd19b926000905b878210620009c5575050836001959610620009ab575b505050811b01600455565b015160001960f88460031b161c19169055388080620009a0565b806001859682949686015181550195019301906200098a565b620009e862000279565b620008ff565b80519091906001600160401b03811162000af7575b62000a1b8162000a1560035462000823565b62000860565b602080601f831160011462000a62575081906200089f9460009262000a56575b50508160011b916000199060031b1c191617600355620008ea565b01519050388062000a3b565b60036000529293919291601f1984167fc2575a0e9e593c00f959f8c92f12db2869c3395a3b0502d05e2516446f71f85b936000905b82821062000ade5750509160019391856200089f9796941062000ac4575b505050811b01600355620008ea565b015160001960f88460031b161c1916905538808062000ab5565b8060018697829497870151815501960194019062000a97565b62000b0162000279565b62000a0356fe6080604052600436101561001b575b361561001957600080fd5b005b60003560e01c8063040141e5146103ef57806306fdde03146103e6578063095ea7b3146103dd578063153f29c7146103d457806316345f18146103cb57806318160ddd146103c25780631bea8006146103b957806322a90082146103b057806323aad7af146103a757806323b872dd1461039e57806324e2e7bb1461039557806329a97ec21461038c5780632d365d3114610383578063313ce5671461037a57806339509351146103715780633f3b3b271461036857806344345f231461035f5780634585e33b1461035657806351f548871461034d578063681bcf131461034457806369bc43881461033b5780636e04ff0d1461033257806370a0823114610329578063718176e514610320578063764f96f91461031757806388e42b081461030e5780638db9f39a1461030557806390f11e84146102fc57806394362e8b146102f3578063947a36fb146102ea57806395d89b41146102e1578063a15c7d10146102d8578063a457c2d7146102cf578063a48ce279146102c6578063a9059cbb146102bd578063aa5a7aa3146102b4578063b460af94146102ab578063b6e20a6a146102a2578063bb09d9b714610299578063bdd5915f14610290578063c5764eec14610287578063ca9709051461027e578063cb3601b114610275578063cd3f5b531461026c578063cf41281014610263578063d09191161461025a578063dd62ed3e14610251578063e189eb42146102485763e95d83280361000e57610243612816565b61000e565b506102436127c3565b5061024361272d565b506102436126df565b5061024361262f565b506102436125e1565b5061024361255b565b506102436124d5565b50610243612398565b5061024361234a565b506102436122fc565b506102436122ae565b506102436121b4565b506102436120e2565b5061024361209d565b50610243612017565b50610243611f0b565b50610243611e85565b50610243611da3565b50610243611d66565b50610243611d22565b50610243611c0d565b50610243611a9f565b50610243611a64565b50610243611a1a565b506102436119cc565b50610243611966565b50610243611209565b5061024361116a565b506102436110e4565b5061024361105a565b50610243610e38565b50610243610d4a565b50610243610d0d565b50610243610c88565b50610243610c4d565b50610243610bff565b50610243610be7565b50610243610a29565b50610243610912565b5061024361082c565b506102436107c4565b50610243610779565b5061024361073c565b506102436106fa565b506102436106b8565b50610243610668565b506102436104c5565b503461043d5760007ffffffffffffffffffffffffffffffffffffffffffffffffffffffffffffffffc36011261043d576020604051737ceb23fd6bc0add59e62ac25578270cff1b9f6198152f35b600080fd5b91908251928382526000905b8482106104995750601f84602094957fffffffffffffffffffffffffffffffffffffffffffffffffffffffffffffffe0931161048c575b0116010190565b6000858286010152610485565b9060209081808285010151908286010152019061044e565b9060206104c2928181520190610442565b90565b503461043d576000807ffffffffffffffffffffffffffffffffffffffffffffffffffffffffffffffffc36011261061f5760405190806003549060019180831c92808216928315610615575b60209283861085146105e85785885260208801949081156105ae5750600114610555575b6105518761054581890382611b1d565b604051918291826104b1565b0390f35b600360005294509192917fc2575a0e9e593c00f959f8c92f12db2869c3395a3b0502d05e2516446f71f85b5b83861061059d5750505091019050610545826105513880610535565b805485870152948201948101610581565b7fffffffffffffffffffffffffffffffffffffffffffffffffffffffffffffff001685525050500191506105459050826105513880610535565b6024827f4e487b710000000000000000000000000000000000000000000000000000000081526022600452fd5b93607f1693610511565b80fd5b6004359073ffffffffffffffffffffffffffffffffffffffff8216820361043d57565b6024359073ffffffffffffffffffffffffffffffffffffffff8216820361043d57565b503461043d5760407ffffffffffffffffffffffffffffffffffffffffffffffffffffffffffffffffc36011261043d576106ad6106a3610622565b6024359033612b4b565b602060405160018152f35b503461043d5760007ffffffffffffffffffffffffffffffffffffffffffffffffffffffffffffffffc36011261043d5760206106f2613b64565b604051908152f35b503461043d5760207ffffffffffffffffffffffffffffffffffffffffffffffffffffffffffffffffc36011261043d5760206106f2610737610622565b612d29565b503461043d5760007ffffffffffffffffffffffffffffffffffffffffffffffffffffffffffffffffc36011261043d576020600254604051908152f35b503461043d5760407ffffffffffffffffffffffffffffffffffffffffffffffffffffffffffffffffc36011261043d5760206106f26107b6610622565b6107be610645565b906144ed565b503461043d5760207ffffffffffffffffffffffffffffffffffffffffffffffffffffffffffffffffc36011261043d57600435600e55005b507f4e487b7100000000000000000000000000000000000000000000000000000000600052603260045260246000fd5b503461043d5760207ffffffffffffffffffffffffffffffffffffffffffffffffffffffffffffffffc36011261043d5760043560065481101561043d5773ffffffffffffffffffffffffffffffffffffffff60209160066000527ff652222313e28459528d920b65115c16c04f3efc82aaedc97be59f3f377c0d3f015416604051908152f35b7ffffffffffffffffffffffffffffffffffffffffffffffffffffffffffffffffc606091011261043d5773ffffffffffffffffffffffffffffffffffffffff90600435828116810361043d5791602435908116810361043d579060443590565b503461043d57610921366108b2565b9073ffffffffffffffffffffffffffffffffffffffff8316600052600160205261096f3360406000209073ffffffffffffffffffffffffffffffffffffffff16600052602052604060002090565b54927fffffffffffffffffffffffffffffffffffffffffffffffffffffffffffffffff84036109af575b6109a393506129c2565b60405160018152602090f35b8284106109cb576109c6836109a395033383612b4b565b610999565b60646040517f08c379a000000000000000000000000000000000000000000000000000000000815260206004820152601d60248201527f45524332303a20696e73756666696369656e7420616c6c6f77616e63650000006044820152fd5b503461043d5760207ffffffffffffffffffffffffffffffffffffffffffffffffffffffffffffffffc36011261043d57610019610a64610622565b73ffffffffffffffffffffffffffffffffffffffff81166000526000602052610ba4610a9e604060002054610a9830614292565b90612fd3565b610b9f610aae600254809361305c565b91610b9a610af282610aed610ae38973ffffffffffffffffffffffffffffffffffffffff166000526000602052604060002090565b54610a9830614329565b61305c565b610b95610b6b610b3385610aed610b298c73ffffffffffffffffffffffffffffffffffffffff166000526000602052604060002090565b54610a983061439a565b94610aed610b618b73ffffffffffffffffffffffffffffffffffffffff166000526000602052604060002090565b54610a983061440b565b95610b75816134a6565b610b7e83613540565b610b87856135b2565b610b9087613624565b6140ec565b614160565b6141c6565b61422c565b610bb681610bb13061447c565b614077565b610be08173ffffffffffffffffffffffffffffffffffffffff166000526000602052604060002090565b5490613ea5565b503461043d57610019610bf9366108b2565b9161377f565b503461043d5760007ffffffffffffffffffffffffffffffffffffffffffffffffffffffffffffffffc36011261043d57602060405173bbba073c31bf03b8acf7c28ef0738decf36956838152f35b503461043d5760007ffffffffffffffffffffffffffffffffffffffffffffffffffffffffffffffffc36011261043d57602060405160128152f35b503461043d5760407ffffffffffffffffffffffffffffffffffffffffffffffffffffffffffffffffc36011261043d576106ad610cc3610622565b336000526001602052610d06602435610d008360406000209073ffffffffffffffffffffffffffffffffffffffff16600052602052604060002090565b54612894565b9033612b4b565b503461043d5760007ffffffffffffffffffffffffffffffffffffffffffffffffffffffffffffffffc36011261043d576020600d54604051908152f35b503461043d5760207ffffffffffffffffffffffffffffffffffffffffffffffffffffffffffffffffc36011261043d57600435600b5481101561043d5773ffffffffffffffffffffffffffffffffffffffff602091600b6000527f0175b7a638427703f0dbe7bb9bbf987a2551717b34e79f33b5b1008d1fa01db9015416604051908152f35b9060207ffffffffffffffffffffffffffffffffffffffffffffffffffffffffffffffffc83011261043d5760043567ffffffffffffffff9283821161043d578060238301121561043d57816004013593841161043d576024848301011161043d576024019190565b503461043d57610e4736610dd0565b90610e54600d5442612e23565b600e5410610e5e57005b610e6742600d55565b610e84610e7261312d565b91610e7b613168565b938101906133c0565b9160005b83519060ff81169182101561001957610fba91610ee7610ed6610ebc610eb6610eb0866132f0565b60ff1690565b88612f39565b5173ffffffffffffffffffffffffffffffffffffffff1690565b610ee08389612f39565b5190613696565b730d500b1d8e8ef31e21c99d1db9a6444d3adf127080610f31610f18610ebc610f12610eb0886132f0565b8a612f39565b73ffffffffffffffffffffffffffffffffffffffff1690565b14908115611033575b5015610fbf57610fac610fb591610f80610f5c610ebc610f12610eb0886132f0565b610f6588612ef0565b9073ffffffffffffffffffffffffffffffffffffffff169052565b610fa6610f9d610ebc610f12610eb0610f98896132f0565b613317565b610f6588612f06565b87612f39565b518430916145c8565b612f5b565b610e88565b61102a610fb591610fe4610fdb610ebc610f12610eb0886132f0565b610f658b612ef0565b611009610ff08a612f06565b730d500b1d8e8ef31e21c99d1db9a6444d3adf12709052565b610fa6611021610ebc610f12610eb0610f98896132f0565b610f658b612f17565b518730916145c8565b9050611053610f18610ebc61104d610eb0610f98886132f0565b89612f39565b1438610f3a565b503461043d576020610a986110ba600261108b611085611079366108b2565b969192909230906144ed565b91612d29565b927ffffffffffffffffffffffffffffffffffffffffffffffffffffffffffffffffd81116110d7575b01613010565b80156110ca575b60405191048152f35b6110d261302c565b6110c1565b6110df612864565b6110b4565b503461043d5760207ffffffffffffffffffffffffffffffffffffffffffffffffffffffffffffffffc36011261043d5760043560095481101561043d5773ffffffffffffffffffffffffffffffffffffffff60209160096000527f6e1540171b6c0c960b71a7020d9f60077f6af931a8bbf590da0223dacf75c7af015416604051908152f35b503461043d5760207ffffffffffffffffffffffffffffffffffffffffffffffffffffffffffffffffc36011261043d5760043560055481101561043d5773ffffffffffffffffffffffffffffffffffffffff60209160056000527f036b6384b5eca791c62761152d0c79bb0604c104a5fb6f4eb0703f3154bb3db0015416604051908152f35b6040906104c29392151581528160208201520190610442565b503461043d5761121836610dd0565b5050611226600d5442612e23565b600e5410611232612e99565b61123a612e3a565b9060209261125d848401730d500b1d8e8ef31e21c99d1db9a6444d3adf12709052565b60409261127f84820173ab594600376ec9fd91f8e885dadf0ce036862de09052565b611287612e3a565b73bbba073c31bf03b8acf7c28ef0738decf369568381870152733d49406edd4d52fb7ffd25485f32e073b529c924818601526112c1612e3a565b731bfd67037b42cf73acf2047067bd4f2c47d9bfd6878201529073c907e116054ad103354f2d350fd2514433d57f6f828701526112fc612e3a565b737ceb23fd6bc0add59e62ac25578270cff1b9f619888201529273f9680d99d6c9589e2a93a78a04a279e5092059458488015261133886612ef0565b5261134285612ef0565b5061134c85612f06565b5261135684612f06565b5061136084612f17565b5261136a83612f17565b5061137483612f28565b5261137e82612f28565b50600093845b835160ff8716908110156115b15761153791611531916115286115106115066114d560ff8b868b8f6113da610f1880846113be8789612f39565b51015173ffffffffffffffffffffffffffffffffffffffff1690565b90611466610737826113be8151977f70a0823100000000000000000000000000000000000000000000000000000000895260049888818061143b8d3090830191909173ffffffffffffffffffffffffffffffffffffffff6020820193169052565b03818b5afa9081156115a4575b600091611577575b50608061145d838d612f39565b51015289612f39565b60e06114728d88612f39565b51015251928380927f313ce5670000000000000000000000000000000000000000000000000000000082525afa90811561156a575b60009161153d575b506114c08860609485931693612f39565b5101526114cd868d612f39565b510151612dd9565b610a986115008c60e06114f78960806114ee8286612f39565b51015193612f39565b51015190612fd3565b91613010565b6305f5e100900490565b9160a0928361151f838c612f39565b51015288612f39565b51015190612894565b95612f5b565b94611384565b61155d91508c8d3d10611563575b6115558183611b1d565b810190612f7c565b386114af565b503d61154b565b611572612d1c565b6114a7565b6115979150893d8b1161159d575b61158f8183611b1d565b810190612f6d565b38611450565b503d611585565b6115ac612d1c565b611448565b509190945060005b835160ff82169081101561160857908160c06115fb6115f460a06115e0611603978b612f39565b5101516115ee8a518a61305c565b90613072565b9288612f39565b510152612f5b565b6115b9565b85838887600091829483946116256116208551612df5565b6130de565b9261163b6116206116368751612df5565b612f95565b86915b6116488751612df5565b9460ff94858516968710156119175760005b8951878216908110156116d55760c08b8d8284816116788286612f39565b510151151593846116bc575b5050505061169d575b505061169890612f5b565b61165a565b909d50819b506116b1611698929e8c612f39565b5101519a908e61168d565b6116c892939450612f39565b510151138d82848f611684565b50969a7f7fffffffffffffffffffffffffffffffffffffffffffffffffffffffffffffff9a5094979396509194919060005b89518d85831691821015611784575060c08b8d8284816117278286612f39565b5101511515938461176b575b5050505061174c575b505061174790612f5b565b611707565b909650819b5061176061174792978c612f39565b5101519a908e61173c565b61177792939450612f39565b510151128d82848f611733565b6118a6925088978892506118a0819f610fb5969b8f8b9f999e9b926113be9161188b948d6118be9e6113be9a169360c091826117c08787612f39565b5101519a16809a6117dd846117d58489612f39565b510151613456565b12156118c757826117f7611885946117d560009489612f39565b6118018487612f39565b5261180c8386612f39565b516118258261181b8a8a612f39565b5101918251613072565b90526118318c87612f39565b51015261187f61186261184d6118478487612f39565b5161320e565b60e06118598989612f39565b51015190613281565b61187961187460606114cd8a8a612f39565b613010565b90613281565b92612f39565b52612f39565b610f6561189a610eb08a6132f0565b8b612f39565b8c612f39565b610f656118b8610eb0610f98866132f0565b86612f39565b9193929361163e565b506000826118dc611885946117d58989612f39565b6118e68487612f39565b528b61190b826119016118f9878a612f39565b51938a612f39565b51019182516131a2565b90526118318787612f39565b919061195c610551926119308a84519788938401613373565b037fffffffffffffffffffffffffffffffffffffffffffffffffffffffffffffffe08101865285611b1d565b51928392836111f0565b503461043d5760207ffffffffffffffffffffffffffffffffffffffffffffffffffffffffffffffffc36011261043d5773ffffffffffffffffffffffffffffffffffffffff6119b3610622565b1660005260006020526020604060002054604051908152f35b503461043d5760007ffffffffffffffffffffffffffffffffffffffffffffffffffffffffffffffffc36011261043d57602060405173f9680d99d6c9589e2a93a78a04a279e5092059458152f35b503461043d5760c07ffffffffffffffffffffffffffffffffffffffffffffffffffffffffffffffffc36011261043d5761001960a435608435606435604435602435600435613da2565b503461043d5760207ffffffffffffffffffffffffffffffffffffffffffffffffffffffffffffffffc36011261043d57610019600435613e2a565b503461043d5760007ffffffffffffffffffffffffffffffffffffffffffffffffffffffffffffffffc36011261043d57602060405173ab594600376ec9fd91f8e885dadf0ce036862de08152f35b507f4e487b7100000000000000000000000000000000000000000000000000000000600052604160045260246000fd5b90601f7fffffffffffffffffffffffffffffffffffffffffffffffffffffffffffffffe0910116810190811067ffffffffffffffff821117611b5e57604052565b611b66611aed565b604052565b60209067ffffffffffffffff8111611b85575b60051b0190565b611b8d611aed565b611b7e565b81601f8201121561043d57803591611ba983611b6b565b92611bb76040519485611b1d565b808452602092838086019260051b82010192831161043d578301905b828210611be1575050505090565b813573ffffffffffffffffffffffffffffffffffffffff8116810361043d578152908301908301611bd3565b503461043d5760a07ffffffffffffffffffffffffffffffffffffffffffffffffffffffffffffffffc36011261043d5760443567ffffffffffffffff811161043d57611c5d903690600401611b92565b6064359073ffffffffffffffffffffffffffffffffffffffff80831680930361043d57600091611cda91600f541690836040518096819582947f38ed17390000000000000000000000000000000000000000000000000000000084526004356004850152602435602485015260a0604485015260a4840190613329565b906064830152608435608483015203925af18015611d15575b611cf957005b610019903d806000833e611d0d8183611b1d565b81019061454e565b611d1d612d1c565b611cf3565b503461043d5760407ffffffffffffffffffffffffffffffffffffffffffffffffffffffffffffffffc36011261043d57610019611d5d610622565b60243590613e5b565b503461043d5760007ffffffffffffffffffffffffffffffffffffffffffffffffffffffffffffffffc36011261043d576020600e54604051908152f35b503461043d576000807ffffffffffffffffffffffffffffffffffffffffffffffffffffffffffffffffc36011261061f5760405190806004549060019180831c92808216928315611e7b575b60209283861085146105e85785885260208801949081156105ae5750600114611e22576105518761054581890382611b1d565b600460005294509192917f8a35acfbc15ff81a39ae7d344fd709f28e8600b4aa8c65c6b64bfe7fe36bd19b5b838610611e6a5750505091019050610545826105513880610535565b805485870152948201948101611e4e565b93607f1693611def565b503461043d5760207ffffffffffffffffffffffffffffffffffffffffffffffffffffffffffffffffc36011261043d5760043560085481101561043d5773ffffffffffffffffffffffffffffffffffffffff60209160086000527ff3f7a9fe364faab93b216da50a3214154f22a0a2b415b23a84c8169e8b636ee3015416604051908152f35b503461043d5760407ffffffffffffffffffffffffffffffffffffffffffffffffffffffffffffffffc36011261043d57611f43610622565b60243590336000526001602052611f7e8160406000209073ffffffffffffffffffffffffffffffffffffffff16600052602052604060002090565b5491808310611f93576109a392039033612b4b565b60846040517f08c379a000000000000000000000000000000000000000000000000000000000815260206004820152602560248201527f45524332303a2064656372656173656420616c6c6f77616e63652062656c6f7760448201527f207a65726f0000000000000000000000000000000000000000000000000000006064820152fd5b503461043d5760207ffffffffffffffffffffffffffffffffffffffffffffffffffffffffffffffffc36011261043d57600435600a5481101561043d5773ffffffffffffffffffffffffffffffffffffffff602091600a6000527fc65a7bb8d6351c1cf70c95a316cc6a92839c986682d98bc35f958f4883f9d2a8015416604051908152f35b503461043d5760407ffffffffffffffffffffffffffffffffffffffffffffffffffffffffffffffffc36011261043d576106ad6120d8610622565b60243590336129c2565b503461043d5760407ffffffffffffffffffffffffffffffffffffffffffffffffffffffffffffffffc36011261043d5761001961211d610622565b612125610645565b604051917f70a0823100000000000000000000000000000000000000000000000000000000835230600484015260208360248173ffffffffffffffffffffffffffffffffffffffff85165afa9283156121a7575b600093612187575b5061377f565b6121a091935060203d811161159d5761158f8183611b1d565b9138612181565b6121af612d1c565b612179565b503461043d5760607ffffffffffffffffffffffffffffffffffffffffffffffffffffffffffffffffc36011261043d576121ec610645565b73ffffffffffffffffffffffffffffffffffffffff90604435828116810361043d576040517fa9059cbb00000000000000000000000000000000000000000000000000000000815273ffffffffffffffffffffffffffffffffffffffff919091166004808301919091523560248201529160209183916044918391600091165af180156122a1575b61227a57005b6100199060203d811161229a575b6122928183611b1d565b81019061348e565b503d612288565b6122a9612d1c565b612274565b503461043d5760007ffffffffffffffffffffffffffffffffffffffffffffffffffffffffffffffffc36011261043d57602060405173c907e116054ad103354f2d350fd2514433d57f6f8152f35b503461043d5760007ffffffffffffffffffffffffffffffffffffffffffffffffffffffffffffffffc36011261043d576020604051732791bca1f2de4661ed88a30c99a7a9449aa841748152f35b503461043d5760007ffffffffffffffffffffffffffffffffffffffffffffffffffffffffffffffffc36011261043d576020604051731bfd67037b42cf73acf2047067bd4f2c47d9bfd68152f35b503461043d5760207ffffffffffffffffffffffffffffffffffffffffffffffffffffffffffffffffc36011261043d576040517f23b872dd000000000000000000000000000000000000000000000000000000008152336004808301919091523060248301523560448201819052906020816064816000732791bca1f2de4661ed88a30c99a7a9449aa841745af180156124c8575b6124aa575b5061243b6138d8565b6124436139b3565b61244b613a22565b612453613a91565b9161246b83612466846124668589612894565b612894565b936124758661370d565b841561249257926100199592859261248c95613da2565b33613e5b565b5050505050806124a461001992613e2a565b336137e7565b6124c19060203d811161229a576122928183611b1d565b5038612432565b6124d0612d1c565b61242d565b503461043d5760207ffffffffffffffffffffffffffffffffffffffffffffffffffffffffffffffffc36011261043d57600435600c5481101561043d5773ffffffffffffffffffffffffffffffffffffffff602091600c6000527fdf6966c971051c3d54ec59162606531493a51404a002842f56009d7e5cf4a8c7015416604051908152f35b503461043d5760207ffffffffffffffffffffffffffffffffffffffffffffffffffffffffffffffffc36011261043d5760043560075481101561043d5773ffffffffffffffffffffffffffffffffffffffff60209160076000527fa66cc928b5edb82af9bd49922954155ab7b0942694bea4ce44661d9a8736c688015416604051908152f35b503461043d5760007ffffffffffffffffffffffffffffffffffffffffffffffffffffffffffffffffc36011261043d576020604051733d49406edd4d52fb7ffd25485f32e073b529c9248152f35b503461043d5760407ffffffffffffffffffffffffffffffffffffffffffffffffffffffffffffffffc36011261043d5761001961266a610622565b73ffffffffffffffffffffffffffffffffffffffff61268761312d565b918251156126d2575b1660208201528051600110156126c5575b732791bca1f2de4661ed88a30c99a7a9449aa84174604082015230906024356145c8565b6126cd6107fc565b6126a1565b6126da6107fc565b612690565b503461043d5760007ffffffffffffffffffffffffffffffffffffffffffffffffffffffffffffffffc36011261043d57602060405173a5e0829caced8ffdd4de3c43696c57f7d7a678ff8152f35b503461043d5760407ffffffffffffffffffffffffffffffffffffffffffffffffffffffffffffffffc36011261043d5760206127ba61276a610622565b73ffffffffffffffffffffffffffffffffffffffff612787610645565b91166000526001835260406000209073ffffffffffffffffffffffffffffffffffffffff16600052602052604060002090565b54604051908152f35b503461043d5760007ffffffffffffffffffffffffffffffffffffffffffffffffffffffffffffffffc36011261043d57602073ffffffffffffffffffffffffffffffffffffffff600f5416604051908152f35b503461043d5760007ffffffffffffffffffffffffffffffffffffffffffffffffffffffffffffffffc36011261043d576020604051730d500b1d8e8ef31e21c99d1db9a6444d3adf12708152f35b507f4e487b7100000000000000000000000000000000000000000000000000000000600052601160045260246000fd5b811981116128a0570190565b6128a8612864565b0190565b156128b357565b60846040517f08c379a000000000000000000000000000000000000000000000000000000000815260206004820152602360248201527f45524332303a207472616e7366657220746f20746865207a65726f206164647260448201527f65737300000000000000000000000000000000000000000000000000000000006064820152fd5b1561293e57565b60846040517f08c379a000000000000000000000000000000000000000000000000000000000815260206004820152602660248201527f45524332303a207472616e7366657220616d6f756e742065786365656473206260448201527f616c616e636500000000000000000000000000000000000000000000000000006064820152fd5b919073ffffffffffffffffffffffffffffffffffffffff90818416928315612ac757612aa5827fddf252ad1be2c89b69c2b068fc378daa952ba7f163c4a11628f55a4df523b3ef94612ac2941696612a1b8815156128ac565b612a7e84612a498373ffffffffffffffffffffffffffffffffffffffff166000526000602052604060002090565b54612a5682821015612937565b039173ffffffffffffffffffffffffffffffffffffffff166000526000602052604060002090565b5573ffffffffffffffffffffffffffffffffffffffff166000526000602052604060002090565b612ab0828254612894565b90556040519081529081906020820190565b0390a3565b60846040517f08c379a000000000000000000000000000000000000000000000000000000000815260206004820152602560248201527f45524332303a207472616e736665722066726f6d20746865207a65726f20616460448201527f64726573730000000000000000000000000000000000000000000000000000006064820152fd5b9073ffffffffffffffffffffffffffffffffffffffff91828116928315612c82578216938415612bfe5780612bed7f8c5be1e5ebec7d5bd14f71427d1e84f3dd0314c0f7b2291e5b200ac8c7c3b92594612bc8612ac29573ffffffffffffffffffffffffffffffffffffffff166000526001602052604060002090565b9073ffffffffffffffffffffffffffffffffffffffff16600052602052604060002090565b556040519081529081906020820190565b60846040517f08c379a000000000000000000000000000000000000000000000000000000000815260206004820152602260248201527f45524332303a20617070726f766520746f20746865207a65726f20616464726560448201527f73730000000000000000000000000000000000000000000000000000000000006064820152fd5b60846040517f08c379a0000000000000000000000000000000000000000000000000000000008152602060048201526024808201527f45524332303a20617070726f76652066726f6d20746865207a65726f2061646460448201527f72657373000000000000000000000000000000000000000000000000000000006064820152fd5b519069ffffffffffffffffffff8216820361043d57565b506040513d6000823e3d90fd5b60a073ffffffffffffffffffffffffffffffffffffffff916004604051809481937ffeaf968c000000000000000000000000000000000000000000000000000000008352165afa908115612dcc575b600091612d83575090565b9060a0823d8211612dc4575b81612d9c60a09383611b1d565b8101031261061f5750612dae81612d05565b50612dc0608060208301519201612d05565b5090565b3d9150612d8f565b612dd4612d1c565b612d78565b80601210612de8575b60120390565b612df0612864565b612de2565b7fffffffffffffffffffffffffffffffffffffffffffffffffffffffffffffffff90600181106128a0570190565b818110612e2e570390565b612e36612864565b0390565b60405190610100820182811067ffffffffffffffff821117612e8c575b604052816060815260e06000918260208201528260408201528260608201528260808201528260a08201528260c08201520152565b612e94611aed565b612e57565b6040519060a0820182811067ffffffffffffffff821117612ee3575b604052600482528160005b60808110612ecc575050565b602090612ed7612e3a565b82828501015201612ec0565b612eeb611aed565b612eb5565b602090805115612efe570190565b6128a86107fc565b604090805160011015612efe570190565b606090805160021015612efe570190565b608090805160031015612efe570190565b6020918151811015612f4e575b60051b010190565b612f566107fc565b612f46565b60ff6001911660ff81146128a0570190565b9081602091031261043d575190565b9081602091031261043d575160ff8116810361043d5790565b7f7fffffffffffffffffffffffffffffffffffffffffffffffffffffffffffffff8111600116612fc6575b60011b90565b612fce612864565b612fc0565b807fffffffffffffffffffffffffffffffffffffffffffffffffffffffffffffffff04821181151516613004570290565b61300c612864565b0290565b604d811161301f575b600a0a90565b613027612864565b613019565b507f4e487b7100000000000000000000000000000000000000000000000000000000600052601260045260246000fd5b8115613066570490565b61306e61302c565b0490565b60008212827f80000000000000000000000000000000000000000000000000000000000000000182128115166130d1575b827f7fffffffffffffffffffffffffffffffffffffffffffffffffffffffffffffff01821316612e2e570390565b6130d9612864565b6130a3565b906130e882611b6b565b6130f56040519182611b1d565b8281527fffffffffffffffffffffffffffffffffffffffffffffffffffffffffffffffe06131238294611b6b565b0190602036910137565b604051906060820182811067ffffffffffffffff82111761315b575b60405260028252604082602036910137565b613163611aed565b613149565b604051906080820182811067ffffffffffffffff821117613195575b604052600382526060366020840137565b61319d611aed565b613184565b60008112817f7fffffffffffffffffffffffffffffffffffffffffffffffffffffffffffffff038313811516613201575b817f8000000000000000000000000000000000000000000000000000000000000000038312166128a0570190565b613209612864565b6131d3565b6305f5e1009060017c15798ee2308c39df9fb841a566d74f87a7a9a7aeb02c2d2f8e0d1e768d8211600083131616613274575b60017fffffffea86711dcf73c6206047be5a9928b078585658514fd3d2d071f2e189738212600083121616613004570290565b61327c612864565b613241565b81156132e3575b7fffffffffffffffffffffffffffffffffffffffffffffffffffffffffffffffff82147f80000000000000000000000000000000000000000000000000000000000000008214166132d7570590565b6132df612864565b0590565b6132eb61302c565b613288565b6101fe90607f60ff82161160011661330a575b60011b1690565b613312612864565b613303565b60ff6001911660fe81116128a0570190565b90815180825260208080930193019160005b828110613349575050505090565b835173ffffffffffffffffffffffffffffffffffffffff168552938101939281019260010161333b565b9061338690604083526040830190613329565b81810360209283015282518082529082019282019160005b8281106133ac575050505090565b83518552938101939281019260010161339e565b919060408382031261043d5767ffffffffffffffff92803584811161043d57826133eb918301611b92565b936020918281013591821161043d57019180601f8401121561043d57823561341281611b6b565b936134206040519586611b1d565b818552838086019260051b82010192831161043d578301905b828210613447575050505090565b81358152908301908301613439565b6000808212613463575090565b7f80000000000000000000000000000000000000000000000000000000000000008214612e2e570390565b9081602091031261043d5751801515810361043d5790565b604051907f095ea7b300000000000000000000000000000000000000000000000000000000825273a5e0829caced8ffdd4de3c43696c57f7d7a678ff600483015260248201526020816044816000730d500b1d8e8ef31e21c99d1db9a6444d3adf12705af18015613533575b6135195750565b6135309060203d811161229a576122928183611b1d565b50565b61353b612d1c565b613512565b604051907f095ea7b300000000000000000000000000000000000000000000000000000000825273a5e0829caced8ffdd4de3c43696c57f7d7a678ff60048301526024820152602081604481600073bbba073c31bf03b8acf7c28ef0738decf36956835af18015613533576135195750565b604051907f095ea7b300000000000000000000000000000000000000000000000000000000825273a5e0829caced8ffdd4de3c43696c57f7d7a678ff600483015260248201526020816044816000737ceb23fd6bc0add59e62ac25578270cff1b9f6195af18015613533576135195750565b604051907f095ea7b300000000000000000000000000000000000000000000000000000000825273a5e0829caced8ffdd4de3c43696c57f7d7a678ff600483015260248201526020816044816000731bfd67037b42cf73acf2047067bd4f2c47d9bfd65af18015613533576135195750565b602090604473ffffffffffffffffffffffffffffffffffffffff93600060405195869485937f095ea7b300000000000000000000000000000000000000000000000000000000855273a5e0829caced8ffdd4de3c43696c57f7d7a678ff60048601526024850152165af18015613533576135195750565b604051907f095ea7b300000000000000000000000000000000000000000000000000000000825273a5e0829caced8ffdd4de3c43696c57f7d7a678ff600483015260248201526020816044816000732791bca1f2de4661ed88a30c99a7a9449aa841745af18015613533576135195750565b6040517f095ea7b300000000000000000000000000000000000000000000000000000000815273ffffffffffffffffffffffffffffffffffffffff9283166004820152602481019390935260209183916044918391600091165af18015613533576135195750565b73ffffffffffffffffffffffffffffffffffffffff811691821561387a5760208161386460009461383b7fddf252ad1be2c89b69c2b068fc378daa952ba7f163c4a11628f55a4df523b3ef95600254612894565b60025573ffffffffffffffffffffffffffffffffffffffff166000526000602052604060002090565b61386f828254612894565b9055604051908152a3565b60646040517f08c379a000000000000000000000000000000000000000000000000000000000815260206004820152601f60248201527f45524332303a206d696e7420746f20746865207a65726f2061646472657373006044820152fd5b6138e130614292565b6040517ffeaf968c00000000000000000000000000000000000000000000000000000000815260a08160048173ab594600376ec9fd91f8e885dadf0ce036862de05afa9081156139a6575b600091613949575b5061306e9068056bc75e2d6310000092612fd3565b9060a0823d821161399e575b8161396260a09383611b1d565b8101031261061f575068056bc75e2d63100000918161398361306e93612d05565b50613995608060208301519201612d05565b50915091613934565b3d9150613955565b6139ae612d1c565b61392c565b6139bc30614329565b6040517ffeaf968c00000000000000000000000000000000000000000000000000000000815260a081600481733d49406edd4d52fb7ffd25485f32e073b529c9245afa9081156139a657600091613949575061306e9068056bc75e2d6310000092612fd3565b613a2b3061439a565b6040517ffeaf968c00000000000000000000000000000000000000000000000000000000815260a08160048173f9680d99d6c9589e2a93a78a04a279e5092059455afa9081156139a657600091613949575061306e9068056bc75e2d6310000092612fd3565b613a9a3061440b565b6040517ffeaf968c00000000000000000000000000000000000000000000000000000000815260a08160048173c907e116054ad103354f2d350fd2514433d57f6f5afa908115613b57575b600091613afe575b5061306e906402540be40092612fd3565b9060a0823d8211613b4f575b81613b1760a09383611b1d565b8101031261061f57506402540be4009181613b3461306e93612d05565b50613b46608060208301519201612d05565b50915091613aed565b3d9150613b0a565b613b5f612d1c565b613ae5565b6104c2613b6f6138d8565b612466613b7a6139b3565b612466613b85613a22565b91613b8e613a91565b94612894565b60405190600554808352826020918282019060056000527f036b6384b5eca791c62761152d0c79bb0604c104a5fb6f4eb0703f3154bb3db0936000905b828210613be957505050613be792500383611b1d565b565b855473ffffffffffffffffffffffffffffffffffffffff1684526001958601958895509381019390910190613bd1565b60405190600654808352826020918282019060066000527ff652222313e28459528d920b65115c16c04f3efc82aaedc97be59f3f377c0d3f936000905b828210613c6c57505050613be792500383611b1d565b855473ffffffffffffffffffffffffffffffffffffffff1684526001958601958895509381019390910190613c56565b60405190600754808352826020918282019060076000527fa66cc928b5edb82af9bd49922954155ab7b0942694bea4ce44661d9a8736c688936000905b828210613cef57505050613be792500383611b1d565b855473ffffffffffffffffffffffffffffffffffffffff1684526001958601958895509381019390910190613cd9565b60405190600854808352826020918282019060086000527ff3f7a9fe364faab93b216da50a3214154f22a0a2b415b23a84c8169e8b636ee3936000905b828210613d7257505050613be792500383611b1d565b855473ffffffffffffffffffffffffffffffffffffffff1684526001958601958895509381019390910190613d5c565b91613df98580613de68982613ddf82613e09999c613dd8613be79f613dcc613e139f9e8290612fd3565b9f8315613e1d57612fd3565b0498612fd3565b0497612fd3565b04963091613df2613b94565b91046145c8565b3090613e03613c19565b906145c8565b3090613e03613c9c565b3090613e03613d1f565b613e2561302c565b612fd3565b613be79060021c613e4330613e3d613b94565b836145c8565b613e4f30613e3d613c19565b613e1330613e3d613c9c565b613be791613e7d613e6a613b64565b828110613e98575b826002549103612fd3565b8115613e8b575b04906137e7565b613e9361302c565b613e84565b613ea0612864565b613e72565b73ffffffffffffffffffffffffffffffffffffffff8116908115613ff357613eed8173ffffffffffffffffffffffffffffffffffffffff166000526000602052604060002090565b54838110613f6f57837fddf252ad1be2c89b69c2b068fc378daa952ba7f163c4a11628f55a4df523b3ef92613f4a600096612ac294039173ffffffffffffffffffffffffffffffffffffffff166000526000602052604060002090565b55613f5f613f5a82600254612e23565b600255565b6040519081529081906020820190565b60846040517f08c379a000000000000000000000000000000000000000000000000000000000815260206004820152602260248201527f45524332303a206275726e20616d6f756e7420657863656564732062616c616e60448201527f63650000000000000000000000000000000000000000000000000000000000006064820152fd5b60846040517f08c379a000000000000000000000000000000000000000000000000000000000815260206004820152602160248201527f45524332303a206275726e2066726f6d20746865207a65726f2061646472657360448201527f73000000000000000000000000000000000000000000000000000000000000006064820152fd5b6040517fa9059cbb00000000000000000000000000000000000000000000000000000000815273ffffffffffffffffffffffffffffffffffffffff92909216600483015260248201526020816044816000732791bca1f2de4661ed88a30c99a7a9449aa841745af18015613533576135195750565b613be7906140f861312d565b805115614153575b730d500b1d8e8ef31e21c99d1db9a6444d3adf12706020820152805160011015614146575b732791bca1f2de4661ed88a30c99a7a9449aa84174604082015230916145c8565b61414e6107fc565b614125565b61415b6107fc565b614100565b613be79061416c61312d565b8051156141b9575b73bbba073c31bf03b8acf7c28ef0738decf3695683602082015280516001101561414657732791bca1f2de4661ed88a30c99a7a9449aa84174604082015230916145c8565b6141c16107fc565b614174565b613be7906141d261312d565b80511561421f575b737ceb23fd6bc0add59e62ac25578270cff1b9f619602082015280516001101561414657732791bca1f2de4661ed88a30c99a7a9449aa84174604082015230916145c8565b6142276107fc565b6141da565b613be79061423861312d565b805115614285575b731bfd67037b42cf73acf2047067bd4f2c47d9bfd6602082015280516001101561414657732791bca1f2de4661ed88a30c99a7a9449aa84174604082015230916145c8565b61428d6107fc565b614240565b73ffffffffffffffffffffffffffffffffffffffff604051917f70a08231000000000000000000000000000000000000000000000000000000008352166004820152602081602481730d500b1d8e8ef31e21c99d1db9a6444d3adf12705afa90811561431c575b600091614304575090565b6104c2915060203d811161159d5761158f8183611b1d565b614324612d1c565b6142f9565b73ffffffffffffffffffffffffffffffffffffffff604051917f70a0823100000000000000000000000000000000000000000000000000000000835216600482015260208160248173bbba073c31bf03b8acf7c28ef0738decf36956835afa90811561431c57600091614304575090565b73ffffffffffffffffffffffffffffffffffffffff604051917f70a08231000000000000000000000000000000000000000000000000000000008352166004820152602081602481737ceb23fd6bc0add59e62ac25578270cff1b9f6195afa90811561431c57600091614304575090565b73ffffffffffffffffffffffffffffffffffffffff604051917f70a08231000000000000000000000000000000000000000000000000000000008352166004820152602081602481731bfd67037b42cf73acf2047067bd4f2c47d9bfd65afa90811561431c57600091614304575090565b73ffffffffffffffffffffffffffffffffffffffff604051917f70a08231000000000000000000000000000000000000000000000000000000008352166004820152602081602481732791bca1f2de4661ed88a30c99a7a9449aa841745afa90811561431c57600091614304575090565b6020906024604051809481937f70a0823100000000000000000000000000000000000000000000000000000000835273ffffffffffffffffffffffffffffffffffffffff8092166004840152165afa90811561431c57600091614304575090565b602090818184031261043d5780519067ffffffffffffffff821161043d57019180601f8401121561043d57825161458481611b6b565b936145926040519586611b1d565b818552838086019260051b82010192831161043d578301905b8282106145b9575050505090565b815181529083019083016145ab565b91614636906000928373ffffffffffffffffffffffffffffffffffffffff9586600f541693604051978896879586947f38ed1739000000000000000000000000000000000000000000000000000000008652600486015285602486015260a0604486015260a4850190613329565b9116606483015264174876e7ff608483015203925af1801561466e575b61465a5750565b613530903d806000833e611d0d8183611b1d565b614676612d1c565b61465356fea2646970667358221220eb0ae572de753c572d6c981bb086429f500b96bbd3f24fe69a0e11dd547cee2e64736f6c634300080d00330000000000000000000000002791bca1f2de4661ed88a30c99a7a9449aa84174","opcodes":"PUSH1 0x80 PUSH1 0x40 MSTORE CALLVALUE PUSH3 0x274 JUMPI PUSH3 0x29 PUSH3 0x18 PUSH3 0x2BF JUMP JUMPDEST PUSH3 0x22 PUSH3 0x2E5 JUMP JUMPDEST SWAP1 PUSH3 0x9EE JUMP JUMPDEST PUSH3 0x232 PUSH3 0x37 PUSH3 0x290 JUMP JUMPDEST PUSH1 0x0 DUP1 MLOAD PUSH1 0x20 PUSH3 0x51B9 DUP4 CODECOPY DUP2 MLOAD SWAP2 MSTORE DUP2 MSTORE PUSH3 0x76 PUSH1 0x20 SWAP2 PUSH3 0x70 DUP4 DUP3 ADD PUSH20 0xD500B1D8E8EF31E21C99D1DB9A6444D3ADF1270 SWAP1 MSTORE JUMP JUMPDEST PUSH3 0x31B JUMP JUMPDEST PUSH3 0xB5 PUSH3 0x84 PUSH3 0x290 JUMP JUMPDEST PUSH1 0x0 DUP1 MLOAD PUSH1 0x20 PUSH3 0x51B9 DUP4 CODECOPY DUP2 MLOAD SWAP2 MSTORE DUP2 MSTORE PUSH20 0xBBBA073C31BF03B8ACF7C28EF0738DECF3695683 DUP2 DUP5 ADD MSTORE PUSH3 0x3BC JUMP JUMPDEST PUSH3 0xF4 PUSH3 0xC3 PUSH3 0x290 JUMP JUMPDEST PUSH1 0x0 DUP1 MLOAD PUSH1 0x20 PUSH3 0x51B9 DUP4 CODECOPY DUP2 MLOAD SWAP2 MSTORE DUP2 MSTORE PUSH20 0x7CEB23FD6BC0ADD59E62AC25578270CFF1B9F619 DUP2 DUP5 ADD MSTORE PUSH3 0x45D JUMP JUMPDEST PUSH3 0x133 PUSH3 0x102 PUSH3 0x290 JUMP JUMPDEST PUSH1 0x0 DUP1 MLOAD PUSH1 0x20 PUSH3 0x51B9 DUP4 CODECOPY DUP2 MLOAD SWAP2 MSTORE DUP2 MSTORE PUSH20 0x1BFD67037B42CF73ACF2047067BD4F2C47D9BFD6 DUP2 DUP5 ADD MSTORE PUSH3 0x4FE JUMP JUMPDEST PUSH3 0x172 PUSH3 0x141 PUSH3 0x290 JUMP JUMPDEST PUSH20 0xD500B1D8E8EF31E21C99D1DB9A6444D3ADF1270 DUP2 MSTORE PUSH1 0x0 DUP1 MLOAD PUSH1 0x20 PUSH3 0x51B9 DUP4 CODECOPY DUP2 MLOAD SWAP2 MSTORE DUP2 DUP5 ADD MSTORE PUSH3 0x59F JUMP JUMPDEST PUSH3 0x1B1 PUSH3 0x180 PUSH3 0x290 JUMP JUMPDEST PUSH20 0xBBBA073C31BF03B8ACF7C28EF0738DECF3695683 DUP2 MSTORE PUSH1 0x0 DUP1 MLOAD PUSH1 0x20 PUSH3 0x51B9 DUP4 CODECOPY DUP2 MLOAD SWAP2 MSTORE DUP2 DUP5 ADD MSTORE PUSH3 0x640 JUMP JUMPDEST PUSH3 0x1F0 PUSH3 0x1BF PUSH3 0x290 JUMP JUMPDEST PUSH20 0x7CEB23FD6BC0ADD59E62AC25578270CFF1B9F619 DUP2 MSTORE PUSH1 0x0 DUP1 MLOAD PUSH1 0x20 PUSH3 0x51B9 DUP4 CODECOPY DUP2 MLOAD SWAP2 MSTORE DUP2 DUP5 ADD MSTORE PUSH3 0x6E1 JUMP JUMPDEST PUSH3 0x22C PUSH3 0x1FE PUSH3 0x290 JUMP JUMPDEST PUSH20 0x1BFD67037B42CF73ACF2047067BD4F2C47D9BFD6 DUP2 MSTORE SWAP2 DUP3 ADD PUSH1 0x0 DUP1 MLOAD PUSH1 0x20 PUSH3 0x51B9 DUP4 CODECOPY DUP2 MLOAD SWAP2 MSTORE SWAP1 MSTORE JUMP JUMPDEST PUSH3 0x782 JUMP JUMPDEST PUSH3 0x23E PUSH2 0xE10 PUSH1 0xE SSTORE JUMP JUMPDEST PUSH1 0xF DUP1 SLOAD PUSH1 0x1 PUSH1 0x1 PUSH1 0xA0 SHL SUB NOT AND PUSH20 0xA5E0829CACED8FFDD4DE3C43696C57F7D7A678FF OR SWAP1 SSTORE PUSH1 0x40 MLOAD PUSH2 0x46B1 SWAP1 DUP2 PUSH3 0xB08 DUP3 CODECOPY RETURN JUMPDEST PUSH1 0x0 DUP1 REVERT JUMPDEST POP PUSH4 0x4E487B71 PUSH1 0xE0 SHL PUSH1 0x0 MSTORE PUSH1 0x41 PUSH1 0x4 MSTORE PUSH1 0x24 PUSH1 0x0 REVERT JUMPDEST PUSH1 0x40 DUP1 MLOAD SWAP2 SWAP1 DUP3 ADD PUSH1 0x1 PUSH1 0x1 PUSH1 0x40 SHL SUB DUP2 GT DUP4 DUP3 LT OR PUSH3 0x2B0 JUMPI PUSH1 0x40 MSTORE JUMP JUMPDEST PUSH3 0x2BA PUSH3 0x279 JUMP JUMPDEST PUSH1 0x40 MSTORE JUMP JUMPDEST PUSH3 0x2C9 PUSH3 0x290 JUMP JUMPDEST SWAP1 PUSH1 0xC DUP3 MSTORE PUSH12 0x30BABA37A130B630B731B2B9 PUSH1 0xA1 SHL PUSH1 0x20 DUP4 ADD MSTORE JUMP JUMPDEST PUSH3 0x2EF PUSH3 0x290 JUMP JUMPDEST SWAP1 PUSH1 0x3 DUP3 MSTORE PUSH3 0x414241 PUSH1 0xE8 SHL PUSH1 0x20 DUP4 ADD MSTORE JUMP JUMPDEST DUP2 DUP2 LT PUSH3 0x30E JUMPI POP POP JUMP JUMPDEST PUSH1 0x0 DUP2 SSTORE PUSH1 0x1 ADD PUSH3 0x302 JUMP JUMPDEST PUSH1 0x5 SLOAD SWAP1 PUSH1 0x2 SWAP2 DUP3 PUSH1 0x5 SSTORE DUP1 DUP4 LT PUSH3 0x37E JUMPI JUMPDEST POP PUSH1 0x5 PUSH1 0x0 MSTORE PUSH1 0x20 DUP1 PUSH1 0x0 KECCAK256 PUSH1 0x0 SWAP3 JUMPDEST DUP5 DUP5 LT PUSH3 0x34E JUMPI POP POP POP POP POP JUMP JUMPDEST DUP1 MLOAD DUP3 SLOAD PUSH1 0x1 PUSH1 0x1 PUSH1 0xA0 SHL SUB NOT AND PUSH1 0x1 PUSH1 0x1 PUSH1 0xA0 SHL SUB SWAP2 SWAP1 SWAP2 AND OR DUP3 SSTORE PUSH1 0x1 SWAP4 DUP5 ADD SWAP4 SWAP2 SWAP1 SWAP2 ADD SWAP1 DUP3 ADD PUSH3 0x33F JUMP JUMPDEST PUSH1 0x5 PUSH1 0x0 MSTORE PUSH3 0x3B5 SWAP1 PUSH32 0x36B6384B5ECA791C62761152D0C79BB0604C104A5FB6F4EB0703F3154BB3DB0 SWAP1 DUP2 ADD SWAP1 DUP5 ADD PUSH3 0x302 JUMP JUMPDEST CODESIZE PUSH3 0x32F JUMP JUMPDEST PUSH1 0x6 SLOAD SWAP1 PUSH1 0x2 SWAP2 DUP3 PUSH1 0x6 SSTORE DUP1 DUP4 LT PUSH3 0x41F JUMPI JUMPDEST POP PUSH1 0x6 PUSH1 0x0 MSTORE PUSH1 0x20 DUP1 PUSH1 0x0 KECCAK256 PUSH1 0x0 SWAP3 JUMPDEST DUP5 DUP5 LT PUSH3 0x3EF JUMPI POP POP POP POP POP JUMP JUMPDEST DUP1 MLOAD DUP3 SLOAD PUSH1 0x1 PUSH1 0x1 PUSH1 0xA0 SHL SUB NOT AND PUSH1 0x1 PUSH1 0x1 PUSH1 0xA0 SHL SUB SWAP2 SWAP1 SWAP2 AND OR DUP3 SSTORE PUSH1 0x1 SWAP4 DUP5 ADD SWAP4 SWAP2 SWAP1 SWAP2 ADD SWAP1 DUP3 ADD PUSH3 0x3E0 JUMP JUMPDEST PUSH1 0x6 PUSH1 0x0 MSTORE PUSH3 0x456 SWAP1 PUSH32 0xF652222313E28459528D920B65115C16C04F3EFC82AAEDC97BE59F3F377C0D3F SWAP1 DUP2 ADD SWAP1 DUP5 ADD PUSH3 0x302 JUMP JUMPDEST CODESIZE PUSH3 0x3D0 JUMP JUMPDEST PUSH1 0x7 SLOAD SWAP1 PUSH1 0x2 SWAP2 DUP3 PUSH1 0x7 SSTORE DUP1 DUP4 LT PUSH3 0x4C0 JUMPI JUMPDEST POP PUSH1 0x7 PUSH1 0x0 MSTORE PUSH1 0x20 DUP1 PUSH1 0x0 KECCAK256 PUSH1 0x0 SWAP3 JUMPDEST DUP5 DUP5 LT PUSH3 0x490 JUMPI POP POP POP POP POP JUMP JUMPDEST DUP1 MLOAD DUP3 SLOAD PUSH1 0x1 PUSH1 0x1 PUSH1 0xA0 SHL SUB NOT AND PUSH1 0x1 PUSH1 0x1 PUSH1 0xA0 SHL SUB SWAP2 SWAP1 SWAP2 AND OR DUP3 SSTORE PUSH1 0x1 SWAP4 DUP5 ADD SWAP4 SWAP2 SWAP1 SWAP2 ADD SWAP1 DUP3 ADD PUSH3 0x481 JUMP JUMPDEST PUSH1 0x7 PUSH1 0x0 MSTORE PUSH3 0x4F7 SWAP1 PUSH32 0xA66CC928B5EDB82AF9BD49922954155AB7B0942694BEA4CE44661D9A8736C688 SWAP1 DUP2 ADD SWAP1 DUP5 ADD PUSH3 0x302 JUMP JUMPDEST CODESIZE PUSH3 0x471 JUMP JUMPDEST PUSH1 0x8 SLOAD SWAP1 PUSH1 0x2 SWAP2 DUP3 PUSH1 0x8 SSTORE DUP1 DUP4 LT PUSH3 0x561 JUMPI JUMPDEST POP PUSH1 0x8 PUSH1 0x0 MSTORE PUSH1 0x20 DUP1 PUSH1 0x0 KECCAK256 PUSH1 0x0 SWAP3 JUMPDEST DUP5 DUP5 LT PUSH3 0x531 JUMPI POP POP POP POP POP JUMP JUMPDEST DUP1 MLOAD DUP3 SLOAD PUSH1 0x1 PUSH1 0x1 PUSH1 0xA0 SHL SUB NOT AND PUSH1 0x1 PUSH1 0x1 PUSH1 0xA0 SHL SUB SWAP2 SWAP1 SWAP2 AND OR DUP3 SSTORE PUSH1 0x1 SWAP4 DUP5 ADD SWAP4 SWAP2 SWAP1 SWAP2 ADD SWAP1 DUP3 ADD PUSH3 0x522 JUMP JUMPDEST PUSH1 0x8 PUSH1 0x0 MSTORE PUSH3 0x598 SWAP1 PUSH32 0xF3F7A9FE364FAAB93B216DA50A3214154F22A0A2B415B23A84C8169E8B636EE3 SWAP1 DUP2 ADD SWAP1 DUP5 ADD PUSH3 0x302 JUMP JUMPDEST CODESIZE PUSH3 0x512 JUMP JUMPDEST PUSH1 0x9 SLOAD SWAP1 PUSH1 0x2 SWAP2 DUP3 PUSH1 0x9 SSTORE DUP1 DUP4 LT PUSH3 0x602 JUMPI JUMPDEST POP PUSH1 0x9 PUSH1 0x0 MSTORE PUSH1 0x20 DUP1 PUSH1 0x0 KECCAK256 PUSH1 0x0 SWAP3 JUMPDEST DUP5 DUP5 LT PUSH3 0x5D2 JUMPI POP POP POP POP POP JUMP JUMPDEST DUP1 MLOAD DUP3 SLOAD PUSH1 0x1 PUSH1 0x1 PUSH1 0xA0 SHL SUB NOT AND PUSH1 0x1 PUSH1 0x1 PUSH1 0xA0 SHL SUB SWAP2 SWAP1 SWAP2 AND OR DUP3 SSTORE PUSH1 0x1 SWAP4 DUP5 ADD SWAP4 SWAP2 SWAP1 SWAP2 ADD SWAP1 DUP3 ADD PUSH3 0x5C3 JUMP JUMPDEST PUSH1 0x9 PUSH1 0x0 MSTORE PUSH3 0x639 SWAP1 PUSH32 0x6E1540171B6C0C960B71A7020D9F60077F6AF931A8BBF590DA0223DACF75C7AF SWAP1 DUP2 ADD SWAP1 DUP5 ADD PUSH3 0x302 JUMP JUMPDEST CODESIZE PUSH3 0x5B3 JUMP JUMPDEST PUSH1 0xA SLOAD SWAP1 PUSH1 0x2 SWAP2 DUP3 PUSH1 0xA SSTORE DUP1 DUP4 LT PUSH3 0x6A3 JUMPI JUMPDEST POP PUSH1 0xA PUSH1 0x0 MSTORE PUSH1 0x20 DUP1 PUSH1 0x0 KECCAK256 PUSH1 0x0 SWAP3 JUMPDEST DUP5 DUP5 LT PUSH3 0x673 JUMPI POP POP POP POP POP JUMP JUMPDEST DUP1 MLOAD DUP3 SLOAD PUSH1 0x1 PUSH1 0x1 PUSH1 0xA0 SHL SUB NOT AND PUSH1 0x1 PUSH1 0x1 PUSH1 0xA0 SHL SUB SWAP2 SWAP1 SWAP2 AND OR DUP3 SSTORE PUSH1 0x1 SWAP4 DUP5 ADD SWAP4 SWAP2 SWAP1 SWAP2 ADD SWAP1 DUP3 ADD PUSH3 0x664 JUMP JUMPDEST PUSH1 0xA PUSH1 0x0 MSTORE PUSH3 0x6DA SWAP1 PUSH32 0xC65A7BB8D6351C1CF70C95A316CC6A92839C986682D98BC35F958F4883F9D2A8 SWAP1 DUP2 ADD SWAP1 DUP5 ADD PUSH3 0x302 JUMP JUMPDEST CODESIZE PUSH3 0x654 JUMP JUMPDEST PUSH1 0xB SLOAD SWAP1 PUSH1 0x2 SWAP2 DUP3 PUSH1 0xB SSTORE DUP1 DUP4 LT PUSH3 0x744 JUMPI JUMPDEST POP PUSH1 0xB PUSH1 0x0 MSTORE PUSH1 0x20 DUP1 PUSH1 0x0 KECCAK256 PUSH1 0x0 SWAP3 JUMPDEST DUP5 DUP5 LT PUSH3 0x714 JUMPI POP POP POP POP POP JUMP JUMPDEST DUP1 MLOAD DUP3 SLOAD PUSH1 0x1 PUSH1 0x1 PUSH1 0xA0 SHL SUB NOT AND PUSH1 0x1 PUSH1 0x1 PUSH1 0xA0 SHL SUB SWAP2 SWAP1 SWAP2 AND OR DUP3 SSTORE PUSH1 0x1 SWAP4 DUP5 ADD SWAP4 SWAP2 SWAP1 SWAP2 ADD SWAP1 DUP3 ADD PUSH3 0x705 JUMP JUMPDEST PUSH1 0xB PUSH1 0x0 MSTORE PUSH3 0x77B SWAP1 PUSH32 0x175B7A638427703F0DBE7BB9BBF987A2551717B34E79F33B5B1008D1FA01DB9 SWAP1 DUP2 ADD SWAP1 DUP5 ADD PUSH3 0x302 JUMP JUMPDEST CODESIZE PUSH3 0x6F5 JUMP JUMPDEST PUSH1 0xC SLOAD SWAP1 PUSH1 0x2 SWAP2 DUP3 PUSH1 0xC SSTORE DUP1 DUP4 LT PUSH3 0x7E5 JUMPI JUMPDEST POP PUSH1 0xC PUSH1 0x0 MSTORE PUSH1 0x20 DUP1 PUSH1 0x0 KECCAK256 PUSH1 0x0 SWAP3 JUMPDEST DUP5 DUP5 LT PUSH3 0x7B5 JUMPI POP POP POP POP POP JUMP JUMPDEST DUP1 MLOAD DUP3 SLOAD PUSH1 0x1 PUSH1 0x1 PUSH1 0xA0 SHL SUB NOT AND PUSH1 0x1 PUSH1 0x1 PUSH1 0xA0 SHL SUB SWAP2 SWAP1 SWAP2 AND OR DUP3 SSTORE PUSH1 0x1 SWAP4 DUP5 ADD SWAP4 SWAP2 SWAP1 SWAP2 ADD SWAP1 DUP3 ADD PUSH3 0x7A6 JUMP JUMPDEST PUSH1 0xC PUSH1 0x0 MSTORE PUSH3 0x81C SWAP1 PUSH32 0xDF6966C971051C3D54EC59162606531493A51404A002842F56009D7E5CF4A8C7 SWAP1 DUP2 ADD SWAP1 DUP5 ADD PUSH3 0x302 JUMP JUMPDEST CODESIZE PUSH3 0x796 JUMP JUMPDEST SWAP1 PUSH1 0x1 DUP3 DUP2 SHR SWAP3 AND DUP1 ISZERO PUSH3 0x855 JUMPI JUMPDEST PUSH1 0x20 DUP4 LT EQ PUSH3 0x83F JUMPI JUMP JUMPDEST PUSH4 0x4E487B71 PUSH1 0xE0 SHL PUSH1 0x0 MSTORE PUSH1 0x22 PUSH1 0x4 MSTORE PUSH1 0x24 PUSH1 0x0 REVERT JUMPDEST SWAP2 PUSH1 0x7F AND SWAP2 PUSH3 0x833 JUMP JUMPDEST SWAP1 PUSH1 0x1F DUP3 GT PUSH3 0x86E JUMPI POP POP JUMP JUMPDEST PUSH3 0x89F SWAP2 PUSH1 0x3 PUSH1 0x0 MSTORE PUSH1 0x20 PUSH1 0x0 KECCAK256 SWAP1 PUSH1 0x20 PUSH1 0x1F DUP5 ADD PUSH1 0x5 SHR DUP4 ADD SWAP4 LT PUSH3 0x8A1 JUMPI JUMPDEST PUSH1 0x1F ADD PUSH1 0x5 SHR ADD SWAP1 PUSH3 0x302 JUMP JUMPDEST JUMP JUMPDEST SWAP1 SWAP2 POP DUP2 SWAP1 PUSH3 0x891 JUMP JUMPDEST SWAP1 PUSH1 0x1F DUP3 GT PUSH3 0x8BA JUMPI POP POP JUMP JUMPDEST PUSH3 0x89F SWAP2 PUSH1 0x4 PUSH1 0x0 MSTORE PUSH1 0x20 PUSH1 0x0 KECCAK256 SWAP1 PUSH1 0x20 PUSH1 0x1F DUP5 ADD PUSH1 0x5 SHR DUP4 ADD SWAP4 LT PUSH3 0x8A1 JUMPI PUSH1 0x1F ADD PUSH1 0x5 SHR ADD SWAP1 PUSH3 0x302 JUMP JUMPDEST DUP1 MLOAD SWAP1 SWAP2 SWAP1 PUSH1 0x1 PUSH1 0x1 PUSH1 0x40 SHL SUB DUP2 GT PUSH3 0x9DE JUMPI JUMPDEST PUSH3 0x917 DUP2 PUSH3 0x911 PUSH1 0x4 SLOAD PUSH3 0x823 JUMP JUMPDEST PUSH3 0x8AC JUMP JUMPDEST PUSH1 0x20 DUP1 PUSH1 0x1F DUP4 GT PUSH1 0x1 EQ PUSH3 0x956 JUMPI POP DUP2 SWAP3 SWAP4 PUSH1 0x0 SWAP3 PUSH3 0x94A JUMPI JUMPDEST POP POP DUP2 PUSH1 0x1 SHL SWAP2 PUSH1 0x0 NOT SWAP1 PUSH1 0x3 SHL SHR NOT AND OR PUSH1 0x4 SSTORE JUMP JUMPDEST ADD MLOAD SWAP1 POP CODESIZE DUP1 PUSH3 0x933 JUMP JUMPDEST PUSH1 0x4 PUSH1 0x0 MSTORE PUSH1 0x1F NOT DUP4 AND SWAP5 SWAP1 SWAP2 SWAP1 PUSH32 0x8A35ACFBC15FF81A39AE7D344FD709F28E8600B4AA8C65C6B64BFE7FE36BD19B SWAP3 PUSH1 0x0 SWAP1 JUMPDEST DUP8 DUP3 LT PUSH3 0x9C5 JUMPI POP POP DUP4 PUSH1 0x1 SWAP6 SWAP7 LT PUSH3 0x9AB JUMPI JUMPDEST POP POP POP DUP2 SHL ADD PUSH1 0x4 SSTORE JUMP JUMPDEST ADD MLOAD PUSH1 0x0 NOT PUSH1 0xF8 DUP5 PUSH1 0x3 SHL AND SHR NOT AND SWAP1 SSTORE CODESIZE DUP1 DUP1 PUSH3 0x9A0 JUMP JUMPDEST DUP1 PUSH1 0x1 DUP6 SWAP7 DUP3 SWAP5 SWAP7 DUP7 ADD MLOAD DUP2 SSTORE ADD SWAP6 ADD SWAP4 ADD SWAP1 PUSH3 0x98A JUMP JUMPDEST PUSH3 0x9E8 PUSH3 0x279 JUMP JUMPDEST PUSH3 0x8FF JUMP JUMPDEST DUP1 MLOAD SWAP1 SWAP2 SWAP1 PUSH1 0x1 PUSH1 0x1 PUSH1 0x40 SHL SUB DUP2 GT PUSH3 0xAF7 JUMPI JUMPDEST PUSH3 0xA1B DUP2 PUSH3 0xA15 PUSH1 0x3 SLOAD PUSH3 0x823 JUMP JUMPDEST PUSH3 0x860 JUMP JUMPDEST PUSH1 0x20 DUP1 PUSH1 0x1F DUP4 GT PUSH1 0x1 EQ PUSH3 0xA62 JUMPI POP DUP2 SWAP1 PUSH3 0x89F SWAP5 PUSH1 0x0 SWAP3 PUSH3 0xA56 JUMPI JUMPDEST POP POP DUP2 PUSH1 0x1 SHL SWAP2 PUSH1 0x0 NOT SWAP1 PUSH1 0x3 SHL SHR NOT AND OR PUSH1 0x3 SSTORE PUSH3 0x8EA JUMP JUMPDEST ADD MLOAD SWAP1 POP CODESIZE DUP1 PUSH3 0xA3B JUMP JUMPDEST PUSH1 0x3 PUSH1 0x0 MSTORE SWAP3 SWAP4 SWAP2 SWAP3 SWAP2 PUSH1 0x1F NOT DUP5 AND PUSH32 0xC2575A0E9E593C00F959F8C92F12DB2869C3395A3B0502D05E2516446F71F85B SWAP4 PUSH1 0x0 SWAP1 JUMPDEST DUP3 DUP3 LT PUSH3 0xADE JUMPI POP POP SWAP2 PUSH1 0x1 SWAP4 SWAP2 DUP6 PUSH3 0x89F SWAP8 SWAP7 SWAP5 LT PUSH3 0xAC4 JUMPI JUMPDEST POP POP POP DUP2 SHL ADD PUSH1 0x3 SSTORE PUSH3 0x8EA JUMP JUMPDEST ADD MLOAD PUSH1 0x0 NOT PUSH1 0xF8 DUP5 PUSH1 0x3 SHL AND SHR NOT AND SWAP1 SSTORE CODESIZE DUP1 DUP1 PUSH3 0xAB5 JUMP JUMPDEST DUP1 PUSH1 0x1 DUP7 SWAP8 DUP3 SWAP5 SWAP8 DUP8 ADD MLOAD DUP2 SSTORE ADD SWAP7 ADD SWAP5 ADD SWAP1 PUSH3 0xA97 JUMP JUMPDEST PUSH3 0xB01 PUSH3 0x279 JUMP JUMPDEST PUSH3 0xA03 JUMP INVALID PUSH1 0x80 PUSH1 0x40 MSTORE PUSH1 0x4 CALLDATASIZE LT ISZERO PUSH2 0x1B JUMPI JUMPDEST CALLDATASIZE ISZERO PUSH2 0x19 JUMPI PUSH1 0x0 DUP1 REVERT JUMPDEST STOP JUMPDEST PUSH1 0x0 CALLDATALOAD PUSH1 0xE0 SHR DUP1 PUSH4 0x40141E5 EQ PUSH2 0x3EF JUMPI DUP1 PUSH4 0x6FDDE03 EQ PUSH2 0x3E6 JUMPI DUP1 PUSH4 0x95EA7B3 EQ PUSH2 0x3DD JUMPI DUP1 PUSH4 0x153F29C7 EQ PUSH2 0x3D4 JUMPI DUP1 PUSH4 0x16345F18 EQ PUSH2 0x3CB JUMPI DUP1 PUSH4 0x18160DDD EQ PUSH2 0x3C2 JUMPI DUP1 PUSH4 0x1BEA8006 EQ PUSH2 0x3B9 JUMPI DUP1 PUSH4 0x22A90082 EQ PUSH2 0x3B0 JUMPI DUP1 PUSH4 0x23AAD7AF EQ PUSH2 0x3A7 JUMPI DUP1 PUSH4 0x23B872DD EQ PUSH2 0x39E JUMPI DUP1 PUSH4 0x24E2E7BB EQ PUSH2 0x395 JUMPI DUP1 PUSH4 0x29A97EC2 EQ PUSH2 0x38C JUMPI DUP1 PUSH4 0x2D365D31 EQ PUSH2 0x383 JUMPI DUP1 PUSH4 0x313CE567 EQ PUSH2 0x37A JUMPI DUP1 PUSH4 0x39509351 EQ PUSH2 0x371 JUMPI DUP1 PUSH4 0x3F3B3B27 EQ PUSH2 0x368 JUMPI DUP1 PUSH4 0x44345F23 EQ PUSH2 0x35F JUMPI DUP1 PUSH4 0x4585E33B EQ PUSH2 0x356 JUMPI DUP1 PUSH4 0x51F54887 EQ PUSH2 0x34D JUMPI DUP1 PUSH4 0x681BCF13 EQ PUSH2 0x344 JUMPI DUP1 PUSH4 0x69BC4388 EQ PUSH2 0x33B JUMPI DUP1 PUSH4 0x6E04FF0D EQ PUSH2 0x332 JUMPI DUP1 PUSH4 0x70A08231 EQ PUSH2 0x329 JUMPI DUP1 PUSH4 0x718176E5 EQ PUSH2 0x320 JUMPI DUP1 PUSH4 0x764F96F9 EQ PUSH2 0x317 JUMPI DUP1 PUSH4 0x88E42B08 EQ PUSH2 0x30E JUMPI DUP1 PUSH4 0x8DB9F39A EQ PUSH2 0x305 JUMPI DUP1 PUSH4 0x90F11E84 EQ PUSH2 0x2FC JUMPI DUP1 PUSH4 0x94362E8B EQ PUSH2 0x2F3 JUMPI DUP1 PUSH4 0x947A36FB EQ PUSH2 0x2EA JUMPI DUP1 PUSH4 0x95D89B41 EQ PUSH2 0x2E1 JUMPI DUP1 PUSH4 0xA15C7D10 EQ PUSH2 0x2D8 JUMPI DUP1 PUSH4 0xA457C2D7 EQ PUSH2 0x2CF JUMPI DUP1 PUSH4 0xA48CE279 EQ PUSH2 0x2C6 JUMPI DUP1 PUSH4 0xA9059CBB EQ PUSH2 0x2BD JUMPI DUP1 PUSH4 0xAA5A7AA3 EQ PUSH2 0x2B4 JUMPI DUP1 PUSH4 0xB460AF94 EQ PUSH2 0x2AB JUMPI DUP1 PUSH4 0xB6E20A6A EQ PUSH2 0x2A2 JUMPI DUP1 PUSH4 0xBB09D9B7 EQ PUSH2 0x299 JUMPI DUP1 PUSH4 0xBDD5915F EQ PUSH2 0x290 JUMPI DUP1 PUSH4 0xC5764EEC EQ PUSH2 0x287 JUMPI DUP1 PUSH4 0xCA970905 EQ PUSH2 0x27E JUMPI DUP1 PUSH4 0xCB3601B1 EQ PUSH2 0x275 JUMPI DUP1 PUSH4 0xCD3F5B53 EQ PUSH2 0x26C JUMPI DUP1 PUSH4 0xCF412810 EQ PUSH2 0x263 JUMPI DUP1 PUSH4 0xD0919116 EQ PUSH2 0x25A JUMPI DUP1 PUSH4 0xDD62ED3E EQ PUSH2 0x251 JUMPI DUP1 PUSH4 0xE189EB42 EQ PUSH2 0x248 JUMPI PUSH4 0xE95D8328 SUB PUSH2 0xE JUMPI PUSH2 0x243 PUSH2 0x2816 JUMP JUMPDEST PUSH2 0xE JUMP JUMPDEST POP PUSH2 0x243 PUSH2 0x27C3 JUMP JUMPDEST POP PUSH2 0x243 PUSH2 0x272D JUMP JUMPDEST POP PUSH2 0x243 PUSH2 0x26DF JUMP JUMPDEST POP PUSH2 0x243 PUSH2 0x262F JUMP JUMPDEST POP PUSH2 0x243 PUSH2 0x25E1 JUMP JUMPDEST POP PUSH2 0x243 PUSH2 0x255B JUMP JUMPDEST POP PUSH2 0x243 PUSH2 0x24D5 JUMP JUMPDEST POP PUSH2 0x243 PUSH2 0x2398 JUMP JUMPDEST POP PUSH2 0x243 PUSH2 0x234A JUMP JUMPDEST POP PUSH2 0x243 PUSH2 0x22FC JUMP JUMPDEST POP PUSH2 0x243 PUSH2 0x22AE JUMP JUMPDEST POP PUSH2 0x243 PUSH2 0x21B4 JUMP JUMPDEST POP PUSH2 0x243 PUSH2 0x20E2 JUMP JUMPDEST POP PUSH2 0x243 PUSH2 0x209D JUMP JUMPDEST POP PUSH2 0x243 PUSH2 0x2017 JUMP JUMPDEST POP PUSH2 0x243 PUSH2 0x1F0B JUMP JUMPDEST POP PUSH2 0x243 PUSH2 0x1E85 JUMP JUMPDEST POP PUSH2 0x243 PUSH2 0x1DA3 JUMP JUMPDEST POP PUSH2 0x243 PUSH2 0x1D66 JUMP JUMPDEST POP PUSH2 0x243 PUSH2 0x1D22 JUMP JUMPDEST POP PUSH2 0x243 PUSH2 0x1C0D JUMP JUMPDEST POP PUSH2 0x243 PUSH2 0x1A9F JUMP JUMPDEST POP PUSH2 0x243 PUSH2 0x1A64 JUMP JUMPDEST POP PUSH2 0x243 PUSH2 0x1A1A JUMP JUMPDEST POP PUSH2 0x243 PUSH2 0x19CC JUMP JUMPDEST POP PUSH2 0x243 PUSH2 0x1966 JUMP JUMPDEST POP PUSH2 0x243 PUSH2 0x1209 JUMP JUMPDEST POP PUSH2 0x243 PUSH2 0x116A JUMP JUMPDEST POP PUSH2 0x243 PUSH2 0x10E4 JUMP JUMPDEST POP PUSH2 0x243 PUSH2 0x105A JUMP JUMPDEST POP PUSH2 0x243 PUSH2 0xE38 JUMP JUMPDEST POP PUSH2 0x243 PUSH2 0xD4A JUMP JUMPDEST POP PUSH2 0x243 PUSH2 0xD0D JUMP JUMPDEST POP PUSH2 0x243 PUSH2 0xC88 JUMP JUMPDEST POP PUSH2 0x243 PUSH2 0xC4D JUMP JUMPDEST POP PUSH2 0x243 PUSH2 0xBFF JUMP JUMPDEST POP PUSH2 0x243 PUSH2 0xBE7 JUMP JUMPDEST POP PUSH2 0x243 PUSH2 0xA29 JUMP JUMPDEST POP PUSH2 0x243 PUSH2 0x912 JUMP JUMPDEST POP PUSH2 0x243 PUSH2 0x82C JUMP JUMPDEST POP PUSH2 0x243 PUSH2 0x7C4 JUMP JUMPDEST POP PUSH2 0x243 PUSH2 0x779 JUMP JUMPDEST POP PUSH2 0x243 PUSH2 0x73C JUMP JUMPDEST POP PUSH2 0x243 PUSH2 0x6FA JUMP JUMPDEST POP PUSH2 0x243 PUSH2 0x6B8 JUMP JUMPDEST POP PUSH2 0x243 PUSH2 0x668 JUMP JUMPDEST POP PUSH2 0x243 PUSH2 0x4C5 JUMP JUMPDEST POP CALLVALUE PUSH2 0x43D JUMPI PUSH1 0x0 PUSH32 0xFFFFFFFFFFFFFFFFFFFFFFFFFFFFFFFFFFFFFFFFFFFFFFFFFFFFFFFFFFFFFFFC CALLDATASIZE ADD SLT PUSH2 0x43D JUMPI PUSH1 0x20 PUSH1 0x40 MLOAD PUSH20 0x7CEB23FD6BC0ADD59E62AC25578270CFF1B9F619 DUP2 MSTORE RETURN JUMPDEST PUSH1 0x0 DUP1 REVERT JUMPDEST SWAP2 SWAP1 DUP3 MLOAD SWAP3 DUP4 DUP3 MSTORE PUSH1 0x0 SWAP1 JUMPDEST DUP5 DUP3 LT PUSH2 0x499 JUMPI POP PUSH1 0x1F DUP5 PUSH1 0x20 SWAP5 SWAP6 PUSH32 0xFFFFFFFFFFFFFFFFFFFFFFFFFFFFFFFFFFFFFFFFFFFFFFFFFFFFFFFFFFFFFFE0 SWAP4 GT PUSH2 0x48C JUMPI JUMPDEST ADD AND ADD ADD SWAP1 JUMP JUMPDEST PUSH1 0x0 DUP6 DUP3 DUP7 ADD ADD MSTORE PUSH2 0x485 JUMP JUMPDEST SWAP1 PUSH1 0x20 SWAP1 DUP2 DUP1 DUP3 DUP6 ADD ADD MLOAD SWAP1 DUP3 DUP7 ADD ADD MSTORE ADD SWAP1 PUSH2 0x44E JUMP JUMPDEST SWAP1 PUSH1 0x20 PUSH2 0x4C2 SWAP3 DUP2 DUP2 MSTORE ADD SWAP1 PUSH2 0x442 JUMP JUMPDEST SWAP1 JUMP JUMPDEST POP CALLVALUE PUSH2 0x43D JUMPI PUSH1 0x0 DUP1 PUSH32 0xFFFFFFFFFFFFFFFFFFFFFFFFFFFFFFFFFFFFFFFFFFFFFFFFFFFFFFFFFFFFFFFC CALLDATASIZE ADD SLT PUSH2 0x61F JUMPI PUSH1 0x40 MLOAD SWAP1 DUP1 PUSH1 0x3 SLOAD SWAP1 PUSH1 0x1 SWAP2 DUP1 DUP4 SHR SWAP3 DUP1 DUP3 AND SWAP3 DUP4 ISZERO PUSH2 0x615 JUMPI JUMPDEST PUSH1 0x20 SWAP3 DUP4 DUP7 LT DUP6 EQ PUSH2 0x5E8 JUMPI DUP6 DUP9 MSTORE PUSH1 0x20 DUP9 ADD SWAP5 SWAP1 DUP2 ISZERO PUSH2 0x5AE JUMPI POP PUSH1 0x1 EQ PUSH2 0x555 JUMPI JUMPDEST PUSH2 0x551 DUP8 PUSH2 0x545 DUP2 DUP10 SUB DUP3 PUSH2 0x1B1D JUMP JUMPDEST PUSH1 0x40 MLOAD SWAP2 DUP3 SWAP2 DUP3 PUSH2 0x4B1 JUMP JUMPDEST SUB SWAP1 RETURN JUMPDEST PUSH1 0x3 PUSH1 0x0 MSTORE SWAP5 POP SWAP2 SWAP3 SWAP2 PUSH32 0xC2575A0E9E593C00F959F8C92F12DB2869C3395A3B0502D05E2516446F71F85B JUMPDEST DUP4 DUP7 LT PUSH2 0x59D JUMPI POP POP POP SWAP2 ADD SWAP1 POP PUSH2 0x545 DUP3 PUSH2 0x551 CODESIZE DUP1 PUSH2 0x535 JUMP JUMPDEST DUP1 SLOAD DUP6 DUP8 ADD MSTORE SWAP5 DUP3 ADD SWAP5 DUP2 ADD PUSH2 0x581 JUMP JUMPDEST PUSH32 0xFFFFFFFFFFFFFFFFFFFFFFFFFFFFFFFFFFFFFFFFFFFFFFFFFFFFFFFFFFFFFF00 AND DUP6 MSTORE POP POP POP ADD SWAP2 POP PUSH2 0x545 SWAP1 POP DUP3 PUSH2 0x551 CODESIZE DUP1 PUSH2 0x535 JUMP JUMPDEST PUSH1 0x24 DUP3 PUSH32 0x4E487B7100000000000000000000000000000000000000000000000000000000 DUP2 MSTORE PUSH1 0x22 PUSH1 0x4 MSTORE REVERT JUMPDEST SWAP4 PUSH1 0x7F AND SWAP4 PUSH2 0x511 JUMP JUMPDEST DUP1 REVERT JUMPDEST PUSH1 0x4 CALLDATALOAD SWAP1 PUSH20 0xFFFFFFFFFFFFFFFFFFFFFFFFFFFFFFFFFFFFFFFF DUP3 AND DUP3 SUB PUSH2 0x43D JUMPI JUMP JUMPDEST PUSH1 0x24 CALLDATALOAD SWAP1 PUSH20 0xFFFFFFFFFFFFFFFFFFFFFFFFFFFFFFFFFFFFFFFF DUP3 AND DUP3 SUB PUSH2 0x43D JUMPI JUMP JUMPDEST POP CALLVALUE PUSH2 0x43D JUMPI PUSH1 0x40 PUSH32 0xFFFFFFFFFFFFFFFFFFFFFFFFFFFFFFFFFFFFFFFFFFFFFFFFFFFFFFFFFFFFFFFC CALLDATASIZE ADD SLT PUSH2 0x43D JUMPI PUSH2 0x6AD PUSH2 0x6A3 PUSH2 0x622 JUMP JUMPDEST PUSH1 0x24 CALLDATALOAD SWAP1 CALLER PUSH2 0x2B4B JUMP JUMPDEST PUSH1 0x20 PUSH1 0x40 MLOAD PUSH1 0x1 DUP2 MSTORE RETURN JUMPDEST POP CALLVALUE PUSH2 0x43D JUMPI PUSH1 0x0 PUSH32 0xFFFFFFFFFFFFFFFFFFFFFFFFFFFFFFFFFFFFFFFFFFFFFFFFFFFFFFFFFFFFFFFC CALLDATASIZE ADD SLT PUSH2 0x43D JUMPI PUSH1 0x20 PUSH2 0x6F2 PUSH2 0x3B64 JUMP JUMPDEST PUSH1 0x40 MLOAD SWAP1 DUP2 MSTORE RETURN JUMPDEST POP CALLVALUE PUSH2 0x43D JUMPI PUSH1 0x20 PUSH32 0xFFFFFFFFFFFFFFFFFFFFFFFFFFFFFFFFFFFFFFFFFFFFFFFFFFFFFFFFFFFFFFFC CALLDATASIZE ADD SLT PUSH2 0x43D JUMPI PUSH1 0x20 PUSH2 0x6F2 PUSH2 0x737 PUSH2 0x622 JUMP JUMPDEST PUSH2 0x2D29 JUMP JUMPDEST POP CALLVALUE PUSH2 0x43D JUMPI PUSH1 0x0 PUSH32 0xFFFFFFFFFFFFFFFFFFFFFFFFFFFFFFFFFFFFFFFFFFFFFFFFFFFFFFFFFFFFFFFC CALLDATASIZE ADD SLT PUSH2 0x43D JUMPI PUSH1 0x20 PUSH1 0x2 SLOAD PUSH1 0x40 MLOAD SWAP1 DUP2 MSTORE RETURN JUMPDEST POP CALLVALUE PUSH2 0x43D JUMPI PUSH1 0x40 PUSH32 0xFFFFFFFFFFFFFFFFFFFFFFFFFFFFFFFFFFFFFFFFFFFFFFFFFFFFFFFFFFFFFFFC CALLDATASIZE ADD SLT PUSH2 0x43D JUMPI PUSH1 0x20 PUSH2 0x6F2 PUSH2 0x7B6 PUSH2 0x622 JUMP JUMPDEST PUSH2 0x7BE PUSH2 0x645 JUMP JUMPDEST SWAP1 PUSH2 0x44ED JUMP JUMPDEST POP CALLVALUE PUSH2 0x43D JUMPI PUSH1 0x20 PUSH32 0xFFFFFFFFFFFFFFFFFFFFFFFFFFFFFFFFFFFFFFFFFFFFFFFFFFFFFFFFFFFFFFFC CALLDATASIZE ADD SLT PUSH2 0x43D JUMPI PUSH1 0x4 CALLDATALOAD PUSH1 0xE SSTORE STOP JUMPDEST POP PUSH32 0x4E487B7100000000000000000000000000000000000000000000000000000000 PUSH1 0x0 MSTORE PUSH1 0x32 PUSH1 0x4 MSTORE PUSH1 0x24 PUSH1 0x0 REVERT JUMPDEST POP CALLVALUE PUSH2 0x43D JUMPI PUSH1 0x20 PUSH32 0xFFFFFFFFFFFFFFFFFFFFFFFFFFFFFFFFFFFFFFFFFFFFFFFFFFFFFFFFFFFFFFFC CALLDATASIZE ADD SLT PUSH2 0x43D JUMPI PUSH1 0x4 CALLDATALOAD PUSH1 0x6 SLOAD DUP2 LT ISZERO PUSH2 0x43D JUMPI PUSH20 0xFFFFFFFFFFFFFFFFFFFFFFFFFFFFFFFFFFFFFFFF PUSH1 0x20 SWAP2 PUSH1 0x6 PUSH1 0x0 MSTORE PUSH32 0xF652222313E28459528D920B65115C16C04F3EFC82AAEDC97BE59F3F377C0D3F ADD SLOAD AND PUSH1 0x40 MLOAD SWAP1 DUP2 MSTORE RETURN JUMPDEST PUSH32 0xFFFFFFFFFFFFFFFFFFFFFFFFFFFFFFFFFFFFFFFFFFFFFFFFFFFFFFFFFFFFFFFC PUSH1 0x60 SWAP2 ADD SLT PUSH2 0x43D JUMPI PUSH20 0xFFFFFFFFFFFFFFFFFFFFFFFFFFFFFFFFFFFFFFFF SWAP1 PUSH1 0x4 CALLDATALOAD DUP3 DUP2 AND DUP2 SUB PUSH2 0x43D JUMPI SWAP2 PUSH1 0x24 CALLDATALOAD SWAP1 DUP2 AND DUP2 SUB PUSH2 0x43D JUMPI SWAP1 PUSH1 0x44 CALLDATALOAD SWAP1 JUMP JUMPDEST POP CALLVALUE PUSH2 0x43D JUMPI PUSH2 0x921 CALLDATASIZE PUSH2 0x8B2 JUMP JUMPDEST SWAP1 PUSH20 0xFFFFFFFFFFFFFFFFFFFFFFFFFFFFFFFFFFFFFFFF DUP4 AND PUSH1 0x0 MSTORE PUSH1 0x1 PUSH1 0x20 MSTORE PUSH2 0x96F CALLER PUSH1 0x40 PUSH1 0x0 KECCAK256 SWAP1 PUSH20 0xFFFFFFFFFFFFFFFFFFFFFFFFFFFFFFFFFFFFFFFF AND PUSH1 0x0 MSTORE PUSH1 0x20 MSTORE PUSH1 0x40 PUSH1 0x0 KECCAK256 SWAP1 JUMP JUMPDEST SLOAD SWAP3 PUSH32 0xFFFFFFFFFFFFFFFFFFFFFFFFFFFFFFFFFFFFFFFFFFFFFFFFFFFFFFFFFFFFFFFF DUP5 SUB PUSH2 0x9AF JUMPI JUMPDEST PUSH2 0x9A3 SWAP4 POP PUSH2 0x29C2 JUMP JUMPDEST PUSH1 0x40 MLOAD PUSH1 0x1 DUP2 MSTORE PUSH1 0x20 SWAP1 RETURN JUMPDEST DUP3 DUP5 LT PUSH2 0x9CB JUMPI PUSH2 0x9C6 DUP4 PUSH2 0x9A3 SWAP6 SUB CALLER DUP4 PUSH2 0x2B4B JUMP JUMPDEST PUSH2 0x999 JUMP JUMPDEST PUSH1 0x64 PUSH1 0x40 MLOAD PUSH32 0x8C379A000000000000000000000000000000000000000000000000000000000 DUP2 MSTORE PUSH1 0x20 PUSH1 0x4 DUP3 ADD MSTORE PUSH1 0x1D PUSH1 0x24 DUP3 ADD MSTORE PUSH32 0x45524332303A20696E73756666696369656E7420616C6C6F77616E6365000000 PUSH1 0x44 DUP3 ADD MSTORE REVERT JUMPDEST POP CALLVALUE PUSH2 0x43D JUMPI PUSH1 0x20 PUSH32 0xFFFFFFFFFFFFFFFFFFFFFFFFFFFFFFFFFFFFFFFFFFFFFFFFFFFFFFFFFFFFFFFC CALLDATASIZE ADD SLT PUSH2 0x43D JUMPI PUSH2 0x19 PUSH2 0xA64 PUSH2 0x622 JUMP JUMPDEST PUSH20 0xFFFFFFFFFFFFFFFFFFFFFFFFFFFFFFFFFFFFFFFF DUP2 AND PUSH1 0x0 MSTORE PUSH1 0x0 PUSH1 0x20 MSTORE PUSH2 0xBA4 PUSH2 0xA9E PUSH1 0x40 PUSH1 0x0 KECCAK256 SLOAD PUSH2 0xA98 ADDRESS PUSH2 0x4292 JUMP JUMPDEST SWAP1 PUSH2 0x2FD3 JUMP JUMPDEST PUSH2 0xB9F PUSH2 0xAAE PUSH1 0x2 SLOAD DUP1 SWAP4 PUSH2 0x305C JUMP JUMPDEST SWAP2 PUSH2 0xB9A PUSH2 0xAF2 DUP3 PUSH2 0xAED PUSH2 0xAE3 DUP10 PUSH20 0xFFFFFFFFFFFFFFFFFFFFFFFFFFFFFFFFFFFFFFFF AND PUSH1 0x0 MSTORE PUSH1 0x0 PUSH1 0x20 MSTORE PUSH1 0x40 PUSH1 0x0 KECCAK256 SWAP1 JUMP JUMPDEST SLOAD PUSH2 0xA98 ADDRESS PUSH2 0x4329 JUMP JUMPDEST PUSH2 0x305C JUMP JUMPDEST PUSH2 0xB95 PUSH2 0xB6B PUSH2 0xB33 DUP6 PUSH2 0xAED PUSH2 0xB29 DUP13 PUSH20 0xFFFFFFFFFFFFFFFFFFFFFFFFFFFFFFFFFFFFFFFF AND PUSH1 0x0 MSTORE PUSH1 0x0 PUSH1 0x20 MSTORE PUSH1 0x40 PUSH1 0x0 KECCAK256 SWAP1 JUMP JUMPDEST SLOAD PUSH2 0xA98 ADDRESS PUSH2 0x439A JUMP JUMPDEST SWAP5 PUSH2 0xAED PUSH2 0xB61 DUP12 PUSH20 0xFFFFFFFFFFFFFFFFFFFFFFFFFFFFFFFFFFFFFFFF AND PUSH1 0x0 MSTORE PUSH1 0x0 PUSH1 0x20 MSTORE PUSH1 0x40 PUSH1 0x0 KECCAK256 SWAP1 JUMP JUMPDEST SLOAD PUSH2 0xA98 ADDRESS PUSH2 0x440B JUMP JUMPDEST SWAP6 PUSH2 0xB75 DUP2 PUSH2 0x34A6 JUMP JUMPDEST PUSH2 0xB7E DUP4 PUSH2 0x3540 JUMP JUMPDEST PUSH2 0xB87 DUP6 PUSH2 0x35B2 JUMP JUMPDEST PUSH2 0xB90 DUP8 PUSH2 0x3624 JUMP JUMPDEST PUSH2 0x40EC JUMP JUMPDEST PUSH2 0x4160 JUMP JUMPDEST PUSH2 0x41C6 JUMP JUMPDEST PUSH2 0x422C JUMP JUMPDEST PUSH2 0xBB6 DUP2 PUSH2 0xBB1 ADDRESS PUSH2 0x447C JUMP JUMPDEST PUSH2 0x4077 JUMP JUMPDEST PUSH2 0xBE0 DUP2 PUSH20 0xFFFFFFFFFFFFFFFFFFFFFFFFFFFFFFFFFFFFFFFF AND PUSH1 0x0 MSTORE PUSH1 0x0 PUSH1 0x20 MSTORE PUSH1 0x40 PUSH1 0x0 KECCAK256 SWAP1 JUMP JUMPDEST SLOAD SWAP1 PUSH2 0x3EA5 JUMP JUMPDEST POP CALLVALUE PUSH2 0x43D JUMPI PUSH2 0x19 PUSH2 0xBF9 CALLDATASIZE PUSH2 0x8B2 JUMP JUMPDEST SWAP2 PUSH2 0x377F JUMP JUMPDEST POP CALLVALUE PUSH2 0x43D JUMPI PUSH1 0x0 PUSH32 0xFFFFFFFFFFFFFFFFFFFFFFFFFFFFFFFFFFFFFFFFFFFFFFFFFFFFFFFFFFFFFFFC CALLDATASIZE ADD SLT PUSH2 0x43D JUMPI PUSH1 0x20 PUSH1 0x40 MLOAD PUSH20 0xBBBA073C31BF03B8ACF7C28EF0738DECF3695683 DUP2 MSTORE RETURN JUMPDEST POP CALLVALUE PUSH2 0x43D JUMPI PUSH1 0x0 PUSH32 0xFFFFFFFFFFFFFFFFFFFFFFFFFFFFFFFFFFFFFFFFFFFFFFFFFFFFFFFFFFFFFFFC CALLDATASIZE ADD SLT PUSH2 0x43D JUMPI PUSH1 0x20 PUSH1 0x40 MLOAD PUSH1 0x12 DUP2 MSTORE RETURN JUMPDEST POP CALLVALUE PUSH2 0x43D JUMPI PUSH1 0x40 PUSH32 0xFFFFFFFFFFFFFFFFFFFFFFFFFFFFFFFFFFFFFFFFFFFFFFFFFFFFFFFFFFFFFFFC CALLDATASIZE ADD SLT PUSH2 0x43D JUMPI PUSH2 0x6AD PUSH2 0xCC3 PUSH2 0x622 JUMP JUMPDEST CALLER PUSH1 0x0 MSTORE PUSH1 0x1 PUSH1 0x20 MSTORE PUSH2 0xD06 PUSH1 0x24 CALLDATALOAD PUSH2 0xD00 DUP4 PUSH1 0x40 PUSH1 0x0 KECCAK256 SWAP1 PUSH20 0xFFFFFFFFFFFFFFFFFFFFFFFFFFFFFFFFFFFFFFFF AND PUSH1 0x0 MSTORE PUSH1 0x20 MSTORE PUSH1 0x40 PUSH1 0x0 KECCAK256 SWAP1 JUMP JUMPDEST SLOAD PUSH2 0x2894 JUMP JUMPDEST SWAP1 CALLER PUSH2 0x2B4B JUMP JUMPDEST POP CALLVALUE PUSH2 0x43D JUMPI PUSH1 0x0 PUSH32 0xFFFFFFFFFFFFFFFFFFFFFFFFFFFFFFFFFFFFFFFFFFFFFFFFFFFFFFFFFFFFFFFC CALLDATASIZE ADD SLT PUSH2 0x43D JUMPI PUSH1 0x20 PUSH1 0xD SLOAD PUSH1 0x40 MLOAD SWAP1 DUP2 MSTORE RETURN JUMPDEST POP CALLVALUE PUSH2 0x43D JUMPI PUSH1 0x20 PUSH32 0xFFFFFFFFFFFFFFFFFFFFFFFFFFFFFFFFFFFFFFFFFFFFFFFFFFFFFFFFFFFFFFFC CALLDATASIZE ADD SLT PUSH2 0x43D JUMPI PUSH1 0x4 CALLDATALOAD PUSH1 0xB SLOAD DUP2 LT ISZERO PUSH2 0x43D JUMPI PUSH20 0xFFFFFFFFFFFFFFFFFFFFFFFFFFFFFFFFFFFFFFFF PUSH1 0x20 SWAP2 PUSH1 0xB PUSH1 0x0 MSTORE PUSH32 0x175B7A638427703F0DBE7BB9BBF987A2551717B34E79F33B5B1008D1FA01DB9 ADD SLOAD AND PUSH1 0x40 MLOAD SWAP1 DUP2 MSTORE RETURN JUMPDEST SWAP1 PUSH1 0x20 PUSH32 0xFFFFFFFFFFFFFFFFFFFFFFFFFFFFFFFFFFFFFFFFFFFFFFFFFFFFFFFFFFFFFFFC DUP4 ADD SLT PUSH2 0x43D JUMPI PUSH1 0x4 CALLDATALOAD PUSH8 0xFFFFFFFFFFFFFFFF SWAP3 DUP4 DUP3 GT PUSH2 0x43D JUMPI DUP1 PUSH1 0x23 DUP4 ADD SLT ISZERO PUSH2 0x43D JUMPI DUP2 PUSH1 0x4 ADD CALLDATALOAD SWAP4 DUP5 GT PUSH2 0x43D JUMPI PUSH1 0x24 DUP5 DUP4 ADD ADD GT PUSH2 0x43D JUMPI PUSH1 0x24 ADD SWAP2 SWAP1 JUMP JUMPDEST POP CALLVALUE PUSH2 0x43D JUMPI PUSH2 0xE47 CALLDATASIZE PUSH2 0xDD0 JUMP JUMPDEST SWAP1 PUSH2 0xE54 PUSH1 0xD SLOAD TIMESTAMP PUSH2 0x2E23 JUMP JUMPDEST PUSH1 0xE SLOAD LT PUSH2 0xE5E JUMPI STOP JUMPDEST PUSH2 0xE67 TIMESTAMP PUSH1 0xD SSTORE JUMP JUMPDEST PUSH2 0xE84 PUSH2 0xE72 PUSH2 0x312D JUMP JUMPDEST SWAP2 PUSH2 0xE7B PUSH2 0x3168 JUMP JUMPDEST SWAP4 DUP2 ADD SWAP1 PUSH2 0x33C0 JUMP JUMPDEST SWAP2 PUSH1 0x0 JUMPDEST DUP4 MLOAD SWAP1 PUSH1 0xFF DUP2 AND SWAP2 DUP3 LT ISZERO PUSH2 0x19 JUMPI PUSH2 0xFBA SWAP2 PUSH2 0xEE7 PUSH2 0xED6 PUSH2 0xEBC PUSH2 0xEB6 PUSH2 0xEB0 DUP7 PUSH2 0x32F0 JUMP JUMPDEST PUSH1 0xFF AND SWAP1 JUMP JUMPDEST DUP9 PUSH2 0x2F39 JUMP JUMPDEST MLOAD PUSH20 0xFFFFFFFFFFFFFFFFFFFFFFFFFFFFFFFFFFFFFFFF AND SWAP1 JUMP JUMPDEST PUSH2 0xEE0 DUP4 DUP10 PUSH2 0x2F39 JUMP JUMPDEST MLOAD SWAP1 PUSH2 0x3696 JUMP JUMPDEST PUSH20 0xD500B1D8E8EF31E21C99D1DB9A6444D3ADF1270 DUP1 PUSH2 0xF31 PUSH2 0xF18 PUSH2 0xEBC PUSH2 0xF12 PUSH2 0xEB0 DUP9 PUSH2 0x32F0 JUMP JUMPDEST DUP11 PUSH2 0x2F39 JUMP JUMPDEST PUSH20 0xFFFFFFFFFFFFFFFFFFFFFFFFFFFFFFFFFFFFFFFF AND SWAP1 JUMP JUMPDEST EQ SWAP1 DUP2 ISZERO PUSH2 0x1033 JUMPI JUMPDEST POP ISZERO PUSH2 0xFBF JUMPI PUSH2 0xFAC PUSH2 0xFB5 SWAP2 PUSH2 0xF80 PUSH2 0xF5C PUSH2 0xEBC PUSH2 0xF12 PUSH2 0xEB0 DUP9 PUSH2 0x32F0 JUMP JUMPDEST PUSH2 0xF65 DUP9 PUSH2 0x2EF0 JUMP JUMPDEST SWAP1 PUSH20 0xFFFFFFFFFFFFFFFFFFFFFFFFFFFFFFFFFFFFFFFF AND SWAP1 MSTORE JUMP JUMPDEST PUSH2 0xFA6 PUSH2 0xF9D PUSH2 0xEBC PUSH2 0xF12 PUSH2 0xEB0 PUSH2 0xF98 DUP10 PUSH2 0x32F0 JUMP JUMPDEST PUSH2 0x3317 JUMP JUMPDEST PUSH2 0xF65 DUP9 PUSH2 0x2F06 JUMP JUMPDEST DUP8 PUSH2 0x2F39 JUMP JUMPDEST MLOAD DUP5 ADDRESS SWAP2 PUSH2 0x45C8 JUMP JUMPDEST PUSH2 0x2F5B JUMP JUMPDEST PUSH2 0xE88 JUMP JUMPDEST PUSH2 0x102A PUSH2 0xFB5 SWAP2 PUSH2 0xFE4 PUSH2 0xFDB PUSH2 0xEBC PUSH2 0xF12 PUSH2 0xEB0 DUP9 PUSH2 0x32F0 JUMP JUMPDEST PUSH2 0xF65 DUP12 PUSH2 0x2EF0 JUMP JUMPDEST PUSH2 0x1009 PUSH2 0xFF0 DUP11 PUSH2 0x2F06 JUMP JUMPDEST PUSH20 0xD500B1D8E8EF31E21C99D1DB9A6444D3ADF1270 SWAP1 MSTORE JUMP JUMPDEST PUSH2 0xFA6 PUSH2 0x1021 PUSH2 0xEBC PUSH2 0xF12 PUSH2 0xEB0 PUSH2 0xF98 DUP10 PUSH2 0x32F0 JUMP JUMPDEST PUSH2 0xF65 DUP12 PUSH2 0x2F17 JUMP JUMPDEST MLOAD DUP8 ADDRESS SWAP2 PUSH2 0x45C8 JUMP JUMPDEST SWAP1 POP PUSH2 0x1053 PUSH2 0xF18 PUSH2 0xEBC PUSH2 0x104D PUSH2 0xEB0 PUSH2 0xF98 DUP9 PUSH2 0x32F0 JUMP JUMPDEST DUP10 PUSH2 0x2F39 JUMP JUMPDEST EQ CODESIZE PUSH2 0xF3A JUMP JUMPDEST POP CALLVALUE PUSH2 0x43D JUMPI PUSH1 0x20 PUSH2 0xA98 PUSH2 0x10BA PUSH1 0x2 PUSH2 0x108B PUSH2 0x1085 PUSH2 0x1079 CALLDATASIZE PUSH2 0x8B2 JUMP JUMPDEST SWAP7 SWAP2 SWAP3 SWAP1 SWAP3 ADDRESS SWAP1 PUSH2 0x44ED JUMP JUMPDEST SWAP2 PUSH2 0x2D29 JUMP JUMPDEST SWAP3 PUSH32 0xFFFFFFFFFFFFFFFFFFFFFFFFFFFFFFFFFFFFFFFFFFFFFFFFFFFFFFFFFFFFFFFD DUP2 GT PUSH2 0x10D7 JUMPI JUMPDEST ADD PUSH2 0x3010 JUMP JUMPDEST DUP1 ISZERO PUSH2 0x10CA JUMPI JUMPDEST PUSH1 0x40 MLOAD SWAP2 DIV DUP2 MSTORE RETURN JUMPDEST PUSH2 0x10D2 PUSH2 0x302C JUMP JUMPDEST PUSH2 0x10C1 JUMP JUMPDEST PUSH2 0x10DF PUSH2 0x2864 JUMP JUMPDEST PUSH2 0x10B4 JUMP JUMPDEST POP CALLVALUE PUSH2 0x43D JUMPI PUSH1 0x20 PUSH32 0xFFFFFFFFFFFFFFFFFFFFFFFFFFFFFFFFFFFFFFFFFFFFFFFFFFFFFFFFFFFFFFFC CALLDATASIZE ADD SLT PUSH2 0x43D JUMPI PUSH1 0x4 CALLDATALOAD PUSH1 0x9 SLOAD DUP2 LT ISZERO PUSH2 0x43D JUMPI PUSH20 0xFFFFFFFFFFFFFFFFFFFFFFFFFFFFFFFFFFFFFFFF PUSH1 0x20 SWAP2 PUSH1 0x9 PUSH1 0x0 MSTORE PUSH32 0x6E1540171B6C0C960B71A7020D9F60077F6AF931A8BBF590DA0223DACF75C7AF ADD SLOAD AND PUSH1 0x40 MLOAD SWAP1 DUP2 MSTORE RETURN JUMPDEST POP CALLVALUE PUSH2 0x43D JUMPI PUSH1 0x20 PUSH32 0xFFFFFFFFFFFFFFFFFFFFFFFFFFFFFFFFFFFFFFFFFFFFFFFFFFFFFFFFFFFFFFFC CALLDATASIZE ADD SLT PUSH2 0x43D JUMPI PUSH1 0x4 CALLDATALOAD PUSH1 0x5 SLOAD DUP2 LT ISZERO PUSH2 0x43D JUMPI PUSH20 0xFFFFFFFFFFFFFFFFFFFFFFFFFFFFFFFFFFFFFFFF PUSH1 0x20 SWAP2 PUSH1 0x5 PUSH1 0x0 MSTORE PUSH32 0x36B6384B5ECA791C62761152D0C79BB0604C104A5FB6F4EB0703F3154BB3DB0 ADD SLOAD AND PUSH1 0x40 MLOAD SWAP1 DUP2 MSTORE RETURN JUMPDEST PUSH1 0x40 SWAP1 PUSH2 0x4C2 SWAP4 SWAP3 ISZERO ISZERO DUP2 MSTORE DUP2 PUSH1 0x20 DUP3 ADD MSTORE ADD SWAP1 PUSH2 0x442 JUMP JUMPDEST POP CALLVALUE PUSH2 0x43D JUMPI PUSH2 0x1218 CALLDATASIZE PUSH2 0xDD0 JUMP JUMPDEST POP POP PUSH2 0x1226 PUSH1 0xD SLOAD TIMESTAMP PUSH2 0x2E23 JUMP JUMPDEST PUSH1 0xE SLOAD LT PUSH2 0x1232 PUSH2 0x2E99 JUMP JUMPDEST PUSH2 0x123A PUSH2 0x2E3A JUMP JUMPDEST SWAP1 PUSH1 0x20 SWAP3 PUSH2 0x125D DUP5 DUP5 ADD PUSH20 0xD500B1D8E8EF31E21C99D1DB9A6444D3ADF1270 SWAP1 MSTORE JUMP JUMPDEST PUSH1 0x40 SWAP3 PUSH2 0x127F DUP5 DUP3 ADD PUSH20 0xAB594600376EC9FD91F8E885DADF0CE036862DE0 SWAP1 MSTORE JUMP JUMPDEST PUSH2 0x1287 PUSH2 0x2E3A JUMP JUMPDEST PUSH20 0xBBBA073C31BF03B8ACF7C28EF0738DECF3695683 DUP2 DUP8 ADD MSTORE PUSH20 0x3D49406EDD4D52FB7FFD25485F32E073B529C924 DUP2 DUP7 ADD MSTORE PUSH2 0x12C1 PUSH2 0x2E3A JUMP JUMPDEST PUSH20 0x1BFD67037B42CF73ACF2047067BD4F2C47D9BFD6 DUP8 DUP3 ADD MSTORE SWAP1 PUSH20 0xC907E116054AD103354F2D350FD2514433D57F6F DUP3 DUP8 ADD MSTORE PUSH2 0x12FC PUSH2 0x2E3A JUMP JUMPDEST PUSH20 0x7CEB23FD6BC0ADD59E62AC25578270CFF1B9F619 DUP9 DUP3 ADD MSTORE SWAP3 PUSH20 0xF9680D99D6C9589E2A93A78A04A279E509205945 DUP5 DUP9 ADD MSTORE PUSH2 0x1338 DUP7 PUSH2 0x2EF0 JUMP JUMPDEST MSTORE PUSH2 0x1342 DUP6 PUSH2 0x2EF0 JUMP JUMPDEST POP PUSH2 0x134C DUP6 PUSH2 0x2F06 JUMP JUMPDEST MSTORE PUSH2 0x1356 DUP5 PUSH2 0x2F06 JUMP JUMPDEST POP PUSH2 0x1360 DUP5 PUSH2 0x2F17 JUMP JUMPDEST MSTORE PUSH2 0x136A DUP4 PUSH2 0x2F17 JUMP JUMPDEST POP PUSH2 0x1374 DUP4 PUSH2 0x2F28 JUMP JUMPDEST MSTORE PUSH2 0x137E DUP3 PUSH2 0x2F28 JUMP JUMPDEST POP PUSH1 0x0 SWAP4 DUP5 JUMPDEST DUP4 MLOAD PUSH1 0xFF DUP8 AND SWAP1 DUP2 LT ISZERO PUSH2 0x15B1 JUMPI PUSH2 0x1537 SWAP2 PUSH2 0x1531 SWAP2 PUSH2 0x1528 PUSH2 0x1510 PUSH2 0x1506 PUSH2 0x14D5 PUSH1 0xFF DUP12 DUP7 DUP12 DUP16 PUSH2 0x13DA PUSH2 0xF18 DUP1 DUP5 PUSH2 0x13BE DUP8 DUP10 PUSH2 0x2F39 JUMP JUMPDEST MLOAD ADD MLOAD PUSH20 0xFFFFFFFFFFFFFFFFFFFFFFFFFFFFFFFFFFFFFFFF AND SWAP1 JUMP JUMPDEST SWAP1 PUSH2 0x1466 PUSH2 0x737 DUP3 PUSH2 0x13BE DUP2 MLOAD SWAP8 PUSH32 0x70A0823100000000000000000000000000000000000000000000000000000000 DUP10 MSTORE PUSH1 0x4 SWAP9 DUP9 DUP2 DUP1 PUSH2 0x143B DUP14 ADDRESS SWAP1 DUP4 ADD SWAP2 SWAP1 SWAP2 PUSH20 0xFFFFFFFFFFFFFFFFFFFFFFFFFFFFFFFFFFFFFFFF PUSH1 0x20 DUP3 ADD SWAP4 AND SWAP1 MSTORE JUMP JUMPDEST SUB DUP2 DUP12 GAS STATICCALL SWAP1 DUP2 ISZERO PUSH2 0x15A4 JUMPI JUMPDEST PUSH1 0x0 SWAP2 PUSH2 0x1577 JUMPI JUMPDEST POP PUSH1 0x80 PUSH2 0x145D DUP4 DUP14 PUSH2 0x2F39 JUMP JUMPDEST MLOAD ADD MSTORE DUP10 PUSH2 0x2F39 JUMP JUMPDEST PUSH1 0xE0 PUSH2 0x1472 DUP14 DUP9 PUSH2 0x2F39 JUMP JUMPDEST MLOAD ADD MSTORE MLOAD SWAP3 DUP4 DUP1 SWAP3 PUSH32 0x313CE56700000000000000000000000000000000000000000000000000000000 DUP3 MSTORE GAS STATICCALL SWAP1 DUP2 ISZERO PUSH2 0x156A JUMPI JUMPDEST PUSH1 0x0 SWAP2 PUSH2 0x153D JUMPI JUMPDEST POP PUSH2 0x14C0 DUP9 PUSH1 0x60 SWAP5 DUP6 SWAP4 AND SWAP4 PUSH2 0x2F39 JUMP JUMPDEST MLOAD ADD MSTORE PUSH2 0x14CD DUP7 DUP14 PUSH2 0x2F39 JUMP JUMPDEST MLOAD ADD MLOAD PUSH2 0x2DD9 JUMP JUMPDEST PUSH2 0xA98 PUSH2 0x1500 DUP13 PUSH1 0xE0 PUSH2 0x14F7 DUP10 PUSH1 0x80 PUSH2 0x14EE DUP3 DUP7 PUSH2 0x2F39 JUMP JUMPDEST MLOAD ADD MLOAD SWAP4 PUSH2 0x2F39 JUMP JUMPDEST MLOAD ADD MLOAD SWAP1 PUSH2 0x2FD3 JUMP JUMPDEST SWAP2 PUSH2 0x3010 JUMP JUMPDEST PUSH4 0x5F5E100 SWAP1 DIV SWAP1 JUMP JUMPDEST SWAP2 PUSH1 0xA0 SWAP3 DUP4 PUSH2 0x151F DUP4 DUP13 PUSH2 0x2F39 JUMP JUMPDEST MLOAD ADD MSTORE DUP9 PUSH2 0x2F39 JUMP JUMPDEST MLOAD ADD MLOAD SWAP1 PUSH2 0x2894 JUMP JUMPDEST SWAP6 PUSH2 0x2F5B JUMP JUMPDEST SWAP5 PUSH2 0x1384 JUMP JUMPDEST PUSH2 0x155D SWAP2 POP DUP13 DUP14 RETURNDATASIZE LT PUSH2 0x1563 JUMPI JUMPDEST PUSH2 0x1555 DUP2 DUP4 PUSH2 0x1B1D JUMP JUMPDEST DUP2 ADD SWAP1 PUSH2 0x2F7C JUMP JUMPDEST CODESIZE PUSH2 0x14AF JUMP JUMPDEST POP RETURNDATASIZE PUSH2 0x154B JUMP JUMPDEST PUSH2 0x1572 PUSH2 0x2D1C JUMP JUMPDEST PUSH2 0x14A7 JUMP JUMPDEST PUSH2 0x1597 SWAP2 POP DUP10 RETURNDATASIZE DUP12 GT PUSH2 0x159D JUMPI JUMPDEST PUSH2 0x158F DUP2 DUP4 PUSH2 0x1B1D JUMP JUMPDEST DUP2 ADD SWAP1 PUSH2 0x2F6D JUMP JUMPDEST CODESIZE PUSH2 0x1450 JUMP JUMPDEST POP RETURNDATASIZE PUSH2 0x1585 JUMP JUMPDEST PUSH2 0x15AC PUSH2 0x2D1C JUMP JUMPDEST PUSH2 0x1448 JUMP JUMPDEST POP SWAP2 SWAP1 SWAP5 POP PUSH1 0x0 JUMPDEST DUP4 MLOAD PUSH1 0xFF DUP3 AND SWAP1 DUP2 LT ISZERO PUSH2 0x1608 JUMPI SWAP1 DUP2 PUSH1 0xC0 PUSH2 0x15FB PUSH2 0x15F4 PUSH1 0xA0 PUSH2 0x15E0 PUSH2 0x1603 SWAP8 DUP12 PUSH2 0x2F39 JUMP JUMPDEST MLOAD ADD MLOAD PUSH2 0x15EE DUP11 MLOAD DUP11 PUSH2 0x305C JUMP JUMPDEST SWAP1 PUSH2 0x3072 JUMP JUMPDEST SWAP3 DUP9 PUSH2 0x2F39 JUMP JUMPDEST MLOAD ADD MSTORE PUSH2 0x2F5B JUMP JUMPDEST PUSH2 0x15B9 JUMP JUMPDEST DUP6 DUP4 DUP9 DUP8 PUSH1 0x0 SWAP2 DUP3 SWAP5 DUP4 SWAP5 PUSH2 0x1625 PUSH2 0x1620 DUP6 MLOAD PUSH2 0x2DF5 JUMP JUMPDEST PUSH2 0x30DE JUMP JUMPDEST SWAP3 PUSH2 0x163B PUSH2 0x1620 PUSH2 0x1636 DUP8 MLOAD PUSH2 0x2DF5 JUMP JUMPDEST PUSH2 0x2F95 JUMP JUMPDEST DUP7 SWAP2 JUMPDEST PUSH2 0x1648 DUP8 MLOAD PUSH2 0x2DF5 JUMP JUMPDEST SWAP5 PUSH1 0xFF SWAP5 DUP6 DUP6 AND SWAP7 DUP8 LT ISZERO PUSH2 0x1917 JUMPI PUSH1 0x0 JUMPDEST DUP10 MLOAD DUP8 DUP3 AND SWAP1 DUP2 LT ISZERO PUSH2 0x16D5 JUMPI PUSH1 0xC0 DUP12 DUP14 DUP3 DUP5 DUP2 PUSH2 0x1678 DUP3 DUP7 PUSH2 0x2F39 JUMP JUMPDEST MLOAD ADD MLOAD ISZERO ISZERO SWAP4 DUP5 PUSH2 0x16BC JUMPI JUMPDEST POP POP POP POP PUSH2 0x169D JUMPI JUMPDEST POP POP PUSH2 0x1698 SWAP1 PUSH2 0x2F5B JUMP JUMPDEST PUSH2 0x165A JUMP JUMPDEST SWAP1 SWAP14 POP DUP2 SWAP12 POP PUSH2 0x16B1 PUSH2 0x1698 SWAP3 SWAP15 DUP13 PUSH2 0x2F39 JUMP JUMPDEST MLOAD ADD MLOAD SWAP11 SWAP1 DUP15 PUSH2 0x168D JUMP JUMPDEST PUSH2 0x16C8 SWAP3 SWAP4 SWAP5 POP PUSH2 0x2F39 JUMP JUMPDEST MLOAD ADD MLOAD SGT DUP14 DUP3 DUP5 DUP16 PUSH2 0x1684 JUMP JUMPDEST POP SWAP7 SWAP11 PUSH32 0x7FFFFFFFFFFFFFFFFFFFFFFFFFFFFFFFFFFFFFFFFFFFFFFFFFFFFFFFFFFFFFFF SWAP11 POP SWAP5 SWAP8 SWAP4 SWAP7 POP SWAP2 SWAP5 SWAP2 SWAP1 PUSH1 0x0 JUMPDEST DUP10 MLOAD DUP14 DUP6 DUP4 AND SWAP2 DUP3 LT ISZERO PUSH2 0x1784 JUMPI POP PUSH1 0xC0 DUP12 DUP14 DUP3 DUP5 DUP2 PUSH2 0x1727 DUP3 DUP7 PUSH2 0x2F39 JUMP JUMPDEST MLOAD ADD MLOAD ISZERO ISZERO SWAP4 DUP5 PUSH2 0x176B JUMPI JUMPDEST POP POP POP POP PUSH2 0x174C JUMPI JUMPDEST POP POP PUSH2 0x1747 SWAP1 PUSH2 0x2F5B JUMP JUMPDEST PUSH2 0x1707 JUMP JUMPDEST SWAP1 SWAP7 POP DUP2 SWAP12 POP PUSH2 0x1760 PUSH2 0x1747 SWAP3 SWAP8 DUP13 PUSH2 0x2F39 JUMP JUMPDEST MLOAD ADD MLOAD SWAP11 SWAP1 DUP15 PUSH2 0x173C JUMP JUMPDEST PUSH2 0x1777 SWAP3 SWAP4 SWAP5 POP PUSH2 0x2F39 JUMP JUMPDEST MLOAD ADD MLOAD SLT DUP14 DUP3 DUP5 DUP16 PUSH2 0x1733 JUMP JUMPDEST PUSH2 0x18A6 SWAP3 POP DUP9 SWAP8 DUP9 SWAP3 POP PUSH2 0x18A0 DUP2 SWAP16 PUSH2 0xFB5 SWAP7 SWAP12 DUP16 DUP12 SWAP16 SWAP10 SWAP15 SWAP12 SWAP3 PUSH2 0x13BE SWAP2 PUSH2 0x188B SWAP5 DUP14 PUSH2 0x18BE SWAP15 PUSH2 0x13BE SWAP11 AND SWAP4 PUSH1 0xC0 SWAP2 DUP3 PUSH2 0x17C0 DUP8 DUP8 PUSH2 0x2F39 JUMP JUMPDEST MLOAD ADD MLOAD SWAP11 AND DUP1 SWAP11 PUSH2 0x17DD DUP5 PUSH2 0x17D5 DUP5 DUP10 PUSH2 0x2F39 JUMP JUMPDEST MLOAD ADD MLOAD PUSH2 0x3456 JUMP JUMPDEST SLT ISZERO PUSH2 0x18C7 JUMPI DUP3 PUSH2 0x17F7 PUSH2 0x1885 SWAP5 PUSH2 0x17D5 PUSH1 0x0 SWAP5 DUP10 PUSH2 0x2F39 JUMP JUMPDEST PUSH2 0x1801 DUP5 DUP8 PUSH2 0x2F39 JUMP JUMPDEST MSTORE PUSH2 0x180C DUP4 DUP7 PUSH2 0x2F39 JUMP JUMPDEST MLOAD PUSH2 0x1825 DUP3 PUSH2 0x181B DUP11 DUP11 PUSH2 0x2F39 JUMP JUMPDEST MLOAD ADD SWAP2 DUP3 MLOAD PUSH2 0x3072 JUMP JUMPDEST SWAP1 MSTORE PUSH2 0x1831 DUP13 DUP8 PUSH2 0x2F39 JUMP JUMPDEST MLOAD ADD MSTORE PUSH2 0x187F PUSH2 0x1862 PUSH2 0x184D PUSH2 0x1847 DUP5 DUP8 PUSH2 0x2F39 JUMP JUMPDEST MLOAD PUSH2 0x320E JUMP JUMPDEST PUSH1 0xE0 PUSH2 0x1859 DUP10 DUP10 PUSH2 0x2F39 JUMP JUMPDEST MLOAD ADD MLOAD SWAP1 PUSH2 0x3281 JUMP JUMPDEST PUSH2 0x1879 PUSH2 0x1874 PUSH1 0x60 PUSH2 0x14CD DUP11 DUP11 PUSH2 0x2F39 JUMP JUMPDEST PUSH2 0x3010 JUMP JUMPDEST SWAP1 PUSH2 0x3281 JUMP JUMPDEST SWAP3 PUSH2 0x2F39 JUMP JUMPDEST MSTORE PUSH2 0x2F39 JUMP JUMPDEST PUSH2 0xF65 PUSH2 0x189A PUSH2 0xEB0 DUP11 PUSH2 0x32F0 JUMP JUMPDEST DUP12 PUSH2 0x2F39 JUMP JUMPDEST DUP13 PUSH2 0x2F39 JUMP JUMPDEST PUSH2 0xF65 PUSH2 0x18B8 PUSH2 0xEB0 PUSH2 0xF98 DUP7 PUSH2 0x32F0 JUMP JUMPDEST DUP7 PUSH2 0x2F39 JUMP JUMPDEST SWAP2 SWAP4 SWAP3 SWAP4 PUSH2 0x163E JUMP JUMPDEST POP PUSH1 0x0 DUP3 PUSH2 0x18DC PUSH2 0x1885 SWAP5 PUSH2 0x17D5 DUP10 DUP10 PUSH2 0x2F39 JUMP JUMPDEST PUSH2 0x18E6 DUP5 DUP8 PUSH2 0x2F39 JUMP JUMPDEST MSTORE DUP12 PUSH2 0x190B DUP3 PUSH2 0x1901 PUSH2 0x18F9 DUP8 DUP11 PUSH2 0x2F39 JUMP JUMPDEST MLOAD SWAP4 DUP11 PUSH2 0x2F39 JUMP JUMPDEST MLOAD ADD SWAP2 DUP3 MLOAD PUSH2 0x31A2 JUMP JUMPDEST SWAP1 MSTORE PUSH2 0x1831 DUP8 DUP8 PUSH2 0x2F39 JUMP JUMPDEST SWAP2 SWAP1 PUSH2 0x195C PUSH2 0x551 SWAP3 PUSH2 0x1930 DUP11 DUP5 MLOAD SWAP8 DUP9 SWAP4 DUP5 ADD PUSH2 0x3373 JUMP JUMPDEST SUB PUSH32 0xFFFFFFFFFFFFFFFFFFFFFFFFFFFFFFFFFFFFFFFFFFFFFFFFFFFFFFFFFFFFFFE0 DUP2 ADD DUP7 MSTORE DUP6 PUSH2 0x1B1D JUMP JUMPDEST MLOAD SWAP3 DUP4 SWAP3 DUP4 PUSH2 0x11F0 JUMP JUMPDEST POP CALLVALUE PUSH2 0x43D JUMPI PUSH1 0x20 PUSH32 0xFFFFFFFFFFFFFFFFFFFFFFFFFFFFFFFFFFFFFFFFFFFFFFFFFFFFFFFFFFFFFFFC CALLDATASIZE ADD SLT PUSH2 0x43D JUMPI PUSH20 0xFFFFFFFFFFFFFFFFFFFFFFFFFFFFFFFFFFFFFFFF PUSH2 0x19B3 PUSH2 0x622 JUMP JUMPDEST AND PUSH1 0x0 MSTORE PUSH1 0x0 PUSH1 0x20 MSTORE PUSH1 0x20 PUSH1 0x40 PUSH1 0x0 KECCAK256 SLOAD PUSH1 0x40 MLOAD SWAP1 DUP2 MSTORE RETURN JUMPDEST POP CALLVALUE PUSH2 0x43D JUMPI PUSH1 0x0 PUSH32 0xFFFFFFFFFFFFFFFFFFFFFFFFFFFFFFFFFFFFFFFFFFFFFFFFFFFFFFFFFFFFFFFC CALLDATASIZE ADD SLT PUSH2 0x43D JUMPI PUSH1 0x20 PUSH1 0x40 MLOAD PUSH20 0xF9680D99D6C9589E2A93A78A04A279E509205945 DUP2 MSTORE RETURN JUMPDEST POP CALLVALUE PUSH2 0x43D JUMPI PUSH1 0xC0 PUSH32 0xFFFFFFFFFFFFFFFFFFFFFFFFFFFFFFFFFFFFFFFFFFFFFFFFFFFFFFFFFFFFFFFC CALLDATASIZE ADD SLT PUSH2 0x43D JUMPI PUSH2 0x19 PUSH1 0xA4 CALLDATALOAD PUSH1 0x84 CALLDATALOAD PUSH1 0x64 CALLDATALOAD PUSH1 0x44 CALLDATALOAD PUSH1 0x24 CALLDATALOAD PUSH1 0x4 CALLDATALOAD PUSH2 0x3DA2 JUMP JUMPDEST POP CALLVALUE PUSH2 0x43D JUMPI PUSH1 0x20 PUSH32 0xFFFFFFFFFFFFFFFFFFFFFFFFFFFFFFFFFFFFFFFFFFFFFFFFFFFFFFFFFFFFFFFC CALLDATASIZE ADD SLT PUSH2 0x43D JUMPI PUSH2 0x19 PUSH1 0x4 CALLDATALOAD PUSH2 0x3E2A JUMP JUMPDEST POP CALLVALUE PUSH2 0x43D JUMPI PUSH1 0x0 PUSH32 0xFFFFFFFFFFFFFFFFFFFFFFFFFFFFFFFFFFFFFFFFFFFFFFFFFFFFFFFFFFFFFFFC CALLDATASIZE ADD SLT PUSH2 0x43D JUMPI PUSH1 0x20 PUSH1 0x40 MLOAD PUSH20 0xAB594600376EC9FD91F8E885DADF0CE036862DE0 DUP2 MSTORE RETURN JUMPDEST POP PUSH32 0x4E487B7100000000000000000000000000000000000000000000000000000000 PUSH1 0x0 MSTORE PUSH1 0x41 PUSH1 0x4 MSTORE PUSH1 0x24 PUSH1 0x0 REVERT JUMPDEST SWAP1 PUSH1 0x1F PUSH32 0xFFFFFFFFFFFFFFFFFFFFFFFFFFFFFFFFFFFFFFFFFFFFFFFFFFFFFFFFFFFFFFE0 SWAP2 ADD AND DUP2 ADD SWAP1 DUP2 LT PUSH8 0xFFFFFFFFFFFFFFFF DUP3 GT OR PUSH2 0x1B5E JUMPI PUSH1 0x40 MSTORE JUMP JUMPDEST PUSH2 0x1B66 PUSH2 0x1AED JUMP JUMPDEST PUSH1 0x40 MSTORE JUMP JUMPDEST PUSH1 0x20 SWAP1 PUSH8 0xFFFFFFFFFFFFFFFF DUP2 GT PUSH2 0x1B85 JUMPI JUMPDEST PUSH1 0x5 SHL ADD SWAP1 JUMP JUMPDEST PUSH2 0x1B8D PUSH2 0x1AED JUMP JUMPDEST PUSH2 0x1B7E JUMP JUMPDEST DUP2 PUSH1 0x1F DUP3 ADD SLT ISZERO PUSH2 0x43D JUMPI DUP1 CALLDATALOAD SWAP2 PUSH2 0x1BA9 DUP4 PUSH2 0x1B6B JUMP JUMPDEST SWAP3 PUSH2 0x1BB7 PUSH1 0x40 MLOAD SWAP5 DUP6 PUSH2 0x1B1D JUMP JUMPDEST DUP1 DUP5 MSTORE PUSH1 0x20 SWAP3 DUP4 DUP1 DUP7 ADD SWAP3 PUSH1 0x5 SHL DUP3 ADD ADD SWAP3 DUP4 GT PUSH2 0x43D JUMPI DUP4 ADD SWAP1 JUMPDEST DUP3 DUP3 LT PUSH2 0x1BE1 JUMPI POP POP POP POP SWAP1 JUMP JUMPDEST DUP2 CALLDATALOAD PUSH20 0xFFFFFFFFFFFFFFFFFFFFFFFFFFFFFFFFFFFFFFFF DUP2 AND DUP2 SUB PUSH2 0x43D JUMPI DUP2 MSTORE SWAP1 DUP4 ADD SWAP1 DUP4 ADD PUSH2 0x1BD3 JUMP JUMPDEST POP CALLVALUE PUSH2 0x43D JUMPI PUSH1 0xA0 PUSH32 0xFFFFFFFFFFFFFFFFFFFFFFFFFFFFFFFFFFFFFFFFFFFFFFFFFFFFFFFFFFFFFFFC CALLDATASIZE ADD SLT PUSH2 0x43D JUMPI PUSH1 0x44 CALLDATALOAD PUSH8 0xFFFFFFFFFFFFFFFF DUP2 GT PUSH2 0x43D JUMPI PUSH2 0x1C5D SWAP1 CALLDATASIZE SWAP1 PUSH1 0x4 ADD PUSH2 0x1B92 JUMP JUMPDEST PUSH1 0x64 CALLDATALOAD SWAP1 PUSH20 0xFFFFFFFFFFFFFFFFFFFFFFFFFFFFFFFFFFFFFFFF DUP1 DUP4 AND DUP1 SWAP4 SUB PUSH2 0x43D JUMPI PUSH1 0x0 SWAP2 PUSH2 0x1CDA SWAP2 PUSH1 0xF SLOAD AND SWAP1 DUP4 PUSH1 0x40 MLOAD DUP1 SWAP7 DUP2 SWAP6 DUP3 SWAP5 PUSH32 0x38ED173900000000000000000000000000000000000000000000000000000000 DUP5 MSTORE PUSH1 0x4 CALLDATALOAD PUSH1 0x4 DUP6 ADD MSTORE PUSH1 0x24 CALLDATALOAD PUSH1 0x24 DUP6 ADD MSTORE PUSH1 0xA0 PUSH1 0x44 DUP6 ADD MSTORE PUSH1 0xA4 DUP5 ADD SWAP1 PUSH2 0x3329 JUMP JUMPDEST SWAP1 PUSH1 0x64 DUP4 ADD MSTORE PUSH1 0x84 CALLDATALOAD PUSH1 0x84 DUP4 ADD MSTORE SUB SWAP3 GAS CALL DUP1 ISZERO PUSH2 0x1D15 JUMPI JUMPDEST PUSH2 0x1CF9 JUMPI STOP JUMPDEST PUSH2 0x19 SWAP1 RETURNDATASIZE DUP1 PUSH1 0x0 DUP4 RETURNDATACOPY PUSH2 0x1D0D DUP2 DUP4 PUSH2 0x1B1D JUMP JUMPDEST DUP2 ADD SWAP1 PUSH2 0x454E JUMP JUMPDEST PUSH2 0x1D1D PUSH2 0x2D1C JUMP JUMPDEST PUSH2 0x1CF3 JUMP JUMPDEST POP CALLVALUE PUSH2 0x43D JUMPI PUSH1 0x40 PUSH32 0xFFFFFFFFFFFFFFFFFFFFFFFFFFFFFFFFFFFFFFFFFFFFFFFFFFFFFFFFFFFFFFFC CALLDATASIZE ADD SLT PUSH2 0x43D JUMPI PUSH2 0x19 PUSH2 0x1D5D PUSH2 0x622 JUMP JUMPDEST PUSH1 0x24 CALLDATALOAD SWAP1 PUSH2 0x3E5B JUMP JUMPDEST POP CALLVALUE PUSH2 0x43D JUMPI PUSH1 0x0 PUSH32 0xFFFFFFFFFFFFFFFFFFFFFFFFFFFFFFFFFFFFFFFFFFFFFFFFFFFFFFFFFFFFFFFC CALLDATASIZE ADD SLT PUSH2 0x43D JUMPI PUSH1 0x20 PUSH1 0xE SLOAD PUSH1 0x40 MLOAD SWAP1 DUP2 MSTORE RETURN JUMPDEST POP CALLVALUE PUSH2 0x43D JUMPI PUSH1 0x0 DUP1 PUSH32 0xFFFFFFFFFFFFFFFFFFFFFFFFFFFFFFFFFFFFFFFFFFFFFFFFFFFFFFFFFFFFFFFC CALLDATASIZE ADD SLT PUSH2 0x61F JUMPI PUSH1 0x40 MLOAD SWAP1 DUP1 PUSH1 0x4 SLOAD SWAP1 PUSH1 0x1 SWAP2 DUP1 DUP4 SHR SWAP3 DUP1 DUP3 AND SWAP3 DUP4 ISZERO PUSH2 0x1E7B JUMPI JUMPDEST PUSH1 0x20 SWAP3 DUP4 DUP7 LT DUP6 EQ PUSH2 0x5E8 JUMPI DUP6 DUP9 MSTORE PUSH1 0x20 DUP9 ADD SWAP5 SWAP1 DUP2 ISZERO PUSH2 0x5AE JUMPI POP PUSH1 0x1 EQ PUSH2 0x1E22 JUMPI PUSH2 0x551 DUP8 PUSH2 0x545 DUP2 DUP10 SUB DUP3 PUSH2 0x1B1D JUMP JUMPDEST PUSH1 0x4 PUSH1 0x0 MSTORE SWAP5 POP SWAP2 SWAP3 SWAP2 PUSH32 0x8A35ACFBC15FF81A39AE7D344FD709F28E8600B4AA8C65C6B64BFE7FE36BD19B JUMPDEST DUP4 DUP7 LT PUSH2 0x1E6A JUMPI POP POP POP SWAP2 ADD SWAP1 POP PUSH2 0x545 DUP3 PUSH2 0x551 CODESIZE DUP1 PUSH2 0x535 JUMP JUMPDEST DUP1 SLOAD DUP6 DUP8 ADD MSTORE SWAP5 DUP3 ADD SWAP5 DUP2 ADD PUSH2 0x1E4E JUMP JUMPDEST SWAP4 PUSH1 0x7F AND SWAP4 PUSH2 0x1DEF JUMP JUMPDEST POP CALLVALUE PUSH2 0x43D JUMPI PUSH1 0x20 PUSH32 0xFFFFFFFFFFFFFFFFFFFFFFFFFFFFFFFFFFFFFFFFFFFFFFFFFFFFFFFFFFFFFFFC CALLDATASIZE ADD SLT PUSH2 0x43D JUMPI PUSH1 0x4 CALLDATALOAD PUSH1 0x8 SLOAD DUP2 LT ISZERO PUSH2 0x43D JUMPI PUSH20 0xFFFFFFFFFFFFFFFFFFFFFFFFFFFFFFFFFFFFFFFF PUSH1 0x20 SWAP2 PUSH1 0x8 PUSH1 0x0 MSTORE PUSH32 0xF3F7A9FE364FAAB93B216DA50A3214154F22A0A2B415B23A84C8169E8B636EE3 ADD SLOAD AND PUSH1 0x40 MLOAD SWAP1 DUP2 MSTORE RETURN JUMPDEST POP CALLVALUE PUSH2 0x43D JUMPI PUSH1 0x40 PUSH32 0xFFFFFFFFFFFFFFFFFFFFFFFFFFFFFFFFFFFFFFFFFFFFFFFFFFFFFFFFFFFFFFFC CALLDATASIZE ADD SLT PUSH2 0x43D JUMPI PUSH2 0x1F43 PUSH2 0x622 JUMP JUMPDEST PUSH1 0x24 CALLDATALOAD SWAP1 CALLER PUSH1 0x0 MSTORE PUSH1 0x1 PUSH1 0x20 MSTORE PUSH2 0x1F7E DUP2 PUSH1 0x40 PUSH1 0x0 KECCAK256 SWAP1 PUSH20 0xFFFFFFFFFFFFFFFFFFFFFFFFFFFFFFFFFFFFFFFF AND PUSH1 0x0 MSTORE PUSH1 0x20 MSTORE PUSH1 0x40 PUSH1 0x0 KECCAK256 SWAP1 JUMP JUMPDEST SLOAD SWAP2 DUP1 DUP4 LT PUSH2 0x1F93 JUMPI PUSH2 0x9A3 SWAP3 SUB SWAP1 CALLER PUSH2 0x2B4B JUMP JUMPDEST PUSH1 0x84 PUSH1 0x40 MLOAD PUSH32 0x8C379A000000000000000000000000000000000000000000000000000000000 DUP2 MSTORE PUSH1 0x20 PUSH1 0x4 DUP3 ADD MSTORE PUSH1 0x25 PUSH1 0x24 DUP3 ADD MSTORE PUSH32 0x45524332303A2064656372656173656420616C6C6F77616E63652062656C6F77 PUSH1 0x44 DUP3 ADD MSTORE PUSH32 0x207A65726F000000000000000000000000000000000000000000000000000000 PUSH1 0x64 DUP3 ADD MSTORE REVERT JUMPDEST POP CALLVALUE PUSH2 0x43D JUMPI PUSH1 0x20 PUSH32 0xFFFFFFFFFFFFFFFFFFFFFFFFFFFFFFFFFFFFFFFFFFFFFFFFFFFFFFFFFFFFFFFC CALLDATASIZE ADD SLT PUSH2 0x43D JUMPI PUSH1 0x4 CALLDATALOAD PUSH1 0xA SLOAD DUP2 LT ISZERO PUSH2 0x43D JUMPI PUSH20 0xFFFFFFFFFFFFFFFFFFFFFFFFFFFFFFFFFFFFFFFF PUSH1 0x20 SWAP2 PUSH1 0xA PUSH1 0x0 MSTORE PUSH32 0xC65A7BB8D6351C1CF70C95A316CC6A92839C986682D98BC35F958F4883F9D2A8 ADD SLOAD AND PUSH1 0x40 MLOAD SWAP1 DUP2 MSTORE RETURN JUMPDEST POP CALLVALUE PUSH2 0x43D JUMPI PUSH1 0x40 PUSH32 0xFFFFFFFFFFFFFFFFFFFFFFFFFFFFFFFFFFFFFFFFFFFFFFFFFFFFFFFFFFFFFFFC CALLDATASIZE ADD SLT PUSH2 0x43D JUMPI PUSH2 0x6AD PUSH2 0x20D8 PUSH2 0x622 JUMP JUMPDEST PUSH1 0x24 CALLDATALOAD SWAP1 CALLER PUSH2 0x29C2 JUMP JUMPDEST POP CALLVALUE PUSH2 0x43D JUMPI PUSH1 0x40 PUSH32 0xFFFFFFFFFFFFFFFFFFFFFFFFFFFFFFFFFFFFFFFFFFFFFFFFFFFFFFFFFFFFFFFC CALLDATASIZE ADD SLT PUSH2 0x43D JUMPI PUSH2 0x19 PUSH2 0x211D PUSH2 0x622 JUMP JUMPDEST PUSH2 0x2125 PUSH2 0x645 JUMP JUMPDEST PUSH1 0x40 MLOAD SWAP2 PUSH32 0x70A0823100000000000000000000000000000000000000000000000000000000 DUP4 MSTORE ADDRESS PUSH1 0x4 DUP5 ADD MSTORE PUSH1 0x20 DUP4 PUSH1 0x24 DUP2 PUSH20 0xFFFFFFFFFFFFFFFFFFFFFFFFFFFFFFFFFFFFFFFF DUP6 AND GAS STATICCALL SWAP3 DUP4 ISZERO PUSH2 0x21A7 JUMPI JUMPDEST PUSH1 0x0 SWAP4 PUSH2 0x2187 JUMPI JUMPDEST POP PUSH2 0x377F JUMP JUMPDEST PUSH2 0x21A0 SWAP2 SWAP4 POP PUSH1 0x20 RETURNDATASIZE DUP2 GT PUSH2 0x159D JUMPI PUSH2 0x158F DUP2 DUP4 PUSH2 0x1B1D JUMP JUMPDEST SWAP2 CODESIZE PUSH2 0x2181 JUMP JUMPDEST PUSH2 0x21AF PUSH2 0x2D1C JUMP JUMPDEST PUSH2 0x2179 JUMP JUMPDEST POP CALLVALUE PUSH2 0x43D JUMPI PUSH1 0x60 PUSH32 0xFFFFFFFFFFFFFFFFFFFFFFFFFFFFFFFFFFFFFFFFFFFFFFFFFFFFFFFFFFFFFFFC CALLDATASIZE ADD SLT PUSH2 0x43D JUMPI PUSH2 0x21EC PUSH2 0x645 JUMP JUMPDEST PUSH20 0xFFFFFFFFFFFFFFFFFFFFFFFFFFFFFFFFFFFFFFFF SWAP1 PUSH1 0x44 CALLDATALOAD DUP3 DUP2 AND DUP2 SUB PUSH2 0x43D JUMPI PUSH1 0x40 MLOAD PUSH32 0xA9059CBB00000000000000000000000000000000000000000000000000000000 DUP2 MSTORE PUSH20 0xFFFFFFFFFFFFFFFFFFFFFFFFFFFFFFFFFFFFFFFF SWAP2 SWAP1 SWAP2 AND PUSH1 0x4 DUP1 DUP4 ADD SWAP2 SWAP1 SWAP2 MSTORE CALLDATALOAD PUSH1 0x24 DUP3 ADD MSTORE SWAP2 PUSH1 0x20 SWAP2 DUP4 SWAP2 PUSH1 0x44 SWAP2 DUP4 SWAP2 PUSH1 0x0 SWAP2 AND GAS CALL DUP1 ISZERO PUSH2 0x22A1 JUMPI JUMPDEST PUSH2 0x227A JUMPI STOP JUMPDEST PUSH2 0x19 SWAP1 PUSH1 0x20 RETURNDATASIZE DUP2 GT PUSH2 0x229A JUMPI JUMPDEST PUSH2 0x2292 DUP2 DUP4 PUSH2 0x1B1D JUMP JUMPDEST DUP2 ADD SWAP1 PUSH2 0x348E JUMP JUMPDEST POP RETURNDATASIZE PUSH2 0x2288 JUMP JUMPDEST PUSH2 0x22A9 PUSH2 0x2D1C JUMP JUMPDEST PUSH2 0x2274 JUMP JUMPDEST POP CALLVALUE PUSH2 0x43D JUMPI PUSH1 0x0 PUSH32 0xFFFFFFFFFFFFFFFFFFFFFFFFFFFFFFFFFFFFFFFFFFFFFFFFFFFFFFFFFFFFFFFC CALLDATASIZE ADD SLT PUSH2 0x43D JUMPI PUSH1 0x20 PUSH1 0x40 MLOAD PUSH20 0xC907E116054AD103354F2D350FD2514433D57F6F DUP2 MSTORE RETURN JUMPDEST POP CALLVALUE PUSH2 0x43D JUMPI PUSH1 0x0 PUSH32 0xFFFFFFFFFFFFFFFFFFFFFFFFFFFFFFFFFFFFFFFFFFFFFFFFFFFFFFFFFFFFFFFC CALLDATASIZE ADD SLT PUSH2 0x43D JUMPI PUSH1 0x20 PUSH1 0x40 MLOAD PUSH20 0x2791BCA1F2DE4661ED88A30C99A7A9449AA84174 DUP2 MSTORE RETURN JUMPDEST POP CALLVALUE PUSH2 0x43D JUMPI PUSH1 0x0 PUSH32 0xFFFFFFFFFFFFFFFFFFFFFFFFFFFFFFFFFFFFFFFFFFFFFFFFFFFFFFFFFFFFFFFC CALLDATASIZE ADD SLT PUSH2 0x43D JUMPI PUSH1 0x20 PUSH1 0x40 MLOAD PUSH20 0x1BFD67037B42CF73ACF2047067BD4F2C47D9BFD6 DUP2 MSTORE RETURN JUMPDEST POP CALLVALUE PUSH2 0x43D JUMPI PUSH1 0x20 PUSH32 0xFFFFFFFFFFFFFFFFFFFFFFFFFFFFFFFFFFFFFFFFFFFFFFFFFFFFFFFFFFFFFFFC CALLDATASIZE ADD SLT PUSH2 0x43D JUMPI PUSH1 0x40 MLOAD PUSH32 0x23B872DD00000000000000000000000000000000000000000000000000000000 DUP2 MSTORE CALLER PUSH1 0x4 DUP1 DUP4 ADD SWAP2 SWAP1 SWAP2 MSTORE ADDRESS PUSH1 0x24 DUP4 ADD MSTORE CALLDATALOAD PUSH1 0x44 DUP3 ADD DUP2 SWAP1 MSTORE SWAP1 PUSH1 0x20 DUP2 PUSH1 0x64 DUP2 PUSH1 0x0 PUSH20 0x2791BCA1F2DE4661ED88A30C99A7A9449AA84174 GAS CALL DUP1 ISZERO PUSH2 0x24C8 JUMPI JUMPDEST PUSH2 0x24AA JUMPI JUMPDEST POP PUSH2 0x243B PUSH2 0x38D8 JUMP JUMPDEST PUSH2 0x2443 PUSH2 0x39B3 JUMP JUMPDEST PUSH2 0x244B PUSH2 0x3A22 JUMP JUMPDEST PUSH2 0x2453 PUSH2 0x3A91 JUMP JUMPDEST SWAP2 PUSH2 0x246B DUP4 PUSH2 0x2466 DUP5 PUSH2 0x2466 DUP6 DUP10 PUSH2 0x2894 JUMP JUMPDEST PUSH2 0x2894 JUMP JUMPDEST SWAP4 PUSH2 0x2475 DUP7 PUSH2 0x370D JUMP JUMPDEST DUP5 ISZERO PUSH2 0x2492 JUMPI SWAP3 PUSH2 0x19 SWAP6 SWAP3 DUP6 SWAP3 PUSH2 0x248C SWAP6 PUSH2 0x3DA2 JUMP JUMPDEST CALLER PUSH2 0x3E5B JUMP JUMPDEST POP POP POP POP POP DUP1 PUSH2 0x24A4 PUSH2 0x19 SWAP3 PUSH2 0x3E2A JUMP JUMPDEST CALLER PUSH2 0x37E7 JUMP JUMPDEST PUSH2 0x24C1 SWAP1 PUSH1 0x20 RETURNDATASIZE DUP2 GT PUSH2 0x229A JUMPI PUSH2 0x2292 DUP2 DUP4 PUSH2 0x1B1D JUMP JUMPDEST POP CODESIZE PUSH2 0x2432 JUMP JUMPDEST PUSH2 0x24D0 PUSH2 0x2D1C JUMP JUMPDEST PUSH2 0x242D JUMP JUMPDEST POP CALLVALUE PUSH2 0x43D JUMPI PUSH1 0x20 PUSH32 0xFFFFFFFFFFFFFFFFFFFFFFFFFFFFFFFFFFFFFFFFFFFFFFFFFFFFFFFFFFFFFFFC CALLDATASIZE ADD SLT PUSH2 0x43D JUMPI PUSH1 0x4 CALLDATALOAD PUSH1 0xC SLOAD DUP2 LT ISZERO PUSH2 0x43D JUMPI PUSH20 0xFFFFFFFFFFFFFFFFFFFFFFFFFFFFFFFFFFFFFFFF PUSH1 0x20 SWAP2 PUSH1 0xC PUSH1 0x0 MSTORE PUSH32 0xDF6966C971051C3D54EC59162606531493A51404A002842F56009D7E5CF4A8C7 ADD SLOAD AND PUSH1 0x40 MLOAD SWAP1 DUP2 MSTORE RETURN JUMPDEST POP CALLVALUE PUSH2 0x43D JUMPI PUSH1 0x20 PUSH32 0xFFFFFFFFFFFFFFFFFFFFFFFFFFFFFFFFFFFFFFFFFFFFFFFFFFFFFFFFFFFFFFFC CALLDATASIZE ADD SLT PUSH2 0x43D JUMPI PUSH1 0x4 CALLDATALOAD PUSH1 0x7 SLOAD DUP2 LT ISZERO PUSH2 0x43D JUMPI PUSH20 0xFFFFFFFFFFFFFFFFFFFFFFFFFFFFFFFFFFFFFFFF PUSH1 0x20 SWAP2 PUSH1 0x7 PUSH1 0x0 MSTORE PUSH32 0xA66CC928B5EDB82AF9BD49922954155AB7B0942694BEA4CE44661D9A8736C688 ADD SLOAD AND PUSH1 0x40 MLOAD SWAP1 DUP2 MSTORE RETURN JUMPDEST POP CALLVALUE PUSH2 0x43D JUMPI PUSH1 0x0 PUSH32 0xFFFFFFFFFFFFFFFFFFFFFFFFFFFFFFFFFFFFFFFFFFFFFFFFFFFFFFFFFFFFFFFC CALLDATASIZE ADD SLT PUSH2 0x43D JUMPI PUSH1 0x20 PUSH1 0x40 MLOAD PUSH20 0x3D49406EDD4D52FB7FFD25485F32E073B529C924 DUP2 MSTORE RETURN JUMPDEST POP CALLVALUE PUSH2 0x43D JUMPI PUSH1 0x40 PUSH32 0xFFFFFFFFFFFFFFFFFFFFFFFFFFFFFFFFFFFFFFFFFFFFFFFFFFFFFFFFFFFFFFFC CALLDATASIZE ADD SLT PUSH2 0x43D JUMPI PUSH2 0x19 PUSH2 0x266A PUSH2 0x622 JUMP JUMPDEST PUSH20 0xFFFFFFFFFFFFFFFFFFFFFFFFFFFFFFFFFFFFFFFF PUSH2 0x2687 PUSH2 0x312D JUMP JUMPDEST SWAP2 DUP3 MLOAD ISZERO PUSH2 0x26D2 JUMPI JUMPDEST AND PUSH1 0x20 DUP3 ADD MSTORE DUP1 MLOAD PUSH1 0x1 LT ISZERO PUSH2 0x26C5 JUMPI JUMPDEST PUSH20 0x2791BCA1F2DE4661ED88A30C99A7A9449AA84174 PUSH1 0x40 DUP3 ADD MSTORE ADDRESS SWAP1 PUSH1 0x24 CALLDATALOAD PUSH2 0x45C8 JUMP JUMPDEST PUSH2 0x26CD PUSH2 0x7FC JUMP JUMPDEST PUSH2 0x26A1 JUMP JUMPDEST PUSH2 0x26DA PUSH2 0x7FC JUMP JUMPDEST PUSH2 0x2690 JUMP JUMPDEST POP CALLVALUE PUSH2 0x43D JUMPI PUSH1 0x0 PUSH32 0xFFFFFFFFFFFFFFFFFFFFFFFFFFFFFFFFFFFFFFFFFFFFFFFFFFFFFFFFFFFFFFFC CALLDATASIZE ADD SLT PUSH2 0x43D JUMPI PUSH1 0x20 PUSH1 0x40 MLOAD PUSH20 0xA5E0829CACED8FFDD4DE3C43696C57F7D7A678FF DUP2 MSTORE RETURN JUMPDEST POP CALLVALUE PUSH2 0x43D JUMPI PUSH1 0x40 PUSH32 0xFFFFFFFFFFFFFFFFFFFFFFFFFFFFFFFFFFFFFFFFFFFFFFFFFFFFFFFFFFFFFFFC CALLDATASIZE ADD SLT PUSH2 0x43D JUMPI PUSH1 0x20 PUSH2 0x27BA PUSH2 0x276A PUSH2 0x622 JUMP JUMPDEST PUSH20 0xFFFFFFFFFFFFFFFFFFFFFFFFFFFFFFFFFFFFFFFF PUSH2 0x2787 PUSH2 0x645 JUMP JUMPDEST SWAP2 AND PUSH1 0x0 MSTORE PUSH1 0x1 DUP4 MSTORE PUSH1 0x40 PUSH1 0x0 KECCAK256 SWAP1 PUSH20 0xFFFFFFFFFFFFFFFFFFFFFFFFFFFFFFFFFFFFFFFF AND PUSH1 0x0 MSTORE PUSH1 0x20 MSTORE PUSH1 0x40 PUSH1 0x0 KECCAK256 SWAP1 JUMP JUMPDEST SLOAD PUSH1 0x40 MLOAD SWAP1 DUP2 MSTORE RETURN JUMPDEST POP CALLVALUE PUSH2 0x43D JUMPI PUSH1 0x0 PUSH32 0xFFFFFFFFFFFFFFFFFFFFFFFFFFFFFFFFFFFFFFFFFFFFFFFFFFFFFFFFFFFFFFFC CALLDATASIZE ADD SLT PUSH2 0x43D JUMPI PUSH1 0x20 PUSH20 0xFFFFFFFFFFFFFFFFFFFFFFFFFFFFFFFFFFFFFFFF PUSH1 0xF SLOAD AND PUSH1 0x40 MLOAD SWAP1 DUP2 MSTORE RETURN JUMPDEST POP CALLVALUE PUSH2 0x43D JUMPI PUSH1 0x0 PUSH32 0xFFFFFFFFFFFFFFFFFFFFFFFFFFFFFFFFFFFFFFFFFFFFFFFFFFFFFFFFFFFFFFFC CALLDATASIZE ADD SLT PUSH2 0x43D JUMPI PUSH1 0x20 PUSH1 0x40 MLOAD PUSH20 0xD500B1D8E8EF31E21C99D1DB9A6444D3ADF1270 DUP2 MSTORE RETURN JUMPDEST POP PUSH32 0x4E487B7100000000000000000000000000000000000000000000000000000000 PUSH1 0x0 MSTORE PUSH1 0x11 PUSH1 0x4 MSTORE PUSH1 0x24 PUSH1 0x0 REVERT JUMPDEST DUP2 NOT DUP2 GT PUSH2 0x28A0 JUMPI ADD SWAP1 JUMP JUMPDEST PUSH2 0x28A8 PUSH2 0x2864 JUMP JUMPDEST ADD SWAP1 JUMP JUMPDEST ISZERO PUSH2 0x28B3 JUMPI JUMP JUMPDEST PUSH1 0x84 PUSH1 0x40 MLOAD PUSH32 0x8C379A000000000000000000000000000000000000000000000000000000000 DUP2 MSTORE PUSH1 0x20 PUSH1 0x4 DUP3 ADD MSTORE PUSH1 0x23 PUSH1 0x24 DUP3 ADD MSTORE PUSH32 0x45524332303A207472616E7366657220746F20746865207A65726F2061646472 PUSH1 0x44 DUP3 ADD MSTORE PUSH32 0x6573730000000000000000000000000000000000000000000000000000000000 PUSH1 0x64 DUP3 ADD MSTORE REVERT JUMPDEST ISZERO PUSH2 0x293E JUMPI JUMP JUMPDEST PUSH1 0x84 PUSH1 0x40 MLOAD PUSH32 0x8C379A000000000000000000000000000000000000000000000000000000000 DUP2 MSTORE PUSH1 0x20 PUSH1 0x4 DUP3 ADD MSTORE PUSH1 0x26 PUSH1 0x24 DUP3 ADD MSTORE PUSH32 0x45524332303A207472616E7366657220616D6F756E7420657863656564732062 PUSH1 0x44 DUP3 ADD MSTORE PUSH32 0x616C616E63650000000000000000000000000000000000000000000000000000 PUSH1 0x64 DUP3 ADD MSTORE REVERT JUMPDEST SWAP2 SWAP1 PUSH20 0xFFFFFFFFFFFFFFFFFFFFFFFFFFFFFFFFFFFFFFFF SWAP1 DUP2 DUP5 AND SWAP3 DUP4 ISZERO PUSH2 0x2AC7 JUMPI PUSH2 0x2AA5 DUP3 PUSH32 0xDDF252AD1BE2C89B69C2B068FC378DAA952BA7F163C4A11628F55A4DF523B3EF SWAP5 PUSH2 0x2AC2 SWAP5 AND SWAP7 PUSH2 0x2A1B DUP9 ISZERO ISZERO PUSH2 0x28AC JUMP JUMPDEST PUSH2 0x2A7E DUP5 PUSH2 0x2A49 DUP4 PUSH20 0xFFFFFFFFFFFFFFFFFFFFFFFFFFFFFFFFFFFFFFFF AND PUSH1 0x0 MSTORE PUSH1 0x0 PUSH1 0x20 MSTORE PUSH1 0x40 PUSH1 0x0 KECCAK256 SWAP1 JUMP JUMPDEST SLOAD PUSH2 0x2A56 DUP3 DUP3 LT ISZERO PUSH2 0x2937 JUMP JUMPDEST SUB SWAP2 PUSH20 0xFFFFFFFFFFFFFFFFFFFFFFFFFFFFFFFFFFFFFFFF AND PUSH1 0x0 MSTORE PUSH1 0x0 PUSH1 0x20 MSTORE PUSH1 0x40 PUSH1 0x0 KECCAK256 SWAP1 JUMP JUMPDEST SSTORE PUSH20 0xFFFFFFFFFFFFFFFFFFFFFFFFFFFFFFFFFFFFFFFF AND PUSH1 0x0 MSTORE PUSH1 0x0 PUSH1 0x20 MSTORE PUSH1 0x40 PUSH1 0x0 KECCAK256 SWAP1 JUMP JUMPDEST PUSH2 0x2AB0 DUP3 DUP3 SLOAD PUSH2 0x2894 JUMP JUMPDEST SWAP1 SSTORE PUSH1 0x40 MLOAD SWAP1 DUP2 MSTORE SWAP1 DUP2 SWAP1 PUSH1 0x20 DUP3 ADD SWAP1 JUMP JUMPDEST SUB SWAP1 LOG3 JUMP JUMPDEST PUSH1 0x84 PUSH1 0x40 MLOAD PUSH32 0x8C379A000000000000000000000000000000000000000000000000000000000 DUP2 MSTORE PUSH1 0x20 PUSH1 0x4 DUP3 ADD MSTORE PUSH1 0x25 PUSH1 0x24 DUP3 ADD MSTORE PUSH32 0x45524332303A207472616E736665722066726F6D20746865207A65726F206164 PUSH1 0x44 DUP3 ADD MSTORE PUSH32 0x6472657373000000000000000000000000000000000000000000000000000000 PUSH1 0x64 DUP3 ADD MSTORE REVERT JUMPDEST SWAP1 PUSH20 0xFFFFFFFFFFFFFFFFFFFFFFFFFFFFFFFFFFFFFFFF SWAP2 DUP3 DUP2 AND SWAP3 DUP4 ISZERO PUSH2 0x2C82 JUMPI DUP3 AND SWAP4 DUP5 ISZERO PUSH2 0x2BFE JUMPI DUP1 PUSH2 0x2BED PUSH32 0x8C5BE1E5EBEC7D5BD14F71427D1E84F3DD0314C0F7B2291E5B200AC8C7C3B925 SWAP5 PUSH2 0x2BC8 PUSH2 0x2AC2 SWAP6 PUSH20 0xFFFFFFFFFFFFFFFFFFFFFFFFFFFFFFFFFFFFFFFF AND PUSH1 0x0 MSTORE PUSH1 0x1 PUSH1 0x20 MSTORE PUSH1 0x40 PUSH1 0x0 KECCAK256 SWAP1 JUMP JUMPDEST SWAP1 PUSH20 0xFFFFFFFFFFFFFFFFFFFFFFFFFFFFFFFFFFFFFFFF AND PUSH1 0x0 MSTORE PUSH1 0x20 MSTORE PUSH1 0x40 PUSH1 0x0 KECCAK256 SWAP1 JUMP JUMPDEST SSTORE PUSH1 0x40 MLOAD SWAP1 DUP2 MSTORE SWAP1 DUP2 SWAP1 PUSH1 0x20 DUP3 ADD SWAP1 JUMP JUMPDEST PUSH1 0x84 PUSH1 0x40 MLOAD PUSH32 0x8C379A000000000000000000000000000000000000000000000000000000000 DUP2 MSTORE PUSH1 0x20 PUSH1 0x4 DUP3 ADD MSTORE PUSH1 0x22 PUSH1 0x24 DUP3 ADD MSTORE PUSH32 0x45524332303A20617070726F766520746F20746865207A65726F206164647265 PUSH1 0x44 DUP3 ADD MSTORE PUSH32 0x7373000000000000000000000000000000000000000000000000000000000000 PUSH1 0x64 DUP3 ADD MSTORE REVERT JUMPDEST PUSH1 0x84 PUSH1 0x40 MLOAD PUSH32 0x8C379A000000000000000000000000000000000000000000000000000000000 DUP2 MSTORE PUSH1 0x20 PUSH1 0x4 DUP3 ADD MSTORE PUSH1 0x24 DUP1 DUP3 ADD MSTORE PUSH32 0x45524332303A20617070726F76652066726F6D20746865207A65726F20616464 PUSH1 0x44 DUP3 ADD MSTORE PUSH32 0x7265737300000000000000000000000000000000000000000000000000000000 PUSH1 0x64 DUP3 ADD MSTORE REVERT JUMPDEST MLOAD SWAP1 PUSH10 0xFFFFFFFFFFFFFFFFFFFF DUP3 AND DUP3 SUB PUSH2 0x43D JUMPI JUMP JUMPDEST POP PUSH1 0x40 MLOAD RETURNDATASIZE PUSH1 0x0 DUP3 RETURNDATACOPY RETURNDATASIZE SWAP1 REVERT JUMPDEST PUSH1 0xA0 PUSH20 0xFFFFFFFFFFFFFFFFFFFFFFFFFFFFFFFFFFFFFFFF SWAP2 PUSH1 0x4 PUSH1 0x40 MLOAD DUP1 SWAP5 DUP2 SWAP4 PUSH32 0xFEAF968C00000000000000000000000000000000000000000000000000000000 DUP4 MSTORE AND GAS STATICCALL SWAP1 DUP2 ISZERO PUSH2 0x2DCC JUMPI JUMPDEST PUSH1 0x0 SWAP2 PUSH2 0x2D83 JUMPI POP SWAP1 JUMP JUMPDEST SWAP1 PUSH1 0xA0 DUP3 RETURNDATASIZE DUP3 GT PUSH2 0x2DC4 JUMPI JUMPDEST DUP2 PUSH2 0x2D9C PUSH1 0xA0 SWAP4 DUP4 PUSH2 0x1B1D JUMP JUMPDEST DUP2 ADD SUB SLT PUSH2 0x61F JUMPI POP PUSH2 0x2DAE DUP2 PUSH2 0x2D05 JUMP JUMPDEST POP PUSH2 0x2DC0 PUSH1 0x80 PUSH1 0x20 DUP4 ADD MLOAD SWAP3 ADD PUSH2 0x2D05 JUMP JUMPDEST POP SWAP1 JUMP JUMPDEST RETURNDATASIZE SWAP2 POP PUSH2 0x2D8F JUMP JUMPDEST PUSH2 0x2DD4 PUSH2 0x2D1C JUMP JUMPDEST PUSH2 0x2D78 JUMP JUMPDEST DUP1 PUSH1 0x12 LT PUSH2 0x2DE8 JUMPI JUMPDEST PUSH1 0x12 SUB SWAP1 JUMP JUMPDEST PUSH2 0x2DF0 PUSH2 0x2864 JUMP JUMPDEST PUSH2 0x2DE2 JUMP JUMPDEST PUSH32 0xFFFFFFFFFFFFFFFFFFFFFFFFFFFFFFFFFFFFFFFFFFFFFFFFFFFFFFFFFFFFFFFF SWAP1 PUSH1 0x1 DUP2 LT PUSH2 0x28A0 JUMPI ADD SWAP1 JUMP JUMPDEST DUP2 DUP2 LT PUSH2 0x2E2E JUMPI SUB SWAP1 JUMP JUMPDEST PUSH2 0x2E36 PUSH2 0x2864 JUMP JUMPDEST SUB SWAP1 JUMP JUMPDEST PUSH1 0x40 MLOAD SWAP1 PUSH2 0x100 DUP3 ADD DUP3 DUP2 LT PUSH8 0xFFFFFFFFFFFFFFFF DUP3 GT OR PUSH2 0x2E8C JUMPI JUMPDEST PUSH1 0x40 MSTORE DUP2 PUSH1 0x60 DUP2 MSTORE PUSH1 0xE0 PUSH1 0x0 SWAP2 DUP3 PUSH1 0x20 DUP3 ADD MSTORE DUP3 PUSH1 0x40 DUP3 ADD MSTORE DUP3 PUSH1 0x60 DUP3 ADD MSTORE DUP3 PUSH1 0x80 DUP3 ADD MSTORE DUP3 PUSH1 0xA0 DUP3 ADD MSTORE DUP3 PUSH1 0xC0 DUP3 ADD MSTORE ADD MSTORE JUMP JUMPDEST PUSH2 0x2E94 PUSH2 0x1AED JUMP JUMPDEST PUSH2 0x2E57 JUMP JUMPDEST PUSH1 0x40 MLOAD SWAP1 PUSH1 0xA0 DUP3 ADD DUP3 DUP2 LT PUSH8 0xFFFFFFFFFFFFFFFF DUP3 GT OR PUSH2 0x2EE3 JUMPI JUMPDEST PUSH1 0x40 MSTORE PUSH1 0x4 DUP3 MSTORE DUP2 PUSH1 0x0 JUMPDEST PUSH1 0x80 DUP2 LT PUSH2 0x2ECC JUMPI POP POP JUMP JUMPDEST PUSH1 0x20 SWAP1 PUSH2 0x2ED7 PUSH2 0x2E3A JUMP JUMPDEST DUP3 DUP3 DUP6 ADD ADD MSTORE ADD PUSH2 0x2EC0 JUMP JUMPDEST PUSH2 0x2EEB PUSH2 0x1AED JUMP JUMPDEST PUSH2 0x2EB5 JUMP JUMPDEST PUSH1 0x20 SWAP1 DUP1 MLOAD ISZERO PUSH2 0x2EFE JUMPI ADD SWAP1 JUMP JUMPDEST PUSH2 0x28A8 PUSH2 0x7FC JUMP JUMPDEST PUSH1 0x40 SWAP1 DUP1 MLOAD PUSH1 0x1 LT ISZERO PUSH2 0x2EFE JUMPI ADD SWAP1 JUMP JUMPDEST PUSH1 0x60 SWAP1 DUP1 MLOAD PUSH1 0x2 LT ISZERO PUSH2 0x2EFE JUMPI ADD SWAP1 JUMP JUMPDEST PUSH1 0x80 SWAP1 DUP1 MLOAD PUSH1 0x3 LT ISZERO PUSH2 0x2EFE JUMPI ADD SWAP1 JUMP JUMPDEST PUSH1 0x20 SWAP2 DUP2 MLOAD DUP2 LT ISZERO PUSH2 0x2F4E JUMPI JUMPDEST PUSH1 0x5 SHL ADD ADD SWAP1 JUMP JUMPDEST PUSH2 0x2F56 PUSH2 0x7FC JUMP JUMPDEST PUSH2 0x2F46 JUMP JUMPDEST PUSH1 0xFF PUSH1 0x1 SWAP2 AND PUSH1 0xFF DUP2 EQ PUSH2 0x28A0 JUMPI ADD SWAP1 JUMP JUMPDEST SWAP1 DUP2 PUSH1 0x20 SWAP2 SUB SLT PUSH2 0x43D JUMPI MLOAD SWAP1 JUMP JUMPDEST SWAP1 DUP2 PUSH1 0x20 SWAP2 SUB SLT PUSH2 0x43D JUMPI MLOAD PUSH1 0xFF DUP2 AND DUP2 SUB PUSH2 0x43D JUMPI SWAP1 JUMP JUMPDEST PUSH32 0x7FFFFFFFFFFFFFFFFFFFFFFFFFFFFFFFFFFFFFFFFFFFFFFFFFFFFFFFFFFFFFFF DUP2 GT PUSH1 0x1 AND PUSH2 0x2FC6 JUMPI JUMPDEST PUSH1 0x1 SHL SWAP1 JUMP JUMPDEST PUSH2 0x2FCE PUSH2 0x2864 JUMP JUMPDEST PUSH2 0x2FC0 JUMP JUMPDEST DUP1 PUSH32 0xFFFFFFFFFFFFFFFFFFFFFFFFFFFFFFFFFFFFFFFFFFFFFFFFFFFFFFFFFFFFFFFF DIV DUP3 GT DUP2 ISZERO ISZERO AND PUSH2 0x3004 JUMPI MUL SWAP1 JUMP JUMPDEST PUSH2 0x300C PUSH2 0x2864 JUMP JUMPDEST MUL SWAP1 JUMP JUMPDEST PUSH1 0x4D DUP2 GT PUSH2 0x301F JUMPI JUMPDEST PUSH1 0xA EXP SWAP1 JUMP JUMPDEST PUSH2 0x3027 PUSH2 0x2864 JUMP JUMPDEST PUSH2 0x3019 JUMP JUMPDEST POP PUSH32 0x4E487B7100000000000000000000000000000000000000000000000000000000 PUSH1 0x0 MSTORE PUSH1 0x12 PUSH1 0x4 MSTORE PUSH1 0x24 PUSH1 0x0 REVERT JUMPDEST DUP2 ISZERO PUSH2 0x3066 JUMPI DIV SWAP1 JUMP JUMPDEST PUSH2 0x306E PUSH2 0x302C JUMP JUMPDEST DIV SWAP1 JUMP JUMPDEST PUSH1 0x0 DUP3 SLT DUP3 PUSH32 0x8000000000000000000000000000000000000000000000000000000000000000 ADD DUP3 SLT DUP2 ISZERO AND PUSH2 0x30D1 JUMPI JUMPDEST DUP3 PUSH32 0x7FFFFFFFFFFFFFFFFFFFFFFFFFFFFFFFFFFFFFFFFFFFFFFFFFFFFFFFFFFFFFFF ADD DUP3 SGT AND PUSH2 0x2E2E JUMPI SUB SWAP1 JUMP JUMPDEST PUSH2 0x30D9 PUSH2 0x2864 JUMP JUMPDEST PUSH2 0x30A3 JUMP JUMPDEST SWAP1 PUSH2 0x30E8 DUP3 PUSH2 0x1B6B JUMP JUMPDEST PUSH2 0x30F5 PUSH1 0x40 MLOAD SWAP2 DUP3 PUSH2 0x1B1D JUMP JUMPDEST DUP3 DUP2 MSTORE PUSH32 0xFFFFFFFFFFFFFFFFFFFFFFFFFFFFFFFFFFFFFFFFFFFFFFFFFFFFFFFFFFFFFFE0 PUSH2 0x3123 DUP3 SWAP5 PUSH2 0x1B6B JUMP JUMPDEST ADD SWAP1 PUSH1 0x20 CALLDATASIZE SWAP2 ADD CALLDATACOPY JUMP JUMPDEST PUSH1 0x40 MLOAD SWAP1 PUSH1 0x60 DUP3 ADD DUP3 DUP2 LT PUSH8 0xFFFFFFFFFFFFFFFF DUP3 GT OR PUSH2 0x315B JUMPI JUMPDEST PUSH1 0x40 MSTORE PUSH1 0x2 DUP3 MSTORE PUSH1 0x40 DUP3 PUSH1 0x20 CALLDATASIZE SWAP2 ADD CALLDATACOPY JUMP JUMPDEST PUSH2 0x3163 PUSH2 0x1AED JUMP JUMPDEST PUSH2 0x3149 JUMP JUMPDEST PUSH1 0x40 MLOAD SWAP1 PUSH1 0x80 DUP3 ADD DUP3 DUP2 LT PUSH8 0xFFFFFFFFFFFFFFFF DUP3 GT OR PUSH2 0x3195 JUMPI JUMPDEST PUSH1 0x40 MSTORE PUSH1 0x3 DUP3 MSTORE PUSH1 0x60 CALLDATASIZE PUSH1 0x20 DUP5 ADD CALLDATACOPY JUMP JUMPDEST PUSH2 0x319D PUSH2 0x1AED JUMP JUMPDEST PUSH2 0x3184 JUMP JUMPDEST PUSH1 0x0 DUP2 SLT DUP2 PUSH32 0x7FFFFFFFFFFFFFFFFFFFFFFFFFFFFFFFFFFFFFFFFFFFFFFFFFFFFFFFFFFFFFFF SUB DUP4 SGT DUP2 ISZERO AND PUSH2 0x3201 JUMPI JUMPDEST DUP2 PUSH32 0x8000000000000000000000000000000000000000000000000000000000000000 SUB DUP4 SLT AND PUSH2 0x28A0 JUMPI ADD SWAP1 JUMP JUMPDEST PUSH2 0x3209 PUSH2 0x2864 JUMP JUMPDEST PUSH2 0x31D3 JUMP JUMPDEST PUSH4 0x5F5E100 SWAP1 PUSH1 0x1 PUSH29 0x15798EE2308C39DF9FB841A566D74F87A7A9A7AEB02C2D2F8E0D1E768D DUP3 GT PUSH1 0x0 DUP4 SGT AND AND PUSH2 0x3274 JUMPI JUMPDEST PUSH1 0x1 PUSH32 0xFFFFFFEA86711DCF73C6206047BE5A9928B078585658514FD3D2D071F2E18973 DUP3 SLT PUSH1 0x0 DUP4 SLT AND AND PUSH2 0x3004 JUMPI MUL SWAP1 JUMP JUMPDEST PUSH2 0x327C PUSH2 0x2864 JUMP JUMPDEST PUSH2 0x3241 JUMP JUMPDEST DUP2 ISZERO PUSH2 0x32E3 JUMPI JUMPDEST PUSH32 0xFFFFFFFFFFFFFFFFFFFFFFFFFFFFFFFFFFFFFFFFFFFFFFFFFFFFFFFFFFFFFFFF DUP3 EQ PUSH32 0x8000000000000000000000000000000000000000000000000000000000000000 DUP3 EQ AND PUSH2 0x32D7 JUMPI SDIV SWAP1 JUMP JUMPDEST PUSH2 0x32DF PUSH2 0x2864 JUMP JUMPDEST SDIV SWAP1 JUMP JUMPDEST PUSH2 0x32EB PUSH2 0x302C JUMP JUMPDEST PUSH2 0x3288 JUMP JUMPDEST PUSH2 0x1FE SWAP1 PUSH1 0x7F PUSH1 0xFF DUP3 AND GT PUSH1 0x1 AND PUSH2 0x330A JUMPI JUMPDEST PUSH1 0x1 SHL AND SWAP1 JUMP JUMPDEST PUSH2 0x3312 PUSH2 0x2864 JUMP JUMPDEST PUSH2 0x3303 JUMP JUMPDEST PUSH1 0xFF PUSH1 0x1 SWAP2 AND PUSH1 0xFE DUP2 GT PUSH2 0x28A0 JUMPI ADD SWAP1 JUMP JUMPDEST SWAP1 DUP2 MLOAD DUP1 DUP3 MSTORE PUSH1 0x20 DUP1 DUP1 SWAP4 ADD SWAP4 ADD SWAP2 PUSH1 0x0 JUMPDEST DUP3 DUP2 LT PUSH2 0x3349 JUMPI POP POP POP POP SWAP1 JUMP JUMPDEST DUP4 MLOAD PUSH20 0xFFFFFFFFFFFFFFFFFFFFFFFFFFFFFFFFFFFFFFFF AND DUP6 MSTORE SWAP4 DUP2 ADD SWAP4 SWAP3 DUP2 ADD SWAP3 PUSH1 0x1 ADD PUSH2 0x333B JUMP JUMPDEST SWAP1 PUSH2 0x3386 SWAP1 PUSH1 0x40 DUP4 MSTORE PUSH1 0x40 DUP4 ADD SWAP1 PUSH2 0x3329 JUMP JUMPDEST DUP2 DUP2 SUB PUSH1 0x20 SWAP3 DUP4 ADD MSTORE DUP3 MLOAD DUP1 DUP3 MSTORE SWAP1 DUP3 ADD SWAP3 DUP3 ADD SWAP2 PUSH1 0x0 JUMPDEST DUP3 DUP2 LT PUSH2 0x33AC JUMPI POP POP POP POP SWAP1 JUMP JUMPDEST DUP4 MLOAD DUP6 MSTORE SWAP4 DUP2 ADD SWAP4 SWAP3 DUP2 ADD SWAP3 PUSH1 0x1 ADD PUSH2 0x339E JUMP JUMPDEST SWAP2 SWAP1 PUSH1 0x40 DUP4 DUP3 SUB SLT PUSH2 0x43D JUMPI PUSH8 0xFFFFFFFFFFFFFFFF SWAP3 DUP1 CALLDATALOAD DUP5 DUP2 GT PUSH2 0x43D JUMPI DUP3 PUSH2 0x33EB SWAP2 DUP4 ADD PUSH2 0x1B92 JUMP JUMPDEST SWAP4 PUSH1 0x20 SWAP2 DUP3 DUP2 ADD CALLDATALOAD SWAP2 DUP3 GT PUSH2 0x43D JUMPI ADD SWAP2 DUP1 PUSH1 0x1F DUP5 ADD SLT ISZERO PUSH2 0x43D JUMPI DUP3 CALLDATALOAD PUSH2 0x3412 DUP2 PUSH2 0x1B6B JUMP JUMPDEST SWAP4 PUSH2 0x3420 PUSH1 0x40 MLOAD SWAP6 DUP7 PUSH2 0x1B1D JUMP JUMPDEST DUP2 DUP6 MSTORE DUP4 DUP1 DUP7 ADD SWAP3 PUSH1 0x5 SHL DUP3 ADD ADD SWAP3 DUP4 GT PUSH2 0x43D JUMPI DUP4 ADD SWAP1 JUMPDEST DUP3 DUP3 LT PUSH2 0x3447 JUMPI POP POP POP POP SWAP1 JUMP JUMPDEST DUP2 CALLDATALOAD DUP2 MSTORE SWAP1 DUP4 ADD SWAP1 DUP4 ADD PUSH2 0x3439 JUMP JUMPDEST PUSH1 0x0 DUP1 DUP3 SLT PUSH2 0x3463 JUMPI POP SWAP1 JUMP JUMPDEST PUSH32 0x8000000000000000000000000000000000000000000000000000000000000000 DUP3 EQ PUSH2 0x2E2E JUMPI SUB SWAP1 JUMP JUMPDEST SWAP1 DUP2 PUSH1 0x20 SWAP2 SUB SLT PUSH2 0x43D JUMPI MLOAD DUP1 ISZERO ISZERO DUP2 SUB PUSH2 0x43D JUMPI SWAP1 JUMP JUMPDEST PUSH1 0x40 MLOAD SWAP1 PUSH32 0x95EA7B300000000000000000000000000000000000000000000000000000000 DUP3 MSTORE PUSH20 0xA5E0829CACED8FFDD4DE3C43696C57F7D7A678FF PUSH1 0x4 DUP4 ADD MSTORE PUSH1 0x24 DUP3 ADD MSTORE PUSH1 0x20 DUP2 PUSH1 0x44 DUP2 PUSH1 0x0 PUSH20 0xD500B1D8E8EF31E21C99D1DB9A6444D3ADF1270 GAS CALL DUP1 ISZERO PUSH2 0x3533 JUMPI JUMPDEST PUSH2 0x3519 JUMPI POP JUMP JUMPDEST PUSH2 0x3530 SWAP1 PUSH1 0x20 RETURNDATASIZE DUP2 GT PUSH2 0x229A JUMPI PUSH2 0x2292 DUP2 DUP4 PUSH2 0x1B1D JUMP JUMPDEST POP JUMP JUMPDEST PUSH2 0x353B PUSH2 0x2D1C JUMP JUMPDEST PUSH2 0x3512 JUMP JUMPDEST PUSH1 0x40 MLOAD SWAP1 PUSH32 0x95EA7B300000000000000000000000000000000000000000000000000000000 DUP3 MSTORE PUSH20 0xA5E0829CACED8FFDD4DE3C43696C57F7D7A678FF PUSH1 0x4 DUP4 ADD MSTORE PUSH1 0x24 DUP3 ADD MSTORE PUSH1 0x20 DUP2 PUSH1 0x44 DUP2 PUSH1 0x0 PUSH20 0xBBBA073C31BF03B8ACF7C28EF0738DECF3695683 GAS CALL DUP1 ISZERO PUSH2 0x3533 JUMPI PUSH2 0x3519 JUMPI POP JUMP JUMPDEST PUSH1 0x40 MLOAD SWAP1 PUSH32 0x95EA7B300000000000000000000000000000000000000000000000000000000 DUP3 MSTORE PUSH20 0xA5E0829CACED8FFDD4DE3C43696C57F7D7A678FF PUSH1 0x4 DUP4 ADD MSTORE PUSH1 0x24 DUP3 ADD MSTORE PUSH1 0x20 DUP2 PUSH1 0x44 DUP2 PUSH1 0x0 PUSH20 0x7CEB23FD6BC0ADD59E62AC25578270CFF1B9F619 GAS CALL DUP1 ISZERO PUSH2 0x3533 JUMPI PUSH2 0x3519 JUMPI POP JUMP JUMPDEST PUSH1 0x40 MLOAD SWAP1 PUSH32 0x95EA7B300000000000000000000000000000000000000000000000000000000 DUP3 MSTORE PUSH20 0xA5E0829CACED8FFDD4DE3C43696C57F7D7A678FF PUSH1 0x4 DUP4 ADD MSTORE PUSH1 0x24 DUP3 ADD MSTORE PUSH1 0x20 DUP2 PUSH1 0x44 DUP2 PUSH1 0x0 PUSH20 0x1BFD67037B42CF73ACF2047067BD4F2C47D9BFD6 GAS CALL DUP1 ISZERO PUSH2 0x3533 JUMPI PUSH2 0x3519 JUMPI POP JUMP JUMPDEST PUSH1 0x20 SWAP1 PUSH1 0x44 PUSH20 0xFFFFFFFFFFFFFFFFFFFFFFFFFFFFFFFFFFFFFFFF SWAP4 PUSH1 0x0 PUSH1 0x40 MLOAD SWAP6 DUP7 SWAP5 DUP6 SWAP4 PUSH32 0x95EA7B300000000000000000000000000000000000000000000000000000000 DUP6 MSTORE PUSH20 0xA5E0829CACED8FFDD4DE3C43696C57F7D7A678FF PUSH1 0x4 DUP7 ADD MSTORE PUSH1 0x24 DUP6 ADD MSTORE AND GAS CALL DUP1 ISZERO PUSH2 0x3533 JUMPI PUSH2 0x3519 JUMPI POP JUMP JUMPDEST PUSH1 0x40 MLOAD SWAP1 PUSH32 0x95EA7B300000000000000000000000000000000000000000000000000000000 DUP3 MSTORE PUSH20 0xA5E0829CACED8FFDD4DE3C43696C57F7D7A678FF PUSH1 0x4 DUP4 ADD MSTORE PUSH1 0x24 DUP3 ADD MSTORE PUSH1 0x20 DUP2 PUSH1 0x44 DUP2 PUSH1 0x0 PUSH20 0x2791BCA1F2DE4661ED88A30C99A7A9449AA84174 GAS CALL DUP1 ISZERO PUSH2 0x3533 JUMPI PUSH2 0x3519 JUMPI POP JUMP JUMPDEST PUSH1 0x40 MLOAD PUSH32 0x95EA7B300000000000000000000000000000000000000000000000000000000 DUP2 MSTORE PUSH20 0xFFFFFFFFFFFFFFFFFFFFFFFFFFFFFFFFFFFFFFFF SWAP3 DUP4 AND PUSH1 0x4 DUP3 ADD MSTORE PUSH1 0x24 DUP2 ADD SWAP4 SWAP1 SWAP4 MSTORE PUSH1 0x20 SWAP2 DUP4 SWAP2 PUSH1 0x44 SWAP2 DUP4 SWAP2 PUSH1 0x0 SWAP2 AND GAS CALL DUP1 ISZERO PUSH2 0x3533 JUMPI PUSH2 0x3519 JUMPI POP JUMP JUMPDEST PUSH20 0xFFFFFFFFFFFFFFFFFFFFFFFFFFFFFFFFFFFFFFFF DUP2 AND SWAP2 DUP3 ISZERO PUSH2 0x387A JUMPI PUSH1 0x20 DUP2 PUSH2 0x3864 PUSH1 0x0 SWAP5 PUSH2 0x383B PUSH32 0xDDF252AD1BE2C89B69C2B068FC378DAA952BA7F163C4A11628F55A4DF523B3EF SWAP6 PUSH1 0x2 SLOAD PUSH2 0x2894 JUMP JUMPDEST PUSH1 0x2 SSTORE PUSH20 0xFFFFFFFFFFFFFFFFFFFFFFFFFFFFFFFFFFFFFFFF AND PUSH1 0x0 MSTORE PUSH1 0x0 PUSH1 0x20 MSTORE PUSH1 0x40 PUSH1 0x0 KECCAK256 SWAP1 JUMP JUMPDEST PUSH2 0x386F DUP3 DUP3 SLOAD PUSH2 0x2894 JUMP JUMPDEST SWAP1 SSTORE PUSH1 0x40 MLOAD SWAP1 DUP2 MSTORE LOG3 JUMP JUMPDEST PUSH1 0x64 PUSH1 0x40 MLOAD PUSH32 0x8C379A000000000000000000000000000000000000000000000000000000000 DUP2 MSTORE PUSH1 0x20 PUSH1 0x4 DUP3 ADD MSTORE PUSH1 0x1F PUSH1 0x24 DUP3 ADD MSTORE PUSH32 0x45524332303A206D696E7420746F20746865207A65726F206164647265737300 PUSH1 0x44 DUP3 ADD MSTORE REVERT JUMPDEST PUSH2 0x38E1 ADDRESS PUSH2 0x4292 JUMP JUMPDEST PUSH1 0x40 MLOAD PUSH32 0xFEAF968C00000000000000000000000000000000000000000000000000000000 DUP2 MSTORE PUSH1 0xA0 DUP2 PUSH1 0x4 DUP2 PUSH20 0xAB594600376EC9FD91F8E885DADF0CE036862DE0 GAS STATICCALL SWAP1 DUP2 ISZERO PUSH2 0x39A6 JUMPI JUMPDEST PUSH1 0x0 SWAP2 PUSH2 0x3949 JUMPI JUMPDEST POP PUSH2 0x306E SWAP1 PUSH9 0x56BC75E2D63100000 SWAP3 PUSH2 0x2FD3 JUMP JUMPDEST SWAP1 PUSH1 0xA0 DUP3 RETURNDATASIZE DUP3 GT PUSH2 0x399E JUMPI JUMPDEST DUP2 PUSH2 0x3962 PUSH1 0xA0 SWAP4 DUP4 PUSH2 0x1B1D JUMP JUMPDEST DUP2 ADD SUB SLT PUSH2 0x61F JUMPI POP PUSH9 0x56BC75E2D63100000 SWAP2 DUP2 PUSH2 0x3983 PUSH2 0x306E SWAP4 PUSH2 0x2D05 JUMP JUMPDEST POP PUSH2 0x3995 PUSH1 0x80 PUSH1 0x20 DUP4 ADD MLOAD SWAP3 ADD PUSH2 0x2D05 JUMP JUMPDEST POP SWAP2 POP SWAP2 PUSH2 0x3934 JUMP JUMPDEST RETURNDATASIZE SWAP2 POP PUSH2 0x3955 JUMP JUMPDEST PUSH2 0x39AE PUSH2 0x2D1C JUMP JUMPDEST PUSH2 0x392C JUMP JUMPDEST PUSH2 0x39BC ADDRESS PUSH2 0x4329 JUMP JUMPDEST PUSH1 0x40 MLOAD PUSH32 0xFEAF968C00000000000000000000000000000000000000000000000000000000 DUP2 MSTORE PUSH1 0xA0 DUP2 PUSH1 0x4 DUP2 PUSH20 0x3D49406EDD4D52FB7FFD25485F32E073B529C924 GAS STATICCALL SWAP1 DUP2 ISZERO PUSH2 0x39A6 JUMPI PUSH1 0x0 SWAP2 PUSH2 0x3949 JUMPI POP PUSH2 0x306E SWAP1 PUSH9 0x56BC75E2D63100000 SWAP3 PUSH2 0x2FD3 JUMP JUMPDEST PUSH2 0x3A2B ADDRESS PUSH2 0x439A JUMP JUMPDEST PUSH1 0x40 MLOAD PUSH32 0xFEAF968C00000000000000000000000000000000000000000000000000000000 DUP2 MSTORE PUSH1 0xA0 DUP2 PUSH1 0x4 DUP2 PUSH20 0xF9680D99D6C9589E2A93A78A04A279E509205945 GAS STATICCALL SWAP1 DUP2 ISZERO PUSH2 0x39A6 JUMPI PUSH1 0x0 SWAP2 PUSH2 0x3949 JUMPI POP PUSH2 0x306E SWAP1 PUSH9 0x56BC75E2D63100000 SWAP3 PUSH2 0x2FD3 JUMP JUMPDEST PUSH2 0x3A9A ADDRESS PUSH2 0x440B JUMP JUMPDEST PUSH1 0x40 MLOAD PUSH32 0xFEAF968C00000000000000000000000000000000000000000000000000000000 DUP2 MSTORE PUSH1 0xA0 DUP2 PUSH1 0x4 DUP2 PUSH20 0xC907E116054AD103354F2D350FD2514433D57F6F GAS STATICCALL SWAP1 DUP2 ISZERO PUSH2 0x3B57 JUMPI JUMPDEST PUSH1 0x0 SWAP2 PUSH2 0x3AFE JUMPI JUMPDEST POP PUSH2 0x306E SWAP1 PUSH5 0x2540BE400 SWAP3 PUSH2 0x2FD3 JUMP JUMPDEST SWAP1 PUSH1 0xA0 DUP3 RETURNDATASIZE DUP3 GT PUSH2 0x3B4F JUMPI JUMPDEST DUP2 PUSH2 0x3B17 PUSH1 0xA0 SWAP4 DUP4 PUSH2 0x1B1D JUMP JUMPDEST DUP2 ADD SUB SLT PUSH2 0x61F JUMPI POP PUSH5 0x2540BE400 SWAP2 DUP2 PUSH2 0x3B34 PUSH2 0x306E SWAP4 PUSH2 0x2D05 JUMP JUMPDEST POP PUSH2 0x3B46 PUSH1 0x80 PUSH1 0x20 DUP4 ADD MLOAD SWAP3 ADD PUSH2 0x2D05 JUMP JUMPDEST POP SWAP2 POP SWAP2 PUSH2 0x3AED JUMP JUMPDEST RETURNDATASIZE SWAP2 POP PUSH2 0x3B0A JUMP JUMPDEST PUSH2 0x3B5F PUSH2 0x2D1C JUMP JUMPDEST PUSH2 0x3AE5 JUMP JUMPDEST PUSH2 0x4C2 PUSH2 0x3B6F PUSH2 0x38D8 JUMP JUMPDEST PUSH2 0x2466 PUSH2 0x3B7A PUSH2 0x39B3 JUMP JUMPDEST PUSH2 0x2466 PUSH2 0x3B85 PUSH2 0x3A22 JUMP JUMPDEST SWAP2 PUSH2 0x3B8E PUSH2 0x3A91 JUMP JUMPDEST SWAP5 PUSH2 0x2894 JUMP JUMPDEST PUSH1 0x40 MLOAD SWAP1 PUSH1 0x5 SLOAD DUP1 DUP4 MSTORE DUP3 PUSH1 0x20 SWAP2 DUP3 DUP3 ADD SWAP1 PUSH1 0x5 PUSH1 0x0 MSTORE PUSH32 0x36B6384B5ECA791C62761152D0C79BB0604C104A5FB6F4EB0703F3154BB3DB0 SWAP4 PUSH1 0x0 SWAP1 JUMPDEST DUP3 DUP3 LT PUSH2 0x3BE9 JUMPI POP POP POP PUSH2 0x3BE7 SWAP3 POP SUB DUP4 PUSH2 0x1B1D JUMP JUMPDEST JUMP JUMPDEST DUP6 SLOAD PUSH20 0xFFFFFFFFFFFFFFFFFFFFFFFFFFFFFFFFFFFFFFFF AND DUP5 MSTORE PUSH1 0x1 SWAP6 DUP7 ADD SWAP6 DUP9 SWAP6 POP SWAP4 DUP2 ADD SWAP4 SWAP1 SWAP2 ADD SWAP1 PUSH2 0x3BD1 JUMP JUMPDEST PUSH1 0x40 MLOAD SWAP1 PUSH1 0x6 SLOAD DUP1 DUP4 MSTORE DUP3 PUSH1 0x20 SWAP2 DUP3 DUP3 ADD SWAP1 PUSH1 0x6 PUSH1 0x0 MSTORE PUSH32 0xF652222313E28459528D920B65115C16C04F3EFC82AAEDC97BE59F3F377C0D3F SWAP4 PUSH1 0x0 SWAP1 JUMPDEST DUP3 DUP3 LT PUSH2 0x3C6C JUMPI POP POP POP PUSH2 0x3BE7 SWAP3 POP SUB DUP4 PUSH2 0x1B1D JUMP JUMPDEST DUP6 SLOAD PUSH20 0xFFFFFFFFFFFFFFFFFFFFFFFFFFFFFFFFFFFFFFFF AND DUP5 MSTORE PUSH1 0x1 SWAP6 DUP7 ADD SWAP6 DUP9 SWAP6 POP SWAP4 DUP2 ADD SWAP4 SWAP1 SWAP2 ADD SWAP1 PUSH2 0x3C56 JUMP JUMPDEST PUSH1 0x40 MLOAD SWAP1 PUSH1 0x7 SLOAD DUP1 DUP4 MSTORE DUP3 PUSH1 0x20 SWAP2 DUP3 DUP3 ADD SWAP1 PUSH1 0x7 PUSH1 0x0 MSTORE PUSH32 0xA66CC928B5EDB82AF9BD49922954155AB7B0942694BEA4CE44661D9A8736C688 SWAP4 PUSH1 0x0 SWAP1 JUMPDEST DUP3 DUP3 LT PUSH2 0x3CEF JUMPI POP POP POP PUSH2 0x3BE7 SWAP3 POP SUB DUP4 PUSH2 0x1B1D JUMP JUMPDEST DUP6 SLOAD PUSH20 0xFFFFFFFFFFFFFFFFFFFFFFFFFFFFFFFFFFFFFFFF AND DUP5 MSTORE PUSH1 0x1 SWAP6 DUP7 ADD SWAP6 DUP9 SWAP6 POP SWAP4 DUP2 ADD SWAP4 SWAP1 SWAP2 ADD SWAP1 PUSH2 0x3CD9 JUMP JUMPDEST PUSH1 0x40 MLOAD SWAP1 PUSH1 0x8 SLOAD DUP1 DUP4 MSTORE DUP3 PUSH1 0x20 SWAP2 DUP3 DUP3 ADD SWAP1 PUSH1 0x8 PUSH1 0x0 MSTORE PUSH32 0xF3F7A9FE364FAAB93B216DA50A3214154F22A0A2B415B23A84C8169E8B636EE3 SWAP4 PUSH1 0x0 SWAP1 JUMPDEST DUP3 DUP3 LT PUSH2 0x3D72 JUMPI POP POP POP PUSH2 0x3BE7 SWAP3 POP SUB DUP4 PUSH2 0x1B1D JUMP JUMPDEST DUP6 SLOAD PUSH20 0xFFFFFFFFFFFFFFFFFFFFFFFFFFFFFFFFFFFFFFFF AND DUP5 MSTORE PUSH1 0x1 SWAP6 DUP7 ADD SWAP6 DUP9 SWAP6 POP SWAP4 DUP2 ADD SWAP4 SWAP1 SWAP2 ADD SWAP1 PUSH2 0x3D5C JUMP JUMPDEST SWAP2 PUSH2 0x3DF9 DUP6 DUP1 PUSH2 0x3DE6 DUP10 DUP3 PUSH2 0x3DDF DUP3 PUSH2 0x3E09 SWAP10 SWAP13 PUSH2 0x3DD8 PUSH2 0x3BE7 SWAP16 PUSH2 0x3DCC PUSH2 0x3E13 SWAP16 SWAP15 DUP3 SWAP1 PUSH2 0x2FD3 JUMP JUMPDEST SWAP16 DUP4 ISZERO PUSH2 0x3E1D JUMPI PUSH2 0x2FD3 JUMP JUMPDEST DIV SWAP9 PUSH2 0x2FD3 JUMP JUMPDEST DIV SWAP8 PUSH2 0x2FD3 JUMP JUMPDEST DIV SWAP7 ADDRESS SWAP2 PUSH2 0x3DF2 PUSH2 0x3B94 JUMP JUMPDEST SWAP2 DIV PUSH2 0x45C8 JUMP JUMPDEST ADDRESS SWAP1 PUSH2 0x3E03 PUSH2 0x3C19 JUMP JUMPDEST SWAP1 PUSH2 0x45C8 JUMP JUMPDEST ADDRESS SWAP1 PUSH2 0x3E03 PUSH2 0x3C9C JUMP JUMPDEST ADDRESS SWAP1 PUSH2 0x3E03 PUSH2 0x3D1F JUMP JUMPDEST PUSH2 0x3E25 PUSH2 0x302C JUMP JUMPDEST PUSH2 0x2FD3 JUMP JUMPDEST PUSH2 0x3BE7 SWAP1 PUSH1 0x2 SHR PUSH2 0x3E43 ADDRESS PUSH2 0x3E3D PUSH2 0x3B94 JUMP JUMPDEST DUP4 PUSH2 0x45C8 JUMP JUMPDEST PUSH2 0x3E4F ADDRESS PUSH2 0x3E3D PUSH2 0x3C19 JUMP JUMPDEST PUSH2 0x3E13 ADDRESS PUSH2 0x3E3D PUSH2 0x3C9C JUMP JUMPDEST PUSH2 0x3BE7 SWAP2 PUSH2 0x3E7D PUSH2 0x3E6A PUSH2 0x3B64 JUMP JUMPDEST DUP3 DUP2 LT PUSH2 0x3E98 JUMPI JUMPDEST DUP3 PUSH1 0x2 SLOAD SWAP2 SUB PUSH2 0x2FD3 JUMP JUMPDEST DUP2 ISZERO PUSH2 0x3E8B JUMPI JUMPDEST DIV SWAP1 PUSH2 0x37E7 JUMP JUMPDEST PUSH2 0x3E93 PUSH2 0x302C JUMP JUMPDEST PUSH2 0x3E84 JUMP JUMPDEST PUSH2 0x3EA0 PUSH2 0x2864 JUMP JUMPDEST PUSH2 0x3E72 JUMP JUMPDEST PUSH20 0xFFFFFFFFFFFFFFFFFFFFFFFFFFFFFFFFFFFFFFFF DUP2 AND SWAP1 DUP2 ISZERO PUSH2 0x3FF3 JUMPI PUSH2 0x3EED DUP2 PUSH20 0xFFFFFFFFFFFFFFFFFFFFFFFFFFFFFFFFFFFFFFFF AND PUSH1 0x0 MSTORE PUSH1 0x0 PUSH1 0x20 MSTORE PUSH1 0x40 PUSH1 0x0 KECCAK256 SWAP1 JUMP JUMPDEST SLOAD DUP4 DUP2 LT PUSH2 0x3F6F JUMPI DUP4 PUSH32 0xDDF252AD1BE2C89B69C2B068FC378DAA952BA7F163C4A11628F55A4DF523B3EF SWAP3 PUSH2 0x3F4A PUSH1 0x0 SWAP7 PUSH2 0x2AC2 SWAP5 SUB SWAP2 PUSH20 0xFFFFFFFFFFFFFFFFFFFFFFFFFFFFFFFFFFFFFFFF AND PUSH1 0x0 MSTORE PUSH1 0x0 PUSH1 0x20 MSTORE PUSH1 0x40 PUSH1 0x0 KECCAK256 SWAP1 JUMP JUMPDEST SSTORE PUSH2 0x3F5F PUSH2 0x3F5A DUP3 PUSH1 0x2 SLOAD PUSH2 0x2E23 JUMP JUMPDEST PUSH1 0x2 SSTORE JUMP JUMPDEST PUSH1 0x40 MLOAD SWAP1 DUP2 MSTORE SWAP1 DUP2 SWAP1 PUSH1 0x20 DUP3 ADD SWAP1 JUMP JUMPDEST PUSH1 0x84 PUSH1 0x40 MLOAD PUSH32 0x8C379A000000000000000000000000000000000000000000000000000000000 DUP2 MSTORE PUSH1 0x20 PUSH1 0x4 DUP3 ADD MSTORE PUSH1 0x22 PUSH1 0x24 DUP3 ADD MSTORE PUSH32 0x45524332303A206275726E20616D6F756E7420657863656564732062616C616E PUSH1 0x44 DUP3 ADD MSTORE PUSH32 0x6365000000000000000000000000000000000000000000000000000000000000 PUSH1 0x64 DUP3 ADD MSTORE REVERT JUMPDEST PUSH1 0x84 PUSH1 0x40 MLOAD PUSH32 0x8C379A000000000000000000000000000000000000000000000000000000000 DUP2 MSTORE PUSH1 0x20 PUSH1 0x4 DUP3 ADD MSTORE PUSH1 0x21 PUSH1 0x24 DUP3 ADD MSTORE PUSH32 0x45524332303A206275726E2066726F6D20746865207A65726F20616464726573 PUSH1 0x44 DUP3 ADD MSTORE PUSH32 0x7300000000000000000000000000000000000000000000000000000000000000 PUSH1 0x64 DUP3 ADD MSTORE REVERT JUMPDEST PUSH1 0x40 MLOAD PUSH32 0xA9059CBB00000000000000000000000000000000000000000000000000000000 DUP2 MSTORE PUSH20 0xFFFFFFFFFFFFFFFFFFFFFFFFFFFFFFFFFFFFFFFF SWAP3 SWAP1 SWAP3 AND PUSH1 0x4 DUP4 ADD MSTORE PUSH1 0x24 DUP3 ADD MSTORE PUSH1 0x20 DUP2 PUSH1 0x44 DUP2 PUSH1 0x0 PUSH20 0x2791BCA1F2DE4661ED88A30C99A7A9449AA84174 GAS CALL DUP1 ISZERO PUSH2 0x3533 JUMPI PUSH2 0x3519 JUMPI POP JUMP JUMPDEST PUSH2 0x3BE7 SWAP1 PUSH2 0x40F8 PUSH2 0x312D JUMP JUMPDEST DUP1 MLOAD ISZERO PUSH2 0x4153 JUMPI JUMPDEST PUSH20 0xD500B1D8E8EF31E21C99D1DB9A6444D3ADF1270 PUSH1 0x20 DUP3 ADD MSTORE DUP1 MLOAD PUSH1 0x1 LT ISZERO PUSH2 0x4146 JUMPI JUMPDEST PUSH20 0x2791BCA1F2DE4661ED88A30C99A7A9449AA84174 PUSH1 0x40 DUP3 ADD MSTORE ADDRESS SWAP2 PUSH2 0x45C8 JUMP JUMPDEST PUSH2 0x414E PUSH2 0x7FC JUMP JUMPDEST PUSH2 0x4125 JUMP JUMPDEST PUSH2 0x415B PUSH2 0x7FC JUMP JUMPDEST PUSH2 0x4100 JUMP JUMPDEST PUSH2 0x3BE7 SWAP1 PUSH2 0x416C PUSH2 0x312D JUMP JUMPDEST DUP1 MLOAD ISZERO PUSH2 0x41B9 JUMPI JUMPDEST PUSH20 0xBBBA073C31BF03B8ACF7C28EF0738DECF3695683 PUSH1 0x20 DUP3 ADD MSTORE DUP1 MLOAD PUSH1 0x1 LT ISZERO PUSH2 0x4146 JUMPI PUSH20 0x2791BCA1F2DE4661ED88A30C99A7A9449AA84174 PUSH1 0x40 DUP3 ADD MSTORE ADDRESS SWAP2 PUSH2 0x45C8 JUMP JUMPDEST PUSH2 0x41C1 PUSH2 0x7FC JUMP JUMPDEST PUSH2 0x4174 JUMP JUMPDEST PUSH2 0x3BE7 SWAP1 PUSH2 0x41D2 PUSH2 0x312D JUMP JUMPDEST DUP1 MLOAD ISZERO PUSH2 0x421F JUMPI JUMPDEST PUSH20 0x7CEB23FD6BC0ADD59E62AC25578270CFF1B9F619 PUSH1 0x20 DUP3 ADD MSTORE DUP1 MLOAD PUSH1 0x1 LT ISZERO PUSH2 0x4146 JUMPI PUSH20 0x2791BCA1F2DE4661ED88A30C99A7A9449AA84174 PUSH1 0x40 DUP3 ADD MSTORE ADDRESS SWAP2 PUSH2 0x45C8 JUMP JUMPDEST PUSH2 0x4227 PUSH2 0x7FC JUMP JUMPDEST PUSH2 0x41DA JUMP JUMPDEST PUSH2 0x3BE7 SWAP1 PUSH2 0x4238 PUSH2 0x312D JUMP JUMPDEST DUP1 MLOAD ISZERO PUSH2 0x4285 JUMPI JUMPDEST PUSH20 0x1BFD67037B42CF73ACF2047067BD4F2C47D9BFD6 PUSH1 0x20 DUP3 ADD MSTORE DUP1 MLOAD PUSH1 0x1 LT ISZERO PUSH2 0x4146 JUMPI PUSH20 0x2791BCA1F2DE4661ED88A30C99A7A9449AA84174 PUSH1 0x40 DUP3 ADD MSTORE ADDRESS SWAP2 PUSH2 0x45C8 JUMP JUMPDEST PUSH2 0x428D PUSH2 0x7FC JUMP JUMPDEST PUSH2 0x4240 JUMP JUMPDEST PUSH20 0xFFFFFFFFFFFFFFFFFFFFFFFFFFFFFFFFFFFFFFFF PUSH1 0x40 MLOAD SWAP2 PUSH32 0x70A0823100000000000000000000000000000000000000000000000000000000 DUP4 MSTORE AND PUSH1 0x4 DUP3 ADD MSTORE PUSH1 0x20 DUP2 PUSH1 0x24 DUP2 PUSH20 0xD500B1D8E8EF31E21C99D1DB9A6444D3ADF1270 GAS STATICCALL SWAP1 DUP2 ISZERO PUSH2 0x431C JUMPI JUMPDEST PUSH1 0x0 SWAP2 PUSH2 0x4304 JUMPI POP SWAP1 JUMP JUMPDEST PUSH2 0x4C2 SWAP2 POP PUSH1 0x20 RETURNDATASIZE DUP2 GT PUSH2 0x159D JUMPI PUSH2 0x158F DUP2 DUP4 PUSH2 0x1B1D JUMP JUMPDEST PUSH2 0x4324 PUSH2 0x2D1C JUMP JUMPDEST PUSH2 0x42F9 JUMP JUMPDEST PUSH20 0xFFFFFFFFFFFFFFFFFFFFFFFFFFFFFFFFFFFFFFFF PUSH1 0x40 MLOAD SWAP2 PUSH32 0x70A0823100000000000000000000000000000000000000000000000000000000 DUP4 MSTORE AND PUSH1 0x4 DUP3 ADD MSTORE PUSH1 0x20 DUP2 PUSH1 0x24 DUP2 PUSH20 0xBBBA073C31BF03B8ACF7C28EF0738DECF3695683 GAS STATICCALL SWAP1 DUP2 ISZERO PUSH2 0x431C JUMPI PUSH1 0x0 SWAP2 PUSH2 0x4304 JUMPI POP SWAP1 JUMP JUMPDEST PUSH20 0xFFFFFFFFFFFFFFFFFFFFFFFFFFFFFFFFFFFFFFFF PUSH1 0x40 MLOAD SWAP2 PUSH32 0x70A0823100000000000000000000000000000000000000000000000000000000 DUP4 MSTORE AND PUSH1 0x4 DUP3 ADD MSTORE PUSH1 0x20 DUP2 PUSH1 0x24 DUP2 PUSH20 0x7CEB23FD6BC0ADD59E62AC25578270CFF1B9F619 GAS STATICCALL SWAP1 DUP2 ISZERO PUSH2 0x431C JUMPI PUSH1 0x0 SWAP2 PUSH2 0x4304 JUMPI POP SWAP1 JUMP JUMPDEST PUSH20 0xFFFFFFFFFFFFFFFFFFFFFFFFFFFFFFFFFFFFFFFF PUSH1 0x40 MLOAD SWAP2 PUSH32 0x70A0823100000000000000000000000000000000000000000000000000000000 DUP4 MSTORE AND PUSH1 0x4 DUP3 ADD MSTORE PUSH1 0x20 DUP2 PUSH1 0x24 DUP2 PUSH20 0x1BFD67037B42CF73ACF2047067BD4F2C47D9BFD6 GAS STATICCALL SWAP1 DUP2 ISZERO PUSH2 0x431C JUMPI PUSH1 0x0 SWAP2 PUSH2 0x4304 JUMPI POP SWAP1 JUMP JUMPDEST PUSH20 0xFFFFFFFFFFFFFFFFFFFFFFFFFFFFFFFFFFFFFFFF PUSH1 0x40 MLOAD SWAP2 PUSH32 0x70A0823100000000000000000000000000000000000000000000000000000000 DUP4 MSTORE AND PUSH1 0x4 DUP3 ADD MSTORE PUSH1 0x20 DUP2 PUSH1 0x24 DUP2 PUSH20 0x2791BCA1F2DE4661ED88A30C99A7A9449AA84174 GAS STATICCALL SWAP1 DUP2 ISZERO PUSH2 0x431C JUMPI PUSH1 0x0 SWAP2 PUSH2 0x4304 JUMPI POP SWAP1 JUMP JUMPDEST PUSH1 0x20 SWAP1 PUSH1 0x24 PUSH1 0x40 MLOAD DUP1 SWAP5 DUP2 SWAP4 PUSH32 0x70A0823100000000000000000000000000000000000000000000000000000000 DUP4 MSTORE PUSH20 0xFFFFFFFFFFFFFFFFFFFFFFFFFFFFFFFFFFFFFFFF DUP1 SWAP3 AND PUSH1 0x4 DUP5 ADD MSTORE AND GAS STATICCALL SWAP1 DUP2 ISZERO PUSH2 0x431C JUMPI PUSH1 0x0 SWAP2 PUSH2 0x4304 JUMPI POP SWAP1 JUMP JUMPDEST PUSH1 0x20 SWAP1 DUP2 DUP2 DUP5 SUB SLT PUSH2 0x43D JUMPI DUP1 MLOAD SWAP1 PUSH8 0xFFFFFFFFFFFFFFFF DUP3 GT PUSH2 0x43D JUMPI ADD SWAP2 DUP1 PUSH1 0x1F DUP5 ADD SLT ISZERO PUSH2 0x43D JUMPI DUP3 MLOAD PUSH2 0x4584 DUP2 PUSH2 0x1B6B JUMP JUMPDEST SWAP4 PUSH2 0x4592 PUSH1 0x40 MLOAD SWAP6 DUP7 PUSH2 0x1B1D JUMP JUMPDEST DUP2 DUP6 MSTORE DUP4 DUP1 DUP7 ADD SWAP3 PUSH1 0x5 SHL DUP3 ADD ADD SWAP3 DUP4 GT PUSH2 0x43D JUMPI DUP4 ADD SWAP1 JUMPDEST DUP3 DUP3 LT PUSH2 0x45B9 JUMPI POP POP POP POP SWAP1 JUMP JUMPDEST DUP2 MLOAD DUP2 MSTORE SWAP1 DUP4 ADD SWAP1 DUP4 ADD PUSH2 0x45AB JUMP JUMPDEST SWAP2 PUSH2 0x4636 SWAP1 PUSH1 0x0 SWAP3 DUP4 PUSH20 0xFFFFFFFFFFFFFFFFFFFFFFFFFFFFFFFFFFFFFFFF SWAP6 DUP7 PUSH1 0xF SLOAD AND SWAP4 PUSH1 0x40 MLOAD SWAP8 DUP9 SWAP7 DUP8 SWAP6 DUP7 SWAP5 PUSH32 0x38ED173900000000000000000000000000000000000000000000000000000000 DUP7 MSTORE PUSH1 0x4 DUP7 ADD MSTORE DUP6 PUSH1 0x24 DUP7 ADD MSTORE PUSH1 0xA0 PUSH1 0x44 DUP7 ADD MSTORE PUSH1 0xA4 DUP6 ADD SWAP1 PUSH2 0x3329 JUMP JUMPDEST SWAP2 AND PUSH1 0x64 DUP4 ADD MSTORE PUSH5 0x174876E7FF PUSH1 0x84 DUP4 ADD MSTORE SUB SWAP3 GAS CALL DUP1 ISZERO PUSH2 0x466E JUMPI JUMPDEST PUSH2 0x465A JUMPI POP JUMP JUMPDEST PUSH2 0x3530 SWAP1 RETURNDATASIZE DUP1 PUSH1 0x0 DUP4 RETURNDATACOPY PUSH2 0x1D0D DUP2 DUP4 PUSH2 0x1B1D JUMP JUMPDEST PUSH2 0x4676 PUSH2 0x2D1C JUMP JUMPDEST PUSH2 0x4653 JUMP INVALID LOG2 PUSH5 0x6970667358 0x22 SLT KECCAK256 0xEB EXP 0xE5 PUSH19 0xDE753C572D6C981BB086429F500B96BBD3F24F 0xE6 SWAP11 0xE GT 0xDD SLOAD PUSH29 0xEE2E64736F6C634300080D00330000000000000000000000002791BCA1 CALLCODE 0xDE CHAINID PUSH2 0xED88 LOG3 0xC SWAP10 0xA7 0xA9 DIFFICULTY SWAP11 0xA8 COINBASE PUSH21 0x0 "},"methodIdentifiers":{"BTC_USD_ORACLE()":"b6e20a6a","ETH_USD_ORACLE()":"718176e5","MATIC_USD_ORACLE()":"8db9f39a","QUICKSWAP_ROUTER()":"d0919116","SANDToUSDCPath(uint256)":"a48ce279","SAND_ADDRESS()":"2d365d31","SAND_USD_ORACLE()":"cd3f5b53","USDCToSANDPath(uint256)":"23aad7af","USDCToWBTCPath(uint256)":"a15c7d10","USDCToWETHPath(uint256)":"cb3601b1","USDCToWMATICPath(uint256)":"69bc4388","USDC_ADDRESS()":"bb09d9b7","WBTCToUSDCPath(uint256)":"ca970905","WBTC_ADDRESS()":"bdd5915f","WETHToUSDCPath(uint256)":"44345f23","WETH_ADDRESS()":"040141e5","WMATICToUSDCPath(uint256)":"681bcf13","WMATIC_ADDRESS()":"e95d8328","allowance(address,address)":"dd62ed3e","approve(address,uint256)":"095ea7b3","approveSpendingWholeBalance(address,address)":"aa5a7aa3","approve_spending(address,address,uint256)":"29a97ec2","balanceOf(address)":"70a08231","checkUpkeep(bytes)":"6e04ff0d","decimals()":"313ce567","decreaseAllowance(address,uint256)":"a457c2d7","depositUserFunds(uint256)":"c5764eec","getLatestPrice(address)":"16345f18","getUSDPortfolioTotal()":"153f29c7","getUSDTokenBalanceOf(address,address,uint256)":"51f54887","increaseAllowance(address,uint256)":"39509351","interval()":"947a36fb","lastTimeStamp()":"3f3b3b27","mintOnDeposit(address,uint256)":"94362e8b","name()":"06fdde03","performUpkeep(bytes)":"4585e33b","quickSwapRouter()":"e189eb42","setInterval(uint256)":"22a90082","swap(uint256,uint256,address[],address,uint256)":"90f11e84","swapBackToUSDC(address,uint256)":"cf412810","swapIntoFourEqualParts(uint256)":"88e42b08","swapProportionately(uint256,uint256,uint256,uint256,uint256,uint256)":"764f96f9","symbol()":"95d89b41","tokenBalanceOf(address,address)":"1bea8006","totalSupply()":"18160ddd","transfer(address,uint256)":"a9059cbb","transferFrom(address,address,uint256)":"23b872dd","withdraw(uint256,address,address)":"b460af94","withdrawUserFunds(address)":"24e2e7bb"}}}}}