{
	"contracts/bentoboxDapp.sol": {
		"bentoboxDapp": {
			"abi": [
				{
					"inputs": [],
					"name": "BENTOBOX_MASTER_CONTRACT_ADDRESS",
					"outputs": [
						{
							"internalType": "address",
							"name": "",
							"type": "address"
						}
					],
					"stateMutability": "view",
					"type": "function"
				},
				{
					"inputs": [],
					"name": "BTC_USD_ORACLE",
					"outputs": [
						{
							"internalType": "address",
							"name": "",
							"type": "address"
						}
					],
					"stateMutability": "view",
					"type": "function"
				},
				{
					"inputs": [],
					"name": "BentoMasterContract",
					"outputs": [
						{
							"internalType": "contract IBentoBoxV1",
							"name": "",
							"type": "address"
						}
					],
					"stateMutability": "view",
					"type": "function"
				},
				{
					"inputs": [
						{
							"internalType": "address",
							"name": "token_address",
							"type": "address"
						},
						{
							"internalType": "address",
							"name": "user_address",
							"type": "address"
						}
					],
					"name": "BentoTokenBalanceOf",
					"outputs": [
						{
							"internalType": "uint256",
							"name": "token_balance",
							"type": "uint256"
						}
					],
					"stateMutability": "view",
					"type": "function"
				},
				{
					"inputs": [],
					"name": "ETH_USD_ORACLE",
					"outputs": [
						{
							"internalType": "address",
							"name": "",
							"type": "address"
						}
					],
					"stateMutability": "view",
					"type": "function"
				},
				{
					"inputs": [],
					"name": "MATIC_USD_ORACLE",
					"outputs": [
						{
							"internalType": "address",
							"name": "",
							"type": "address"
						}
					],
					"stateMutability": "view",
					"type": "function"
				},
				{
					"inputs": [],
					"name": "SUSHISWAP_ROUTER",
					"outputs": [
						{
							"internalType": "address",
							"name": "",
							"type": "address"
						}
					],
					"stateMutability": "view",
					"type": "function"
				},
				{
					"inputs": [
						{
							"internalType": "uint256",
							"name": "",
							"type": "uint256"
						}
					],
					"name": "SUSHIToUSDCPath",
					"outputs": [
						{
							"internalType": "address",
							"name": "",
							"type": "address"
						}
					],
					"stateMutability": "view",
					"type": "function"
				},
				{
					"inputs": [],
					"name": "SUSHI_ADDRESS",
					"outputs": [
						{
							"internalType": "address",
							"name": "",
							"type": "address"
						}
					],
					"stateMutability": "view",
					"type": "function"
				},
				{
					"inputs": [],
					"name": "SUSHI_USD_ORACLE",
					"outputs": [
						{
							"internalType": "address",
							"name": "",
							"type": "address"
						}
					],
					"stateMutability": "view",
					"type": "function"
				},
				{
					"inputs": [
						{
							"internalType": "uint256",
							"name": "",
							"type": "uint256"
						}
					],
					"name": "USDCToSUSHIPath",
					"outputs": [
						{
							"internalType": "address",
							"name": "",
							"type": "address"
						}
					],
					"stateMutability": "view",
					"type": "function"
				},
				{
					"inputs": [
						{
							"internalType": "uint256",
							"name": "",
							"type": "uint256"
						}
					],
					"name": "USDCToWBTCPath",
					"outputs": [
						{
							"internalType": "address",
							"name": "",
							"type": "address"
						}
					],
					"stateMutability": "view",
					"type": "function"
				},
				{
					"inputs": [
						{
							"internalType": "uint256",
							"name": "",
							"type": "uint256"
						}
					],
					"name": "USDCToWETHPath",
					"outputs": [
						{
							"internalType": "address",
							"name": "",
							"type": "address"
						}
					],
					"stateMutability": "view",
					"type": "function"
				},
				{
					"inputs": [
						{
							"internalType": "uint256",
							"name": "",
							"type": "uint256"
						}
					],
					"name": "USDCToWMATICPath",
					"outputs": [
						{
							"internalType": "address",
							"name": "",
							"type": "address"
						}
					],
					"stateMutability": "view",
					"type": "function"
				},
				{
					"inputs": [],
					"name": "USDC_ADDRESS",
					"outputs": [
						{
							"internalType": "address",
							"name": "",
							"type": "address"
						}
					],
					"stateMutability": "view",
					"type": "function"
				},
				{
					"inputs": [
						{
							"internalType": "uint256",
							"name": "",
							"type": "uint256"
						}
					],
					"name": "WBTCToUSDCPath",
					"outputs": [
						{
							"internalType": "address",
							"name": "",
							"type": "address"
						}
					],
					"stateMutability": "view",
					"type": "function"
				},
				{
					"inputs": [],
					"name": "WBTC_ADDRESS",
					"outputs": [
						{
							"internalType": "address",
							"name": "",
							"type": "address"
						}
					],
					"stateMutability": "view",
					"type": "function"
				},
				{
					"inputs": [
						{
							"internalType": "uint256",
							"name": "",
							"type": "uint256"
						}
					],
					"name": "WETHToUSDCPath",
					"outputs": [
						{
							"internalType": "address",
							"name": "",
							"type": "address"
						}
					],
					"stateMutability": "view",
					"type": "function"
				},
				{
					"inputs": [],
					"name": "WETH_ADDRESS",
					"outputs": [
						{
							"internalType": "address",
							"name": "",
							"type": "address"
						}
					],
					"stateMutability": "view",
					"type": "function"
				},
				{
					"inputs": [
						{
							"internalType": "uint256",
							"name": "",
							"type": "uint256"
						}
					],
					"name": "WMATICToUSDCPath",
					"outputs": [
						{
							"internalType": "address",
							"name": "",
							"type": "address"
						}
					],
					"stateMutability": "view",
					"type": "function"
				},
				{
					"inputs": [],
					"name": "WMATIC_ADDRESS",
					"outputs": [
						{
							"internalType": "address",
							"name": "",
							"type": "address"
						}
					],
					"stateMutability": "view",
					"type": "function"
				},
				{
					"inputs": [
						{
							"internalType": "address",
							"name": "_token",
							"type": "address"
						},
						{
							"internalType": "address",
							"name": "_spender",
							"type": "address"
						}
					],
					"name": "approveSpendingWholeBalance",
					"outputs": [],
					"stateMutability": "nonpayable",
					"type": "function"
				},
				{
					"inputs": [
						{
							"internalType": "address",
							"name": "token_address",
							"type": "address"
						},
						{
							"internalType": "address",
							"name": "spender_address",
							"type": "address"
						},
						{
							"internalType": "uint256",
							"name": "amount_to_approve",
							"type": "uint256"
						}
					],
					"name": "approve_spending",
					"outputs": [],
					"stateMutability": "nonpayable",
					"type": "function"
				},
				{
					"inputs": [],
					"name": "depositAllFourTokensBackToBento",
					"outputs": [],
					"stateMutability": "nonpayable",
					"type": "function"
				},
				{
					"inputs": [
						{
							"internalType": "uint256",
							"name": "amount_",
							"type": "uint256"
						},
						{
							"internalType": "address",
							"name": "token_address",
							"type": "address"
						},
						{
							"internalType": "address",
							"name": "address_from",
							"type": "address"
						},
						{
							"internalType": "address",
							"name": "address_to",
							"type": "address"
						}
					],
					"name": "depositToBento",
					"outputs": [],
					"stateMutability": "nonpayable",
					"type": "function"
				},
				{
					"inputs": [
						{
							"internalType": "address",
							"name": "token_address",
							"type": "address"
						},
						{
							"internalType": "address",
							"name": "address_from",
							"type": "address"
						},
						{
							"internalType": "address",
							"name": "address_to",
							"type": "address"
						}
					],
					"name": "depositTokenBalanceToBento",
					"outputs": [],
					"stateMutability": "nonpayable",
					"type": "function"
				},
				{
					"inputs": [
						{
							"internalType": "uint256",
							"name": "amount_",
							"type": "uint256"
						},
						{
							"internalType": "address",
							"name": "token_address",
							"type": "address"
						},
						{
							"internalType": "address",
							"name": "address_from",
							"type": "address"
						},
						{
							"internalType": "address",
							"name": "address_to",
							"type": "address"
						}
					],
					"name": "depositUserFunds",
					"outputs": [],
					"stateMutability": "nonpayable",
					"type": "function"
				},
				{
					"inputs": [
						{
							"internalType": "address",
							"name": "_oracle_address",
							"type": "address"
						}
					],
					"name": "getLatestPrice",
					"outputs": [
						{
							"internalType": "int256",
							"name": "",
							"type": "int256"
						}
					],
					"stateMutability": "view",
					"type": "function"
				},
				{
					"inputs": [
						{
							"internalType": "address",
							"name": "token_address",
							"type": "address"
						},
						{
							"internalType": "address",
							"name": "oracle_address",
							"type": "address"
						},
						{
							"internalType": "uint256",
							"name": "token_decimals",
							"type": "uint256"
						}
					],
					"name": "getUSDBentoTokenBalanceOf",
					"outputs": [
						{
							"internalType": "uint256",
							"name": "",
							"type": "uint256"
						}
					],
					"stateMutability": "view",
					"type": "function"
				},
				{
					"inputs": [
						{
							"internalType": "address",
							"name": "user",
							"type": "address"
						}
					],
					"name": "getUserShares",
					"outputs": [
						{
							"internalType": "uint256",
							"name": "userShares",
							"type": "uint256"
						}
					],
					"stateMutability": "view",
					"type": "function"
				},
				{
					"inputs": [],
					"name": "rebalanceOne",
					"outputs": [],
					"stateMutability": "nonpayable",
					"type": "function"
				},
				{
					"inputs": [],
					"name": "rebalanceThree",
					"outputs": [],
					"stateMutability": "nonpayable",
					"type": "function"
				},
				{
					"inputs": [],
					"name": "registerProtocol",
					"outputs": [],
					"stateMutability": "nonpayable",
					"type": "function"
				},
				{
					"inputs": [
						{
							"internalType": "address",
							"name": "user",
							"type": "address"
						}
					],
					"name": "setSharesFirstTime",
					"outputs": [],
					"stateMutability": "nonpayable",
					"type": "function"
				},
				{
					"inputs": [],
					"name": "sushiSwapRouter",
					"outputs": [
						{
							"internalType": "contract IUniswapV2Router02",
							"name": "",
							"type": "address"
						}
					],
					"stateMutability": "view",
					"type": "function"
				},
				{
					"inputs": [
						{
							"internalType": "uint256",
							"name": "_amountIn",
							"type": "uint256"
						},
						{
							"internalType": "uint256",
							"name": "_amountOutMin",
							"type": "uint256"
						},
						{
							"internalType": "address[]",
							"name": "_path",
							"type": "address[]"
						},
						{
							"internalType": "address",
							"name": "_acct",
							"type": "address"
						},
						{
							"internalType": "uint256",
							"name": "_deadline",
							"type": "uint256"
						}
					],
					"name": "swap",
					"outputs": [],
					"stateMutability": "nonpayable",
					"type": "function"
				},
				{
					"inputs": [
						{
							"internalType": "uint256",
							"name": "amount",
							"type": "uint256"
						}
					],
					"name": "swapIntoFourEqualParts",
					"outputs": [],
					"stateMutability": "nonpayable",
					"type": "function"
				},
				{
					"inputs": [
						{
							"internalType": "uint256",
							"name": "WMATIC_amount",
							"type": "uint256"
						},
						{
							"internalType": "uint256",
							"name": "SUSHI_amount",
							"type": "uint256"
						},
						{
							"internalType": "uint256",
							"name": "WETH_amount",
							"type": "uint256"
						},
						{
							"internalType": "uint256",
							"name": "WBTC_amount",
							"type": "uint256"
						},
						{
							"internalType": "uint256",
							"name": "totalUSDAmount",
							"type": "uint256"
						},
						{
							"internalType": "uint256",
							"name": "depositAmount",
							"type": "uint256"
						}
					],
					"name": "swapProportionately",
					"outputs": [],
					"stateMutability": "nonpayable",
					"type": "function"
				},
				{
					"inputs": [
						{
							"internalType": "address",
							"name": "_token",
							"type": "address"
						}
					],
					"name": "swapWholeBalanceBackToUSDC",
					"outputs": [],
					"stateMutability": "nonpayable",
					"type": "function"
				},
				{
					"inputs": [],
					"name": "totalNumberOfShares",
					"outputs": [
						{
							"internalType": "uint256",
							"name": "",
							"type": "uint256"
						}
					],
					"stateMutability": "view",
					"type": "function"
				},
				{
					"inputs": [
						{
							"internalType": "address",
							"name": "token_address",
							"type": "address"
						},
						{
							"internalType": "uint256",
							"name": "_share",
							"type": "uint256"
						},
						{
							"internalType": "address",
							"name": "address_from",
							"type": "address"
						},
						{
							"internalType": "address",
							"name": "address_to",
							"type": "address"
						}
					],
					"name": "transfer",
					"outputs": [],
					"stateMutability": "nonpayable",
					"type": "function"
				},
				{
					"inputs": [
						{
							"internalType": "address",
							"name": "user",
							"type": "address"
						},
						{
							"internalType": "uint256",
							"name": "total_in_USD",
							"type": "uint256"
						},
						{
							"internalType": "uint256",
							"name": "deposit_amount",
							"type": "uint256"
						}
					],
					"name": "updateSharesOnDeposit",
					"outputs": [],
					"stateMutability": "nonpayable",
					"type": "function"
				},
				{
					"inputs": [
						{
							"internalType": "address",
							"name": "user",
							"type": "address"
						}
					],
					"name": "updateSharesOnWithdrawal",
					"outputs": [],
					"stateMutability": "nonpayable",
					"type": "function"
				},
				{
					"inputs": [
						{
							"internalType": "address",
							"name": "",
							"type": "address"
						}
					],
					"name": "userNumberOfShares",
					"outputs": [
						{
							"internalType": "uint256",
							"name": "",
							"type": "uint256"
						}
					],
					"stateMutability": "view",
					"type": "function"
				},
				{
					"inputs": [
						{
							"internalType": "uint256",
							"name": "amount_",
							"type": "uint256"
						},
						{
							"internalType": "address",
							"name": "token_address",
							"type": "address"
						},
						{
							"internalType": "address",
							"name": "address_from",
							"type": "address"
						},
						{
							"internalType": "address",
							"name": "address_to",
							"type": "address"
						}
					],
					"name": "withdraw",
					"outputs": [],
					"stateMutability": "nonpayable",
					"type": "function"
				},
				{
					"inputs": [
						{
							"internalType": "uint256",
							"name": "_WMATIC_amount",
							"type": "uint256"
						},
						{
							"internalType": "uint256",
							"name": "_SUSHI_amount",
							"type": "uint256"
						},
						{
							"internalType": "uint256",
							"name": "_WETH_amount",
							"type": "uint256"
						},
						{
							"internalType": "uint256",
							"name": "_WBTC_amount",
							"type": "uint256"
						}
					],
					"name": "withdrawAllFourTokensFromBento",
					"outputs": [],
					"stateMutability": "nonpayable",
					"type": "function"
				},
				{
					"inputs": [
						{
							"internalType": "address",
							"name": "user",
							"type": "address"
						}
					],
					"name": "withdrawUserFunds",
					"outputs": [],
					"stateMutability": "nonpayable",
					"type": "function"
				},
				{
					"inputs": [
						{
							"internalType": "uint256",
							"name": "amount_",
							"type": "uint256"
						}
					],
					"name": "withdraw_matic",
					"outputs": [],
					"stateMutability": "nonpayable",
					"type": "function"
				},
				{
					"stateMutability": "payable",
					"type": "receive"
				}
			],
			"devdoc": {
				"kind": "dev",
				"methods": {},
				"version": 1
			},
			"evm": {
				"assembly": "    /* \"contracts/bentoboxDapp.sol\":315:14333  contract bentoboxDapp {... */\n  mstore(0x40, 0x80)\n    /* \"contracts/bentoboxDapp.sol\":1289:1355  address[] public USDCToWMATICPath = [USDC_ADDRESS, WMATIC_ADDRESS] */\n  mload(0x40)\n  dup1\n  0x40\n  add\n  0x40\n  mstore\n  dup1\n    /* \"contracts/bentoboxDapp.sol\":523:565  0x2791Bca1f2de4661ED88A30C99A7a9449Aa84174 */\n  0x2791bca1f2de4661ed88a30c99a7a9449aa84174\n    /* \"contracts/bentoboxDapp.sol\":1289:1355  address[] public USDCToWMATICPath = [USDC_ADDRESS, WMATIC_ADDRESS] */\n  0xffffffffffffffffffffffffffffffffffffffff\n  and\n  0xffffffffffffffffffffffffffffffffffffffff\n  and\n  dup2\n  mstore\n  0x20\n  add\n    /* \"contracts/bentoboxDapp.sol\":617:659  0x0d500B1d8E8eF31E21C99d1Db9A6444d3ADf1270 */\n  0x0d500b1d8e8ef31e21c99d1db9a6444d3adf1270\n    /* \"contracts/bentoboxDapp.sol\":1289:1355  address[] public USDCToWMATICPath = [USDC_ADDRESS, WMATIC_ADDRESS] */\n  0xffffffffffffffffffffffffffffffffffffffff\n  and\n  0xffffffffffffffffffffffffffffffffffffffff\n  and\n  dup2\n  mstore\n  pop\n  0x00\n  swap1\n  0x02\n  tag_1\n  swap3\n  swap2\n  swap1\n  tag_2\n  jump\t// in\ntag_1:\n  pop\n    /* \"contracts/bentoboxDapp.sol\":1361:1425  address[] public USDCToSUSHIPath = [USDC_ADDRESS, SUSHI_ADDRESS] */\n  mload(0x40)\n  dup1\n  0x40\n  add\n  0x40\n  mstore\n  dup1\n    /* \"contracts/bentoboxDapp.sol\":523:565  0x2791Bca1f2de4661ED88A30C99A7a9449Aa84174 */\n  0x2791bca1f2de4661ed88a30c99a7a9449aa84174\n    /* \"contracts/bentoboxDapp.sol\":1361:1425  address[] public USDCToSUSHIPath = [USDC_ADDRESS, SUSHI_ADDRESS] */\n  0xffffffffffffffffffffffffffffffffffffffff\n  and\n  0xffffffffffffffffffffffffffffffffffffffff\n  and\n  dup2\n  mstore\n  0x20\n  add\n    /* \"contracts/bentoboxDapp.sol\":705:747  0x0b3F868E0BE5597D5DB7fEB59E1CADBb0fdDa50a */\n  0x0b3f868e0be5597d5db7feb59e1cadbb0fdda50a\n    /* \"contracts/bentoboxDapp.sol\":1361:1425  address[] public USDCToSUSHIPath = [USDC_ADDRESS, SUSHI_ADDRESS] */\n  0xffffffffffffffffffffffffffffffffffffffff\n  and\n  0xffffffffffffffffffffffffffffffffffffffff\n  and\n  dup2\n  mstore\n  pop\n  0x01\n  swap1\n  0x02\n  tag_3\n  swap3\n  swap2\n  swap1\n  tag_2\n  jump\t// in\ntag_3:\n  pop\n    /* \"contracts/bentoboxDapp.sol\":1431:1493  address[] public USDCToWETHPath = [USDC_ADDRESS, WETH_ADDRESS] */\n  mload(0x40)\n  dup1\n  0x40\n  add\n  0x40\n  mstore\n  dup1\n    /* \"contracts/bentoboxDapp.sol\":523:565  0x2791Bca1f2de4661ED88A30C99A7a9449Aa84174 */\n  0x2791bca1f2de4661ed88a30c99a7a9449aa84174\n    /* \"contracts/bentoboxDapp.sol\":1431:1493  address[] public USDCToWETHPath = [USDC_ADDRESS, WETH_ADDRESS] */\n  0xffffffffffffffffffffffffffffffffffffffff\n  and\n  0xffffffffffffffffffffffffffffffffffffffff\n  and\n  dup2\n  mstore\n  0x20\n  add\n    /* \"contracts/bentoboxDapp.sol\":792:834  0x7ceB23fD6bC0adD59E62ac25578270cFf1b9f619 */\n  0x7ceb23fd6bc0add59e62ac25578270cff1b9f619\n    /* \"contracts/bentoboxDapp.sol\":1431:1493  address[] public USDCToWETHPath = [USDC_ADDRESS, WETH_ADDRESS] */\n  0xffffffffffffffffffffffffffffffffffffffff\n  and\n  0xffffffffffffffffffffffffffffffffffffffff\n  and\n  dup2\n  mstore\n  pop\n  0x02\n  swap1\n  0x02\n  tag_4\n  swap3\n  swap2\n  swap1\n  tag_2\n  jump\t// in\ntag_4:\n  pop\n    /* \"contracts/bentoboxDapp.sol\":1499:1561  address[] public USDCToWBTCPath = [USDC_ADDRESS, WBTC_ADDRESS] */\n  mload(0x40)\n  dup1\n  0x40\n  add\n  0x40\n  mstore\n  dup1\n    /* \"contracts/bentoboxDapp.sol\":523:565  0x2791Bca1f2de4661ED88A30C99A7a9449Aa84174 */\n  0x2791bca1f2de4661ed88a30c99a7a9449aa84174\n    /* \"contracts/bentoboxDapp.sol\":1499:1561  address[] public USDCToWBTCPath = [USDC_ADDRESS, WBTC_ADDRESS] */\n  0xffffffffffffffffffffffffffffffffffffffff\n  and\n  0xffffffffffffffffffffffffffffffffffffffff\n  and\n  dup2\n  mstore\n  0x20\n  add\n    /* \"contracts/bentoboxDapp.sol\":879:921  0x1BFD67037B42Cf73acF2047067bd4F2C47D9BfD6 */\n  0x1bfd67037b42cf73acf2047067bd4f2c47d9bfd6\n    /* \"contracts/bentoboxDapp.sol\":1499:1561  address[] public USDCToWBTCPath = [USDC_ADDRESS, WBTC_ADDRESS] */\n  0xffffffffffffffffffffffffffffffffffffffff\n  and\n  0xffffffffffffffffffffffffffffffffffffffff\n  and\n  dup2\n  mstore\n  pop\n  0x03\n  swap1\n  0x02\n  tag_5\n  swap3\n  swap2\n  swap1\n  tag_2\n  jump\t// in\ntag_5:\n  pop\n    /* \"contracts/bentoboxDapp.sol\":1568:1634  address[] public WMATICToUSDCPath = [WMATIC_ADDRESS, USDC_ADDRESS] */\n  mload(0x40)\n  dup1\n  0x40\n  add\n  0x40\n  mstore\n  dup1\n    /* \"contracts/bentoboxDapp.sol\":617:659  0x0d500B1d8E8eF31E21C99d1Db9A6444d3ADf1270 */\n  0x0d500b1d8e8ef31e21c99d1db9a6444d3adf1270\n    /* \"contracts/bentoboxDapp.sol\":1568:1634  address[] public WMATICToUSDCPath = [WMATIC_ADDRESS, USDC_ADDRESS] */\n  0xffffffffffffffffffffffffffffffffffffffff\n  and\n  0xffffffffffffffffffffffffffffffffffffffff\n  and\n  dup2\n  mstore\n  0x20\n  add\n    /* \"contracts/bentoboxDapp.sol\":523:565  0x2791Bca1f2de4661ED88A30C99A7a9449Aa84174 */\n  0x2791bca1f2de4661ed88a30c99a7a9449aa84174\n    /* \"contracts/bentoboxDapp.sol\":1568:1634  address[] public WMATICToUSDCPath = [WMATIC_ADDRESS, USDC_ADDRESS] */\n  0xffffffffffffffffffffffffffffffffffffffff\n  and\n  0xffffffffffffffffffffffffffffffffffffffff\n  and\n  dup2\n  mstore\n  pop\n  0x04\n  swap1\n  0x02\n  tag_6\n  swap3\n  swap2\n  swap1\n  tag_2\n  jump\t// in\ntag_6:\n  pop\n    /* \"contracts/bentoboxDapp.sol\":1640:1704  address[] public SUSHIToUSDCPath = [SUSHI_ADDRESS, USDC_ADDRESS] */\n  mload(0x40)\n  dup1\n  0x40\n  add\n  0x40\n  mstore\n  dup1\n    /* \"contracts/bentoboxDapp.sol\":705:747  0x0b3F868E0BE5597D5DB7fEB59E1CADBb0fdDa50a */\n  0x0b3f868e0be5597d5db7feb59e1cadbb0fdda50a\n    /* \"contracts/bentoboxDapp.sol\":1640:1704  address[] public SUSHIToUSDCPath = [SUSHI_ADDRESS, USDC_ADDRESS] */\n  0xffffffffffffffffffffffffffffffffffffffff\n  and\n  0xffffffffffffffffffffffffffffffffffffffff\n  and\n  dup2\n  mstore\n  0x20\n  add\n    /* \"contracts/bentoboxDapp.sol\":523:565  0x2791Bca1f2de4661ED88A30C99A7a9449Aa84174 */\n  0x2791bca1f2de4661ed88a30c99a7a9449aa84174\n    /* \"contracts/bentoboxDapp.sol\":1640:1704  address[] public SUSHIToUSDCPath = [SUSHI_ADDRESS, USDC_ADDRESS] */\n  0xffffffffffffffffffffffffffffffffffffffff\n  and\n  0xffffffffffffffffffffffffffffffffffffffff\n  and\n  dup2\n  mstore\n  pop\n  0x05\n  swap1\n  0x02\n  tag_7\n  swap3\n  swap2\n  swap1\n  tag_2\n  jump\t// in\ntag_7:\n  pop\n    /* \"contracts/bentoboxDapp.sol\":1710:1772  address[] public WETHToUSDCPath = [WETH_ADDRESS, USDC_ADDRESS] */\n  mload(0x40)\n  dup1\n  0x40\n  add\n  0x40\n  mstore\n  dup1\n    /* \"contracts/bentoboxDapp.sol\":792:834  0x7ceB23fD6bC0adD59E62ac25578270cFf1b9f619 */\n  0x7ceb23fd6bc0add59e62ac25578270cff1b9f619\n    /* \"contracts/bentoboxDapp.sol\":1710:1772  address[] public WETHToUSDCPath = [WETH_ADDRESS, USDC_ADDRESS] */\n  0xffffffffffffffffffffffffffffffffffffffff\n  and\n  0xffffffffffffffffffffffffffffffffffffffff\n  and\n  dup2\n  mstore\n  0x20\n  add\n    /* \"contracts/bentoboxDapp.sol\":523:565  0x2791Bca1f2de4661ED88A30C99A7a9449Aa84174 */\n  0x2791bca1f2de4661ed88a30c99a7a9449aa84174\n    /* \"contracts/bentoboxDapp.sol\":1710:1772  address[] public WETHToUSDCPath = [WETH_ADDRESS, USDC_ADDRESS] */\n  0xffffffffffffffffffffffffffffffffffffffff\n  and\n  0xffffffffffffffffffffffffffffffffffffffff\n  and\n  dup2\n  mstore\n  pop\n  0x06\n  swap1\n  0x02\n  tag_8\n  swap3\n  swap2\n  swap1\n  tag_2\n  jump\t// in\ntag_8:\n  pop\n    /* \"contracts/bentoboxDapp.sol\":1778:1840  address[] public WBTCToUSDCPath = [WBTC_ADDRESS, USDC_ADDRESS] */\n  mload(0x40)\n  dup1\n  0x40\n  add\n  0x40\n  mstore\n  dup1\n    /* \"contracts/bentoboxDapp.sol\":879:921  0x1BFD67037B42Cf73acF2047067bd4F2C47D9BfD6 */\n  0x1bfd67037b42cf73acf2047067bd4f2c47d9bfd6\n    /* \"contracts/bentoboxDapp.sol\":1778:1840  address[] public WBTCToUSDCPath = [WBTC_ADDRESS, USDC_ADDRESS] */\n  0xffffffffffffffffffffffffffffffffffffffff\n  and\n  0xffffffffffffffffffffffffffffffffffffffff\n  and\n  dup2\n  mstore\n  0x20\n  add\n    /* \"contracts/bentoboxDapp.sol\":523:565  0x2791Bca1f2de4661ED88A30C99A7a9449Aa84174 */\n  0x2791bca1f2de4661ed88a30c99a7a9449aa84174\n    /* \"contracts/bentoboxDapp.sol\":1778:1840  address[] public WBTCToUSDCPath = [WBTC_ADDRESS, USDC_ADDRESS] */\n  0xffffffffffffffffffffffffffffffffffffffff\n  and\n  0xffffffffffffffffffffffffffffffffffffffff\n  and\n  dup2\n  mstore\n  pop\n  0x07\n  swap1\n  0x02\n  tag_9\n  swap3\n  swap2\n  swap1\n  tag_2\n  jump\t// in\ntag_9:\n  pop\n    /* \"contracts/bentoboxDapp.sol\":435:477  0x0319000133d3AdA02600f0875d2cf03D442C3367 */\n  0x0319000133d3ada02600f0875d2cf03d442c3367\n    /* \"contracts/bentoboxDapp.sol\":2044:2130  IBentoBoxV1 public BentoMasterContract = IBentoBoxV1(BENTOBOX_MASTER_CONTRACT_ADDRESS) */\n  0x0a\n  exp(0x0100, 0x00)\n  dup2\n  sload\n  dup2\n  0xffffffffffffffffffffffffffffffffffffffff\n  mul\n  not\n  and\n  swap1\n  dup4\n  0xffffffffffffffffffffffffffffffffffffffff\n  and\n  mul\n  or\n  swap1\n  sstore\n  pop\n    /* \"contracts/bentoboxDapp.sol\":1890:1932  0x1b02dA8Cb0d097eB8D57A175b88c7D8b47997506 */\n  0x1b02da8cb0d097eb8d57a175b88c7d8b47997506\n    /* \"contracts/bentoboxDapp.sol\":2136:2216  IUniswapV2Router02 public sushiSwapRouter = IUniswapV2Router02(SUSHISWAP_ROUTER) */\n  0x0b\n  exp(0x0100, 0x00)\n  dup2\n  sload\n  dup2\n  0xffffffffffffffffffffffffffffffffffffffff\n  mul\n  not\n  and\n  swap1\n  dup4\n  0xffffffffffffffffffffffffffffffffffffffff\n  and\n  mul\n  or\n  swap1\n  sstore\n  pop\n    /* \"contracts/bentoboxDapp.sol\":315:14333  contract bentoboxDapp {... */\n  callvalue\n  dup1\n  iszero\n  tag_10\n  jumpi\n  0x00\n  dup1\n  revert\ntag_10:\n  pop\n  jump(tag_11)\ntag_2:\n  dup3\n  dup1\n  sload\n  dup3\n  dup3\n  sstore\n  swap1\n  0x00\n  mstore\n  keccak256(0x00, 0x20)\n  swap1\n  dup2\n  add\n  swap3\n  dup3\n  iszero\n  tag_12\n  jumpi\n  swap2\n  0x20\n  mul\n  dup3\n  add\ntag_13:\n  dup3\n  dup2\n  gt\n  iszero\n  tag_14\n  jumpi\n  dup3\n  mload\n  dup3\n  exp(0x0100, 0x00)\n  dup2\n  sload\n  dup2\n  0xffffffffffffffffffffffffffffffffffffffff\n  mul\n  not\n  and\n  swap1\n  dup4\n  0xffffffffffffffffffffffffffffffffffffffff\n  and\n  mul\n  or\n  swap1\n  sstore\n  pop\n  swap2\n  0x20\n  add\n  swap2\n  swap1\n  0x01\n  add\n  swap1\n  jump(tag_13)\ntag_14:\ntag_12:\n  pop\n  swap1\n  pop\n  tag_15\n  swap2\n  swap1\n  tag_16\n  jump\t// in\ntag_15:\n  pop\n  swap1\n  jump\t// out\ntag_16:\ntag_17:\n  dup1\n  dup3\n  gt\n  iszero\n  tag_18\n  jumpi\n  0x00\n  dup2\n  dup2\n  0x0100\n  exp\n  dup2\n  sload\n  swap1\n  0xffffffffffffffffffffffffffffffffffffffff\n  mul\n  not\n  and\n  swap1\n  sstore\n  pop\n  0x01\n  add\n  jump(tag_17)\ntag_18:\n  pop\n  swap1\n  jump\t// out\ntag_11:\n  dataSize(sub_0)\n  dup1\n  dataOffset(sub_0)\n  0x00\n  codecopy\n  0x00\n  return\nstop\n\nsub_0: assembly {\n        /* \"contracts/bentoboxDapp.sol\":315:14333  contract bentoboxDapp {... */\n      mstore(0x40, 0x80)\n      jumpi(tag_1, lt(calldatasize, 0x04))\n      shr(0xe0, calldataload(0x00))\n      dup1\n      0x95e413d8\n      gt\n      tag_51\n      jumpi\n      dup1\n      0xcb3601b1\n      gt\n      tag_52\n      jumpi\n      dup1\n      0xe95d8328\n      gt\n      tag_53\n      jumpi\n      dup1\n      0xe95d8328\n      eq\n      tag_45\n      jumpi\n      dup1\n      0xec8def84\n      eq\n      tag_46\n      jumpi\n      dup1\n      0xedc46f3d\n      eq\n      tag_47\n      jumpi\n      dup1\n      0xef455bad\n      eq\n      tag_48\n      jumpi\n      dup1\n      0xf575e048\n      eq\n      tag_49\n      jumpi\n      dup1\n      0xfd829a23\n      eq\n      tag_50\n      jumpi\n      jump(tag_2)\n    tag_53:\n      dup1\n      0xcb3601b1\n      eq\n      tag_39\n      jumpi\n      dup1\n      0xd48bbd64\n      eq\n      tag_40\n      jumpi\n      dup1\n      0xd58c5b0b\n      eq\n      tag_41\n      jumpi\n      dup1\n      0xd9155b11\n      eq\n      tag_42\n      jumpi\n      dup1\n      0xe66c528f\n      eq\n      tag_43\n      jumpi\n      dup1\n      0xe93ef21a\n      eq\n      tag_44\n      jumpi\n      jump(tag_2)\n    tag_52:\n      dup1\n      0xb6e20a6a\n      gt\n      tag_54\n      jumpi\n      dup1\n      0xb6e20a6a\n      eq\n      tag_33\n      jumpi\n      dup1\n      0xba0cb22b\n      eq\n      tag_34\n      jumpi\n      dup1\n      0xbb09d9b7\n      eq\n      tag_35\n      jumpi\n      dup1\n      0xbdd5915f\n      eq\n      tag_36\n      jumpi\n      dup1\n      0xc3f5a305\n      eq\n      tag_37\n      jumpi\n      dup1\n      0xca970905\n      eq\n      tag_38\n      jumpi\n      jump(tag_2)\n    tag_54:\n      dup1\n      0x95e413d8\n      eq\n      tag_27\n      jumpi\n      dup1\n      0xa15c7d10\n      eq\n      tag_28\n      jumpi\n      dup1\n      0xa2266357\n      eq\n      tag_29\n      jumpi\n      dup1\n      0xa6c4e467\n      eq\n      tag_30\n      jumpi\n      dup1\n      0xaa5a7aa3\n      eq\n      tag_31\n      jumpi\n      dup1\n      0xaee4d1b2\n      eq\n      tag_32\n      jumpi\n      jump(tag_2)\n    tag_51:\n      dup1\n      0x44345f23\n      gt\n      tag_55\n      jumpi\n      dup1\n      0x69bc4388\n      gt\n      tag_56\n      jumpi\n      dup1\n      0x69bc4388\n      eq\n      tag_21\n      jumpi\n      dup1\n      0x718176e5\n      eq\n      tag_22\n      jumpi\n      dup1\n      0x764f96f9\n      eq\n      tag_23\n      jumpi\n      dup1\n      0x88e42b08\n      eq\n      tag_24\n      jumpi\n      dup1\n      0x8db9f39a\n      eq\n      tag_25\n      jumpi\n      dup1\n      0x90f11e84\n      eq\n      tag_26\n      jumpi\n      jump(tag_2)\n    tag_56:\n      dup1\n      0x44345f23\n      eq\n      tag_15\n      jumpi\n      dup1\n      0x45ab6647\n      eq\n      tag_16\n      jumpi\n      dup1\n      0x4690738c\n      eq\n      tag_17\n      jumpi\n      dup1\n      0x494df3a2\n      eq\n      tag_18\n      jumpi\n      dup1\n      0x6583530f\n      eq\n      tag_19\n      jumpi\n      dup1\n      0x681bcf13\n      eq\n      tag_20\n      jumpi\n      jump(tag_2)\n    tag_55:\n      dup1\n      0x24e2e7bb\n      gt\n      tag_57\n      jumpi\n      dup1\n      0x24e2e7bb\n      eq\n      tag_9\n      jumpi\n      dup1\n      0x277754ed\n      eq\n      tag_10\n      jumpi\n      dup1\n      0x29a97ec2\n      eq\n      tag_11\n      jumpi\n      dup1\n      0x35c67cd6\n      eq\n      tag_12\n      jumpi\n      dup1\n      0x3f5b948b\n      eq\n      tag_13\n      jumpi\n      dup1\n      0x44250955\n      eq\n      tag_14\n      jumpi\n      jump(tag_2)\n    tag_57:\n      dup1\n      0x040141e5\n      eq\n      tag_3\n      jumpi\n      dup1\n      0x0a51faba\n      eq\n      tag_4\n      jumpi\n      dup1\n      0x0d36b76b\n      eq\n      tag_5\n      jumpi\n      dup1\n      0x123b1154\n      eq\n      tag_6\n      jumpi\n      dup1\n      0x16345f18\n      eq\n      tag_7\n      jumpi\n      dup1\n      0x23e103a8\n      eq\n      tag_8\n      jumpi\n      jump(tag_2)\n    tag_1:\n      jumpi(tag_2, calldatasize)\n      stop\n    tag_2:\n      0x00\n      dup1\n      revert\n        /* \"contracts/bentoboxDapp.sol\":753:834  address public constant WETH_ADDRESS = 0x7ceB23fD6bC0adD59E62ac25578270cFf1b9f619 */\n    tag_3:\n      callvalue\n      dup1\n      iszero\n      tag_60\n      jumpi\n      0x00\n      dup1\n      revert\n    tag_60:\n      pop\n      tag_61\n      tag_62\n      jump\t// in\n    tag_61:\n      mload(0x40)\n      dup1\n      dup3\n      0xffffffffffffffffffffffffffffffffffffffff\n      and\n      dup2\n      mstore\n      0x20\n      add\n      swap2\n      pop\n      pop\n      mload(0x40)\n      dup1\n      swap2\n      sub\n      swap1\n      return\n        /* \"contracts/bentoboxDapp.sol\":665:747  address public constant SUSHI_ADDRESS = 0x0b3F868E0BE5597D5DB7fEB59E1CADBb0fdDa50a */\n    tag_4:\n      callvalue\n      dup1\n      iszero\n      tag_63\n      jumpi\n      0x00\n      dup1\n      revert\n    tag_63:\n      pop\n      tag_64\n      tag_65\n      jump\t// in\n    tag_64:\n      mload(0x40)\n      dup1\n      dup3\n      0xffffffffffffffffffffffffffffffffffffffff\n      and\n      dup2\n      mstore\n      0x20\n      add\n      swap2\n      pop\n      pop\n      mload(0x40)\n      dup1\n      swap2\n      sub\n      swap1\n      return\n        /* \"contracts/bentoboxDapp.sol\":8960:9500  function depositTokenBalanceToBento (address token_address, address address_from, address address_to) public  {... */\n    tag_5:\n      callvalue\n      dup1\n      iszero\n      tag_66\n      jumpi\n      0x00\n      dup1\n      revert\n    tag_66:\n      pop\n      tag_67\n      0x04\n      dup1\n      calldatasize\n      sub\n      0x60\n      dup2\n      lt\n      iszero\n      tag_68\n      jumpi\n      0x00\n      dup1\n      revert\n    tag_68:\n      dup2\n      add\n      swap1\n      dup1\n      dup1\n      calldataload\n      0xffffffffffffffffffffffffffffffffffffffff\n      and\n      swap1\n      0x20\n      add\n      swap1\n      swap3\n      swap2\n      swap1\n      dup1\n      calldataload\n      0xffffffffffffffffffffffffffffffffffffffff\n      and\n      swap1\n      0x20\n      add\n      swap1\n      swap3\n      swap2\n      swap1\n      dup1\n      calldataload\n      0xffffffffffffffffffffffffffffffffffffffff\n      and\n      swap1\n      0x20\n      add\n      swap1\n      swap3\n      swap2\n      swap1\n      pop\n      pop\n      pop\n      tag_69\n      jump\t// in\n    tag_67:\n      stop\n        /* \"contracts/bentoboxDapp.sol\":4155:5809  function depositUserFunds (uint256 amount_, address token_address, address address_from, address address_to) public  {... */\n    tag_6:\n      callvalue\n      dup1\n      iszero\n      tag_70\n      jumpi\n      0x00\n      dup1\n      revert\n    tag_70:\n      pop\n      tag_71\n      0x04\n      dup1\n      calldatasize\n      sub\n      0x80\n      dup2\n      lt\n      iszero\n      tag_72\n      jumpi\n      0x00\n      dup1\n      revert\n    tag_72:\n      dup2\n      add\n      swap1\n      dup1\n      dup1\n      calldataload\n      swap1\n      0x20\n      add\n      swap1\n      swap3\n      swap2\n      swap1\n      dup1\n      calldataload\n      0xffffffffffffffffffffffffffffffffffffffff\n      and\n      swap1\n      0x20\n      add\n      swap1\n      swap3\n      swap2\n      swap1\n      dup1\n      calldataload\n      0xffffffffffffffffffffffffffffffffffffffff\n      and\n      swap1\n      0x20\n      add\n      swap1\n      swap3\n      swap2\n      swap1\n      dup1\n      calldataload\n      0xffffffffffffffffffffffffffffffffffffffff\n      and\n      swap1\n      0x20\n      add\n      swap1\n      swap3\n      swap2\n      swap1\n      pop\n      pop\n      pop\n      tag_73\n      jump\t// in\n    tag_71:\n      stop\n        /* \"contracts/bentoboxDapp.sol\":2588:2915  function getLatestPrice(address _oracle_address) public view returns (int) {... */\n    tag_7:\n      callvalue\n      dup1\n      iszero\n      tag_74\n      jumpi\n      0x00\n      dup1\n      revert\n    tag_74:\n      pop\n      tag_75\n      0x04\n      dup1\n      calldatasize\n      sub\n      0x20\n      dup2\n      lt\n      iszero\n      tag_76\n      jumpi\n      0x00\n      dup1\n      revert\n    tag_76:\n      dup2\n      add\n      swap1\n      dup1\n      dup1\n      calldataload\n      0xffffffffffffffffffffffffffffffffffffffff\n      and\n      swap1\n      0x20\n      add\n      swap1\n      swap3\n      swap2\n      swap1\n      pop\n      pop\n      pop\n      tag_77\n      jump\t// in\n    tag_75:\n      mload(0x40)\n      dup1\n      dup3\n      dup2\n      mstore\n      0x20\n      add\n      swap2\n      pop\n      pop\n      mload(0x40)\n      dup1\n      swap2\n      sub\n      swap1\n      return\n        /* \"contracts/bentoboxDapp.sol\":11555:11999  function withdraw(uint256 amount_, address token_address, address address_from, address address_to) public  {... */\n    tag_8:\n      callvalue\n      dup1\n      iszero\n      tag_78\n      jumpi\n      0x00\n      dup1\n      revert\n    tag_78:\n      pop\n      tag_79\n      0x04\n      dup1\n      calldatasize\n      sub\n      0x80\n      dup2\n      lt\n      iszero\n      tag_80\n      jumpi\n      0x00\n      dup1\n      revert\n    tag_80:\n      dup2\n      add\n      swap1\n      dup1\n      dup1\n      calldataload\n      swap1\n      0x20\n      add\n      swap1\n      swap3\n      swap2\n      swap1\n      dup1\n      calldataload\n      0xffffffffffffffffffffffffffffffffffffffff\n      and\n      swap1\n      0x20\n      add\n      swap1\n      swap3\n      swap2\n      swap1\n      dup1\n      calldataload\n      0xffffffffffffffffffffffffffffffffffffffff\n      and\n      swap1\n      0x20\n      add\n      swap1\n      swap3\n      swap2\n      swap1\n      dup1\n      calldataload\n      0xffffffffffffffffffffffffffffffffffffffff\n      and\n      swap1\n      0x20\n      add\n      swap1\n      swap3\n      swap2\n      swap1\n      pop\n      pop\n      pop\n      tag_81\n      jump\t// in\n    tag_79:\n      stop\n        /* \"contracts/bentoboxDapp.sol\":9505:11088  function withdrawUserFunds(address user) public {... */\n    tag_9:\n      callvalue\n      dup1\n      iszero\n      tag_82\n      jumpi\n      0x00\n      dup1\n      revert\n    tag_82:\n      pop\n      tag_83\n      0x04\n      dup1\n      calldatasize\n      sub\n      0x20\n      dup2\n      lt\n      iszero\n      tag_84\n      jumpi\n      0x00\n      dup1\n      revert\n    tag_84:\n      dup2\n      add\n      swap1\n      dup1\n      dup1\n      calldataload\n      0xffffffffffffffffffffffffffffffffffffffff\n      and\n      swap1\n      0x20\n      add\n      swap1\n      swap3\n      swap2\n      swap1\n      pop\n      pop\n      pop\n      tag_85\n      jump\t// in\n    tag_83:\n      stop\n        /* \"contracts/bentoboxDapp.sol\":1847:1932  address public constant SUSHISWAP_ROUTER = 0x1b02dA8Cb0d097eB8D57A175b88c7D8b47997506 */\n    tag_10:\n      callvalue\n      dup1\n      iszero\n      tag_86\n      jumpi\n      0x00\n      dup1\n      revert\n    tag_86:\n      pop\n      tag_87\n      tag_88\n      jump\t// in\n    tag_87:\n      mload(0x40)\n      dup1\n      dup3\n      0xffffffffffffffffffffffffffffffffffffffff\n      and\n      dup2\n      mstore\n      0x20\n      add\n      swap2\n      pop\n      pop\n      mload(0x40)\n      dup1\n      swap2\n      sub\n      swap1\n      return\n        /* \"contracts/bentoboxDapp.sol\":3359:3554  function approve_spending (address token_address, address spender_address, uint256 amount_to_approve) public {... */\n    tag_11:\n      callvalue\n      dup1\n      iszero\n      tag_89\n      jumpi\n      0x00\n      dup1\n      revert\n    tag_89:\n      pop\n      tag_90\n      0x04\n      dup1\n      calldatasize\n      sub\n      0x60\n      dup2\n      lt\n      iszero\n      tag_91\n      jumpi\n      0x00\n      dup1\n      revert\n    tag_91:\n      dup2\n      add\n      swap1\n      dup1\n      dup1\n      calldataload\n      0xffffffffffffffffffffffffffffffffffffffff\n      and\n      swap1\n      0x20\n      add\n      swap1\n      swap3\n      swap2\n      swap1\n      dup1\n      calldataload\n      0xffffffffffffffffffffffffffffffffffffffff\n      and\n      swap1\n      0x20\n      add\n      swap1\n      swap3\n      swap2\n      swap1\n      dup1\n      calldataload\n      swap1\n      0x20\n      add\n      swap1\n      swap3\n      swap2\n      swap1\n      pop\n      pop\n      pop\n      tag_92\n      jump\t// in\n    tag_90:\n      stop\n        /* \"contracts/bentoboxDapp.sol\":3605:4149  function depositToBento (uint256 amount_, address token_address, address address_from, address address_to) public  {... */\n    tag_12:\n      callvalue\n      dup1\n      iszero\n      tag_93\n      jumpi\n      0x00\n      dup1\n      revert\n    tag_93:\n      pop\n      tag_94\n      0x04\n      dup1\n      calldatasize\n      sub\n      0x80\n      dup2\n      lt\n      iszero\n      tag_95\n      jumpi\n      0x00\n      dup1\n      revert\n    tag_95:\n      dup2\n      add\n      swap1\n      dup1\n      dup1\n      calldataload\n      swap1\n      0x20\n      add\n      swap1\n      swap3\n      swap2\n      swap1\n      dup1\n      calldataload\n      0xffffffffffffffffffffffffffffffffffffffff\n      and\n      swap1\n      0x20\n      add\n      swap1\n      swap3\n      swap2\n      swap1\n      dup1\n      calldataload\n      0xffffffffffffffffffffffffffffffffffffffff\n      and\n      swap1\n      0x20\n      add\n      swap1\n      swap3\n      swap2\n      swap1\n      dup1\n      calldataload\n      0xffffffffffffffffffffffffffffffffffffffff\n      and\n      swap1\n      0x20\n      add\n      swap1\n      swap3\n      swap2\n      swap1\n      pop\n      pop\n      pop\n      tag_96\n      jump\t// in\n    tag_94:\n      stop\n        /* \"contracts/bentoboxDapp.sol\":1640:1704  address[] public SUSHIToUSDCPath = [SUSHI_ADDRESS, USDC_ADDRESS] */\n    tag_13:\n      callvalue\n      dup1\n      iszero\n      tag_97\n      jumpi\n      0x00\n      dup1\n      revert\n    tag_97:\n      pop\n      tag_98\n      0x04\n      dup1\n      calldatasize\n      sub\n      0x20\n      dup2\n      lt\n      iszero\n      tag_99\n      jumpi\n      0x00\n      dup1\n      revert\n    tag_99:\n      dup2\n      add\n      swap1\n      dup1\n      dup1\n      calldataload\n      swap1\n      0x20\n      add\n      swap1\n      swap3\n      swap2\n      swap1\n      pop\n      pop\n      pop\n      tag_100\n      jump\t// in\n    tag_98:\n      mload(0x40)\n      dup1\n      dup3\n      0xffffffffffffffffffffffffffffffffffffffff\n      and\n      dup2\n      mstore\n      0x20\n      add\n      swap2\n      pop\n      pop\n      mload(0x40)\n      dup1\n      swap2\n      sub\n      swap1\n      return\n        /* \"contracts/bentoboxDapp.sol\":8407:8954  function updateSharesOnDeposit(address user, uint256 total_in_USD, uint256 deposit_amount) public { //make this ownable - only contract itself can update this?... */\n    tag_14:\n      callvalue\n      dup1\n      iszero\n      tag_101\n      jumpi\n      0x00\n      dup1\n      revert\n    tag_101:\n      pop\n      tag_102\n      0x04\n      dup1\n      calldatasize\n      sub\n      0x60\n      dup2\n      lt\n      iszero\n      tag_103\n      jumpi\n      0x00\n      dup1\n      revert\n    tag_103:\n      dup2\n      add\n      swap1\n      dup1\n      dup1\n      calldataload\n      0xffffffffffffffffffffffffffffffffffffffff\n      and\n      swap1\n      0x20\n      add\n      swap1\n      swap3\n      swap2\n      swap1\n      dup1\n      calldataload\n      swap1\n      0x20\n      add\n      swap1\n      swap3\n      swap2\n      swap1\n      dup1\n      calldataload\n      swap1\n      0x20\n      add\n      swap1\n      swap3\n      swap2\n      swap1\n      pop\n      pop\n      pop\n      tag_104\n      jump\t// in\n    tag_102:\n      stop\n        /* \"contracts/bentoboxDapp.sol\":1710:1772  address[] public WETHToUSDCPath = [WETH_ADDRESS, USDC_ADDRESS] */\n    tag_15:\n      callvalue\n      dup1\n      iszero\n      tag_105\n      jumpi\n      0x00\n      dup1\n      revert\n    tag_105:\n      pop\n      tag_106\n      0x04\n      dup1\n      calldatasize\n      sub\n      0x20\n      dup2\n      lt\n      iszero\n      tag_107\n      jumpi\n      0x00\n      dup1\n      revert\n    tag_107:\n      dup2\n      add\n      swap1\n      dup1\n      dup1\n      calldataload\n      swap1\n      0x20\n      add\n      swap1\n      swap3\n      swap2\n      swap1\n      pop\n      pop\n      pop\n      tag_108\n      jump\t// in\n    tag_106:\n      mload(0x40)\n      dup1\n      dup3\n      0xffffffffffffffffffffffffffffffffffffffff\n      and\n      dup2\n      mstore\n      0x20\n      add\n      swap2\n      pop\n      pop\n      mload(0x40)\n      dup1\n      swap2\n      sub\n      swap1\n      return\n        /* \"contracts/bentoboxDapp.sol\":11094:11549  function withdrawAllFourTokensFromBento(uint256 _WMATIC_amount, uint256 _SUSHI_amount, uint256 _WETH_amount, uint256 _WBTC_amount) public {... */\n    tag_16:\n      callvalue\n      dup1\n      iszero\n      tag_109\n      jumpi\n      0x00\n      dup1\n      revert\n    tag_109:\n      pop\n      tag_110\n      0x04\n      dup1\n      calldatasize\n      sub\n      0x80\n      dup2\n      lt\n      iszero\n      tag_111\n      jumpi\n      0x00\n      dup1\n      revert\n    tag_111:\n      dup2\n      add\n      swap1\n      dup1\n      dup1\n      calldataload\n      swap1\n      0x20\n      add\n      swap1\n      swap3\n      swap2\n      swap1\n      dup1\n      calldataload\n      swap1\n      0x20\n      add\n      swap1\n      swap3\n      swap2\n      swap1\n      dup1\n      calldataload\n      swap1\n      0x20\n      add\n      swap1\n      swap3\n      swap2\n      swap1\n      dup1\n      calldataload\n      swap1\n      0x20\n      add\n      swap1\n      swap3\n      swap2\n      swap1\n      pop\n      pop\n      pop\n      tag_112\n      jump\t// in\n    tag_110:\n      stop\n        /* \"contracts/bentoboxDapp.sol\":2921:3221  function updateSharesOnWithdrawal(address user) public { //make this ownable - only contract itself can update this?... */\n    tag_17:\n      callvalue\n      dup1\n      iszero\n      tag_113\n      jumpi\n      0x00\n      dup1\n      revert\n    tag_113:\n      pop\n      tag_114\n      0x04\n      dup1\n      calldatasize\n      sub\n      0x20\n      dup2\n      lt\n      iszero\n      tag_115\n      jumpi\n      0x00\n      dup1\n      revert\n    tag_115:\n      dup2\n      add\n      swap1\n      dup1\n      dup1\n      calldataload\n      0xffffffffffffffffffffffffffffffffffffffff\n      and\n      swap1\n      0x20\n      add\n      swap1\n      swap3\n      swap2\n      swap1\n      pop\n      pop\n      pop\n      tag_116\n      jump\t// in\n    tag_114:\n      stop\n        /* \"contracts/bentoboxDapp.sol\":12226:12546  function swapWholeBalanceBackToUSDC(address _token) public {... */\n    tag_18:\n      callvalue\n      dup1\n      iszero\n      tag_117\n      jumpi\n      0x00\n      dup1\n      revert\n    tag_117:\n      pop\n      tag_118\n      0x04\n      dup1\n      calldatasize\n      sub\n      0x20\n      dup2\n      lt\n      iszero\n      tag_119\n      jumpi\n      0x00\n      dup1\n      revert\n    tag_119:\n      dup2\n      add\n      swap1\n      dup1\n      dup1\n      calldataload\n      0xffffffffffffffffffffffffffffffffffffffff\n      and\n      swap1\n      0x20\n      add\n      swap1\n      swap3\n      swap2\n      swap1\n      pop\n      pop\n      pop\n      tag_120\n      jump\t// in\n    tag_118:\n      stop\n        /* \"contracts/bentoboxDapp.sol\":8243:8401  function setSharesFirstTime(address user) public {... */\n    tag_19:\n      callvalue\n      dup1\n      iszero\n      tag_121\n      jumpi\n      0x00\n      dup1\n      revert\n    tag_121:\n      pop\n      tag_122\n      0x04\n      dup1\n      calldatasize\n      sub\n      0x20\n      dup2\n      lt\n      iszero\n      tag_123\n      jumpi\n      0x00\n      dup1\n      revert\n    tag_123:\n      dup2\n      add\n      swap1\n      dup1\n      dup1\n      calldataload\n      0xffffffffffffffffffffffffffffffffffffffff\n      and\n      swap1\n      0x20\n      add\n      swap1\n      swap3\n      swap2\n      swap1\n      pop\n      pop\n      pop\n      tag_124\n      jump\t// in\n    tag_122:\n      stop\n        /* \"contracts/bentoboxDapp.sol\":1568:1634  address[] public WMATICToUSDCPath = [WMATIC_ADDRESS, USDC_ADDRESS] */\n    tag_20:\n      callvalue\n      dup1\n      iszero\n      tag_125\n      jumpi\n      0x00\n      dup1\n      revert\n    tag_125:\n      pop\n      tag_126\n      0x04\n      dup1\n      calldatasize\n      sub\n      0x20\n      dup2\n      lt\n      iszero\n      tag_127\n      jumpi\n      0x00\n      dup1\n      revert\n    tag_127:\n      dup2\n      add\n      swap1\n      dup1\n      dup1\n      calldataload\n      swap1\n      0x20\n      add\n      swap1\n      swap3\n      swap2\n      swap1\n      pop\n      pop\n      pop\n      tag_128\n      jump\t// in\n    tag_126:\n      mload(0x40)\n      dup1\n      dup3\n      0xffffffffffffffffffffffffffffffffffffffff\n      and\n      dup2\n      mstore\n      0x20\n      add\n      swap2\n      pop\n      pop\n      mload(0x40)\n      dup1\n      swap2\n      sub\n      swap1\n      return\n        /* \"contracts/bentoboxDapp.sol\":1289:1355  address[] public USDCToWMATICPath = [USDC_ADDRESS, WMATIC_ADDRESS] */\n    tag_21:\n      callvalue\n      dup1\n      iszero\n      tag_129\n      jumpi\n      0x00\n      dup1\n      revert\n    tag_129:\n      pop\n      tag_130\n      0x04\n      dup1\n      calldatasize\n      sub\n      0x20\n      dup2\n      lt\n      iszero\n      tag_131\n      jumpi\n      0x00\n      dup1\n      revert\n    tag_131:\n      dup2\n      add\n      swap1\n      dup1\n      dup1\n      calldataload\n      swap1\n      0x20\n      add\n      swap1\n      swap3\n      swap2\n      swap1\n      pop\n      pop\n      pop\n      tag_132\n      jump\t// in\n    tag_130:\n      mload(0x40)\n      dup1\n      dup3\n      0xffffffffffffffffffffffffffffffffffffffff\n      and\n      dup2\n      mstore\n      0x20\n      add\n      swap2\n      pop\n      pop\n      mload(0x40)\n      dup1\n      swap2\n      sub\n      swap1\n      return\n        /* \"contracts/bentoboxDapp.sol\":1108:1191  address public constant ETH_USD_ORACLE = 0xF9680D99D6C9589e2a93a78A04A279e509205945 */\n    tag_22:\n      callvalue\n      dup1\n      iszero\n      tag_133\n      jumpi\n      0x00\n      dup1\n      revert\n    tag_133:\n      pop\n      tag_134\n      tag_135\n      jump\t// in\n    tag_134:\n      mload(0x40)\n      dup1\n      dup3\n      0xffffffffffffffffffffffffffffffffffffffff\n      and\n      dup2\n      mstore\n      0x20\n      add\n      swap2\n      pop\n      pop\n      mload(0x40)\n      dup1\n      swap2\n      sub\n      swap1\n      return\n        /* \"contracts/bentoboxDapp.sol\":6190:7033  function swapProportionately(uint256 WMATIC_amount, uint256 SUSHI_amount, uint256 WETH_amount, uint256 WBTC_amount, uint256 totalUSDAmount, uint256 depositAmount) public {... */\n    tag_23:\n      callvalue\n      dup1\n      iszero\n      tag_136\n      jumpi\n      0x00\n      dup1\n      revert\n    tag_136:\n      pop\n      tag_137\n      0x04\n      dup1\n      calldatasize\n      sub\n      0xc0\n      dup2\n      lt\n      iszero\n      tag_138\n      jumpi\n      0x00\n      dup1\n      revert\n    tag_138:\n      dup2\n      add\n      swap1\n      dup1\n      dup1\n      calldataload\n      swap1\n      0x20\n      add\n      swap1\n      swap3\n      swap2\n      swap1\n      dup1\n      calldataload\n      swap1\n      0x20\n      add\n      swap1\n      swap3\n      swap2\n      swap1\n      dup1\n      calldataload\n      swap1\n      0x20\n      add\n      swap1\n      swap3\n      swap2\n      swap1\n      dup1\n      calldataload\n      swap1\n      0x20\n      add\n      swap1\n      swap3\n      swap2\n      swap1\n      dup1\n      calldataload\n      swap1\n      0x20\n      add\n      swap1\n      swap3\n      swap2\n      swap1\n      dup1\n      calldataload\n      swap1\n      0x20\n      add\n      swap1\n      swap3\n      swap2\n      swap1\n      pop\n      pop\n      pop\n      tag_139\n      jump\t// in\n    tag_137:\n      stop\n        /* \"contracts/bentoboxDapp.sol\":7039:7444  function swapIntoFourEqualParts(uint256 amount) public {... */\n    tag_24:\n      callvalue\n      dup1\n      iszero\n      tag_140\n      jumpi\n      0x00\n      dup1\n      revert\n    tag_140:\n      pop\n      tag_141\n      0x04\n      dup1\n      calldatasize\n      sub\n      0x20\n      dup2\n      lt\n      iszero\n      tag_142\n      jumpi\n      0x00\n      dup1\n      revert\n    tag_142:\n      dup2\n      add\n      swap1\n      dup1\n      dup1\n      calldataload\n      swap1\n      0x20\n      add\n      swap1\n      swap3\n      swap2\n      swap1\n      pop\n      pop\n      pop\n      tag_143\n      jump\t// in\n    tag_141:\n      stop\n        /* \"contracts/bentoboxDapp.sol\":928:1013  address public constant MATIC_USD_ORACLE = 0xAB594600376Ec9fD91F8e885dADF0CE036862dE0 */\n    tag_25:\n      callvalue\n      dup1\n      iszero\n      tag_144\n      jumpi\n      0x00\n      dup1\n      revert\n    tag_144:\n      pop\n      tag_145\n      tag_146\n      jump\t// in\n    tag_145:\n      mload(0x40)\n      dup1\n      dup3\n      0xffffffffffffffffffffffffffffffffffffffff\n      and\n      dup2\n      mstore\n      0x20\n      add\n      swap2\n      pop\n      pop\n      mload(0x40)\n      dup1\n      swap2\n      sub\n      swap1\n      return\n        /* \"contracts/bentoboxDapp.sol\":13453:13755  function swap(uint256 _amountIn, uint256 _amountOutMin, address[] memory _path, address _acct, uint256 _deadline) public {... */\n    tag_26:\n      callvalue\n      dup1\n      iszero\n      tag_147\n      jumpi\n      0x00\n      dup1\n      revert\n    tag_147:\n      pop\n      tag_148\n      0x04\n      dup1\n      calldatasize\n      sub\n      0xa0\n      dup2\n      lt\n      iszero\n      tag_149\n      jumpi\n      0x00\n      dup1\n      revert\n    tag_149:\n      dup2\n      add\n      swap1\n      dup1\n      dup1\n      calldataload\n      swap1\n      0x20\n      add\n      swap1\n      swap3\n      swap2\n      swap1\n      dup1\n      calldataload\n      swap1\n      0x20\n      add\n      swap1\n      swap3\n      swap2\n      swap1\n      dup1\n      calldataload\n      swap1\n      0x20\n      add\n      swap1\n      0x0100000000\n      dup2\n      gt\n      iszero\n      tag_150\n      jumpi\n      0x00\n      dup1\n      revert\n    tag_150:\n      dup3\n      add\n      dup4\n      0x20\n      dup3\n      add\n      gt\n      iszero\n      tag_151\n      jumpi\n      0x00\n      dup1\n      revert\n    tag_151:\n      dup1\n      calldataload\n      swap1\n      0x20\n      add\n      swap2\n      dup5\n      0x20\n      dup4\n      mul\n      dup5\n      add\n      gt\n      0x0100000000\n      dup4\n      gt\n      or\n      iszero\n      tag_152\n      jumpi\n      0x00\n      dup1\n      revert\n    tag_152:\n      swap2\n      swap1\n      dup1\n      dup1\n      0x20\n      mul\n      0x20\n      add\n      mload(0x40)\n      swap1\n      dup2\n      add\n      0x40\n      mstore\n      dup1\n      swap4\n      swap3\n      swap2\n      swap1\n      dup2\n      dup2\n      mstore\n      0x20\n      add\n      dup4\n      dup4\n      0x20\n      mul\n      dup1\n      dup3\n      dup5\n      calldatacopy\n      0x00\n      dup2\n      dup5\n      add\n      mstore\n      not(0x1f)\n      0x1f\n      dup3\n      add\n      and\n      swap1\n      pop\n      dup1\n      dup4\n      add\n      swap3\n      pop\n      pop\n      pop\n      pop\n      pop\n      pop\n      pop\n      swap2\n      swap3\n      swap2\n      swap3\n      swap1\n      dup1\n      calldataload\n      0xffffffffffffffffffffffffffffffffffffffff\n      and\n      swap1\n      0x20\n      add\n      swap1\n      swap3\n      swap2\n      swap1\n      dup1\n      calldataload\n      swap1\n      0x20\n      add\n      swap1\n      swap3\n      swap2\n      swap1\n      pop\n      pop\n      pop\n      tag_153\n      jump\t// in\n    tag_148:\n      stop\n        /* \"contracts/bentoboxDapp.sol\":5815:6184  function getUSDBentoTokenBalanceOf(address token_address, address oracle_address, uint256 token_decimals) public view returns (uint256) {... */\n    tag_27:\n      callvalue\n      dup1\n      iszero\n      tag_154\n      jumpi\n      0x00\n      dup1\n      revert\n    tag_154:\n      pop\n      tag_155\n      0x04\n      dup1\n      calldatasize\n      sub\n      0x60\n      dup2\n      lt\n      iszero\n      tag_156\n      jumpi\n      0x00\n      dup1\n      revert\n    tag_156:\n      dup2\n      add\n      swap1\n      dup1\n      dup1\n      calldataload\n      0xffffffffffffffffffffffffffffffffffffffff\n      and\n      swap1\n      0x20\n      add\n      swap1\n      swap3\n      swap2\n      swap1\n      dup1\n      calldataload\n      0xffffffffffffffffffffffffffffffffffffffff\n      and\n      swap1\n      0x20\n      add\n      swap1\n      swap3\n      swap2\n      swap1\n      dup1\n      calldataload\n      swap1\n      0x20\n      add\n      swap1\n      swap3\n      swap2\n      swap1\n      pop\n      pop\n      pop\n      tag_157\n      jump\t// in\n    tag_155:\n      mload(0x40)\n      dup1\n      dup3\n      dup2\n      mstore\n      0x20\n      add\n      swap2\n      pop\n      pop\n      mload(0x40)\n      dup1\n      swap2\n      sub\n      swap1\n      return\n        /* \"contracts/bentoboxDapp.sol\":1499:1561  address[] public USDCToWBTCPath = [USDC_ADDRESS, WBTC_ADDRESS] */\n    tag_28:\n      callvalue\n      dup1\n      iszero\n      tag_158\n      jumpi\n      0x00\n      dup1\n      revert\n    tag_158:\n      pop\n      tag_159\n      0x04\n      dup1\n      calldatasize\n      sub\n      0x20\n      dup2\n      lt\n      iszero\n      tag_160\n      jumpi\n      0x00\n      dup1\n      revert\n    tag_160:\n      dup2\n      add\n      swap1\n      dup1\n      dup1\n      calldataload\n      swap1\n      0x20\n      add\n      swap1\n      swap3\n      swap2\n      swap1\n      pop\n      pop\n      pop\n      tag_161\n      jump\t// in\n    tag_159:\n      mload(0x40)\n      dup1\n      dup3\n      0xffffffffffffffffffffffffffffffffffffffff\n      and\n      dup2\n      mstore\n      0x20\n      add\n      swap2\n      pop\n      pop\n      mload(0x40)\n      dup1\n      swap2\n      sub\n      swap1\n      return\n        /* \"contracts/bentoboxDapp.sol\":7450:8237  function depositAllFourTokensBackToBento() public {... */\n    tag_29:\n      callvalue\n      dup1\n      iszero\n      tag_162\n      jumpi\n      0x00\n      dup1\n      revert\n    tag_162:\n      pop\n      tag_163\n      tag_164\n      jump\t// in\n    tag_163:\n      stop\n        /* \"contracts/bentoboxDapp.sol\":12659:13158  function transfer(address token_address, uint256 _share, address address_from, address address_to) public  {... */\n    tag_30:\n      callvalue\n      dup1\n      iszero\n      tag_165\n      jumpi\n      0x00\n      dup1\n      revert\n    tag_165:\n      pop\n      tag_166\n      0x04\n      dup1\n      calldatasize\n      sub\n      0x80\n      dup2\n      lt\n      iszero\n      tag_167\n      jumpi\n      0x00\n      dup1\n      revert\n    tag_167:\n      dup2\n      add\n      swap1\n      dup1\n      dup1\n      calldataload\n      0xffffffffffffffffffffffffffffffffffffffff\n      and\n      swap1\n      0x20\n      add\n      swap1\n      swap3\n      swap2\n      swap1\n      dup1\n      calldataload\n      swap1\n      0x20\n      add\n      swap1\n      swap3\n      swap2\n      swap1\n      dup1\n      calldataload\n      0xffffffffffffffffffffffffffffffffffffffff\n      and\n      swap1\n      0x20\n      add\n      swap1\n      swap3\n      swap2\n      swap1\n      dup1\n      calldataload\n      0xffffffffffffffffffffffffffffffffffffffff\n      and\n      swap1\n      0x20\n      add\n      swap1\n      swap3\n      swap2\n      swap1\n      pop\n      pop\n      pop\n      tag_168\n      jump\t// in\n    tag_166:\n      stop\n        /* \"contracts/bentoboxDapp.sol\":12005:12220  function approveSpendingWholeBalance(address _token, address _spender) public {... */\n    tag_31:\n      callvalue\n      dup1\n      iszero\n      tag_169\n      jumpi\n      0x00\n      dup1\n      revert\n    tag_169:\n      pop\n      tag_170\n      0x04\n      dup1\n      calldatasize\n      sub\n      0x40\n      dup2\n      lt\n      iszero\n      tag_171\n      jumpi\n      0x00\n      dup1\n      revert\n    tag_171:\n      dup2\n      add\n      swap1\n      dup1\n      dup1\n      calldataload\n      0xffffffffffffffffffffffffffffffffffffffff\n      and\n      swap1\n      0x20\n      add\n      swap1\n      swap3\n      swap2\n      swap1\n      dup1\n      calldataload\n      0xffffffffffffffffffffffffffffffffffffffff\n      and\n      swap1\n      0x20\n      add\n      swap1\n      swap3\n      swap2\n      swap1\n      pop\n      pop\n      pop\n      tag_172\n      jump\t// in\n    tag_170:\n      stop\n        /* \"contracts/bentoboxDapp.sol\":2439:2530  function registerProtocol () public {... */\n    tag_32:\n      callvalue\n      dup1\n      iszero\n      tag_173\n      jumpi\n      0x00\n      dup1\n      revert\n    tag_173:\n      pop\n      tag_174\n      tag_175\n      jump\t// in\n    tag_174:\n      stop\n        /* \"contracts/bentoboxDapp.sol\":1019:1102  address public constant BTC_USD_ORACLE = 0xc907E116054Ad103354f2D350FD2514433D57F6f */\n    tag_33:\n      callvalue\n      dup1\n      iszero\n      tag_176\n      jumpi\n      0x00\n      dup1\n      revert\n    tag_176:\n      pop\n      tag_177\n      tag_178\n      jump\t// in\n    tag_177:\n      mload(0x40)\n      dup1\n      dup3\n      0xffffffffffffffffffffffffffffffffffffffff\n      and\n      dup2\n      mstore\n      0x20\n      add\n      swap2\n      pop\n      pop\n      mload(0x40)\n      dup1\n      swap2\n      sub\n      swap1\n      return\n        /* \"contracts/bentoboxDapp.sol\":3227:3353  function getUserShares(address user) public view returns (uint256 userShares) {... */\n    tag_34:\n      callvalue\n      dup1\n      iszero\n      tag_179\n      jumpi\n      0x00\n      dup1\n      revert\n    tag_179:\n      pop\n      tag_180\n      0x04\n      dup1\n      calldatasize\n      sub\n      0x20\n      dup2\n      lt\n      iszero\n      tag_181\n      jumpi\n      0x00\n      dup1\n      revert\n    tag_181:\n      dup2\n      add\n      swap1\n      dup1\n      dup1\n      calldataload\n      0xffffffffffffffffffffffffffffffffffffffff\n      and\n      swap1\n      0x20\n      add\n      swap1\n      swap3\n      swap2\n      swap1\n      pop\n      pop\n      pop\n      tag_182\n      jump\t// in\n    tag_180:\n      mload(0x40)\n      dup1\n      dup3\n      dup2\n      mstore\n      0x20\n      add\n      swap2\n      pop\n      pop\n      mload(0x40)\n      dup1\n      swap2\n      sub\n      swap1\n      return\n        /* \"contracts/bentoboxDapp.sol\":484:565  address public constant USDC_ADDRESS = 0x2791Bca1f2de4661ED88A30C99A7a9449Aa84174 */\n    tag_35:\n      callvalue\n      dup1\n      iszero\n      tag_183\n      jumpi\n      0x00\n      dup1\n      revert\n    tag_183:\n      pop\n      tag_184\n      tag_185\n      jump\t// in\n    tag_184:\n      mload(0x40)\n      dup1\n      dup3\n      0xffffffffffffffffffffffffffffffffffffffff\n      and\n      dup2\n      mstore\n      0x20\n      add\n      swap2\n      pop\n      pop\n      mload(0x40)\n      dup1\n      swap2\n      sub\n      swap1\n      return\n        /* \"contracts/bentoboxDapp.sol\":840:921  address public constant WBTC_ADDRESS = 0x1BFD67037B42Cf73acF2047067bd4F2C47D9BfD6 */\n    tag_36:\n      callvalue\n      dup1\n      iszero\n      tag_186\n      jumpi\n      0x00\n      dup1\n      revert\n    tag_186:\n      pop\n      tag_187\n      tag_188\n      jump\t// in\n    tag_187:\n      mload(0x40)\n      dup1\n      dup3\n      0xffffffffffffffffffffffffffffffffffffffff\n      and\n      dup2\n      mstore\n      0x20\n      add\n      swap2\n      pop\n      pop\n      mload(0x40)\n      dup1\n      swap2\n      sub\n      swap1\n      return\n        /* \"contracts/bentoboxDapp.sol\":1943:1977  uint256 public totalNumberOfShares */\n    tag_37:\n      callvalue\n      dup1\n      iszero\n      tag_189\n      jumpi\n      0x00\n      dup1\n      revert\n    tag_189:\n      pop\n      tag_190\n      tag_191\n      jump\t// in\n    tag_190:\n      mload(0x40)\n      dup1\n      dup3\n      dup2\n      mstore\n      0x20\n      add\n      swap2\n      pop\n      pop\n      mload(0x40)\n      dup1\n      swap2\n      sub\n      swap1\n      return\n        /* \"contracts/bentoboxDapp.sol\":1778:1840  address[] public WBTCToUSDCPath = [WBTC_ADDRESS, USDC_ADDRESS] */\n    tag_38:\n      callvalue\n      dup1\n      iszero\n      tag_192\n      jumpi\n      0x00\n      dup1\n      revert\n    tag_192:\n      pop\n      tag_193\n      0x04\n      dup1\n      calldatasize\n      sub\n      0x20\n      dup2\n      lt\n      iszero\n      tag_194\n      jumpi\n      0x00\n      dup1\n      revert\n    tag_194:\n      dup2\n      add\n      swap1\n      dup1\n      dup1\n      calldataload\n      swap1\n      0x20\n      add\n      swap1\n      swap3\n      swap2\n      swap1\n      pop\n      pop\n      pop\n      tag_195\n      jump\t// in\n    tag_193:\n      mload(0x40)\n      dup1\n      dup3\n      0xffffffffffffffffffffffffffffffffffffffff\n      and\n      dup2\n      mstore\n      0x20\n      add\n      swap2\n      pop\n      pop\n      mload(0x40)\n      dup1\n      swap2\n      sub\n      swap1\n      return\n        /* \"contracts/bentoboxDapp.sol\":1431:1493  address[] public USDCToWETHPath = [USDC_ADDRESS, WETH_ADDRESS] */\n    tag_39:\n      callvalue\n      dup1\n      iszero\n      tag_196\n      jumpi\n      0x00\n      dup1\n      revert\n    tag_196:\n      pop\n      tag_197\n      0x04\n      dup1\n      calldatasize\n      sub\n      0x20\n      dup2\n      lt\n      iszero\n      tag_198\n      jumpi\n      0x00\n      dup1\n      revert\n    tag_198:\n      dup2\n      add\n      swap1\n      dup1\n      dup1\n      calldataload\n      swap1\n      0x20\n      add\n      swap1\n      swap3\n      swap2\n      swap1\n      pop\n      pop\n      pop\n      tag_199\n      jump\t// in\n    tag_197:\n      mload(0x40)\n      dup1\n      dup3\n      0xffffffffffffffffffffffffffffffffffffffff\n      and\n      dup2\n      mstore\n      0x20\n      add\n      swap2\n      pop\n      pop\n      mload(0x40)\n      dup1\n      swap2\n      sub\n      swap1\n      return\n        /* \"contracts/bentoboxDapp.sol\":13761:14225  function rebalanceOne() public {... */\n    tag_40:\n      callvalue\n      dup1\n      iszero\n      tag_200\n      jumpi\n      0x00\n      dup1\n      revert\n    tag_200:\n      pop\n      tag_201\n      tag_202\n      jump\t// in\n    tag_201:\n      stop\n        /* \"contracts/bentoboxDapp.sol\":2044:2130  IBentoBoxV1 public BentoMasterContract = IBentoBoxV1(BENTOBOX_MASTER_CONTRACT_ADDRESS) */\n    tag_41:\n      callvalue\n      dup1\n      iszero\n      tag_203\n      jumpi\n      0x00\n      dup1\n      revert\n    tag_203:\n      pop\n      tag_204\n      tag_205\n      jump\t// in\n    tag_204:\n      mload(0x40)\n      dup1\n      dup3\n      0xffffffffffffffffffffffffffffffffffffffff\n      and\n      dup2\n      mstore\n      0x20\n      add\n      swap2\n      pop\n      pop\n      mload(0x40)\n      dup1\n      swap2\n      sub\n      swap1\n      return\n        /* \"contracts/bentoboxDapp.sol\":12556:12649  function withdraw_matic(uint256 amount_) public {... */\n    tag_42:\n      callvalue\n      dup1\n      iszero\n      tag_206\n      jumpi\n      0x00\n      dup1\n      revert\n    tag_206:\n      pop\n      tag_207\n      0x04\n      dup1\n      calldatasize\n      sub\n      0x20\n      dup2\n      lt\n      iszero\n      tag_208\n      jumpi\n      0x00\n      dup1\n      revert\n    tag_208:\n      dup2\n      add\n      swap1\n      dup1\n      dup1\n      calldataload\n      swap1\n      0x20\n      add\n      swap1\n      swap3\n      swap2\n      swap1\n      pop\n      pop\n      pop\n      tag_209\n      jump\t// in\n    tag_207:\n      stop\n        /* \"contracts/bentoboxDapp.sol\":1197:1282  address public constant SUSHI_USD_ORACLE = 0x49B0c695039243BBfEb8EcD054EB70061fd54aa0 */\n    tag_43:\n      callvalue\n      dup1\n      iszero\n      tag_210\n      jumpi\n      0x00\n      dup1\n      revert\n    tag_210:\n      pop\n      tag_211\n      tag_212\n      jump\t// in\n    tag_211:\n      mload(0x40)\n      dup1\n      dup3\n      0xffffffffffffffffffffffffffffffffffffffff\n      and\n      dup2\n      mstore\n      0x20\n      add\n      swap2\n      pop\n      pop\n      mload(0x40)\n      dup1\n      swap2\n      sub\n      swap1\n      return\n        /* \"contracts/bentoboxDapp.sol\":1361:1425  address[] public USDCToSUSHIPath = [USDC_ADDRESS, SUSHI_ADDRESS] */\n    tag_44:\n      callvalue\n      dup1\n      iszero\n      tag_213\n      jumpi\n      0x00\n      dup1\n      revert\n    tag_213:\n      pop\n      tag_214\n      0x04\n      dup1\n      calldatasize\n      sub\n      0x20\n      dup2\n      lt\n      iszero\n      tag_215\n      jumpi\n      0x00\n      dup1\n      revert\n    tag_215:\n      dup2\n      add\n      swap1\n      dup1\n      dup1\n      calldataload\n      swap1\n      0x20\n      add\n      swap1\n      swap3\n      swap2\n      swap1\n      pop\n      pop\n      pop\n      tag_216\n      jump\t// in\n    tag_214:\n      mload(0x40)\n      dup1\n      dup3\n      0xffffffffffffffffffffffffffffffffffffffff\n      and\n      dup2\n      mstore\n      0x20\n      add\n      swap2\n      pop\n      pop\n      mload(0x40)\n      dup1\n      swap2\n      sub\n      swap1\n      return\n        /* \"contracts/bentoboxDapp.sol\":576:659  address public constant WMATIC_ADDRESS = 0x0d500B1d8E8eF31E21C99d1Db9A6444d3ADf1270 */\n    tag_45:\n      callvalue\n      dup1\n      iszero\n      tag_217\n      jumpi\n      0x00\n      dup1\n      revert\n    tag_217:\n      pop\n      tag_218\n      tag_219\n      jump\t// in\n    tag_218:\n      mload(0x40)\n      dup1\n      dup3\n      0xffffffffffffffffffffffffffffffffffffffff\n      and\n      dup2\n      mstore\n      0x20\n      add\n      swap2\n      pop\n      pop\n      mload(0x40)\n      dup1\n      swap2\n      sub\n      swap1\n      return\n        /* \"contracts/bentoboxDapp.sol\":13164:13443  function BentoTokenBalanceOf(address token_address, address user_address) public view returns (uint256 token_balance) {... */\n    tag_46:\n      callvalue\n      dup1\n      iszero\n      tag_220\n      jumpi\n      0x00\n      dup1\n      revert\n    tag_220:\n      pop\n      tag_221\n      0x04\n      dup1\n      calldatasize\n      sub\n      0x40\n      dup2\n      lt\n      iszero\n      tag_222\n      jumpi\n      0x00\n      dup1\n      revert\n    tag_222:\n      dup2\n      add\n      swap1\n      dup1\n      dup1\n      calldataload\n      0xffffffffffffffffffffffffffffffffffffffff\n      and\n      swap1\n      0x20\n      add\n      swap1\n      swap3\n      swap2\n      swap1\n      dup1\n      calldataload\n      0xffffffffffffffffffffffffffffffffffffffff\n      and\n      swap1\n      0x20\n      add\n      swap1\n      swap3\n      swap2\n      swap1\n      pop\n      pop\n      pop\n      tag_223\n      jump\t// in\n    tag_221:\n      mload(0x40)\n      dup1\n      dup3\n      dup2\n      mstore\n      0x20\n      add\n      swap2\n      pop\n      pop\n      mload(0x40)\n      dup1\n      swap2\n      sub\n      swap1\n      return\n        /* \"contracts/bentoboxDapp.sol\":376:477  address public constant BENTOBOX_MASTER_CONTRACT_ADDRESS = 0x0319000133d3AdA02600f0875d2cf03D442C3367 */\n    tag_47:\n      callvalue\n      dup1\n      iszero\n      tag_224\n      jumpi\n      0x00\n      dup1\n      revert\n    tag_224:\n      pop\n      tag_225\n      tag_226\n      jump\t// in\n    tag_225:\n      mload(0x40)\n      dup1\n      dup3\n      0xffffffffffffffffffffffffffffffffffffffff\n      and\n      dup2\n      mstore\n      0x20\n      add\n      swap2\n      pop\n      pop\n      mload(0x40)\n      dup1\n      swap2\n      sub\n      swap1\n      return\n        /* \"contracts/bentoboxDapp.sol\":1983:2036  mapping(address => uint256) public userNumberOfShares */\n    tag_48:\n      callvalue\n      dup1\n      iszero\n      tag_227\n      jumpi\n      0x00\n      dup1\n      revert\n    tag_227:\n      pop\n      tag_228\n      0x04\n      dup1\n      calldatasize\n      sub\n      0x20\n      dup2\n      lt\n      iszero\n      tag_229\n      jumpi\n      0x00\n      dup1\n      revert\n    tag_229:\n      dup2\n      add\n      swap1\n      dup1\n      dup1\n      calldataload\n      0xffffffffffffffffffffffffffffffffffffffff\n      and\n      swap1\n      0x20\n      add\n      swap1\n      swap3\n      swap2\n      swap1\n      pop\n      pop\n      pop\n      tag_230\n      jump\t// in\n    tag_228:\n      mload(0x40)\n      dup1\n      dup3\n      dup2\n      mstore\n      0x20\n      add\n      swap2\n      pop\n      pop\n      mload(0x40)\n      dup1\n      swap2\n      sub\n      swap1\n      return\n        /* \"contracts/bentoboxDapp.sol\":14231:14318  function rebalanceThree() public {... */\n    tag_49:\n      callvalue\n      dup1\n      iszero\n      tag_231\n      jumpi\n      0x00\n      dup1\n      revert\n    tag_231:\n      pop\n      tag_232\n      tag_233\n      jump\t// in\n    tag_232:\n      stop\n        /* \"contracts/bentoboxDapp.sol\":2136:2216  IUniswapV2Router02 public sushiSwapRouter = IUniswapV2Router02(SUSHISWAP_ROUTER) */\n    tag_50:\n      callvalue\n      dup1\n      iszero\n      tag_234\n      jumpi\n      0x00\n      dup1\n      revert\n    tag_234:\n      pop\n      tag_235\n      tag_236\n      jump\t// in\n    tag_235:\n      mload(0x40)\n      dup1\n      dup3\n      0xffffffffffffffffffffffffffffffffffffffff\n      and\n      dup2\n      mstore\n      0x20\n      add\n      swap2\n      pop\n      pop\n      mload(0x40)\n      dup1\n      swap2\n      sub\n      swap1\n      return\n        /* \"contracts/bentoboxDapp.sol\":753:834  address public constant WETH_ADDRESS = 0x7ceB23fD6bC0adD59E62ac25578270cFf1b9f619 */\n    tag_62:\n        /* \"contracts/bentoboxDapp.sol\":792:834  0x7ceB23fD6bC0adD59E62ac25578270cFf1b9f619 */\n      0x7ceb23fd6bc0add59e62ac25578270cff1b9f619\n        /* \"contracts/bentoboxDapp.sol\":753:834  address public constant WETH_ADDRESS = 0x7ceB23fD6bC0adD59E62ac25578270cFf1b9f619 */\n      dup2\n      jump\t// out\n        /* \"contracts/bentoboxDapp.sol\":665:747  address public constant SUSHI_ADDRESS = 0x0b3F868E0BE5597D5DB7fEB59E1CADBb0fdDa50a */\n    tag_65:\n        /* \"contracts/bentoboxDapp.sol\":705:747  0x0b3F868E0BE5597D5DB7fEB59E1CADBb0fdDa50a */\n      0x0b3f868e0be5597d5db7feb59e1cadbb0fdda50a\n        /* \"contracts/bentoboxDapp.sol\":665:747  address public constant SUSHI_ADDRESS = 0x0b3F868E0BE5597D5DB7fEB59E1CADBb0fdDa50a */\n      dup2\n      jump\t// out\n        /* \"contracts/bentoboxDapp.sol\":8960:9500  function depositTokenBalanceToBento (address token_address, address address_from, address address_to) public  {... */\n    tag_69:\n        /* \"contracts/bentoboxDapp.sol\":9080:9093  IERC20 token_ */\n      0x00\n        /* \"contracts/bentoboxDapp.sol\":9103:9116  token_address */\n      dup4\n        /* \"contracts/bentoboxDapp.sol\":9080:9117  IERC20 token_ = IERC20(token_address) */\n      swap1\n      pop\n        /* \"contracts/bentoboxDapp.sol\":9127:9147  uint256 tokenBalance */\n      0x00\n        /* \"contracts/bentoboxDapp.sol\":9150:9156  token_ */\n      dup2\n        /* \"contracts/bentoboxDapp.sol\":9150:9166  token_.balanceOf */\n      0xffffffffffffffffffffffffffffffffffffffff\n      and\n      0x70a08231\n        /* \"contracts/bentoboxDapp.sol\":9167:9179  address_from */\n      dup6\n        /* \"contracts/bentoboxDapp.sol\":9150:9180  token_.balanceOf(address_from) */\n      mload(0x40)\n      dup3\n      0xffffffff\n      and\n      0xe0\n      shl\n      dup2\n      mstore\n      0x04\n      add\n      dup1\n      dup3\n      0xffffffffffffffffffffffffffffffffffffffff\n      and\n      dup2\n      mstore\n      0x20\n      add\n      swap2\n      pop\n      pop\n      0x20\n      mload(0x40)\n      dup1\n      dup4\n      sub\n      dup2\n      dup7\n      dup1\n      extcodesize\n      iszero\n      dup1\n      iszero\n      tag_238\n      jumpi\n      0x00\n      dup1\n      revert\n    tag_238:\n      pop\n      gas\n      staticcall\n      iszero\n      dup1\n      iszero\n      tag_240\n      jumpi\n      returndatasize\n      0x00\n      dup1\n      returndatacopy\n      revert(0x00, returndatasize)\n    tag_240:\n      pop\n      pop\n      pop\n      pop\n      mload(0x40)\n      returndatasize\n      0x20\n      dup2\n      lt\n      iszero\n      tag_241\n      jumpi\n      0x00\n      dup1\n      revert\n    tag_241:\n      dup2\n      add\n      swap1\n      dup1\n      dup1\n      mload\n      swap1\n      0x20\n      add\n      swap1\n      swap3\n      swap2\n      swap1\n      pop\n      pop\n      pop\n        /* \"contracts/bentoboxDapp.sol\":9127:9180  uint256 tokenBalance = token_.balanceOf(address_from) */\n      swap1\n      pop\n        /* \"contracts/bentoboxDapp.sol\":9199:9218  BentoMasterContract */\n      0x0a\n      0x00\n      swap1\n      sload\n      swap1\n      0x0100\n      exp\n      swap1\n      div\n      0xffffffffffffffffffffffffffffffffffffffff\n      and\n        /* \"contracts/bentoboxDapp.sol\":9199:9226  BentoMasterContract.deposit */\n      0xffffffffffffffffffffffffffffffffffffffff\n      and\n      0x02b9446c\n        /* \"contracts/bentoboxDapp.sol\":9236:9242  token_ */\n      dup4\n        /* \"contracts/bentoboxDapp.sol\":9301:9313  address_from */\n      dup7\n        /* \"contracts/bentoboxDapp.sol\":9372:9382  address_to */\n      dup7\n        /* \"contracts/bentoboxDapp.sol\":9425:9437  tokenBalance */\n      dup6\n        /* \"contracts/bentoboxDapp.sol\":9457:9458  0 */\n      0x00\n        /* \"contracts/bentoboxDapp.sol\":9199:9493  BentoMasterContract.deposit(... */\n      mload(0x40)\n      dup7\n      0xffffffff\n      and\n      0xe0\n      shl\n      dup2\n      mstore\n      0x04\n      add\n      dup1\n      dup7\n      0xffffffffffffffffffffffffffffffffffffffff\n      and\n      dup2\n      mstore\n      0x20\n      add\n      dup6\n      0xffffffffffffffffffffffffffffffffffffffff\n      and\n      dup2\n      mstore\n      0x20\n      add\n      dup5\n      0xffffffffffffffffffffffffffffffffffffffff\n      and\n      dup2\n      mstore\n      0x20\n      add\n      dup4\n      dup2\n      mstore\n      0x20\n      add\n      dup3\n      dup2\n      mstore\n      0x20\n      add\n      swap6\n      pop\n      pop\n      pop\n      pop\n      pop\n      pop\n      0x40\n      dup1\n      mload\n      dup1\n      dup4\n      sub\n      dup2\n      0x00\n      dup8\n      dup1\n      extcodesize\n      iszero\n      dup1\n      iszero\n      tag_242\n      jumpi\n      0x00\n      dup1\n      revert\n    tag_242:\n      pop\n      gas\n      call\n      iszero\n      dup1\n      iszero\n      tag_244\n      jumpi\n      returndatasize\n      0x00\n      dup1\n      returndatacopy\n      revert(0x00, returndatasize)\n    tag_244:\n      pop\n      pop\n      pop\n      pop\n      mload(0x40)\n      returndatasize\n      0x40\n      dup2\n      lt\n      iszero\n      tag_245\n      jumpi\n      0x00\n      dup1\n      revert\n    tag_245:\n      dup2\n      add\n      swap1\n      dup1\n      dup1\n      mload\n      swap1\n      0x20\n      add\n      swap1\n      swap3\n      swap2\n      swap1\n      dup1\n      mload\n      swap1\n      0x20\n      add\n      swap1\n      swap3\n      swap2\n      swap1\n      pop\n      pop\n      pop\n      pop\n      pop\n        /* \"contracts/bentoboxDapp.sol\":8960:9500  function depositTokenBalanceToBento (address token_address, address address_from, address address_to) public  {... */\n      pop\n      pop\n      pop\n      pop\n      pop\n      jump\t// out\n        /* \"contracts/bentoboxDapp.sol\":4155:5809  function depositUserFunds (uint256 amount_, address token_address, address address_from, address address_to) public  {... */\n    tag_73:\n        /* \"contracts/bentoboxDapp.sol\":4282:4295  IERC20 token_ */\n      0x00\n        /* \"contracts/bentoboxDapp.sol\":4305:4318  token_address */\n      dup4\n        /* \"contracts/bentoboxDapp.sol\":4282:4319  IERC20 token_ = IERC20(token_address) */\n      swap1\n      pop\n        /* \"contracts/bentoboxDapp.sol\":4330:4349  BentoMasterContract */\n      0x0a\n      0x00\n      swap1\n      sload\n      swap1\n      0x0100\n      exp\n      swap1\n      div\n      0xffffffffffffffffffffffffffffffffffffffff\n      and\n        /* \"contracts/bentoboxDapp.sol\":4330:4357  BentoMasterContract.deposit */\n      0xffffffffffffffffffffffffffffffffffffffff\n      and\n      0x02b9446c\n        /* \"contracts/bentoboxDapp.sol\":4367:4373  token_ */\n      dup3\n        /* \"contracts/bentoboxDapp.sol\":4486:4498  address_from */\n      dup6\n        /* \"contracts/bentoboxDapp.sol\":4545:4555  address_to */\n      dup6\n        /* \"contracts/bentoboxDapp.sol\":4599:4606  amount_ */\n      dup10\n        /* \"contracts/bentoboxDapp.sol\":4626:4627  0 */\n      0x00\n        /* \"contracts/bentoboxDapp.sol\":4330:4662  BentoMasterContract.deposit(... */\n      mload(0x40)\n      dup7\n      0xffffffff\n      and\n      0xe0\n      shl\n      dup2\n      mstore\n      0x04\n      add\n      dup1\n      dup7\n      0xffffffffffffffffffffffffffffffffffffffff\n      and\n      dup2\n      mstore\n      0x20\n      add\n      dup6\n      0xffffffffffffffffffffffffffffffffffffffff\n      and\n      dup2\n      mstore\n      0x20\n      add\n      dup5\n      0xffffffffffffffffffffffffffffffffffffffff\n      and\n      dup2\n      mstore\n      0x20\n      add\n      dup4\n      dup2\n      mstore\n      0x20\n      add\n      dup3\n      dup2\n      mstore\n      0x20\n      add\n      swap6\n      pop\n      pop\n      pop\n      pop\n      pop\n      pop\n      0x40\n      dup1\n      mload\n      dup1\n      dup4\n      sub\n      dup2\n      0x00\n      dup8\n      dup1\n      extcodesize\n      iszero\n      dup1\n      iszero\n      tag_247\n      jumpi\n      0x00\n      dup1\n      revert\n    tag_247:\n      pop\n      gas\n      call\n      iszero\n      dup1\n      iszero\n      tag_249\n      jumpi\n      returndatasize\n      0x00\n      dup1\n      returndatacopy\n      revert(0x00, returndatasize)\n    tag_249:\n      pop\n      pop\n      pop\n      pop\n      mload(0x40)\n      returndatasize\n      0x40\n      dup2\n      lt\n      iszero\n      tag_250\n      jumpi\n      0x00\n      dup1\n      revert\n    tag_250:\n      dup2\n      add\n      swap1\n      dup1\n      dup1\n      mload\n      swap1\n      0x20\n      add\n      swap1\n      swap3\n      swap2\n      swap1\n      dup1\n      mload\n      swap1\n      0x20\n      add\n      swap1\n      swap3\n      swap2\n      swap1\n      pop\n      pop\n      pop\n      pop\n      pop\n        /* \"contracts/bentoboxDapp.sol\":4673:4735  withdraw(amount_, token_address, address(this), address(this)) */\n      tag_251\n        /* \"contracts/bentoboxDapp.sol\":4682:4689  amount_ */\n      dup6\n        /* \"contracts/bentoboxDapp.sol\":4691:4704  token_address */\n      dup6\n        /* \"contracts/bentoboxDapp.sol\":4714:4718  this */\n      address\n        /* \"contracts/bentoboxDapp.sol\":4729:4733  this */\n      address\n        /* \"contracts/bentoboxDapp.sol\":4673:4681  withdraw */\n      tag_81\n        /* \"contracts/bentoboxDapp.sol\":4673:4735  withdraw(amount_, token_address, address(this), address(this)) */\n      jump\t// in\n    tag_251:\n        /* \"contracts/bentoboxDapp.sol\":4746:4803  approve_spending(USDC_ADDRESS, SUSHISWAP_ROUTER, amount_) */\n      tag_252\n        /* \"contracts/bentoboxDapp.sol\":523:565  0x2791Bca1f2de4661ED88A30C99A7a9449Aa84174 */\n      0x2791bca1f2de4661ed88a30c99a7a9449aa84174\n        /* \"contracts/bentoboxDapp.sol\":1890:1932  0x1b02dA8Cb0d097eB8D57A175b88c7D8b47997506 */\n      0x1b02da8cb0d097eb8d57a175b88c7d8b47997506\n        /* \"contracts/bentoboxDapp.sol\":4795:4802  amount_ */\n      dup8\n        /* \"contracts/bentoboxDapp.sol\":4746:4762  approve_spending */\n      tag_92\n        /* \"contracts/bentoboxDapp.sol\":4746:4803  approve_spending(USDC_ADDRESS, SUSHISWAP_ROUTER, amount_) */\n      jump\t// in\n    tag_252:\n        /* \"contracts/bentoboxDapp.sol\":4814:4841  uint256 WMATIC_balanceInUSD */\n      0x00\n        /* \"contracts/bentoboxDapp.sol\":4844:4907  getUSDBentoTokenBalanceOf(WMATIC_ADDRESS, MATIC_USD_ORACLE, 18) */\n      tag_253\n        /* \"contracts/bentoboxDapp.sol\":617:659  0x0d500B1d8E8eF31E21C99d1Db9A6444d3ADf1270 */\n      0x0d500b1d8e8ef31e21c99d1db9a6444d3adf1270\n        /* \"contracts/bentoboxDapp.sol\":971:1013  0xAB594600376Ec9fD91F8e885dADF0CE036862dE0 */\n      0xab594600376ec9fd91f8e885dadf0ce036862de0\n        /* \"contracts/bentoboxDapp.sol\":4904:4906  18 */\n      0x12\n        /* \"contracts/bentoboxDapp.sol\":4844:4869  getUSDBentoTokenBalanceOf */\n      tag_157\n        /* \"contracts/bentoboxDapp.sol\":4844:4907  getUSDBentoTokenBalanceOf(WMATIC_ADDRESS, MATIC_USD_ORACLE, 18) */\n      jump\t// in\n    tag_253:\n        /* \"contracts/bentoboxDapp.sol\":4814:4907  uint256 WMATIC_balanceInUSD = getUSDBentoTokenBalanceOf(WMATIC_ADDRESS, MATIC_USD_ORACLE, 18) */\n      swap1\n      pop\n        /* \"contracts/bentoboxDapp.sol\":4917:4943  uint256 SUSHI_balanceInUSD */\n      0x00\n        /* \"contracts/bentoboxDapp.sol\":4946:5008  getUSDBentoTokenBalanceOf(SUSHI_ADDRESS, SUSHI_USD_ORACLE, 18) */\n      tag_254\n        /* \"contracts/bentoboxDapp.sol\":705:747  0x0b3F868E0BE5597D5DB7fEB59E1CADBb0fdDa50a */\n      0x0b3f868e0be5597d5db7feb59e1cadbb0fdda50a\n        /* \"contracts/bentoboxDapp.sol\":1240:1282  0x49B0c695039243BBfEb8EcD054EB70061fd54aa0 */\n      0x49b0c695039243bbfeb8ecd054eb70061fd54aa0\n        /* \"contracts/bentoboxDapp.sol\":5005:5007  18 */\n      0x12\n        /* \"contracts/bentoboxDapp.sol\":4946:4971  getUSDBentoTokenBalanceOf */\n      tag_157\n        /* \"contracts/bentoboxDapp.sol\":4946:5008  getUSDBentoTokenBalanceOf(SUSHI_ADDRESS, SUSHI_USD_ORACLE, 18) */\n      jump\t// in\n    tag_254:\n        /* \"contracts/bentoboxDapp.sol\":4917:5008  uint256 SUSHI_balanceInUSD = getUSDBentoTokenBalanceOf(SUSHI_ADDRESS, SUSHI_USD_ORACLE, 18) */\n      swap1\n      pop\n        /* \"contracts/bentoboxDapp.sol\":5018:5043  uint256 WETH_balanceInUSD */\n      0x00\n        /* \"contracts/bentoboxDapp.sol\":5046:5105  getUSDBentoTokenBalanceOf(WETH_ADDRESS, ETH_USD_ORACLE, 18) */\n      tag_255\n        /* \"contracts/bentoboxDapp.sol\":792:834  0x7ceB23fD6bC0adD59E62ac25578270cFf1b9f619 */\n      0x7ceb23fd6bc0add59e62ac25578270cff1b9f619\n        /* \"contracts/bentoboxDapp.sol\":1149:1191  0xF9680D99D6C9589e2a93a78A04A279e509205945 */\n      0xf9680d99d6c9589e2a93a78a04a279e509205945\n        /* \"contracts/bentoboxDapp.sol\":5102:5104  18 */\n      0x12\n        /* \"contracts/bentoboxDapp.sol\":5046:5071  getUSDBentoTokenBalanceOf */\n      tag_157\n        /* \"contracts/bentoboxDapp.sol\":5046:5105  getUSDBentoTokenBalanceOf(WETH_ADDRESS, ETH_USD_ORACLE, 18) */\n      jump\t// in\n    tag_255:\n        /* \"contracts/bentoboxDapp.sol\":5018:5105  uint256 WETH_balanceInUSD = getUSDBentoTokenBalanceOf(WETH_ADDRESS, ETH_USD_ORACLE, 18) */\n      swap1\n      pop\n        /* \"contracts/bentoboxDapp.sol\":5115:5140  uint256 WBTC_balanceInUSD */\n      0x00\n        /* \"contracts/bentoboxDapp.sol\":5143:5201  getUSDBentoTokenBalanceOf(WBTC_ADDRESS, BTC_USD_ORACLE, 8) */\n      tag_256\n        /* \"contracts/bentoboxDapp.sol\":879:921  0x1BFD67037B42Cf73acF2047067bd4F2C47D9BfD6 */\n      0x1bfd67037b42cf73acf2047067bd4f2c47d9bfd6\n        /* \"contracts/bentoboxDapp.sol\":1060:1102  0xc907E116054Ad103354f2D350FD2514433D57F6f */\n      0xc907e116054ad103354f2d350fd2514433d57f6f\n        /* \"contracts/bentoboxDapp.sol\":5199:5200  8 */\n      0x08\n        /* \"contracts/bentoboxDapp.sol\":5143:5168  getUSDBentoTokenBalanceOf */\n      tag_157\n        /* \"contracts/bentoboxDapp.sol\":5143:5201  getUSDBentoTokenBalanceOf(WBTC_ADDRESS, BTC_USD_ORACLE, 8) */\n      jump\t// in\n    tag_256:\n        /* \"contracts/bentoboxDapp.sol\":5115:5201  uint256 WBTC_balanceInUSD = getUSDBentoTokenBalanceOf(WBTC_ADDRESS, BTC_USD_ORACLE, 8) */\n      swap1\n      pop\n        /* \"contracts/bentoboxDapp.sol\":5212:5232  uint256 Total_in_USD */\n      0x00\n        /* \"contracts/bentoboxDapp.sol\":5235:5324  WMATIC_balanceInUSD.add(SUSHI_balanceInUSD).add(WETH_balanceInUSD).add(WBTC_balanceInUSD) */\n      tag_257\n        /* \"contracts/bentoboxDapp.sol\":5306:5323  WBTC_balanceInUSD */\n      dup3\n        /* \"contracts/bentoboxDapp.sol\":5235:5301  WMATIC_balanceInUSD.add(SUSHI_balanceInUSD).add(WETH_balanceInUSD) */\n      tag_258\n        /* \"contracts/bentoboxDapp.sol\":5283:5300  WETH_balanceInUSD */\n      dup6\n        /* \"contracts/bentoboxDapp.sol\":5235:5278  WMATIC_balanceInUSD.add(SUSHI_balanceInUSD) */\n      tag_259\n        /* \"contracts/bentoboxDapp.sol\":5259:5277  SUSHI_balanceInUSD */\n      dup9\n        /* \"contracts/bentoboxDapp.sol\":5235:5254  WMATIC_balanceInUSD */\n      dup11\n        /* \"contracts/bentoboxDapp.sol\":5235:5258  WMATIC_balanceInUSD.add */\n      tag_260\n      swap1\n        /* \"contracts/bentoboxDapp.sol\":5235:5278  WMATIC_balanceInUSD.add(SUSHI_balanceInUSD) */\n      swap2\n      swap1\n      0xffffffff\n      and\n      jump\t// in\n    tag_259:\n        /* \"contracts/bentoboxDapp.sol\":5235:5282  WMATIC_balanceInUSD.add(SUSHI_balanceInUSD).add */\n      tag_260\n      swap1\n        /* \"contracts/bentoboxDapp.sol\":5235:5301  WMATIC_balanceInUSD.add(SUSHI_balanceInUSD).add(WETH_balanceInUSD) */\n      swap2\n      swap1\n      0xffffffff\n      and\n      jump\t// in\n    tag_258:\n        /* \"contracts/bentoboxDapp.sol\":5235:5305  WMATIC_balanceInUSD.add(SUSHI_balanceInUSD).add(WETH_balanceInUSD).add */\n      tag_260\n      swap1\n        /* \"contracts/bentoboxDapp.sol\":5235:5324  WMATIC_balanceInUSD.add(SUSHI_balanceInUSD).add(WETH_balanceInUSD).add(WBTC_balanceInUSD) */\n      swap2\n      swap1\n      0xffffffff\n      and\n      jump\t// in\n    tag_257:\n        /* \"contracts/bentoboxDapp.sol\":5212:5324  uint256 Total_in_USD = WMATIC_balanceInUSD.add(SUSHI_balanceInUSD).add(WETH_balanceInUSD).add(WBTC_balanceInUSD) */\n      swap1\n      pop\n        /* \"contracts/bentoboxDapp.sol\":5362:5363  0 */\n      0x00\n        /* \"contracts/bentoboxDapp.sol\":5347:5359  Total_in_USD */\n      dup2\n        /* \"contracts/bentoboxDapp.sol\":5347:5363  Total_in_USD > 0 */\n      gt\n        /* \"contracts/bentoboxDapp.sol\":5343:5573  if (Total_in_USD > 0) {... */\n      iszero\n      tag_261\n      jumpi\n        /* \"contracts/bentoboxDapp.sol\":5379:5500  swapProportionately(WMATIC_balanceInUSD, SUSHI_balanceInUSD, WETH_balanceInUSD, WBTC_balanceInUSD, Total_in_USD, amount_) */\n      tag_262\n        /* \"contracts/bentoboxDapp.sol\":5399:5418  WMATIC_balanceInUSD */\n      dup6\n        /* \"contracts/bentoboxDapp.sol\":5420:5438  SUSHI_balanceInUSD */\n      dup6\n        /* \"contracts/bentoboxDapp.sol\":5440:5457  WETH_balanceInUSD */\n      dup6\n        /* \"contracts/bentoboxDapp.sol\":5459:5476  WBTC_balanceInUSD */\n      dup6\n        /* \"contracts/bentoboxDapp.sol\":5478:5490  Total_in_USD */\n      dup6\n        /* \"contracts/bentoboxDapp.sol\":5492:5499  amount_ */\n      dup16\n        /* \"contracts/bentoboxDapp.sol\":5379:5398  swapProportionately */\n      tag_139\n        /* \"contracts/bentoboxDapp.sol\":5379:5500  swapProportionately(WMATIC_balanceInUSD, SUSHI_balanceInUSD, WETH_balanceInUSD, WBTC_balanceInUSD, Total_in_USD, amount_) */\n      jump\t// in\n    tag_262:\n        /* \"contracts/bentoboxDapp.sol\":5343:5573  if (Total_in_USD > 0) {... */\n      jump(tag_263)\n    tag_261:\n        /* \"contracts/bentoboxDapp.sol\":5531:5562  swapIntoFourEqualParts(amount_) */\n      tag_264\n        /* \"contracts/bentoboxDapp.sol\":5554:5561  amount_ */\n      dup11\n        /* \"contracts/bentoboxDapp.sol\":5531:5553  swapIntoFourEqualParts */\n      tag_143\n        /* \"contracts/bentoboxDapp.sol\":5531:5562  swapIntoFourEqualParts(amount_) */\n      jump\t// in\n    tag_264:\n        /* \"contracts/bentoboxDapp.sol\":5343:5573  if (Total_in_USD > 0) {... */\n    tag_263:\n        /* \"contracts/bentoboxDapp.sol\":5591:5624  depositAllFourTokensBackToBento() */\n      tag_265\n        /* \"contracts/bentoboxDapp.sol\":5591:5622  depositAllFourTokensBackToBento */\n      tag_164\n        /* \"contracts/bentoboxDapp.sol\":5591:5624  depositAllFourTokensBackToBento() */\n      jump\t// in\n    tag_265:\n        /* \"contracts/bentoboxDapp.sol\":5654:5655  0 */\n      0x00\n        /* \"contracts/bentoboxDapp.sol\":5639:5651  Total_in_USD */\n      dup2\n        /* \"contracts/bentoboxDapp.sol\":5639:5655  Total_in_USD > 0 */\n      gt\n        /* \"contracts/bentoboxDapp.sol\":5635:5803  if (Total_in_USD > 0) {... */\n      iszero\n      tag_266\n      jumpi\n        /* \"contracts/bentoboxDapp.sol\":5671:5729  updateSharesOnDeposit(address_from, Total_in_USD, amount_) */\n      tag_267\n        /* \"contracts/bentoboxDapp.sol\":5693:5705  address_from */\n      dup9\n        /* \"contracts/bentoboxDapp.sol\":5707:5719  Total_in_USD */\n      dup3\n        /* \"contracts/bentoboxDapp.sol\":5721:5728  amount_ */\n      dup13\n        /* \"contracts/bentoboxDapp.sol\":5671:5692  updateSharesOnDeposit */\n      tag_104\n        /* \"contracts/bentoboxDapp.sol\":5671:5729  updateSharesOnDeposit(address_from, Total_in_USD, amount_) */\n      jump\t// in\n    tag_267:\n        /* \"contracts/bentoboxDapp.sol\":5635:5803  if (Total_in_USD > 0) {... */\n      jump(tag_268)\n    tag_266:\n        /* \"contracts/bentoboxDapp.sol\":5760:5792  setSharesFirstTime(address_from) */\n      tag_269\n        /* \"contracts/bentoboxDapp.sol\":5779:5791  address_from */\n      dup9\n        /* \"contracts/bentoboxDapp.sol\":5760:5778  setSharesFirstTime */\n      tag_124\n        /* \"contracts/bentoboxDapp.sol\":5760:5792  setSharesFirstTime(address_from) */\n      jump\t// in\n    tag_269:\n        /* \"contracts/bentoboxDapp.sol\":5635:5803  if (Total_in_USD > 0) {... */\n    tag_268:\n        /* \"contracts/bentoboxDapp.sol\":4155:5809  function depositUserFunds (uint256 amount_, address token_address, address address_from, address address_to) public  {... */\n      pop\n      pop\n      pop\n      pop\n      pop\n      pop\n      pop\n      pop\n      pop\n      pop\n      jump\t// out\n        /* \"contracts/bentoboxDapp.sol\":2588:2915  function getLatestPrice(address _oracle_address) public view returns (int) {... */\n    tag_77:\n        /* \"contracts/bentoboxDapp.sol\":2658:2661  int */\n      0x00\n        /* \"contracts/bentoboxDapp.sol\":2687:2701  uint80 roundID */\n      dup1\n        /* \"contracts/bentoboxDapp.sol\":2716:2725  int price */\n      0x00\n        /* \"contracts/bentoboxDapp.sol\":2739:2753  uint startedAt */\n      dup1\n        /* \"contracts/bentoboxDapp.sol\":2767:2781  uint timeStamp */\n      0x00\n        /* \"contracts/bentoboxDapp.sol\":2795:2817  uint80 answeredInRound */\n      dup1\n        /* \"contracts/bentoboxDapp.sol\":2852:2867  _oracle_address */\n      dup7\n        /* \"contracts/bentoboxDapp.sol\":2830:2884  AggregatorV3Interface(_oracle_address).latestRoundData */\n      0xffffffffffffffffffffffffffffffffffffffff\n      and\n      0xfeaf968c\n        /* \"contracts/bentoboxDapp.sol\":2830:2886  AggregatorV3Interface(_oracle_address).latestRoundData() */\n      mload(0x40)\n      dup2\n      0xffffffff\n      and\n      0xe0\n      shl\n      dup2\n      mstore\n      0x04\n      add\n      0xa0\n      mload(0x40)\n      dup1\n      dup4\n      sub\n      dup2\n      dup7\n      dup1\n      extcodesize\n      iszero\n      dup1\n      iszero\n      tag_271\n      jumpi\n      0x00\n      dup1\n      revert\n    tag_271:\n      pop\n      gas\n      staticcall\n      iszero\n      dup1\n      iszero\n      tag_273\n      jumpi\n      returndatasize\n      0x00\n      dup1\n      returndatacopy\n      revert(0x00, returndatasize)\n    tag_273:\n      pop\n      pop\n      pop\n      pop\n      mload(0x40)\n      returndatasize\n      0xa0\n      dup2\n      lt\n      iszero\n      tag_274\n      jumpi\n      0x00\n      dup1\n      revert\n    tag_274:\n      dup2\n      add\n      swap1\n      dup1\n      dup1\n      mload\n      swap1\n      0x20\n      add\n      swap1\n      swap3\n      swap2\n      swap1\n      dup1\n      mload\n      swap1\n      0x20\n      add\n      swap1\n      swap3\n      swap2\n      swap1\n      dup1\n      mload\n      swap1\n      0x20\n      add\n      swap1\n      swap3\n      swap2\n      swap1\n      dup1\n      mload\n      swap1\n      0x20\n      add\n      swap1\n      swap3\n      swap2\n      swap1\n      dup1\n      mload\n      swap1\n      0x20\n      add\n      swap1\n      swap3\n      swap2\n      swap1\n      pop\n      pop\n      pop\n        /* \"contracts/bentoboxDapp.sol\":2673:2886  (... */\n      swap5\n      pop\n      swap5\n      pop\n      swap5\n      pop\n      swap5\n      pop\n      swap5\n      pop\n        /* \"contracts/bentoboxDapp.sol\":2903:2908  price */\n      dup4\n        /* \"contracts/bentoboxDapp.sol\":2896:2908  return price */\n      swap6\n      pop\n      pop\n      pop\n      pop\n      pop\n      pop\n        /* \"contracts/bentoboxDapp.sol\":2588:2915  function getLatestPrice(address _oracle_address) public view returns (int) {... */\n      swap2\n      swap1\n      pop\n      jump\t// out\n        /* \"contracts/bentoboxDapp.sol\":11555:11999  function withdraw(uint256 amount_, address token_address, address address_from, address address_to) public  {... */\n    tag_81:\n        /* \"contracts/bentoboxDapp.sol\":11673:11686  IERC20 token_ */\n      0x00\n        /* \"contracts/bentoboxDapp.sol\":11696:11709  token_address */\n      dup4\n        /* \"contracts/bentoboxDapp.sol\":11673:11710  IERC20 token_ = IERC20(token_address) */\n      swap1\n      pop\n        /* \"contracts/bentoboxDapp.sol\":11738:11757  BentoMasterContract */\n      0x0a\n      0x00\n      swap1\n      sload\n      swap1\n      0x0100\n      exp\n      swap1\n      div\n      0xffffffffffffffffffffffffffffffffffffffff\n      and\n        /* \"contracts/bentoboxDapp.sol\":11738:11766  BentoMasterContract.withdraw */\n      0xffffffffffffffffffffffffffffffffffffffff\n      and\n      0x97da6d30\n        /* \"contracts/bentoboxDapp.sol\":11776:11782  token_ */\n      dup3\n        /* \"contracts/bentoboxDapp.sol\":11793:11805  address_from */\n      dup6\n        /* \"contracts/bentoboxDapp.sol\":11871:11881  address_to */\n      dup6\n        /* \"contracts/bentoboxDapp.sol\":11937:11944  amount_ */\n      dup10\n        /* \"contracts/bentoboxDapp.sol\":11969:11970  0 */\n      0x00\n        /* \"contracts/bentoboxDapp.sol\":11738:11992  BentoMasterContract.withdraw(... */\n      mload(0x40)\n      dup7\n      0xffffffff\n      and\n      0xe0\n      shl\n      dup2\n      mstore\n      0x04\n      add\n      dup1\n      dup7\n      0xffffffffffffffffffffffffffffffffffffffff\n      and\n      dup2\n      mstore\n      0x20\n      add\n      dup6\n      0xffffffffffffffffffffffffffffffffffffffff\n      and\n      dup2\n      mstore\n      0x20\n      add\n      dup5\n      0xffffffffffffffffffffffffffffffffffffffff\n      and\n      dup2\n      mstore\n      0x20\n      add\n      dup4\n      dup2\n      mstore\n      0x20\n      add\n      dup3\n      dup2\n      mstore\n      0x20\n      add\n      swap6\n      pop\n      pop\n      pop\n      pop\n      pop\n      pop\n      0x40\n      dup1\n      mload\n      dup1\n      dup4\n      sub\n      dup2\n      0x00\n      dup8\n      dup1\n      extcodesize\n      iszero\n      dup1\n      iszero\n      tag_276\n      jumpi\n      0x00\n      dup1\n      revert\n    tag_276:\n      pop\n      gas\n      call\n      iszero\n      dup1\n      iszero\n      tag_278\n      jumpi\n      returndatasize\n      0x00\n      dup1\n      returndatacopy\n      revert(0x00, returndatasize)\n    tag_278:\n      pop\n      pop\n      pop\n      pop\n      mload(0x40)\n      returndatasize\n      0x40\n      dup2\n      lt\n      iszero\n      tag_279\n      jumpi\n      0x00\n      dup1\n      revert\n    tag_279:\n      dup2\n      add\n      swap1\n      dup1\n      dup1\n      mload\n      swap1\n      0x20\n      add\n      swap1\n      swap3\n      swap2\n      swap1\n      dup1\n      mload\n      swap1\n      0x20\n      add\n      swap1\n      swap3\n      swap2\n      swap1\n      pop\n      pop\n      pop\n      pop\n      pop\n        /* \"contracts/bentoboxDapp.sol\":11555:11999  function withdraw(uint256 amount_, address token_address, address address_from, address address_to) public  {... */\n      pop\n      pop\n      pop\n      pop\n      pop\n      jump\t// out\n        /* \"contracts/bentoboxDapp.sol\":9505:11088  function withdrawUserFunds(address user) public {... */\n    tag_85:\n        /* \"contracts/bentoboxDapp.sol\":9602:9623  uint256 WMATIC_amount */\n      0x00\n        /* \"contracts/bentoboxDapp.sol\":9626:9731  userNumberOfShares[user].mul(BentoTokenBalanceOf(WMATIC_ADDRESS, address(this))).div(totalNumberOfShares) */\n      tag_281\n        /* \"contracts/bentoboxDapp.sol\":9711:9730  totalNumberOfShares */\n      sload(0x08)\n        /* \"contracts/bentoboxDapp.sol\":9626:9706  userNumberOfShares[user].mul(BentoTokenBalanceOf(WMATIC_ADDRESS, address(this))) */\n      tag_282\n        /* \"contracts/bentoboxDapp.sol\":9655:9705  BentoTokenBalanceOf(WMATIC_ADDRESS, address(this)) */\n      tag_283\n        /* \"contracts/bentoboxDapp.sol\":617:659  0x0d500B1d8E8eF31E21C99d1Db9A6444d3ADf1270 */\n      0x0d500b1d8e8ef31e21c99d1db9a6444d3adf1270\n        /* \"contracts/bentoboxDapp.sol\":9699:9703  this */\n      address\n        /* \"contracts/bentoboxDapp.sol\":9655:9674  BentoTokenBalanceOf */\n      tag_223\n        /* \"contracts/bentoboxDapp.sol\":9655:9705  BentoTokenBalanceOf(WMATIC_ADDRESS, address(this)) */\n      jump\t// in\n    tag_283:\n        /* \"contracts/bentoboxDapp.sol\":9626:9644  userNumberOfShares */\n      0x09\n        /* \"contracts/bentoboxDapp.sol\":9626:9650  userNumberOfShares[user] */\n      0x00\n        /* \"contracts/bentoboxDapp.sol\":9645:9649  user */\n      dup8\n        /* \"contracts/bentoboxDapp.sol\":9626:9650  userNumberOfShares[user] */\n      0xffffffffffffffffffffffffffffffffffffffff\n      and\n      0xffffffffffffffffffffffffffffffffffffffff\n      and\n      dup2\n      mstore\n      0x20\n      add\n      swap1\n      dup2\n      mstore\n      0x20\n      add\n      0x00\n      keccak256\n      sload\n        /* \"contracts/bentoboxDapp.sol\":9626:9654  userNumberOfShares[user].mul */\n      tag_284\n      swap1\n        /* \"contracts/bentoboxDapp.sol\":9626:9706  userNumberOfShares[user].mul(BentoTokenBalanceOf(WMATIC_ADDRESS, address(this))) */\n      swap2\n      swap1\n      0xffffffff\n      and\n      jump\t// in\n    tag_282:\n        /* \"contracts/bentoboxDapp.sol\":9626:9710  userNumberOfShares[user].mul(BentoTokenBalanceOf(WMATIC_ADDRESS, address(this))).div */\n      tag_285\n      swap1\n        /* \"contracts/bentoboxDapp.sol\":9626:9731  userNumberOfShares[user].mul(BentoTokenBalanceOf(WMATIC_ADDRESS, address(this))).div(totalNumberOfShares) */\n      swap2\n      swap1\n      0xffffffff\n      and\n      jump\t// in\n    tag_281:\n        /* \"contracts/bentoboxDapp.sol\":9602:9731  uint256 WMATIC_amount = userNumberOfShares[user].mul(BentoTokenBalanceOf(WMATIC_ADDRESS, address(this))).div(totalNumberOfShares) */\n      swap1\n      pop\n        /* \"contracts/bentoboxDapp.sol\":9741:9761  uint256 SUSHI_amount */\n      0x00\n        /* \"contracts/bentoboxDapp.sol\":9764:9868  userNumberOfShares[user].mul(BentoTokenBalanceOf(SUSHI_ADDRESS, address(this))).div(totalNumberOfShares) */\n      tag_286\n        /* \"contracts/bentoboxDapp.sol\":9848:9867  totalNumberOfShares */\n      sload(0x08)\n        /* \"contracts/bentoboxDapp.sol\":9764:9843  userNumberOfShares[user].mul(BentoTokenBalanceOf(SUSHI_ADDRESS, address(this))) */\n      tag_287\n        /* \"contracts/bentoboxDapp.sol\":9793:9842  BentoTokenBalanceOf(SUSHI_ADDRESS, address(this)) */\n      tag_288\n        /* \"contracts/bentoboxDapp.sol\":705:747  0x0b3F868E0BE5597D5DB7fEB59E1CADBb0fdDa50a */\n      0x0b3f868e0be5597d5db7feb59e1cadbb0fdda50a\n        /* \"contracts/bentoboxDapp.sol\":9836:9840  this */\n      address\n        /* \"contracts/bentoboxDapp.sol\":9793:9812  BentoTokenBalanceOf */\n      tag_223\n        /* \"contracts/bentoboxDapp.sol\":9793:9842  BentoTokenBalanceOf(SUSHI_ADDRESS, address(this)) */\n      jump\t// in\n    tag_288:\n        /* \"contracts/bentoboxDapp.sol\":9764:9782  userNumberOfShares */\n      0x09\n        /* \"contracts/bentoboxDapp.sol\":9764:9788  userNumberOfShares[user] */\n      0x00\n        /* \"contracts/bentoboxDapp.sol\":9783:9787  user */\n      dup9\n        /* \"contracts/bentoboxDapp.sol\":9764:9788  userNumberOfShares[user] */\n      0xffffffffffffffffffffffffffffffffffffffff\n      and\n      0xffffffffffffffffffffffffffffffffffffffff\n      and\n      dup2\n      mstore\n      0x20\n      add\n      swap1\n      dup2\n      mstore\n      0x20\n      add\n      0x00\n      keccak256\n      sload\n        /* \"contracts/bentoboxDapp.sol\":9764:9792  userNumberOfShares[user].mul */\n      tag_284\n      swap1\n        /* \"contracts/bentoboxDapp.sol\":9764:9843  userNumberOfShares[user].mul(BentoTokenBalanceOf(SUSHI_ADDRESS, address(this))) */\n      swap2\n      swap1\n      0xffffffff\n      and\n      jump\t// in\n    tag_287:\n        /* \"contracts/bentoboxDapp.sol\":9764:9847  userNumberOfShares[user].mul(BentoTokenBalanceOf(SUSHI_ADDRESS, address(this))).div */\n      tag_285\n      swap1\n        /* \"contracts/bentoboxDapp.sol\":9764:9868  userNumberOfShares[user].mul(BentoTokenBalanceOf(SUSHI_ADDRESS, address(this))).div(totalNumberOfShares) */\n      swap2\n      swap1\n      0xffffffff\n      and\n      jump\t// in\n    tag_286:\n        /* \"contracts/bentoboxDapp.sol\":9741:9868  uint256 SUSHI_amount = userNumberOfShares[user].mul(BentoTokenBalanceOf(SUSHI_ADDRESS, address(this))).div(totalNumberOfShares) */\n      swap1\n      pop\n        /* \"contracts/bentoboxDapp.sol\":9878:9897  uint256 WETH_amount */\n      0x00\n        /* \"contracts/bentoboxDapp.sol\":9900:10003  userNumberOfShares[user].mul(BentoTokenBalanceOf(WETH_ADDRESS, address(this))).div(totalNumberOfShares) */\n      tag_289\n        /* \"contracts/bentoboxDapp.sol\":9983:10002  totalNumberOfShares */\n      sload(0x08)\n        /* \"contracts/bentoboxDapp.sol\":9900:9978  userNumberOfShares[user].mul(BentoTokenBalanceOf(WETH_ADDRESS, address(this))) */\n      tag_290\n        /* \"contracts/bentoboxDapp.sol\":9929:9977  BentoTokenBalanceOf(WETH_ADDRESS, address(this)) */\n      tag_291\n        /* \"contracts/bentoboxDapp.sol\":792:834  0x7ceB23fD6bC0adD59E62ac25578270cFf1b9f619 */\n      0x7ceb23fd6bc0add59e62ac25578270cff1b9f619\n        /* \"contracts/bentoboxDapp.sol\":9971:9975  this */\n      address\n        /* \"contracts/bentoboxDapp.sol\":9929:9948  BentoTokenBalanceOf */\n      tag_223\n        /* \"contracts/bentoboxDapp.sol\":9929:9977  BentoTokenBalanceOf(WETH_ADDRESS, address(this)) */\n      jump\t// in\n    tag_291:\n        /* \"contracts/bentoboxDapp.sol\":9900:9918  userNumberOfShares */\n      0x09\n        /* \"contracts/bentoboxDapp.sol\":9900:9924  userNumberOfShares[user] */\n      0x00\n        /* \"contracts/bentoboxDapp.sol\":9919:9923  user */\n      dup10\n        /* \"contracts/bentoboxDapp.sol\":9900:9924  userNumberOfShares[user] */\n      0xffffffffffffffffffffffffffffffffffffffff\n      and\n      0xffffffffffffffffffffffffffffffffffffffff\n      and\n      dup2\n      mstore\n      0x20\n      add\n      swap1\n      dup2\n      mstore\n      0x20\n      add\n      0x00\n      keccak256\n      sload\n        /* \"contracts/bentoboxDapp.sol\":9900:9928  userNumberOfShares[user].mul */\n      tag_284\n      swap1\n        /* \"contracts/bentoboxDapp.sol\":9900:9978  userNumberOfShares[user].mul(BentoTokenBalanceOf(WETH_ADDRESS, address(this))) */\n      swap2\n      swap1\n      0xffffffff\n      and\n      jump\t// in\n    tag_290:\n        /* \"contracts/bentoboxDapp.sol\":9900:9982  userNumberOfShares[user].mul(BentoTokenBalanceOf(WETH_ADDRESS, address(this))).div */\n      tag_285\n      swap1\n        /* \"contracts/bentoboxDapp.sol\":9900:10003  userNumberOfShares[user].mul(BentoTokenBalanceOf(WETH_ADDRESS, address(this))).div(totalNumberOfShares) */\n      swap2\n      swap1\n      0xffffffff\n      and\n      jump\t// in\n    tag_289:\n        /* \"contracts/bentoboxDapp.sol\":9878:10003  uint256 WETH_amount = userNumberOfShares[user].mul(BentoTokenBalanceOf(WETH_ADDRESS, address(this))).div(totalNumberOfShares) */\n      swap1\n      pop\n        /* \"contracts/bentoboxDapp.sol\":10013:10032  uint256 WBTC_amount */\n      0x00\n        /* \"contracts/bentoboxDapp.sol\":10035:10138  userNumberOfShares[user].mul(BentoTokenBalanceOf(WBTC_ADDRESS, address(this))).div(totalNumberOfShares) */\n      tag_292\n        /* \"contracts/bentoboxDapp.sol\":10118:10137  totalNumberOfShares */\n      sload(0x08)\n        /* \"contracts/bentoboxDapp.sol\":10035:10113  userNumberOfShares[user].mul(BentoTokenBalanceOf(WBTC_ADDRESS, address(this))) */\n      tag_293\n        /* \"contracts/bentoboxDapp.sol\":10064:10112  BentoTokenBalanceOf(WBTC_ADDRESS, address(this)) */\n      tag_294\n        /* \"contracts/bentoboxDapp.sol\":879:921  0x1BFD67037B42Cf73acF2047067bd4F2C47D9BfD6 */\n      0x1bfd67037b42cf73acf2047067bd4f2c47d9bfd6\n        /* \"contracts/bentoboxDapp.sol\":10106:10110  this */\n      address\n        /* \"contracts/bentoboxDapp.sol\":10064:10083  BentoTokenBalanceOf */\n      tag_223\n        /* \"contracts/bentoboxDapp.sol\":10064:10112  BentoTokenBalanceOf(WBTC_ADDRESS, address(this)) */\n      jump\t// in\n    tag_294:\n        /* \"contracts/bentoboxDapp.sol\":10035:10053  userNumberOfShares */\n      0x09\n        /* \"contracts/bentoboxDapp.sol\":10035:10059  userNumberOfShares[user] */\n      0x00\n        /* \"contracts/bentoboxDapp.sol\":10054:10058  user */\n      dup11\n        /* \"contracts/bentoboxDapp.sol\":10035:10059  userNumberOfShares[user] */\n      0xffffffffffffffffffffffffffffffffffffffff\n      and\n      0xffffffffffffffffffffffffffffffffffffffff\n      and\n      dup2\n      mstore\n      0x20\n      add\n      swap1\n      dup2\n      mstore\n      0x20\n      add\n      0x00\n      keccak256\n      sload\n        /* \"contracts/bentoboxDapp.sol\":10035:10063  userNumberOfShares[user].mul */\n      tag_284\n      swap1\n        /* \"contracts/bentoboxDapp.sol\":10035:10113  userNumberOfShares[user].mul(BentoTokenBalanceOf(WBTC_ADDRESS, address(this))) */\n      swap2\n      swap1\n      0xffffffff\n      and\n      jump\t// in\n    tag_293:\n        /* \"contracts/bentoboxDapp.sol\":10035:10117  userNumberOfShares[user].mul(BentoTokenBalanceOf(WBTC_ADDRESS, address(this))).div */\n      tag_285\n      swap1\n        /* \"contracts/bentoboxDapp.sol\":10035:10138  userNumberOfShares[user].mul(BentoTokenBalanceOf(WBTC_ADDRESS, address(this))).div(totalNumberOfShares) */\n      swap2\n      swap1\n      0xffffffff\n      and\n      jump\t// in\n    tag_292:\n        /* \"contracts/bentoboxDapp.sol\":10013:10138  uint256 WBTC_amount = userNumberOfShares[user].mul(BentoTokenBalanceOf(WBTC_ADDRESS, address(this))).div(totalNumberOfShares) */\n      swap1\n      pop\n        /* \"contracts/bentoboxDapp.sol\":10149:10234  withdrawAllFourTokensFromBento(WMATIC_amount, SUSHI_amount, WETH_amount, WBTC_amount) */\n      tag_295\n        /* \"contracts/bentoboxDapp.sol\":10180:10193  WMATIC_amount */\n      dup5\n        /* \"contracts/bentoboxDapp.sol\":10195:10207  SUSHI_amount */\n      dup5\n        /* \"contracts/bentoboxDapp.sol\":10209:10220  WETH_amount */\n      dup5\n        /* \"contracts/bentoboxDapp.sol\":10222:10233  WBTC_amount */\n      dup5\n        /* \"contracts/bentoboxDapp.sol\":10149:10179  withdrawAllFourTokensFromBento */\n      tag_112\n        /* \"contracts/bentoboxDapp.sol\":10149:10234  withdrawAllFourTokensFromBento(WMATIC_amount, SUSHI_amount, WETH_amount, WBTC_amount) */\n      jump\t// in\n    tag_295:\n        /* \"contracts/bentoboxDapp.sol\":10245:10306  approveSpendingWholeBalance(WMATIC_ADDRESS, SUSHISWAP_ROUTER) */\n      tag_296\n        /* \"contracts/bentoboxDapp.sol\":617:659  0x0d500B1d8E8eF31E21C99d1Db9A6444d3ADf1270 */\n      0x0d500b1d8e8ef31e21c99d1db9a6444d3adf1270\n        /* \"contracts/bentoboxDapp.sol\":1890:1932  0x1b02dA8Cb0d097eB8D57A175b88c7D8b47997506 */\n      0x1b02da8cb0d097eb8d57a175b88c7d8b47997506\n        /* \"contracts/bentoboxDapp.sol\":10245:10272  approveSpendingWholeBalance */\n      tag_172\n        /* \"contracts/bentoboxDapp.sol\":10245:10306  approveSpendingWholeBalance(WMATIC_ADDRESS, SUSHISWAP_ROUTER) */\n      jump\t// in\n    tag_296:\n        /* \"contracts/bentoboxDapp.sol\":10316:10376  approveSpendingWholeBalance(SUSHI_ADDRESS, SUSHISWAP_ROUTER) */\n      tag_297\n        /* \"contracts/bentoboxDapp.sol\":705:747  0x0b3F868E0BE5597D5DB7fEB59E1CADBb0fdDa50a */\n      0x0b3f868e0be5597d5db7feb59e1cadbb0fdda50a\n        /* \"contracts/bentoboxDapp.sol\":1890:1932  0x1b02dA8Cb0d097eB8D57A175b88c7D8b47997506 */\n      0x1b02da8cb0d097eb8d57a175b88c7d8b47997506\n        /* \"contracts/bentoboxDapp.sol\":10316:10343  approveSpendingWholeBalance */\n      tag_172\n        /* \"contracts/bentoboxDapp.sol\":10316:10376  approveSpendingWholeBalance(SUSHI_ADDRESS, SUSHISWAP_ROUTER) */\n      jump\t// in\n    tag_297:\n        /* \"contracts/bentoboxDapp.sol\":10386:10445  approveSpendingWholeBalance(WETH_ADDRESS, SUSHISWAP_ROUTER) */\n      tag_298\n        /* \"contracts/bentoboxDapp.sol\":792:834  0x7ceB23fD6bC0adD59E62ac25578270cFf1b9f619 */\n      0x7ceb23fd6bc0add59e62ac25578270cff1b9f619\n        /* \"contracts/bentoboxDapp.sol\":1890:1932  0x1b02dA8Cb0d097eB8D57A175b88c7D8b47997506 */\n      0x1b02da8cb0d097eb8d57a175b88c7d8b47997506\n        /* \"contracts/bentoboxDapp.sol\":10386:10413  approveSpendingWholeBalance */\n      tag_172\n        /* \"contracts/bentoboxDapp.sol\":10386:10445  approveSpendingWholeBalance(WETH_ADDRESS, SUSHISWAP_ROUTER) */\n      jump\t// in\n    tag_298:\n        /* \"contracts/bentoboxDapp.sol\":10455:10514  approveSpendingWholeBalance(WBTC_ADDRESS, SUSHISWAP_ROUTER) */\n      tag_299\n        /* \"contracts/bentoboxDapp.sol\":879:921  0x1BFD67037B42Cf73acF2047067bd4F2C47D9BfD6 */\n      0x1bfd67037b42cf73acf2047067bd4f2c47d9bfd6\n        /* \"contracts/bentoboxDapp.sol\":1890:1932  0x1b02dA8Cb0d097eB8D57A175b88c7D8b47997506 */\n      0x1b02da8cb0d097eb8d57a175b88c7d8b47997506\n        /* \"contracts/bentoboxDapp.sol\":10455:10482  approveSpendingWholeBalance */\n      tag_172\n        /* \"contracts/bentoboxDapp.sol\":10455:10514  approveSpendingWholeBalance(WBTC_ADDRESS, SUSHISWAP_ROUTER) */\n      jump\t// in\n    tag_299:\n        /* \"contracts/bentoboxDapp.sol\":10525:10567  swapWholeBalanceBackToUSDC(WMATIC_ADDRESS) */\n      tag_300\n        /* \"contracts/bentoboxDapp.sol\":617:659  0x0d500B1d8E8eF31E21C99d1Db9A6444d3ADf1270 */\n      0x0d500b1d8e8ef31e21c99d1db9a6444d3adf1270\n        /* \"contracts/bentoboxDapp.sol\":10525:10551  swapWholeBalanceBackToUSDC */\n      tag_120\n        /* \"contracts/bentoboxDapp.sol\":10525:10567  swapWholeBalanceBackToUSDC(WMATIC_ADDRESS) */\n      jump\t// in\n    tag_300:\n        /* \"contracts/bentoboxDapp.sol\":10577:10618  swapWholeBalanceBackToUSDC(SUSHI_ADDRESS) */\n      tag_301\n        /* \"contracts/bentoboxDapp.sol\":705:747  0x0b3F868E0BE5597D5DB7fEB59E1CADBb0fdDa50a */\n      0x0b3f868e0be5597d5db7feb59e1cadbb0fdda50a\n        /* \"contracts/bentoboxDapp.sol\":10577:10603  swapWholeBalanceBackToUSDC */\n      tag_120\n        /* \"contracts/bentoboxDapp.sol\":10577:10618  swapWholeBalanceBackToUSDC(SUSHI_ADDRESS) */\n      jump\t// in\n    tag_301:\n        /* \"contracts/bentoboxDapp.sol\":10628:10668  swapWholeBalanceBackToUSDC(WETH_ADDRESS) */\n      tag_302\n        /* \"contracts/bentoboxDapp.sol\":792:834  0x7ceB23fD6bC0adD59E62ac25578270cFf1b9f619 */\n      0x7ceb23fd6bc0add59e62ac25578270cff1b9f619\n        /* \"contracts/bentoboxDapp.sol\":10628:10654  swapWholeBalanceBackToUSDC */\n      tag_120\n        /* \"contracts/bentoboxDapp.sol\":10628:10668  swapWholeBalanceBackToUSDC(WETH_ADDRESS) */\n      jump\t// in\n    tag_302:\n        /* \"contracts/bentoboxDapp.sol\":10678:10718  swapWholeBalanceBackToUSDC(WBTC_ADDRESS) */\n      tag_303\n        /* \"contracts/bentoboxDapp.sol\":879:921  0x1BFD67037B42Cf73acF2047067bd4F2C47D9BfD6 */\n      0x1bfd67037b42cf73acf2047067bd4f2c47d9bfd6\n        /* \"contracts/bentoboxDapp.sol\":10678:10704  swapWholeBalanceBackToUSDC */\n      tag_120\n        /* \"contracts/bentoboxDapp.sol\":10678:10718  swapWholeBalanceBackToUSDC(WBTC_ADDRESS) */\n      jump\t// in\n    tag_303:\n        /* \"contracts/bentoboxDapp.sol\":10729:10804  approveSpendingWholeBalance(USDC_ADDRESS, BENTOBOX_MASTER_CONTRACT_ADDRESS) */\n      tag_304\n        /* \"contracts/bentoboxDapp.sol\":523:565  0x2791Bca1f2de4661ED88A30C99A7a9449Aa84174 */\n      0x2791bca1f2de4661ed88a30c99a7a9449aa84174\n        /* \"contracts/bentoboxDapp.sol\":435:477  0x0319000133d3AdA02600f0875d2cf03D442C3367 */\n      0x0319000133d3ada02600f0875d2cf03d442c3367\n        /* \"contracts/bentoboxDapp.sol\":10729:10756  approveSpendingWholeBalance */\n      tag_172\n        /* \"contracts/bentoboxDapp.sol\":10729:10804  approveSpendingWholeBalance(USDC_ADDRESS, BENTOBOX_MASTER_CONTRACT_ADDRESS) */\n      jump\t// in\n    tag_304:\n        /* \"contracts/bentoboxDapp.sol\":10823:10893  depositTokenBalanceToBento(USDC_ADDRESS, address(this), address(this)) */\n      tag_305\n        /* \"contracts/bentoboxDapp.sol\":523:565  0x2791Bca1f2de4661ED88A30C99A7a9449Aa84174 */\n      0x2791bca1f2de4661ed88a30c99a7a9449aa84174\n        /* \"contracts/bentoboxDapp.sol\":10872:10876  this */\n      address\n        /* \"contracts/bentoboxDapp.sol\":10887:10891  this */\n      address\n        /* \"contracts/bentoboxDapp.sol\":10823:10849  depositTokenBalanceToBento */\n      tag_69\n        /* \"contracts/bentoboxDapp.sol\":10823:10893  depositTokenBalanceToBento(USDC_ADDRESS, address(this), address(this)) */\n      jump\t// in\n    tag_305:\n        /* \"contracts/bentoboxDapp.sol\":10904:10923  uint256 USDC_amount */\n      0x00\n        /* \"contracts/bentoboxDapp.sol\":10926:10974  BentoTokenBalanceOf(USDC_ADDRESS, address(this)) */\n      tag_306\n        /* \"contracts/bentoboxDapp.sol\":523:565  0x2791Bca1f2de4661ED88A30C99A7a9449Aa84174 */\n      0x2791bca1f2de4661ed88a30c99a7a9449aa84174\n        /* \"contracts/bentoboxDapp.sol\":10968:10972  this */\n      address\n        /* \"contracts/bentoboxDapp.sol\":10926:10945  BentoTokenBalanceOf */\n      tag_223\n        /* \"contracts/bentoboxDapp.sol\":10926:10974  BentoTokenBalanceOf(USDC_ADDRESS, address(this)) */\n      jump\t// in\n    tag_306:\n        /* \"contracts/bentoboxDapp.sol\":10904:10974  uint256 USDC_amount = BentoTokenBalanceOf(USDC_ADDRESS, address(this)) */\n      swap1\n      pop\n        /* \"contracts/bentoboxDapp.sol\":10984:11040  withdraw(USDC_amount, USDC_ADDRESS, address(this), user) */\n      tag_307\n        /* \"contracts/bentoboxDapp.sol\":10993:11004  USDC_amount */\n      dup2\n        /* \"contracts/bentoboxDapp.sol\":523:565  0x2791Bca1f2de4661ED88A30C99A7a9449Aa84174 */\n      0x2791bca1f2de4661ed88a30c99a7a9449aa84174\n        /* \"contracts/bentoboxDapp.sol\":11028:11032  this */\n      address\n        /* \"contracts/bentoboxDapp.sol\":11035:11039  user */\n      dup10\n        /* \"contracts/bentoboxDapp.sol\":10984:10992  withdraw */\n      tag_81\n        /* \"contracts/bentoboxDapp.sol\":10984:11040  withdraw(USDC_amount, USDC_ADDRESS, address(this), user) */\n      jump\t// in\n    tag_307:\n        /* \"contracts/bentoboxDapp.sol\":11051:11081  updateSharesOnWithdrawal(user) */\n      tag_308\n        /* \"contracts/bentoboxDapp.sol\":11076:11080  user */\n      dup7\n        /* \"contracts/bentoboxDapp.sol\":11051:11075  updateSharesOnWithdrawal */\n      tag_116\n        /* \"contracts/bentoboxDapp.sol\":11051:11081  updateSharesOnWithdrawal(user) */\n      jump\t// in\n    tag_308:\n        /* \"contracts/bentoboxDapp.sol\":9505:11088  function withdrawUserFunds(address user) public {... */\n      pop\n      pop\n      pop\n      pop\n      pop\n      pop\n      jump\t// out\n        /* \"contracts/bentoboxDapp.sol\":1847:1932  address public constant SUSHISWAP_ROUTER = 0x1b02dA8Cb0d097eB8D57A175b88c7D8b47997506 */\n    tag_88:\n        /* \"contracts/bentoboxDapp.sol\":1890:1932  0x1b02dA8Cb0d097eB8D57A175b88c7D8b47997506 */\n      0x1b02da8cb0d097eb8d57a175b88c7d8b47997506\n        /* \"contracts/bentoboxDapp.sol\":1847:1932  address public constant SUSHISWAP_ROUTER = 0x1b02dA8Cb0d097eB8D57A175b88c7D8b47997506 */\n      dup2\n      jump\t// out\n        /* \"contracts/bentoboxDapp.sol\":3359:3554  function approve_spending (address token_address, address spender_address, uint256 amount_to_approve) public {... */\n    tag_92:\n        /* \"contracts/bentoboxDapp.sol\":3489:3502  token_address */\n      dup3\n        /* \"contracts/bentoboxDapp.sol\":3482:3511  IERC20(token_address).approve */\n      0xffffffffffffffffffffffffffffffffffffffff\n      and\n      0x095ea7b3\n        /* \"contracts/bentoboxDapp.sol\":3512:3527  spender_address */\n      dup4\n        /* \"contracts/bentoboxDapp.sol\":3529:3546  amount_to_approve */\n      dup4\n        /* \"contracts/bentoboxDapp.sol\":3482:3547  IERC20(token_address).approve(spender_address, amount_to_approve) */\n      mload(0x40)\n      dup4\n      0xffffffff\n      and\n      0xe0\n      shl\n      dup2\n      mstore\n      0x04\n      add\n      dup1\n      dup4\n      0xffffffffffffffffffffffffffffffffffffffff\n      and\n      dup2\n      mstore\n      0x20\n      add\n      dup3\n      dup2\n      mstore\n      0x20\n      add\n      swap3\n      pop\n      pop\n      pop\n      0x20\n      mload(0x40)\n      dup1\n      dup4\n      sub\n      dup2\n      0x00\n      dup8\n      dup1\n      extcodesize\n      iszero\n      dup1\n      iszero\n      tag_310\n      jumpi\n      0x00\n      dup1\n      revert\n    tag_310:\n      pop\n      gas\n      call\n      iszero\n      dup1\n      iszero\n      tag_312\n      jumpi\n      returndatasize\n      0x00\n      dup1\n      returndatacopy\n      revert(0x00, returndatasize)\n    tag_312:\n      pop\n      pop\n      pop\n      pop\n      mload(0x40)\n      returndatasize\n      0x20\n      dup2\n      lt\n      iszero\n      tag_313\n      jumpi\n      0x00\n      dup1\n      revert\n    tag_313:\n      dup2\n      add\n      swap1\n      dup1\n      dup1\n      mload\n      swap1\n      0x20\n      add\n      swap1\n      swap3\n      swap2\n      swap1\n      pop\n      pop\n      pop\n      pop\n        /* \"contracts/bentoboxDapp.sol\":3359:3554  function approve_spending (address token_address, address spender_address, uint256 amount_to_approve) public {... */\n      pop\n      pop\n      pop\n      jump\t// out\n        /* \"contracts/bentoboxDapp.sol\":3605:4149  function depositToBento (uint256 amount_, address token_address, address address_from, address address_to) public  {... */\n    tag_96:\n        /* \"contracts/bentoboxDapp.sol\":3734:3747  IERC20 token_ */\n      0x00\n        /* \"contracts/bentoboxDapp.sol\":3757:3770  token_address */\n      dup4\n        /* \"contracts/bentoboxDapp.sol\":3734:3771  IERC20 token_ = IERC20(token_address) */\n      swap1\n      pop\n        /* \"contracts/bentoboxDapp.sol\":3786:3805  BentoMasterContract */\n      0x0a\n      0x00\n      swap1\n      sload\n      swap1\n      0x0100\n      exp\n      swap1\n      div\n      0xffffffffffffffffffffffffffffffffffffffff\n      and\n        /* \"contracts/bentoboxDapp.sol\":3786:3813  BentoMasterContract.deposit */\n      0xffffffffffffffffffffffffffffffffffffffff\n      and\n      0x02b9446c\n        /* \"contracts/bentoboxDapp.sol\":3827:3833  token_ */\n      dup3\n        /* \"contracts/bentoboxDapp.sol\":3950:3962  address_from */\n      dup6\n        /* \"contracts/bentoboxDapp.sol\":4013:4023  address_to */\n      dup6\n        /* \"contracts/bentoboxDapp.sol\":4071:4078  amount_ */\n      dup10\n        /* \"contracts/bentoboxDapp.sol\":4102:4103  0 */\n      0x00\n        /* \"contracts/bentoboxDapp.sol\":3786:4142  BentoMasterContract.deposit(... */\n      mload(0x40)\n      dup7\n      0xffffffff\n      and\n      0xe0\n      shl\n      dup2\n      mstore\n      0x04\n      add\n      dup1\n      dup7\n      0xffffffffffffffffffffffffffffffffffffffff\n      and\n      dup2\n      mstore\n      0x20\n      add\n      dup6\n      0xffffffffffffffffffffffffffffffffffffffff\n      and\n      dup2\n      mstore\n      0x20\n      add\n      dup5\n      0xffffffffffffffffffffffffffffffffffffffff\n      and\n      dup2\n      mstore\n      0x20\n      add\n      dup4\n      dup2\n      mstore\n      0x20\n      add\n      dup3\n      dup2\n      mstore\n      0x20\n      add\n      swap6\n      pop\n      pop\n      pop\n      pop\n      pop\n      pop\n      0x40\n      dup1\n      mload\n      dup1\n      dup4\n      sub\n      dup2\n      0x00\n      dup8\n      dup1\n      extcodesize\n      iszero\n      dup1\n      iszero\n      tag_315\n      jumpi\n      0x00\n      dup1\n      revert\n    tag_315:\n      pop\n      gas\n      call\n      iszero\n      dup1\n      iszero\n      tag_317\n      jumpi\n      returndatasize\n      0x00\n      dup1\n      returndatacopy\n      revert(0x00, returndatasize)\n    tag_317:\n      pop\n      pop\n      pop\n      pop\n      mload(0x40)\n      returndatasize\n      0x40\n      dup2\n      lt\n      iszero\n      tag_318\n      jumpi\n      0x00\n      dup1\n      revert\n    tag_318:\n      dup2\n      add\n      swap1\n      dup1\n      dup1\n      mload\n      swap1\n      0x20\n      add\n      swap1\n      swap3\n      swap2\n      swap1\n      dup1\n      mload\n      swap1\n      0x20\n      add\n      swap1\n      swap3\n      swap2\n      swap1\n      pop\n      pop\n      pop\n      pop\n      pop\n        /* \"contracts/bentoboxDapp.sol\":3605:4149  function depositToBento (uint256 amount_, address token_address, address address_from, address address_to) public  {... */\n      pop\n      pop\n      pop\n      pop\n      pop\n      jump\t// out\n        /* \"contracts/bentoboxDapp.sol\":1640:1704  address[] public SUSHIToUSDCPath = [SUSHI_ADDRESS, USDC_ADDRESS] */\n    tag_100:\n      0x05\n      dup2\n      dup2\n      sload\n      dup2\n      lt\n      tag_319\n      jumpi\n      invalid\n    tag_319:\n      swap1\n      0x00\n      mstore\n      keccak256(0x00, 0x20)\n      add\n      0x00\n      swap2\n      pop\n      sload\n      swap1\n      0x0100\n      exp\n      swap1\n      div\n      0xffffffffffffffffffffffffffffffffffffffff\n      and\n      dup2\n      jump\t// out\n        /* \"contracts/bentoboxDapp.sol\":8407:8954  function updateSharesOnDeposit(address user, uint256 total_in_USD, uint256 deposit_amount) public { //make this ownable - only contract itself can update this?... */\n    tag_104:\n        /* \"contracts/bentoboxDapp.sol\":8575:8599  uint256 newSharesForUser */\n      0x00\n        /* \"contracts/bentoboxDapp.sol\":8602:8659  deposit_amount.mul(totalNumberOfShares).div(total_in_USD) */\n      tag_322\n        /* \"contracts/bentoboxDapp.sol\":8646:8658  total_in_USD */\n      dup4\n        /* \"contracts/bentoboxDapp.sol\":8602:8641  deposit_amount.mul(totalNumberOfShares) */\n      tag_323\n        /* \"contracts/bentoboxDapp.sol\":8621:8640  totalNumberOfShares */\n      sload(0x08)\n        /* \"contracts/bentoboxDapp.sol\":8602:8616  deposit_amount */\n      dup6\n        /* \"contracts/bentoboxDapp.sol\":8602:8620  deposit_amount.mul */\n      tag_284\n      swap1\n        /* \"contracts/bentoboxDapp.sol\":8602:8641  deposit_amount.mul(totalNumberOfShares) */\n      swap2\n      swap1\n      0xffffffff\n      and\n      jump\t// in\n    tag_323:\n        /* \"contracts/bentoboxDapp.sol\":8602:8645  deposit_amount.mul(totalNumberOfShares).div */\n      tag_285\n      swap1\n        /* \"contracts/bentoboxDapp.sol\":8602:8659  deposit_amount.mul(totalNumberOfShares).div(total_in_USD) */\n      swap2\n      swap1\n      0xffffffff\n      and\n      jump\t// in\n    tag_322:\n        /* \"contracts/bentoboxDapp.sol\":8575:8659  uint256 newSharesForUser = deposit_amount.mul(totalNumberOfShares).div(total_in_USD) */\n      swap1\n      pop\n        /* \"contracts/bentoboxDapp.sol\":8691:8732  totalNumberOfShares.add(newSharesForUser) */\n      tag_324\n        /* \"contracts/bentoboxDapp.sol\":8715:8731  newSharesForUser */\n      dup2\n        /* \"contracts/bentoboxDapp.sol\":8691:8710  totalNumberOfShares */\n      sload(0x08)\n        /* \"contracts/bentoboxDapp.sol\":8691:8714  totalNumberOfShares.add */\n      tag_260\n      swap1\n        /* \"contracts/bentoboxDapp.sol\":8691:8732  totalNumberOfShares.add(newSharesForUser) */\n      swap2\n      swap1\n      0xffffffff\n      and\n      jump\t// in\n    tag_324:\n        /* \"contracts/bentoboxDapp.sol\":8669:8688  totalNumberOfShares */\n      0x08\n        /* \"contracts/bentoboxDapp.sol\":8669:8732  totalNumberOfShares = totalNumberOfShares.add(newSharesForUser) */\n      dup2\n      swap1\n      sstore\n      pop\n        /* \"contracts/bentoboxDapp.sol\":8773:8774  0 */\n      0x00\n        /* \"contracts/bentoboxDapp.sol\":8746:8764  userNumberOfShares */\n      0x09\n        /* \"contracts/bentoboxDapp.sol\":8746:8770  userNumberOfShares[user] */\n      0x00\n        /* \"contracts/bentoboxDapp.sol\":8765:8769  user */\n      dup7\n        /* \"contracts/bentoboxDapp.sol\":8746:8770  userNumberOfShares[user] */\n      0xffffffffffffffffffffffffffffffffffffffff\n      and\n      0xffffffffffffffffffffffffffffffffffffffff\n      and\n      dup2\n      mstore\n      0x20\n      add\n      swap1\n      dup2\n      mstore\n      0x20\n      add\n      0x00\n      keccak256\n      sload\n        /* \"contracts/bentoboxDapp.sol\":8746:8774  userNumberOfShares[user] > 0 */\n      gt\n        /* \"contracts/bentoboxDapp.sol\":8742:8948  if (userNumberOfShares[user] > 0) {... */\n      iszero\n      tag_325\n      jumpi\n        /* \"contracts/bentoboxDapp.sol\":8817:8863  userNumberOfShares[user].add(newSharesForUser) */\n      tag_326\n        /* \"contracts/bentoboxDapp.sol\":8846:8862  newSharesForUser */\n      dup2\n        /* \"contracts/bentoboxDapp.sol\":8817:8835  userNumberOfShares */\n      0x09\n        /* \"contracts/bentoboxDapp.sol\":8817:8841  userNumberOfShares[user] */\n      0x00\n        /* \"contracts/bentoboxDapp.sol\":8836:8840  user */\n      dup8\n        /* \"contracts/bentoboxDapp.sol\":8817:8841  userNumberOfShares[user] */\n      0xffffffffffffffffffffffffffffffffffffffff\n      and\n      0xffffffffffffffffffffffffffffffffffffffff\n      and\n      dup2\n      mstore\n      0x20\n      add\n      swap1\n      dup2\n      mstore\n      0x20\n      add\n      0x00\n      keccak256\n      sload\n        /* \"contracts/bentoboxDapp.sol\":8817:8845  userNumberOfShares[user].add */\n      tag_260\n      swap1\n        /* \"contracts/bentoboxDapp.sol\":8817:8863  userNumberOfShares[user].add(newSharesForUser) */\n      swap2\n      swap1\n      0xffffffff\n      and\n      jump\t// in\n    tag_326:\n        /* \"contracts/bentoboxDapp.sol\":8790:8808  userNumberOfShares */\n      0x09\n        /* \"contracts/bentoboxDapp.sol\":8790:8814  userNumberOfShares[user] */\n      0x00\n        /* \"contracts/bentoboxDapp.sol\":8809:8813  user */\n      dup7\n        /* \"contracts/bentoboxDapp.sol\":8790:8814  userNumberOfShares[user] */\n      0xffffffffffffffffffffffffffffffffffffffff\n      and\n      0xffffffffffffffffffffffffffffffffffffffff\n      and\n      dup2\n      mstore\n      0x20\n      add\n      swap1\n      dup2\n      mstore\n      0x20\n      add\n      0x00\n      keccak256\n        /* \"contracts/bentoboxDapp.sol\":8790:8863  userNumberOfShares[user] = userNumberOfShares[user].add(newSharesForUser) */\n      dup2\n      swap1\n      sstore\n      pop\n        /* \"contracts/bentoboxDapp.sol\":8742:8948  if (userNumberOfShares[user] > 0) {... */\n      jump(tag_327)\n    tag_325:\n        /* \"contracts/bentoboxDapp.sol\":8921:8937  newSharesForUser */\n      dup1\n        /* \"contracts/bentoboxDapp.sol\":8894:8912  userNumberOfShares */\n      0x09\n        /* \"contracts/bentoboxDapp.sol\":8894:8918  userNumberOfShares[user] */\n      0x00\n        /* \"contracts/bentoboxDapp.sol\":8913:8917  user */\n      dup7\n        /* \"contracts/bentoboxDapp.sol\":8894:8918  userNumberOfShares[user] */\n      0xffffffffffffffffffffffffffffffffffffffff\n      and\n      0xffffffffffffffffffffffffffffffffffffffff\n      and\n      dup2\n      mstore\n      0x20\n      add\n      swap1\n      dup2\n      mstore\n      0x20\n      add\n      0x00\n      keccak256\n        /* \"contracts/bentoboxDapp.sol\":8894:8937  userNumberOfShares[user] = newSharesForUser */\n      dup2\n      swap1\n      sstore\n      pop\n        /* \"contracts/bentoboxDapp.sol\":8742:8948  if (userNumberOfShares[user] > 0) {... */\n    tag_327:\n        /* \"contracts/bentoboxDapp.sol\":8407:8954  function updateSharesOnDeposit(address user, uint256 total_in_USD, uint256 deposit_amount) public { //make this ownable - only contract itself can update this?... */\n      pop\n      pop\n      pop\n      pop\n      jump\t// out\n        /* \"contracts/bentoboxDapp.sol\":1710:1772  address[] public WETHToUSDCPath = [WETH_ADDRESS, USDC_ADDRESS] */\n    tag_108:\n      0x06\n      dup2\n      dup2\n      sload\n      dup2\n      lt\n      tag_328\n      jumpi\n      invalid\n    tag_328:\n      swap1\n      0x00\n      mstore\n      keccak256(0x00, 0x20)\n      add\n      0x00\n      swap2\n      pop\n      sload\n      swap1\n      0x0100\n      exp\n      swap1\n      div\n      0xffffffffffffffffffffffffffffffffffffffff\n      and\n      dup2\n      jump\t// out\n        /* \"contracts/bentoboxDapp.sol\":11094:11549  function withdrawAllFourTokensFromBento(uint256 _WMATIC_amount, uint256 _SUSHI_amount, uint256 _WETH_amount, uint256 _WBTC_amount) public {... */\n    tag_112:\n        /* \"contracts/bentoboxDapp.sol\":11242:11312  withdraw(_WMATIC_amount, WMATIC_ADDRESS, address(this), address(this)) */\n      tag_331\n        /* \"contracts/bentoboxDapp.sol\":11251:11265  _WMATIC_amount */\n      dup5\n        /* \"contracts/bentoboxDapp.sol\":617:659  0x0d500B1d8E8eF31E21C99d1Db9A6444d3ADf1270 */\n      0x0d500b1d8e8ef31e21c99d1db9a6444d3adf1270\n        /* \"contracts/bentoboxDapp.sol\":11291:11295  this */\n      address\n        /* \"contracts/bentoboxDapp.sol\":11306:11310  this */\n      address\n        /* \"contracts/bentoboxDapp.sol\":11242:11250  withdraw */\n      tag_81\n        /* \"contracts/bentoboxDapp.sol\":11242:11312  withdraw(_WMATIC_amount, WMATIC_ADDRESS, address(this), address(this)) */\n      jump\t// in\n    tag_331:\n        /* \"contracts/bentoboxDapp.sol\":11322:11390  withdraw(_SUSHI_amount, SUSHI_ADDRESS, address(this), address(this)) */\n      tag_332\n        /* \"contracts/bentoboxDapp.sol\":11331:11344  _SUSHI_amount */\n      dup4\n        /* \"contracts/bentoboxDapp.sol\":705:747  0x0b3F868E0BE5597D5DB7fEB59E1CADBb0fdDa50a */\n      0x0b3f868e0be5597d5db7feb59e1cadbb0fdda50a\n        /* \"contracts/bentoboxDapp.sol\":11369:11373  this */\n      address\n        /* \"contracts/bentoboxDapp.sol\":11384:11388  this */\n      address\n        /* \"contracts/bentoboxDapp.sol\":11322:11330  withdraw */\n      tag_81\n        /* \"contracts/bentoboxDapp.sol\":11322:11390  withdraw(_SUSHI_amount, SUSHI_ADDRESS, address(this), address(this)) */\n      jump\t// in\n    tag_332:\n        /* \"contracts/bentoboxDapp.sol\":11400:11466  withdraw(_WETH_amount, WETH_ADDRESS, address(this), address(this)) */\n      tag_333\n        /* \"contracts/bentoboxDapp.sol\":11409:11421  _WETH_amount */\n      dup3\n        /* \"contracts/bentoboxDapp.sol\":792:834  0x7ceB23fD6bC0adD59E62ac25578270cFf1b9f619 */\n      0x7ceb23fd6bc0add59e62ac25578270cff1b9f619\n        /* \"contracts/bentoboxDapp.sol\":11445:11449  this */\n      address\n        /* \"contracts/bentoboxDapp.sol\":11460:11464  this */\n      address\n        /* \"contracts/bentoboxDapp.sol\":11400:11408  withdraw */\n      tag_81\n        /* \"contracts/bentoboxDapp.sol\":11400:11466  withdraw(_WETH_amount, WETH_ADDRESS, address(this), address(this)) */\n      jump\t// in\n    tag_333:\n        /* \"contracts/bentoboxDapp.sol\":11476:11542  withdraw(_WBTC_amount, WBTC_ADDRESS, address(this), address(this)) */\n      tag_334\n        /* \"contracts/bentoboxDapp.sol\":11485:11497  _WBTC_amount */\n      dup2\n        /* \"contracts/bentoboxDapp.sol\":879:921  0x1BFD67037B42Cf73acF2047067bd4F2C47D9BfD6 */\n      0x1bfd67037b42cf73acf2047067bd4f2c47d9bfd6\n        /* \"contracts/bentoboxDapp.sol\":11521:11525  this */\n      address\n        /* \"contracts/bentoboxDapp.sol\":11536:11540  this */\n      address\n        /* \"contracts/bentoboxDapp.sol\":11476:11484  withdraw */\n      tag_81\n        /* \"contracts/bentoboxDapp.sol\":11476:11542  withdraw(_WBTC_amount, WBTC_ADDRESS, address(this), address(this)) */\n      jump\t// in\n    tag_334:\n        /* \"contracts/bentoboxDapp.sol\":11094:11549  function withdrawAllFourTokensFromBento(uint256 _WMATIC_amount, uint256 _SUSHI_amount, uint256 _WETH_amount, uint256 _WBTC_amount) public {... */\n      pop\n      pop\n      pop\n      pop\n      jump\t// out\n        /* \"contracts/bentoboxDapp.sol\":2921:3221  function updateSharesOnWithdrawal(address user) public { //make this ownable - only contract itself can update this?... */\n    tag_116:\n        /* \"contracts/bentoboxDapp.sol\":3082:3083  0 */\n      0x00\n        /* \"contracts/bentoboxDapp.sol\":3055:3073  userNumberOfShares */\n      0x09\n        /* \"contracts/bentoboxDapp.sol\":3055:3079  userNumberOfShares[user] */\n      0x00\n        /* \"contracts/bentoboxDapp.sol\":3074:3078  user */\n      dup4\n        /* \"contracts/bentoboxDapp.sol\":3055:3079  userNumberOfShares[user] */\n      0xffffffffffffffffffffffffffffffffffffffff\n      and\n      0xffffffffffffffffffffffffffffffffffffffff\n      and\n      dup2\n      mstore\n      0x20\n      add\n      swap1\n      dup2\n      mstore\n      0x20\n      add\n      0x00\n      keccak256\n      sload\n        /* \"contracts/bentoboxDapp.sol\":3055:3083  userNumberOfShares[user] > 0 */\n      gt\n        /* \"contracts/bentoboxDapp.sol\":3046:3119  require (userNumberOfShares[user] > 0, \"Error - This user has no shares\") */\n      tag_336\n      jumpi\n      mload(0x40)\n      0x08c379a000000000000000000000000000000000000000000000000000000000\n      dup2\n      mstore\n      0x04\n      add\n      dup1\n      dup1\n      0x20\n      add\n      dup3\n      dup2\n      sub\n      dup3\n      mstore\n      0x1f\n      dup2\n      mstore\n      0x20\n      add\n      dup1\n      0x4572726f72202d2054686973207573657220686173206e6f2073686172657300\n      dup2\n      mstore\n      pop\n      0x20\n      add\n      swap2\n      pop\n      pop\n      mload(0x40)\n      dup1\n      swap2\n      sub\n      swap1\n      revert\n    tag_336:\n        /* \"contracts/bentoboxDapp.sol\":3152:3170  userNumberOfShares */\n      0x09\n        /* \"contracts/bentoboxDapp.sol\":3152:3176  userNumberOfShares[user] */\n      0x00\n        /* \"contracts/bentoboxDapp.sol\":3171:3175  user */\n      dup3\n        /* \"contracts/bentoboxDapp.sol\":3152:3176  userNumberOfShares[user] */\n      0xffffffffffffffffffffffffffffffffffffffff\n      and\n      0xffffffffffffffffffffffffffffffffffffffff\n      and\n      dup2\n      mstore\n      0x20\n      add\n      swap1\n      dup2\n      mstore\n      0x20\n      add\n      0x00\n      keccak256\n      sload\n        /* \"contracts/bentoboxDapp.sol\":3129:3148  totalNumberOfShares */\n      0x08\n      0x00\n        /* \"contracts/bentoboxDapp.sol\":3129:3176  totalNumberOfShares -= userNumberOfShares[user] */\n      dup3\n      dup3\n      sload\n      sub\n      swap3\n      pop\n      pop\n      dup2\n      swap1\n      sstore\n      pop\n        /* \"contracts/bentoboxDapp.sol\":3213:3214  0 */\n      0x00\n        /* \"contracts/bentoboxDapp.sol\":3186:3204  userNumberOfShares */\n      0x09\n        /* \"contracts/bentoboxDapp.sol\":3186:3210  userNumberOfShares[user] */\n      0x00\n        /* \"contracts/bentoboxDapp.sol\":3205:3209  user */\n      dup4\n        /* \"contracts/bentoboxDapp.sol\":3186:3210  userNumberOfShares[user] */\n      0xffffffffffffffffffffffffffffffffffffffff\n      and\n      0xffffffffffffffffffffffffffffffffffffffff\n      and\n      dup2\n      mstore\n      0x20\n      add\n      swap1\n      dup2\n      mstore\n      0x20\n      add\n      0x00\n      keccak256\n        /* \"contracts/bentoboxDapp.sol\":3186:3214  userNumberOfShares[user] = 0 */\n      dup2\n      swap1\n      sstore\n      pop\n        /* \"contracts/bentoboxDapp.sol\":2921:3221  function updateSharesOnWithdrawal(address user) public { //make this ownable - only contract itself can update this?... */\n      pop\n      jump\t// out\n        /* \"contracts/bentoboxDapp.sol\":12226:12546  function swapWholeBalanceBackToUSDC(address _token) public {... */\n    tag_120:\n        /* \"contracts/bentoboxDapp.sol\":12295:12315  uint256 tokenBalance */\n      0x00\n        /* \"contracts/bentoboxDapp.sol\":12325:12331  _token */\n      dup2\n        /* \"contracts/bentoboxDapp.sol\":12318:12342  IERC20(_token).balanceOf */\n      0xffffffffffffffffffffffffffffffffffffffff\n      and\n      0x70a08231\n        /* \"contracts/bentoboxDapp.sol\":12351:12355  this */\n      address\n        /* \"contracts/bentoboxDapp.sol\":12318:12357  IERC20(_token).balanceOf(address(this)) */\n      mload(0x40)\n      dup3\n      0xffffffff\n      and\n      0xe0\n      shl\n      dup2\n      mstore\n      0x04\n      add\n      dup1\n      dup3\n      0xffffffffffffffffffffffffffffffffffffffff\n      and\n      dup2\n      mstore\n      0x20\n      add\n      swap2\n      pop\n      pop\n      0x20\n      mload(0x40)\n      dup1\n      dup4\n      sub\n      dup2\n      dup7\n      dup1\n      extcodesize\n      iszero\n      dup1\n      iszero\n      tag_338\n      jumpi\n      0x00\n      dup1\n      revert\n    tag_338:\n      pop\n      gas\n      staticcall\n      iszero\n      dup1\n      iszero\n      tag_340\n      jumpi\n      returndatasize\n      0x00\n      dup1\n      returndatacopy\n      revert(0x00, returndatasize)\n    tag_340:\n      pop\n      pop\n      pop\n      pop\n      mload(0x40)\n      returndatasize\n      0x20\n      dup2\n      lt\n      iszero\n      tag_341\n      jumpi\n      0x00\n      dup1\n      revert\n    tag_341:\n      dup2\n      add\n      swap1\n      dup1\n      dup1\n      mload\n      swap1\n      0x20\n      add\n      swap1\n      swap3\n      swap2\n      swap1\n      pop\n      pop\n      pop\n        /* \"contracts/bentoboxDapp.sol\":12295:12357  uint256 tokenBalance = IERC20(_token).balanceOf(address(this)) */\n      swap1\n      pop\n        /* \"contracts/bentoboxDapp.sol\":12367:12388  address[] memory path */\n      0x60\n        /* \"contracts/bentoboxDapp.sol\":12405:12406  2 */\n      0x02\n        /* \"contracts/bentoboxDapp.sol\":12391:12407  new address[](2) */\n      0xffffffffffffffff\n      dup2\n      gt\n      dup1\n      iszero\n      tag_342\n      jumpi\n      0x00\n      dup1\n      revert\n    tag_342:\n      pop\n      mload(0x40)\n      swap1\n      dup1\n      dup3\n      mstore\n      dup1\n      0x20\n      mul\n      0x20\n      add\n      dup3\n      add\n      0x40\n      mstore\n      dup1\n      iszero\n      tag_343\n      jumpi\n      dup2\n      0x20\n      add\n      0x20\n      dup3\n      mul\n      dup1\n      calldatasize\n      dup4\n      calldatacopy\n      dup1\n      dup3\n      add\n      swap2\n      pop\n      pop\n      swap1\n      pop\n    tag_343:\n      pop\n        /* \"contracts/bentoboxDapp.sol\":12367:12407  address[] memory path = new address[](2) */\n      swap1\n      pop\n        /* \"contracts/bentoboxDapp.sol\":12427:12433  _token */\n      dup3\n        /* \"contracts/bentoboxDapp.sol\":12417:12421  path */\n      dup2\n        /* \"contracts/bentoboxDapp.sol\":12422:12423  0 */\n      0x00\n        /* \"contracts/bentoboxDapp.sol\":12417:12424  path[0] */\n      dup2\n      mload\n      dup2\n      lt\n      tag_344\n      jumpi\n      invalid\n    tag_344:\n      0x20\n      mul\n      0x20\n      add\n      add\n        /* \"contracts/bentoboxDapp.sol\":12417:12433  path[0] = _token */\n      swap1\n      0xffffffffffffffffffffffffffffffffffffffff\n      and\n      swap1\n      dup2\n      0xffffffffffffffffffffffffffffffffffffffff\n      and\n      dup2\n      mstore\n      pop\n      pop\n        /* \"contracts/bentoboxDapp.sol\":523:565  0x2791Bca1f2de4661ED88A30C99A7a9449Aa84174 */\n      0x2791bca1f2de4661ed88a30c99a7a9449aa84174\n        /* \"contracts/bentoboxDapp.sol\":12443:12447  path */\n      dup2\n        /* \"contracts/bentoboxDapp.sol\":12448:12449  1 */\n      0x01\n        /* \"contracts/bentoboxDapp.sol\":12443:12450  path[1] */\n      dup2\n      mload\n      dup2\n      lt\n      tag_345\n      jumpi\n      invalid\n    tag_345:\n      0x20\n      mul\n      0x20\n      add\n      add\n        /* \"contracts/bentoboxDapp.sol\":12443:12465  path[1] = USDC_ADDRESS */\n      swap1\n      0xffffffffffffffffffffffffffffffffffffffff\n      and\n      swap1\n      dup2\n      0xffffffffffffffffffffffffffffffffffffffff\n      and\n      dup2\n      mstore\n      pop\n      pop\n        /* \"contracts/bentoboxDapp.sol\":12475:12539  swap(tokenBalance, uint256(0), path, address(this), uint256(-1)) */\n      tag_346\n        /* \"contracts/bentoboxDapp.sol\":12480:12492  tokenBalance */\n      dup3\n        /* \"contracts/bentoboxDapp.sol\":12502:12503  0 */\n      0x00\n        /* \"contracts/bentoboxDapp.sol\":12506:12510  path */\n      dup4\n        /* \"contracts/bentoboxDapp.sol\":12520:12524  this */\n      address\n        /* \"contracts/bentoboxDapp.sol\":12535:12537  -1 */\n      0xffffffffffffffffffffffffffffffffffffffffffffffffffffffffffffffff\n        /* \"contracts/bentoboxDapp.sol\":12475:12479  swap */\n      tag_153\n        /* \"contracts/bentoboxDapp.sol\":12475:12539  swap(tokenBalance, uint256(0), path, address(this), uint256(-1)) */\n      jump\t// in\n    tag_346:\n        /* \"contracts/bentoboxDapp.sol\":12226:12546  function swapWholeBalanceBackToUSDC(address _token) public {... */\n      pop\n      pop\n      pop\n      jump\t// out\n        /* \"contracts/bentoboxDapp.sol\":8243:8401  function setSharesFirstTime(address user) public {... */\n    tag_124:\n        /* \"contracts/bentoboxDapp.sol\":8329:8338  100000000 */\n      0x05f5e100\n        /* \"contracts/bentoboxDapp.sol\":8302:8320  userNumberOfShares */\n      0x09\n        /* \"contracts/bentoboxDapp.sol\":8302:8326  userNumberOfShares[user] */\n      0x00\n        /* \"contracts/bentoboxDapp.sol\":8321:8325  user */\n      dup4\n        /* \"contracts/bentoboxDapp.sol\":8302:8326  userNumberOfShares[user] */\n      0xffffffffffffffffffffffffffffffffffffffff\n      and\n      0xffffffffffffffffffffffffffffffffffffffff\n      and\n      dup2\n      mstore\n      0x20\n      add\n      swap1\n      dup2\n      mstore\n      0x20\n      add\n      0x00\n      keccak256\n        /* \"contracts/bentoboxDapp.sol\":8302:8338  userNumberOfShares[user] = 100000000 */\n      dup2\n      swap1\n      sstore\n      pop\n        /* \"contracts/bentoboxDapp.sol\":8370:8388  userNumberOfShares */\n      0x09\n        /* \"contracts/bentoboxDapp.sol\":8370:8394  userNumberOfShares[user] */\n      0x00\n        /* \"contracts/bentoboxDapp.sol\":8389:8393  user */\n      dup3\n        /* \"contracts/bentoboxDapp.sol\":8370:8394  userNumberOfShares[user] */\n      0xffffffffffffffffffffffffffffffffffffffff\n      and\n      0xffffffffffffffffffffffffffffffffffffffff\n      and\n      dup2\n      mstore\n      0x20\n      add\n      swap1\n      dup2\n      mstore\n      0x20\n      add\n      0x00\n      keccak256\n      sload\n        /* \"contracts/bentoboxDapp.sol\":8348:8367  totalNumberOfShares */\n      0x08\n        /* \"contracts/bentoboxDapp.sol\":8348:8394  totalNumberOfShares = userNumberOfShares[user] */\n      dup2\n      swap1\n      sstore\n      pop\n        /* \"contracts/bentoboxDapp.sol\":8243:8401  function setSharesFirstTime(address user) public {... */\n      pop\n      jump\t// out\n        /* \"contracts/bentoboxDapp.sol\":1568:1634  address[] public WMATICToUSDCPath = [WMATIC_ADDRESS, USDC_ADDRESS] */\n    tag_128:\n      0x04\n      dup2\n      dup2\n      sload\n      dup2\n      lt\n      tag_348\n      jumpi\n      invalid\n    tag_348:\n      swap1\n      0x00\n      mstore\n      keccak256(0x00, 0x20)\n      add\n      0x00\n      swap2\n      pop\n      sload\n      swap1\n      0x0100\n      exp\n      swap1\n      div\n      0xffffffffffffffffffffffffffffffffffffffff\n      and\n      dup2\n      jump\t// out\n        /* \"contracts/bentoboxDapp.sol\":1289:1355  address[] public USDCToWMATICPath = [USDC_ADDRESS, WMATIC_ADDRESS] */\n    tag_132:\n      0x00\n      dup2\n      dup2\n      sload\n      dup2\n      lt\n      tag_350\n      jumpi\n      invalid\n    tag_350:\n      swap1\n      0x00\n      mstore\n      keccak256(0x00, 0x20)\n      add\n      0x00\n      swap2\n      pop\n      sload\n      swap1\n      0x0100\n      exp\n      swap1\n      div\n      0xffffffffffffffffffffffffffffffffffffffff\n      and\n      dup2\n      jump\t// out\n        /* \"contracts/bentoboxDapp.sol\":1108:1191  address public constant ETH_USD_ORACLE = 0xF9680D99D6C9589e2a93a78A04A279e509205945 */\n    tag_135:\n        /* \"contracts/bentoboxDapp.sol\":1149:1191  0xF9680D99D6C9589e2a93a78A04A279e509205945 */\n      0xf9680d99d6c9589e2a93a78a04a279e509205945\n        /* \"contracts/bentoboxDapp.sol\":1108:1191  address public constant ETH_USD_ORACLE = 0xF9680D99D6C9589e2a93a78A04A279e509205945 */\n      dup2\n      jump\t// out\n        /* \"contracts/bentoboxDapp.sol\":6190:7033  function swapProportionately(uint256 WMATIC_amount, uint256 SUSHI_amount, uint256 WETH_amount, uint256 WBTC_amount, uint256 totalUSDAmount, uint256 depositAmount) public {... */\n    tag_139:\n        /* \"contracts/bentoboxDapp.sol\":6370:6390  uint256 WMATIC_share */\n      0x00\n        /* \"contracts/bentoboxDapp.sol\":6393:6445  WMATIC_amount.mul(depositAmount).div(totalUSDAmount) */\n      tag_353\n        /* \"contracts/bentoboxDapp.sol\":6430:6444  totalUSDAmount */\n      dup4\n        /* \"contracts/bentoboxDapp.sol\":6393:6425  WMATIC_amount.mul(depositAmount) */\n      tag_354\n        /* \"contracts/bentoboxDapp.sol\":6411:6424  depositAmount */\n      dup5\n        /* \"contracts/bentoboxDapp.sol\":6393:6406  WMATIC_amount */\n      dup11\n        /* \"contracts/bentoboxDapp.sol\":6393:6410  WMATIC_amount.mul */\n      tag_284\n      swap1\n        /* \"contracts/bentoboxDapp.sol\":6393:6425  WMATIC_amount.mul(depositAmount) */\n      swap2\n      swap1\n      0xffffffff\n      and\n      jump\t// in\n    tag_354:\n        /* \"contracts/bentoboxDapp.sol\":6393:6429  WMATIC_amount.mul(depositAmount).div */\n      tag_285\n      swap1\n        /* \"contracts/bentoboxDapp.sol\":6393:6445  WMATIC_amount.mul(depositAmount).div(totalUSDAmount) */\n      swap2\n      swap1\n      0xffffffff\n      and\n      jump\t// in\n    tag_353:\n        /* \"contracts/bentoboxDapp.sol\":6370:6445  uint256 WMATIC_share = WMATIC_amount.mul(depositAmount).div(totalUSDAmount) */\n      swap1\n      pop\n        /* \"contracts/bentoboxDapp.sol\":6456:6475  uint256 SUSHI_share */\n      0x00\n        /* \"contracts/bentoboxDapp.sol\":6478:6529  SUSHI_amount.mul(depositAmount).div(totalUSDAmount) */\n      tag_355\n        /* \"contracts/bentoboxDapp.sol\":6514:6528  totalUSDAmount */\n      dup5\n        /* \"contracts/bentoboxDapp.sol\":6478:6509  SUSHI_amount.mul(depositAmount) */\n      tag_356\n        /* \"contracts/bentoboxDapp.sol\":6495:6508  depositAmount */\n      dup6\n        /* \"contracts/bentoboxDapp.sol\":6478:6490  SUSHI_amount */\n      dup11\n        /* \"contracts/bentoboxDapp.sol\":6478:6494  SUSHI_amount.mul */\n      tag_284\n      swap1\n        /* \"contracts/bentoboxDapp.sol\":6478:6509  SUSHI_amount.mul(depositAmount) */\n      swap2\n      swap1\n      0xffffffff\n      and\n      jump\t// in\n    tag_356:\n        /* \"contracts/bentoboxDapp.sol\":6478:6513  SUSHI_amount.mul(depositAmount).div */\n      tag_285\n      swap1\n        /* \"contracts/bentoboxDapp.sol\":6478:6529  SUSHI_amount.mul(depositAmount).div(totalUSDAmount) */\n      swap2\n      swap1\n      0xffffffff\n      and\n      jump\t// in\n    tag_355:\n        /* \"contracts/bentoboxDapp.sol\":6456:6529  uint256 SUSHI_share = SUSHI_amount.mul(depositAmount).div(totalUSDAmount) */\n      swap1\n      pop\n        /* \"contracts/bentoboxDapp.sol\":6539:6557  uint256 WETH_share */\n      0x00\n        /* \"contracts/bentoboxDapp.sol\":6560:6610  WETH_amount.mul(depositAmount).div(totalUSDAmount) */\n      tag_357\n        /* \"contracts/bentoboxDapp.sol\":6595:6609  totalUSDAmount */\n      dup6\n        /* \"contracts/bentoboxDapp.sol\":6560:6590  WETH_amount.mul(depositAmount) */\n      tag_358\n        /* \"contracts/bentoboxDapp.sol\":6576:6589  depositAmount */\n      dup7\n        /* \"contracts/bentoboxDapp.sol\":6560:6571  WETH_amount */\n      dup11\n        /* \"contracts/bentoboxDapp.sol\":6560:6575  WETH_amount.mul */\n      tag_284\n      swap1\n        /* \"contracts/bentoboxDapp.sol\":6560:6590  WETH_amount.mul(depositAmount) */\n      swap2\n      swap1\n      0xffffffff\n      and\n      jump\t// in\n    tag_358:\n        /* \"contracts/bentoboxDapp.sol\":6560:6594  WETH_amount.mul(depositAmount).div */\n      tag_285\n      swap1\n        /* \"contracts/bentoboxDapp.sol\":6560:6610  WETH_amount.mul(depositAmount).div(totalUSDAmount) */\n      swap2\n      swap1\n      0xffffffff\n      and\n      jump\t// in\n    tag_357:\n        /* \"contracts/bentoboxDapp.sol\":6539:6610  uint256 WETH_share = WETH_amount.mul(depositAmount).div(totalUSDAmount) */\n      swap1\n      pop\n        /* \"contracts/bentoboxDapp.sol\":6620:6638  uint256 WBTC_share */\n      0x00\n        /* \"contracts/bentoboxDapp.sol\":6641:6691  WBTC_amount.mul(depositAmount).div(totalUSDAmount) */\n      tag_359\n        /* \"contracts/bentoboxDapp.sol\":6676:6690  totalUSDAmount */\n      dup7\n        /* \"contracts/bentoboxDapp.sol\":6641:6671  WBTC_amount.mul(depositAmount) */\n      tag_360\n        /* \"contracts/bentoboxDapp.sol\":6657:6670  depositAmount */\n      dup8\n        /* \"contracts/bentoboxDapp.sol\":6641:6652  WBTC_amount */\n      dup11\n        /* \"contracts/bentoboxDapp.sol\":6641:6656  WBTC_amount.mul */\n      tag_284\n      swap1\n        /* \"contracts/bentoboxDapp.sol\":6641:6671  WBTC_amount.mul(depositAmount) */\n      swap2\n      swap1\n      0xffffffff\n      and\n      jump\t// in\n    tag_360:\n        /* \"contracts/bentoboxDapp.sol\":6641:6675  WBTC_amount.mul(depositAmount).div */\n      tag_285\n      swap1\n        /* \"contracts/bentoboxDapp.sol\":6641:6691  WBTC_amount.mul(depositAmount).div(totalUSDAmount) */\n      swap2\n      swap1\n      0xffffffff\n      and\n      jump\t// in\n    tag_359:\n        /* \"contracts/bentoboxDapp.sol\":6620:6691  uint256 WBTC_share = WBTC_amount.mul(depositAmount).div(totalUSDAmount) */\n      swap1\n      pop\n        /* \"contracts/bentoboxDapp.sol\":6702:6778  swap(WMATIC_share, uint256(0), USDCToWMATICPath, address(this), uint256(-1)) */\n      tag_361\n        /* \"contracts/bentoboxDapp.sol\":6707:6719  WMATIC_share */\n      dup5\n        /* \"contracts/bentoboxDapp.sol\":6729:6730  0 */\n      0x00\n        /* \"contracts/bentoboxDapp.sol\":6733:6749  USDCToWMATICPath */\n      dup1\n        /* \"contracts/bentoboxDapp.sol\":6702:6778  swap(WMATIC_share, uint256(0), USDCToWMATICPath, address(this), uint256(-1)) */\n      dup1\n      sload\n      dup1\n      0x20\n      mul\n      0x20\n      add\n      mload(0x40)\n      swap1\n      dup2\n      add\n      0x40\n      mstore\n      dup1\n      swap3\n      swap2\n      swap1\n      dup2\n      dup2\n      mstore\n      0x20\n      add\n      dup3\n      dup1\n      sload\n      dup1\n      iszero\n      tag_362\n      jumpi\n      0x20\n      mul\n      dup3\n      add\n      swap2\n      swap1\n      0x00\n      mstore\n      keccak256(0x00, 0x20)\n      swap1\n    tag_363:\n      dup2\n      0x00\n      swap1\n      sload\n      swap1\n      0x0100\n      exp\n      swap1\n      div\n      0xffffffffffffffffffffffffffffffffffffffff\n      and\n      0xffffffffffffffffffffffffffffffffffffffff\n      and\n      dup2\n      mstore\n      0x20\n      add\n      swap1\n      0x01\n      add\n      swap1\n      dup1\n      dup4\n      gt\n      tag_363\n      jumpi\n    tag_362:\n      pop\n      pop\n      pop\n      pop\n      pop\n        /* \"contracts/bentoboxDapp.sol\":6759:6763  this */\n      address\n        /* \"contracts/bentoboxDapp.sol\":6774:6776  -1 */\n      0xffffffffffffffffffffffffffffffffffffffffffffffffffffffffffffffff\n        /* \"contracts/bentoboxDapp.sol\":6702:6706  swap */\n      tag_153\n        /* \"contracts/bentoboxDapp.sol\":6702:6778  swap(WMATIC_share, uint256(0), USDCToWMATICPath, address(this), uint256(-1)) */\n      jump\t// in\n    tag_361:\n        /* \"contracts/bentoboxDapp.sol\":6788:6862  swap(SUSHI_share, uint256(0), USDCToSUSHIPath, address(this), uint256(-1)) */\n      tag_364\n        /* \"contracts/bentoboxDapp.sol\":6793:6804  SUSHI_share */\n      dup4\n        /* \"contracts/bentoboxDapp.sol\":6814:6815  0 */\n      0x00\n        /* \"contracts/bentoboxDapp.sol\":6818:6833  USDCToSUSHIPath */\n      0x01\n        /* \"contracts/bentoboxDapp.sol\":6788:6862  swap(SUSHI_share, uint256(0), USDCToSUSHIPath, address(this), uint256(-1)) */\n      dup1\n      sload\n      dup1\n      0x20\n      mul\n      0x20\n      add\n      mload(0x40)\n      swap1\n      dup2\n      add\n      0x40\n      mstore\n      dup1\n      swap3\n      swap2\n      swap1\n      dup2\n      dup2\n      mstore\n      0x20\n      add\n      dup3\n      dup1\n      sload\n      dup1\n      iszero\n      tag_365\n      jumpi\n      0x20\n      mul\n      dup3\n      add\n      swap2\n      swap1\n      0x00\n      mstore\n      keccak256(0x00, 0x20)\n      swap1\n    tag_366:\n      dup2\n      0x00\n      swap1\n      sload\n      swap1\n      0x0100\n      exp\n      swap1\n      div\n      0xffffffffffffffffffffffffffffffffffffffff\n      and\n      0xffffffffffffffffffffffffffffffffffffffff\n      and\n      dup2\n      mstore\n      0x20\n      add\n      swap1\n      0x01\n      add\n      swap1\n      dup1\n      dup4\n      gt\n      tag_366\n      jumpi\n    tag_365:\n      pop\n      pop\n      pop\n      pop\n      pop\n        /* \"contracts/bentoboxDapp.sol\":6843:6847  this */\n      address\n        /* \"contracts/bentoboxDapp.sol\":6858:6860  -1 */\n      0xffffffffffffffffffffffffffffffffffffffffffffffffffffffffffffffff\n        /* \"contracts/bentoboxDapp.sol\":6788:6792  swap */\n      tag_153\n        /* \"contracts/bentoboxDapp.sol\":6788:6862  swap(SUSHI_share, uint256(0), USDCToSUSHIPath, address(this), uint256(-1)) */\n      jump\t// in\n    tag_364:\n        /* \"contracts/bentoboxDapp.sol\":6872:6944  swap(WETH_share, uint256(0), USDCToWETHPath, address(this), uint256(-1)) */\n      tag_367\n        /* \"contracts/bentoboxDapp.sol\":6877:6887  WETH_share */\n      dup3\n        /* \"contracts/bentoboxDapp.sol\":6897:6898  0 */\n      0x00\n        /* \"contracts/bentoboxDapp.sol\":6901:6915  USDCToWETHPath */\n      0x02\n        /* \"contracts/bentoboxDapp.sol\":6872:6944  swap(WETH_share, uint256(0), USDCToWETHPath, address(this), uint256(-1)) */\n      dup1\n      sload\n      dup1\n      0x20\n      mul\n      0x20\n      add\n      mload(0x40)\n      swap1\n      dup2\n      add\n      0x40\n      mstore\n      dup1\n      swap3\n      swap2\n      swap1\n      dup2\n      dup2\n      mstore\n      0x20\n      add\n      dup3\n      dup1\n      sload\n      dup1\n      iszero\n      tag_368\n      jumpi\n      0x20\n      mul\n      dup3\n      add\n      swap2\n      swap1\n      0x00\n      mstore\n      keccak256(0x00, 0x20)\n      swap1\n    tag_369:\n      dup2\n      0x00\n      swap1\n      sload\n      swap1\n      0x0100\n      exp\n      swap1\n      div\n      0xffffffffffffffffffffffffffffffffffffffff\n      and\n      0xffffffffffffffffffffffffffffffffffffffff\n      and\n      dup2\n      mstore\n      0x20\n      add\n      swap1\n      0x01\n      add\n      swap1\n      dup1\n      dup4\n      gt\n      tag_369\n      jumpi\n    tag_368:\n      pop\n      pop\n      pop\n      pop\n      pop\n        /* \"contracts/bentoboxDapp.sol\":6925:6929  this */\n      address\n        /* \"contracts/bentoboxDapp.sol\":6940:6942  -1 */\n      0xffffffffffffffffffffffffffffffffffffffffffffffffffffffffffffffff\n        /* \"contracts/bentoboxDapp.sol\":6872:6876  swap */\n      tag_153\n        /* \"contracts/bentoboxDapp.sol\":6872:6944  swap(WETH_share, uint256(0), USDCToWETHPath, address(this), uint256(-1)) */\n      jump\t// in\n    tag_367:\n        /* \"contracts/bentoboxDapp.sol\":6954:7026  swap(WBTC_share, uint256(0), USDCToWBTCPath, address(this), uint256(-1)) */\n      tag_370\n        /* \"contracts/bentoboxDapp.sol\":6959:6969  WBTC_share */\n      dup2\n        /* \"contracts/bentoboxDapp.sol\":6979:6980  0 */\n      0x00\n        /* \"contracts/bentoboxDapp.sol\":6983:6997  USDCToWBTCPath */\n      0x03\n        /* \"contracts/bentoboxDapp.sol\":6954:7026  swap(WBTC_share, uint256(0), USDCToWBTCPath, address(this), uint256(-1)) */\n      dup1\n      sload\n      dup1\n      0x20\n      mul\n      0x20\n      add\n      mload(0x40)\n      swap1\n      dup2\n      add\n      0x40\n      mstore\n      dup1\n      swap3\n      swap2\n      swap1\n      dup2\n      dup2\n      mstore\n      0x20\n      add\n      dup3\n      dup1\n      sload\n      dup1\n      iszero\n      tag_371\n      jumpi\n      0x20\n      mul\n      dup3\n      add\n      swap2\n      swap1\n      0x00\n      mstore\n      keccak256(0x00, 0x20)\n      swap1\n    tag_372:\n      dup2\n      0x00\n      swap1\n      sload\n      swap1\n      0x0100\n      exp\n      swap1\n      div\n      0xffffffffffffffffffffffffffffffffffffffff\n      and\n      0xffffffffffffffffffffffffffffffffffffffff\n      and\n      dup2\n      mstore\n      0x20\n      add\n      swap1\n      0x01\n      add\n      swap1\n      dup1\n      dup4\n      gt\n      tag_372\n      jumpi\n    tag_371:\n      pop\n      pop\n      pop\n      pop\n      pop\n        /* \"contracts/bentoboxDapp.sol\":7007:7011  this */\n      address\n        /* \"contracts/bentoboxDapp.sol\":7022:7024  -1 */\n      0xffffffffffffffffffffffffffffffffffffffffffffffffffffffffffffffff\n        /* \"contracts/bentoboxDapp.sol\":6954:6958  swap */\n      tag_153\n        /* \"contracts/bentoboxDapp.sol\":6954:7026  swap(WBTC_share, uint256(0), USDCToWBTCPath, address(this), uint256(-1)) */\n      jump\t// in\n    tag_370:\n        /* \"contracts/bentoboxDapp.sol\":6190:7033  function swapProportionately(uint256 WMATIC_amount, uint256 SUSHI_amount, uint256 WETH_amount, uint256 WBTC_amount, uint256 totalUSDAmount, uint256 depositAmount) public {... */\n      pop\n      pop\n      pop\n      pop\n      pop\n      pop\n      pop\n      pop\n      pop\n      pop\n      jump\t// out\n        /* \"contracts/bentoboxDapp.sol\":7039:7444  function swapIntoFourEqualParts(uint256 amount) public {... */\n    tag_143:\n        /* \"contracts/bentoboxDapp.sol\":7104:7181  swap(amount.div(4), uint256(0), USDCToWMATICPath, address(this), uint256(-1)) */\n      tag_374\n        /* \"contracts/bentoboxDapp.sol\":7109:7122  amount.div(4) */\n      tag_375\n        /* \"contracts/bentoboxDapp.sol\":7120:7121  4 */\n      0x04\n        /* \"contracts/bentoboxDapp.sol\":7109:7115  amount */\n      dup4\n        /* \"contracts/bentoboxDapp.sol\":7109:7119  amount.div */\n      tag_285\n      swap1\n        /* \"contracts/bentoboxDapp.sol\":7109:7122  amount.div(4) */\n      swap2\n      swap1\n      0xffffffff\n      and\n      jump\t// in\n    tag_375:\n        /* \"contracts/bentoboxDapp.sol\":7132:7133  0 */\n      0x00\n        /* \"contracts/bentoboxDapp.sol\":7136:7152  USDCToWMATICPath */\n      dup1\n        /* \"contracts/bentoboxDapp.sol\":7104:7181  swap(amount.div(4), uint256(0), USDCToWMATICPath, address(this), uint256(-1)) */\n      dup1\n      sload\n      dup1\n      0x20\n      mul\n      0x20\n      add\n      mload(0x40)\n      swap1\n      dup2\n      add\n      0x40\n      mstore\n      dup1\n      swap3\n      swap2\n      swap1\n      dup2\n      dup2\n      mstore\n      0x20\n      add\n      dup3\n      dup1\n      sload\n      dup1\n      iszero\n      tag_376\n      jumpi\n      0x20\n      mul\n      dup3\n      add\n      swap2\n      swap1\n      0x00\n      mstore\n      keccak256(0x00, 0x20)\n      swap1\n    tag_377:\n      dup2\n      0x00\n      swap1\n      sload\n      swap1\n      0x0100\n      exp\n      swap1\n      div\n      0xffffffffffffffffffffffffffffffffffffffff\n      and\n      0xffffffffffffffffffffffffffffffffffffffff\n      and\n      dup2\n      mstore\n      0x20\n      add\n      swap1\n      0x01\n      add\n      swap1\n      dup1\n      dup4\n      gt\n      tag_377\n      jumpi\n    tag_376:\n      pop\n      pop\n      pop\n      pop\n      pop\n        /* \"contracts/bentoboxDapp.sol\":7162:7166  this */\n      address\n        /* \"contracts/bentoboxDapp.sol\":7177:7179  -1 */\n      0xffffffffffffffffffffffffffffffffffffffffffffffffffffffffffffffff\n        /* \"contracts/bentoboxDapp.sol\":7104:7108  swap */\n      tag_153\n        /* \"contracts/bentoboxDapp.sol\":7104:7181  swap(amount.div(4), uint256(0), USDCToWMATICPath, address(this), uint256(-1)) */\n      jump\t// in\n    tag_374:\n        /* \"contracts/bentoboxDapp.sol\":7191:7267  swap(amount.div(4), uint256(0), USDCToSUSHIPath, address(this), uint256(-1)) */\n      tag_378\n        /* \"contracts/bentoboxDapp.sol\":7196:7209  amount.div(4) */\n      tag_379\n        /* \"contracts/bentoboxDapp.sol\":7207:7208  4 */\n      0x04\n        /* \"contracts/bentoboxDapp.sol\":7196:7202  amount */\n      dup4\n        /* \"contracts/bentoboxDapp.sol\":7196:7206  amount.div */\n      tag_285\n      swap1\n        /* \"contracts/bentoboxDapp.sol\":7196:7209  amount.div(4) */\n      swap2\n      swap1\n      0xffffffff\n      and\n      jump\t// in\n    tag_379:\n        /* \"contracts/bentoboxDapp.sol\":7219:7220  0 */\n      0x00\n        /* \"contracts/bentoboxDapp.sol\":7223:7238  USDCToSUSHIPath */\n      0x01\n        /* \"contracts/bentoboxDapp.sol\":7191:7267  swap(amount.div(4), uint256(0), USDCToSUSHIPath, address(this), uint256(-1)) */\n      dup1\n      sload\n      dup1\n      0x20\n      mul\n      0x20\n      add\n      mload(0x40)\n      swap1\n      dup2\n      add\n      0x40\n      mstore\n      dup1\n      swap3\n      swap2\n      swap1\n      dup2\n      dup2\n      mstore\n      0x20\n      add\n      dup3\n      dup1\n      sload\n      dup1\n      iszero\n      tag_380\n      jumpi\n      0x20\n      mul\n      dup3\n      add\n      swap2\n      swap1\n      0x00\n      mstore\n      keccak256(0x00, 0x20)\n      swap1\n    tag_381:\n      dup2\n      0x00\n      swap1\n      sload\n      swap1\n      0x0100\n      exp\n      swap1\n      div\n      0xffffffffffffffffffffffffffffffffffffffff\n      and\n      0xffffffffffffffffffffffffffffffffffffffff\n      and\n      dup2\n      mstore\n      0x20\n      add\n      swap1\n      0x01\n      add\n      swap1\n      dup1\n      dup4\n      gt\n      tag_381\n      jumpi\n    tag_380:\n      pop\n      pop\n      pop\n      pop\n      pop\n        /* \"contracts/bentoboxDapp.sol\":7248:7252  this */\n      address\n        /* \"contracts/bentoboxDapp.sol\":7263:7265  -1 */\n      0xffffffffffffffffffffffffffffffffffffffffffffffffffffffffffffffff\n        /* \"contracts/bentoboxDapp.sol\":7191:7195  swap */\n      tag_153\n        /* \"contracts/bentoboxDapp.sol\":7191:7267  swap(amount.div(4), uint256(0), USDCToSUSHIPath, address(this), uint256(-1)) */\n      jump\t// in\n    tag_378:\n        /* \"contracts/bentoboxDapp.sol\":7277:7352  swap(amount.div(4), uint256(0), USDCToWETHPath, address(this), uint256(-1)) */\n      tag_382\n        /* \"contracts/bentoboxDapp.sol\":7282:7295  amount.div(4) */\n      tag_383\n        /* \"contracts/bentoboxDapp.sol\":7293:7294  4 */\n      0x04\n        /* \"contracts/bentoboxDapp.sol\":7282:7288  amount */\n      dup4\n        /* \"contracts/bentoboxDapp.sol\":7282:7292  amount.div */\n      tag_285\n      swap1\n        /* \"contracts/bentoboxDapp.sol\":7282:7295  amount.div(4) */\n      swap2\n      swap1\n      0xffffffff\n      and\n      jump\t// in\n    tag_383:\n        /* \"contracts/bentoboxDapp.sol\":7305:7306  0 */\n      0x00\n        /* \"contracts/bentoboxDapp.sol\":7309:7323  USDCToWETHPath */\n      0x02\n        /* \"contracts/bentoboxDapp.sol\":7277:7352  swap(amount.div(4), uint256(0), USDCToWETHPath, address(this), uint256(-1)) */\n      dup1\n      sload\n      dup1\n      0x20\n      mul\n      0x20\n      add\n      mload(0x40)\n      swap1\n      dup2\n      add\n      0x40\n      mstore\n      dup1\n      swap3\n      swap2\n      swap1\n      dup2\n      dup2\n      mstore\n      0x20\n      add\n      dup3\n      dup1\n      sload\n      dup1\n      iszero\n      tag_384\n      jumpi\n      0x20\n      mul\n      dup3\n      add\n      swap2\n      swap1\n      0x00\n      mstore\n      keccak256(0x00, 0x20)\n      swap1\n    tag_385:\n      dup2\n      0x00\n      swap1\n      sload\n      swap1\n      0x0100\n      exp\n      swap1\n      div\n      0xffffffffffffffffffffffffffffffffffffffff\n      and\n      0xffffffffffffffffffffffffffffffffffffffff\n      and\n      dup2\n      mstore\n      0x20\n      add\n      swap1\n      0x01\n      add\n      swap1\n      dup1\n      dup4\n      gt\n      tag_385\n      jumpi\n    tag_384:\n      pop\n      pop\n      pop\n      pop\n      pop\n        /* \"contracts/bentoboxDapp.sol\":7333:7337  this */\n      address\n        /* \"contracts/bentoboxDapp.sol\":7348:7350  -1 */\n      0xffffffffffffffffffffffffffffffffffffffffffffffffffffffffffffffff\n        /* \"contracts/bentoboxDapp.sol\":7277:7281  swap */\n      tag_153\n        /* \"contracts/bentoboxDapp.sol\":7277:7352  swap(amount.div(4), uint256(0), USDCToWETHPath, address(this), uint256(-1)) */\n      jump\t// in\n    tag_382:\n        /* \"contracts/bentoboxDapp.sol\":7362:7437  swap(amount.div(4), uint256(0), USDCToWBTCPath, address(this), uint256(-1)) */\n      tag_386\n        /* \"contracts/bentoboxDapp.sol\":7367:7380  amount.div(4) */\n      tag_387\n        /* \"contracts/bentoboxDapp.sol\":7378:7379  4 */\n      0x04\n        /* \"contracts/bentoboxDapp.sol\":7367:7373  amount */\n      dup4\n        /* \"contracts/bentoboxDapp.sol\":7367:7377  amount.div */\n      tag_285\n      swap1\n        /* \"contracts/bentoboxDapp.sol\":7367:7380  amount.div(4) */\n      swap2\n      swap1\n      0xffffffff\n      and\n      jump\t// in\n    tag_387:\n        /* \"contracts/bentoboxDapp.sol\":7390:7391  0 */\n      0x00\n        /* \"contracts/bentoboxDapp.sol\":7394:7408  USDCToWBTCPath */\n      0x03\n        /* \"contracts/bentoboxDapp.sol\":7362:7437  swap(amount.div(4), uint256(0), USDCToWBTCPath, address(this), uint256(-1)) */\n      dup1\n      sload\n      dup1\n      0x20\n      mul\n      0x20\n      add\n      mload(0x40)\n      swap1\n      dup2\n      add\n      0x40\n      mstore\n      dup1\n      swap3\n      swap2\n      swap1\n      dup2\n      dup2\n      mstore\n      0x20\n      add\n      dup3\n      dup1\n      sload\n      dup1\n      iszero\n      tag_388\n      jumpi\n      0x20\n      mul\n      dup3\n      add\n      swap2\n      swap1\n      0x00\n      mstore\n      keccak256(0x00, 0x20)\n      swap1\n    tag_389:\n      dup2\n      0x00\n      swap1\n      sload\n      swap1\n      0x0100\n      exp\n      swap1\n      div\n      0xffffffffffffffffffffffffffffffffffffffff\n      and\n      0xffffffffffffffffffffffffffffffffffffffff\n      and\n      dup2\n      mstore\n      0x20\n      add\n      swap1\n      0x01\n      add\n      swap1\n      dup1\n      dup4\n      gt\n      tag_389\n      jumpi\n    tag_388:\n      pop\n      pop\n      pop\n      pop\n      pop\n        /* \"contracts/bentoboxDapp.sol\":7418:7422  this */\n      address\n        /* \"contracts/bentoboxDapp.sol\":7433:7435  -1 */\n      0xffffffffffffffffffffffffffffffffffffffffffffffffffffffffffffffff\n        /* \"contracts/bentoboxDapp.sol\":7362:7366  swap */\n      tag_153\n        /* \"contracts/bentoboxDapp.sol\":7362:7437  swap(amount.div(4), uint256(0), USDCToWBTCPath, address(this), uint256(-1)) */\n      jump\t// in\n    tag_386:\n        /* \"contracts/bentoboxDapp.sol\":7039:7444  function swapIntoFourEqualParts(uint256 amount) public {... */\n      pop\n      jump\t// out\n        /* \"contracts/bentoboxDapp.sol\":928:1013  address public constant MATIC_USD_ORACLE = 0xAB594600376Ec9fD91F8e885dADF0CE036862dE0 */\n    tag_146:\n        /* \"contracts/bentoboxDapp.sol\":971:1013  0xAB594600376Ec9fD91F8e885dADF0CE036862dE0 */\n      0xab594600376ec9fd91f8e885dadf0ce036862de0\n        /* \"contracts/bentoboxDapp.sol\":928:1013  address public constant MATIC_USD_ORACLE = 0xAB594600376Ec9fD91F8e885dADF0CE036862dE0 */\n      dup2\n      jump\t// out\n        /* \"contracts/bentoboxDapp.sol\":13453:13755  function swap(uint256 _amountIn, uint256 _amountOutMin, address[] memory _path, address _acct, uint256 _deadline) public {... */\n    tag_153:\n        /* \"contracts/bentoboxDapp.sol\":13592:13607  sushiSwapRouter */\n      0x0b\n      0x00\n      swap1\n      sload\n      swap1\n      0x0100\n      exp\n      swap1\n      div\n      0xffffffffffffffffffffffffffffffffffffffff\n      and\n        /* \"contracts/bentoboxDapp.sol\":13592:13632  sushiSwapRouter.swapExactTokensForTokens */\n      0xffffffffffffffffffffffffffffffffffffffff\n      and\n      0x38ed1739\n        /* \"contracts/bentoboxDapp.sol\":13646:13655  _amountIn */\n      dup7\n        /* \"contracts/bentoboxDapp.sol\":13669:13682  _amountOutMin */\n      dup7\n        /* \"contracts/bentoboxDapp.sol\":13696:13701  _path */\n      dup7\n        /* \"contracts/bentoboxDapp.sol\":13715:13720  _acct */\n      dup7\n        /* \"contracts/bentoboxDapp.sol\":13734:13743  _deadline */\n      dup7\n        /* \"contracts/bentoboxDapp.sol\":13592:13744  sushiSwapRouter.swapExactTokensForTokens(... */\n      mload(0x40)\n      dup7\n      0xffffffff\n      and\n      0xe0\n      shl\n      dup2\n      mstore\n      0x04\n      add\n      dup1\n      dup7\n      dup2\n      mstore\n      0x20\n      add\n      dup6\n      dup2\n      mstore\n      0x20\n      add\n      dup1\n      0x20\n      add\n      dup5\n      0xffffffffffffffffffffffffffffffffffffffff\n      and\n      dup2\n      mstore\n      0x20\n      add\n      dup4\n      dup2\n      mstore\n      0x20\n      add\n      dup3\n      dup2\n      sub\n      dup3\n      mstore\n      dup6\n      dup2\n      dup2\n      mload\n      dup2\n      mstore\n      0x20\n      add\n      swap2\n      pop\n      dup1\n      mload\n      swap1\n      0x20\n      add\n      swap1\n      0x20\n      mul\n      dup1\n      dup4\n      dup4\n      0x00\n    tag_391:\n      dup4\n      dup2\n      lt\n      iszero\n      tag_393\n      jumpi\n      dup1\n      dup3\n      add\n      mload\n      dup2\n      dup5\n      add\n      mstore\n      0x20\n      dup2\n      add\n      swap1\n      pop\n      jump(tag_391)\n    tag_393:\n      pop\n      pop\n      pop\n      pop\n      swap1\n      pop\n      add\n      swap7\n      pop\n      pop\n      pop\n      pop\n      pop\n      pop\n      pop\n      0x00\n      mload(0x40)\n      dup1\n      dup4\n      sub\n      dup2\n      0x00\n      dup8\n      dup1\n      extcodesize\n      iszero\n      dup1\n      iszero\n      tag_394\n      jumpi\n      0x00\n      dup1\n      revert\n    tag_394:\n      pop\n      gas\n      call\n      iszero\n      dup1\n      iszero\n      tag_396\n      jumpi\n      returndatasize\n      0x00\n      dup1\n      returndatacopy\n      revert(0x00, returndatasize)\n    tag_396:\n      pop\n      pop\n      pop\n      pop\n      mload(0x40)\n      returndatasize\n      0x00\n      dup3\n      returndatacopy\n      returndatasize\n      not(0x1f)\n      0x1f\n      dup3\n      add\n      and\n      dup3\n      add\n      dup1\n      0x40\n      mstore\n      pop\n      0x20\n      dup2\n      lt\n      iszero\n      tag_397\n      jumpi\n      0x00\n      dup1\n      revert\n    tag_397:\n      dup2\n      add\n      swap1\n      dup1\n      dup1\n      mload\n      mload(0x40)\n      swap4\n      swap3\n      swap2\n      swap1\n      dup5\n      0x0100000000\n      dup3\n      gt\n      iszero\n      tag_398\n      jumpi\n      0x00\n      dup1\n      revert\n    tag_398:\n      dup4\n      dup3\n      add\n      swap2\n      pop\n      0x20\n      dup3\n      add\n      dup6\n      dup2\n      gt\n      iszero\n      tag_399\n      jumpi\n      0x00\n      dup1\n      revert\n    tag_399:\n      dup3\n      mload\n      dup7\n      0x20\n      dup3\n      mul\n      dup4\n      add\n      gt\n      0x0100000000\n      dup3\n      gt\n      or\n      iszero\n      tag_400\n      jumpi\n      0x00\n      dup1\n      revert\n    tag_400:\n      dup1\n      dup4\n      mstore\n      0x20\n      dup4\n      add\n      swap3\n      pop\n      pop\n      pop\n      swap1\n      dup1\n      mload\n      swap1\n      0x20\n      add\n      swap1\n      0x20\n      mul\n      dup1\n      dup4\n      dup4\n      0x00\n    tag_401:\n      dup4\n      dup2\n      lt\n      iszero\n      tag_403\n      jumpi\n      dup1\n      dup3\n      add\n      mload\n      dup2\n      dup5\n      add\n      mstore\n      0x20\n      dup2\n      add\n      swap1\n      pop\n      jump(tag_401)\n    tag_403:\n      pop\n      pop\n      pop\n      pop\n      swap1\n      pop\n      add\n      0x40\n      mstore\n      pop\n      pop\n      pop\n      pop\n        /* \"contracts/bentoboxDapp.sol\":13453:13755  function swap(uint256 _amountIn, uint256 _amountOutMin, address[] memory _path, address _acct, uint256 _deadline) public {... */\n      pop\n      pop\n      pop\n      pop\n      pop\n      jump\t// out\n        /* \"contracts/bentoboxDapp.sol\":5815:6184  function getUSDBentoTokenBalanceOf(address token_address, address oracle_address, uint256 token_decimals) public view returns (uint256) {... */\n    tag_157:\n        /* \"contracts/bentoboxDapp.sol\":5942:5949  uint256 */\n      0x00\n        /* \"contracts/bentoboxDapp.sol\":6037:6177  BentoTokenBalanceOf(token_address, address(this))... */\n      tag_405\n        /* \"contracts/bentoboxDapp.sol\":6174:6175  2 */\n      0x02\n        /* \"contracts/bentoboxDapp.sol\":6159:6173  token_decimals */\n      dup4\n        /* \"contracts/bentoboxDapp.sol\":6159:6175  token_decimals+2 */\n      add\n        /* \"contracts/bentoboxDapp.sol\":6154:6156  10 */\n      0x0a\n        /* \"contracts/bentoboxDapp.sol\":6154:6176  10**(token_decimals+2) */\n      exp\n        /* \"contracts/bentoboxDapp.sol\":6037:6140  BentoTokenBalanceOf(token_address, address(this))... */\n      tag_406\n        /* \"contracts/bentoboxDapp.sol\":6108:6138  getLatestPrice(oracle_address) */\n      tag_407\n        /* \"contracts/bentoboxDapp.sol\":6123:6137  oracle_address */\n      dup7\n        /* \"contracts/bentoboxDapp.sol\":6108:6122  getLatestPrice */\n      tag_77\n        /* \"contracts/bentoboxDapp.sol\":6108:6138  getLatestPrice(oracle_address) */\n      jump\t// in\n    tag_407:\n        /* \"contracts/bentoboxDapp.sol\":6037:6086  BentoTokenBalanceOf(token_address, address(this)) */\n      tag_408\n        /* \"contracts/bentoboxDapp.sol\":6057:6070  token_address */\n      dup9\n        /* \"contracts/bentoboxDapp.sol\":6080:6084  this */\n      address\n        /* \"contracts/bentoboxDapp.sol\":6037:6056  BentoTokenBalanceOf */\n      tag_223\n        /* \"contracts/bentoboxDapp.sol\":6037:6086  BentoTokenBalanceOf(token_address, address(this)) */\n      jump\t// in\n    tag_408:\n        /* \"contracts/bentoboxDapp.sol\":6037:6099  BentoTokenBalanceOf(token_address, address(this))... */\n      tag_284\n      swap1\n        /* \"contracts/bentoboxDapp.sol\":6037:6140  BentoTokenBalanceOf(token_address, address(this))... */\n      swap2\n      swap1\n      0xffffffff\n      and\n      jump\t// in\n    tag_406:\n        /* \"contracts/bentoboxDapp.sol\":6037:6153  BentoTokenBalanceOf(token_address, address(this))... */\n      tag_285\n      swap1\n        /* \"contracts/bentoboxDapp.sol\":6037:6177  BentoTokenBalanceOf(token_address, address(this))... */\n      swap2\n      swap1\n      0xffffffff\n      and\n      jump\t// in\n    tag_405:\n        /* \"contracts/bentoboxDapp.sol\":6030:6177  return BentoTokenBalanceOf(token_address, address(this))... */\n      swap1\n      pop\n        /* \"contracts/bentoboxDapp.sol\":5815:6184  function getUSDBentoTokenBalanceOf(address token_address, address oracle_address, uint256 token_decimals) public view returns (uint256) {... */\n      swap4\n      swap3\n      pop\n      pop\n      pop\n      jump\t// out\n        /* \"contracts/bentoboxDapp.sol\":1499:1561  address[] public USDCToWBTCPath = [USDC_ADDRESS, WBTC_ADDRESS] */\n    tag_161:\n      0x03\n      dup2\n      dup2\n      sload\n      dup2\n      lt\n      tag_409\n      jumpi\n      invalid\n    tag_409:\n      swap1\n      0x00\n      mstore\n      keccak256(0x00, 0x20)\n      add\n      0x00\n      swap2\n      pop\n      sload\n      swap1\n      0x0100\n      exp\n      swap1\n      div\n      0xffffffffffffffffffffffffffffffffffffffff\n      and\n      dup2\n      jump\t// out\n        /* \"contracts/bentoboxDapp.sol\":7450:8237  function depositAllFourTokensBackToBento() public {... */\n    tag_164:\n        /* \"contracts/bentoboxDapp.sol\":7510:7603  approve_spending(WMATIC_ADDRESS, BENTOBOX_MASTER_CONTRACT_ADDRESS, 9999999999999999999999999) */\n      tag_412\n        /* \"contracts/bentoboxDapp.sol\":617:659  0x0d500B1d8E8eF31E21C99d1Db9A6444d3ADf1270 */\n      0x0d500b1d8e8ef31e21c99d1db9a6444d3adf1270\n        /* \"contracts/bentoboxDapp.sol\":435:477  0x0319000133d3AdA02600f0875d2cf03D442C3367 */\n      0x0319000133d3ada02600f0875d2cf03d442c3367\n        /* \"contracts/bentoboxDapp.sol\":7577:7602  9999999999999999999999999 */\n      0x0845951614014849ffffff\n        /* \"contracts/bentoboxDapp.sol\":7510:7526  approve_spending */\n      tag_92\n        /* \"contracts/bentoboxDapp.sol\":7510:7603  approve_spending(WMATIC_ADDRESS, BENTOBOX_MASTER_CONTRACT_ADDRESS, 9999999999999999999999999) */\n      jump\t// in\n    tag_412:\n        /* \"contracts/bentoboxDapp.sol\":7613:7685  depositTokenBalanceToBento(WMATIC_ADDRESS, address(this), address(this)) */\n      tag_413\n        /* \"contracts/bentoboxDapp.sol\":617:659  0x0d500B1d8E8eF31E21C99d1Db9A6444d3ADf1270 */\n      0x0d500b1d8e8ef31e21c99d1db9a6444d3adf1270\n        /* \"contracts/bentoboxDapp.sol\":7664:7668  this */\n      address\n        /* \"contracts/bentoboxDapp.sol\":7679:7683  this */\n      address\n        /* \"contracts/bentoboxDapp.sol\":7613:7639  depositTokenBalanceToBento */\n      tag_69\n        /* \"contracts/bentoboxDapp.sol\":7613:7685  depositTokenBalanceToBento(WMATIC_ADDRESS, address(this), address(this)) */\n      jump\t// in\n    tag_413:\n        /* \"contracts/bentoboxDapp.sol\":7695:7787  approve_spending(SUSHI_ADDRESS, BENTOBOX_MASTER_CONTRACT_ADDRESS, 9999999999999999999999999) */\n      tag_414\n        /* \"contracts/bentoboxDapp.sol\":705:747  0x0b3F868E0BE5597D5DB7fEB59E1CADBb0fdDa50a */\n      0x0b3f868e0be5597d5db7feb59e1cadbb0fdda50a\n        /* \"contracts/bentoboxDapp.sol\":435:477  0x0319000133d3AdA02600f0875d2cf03D442C3367 */\n      0x0319000133d3ada02600f0875d2cf03d442c3367\n        /* \"contracts/bentoboxDapp.sol\":7761:7786  9999999999999999999999999 */\n      0x0845951614014849ffffff\n        /* \"contracts/bentoboxDapp.sol\":7695:7711  approve_spending */\n      tag_92\n        /* \"contracts/bentoboxDapp.sol\":7695:7787  approve_spending(SUSHI_ADDRESS, BENTOBOX_MASTER_CONTRACT_ADDRESS, 9999999999999999999999999) */\n      jump\t// in\n    tag_414:\n        /* \"contracts/bentoboxDapp.sol\":7797:7868  depositTokenBalanceToBento(SUSHI_ADDRESS, address(this), address(this)) */\n      tag_415\n        /* \"contracts/bentoboxDapp.sol\":705:747  0x0b3F868E0BE5597D5DB7fEB59E1CADBb0fdDa50a */\n      0x0b3f868e0be5597d5db7feb59e1cadbb0fdda50a\n        /* \"contracts/bentoboxDapp.sol\":7847:7851  this */\n      address\n        /* \"contracts/bentoboxDapp.sol\":7862:7866  this */\n      address\n        /* \"contracts/bentoboxDapp.sol\":7797:7823  depositTokenBalanceToBento */\n      tag_69\n        /* \"contracts/bentoboxDapp.sol\":7797:7868  depositTokenBalanceToBento(SUSHI_ADDRESS, address(this), address(this)) */\n      jump\t// in\n    tag_415:\n        /* \"contracts/bentoboxDapp.sol\":7878:7969  approve_spending(WETH_ADDRESS, BENTOBOX_MASTER_CONTRACT_ADDRESS, 9999999999999999999999999) */\n      tag_416\n        /* \"contracts/bentoboxDapp.sol\":792:834  0x7ceB23fD6bC0adD59E62ac25578270cFf1b9f619 */\n      0x7ceb23fd6bc0add59e62ac25578270cff1b9f619\n        /* \"contracts/bentoboxDapp.sol\":435:477  0x0319000133d3AdA02600f0875d2cf03D442C3367 */\n      0x0319000133d3ada02600f0875d2cf03d442c3367\n        /* \"contracts/bentoboxDapp.sol\":7943:7968  9999999999999999999999999 */\n      0x0845951614014849ffffff\n        /* \"contracts/bentoboxDapp.sol\":7878:7894  approve_spending */\n      tag_92\n        /* \"contracts/bentoboxDapp.sol\":7878:7969  approve_spending(WETH_ADDRESS, BENTOBOX_MASTER_CONTRACT_ADDRESS, 9999999999999999999999999) */\n      jump\t// in\n    tag_416:\n        /* \"contracts/bentoboxDapp.sol\":7979:8049  depositTokenBalanceToBento(WETH_ADDRESS, address(this), address(this)) */\n      tag_417\n        /* \"contracts/bentoboxDapp.sol\":792:834  0x7ceB23fD6bC0adD59E62ac25578270cFf1b9f619 */\n      0x7ceb23fd6bc0add59e62ac25578270cff1b9f619\n        /* \"contracts/bentoboxDapp.sol\":8028:8032  this */\n      address\n        /* \"contracts/bentoboxDapp.sol\":8043:8047  this */\n      address\n        /* \"contracts/bentoboxDapp.sol\":7979:8005  depositTokenBalanceToBento */\n      tag_69\n        /* \"contracts/bentoboxDapp.sol\":7979:8049  depositTokenBalanceToBento(WETH_ADDRESS, address(this), address(this)) */\n      jump\t// in\n    tag_417:\n        /* \"contracts/bentoboxDapp.sol\":8059:8150  approve_spending(WBTC_ADDRESS, BENTOBOX_MASTER_CONTRACT_ADDRESS, 9999999999999999999999999) */\n      tag_418\n        /* \"contracts/bentoboxDapp.sol\":879:921  0x1BFD67037B42Cf73acF2047067bd4F2C47D9BfD6 */\n      0x1bfd67037b42cf73acf2047067bd4f2c47d9bfd6\n        /* \"contracts/bentoboxDapp.sol\":435:477  0x0319000133d3AdA02600f0875d2cf03D442C3367 */\n      0x0319000133d3ada02600f0875d2cf03d442c3367\n        /* \"contracts/bentoboxDapp.sol\":8124:8149  9999999999999999999999999 */\n      0x0845951614014849ffffff\n        /* \"contracts/bentoboxDapp.sol\":8059:8075  approve_spending */\n      tag_92\n        /* \"contracts/bentoboxDapp.sol\":8059:8150  approve_spending(WBTC_ADDRESS, BENTOBOX_MASTER_CONTRACT_ADDRESS, 9999999999999999999999999) */\n      jump\t// in\n    tag_418:\n        /* \"contracts/bentoboxDapp.sol\":8160:8230  depositTokenBalanceToBento(WBTC_ADDRESS, address(this), address(this)) */\n      tag_419\n        /* \"contracts/bentoboxDapp.sol\":879:921  0x1BFD67037B42Cf73acF2047067bd4F2C47D9BfD6 */\n      0x1bfd67037b42cf73acf2047067bd4f2c47d9bfd6\n        /* \"contracts/bentoboxDapp.sol\":8209:8213  this */\n      address\n        /* \"contracts/bentoboxDapp.sol\":8224:8228  this */\n      address\n        /* \"contracts/bentoboxDapp.sol\":8160:8186  depositTokenBalanceToBento */\n      tag_69\n        /* \"contracts/bentoboxDapp.sol\":8160:8230  depositTokenBalanceToBento(WBTC_ADDRESS, address(this), address(this)) */\n      jump\t// in\n    tag_419:\n        /* \"contracts/bentoboxDapp.sol\":7450:8237  function depositAllFourTokensBackToBento() public {... */\n      jump\t// out\n        /* \"contracts/bentoboxDapp.sol\":12659:13158  function transfer(address token_address, uint256 _share, address address_from, address address_to) public  {... */\n    tag_168:\n        /* \"contracts/bentoboxDapp.sol\":12776:12789  IERC20 _token */\n      0x00\n        /* \"contracts/bentoboxDapp.sol\":12799:12812  token_address */\n      dup5\n        /* \"contracts/bentoboxDapp.sol\":12776:12813  IERC20 _token = IERC20(token_address) */\n      swap1\n      pop\n        /* \"contracts/bentoboxDapp.sol\":12916:12935  BentoMasterContract */\n      0x0a\n      0x00\n      swap1\n      sload\n      swap1\n      0x0100\n      exp\n      swap1\n      div\n      0xffffffffffffffffffffffffffffffffffffffff\n      and\n        /* \"contracts/bentoboxDapp.sol\":12916:12944  BentoMasterContract.transfer */\n      0xffffffffffffffffffffffffffffffffffffffff\n      and\n      0xf18d03cc\n        /* \"contracts/bentoboxDapp.sol\":12954:12960  _token */\n      dup3\n        /* \"contracts/bentoboxDapp.sol\":12985:12997  address_from */\n      dup6\n        /* \"contracts/bentoboxDapp.sol\":13049:13059  address_to */\n      dup6\n        /* \"contracts/bentoboxDapp.sol\":13119:13125  _share */\n      dup9\n        /* \"contracts/bentoboxDapp.sol\":12916:13151  BentoMasterContract.transfer(... */\n      mload(0x40)\n      dup6\n      0xffffffff\n      and\n      0xe0\n      shl\n      dup2\n      mstore\n      0x04\n      add\n      dup1\n      dup6\n      0xffffffffffffffffffffffffffffffffffffffff\n      and\n      dup2\n      mstore\n      0x20\n      add\n      dup5\n      0xffffffffffffffffffffffffffffffffffffffff\n      and\n      dup2\n      mstore\n      0x20\n      add\n      dup4\n      0xffffffffffffffffffffffffffffffffffffffff\n      and\n      dup2\n      mstore\n      0x20\n      add\n      dup3\n      dup2\n      mstore\n      0x20\n      add\n      swap5\n      pop\n      pop\n      pop\n      pop\n      pop\n      0x00\n      mload(0x40)\n      dup1\n      dup4\n      sub\n      dup2\n      0x00\n      dup8\n      dup1\n      extcodesize\n      iszero\n      dup1\n      iszero\n      tag_421\n      jumpi\n      0x00\n      dup1\n      revert\n    tag_421:\n      pop\n      gas\n      call\n      iszero\n      dup1\n      iszero\n      tag_423\n      jumpi\n      returndatasize\n      0x00\n      dup1\n      returndatacopy\n      revert(0x00, returndatasize)\n    tag_423:\n      pop\n      pop\n      pop\n      pop\n        /* \"contracts/bentoboxDapp.sol\":12659:13158  function transfer(address token_address, uint256 _share, address address_from, address address_to) public  {... */\n      pop\n      pop\n      pop\n      pop\n      pop\n      jump\t// out\n        /* \"contracts/bentoboxDapp.sol\":12005:12220  function approveSpendingWholeBalance(address _token, address _spender) public {... */\n    tag_172:\n        /* \"contracts/bentoboxDapp.sol\":12093:12113  uint256 tokenBalance */\n      0x00\n        /* \"contracts/bentoboxDapp.sol\":12123:12129  _token */\n      dup3\n        /* \"contracts/bentoboxDapp.sol\":12116:12140  IERC20(_token).balanceOf */\n      0xffffffffffffffffffffffffffffffffffffffff\n      and\n      0x70a08231\n        /* \"contracts/bentoboxDapp.sol\":12149:12153  this */\n      address\n        /* \"contracts/bentoboxDapp.sol\":12116:12155  IERC20(_token).balanceOf(address(this)) */\n      mload(0x40)\n      dup3\n      0xffffffff\n      and\n      0xe0\n      shl\n      dup2\n      mstore\n      0x04\n      add\n      dup1\n      dup3\n      0xffffffffffffffffffffffffffffffffffffffff\n      and\n      dup2\n      mstore\n      0x20\n      add\n      swap2\n      pop\n      pop\n      0x20\n      mload(0x40)\n      dup1\n      dup4\n      sub\n      dup2\n      dup7\n      dup1\n      extcodesize\n      iszero\n      dup1\n      iszero\n      tag_425\n      jumpi\n      0x00\n      dup1\n      revert\n    tag_425:\n      pop\n      gas\n      staticcall\n      iszero\n      dup1\n      iszero\n      tag_427\n      jumpi\n      returndatasize\n      0x00\n      dup1\n      returndatacopy\n      revert(0x00, returndatasize)\n    tag_427:\n      pop\n      pop\n      pop\n      pop\n      mload(0x40)\n      returndatasize\n      0x20\n      dup2\n      lt\n      iszero\n      tag_428\n      jumpi\n      0x00\n      dup1\n      revert\n    tag_428:\n      dup2\n      add\n      swap1\n      dup1\n      dup1\n      mload\n      swap1\n      0x20\n      add\n      swap1\n      swap3\n      swap2\n      swap1\n      pop\n      pop\n      pop\n        /* \"contracts/bentoboxDapp.sol\":12093:12155  uint256 tokenBalance = IERC20(_token).balanceOf(address(this)) */\n      swap1\n      pop\n        /* \"contracts/bentoboxDapp.sol\":12165:12213  approve_spending(_token, _spender, tokenBalance) */\n      tag_429\n        /* \"contracts/bentoboxDapp.sol\":12182:12188  _token */\n      dup4\n        /* \"contracts/bentoboxDapp.sol\":12190:12198  _spender */\n      dup4\n        /* \"contracts/bentoboxDapp.sol\":12200:12212  tokenBalance */\n      dup4\n        /* \"contracts/bentoboxDapp.sol\":12165:12181  approve_spending */\n      tag_92\n        /* \"contracts/bentoboxDapp.sol\":12165:12213  approve_spending(_token, _spender, tokenBalance) */\n      jump\t// in\n    tag_429:\n        /* \"contracts/bentoboxDapp.sol\":12005:12220  function approveSpendingWholeBalance(address _token, address _spender) public {... */\n      pop\n      pop\n      pop\n      jump\t// out\n        /* \"contracts/bentoboxDapp.sol\":2439:2530  function registerProtocol () public {... */\n    tag_175:\n        /* \"contracts/bentoboxDapp.sol\":2485:2504  BentoMasterContract */\n      0x0a\n      0x00\n      swap1\n      sload\n      swap1\n      0x0100\n      exp\n      swap1\n      div\n      0xffffffffffffffffffffffffffffffffffffffff\n      and\n        /* \"contracts/bentoboxDapp.sol\":2485:2521  BentoMasterContract.registerProtocol */\n      0xffffffffffffffffffffffffffffffffffffffff\n      and\n      0xaee4d1b2\n        /* \"contracts/bentoboxDapp.sol\":2485:2523  BentoMasterContract.registerProtocol() */\n      mload(0x40)\n      dup2\n      0xffffffff\n      and\n      0xe0\n      shl\n      dup2\n      mstore\n      0x04\n      add\n      0x00\n      mload(0x40)\n      dup1\n      dup4\n      sub\n      dup2\n      0x00\n      dup8\n      dup1\n      extcodesize\n      iszero\n      dup1\n      iszero\n      tag_431\n      jumpi\n      0x00\n      dup1\n      revert\n    tag_431:\n      pop\n      gas\n      call\n      iszero\n      dup1\n      iszero\n      tag_433\n      jumpi\n      returndatasize\n      0x00\n      dup1\n      returndatacopy\n      revert(0x00, returndatasize)\n    tag_433:\n      pop\n      pop\n      pop\n      pop\n        /* \"contracts/bentoboxDapp.sol\":2439:2530  function registerProtocol () public {... */\n      jump\t// out\n        /* \"contracts/bentoboxDapp.sol\":1019:1102  address public constant BTC_USD_ORACLE = 0xc907E116054Ad103354f2D350FD2514433D57F6f */\n    tag_178:\n        /* \"contracts/bentoboxDapp.sol\":1060:1102  0xc907E116054Ad103354f2D350FD2514433D57F6f */\n      0xc907e116054ad103354f2d350fd2514433d57f6f\n        /* \"contracts/bentoboxDapp.sol\":1019:1102  address public constant BTC_USD_ORACLE = 0xc907E116054Ad103354f2D350FD2514433D57F6f */\n      dup2\n      jump\t// out\n        /* \"contracts/bentoboxDapp.sol\":3227:3353  function getUserShares(address user) public view returns (uint256 userShares) {... */\n    tag_182:\n        /* \"contracts/bentoboxDapp.sol\":3285:3303  uint256 userShares */\n      0x00\n        /* \"contracts/bentoboxDapp.sol\":3322:3340  userNumberOfShares */\n      0x09\n        /* \"contracts/bentoboxDapp.sol\":3322:3346  userNumberOfShares[user] */\n      0x00\n        /* \"contracts/bentoboxDapp.sol\":3341:3345  user */\n      dup4\n        /* \"contracts/bentoboxDapp.sol\":3322:3346  userNumberOfShares[user] */\n      0xffffffffffffffffffffffffffffffffffffffff\n      and\n      0xffffffffffffffffffffffffffffffffffffffff\n      and\n      dup2\n      mstore\n      0x20\n      add\n      swap1\n      dup2\n      mstore\n      0x20\n      add\n      0x00\n      keccak256\n      sload\n        /* \"contracts/bentoboxDapp.sol\":3315:3346  return userNumberOfShares[user] */\n      swap1\n      pop\n        /* \"contracts/bentoboxDapp.sol\":3227:3353  function getUserShares(address user) public view returns (uint256 userShares) {... */\n      swap2\n      swap1\n      pop\n      jump\t// out\n        /* \"contracts/bentoboxDapp.sol\":484:565  address public constant USDC_ADDRESS = 0x2791Bca1f2de4661ED88A30C99A7a9449Aa84174 */\n    tag_185:\n        /* \"contracts/bentoboxDapp.sol\":523:565  0x2791Bca1f2de4661ED88A30C99A7a9449Aa84174 */\n      0x2791bca1f2de4661ed88a30c99a7a9449aa84174\n        /* \"contracts/bentoboxDapp.sol\":484:565  address public constant USDC_ADDRESS = 0x2791Bca1f2de4661ED88A30C99A7a9449Aa84174 */\n      dup2\n      jump\t// out\n        /* \"contracts/bentoboxDapp.sol\":840:921  address public constant WBTC_ADDRESS = 0x1BFD67037B42Cf73acF2047067bd4F2C47D9BfD6 */\n    tag_188:\n        /* \"contracts/bentoboxDapp.sol\":879:921  0x1BFD67037B42Cf73acF2047067bd4F2C47D9BfD6 */\n      0x1bfd67037b42cf73acf2047067bd4f2c47d9bfd6\n        /* \"contracts/bentoboxDapp.sol\":840:921  address public constant WBTC_ADDRESS = 0x1BFD67037B42Cf73acF2047067bd4F2C47D9BfD6 */\n      dup2\n      jump\t// out\n        /* \"contracts/bentoboxDapp.sol\":1943:1977  uint256 public totalNumberOfShares */\n    tag_191:\n      sload(0x08)\n      dup2\n      jump\t// out\n        /* \"contracts/bentoboxDapp.sol\":1778:1840  address[] public WBTCToUSDCPath = [WBTC_ADDRESS, USDC_ADDRESS] */\n    tag_195:\n      0x07\n      dup2\n      dup2\n      sload\n      dup2\n      lt\n      tag_435\n      jumpi\n      invalid\n    tag_435:\n      swap1\n      0x00\n      mstore\n      keccak256(0x00, 0x20)\n      add\n      0x00\n      swap2\n      pop\n      sload\n      swap1\n      0x0100\n      exp\n      swap1\n      div\n      0xffffffffffffffffffffffffffffffffffffffff\n      and\n      dup2\n      jump\t// out\n        /* \"contracts/bentoboxDapp.sol\":1431:1493  address[] public USDCToWETHPath = [USDC_ADDRESS, WETH_ADDRESS] */\n    tag_199:\n      0x02\n      dup2\n      dup2\n      sload\n      dup2\n      lt\n      tag_437\n      jumpi\n      invalid\n    tag_437:\n      swap1\n      0x00\n      mstore\n      keccak256(0x00, 0x20)\n      add\n      0x00\n      swap2\n      pop\n      sload\n      swap1\n      0x0100\n      exp\n      swap1\n      div\n      0xffffffffffffffffffffffffffffffffffffffff\n      and\n      dup2\n      jump\t// out\n        /* \"contracts/bentoboxDapp.sol\":13761:14225  function rebalanceOne() public {... */\n    tag_202:\n        /* \"contracts/bentoboxDapp.sol\":13802:13823  uint256 WMATIC_amount */\n      0x00\n        /* \"contracts/bentoboxDapp.sol\":13826:13876  BentoTokenBalanceOf(WMATIC_ADDRESS, address(this)) */\n      tag_440\n        /* \"contracts/bentoboxDapp.sol\":617:659  0x0d500B1d8E8eF31E21C99d1Db9A6444d3ADf1270 */\n      0x0d500b1d8e8ef31e21c99d1db9a6444d3adf1270\n        /* \"contracts/bentoboxDapp.sol\":13870:13874  this */\n      address\n        /* \"contracts/bentoboxDapp.sol\":13826:13845  BentoTokenBalanceOf */\n      tag_223\n        /* \"contracts/bentoboxDapp.sol\":13826:13876  BentoTokenBalanceOf(WMATIC_ADDRESS, address(this)) */\n      jump\t// in\n    tag_440:\n        /* \"contracts/bentoboxDapp.sol\":13802:13876  uint256 WMATIC_amount = BentoTokenBalanceOf(WMATIC_ADDRESS, address(this)) */\n      swap1\n      pop\n        /* \"contracts/bentoboxDapp.sol\":13886:13906  uint256 SUSHI_amount */\n      0x00\n        /* \"contracts/bentoboxDapp.sol\":13909:13958  BentoTokenBalanceOf(SUSHI_ADDRESS, address(this)) */\n      tag_441\n        /* \"contracts/bentoboxDapp.sol\":705:747  0x0b3F868E0BE5597D5DB7fEB59E1CADBb0fdDa50a */\n      0x0b3f868e0be5597d5db7feb59e1cadbb0fdda50a\n        /* \"contracts/bentoboxDapp.sol\":13952:13956  this */\n      address\n        /* \"contracts/bentoboxDapp.sol\":13909:13928  BentoTokenBalanceOf */\n      tag_223\n        /* \"contracts/bentoboxDapp.sol\":13909:13958  BentoTokenBalanceOf(SUSHI_ADDRESS, address(this)) */\n      jump\t// in\n    tag_441:\n        /* \"contracts/bentoboxDapp.sol\":13886:13958  uint256 SUSHI_amount = BentoTokenBalanceOf(SUSHI_ADDRESS, address(this)) */\n      swap1\n      pop\n        /* \"contracts/bentoboxDapp.sol\":13968:13987  uint256 WETH_amount */\n      0x00\n        /* \"contracts/bentoboxDapp.sol\":13990:14038  BentoTokenBalanceOf(WETH_ADDRESS, address(this)) */\n      tag_442\n        /* \"contracts/bentoboxDapp.sol\":792:834  0x7ceB23fD6bC0adD59E62ac25578270cFf1b9f619 */\n      0x7ceb23fd6bc0add59e62ac25578270cff1b9f619\n        /* \"contracts/bentoboxDapp.sol\":14032:14036  this */\n      address\n        /* \"contracts/bentoboxDapp.sol\":13990:14009  BentoTokenBalanceOf */\n      tag_223\n        /* \"contracts/bentoboxDapp.sol\":13990:14038  BentoTokenBalanceOf(WETH_ADDRESS, address(this)) */\n      jump\t// in\n    tag_442:\n        /* \"contracts/bentoboxDapp.sol\":13968:14038  uint256 WETH_amount = BentoTokenBalanceOf(WETH_ADDRESS, address(this)) */\n      swap1\n      pop\n        /* \"contracts/bentoboxDapp.sol\":14048:14067  uint256 WBTC_amount */\n      0x00\n        /* \"contracts/bentoboxDapp.sol\":14070:14118  BentoTokenBalanceOf(WBTC_ADDRESS, address(this)) */\n      tag_443\n        /* \"contracts/bentoboxDapp.sol\":879:921  0x1BFD67037B42Cf73acF2047067bd4F2C47D9BfD6 */\n      0x1bfd67037b42cf73acf2047067bd4f2c47d9bfd6\n        /* \"contracts/bentoboxDapp.sol\":14112:14116  this */\n      address\n        /* \"contracts/bentoboxDapp.sol\":14070:14089  BentoTokenBalanceOf */\n      tag_223\n        /* \"contracts/bentoboxDapp.sol\":14070:14118  BentoTokenBalanceOf(WBTC_ADDRESS, address(this)) */\n      jump\t// in\n    tag_443:\n        /* \"contracts/bentoboxDapp.sol\":14048:14118  uint256 WBTC_amount = BentoTokenBalanceOf(WBTC_ADDRESS, address(this)) */\n      swap1\n      pop\n        /* \"contracts/bentoboxDapp.sol\":14129:14214  withdrawAllFourTokensFromBento(WMATIC_amount, SUSHI_amount, WETH_amount, WBTC_amount) */\n      tag_444\n        /* \"contracts/bentoboxDapp.sol\":14160:14173  WMATIC_amount */\n      dup5\n        /* \"contracts/bentoboxDapp.sol\":14175:14187  SUSHI_amount */\n      dup5\n        /* \"contracts/bentoboxDapp.sol\":14189:14200  WETH_amount */\n      dup5\n        /* \"contracts/bentoboxDapp.sol\":14202:14213  WBTC_amount */\n      dup5\n        /* \"contracts/bentoboxDapp.sol\":14129:14159  withdrawAllFourTokensFromBento */\n      tag_112\n        /* \"contracts/bentoboxDapp.sol\":14129:14214  withdrawAllFourTokensFromBento(WMATIC_amount, SUSHI_amount, WETH_amount, WBTC_amount) */\n      jump\t// in\n    tag_444:\n        /* \"contracts/bentoboxDapp.sol\":13761:14225  function rebalanceOne() public {... */\n      pop\n      pop\n      pop\n      pop\n      jump\t// out\n        /* \"contracts/bentoboxDapp.sol\":2044:2130  IBentoBoxV1 public BentoMasterContract = IBentoBoxV1(BENTOBOX_MASTER_CONTRACT_ADDRESS) */\n    tag_205:\n      0x0a\n      0x00\n      swap1\n      sload\n      swap1\n      0x0100\n      exp\n      swap1\n      div\n      0xffffffffffffffffffffffffffffffffffffffff\n      and\n      dup2\n      jump\t// out\n        /* \"contracts/bentoboxDapp.sol\":12556:12649  function withdraw_matic(uint256 amount_) public {... */\n    tag_209:\n        /* \"contracts/bentoboxDapp.sol\":12614:12624  msg.sender */\n      caller\n        /* \"contracts/bentoboxDapp.sol\":12614:12633  msg.sender.transfer */\n      0xffffffffffffffffffffffffffffffffffffffff\n      and\n        /* \"contracts/bentoboxDapp.sol\":12614:12642  msg.sender.transfer(amount_) */\n      0x08fc\n        /* \"contracts/bentoboxDapp.sol\":12634:12641  amount_ */\n      dup3\n        /* \"contracts/bentoboxDapp.sol\":12614:12642  msg.sender.transfer(amount_) */\n      swap1\n      dup2\n      iszero\n      mul\n      swap1\n      mload(0x40)\n      0x00\n      mload(0x40)\n      dup1\n      dup4\n      sub\n      dup2\n      dup6\n      dup9\n      dup9\n      call\n      swap4\n      pop\n      pop\n      pop\n      pop\n      iszero\n      dup1\n      iszero\n      tag_447\n      jumpi\n      returndatasize\n      0x00\n      dup1\n      returndatacopy\n      revert(0x00, returndatasize)\n    tag_447:\n      pop\n        /* \"contracts/bentoboxDapp.sol\":12556:12649  function withdraw_matic(uint256 amount_) public {... */\n      pop\n      jump\t// out\n        /* \"contracts/bentoboxDapp.sol\":1197:1282  address public constant SUSHI_USD_ORACLE = 0x49B0c695039243BBfEb8EcD054EB70061fd54aa0 */\n    tag_212:\n        /* \"contracts/bentoboxDapp.sol\":1240:1282  0x49B0c695039243BBfEb8EcD054EB70061fd54aa0 */\n      0x49b0c695039243bbfeb8ecd054eb70061fd54aa0\n        /* \"contracts/bentoboxDapp.sol\":1197:1282  address public constant SUSHI_USD_ORACLE = 0x49B0c695039243BBfEb8EcD054EB70061fd54aa0 */\n      dup2\n      jump\t// out\n        /* \"contracts/bentoboxDapp.sol\":1361:1425  address[] public USDCToSUSHIPath = [USDC_ADDRESS, SUSHI_ADDRESS] */\n    tag_216:\n      0x01\n      dup2\n      dup2\n      sload\n      dup2\n      lt\n      tag_448\n      jumpi\n      invalid\n    tag_448:\n      swap1\n      0x00\n      mstore\n      keccak256(0x00, 0x20)\n      add\n      0x00\n      swap2\n      pop\n      sload\n      swap1\n      0x0100\n      exp\n      swap1\n      div\n      0xffffffffffffffffffffffffffffffffffffffff\n      and\n      dup2\n      jump\t// out\n        /* \"contracts/bentoboxDapp.sol\":576:659  address public constant WMATIC_ADDRESS = 0x0d500B1d8E8eF31E21C99d1Db9A6444d3ADf1270 */\n    tag_219:\n        /* \"contracts/bentoboxDapp.sol\":617:659  0x0d500B1d8E8eF31E21C99d1Db9A6444d3ADf1270 */\n      0x0d500b1d8e8ef31e21c99d1db9a6444d3adf1270\n        /* \"contracts/bentoboxDapp.sol\":576:659  address public constant WMATIC_ADDRESS = 0x0d500B1d8E8eF31E21C99d1Db9A6444d3ADf1270 */\n      dup2\n      jump\t// out\n        /* \"contracts/bentoboxDapp.sol\":13164:13443  function BentoTokenBalanceOf(address token_address, address user_address) public view returns (uint256 token_balance) {... */\n    tag_223:\n        /* \"contracts/bentoboxDapp.sol\":13259:13280  uint256 token_balance */\n      0x00\n        /* \"contracts/bentoboxDapp.sol\":13292:13305  IERC20 _token */\n      dup1\n        /* \"contracts/bentoboxDapp.sol\":13315:13328  token_address */\n      dup4\n        /* \"contracts/bentoboxDapp.sol\":13292:13329  IERC20 _token = IERC20(token_address) */\n      swap1\n      pop\n        /* \"contracts/bentoboxDapp.sol\":13355:13374  BentoMasterContract */\n      0x0a\n      0x00\n      swap1\n      sload\n      swap1\n      0x0100\n      exp\n      swap1\n      div\n      0xffffffffffffffffffffffffffffffffffffffff\n      and\n        /* \"contracts/bentoboxDapp.sol\":13355:13384  BentoMasterContract.balanceOf */\n      0xffffffffffffffffffffffffffffffffffffffff\n      and\n      0xf7888aec\n        /* \"contracts/bentoboxDapp.sol\":13385:13391  _token */\n      dup3\n        /* \"contracts/bentoboxDapp.sol\":13393:13405  user_address */\n      dup6\n        /* \"contracts/bentoboxDapp.sol\":13355:13406  BentoMasterContract.balanceOf(_token, user_address) */\n      mload(0x40)\n      dup4\n      0xffffffff\n      and\n      0xe0\n      shl\n      dup2\n      mstore\n      0x04\n      add\n      dup1\n      dup4\n      0xffffffffffffffffffffffffffffffffffffffff\n      and\n      dup2\n      mstore\n      0x20\n      add\n      dup3\n      0xffffffffffffffffffffffffffffffffffffffff\n      and\n      dup2\n      mstore\n      0x20\n      add\n      swap3\n      pop\n      pop\n      pop\n      0x20\n      mload(0x40)\n      dup1\n      dup4\n      sub\n      dup2\n      dup7\n      dup1\n      extcodesize\n      iszero\n      dup1\n      iszero\n      tag_451\n      jumpi\n      0x00\n      dup1\n      revert\n    tag_451:\n      pop\n      gas\n      staticcall\n      iszero\n      dup1\n      iszero\n      tag_453\n      jumpi\n      returndatasize\n      0x00\n      dup1\n      returndatacopy\n      revert(0x00, returndatasize)\n    tag_453:\n      pop\n      pop\n      pop\n      pop\n      mload(0x40)\n      returndatasize\n      0x20\n      dup2\n      lt\n      iszero\n      tag_454\n      jumpi\n      0x00\n      dup1\n      revert\n    tag_454:\n      dup2\n      add\n      swap1\n      dup1\n      dup1\n      mload\n      swap1\n      0x20\n      add\n      swap1\n      swap3\n      swap2\n      swap1\n      pop\n      pop\n      pop\n        /* \"contracts/bentoboxDapp.sol\":13339:13406  token_balance = BentoMasterContract.balanceOf(_token, user_address) */\n      swap2\n      pop\n        /* \"contracts/bentoboxDapp.sol\":13416:13436  return token_balance */\n      pop\n        /* \"contracts/bentoboxDapp.sol\":13164:13443  function BentoTokenBalanceOf(address token_address, address user_address) public view returns (uint256 token_balance) {... */\n      swap3\n      swap2\n      pop\n      pop\n      jump\t// out\n        /* \"contracts/bentoboxDapp.sol\":376:477  address public constant BENTOBOX_MASTER_CONTRACT_ADDRESS = 0x0319000133d3AdA02600f0875d2cf03D442C3367 */\n    tag_226:\n        /* \"contracts/bentoboxDapp.sol\":435:477  0x0319000133d3AdA02600f0875d2cf03D442C3367 */\n      0x0319000133d3ada02600f0875d2cf03d442c3367\n        /* \"contracts/bentoboxDapp.sol\":376:477  address public constant BENTOBOX_MASTER_CONTRACT_ADDRESS = 0x0319000133d3AdA02600f0875d2cf03D442C3367 */\n      dup2\n      jump\t// out\n        /* \"contracts/bentoboxDapp.sol\":1983:2036  mapping(address => uint256) public userNumberOfShares */\n    tag_230:\n      mstore(0x20, 0x09)\n      dup1\n      0x00\n      mstore\n      keccak256(0x00, 0x40)\n      0x00\n      swap2\n      pop\n      swap1\n      pop\n      sload\n      dup2\n      jump\t// out\n        /* \"contracts/bentoboxDapp.sol\":14231:14318  function rebalanceThree() public {... */\n    tag_233:\n        /* \"contracts/bentoboxDapp.sol\":14274:14307  depositAllFourTokensBackToBento() */\n      tag_456\n        /* \"contracts/bentoboxDapp.sol\":14274:14305  depositAllFourTokensBackToBento */\n      tag_164\n        /* \"contracts/bentoboxDapp.sol\":14274:14307  depositAllFourTokensBackToBento() */\n      jump\t// in\n    tag_456:\n        /* \"contracts/bentoboxDapp.sol\":14231:14318  function rebalanceThree() public {... */\n      jump\t// out\n        /* \"contracts/bentoboxDapp.sol\":2136:2216  IUniswapV2Router02 public sushiSwapRouter = IUniswapV2Router02(SUSHISWAP_ROUTER) */\n    tag_236:\n      0x0b\n      0x00\n      swap1\n      sload\n      swap1\n      0x0100\n      exp\n      swap1\n      div\n      0xffffffffffffffffffffffffffffffffffffffff\n      and\n      dup2\n      jump\t// out\n        /* \"@openzeppelin/contracts/math/SafeMath.sol\":2690:2865  function add(uint256 a, uint256 b) internal pure returns (uint256) {... */\n    tag_260:\n        /* \"@openzeppelin/contracts/math/SafeMath.sol\":2748:2755  uint256 */\n      0x00\n        /* \"@openzeppelin/contracts/math/SafeMath.sol\":2767:2776  uint256 c */\n      dup1\n        /* \"@openzeppelin/contracts/math/SafeMath.sol\":2783:2784  b */\n      dup3\n        /* \"@openzeppelin/contracts/math/SafeMath.sol\":2779:2780  a */\n      dup5\n        /* \"@openzeppelin/contracts/math/SafeMath.sol\":2779:2784  a + b */\n      add\n        /* \"@openzeppelin/contracts/math/SafeMath.sol\":2767:2784  uint256 c = a + b */\n      swap1\n      pop\n        /* \"@openzeppelin/contracts/math/SafeMath.sol\":2807:2808  a */\n      dup4\n        /* \"@openzeppelin/contracts/math/SafeMath.sol\":2802:2803  c */\n      dup2\n        /* \"@openzeppelin/contracts/math/SafeMath.sol\":2802:2808  c >= a */\n      lt\n      iszero\n        /* \"@openzeppelin/contracts/math/SafeMath.sol\":2794:2840  require(c >= a, \"SafeMath: addition overflow\") */\n      tag_458\n      jumpi\n      mload(0x40)\n      0x08c379a000000000000000000000000000000000000000000000000000000000\n      dup2\n      mstore\n      0x04\n      add\n      dup1\n      dup1\n      0x20\n      add\n      dup3\n      dup2\n      sub\n      dup3\n      mstore\n      0x1b\n      dup2\n      mstore\n      0x20\n      add\n      dup1\n      0x536166654d6174683a206164646974696f6e206f766572666c6f770000000000\n      dup2\n      mstore\n      pop\n      0x20\n      add\n      swap2\n      pop\n      pop\n      mload(0x40)\n      dup1\n      swap2\n      sub\n      swap1\n      revert\n    tag_458:\n        /* \"@openzeppelin/contracts/math/SafeMath.sol\":2857:2858  c */\n      dup1\n        /* \"@openzeppelin/contracts/math/SafeMath.sol\":2850:2858  return c */\n      swap2\n      pop\n      pop\n        /* \"@openzeppelin/contracts/math/SafeMath.sol\":2690:2865  function add(uint256 a, uint256 b) internal pure returns (uint256) {... */\n      swap3\n      swap2\n      pop\n      pop\n      jump\t// out\n        /* \"@openzeppelin/contracts/math/SafeMath.sol\":3538:3753  function mul(uint256 a, uint256 b) internal pure returns (uint256) {... */\n    tag_284:\n        /* \"@openzeppelin/contracts/math/SafeMath.sol\":3596:3603  uint256 */\n      0x00\n        /* \"@openzeppelin/contracts/math/SafeMath.sol\":3624:3625  0 */\n      dup1\n        /* \"@openzeppelin/contracts/math/SafeMath.sol\":3619:3620  a */\n      dup4\n        /* \"@openzeppelin/contracts/math/SafeMath.sol\":3619:3625  a == 0 */\n      eq\n        /* \"@openzeppelin/contracts/math/SafeMath.sol\":3615:3635  if (a == 0) return 0 */\n      iszero\n      tag_460\n      jumpi\n        /* \"@openzeppelin/contracts/math/SafeMath.sol\":3634:3635  0 */\n      0x00\n        /* \"@openzeppelin/contracts/math/SafeMath.sol\":3627:3635  return 0 */\n      swap1\n      pop\n      jump(tag_459)\n        /* \"@openzeppelin/contracts/math/SafeMath.sol\":3615:3635  if (a == 0) return 0 */\n    tag_460:\n        /* \"@openzeppelin/contracts/math/SafeMath.sol\":3645:3654  uint256 c */\n      0x00\n        /* \"@openzeppelin/contracts/math/SafeMath.sol\":3661:3662  b */\n      dup3\n        /* \"@openzeppelin/contracts/math/SafeMath.sol\":3657:3658  a */\n      dup5\n        /* \"@openzeppelin/contracts/math/SafeMath.sol\":3657:3662  a * b */\n      mul\n        /* \"@openzeppelin/contracts/math/SafeMath.sol\":3645:3662  uint256 c = a * b */\n      swap1\n      pop\n        /* \"@openzeppelin/contracts/math/SafeMath.sol\":3689:3690  b */\n      dup3\n        /* \"@openzeppelin/contracts/math/SafeMath.sol\":3684:3685  a */\n      dup5\n        /* \"@openzeppelin/contracts/math/SafeMath.sol\":3680:3681  c */\n      dup3\n        /* \"@openzeppelin/contracts/math/SafeMath.sol\":3680:3685  c / a */\n      dup2\n      tag_461\n      jumpi\n      invalid\n    tag_461:\n      div\n        /* \"@openzeppelin/contracts/math/SafeMath.sol\":3680:3690  c / a == b */\n      eq\n        /* \"@openzeppelin/contracts/math/SafeMath.sol\":3672:3728  require(c / a == b, \"SafeMath: multiplication overflow\") */\n      tag_462\n      jumpi\n      mload(0x40)\n      0x08c379a000000000000000000000000000000000000000000000000000000000\n      dup2\n      mstore\n      0x04\n      add\n      dup1\n      dup1\n      0x20\n      add\n      dup3\n      dup2\n      sub\n      dup3\n      mstore\n      0x21\n      dup2\n      mstore\n      0x20\n      add\n      dup1\n      data_9113bb53c2876a3805b2c9242029423fc540a728243ce887ab24c82cf119fba3\n      0x21\n      swap2\n      codecopy\n      0x40\n      add\n      swap2\n      pop\n      pop\n      mload(0x40)\n      dup1\n      swap2\n      sub\n      swap1\n      revert\n    tag_462:\n        /* \"@openzeppelin/contracts/math/SafeMath.sol\":3745:3746  c */\n      dup1\n        /* \"@openzeppelin/contracts/math/SafeMath.sol\":3738:3746  return c */\n      swap2\n      pop\n      pop\n        /* \"@openzeppelin/contracts/math/SafeMath.sol\":3538:3753  function mul(uint256 a, uint256 b) internal pure returns (uint256) {... */\n    tag_459:\n      swap3\n      swap2\n      pop\n      pop\n      jump\t// out\n        /* \"@openzeppelin/contracts/math/SafeMath.sol\":4217:4367  function div(uint256 a, uint256 b) internal pure returns (uint256) {... */\n    tag_285:\n        /* \"@openzeppelin/contracts/math/SafeMath.sol\":4275:4282  uint256 */\n      0x00\n        /* \"@openzeppelin/contracts/math/SafeMath.sol\":4306:4307  0 */\n      dup1\n        /* \"@openzeppelin/contracts/math/SafeMath.sol\":4302:4303  b */\n      dup3\n        /* \"@openzeppelin/contracts/math/SafeMath.sol\":4302:4307  b > 0 */\n      gt\n        /* \"@openzeppelin/contracts/math/SafeMath.sol\":4294:4338  require(b > 0, \"SafeMath: division by zero\") */\n      tag_464\n      jumpi\n      mload(0x40)\n      0x08c379a000000000000000000000000000000000000000000000000000000000\n      dup2\n      mstore\n      0x04\n      add\n      dup1\n      dup1\n      0x20\n      add\n      dup3\n      dup2\n      sub\n      dup3\n      mstore\n      0x1a\n      dup2\n      mstore\n      0x20\n      add\n      dup1\n      0x536166654d6174683a206469766973696f6e206279207a65726f000000000000\n      dup2\n      mstore\n      pop\n      0x20\n      add\n      swap2\n      pop\n      pop\n      mload(0x40)\n      dup1\n      swap2\n      sub\n      swap1\n      revert\n    tag_464:\n        /* \"@openzeppelin/contracts/math/SafeMath.sol\":4359:4360  b */\n      dup2\n        /* \"@openzeppelin/contracts/math/SafeMath.sol\":4355:4356  a */\n      dup4\n        /* \"@openzeppelin/contracts/math/SafeMath.sol\":4355:4360  a / b */\n      dup2\n      tag_465\n      jumpi\n      invalid\n    tag_465:\n      div\n        /* \"@openzeppelin/contracts/math/SafeMath.sol\":4348:4360  return a / b */\n      swap1\n      pop\n        /* \"@openzeppelin/contracts/math/SafeMath.sol\":4217:4367  function div(uint256 a, uint256 b) internal pure returns (uint256) {... */\n      swap3\n      swap2\n      pop\n      pop\n      jump\t// out\n    stop\n    data_9113bb53c2876a3805b2c9242029423fc540a728243ce887ab24c82cf119fba3 536166654d6174683a206d756c7469706c69636174696f6e206f766572666c6f77\n\n    auxdata: 0xa264697066735822122000217e43ebec7d94158ac374668a6f841ae76bde6f5b2c90f926a0e790793a3e64736f6c634300060c0033\n}\n",
				"bytecode": {
					"linkReferences": {},
					"object": "60806040526040518060400160405280732791bca1f2de4661ed88a30c99a7a9449aa8417473ffffffffffffffffffffffffffffffffffffffff1673ffffffffffffffffffffffffffffffffffffffff168152602001730d500b1d8e8ef31e21c99d1db9a6444d3adf127073ffffffffffffffffffffffffffffffffffffffff1673ffffffffffffffffffffffffffffffffffffffff168152506000906002620000ab92919062000602565b506040518060400160405280732791bca1f2de4661ed88a30c99a7a9449aa8417473ffffffffffffffffffffffffffffffffffffffff1673ffffffffffffffffffffffffffffffffffffffff168152602001730b3f868e0be5597d5db7feb59e1cadbb0fdda50a73ffffffffffffffffffffffffffffffffffffffff1673ffffffffffffffffffffffffffffffffffffffff1681525060019060026200015392919062000602565b506040518060400160405280732791bca1f2de4661ed88a30c99a7a9449aa8417473ffffffffffffffffffffffffffffffffffffffff1673ffffffffffffffffffffffffffffffffffffffff168152602001737ceb23fd6bc0add59e62ac25578270cff1b9f61973ffffffffffffffffffffffffffffffffffffffff1673ffffffffffffffffffffffffffffffffffffffff168152506002906002620001fb92919062000602565b506040518060400160405280732791bca1f2de4661ed88a30c99a7a9449aa8417473ffffffffffffffffffffffffffffffffffffffff1673ffffffffffffffffffffffffffffffffffffffff168152602001731bfd67037b42cf73acf2047067bd4f2c47d9bfd673ffffffffffffffffffffffffffffffffffffffff1673ffffffffffffffffffffffffffffffffffffffff168152506003906002620002a392919062000602565b506040518060400160405280730d500b1d8e8ef31e21c99d1db9a6444d3adf127073ffffffffffffffffffffffffffffffffffffffff1673ffffffffffffffffffffffffffffffffffffffff168152602001732791bca1f2de4661ed88a30c99a7a9449aa8417473ffffffffffffffffffffffffffffffffffffffff1673ffffffffffffffffffffffffffffffffffffffff1681525060049060026200034b92919062000602565b506040518060400160405280730b3f868e0be5597d5db7feb59e1cadbb0fdda50a73ffffffffffffffffffffffffffffffffffffffff1673ffffffffffffffffffffffffffffffffffffffff168152602001732791bca1f2de4661ed88a30c99a7a9449aa8417473ffffffffffffffffffffffffffffffffffffffff1673ffffffffffffffffffffffffffffffffffffffff168152506005906002620003f392919062000602565b506040518060400160405280737ceb23fd6bc0add59e62ac25578270cff1b9f61973ffffffffffffffffffffffffffffffffffffffff1673ffffffffffffffffffffffffffffffffffffffff168152602001732791bca1f2de4661ed88a30c99a7a9449aa8417473ffffffffffffffffffffffffffffffffffffffff1673ffffffffffffffffffffffffffffffffffffffff1681525060069060026200049b92919062000602565b506040518060400160405280731bfd67037b42cf73acf2047067bd4f2c47d9bfd673ffffffffffffffffffffffffffffffffffffffff1673ffffffffffffffffffffffffffffffffffffffff168152602001732791bca1f2de4661ed88a30c99a7a9449aa8417473ffffffffffffffffffffffffffffffffffffffff1673ffffffffffffffffffffffffffffffffffffffff1681525060079060026200054392919062000602565b50730319000133d3ada02600f0875d2cf03d442c3367600a60006101000a81548173ffffffffffffffffffffffffffffffffffffffff021916908373ffffffffffffffffffffffffffffffffffffffff160217905550731b02da8cb0d097eb8d57a175b88c7d8b47997506600b60006101000a81548173ffffffffffffffffffffffffffffffffffffffff021916908373ffffffffffffffffffffffffffffffffffffffff160217905550348015620005fb57600080fd5b50620006ce565b8280548282559060005260206000209081019282156200067e579160200282015b828111156200067d5782518260006101000a81548173ffffffffffffffffffffffffffffffffffffffff021916908373ffffffffffffffffffffffffffffffffffffffff1602179055509160200191906001019062000623565b5b5090506200068d919062000691565b5090565b5b80821115620006ca57600081816101000a81549073ffffffffffffffffffffffffffffffffffffffff02191690555060010162000692565b5090565b61398b80620006de6000396000f3fe6080604052600436106102975760003560e01c806395e413d81161015a578063cb3601b1116100c1578063e95d83281161007a578063e95d8328146111ef578063ec8def8414611230578063edc46f3d146112b5578063ef455bad146112f6578063f575e0481461135b578063fd829a23146113725761029e565b8063cb3601b114611051578063d48bbd64146110b6578063d58c5b0b146110cd578063d9155b111461110e578063e66c528f14611149578063e93ef21a1461118a5761029e565b8063b6e20a6a11610113578063b6e20a6a14610e99578063ba0cb22b14610eda578063bb09d9b714610f3f578063bdd5915f14610f80578063c3f5a30514610fc1578063ca97090514610fec5761029e565b806395e413d814610c6b578063a15c7d1014610cfa578063a226635714610d5f578063a6c4e46714610d76578063aa5a7aa314610e11578063aee4d1b214610e825761029e565b806344345f23116101fe57806369bc4388116101b757806369bc4388146109d9578063718176e514610a3e578063764f96f914610a7f57806388e42b0814610aec5780638db9f39a14610b2757806390f11e8414610b685761029e565b806344345f23146107c357806345ab6647146108285780634690738c14610881578063494df3a2146108d25780636583530f14610923578063681bcf13146109745761029e565b806324e2e7bb1161025057806324e2e7bb14610551578063277754ed146105a257806329a97ec2146105e357806335c67cd61461065e5780633f5b948b146106f9578063442509551461075e5761029e565b8063040141e5146102a35780630a51faba146102e45780630d36b76b14610325578063123b1154146103b657806316345f181461045157806323e103a8146104b65761029e565b3661029e57005b600080fd5b3480156102af57600080fd5b506102b86113b3565b604051808273ffffffffffffffffffffffffffffffffffffffff16815260200191505060405180910390f35b3480156102f057600080fd5b506102f96113cb565b604051808273ffffffffffffffffffffffffffffffffffffffff16815260200191505060405180910390f35b34801561033157600080fd5b506103b46004803603606081101561034857600080fd5b81019080803573ffffffffffffffffffffffffffffffffffffffff169060200190929190803573ffffffffffffffffffffffffffffffffffffffff169060200190929190803573ffffffffffffffffffffffffffffffffffffffff1690602001909291905050506113e3565b005b3480156103c257600080fd5b5061044f600480360360808110156103d957600080fd5b8101908080359060200190929190803573ffffffffffffffffffffffffffffffffffffffff169060200190929190803573ffffffffffffffffffffffffffffffffffffffff169060200190929190803573ffffffffffffffffffffffffffffffffffffffff1690602001909291905050506115b3565b005b34801561045d57600080fd5b506104a06004803603602081101561047457600080fd5b81019080803573ffffffffffffffffffffffffffffffffffffffff16906020019092919050505061188d565b6040518082815260200191505060405180910390f35b3480156104c257600080fd5b5061054f600480360360808110156104d957600080fd5b8101908080359060200190929190803573ffffffffffffffffffffffffffffffffffffffff169060200190929190803573ffffffffffffffffffffffffffffffffffffffff169060200190929190803573ffffffffffffffffffffffffffffffffffffffff169060200190929190505050611956565b005b34801561055d57600080fd5b506105a06004803603602081101561057457600080fd5b81019080803573ffffffffffffffffffffffffffffffffffffffff169060200190929190505050611a80565b005b3480156105ae57600080fd5b506105b7611e88565b604051808273ffffffffffffffffffffffffffffffffffffffff16815260200191505060405180910390f35b3480156105ef57600080fd5b5061065c6004803603606081101561060657600080fd5b81019080803573ffffffffffffffffffffffffffffffffffffffff169060200190929190803573ffffffffffffffffffffffffffffffffffffffff16906020019092919080359060200190929190505050611ea0565b005b34801561066a57600080fd5b506106f76004803603608081101561068157600080fd5b8101908080359060200190929190803573ffffffffffffffffffffffffffffffffffffffff169060200190929190803573ffffffffffffffffffffffffffffffffffffffff169060200190929190803573ffffffffffffffffffffffffffffffffffffffff169060200190929190505050611f52565b005b34801561070557600080fd5b506107326004803603602081101561071c57600080fd5b810190808035906020019092919050505061207c565b604051808273ffffffffffffffffffffffffffffffffffffffff16815260200191505060405180910390f35b34801561076a57600080fd5b506107c16004803603606081101561078157600080fd5b81019080803573ffffffffffffffffffffffffffffffffffffffff16906020019092919080359060200190929190803590602001909291905050506120b8565b005b3480156107cf57600080fd5b506107fc600480360360208110156107e657600080fd5b810190808035906020019092919050505061222b565b604051808273ffffffffffffffffffffffffffffffffffffffff16815260200191505060405180910390f35b34801561083457600080fd5b5061087f6004803603608081101561084b57600080fd5b8101908080359060200190929190803590602001909291908035906020019092919080359060200190929190505050612267565b005b34801561088d57600080fd5b506108d0600480360360208110156108a457600080fd5b81019080803573ffffffffffffffffffffffffffffffffffffffff1690602001909291905050506122ed565b005b3480156108de57600080fd5b50610921600480360360208110156108f557600080fd5b81019080803573ffffffffffffffffffffffffffffffffffffffff169060200190929190505050612439565b005b34801561092f57600080fd5b506109726004803603602081101561094657600080fd5b81019080803573ffffffffffffffffffffffffffffffffffffffff169060200190929190505050612602565b005b34801561098057600080fd5b506109ad6004803603602081101561099757600080fd5b8101908080359060200190929190505050612693565b604051808273ffffffffffffffffffffffffffffffffffffffff16815260200191505060405180910390f35b3480156109e557600080fd5b50610a12600480360360208110156109fc57600080fd5b81019080803590602001909291905050506126cf565b604051808273ffffffffffffffffffffffffffffffffffffffff16815260200191505060405180910390f35b348015610a4a57600080fd5b50610a5361270b565b604051808273ffffffffffffffffffffffffffffffffffffffff16815260200191505060405180910390f35b348015610a8b57600080fd5b50610aea600480360360c0811015610aa257600080fd5b81019080803590602001909291908035906020019092919080359060200190929190803590602001909291908035906020019092919080359060200190929190505050612723565b005b348015610af857600080fd5b50610b2560048036036020811015610b0f57600080fd5b8101908080359060200190929190505050612aa2565b005b348015610b3357600080fd5b50610b3c612dc0565b604051808273ffffffffffffffffffffffffffffffffffffffff16815260200191505060405180910390f35b348015610b7457600080fd5b50610c69600480360360a0811015610b8b57600080fd5b81019080803590602001909291908035906020019092919080359060200190640100000000811115610bbc57600080fd5b820183602082011115610bce57600080fd5b80359060200191846020830284011164010000000083111715610bf057600080fd5b919080806020026020016040519081016040528093929190818152602001838360200280828437600081840152601f19601f820116905080830192505050505050509192919290803573ffffffffffffffffffffffffffffffffffffffff16906020019092919080359060200190929190505050612dd8565b005b348015610c7757600080fd5b50610ce460048036036060811015610c8e57600080fd5b81019080803573ffffffffffffffffffffffffffffffffffffffff169060200190929190803573ffffffffffffffffffffffffffffffffffffffff16906020019092919080359060200190929190505050612fa1565b6040518082815260200191505060405180910390f35b348015610d0657600080fd5b50610d3360048036036020811015610d1d57600080fd5b8101908080359060200190929190505050612fe8565b604051808273ffffffffffffffffffffffffffffffffffffffff16815260200191505060405180910390f35b348015610d6b57600080fd5b50610d74613024565b005b348015610d8257600080fd5b50610e0f60048036036080811015610d9957600080fd5b81019080803573ffffffffffffffffffffffffffffffffffffffff16906020019092919080359060200190929190803573ffffffffffffffffffffffffffffffffffffffff169060200190929190803573ffffffffffffffffffffffffffffffffffffffff16906020019092919050505061319a565b005b348015610e1d57600080fd5b50610e8060048036036040811015610e3457600080fd5b81019080803573ffffffffffffffffffffffffffffffffffffffff169060200190929190803573ffffffffffffffffffffffffffffffffffffffff16906020019092919050505061328d565b005b348015610e8e57600080fd5b50610e97613343565b005b348015610ea557600080fd5b50610eae6133c7565b604051808273ffffffffffffffffffffffffffffffffffffffff16815260200191505060405180910390f35b348015610ee657600080fd5b50610f2960048036036020811015610efd57600080fd5b81019080803573ffffffffffffffffffffffffffffffffffffffff1690602001909291905050506133df565b6040518082815260200191505060405180910390f35b348015610f4b57600080fd5b50610f54613428565b604051808273ffffffffffffffffffffffffffffffffffffffff16815260200191505060405180910390f35b348015610f8c57600080fd5b50610f95613440565b604051808273ffffffffffffffffffffffffffffffffffffffff16815260200191505060405180910390f35b348015610fcd57600080fd5b50610fd6613458565b6040518082815260200191505060405180910390f35b348015610ff857600080fd5b506110256004803603602081101561100f57600080fd5b810190808035906020019092919050505061345e565b604051808273ffffffffffffffffffffffffffffffffffffffff16815260200191505060405180910390f35b34801561105d57600080fd5b5061108a6004803603602081101561107457600080fd5b810190808035906020019092919050505061349a565b604051808273ffffffffffffffffffffffffffffffffffffffff16815260200191505060405180910390f35b3480156110c257600080fd5b506110cb6134d6565b005b3480156110d957600080fd5b506110e2613570565b604051808273ffffffffffffffffffffffffffffffffffffffff16815260200191505060405180910390f35b34801561111a57600080fd5b506111476004803603602081101561113157600080fd5b8101908080359060200190929190505050613596565b005b34801561115557600080fd5b5061115e6135e0565b604051808273ffffffffffffffffffffffffffffffffffffffff16815260200191505060405180910390f35b34801561119657600080fd5b506111c3600480360360208110156111ad57600080fd5b81019080803590602001909291905050506135f8565b604051808273ffffffffffffffffffffffffffffffffffffffff16815260200191505060405180910390f35b3480156111fb57600080fd5b50611204613634565b604051808273ffffffffffffffffffffffffffffffffffffffff16815260200191505060405180910390f35b34801561123c57600080fd5b5061129f6004803603604081101561125357600080fd5b81019080803573ffffffffffffffffffffffffffffffffffffffff169060200190929190803573ffffffffffffffffffffffffffffffffffffffff16906020019092919050505061364c565b6040518082815260200191505060405180910390f35b3480156112c157600080fd5b506112ca61373d565b604051808273ffffffffffffffffffffffffffffffffffffffff16815260200191505060405180910390f35b34801561130257600080fd5b506113456004803603602081101561131957600080fd5b81019080803573ffffffffffffffffffffffffffffffffffffffff169060200190929190505050613755565b6040518082815260200191505060405180910390f35b34801561136757600080fd5b5061137061376d565b005b34801561137e57600080fd5b50611387613777565b604051808273ffffffffffffffffffffffffffffffffffffffff16815260200191505060405180910390f35b737ceb23fd6bc0add59e62ac25578270cff1b9f61981565b730b3f868e0be5597d5db7feb59e1cadbb0fdda50a81565b600083905060008173ffffffffffffffffffffffffffffffffffffffff166370a08231856040518263ffffffff1660e01b8152600401808273ffffffffffffffffffffffffffffffffffffffff16815260200191505060206040518083038186803b15801561145157600080fd5b505afa158015611465573d6000803e3d6000fd5b505050506040513d602081101561147b57600080fd5b81019080805190602001909291905050509050600a60009054906101000a900473ffffffffffffffffffffffffffffffffffffffff1673ffffffffffffffffffffffffffffffffffffffff166302b9446c8386868560006040518663ffffffff1660e01b8152600401808673ffffffffffffffffffffffffffffffffffffffff1681526020018573ffffffffffffffffffffffffffffffffffffffff1681526020018473ffffffffffffffffffffffffffffffffffffffff168152602001838152602001828152602001955050505050506040805180830381600087803b15801561156557600080fd5b505af1158015611579573d6000803e3d6000fd5b505050506040513d604081101561158f57600080fd5b81019080805190602001909291908051906020019092919050505050505050505050565b6000839050600a60009054906101000a900473ffffffffffffffffffffffffffffffffffffffff1673ffffffffffffffffffffffffffffffffffffffff166302b9446c8285858960006040518663ffffffff1660e01b8152600401808673ffffffffffffffffffffffffffffffffffffffff1681526020018573ffffffffffffffffffffffffffffffffffffffff1681526020018473ffffffffffffffffffffffffffffffffffffffff168152602001838152602001828152602001955050505050506040805180830381600087803b15801561168f57600080fd5b505af11580156116a3573d6000803e3d6000fd5b505050506040513d60408110156116b957600080fd5b81019080805190602001909291908051906020019092919050505050506116e285853030611956565b611715732791bca1f2de4661ed88a30c99a7a9449aa84174731b02da8cb0d097eb8d57a175b88c7d8b4799750687611ea0565b600061174b730d500b1d8e8ef31e21c99d1db9a6444d3adf127073ab594600376ec9fd91f8e885dadf0ce036862de06012612fa1565b90506000611783730b3f868e0be5597d5db7feb59e1cadbb0fdda50a7349b0c695039243bbfeb8ecd054eb70061fd54aa06012612fa1565b905060006117bb737ceb23fd6bc0add59e62ac25578270cff1b9f61973f9680d99d6c9589e2a93a78a04a279e5092059456012612fa1565b905060006117f3731bfd67037b42cf73acf2047067bd4f2c47d9bfd673c907e116054ad103354f2d350fd2514433d57f6f6008612fa1565b9050600061182e8261182085611812888a61379d90919063ffffffff16565b61379d90919063ffffffff16565b61379d90919063ffffffff16565b9050600081111561184c5761184785858585858f612723565b611856565b6118558a612aa2565b5b61185e613024565b60008111156118775761187288828c6120b8565b611881565b61188088612602565b5b50505050505050505050565b6000806000806000808673ffffffffffffffffffffffffffffffffffffffff1663feaf968c6040518163ffffffff1660e01b815260040160a06040518083038186803b1580156118dc57600080fd5b505afa1580156118f0573d6000803e3d6000fd5b505050506040513d60a081101561190657600080fd5b810190808051906020019092919080519060200190929190805190602001909291908051906020019092919080519060200190929190505050945094509450945094508395505050505050919050565b6000839050600a60009054906101000a900473ffffffffffffffffffffffffffffffffffffffff1673ffffffffffffffffffffffffffffffffffffffff166397da6d308285858960006040518663ffffffff1660e01b8152600401808673ffffffffffffffffffffffffffffffffffffffff1681526020018573ffffffffffffffffffffffffffffffffffffffff1681526020018473ffffffffffffffffffffffffffffffffffffffff168152602001838152602001828152602001955050505050506040805180830381600087803b158015611a3257600080fd5b505af1158015611a46573d6000803e3d6000fd5b505050506040513d6040811015611a5c57600080fd5b81019080805190602001909291908051906020019092919050505050505050505050565b6000611b05600854611af7611aa9730d500b1d8e8ef31e21c99d1db9a6444d3adf12703061364c565b600960008773ffffffffffffffffffffffffffffffffffffffff1673ffffffffffffffffffffffffffffffffffffffff1681526020019081526020016000205461382590919063ffffffff16565b6138ab90919063ffffffff16565b90506000611b8c600854611b7e611b30730b3f868e0be5597d5db7feb59e1cadbb0fdda50a3061364c565b600960008873ffffffffffffffffffffffffffffffffffffffff1673ffffffffffffffffffffffffffffffffffffffff1681526020019081526020016000205461382590919063ffffffff16565b6138ab90919063ffffffff16565b90506000611c13600854611c05611bb7737ceb23fd6bc0add59e62ac25578270cff1b9f6193061364c565b600960008973ffffffffffffffffffffffffffffffffffffffff1673ffffffffffffffffffffffffffffffffffffffff1681526020019081526020016000205461382590919063ffffffff16565b6138ab90919063ffffffff16565b90506000611c9a600854611c8c611c3e731bfd67037b42cf73acf2047067bd4f2c47d9bfd63061364c565b600960008a73ffffffffffffffffffffffffffffffffffffffff1673ffffffffffffffffffffffffffffffffffffffff1681526020019081526020016000205461382590919063ffffffff16565b6138ab90919063ffffffff16565b9050611ca884848484612267565b611cda730d500b1d8e8ef31e21c99d1db9a6444d3adf1270731b02da8cb0d097eb8d57a175b88c7d8b4799750661328d565b611d0c730b3f868e0be5597d5db7feb59e1cadbb0fdda50a731b02da8cb0d097eb8d57a175b88c7d8b4799750661328d565b611d3e737ceb23fd6bc0add59e62ac25578270cff1b9f619731b02da8cb0d097eb8d57a175b88c7d8b4799750661328d565b611d70731bfd67037b42cf73acf2047067bd4f2c47d9bfd6731b02da8cb0d097eb8d57a175b88c7d8b4799750661328d565b611d8d730d500b1d8e8ef31e21c99d1db9a6444d3adf1270612439565b611daa730b3f868e0be5597d5db7feb59e1cadbb0fdda50a612439565b611dc7737ceb23fd6bc0add59e62ac25578270cff1b9f619612439565b611de4731bfd67037b42cf73acf2047067bd4f2c47d9bfd6612439565b611e16732791bca1f2de4661ed88a30c99a7a9449aa84174730319000133d3ada02600f0875d2cf03d442c336761328d565b611e35732791bca1f2de4661ed88a30c99a7a9449aa8417430306113e3565b6000611e55732791bca1f2de4661ed88a30c99a7a9449aa841743061364c565b9050611e7781732791bca1f2de4661ed88a30c99a7a9449aa841743089611956565b611e80866122ed565b505050505050565b731b02da8cb0d097eb8d57a175b88c7d8b4799750681565b8273ffffffffffffffffffffffffffffffffffffffff1663095ea7b383836040518363ffffffff1660e01b8152600401808373ffffffffffffffffffffffffffffffffffffffff16815260200182815260200192505050602060405180830381600087803b158015611f1157600080fd5b505af1158015611f25573d6000803e3d6000fd5b505050506040513d6020811015611f3b57600080fd5b810190808051906020019092919050505050505050565b6000839050600a60009054906101000a900473ffffffffffffffffffffffffffffffffffffffff1673ffffffffffffffffffffffffffffffffffffffff166302b9446c8285858960006040518663ffffffff1660e01b8152600401808673ffffffffffffffffffffffffffffffffffffffff1681526020018573ffffffffffffffffffffffffffffffffffffffff1681526020018473ffffffffffffffffffffffffffffffffffffffff168152602001838152602001828152602001955050505050506040805180830381600087803b15801561202e57600080fd5b505af1158015612042573d6000803e3d6000fd5b505050506040513d604081101561205857600080fd5b81019080805190602001909291908051906020019092919050505050505050505050565b6005818154811061208957fe5b906000526020600020016000915054906101000a900473ffffffffffffffffffffffffffffffffffffffff1681565b60006120e1836120d36008548561382590919063ffffffff16565b6138ab90919063ffffffff16565b90506120f88160085461379d90919063ffffffff16565b6008819055506000600960008673ffffffffffffffffffffffffffffffffffffffff1673ffffffffffffffffffffffffffffffffffffffff1681526020019081526020016000205411156121e05761219881600960008773ffffffffffffffffffffffffffffffffffffffff1673ffffffffffffffffffffffffffffffffffffffff1681526020019081526020016000205461379d90919063ffffffff16565b600960008673ffffffffffffffffffffffffffffffffffffffff1673ffffffffffffffffffffffffffffffffffffffff16815260200190815260200160002081905550612225565b80600960008673ffffffffffffffffffffffffffffffffffffffff1673ffffffffffffffffffffffffffffffffffffffff168152602001908152602001600020819055505b50505050565b6006818154811061223857fe5b906000526020600020016000915054906101000a900473ffffffffffffffffffffffffffffffffffffffff1681565b61228784730d500b1d8e8ef31e21c99d1db9a6444d3adf12703030611956565b6122a783730b3f868e0be5597d5db7feb59e1cadbb0fdda50a3030611956565b6122c782737ceb23fd6bc0add59e62ac25578270cff1b9f6193030611956565b6122e781731bfd67037b42cf73acf2047067bd4f2c47d9bfd63030611956565b50505050565b6000600960008373ffffffffffffffffffffffffffffffffffffffff1673ffffffffffffffffffffffffffffffffffffffff16815260200190815260200160002054116123a2576040517f08c379a000000000000000000000000000000000000000000000000000000000815260040180806020018281038252601f8152602001807f4572726f72202d2054686973207573657220686173206e6f207368617265730081525060200191505060405180910390fd5b600960008273ffffffffffffffffffffffffffffffffffffffff1673ffffffffffffffffffffffffffffffffffffffff168152602001908152602001600020546008600082825403925050819055506000600960008373ffffffffffffffffffffffffffffffffffffffff1673ffffffffffffffffffffffffffffffffffffffff1681526020019081526020016000208190555050565b60008173ffffffffffffffffffffffffffffffffffffffff166370a08231306040518263ffffffff1660e01b8152600401808273ffffffffffffffffffffffffffffffffffffffff16815260200191505060206040518083038186803b1580156124a257600080fd5b505afa1580156124b6573d6000803e3d6000fd5b505050506040513d60208110156124cc57600080fd5b810190808051906020019092919050505090506060600267ffffffffffffffff811180156124f957600080fd5b506040519080825280602002602001820160405280156125285781602001602082028036833780820191505090505b509050828160008151811061253957fe5b602002602001019073ffffffffffffffffffffffffffffffffffffffff16908173ffffffffffffffffffffffffffffffffffffffff1681525050732791bca1f2de4661ed88a30c99a7a9449aa841748160018151811061259557fe5b602002602001019073ffffffffffffffffffffffffffffffffffffffff16908173ffffffffffffffffffffffffffffffffffffffff16815250506125fd82600083307fffffffffffffffffffffffffffffffffffffffffffffffffffffffffffffffff612dd8565b505050565b6305f5e100600960008373ffffffffffffffffffffffffffffffffffffffff1673ffffffffffffffffffffffffffffffffffffffff16815260200190815260200160002081905550600960008273ffffffffffffffffffffffffffffffffffffffff1673ffffffffffffffffffffffffffffffffffffffff1681526020019081526020016000205460088190555050565b600481815481106126a057fe5b906000526020600020016000915054906101000a900473ffffffffffffffffffffffffffffffffffffffff1681565b600081815481106126dc57fe5b906000526020600020016000915054906101000a900473ffffffffffffffffffffffffffffffffffffffff1681565b73f9680d99d6c9589e2a93a78a04a279e50920594581565b600061274a8361273c848a61382590919063ffffffff16565b6138ab90919063ffffffff16565b9050600061277384612765858a61382590919063ffffffff16565b6138ab90919063ffffffff16565b9050600061279c8561278e868a61382590919063ffffffff16565b6138ab90919063ffffffff16565b905060006127c5866127b7878a61382590919063ffffffff16565b6138ab90919063ffffffff16565b905061287a8460008080548060200260200160405190810160405280929190818152602001828054801561284e57602002820191906000526020600020905b8160009054906101000a900473ffffffffffffffffffffffffffffffffffffffff1673ffffffffffffffffffffffffffffffffffffffff1681526020019060010190808311612804575b5050505050307fffffffffffffffffffffffffffffffffffffffffffffffffffffffffffffffff612dd8565b61292e836000600180548060200260200160405190810160405280929190818152602001828054801561290257602002820191906000526020600020905b8160009054906101000a900473ffffffffffffffffffffffffffffffffffffffff1673ffffffffffffffffffffffffffffffffffffffff16815260200190600101908083116128b8575b5050505050307fffffffffffffffffffffffffffffffffffffffffffffffffffffffffffffffff612dd8565b6129e282600060028054806020026020016040519081016040528092919081815260200182805480156129b657602002820191906000526020600020905b8160009054906101000a900473ffffffffffffffffffffffffffffffffffffffff1673ffffffffffffffffffffffffffffffffffffffff168152602001906001019080831161296c575b5050505050307fffffffffffffffffffffffffffffffffffffffffffffffffffffffffffffffff612dd8565b612a968160006003805480602002602001604051908101604052809291908181526020018280548015612a6a57602002820191906000526020600020905b8160009054906101000a900473ffffffffffffffffffffffffffffffffffffffff1673ffffffffffffffffffffffffffffffffffffffff1681526020019060010190808311612a20575b5050505050307fffffffffffffffffffffffffffffffffffffffffffffffffffffffffffffffff612dd8565b50505050505050505050565b612b68612ab96004836138ab90919063ffffffff16565b600080805480602002602001604051908101604052809291908181526020018280548015612b3c57602002820191906000526020600020905b8160009054906101000a900473ffffffffffffffffffffffffffffffffffffffff1673ffffffffffffffffffffffffffffffffffffffff1681526020019060010190808311612af2575b5050505050307fffffffffffffffffffffffffffffffffffffffffffffffffffffffffffffffff612dd8565b612c2f612b7f6004836138ab90919063ffffffff16565b60006001805480602002602001604051908101604052809291908181526020018280548015612c0357602002820191906000526020600020905b8160009054906101000a900473ffffffffffffffffffffffffffffffffffffffff1673ffffffffffffffffffffffffffffffffffffffff1681526020019060010190808311612bb9575b5050505050307fffffffffffffffffffffffffffffffffffffffffffffffffffffffffffffffff612dd8565b612cf6612c466004836138ab90919063ffffffff16565b60006002805480602002602001604051908101604052809291908181526020018280548015612cca57602002820191906000526020600020905b8160009054906101000a900473ffffffffffffffffffffffffffffffffffffffff1673ffffffffffffffffffffffffffffffffffffffff1681526020019060010190808311612c80575b5050505050307fffffffffffffffffffffffffffffffffffffffffffffffffffffffffffffffff612dd8565b612dbd612d0d6004836138ab90919063ffffffff16565b60006003805480602002602001604051908101604052809291908181526020018280548015612d9157602002820191906000526020600020905b8160009054906101000a900473ffffffffffffffffffffffffffffffffffffffff1673ffffffffffffffffffffffffffffffffffffffff1681526020019060010190808311612d47575b5050505050307fffffffffffffffffffffffffffffffffffffffffffffffffffffffffffffffff612dd8565b50565b73ab594600376ec9fd91f8e885dadf0ce036862de081565b600b60009054906101000a900473ffffffffffffffffffffffffffffffffffffffff1673ffffffffffffffffffffffffffffffffffffffff166338ed173986868686866040518663ffffffff1660e01b815260040180868152602001858152602001806020018473ffffffffffffffffffffffffffffffffffffffff168152602001838152602001828103825285818151815260200191508051906020019060200280838360005b83811015612e9b578082015181840152602081019050612e80565b505050509050019650505050505050600060405180830381600087803b158015612ec457600080fd5b505af1158015612ed8573d6000803e3d6000fd5b505050506040513d6000823e3d601f19601f820116820180604052506020811015612f0257600080fd5b8101908080516040519392919084640100000000821115612f2257600080fd5b83820191506020820185811115612f3857600080fd5b8251866020820283011164010000000082111715612f5557600080fd5b8083526020830192505050908051906020019060200280838360005b83811015612f8c578082015181840152602081019050612f71565b50505050905001604052505050505050505050565b6000612fdf60028301600a0a612fd1612fb98661188d565b612fc3883061364c565b61382590919063ffffffff16565b6138ab90919063ffffffff16565b90509392505050565b60038181548110612ff557fe5b906000526020600020016000915054906101000a900473ffffffffffffffffffffffffffffffffffffffff1681565b613062730d500b1d8e8ef31e21c99d1db9a6444d3adf1270730319000133d3ada02600f0875d2cf03d442c33676a0845951614014849ffffff611ea0565b613081730d500b1d8e8ef31e21c99d1db9a6444d3adf127030306113e3565b6130bf730b3f868e0be5597d5db7feb59e1cadbb0fdda50a730319000133d3ada02600f0875d2cf03d442c33676a0845951614014849ffffff611ea0565b6130de730b3f868e0be5597d5db7feb59e1cadbb0fdda50a30306113e3565b61311c737ceb23fd6bc0add59e62ac25578270cff1b9f619730319000133d3ada02600f0875d2cf03d442c33676a0845951614014849ffffff611ea0565b61313b737ceb23fd6bc0add59e62ac25578270cff1b9f61930306113e3565b613179731bfd67037b42cf73acf2047067bd4f2c47d9bfd6730319000133d3ada02600f0875d2cf03d442c33676a0845951614014849ffffff611ea0565b613198731bfd67037b42cf73acf2047067bd4f2c47d9bfd630306113e3565b565b6000849050600a60009054906101000a900473ffffffffffffffffffffffffffffffffffffffff1673ffffffffffffffffffffffffffffffffffffffff1663f18d03cc828585886040518563ffffffff1660e01b8152600401808573ffffffffffffffffffffffffffffffffffffffff1681526020018473ffffffffffffffffffffffffffffffffffffffff1681526020018373ffffffffffffffffffffffffffffffffffffffff168152602001828152602001945050505050600060405180830381600087803b15801561326e57600080fd5b505af1158015613282573d6000803e3d6000fd5b505050505050505050565b60008273ffffffffffffffffffffffffffffffffffffffff166370a08231306040518263ffffffff1660e01b8152600401808273ffffffffffffffffffffffffffffffffffffffff16815260200191505060206040518083038186803b1580156132f657600080fd5b505afa15801561330a573d6000803e3d6000fd5b505050506040513d602081101561332057600080fd5b8101908080519060200190929190505050905061333e838383611ea0565b505050565b600a60009054906101000a900473ffffffffffffffffffffffffffffffffffffffff1673ffffffffffffffffffffffffffffffffffffffff1663aee4d1b26040518163ffffffff1660e01b8152600401600060405180830381600087803b1580156133ad57600080fd5b505af11580156133c1573d6000803e3d6000fd5b50505050565b73c907e116054ad103354f2d350fd2514433d57f6f81565b6000600960008373ffffffffffffffffffffffffffffffffffffffff1673ffffffffffffffffffffffffffffffffffffffff168152602001908152602001600020549050919050565b732791bca1f2de4661ed88a30c99a7a9449aa8417481565b731bfd67037b42cf73acf2047067bd4f2c47d9bfd681565b60085481565b6007818154811061346b57fe5b906000526020600020016000915054906101000a900473ffffffffffffffffffffffffffffffffffffffff1681565b600281815481106134a757fe5b906000526020600020016000915054906101000a900473ffffffffffffffffffffffffffffffffffffffff1681565b60006134f6730d500b1d8e8ef31e21c99d1db9a6444d3adf12703061364c565b90506000613518730b3f868e0be5597d5db7feb59e1cadbb0fdda50a3061364c565b9050600061353a737ceb23fd6bc0add59e62ac25578270cff1b9f6193061364c565b9050600061355c731bfd67037b42cf73acf2047067bd4f2c47d9bfd63061364c565b905061356a84848484612267565b50505050565b600a60009054906101000a900473ffffffffffffffffffffffffffffffffffffffff1681565b3373ffffffffffffffffffffffffffffffffffffffff166108fc829081150290604051600060405180830381858888f193505050501580156135dc573d6000803e3d6000fd5b5050565b7349b0c695039243bbfeb8ecd054eb70061fd54aa081565b6001818154811061360557fe5b906000526020600020016000915054906101000a900473ffffffffffffffffffffffffffffffffffffffff1681565b730d500b1d8e8ef31e21c99d1db9a6444d3adf127081565b600080839050600a60009054906101000a900473ffffffffffffffffffffffffffffffffffffffff1673ffffffffffffffffffffffffffffffffffffffff1663f7888aec82856040518363ffffffff1660e01b8152600401808373ffffffffffffffffffffffffffffffffffffffff1681526020018273ffffffffffffffffffffffffffffffffffffffff1681526020019250505060206040518083038186803b1580156136f957600080fd5b505afa15801561370d573d6000803e3d6000fd5b505050506040513d602081101561372357600080fd5b810190808051906020019092919050505091505092915050565b730319000133d3ada02600f0875d2cf03d442c336781565b60096020528060005260406000206000915090505481565b613775613024565b565b600b60009054906101000a900473ffffffffffffffffffffffffffffffffffffffff1681565b60008082840190508381101561381b576040517f08c379a000000000000000000000000000000000000000000000000000000000815260040180806020018281038252601b8152602001807f536166654d6174683a206164646974696f6e206f766572666c6f77000000000081525060200191505060405180910390fd5b8091505092915050565b60008083141561383857600090506138a5565b600082840290508284828161384957fe5b04146138a0576040517f08c379a00000000000000000000000000000000000000000000000000000000081526004018080602001828103825260218152602001806139356021913960400191505060405180910390fd5b809150505b92915050565b6000808211613922576040517f08c379a000000000000000000000000000000000000000000000000000000000815260040180806020018281038252601a8152602001807f536166654d6174683a206469766973696f6e206279207a65726f00000000000081525060200191505060405180910390fd5b81838161392b57fe5b0490509291505056fe536166654d6174683a206d756c7469706c69636174696f6e206f766572666c6f77a264697066735822122000217e43ebec7d94158ac374668a6f841ae76bde6f5b2c90f926a0e790793a3e64736f6c634300060c0033",
					"opcodes": "PUSH1 0x80 PUSH1 0x40 MSTORE PUSH1 0x40 MLOAD DUP1 PUSH1 0x40 ADD PUSH1 0x40 MSTORE DUP1 PUSH20 0x2791BCA1F2DE4661ED88A30C99A7A9449AA84174 PUSH20 0xFFFFFFFFFFFFFFFFFFFFFFFFFFFFFFFFFFFFFFFF AND PUSH20 0xFFFFFFFFFFFFFFFFFFFFFFFFFFFFFFFFFFFFFFFF AND DUP2 MSTORE PUSH1 0x20 ADD PUSH20 0xD500B1D8E8EF31E21C99D1DB9A6444D3ADF1270 PUSH20 0xFFFFFFFFFFFFFFFFFFFFFFFFFFFFFFFFFFFFFFFF AND PUSH20 0xFFFFFFFFFFFFFFFFFFFFFFFFFFFFFFFFFFFFFFFF AND DUP2 MSTORE POP PUSH1 0x0 SWAP1 PUSH1 0x2 PUSH3 0xAB SWAP3 SWAP2 SWAP1 PUSH3 0x602 JUMP JUMPDEST POP PUSH1 0x40 MLOAD DUP1 PUSH1 0x40 ADD PUSH1 0x40 MSTORE DUP1 PUSH20 0x2791BCA1F2DE4661ED88A30C99A7A9449AA84174 PUSH20 0xFFFFFFFFFFFFFFFFFFFFFFFFFFFFFFFFFFFFFFFF AND PUSH20 0xFFFFFFFFFFFFFFFFFFFFFFFFFFFFFFFFFFFFFFFF AND DUP2 MSTORE PUSH1 0x20 ADD PUSH20 0xB3F868E0BE5597D5DB7FEB59E1CADBB0FDDA50A PUSH20 0xFFFFFFFFFFFFFFFFFFFFFFFFFFFFFFFFFFFFFFFF AND PUSH20 0xFFFFFFFFFFFFFFFFFFFFFFFFFFFFFFFFFFFFFFFF AND DUP2 MSTORE POP PUSH1 0x1 SWAP1 PUSH1 0x2 PUSH3 0x153 SWAP3 SWAP2 SWAP1 PUSH3 0x602 JUMP JUMPDEST POP PUSH1 0x40 MLOAD DUP1 PUSH1 0x40 ADD PUSH1 0x40 MSTORE DUP1 PUSH20 0x2791BCA1F2DE4661ED88A30C99A7A9449AA84174 PUSH20 0xFFFFFFFFFFFFFFFFFFFFFFFFFFFFFFFFFFFFFFFF AND PUSH20 0xFFFFFFFFFFFFFFFFFFFFFFFFFFFFFFFFFFFFFFFF AND DUP2 MSTORE PUSH1 0x20 ADD PUSH20 0x7CEB23FD6BC0ADD59E62AC25578270CFF1B9F619 PUSH20 0xFFFFFFFFFFFFFFFFFFFFFFFFFFFFFFFFFFFFFFFF AND PUSH20 0xFFFFFFFFFFFFFFFFFFFFFFFFFFFFFFFFFFFFFFFF AND DUP2 MSTORE POP PUSH1 0x2 SWAP1 PUSH1 0x2 PUSH3 0x1FB SWAP3 SWAP2 SWAP1 PUSH3 0x602 JUMP JUMPDEST POP PUSH1 0x40 MLOAD DUP1 PUSH1 0x40 ADD PUSH1 0x40 MSTORE DUP1 PUSH20 0x2791BCA1F2DE4661ED88A30C99A7A9449AA84174 PUSH20 0xFFFFFFFFFFFFFFFFFFFFFFFFFFFFFFFFFFFFFFFF AND PUSH20 0xFFFFFFFFFFFFFFFFFFFFFFFFFFFFFFFFFFFFFFFF AND DUP2 MSTORE PUSH1 0x20 ADD PUSH20 0x1BFD67037B42CF73ACF2047067BD4F2C47D9BFD6 PUSH20 0xFFFFFFFFFFFFFFFFFFFFFFFFFFFFFFFFFFFFFFFF AND PUSH20 0xFFFFFFFFFFFFFFFFFFFFFFFFFFFFFFFFFFFFFFFF AND DUP2 MSTORE POP PUSH1 0x3 SWAP1 PUSH1 0x2 PUSH3 0x2A3 SWAP3 SWAP2 SWAP1 PUSH3 0x602 JUMP JUMPDEST POP PUSH1 0x40 MLOAD DUP1 PUSH1 0x40 ADD PUSH1 0x40 MSTORE DUP1 PUSH20 0xD500B1D8E8EF31E21C99D1DB9A6444D3ADF1270 PUSH20 0xFFFFFFFFFFFFFFFFFFFFFFFFFFFFFFFFFFFFFFFF AND PUSH20 0xFFFFFFFFFFFFFFFFFFFFFFFFFFFFFFFFFFFFFFFF AND DUP2 MSTORE PUSH1 0x20 ADD PUSH20 0x2791BCA1F2DE4661ED88A30C99A7A9449AA84174 PUSH20 0xFFFFFFFFFFFFFFFFFFFFFFFFFFFFFFFFFFFFFFFF AND PUSH20 0xFFFFFFFFFFFFFFFFFFFFFFFFFFFFFFFFFFFFFFFF AND DUP2 MSTORE POP PUSH1 0x4 SWAP1 PUSH1 0x2 PUSH3 0x34B SWAP3 SWAP2 SWAP1 PUSH3 0x602 JUMP JUMPDEST POP PUSH1 0x40 MLOAD DUP1 PUSH1 0x40 ADD PUSH1 0x40 MSTORE DUP1 PUSH20 0xB3F868E0BE5597D5DB7FEB59E1CADBB0FDDA50A PUSH20 0xFFFFFFFFFFFFFFFFFFFFFFFFFFFFFFFFFFFFFFFF AND PUSH20 0xFFFFFFFFFFFFFFFFFFFFFFFFFFFFFFFFFFFFFFFF AND DUP2 MSTORE PUSH1 0x20 ADD PUSH20 0x2791BCA1F2DE4661ED88A30C99A7A9449AA84174 PUSH20 0xFFFFFFFFFFFFFFFFFFFFFFFFFFFFFFFFFFFFFFFF AND PUSH20 0xFFFFFFFFFFFFFFFFFFFFFFFFFFFFFFFFFFFFFFFF AND DUP2 MSTORE POP PUSH1 0x5 SWAP1 PUSH1 0x2 PUSH3 0x3F3 SWAP3 SWAP2 SWAP1 PUSH3 0x602 JUMP JUMPDEST POP PUSH1 0x40 MLOAD DUP1 PUSH1 0x40 ADD PUSH1 0x40 MSTORE DUP1 PUSH20 0x7CEB23FD6BC0ADD59E62AC25578270CFF1B9F619 PUSH20 0xFFFFFFFFFFFFFFFFFFFFFFFFFFFFFFFFFFFFFFFF AND PUSH20 0xFFFFFFFFFFFFFFFFFFFFFFFFFFFFFFFFFFFFFFFF AND DUP2 MSTORE PUSH1 0x20 ADD PUSH20 0x2791BCA1F2DE4661ED88A30C99A7A9449AA84174 PUSH20 0xFFFFFFFFFFFFFFFFFFFFFFFFFFFFFFFFFFFFFFFF AND PUSH20 0xFFFFFFFFFFFFFFFFFFFFFFFFFFFFFFFFFFFFFFFF AND DUP2 MSTORE POP PUSH1 0x6 SWAP1 PUSH1 0x2 PUSH3 0x49B SWAP3 SWAP2 SWAP1 PUSH3 0x602 JUMP JUMPDEST POP PUSH1 0x40 MLOAD DUP1 PUSH1 0x40 ADD PUSH1 0x40 MSTORE DUP1 PUSH20 0x1BFD67037B42CF73ACF2047067BD4F2C47D9BFD6 PUSH20 0xFFFFFFFFFFFFFFFFFFFFFFFFFFFFFFFFFFFFFFFF AND PUSH20 0xFFFFFFFFFFFFFFFFFFFFFFFFFFFFFFFFFFFFFFFF AND DUP2 MSTORE PUSH1 0x20 ADD PUSH20 0x2791BCA1F2DE4661ED88A30C99A7A9449AA84174 PUSH20 0xFFFFFFFFFFFFFFFFFFFFFFFFFFFFFFFFFFFFFFFF AND PUSH20 0xFFFFFFFFFFFFFFFFFFFFFFFFFFFFFFFFFFFFFFFF AND DUP2 MSTORE POP PUSH1 0x7 SWAP1 PUSH1 0x2 PUSH3 0x543 SWAP3 SWAP2 SWAP1 PUSH3 0x602 JUMP JUMPDEST POP PUSH20 0x319000133D3ADA02600F0875D2CF03D442C3367 PUSH1 0xA PUSH1 0x0 PUSH2 0x100 EXP DUP2 SLOAD DUP2 PUSH20 0xFFFFFFFFFFFFFFFFFFFFFFFFFFFFFFFFFFFFFFFF MUL NOT AND SWAP1 DUP4 PUSH20 0xFFFFFFFFFFFFFFFFFFFFFFFFFFFFFFFFFFFFFFFF AND MUL OR SWAP1 SSTORE POP PUSH20 0x1B02DA8CB0D097EB8D57A175B88C7D8B47997506 PUSH1 0xB PUSH1 0x0 PUSH2 0x100 EXP DUP2 SLOAD DUP2 PUSH20 0xFFFFFFFFFFFFFFFFFFFFFFFFFFFFFFFFFFFFFFFF MUL NOT AND SWAP1 DUP4 PUSH20 0xFFFFFFFFFFFFFFFFFFFFFFFFFFFFFFFFFFFFFFFF AND MUL OR SWAP1 SSTORE POP CALLVALUE DUP1 ISZERO PUSH3 0x5FB JUMPI PUSH1 0x0 DUP1 REVERT JUMPDEST POP PUSH3 0x6CE JUMP JUMPDEST DUP3 DUP1 SLOAD DUP3 DUP3 SSTORE SWAP1 PUSH1 0x0 MSTORE PUSH1 0x20 PUSH1 0x0 KECCAK256 SWAP1 DUP2 ADD SWAP3 DUP3 ISZERO PUSH3 0x67E JUMPI SWAP2 PUSH1 0x20 MUL DUP3 ADD JUMPDEST DUP3 DUP2 GT ISZERO PUSH3 0x67D JUMPI DUP3 MLOAD DUP3 PUSH1 0x0 PUSH2 0x100 EXP DUP2 SLOAD DUP2 PUSH20 0xFFFFFFFFFFFFFFFFFFFFFFFFFFFFFFFFFFFFFFFF MUL NOT AND SWAP1 DUP4 PUSH20 0xFFFFFFFFFFFFFFFFFFFFFFFFFFFFFFFFFFFFFFFF AND MUL OR SWAP1 SSTORE POP SWAP2 PUSH1 0x20 ADD SWAP2 SWAP1 PUSH1 0x1 ADD SWAP1 PUSH3 0x623 JUMP JUMPDEST JUMPDEST POP SWAP1 POP PUSH3 0x68D SWAP2 SWAP1 PUSH3 0x691 JUMP JUMPDEST POP SWAP1 JUMP JUMPDEST JUMPDEST DUP1 DUP3 GT ISZERO PUSH3 0x6CA JUMPI PUSH1 0x0 DUP2 DUP2 PUSH2 0x100 EXP DUP2 SLOAD SWAP1 PUSH20 0xFFFFFFFFFFFFFFFFFFFFFFFFFFFFFFFFFFFFFFFF MUL NOT AND SWAP1 SSTORE POP PUSH1 0x1 ADD PUSH3 0x692 JUMP JUMPDEST POP SWAP1 JUMP JUMPDEST PUSH2 0x398B DUP1 PUSH3 0x6DE PUSH1 0x0 CODECOPY PUSH1 0x0 RETURN INVALID PUSH1 0x80 PUSH1 0x40 MSTORE PUSH1 0x4 CALLDATASIZE LT PUSH2 0x297 JUMPI PUSH1 0x0 CALLDATALOAD PUSH1 0xE0 SHR DUP1 PUSH4 0x95E413D8 GT PUSH2 0x15A JUMPI DUP1 PUSH4 0xCB3601B1 GT PUSH2 0xC1 JUMPI DUP1 PUSH4 0xE95D8328 GT PUSH2 0x7A JUMPI DUP1 PUSH4 0xE95D8328 EQ PUSH2 0x11EF JUMPI DUP1 PUSH4 0xEC8DEF84 EQ PUSH2 0x1230 JUMPI DUP1 PUSH4 0xEDC46F3D EQ PUSH2 0x12B5 JUMPI DUP1 PUSH4 0xEF455BAD EQ PUSH2 0x12F6 JUMPI DUP1 PUSH4 0xF575E048 EQ PUSH2 0x135B JUMPI DUP1 PUSH4 0xFD829A23 EQ PUSH2 0x1372 JUMPI PUSH2 0x29E JUMP JUMPDEST DUP1 PUSH4 0xCB3601B1 EQ PUSH2 0x1051 JUMPI DUP1 PUSH4 0xD48BBD64 EQ PUSH2 0x10B6 JUMPI DUP1 PUSH4 0xD58C5B0B EQ PUSH2 0x10CD JUMPI DUP1 PUSH4 0xD9155B11 EQ PUSH2 0x110E JUMPI DUP1 PUSH4 0xE66C528F EQ PUSH2 0x1149 JUMPI DUP1 PUSH4 0xE93EF21A EQ PUSH2 0x118A JUMPI PUSH2 0x29E JUMP JUMPDEST DUP1 PUSH4 0xB6E20A6A GT PUSH2 0x113 JUMPI DUP1 PUSH4 0xB6E20A6A EQ PUSH2 0xE99 JUMPI DUP1 PUSH4 0xBA0CB22B EQ PUSH2 0xEDA JUMPI DUP1 PUSH4 0xBB09D9B7 EQ PUSH2 0xF3F JUMPI DUP1 PUSH4 0xBDD5915F EQ PUSH2 0xF80 JUMPI DUP1 PUSH4 0xC3F5A305 EQ PUSH2 0xFC1 JUMPI DUP1 PUSH4 0xCA970905 EQ PUSH2 0xFEC JUMPI PUSH2 0x29E JUMP JUMPDEST DUP1 PUSH4 0x95E413D8 EQ PUSH2 0xC6B JUMPI DUP1 PUSH4 0xA15C7D10 EQ PUSH2 0xCFA JUMPI DUP1 PUSH4 0xA2266357 EQ PUSH2 0xD5F JUMPI DUP1 PUSH4 0xA6C4E467 EQ PUSH2 0xD76 JUMPI DUP1 PUSH4 0xAA5A7AA3 EQ PUSH2 0xE11 JUMPI DUP1 PUSH4 0xAEE4D1B2 EQ PUSH2 0xE82 JUMPI PUSH2 0x29E JUMP JUMPDEST DUP1 PUSH4 0x44345F23 GT PUSH2 0x1FE JUMPI DUP1 PUSH4 0x69BC4388 GT PUSH2 0x1B7 JUMPI DUP1 PUSH4 0x69BC4388 EQ PUSH2 0x9D9 JUMPI DUP1 PUSH4 0x718176E5 EQ PUSH2 0xA3E JUMPI DUP1 PUSH4 0x764F96F9 EQ PUSH2 0xA7F JUMPI DUP1 PUSH4 0x88E42B08 EQ PUSH2 0xAEC JUMPI DUP1 PUSH4 0x8DB9F39A EQ PUSH2 0xB27 JUMPI DUP1 PUSH4 0x90F11E84 EQ PUSH2 0xB68 JUMPI PUSH2 0x29E JUMP JUMPDEST DUP1 PUSH4 0x44345F23 EQ PUSH2 0x7C3 JUMPI DUP1 PUSH4 0x45AB6647 EQ PUSH2 0x828 JUMPI DUP1 PUSH4 0x4690738C EQ PUSH2 0x881 JUMPI DUP1 PUSH4 0x494DF3A2 EQ PUSH2 0x8D2 JUMPI DUP1 PUSH4 0x6583530F EQ PUSH2 0x923 JUMPI DUP1 PUSH4 0x681BCF13 EQ PUSH2 0x974 JUMPI PUSH2 0x29E JUMP JUMPDEST DUP1 PUSH4 0x24E2E7BB GT PUSH2 0x250 JUMPI DUP1 PUSH4 0x24E2E7BB EQ PUSH2 0x551 JUMPI DUP1 PUSH4 0x277754ED EQ PUSH2 0x5A2 JUMPI DUP1 PUSH4 0x29A97EC2 EQ PUSH2 0x5E3 JUMPI DUP1 PUSH4 0x35C67CD6 EQ PUSH2 0x65E JUMPI DUP1 PUSH4 0x3F5B948B EQ PUSH2 0x6F9 JUMPI DUP1 PUSH4 0x44250955 EQ PUSH2 0x75E JUMPI PUSH2 0x29E JUMP JUMPDEST DUP1 PUSH4 0x40141E5 EQ PUSH2 0x2A3 JUMPI DUP1 PUSH4 0xA51FABA EQ PUSH2 0x2E4 JUMPI DUP1 PUSH4 0xD36B76B EQ PUSH2 0x325 JUMPI DUP1 PUSH4 0x123B1154 EQ PUSH2 0x3B6 JUMPI DUP1 PUSH4 0x16345F18 EQ PUSH2 0x451 JUMPI DUP1 PUSH4 0x23E103A8 EQ PUSH2 0x4B6 JUMPI PUSH2 0x29E JUMP JUMPDEST CALLDATASIZE PUSH2 0x29E JUMPI STOP JUMPDEST PUSH1 0x0 DUP1 REVERT JUMPDEST CALLVALUE DUP1 ISZERO PUSH2 0x2AF JUMPI PUSH1 0x0 DUP1 REVERT JUMPDEST POP PUSH2 0x2B8 PUSH2 0x13B3 JUMP JUMPDEST PUSH1 0x40 MLOAD DUP1 DUP3 PUSH20 0xFFFFFFFFFFFFFFFFFFFFFFFFFFFFFFFFFFFFFFFF AND DUP2 MSTORE PUSH1 0x20 ADD SWAP2 POP POP PUSH1 0x40 MLOAD DUP1 SWAP2 SUB SWAP1 RETURN JUMPDEST CALLVALUE DUP1 ISZERO PUSH2 0x2F0 JUMPI PUSH1 0x0 DUP1 REVERT JUMPDEST POP PUSH2 0x2F9 PUSH2 0x13CB JUMP JUMPDEST PUSH1 0x40 MLOAD DUP1 DUP3 PUSH20 0xFFFFFFFFFFFFFFFFFFFFFFFFFFFFFFFFFFFFFFFF AND DUP2 MSTORE PUSH1 0x20 ADD SWAP2 POP POP PUSH1 0x40 MLOAD DUP1 SWAP2 SUB SWAP1 RETURN JUMPDEST CALLVALUE DUP1 ISZERO PUSH2 0x331 JUMPI PUSH1 0x0 DUP1 REVERT JUMPDEST POP PUSH2 0x3B4 PUSH1 0x4 DUP1 CALLDATASIZE SUB PUSH1 0x60 DUP2 LT ISZERO PUSH2 0x348 JUMPI PUSH1 0x0 DUP1 REVERT JUMPDEST DUP2 ADD SWAP1 DUP1 DUP1 CALLDATALOAD PUSH20 0xFFFFFFFFFFFFFFFFFFFFFFFFFFFFFFFFFFFFFFFF AND SWAP1 PUSH1 0x20 ADD SWAP1 SWAP3 SWAP2 SWAP1 DUP1 CALLDATALOAD PUSH20 0xFFFFFFFFFFFFFFFFFFFFFFFFFFFFFFFFFFFFFFFF AND SWAP1 PUSH1 0x20 ADD SWAP1 SWAP3 SWAP2 SWAP1 DUP1 CALLDATALOAD PUSH20 0xFFFFFFFFFFFFFFFFFFFFFFFFFFFFFFFFFFFFFFFF AND SWAP1 PUSH1 0x20 ADD SWAP1 SWAP3 SWAP2 SWAP1 POP POP POP PUSH2 0x13E3 JUMP JUMPDEST STOP JUMPDEST CALLVALUE DUP1 ISZERO PUSH2 0x3C2 JUMPI PUSH1 0x0 DUP1 REVERT JUMPDEST POP PUSH2 0x44F PUSH1 0x4 DUP1 CALLDATASIZE SUB PUSH1 0x80 DUP2 LT ISZERO PUSH2 0x3D9 JUMPI PUSH1 0x0 DUP1 REVERT JUMPDEST DUP2 ADD SWAP1 DUP1 DUP1 CALLDATALOAD SWAP1 PUSH1 0x20 ADD SWAP1 SWAP3 SWAP2 SWAP1 DUP1 CALLDATALOAD PUSH20 0xFFFFFFFFFFFFFFFFFFFFFFFFFFFFFFFFFFFFFFFF AND SWAP1 PUSH1 0x20 ADD SWAP1 SWAP3 SWAP2 SWAP1 DUP1 CALLDATALOAD PUSH20 0xFFFFFFFFFFFFFFFFFFFFFFFFFFFFFFFFFFFFFFFF AND SWAP1 PUSH1 0x20 ADD SWAP1 SWAP3 SWAP2 SWAP1 DUP1 CALLDATALOAD PUSH20 0xFFFFFFFFFFFFFFFFFFFFFFFFFFFFFFFFFFFFFFFF AND SWAP1 PUSH1 0x20 ADD SWAP1 SWAP3 SWAP2 SWAP1 POP POP POP PUSH2 0x15B3 JUMP JUMPDEST STOP JUMPDEST CALLVALUE DUP1 ISZERO PUSH2 0x45D JUMPI PUSH1 0x0 DUP1 REVERT JUMPDEST POP PUSH2 0x4A0 PUSH1 0x4 DUP1 CALLDATASIZE SUB PUSH1 0x20 DUP2 LT ISZERO PUSH2 0x474 JUMPI PUSH1 0x0 DUP1 REVERT JUMPDEST DUP2 ADD SWAP1 DUP1 DUP1 CALLDATALOAD PUSH20 0xFFFFFFFFFFFFFFFFFFFFFFFFFFFFFFFFFFFFFFFF AND SWAP1 PUSH1 0x20 ADD SWAP1 SWAP3 SWAP2 SWAP1 POP POP POP PUSH2 0x188D JUMP JUMPDEST PUSH1 0x40 MLOAD DUP1 DUP3 DUP2 MSTORE PUSH1 0x20 ADD SWAP2 POP POP PUSH1 0x40 MLOAD DUP1 SWAP2 SUB SWAP1 RETURN JUMPDEST CALLVALUE DUP1 ISZERO PUSH2 0x4C2 JUMPI PUSH1 0x0 DUP1 REVERT JUMPDEST POP PUSH2 0x54F PUSH1 0x4 DUP1 CALLDATASIZE SUB PUSH1 0x80 DUP2 LT ISZERO PUSH2 0x4D9 JUMPI PUSH1 0x0 DUP1 REVERT JUMPDEST DUP2 ADD SWAP1 DUP1 DUP1 CALLDATALOAD SWAP1 PUSH1 0x20 ADD SWAP1 SWAP3 SWAP2 SWAP1 DUP1 CALLDATALOAD PUSH20 0xFFFFFFFFFFFFFFFFFFFFFFFFFFFFFFFFFFFFFFFF AND SWAP1 PUSH1 0x20 ADD SWAP1 SWAP3 SWAP2 SWAP1 DUP1 CALLDATALOAD PUSH20 0xFFFFFFFFFFFFFFFFFFFFFFFFFFFFFFFFFFFFFFFF AND SWAP1 PUSH1 0x20 ADD SWAP1 SWAP3 SWAP2 SWAP1 DUP1 CALLDATALOAD PUSH20 0xFFFFFFFFFFFFFFFFFFFFFFFFFFFFFFFFFFFFFFFF AND SWAP1 PUSH1 0x20 ADD SWAP1 SWAP3 SWAP2 SWAP1 POP POP POP PUSH2 0x1956 JUMP JUMPDEST STOP JUMPDEST CALLVALUE DUP1 ISZERO PUSH2 0x55D JUMPI PUSH1 0x0 DUP1 REVERT JUMPDEST POP PUSH2 0x5A0 PUSH1 0x4 DUP1 CALLDATASIZE SUB PUSH1 0x20 DUP2 LT ISZERO PUSH2 0x574 JUMPI PUSH1 0x0 DUP1 REVERT JUMPDEST DUP2 ADD SWAP1 DUP1 DUP1 CALLDATALOAD PUSH20 0xFFFFFFFFFFFFFFFFFFFFFFFFFFFFFFFFFFFFFFFF AND SWAP1 PUSH1 0x20 ADD SWAP1 SWAP3 SWAP2 SWAP1 POP POP POP PUSH2 0x1A80 JUMP JUMPDEST STOP JUMPDEST CALLVALUE DUP1 ISZERO PUSH2 0x5AE JUMPI PUSH1 0x0 DUP1 REVERT JUMPDEST POP PUSH2 0x5B7 PUSH2 0x1E88 JUMP JUMPDEST PUSH1 0x40 MLOAD DUP1 DUP3 PUSH20 0xFFFFFFFFFFFFFFFFFFFFFFFFFFFFFFFFFFFFFFFF AND DUP2 MSTORE PUSH1 0x20 ADD SWAP2 POP POP PUSH1 0x40 MLOAD DUP1 SWAP2 SUB SWAP1 RETURN JUMPDEST CALLVALUE DUP1 ISZERO PUSH2 0x5EF JUMPI PUSH1 0x0 DUP1 REVERT JUMPDEST POP PUSH2 0x65C PUSH1 0x4 DUP1 CALLDATASIZE SUB PUSH1 0x60 DUP2 LT ISZERO PUSH2 0x606 JUMPI PUSH1 0x0 DUP1 REVERT JUMPDEST DUP2 ADD SWAP1 DUP1 DUP1 CALLDATALOAD PUSH20 0xFFFFFFFFFFFFFFFFFFFFFFFFFFFFFFFFFFFFFFFF AND SWAP1 PUSH1 0x20 ADD SWAP1 SWAP3 SWAP2 SWAP1 DUP1 CALLDATALOAD PUSH20 0xFFFFFFFFFFFFFFFFFFFFFFFFFFFFFFFFFFFFFFFF AND SWAP1 PUSH1 0x20 ADD SWAP1 SWAP3 SWAP2 SWAP1 DUP1 CALLDATALOAD SWAP1 PUSH1 0x20 ADD SWAP1 SWAP3 SWAP2 SWAP1 POP POP POP PUSH2 0x1EA0 JUMP JUMPDEST STOP JUMPDEST CALLVALUE DUP1 ISZERO PUSH2 0x66A JUMPI PUSH1 0x0 DUP1 REVERT JUMPDEST POP PUSH2 0x6F7 PUSH1 0x4 DUP1 CALLDATASIZE SUB PUSH1 0x80 DUP2 LT ISZERO PUSH2 0x681 JUMPI PUSH1 0x0 DUP1 REVERT JUMPDEST DUP2 ADD SWAP1 DUP1 DUP1 CALLDATALOAD SWAP1 PUSH1 0x20 ADD SWAP1 SWAP3 SWAP2 SWAP1 DUP1 CALLDATALOAD PUSH20 0xFFFFFFFFFFFFFFFFFFFFFFFFFFFFFFFFFFFFFFFF AND SWAP1 PUSH1 0x20 ADD SWAP1 SWAP3 SWAP2 SWAP1 DUP1 CALLDATALOAD PUSH20 0xFFFFFFFFFFFFFFFFFFFFFFFFFFFFFFFFFFFFFFFF AND SWAP1 PUSH1 0x20 ADD SWAP1 SWAP3 SWAP2 SWAP1 DUP1 CALLDATALOAD PUSH20 0xFFFFFFFFFFFFFFFFFFFFFFFFFFFFFFFFFFFFFFFF AND SWAP1 PUSH1 0x20 ADD SWAP1 SWAP3 SWAP2 SWAP1 POP POP POP PUSH2 0x1F52 JUMP JUMPDEST STOP JUMPDEST CALLVALUE DUP1 ISZERO PUSH2 0x705 JUMPI PUSH1 0x0 DUP1 REVERT JUMPDEST POP PUSH2 0x732 PUSH1 0x4 DUP1 CALLDATASIZE SUB PUSH1 0x20 DUP2 LT ISZERO PUSH2 0x71C JUMPI PUSH1 0x0 DUP1 REVERT JUMPDEST DUP2 ADD SWAP1 DUP1 DUP1 CALLDATALOAD SWAP1 PUSH1 0x20 ADD SWAP1 SWAP3 SWAP2 SWAP1 POP POP POP PUSH2 0x207C JUMP JUMPDEST PUSH1 0x40 MLOAD DUP1 DUP3 PUSH20 0xFFFFFFFFFFFFFFFFFFFFFFFFFFFFFFFFFFFFFFFF AND DUP2 MSTORE PUSH1 0x20 ADD SWAP2 POP POP PUSH1 0x40 MLOAD DUP1 SWAP2 SUB SWAP1 RETURN JUMPDEST CALLVALUE DUP1 ISZERO PUSH2 0x76A JUMPI PUSH1 0x0 DUP1 REVERT JUMPDEST POP PUSH2 0x7C1 PUSH1 0x4 DUP1 CALLDATASIZE SUB PUSH1 0x60 DUP2 LT ISZERO PUSH2 0x781 JUMPI PUSH1 0x0 DUP1 REVERT JUMPDEST DUP2 ADD SWAP1 DUP1 DUP1 CALLDATALOAD PUSH20 0xFFFFFFFFFFFFFFFFFFFFFFFFFFFFFFFFFFFFFFFF AND SWAP1 PUSH1 0x20 ADD SWAP1 SWAP3 SWAP2 SWAP1 DUP1 CALLDATALOAD SWAP1 PUSH1 0x20 ADD SWAP1 SWAP3 SWAP2 SWAP1 DUP1 CALLDATALOAD SWAP1 PUSH1 0x20 ADD SWAP1 SWAP3 SWAP2 SWAP1 POP POP POP PUSH2 0x20B8 JUMP JUMPDEST STOP JUMPDEST CALLVALUE DUP1 ISZERO PUSH2 0x7CF JUMPI PUSH1 0x0 DUP1 REVERT JUMPDEST POP PUSH2 0x7FC PUSH1 0x4 DUP1 CALLDATASIZE SUB PUSH1 0x20 DUP2 LT ISZERO PUSH2 0x7E6 JUMPI PUSH1 0x0 DUP1 REVERT JUMPDEST DUP2 ADD SWAP1 DUP1 DUP1 CALLDATALOAD SWAP1 PUSH1 0x20 ADD SWAP1 SWAP3 SWAP2 SWAP1 POP POP POP PUSH2 0x222B JUMP JUMPDEST PUSH1 0x40 MLOAD DUP1 DUP3 PUSH20 0xFFFFFFFFFFFFFFFFFFFFFFFFFFFFFFFFFFFFFFFF AND DUP2 MSTORE PUSH1 0x20 ADD SWAP2 POP POP PUSH1 0x40 MLOAD DUP1 SWAP2 SUB SWAP1 RETURN JUMPDEST CALLVALUE DUP1 ISZERO PUSH2 0x834 JUMPI PUSH1 0x0 DUP1 REVERT JUMPDEST POP PUSH2 0x87F PUSH1 0x4 DUP1 CALLDATASIZE SUB PUSH1 0x80 DUP2 LT ISZERO PUSH2 0x84B JUMPI PUSH1 0x0 DUP1 REVERT JUMPDEST DUP2 ADD SWAP1 DUP1 DUP1 CALLDATALOAD SWAP1 PUSH1 0x20 ADD SWAP1 SWAP3 SWAP2 SWAP1 DUP1 CALLDATALOAD SWAP1 PUSH1 0x20 ADD SWAP1 SWAP3 SWAP2 SWAP1 DUP1 CALLDATALOAD SWAP1 PUSH1 0x20 ADD SWAP1 SWAP3 SWAP2 SWAP1 DUP1 CALLDATALOAD SWAP1 PUSH1 0x20 ADD SWAP1 SWAP3 SWAP2 SWAP1 POP POP POP PUSH2 0x2267 JUMP JUMPDEST STOP JUMPDEST CALLVALUE DUP1 ISZERO PUSH2 0x88D JUMPI PUSH1 0x0 DUP1 REVERT JUMPDEST POP PUSH2 0x8D0 PUSH1 0x4 DUP1 CALLDATASIZE SUB PUSH1 0x20 DUP2 LT ISZERO PUSH2 0x8A4 JUMPI PUSH1 0x0 DUP1 REVERT JUMPDEST DUP2 ADD SWAP1 DUP1 DUP1 CALLDATALOAD PUSH20 0xFFFFFFFFFFFFFFFFFFFFFFFFFFFFFFFFFFFFFFFF AND SWAP1 PUSH1 0x20 ADD SWAP1 SWAP3 SWAP2 SWAP1 POP POP POP PUSH2 0x22ED JUMP JUMPDEST STOP JUMPDEST CALLVALUE DUP1 ISZERO PUSH2 0x8DE JUMPI PUSH1 0x0 DUP1 REVERT JUMPDEST POP PUSH2 0x921 PUSH1 0x4 DUP1 CALLDATASIZE SUB PUSH1 0x20 DUP2 LT ISZERO PUSH2 0x8F5 JUMPI PUSH1 0x0 DUP1 REVERT JUMPDEST DUP2 ADD SWAP1 DUP1 DUP1 CALLDATALOAD PUSH20 0xFFFFFFFFFFFFFFFFFFFFFFFFFFFFFFFFFFFFFFFF AND SWAP1 PUSH1 0x20 ADD SWAP1 SWAP3 SWAP2 SWAP1 POP POP POP PUSH2 0x2439 JUMP JUMPDEST STOP JUMPDEST CALLVALUE DUP1 ISZERO PUSH2 0x92F JUMPI PUSH1 0x0 DUP1 REVERT JUMPDEST POP PUSH2 0x972 PUSH1 0x4 DUP1 CALLDATASIZE SUB PUSH1 0x20 DUP2 LT ISZERO PUSH2 0x946 JUMPI PUSH1 0x0 DUP1 REVERT JUMPDEST DUP2 ADD SWAP1 DUP1 DUP1 CALLDATALOAD PUSH20 0xFFFFFFFFFFFFFFFFFFFFFFFFFFFFFFFFFFFFFFFF AND SWAP1 PUSH1 0x20 ADD SWAP1 SWAP3 SWAP2 SWAP1 POP POP POP PUSH2 0x2602 JUMP JUMPDEST STOP JUMPDEST CALLVALUE DUP1 ISZERO PUSH2 0x980 JUMPI PUSH1 0x0 DUP1 REVERT JUMPDEST POP PUSH2 0x9AD PUSH1 0x4 DUP1 CALLDATASIZE SUB PUSH1 0x20 DUP2 LT ISZERO PUSH2 0x997 JUMPI PUSH1 0x0 DUP1 REVERT JUMPDEST DUP2 ADD SWAP1 DUP1 DUP1 CALLDATALOAD SWAP1 PUSH1 0x20 ADD SWAP1 SWAP3 SWAP2 SWAP1 POP POP POP PUSH2 0x2693 JUMP JUMPDEST PUSH1 0x40 MLOAD DUP1 DUP3 PUSH20 0xFFFFFFFFFFFFFFFFFFFFFFFFFFFFFFFFFFFFFFFF AND DUP2 MSTORE PUSH1 0x20 ADD SWAP2 POP POP PUSH1 0x40 MLOAD DUP1 SWAP2 SUB SWAP1 RETURN JUMPDEST CALLVALUE DUP1 ISZERO PUSH2 0x9E5 JUMPI PUSH1 0x0 DUP1 REVERT JUMPDEST POP PUSH2 0xA12 PUSH1 0x4 DUP1 CALLDATASIZE SUB PUSH1 0x20 DUP2 LT ISZERO PUSH2 0x9FC JUMPI PUSH1 0x0 DUP1 REVERT JUMPDEST DUP2 ADD SWAP1 DUP1 DUP1 CALLDATALOAD SWAP1 PUSH1 0x20 ADD SWAP1 SWAP3 SWAP2 SWAP1 POP POP POP PUSH2 0x26CF JUMP JUMPDEST PUSH1 0x40 MLOAD DUP1 DUP3 PUSH20 0xFFFFFFFFFFFFFFFFFFFFFFFFFFFFFFFFFFFFFFFF AND DUP2 MSTORE PUSH1 0x20 ADD SWAP2 POP POP PUSH1 0x40 MLOAD DUP1 SWAP2 SUB SWAP1 RETURN JUMPDEST CALLVALUE DUP1 ISZERO PUSH2 0xA4A JUMPI PUSH1 0x0 DUP1 REVERT JUMPDEST POP PUSH2 0xA53 PUSH2 0x270B JUMP JUMPDEST PUSH1 0x40 MLOAD DUP1 DUP3 PUSH20 0xFFFFFFFFFFFFFFFFFFFFFFFFFFFFFFFFFFFFFFFF AND DUP2 MSTORE PUSH1 0x20 ADD SWAP2 POP POP PUSH1 0x40 MLOAD DUP1 SWAP2 SUB SWAP1 RETURN JUMPDEST CALLVALUE DUP1 ISZERO PUSH2 0xA8B JUMPI PUSH1 0x0 DUP1 REVERT JUMPDEST POP PUSH2 0xAEA PUSH1 0x4 DUP1 CALLDATASIZE SUB PUSH1 0xC0 DUP2 LT ISZERO PUSH2 0xAA2 JUMPI PUSH1 0x0 DUP1 REVERT JUMPDEST DUP2 ADD SWAP1 DUP1 DUP1 CALLDATALOAD SWAP1 PUSH1 0x20 ADD SWAP1 SWAP3 SWAP2 SWAP1 DUP1 CALLDATALOAD SWAP1 PUSH1 0x20 ADD SWAP1 SWAP3 SWAP2 SWAP1 DUP1 CALLDATALOAD SWAP1 PUSH1 0x20 ADD SWAP1 SWAP3 SWAP2 SWAP1 DUP1 CALLDATALOAD SWAP1 PUSH1 0x20 ADD SWAP1 SWAP3 SWAP2 SWAP1 DUP1 CALLDATALOAD SWAP1 PUSH1 0x20 ADD SWAP1 SWAP3 SWAP2 SWAP1 DUP1 CALLDATALOAD SWAP1 PUSH1 0x20 ADD SWAP1 SWAP3 SWAP2 SWAP1 POP POP POP PUSH2 0x2723 JUMP JUMPDEST STOP JUMPDEST CALLVALUE DUP1 ISZERO PUSH2 0xAF8 JUMPI PUSH1 0x0 DUP1 REVERT JUMPDEST POP PUSH2 0xB25 PUSH1 0x4 DUP1 CALLDATASIZE SUB PUSH1 0x20 DUP2 LT ISZERO PUSH2 0xB0F JUMPI PUSH1 0x0 DUP1 REVERT JUMPDEST DUP2 ADD SWAP1 DUP1 DUP1 CALLDATALOAD SWAP1 PUSH1 0x20 ADD SWAP1 SWAP3 SWAP2 SWAP1 POP POP POP PUSH2 0x2AA2 JUMP JUMPDEST STOP JUMPDEST CALLVALUE DUP1 ISZERO PUSH2 0xB33 JUMPI PUSH1 0x0 DUP1 REVERT JUMPDEST POP PUSH2 0xB3C PUSH2 0x2DC0 JUMP JUMPDEST PUSH1 0x40 MLOAD DUP1 DUP3 PUSH20 0xFFFFFFFFFFFFFFFFFFFFFFFFFFFFFFFFFFFFFFFF AND DUP2 MSTORE PUSH1 0x20 ADD SWAP2 POP POP PUSH1 0x40 MLOAD DUP1 SWAP2 SUB SWAP1 RETURN JUMPDEST CALLVALUE DUP1 ISZERO PUSH2 0xB74 JUMPI PUSH1 0x0 DUP1 REVERT JUMPDEST POP PUSH2 0xC69 PUSH1 0x4 DUP1 CALLDATASIZE SUB PUSH1 0xA0 DUP2 LT ISZERO PUSH2 0xB8B JUMPI PUSH1 0x0 DUP1 REVERT JUMPDEST DUP2 ADD SWAP1 DUP1 DUP1 CALLDATALOAD SWAP1 PUSH1 0x20 ADD SWAP1 SWAP3 SWAP2 SWAP1 DUP1 CALLDATALOAD SWAP1 PUSH1 0x20 ADD SWAP1 SWAP3 SWAP2 SWAP1 DUP1 CALLDATALOAD SWAP1 PUSH1 0x20 ADD SWAP1 PUSH5 0x100000000 DUP2 GT ISZERO PUSH2 0xBBC JUMPI PUSH1 0x0 DUP1 REVERT JUMPDEST DUP3 ADD DUP4 PUSH1 0x20 DUP3 ADD GT ISZERO PUSH2 0xBCE JUMPI PUSH1 0x0 DUP1 REVERT JUMPDEST DUP1 CALLDATALOAD SWAP1 PUSH1 0x20 ADD SWAP2 DUP5 PUSH1 0x20 DUP4 MUL DUP5 ADD GT PUSH5 0x100000000 DUP4 GT OR ISZERO PUSH2 0xBF0 JUMPI PUSH1 0x0 DUP1 REVERT JUMPDEST SWAP2 SWAP1 DUP1 DUP1 PUSH1 0x20 MUL PUSH1 0x20 ADD PUSH1 0x40 MLOAD SWAP1 DUP2 ADD PUSH1 0x40 MSTORE DUP1 SWAP4 SWAP3 SWAP2 SWAP1 DUP2 DUP2 MSTORE PUSH1 0x20 ADD DUP4 DUP4 PUSH1 0x20 MUL DUP1 DUP3 DUP5 CALLDATACOPY PUSH1 0x0 DUP2 DUP5 ADD MSTORE PUSH1 0x1F NOT PUSH1 0x1F DUP3 ADD AND SWAP1 POP DUP1 DUP4 ADD SWAP3 POP POP POP POP POP POP POP SWAP2 SWAP3 SWAP2 SWAP3 SWAP1 DUP1 CALLDATALOAD PUSH20 0xFFFFFFFFFFFFFFFFFFFFFFFFFFFFFFFFFFFFFFFF AND SWAP1 PUSH1 0x20 ADD SWAP1 SWAP3 SWAP2 SWAP1 DUP1 CALLDATALOAD SWAP1 PUSH1 0x20 ADD SWAP1 SWAP3 SWAP2 SWAP1 POP POP POP PUSH2 0x2DD8 JUMP JUMPDEST STOP JUMPDEST CALLVALUE DUP1 ISZERO PUSH2 0xC77 JUMPI PUSH1 0x0 DUP1 REVERT JUMPDEST POP PUSH2 0xCE4 PUSH1 0x4 DUP1 CALLDATASIZE SUB PUSH1 0x60 DUP2 LT ISZERO PUSH2 0xC8E JUMPI PUSH1 0x0 DUP1 REVERT JUMPDEST DUP2 ADD SWAP1 DUP1 DUP1 CALLDATALOAD PUSH20 0xFFFFFFFFFFFFFFFFFFFFFFFFFFFFFFFFFFFFFFFF AND SWAP1 PUSH1 0x20 ADD SWAP1 SWAP3 SWAP2 SWAP1 DUP1 CALLDATALOAD PUSH20 0xFFFFFFFFFFFFFFFFFFFFFFFFFFFFFFFFFFFFFFFF AND SWAP1 PUSH1 0x20 ADD SWAP1 SWAP3 SWAP2 SWAP1 DUP1 CALLDATALOAD SWAP1 PUSH1 0x20 ADD SWAP1 SWAP3 SWAP2 SWAP1 POP POP POP PUSH2 0x2FA1 JUMP JUMPDEST PUSH1 0x40 MLOAD DUP1 DUP3 DUP2 MSTORE PUSH1 0x20 ADD SWAP2 POP POP PUSH1 0x40 MLOAD DUP1 SWAP2 SUB SWAP1 RETURN JUMPDEST CALLVALUE DUP1 ISZERO PUSH2 0xD06 JUMPI PUSH1 0x0 DUP1 REVERT JUMPDEST POP PUSH2 0xD33 PUSH1 0x4 DUP1 CALLDATASIZE SUB PUSH1 0x20 DUP2 LT ISZERO PUSH2 0xD1D JUMPI PUSH1 0x0 DUP1 REVERT JUMPDEST DUP2 ADD SWAP1 DUP1 DUP1 CALLDATALOAD SWAP1 PUSH1 0x20 ADD SWAP1 SWAP3 SWAP2 SWAP1 POP POP POP PUSH2 0x2FE8 JUMP JUMPDEST PUSH1 0x40 MLOAD DUP1 DUP3 PUSH20 0xFFFFFFFFFFFFFFFFFFFFFFFFFFFFFFFFFFFFFFFF AND DUP2 MSTORE PUSH1 0x20 ADD SWAP2 POP POP PUSH1 0x40 MLOAD DUP1 SWAP2 SUB SWAP1 RETURN JUMPDEST CALLVALUE DUP1 ISZERO PUSH2 0xD6B JUMPI PUSH1 0x0 DUP1 REVERT JUMPDEST POP PUSH2 0xD74 PUSH2 0x3024 JUMP JUMPDEST STOP JUMPDEST CALLVALUE DUP1 ISZERO PUSH2 0xD82 JUMPI PUSH1 0x0 DUP1 REVERT JUMPDEST POP PUSH2 0xE0F PUSH1 0x4 DUP1 CALLDATASIZE SUB PUSH1 0x80 DUP2 LT ISZERO PUSH2 0xD99 JUMPI PUSH1 0x0 DUP1 REVERT JUMPDEST DUP2 ADD SWAP1 DUP1 DUP1 CALLDATALOAD PUSH20 0xFFFFFFFFFFFFFFFFFFFFFFFFFFFFFFFFFFFFFFFF AND SWAP1 PUSH1 0x20 ADD SWAP1 SWAP3 SWAP2 SWAP1 DUP1 CALLDATALOAD SWAP1 PUSH1 0x20 ADD SWAP1 SWAP3 SWAP2 SWAP1 DUP1 CALLDATALOAD PUSH20 0xFFFFFFFFFFFFFFFFFFFFFFFFFFFFFFFFFFFFFFFF AND SWAP1 PUSH1 0x20 ADD SWAP1 SWAP3 SWAP2 SWAP1 DUP1 CALLDATALOAD PUSH20 0xFFFFFFFFFFFFFFFFFFFFFFFFFFFFFFFFFFFFFFFF AND SWAP1 PUSH1 0x20 ADD SWAP1 SWAP3 SWAP2 SWAP1 POP POP POP PUSH2 0x319A JUMP JUMPDEST STOP JUMPDEST CALLVALUE DUP1 ISZERO PUSH2 0xE1D JUMPI PUSH1 0x0 DUP1 REVERT JUMPDEST POP PUSH2 0xE80 PUSH1 0x4 DUP1 CALLDATASIZE SUB PUSH1 0x40 DUP2 LT ISZERO PUSH2 0xE34 JUMPI PUSH1 0x0 DUP1 REVERT JUMPDEST DUP2 ADD SWAP1 DUP1 DUP1 CALLDATALOAD PUSH20 0xFFFFFFFFFFFFFFFFFFFFFFFFFFFFFFFFFFFFFFFF AND SWAP1 PUSH1 0x20 ADD SWAP1 SWAP3 SWAP2 SWAP1 DUP1 CALLDATALOAD PUSH20 0xFFFFFFFFFFFFFFFFFFFFFFFFFFFFFFFFFFFFFFFF AND SWAP1 PUSH1 0x20 ADD SWAP1 SWAP3 SWAP2 SWAP1 POP POP POP PUSH2 0x328D JUMP JUMPDEST STOP JUMPDEST CALLVALUE DUP1 ISZERO PUSH2 0xE8E JUMPI PUSH1 0x0 DUP1 REVERT JUMPDEST POP PUSH2 0xE97 PUSH2 0x3343 JUMP JUMPDEST STOP JUMPDEST CALLVALUE DUP1 ISZERO PUSH2 0xEA5 JUMPI PUSH1 0x0 DUP1 REVERT JUMPDEST POP PUSH2 0xEAE PUSH2 0x33C7 JUMP JUMPDEST PUSH1 0x40 MLOAD DUP1 DUP3 PUSH20 0xFFFFFFFFFFFFFFFFFFFFFFFFFFFFFFFFFFFFFFFF AND DUP2 MSTORE PUSH1 0x20 ADD SWAP2 POP POP PUSH1 0x40 MLOAD DUP1 SWAP2 SUB SWAP1 RETURN JUMPDEST CALLVALUE DUP1 ISZERO PUSH2 0xEE6 JUMPI PUSH1 0x0 DUP1 REVERT JUMPDEST POP PUSH2 0xF29 PUSH1 0x4 DUP1 CALLDATASIZE SUB PUSH1 0x20 DUP2 LT ISZERO PUSH2 0xEFD JUMPI PUSH1 0x0 DUP1 REVERT JUMPDEST DUP2 ADD SWAP1 DUP1 DUP1 CALLDATALOAD PUSH20 0xFFFFFFFFFFFFFFFFFFFFFFFFFFFFFFFFFFFFFFFF AND SWAP1 PUSH1 0x20 ADD SWAP1 SWAP3 SWAP2 SWAP1 POP POP POP PUSH2 0x33DF JUMP JUMPDEST PUSH1 0x40 MLOAD DUP1 DUP3 DUP2 MSTORE PUSH1 0x20 ADD SWAP2 POP POP PUSH1 0x40 MLOAD DUP1 SWAP2 SUB SWAP1 RETURN JUMPDEST CALLVALUE DUP1 ISZERO PUSH2 0xF4B JUMPI PUSH1 0x0 DUP1 REVERT JUMPDEST POP PUSH2 0xF54 PUSH2 0x3428 JUMP JUMPDEST PUSH1 0x40 MLOAD DUP1 DUP3 PUSH20 0xFFFFFFFFFFFFFFFFFFFFFFFFFFFFFFFFFFFFFFFF AND DUP2 MSTORE PUSH1 0x20 ADD SWAP2 POP POP PUSH1 0x40 MLOAD DUP1 SWAP2 SUB SWAP1 RETURN JUMPDEST CALLVALUE DUP1 ISZERO PUSH2 0xF8C JUMPI PUSH1 0x0 DUP1 REVERT JUMPDEST POP PUSH2 0xF95 PUSH2 0x3440 JUMP JUMPDEST PUSH1 0x40 MLOAD DUP1 DUP3 PUSH20 0xFFFFFFFFFFFFFFFFFFFFFFFFFFFFFFFFFFFFFFFF AND DUP2 MSTORE PUSH1 0x20 ADD SWAP2 POP POP PUSH1 0x40 MLOAD DUP1 SWAP2 SUB SWAP1 RETURN JUMPDEST CALLVALUE DUP1 ISZERO PUSH2 0xFCD JUMPI PUSH1 0x0 DUP1 REVERT JUMPDEST POP PUSH2 0xFD6 PUSH2 0x3458 JUMP JUMPDEST PUSH1 0x40 MLOAD DUP1 DUP3 DUP2 MSTORE PUSH1 0x20 ADD SWAP2 POP POP PUSH1 0x40 MLOAD DUP1 SWAP2 SUB SWAP1 RETURN JUMPDEST CALLVALUE DUP1 ISZERO PUSH2 0xFF8 JUMPI PUSH1 0x0 DUP1 REVERT JUMPDEST POP PUSH2 0x1025 PUSH1 0x4 DUP1 CALLDATASIZE SUB PUSH1 0x20 DUP2 LT ISZERO PUSH2 0x100F JUMPI PUSH1 0x0 DUP1 REVERT JUMPDEST DUP2 ADD SWAP1 DUP1 DUP1 CALLDATALOAD SWAP1 PUSH1 0x20 ADD SWAP1 SWAP3 SWAP2 SWAP1 POP POP POP PUSH2 0x345E JUMP JUMPDEST PUSH1 0x40 MLOAD DUP1 DUP3 PUSH20 0xFFFFFFFFFFFFFFFFFFFFFFFFFFFFFFFFFFFFFFFF AND DUP2 MSTORE PUSH1 0x20 ADD SWAP2 POP POP PUSH1 0x40 MLOAD DUP1 SWAP2 SUB SWAP1 RETURN JUMPDEST CALLVALUE DUP1 ISZERO PUSH2 0x105D JUMPI PUSH1 0x0 DUP1 REVERT JUMPDEST POP PUSH2 0x108A PUSH1 0x4 DUP1 CALLDATASIZE SUB PUSH1 0x20 DUP2 LT ISZERO PUSH2 0x1074 JUMPI PUSH1 0x0 DUP1 REVERT JUMPDEST DUP2 ADD SWAP1 DUP1 DUP1 CALLDATALOAD SWAP1 PUSH1 0x20 ADD SWAP1 SWAP3 SWAP2 SWAP1 POP POP POP PUSH2 0x349A JUMP JUMPDEST PUSH1 0x40 MLOAD DUP1 DUP3 PUSH20 0xFFFFFFFFFFFFFFFFFFFFFFFFFFFFFFFFFFFFFFFF AND DUP2 MSTORE PUSH1 0x20 ADD SWAP2 POP POP PUSH1 0x40 MLOAD DUP1 SWAP2 SUB SWAP1 RETURN JUMPDEST CALLVALUE DUP1 ISZERO PUSH2 0x10C2 JUMPI PUSH1 0x0 DUP1 REVERT JUMPDEST POP PUSH2 0x10CB PUSH2 0x34D6 JUMP JUMPDEST STOP JUMPDEST CALLVALUE DUP1 ISZERO PUSH2 0x10D9 JUMPI PUSH1 0x0 DUP1 REVERT JUMPDEST POP PUSH2 0x10E2 PUSH2 0x3570 JUMP JUMPDEST PUSH1 0x40 MLOAD DUP1 DUP3 PUSH20 0xFFFFFFFFFFFFFFFFFFFFFFFFFFFFFFFFFFFFFFFF AND DUP2 MSTORE PUSH1 0x20 ADD SWAP2 POP POP PUSH1 0x40 MLOAD DUP1 SWAP2 SUB SWAP1 RETURN JUMPDEST CALLVALUE DUP1 ISZERO PUSH2 0x111A JUMPI PUSH1 0x0 DUP1 REVERT JUMPDEST POP PUSH2 0x1147 PUSH1 0x4 DUP1 CALLDATASIZE SUB PUSH1 0x20 DUP2 LT ISZERO PUSH2 0x1131 JUMPI PUSH1 0x0 DUP1 REVERT JUMPDEST DUP2 ADD SWAP1 DUP1 DUP1 CALLDATALOAD SWAP1 PUSH1 0x20 ADD SWAP1 SWAP3 SWAP2 SWAP1 POP POP POP PUSH2 0x3596 JUMP JUMPDEST STOP JUMPDEST CALLVALUE DUP1 ISZERO PUSH2 0x1155 JUMPI PUSH1 0x0 DUP1 REVERT JUMPDEST POP PUSH2 0x115E PUSH2 0x35E0 JUMP JUMPDEST PUSH1 0x40 MLOAD DUP1 DUP3 PUSH20 0xFFFFFFFFFFFFFFFFFFFFFFFFFFFFFFFFFFFFFFFF AND DUP2 MSTORE PUSH1 0x20 ADD SWAP2 POP POP PUSH1 0x40 MLOAD DUP1 SWAP2 SUB SWAP1 RETURN JUMPDEST CALLVALUE DUP1 ISZERO PUSH2 0x1196 JUMPI PUSH1 0x0 DUP1 REVERT JUMPDEST POP PUSH2 0x11C3 PUSH1 0x4 DUP1 CALLDATASIZE SUB PUSH1 0x20 DUP2 LT ISZERO PUSH2 0x11AD JUMPI PUSH1 0x0 DUP1 REVERT JUMPDEST DUP2 ADD SWAP1 DUP1 DUP1 CALLDATALOAD SWAP1 PUSH1 0x20 ADD SWAP1 SWAP3 SWAP2 SWAP1 POP POP POP PUSH2 0x35F8 JUMP JUMPDEST PUSH1 0x40 MLOAD DUP1 DUP3 PUSH20 0xFFFFFFFFFFFFFFFFFFFFFFFFFFFFFFFFFFFFFFFF AND DUP2 MSTORE PUSH1 0x20 ADD SWAP2 POP POP PUSH1 0x40 MLOAD DUP1 SWAP2 SUB SWAP1 RETURN JUMPDEST CALLVALUE DUP1 ISZERO PUSH2 0x11FB JUMPI PUSH1 0x0 DUP1 REVERT JUMPDEST POP PUSH2 0x1204 PUSH2 0x3634 JUMP JUMPDEST PUSH1 0x40 MLOAD DUP1 DUP3 PUSH20 0xFFFFFFFFFFFFFFFFFFFFFFFFFFFFFFFFFFFFFFFF AND DUP2 MSTORE PUSH1 0x20 ADD SWAP2 POP POP PUSH1 0x40 MLOAD DUP1 SWAP2 SUB SWAP1 RETURN JUMPDEST CALLVALUE DUP1 ISZERO PUSH2 0x123C JUMPI PUSH1 0x0 DUP1 REVERT JUMPDEST POP PUSH2 0x129F PUSH1 0x4 DUP1 CALLDATASIZE SUB PUSH1 0x40 DUP2 LT ISZERO PUSH2 0x1253 JUMPI PUSH1 0x0 DUP1 REVERT JUMPDEST DUP2 ADD SWAP1 DUP1 DUP1 CALLDATALOAD PUSH20 0xFFFFFFFFFFFFFFFFFFFFFFFFFFFFFFFFFFFFFFFF AND SWAP1 PUSH1 0x20 ADD SWAP1 SWAP3 SWAP2 SWAP1 DUP1 CALLDATALOAD PUSH20 0xFFFFFFFFFFFFFFFFFFFFFFFFFFFFFFFFFFFFFFFF AND SWAP1 PUSH1 0x20 ADD SWAP1 SWAP3 SWAP2 SWAP1 POP POP POP PUSH2 0x364C JUMP JUMPDEST PUSH1 0x40 MLOAD DUP1 DUP3 DUP2 MSTORE PUSH1 0x20 ADD SWAP2 POP POP PUSH1 0x40 MLOAD DUP1 SWAP2 SUB SWAP1 RETURN JUMPDEST CALLVALUE DUP1 ISZERO PUSH2 0x12C1 JUMPI PUSH1 0x0 DUP1 REVERT JUMPDEST POP PUSH2 0x12CA PUSH2 0x373D JUMP JUMPDEST PUSH1 0x40 MLOAD DUP1 DUP3 PUSH20 0xFFFFFFFFFFFFFFFFFFFFFFFFFFFFFFFFFFFFFFFF AND DUP2 MSTORE PUSH1 0x20 ADD SWAP2 POP POP PUSH1 0x40 MLOAD DUP1 SWAP2 SUB SWAP1 RETURN JUMPDEST CALLVALUE DUP1 ISZERO PUSH2 0x1302 JUMPI PUSH1 0x0 DUP1 REVERT JUMPDEST POP PUSH2 0x1345 PUSH1 0x4 DUP1 CALLDATASIZE SUB PUSH1 0x20 DUP2 LT ISZERO PUSH2 0x1319 JUMPI PUSH1 0x0 DUP1 REVERT JUMPDEST DUP2 ADD SWAP1 DUP1 DUP1 CALLDATALOAD PUSH20 0xFFFFFFFFFFFFFFFFFFFFFFFFFFFFFFFFFFFFFFFF AND SWAP1 PUSH1 0x20 ADD SWAP1 SWAP3 SWAP2 SWAP1 POP POP POP PUSH2 0x3755 JUMP JUMPDEST PUSH1 0x40 MLOAD DUP1 DUP3 DUP2 MSTORE PUSH1 0x20 ADD SWAP2 POP POP PUSH1 0x40 MLOAD DUP1 SWAP2 SUB SWAP1 RETURN JUMPDEST CALLVALUE DUP1 ISZERO PUSH2 0x1367 JUMPI PUSH1 0x0 DUP1 REVERT JUMPDEST POP PUSH2 0x1370 PUSH2 0x376D JUMP JUMPDEST STOP JUMPDEST CALLVALUE DUP1 ISZERO PUSH2 0x137E JUMPI PUSH1 0x0 DUP1 REVERT JUMPDEST POP PUSH2 0x1387 PUSH2 0x3777 JUMP JUMPDEST PUSH1 0x40 MLOAD DUP1 DUP3 PUSH20 0xFFFFFFFFFFFFFFFFFFFFFFFFFFFFFFFFFFFFFFFF AND DUP2 MSTORE PUSH1 0x20 ADD SWAP2 POP POP PUSH1 0x40 MLOAD DUP1 SWAP2 SUB SWAP1 RETURN JUMPDEST PUSH20 0x7CEB23FD6BC0ADD59E62AC25578270CFF1B9F619 DUP2 JUMP JUMPDEST PUSH20 0xB3F868E0BE5597D5DB7FEB59E1CADBB0FDDA50A DUP2 JUMP JUMPDEST PUSH1 0x0 DUP4 SWAP1 POP PUSH1 0x0 DUP2 PUSH20 0xFFFFFFFFFFFFFFFFFFFFFFFFFFFFFFFFFFFFFFFF AND PUSH4 0x70A08231 DUP6 PUSH1 0x40 MLOAD DUP3 PUSH4 0xFFFFFFFF AND PUSH1 0xE0 SHL DUP2 MSTORE PUSH1 0x4 ADD DUP1 DUP3 PUSH20 0xFFFFFFFFFFFFFFFFFFFFFFFFFFFFFFFFFFFFFFFF AND DUP2 MSTORE PUSH1 0x20 ADD SWAP2 POP POP PUSH1 0x20 PUSH1 0x40 MLOAD DUP1 DUP4 SUB DUP2 DUP7 DUP1 EXTCODESIZE ISZERO DUP1 ISZERO PUSH2 0x1451 JUMPI PUSH1 0x0 DUP1 REVERT JUMPDEST POP GAS STATICCALL ISZERO DUP1 ISZERO PUSH2 0x1465 JUMPI RETURNDATASIZE PUSH1 0x0 DUP1 RETURNDATACOPY RETURNDATASIZE PUSH1 0x0 REVERT JUMPDEST POP POP POP POP PUSH1 0x40 MLOAD RETURNDATASIZE PUSH1 0x20 DUP2 LT ISZERO PUSH2 0x147B JUMPI PUSH1 0x0 DUP1 REVERT JUMPDEST DUP2 ADD SWAP1 DUP1 DUP1 MLOAD SWAP1 PUSH1 0x20 ADD SWAP1 SWAP3 SWAP2 SWAP1 POP POP POP SWAP1 POP PUSH1 0xA PUSH1 0x0 SWAP1 SLOAD SWAP1 PUSH2 0x100 EXP SWAP1 DIV PUSH20 0xFFFFFFFFFFFFFFFFFFFFFFFFFFFFFFFFFFFFFFFF AND PUSH20 0xFFFFFFFFFFFFFFFFFFFFFFFFFFFFFFFFFFFFFFFF AND PUSH4 0x2B9446C DUP4 DUP7 DUP7 DUP6 PUSH1 0x0 PUSH1 0x40 MLOAD DUP7 PUSH4 0xFFFFFFFF AND PUSH1 0xE0 SHL DUP2 MSTORE PUSH1 0x4 ADD DUP1 DUP7 PUSH20 0xFFFFFFFFFFFFFFFFFFFFFFFFFFFFFFFFFFFFFFFF AND DUP2 MSTORE PUSH1 0x20 ADD DUP6 PUSH20 0xFFFFFFFFFFFFFFFFFFFFFFFFFFFFFFFFFFFFFFFF AND DUP2 MSTORE PUSH1 0x20 ADD DUP5 PUSH20 0xFFFFFFFFFFFFFFFFFFFFFFFFFFFFFFFFFFFFFFFF AND DUP2 MSTORE PUSH1 0x20 ADD DUP4 DUP2 MSTORE PUSH1 0x20 ADD DUP3 DUP2 MSTORE PUSH1 0x20 ADD SWAP6 POP POP POP POP POP POP PUSH1 0x40 DUP1 MLOAD DUP1 DUP4 SUB DUP2 PUSH1 0x0 DUP8 DUP1 EXTCODESIZE ISZERO DUP1 ISZERO PUSH2 0x1565 JUMPI PUSH1 0x0 DUP1 REVERT JUMPDEST POP GAS CALL ISZERO DUP1 ISZERO PUSH2 0x1579 JUMPI RETURNDATASIZE PUSH1 0x0 DUP1 RETURNDATACOPY RETURNDATASIZE PUSH1 0x0 REVERT JUMPDEST POP POP POP POP PUSH1 0x40 MLOAD RETURNDATASIZE PUSH1 0x40 DUP2 LT ISZERO PUSH2 0x158F JUMPI PUSH1 0x0 DUP1 REVERT JUMPDEST DUP2 ADD SWAP1 DUP1 DUP1 MLOAD SWAP1 PUSH1 0x20 ADD SWAP1 SWAP3 SWAP2 SWAP1 DUP1 MLOAD SWAP1 PUSH1 0x20 ADD SWAP1 SWAP3 SWAP2 SWAP1 POP POP POP POP POP POP POP POP POP POP JUMP JUMPDEST PUSH1 0x0 DUP4 SWAP1 POP PUSH1 0xA PUSH1 0x0 SWAP1 SLOAD SWAP1 PUSH2 0x100 EXP SWAP1 DIV PUSH20 0xFFFFFFFFFFFFFFFFFFFFFFFFFFFFFFFFFFFFFFFF AND PUSH20 0xFFFFFFFFFFFFFFFFFFFFFFFFFFFFFFFFFFFFFFFF AND PUSH4 0x2B9446C DUP3 DUP6 DUP6 DUP10 PUSH1 0x0 PUSH1 0x40 MLOAD DUP7 PUSH4 0xFFFFFFFF AND PUSH1 0xE0 SHL DUP2 MSTORE PUSH1 0x4 ADD DUP1 DUP7 PUSH20 0xFFFFFFFFFFFFFFFFFFFFFFFFFFFFFFFFFFFFFFFF AND DUP2 MSTORE PUSH1 0x20 ADD DUP6 PUSH20 0xFFFFFFFFFFFFFFFFFFFFFFFFFFFFFFFFFFFFFFFF AND DUP2 MSTORE PUSH1 0x20 ADD DUP5 PUSH20 0xFFFFFFFFFFFFFFFFFFFFFFFFFFFFFFFFFFFFFFFF AND DUP2 MSTORE PUSH1 0x20 ADD DUP4 DUP2 MSTORE PUSH1 0x20 ADD DUP3 DUP2 MSTORE PUSH1 0x20 ADD SWAP6 POP POP POP POP POP POP PUSH1 0x40 DUP1 MLOAD DUP1 DUP4 SUB DUP2 PUSH1 0x0 DUP8 DUP1 EXTCODESIZE ISZERO DUP1 ISZERO PUSH2 0x168F JUMPI PUSH1 0x0 DUP1 REVERT JUMPDEST POP GAS CALL ISZERO DUP1 ISZERO PUSH2 0x16A3 JUMPI RETURNDATASIZE PUSH1 0x0 DUP1 RETURNDATACOPY RETURNDATASIZE PUSH1 0x0 REVERT JUMPDEST POP POP POP POP PUSH1 0x40 MLOAD RETURNDATASIZE PUSH1 0x40 DUP2 LT ISZERO PUSH2 0x16B9 JUMPI PUSH1 0x0 DUP1 REVERT JUMPDEST DUP2 ADD SWAP1 DUP1 DUP1 MLOAD SWAP1 PUSH1 0x20 ADD SWAP1 SWAP3 SWAP2 SWAP1 DUP1 MLOAD SWAP1 PUSH1 0x20 ADD SWAP1 SWAP3 SWAP2 SWAP1 POP POP POP POP POP PUSH2 0x16E2 DUP6 DUP6 ADDRESS ADDRESS PUSH2 0x1956 JUMP JUMPDEST PUSH2 0x1715 PUSH20 0x2791BCA1F2DE4661ED88A30C99A7A9449AA84174 PUSH20 0x1B02DA8CB0D097EB8D57A175B88C7D8B47997506 DUP8 PUSH2 0x1EA0 JUMP JUMPDEST PUSH1 0x0 PUSH2 0x174B PUSH20 0xD500B1D8E8EF31E21C99D1DB9A6444D3ADF1270 PUSH20 0xAB594600376EC9FD91F8E885DADF0CE036862DE0 PUSH1 0x12 PUSH2 0x2FA1 JUMP JUMPDEST SWAP1 POP PUSH1 0x0 PUSH2 0x1783 PUSH20 0xB3F868E0BE5597D5DB7FEB59E1CADBB0FDDA50A PUSH20 0x49B0C695039243BBFEB8ECD054EB70061FD54AA0 PUSH1 0x12 PUSH2 0x2FA1 JUMP JUMPDEST SWAP1 POP PUSH1 0x0 PUSH2 0x17BB PUSH20 0x7CEB23FD6BC0ADD59E62AC25578270CFF1B9F619 PUSH20 0xF9680D99D6C9589E2A93A78A04A279E509205945 PUSH1 0x12 PUSH2 0x2FA1 JUMP JUMPDEST SWAP1 POP PUSH1 0x0 PUSH2 0x17F3 PUSH20 0x1BFD67037B42CF73ACF2047067BD4F2C47D9BFD6 PUSH20 0xC907E116054AD103354F2D350FD2514433D57F6F PUSH1 0x8 PUSH2 0x2FA1 JUMP JUMPDEST SWAP1 POP PUSH1 0x0 PUSH2 0x182E DUP3 PUSH2 0x1820 DUP6 PUSH2 0x1812 DUP9 DUP11 PUSH2 0x379D SWAP1 SWAP2 SWAP1 PUSH4 0xFFFFFFFF AND JUMP JUMPDEST PUSH2 0x379D SWAP1 SWAP2 SWAP1 PUSH4 0xFFFFFFFF AND JUMP JUMPDEST PUSH2 0x379D SWAP1 SWAP2 SWAP1 PUSH4 0xFFFFFFFF AND JUMP JUMPDEST SWAP1 POP PUSH1 0x0 DUP2 GT ISZERO PUSH2 0x184C JUMPI PUSH2 0x1847 DUP6 DUP6 DUP6 DUP6 DUP6 DUP16 PUSH2 0x2723 JUMP JUMPDEST PUSH2 0x1856 JUMP JUMPDEST PUSH2 0x1855 DUP11 PUSH2 0x2AA2 JUMP JUMPDEST JUMPDEST PUSH2 0x185E PUSH2 0x3024 JUMP JUMPDEST PUSH1 0x0 DUP2 GT ISZERO PUSH2 0x1877 JUMPI PUSH2 0x1872 DUP9 DUP3 DUP13 PUSH2 0x20B8 JUMP JUMPDEST PUSH2 0x1881 JUMP JUMPDEST PUSH2 0x1880 DUP9 PUSH2 0x2602 JUMP JUMPDEST JUMPDEST POP POP POP POP POP POP POP POP POP POP JUMP JUMPDEST PUSH1 0x0 DUP1 PUSH1 0x0 DUP1 PUSH1 0x0 DUP1 DUP7 PUSH20 0xFFFFFFFFFFFFFFFFFFFFFFFFFFFFFFFFFFFFFFFF AND PUSH4 0xFEAF968C PUSH1 0x40 MLOAD DUP2 PUSH4 0xFFFFFFFF AND PUSH1 0xE0 SHL DUP2 MSTORE PUSH1 0x4 ADD PUSH1 0xA0 PUSH1 0x40 MLOAD DUP1 DUP4 SUB DUP2 DUP7 DUP1 EXTCODESIZE ISZERO DUP1 ISZERO PUSH2 0x18DC JUMPI PUSH1 0x0 DUP1 REVERT JUMPDEST POP GAS STATICCALL ISZERO DUP1 ISZERO PUSH2 0x18F0 JUMPI RETURNDATASIZE PUSH1 0x0 DUP1 RETURNDATACOPY RETURNDATASIZE PUSH1 0x0 REVERT JUMPDEST POP POP POP POP PUSH1 0x40 MLOAD RETURNDATASIZE PUSH1 0xA0 DUP2 LT ISZERO PUSH2 0x1906 JUMPI PUSH1 0x0 DUP1 REVERT JUMPDEST DUP2 ADD SWAP1 DUP1 DUP1 MLOAD SWAP1 PUSH1 0x20 ADD SWAP1 SWAP3 SWAP2 SWAP1 DUP1 MLOAD SWAP1 PUSH1 0x20 ADD SWAP1 SWAP3 SWAP2 SWAP1 DUP1 MLOAD SWAP1 PUSH1 0x20 ADD SWAP1 SWAP3 SWAP2 SWAP1 DUP1 MLOAD SWAP1 PUSH1 0x20 ADD SWAP1 SWAP3 SWAP2 SWAP1 DUP1 MLOAD SWAP1 PUSH1 0x20 ADD SWAP1 SWAP3 SWAP2 SWAP1 POP POP POP SWAP5 POP SWAP5 POP SWAP5 POP SWAP5 POP SWAP5 POP DUP4 SWAP6 POP POP POP POP POP POP SWAP2 SWAP1 POP JUMP JUMPDEST PUSH1 0x0 DUP4 SWAP1 POP PUSH1 0xA PUSH1 0x0 SWAP1 SLOAD SWAP1 PUSH2 0x100 EXP SWAP1 DIV PUSH20 0xFFFFFFFFFFFFFFFFFFFFFFFFFFFFFFFFFFFFFFFF AND PUSH20 0xFFFFFFFFFFFFFFFFFFFFFFFFFFFFFFFFFFFFFFFF AND PUSH4 0x97DA6D30 DUP3 DUP6 DUP6 DUP10 PUSH1 0x0 PUSH1 0x40 MLOAD DUP7 PUSH4 0xFFFFFFFF AND PUSH1 0xE0 SHL DUP2 MSTORE PUSH1 0x4 ADD DUP1 DUP7 PUSH20 0xFFFFFFFFFFFFFFFFFFFFFFFFFFFFFFFFFFFFFFFF AND DUP2 MSTORE PUSH1 0x20 ADD DUP6 PUSH20 0xFFFFFFFFFFFFFFFFFFFFFFFFFFFFFFFFFFFFFFFF AND DUP2 MSTORE PUSH1 0x20 ADD DUP5 PUSH20 0xFFFFFFFFFFFFFFFFFFFFFFFFFFFFFFFFFFFFFFFF AND DUP2 MSTORE PUSH1 0x20 ADD DUP4 DUP2 MSTORE PUSH1 0x20 ADD DUP3 DUP2 MSTORE PUSH1 0x20 ADD SWAP6 POP POP POP POP POP POP PUSH1 0x40 DUP1 MLOAD DUP1 DUP4 SUB DUP2 PUSH1 0x0 DUP8 DUP1 EXTCODESIZE ISZERO DUP1 ISZERO PUSH2 0x1A32 JUMPI PUSH1 0x0 DUP1 REVERT JUMPDEST POP GAS CALL ISZERO DUP1 ISZERO PUSH2 0x1A46 JUMPI RETURNDATASIZE PUSH1 0x0 DUP1 RETURNDATACOPY RETURNDATASIZE PUSH1 0x0 REVERT JUMPDEST POP POP POP POP PUSH1 0x40 MLOAD RETURNDATASIZE PUSH1 0x40 DUP2 LT ISZERO PUSH2 0x1A5C JUMPI PUSH1 0x0 DUP1 REVERT JUMPDEST DUP2 ADD SWAP1 DUP1 DUP1 MLOAD SWAP1 PUSH1 0x20 ADD SWAP1 SWAP3 SWAP2 SWAP1 DUP1 MLOAD SWAP1 PUSH1 0x20 ADD SWAP1 SWAP3 SWAP2 SWAP1 POP POP POP POP POP POP POP POP POP POP JUMP JUMPDEST PUSH1 0x0 PUSH2 0x1B05 PUSH1 0x8 SLOAD PUSH2 0x1AF7 PUSH2 0x1AA9 PUSH20 0xD500B1D8E8EF31E21C99D1DB9A6444D3ADF1270 ADDRESS PUSH2 0x364C JUMP JUMPDEST PUSH1 0x9 PUSH1 0x0 DUP8 PUSH20 0xFFFFFFFFFFFFFFFFFFFFFFFFFFFFFFFFFFFFFFFF AND PUSH20 0xFFFFFFFFFFFFFFFFFFFFFFFFFFFFFFFFFFFFFFFF AND DUP2 MSTORE PUSH1 0x20 ADD SWAP1 DUP2 MSTORE PUSH1 0x20 ADD PUSH1 0x0 KECCAK256 SLOAD PUSH2 0x3825 SWAP1 SWAP2 SWAP1 PUSH4 0xFFFFFFFF AND JUMP JUMPDEST PUSH2 0x38AB SWAP1 SWAP2 SWAP1 PUSH4 0xFFFFFFFF AND JUMP JUMPDEST SWAP1 POP PUSH1 0x0 PUSH2 0x1B8C PUSH1 0x8 SLOAD PUSH2 0x1B7E PUSH2 0x1B30 PUSH20 0xB3F868E0BE5597D5DB7FEB59E1CADBB0FDDA50A ADDRESS PUSH2 0x364C JUMP JUMPDEST PUSH1 0x9 PUSH1 0x0 DUP9 PUSH20 0xFFFFFFFFFFFFFFFFFFFFFFFFFFFFFFFFFFFFFFFF AND PUSH20 0xFFFFFFFFFFFFFFFFFFFFFFFFFFFFFFFFFFFFFFFF AND DUP2 MSTORE PUSH1 0x20 ADD SWAP1 DUP2 MSTORE PUSH1 0x20 ADD PUSH1 0x0 KECCAK256 SLOAD PUSH2 0x3825 SWAP1 SWAP2 SWAP1 PUSH4 0xFFFFFFFF AND JUMP JUMPDEST PUSH2 0x38AB SWAP1 SWAP2 SWAP1 PUSH4 0xFFFFFFFF AND JUMP JUMPDEST SWAP1 POP PUSH1 0x0 PUSH2 0x1C13 PUSH1 0x8 SLOAD PUSH2 0x1C05 PUSH2 0x1BB7 PUSH20 0x7CEB23FD6BC0ADD59E62AC25578270CFF1B9F619 ADDRESS PUSH2 0x364C JUMP JUMPDEST PUSH1 0x9 PUSH1 0x0 DUP10 PUSH20 0xFFFFFFFFFFFFFFFFFFFFFFFFFFFFFFFFFFFFFFFF AND PUSH20 0xFFFFFFFFFFFFFFFFFFFFFFFFFFFFFFFFFFFFFFFF AND DUP2 MSTORE PUSH1 0x20 ADD SWAP1 DUP2 MSTORE PUSH1 0x20 ADD PUSH1 0x0 KECCAK256 SLOAD PUSH2 0x3825 SWAP1 SWAP2 SWAP1 PUSH4 0xFFFFFFFF AND JUMP JUMPDEST PUSH2 0x38AB SWAP1 SWAP2 SWAP1 PUSH4 0xFFFFFFFF AND JUMP JUMPDEST SWAP1 POP PUSH1 0x0 PUSH2 0x1C9A PUSH1 0x8 SLOAD PUSH2 0x1C8C PUSH2 0x1C3E PUSH20 0x1BFD67037B42CF73ACF2047067BD4F2C47D9BFD6 ADDRESS PUSH2 0x364C JUMP JUMPDEST PUSH1 0x9 PUSH1 0x0 DUP11 PUSH20 0xFFFFFFFFFFFFFFFFFFFFFFFFFFFFFFFFFFFFFFFF AND PUSH20 0xFFFFFFFFFFFFFFFFFFFFFFFFFFFFFFFFFFFFFFFF AND DUP2 MSTORE PUSH1 0x20 ADD SWAP1 DUP2 MSTORE PUSH1 0x20 ADD PUSH1 0x0 KECCAK256 SLOAD PUSH2 0x3825 SWAP1 SWAP2 SWAP1 PUSH4 0xFFFFFFFF AND JUMP JUMPDEST PUSH2 0x38AB SWAP1 SWAP2 SWAP1 PUSH4 0xFFFFFFFF AND JUMP JUMPDEST SWAP1 POP PUSH2 0x1CA8 DUP5 DUP5 DUP5 DUP5 PUSH2 0x2267 JUMP JUMPDEST PUSH2 0x1CDA PUSH20 0xD500B1D8E8EF31E21C99D1DB9A6444D3ADF1270 PUSH20 0x1B02DA8CB0D097EB8D57A175B88C7D8B47997506 PUSH2 0x328D JUMP JUMPDEST PUSH2 0x1D0C PUSH20 0xB3F868E0BE5597D5DB7FEB59E1CADBB0FDDA50A PUSH20 0x1B02DA8CB0D097EB8D57A175B88C7D8B47997506 PUSH2 0x328D JUMP JUMPDEST PUSH2 0x1D3E PUSH20 0x7CEB23FD6BC0ADD59E62AC25578270CFF1B9F619 PUSH20 0x1B02DA8CB0D097EB8D57A175B88C7D8B47997506 PUSH2 0x328D JUMP JUMPDEST PUSH2 0x1D70 PUSH20 0x1BFD67037B42CF73ACF2047067BD4F2C47D9BFD6 PUSH20 0x1B02DA8CB0D097EB8D57A175B88C7D8B47997506 PUSH2 0x328D JUMP JUMPDEST PUSH2 0x1D8D PUSH20 0xD500B1D8E8EF31E21C99D1DB9A6444D3ADF1270 PUSH2 0x2439 JUMP JUMPDEST PUSH2 0x1DAA PUSH20 0xB3F868E0BE5597D5DB7FEB59E1CADBB0FDDA50A PUSH2 0x2439 JUMP JUMPDEST PUSH2 0x1DC7 PUSH20 0x7CEB23FD6BC0ADD59E62AC25578270CFF1B9F619 PUSH2 0x2439 JUMP JUMPDEST PUSH2 0x1DE4 PUSH20 0x1BFD67037B42CF73ACF2047067BD4F2C47D9BFD6 PUSH2 0x2439 JUMP JUMPDEST PUSH2 0x1E16 PUSH20 0x2791BCA1F2DE4661ED88A30C99A7A9449AA84174 PUSH20 0x319000133D3ADA02600F0875D2CF03D442C3367 PUSH2 0x328D JUMP JUMPDEST PUSH2 0x1E35 PUSH20 0x2791BCA1F2DE4661ED88A30C99A7A9449AA84174 ADDRESS ADDRESS PUSH2 0x13E3 JUMP JUMPDEST PUSH1 0x0 PUSH2 0x1E55 PUSH20 0x2791BCA1F2DE4661ED88A30C99A7A9449AA84174 ADDRESS PUSH2 0x364C JUMP JUMPDEST SWAP1 POP PUSH2 0x1E77 DUP2 PUSH20 0x2791BCA1F2DE4661ED88A30C99A7A9449AA84174 ADDRESS DUP10 PUSH2 0x1956 JUMP JUMPDEST PUSH2 0x1E80 DUP7 PUSH2 0x22ED JUMP JUMPDEST POP POP POP POP POP POP JUMP JUMPDEST PUSH20 0x1B02DA8CB0D097EB8D57A175B88C7D8B47997506 DUP2 JUMP JUMPDEST DUP3 PUSH20 0xFFFFFFFFFFFFFFFFFFFFFFFFFFFFFFFFFFFFFFFF AND PUSH4 0x95EA7B3 DUP4 DUP4 PUSH1 0x40 MLOAD DUP4 PUSH4 0xFFFFFFFF AND PUSH1 0xE0 SHL DUP2 MSTORE PUSH1 0x4 ADD DUP1 DUP4 PUSH20 0xFFFFFFFFFFFFFFFFFFFFFFFFFFFFFFFFFFFFFFFF AND DUP2 MSTORE PUSH1 0x20 ADD DUP3 DUP2 MSTORE PUSH1 0x20 ADD SWAP3 POP POP POP PUSH1 0x20 PUSH1 0x40 MLOAD DUP1 DUP4 SUB DUP2 PUSH1 0x0 DUP8 DUP1 EXTCODESIZE ISZERO DUP1 ISZERO PUSH2 0x1F11 JUMPI PUSH1 0x0 DUP1 REVERT JUMPDEST POP GAS CALL ISZERO DUP1 ISZERO PUSH2 0x1F25 JUMPI RETURNDATASIZE PUSH1 0x0 DUP1 RETURNDATACOPY RETURNDATASIZE PUSH1 0x0 REVERT JUMPDEST POP POP POP POP PUSH1 0x40 MLOAD RETURNDATASIZE PUSH1 0x20 DUP2 LT ISZERO PUSH2 0x1F3B JUMPI PUSH1 0x0 DUP1 REVERT JUMPDEST DUP2 ADD SWAP1 DUP1 DUP1 MLOAD SWAP1 PUSH1 0x20 ADD SWAP1 SWAP3 SWAP2 SWAP1 POP POP POP POP POP POP POP JUMP JUMPDEST PUSH1 0x0 DUP4 SWAP1 POP PUSH1 0xA PUSH1 0x0 SWAP1 SLOAD SWAP1 PUSH2 0x100 EXP SWAP1 DIV PUSH20 0xFFFFFFFFFFFFFFFFFFFFFFFFFFFFFFFFFFFFFFFF AND PUSH20 0xFFFFFFFFFFFFFFFFFFFFFFFFFFFFFFFFFFFFFFFF AND PUSH4 0x2B9446C DUP3 DUP6 DUP6 DUP10 PUSH1 0x0 PUSH1 0x40 MLOAD DUP7 PUSH4 0xFFFFFFFF AND PUSH1 0xE0 SHL DUP2 MSTORE PUSH1 0x4 ADD DUP1 DUP7 PUSH20 0xFFFFFFFFFFFFFFFFFFFFFFFFFFFFFFFFFFFFFFFF AND DUP2 MSTORE PUSH1 0x20 ADD DUP6 PUSH20 0xFFFFFFFFFFFFFFFFFFFFFFFFFFFFFFFFFFFFFFFF AND DUP2 MSTORE PUSH1 0x20 ADD DUP5 PUSH20 0xFFFFFFFFFFFFFFFFFFFFFFFFFFFFFFFFFFFFFFFF AND DUP2 MSTORE PUSH1 0x20 ADD DUP4 DUP2 MSTORE PUSH1 0x20 ADD DUP3 DUP2 MSTORE PUSH1 0x20 ADD SWAP6 POP POP POP POP POP POP PUSH1 0x40 DUP1 MLOAD DUP1 DUP4 SUB DUP2 PUSH1 0x0 DUP8 DUP1 EXTCODESIZE ISZERO DUP1 ISZERO PUSH2 0x202E JUMPI PUSH1 0x0 DUP1 REVERT JUMPDEST POP GAS CALL ISZERO DUP1 ISZERO PUSH2 0x2042 JUMPI RETURNDATASIZE PUSH1 0x0 DUP1 RETURNDATACOPY RETURNDATASIZE PUSH1 0x0 REVERT JUMPDEST POP POP POP POP PUSH1 0x40 MLOAD RETURNDATASIZE PUSH1 0x40 DUP2 LT ISZERO PUSH2 0x2058 JUMPI PUSH1 0x0 DUP1 REVERT JUMPDEST DUP2 ADD SWAP1 DUP1 DUP1 MLOAD SWAP1 PUSH1 0x20 ADD SWAP1 SWAP3 SWAP2 SWAP1 DUP1 MLOAD SWAP1 PUSH1 0x20 ADD SWAP1 SWAP3 SWAP2 SWAP1 POP POP POP POP POP POP POP POP POP POP JUMP JUMPDEST PUSH1 0x5 DUP2 DUP2 SLOAD DUP2 LT PUSH2 0x2089 JUMPI INVALID JUMPDEST SWAP1 PUSH1 0x0 MSTORE PUSH1 0x20 PUSH1 0x0 KECCAK256 ADD PUSH1 0x0 SWAP2 POP SLOAD SWAP1 PUSH2 0x100 EXP SWAP1 DIV PUSH20 0xFFFFFFFFFFFFFFFFFFFFFFFFFFFFFFFFFFFFFFFF AND DUP2 JUMP JUMPDEST PUSH1 0x0 PUSH2 0x20E1 DUP4 PUSH2 0x20D3 PUSH1 0x8 SLOAD DUP6 PUSH2 0x3825 SWAP1 SWAP2 SWAP1 PUSH4 0xFFFFFFFF AND JUMP JUMPDEST PUSH2 0x38AB SWAP1 SWAP2 SWAP1 PUSH4 0xFFFFFFFF AND JUMP JUMPDEST SWAP1 POP PUSH2 0x20F8 DUP2 PUSH1 0x8 SLOAD PUSH2 0x379D SWAP1 SWAP2 SWAP1 PUSH4 0xFFFFFFFF AND JUMP JUMPDEST PUSH1 0x8 DUP2 SWAP1 SSTORE POP PUSH1 0x0 PUSH1 0x9 PUSH1 0x0 DUP7 PUSH20 0xFFFFFFFFFFFFFFFFFFFFFFFFFFFFFFFFFFFFFFFF AND PUSH20 0xFFFFFFFFFFFFFFFFFFFFFFFFFFFFFFFFFFFFFFFF AND DUP2 MSTORE PUSH1 0x20 ADD SWAP1 DUP2 MSTORE PUSH1 0x20 ADD PUSH1 0x0 KECCAK256 SLOAD GT ISZERO PUSH2 0x21E0 JUMPI PUSH2 0x2198 DUP2 PUSH1 0x9 PUSH1 0x0 DUP8 PUSH20 0xFFFFFFFFFFFFFFFFFFFFFFFFFFFFFFFFFFFFFFFF AND PUSH20 0xFFFFFFFFFFFFFFFFFFFFFFFFFFFFFFFFFFFFFFFF AND DUP2 MSTORE PUSH1 0x20 ADD SWAP1 DUP2 MSTORE PUSH1 0x20 ADD PUSH1 0x0 KECCAK256 SLOAD PUSH2 0x379D SWAP1 SWAP2 SWAP1 PUSH4 0xFFFFFFFF AND JUMP JUMPDEST PUSH1 0x9 PUSH1 0x0 DUP7 PUSH20 0xFFFFFFFFFFFFFFFFFFFFFFFFFFFFFFFFFFFFFFFF AND PUSH20 0xFFFFFFFFFFFFFFFFFFFFFFFFFFFFFFFFFFFFFFFF AND DUP2 MSTORE PUSH1 0x20 ADD SWAP1 DUP2 MSTORE PUSH1 0x20 ADD PUSH1 0x0 KECCAK256 DUP2 SWAP1 SSTORE POP PUSH2 0x2225 JUMP JUMPDEST DUP1 PUSH1 0x9 PUSH1 0x0 DUP7 PUSH20 0xFFFFFFFFFFFFFFFFFFFFFFFFFFFFFFFFFFFFFFFF AND PUSH20 0xFFFFFFFFFFFFFFFFFFFFFFFFFFFFFFFFFFFFFFFF AND DUP2 MSTORE PUSH1 0x20 ADD SWAP1 DUP2 MSTORE PUSH1 0x20 ADD PUSH1 0x0 KECCAK256 DUP2 SWAP1 SSTORE POP JUMPDEST POP POP POP POP JUMP JUMPDEST PUSH1 0x6 DUP2 DUP2 SLOAD DUP2 LT PUSH2 0x2238 JUMPI INVALID JUMPDEST SWAP1 PUSH1 0x0 MSTORE PUSH1 0x20 PUSH1 0x0 KECCAK256 ADD PUSH1 0x0 SWAP2 POP SLOAD SWAP1 PUSH2 0x100 EXP SWAP1 DIV PUSH20 0xFFFFFFFFFFFFFFFFFFFFFFFFFFFFFFFFFFFFFFFF AND DUP2 JUMP JUMPDEST PUSH2 0x2287 DUP5 PUSH20 0xD500B1D8E8EF31E21C99D1DB9A6444D3ADF1270 ADDRESS ADDRESS PUSH2 0x1956 JUMP JUMPDEST PUSH2 0x22A7 DUP4 PUSH20 0xB3F868E0BE5597D5DB7FEB59E1CADBB0FDDA50A ADDRESS ADDRESS PUSH2 0x1956 JUMP JUMPDEST PUSH2 0x22C7 DUP3 PUSH20 0x7CEB23FD6BC0ADD59E62AC25578270CFF1B9F619 ADDRESS ADDRESS PUSH2 0x1956 JUMP JUMPDEST PUSH2 0x22E7 DUP2 PUSH20 0x1BFD67037B42CF73ACF2047067BD4F2C47D9BFD6 ADDRESS ADDRESS PUSH2 0x1956 JUMP JUMPDEST POP POP POP POP JUMP JUMPDEST PUSH1 0x0 PUSH1 0x9 PUSH1 0x0 DUP4 PUSH20 0xFFFFFFFFFFFFFFFFFFFFFFFFFFFFFFFFFFFFFFFF AND PUSH20 0xFFFFFFFFFFFFFFFFFFFFFFFFFFFFFFFFFFFFFFFF AND DUP2 MSTORE PUSH1 0x20 ADD SWAP1 DUP2 MSTORE PUSH1 0x20 ADD PUSH1 0x0 KECCAK256 SLOAD GT PUSH2 0x23A2 JUMPI PUSH1 0x40 MLOAD PUSH32 0x8C379A000000000000000000000000000000000000000000000000000000000 DUP2 MSTORE PUSH1 0x4 ADD DUP1 DUP1 PUSH1 0x20 ADD DUP3 DUP2 SUB DUP3 MSTORE PUSH1 0x1F DUP2 MSTORE PUSH1 0x20 ADD DUP1 PUSH32 0x4572726F72202D2054686973207573657220686173206E6F2073686172657300 DUP2 MSTORE POP PUSH1 0x20 ADD SWAP2 POP POP PUSH1 0x40 MLOAD DUP1 SWAP2 SUB SWAP1 REVERT JUMPDEST PUSH1 0x9 PUSH1 0x0 DUP3 PUSH20 0xFFFFFFFFFFFFFFFFFFFFFFFFFFFFFFFFFFFFFFFF AND PUSH20 0xFFFFFFFFFFFFFFFFFFFFFFFFFFFFFFFFFFFFFFFF AND DUP2 MSTORE PUSH1 0x20 ADD SWAP1 DUP2 MSTORE PUSH1 0x20 ADD PUSH1 0x0 KECCAK256 SLOAD PUSH1 0x8 PUSH1 0x0 DUP3 DUP3 SLOAD SUB SWAP3 POP POP DUP2 SWAP1 SSTORE POP PUSH1 0x0 PUSH1 0x9 PUSH1 0x0 DUP4 PUSH20 0xFFFFFFFFFFFFFFFFFFFFFFFFFFFFFFFFFFFFFFFF AND PUSH20 0xFFFFFFFFFFFFFFFFFFFFFFFFFFFFFFFFFFFFFFFF AND DUP2 MSTORE PUSH1 0x20 ADD SWAP1 DUP2 MSTORE PUSH1 0x20 ADD PUSH1 0x0 KECCAK256 DUP2 SWAP1 SSTORE POP POP JUMP JUMPDEST PUSH1 0x0 DUP2 PUSH20 0xFFFFFFFFFFFFFFFFFFFFFFFFFFFFFFFFFFFFFFFF AND PUSH4 0x70A08231 ADDRESS PUSH1 0x40 MLOAD DUP3 PUSH4 0xFFFFFFFF AND PUSH1 0xE0 SHL DUP2 MSTORE PUSH1 0x4 ADD DUP1 DUP3 PUSH20 0xFFFFFFFFFFFFFFFFFFFFFFFFFFFFFFFFFFFFFFFF AND DUP2 MSTORE PUSH1 0x20 ADD SWAP2 POP POP PUSH1 0x20 PUSH1 0x40 MLOAD DUP1 DUP4 SUB DUP2 DUP7 DUP1 EXTCODESIZE ISZERO DUP1 ISZERO PUSH2 0x24A2 JUMPI PUSH1 0x0 DUP1 REVERT JUMPDEST POP GAS STATICCALL ISZERO DUP1 ISZERO PUSH2 0x24B6 JUMPI RETURNDATASIZE PUSH1 0x0 DUP1 RETURNDATACOPY RETURNDATASIZE PUSH1 0x0 REVERT JUMPDEST POP POP POP POP PUSH1 0x40 MLOAD RETURNDATASIZE PUSH1 0x20 DUP2 LT ISZERO PUSH2 0x24CC JUMPI PUSH1 0x0 DUP1 REVERT JUMPDEST DUP2 ADD SWAP1 DUP1 DUP1 MLOAD SWAP1 PUSH1 0x20 ADD SWAP1 SWAP3 SWAP2 SWAP1 POP POP POP SWAP1 POP PUSH1 0x60 PUSH1 0x2 PUSH8 0xFFFFFFFFFFFFFFFF DUP2 GT DUP1 ISZERO PUSH2 0x24F9 JUMPI PUSH1 0x0 DUP1 REVERT JUMPDEST POP PUSH1 0x40 MLOAD SWAP1 DUP1 DUP3 MSTORE DUP1 PUSH1 0x20 MUL PUSH1 0x20 ADD DUP3 ADD PUSH1 0x40 MSTORE DUP1 ISZERO PUSH2 0x2528 JUMPI DUP2 PUSH1 0x20 ADD PUSH1 0x20 DUP3 MUL DUP1 CALLDATASIZE DUP4 CALLDATACOPY DUP1 DUP3 ADD SWAP2 POP POP SWAP1 POP JUMPDEST POP SWAP1 POP DUP3 DUP2 PUSH1 0x0 DUP2 MLOAD DUP2 LT PUSH2 0x2539 JUMPI INVALID JUMPDEST PUSH1 0x20 MUL PUSH1 0x20 ADD ADD SWAP1 PUSH20 0xFFFFFFFFFFFFFFFFFFFFFFFFFFFFFFFFFFFFFFFF AND SWAP1 DUP2 PUSH20 0xFFFFFFFFFFFFFFFFFFFFFFFFFFFFFFFFFFFFFFFF AND DUP2 MSTORE POP POP PUSH20 0x2791BCA1F2DE4661ED88A30C99A7A9449AA84174 DUP2 PUSH1 0x1 DUP2 MLOAD DUP2 LT PUSH2 0x2595 JUMPI INVALID JUMPDEST PUSH1 0x20 MUL PUSH1 0x20 ADD ADD SWAP1 PUSH20 0xFFFFFFFFFFFFFFFFFFFFFFFFFFFFFFFFFFFFFFFF AND SWAP1 DUP2 PUSH20 0xFFFFFFFFFFFFFFFFFFFFFFFFFFFFFFFFFFFFFFFF AND DUP2 MSTORE POP POP PUSH2 0x25FD DUP3 PUSH1 0x0 DUP4 ADDRESS PUSH32 0xFFFFFFFFFFFFFFFFFFFFFFFFFFFFFFFFFFFFFFFFFFFFFFFFFFFFFFFFFFFFFFFF PUSH2 0x2DD8 JUMP JUMPDEST POP POP POP JUMP JUMPDEST PUSH4 0x5F5E100 PUSH1 0x9 PUSH1 0x0 DUP4 PUSH20 0xFFFFFFFFFFFFFFFFFFFFFFFFFFFFFFFFFFFFFFFF AND PUSH20 0xFFFFFFFFFFFFFFFFFFFFFFFFFFFFFFFFFFFFFFFF AND DUP2 MSTORE PUSH1 0x20 ADD SWAP1 DUP2 MSTORE PUSH1 0x20 ADD PUSH1 0x0 KECCAK256 DUP2 SWAP1 SSTORE POP PUSH1 0x9 PUSH1 0x0 DUP3 PUSH20 0xFFFFFFFFFFFFFFFFFFFFFFFFFFFFFFFFFFFFFFFF AND PUSH20 0xFFFFFFFFFFFFFFFFFFFFFFFFFFFFFFFFFFFFFFFF AND DUP2 MSTORE PUSH1 0x20 ADD SWAP1 DUP2 MSTORE PUSH1 0x20 ADD PUSH1 0x0 KECCAK256 SLOAD PUSH1 0x8 DUP2 SWAP1 SSTORE POP POP JUMP JUMPDEST PUSH1 0x4 DUP2 DUP2 SLOAD DUP2 LT PUSH2 0x26A0 JUMPI INVALID JUMPDEST SWAP1 PUSH1 0x0 MSTORE PUSH1 0x20 PUSH1 0x0 KECCAK256 ADD PUSH1 0x0 SWAP2 POP SLOAD SWAP1 PUSH2 0x100 EXP SWAP1 DIV PUSH20 0xFFFFFFFFFFFFFFFFFFFFFFFFFFFFFFFFFFFFFFFF AND DUP2 JUMP JUMPDEST PUSH1 0x0 DUP2 DUP2 SLOAD DUP2 LT PUSH2 0x26DC JUMPI INVALID JUMPDEST SWAP1 PUSH1 0x0 MSTORE PUSH1 0x20 PUSH1 0x0 KECCAK256 ADD PUSH1 0x0 SWAP2 POP SLOAD SWAP1 PUSH2 0x100 EXP SWAP1 DIV PUSH20 0xFFFFFFFFFFFFFFFFFFFFFFFFFFFFFFFFFFFFFFFF AND DUP2 JUMP JUMPDEST PUSH20 0xF9680D99D6C9589E2A93A78A04A279E509205945 DUP2 JUMP JUMPDEST PUSH1 0x0 PUSH2 0x274A DUP4 PUSH2 0x273C DUP5 DUP11 PUSH2 0x3825 SWAP1 SWAP2 SWAP1 PUSH4 0xFFFFFFFF AND JUMP JUMPDEST PUSH2 0x38AB SWAP1 SWAP2 SWAP1 PUSH4 0xFFFFFFFF AND JUMP JUMPDEST SWAP1 POP PUSH1 0x0 PUSH2 0x2773 DUP5 PUSH2 0x2765 DUP6 DUP11 PUSH2 0x3825 SWAP1 SWAP2 SWAP1 PUSH4 0xFFFFFFFF AND JUMP JUMPDEST PUSH2 0x38AB SWAP1 SWAP2 SWAP1 PUSH4 0xFFFFFFFF AND JUMP JUMPDEST SWAP1 POP PUSH1 0x0 PUSH2 0x279C DUP6 PUSH2 0x278E DUP7 DUP11 PUSH2 0x3825 SWAP1 SWAP2 SWAP1 PUSH4 0xFFFFFFFF AND JUMP JUMPDEST PUSH2 0x38AB SWAP1 SWAP2 SWAP1 PUSH4 0xFFFFFFFF AND JUMP JUMPDEST SWAP1 POP PUSH1 0x0 PUSH2 0x27C5 DUP7 PUSH2 0x27B7 DUP8 DUP11 PUSH2 0x3825 SWAP1 SWAP2 SWAP1 PUSH4 0xFFFFFFFF AND JUMP JUMPDEST PUSH2 0x38AB SWAP1 SWAP2 SWAP1 PUSH4 0xFFFFFFFF AND JUMP JUMPDEST SWAP1 POP PUSH2 0x287A DUP5 PUSH1 0x0 DUP1 DUP1 SLOAD DUP1 PUSH1 0x20 MUL PUSH1 0x20 ADD PUSH1 0x40 MLOAD SWAP1 DUP2 ADD PUSH1 0x40 MSTORE DUP1 SWAP3 SWAP2 SWAP1 DUP2 DUP2 MSTORE PUSH1 0x20 ADD DUP3 DUP1 SLOAD DUP1 ISZERO PUSH2 0x284E JUMPI PUSH1 0x20 MUL DUP3 ADD SWAP2 SWAP1 PUSH1 0x0 MSTORE PUSH1 0x20 PUSH1 0x0 KECCAK256 SWAP1 JUMPDEST DUP2 PUSH1 0x0 SWAP1 SLOAD SWAP1 PUSH2 0x100 EXP SWAP1 DIV PUSH20 0xFFFFFFFFFFFFFFFFFFFFFFFFFFFFFFFFFFFFFFFF AND PUSH20 0xFFFFFFFFFFFFFFFFFFFFFFFFFFFFFFFFFFFFFFFF AND DUP2 MSTORE PUSH1 0x20 ADD SWAP1 PUSH1 0x1 ADD SWAP1 DUP1 DUP4 GT PUSH2 0x2804 JUMPI JUMPDEST POP POP POP POP POP ADDRESS PUSH32 0xFFFFFFFFFFFFFFFFFFFFFFFFFFFFFFFFFFFFFFFFFFFFFFFFFFFFFFFFFFFFFFFF PUSH2 0x2DD8 JUMP JUMPDEST PUSH2 0x292E DUP4 PUSH1 0x0 PUSH1 0x1 DUP1 SLOAD DUP1 PUSH1 0x20 MUL PUSH1 0x20 ADD PUSH1 0x40 MLOAD SWAP1 DUP2 ADD PUSH1 0x40 MSTORE DUP1 SWAP3 SWAP2 SWAP1 DUP2 DUP2 MSTORE PUSH1 0x20 ADD DUP3 DUP1 SLOAD DUP1 ISZERO PUSH2 0x2902 JUMPI PUSH1 0x20 MUL DUP3 ADD SWAP2 SWAP1 PUSH1 0x0 MSTORE PUSH1 0x20 PUSH1 0x0 KECCAK256 SWAP1 JUMPDEST DUP2 PUSH1 0x0 SWAP1 SLOAD SWAP1 PUSH2 0x100 EXP SWAP1 DIV PUSH20 0xFFFFFFFFFFFFFFFFFFFFFFFFFFFFFFFFFFFFFFFF AND PUSH20 0xFFFFFFFFFFFFFFFFFFFFFFFFFFFFFFFFFFFFFFFF AND DUP2 MSTORE PUSH1 0x20 ADD SWAP1 PUSH1 0x1 ADD SWAP1 DUP1 DUP4 GT PUSH2 0x28B8 JUMPI JUMPDEST POP POP POP POP POP ADDRESS PUSH32 0xFFFFFFFFFFFFFFFFFFFFFFFFFFFFFFFFFFFFFFFFFFFFFFFFFFFFFFFFFFFFFFFF PUSH2 0x2DD8 JUMP JUMPDEST PUSH2 0x29E2 DUP3 PUSH1 0x0 PUSH1 0x2 DUP1 SLOAD DUP1 PUSH1 0x20 MUL PUSH1 0x20 ADD PUSH1 0x40 MLOAD SWAP1 DUP2 ADD PUSH1 0x40 MSTORE DUP1 SWAP3 SWAP2 SWAP1 DUP2 DUP2 MSTORE PUSH1 0x20 ADD DUP3 DUP1 SLOAD DUP1 ISZERO PUSH2 0x29B6 JUMPI PUSH1 0x20 MUL DUP3 ADD SWAP2 SWAP1 PUSH1 0x0 MSTORE PUSH1 0x20 PUSH1 0x0 KECCAK256 SWAP1 JUMPDEST DUP2 PUSH1 0x0 SWAP1 SLOAD SWAP1 PUSH2 0x100 EXP SWAP1 DIV PUSH20 0xFFFFFFFFFFFFFFFFFFFFFFFFFFFFFFFFFFFFFFFF AND PUSH20 0xFFFFFFFFFFFFFFFFFFFFFFFFFFFFFFFFFFFFFFFF AND DUP2 MSTORE PUSH1 0x20 ADD SWAP1 PUSH1 0x1 ADD SWAP1 DUP1 DUP4 GT PUSH2 0x296C JUMPI JUMPDEST POP POP POP POP POP ADDRESS PUSH32 0xFFFFFFFFFFFFFFFFFFFFFFFFFFFFFFFFFFFFFFFFFFFFFFFFFFFFFFFFFFFFFFFF PUSH2 0x2DD8 JUMP JUMPDEST PUSH2 0x2A96 DUP2 PUSH1 0x0 PUSH1 0x3 DUP1 SLOAD DUP1 PUSH1 0x20 MUL PUSH1 0x20 ADD PUSH1 0x40 MLOAD SWAP1 DUP2 ADD PUSH1 0x40 MSTORE DUP1 SWAP3 SWAP2 SWAP1 DUP2 DUP2 MSTORE PUSH1 0x20 ADD DUP3 DUP1 SLOAD DUP1 ISZERO PUSH2 0x2A6A JUMPI PUSH1 0x20 MUL DUP3 ADD SWAP2 SWAP1 PUSH1 0x0 MSTORE PUSH1 0x20 PUSH1 0x0 KECCAK256 SWAP1 JUMPDEST DUP2 PUSH1 0x0 SWAP1 SLOAD SWAP1 PUSH2 0x100 EXP SWAP1 DIV PUSH20 0xFFFFFFFFFFFFFFFFFFFFFFFFFFFFFFFFFFFFFFFF AND PUSH20 0xFFFFFFFFFFFFFFFFFFFFFFFFFFFFFFFFFFFFFFFF AND DUP2 MSTORE PUSH1 0x20 ADD SWAP1 PUSH1 0x1 ADD SWAP1 DUP1 DUP4 GT PUSH2 0x2A20 JUMPI JUMPDEST POP POP POP POP POP ADDRESS PUSH32 0xFFFFFFFFFFFFFFFFFFFFFFFFFFFFFFFFFFFFFFFFFFFFFFFFFFFFFFFFFFFFFFFF PUSH2 0x2DD8 JUMP JUMPDEST POP POP POP POP POP POP POP POP POP POP JUMP JUMPDEST PUSH2 0x2B68 PUSH2 0x2AB9 PUSH1 0x4 DUP4 PUSH2 0x38AB SWAP1 SWAP2 SWAP1 PUSH4 0xFFFFFFFF AND JUMP JUMPDEST PUSH1 0x0 DUP1 DUP1 SLOAD DUP1 PUSH1 0x20 MUL PUSH1 0x20 ADD PUSH1 0x40 MLOAD SWAP1 DUP2 ADD PUSH1 0x40 MSTORE DUP1 SWAP3 SWAP2 SWAP1 DUP2 DUP2 MSTORE PUSH1 0x20 ADD DUP3 DUP1 SLOAD DUP1 ISZERO PUSH2 0x2B3C JUMPI PUSH1 0x20 MUL DUP3 ADD SWAP2 SWAP1 PUSH1 0x0 MSTORE PUSH1 0x20 PUSH1 0x0 KECCAK256 SWAP1 JUMPDEST DUP2 PUSH1 0x0 SWAP1 SLOAD SWAP1 PUSH2 0x100 EXP SWAP1 DIV PUSH20 0xFFFFFFFFFFFFFFFFFFFFFFFFFFFFFFFFFFFFFFFF AND PUSH20 0xFFFFFFFFFFFFFFFFFFFFFFFFFFFFFFFFFFFFFFFF AND DUP2 MSTORE PUSH1 0x20 ADD SWAP1 PUSH1 0x1 ADD SWAP1 DUP1 DUP4 GT PUSH2 0x2AF2 JUMPI JUMPDEST POP POP POP POP POP ADDRESS PUSH32 0xFFFFFFFFFFFFFFFFFFFFFFFFFFFFFFFFFFFFFFFFFFFFFFFFFFFFFFFFFFFFFFFF PUSH2 0x2DD8 JUMP JUMPDEST PUSH2 0x2C2F PUSH2 0x2B7F PUSH1 0x4 DUP4 PUSH2 0x38AB SWAP1 SWAP2 SWAP1 PUSH4 0xFFFFFFFF AND JUMP JUMPDEST PUSH1 0x0 PUSH1 0x1 DUP1 SLOAD DUP1 PUSH1 0x20 MUL PUSH1 0x20 ADD PUSH1 0x40 MLOAD SWAP1 DUP2 ADD PUSH1 0x40 MSTORE DUP1 SWAP3 SWAP2 SWAP1 DUP2 DUP2 MSTORE PUSH1 0x20 ADD DUP3 DUP1 SLOAD DUP1 ISZERO PUSH2 0x2C03 JUMPI PUSH1 0x20 MUL DUP3 ADD SWAP2 SWAP1 PUSH1 0x0 MSTORE PUSH1 0x20 PUSH1 0x0 KECCAK256 SWAP1 JUMPDEST DUP2 PUSH1 0x0 SWAP1 SLOAD SWAP1 PUSH2 0x100 EXP SWAP1 DIV PUSH20 0xFFFFFFFFFFFFFFFFFFFFFFFFFFFFFFFFFFFFFFFF AND PUSH20 0xFFFFFFFFFFFFFFFFFFFFFFFFFFFFFFFFFFFFFFFF AND DUP2 MSTORE PUSH1 0x20 ADD SWAP1 PUSH1 0x1 ADD SWAP1 DUP1 DUP4 GT PUSH2 0x2BB9 JUMPI JUMPDEST POP POP POP POP POP ADDRESS PUSH32 0xFFFFFFFFFFFFFFFFFFFFFFFFFFFFFFFFFFFFFFFFFFFFFFFFFFFFFFFFFFFFFFFF PUSH2 0x2DD8 JUMP JUMPDEST PUSH2 0x2CF6 PUSH2 0x2C46 PUSH1 0x4 DUP4 PUSH2 0x38AB SWAP1 SWAP2 SWAP1 PUSH4 0xFFFFFFFF AND JUMP JUMPDEST PUSH1 0x0 PUSH1 0x2 DUP1 SLOAD DUP1 PUSH1 0x20 MUL PUSH1 0x20 ADD PUSH1 0x40 MLOAD SWAP1 DUP2 ADD PUSH1 0x40 MSTORE DUP1 SWAP3 SWAP2 SWAP1 DUP2 DUP2 MSTORE PUSH1 0x20 ADD DUP3 DUP1 SLOAD DUP1 ISZERO PUSH2 0x2CCA JUMPI PUSH1 0x20 MUL DUP3 ADD SWAP2 SWAP1 PUSH1 0x0 MSTORE PUSH1 0x20 PUSH1 0x0 KECCAK256 SWAP1 JUMPDEST DUP2 PUSH1 0x0 SWAP1 SLOAD SWAP1 PUSH2 0x100 EXP SWAP1 DIV PUSH20 0xFFFFFFFFFFFFFFFFFFFFFFFFFFFFFFFFFFFFFFFF AND PUSH20 0xFFFFFFFFFFFFFFFFFFFFFFFFFFFFFFFFFFFFFFFF AND DUP2 MSTORE PUSH1 0x20 ADD SWAP1 PUSH1 0x1 ADD SWAP1 DUP1 DUP4 GT PUSH2 0x2C80 JUMPI JUMPDEST POP POP POP POP POP ADDRESS PUSH32 0xFFFFFFFFFFFFFFFFFFFFFFFFFFFFFFFFFFFFFFFFFFFFFFFFFFFFFFFFFFFFFFFF PUSH2 0x2DD8 JUMP JUMPDEST PUSH2 0x2DBD PUSH2 0x2D0D PUSH1 0x4 DUP4 PUSH2 0x38AB SWAP1 SWAP2 SWAP1 PUSH4 0xFFFFFFFF AND JUMP JUMPDEST PUSH1 0x0 PUSH1 0x3 DUP1 SLOAD DUP1 PUSH1 0x20 MUL PUSH1 0x20 ADD PUSH1 0x40 MLOAD SWAP1 DUP2 ADD PUSH1 0x40 MSTORE DUP1 SWAP3 SWAP2 SWAP1 DUP2 DUP2 MSTORE PUSH1 0x20 ADD DUP3 DUP1 SLOAD DUP1 ISZERO PUSH2 0x2D91 JUMPI PUSH1 0x20 MUL DUP3 ADD SWAP2 SWAP1 PUSH1 0x0 MSTORE PUSH1 0x20 PUSH1 0x0 KECCAK256 SWAP1 JUMPDEST DUP2 PUSH1 0x0 SWAP1 SLOAD SWAP1 PUSH2 0x100 EXP SWAP1 DIV PUSH20 0xFFFFFFFFFFFFFFFFFFFFFFFFFFFFFFFFFFFFFFFF AND PUSH20 0xFFFFFFFFFFFFFFFFFFFFFFFFFFFFFFFFFFFFFFFF AND DUP2 MSTORE PUSH1 0x20 ADD SWAP1 PUSH1 0x1 ADD SWAP1 DUP1 DUP4 GT PUSH2 0x2D47 JUMPI JUMPDEST POP POP POP POP POP ADDRESS PUSH32 0xFFFFFFFFFFFFFFFFFFFFFFFFFFFFFFFFFFFFFFFFFFFFFFFFFFFFFFFFFFFFFFFF PUSH2 0x2DD8 JUMP JUMPDEST POP JUMP JUMPDEST PUSH20 0xAB594600376EC9FD91F8E885DADF0CE036862DE0 DUP2 JUMP JUMPDEST PUSH1 0xB PUSH1 0x0 SWAP1 SLOAD SWAP1 PUSH2 0x100 EXP SWAP1 DIV PUSH20 0xFFFFFFFFFFFFFFFFFFFFFFFFFFFFFFFFFFFFFFFF AND PUSH20 0xFFFFFFFFFFFFFFFFFFFFFFFFFFFFFFFFFFFFFFFF AND PUSH4 0x38ED1739 DUP7 DUP7 DUP7 DUP7 DUP7 PUSH1 0x40 MLOAD DUP7 PUSH4 0xFFFFFFFF AND PUSH1 0xE0 SHL DUP2 MSTORE PUSH1 0x4 ADD DUP1 DUP7 DUP2 MSTORE PUSH1 0x20 ADD DUP6 DUP2 MSTORE PUSH1 0x20 ADD DUP1 PUSH1 0x20 ADD DUP5 PUSH20 0xFFFFFFFFFFFFFFFFFFFFFFFFFFFFFFFFFFFFFFFF AND DUP2 MSTORE PUSH1 0x20 ADD DUP4 DUP2 MSTORE PUSH1 0x20 ADD DUP3 DUP2 SUB DUP3 MSTORE DUP6 DUP2 DUP2 MLOAD DUP2 MSTORE PUSH1 0x20 ADD SWAP2 POP DUP1 MLOAD SWAP1 PUSH1 0x20 ADD SWAP1 PUSH1 0x20 MUL DUP1 DUP4 DUP4 PUSH1 0x0 JUMPDEST DUP4 DUP2 LT ISZERO PUSH2 0x2E9B JUMPI DUP1 DUP3 ADD MLOAD DUP2 DUP5 ADD MSTORE PUSH1 0x20 DUP2 ADD SWAP1 POP PUSH2 0x2E80 JUMP JUMPDEST POP POP POP POP SWAP1 POP ADD SWAP7 POP POP POP POP POP POP POP PUSH1 0x0 PUSH1 0x40 MLOAD DUP1 DUP4 SUB DUP2 PUSH1 0x0 DUP8 DUP1 EXTCODESIZE ISZERO DUP1 ISZERO PUSH2 0x2EC4 JUMPI PUSH1 0x0 DUP1 REVERT JUMPDEST POP GAS CALL ISZERO DUP1 ISZERO PUSH2 0x2ED8 JUMPI RETURNDATASIZE PUSH1 0x0 DUP1 RETURNDATACOPY RETURNDATASIZE PUSH1 0x0 REVERT JUMPDEST POP POP POP POP PUSH1 0x40 MLOAD RETURNDATASIZE PUSH1 0x0 DUP3 RETURNDATACOPY RETURNDATASIZE PUSH1 0x1F NOT PUSH1 0x1F DUP3 ADD AND DUP3 ADD DUP1 PUSH1 0x40 MSTORE POP PUSH1 0x20 DUP2 LT ISZERO PUSH2 0x2F02 JUMPI PUSH1 0x0 DUP1 REVERT JUMPDEST DUP2 ADD SWAP1 DUP1 DUP1 MLOAD PUSH1 0x40 MLOAD SWAP4 SWAP3 SWAP2 SWAP1 DUP5 PUSH5 0x100000000 DUP3 GT ISZERO PUSH2 0x2F22 JUMPI PUSH1 0x0 DUP1 REVERT JUMPDEST DUP4 DUP3 ADD SWAP2 POP PUSH1 0x20 DUP3 ADD DUP6 DUP2 GT ISZERO PUSH2 0x2F38 JUMPI PUSH1 0x0 DUP1 REVERT JUMPDEST DUP3 MLOAD DUP7 PUSH1 0x20 DUP3 MUL DUP4 ADD GT PUSH5 0x100000000 DUP3 GT OR ISZERO PUSH2 0x2F55 JUMPI PUSH1 0x0 DUP1 REVERT JUMPDEST DUP1 DUP4 MSTORE PUSH1 0x20 DUP4 ADD SWAP3 POP POP POP SWAP1 DUP1 MLOAD SWAP1 PUSH1 0x20 ADD SWAP1 PUSH1 0x20 MUL DUP1 DUP4 DUP4 PUSH1 0x0 JUMPDEST DUP4 DUP2 LT ISZERO PUSH2 0x2F8C JUMPI DUP1 DUP3 ADD MLOAD DUP2 DUP5 ADD MSTORE PUSH1 0x20 DUP2 ADD SWAP1 POP PUSH2 0x2F71 JUMP JUMPDEST POP POP POP POP SWAP1 POP ADD PUSH1 0x40 MSTORE POP POP POP POP POP POP POP POP POP JUMP JUMPDEST PUSH1 0x0 PUSH2 0x2FDF PUSH1 0x2 DUP4 ADD PUSH1 0xA EXP PUSH2 0x2FD1 PUSH2 0x2FB9 DUP7 PUSH2 0x188D JUMP JUMPDEST PUSH2 0x2FC3 DUP9 ADDRESS PUSH2 0x364C JUMP JUMPDEST PUSH2 0x3825 SWAP1 SWAP2 SWAP1 PUSH4 0xFFFFFFFF AND JUMP JUMPDEST PUSH2 0x38AB SWAP1 SWAP2 SWAP1 PUSH4 0xFFFFFFFF AND JUMP JUMPDEST SWAP1 POP SWAP4 SWAP3 POP POP POP JUMP JUMPDEST PUSH1 0x3 DUP2 DUP2 SLOAD DUP2 LT PUSH2 0x2FF5 JUMPI INVALID JUMPDEST SWAP1 PUSH1 0x0 MSTORE PUSH1 0x20 PUSH1 0x0 KECCAK256 ADD PUSH1 0x0 SWAP2 POP SLOAD SWAP1 PUSH2 0x100 EXP SWAP1 DIV PUSH20 0xFFFFFFFFFFFFFFFFFFFFFFFFFFFFFFFFFFFFFFFF AND DUP2 JUMP JUMPDEST PUSH2 0x3062 PUSH20 0xD500B1D8E8EF31E21C99D1DB9A6444D3ADF1270 PUSH20 0x319000133D3ADA02600F0875D2CF03D442C3367 PUSH11 0x845951614014849FFFFFF PUSH2 0x1EA0 JUMP JUMPDEST PUSH2 0x3081 PUSH20 0xD500B1D8E8EF31E21C99D1DB9A6444D3ADF1270 ADDRESS ADDRESS PUSH2 0x13E3 JUMP JUMPDEST PUSH2 0x30BF PUSH20 0xB3F868E0BE5597D5DB7FEB59E1CADBB0FDDA50A PUSH20 0x319000133D3ADA02600F0875D2CF03D442C3367 PUSH11 0x845951614014849FFFFFF PUSH2 0x1EA0 JUMP JUMPDEST PUSH2 0x30DE PUSH20 0xB3F868E0BE5597D5DB7FEB59E1CADBB0FDDA50A ADDRESS ADDRESS PUSH2 0x13E3 JUMP JUMPDEST PUSH2 0x311C PUSH20 0x7CEB23FD6BC0ADD59E62AC25578270CFF1B9F619 PUSH20 0x319000133D3ADA02600F0875D2CF03D442C3367 PUSH11 0x845951614014849FFFFFF PUSH2 0x1EA0 JUMP JUMPDEST PUSH2 0x313B PUSH20 0x7CEB23FD6BC0ADD59E62AC25578270CFF1B9F619 ADDRESS ADDRESS PUSH2 0x13E3 JUMP JUMPDEST PUSH2 0x3179 PUSH20 0x1BFD67037B42CF73ACF2047067BD4F2C47D9BFD6 PUSH20 0x319000133D3ADA02600F0875D2CF03D442C3367 PUSH11 0x845951614014849FFFFFF PUSH2 0x1EA0 JUMP JUMPDEST PUSH2 0x3198 PUSH20 0x1BFD67037B42CF73ACF2047067BD4F2C47D9BFD6 ADDRESS ADDRESS PUSH2 0x13E3 JUMP JUMPDEST JUMP JUMPDEST PUSH1 0x0 DUP5 SWAP1 POP PUSH1 0xA PUSH1 0x0 SWAP1 SLOAD SWAP1 PUSH2 0x100 EXP SWAP1 DIV PUSH20 0xFFFFFFFFFFFFFFFFFFFFFFFFFFFFFFFFFFFFFFFF AND PUSH20 0xFFFFFFFFFFFFFFFFFFFFFFFFFFFFFFFFFFFFFFFF AND PUSH4 0xF18D03CC DUP3 DUP6 DUP6 DUP9 PUSH1 0x40 MLOAD DUP6 PUSH4 0xFFFFFFFF AND PUSH1 0xE0 SHL DUP2 MSTORE PUSH1 0x4 ADD DUP1 DUP6 PUSH20 0xFFFFFFFFFFFFFFFFFFFFFFFFFFFFFFFFFFFFFFFF AND DUP2 MSTORE PUSH1 0x20 ADD DUP5 PUSH20 0xFFFFFFFFFFFFFFFFFFFFFFFFFFFFFFFFFFFFFFFF AND DUP2 MSTORE PUSH1 0x20 ADD DUP4 PUSH20 0xFFFFFFFFFFFFFFFFFFFFFFFFFFFFFFFFFFFFFFFF AND DUP2 MSTORE PUSH1 0x20 ADD DUP3 DUP2 MSTORE PUSH1 0x20 ADD SWAP5 POP POP POP POP POP PUSH1 0x0 PUSH1 0x40 MLOAD DUP1 DUP4 SUB DUP2 PUSH1 0x0 DUP8 DUP1 EXTCODESIZE ISZERO DUP1 ISZERO PUSH2 0x326E JUMPI PUSH1 0x0 DUP1 REVERT JUMPDEST POP GAS CALL ISZERO DUP1 ISZERO PUSH2 0x3282 JUMPI RETURNDATASIZE PUSH1 0x0 DUP1 RETURNDATACOPY RETURNDATASIZE PUSH1 0x0 REVERT JUMPDEST POP POP POP POP POP POP POP POP POP JUMP JUMPDEST PUSH1 0x0 DUP3 PUSH20 0xFFFFFFFFFFFFFFFFFFFFFFFFFFFFFFFFFFFFFFFF AND PUSH4 0x70A08231 ADDRESS PUSH1 0x40 MLOAD DUP3 PUSH4 0xFFFFFFFF AND PUSH1 0xE0 SHL DUP2 MSTORE PUSH1 0x4 ADD DUP1 DUP3 PUSH20 0xFFFFFFFFFFFFFFFFFFFFFFFFFFFFFFFFFFFFFFFF AND DUP2 MSTORE PUSH1 0x20 ADD SWAP2 POP POP PUSH1 0x20 PUSH1 0x40 MLOAD DUP1 DUP4 SUB DUP2 DUP7 DUP1 EXTCODESIZE ISZERO DUP1 ISZERO PUSH2 0x32F6 JUMPI PUSH1 0x0 DUP1 REVERT JUMPDEST POP GAS STATICCALL ISZERO DUP1 ISZERO PUSH2 0x330A JUMPI RETURNDATASIZE PUSH1 0x0 DUP1 RETURNDATACOPY RETURNDATASIZE PUSH1 0x0 REVERT JUMPDEST POP POP POP POP PUSH1 0x40 MLOAD RETURNDATASIZE PUSH1 0x20 DUP2 LT ISZERO PUSH2 0x3320 JUMPI PUSH1 0x0 DUP1 REVERT JUMPDEST DUP2 ADD SWAP1 DUP1 DUP1 MLOAD SWAP1 PUSH1 0x20 ADD SWAP1 SWAP3 SWAP2 SWAP1 POP POP POP SWAP1 POP PUSH2 0x333E DUP4 DUP4 DUP4 PUSH2 0x1EA0 JUMP JUMPDEST POP POP POP JUMP JUMPDEST PUSH1 0xA PUSH1 0x0 SWAP1 SLOAD SWAP1 PUSH2 0x100 EXP SWAP1 DIV PUSH20 0xFFFFFFFFFFFFFFFFFFFFFFFFFFFFFFFFFFFFFFFF AND PUSH20 0xFFFFFFFFFFFFFFFFFFFFFFFFFFFFFFFFFFFFFFFF AND PUSH4 0xAEE4D1B2 PUSH1 0x40 MLOAD DUP2 PUSH4 0xFFFFFFFF AND PUSH1 0xE0 SHL DUP2 MSTORE PUSH1 0x4 ADD PUSH1 0x0 PUSH1 0x40 MLOAD DUP1 DUP4 SUB DUP2 PUSH1 0x0 DUP8 DUP1 EXTCODESIZE ISZERO DUP1 ISZERO PUSH2 0x33AD JUMPI PUSH1 0x0 DUP1 REVERT JUMPDEST POP GAS CALL ISZERO DUP1 ISZERO PUSH2 0x33C1 JUMPI RETURNDATASIZE PUSH1 0x0 DUP1 RETURNDATACOPY RETURNDATASIZE PUSH1 0x0 REVERT JUMPDEST POP POP POP POP JUMP JUMPDEST PUSH20 0xC907E116054AD103354F2D350FD2514433D57F6F DUP2 JUMP JUMPDEST PUSH1 0x0 PUSH1 0x9 PUSH1 0x0 DUP4 PUSH20 0xFFFFFFFFFFFFFFFFFFFFFFFFFFFFFFFFFFFFFFFF AND PUSH20 0xFFFFFFFFFFFFFFFFFFFFFFFFFFFFFFFFFFFFFFFF AND DUP2 MSTORE PUSH1 0x20 ADD SWAP1 DUP2 MSTORE PUSH1 0x20 ADD PUSH1 0x0 KECCAK256 SLOAD SWAP1 POP SWAP2 SWAP1 POP JUMP JUMPDEST PUSH20 0x2791BCA1F2DE4661ED88A30C99A7A9449AA84174 DUP2 JUMP JUMPDEST PUSH20 0x1BFD67037B42CF73ACF2047067BD4F2C47D9BFD6 DUP2 JUMP JUMPDEST PUSH1 0x8 SLOAD DUP2 JUMP JUMPDEST PUSH1 0x7 DUP2 DUP2 SLOAD DUP2 LT PUSH2 0x346B JUMPI INVALID JUMPDEST SWAP1 PUSH1 0x0 MSTORE PUSH1 0x20 PUSH1 0x0 KECCAK256 ADD PUSH1 0x0 SWAP2 POP SLOAD SWAP1 PUSH2 0x100 EXP SWAP1 DIV PUSH20 0xFFFFFFFFFFFFFFFFFFFFFFFFFFFFFFFFFFFFFFFF AND DUP2 JUMP JUMPDEST PUSH1 0x2 DUP2 DUP2 SLOAD DUP2 LT PUSH2 0x34A7 JUMPI INVALID JUMPDEST SWAP1 PUSH1 0x0 MSTORE PUSH1 0x20 PUSH1 0x0 KECCAK256 ADD PUSH1 0x0 SWAP2 POP SLOAD SWAP1 PUSH2 0x100 EXP SWAP1 DIV PUSH20 0xFFFFFFFFFFFFFFFFFFFFFFFFFFFFFFFFFFFFFFFF AND DUP2 JUMP JUMPDEST PUSH1 0x0 PUSH2 0x34F6 PUSH20 0xD500B1D8E8EF31E21C99D1DB9A6444D3ADF1270 ADDRESS PUSH2 0x364C JUMP JUMPDEST SWAP1 POP PUSH1 0x0 PUSH2 0x3518 PUSH20 0xB3F868E0BE5597D5DB7FEB59E1CADBB0FDDA50A ADDRESS PUSH2 0x364C JUMP JUMPDEST SWAP1 POP PUSH1 0x0 PUSH2 0x353A PUSH20 0x7CEB23FD6BC0ADD59E62AC25578270CFF1B9F619 ADDRESS PUSH2 0x364C JUMP JUMPDEST SWAP1 POP PUSH1 0x0 PUSH2 0x355C PUSH20 0x1BFD67037B42CF73ACF2047067BD4F2C47D9BFD6 ADDRESS PUSH2 0x364C JUMP JUMPDEST SWAP1 POP PUSH2 0x356A DUP5 DUP5 DUP5 DUP5 PUSH2 0x2267 JUMP JUMPDEST POP POP POP POP JUMP JUMPDEST PUSH1 0xA PUSH1 0x0 SWAP1 SLOAD SWAP1 PUSH2 0x100 EXP SWAP1 DIV PUSH20 0xFFFFFFFFFFFFFFFFFFFFFFFFFFFFFFFFFFFFFFFF AND DUP2 JUMP JUMPDEST CALLER PUSH20 0xFFFFFFFFFFFFFFFFFFFFFFFFFFFFFFFFFFFFFFFF AND PUSH2 0x8FC DUP3 SWAP1 DUP2 ISZERO MUL SWAP1 PUSH1 0x40 MLOAD PUSH1 0x0 PUSH1 0x40 MLOAD DUP1 DUP4 SUB DUP2 DUP6 DUP9 DUP9 CALL SWAP4 POP POP POP POP ISZERO DUP1 ISZERO PUSH2 0x35DC JUMPI RETURNDATASIZE PUSH1 0x0 DUP1 RETURNDATACOPY RETURNDATASIZE PUSH1 0x0 REVERT JUMPDEST POP POP JUMP JUMPDEST PUSH20 0x49B0C695039243BBFEB8ECD054EB70061FD54AA0 DUP2 JUMP JUMPDEST PUSH1 0x1 DUP2 DUP2 SLOAD DUP2 LT PUSH2 0x3605 JUMPI INVALID JUMPDEST SWAP1 PUSH1 0x0 MSTORE PUSH1 0x20 PUSH1 0x0 KECCAK256 ADD PUSH1 0x0 SWAP2 POP SLOAD SWAP1 PUSH2 0x100 EXP SWAP1 DIV PUSH20 0xFFFFFFFFFFFFFFFFFFFFFFFFFFFFFFFFFFFFFFFF AND DUP2 JUMP JUMPDEST PUSH20 0xD500B1D8E8EF31E21C99D1DB9A6444D3ADF1270 DUP2 JUMP JUMPDEST PUSH1 0x0 DUP1 DUP4 SWAP1 POP PUSH1 0xA PUSH1 0x0 SWAP1 SLOAD SWAP1 PUSH2 0x100 EXP SWAP1 DIV PUSH20 0xFFFFFFFFFFFFFFFFFFFFFFFFFFFFFFFFFFFFFFFF AND PUSH20 0xFFFFFFFFFFFFFFFFFFFFFFFFFFFFFFFFFFFFFFFF AND PUSH4 0xF7888AEC DUP3 DUP6 PUSH1 0x40 MLOAD DUP4 PUSH4 0xFFFFFFFF AND PUSH1 0xE0 SHL DUP2 MSTORE PUSH1 0x4 ADD DUP1 DUP4 PUSH20 0xFFFFFFFFFFFFFFFFFFFFFFFFFFFFFFFFFFFFFFFF AND DUP2 MSTORE PUSH1 0x20 ADD DUP3 PUSH20 0xFFFFFFFFFFFFFFFFFFFFFFFFFFFFFFFFFFFFFFFF AND DUP2 MSTORE PUSH1 0x20 ADD SWAP3 POP POP POP PUSH1 0x20 PUSH1 0x40 MLOAD DUP1 DUP4 SUB DUP2 DUP7 DUP1 EXTCODESIZE ISZERO DUP1 ISZERO PUSH2 0x36F9 JUMPI PUSH1 0x0 DUP1 REVERT JUMPDEST POP GAS STATICCALL ISZERO DUP1 ISZERO PUSH2 0x370D JUMPI RETURNDATASIZE PUSH1 0x0 DUP1 RETURNDATACOPY RETURNDATASIZE PUSH1 0x0 REVERT JUMPDEST POP POP POP POP PUSH1 0x40 MLOAD RETURNDATASIZE PUSH1 0x20 DUP2 LT ISZERO PUSH2 0x3723 JUMPI PUSH1 0x0 DUP1 REVERT JUMPDEST DUP2 ADD SWAP1 DUP1 DUP1 MLOAD SWAP1 PUSH1 0x20 ADD SWAP1 SWAP3 SWAP2 SWAP1 POP POP POP SWAP2 POP POP SWAP3 SWAP2 POP POP JUMP JUMPDEST PUSH20 0x319000133D3ADA02600F0875D2CF03D442C3367 DUP2 JUMP JUMPDEST PUSH1 0x9 PUSH1 0x20 MSTORE DUP1 PUSH1 0x0 MSTORE PUSH1 0x40 PUSH1 0x0 KECCAK256 PUSH1 0x0 SWAP2 POP SWAP1 POP SLOAD DUP2 JUMP JUMPDEST PUSH2 0x3775 PUSH2 0x3024 JUMP JUMPDEST JUMP JUMPDEST PUSH1 0xB PUSH1 0x0 SWAP1 SLOAD SWAP1 PUSH2 0x100 EXP SWAP1 DIV PUSH20 0xFFFFFFFFFFFFFFFFFFFFFFFFFFFFFFFFFFFFFFFF AND DUP2 JUMP JUMPDEST PUSH1 0x0 DUP1 DUP3 DUP5 ADD SWAP1 POP DUP4 DUP2 LT ISZERO PUSH2 0x381B JUMPI PUSH1 0x40 MLOAD PUSH32 0x8C379A000000000000000000000000000000000000000000000000000000000 DUP2 MSTORE PUSH1 0x4 ADD DUP1 DUP1 PUSH1 0x20 ADD DUP3 DUP2 SUB DUP3 MSTORE PUSH1 0x1B DUP2 MSTORE PUSH1 0x20 ADD DUP1 PUSH32 0x536166654D6174683A206164646974696F6E206F766572666C6F770000000000 DUP2 MSTORE POP PUSH1 0x20 ADD SWAP2 POP POP PUSH1 0x40 MLOAD DUP1 SWAP2 SUB SWAP1 REVERT JUMPDEST DUP1 SWAP2 POP POP SWAP3 SWAP2 POP POP JUMP JUMPDEST PUSH1 0x0 DUP1 DUP4 EQ ISZERO PUSH2 0x3838 JUMPI PUSH1 0x0 SWAP1 POP PUSH2 0x38A5 JUMP JUMPDEST PUSH1 0x0 DUP3 DUP5 MUL SWAP1 POP DUP3 DUP5 DUP3 DUP2 PUSH2 0x3849 JUMPI INVALID JUMPDEST DIV EQ PUSH2 0x38A0 JUMPI PUSH1 0x40 MLOAD PUSH32 0x8C379A000000000000000000000000000000000000000000000000000000000 DUP2 MSTORE PUSH1 0x4 ADD DUP1 DUP1 PUSH1 0x20 ADD DUP3 DUP2 SUB DUP3 MSTORE PUSH1 0x21 DUP2 MSTORE PUSH1 0x20 ADD DUP1 PUSH2 0x3935 PUSH1 0x21 SWAP2 CODECOPY PUSH1 0x40 ADD SWAP2 POP POP PUSH1 0x40 MLOAD DUP1 SWAP2 SUB SWAP1 REVERT JUMPDEST DUP1 SWAP2 POP POP JUMPDEST SWAP3 SWAP2 POP POP JUMP JUMPDEST PUSH1 0x0 DUP1 DUP3 GT PUSH2 0x3922 JUMPI PUSH1 0x40 MLOAD PUSH32 0x8C379A000000000000000000000000000000000000000000000000000000000 DUP2 MSTORE PUSH1 0x4 ADD DUP1 DUP1 PUSH1 0x20 ADD DUP3 DUP2 SUB DUP3 MSTORE PUSH1 0x1A DUP2 MSTORE PUSH1 0x20 ADD DUP1 PUSH32 0x536166654D6174683A206469766973696F6E206279207A65726F000000000000 DUP2 MSTORE POP PUSH1 0x20 ADD SWAP2 POP POP PUSH1 0x40 MLOAD DUP1 SWAP2 SUB SWAP1 REVERT JUMPDEST DUP2 DUP4 DUP2 PUSH2 0x392B JUMPI INVALID JUMPDEST DIV SWAP1 POP SWAP3 SWAP2 POP POP JUMP INVALID MSTORE8 PUSH2 0x6665 0x4D PUSH2 0x7468 GASPRICE KECCAK256 PUSH14 0x756C7469706C69636174696F6E20 PUSH16 0x766572666C6F77A26469706673582212 KECCAK256 STOP 0x21 PUSH31 0x43EBEC7D94158AC374668A6F841AE76BDE6F5B2C90F926A0E790793A3E6473 PUSH16 0x6C634300060C00330000000000000000 "
				},
				"gasEstimates": {
					"creation": {
						"codeDepositCost": "2946200",
						"executionCost": "infinite",
						"totalCost": "infinite"
					},
					"external": {
						"BENTOBOX_MASTER_CONTRACT_ADDRESS()": "299",
						"BTC_USD_ORACLE()": "256",
						"BentoMasterContract()": "1136",
						"BentoTokenBalanceOf(address,address)": "infinite",
						"ETH_USD_ORACLE()": "278",
						"MATIC_USD_ORACLE()": "344",
						"SUSHISWAP_ROUTER()": "279",
						"SUSHIToUSDCPath(uint256)": "2145",
						"SUSHI_ADDRESS()": "280",
						"SUSHI_USD_ORACLE()": "344",
						"USDCToSUSHIPath(uint256)": "2166",
						"USDCToWBTCPath(uint256)": "2079",
						"USDCToWETHPath(uint256)": "2056",
						"USDCToWMATICPath(uint256)": "2056",
						"USDC_ADDRESS()": "300",
						"WBTCToUSDCPath(uint256)": "2166",
						"WBTC_ADDRESS()": "322",
						"WETHToUSDCPath(uint256)": "2057",
						"WETH_ADDRESS()": "258",
						"WMATICToUSDCPath(uint256)": "2167",
						"WMATIC_ADDRESS()": "255",
						"approveSpendingWholeBalance(address,address)": "infinite",
						"approve_spending(address,address,uint256)": "infinite",
						"depositAllFourTokensBackToBento()": "infinite",
						"depositToBento(uint256,address,address,address)": "infinite",
						"depositTokenBalanceToBento(address,address,address)": "infinite",
						"depositUserFunds(uint256,address,address,address)": "infinite",
						"getLatestPrice(address)": "infinite",
						"getUSDBentoTokenBalanceOf(address,address,uint256)": "infinite",
						"getUserShares(address)": "1263",
						"rebalanceOne()": "infinite",
						"rebalanceThree()": "infinite",
						"registerProtocol()": "infinite",
						"setSharesFirstTime(address)": "41376",
						"sushiSwapRouter()": "1201",
						"swap(uint256,uint256,address[],address,uint256)": "infinite",
						"swapIntoFourEqualParts(uint256)": "infinite",
						"swapProportionately(uint256,uint256,uint256,uint256,uint256,uint256)": "infinite",
						"swapWholeBalanceBackToUSDC(address)": "infinite",
						"totalNumberOfShares()": "1138",
						"transfer(address,uint256,address,address)": "infinite",
						"updateSharesOnDeposit(address,uint256,uint256)": "infinite",
						"updateSharesOnWithdrawal(address)": "28064",
						"userNumberOfShares(address)": "1279",
						"withdraw(uint256,address,address,address)": "infinite",
						"withdrawAllFourTokensFromBento(uint256,uint256,uint256,uint256)": "infinite",
						"withdrawUserFunds(address)": "infinite",
						"withdraw_matic(uint256)": "infinite"
					}
				},
				"methodIdentifiers": {
					"BENTOBOX_MASTER_CONTRACT_ADDRESS()": "edc46f3d",
					"BTC_USD_ORACLE()": "b6e20a6a",
					"BentoMasterContract()": "d58c5b0b",
					"BentoTokenBalanceOf(address,address)": "ec8def84",
					"ETH_USD_ORACLE()": "718176e5",
					"MATIC_USD_ORACLE()": "8db9f39a",
					"SUSHISWAP_ROUTER()": "277754ed",
					"SUSHIToUSDCPath(uint256)": "3f5b948b",
					"SUSHI_ADDRESS()": "0a51faba",
					"SUSHI_USD_ORACLE()": "e66c528f",
					"USDCToSUSHIPath(uint256)": "e93ef21a",
					"USDCToWBTCPath(uint256)": "a15c7d10",
					"USDCToWETHPath(uint256)": "cb3601b1",
					"USDCToWMATICPath(uint256)": "69bc4388",
					"USDC_ADDRESS()": "bb09d9b7",
					"WBTCToUSDCPath(uint256)": "ca970905",
					"WBTC_ADDRESS()": "bdd5915f",
					"WETHToUSDCPath(uint256)": "44345f23",
					"WETH_ADDRESS()": "040141e5",
					"WMATICToUSDCPath(uint256)": "681bcf13",
					"WMATIC_ADDRESS()": "e95d8328",
					"approveSpendingWholeBalance(address,address)": "aa5a7aa3",
					"approve_spending(address,address,uint256)": "29a97ec2",
					"depositAllFourTokensBackToBento()": "a2266357",
					"depositToBento(uint256,address,address,address)": "35c67cd6",
					"depositTokenBalanceToBento(address,address,address)": "0d36b76b",
					"depositUserFunds(uint256,address,address,address)": "123b1154",
					"getLatestPrice(address)": "16345f18",
					"getUSDBentoTokenBalanceOf(address,address,uint256)": "95e413d8",
					"getUserShares(address)": "ba0cb22b",
					"rebalanceOne()": "d48bbd64",
					"rebalanceThree()": "f575e048",
					"registerProtocol()": "aee4d1b2",
					"setSharesFirstTime(address)": "6583530f",
					"sushiSwapRouter()": "fd829a23",
					"swap(uint256,uint256,address[],address,uint256)": "90f11e84",
					"swapIntoFourEqualParts(uint256)": "88e42b08",
					"swapProportionately(uint256,uint256,uint256,uint256,uint256,uint256)": "764f96f9",
					"swapWholeBalanceBackToUSDC(address)": "494df3a2",
					"totalNumberOfShares()": "c3f5a305",
					"transfer(address,uint256,address,address)": "a6c4e467",
					"updateSharesOnDeposit(address,uint256,uint256)": "44250955",
					"updateSharesOnWithdrawal(address)": "4690738c",
					"userNumberOfShares(address)": "ef455bad",
					"withdraw(uint256,address,address,address)": "23e103a8",
					"withdrawAllFourTokensFromBento(uint256,uint256,uint256,uint256)": "45ab6647",
					"withdrawUserFunds(address)": "24e2e7bb",
					"withdraw_matic(uint256)": "d9155b11"
				}
			},
			"storageLayout": {
				"storage": [
					{
						"astId": 446,
						"contract": "contracts/bentoboxDapp.sol:bentoboxDapp",
						"label": "USDCToWMATICPath",
						"offset": 0,
						"slot": "0",
						"type": "t_array(t_address)dyn_storage"
					},
					{
						"astId": 452,
						"contract": "contracts/bentoboxDapp.sol:bentoboxDapp",
						"label": "USDCToSUSHIPath",
						"offset": 0,
						"slot": "1",
						"type": "t_array(t_address)dyn_storage"
					},
					{
						"astId": 458,
						"contract": "contracts/bentoboxDapp.sol:bentoboxDapp",
						"label": "USDCToWETHPath",
						"offset": 0,
						"slot": "2",
						"type": "t_array(t_address)dyn_storage"
					},
					{
						"astId": 464,
						"contract": "contracts/bentoboxDapp.sol:bentoboxDapp",
						"label": "USDCToWBTCPath",
						"offset": 0,
						"slot": "3",
						"type": "t_array(t_address)dyn_storage"
					},
					{
						"astId": 470,
						"contract": "contracts/bentoboxDapp.sol:bentoboxDapp",
						"label": "WMATICToUSDCPath",
						"offset": 0,
						"slot": "4",
						"type": "t_array(t_address)dyn_storage"
					},
					{
						"astId": 476,
						"contract": "contracts/bentoboxDapp.sol:bentoboxDapp",
						"label": "SUSHIToUSDCPath",
						"offset": 0,
						"slot": "5",
						"type": "t_array(t_address)dyn_storage"
					},
					{
						"astId": 482,
						"contract": "contracts/bentoboxDapp.sol:bentoboxDapp",
						"label": "WETHToUSDCPath",
						"offset": 0,
						"slot": "6",
						"type": "t_array(t_address)dyn_storage"
					},
					{
						"astId": 488,
						"contract": "contracts/bentoboxDapp.sol:bentoboxDapp",
						"label": "WBTCToUSDCPath",
						"offset": 0,
						"slot": "7",
						"type": "t_array(t_address)dyn_storage"
					},
					{
						"astId": 493,
						"contract": "contracts/bentoboxDapp.sol:bentoboxDapp",
						"label": "totalNumberOfShares",
						"offset": 0,
						"slot": "8",
						"type": "t_uint256"
					},
					{
						"astId": 497,
						"contract": "contracts/bentoboxDapp.sol:bentoboxDapp",
						"label": "userNumberOfShares",
						"offset": 0,
						"slot": "9",
						"type": "t_mapping(t_address,t_uint256)"
					},
					{
						"astId": 502,
						"contract": "contracts/bentoboxDapp.sol:bentoboxDapp",
						"label": "BentoMasterContract",
						"offset": 0,
						"slot": "10",
						"type": "t_contract(IBentoBoxV1)2774"
					},
					{
						"astId": 507,
						"contract": "contracts/bentoboxDapp.sol:bentoboxDapp",
						"label": "sushiSwapRouter",
						"offset": 0,
						"slot": "11",
						"type": "t_contract(IUniswapV2Router02)3285"
					}
				],
				"types": {
					"t_address": {
						"encoding": "inplace",
						"label": "address",
						"numberOfBytes": "20"
					},
					"t_array(t_address)dyn_storage": {
						"base": "t_address",
						"encoding": "dynamic_array",
						"label": "address[]",
						"numberOfBytes": "32"
					},
					"t_contract(IBentoBoxV1)2774": {
						"encoding": "inplace",
						"label": "contract IBentoBoxV1",
						"numberOfBytes": "20"
					},
					"t_contract(IUniswapV2Router02)3285": {
						"encoding": "inplace",
						"label": "contract IUniswapV2Router02",
						"numberOfBytes": "20"
					},
					"t_mapping(t_address,t_uint256)": {
						"encoding": "mapping",
						"key": "t_address",
						"label": "mapping(address => uint256)",
						"numberOfBytes": "32",
						"value": "t_uint256"
					},
					"t_uint256": {
						"encoding": "inplace",
						"label": "uint256",
						"numberOfBytes": "32"
					}
				}
			},
			"userdoc": {
				"kind": "user",
				"methods": {
					"getLatestPrice(address)": {
						"notice": "Returns the latest price"
					}
				},
				"version": 1
			}
		}
	}
}