{
	"data": {
		"bytecode": {
			"linkReferences": {},
			"object": "60806040526040518060400160405280732791bca1f2de4661ed88a30c99a7a9449aa8417473ffffffffffffffffffffffffffffffffffffffff1673ffffffffffffffffffffffffffffffffffffffff168152602001730d500b1d8e8ef31e21c99d1db9a6444d3adf127073ffffffffffffffffffffffffffffffffffffffff1673ffffffffffffffffffffffffffffffffffffffff168152506000906002620000ab929190620005b2565b506040518060400160405280732791bca1f2de4661ed88a30c99a7a9449aa8417473ffffffffffffffffffffffffffffffffffffffff1673ffffffffffffffffffffffffffffffffffffffff16815260200173bbba073c31bf03b8acf7c28ef0738decf369568373ffffffffffffffffffffffffffffffffffffffff1673ffffffffffffffffffffffffffffffffffffffff16815250600190600262000153929190620005b2565b506040518060400160405280732791bca1f2de4661ed88a30c99a7a9449aa8417473ffffffffffffffffffffffffffffffffffffffff1673ffffffffffffffffffffffffffffffffffffffff168152602001737ceb23fd6bc0add59e62ac25578270cff1b9f61973ffffffffffffffffffffffffffffffffffffffff1673ffffffffffffffffffffffffffffffffffffffff168152506002906002620001fb929190620005b2565b506040518060400160405280732791bca1f2de4661ed88a30c99a7a9449aa8417473ffffffffffffffffffffffffffffffffffffffff1673ffffffffffffffffffffffffffffffffffffffff168152602001731bfd67037b42cf73acf2047067bd4f2c47d9bfd673ffffffffffffffffffffffffffffffffffffffff1673ffffffffffffffffffffffffffffffffffffffff168152506003906002620002a3929190620005b2565b506040518060400160405280730d500b1d8e8ef31e21c99d1db9a6444d3adf127073ffffffffffffffffffffffffffffffffffffffff1673ffffffffffffffffffffffffffffffffffffffff168152602001732791bca1f2de4661ed88a30c99a7a9449aa8417473ffffffffffffffffffffffffffffffffffffffff1673ffffffffffffffffffffffffffffffffffffffff1681525060049060026200034b929190620005b2565b50604051806040016040528073bbba073c31bf03b8acf7c28ef0738decf369568373ffffffffffffffffffffffffffffffffffffffff1673ffffffffffffffffffffffffffffffffffffffff168152602001732791bca1f2de4661ed88a30c99a7a9449aa8417473ffffffffffffffffffffffffffffffffffffffff1673ffffffffffffffffffffffffffffffffffffffff168152506005906002620003f3929190620005b2565b506040518060400160405280737ceb23fd6bc0add59e62ac25578270cff1b9f61973ffffffffffffffffffffffffffffffffffffffff1673ffffffffffffffffffffffffffffffffffffffff168152602001732791bca1f2de4661ed88a30c99a7a9449aa8417473ffffffffffffffffffffffffffffffffffffffff1673ffffffffffffffffffffffffffffffffffffffff1681525060069060026200049b929190620005b2565b506040518060400160405280731bfd67037b42cf73acf2047067bd4f2c47d9bfd673ffffffffffffffffffffffffffffffffffffffff1673ffffffffffffffffffffffffffffffffffffffff168152602001732791bca1f2de4661ed88a30c99a7a9449aa8417473ffffffffffffffffffffffffffffffffffffffff1673ffffffffffffffffffffffffffffffffffffffff16815250600790600262000543929190620005b2565b50603c600a5573a5e0829caced8ffdd4de3c43696c57f7d7a678ff600c60006101000a81548173ffffffffffffffffffffffffffffffffffffffff021916908373ffffffffffffffffffffffffffffffffffffffff160217905550348015620005ab57600080fd5b5062000660565b8280548282559060005260206000209081019282156200062e579160200282015b828111156200062d5782518260006101000a81548173ffffffffffffffffffffffffffffffffffffffff021916908373ffffffffffffffffffffffffffffffffffffffff16021790555091602001919060010190620005d3565b5b5090506200063d919062000641565b5090565b5b808211156200065c57600081600090555060010162000642565b5090565b6149ea80620006706000396000f3fe6080604052600436106102555760003560e01c80638db9f39a11610139578063bdd5915f116100b6578063cd3f5b531161007a578063cd3f5b531461093e578063cf41281014610969578063d091911614610992578063e189eb42146109bd578063e95d8328146109e8578063ef455bad14610a135761025c565b8063bdd5915f14610845578063c3f5a30514610870578063c5764eec1461089b578063ca970905146108c4578063cb3601b1146109015761025c565b8063aa5a7aa3116100fd578063aa5a7aa314610760578063b460af9414610789578063b6e20a6a146107b2578063ba0cb22b146107dd578063bb09d9b71461081a5761025c565b80638db9f39a1461066757806390f11e8414610692578063947a36fb146106bb578063a15c7d10146106e6578063a48ce279146107235761025c565b806344345f23116101d2578063681bcf1311610196578063681bcf131461053257806369bc43881461056f5780636e04ff0d146105ac578063718176e5146105ea578063764f96f91461061557806388e42b081461063e5761025c565b806344345f231461043d5780634585e33b1461047a5780634690738c146104a357806351f54887146104cc5780636583530f146105095761025c565b806324e2e7bb1161021957806324e2e7bb1461036c57806329a97ec2146103955780632d365d31146103be5780633f3b3b27146103e957806344250955146104145761025c565b8063040141e51461026157806316345f181461028c5780631bea8006146102c957806322a900821461030657806323aad7af1461032f5761025c565b3661025c57005b600080fd5b34801561026d57600080fd5b50610276610a50565b6040516102839190613e22565b60405180910390f35b34801561029857600080fd5b506102b360048036038101906102ae919061376a565b610a68565b6040516102c09190613f1f565b60405180910390f35b3480156102d557600080fd5b506102f060048036038101906102eb9190613797565b610b06565b6040516102fd9190613f5a565b60405180910390f35b34801561031257600080fd5b5061032d600480360381019061032891906139f8565b610b9e565b005b34801561033b57600080fd5b50610356600480360381019061035191906139f8565b610ba8565b6040516103639190613e22565b60405180910390f35b34801561037857600080fd5b50610393600480360381019061038e919061376a565b610be7565b005b3480156103a157600080fd5b506103bc60048036038101906103b791906137d7565b610f61565b005b3480156103ca57600080fd5b506103d3610ff4565b6040516103e09190613e22565b60405180910390f35b3480156103f557600080fd5b506103fe61100c565b60405161040b9190613f5a565b60405180910390f35b34801561042057600080fd5b5061043b6004803603810190610436919061386a565b611012565b005b34801561044957600080fd5b50610464600480360381019061045f91906139f8565b611169565b6040516104719190613e22565b60405180910390f35b34801561048657600080fd5b506104a1600480360381019061049c91906139ab565b6111a8565b005b3480156104af57600080fd5b506104ca60048036038101906104c5919061376a565b6116be565b005b3480156104d857600080fd5b506104f360048036038101906104ee91906137d7565b6117e0565b6040516105009190613f5a565b60405180910390f35b34801561051557600080fd5b50610530600480360381019061052b919061376a565b61182b565b005b34801561053e57600080fd5b50610559600480360381019061055491906139f8565b6118bc565b6040516105669190613e22565b60405180910390f35b34801561057b57600080fd5b50610596600480360381019061059191906139f8565b6118fb565b6040516105a39190613e22565b60405180910390f35b3480156105b857600080fd5b506105d360048036038101906105ce91906139ab565b61193a565b6040516105e1929190613ed4565b60405180910390f35b3480156105f657600080fd5b506105ff612716565b60405161060c9190613e22565b60405180910390f35b34801561062157600080fd5b5061063c60048036038101906106379190613b3c565b61272e565b005b34801561064a57600080fd5b50610665600480360381019061066091906139f8565b612a09565b005b34801561067357600080fd5b5061067c612c9f565b6040516106899190613e22565b60405180910390f35b34801561069e57600080fd5b506106b960048036038101906106b49190613aa5565b612cb7565b005b3480156106c757600080fd5b506106d0612d79565b6040516106dd9190613f5a565b60405180910390f35b3480156106f257600080fd5b5061070d600480360381019061070891906139f8565b612d7f565b60405161071a9190613e22565b60405180910390f35b34801561072f57600080fd5b5061074a600480360381019061074591906139f8565b612dbe565b6040516107579190613e22565b60405180910390f35b34801561076c57600080fd5b5061078760048036038101906107829190613797565b612dfd565b005b34801561079557600080fd5b506107b060048036038101906107ab9190613a52565b612e9a565b005b3480156107be57600080fd5b506107c7612f33565b6040516107d49190613e22565b60405180910390f35b3480156107e957600080fd5b5061080460048036038101906107ff919061376a565b612f4b565b6040516108119190613f5a565b60405180910390f35b34801561082657600080fd5b5061082f612f94565b60405161083c9190613e22565b60405180910390f35b34801561085157600080fd5b5061085a612fac565b6040516108679190613e22565b60405180910390f35b34801561087c57600080fd5b50610885612fc4565b6040516108929190613f5a565b60405180910390f35b3480156108a757600080fd5b506108c260048036038101906108bd91906139f8565b612fca565b005b3480156108d057600080fd5b506108eb60048036038101906108e691906139f8565b6131f8565b6040516108f89190613e22565b60405180910390f35b34801561090d57600080fd5b50610928600480360381019061092391906139f8565b613237565b6040516109359190613e22565b60405180910390f35b34801561094a57600080fd5b50610953613276565b6040516109609190613e22565b60405180910390f35b34801561097557600080fd5b50610990600480360381019061098b919061382a565b61328e565b005b34801561099e57600080fd5b506109a76133a6565b6040516109b49190613e22565b60405180910390f35b3480156109c957600080fd5b506109d26133be565b6040516109df9190613f04565b60405180910390f35b3480156109f457600080fd5b506109fd6133e4565b604051610a0a9190613e22565b60405180910390f35b348015610a1f57600080fd5b50610a3a6004803603810190610a35919061376a565b6133fc565b604051610a479190613f5a565b60405180910390f35b737ceb23fd6bc0add59e62ac25578270cff1b9f61981565b6000806000806000808673ffffffffffffffffffffffffffffffffffffffff1663feaf968c6040518163ffffffff1660e01b815260040160a06040518083038186803b158015610ab757600080fd5b505afa158015610acb573d6000803e3d6000fd5b505050506040513d601f19601f82011682018060405250810190610aef9190613bc9565b945094509450945094508395505050505050919050565b6000808390508073ffffffffffffffffffffffffffffffffffffffff166370a08231846040518263ffffffff1660e01b8152600401610b459190613e22565b60206040518083038186803b158015610b5d57600080fd5b505afa158015610b71573d6000803e3d6000fd5b505050506040513d601f19601f82011682018060405250810190610b959190613a25565b91505092915050565b80600a8190555050565b60018181548110610bb857600080fd5b906000526020600020016000915054906101000a900473ffffffffffffffffffffffffffffffffffffffff1681565b6000600854610c0a730d500b1d8e8ef31e21c99d1db9a6444d3adf127030610b06565b600b60008573ffffffffffffffffffffffffffffffffffffffff1673ffffffffffffffffffffffffffffffffffffffff16815260200190815260200160002054610c54919061452f565b610c5e9190614276565b90506000600854610c8373bbba073c31bf03b8acf7c28ef0738decf369568330610b06565b600b60008673ffffffffffffffffffffffffffffffffffffffff1673ffffffffffffffffffffffffffffffffffffffff16815260200190815260200160002054610ccd919061452f565b610cd79190614276565b90506000600854610cfc737ceb23fd6bc0add59e62ac25578270cff1b9f61930610b06565b600b60008773ffffffffffffffffffffffffffffffffffffffff1673ffffffffffffffffffffffffffffffffffffffff16815260200190815260200160002054610d46919061452f565b610d509190614276565b90506000600854610d75731bfd67037b42cf73acf2047067bd4f2c47d9bfd630610b06565b600b60008873ffffffffffffffffffffffffffffffffffffffff1673ffffffffffffffffffffffffffffffffffffffff16815260200190815260200160002054610dbf919061452f565b610dc99190614276565b9050610dfe730d500b1d8e8ef31e21c99d1db9a6444d3adf127073a5e0829caced8ffdd4de3c43696c57f7d7a678ff86610f61565b610e3173bbba073c31bf03b8acf7c28ef0738decf369568373a5e0829caced8ffdd4de3c43696c57f7d7a678ff85610f61565b610e64737ceb23fd6bc0add59e62ac25578270cff1b9f61973a5e0829caced8ffdd4de3c43696c57f7d7a678ff84610f61565b610e97731bfd67037b42cf73acf2047067bd4f2c47d9bfd673a5e0829caced8ffdd4de3c43696c57f7d7a678ff83610f61565b610eb5730d500b1d8e8ef31e21c99d1db9a6444d3adf12708561328e565b610ed373bbba073c31bf03b8acf7c28ef0738decf36956838461328e565b610ef1737ceb23fd6bc0add59e62ac25578270cff1b9f6198361328e565b610f0f731bfd67037b42cf73acf2047067bd4f2c47d9bfd68261328e565b6000610f2f732791bca1f2de4661ed88a30c99a7a9449aa8417430610b06565b9050610f5081732791bca1f2de4661ed88a30c99a7a9449aa8417488612e9a565b610f59866116be565b505050505050565b8273ffffffffffffffffffffffffffffffffffffffff1663095ea7b383836040518363ffffffff1660e01b8152600401610f9c929190613e74565b602060405180830381600087803b158015610fb657600080fd5b505af1158015610fca573d6000803e3d6000fd5b505050506040513d601f19601f82011682018060405250810190610fee919061397e565b50505050565b73bbba073c31bf03b8acf7c28ef0738decf369568381565b60095481565b60008260085483611023919061452f565b61102d9190614276565b90508060085461103d919061417f565b6008819055506000600b60008673ffffffffffffffffffffffffffffffffffffffff1673ffffffffffffffffffffffffffffffffffffffff16815260200190815260200160002054111561111e5780600b60008673ffffffffffffffffffffffffffffffffffffffff1673ffffffffffffffffffffffffffffffffffffffff168152602001908152602001600020546110d6919061417f565b600b60008673ffffffffffffffffffffffffffffffffffffffff1673ffffffffffffffffffffffffffffffffffffffff16815260200190815260200160002081905550611163565b80600b60008673ffffffffffffffffffffffffffffffffffffffff1673ffffffffffffffffffffffffffffffffffffffff168152602001908152602001600020819055505b50505050565b6006818154811061117957600080fd5b906000526020600020016000915054906101000a900473ffffffffffffffffffffffffffffffffffffffff1681565b600a54600954426111b99190614658565b11156116ba57426009819055506060806000600267ffffffffffffffff8111156111e6576111e561489b565b5b6040519080825280602002602001820160405280156112145781602001602082028036833780820191505090505b5090506000600367ffffffffffffffff8111156112345761123361489b565b5b6040519080825280602002602001820160405280156112625781602001602082028036833780820191505090505b509050858581019061127491906138bd565b809450819550505060005b83518160ff1610156116b4576112f08582600261129c9190614589565b60ff16815181106112b0576112af61486c565b5b602002602001015173a5e0829caced8ffdd4de3c43696c57f7d7a678ff868460ff16815181106112e3576112e261486c565b5b6020026020010151610f61565b730d500b1d8e8ef31e21c99d1db9a6444d3adf127073ffffffffffffffffffffffffffffffffffffffff16858260026113299190614589565b60ff168151811061133d5761133c61486c565b5b602002602001015173ffffffffffffffffffffffffffffffffffffffff1614806113db5750730d500b1d8e8ef31e21c99d1db9a6444d3adf127073ffffffffffffffffffffffffffffffffffffffff1685600183600261139d9190614589565b6113a791906141d5565b60ff16815181106113bb576113ba61486c565b5b602002602001015173ffffffffffffffffffffffffffffffffffffffff16145b1561151157848160026113ee9190614589565b60ff16815181106114025761140161486c565b5b60200260200101518360008151811061141e5761141d61486c565b5b602002602001019073ffffffffffffffffffffffffffffffffffffffff16908173ffffffffffffffffffffffffffffffffffffffff16815250508460018260026114689190614589565b61147291906141d5565b60ff16815181106114865761148561486c565b5b6020026020010151836001815181106114a2576114a161486c565b5b602002602001019073ffffffffffffffffffffffffffffffffffffffff16908173ffffffffffffffffffffffffffffffffffffffff168152505061150c848260ff16815181106114f5576114f461486c565b5b60200260200101516000853064174876e7ff612cb7565b6116a1565b8481600261151f9190614589565b60ff16815181106115335761153261486c565b5b60200260200101518260008151811061154f5761154e61486c565b5b602002602001019073ffffffffffffffffffffffffffffffffffffffff16908173ffffffffffffffffffffffffffffffffffffffff1681525050730d500b1d8e8ef31e21c99d1db9a6444d3adf1270826001815181106115b2576115b161486c565b5b602002602001019073ffffffffffffffffffffffffffffffffffffffff16908173ffffffffffffffffffffffffffffffffffffffff16815250508460018260026115fc9190614589565b61160691906141d5565b60ff168151811061161a5761161961486c565b5b6020026020010151826002815181106116365761163561486c565b5b602002602001019073ffffffffffffffffffffffffffffffffffffffff16908173ffffffffffffffffffffffffffffffffffffffff16815250506116a0848260ff16815181106116895761168861486c565b5b60200260200101516000843064174876e7ff612cb7565b5b80806116ac9061479b565b91505061127f565b50505050505b5050565b6000600b60008373ffffffffffffffffffffffffffffffffffffffff1673ffffffffffffffffffffffffffffffffffffffff1681526020019081526020016000205411611740576040517f08c379a000000000000000000000000000000000000000000000000000000000815260040161173790613f3a565b60405180910390fd5b600b60008273ffffffffffffffffffffffffffffffffffffffff1673ffffffffffffffffffffffffffffffffffffffff16815260200190815260200160002054600860008282546117919190614658565b925050819055506000600b60008373ffffffffffffffffffffffffffffffffffffffff1673ffffffffffffffffffffffffffffffffffffffff1681526020019081526020016000208190555050565b60006002826117ef919061417f565b600a6117fb91906142fa565b61180484610a68565b61180e8630610b06565b611818919061452f565b6118229190614276565b90509392505050565b6305f5e100600b60008373ffffffffffffffffffffffffffffffffffffffff1673ffffffffffffffffffffffffffffffffffffffff16815260200190815260200160002081905550600b60008273ffffffffffffffffffffffffffffffffffffffff1673ffffffffffffffffffffffffffffffffffffffff1681526020019081526020016000205460088190555050565b600481815481106118cc57600080fd5b906000526020600020016000915054906101000a900473ffffffffffffffffffffffffffffffffffffffff1681565b6000818154811061190b57600080fd5b906000526020600020016000915054906101000a900473ffffffffffffffffffffffffffffffffffffffff1681565b60006060600a546009544261194f9190614658565b1191506000600467ffffffffffffffff81111561196f5761196e61489b565b5b6040519080825280602002602001820160405280156119a857816020015b611995613436565b81526020019060019003908161198d5790505b5090506119b3613436565b730d500b1d8e8ef31e21c99d1db9a6444d3adf1270816020019073ffffffffffffffffffffffffffffffffffffffff16908173ffffffffffffffffffffffffffffffffffffffff168152505073ab594600376ec9fd91f8e885dadf0ce036862de0816040019073ffffffffffffffffffffffffffffffffffffffff16908173ffffffffffffffffffffffffffffffffffffffff1681525050611a53613436565b73bbba073c31bf03b8acf7c28ef0738decf3695683816020019073ffffffffffffffffffffffffffffffffffffffff16908173ffffffffffffffffffffffffffffffffffffffff1681525050733d49406edd4d52fb7ffd25485f32e073b529c924816040019073ffffffffffffffffffffffffffffffffffffffff16908173ffffffffffffffffffffffffffffffffffffffff1681525050611af3613436565b731bfd67037b42cf73acf2047067bd4f2c47d9bfd6816020019073ffffffffffffffffffffffffffffffffffffffff16908173ffffffffffffffffffffffffffffffffffffffff168152505073c907e116054ad103354f2d350fd2514433d57f6f816040019073ffffffffffffffffffffffffffffffffffffffff16908173ffffffffffffffffffffffffffffffffffffffff1681525050611b93613436565b737ceb23fd6bc0add59e62ac25578270cff1b9f619816020019073ffffffffffffffffffffffffffffffffffffffff16908173ffffffffffffffffffffffffffffffffffffffff168152505073f9680d99d6c9589e2a93a78a04a279e509205945816040019073ffffffffffffffffffffffffffffffffffffffff16908173ffffffffffffffffffffffffffffffffffffffff16815250508385600081518110611c4057611c3f61486c565b5b60200260200101819052508285600181518110611c6057611c5f61486c565b5b60200260200101819052508185600281518110611c8057611c7f61486c565b5b60200260200101819052508085600381518110611ca057611c9f61486c565b5b60200260200101819052506000805b86518160ff161015611f97576000878260ff1681518110611cd357611cd261486c565b5b60200260200101516020015190508073ffffffffffffffffffffffffffffffffffffffff166370a08231306040518263ffffffff1660e01b8152600401611d1a9190613e22565b60206040518083038186803b158015611d3257600080fd5b505afa158015611d46573d6000803e3d6000fd5b505050506040513d601f19601f82011682018060405250810190611d6a9190613a25565b888360ff1681518110611d8057611d7f61486c565b5b60200260200101516080018181525050611dba888360ff1681518110611da957611da861486c565b5b602002602001015160400151610a68565b888360ff1681518110611dd057611dcf61486c565b5b602002602001015160e00181815250508073ffffffffffffffffffffffffffffffffffffffff1663313ce5676040518163ffffffff1660e01b815260040160206040518083038186803b158015611e2657600080fd5b505afa158015611e3a573d6000803e3d6000fd5b505050506040513d601f19601f82011682018060405250810190611e5e9190613c44565b60ff16888360ff1681518110611e7757611e7661486c565b5b602002602001015160600181815250506000888360ff1681518110611e9f57611e9e61486c565b5b6020026020010151606001516012611eb79190614658565b90506305f5e10081600a611ecb91906142fa565b8a8560ff1681518110611ee157611ee061486c565b5b602002602001015160e001518b8660ff1681518110611f0357611f0261486c565b5b602002602001015160800151611f19919061452f565b611f23919061452f565b611f2d9190614276565b898460ff1681518110611f4357611f4261486c565b5b602002602001015160a0018181525050888360ff1681518110611f6957611f6861486c565b5b602002602001015160a0015184611f80919061417f565b935050508080611f8f9061479b565b915050611caf565b5060005b86518160ff16101561201957865182611fb49190614276565b878260ff1681518110611fca57611fc961486c565b5b602002602001015160a00151611fe091906145c4565b878260ff1681518110611ff657611ff561486c565b5b602002602001015160c001818152505080806120119061479b565b915050611f9b565b5060008060008060018a5161202e9190614658565b67ffffffffffffffff8111156120475761204661489b565b5b6040519080825280602002602001820160405280156120755781602001602082028036833780820191505090505b509050600060018b516120889190614658565b6002612094919061452f565b67ffffffffffffffff8111156120ad576120ac61489b565b5b6040519080825280602002602001820160405280156120db5781602001602082028036833780820191505090505b50905060005b60018c516120ef9190614658565b8160ff1610156126df5760005b8c518160ff16101561219a5760008d8260ff16815181106121205761211f61486c565b5b602002602001015160c001511415801561215a5750868d8260ff168151811061214c5761214b61486c565b5b602002602001015160c00151135b15612187578095508c8160ff16815181106121785761217761486c565b5b602002602001015160c0015196505b80806121929061479b565b9150506120fc565b507f7fffffffffffffffffffffffffffffffffffffffffffffffffffffffffffffff955060005b8c518160ff16101561225f5760008d8260ff16815181106121e5576121e461486c565b5b602002602001015160c001511415801561221f5750868d8260ff16815181106122115761221061486c565b5b602002602001015160c00151125b1561224c578094508c8160ff168151811061223d5761223c61486c565b5b602002602001015160c0015196505b80806122579061479b565b9150506121c1565b5061228a8c8560ff16815181106122795761227861486c565b5b602002602001015160c00151613414565b8c8660ff16815181106122a05761229f61486c565b5b602002602001015160c00151131561243d576122dc8c8560ff16815181106122cb576122ca61486c565b5b602002602001015160c00151613414565b838260ff16815181106122f2576122f161486c565b5b602002602001018181525050828160ff16815181106123145761231361486c565b5b60200260200101518c8660ff16815181106123325761233161486c565b5b602002602001015160c00181815161234a91906145c4565b9150818152505060008c8560ff16815181106123695761236861486c565b5b602002602001015160c00181815250508b8560ff168151811061238f5761238e61486c565b5b60200260200101516060015160126123a79190614658565b600a6123b391906142fa565b8c8660ff16815181106123c9576123c861486c565b5b602002602001015160e001516305f5e100858460ff16815181106123f0576123ef61486c565b5b60200260200101516124029190614418565b61240c919061420c565b612416919061420c565b838260ff168151811061242c5761242b61486c565b5b6020026020010181815250506125c4565b6124678c8660ff16815181106124565761245561486c565b5b602002602001015160c00151613414565b838260ff168151811061247d5761247c61486c565b5b602002602001018181525050828160ff168151811061249f5761249e61486c565b5b60200260200101518c8560ff16815181106124bd576124bc61486c565b5b602002602001015160c0018181516124d591906140eb565b9150818152505060008c8660ff16815181106124f4576124f361486c565b5b602002602001015160c00181815250508b8560ff168151811061251a5761251961486c565b5b60200260200101516060015160126125329190614658565b600a61253e91906142fa565b8c8660ff16815181106125545761255361486c565b5b602002602001015160e001516305f5e100858460ff168151811061257b5761257a61486c565b5b602002602001015161258d9190614418565b612597919061420c565b6125a1919061420c565b838260ff16815181106125b7576125b661486c565b5b6020026020010181815250505b8b8560ff16815181106125da576125d961486c565b5b602002602001015160200151828260026125f49190614589565b60ff16815181106126085761260761486c565b5b602002602001019073ffffffffffffffffffffffffffffffffffffffff16908173ffffffffffffffffffffffffffffffffffffffff16815250508b8460ff16815181106126585761265761486c565b5b6020026020010151602001518260018360026126749190614589565b61267e91906141d5565b60ff16815181106126925761269161486c565b5b602002602001019073ffffffffffffffffffffffffffffffffffffffff16908173ffffffffffffffffffffffffffffffffffffffff168152505080806126d79061479b565b9150506120e1565b5080826040516020016126f3929190613e9d565b6040516020818303038152906040529b5050505050505050505050509250929050565b73f9680d99d6c9589e2a93a78a04a279e50920594581565b600082828861273d919061452f565b6127479190614276565b90506000838388612758919061452f565b6127629190614276565b90506000848488612773919061452f565b61277d9190614276565b9050600085858861278e919061452f565b6127989190614276565b90506128328460008080548060200260200160405190810160405280929190818152602001828054801561282157602002820191906000526020600020905b8160009054906101000a900473ffffffffffffffffffffffffffffffffffffffff1673ffffffffffffffffffffffffffffffffffffffff16815260200190600101908083116127d7575b50505050503064174876e7ff612cb7565b6128cb83600060018054806020026020016040519081016040528092919081815260200182805480156128ba57602002820191906000526020600020905b8160009054906101000a900473ffffffffffffffffffffffffffffffffffffffff1673ffffffffffffffffffffffffffffffffffffffff1681526020019060010190808311612870575b50505050503064174876e7ff612cb7565b612964826000600280548060200260200160405190810160405280929190818152602001828054801561295357602002820191906000526020600020905b8160009054906101000a900473ffffffffffffffffffffffffffffffffffffffff1673ffffffffffffffffffffffffffffffffffffffff1681526020019060010190808311612909575b50505050503064174876e7ff612cb7565b6129fd81600060038054806020026020016040519081016040528092919081815260200182805480156129ec57602002820191906000526020600020905b8160009054906101000a900473ffffffffffffffffffffffffffffffffffffffff1673ffffffffffffffffffffffffffffffffffffffff16815260200190600101908083116129a2575b50505050503064174876e7ff612cb7565b50505050505050505050565b612aad600482612a199190614276565b600080805480602002602001604051908101604052809291908181526020018280548015612a9c57602002820191906000526020600020905b8160009054906101000a900473ffffffffffffffffffffffffffffffffffffffff1673ffffffffffffffffffffffffffffffffffffffff1681526020019060010190808311612a52575b50505050503064174876e7ff612cb7565b612b52600482612abd9190614276565b60006001805480602002602001604051908101604052809291908181526020018280548015612b4157602002820191906000526020600020905b8160009054906101000a900473ffffffffffffffffffffffffffffffffffffffff1673ffffffffffffffffffffffffffffffffffffffff1681526020019060010190808311612af7575b50505050503064174876e7ff612cb7565b612bf7600482612b629190614276565b60006002805480602002602001604051908101604052809291908181526020018280548015612be657602002820191906000526020600020905b8160009054906101000a900473ffffffffffffffffffffffffffffffffffffffff1673ffffffffffffffffffffffffffffffffffffffff1681526020019060010190808311612b9c575b50505050503064174876e7ff612cb7565b612c9c600482612c079190614276565b60006003805480602002602001604051908101604052809291908181526020018280548015612c8b57602002820191906000526020600020905b8160009054906101000a900473ffffffffffffffffffffffffffffffffffffffff1673ffffffffffffffffffffffffffffffffffffffff1681526020019060010190808311612c41575b50505050503064174876e7ff612cb7565b50565b73ab594600376ec9fd91f8e885dadf0ce036862de081565b600c60009054906101000a900473ffffffffffffffffffffffffffffffffffffffff1673ffffffffffffffffffffffffffffffffffffffff166338ed173986868686866040518663ffffffff1660e01b8152600401612d1a959493929190613f75565b600060405180830381600087803b158015612d3457600080fd5b505af1158015612d48573d6000803e3d6000fd5b505050506040513d6000823e3d601f19601f82011682018060405250810190612d719190613935565b505050505050565b600a5481565b60038181548110612d8f57600080fd5b906000526020600020016000915054906101000a900473ffffffffffffffffffffffffffffffffffffffff1681565b60058181548110612dce57600080fd5b906000526020600020016000915054906101000a900473ffffffffffffffffffffffffffffffffffffffff1681565b60008273ffffffffffffffffffffffffffffffffffffffff166370a08231306040518263ffffffff1660e01b8152600401612e389190613e22565b60206040518083038186803b158015612e5057600080fd5b505afa158015612e64573d6000803e3d6000fd5b505050506040513d601f19601f82011682018060405250810190612e889190613a25565b9050612e95838383610f61565b505050565b60008290508073ffffffffffffffffffffffffffffffffffffffff1663a9059cbb83866040518363ffffffff1660e01b8152600401612eda929190613e74565b602060405180830381600087803b158015612ef457600080fd5b505af1158015612f08573d6000803e3d6000fd5b505050506040513d601f19601f82011682018060405250810190612f2c919061397e565b5050505050565b73c907e116054ad103354f2d350fd2514433d57f6f81565b6000600b60008373ffffffffffffffffffffffffffffffffffffffff1673ffffffffffffffffffffffffffffffffffffffff168152602001908152602001600020549050919050565b732791bca1f2de4661ed88a30c99a7a9449aa8417481565b731bfd67037b42cf73acf2047067bd4f2c47d9bfd681565b60085481565b732791bca1f2de4661ed88a30c99a7a9449aa8417473ffffffffffffffffffffffffffffffffffffffff166323b872dd3330846040518463ffffffff1660e01b815260040161301b93929190613e3d565b602060405180830381600087803b15801561303557600080fd5b505af1158015613049573d6000803e3d6000fd5b505050506040513d601f19601f8201168201806040525081019061306d919061397e565b5060006130a4730d500b1d8e8ef31e21c99d1db9a6444d3adf127073ab594600376ec9fd91f8e885dadf0ce036862de060126117e0565b905060006130dc73bbba073c31bf03b8acf7c28ef0738decf3695683733d49406edd4d52fb7ffd25485f32e073b529c92460126117e0565b90506000613114737ceb23fd6bc0add59e62ac25578270cff1b9f61973f9680d99d6c9589e2a93a78a04a279e50920594560126117e0565b9050600061314c731bfd67037b42cf73acf2047067bd4f2c47d9bfd673c907e116054ad103354f2d350fd2514433d57f6f60086117e0565b905060008183858761315e919061417f565b613168919061417f565b613172919061417f565b90506131a7732791bca1f2de4661ed88a30c99a7a9449aa8417473a5e0829caced8ffdd4de3c43696c57f7d7a678ff88610f61565b60008111156131c3576131be85858585858b61272e565b6131cd565b6131cc86612a09565b5b60008111156131e6576131e1338288611012565b6131f0565b6131ef3361182b565b5b505050505050565b6007818154811061320857600080fd5b906000526020600020016000915054906101000a900473ffffffffffffffffffffffffffffffffffffffff1681565b6002818154811061324757600080fd5b906000526020600020016000915054906101000a900473ffffffffffffffffffffffffffffffffffffffff1681565b733d49406edd4d52fb7ffd25485f32e073b529c92481565b6000600267ffffffffffffffff8111156132ab576132aa61489b565b5b6040519080825280602002602001820160405280156132d95781602001602082028036833780820191505090505b50905082816000815181106132f1576132f061486c565b5b602002602001019073ffffffffffffffffffffffffffffffffffffffff16908173ffffffffffffffffffffffffffffffffffffffff1681525050732791bca1f2de4661ed88a30c99a7a9449aa84174816001815181106133545761335361486c565b5b602002602001019073ffffffffffffffffffffffffffffffffffffffff16908173ffffffffffffffffffffffffffffffffffffffff16815250506133a1826000833064174876e7ff612cb7565b505050565b73a5e0829caced8ffdd4de3c43696c57f7d7a678ff81565b600c60009054906101000a900473ffffffffffffffffffffffffffffffffffffffff1681565b730d500b1d8e8ef31e21c99d1db9a6444d3adf127081565b600b6020528060005260406000206000915090505481565b60008082121561342d5781613428906147c5565b61342f565b815b9050919050565b60405180610100016040528060608152602001600073ffffffffffffffffffffffffffffffffffffffff168152602001600073ffffffffffffffffffffffffffffffffffffffff16815260200160008152602001600081526020016000815260200160008152602001600081525090565b60006134ba6134b584613ff4565b613fcf565b905080838252602082019050828560208602820111156134dd576134dc6148d4565b5b60005b8581101561350d57816134f388826135f7565b8452602084019350602083019250506001810190506134e0565b5050509392505050565b600061352a61352584614020565b613fcf565b9050808382526020820190508285602086028201111561354d5761354c6148d4565b5b60005b8581101561357d57816135638882613716565b845260208401935060208301925050600181019050613550565b5050509392505050565b600061359a61359584614020565b613fcf565b905080838252602082019050828560208602820111156135bd576135bc6148d4565b5b60005b858110156135ed57816135d3888261372b565b8452602084019350602083019250506001810190506135c0565b5050509392505050565b6000813590506136068161492a565b92915050565b600082601f830112613621576136206148cf565b5b81356136318482602086016134a7565b91505092915050565b600082601f83011261364f5761364e6148cf565b5b813561365f848260208601613517565b91505092915050565b600082601f83011261367d5761367c6148cf565b5b815161368d848260208601613587565b91505092915050565b6000815190506136a581614941565b92915050565b60008083601f8401126136c1576136c06148cf565b5b8235905067ffffffffffffffff8111156136de576136dd6148ca565b5b6020830191508360018202830111156136fa576136f96148d4565b5b9250929050565b60008151905061371081614958565b92915050565b6000813590506137258161496f565b92915050565b60008151905061373a8161496f565b92915050565b60008151905061374f8161499d565b92915050565b60008151905061376481614986565b92915050565b6000602082840312156137805761377f6148de565b5b600061378e848285016135f7565b91505092915050565b600080604083850312156137ae576137ad6148de565b5b60006137bc858286016135f7565b92505060206137cd858286016135f7565b9150509250929050565b6000806000606084860312156137f0576137ef6148de565b5b60006137fe868287016135f7565b935050602061380f868287016135f7565b925050604061382086828701613716565b9150509250925092565b60008060408385031215613841576138406148de565b5b600061384f858286016135f7565b925050602061386085828601613716565b9150509250929050565b600080600060608486031215613883576138826148de565b5b6000613891868287016135f7565b93505060206138a286828701613716565b92505060406138b386828701613716565b9150509250925092565b600080604083850312156138d4576138d36148de565b5b600083013567ffffffffffffffff8111156138f2576138f16148d9565b5b6138fe8582860161360c565b925050602083013567ffffffffffffffff81111561391f5761391e6148d9565b5b61392b8582860161363a565b9150509250929050565b60006020828403121561394b5761394a6148de565b5b600082015167ffffffffffffffff811115613969576139686148d9565b5b61397584828501613668565b91505092915050565b600060208284031215613994576139936148de565b5b60006139a284828501613696565b91505092915050565b600080602083850312156139c2576139c16148de565b5b600083013567ffffffffffffffff8111156139e0576139df6148d9565b5b6139ec858286016136ab565b92509250509250929050565b600060208284031215613a0e57613a0d6148de565b5b6000613a1c84828501613716565b91505092915050565b600060208284031215613a3b57613a3a6148de565b5b6000613a498482850161372b565b91505092915050565b600080600060608486031215613a6b57613a6a6148de565b5b6000613a7986828701613716565b9350506020613a8a868287016135f7565b9250506040613a9b868287016135f7565b9150509250925092565b600080600080600060a08688031215613ac157613ac06148de565b5b6000613acf88828901613716565b9550506020613ae088828901613716565b945050604086013567ffffffffffffffff811115613b0157613b006148d9565b5b613b0d8882890161360c565b9350506060613b1e888289016135f7565b9250506080613b2f88828901613716565b9150509295509295909350565b60008060008060008060c08789031215613b5957613b586148de565b5b6000613b6789828a01613716565b9650506020613b7889828a01613716565b9550506040613b8989828a01613716565b9450506060613b9a89828a01613716565b9350506080613bab89828a01613716565b92505060a0613bbc89828a01613716565b9150509295509295509295565b600080600080600060a08688031215613be557613be46148de565b5b6000613bf388828901613740565b9550506020613c0488828901613701565b9450506040613c158882890161372b565b9350506060613c268882890161372b565b9250506080613c3788828901613740565b9150509295509295909350565b600060208284031215613c5a57613c596148de565b5b6000613c6884828501613755565b91505092915050565b6000613c7d8383613ca1565b60208301905092915050565b6000613c958383613dd2565b60208301905092915050565b613caa8161468c565b82525050565b613cb98161468c565b82525050565b6000613cca8261406c565b613cd481856140a7565b9350613cdf8361404c565b8060005b83811015613d10578151613cf78882613c71565b9750613d028361408d565b925050600181019050613ce3565b5085935050505092915050565b6000613d2882614077565b613d3281856140b8565b9350613d3d8361405c565b8060005b83811015613d6e578151613d558882613c89565b9750613d608361409a565b925050600181019050613d41565b5085935050505092915050565b613d848161469e565b82525050565b6000613d9582614082565b613d9f81856140c9565b9350613daf818560208601614737565b613db8816148e3565b840191505092915050565b613dcc81614701565b82525050565b613ddb816146aa565b82525050565b613dea816146aa565b82525050565b6000613dfd601f836140da565b9150613e0882614901565b602082019050919050565b613e1c816146d4565b82525050565b6000602082019050613e376000830184613cb0565b92915050565b6000606082019050613e526000830186613cb0565b613e5f6020830185613cb0565b613e6c6040830184613e13565b949350505050565b6000604082019050613e896000830185613cb0565b613e966020830184613e13565b9392505050565b60006040820190508181036000830152613eb78185613cbf565b90508181036020830152613ecb8184613d1d565b90509392505050565b6000604082019050613ee96000830185613d7b565b8181036020830152613efb8184613d8a565b90509392505050565b6000602082019050613f196000830184613dc3565b92915050565b6000602082019050613f346000830184613de1565b92915050565b60006020820190508181036000830152613f5381613df0565b9050919050565b6000602082019050613f6f6000830184613e13565b92915050565b600060a082019050613f8a6000830188613e13565b613f976020830187613e13565b8181036040830152613fa98186613cbf565b9050613fb86060830185613cb0565b613fc56080830184613e13565b9695505050505050565b6000613fd9613fea565b9050613fe5828261476a565b919050565b6000604051905090565b600067ffffffffffffffff82111561400f5761400e61489b565b5b602082029050602081019050919050565b600067ffffffffffffffff82111561403b5761403a61489b565b5b602082029050602081019050919050565b6000819050602082019050919050565b6000819050602082019050919050565b600081519050919050565b600081519050919050565b600081519050919050565b6000602082019050919050565b6000602082019050919050565b600082825260208201905092915050565b600082825260208201905092915050565b600082825260208201905092915050565b600082825260208201905092915050565b60006140f6826146aa565b9150614101836146aa565b9250817f7fffffffffffffffffffffffffffffffffffffffffffffffffffffffffffffff0383136000831215161561413c5761413b61480e565b5b817f80000000000000000000000000000000000000000000000000000000000000000383126000831216156141745761417361480e565b5b828201905092915050565b600061418a826146d4565b9150614195836146d4565b9250827fffffffffffffffffffffffffffffffffffffffffffffffffffffffffffffffff038211156141ca576141c961480e565b5b828201905092915050565b60006141e0826146de565b91506141eb836146de565b92508260ff038211156142015761420061480e565b5b828201905092915050565b6000614217826146aa565b9150614222836146aa565b9250826142325761423161483d565b5b600160000383147f80000000000000000000000000000000000000000000000000000000000000008314161561426b5761426a61480e565b5b828205905092915050565b6000614281826146d4565b915061428c836146d4565b92508261429c5761429b61483d565b5b828204905092915050565b6000808291508390505b60018511156142f1578086048111156142cd576142cc61480e565b5b60018516156142dc5780820291505b80810290506142ea856148f4565b94506142b1565b94509492505050565b6000614305826146d4565b9150614310836146d4565b925061433d7fffffffffffffffffffffffffffffffffffffffffffffffffffffffffffffffff8484614345565b905092915050565b6000826143555760019050614411565b816143635760009050614411565b81600181146143795760028114614383576143b2565b6001915050614411565b60ff8411156143955761439461480e565b5b8360020a9150848211156143ac576143ab61480e565b5b50614411565b5060208310610133831016604e8410600b84101617156143e75782820a9050838111156143e2576143e161480e565b5b614411565b6143f484848460016142a7565b9250905081840481111561440b5761440a61480e565b5b81810290505b9392505050565b6000614423826146aa565b915061442e836146aa565b9250827f7fffffffffffffffffffffffffffffffffffffffffffffffffffffffffffffff048211600084136000841316161561446d5761446c61480e565b5b817f800000000000000000000000000000000000000000000000000000000000000005831260008412600084131616156144aa576144a961480e565b5b827f800000000000000000000000000000000000000000000000000000000000000005821260008413600084121616156144e7576144e661480e565b5b827f7fffffffffffffffffffffffffffffffffffffffffffffffffffffffffffffff05821260008412600084121616156145245761452361480e565b5b828202905092915050565b600061453a826146d4565b9150614545836146d4565b9250817fffffffffffffffffffffffffffffffffffffffffffffffffffffffffffffffff048311821515161561457e5761457d61480e565b5b828202905092915050565b6000614594826146de565b915061459f836146de565b92508160ff04831182151516156145b9576145b861480e565b5b828202905092915050565b60006145cf826146aa565b91506145da836146aa565b9250827f8000000000000000000000000000000000000000000000000000000000000000018212600084121516156146155761461461480e565b5b827f7fffffffffffffffffffffffffffffffffffffffffffffffffffffffffffffff01821360008412161561464d5761464c61480e565b5b828203905092915050565b6000614663826146d4565b915061466e836146d4565b9250828210156146815761468061480e565b5b828203905092915050565b6000614697826146b4565b9050919050565b60008115159050919050565b6000819050919050565b600073ffffffffffffffffffffffffffffffffffffffff82169050919050565b6000819050919050565b600060ff82169050919050565b600069ffffffffffffffffffff82169050919050565b600061470c82614713565b9050919050565b600061471e82614725565b9050919050565b6000614730826146b4565b9050919050565b60005b8381101561475557808201518184015260208101905061473a565b83811115614764576000848401525b50505050565b614773826148e3565b810181811067ffffffffffffffff821117156147925761479161489b565b5b80604052505050565b60006147a6826146de565b915060ff8214156147ba576147b961480e565b5b600182019050919050565b60006147d0826146aa565b91507f80000000000000000000000000000000000000000000000000000000000000008214156148035761480261480e565b5b816000039050919050565b7f4e487b7100000000000000000000000000000000000000000000000000000000600052601160045260246000fd5b7f4e487b7100000000000000000000000000000000000000000000000000000000600052601260045260246000fd5b7f4e487b7100000000000000000000000000000000000000000000000000000000600052603260045260246000fd5b7f4e487b7100000000000000000000000000000000000000000000000000000000600052604160045260246000fd5b600080fd5b600080fd5b600080fd5b600080fd5b600080fd5b6000601f19601f8301169050919050565b60008160011c9050919050565b7f4572726f72202d2054686973207573657220686173206e6f2073686172657300600082015250565b6149338161468c565b811461493e57600080fd5b50565b61494a8161469e565b811461495557600080fd5b50565b614961816146aa565b811461496c57600080fd5b50565b614978816146d4565b811461498357600080fd5b50565b61498f816146de565b811461499a57600080fd5b50565b6149a6816146eb565b81146149b157600080fd5b5056fea2646970667358221220a0947365bab5e4c9b5b6e49e18f26d6eeb5b41dc6fd353105f124bbad6bb062164736f6c63430008070033",
			"opcodes": "PUSH1 0x80 PUSH1 0x40 MSTORE PUSH1 0x40 MLOAD DUP1 PUSH1 0x40 ADD PUSH1 0x40 MSTORE DUP1 PUSH20 0x2791BCA1F2DE4661ED88A30C99A7A9449AA84174 PUSH20 0xFFFFFFFFFFFFFFFFFFFFFFFFFFFFFFFFFFFFFFFF AND PUSH20 0xFFFFFFFFFFFFFFFFFFFFFFFFFFFFFFFFFFFFFFFF AND DUP2 MSTORE PUSH1 0x20 ADD PUSH20 0xD500B1D8E8EF31E21C99D1DB9A6444D3ADF1270 PUSH20 0xFFFFFFFFFFFFFFFFFFFFFFFFFFFFFFFFFFFFFFFF AND PUSH20 0xFFFFFFFFFFFFFFFFFFFFFFFFFFFFFFFFFFFFFFFF AND DUP2 MSTORE POP PUSH1 0x0 SWAP1 PUSH1 0x2 PUSH3 0xAB SWAP3 SWAP2 SWAP1 PUSH3 0x5B2 JUMP JUMPDEST POP PUSH1 0x40 MLOAD DUP1 PUSH1 0x40 ADD PUSH1 0x40 MSTORE DUP1 PUSH20 0x2791BCA1F2DE4661ED88A30C99A7A9449AA84174 PUSH20 0xFFFFFFFFFFFFFFFFFFFFFFFFFFFFFFFFFFFFFFFF AND PUSH20 0xFFFFFFFFFFFFFFFFFFFFFFFFFFFFFFFFFFFFFFFF AND DUP2 MSTORE PUSH1 0x20 ADD PUSH20 0xBBBA073C31BF03B8ACF7C28EF0738DECF3695683 PUSH20 0xFFFFFFFFFFFFFFFFFFFFFFFFFFFFFFFFFFFFFFFF AND PUSH20 0xFFFFFFFFFFFFFFFFFFFFFFFFFFFFFFFFFFFFFFFF AND DUP2 MSTORE POP PUSH1 0x1 SWAP1 PUSH1 0x2 PUSH3 0x153 SWAP3 SWAP2 SWAP1 PUSH3 0x5B2 JUMP JUMPDEST POP PUSH1 0x40 MLOAD DUP1 PUSH1 0x40 ADD PUSH1 0x40 MSTORE DUP1 PUSH20 0x2791BCA1F2DE4661ED88A30C99A7A9449AA84174 PUSH20 0xFFFFFFFFFFFFFFFFFFFFFFFFFFFFFFFFFFFFFFFF AND PUSH20 0xFFFFFFFFFFFFFFFFFFFFFFFFFFFFFFFFFFFFFFFF AND DUP2 MSTORE PUSH1 0x20 ADD PUSH20 0x7CEB23FD6BC0ADD59E62AC25578270CFF1B9F619 PUSH20 0xFFFFFFFFFFFFFFFFFFFFFFFFFFFFFFFFFFFFFFFF AND PUSH20 0xFFFFFFFFFFFFFFFFFFFFFFFFFFFFFFFFFFFFFFFF AND DUP2 MSTORE POP PUSH1 0x2 SWAP1 PUSH1 0x2 PUSH3 0x1FB SWAP3 SWAP2 SWAP1 PUSH3 0x5B2 JUMP JUMPDEST POP PUSH1 0x40 MLOAD DUP1 PUSH1 0x40 ADD PUSH1 0x40 MSTORE DUP1 PUSH20 0x2791BCA1F2DE4661ED88A30C99A7A9449AA84174 PUSH20 0xFFFFFFFFFFFFFFFFFFFFFFFFFFFFFFFFFFFFFFFF AND PUSH20 0xFFFFFFFFFFFFFFFFFFFFFFFFFFFFFFFFFFFFFFFF AND DUP2 MSTORE PUSH1 0x20 ADD PUSH20 0x1BFD67037B42CF73ACF2047067BD4F2C47D9BFD6 PUSH20 0xFFFFFFFFFFFFFFFFFFFFFFFFFFFFFFFFFFFFFFFF AND PUSH20 0xFFFFFFFFFFFFFFFFFFFFFFFFFFFFFFFFFFFFFFFF AND DUP2 MSTORE POP PUSH1 0x3 SWAP1 PUSH1 0x2 PUSH3 0x2A3 SWAP3 SWAP2 SWAP1 PUSH3 0x5B2 JUMP JUMPDEST POP PUSH1 0x40 MLOAD DUP1 PUSH1 0x40 ADD PUSH1 0x40 MSTORE DUP1 PUSH20 0xD500B1D8E8EF31E21C99D1DB9A6444D3ADF1270 PUSH20 0xFFFFFFFFFFFFFFFFFFFFFFFFFFFFFFFFFFFFFFFF AND PUSH20 0xFFFFFFFFFFFFFFFFFFFFFFFFFFFFFFFFFFFFFFFF AND DUP2 MSTORE PUSH1 0x20 ADD PUSH20 0x2791BCA1F2DE4661ED88A30C99A7A9449AA84174 PUSH20 0xFFFFFFFFFFFFFFFFFFFFFFFFFFFFFFFFFFFFFFFF AND PUSH20 0xFFFFFFFFFFFFFFFFFFFFFFFFFFFFFFFFFFFFFFFF AND DUP2 MSTORE POP PUSH1 0x4 SWAP1 PUSH1 0x2 PUSH3 0x34B SWAP3 SWAP2 SWAP1 PUSH3 0x5B2 JUMP JUMPDEST POP PUSH1 0x40 MLOAD DUP1 PUSH1 0x40 ADD PUSH1 0x40 MSTORE DUP1 PUSH20 0xBBBA073C31BF03B8ACF7C28EF0738DECF3695683 PUSH20 0xFFFFFFFFFFFFFFFFFFFFFFFFFFFFFFFFFFFFFFFF AND PUSH20 0xFFFFFFFFFFFFFFFFFFFFFFFFFFFFFFFFFFFFFFFF AND DUP2 MSTORE PUSH1 0x20 ADD PUSH20 0x2791BCA1F2DE4661ED88A30C99A7A9449AA84174 PUSH20 0xFFFFFFFFFFFFFFFFFFFFFFFFFFFFFFFFFFFFFFFF AND PUSH20 0xFFFFFFFFFFFFFFFFFFFFFFFFFFFFFFFFFFFFFFFF AND DUP2 MSTORE POP PUSH1 0x5 SWAP1 PUSH1 0x2 PUSH3 0x3F3 SWAP3 SWAP2 SWAP1 PUSH3 0x5B2 JUMP JUMPDEST POP PUSH1 0x40 MLOAD DUP1 PUSH1 0x40 ADD PUSH1 0x40 MSTORE DUP1 PUSH20 0x7CEB23FD6BC0ADD59E62AC25578270CFF1B9F619 PUSH20 0xFFFFFFFFFFFFFFFFFFFFFFFFFFFFFFFFFFFFFFFF AND PUSH20 0xFFFFFFFFFFFFFFFFFFFFFFFFFFFFFFFFFFFFFFFF AND DUP2 MSTORE PUSH1 0x20 ADD PUSH20 0x2791BCA1F2DE4661ED88A30C99A7A9449AA84174 PUSH20 0xFFFFFFFFFFFFFFFFFFFFFFFFFFFFFFFFFFFFFFFF AND PUSH20 0xFFFFFFFFFFFFFFFFFFFFFFFFFFFFFFFFFFFFFFFF AND DUP2 MSTORE POP PUSH1 0x6 SWAP1 PUSH1 0x2 PUSH3 0x49B SWAP3 SWAP2 SWAP1 PUSH3 0x5B2 JUMP JUMPDEST POP PUSH1 0x40 MLOAD DUP1 PUSH1 0x40 ADD PUSH1 0x40 MSTORE DUP1 PUSH20 0x1BFD67037B42CF73ACF2047067BD4F2C47D9BFD6 PUSH20 0xFFFFFFFFFFFFFFFFFFFFFFFFFFFFFFFFFFFFFFFF AND PUSH20 0xFFFFFFFFFFFFFFFFFFFFFFFFFFFFFFFFFFFFFFFF AND DUP2 MSTORE PUSH1 0x20 ADD PUSH20 0x2791BCA1F2DE4661ED88A30C99A7A9449AA84174 PUSH20 0xFFFFFFFFFFFFFFFFFFFFFFFFFFFFFFFFFFFFFFFF AND PUSH20 0xFFFFFFFFFFFFFFFFFFFFFFFFFFFFFFFFFFFFFFFF AND DUP2 MSTORE POP PUSH1 0x7 SWAP1 PUSH1 0x2 PUSH3 0x543 SWAP3 SWAP2 SWAP1 PUSH3 0x5B2 JUMP JUMPDEST POP PUSH1 0x3C PUSH1 0xA SSTORE PUSH20 0xA5E0829CACED8FFDD4DE3C43696C57F7D7A678FF PUSH1 0xC PUSH1 0x0 PUSH2 0x100 EXP DUP2 SLOAD DUP2 PUSH20 0xFFFFFFFFFFFFFFFFFFFFFFFFFFFFFFFFFFFFFFFF MUL NOT AND SWAP1 DUP4 PUSH20 0xFFFFFFFFFFFFFFFFFFFFFFFFFFFFFFFFFFFFFFFF AND MUL OR SWAP1 SSTORE POP CALLVALUE DUP1 ISZERO PUSH3 0x5AB JUMPI PUSH1 0x0 DUP1 REVERT JUMPDEST POP PUSH3 0x660 JUMP JUMPDEST DUP3 DUP1 SLOAD DUP3 DUP3 SSTORE SWAP1 PUSH1 0x0 MSTORE PUSH1 0x20 PUSH1 0x0 KECCAK256 SWAP1 DUP2 ADD SWAP3 DUP3 ISZERO PUSH3 0x62E JUMPI SWAP2 PUSH1 0x20 MUL DUP3 ADD JUMPDEST DUP3 DUP2 GT ISZERO PUSH3 0x62D JUMPI DUP3 MLOAD DUP3 PUSH1 0x0 PUSH2 0x100 EXP DUP2 SLOAD DUP2 PUSH20 0xFFFFFFFFFFFFFFFFFFFFFFFFFFFFFFFFFFFFFFFF MUL NOT AND SWAP1 DUP4 PUSH20 0xFFFFFFFFFFFFFFFFFFFFFFFFFFFFFFFFFFFFFFFF AND MUL OR SWAP1 SSTORE POP SWAP2 PUSH1 0x20 ADD SWAP2 SWAP1 PUSH1 0x1 ADD SWAP1 PUSH3 0x5D3 JUMP JUMPDEST JUMPDEST POP SWAP1 POP PUSH3 0x63D SWAP2 SWAP1 PUSH3 0x641 JUMP JUMPDEST POP SWAP1 JUMP JUMPDEST JUMPDEST DUP1 DUP3 GT ISZERO PUSH3 0x65C JUMPI PUSH1 0x0 DUP2 PUSH1 0x0 SWAP1 SSTORE POP PUSH1 0x1 ADD PUSH3 0x642 JUMP JUMPDEST POP SWAP1 JUMP JUMPDEST PUSH2 0x49EA DUP1 PUSH3 0x670 PUSH1 0x0 CODECOPY PUSH1 0x0 RETURN INVALID PUSH1 0x80 PUSH1 0x40 MSTORE PUSH1 0x4 CALLDATASIZE LT PUSH2 0x255 JUMPI PUSH1 0x0 CALLDATALOAD PUSH1 0xE0 SHR DUP1 PUSH4 0x8DB9F39A GT PUSH2 0x139 JUMPI DUP1 PUSH4 0xBDD5915F GT PUSH2 0xB6 JUMPI DUP1 PUSH4 0xCD3F5B53 GT PUSH2 0x7A JUMPI DUP1 PUSH4 0xCD3F5B53 EQ PUSH2 0x93E JUMPI DUP1 PUSH4 0xCF412810 EQ PUSH2 0x969 JUMPI DUP1 PUSH4 0xD0919116 EQ PUSH2 0x992 JUMPI DUP1 PUSH4 0xE189EB42 EQ PUSH2 0x9BD JUMPI DUP1 PUSH4 0xE95D8328 EQ PUSH2 0x9E8 JUMPI DUP1 PUSH4 0xEF455BAD EQ PUSH2 0xA13 JUMPI PUSH2 0x25C JUMP JUMPDEST DUP1 PUSH4 0xBDD5915F EQ PUSH2 0x845 JUMPI DUP1 PUSH4 0xC3F5A305 EQ PUSH2 0x870 JUMPI DUP1 PUSH4 0xC5764EEC EQ PUSH2 0x89B JUMPI DUP1 PUSH4 0xCA970905 EQ PUSH2 0x8C4 JUMPI DUP1 PUSH4 0xCB3601B1 EQ PUSH2 0x901 JUMPI PUSH2 0x25C JUMP JUMPDEST DUP1 PUSH4 0xAA5A7AA3 GT PUSH2 0xFD JUMPI DUP1 PUSH4 0xAA5A7AA3 EQ PUSH2 0x760 JUMPI DUP1 PUSH4 0xB460AF94 EQ PUSH2 0x789 JUMPI DUP1 PUSH4 0xB6E20A6A EQ PUSH2 0x7B2 JUMPI DUP1 PUSH4 0xBA0CB22B EQ PUSH2 0x7DD JUMPI DUP1 PUSH4 0xBB09D9B7 EQ PUSH2 0x81A JUMPI PUSH2 0x25C JUMP JUMPDEST DUP1 PUSH4 0x8DB9F39A EQ PUSH2 0x667 JUMPI DUP1 PUSH4 0x90F11E84 EQ PUSH2 0x692 JUMPI DUP1 PUSH4 0x947A36FB EQ PUSH2 0x6BB JUMPI DUP1 PUSH4 0xA15C7D10 EQ PUSH2 0x6E6 JUMPI DUP1 PUSH4 0xA48CE279 EQ PUSH2 0x723 JUMPI PUSH2 0x25C JUMP JUMPDEST DUP1 PUSH4 0x44345F23 GT PUSH2 0x1D2 JUMPI DUP1 PUSH4 0x681BCF13 GT PUSH2 0x196 JUMPI DUP1 PUSH4 0x681BCF13 EQ PUSH2 0x532 JUMPI DUP1 PUSH4 0x69BC4388 EQ PUSH2 0x56F JUMPI DUP1 PUSH4 0x6E04FF0D EQ PUSH2 0x5AC JUMPI DUP1 PUSH4 0x718176E5 EQ PUSH2 0x5EA JUMPI DUP1 PUSH4 0x764F96F9 EQ PUSH2 0x615 JUMPI DUP1 PUSH4 0x88E42B08 EQ PUSH2 0x63E JUMPI PUSH2 0x25C JUMP JUMPDEST DUP1 PUSH4 0x44345F23 EQ PUSH2 0x43D JUMPI DUP1 PUSH4 0x4585E33B EQ PUSH2 0x47A JUMPI DUP1 PUSH4 0x4690738C EQ PUSH2 0x4A3 JUMPI DUP1 PUSH4 0x51F54887 EQ PUSH2 0x4CC JUMPI DUP1 PUSH4 0x6583530F EQ PUSH2 0x509 JUMPI PUSH2 0x25C JUMP JUMPDEST DUP1 PUSH4 0x24E2E7BB GT PUSH2 0x219 JUMPI DUP1 PUSH4 0x24E2E7BB EQ PUSH2 0x36C JUMPI DUP1 PUSH4 0x29A97EC2 EQ PUSH2 0x395 JUMPI DUP1 PUSH4 0x2D365D31 EQ PUSH2 0x3BE JUMPI DUP1 PUSH4 0x3F3B3B27 EQ PUSH2 0x3E9 JUMPI DUP1 PUSH4 0x44250955 EQ PUSH2 0x414 JUMPI PUSH2 0x25C JUMP JUMPDEST DUP1 PUSH4 0x40141E5 EQ PUSH2 0x261 JUMPI DUP1 PUSH4 0x16345F18 EQ PUSH2 0x28C JUMPI DUP1 PUSH4 0x1BEA8006 EQ PUSH2 0x2C9 JUMPI DUP1 PUSH4 0x22A90082 EQ PUSH2 0x306 JUMPI DUP1 PUSH4 0x23AAD7AF EQ PUSH2 0x32F JUMPI PUSH2 0x25C JUMP JUMPDEST CALLDATASIZE PUSH2 0x25C JUMPI STOP JUMPDEST PUSH1 0x0 DUP1 REVERT JUMPDEST CALLVALUE DUP1 ISZERO PUSH2 0x26D JUMPI PUSH1 0x0 DUP1 REVERT JUMPDEST POP PUSH2 0x276 PUSH2 0xA50 JUMP JUMPDEST PUSH1 0x40 MLOAD PUSH2 0x283 SWAP2 SWAP1 PUSH2 0x3E22 JUMP JUMPDEST PUSH1 0x40 MLOAD DUP1 SWAP2 SUB SWAP1 RETURN JUMPDEST CALLVALUE DUP1 ISZERO PUSH2 0x298 JUMPI PUSH1 0x0 DUP1 REVERT JUMPDEST POP PUSH2 0x2B3 PUSH1 0x4 DUP1 CALLDATASIZE SUB DUP2 ADD SWAP1 PUSH2 0x2AE SWAP2 SWAP1 PUSH2 0x376A JUMP JUMPDEST PUSH2 0xA68 JUMP JUMPDEST PUSH1 0x40 MLOAD PUSH2 0x2C0 SWAP2 SWAP1 PUSH2 0x3F1F JUMP JUMPDEST PUSH1 0x40 MLOAD DUP1 SWAP2 SUB SWAP1 RETURN JUMPDEST CALLVALUE DUP1 ISZERO PUSH2 0x2D5 JUMPI PUSH1 0x0 DUP1 REVERT JUMPDEST POP PUSH2 0x2F0 PUSH1 0x4 DUP1 CALLDATASIZE SUB DUP2 ADD SWAP1 PUSH2 0x2EB SWAP2 SWAP1 PUSH2 0x3797 JUMP JUMPDEST PUSH2 0xB06 JUMP JUMPDEST PUSH1 0x40 MLOAD PUSH2 0x2FD SWAP2 SWAP1 PUSH2 0x3F5A JUMP JUMPDEST PUSH1 0x40 MLOAD DUP1 SWAP2 SUB SWAP1 RETURN JUMPDEST CALLVALUE DUP1 ISZERO PUSH2 0x312 JUMPI PUSH1 0x0 DUP1 REVERT JUMPDEST POP PUSH2 0x32D PUSH1 0x4 DUP1 CALLDATASIZE SUB DUP2 ADD SWAP1 PUSH2 0x328 SWAP2 SWAP1 PUSH2 0x39F8 JUMP JUMPDEST PUSH2 0xB9E JUMP JUMPDEST STOP JUMPDEST CALLVALUE DUP1 ISZERO PUSH2 0x33B JUMPI PUSH1 0x0 DUP1 REVERT JUMPDEST POP PUSH2 0x356 PUSH1 0x4 DUP1 CALLDATASIZE SUB DUP2 ADD SWAP1 PUSH2 0x351 SWAP2 SWAP1 PUSH2 0x39F8 JUMP JUMPDEST PUSH2 0xBA8 JUMP JUMPDEST PUSH1 0x40 MLOAD PUSH2 0x363 SWAP2 SWAP1 PUSH2 0x3E22 JUMP JUMPDEST PUSH1 0x40 MLOAD DUP1 SWAP2 SUB SWAP1 RETURN JUMPDEST CALLVALUE DUP1 ISZERO PUSH2 0x378 JUMPI PUSH1 0x0 DUP1 REVERT JUMPDEST POP PUSH2 0x393 PUSH1 0x4 DUP1 CALLDATASIZE SUB DUP2 ADD SWAP1 PUSH2 0x38E SWAP2 SWAP1 PUSH2 0x376A JUMP JUMPDEST PUSH2 0xBE7 JUMP JUMPDEST STOP JUMPDEST CALLVALUE DUP1 ISZERO PUSH2 0x3A1 JUMPI PUSH1 0x0 DUP1 REVERT JUMPDEST POP PUSH2 0x3BC PUSH1 0x4 DUP1 CALLDATASIZE SUB DUP2 ADD SWAP1 PUSH2 0x3B7 SWAP2 SWAP1 PUSH2 0x37D7 JUMP JUMPDEST PUSH2 0xF61 JUMP JUMPDEST STOP JUMPDEST CALLVALUE DUP1 ISZERO PUSH2 0x3CA JUMPI PUSH1 0x0 DUP1 REVERT JUMPDEST POP PUSH2 0x3D3 PUSH2 0xFF4 JUMP JUMPDEST PUSH1 0x40 MLOAD PUSH2 0x3E0 SWAP2 SWAP1 PUSH2 0x3E22 JUMP JUMPDEST PUSH1 0x40 MLOAD DUP1 SWAP2 SUB SWAP1 RETURN JUMPDEST CALLVALUE DUP1 ISZERO PUSH2 0x3F5 JUMPI PUSH1 0x0 DUP1 REVERT JUMPDEST POP PUSH2 0x3FE PUSH2 0x100C JUMP JUMPDEST PUSH1 0x40 MLOAD PUSH2 0x40B SWAP2 SWAP1 PUSH2 0x3F5A JUMP JUMPDEST PUSH1 0x40 MLOAD DUP1 SWAP2 SUB SWAP1 RETURN JUMPDEST CALLVALUE DUP1 ISZERO PUSH2 0x420 JUMPI PUSH1 0x0 DUP1 REVERT JUMPDEST POP PUSH2 0x43B PUSH1 0x4 DUP1 CALLDATASIZE SUB DUP2 ADD SWAP1 PUSH2 0x436 SWAP2 SWAP1 PUSH2 0x386A JUMP JUMPDEST PUSH2 0x1012 JUMP JUMPDEST STOP JUMPDEST CALLVALUE DUP1 ISZERO PUSH2 0x449 JUMPI PUSH1 0x0 DUP1 REVERT JUMPDEST POP PUSH2 0x464 PUSH1 0x4 DUP1 CALLDATASIZE SUB DUP2 ADD SWAP1 PUSH2 0x45F SWAP2 SWAP1 PUSH2 0x39F8 JUMP JUMPDEST PUSH2 0x1169 JUMP JUMPDEST PUSH1 0x40 MLOAD PUSH2 0x471 SWAP2 SWAP1 PUSH2 0x3E22 JUMP JUMPDEST PUSH1 0x40 MLOAD DUP1 SWAP2 SUB SWAP1 RETURN JUMPDEST CALLVALUE DUP1 ISZERO PUSH2 0x486 JUMPI PUSH1 0x0 DUP1 REVERT JUMPDEST POP PUSH2 0x4A1 PUSH1 0x4 DUP1 CALLDATASIZE SUB DUP2 ADD SWAP1 PUSH2 0x49C SWAP2 SWAP1 PUSH2 0x39AB JUMP JUMPDEST PUSH2 0x11A8 JUMP JUMPDEST STOP JUMPDEST CALLVALUE DUP1 ISZERO PUSH2 0x4AF JUMPI PUSH1 0x0 DUP1 REVERT JUMPDEST POP PUSH2 0x4CA PUSH1 0x4 DUP1 CALLDATASIZE SUB DUP2 ADD SWAP1 PUSH2 0x4C5 SWAP2 SWAP1 PUSH2 0x376A JUMP JUMPDEST PUSH2 0x16BE JUMP JUMPDEST STOP JUMPDEST CALLVALUE DUP1 ISZERO PUSH2 0x4D8 JUMPI PUSH1 0x0 DUP1 REVERT JUMPDEST POP PUSH2 0x4F3 PUSH1 0x4 DUP1 CALLDATASIZE SUB DUP2 ADD SWAP1 PUSH2 0x4EE SWAP2 SWAP1 PUSH2 0x37D7 JUMP JUMPDEST PUSH2 0x17E0 JUMP JUMPDEST PUSH1 0x40 MLOAD PUSH2 0x500 SWAP2 SWAP1 PUSH2 0x3F5A JUMP JUMPDEST PUSH1 0x40 MLOAD DUP1 SWAP2 SUB SWAP1 RETURN JUMPDEST CALLVALUE DUP1 ISZERO PUSH2 0x515 JUMPI PUSH1 0x0 DUP1 REVERT JUMPDEST POP PUSH2 0x530 PUSH1 0x4 DUP1 CALLDATASIZE SUB DUP2 ADD SWAP1 PUSH2 0x52B SWAP2 SWAP1 PUSH2 0x376A JUMP JUMPDEST PUSH2 0x182B JUMP JUMPDEST STOP JUMPDEST CALLVALUE DUP1 ISZERO PUSH2 0x53E JUMPI PUSH1 0x0 DUP1 REVERT JUMPDEST POP PUSH2 0x559 PUSH1 0x4 DUP1 CALLDATASIZE SUB DUP2 ADD SWAP1 PUSH2 0x554 SWAP2 SWAP1 PUSH2 0x39F8 JUMP JUMPDEST PUSH2 0x18BC JUMP JUMPDEST PUSH1 0x40 MLOAD PUSH2 0x566 SWAP2 SWAP1 PUSH2 0x3E22 JUMP JUMPDEST PUSH1 0x40 MLOAD DUP1 SWAP2 SUB SWAP1 RETURN JUMPDEST CALLVALUE DUP1 ISZERO PUSH2 0x57B JUMPI PUSH1 0x0 DUP1 REVERT JUMPDEST POP PUSH2 0x596 PUSH1 0x4 DUP1 CALLDATASIZE SUB DUP2 ADD SWAP1 PUSH2 0x591 SWAP2 SWAP1 PUSH2 0x39F8 JUMP JUMPDEST PUSH2 0x18FB JUMP JUMPDEST PUSH1 0x40 MLOAD PUSH2 0x5A3 SWAP2 SWAP1 PUSH2 0x3E22 JUMP JUMPDEST PUSH1 0x40 MLOAD DUP1 SWAP2 SUB SWAP1 RETURN JUMPDEST CALLVALUE DUP1 ISZERO PUSH2 0x5B8 JUMPI PUSH1 0x0 DUP1 REVERT JUMPDEST POP PUSH2 0x5D3 PUSH1 0x4 DUP1 CALLDATASIZE SUB DUP2 ADD SWAP1 PUSH2 0x5CE SWAP2 SWAP1 PUSH2 0x39AB JUMP JUMPDEST PUSH2 0x193A JUMP JUMPDEST PUSH1 0x40 MLOAD PUSH2 0x5E1 SWAP3 SWAP2 SWAP1 PUSH2 0x3ED4 JUMP JUMPDEST PUSH1 0x40 MLOAD DUP1 SWAP2 SUB SWAP1 RETURN JUMPDEST CALLVALUE DUP1 ISZERO PUSH2 0x5F6 JUMPI PUSH1 0x0 DUP1 REVERT JUMPDEST POP PUSH2 0x5FF PUSH2 0x2716 JUMP JUMPDEST PUSH1 0x40 MLOAD PUSH2 0x60C SWAP2 SWAP1 PUSH2 0x3E22 JUMP JUMPDEST PUSH1 0x40 MLOAD DUP1 SWAP2 SUB SWAP1 RETURN JUMPDEST CALLVALUE DUP1 ISZERO PUSH2 0x621 JUMPI PUSH1 0x0 DUP1 REVERT JUMPDEST POP PUSH2 0x63C PUSH1 0x4 DUP1 CALLDATASIZE SUB DUP2 ADD SWAP1 PUSH2 0x637 SWAP2 SWAP1 PUSH2 0x3B3C JUMP JUMPDEST PUSH2 0x272E JUMP JUMPDEST STOP JUMPDEST CALLVALUE DUP1 ISZERO PUSH2 0x64A JUMPI PUSH1 0x0 DUP1 REVERT JUMPDEST POP PUSH2 0x665 PUSH1 0x4 DUP1 CALLDATASIZE SUB DUP2 ADD SWAP1 PUSH2 0x660 SWAP2 SWAP1 PUSH2 0x39F8 JUMP JUMPDEST PUSH2 0x2A09 JUMP JUMPDEST STOP JUMPDEST CALLVALUE DUP1 ISZERO PUSH2 0x673 JUMPI PUSH1 0x0 DUP1 REVERT JUMPDEST POP PUSH2 0x67C PUSH2 0x2C9F JUMP JUMPDEST PUSH1 0x40 MLOAD PUSH2 0x689 SWAP2 SWAP1 PUSH2 0x3E22 JUMP JUMPDEST PUSH1 0x40 MLOAD DUP1 SWAP2 SUB SWAP1 RETURN JUMPDEST CALLVALUE DUP1 ISZERO PUSH2 0x69E JUMPI PUSH1 0x0 DUP1 REVERT JUMPDEST POP PUSH2 0x6B9 PUSH1 0x4 DUP1 CALLDATASIZE SUB DUP2 ADD SWAP1 PUSH2 0x6B4 SWAP2 SWAP1 PUSH2 0x3AA5 JUMP JUMPDEST PUSH2 0x2CB7 JUMP JUMPDEST STOP JUMPDEST CALLVALUE DUP1 ISZERO PUSH2 0x6C7 JUMPI PUSH1 0x0 DUP1 REVERT JUMPDEST POP PUSH2 0x6D0 PUSH2 0x2D79 JUMP JUMPDEST PUSH1 0x40 MLOAD PUSH2 0x6DD SWAP2 SWAP1 PUSH2 0x3F5A JUMP JUMPDEST PUSH1 0x40 MLOAD DUP1 SWAP2 SUB SWAP1 RETURN JUMPDEST CALLVALUE DUP1 ISZERO PUSH2 0x6F2 JUMPI PUSH1 0x0 DUP1 REVERT JUMPDEST POP PUSH2 0x70D PUSH1 0x4 DUP1 CALLDATASIZE SUB DUP2 ADD SWAP1 PUSH2 0x708 SWAP2 SWAP1 PUSH2 0x39F8 JUMP JUMPDEST PUSH2 0x2D7F JUMP JUMPDEST PUSH1 0x40 MLOAD PUSH2 0x71A SWAP2 SWAP1 PUSH2 0x3E22 JUMP JUMPDEST PUSH1 0x40 MLOAD DUP1 SWAP2 SUB SWAP1 RETURN JUMPDEST CALLVALUE DUP1 ISZERO PUSH2 0x72F JUMPI PUSH1 0x0 DUP1 REVERT JUMPDEST POP PUSH2 0x74A PUSH1 0x4 DUP1 CALLDATASIZE SUB DUP2 ADD SWAP1 PUSH2 0x745 SWAP2 SWAP1 PUSH2 0x39F8 JUMP JUMPDEST PUSH2 0x2DBE JUMP JUMPDEST PUSH1 0x40 MLOAD PUSH2 0x757 SWAP2 SWAP1 PUSH2 0x3E22 JUMP JUMPDEST PUSH1 0x40 MLOAD DUP1 SWAP2 SUB SWAP1 RETURN JUMPDEST CALLVALUE DUP1 ISZERO PUSH2 0x76C JUMPI PUSH1 0x0 DUP1 REVERT JUMPDEST POP PUSH2 0x787 PUSH1 0x4 DUP1 CALLDATASIZE SUB DUP2 ADD SWAP1 PUSH2 0x782 SWAP2 SWAP1 PUSH2 0x3797 JUMP JUMPDEST PUSH2 0x2DFD JUMP JUMPDEST STOP JUMPDEST CALLVALUE DUP1 ISZERO PUSH2 0x795 JUMPI PUSH1 0x0 DUP1 REVERT JUMPDEST POP PUSH2 0x7B0 PUSH1 0x4 DUP1 CALLDATASIZE SUB DUP2 ADD SWAP1 PUSH2 0x7AB SWAP2 SWAP1 PUSH2 0x3A52 JUMP JUMPDEST PUSH2 0x2E9A JUMP JUMPDEST STOP JUMPDEST CALLVALUE DUP1 ISZERO PUSH2 0x7BE JUMPI PUSH1 0x0 DUP1 REVERT JUMPDEST POP PUSH2 0x7C7 PUSH2 0x2F33 JUMP JUMPDEST PUSH1 0x40 MLOAD PUSH2 0x7D4 SWAP2 SWAP1 PUSH2 0x3E22 JUMP JUMPDEST PUSH1 0x40 MLOAD DUP1 SWAP2 SUB SWAP1 RETURN JUMPDEST CALLVALUE DUP1 ISZERO PUSH2 0x7E9 JUMPI PUSH1 0x0 DUP1 REVERT JUMPDEST POP PUSH2 0x804 PUSH1 0x4 DUP1 CALLDATASIZE SUB DUP2 ADD SWAP1 PUSH2 0x7FF SWAP2 SWAP1 PUSH2 0x376A JUMP JUMPDEST PUSH2 0x2F4B JUMP JUMPDEST PUSH1 0x40 MLOAD PUSH2 0x811 SWAP2 SWAP1 PUSH2 0x3F5A JUMP JUMPDEST PUSH1 0x40 MLOAD DUP1 SWAP2 SUB SWAP1 RETURN JUMPDEST CALLVALUE DUP1 ISZERO PUSH2 0x826 JUMPI PUSH1 0x0 DUP1 REVERT JUMPDEST POP PUSH2 0x82F PUSH2 0x2F94 JUMP JUMPDEST PUSH1 0x40 MLOAD PUSH2 0x83C SWAP2 SWAP1 PUSH2 0x3E22 JUMP JUMPDEST PUSH1 0x40 MLOAD DUP1 SWAP2 SUB SWAP1 RETURN JUMPDEST CALLVALUE DUP1 ISZERO PUSH2 0x851 JUMPI PUSH1 0x0 DUP1 REVERT JUMPDEST POP PUSH2 0x85A PUSH2 0x2FAC JUMP JUMPDEST PUSH1 0x40 MLOAD PUSH2 0x867 SWAP2 SWAP1 PUSH2 0x3E22 JUMP JUMPDEST PUSH1 0x40 MLOAD DUP1 SWAP2 SUB SWAP1 RETURN JUMPDEST CALLVALUE DUP1 ISZERO PUSH2 0x87C JUMPI PUSH1 0x0 DUP1 REVERT JUMPDEST POP PUSH2 0x885 PUSH2 0x2FC4 JUMP JUMPDEST PUSH1 0x40 MLOAD PUSH2 0x892 SWAP2 SWAP1 PUSH2 0x3F5A JUMP JUMPDEST PUSH1 0x40 MLOAD DUP1 SWAP2 SUB SWAP1 RETURN JUMPDEST CALLVALUE DUP1 ISZERO PUSH2 0x8A7 JUMPI PUSH1 0x0 DUP1 REVERT JUMPDEST POP PUSH2 0x8C2 PUSH1 0x4 DUP1 CALLDATASIZE SUB DUP2 ADD SWAP1 PUSH2 0x8BD SWAP2 SWAP1 PUSH2 0x39F8 JUMP JUMPDEST PUSH2 0x2FCA JUMP JUMPDEST STOP JUMPDEST CALLVALUE DUP1 ISZERO PUSH2 0x8D0 JUMPI PUSH1 0x0 DUP1 REVERT JUMPDEST POP PUSH2 0x8EB PUSH1 0x4 DUP1 CALLDATASIZE SUB DUP2 ADD SWAP1 PUSH2 0x8E6 SWAP2 SWAP1 PUSH2 0x39F8 JUMP JUMPDEST PUSH2 0x31F8 JUMP JUMPDEST PUSH1 0x40 MLOAD PUSH2 0x8F8 SWAP2 SWAP1 PUSH2 0x3E22 JUMP JUMPDEST PUSH1 0x40 MLOAD DUP1 SWAP2 SUB SWAP1 RETURN JUMPDEST CALLVALUE DUP1 ISZERO PUSH2 0x90D JUMPI PUSH1 0x0 DUP1 REVERT JUMPDEST POP PUSH2 0x928 PUSH1 0x4 DUP1 CALLDATASIZE SUB DUP2 ADD SWAP1 PUSH2 0x923 SWAP2 SWAP1 PUSH2 0x39F8 JUMP JUMPDEST PUSH2 0x3237 JUMP JUMPDEST PUSH1 0x40 MLOAD PUSH2 0x935 SWAP2 SWAP1 PUSH2 0x3E22 JUMP JUMPDEST PUSH1 0x40 MLOAD DUP1 SWAP2 SUB SWAP1 RETURN JUMPDEST CALLVALUE DUP1 ISZERO PUSH2 0x94A JUMPI PUSH1 0x0 DUP1 REVERT JUMPDEST POP PUSH2 0x953 PUSH2 0x3276 JUMP JUMPDEST PUSH1 0x40 MLOAD PUSH2 0x960 SWAP2 SWAP1 PUSH2 0x3E22 JUMP JUMPDEST PUSH1 0x40 MLOAD DUP1 SWAP2 SUB SWAP1 RETURN JUMPDEST CALLVALUE DUP1 ISZERO PUSH2 0x975 JUMPI PUSH1 0x0 DUP1 REVERT JUMPDEST POP PUSH2 0x990 PUSH1 0x4 DUP1 CALLDATASIZE SUB DUP2 ADD SWAP1 PUSH2 0x98B SWAP2 SWAP1 PUSH2 0x382A JUMP JUMPDEST PUSH2 0x328E JUMP JUMPDEST STOP JUMPDEST CALLVALUE DUP1 ISZERO PUSH2 0x99E JUMPI PUSH1 0x0 DUP1 REVERT JUMPDEST POP PUSH2 0x9A7 PUSH2 0x33A6 JUMP JUMPDEST PUSH1 0x40 MLOAD PUSH2 0x9B4 SWAP2 SWAP1 PUSH2 0x3E22 JUMP JUMPDEST PUSH1 0x40 MLOAD DUP1 SWAP2 SUB SWAP1 RETURN JUMPDEST CALLVALUE DUP1 ISZERO PUSH2 0x9C9 JUMPI PUSH1 0x0 DUP1 REVERT JUMPDEST POP PUSH2 0x9D2 PUSH2 0x33BE JUMP JUMPDEST PUSH1 0x40 MLOAD PUSH2 0x9DF SWAP2 SWAP1 PUSH2 0x3F04 JUMP JUMPDEST PUSH1 0x40 MLOAD DUP1 SWAP2 SUB SWAP1 RETURN JUMPDEST CALLVALUE DUP1 ISZERO PUSH2 0x9F4 JUMPI PUSH1 0x0 DUP1 REVERT JUMPDEST POP PUSH2 0x9FD PUSH2 0x33E4 JUMP JUMPDEST PUSH1 0x40 MLOAD PUSH2 0xA0A SWAP2 SWAP1 PUSH2 0x3E22 JUMP JUMPDEST PUSH1 0x40 MLOAD DUP1 SWAP2 SUB SWAP1 RETURN JUMPDEST CALLVALUE DUP1 ISZERO PUSH2 0xA1F JUMPI PUSH1 0x0 DUP1 REVERT JUMPDEST POP PUSH2 0xA3A PUSH1 0x4 DUP1 CALLDATASIZE SUB DUP2 ADD SWAP1 PUSH2 0xA35 SWAP2 SWAP1 PUSH2 0x376A JUMP JUMPDEST PUSH2 0x33FC JUMP JUMPDEST PUSH1 0x40 MLOAD PUSH2 0xA47 SWAP2 SWAP1 PUSH2 0x3F5A JUMP JUMPDEST PUSH1 0x40 MLOAD DUP1 SWAP2 SUB SWAP1 RETURN JUMPDEST PUSH20 0x7CEB23FD6BC0ADD59E62AC25578270CFF1B9F619 DUP2 JUMP JUMPDEST PUSH1 0x0 DUP1 PUSH1 0x0 DUP1 PUSH1 0x0 DUP1 DUP7 PUSH20 0xFFFFFFFFFFFFFFFFFFFFFFFFFFFFFFFFFFFFFFFF AND PUSH4 0xFEAF968C PUSH1 0x40 MLOAD DUP2 PUSH4 0xFFFFFFFF AND PUSH1 0xE0 SHL DUP2 MSTORE PUSH1 0x4 ADD PUSH1 0xA0 PUSH1 0x40 MLOAD DUP1 DUP4 SUB DUP2 DUP7 DUP1 EXTCODESIZE ISZERO DUP1 ISZERO PUSH2 0xAB7 JUMPI PUSH1 0x0 DUP1 REVERT JUMPDEST POP GAS STATICCALL ISZERO DUP1 ISZERO PUSH2 0xACB JUMPI RETURNDATASIZE PUSH1 0x0 DUP1 RETURNDATACOPY RETURNDATASIZE PUSH1 0x0 REVERT JUMPDEST POP POP POP POP PUSH1 0x40 MLOAD RETURNDATASIZE PUSH1 0x1F NOT PUSH1 0x1F DUP3 ADD AND DUP3 ADD DUP1 PUSH1 0x40 MSTORE POP DUP2 ADD SWAP1 PUSH2 0xAEF SWAP2 SWAP1 PUSH2 0x3BC9 JUMP JUMPDEST SWAP5 POP SWAP5 POP SWAP5 POP SWAP5 POP SWAP5 POP DUP4 SWAP6 POP POP POP POP POP POP SWAP2 SWAP1 POP JUMP JUMPDEST PUSH1 0x0 DUP1 DUP4 SWAP1 POP DUP1 PUSH20 0xFFFFFFFFFFFFFFFFFFFFFFFFFFFFFFFFFFFFFFFF AND PUSH4 0x70A08231 DUP5 PUSH1 0x40 MLOAD DUP3 PUSH4 0xFFFFFFFF AND PUSH1 0xE0 SHL DUP2 MSTORE PUSH1 0x4 ADD PUSH2 0xB45 SWAP2 SWAP1 PUSH2 0x3E22 JUMP JUMPDEST PUSH1 0x20 PUSH1 0x40 MLOAD DUP1 DUP4 SUB DUP2 DUP7 DUP1 EXTCODESIZE ISZERO DUP1 ISZERO PUSH2 0xB5D JUMPI PUSH1 0x0 DUP1 REVERT JUMPDEST POP GAS STATICCALL ISZERO DUP1 ISZERO PUSH2 0xB71 JUMPI RETURNDATASIZE PUSH1 0x0 DUP1 RETURNDATACOPY RETURNDATASIZE PUSH1 0x0 REVERT JUMPDEST POP POP POP POP PUSH1 0x40 MLOAD RETURNDATASIZE PUSH1 0x1F NOT PUSH1 0x1F DUP3 ADD AND DUP3 ADD DUP1 PUSH1 0x40 MSTORE POP DUP2 ADD SWAP1 PUSH2 0xB95 SWAP2 SWAP1 PUSH2 0x3A25 JUMP JUMPDEST SWAP2 POP POP SWAP3 SWAP2 POP POP JUMP JUMPDEST DUP1 PUSH1 0xA DUP2 SWAP1 SSTORE POP POP JUMP JUMPDEST PUSH1 0x1 DUP2 DUP2 SLOAD DUP2 LT PUSH2 0xBB8 JUMPI PUSH1 0x0 DUP1 REVERT JUMPDEST SWAP1 PUSH1 0x0 MSTORE PUSH1 0x20 PUSH1 0x0 KECCAK256 ADD PUSH1 0x0 SWAP2 POP SLOAD SWAP1 PUSH2 0x100 EXP SWAP1 DIV PUSH20 0xFFFFFFFFFFFFFFFFFFFFFFFFFFFFFFFFFFFFFFFF AND DUP2 JUMP JUMPDEST PUSH1 0x0 PUSH1 0x8 SLOAD PUSH2 0xC0A PUSH20 0xD500B1D8E8EF31E21C99D1DB9A6444D3ADF1270 ADDRESS PUSH2 0xB06 JUMP JUMPDEST PUSH1 0xB PUSH1 0x0 DUP6 PUSH20 0xFFFFFFFFFFFFFFFFFFFFFFFFFFFFFFFFFFFFFFFF AND PUSH20 0xFFFFFFFFFFFFFFFFFFFFFFFFFFFFFFFFFFFFFFFF AND DUP2 MSTORE PUSH1 0x20 ADD SWAP1 DUP2 MSTORE PUSH1 0x20 ADD PUSH1 0x0 KECCAK256 SLOAD PUSH2 0xC54 SWAP2 SWAP1 PUSH2 0x452F JUMP JUMPDEST PUSH2 0xC5E SWAP2 SWAP1 PUSH2 0x4276 JUMP JUMPDEST SWAP1 POP PUSH1 0x0 PUSH1 0x8 SLOAD PUSH2 0xC83 PUSH20 0xBBBA073C31BF03B8ACF7C28EF0738DECF3695683 ADDRESS PUSH2 0xB06 JUMP JUMPDEST PUSH1 0xB PUSH1 0x0 DUP7 PUSH20 0xFFFFFFFFFFFFFFFFFFFFFFFFFFFFFFFFFFFFFFFF AND PUSH20 0xFFFFFFFFFFFFFFFFFFFFFFFFFFFFFFFFFFFFFFFF AND DUP2 MSTORE PUSH1 0x20 ADD SWAP1 DUP2 MSTORE PUSH1 0x20 ADD PUSH1 0x0 KECCAK256 SLOAD PUSH2 0xCCD SWAP2 SWAP1 PUSH2 0x452F JUMP JUMPDEST PUSH2 0xCD7 SWAP2 SWAP1 PUSH2 0x4276 JUMP JUMPDEST SWAP1 POP PUSH1 0x0 PUSH1 0x8 SLOAD PUSH2 0xCFC PUSH20 0x7CEB23FD6BC0ADD59E62AC25578270CFF1B9F619 ADDRESS PUSH2 0xB06 JUMP JUMPDEST PUSH1 0xB PUSH1 0x0 DUP8 PUSH20 0xFFFFFFFFFFFFFFFFFFFFFFFFFFFFFFFFFFFFFFFF AND PUSH20 0xFFFFFFFFFFFFFFFFFFFFFFFFFFFFFFFFFFFFFFFF AND DUP2 MSTORE PUSH1 0x20 ADD SWAP1 DUP2 MSTORE PUSH1 0x20 ADD PUSH1 0x0 KECCAK256 SLOAD PUSH2 0xD46 SWAP2 SWAP1 PUSH2 0x452F JUMP JUMPDEST PUSH2 0xD50 SWAP2 SWAP1 PUSH2 0x4276 JUMP JUMPDEST SWAP1 POP PUSH1 0x0 PUSH1 0x8 SLOAD PUSH2 0xD75 PUSH20 0x1BFD67037B42CF73ACF2047067BD4F2C47D9BFD6 ADDRESS PUSH2 0xB06 JUMP JUMPDEST PUSH1 0xB PUSH1 0x0 DUP9 PUSH20 0xFFFFFFFFFFFFFFFFFFFFFFFFFFFFFFFFFFFFFFFF AND PUSH20 0xFFFFFFFFFFFFFFFFFFFFFFFFFFFFFFFFFFFFFFFF AND DUP2 MSTORE PUSH1 0x20 ADD SWAP1 DUP2 MSTORE PUSH1 0x20 ADD PUSH1 0x0 KECCAK256 SLOAD PUSH2 0xDBF SWAP2 SWAP1 PUSH2 0x452F JUMP JUMPDEST PUSH2 0xDC9 SWAP2 SWAP1 PUSH2 0x4276 JUMP JUMPDEST SWAP1 POP PUSH2 0xDFE PUSH20 0xD500B1D8E8EF31E21C99D1DB9A6444D3ADF1270 PUSH20 0xA5E0829CACED8FFDD4DE3C43696C57F7D7A678FF DUP7 PUSH2 0xF61 JUMP JUMPDEST PUSH2 0xE31 PUSH20 0xBBBA073C31BF03B8ACF7C28EF0738DECF3695683 PUSH20 0xA5E0829CACED8FFDD4DE3C43696C57F7D7A678FF DUP6 PUSH2 0xF61 JUMP JUMPDEST PUSH2 0xE64 PUSH20 0x7CEB23FD6BC0ADD59E62AC25578270CFF1B9F619 PUSH20 0xA5E0829CACED8FFDD4DE3C43696C57F7D7A678FF DUP5 PUSH2 0xF61 JUMP JUMPDEST PUSH2 0xE97 PUSH20 0x1BFD67037B42CF73ACF2047067BD4F2C47D9BFD6 PUSH20 0xA5E0829CACED8FFDD4DE3C43696C57F7D7A678FF DUP4 PUSH2 0xF61 JUMP JUMPDEST PUSH2 0xEB5 PUSH20 0xD500B1D8E8EF31E21C99D1DB9A6444D3ADF1270 DUP6 PUSH2 0x328E JUMP JUMPDEST PUSH2 0xED3 PUSH20 0xBBBA073C31BF03B8ACF7C28EF0738DECF3695683 DUP5 PUSH2 0x328E JUMP JUMPDEST PUSH2 0xEF1 PUSH20 0x7CEB23FD6BC0ADD59E62AC25578270CFF1B9F619 DUP4 PUSH2 0x328E JUMP JUMPDEST PUSH2 0xF0F PUSH20 0x1BFD67037B42CF73ACF2047067BD4F2C47D9BFD6 DUP3 PUSH2 0x328E JUMP JUMPDEST PUSH1 0x0 PUSH2 0xF2F PUSH20 0x2791BCA1F2DE4661ED88A30C99A7A9449AA84174 ADDRESS PUSH2 0xB06 JUMP JUMPDEST SWAP1 POP PUSH2 0xF50 DUP2 PUSH20 0x2791BCA1F2DE4661ED88A30C99A7A9449AA84174 DUP9 PUSH2 0x2E9A JUMP JUMPDEST PUSH2 0xF59 DUP7 PUSH2 0x16BE JUMP JUMPDEST POP POP POP POP POP POP JUMP JUMPDEST DUP3 PUSH20 0xFFFFFFFFFFFFFFFFFFFFFFFFFFFFFFFFFFFFFFFF AND PUSH4 0x95EA7B3 DUP4 DUP4 PUSH1 0x40 MLOAD DUP4 PUSH4 0xFFFFFFFF AND PUSH1 0xE0 SHL DUP2 MSTORE PUSH1 0x4 ADD PUSH2 0xF9C SWAP3 SWAP2 SWAP1 PUSH2 0x3E74 JUMP JUMPDEST PUSH1 0x20 PUSH1 0x40 MLOAD DUP1 DUP4 SUB DUP2 PUSH1 0x0 DUP8 DUP1 EXTCODESIZE ISZERO DUP1 ISZERO PUSH2 0xFB6 JUMPI PUSH1 0x0 DUP1 REVERT JUMPDEST POP GAS CALL ISZERO DUP1 ISZERO PUSH2 0xFCA JUMPI RETURNDATASIZE PUSH1 0x0 DUP1 RETURNDATACOPY RETURNDATASIZE PUSH1 0x0 REVERT JUMPDEST POP POP POP POP PUSH1 0x40 MLOAD RETURNDATASIZE PUSH1 0x1F NOT PUSH1 0x1F DUP3 ADD AND DUP3 ADD DUP1 PUSH1 0x40 MSTORE POP DUP2 ADD SWAP1 PUSH2 0xFEE SWAP2 SWAP1 PUSH2 0x397E JUMP JUMPDEST POP POP POP POP JUMP JUMPDEST PUSH20 0xBBBA073C31BF03B8ACF7C28EF0738DECF3695683 DUP2 JUMP JUMPDEST PUSH1 0x9 SLOAD DUP2 JUMP JUMPDEST PUSH1 0x0 DUP3 PUSH1 0x8 SLOAD DUP4 PUSH2 0x1023 SWAP2 SWAP1 PUSH2 0x452F JUMP JUMPDEST PUSH2 0x102D SWAP2 SWAP1 PUSH2 0x4276 JUMP JUMPDEST SWAP1 POP DUP1 PUSH1 0x8 SLOAD PUSH2 0x103D SWAP2 SWAP1 PUSH2 0x417F JUMP JUMPDEST PUSH1 0x8 DUP2 SWAP1 SSTORE POP PUSH1 0x0 PUSH1 0xB PUSH1 0x0 DUP7 PUSH20 0xFFFFFFFFFFFFFFFFFFFFFFFFFFFFFFFFFFFFFFFF AND PUSH20 0xFFFFFFFFFFFFFFFFFFFFFFFFFFFFFFFFFFFFFFFF AND DUP2 MSTORE PUSH1 0x20 ADD SWAP1 DUP2 MSTORE PUSH1 0x20 ADD PUSH1 0x0 KECCAK256 SLOAD GT ISZERO PUSH2 0x111E JUMPI DUP1 PUSH1 0xB PUSH1 0x0 DUP7 PUSH20 0xFFFFFFFFFFFFFFFFFFFFFFFFFFFFFFFFFFFFFFFF AND PUSH20 0xFFFFFFFFFFFFFFFFFFFFFFFFFFFFFFFFFFFFFFFF AND DUP2 MSTORE PUSH1 0x20 ADD SWAP1 DUP2 MSTORE PUSH1 0x20 ADD PUSH1 0x0 KECCAK256 SLOAD PUSH2 0x10D6 SWAP2 SWAP1 PUSH2 0x417F JUMP JUMPDEST PUSH1 0xB PUSH1 0x0 DUP7 PUSH20 0xFFFFFFFFFFFFFFFFFFFFFFFFFFFFFFFFFFFFFFFF AND PUSH20 0xFFFFFFFFFFFFFFFFFFFFFFFFFFFFFFFFFFFFFFFF AND DUP2 MSTORE PUSH1 0x20 ADD SWAP1 DUP2 MSTORE PUSH1 0x20 ADD PUSH1 0x0 KECCAK256 DUP2 SWAP1 SSTORE POP PUSH2 0x1163 JUMP JUMPDEST DUP1 PUSH1 0xB PUSH1 0x0 DUP7 PUSH20 0xFFFFFFFFFFFFFFFFFFFFFFFFFFFFFFFFFFFFFFFF AND PUSH20 0xFFFFFFFFFFFFFFFFFFFFFFFFFFFFFFFFFFFFFFFF AND DUP2 MSTORE PUSH1 0x20 ADD SWAP1 DUP2 MSTORE PUSH1 0x20 ADD PUSH1 0x0 KECCAK256 DUP2 SWAP1 SSTORE POP JUMPDEST POP POP POP POP JUMP JUMPDEST PUSH1 0x6 DUP2 DUP2 SLOAD DUP2 LT PUSH2 0x1179 JUMPI PUSH1 0x0 DUP1 REVERT JUMPDEST SWAP1 PUSH1 0x0 MSTORE PUSH1 0x20 PUSH1 0x0 KECCAK256 ADD PUSH1 0x0 SWAP2 POP SLOAD SWAP1 PUSH2 0x100 EXP SWAP1 DIV PUSH20 0xFFFFFFFFFFFFFFFFFFFFFFFFFFFFFFFFFFFFFFFF AND DUP2 JUMP JUMPDEST PUSH1 0xA SLOAD PUSH1 0x9 SLOAD TIMESTAMP PUSH2 0x11B9 SWAP2 SWAP1 PUSH2 0x4658 JUMP JUMPDEST GT ISZERO PUSH2 0x16BA JUMPI TIMESTAMP PUSH1 0x9 DUP2 SWAP1 SSTORE POP PUSH1 0x60 DUP1 PUSH1 0x0 PUSH1 0x2 PUSH8 0xFFFFFFFFFFFFFFFF DUP2 GT ISZERO PUSH2 0x11E6 JUMPI PUSH2 0x11E5 PUSH2 0x489B JUMP JUMPDEST JUMPDEST PUSH1 0x40 MLOAD SWAP1 DUP1 DUP3 MSTORE DUP1 PUSH1 0x20 MUL PUSH1 0x20 ADD DUP3 ADD PUSH1 0x40 MSTORE DUP1 ISZERO PUSH2 0x1214 JUMPI DUP2 PUSH1 0x20 ADD PUSH1 0x20 DUP3 MUL DUP1 CALLDATASIZE DUP4 CALLDATACOPY DUP1 DUP3 ADD SWAP2 POP POP SWAP1 POP JUMPDEST POP SWAP1 POP PUSH1 0x0 PUSH1 0x3 PUSH8 0xFFFFFFFFFFFFFFFF DUP2 GT ISZERO PUSH2 0x1234 JUMPI PUSH2 0x1233 PUSH2 0x489B JUMP JUMPDEST JUMPDEST PUSH1 0x40 MLOAD SWAP1 DUP1 DUP3 MSTORE DUP1 PUSH1 0x20 MUL PUSH1 0x20 ADD DUP3 ADD PUSH1 0x40 MSTORE DUP1 ISZERO PUSH2 0x1262 JUMPI DUP2 PUSH1 0x20 ADD PUSH1 0x20 DUP3 MUL DUP1 CALLDATASIZE DUP4 CALLDATACOPY DUP1 DUP3 ADD SWAP2 POP POP SWAP1 POP JUMPDEST POP SWAP1 POP DUP6 DUP6 DUP2 ADD SWAP1 PUSH2 0x1274 SWAP2 SWAP1 PUSH2 0x38BD JUMP JUMPDEST DUP1 SWAP5 POP DUP2 SWAP6 POP POP POP PUSH1 0x0 JUMPDEST DUP4 MLOAD DUP2 PUSH1 0xFF AND LT ISZERO PUSH2 0x16B4 JUMPI PUSH2 0x12F0 DUP6 DUP3 PUSH1 0x2 PUSH2 0x129C SWAP2 SWAP1 PUSH2 0x4589 JUMP JUMPDEST PUSH1 0xFF AND DUP2 MLOAD DUP2 LT PUSH2 0x12B0 JUMPI PUSH2 0x12AF PUSH2 0x486C JUMP JUMPDEST JUMPDEST PUSH1 0x20 MUL PUSH1 0x20 ADD ADD MLOAD PUSH20 0xA5E0829CACED8FFDD4DE3C43696C57F7D7A678FF DUP7 DUP5 PUSH1 0xFF AND DUP2 MLOAD DUP2 LT PUSH2 0x12E3 JUMPI PUSH2 0x12E2 PUSH2 0x486C JUMP JUMPDEST JUMPDEST PUSH1 0x20 MUL PUSH1 0x20 ADD ADD MLOAD PUSH2 0xF61 JUMP JUMPDEST PUSH20 0xD500B1D8E8EF31E21C99D1DB9A6444D3ADF1270 PUSH20 0xFFFFFFFFFFFFFFFFFFFFFFFFFFFFFFFFFFFFFFFF AND DUP6 DUP3 PUSH1 0x2 PUSH2 0x1329 SWAP2 SWAP1 PUSH2 0x4589 JUMP JUMPDEST PUSH1 0xFF AND DUP2 MLOAD DUP2 LT PUSH2 0x133D JUMPI PUSH2 0x133C PUSH2 0x486C JUMP JUMPDEST JUMPDEST PUSH1 0x20 MUL PUSH1 0x20 ADD ADD MLOAD PUSH20 0xFFFFFFFFFFFFFFFFFFFFFFFFFFFFFFFFFFFFFFFF AND EQ DUP1 PUSH2 0x13DB JUMPI POP PUSH20 0xD500B1D8E8EF31E21C99D1DB9A6444D3ADF1270 PUSH20 0xFFFFFFFFFFFFFFFFFFFFFFFFFFFFFFFFFFFFFFFF AND DUP6 PUSH1 0x1 DUP4 PUSH1 0x2 PUSH2 0x139D SWAP2 SWAP1 PUSH2 0x4589 JUMP JUMPDEST PUSH2 0x13A7 SWAP2 SWAP1 PUSH2 0x41D5 JUMP JUMPDEST PUSH1 0xFF AND DUP2 MLOAD DUP2 LT PUSH2 0x13BB JUMPI PUSH2 0x13BA PUSH2 0x486C JUMP JUMPDEST JUMPDEST PUSH1 0x20 MUL PUSH1 0x20 ADD ADD MLOAD PUSH20 0xFFFFFFFFFFFFFFFFFFFFFFFFFFFFFFFFFFFFFFFF AND EQ JUMPDEST ISZERO PUSH2 0x1511 JUMPI DUP5 DUP2 PUSH1 0x2 PUSH2 0x13EE SWAP2 SWAP1 PUSH2 0x4589 JUMP JUMPDEST PUSH1 0xFF AND DUP2 MLOAD DUP2 LT PUSH2 0x1402 JUMPI PUSH2 0x1401 PUSH2 0x486C JUMP JUMPDEST JUMPDEST PUSH1 0x20 MUL PUSH1 0x20 ADD ADD MLOAD DUP4 PUSH1 0x0 DUP2 MLOAD DUP2 LT PUSH2 0x141E JUMPI PUSH2 0x141D PUSH2 0x486C JUMP JUMPDEST JUMPDEST PUSH1 0x20 MUL PUSH1 0x20 ADD ADD SWAP1 PUSH20 0xFFFFFFFFFFFFFFFFFFFFFFFFFFFFFFFFFFFFFFFF AND SWAP1 DUP2 PUSH20 0xFFFFFFFFFFFFFFFFFFFFFFFFFFFFFFFFFFFFFFFF AND DUP2 MSTORE POP POP DUP5 PUSH1 0x1 DUP3 PUSH1 0x2 PUSH2 0x1468 SWAP2 SWAP1 PUSH2 0x4589 JUMP JUMPDEST PUSH2 0x1472 SWAP2 SWAP1 PUSH2 0x41D5 JUMP JUMPDEST PUSH1 0xFF AND DUP2 MLOAD DUP2 LT PUSH2 0x1486 JUMPI PUSH2 0x1485 PUSH2 0x486C JUMP JUMPDEST JUMPDEST PUSH1 0x20 MUL PUSH1 0x20 ADD ADD MLOAD DUP4 PUSH1 0x1 DUP2 MLOAD DUP2 LT PUSH2 0x14A2 JUMPI PUSH2 0x14A1 PUSH2 0x486C JUMP JUMPDEST JUMPDEST PUSH1 0x20 MUL PUSH1 0x20 ADD ADD SWAP1 PUSH20 0xFFFFFFFFFFFFFFFFFFFFFFFFFFFFFFFFFFFFFFFF AND SWAP1 DUP2 PUSH20 0xFFFFFFFFFFFFFFFFFFFFFFFFFFFFFFFFFFFFFFFF AND DUP2 MSTORE POP POP PUSH2 0x150C DUP5 DUP3 PUSH1 0xFF AND DUP2 MLOAD DUP2 LT PUSH2 0x14F5 JUMPI PUSH2 0x14F4 PUSH2 0x486C JUMP JUMPDEST JUMPDEST PUSH1 0x20 MUL PUSH1 0x20 ADD ADD MLOAD PUSH1 0x0 DUP6 ADDRESS PUSH5 0x174876E7FF PUSH2 0x2CB7 JUMP JUMPDEST PUSH2 0x16A1 JUMP JUMPDEST DUP5 DUP2 PUSH1 0x2 PUSH2 0x151F SWAP2 SWAP1 PUSH2 0x4589 JUMP JUMPDEST PUSH1 0xFF AND DUP2 MLOAD DUP2 LT PUSH2 0x1533 JUMPI PUSH2 0x1532 PUSH2 0x486C JUMP JUMPDEST JUMPDEST PUSH1 0x20 MUL PUSH1 0x20 ADD ADD MLOAD DUP3 PUSH1 0x0 DUP2 MLOAD DUP2 LT PUSH2 0x154F JUMPI PUSH2 0x154E PUSH2 0x486C JUMP JUMPDEST JUMPDEST PUSH1 0x20 MUL PUSH1 0x20 ADD ADD SWAP1 PUSH20 0xFFFFFFFFFFFFFFFFFFFFFFFFFFFFFFFFFFFFFFFF AND SWAP1 DUP2 PUSH20 0xFFFFFFFFFFFFFFFFFFFFFFFFFFFFFFFFFFFFFFFF AND DUP2 MSTORE POP POP PUSH20 0xD500B1D8E8EF31E21C99D1DB9A6444D3ADF1270 DUP3 PUSH1 0x1 DUP2 MLOAD DUP2 LT PUSH2 0x15B2 JUMPI PUSH2 0x15B1 PUSH2 0x486C JUMP JUMPDEST JUMPDEST PUSH1 0x20 MUL PUSH1 0x20 ADD ADD SWAP1 PUSH20 0xFFFFFFFFFFFFFFFFFFFFFFFFFFFFFFFFFFFFFFFF AND SWAP1 DUP2 PUSH20 0xFFFFFFFFFFFFFFFFFFFFFFFFFFFFFFFFFFFFFFFF AND DUP2 MSTORE POP POP DUP5 PUSH1 0x1 DUP3 PUSH1 0x2 PUSH2 0x15FC SWAP2 SWAP1 PUSH2 0x4589 JUMP JUMPDEST PUSH2 0x1606 SWAP2 SWAP1 PUSH2 0x41D5 JUMP JUMPDEST PUSH1 0xFF AND DUP2 MLOAD DUP2 LT PUSH2 0x161A JUMPI PUSH2 0x1619 PUSH2 0x486C JUMP JUMPDEST JUMPDEST PUSH1 0x20 MUL PUSH1 0x20 ADD ADD MLOAD DUP3 PUSH1 0x2 DUP2 MLOAD DUP2 LT PUSH2 0x1636 JUMPI PUSH2 0x1635 PUSH2 0x486C JUMP JUMPDEST JUMPDEST PUSH1 0x20 MUL PUSH1 0x20 ADD ADD SWAP1 PUSH20 0xFFFFFFFFFFFFFFFFFFFFFFFFFFFFFFFFFFFFFFFF AND SWAP1 DUP2 PUSH20 0xFFFFFFFFFFFFFFFFFFFFFFFFFFFFFFFFFFFFFFFF AND DUP2 MSTORE POP POP PUSH2 0x16A0 DUP5 DUP3 PUSH1 0xFF AND DUP2 MLOAD DUP2 LT PUSH2 0x1689 JUMPI PUSH2 0x1688 PUSH2 0x486C JUMP JUMPDEST JUMPDEST PUSH1 0x20 MUL PUSH1 0x20 ADD ADD MLOAD PUSH1 0x0 DUP5 ADDRESS PUSH5 0x174876E7FF PUSH2 0x2CB7 JUMP JUMPDEST JUMPDEST DUP1 DUP1 PUSH2 0x16AC SWAP1 PUSH2 0x479B JUMP JUMPDEST SWAP2 POP POP PUSH2 0x127F JUMP JUMPDEST POP POP POP POP POP JUMPDEST POP POP JUMP JUMPDEST PUSH1 0x0 PUSH1 0xB PUSH1 0x0 DUP4 PUSH20 0xFFFFFFFFFFFFFFFFFFFFFFFFFFFFFFFFFFFFFFFF AND PUSH20 0xFFFFFFFFFFFFFFFFFFFFFFFFFFFFFFFFFFFFFFFF AND DUP2 MSTORE PUSH1 0x20 ADD SWAP1 DUP2 MSTORE PUSH1 0x20 ADD PUSH1 0x0 KECCAK256 SLOAD GT PUSH2 0x1740 JUMPI PUSH1 0x40 MLOAD PUSH32 0x8C379A000000000000000000000000000000000000000000000000000000000 DUP2 MSTORE PUSH1 0x4 ADD PUSH2 0x1737 SWAP1 PUSH2 0x3F3A JUMP JUMPDEST PUSH1 0x40 MLOAD DUP1 SWAP2 SUB SWAP1 REVERT JUMPDEST PUSH1 0xB PUSH1 0x0 DUP3 PUSH20 0xFFFFFFFFFFFFFFFFFFFFFFFFFFFFFFFFFFFFFFFF AND PUSH20 0xFFFFFFFFFFFFFFFFFFFFFFFFFFFFFFFFFFFFFFFF AND DUP2 MSTORE PUSH1 0x20 ADD SWAP1 DUP2 MSTORE PUSH1 0x20 ADD PUSH1 0x0 KECCAK256 SLOAD PUSH1 0x8 PUSH1 0x0 DUP3 DUP3 SLOAD PUSH2 0x1791 SWAP2 SWAP1 PUSH2 0x4658 JUMP JUMPDEST SWAP3 POP POP DUP2 SWAP1 SSTORE POP PUSH1 0x0 PUSH1 0xB PUSH1 0x0 DUP4 PUSH20 0xFFFFFFFFFFFFFFFFFFFFFFFFFFFFFFFFFFFFFFFF AND PUSH20 0xFFFFFFFFFFFFFFFFFFFFFFFFFFFFFFFFFFFFFFFF AND DUP2 MSTORE PUSH1 0x20 ADD SWAP1 DUP2 MSTORE PUSH1 0x20 ADD PUSH1 0x0 KECCAK256 DUP2 SWAP1 SSTORE POP POP JUMP JUMPDEST PUSH1 0x0 PUSH1 0x2 DUP3 PUSH2 0x17EF SWAP2 SWAP1 PUSH2 0x417F JUMP JUMPDEST PUSH1 0xA PUSH2 0x17FB SWAP2 SWAP1 PUSH2 0x42FA JUMP JUMPDEST PUSH2 0x1804 DUP5 PUSH2 0xA68 JUMP JUMPDEST PUSH2 0x180E DUP7 ADDRESS PUSH2 0xB06 JUMP JUMPDEST PUSH2 0x1818 SWAP2 SWAP1 PUSH2 0x452F JUMP JUMPDEST PUSH2 0x1822 SWAP2 SWAP1 PUSH2 0x4276 JUMP JUMPDEST SWAP1 POP SWAP4 SWAP3 POP POP POP JUMP JUMPDEST PUSH4 0x5F5E100 PUSH1 0xB PUSH1 0x0 DUP4 PUSH20 0xFFFFFFFFFFFFFFFFFFFFFFFFFFFFFFFFFFFFFFFF AND PUSH20 0xFFFFFFFFFFFFFFFFFFFFFFFFFFFFFFFFFFFFFFFF AND DUP2 MSTORE PUSH1 0x20 ADD SWAP1 DUP2 MSTORE PUSH1 0x20 ADD PUSH1 0x0 KECCAK256 DUP2 SWAP1 SSTORE POP PUSH1 0xB PUSH1 0x0 DUP3 PUSH20 0xFFFFFFFFFFFFFFFFFFFFFFFFFFFFFFFFFFFFFFFF AND PUSH20 0xFFFFFFFFFFFFFFFFFFFFFFFFFFFFFFFFFFFFFFFF AND DUP2 MSTORE PUSH1 0x20 ADD SWAP1 DUP2 MSTORE PUSH1 0x20 ADD PUSH1 0x0 KECCAK256 SLOAD PUSH1 0x8 DUP2 SWAP1 SSTORE POP POP JUMP JUMPDEST PUSH1 0x4 DUP2 DUP2 SLOAD DUP2 LT PUSH2 0x18CC JUMPI PUSH1 0x0 DUP1 REVERT JUMPDEST SWAP1 PUSH1 0x0 MSTORE PUSH1 0x20 PUSH1 0x0 KECCAK256 ADD PUSH1 0x0 SWAP2 POP SLOAD SWAP1 PUSH2 0x100 EXP SWAP1 DIV PUSH20 0xFFFFFFFFFFFFFFFFFFFFFFFFFFFFFFFFFFFFFFFF AND DUP2 JUMP JUMPDEST PUSH1 0x0 DUP2 DUP2 SLOAD DUP2 LT PUSH2 0x190B JUMPI PUSH1 0x0 DUP1 REVERT JUMPDEST SWAP1 PUSH1 0x0 MSTORE PUSH1 0x20 PUSH1 0x0 KECCAK256 ADD PUSH1 0x0 SWAP2 POP SLOAD SWAP1 PUSH2 0x100 EXP SWAP1 DIV PUSH20 0xFFFFFFFFFFFFFFFFFFFFFFFFFFFFFFFFFFFFFFFF AND DUP2 JUMP JUMPDEST PUSH1 0x0 PUSH1 0x60 PUSH1 0xA SLOAD PUSH1 0x9 SLOAD TIMESTAMP PUSH2 0x194F SWAP2 SWAP1 PUSH2 0x4658 JUMP JUMPDEST GT SWAP2 POP PUSH1 0x0 PUSH1 0x4 PUSH8 0xFFFFFFFFFFFFFFFF DUP2 GT ISZERO PUSH2 0x196F JUMPI PUSH2 0x196E PUSH2 0x489B JUMP JUMPDEST JUMPDEST PUSH1 0x40 MLOAD SWAP1 DUP1 DUP3 MSTORE DUP1 PUSH1 0x20 MUL PUSH1 0x20 ADD DUP3 ADD PUSH1 0x40 MSTORE DUP1 ISZERO PUSH2 0x19A8 JUMPI DUP2 PUSH1 0x20 ADD JUMPDEST PUSH2 0x1995 PUSH2 0x3436 JUMP JUMPDEST DUP2 MSTORE PUSH1 0x20 ADD SWAP1 PUSH1 0x1 SWAP1 SUB SWAP1 DUP2 PUSH2 0x198D JUMPI SWAP1 POP JUMPDEST POP SWAP1 POP PUSH2 0x19B3 PUSH2 0x3436 JUMP JUMPDEST PUSH20 0xD500B1D8E8EF31E21C99D1DB9A6444D3ADF1270 DUP2 PUSH1 0x20 ADD SWAP1 PUSH20 0xFFFFFFFFFFFFFFFFFFFFFFFFFFFFFFFFFFFFFFFF AND SWAP1 DUP2 PUSH20 0xFFFFFFFFFFFFFFFFFFFFFFFFFFFFFFFFFFFFFFFF AND DUP2 MSTORE POP POP PUSH20 0xAB594600376EC9FD91F8E885DADF0CE036862DE0 DUP2 PUSH1 0x40 ADD SWAP1 PUSH20 0xFFFFFFFFFFFFFFFFFFFFFFFFFFFFFFFFFFFFFFFF AND SWAP1 DUP2 PUSH20 0xFFFFFFFFFFFFFFFFFFFFFFFFFFFFFFFFFFFFFFFF AND DUP2 MSTORE POP POP PUSH2 0x1A53 PUSH2 0x3436 JUMP JUMPDEST PUSH20 0xBBBA073C31BF03B8ACF7C28EF0738DECF3695683 DUP2 PUSH1 0x20 ADD SWAP1 PUSH20 0xFFFFFFFFFFFFFFFFFFFFFFFFFFFFFFFFFFFFFFFF AND SWAP1 DUP2 PUSH20 0xFFFFFFFFFFFFFFFFFFFFFFFFFFFFFFFFFFFFFFFF AND DUP2 MSTORE POP POP PUSH20 0x3D49406EDD4D52FB7FFD25485F32E073B529C924 DUP2 PUSH1 0x40 ADD SWAP1 PUSH20 0xFFFFFFFFFFFFFFFFFFFFFFFFFFFFFFFFFFFFFFFF AND SWAP1 DUP2 PUSH20 0xFFFFFFFFFFFFFFFFFFFFFFFFFFFFFFFFFFFFFFFF AND DUP2 MSTORE POP POP PUSH2 0x1AF3 PUSH2 0x3436 JUMP JUMPDEST PUSH20 0x1BFD67037B42CF73ACF2047067BD4F2C47D9BFD6 DUP2 PUSH1 0x20 ADD SWAP1 PUSH20 0xFFFFFFFFFFFFFFFFFFFFFFFFFFFFFFFFFFFFFFFF AND SWAP1 DUP2 PUSH20 0xFFFFFFFFFFFFFFFFFFFFFFFFFFFFFFFFFFFFFFFF AND DUP2 MSTORE POP POP PUSH20 0xC907E116054AD103354F2D350FD2514433D57F6F DUP2 PUSH1 0x40 ADD SWAP1 PUSH20 0xFFFFFFFFFFFFFFFFFFFFFFFFFFFFFFFFFFFFFFFF AND SWAP1 DUP2 PUSH20 0xFFFFFFFFFFFFFFFFFFFFFFFFFFFFFFFFFFFFFFFF AND DUP2 MSTORE POP POP PUSH2 0x1B93 PUSH2 0x3436 JUMP JUMPDEST PUSH20 0x7CEB23FD6BC0ADD59E62AC25578270CFF1B9F619 DUP2 PUSH1 0x20 ADD SWAP1 PUSH20 0xFFFFFFFFFFFFFFFFFFFFFFFFFFFFFFFFFFFFFFFF AND SWAP1 DUP2 PUSH20 0xFFFFFFFFFFFFFFFFFFFFFFFFFFFFFFFFFFFFFFFF AND DUP2 MSTORE POP POP PUSH20 0xF9680D99D6C9589E2A93A78A04A279E509205945 DUP2 PUSH1 0x40 ADD SWAP1 PUSH20 0xFFFFFFFFFFFFFFFFFFFFFFFFFFFFFFFFFFFFFFFF AND SWAP1 DUP2 PUSH20 0xFFFFFFFFFFFFFFFFFFFFFFFFFFFFFFFFFFFFFFFF AND DUP2 MSTORE POP POP DUP4 DUP6 PUSH1 0x0 DUP2 MLOAD DUP2 LT PUSH2 0x1C40 JUMPI PUSH2 0x1C3F PUSH2 0x486C JUMP JUMPDEST JUMPDEST PUSH1 0x20 MUL PUSH1 0x20 ADD ADD DUP2 SWAP1 MSTORE POP DUP3 DUP6 PUSH1 0x1 DUP2 MLOAD DUP2 LT PUSH2 0x1C60 JUMPI PUSH2 0x1C5F PUSH2 0x486C JUMP JUMPDEST JUMPDEST PUSH1 0x20 MUL PUSH1 0x20 ADD ADD DUP2 SWAP1 MSTORE POP DUP2 DUP6 PUSH1 0x2 DUP2 MLOAD DUP2 LT PUSH2 0x1C80 JUMPI PUSH2 0x1C7F PUSH2 0x486C JUMP JUMPDEST JUMPDEST PUSH1 0x20 MUL PUSH1 0x20 ADD ADD DUP2 SWAP1 MSTORE POP DUP1 DUP6 PUSH1 0x3 DUP2 MLOAD DUP2 LT PUSH2 0x1CA0 JUMPI PUSH2 0x1C9F PUSH2 0x486C JUMP JUMPDEST JUMPDEST PUSH1 0x20 MUL PUSH1 0x20 ADD ADD DUP2 SWAP1 MSTORE POP PUSH1 0x0 DUP1 JUMPDEST DUP7 MLOAD DUP2 PUSH1 0xFF AND LT ISZERO PUSH2 0x1F97 JUMPI PUSH1 0x0 DUP8 DUP3 PUSH1 0xFF AND DUP2 MLOAD DUP2 LT PUSH2 0x1CD3 JUMPI PUSH2 0x1CD2 PUSH2 0x486C JUMP JUMPDEST JUMPDEST PUSH1 0x20 MUL PUSH1 0x20 ADD ADD MLOAD PUSH1 0x20 ADD MLOAD SWAP1 POP DUP1 PUSH20 0xFFFFFFFFFFFFFFFFFFFFFFFFFFFFFFFFFFFFFFFF AND PUSH4 0x70A08231 ADDRESS PUSH1 0x40 MLOAD DUP3 PUSH4 0xFFFFFFFF AND PUSH1 0xE0 SHL DUP2 MSTORE PUSH1 0x4 ADD PUSH2 0x1D1A SWAP2 SWAP1 PUSH2 0x3E22 JUMP JUMPDEST PUSH1 0x20 PUSH1 0x40 MLOAD DUP1 DUP4 SUB DUP2 DUP7 DUP1 EXTCODESIZE ISZERO DUP1 ISZERO PUSH2 0x1D32 JUMPI PUSH1 0x0 DUP1 REVERT JUMPDEST POP GAS STATICCALL ISZERO DUP1 ISZERO PUSH2 0x1D46 JUMPI RETURNDATASIZE PUSH1 0x0 DUP1 RETURNDATACOPY RETURNDATASIZE PUSH1 0x0 REVERT JUMPDEST POP POP POP POP PUSH1 0x40 MLOAD RETURNDATASIZE PUSH1 0x1F NOT PUSH1 0x1F DUP3 ADD AND DUP3 ADD DUP1 PUSH1 0x40 MSTORE POP DUP2 ADD SWAP1 PUSH2 0x1D6A SWAP2 SWAP1 PUSH2 0x3A25 JUMP JUMPDEST DUP9 DUP4 PUSH1 0xFF AND DUP2 MLOAD DUP2 LT PUSH2 0x1D80 JUMPI PUSH2 0x1D7F PUSH2 0x486C JUMP JUMPDEST JUMPDEST PUSH1 0x20 MUL PUSH1 0x20 ADD ADD MLOAD PUSH1 0x80 ADD DUP2 DUP2 MSTORE POP POP PUSH2 0x1DBA DUP9 DUP4 PUSH1 0xFF AND DUP2 MLOAD DUP2 LT PUSH2 0x1DA9 JUMPI PUSH2 0x1DA8 PUSH2 0x486C JUMP JUMPDEST JUMPDEST PUSH1 0x20 MUL PUSH1 0x20 ADD ADD MLOAD PUSH1 0x40 ADD MLOAD PUSH2 0xA68 JUMP JUMPDEST DUP9 DUP4 PUSH1 0xFF AND DUP2 MLOAD DUP2 LT PUSH2 0x1DD0 JUMPI PUSH2 0x1DCF PUSH2 0x486C JUMP JUMPDEST JUMPDEST PUSH1 0x20 MUL PUSH1 0x20 ADD ADD MLOAD PUSH1 0xE0 ADD DUP2 DUP2 MSTORE POP POP DUP1 PUSH20 0xFFFFFFFFFFFFFFFFFFFFFFFFFFFFFFFFFFFFFFFF AND PUSH4 0x313CE567 PUSH1 0x40 MLOAD DUP2 PUSH4 0xFFFFFFFF AND PUSH1 0xE0 SHL DUP2 MSTORE PUSH1 0x4 ADD PUSH1 0x20 PUSH1 0x40 MLOAD DUP1 DUP4 SUB DUP2 DUP7 DUP1 EXTCODESIZE ISZERO DUP1 ISZERO PUSH2 0x1E26 JUMPI PUSH1 0x0 DUP1 REVERT JUMPDEST POP GAS STATICCALL ISZERO DUP1 ISZERO PUSH2 0x1E3A JUMPI RETURNDATASIZE PUSH1 0x0 DUP1 RETURNDATACOPY RETURNDATASIZE PUSH1 0x0 REVERT JUMPDEST POP POP POP POP PUSH1 0x40 MLOAD RETURNDATASIZE PUSH1 0x1F NOT PUSH1 0x1F DUP3 ADD AND DUP3 ADD DUP1 PUSH1 0x40 MSTORE POP DUP2 ADD SWAP1 PUSH2 0x1E5E SWAP2 SWAP1 PUSH2 0x3C44 JUMP JUMPDEST PUSH1 0xFF AND DUP9 DUP4 PUSH1 0xFF AND DUP2 MLOAD DUP2 LT PUSH2 0x1E77 JUMPI PUSH2 0x1E76 PUSH2 0x486C JUMP JUMPDEST JUMPDEST PUSH1 0x20 MUL PUSH1 0x20 ADD ADD MLOAD PUSH1 0x60 ADD DUP2 DUP2 MSTORE POP POP PUSH1 0x0 DUP9 DUP4 PUSH1 0xFF AND DUP2 MLOAD DUP2 LT PUSH2 0x1E9F JUMPI PUSH2 0x1E9E PUSH2 0x486C JUMP JUMPDEST JUMPDEST PUSH1 0x20 MUL PUSH1 0x20 ADD ADD MLOAD PUSH1 0x60 ADD MLOAD PUSH1 0x12 PUSH2 0x1EB7 SWAP2 SWAP1 PUSH2 0x4658 JUMP JUMPDEST SWAP1 POP PUSH4 0x5F5E100 DUP2 PUSH1 0xA PUSH2 0x1ECB SWAP2 SWAP1 PUSH2 0x42FA JUMP JUMPDEST DUP11 DUP6 PUSH1 0xFF AND DUP2 MLOAD DUP2 LT PUSH2 0x1EE1 JUMPI PUSH2 0x1EE0 PUSH2 0x486C JUMP JUMPDEST JUMPDEST PUSH1 0x20 MUL PUSH1 0x20 ADD ADD MLOAD PUSH1 0xE0 ADD MLOAD DUP12 DUP7 PUSH1 0xFF AND DUP2 MLOAD DUP2 LT PUSH2 0x1F03 JUMPI PUSH2 0x1F02 PUSH2 0x486C JUMP JUMPDEST JUMPDEST PUSH1 0x20 MUL PUSH1 0x20 ADD ADD MLOAD PUSH1 0x80 ADD MLOAD PUSH2 0x1F19 SWAP2 SWAP1 PUSH2 0x452F JUMP JUMPDEST PUSH2 0x1F23 SWAP2 SWAP1 PUSH2 0x452F JUMP JUMPDEST PUSH2 0x1F2D SWAP2 SWAP1 PUSH2 0x4276 JUMP JUMPDEST DUP10 DUP5 PUSH1 0xFF AND DUP2 MLOAD DUP2 LT PUSH2 0x1F43 JUMPI PUSH2 0x1F42 PUSH2 0x486C JUMP JUMPDEST JUMPDEST PUSH1 0x20 MUL PUSH1 0x20 ADD ADD MLOAD PUSH1 0xA0 ADD DUP2 DUP2 MSTORE POP POP DUP9 DUP4 PUSH1 0xFF AND DUP2 MLOAD DUP2 LT PUSH2 0x1F69 JUMPI PUSH2 0x1F68 PUSH2 0x486C JUMP JUMPDEST JUMPDEST PUSH1 0x20 MUL PUSH1 0x20 ADD ADD MLOAD PUSH1 0xA0 ADD MLOAD DUP5 PUSH2 0x1F80 SWAP2 SWAP1 PUSH2 0x417F JUMP JUMPDEST SWAP4 POP POP POP DUP1 DUP1 PUSH2 0x1F8F SWAP1 PUSH2 0x479B JUMP JUMPDEST SWAP2 POP POP PUSH2 0x1CAF JUMP JUMPDEST POP PUSH1 0x0 JUMPDEST DUP7 MLOAD DUP2 PUSH1 0xFF AND LT ISZERO PUSH2 0x2019 JUMPI DUP7 MLOAD DUP3 PUSH2 0x1FB4 SWAP2 SWAP1 PUSH2 0x4276 JUMP JUMPDEST DUP8 DUP3 PUSH1 0xFF AND DUP2 MLOAD DUP2 LT PUSH2 0x1FCA JUMPI PUSH2 0x1FC9 PUSH2 0x486C JUMP JUMPDEST JUMPDEST PUSH1 0x20 MUL PUSH1 0x20 ADD ADD MLOAD PUSH1 0xA0 ADD MLOAD PUSH2 0x1FE0 SWAP2 SWAP1 PUSH2 0x45C4 JUMP JUMPDEST DUP8 DUP3 PUSH1 0xFF AND DUP2 MLOAD DUP2 LT PUSH2 0x1FF6 JUMPI PUSH2 0x1FF5 PUSH2 0x486C JUMP JUMPDEST JUMPDEST PUSH1 0x20 MUL PUSH1 0x20 ADD ADD MLOAD PUSH1 0xC0 ADD DUP2 DUP2 MSTORE POP POP DUP1 DUP1 PUSH2 0x2011 SWAP1 PUSH2 0x479B JUMP JUMPDEST SWAP2 POP POP PUSH2 0x1F9B JUMP JUMPDEST POP PUSH1 0x0 DUP1 PUSH1 0x0 DUP1 PUSH1 0x1 DUP11 MLOAD PUSH2 0x202E SWAP2 SWAP1 PUSH2 0x4658 JUMP JUMPDEST PUSH8 0xFFFFFFFFFFFFFFFF DUP2 GT ISZERO PUSH2 0x2047 JUMPI PUSH2 0x2046 PUSH2 0x489B JUMP JUMPDEST JUMPDEST PUSH1 0x40 MLOAD SWAP1 DUP1 DUP3 MSTORE DUP1 PUSH1 0x20 MUL PUSH1 0x20 ADD DUP3 ADD PUSH1 0x40 MSTORE DUP1 ISZERO PUSH2 0x2075 JUMPI DUP2 PUSH1 0x20 ADD PUSH1 0x20 DUP3 MUL DUP1 CALLDATASIZE DUP4 CALLDATACOPY DUP1 DUP3 ADD SWAP2 POP POP SWAP1 POP JUMPDEST POP SWAP1 POP PUSH1 0x0 PUSH1 0x1 DUP12 MLOAD PUSH2 0x2088 SWAP2 SWAP1 PUSH2 0x4658 JUMP JUMPDEST PUSH1 0x2 PUSH2 0x2094 SWAP2 SWAP1 PUSH2 0x452F JUMP JUMPDEST PUSH8 0xFFFFFFFFFFFFFFFF DUP2 GT ISZERO PUSH2 0x20AD JUMPI PUSH2 0x20AC PUSH2 0x489B JUMP JUMPDEST JUMPDEST PUSH1 0x40 MLOAD SWAP1 DUP1 DUP3 MSTORE DUP1 PUSH1 0x20 MUL PUSH1 0x20 ADD DUP3 ADD PUSH1 0x40 MSTORE DUP1 ISZERO PUSH2 0x20DB JUMPI DUP2 PUSH1 0x20 ADD PUSH1 0x20 DUP3 MUL DUP1 CALLDATASIZE DUP4 CALLDATACOPY DUP1 DUP3 ADD SWAP2 POP POP SWAP1 POP JUMPDEST POP SWAP1 POP PUSH1 0x0 JUMPDEST PUSH1 0x1 DUP13 MLOAD PUSH2 0x20EF SWAP2 SWAP1 PUSH2 0x4658 JUMP JUMPDEST DUP2 PUSH1 0xFF AND LT ISZERO PUSH2 0x26DF JUMPI PUSH1 0x0 JUMPDEST DUP13 MLOAD DUP2 PUSH1 0xFF AND LT ISZERO PUSH2 0x219A JUMPI PUSH1 0x0 DUP14 DUP3 PUSH1 0xFF AND DUP2 MLOAD DUP2 LT PUSH2 0x2120 JUMPI PUSH2 0x211F PUSH2 0x486C JUMP JUMPDEST JUMPDEST PUSH1 0x20 MUL PUSH1 0x20 ADD ADD MLOAD PUSH1 0xC0 ADD MLOAD EQ ISZERO DUP1 ISZERO PUSH2 0x215A JUMPI POP DUP7 DUP14 DUP3 PUSH1 0xFF AND DUP2 MLOAD DUP2 LT PUSH2 0x214C JUMPI PUSH2 0x214B PUSH2 0x486C JUMP JUMPDEST JUMPDEST PUSH1 0x20 MUL PUSH1 0x20 ADD ADD MLOAD PUSH1 0xC0 ADD MLOAD SGT JUMPDEST ISZERO PUSH2 0x2187 JUMPI DUP1 SWAP6 POP DUP13 DUP2 PUSH1 0xFF AND DUP2 MLOAD DUP2 LT PUSH2 0x2178 JUMPI PUSH2 0x2177 PUSH2 0x486C JUMP JUMPDEST JUMPDEST PUSH1 0x20 MUL PUSH1 0x20 ADD ADD MLOAD PUSH1 0xC0 ADD MLOAD SWAP7 POP JUMPDEST DUP1 DUP1 PUSH2 0x2192 SWAP1 PUSH2 0x479B JUMP JUMPDEST SWAP2 POP POP PUSH2 0x20FC JUMP JUMPDEST POP PUSH32 0x7FFFFFFFFFFFFFFFFFFFFFFFFFFFFFFFFFFFFFFFFFFFFFFFFFFFFFFFFFFFFFFF SWAP6 POP PUSH1 0x0 JUMPDEST DUP13 MLOAD DUP2 PUSH1 0xFF AND LT ISZERO PUSH2 0x225F JUMPI PUSH1 0x0 DUP14 DUP3 PUSH1 0xFF AND DUP2 MLOAD DUP2 LT PUSH2 0x21E5 JUMPI PUSH2 0x21E4 PUSH2 0x486C JUMP JUMPDEST JUMPDEST PUSH1 0x20 MUL PUSH1 0x20 ADD ADD MLOAD PUSH1 0xC0 ADD MLOAD EQ ISZERO DUP1 ISZERO PUSH2 0x221F JUMPI POP DUP7 DUP14 DUP3 PUSH1 0xFF AND DUP2 MLOAD DUP2 LT PUSH2 0x2211 JUMPI PUSH2 0x2210 PUSH2 0x486C JUMP JUMPDEST JUMPDEST PUSH1 0x20 MUL PUSH1 0x20 ADD ADD MLOAD PUSH1 0xC0 ADD MLOAD SLT JUMPDEST ISZERO PUSH2 0x224C JUMPI DUP1 SWAP5 POP DUP13 DUP2 PUSH1 0xFF AND DUP2 MLOAD DUP2 LT PUSH2 0x223D JUMPI PUSH2 0x223C PUSH2 0x486C JUMP JUMPDEST JUMPDEST PUSH1 0x20 MUL PUSH1 0x20 ADD ADD MLOAD PUSH1 0xC0 ADD MLOAD SWAP7 POP JUMPDEST DUP1 DUP1 PUSH2 0x2257 SWAP1 PUSH2 0x479B JUMP JUMPDEST SWAP2 POP POP PUSH2 0x21C1 JUMP JUMPDEST POP PUSH2 0x228A DUP13 DUP6 PUSH1 0xFF AND DUP2 MLOAD DUP2 LT PUSH2 0x2279 JUMPI PUSH2 0x2278 PUSH2 0x486C JUMP JUMPDEST JUMPDEST PUSH1 0x20 MUL PUSH1 0x20 ADD ADD MLOAD PUSH1 0xC0 ADD MLOAD PUSH2 0x3414 JUMP JUMPDEST DUP13 DUP7 PUSH1 0xFF AND DUP2 MLOAD DUP2 LT PUSH2 0x22A0 JUMPI PUSH2 0x229F PUSH2 0x486C JUMP JUMPDEST JUMPDEST PUSH1 0x20 MUL PUSH1 0x20 ADD ADD MLOAD PUSH1 0xC0 ADD MLOAD SGT ISZERO PUSH2 0x243D JUMPI PUSH2 0x22DC DUP13 DUP6 PUSH1 0xFF AND DUP2 MLOAD DUP2 LT PUSH2 0x22CB JUMPI PUSH2 0x22CA PUSH2 0x486C JUMP JUMPDEST JUMPDEST PUSH1 0x20 MUL PUSH1 0x20 ADD ADD MLOAD PUSH1 0xC0 ADD MLOAD PUSH2 0x3414 JUMP JUMPDEST DUP4 DUP3 PUSH1 0xFF AND DUP2 MLOAD DUP2 LT PUSH2 0x22F2 JUMPI PUSH2 0x22F1 PUSH2 0x486C JUMP JUMPDEST JUMPDEST PUSH1 0x20 MUL PUSH1 0x20 ADD ADD DUP2 DUP2 MSTORE POP POP DUP3 DUP2 PUSH1 0xFF AND DUP2 MLOAD DUP2 LT PUSH2 0x2314 JUMPI PUSH2 0x2313 PUSH2 0x486C JUMP JUMPDEST JUMPDEST PUSH1 0x20 MUL PUSH1 0x20 ADD ADD MLOAD DUP13 DUP7 PUSH1 0xFF AND DUP2 MLOAD DUP2 LT PUSH2 0x2332 JUMPI PUSH2 0x2331 PUSH2 0x486C JUMP JUMPDEST JUMPDEST PUSH1 0x20 MUL PUSH1 0x20 ADD ADD MLOAD PUSH1 0xC0 ADD DUP2 DUP2 MLOAD PUSH2 0x234A SWAP2 SWAP1 PUSH2 0x45C4 JUMP JUMPDEST SWAP2 POP DUP2 DUP2 MSTORE POP POP PUSH1 0x0 DUP13 DUP6 PUSH1 0xFF AND DUP2 MLOAD DUP2 LT PUSH2 0x2369 JUMPI PUSH2 0x2368 PUSH2 0x486C JUMP JUMPDEST JUMPDEST PUSH1 0x20 MUL PUSH1 0x20 ADD ADD MLOAD PUSH1 0xC0 ADD DUP2 DUP2 MSTORE POP POP DUP12 DUP6 PUSH1 0xFF AND DUP2 MLOAD DUP2 LT PUSH2 0x238F JUMPI PUSH2 0x238E PUSH2 0x486C JUMP JUMPDEST JUMPDEST PUSH1 0x20 MUL PUSH1 0x20 ADD ADD MLOAD PUSH1 0x60 ADD MLOAD PUSH1 0x12 PUSH2 0x23A7 SWAP2 SWAP1 PUSH2 0x4658 JUMP JUMPDEST PUSH1 0xA PUSH2 0x23B3 SWAP2 SWAP1 PUSH2 0x42FA JUMP JUMPDEST DUP13 DUP7 PUSH1 0xFF AND DUP2 MLOAD DUP2 LT PUSH2 0x23C9 JUMPI PUSH2 0x23C8 PUSH2 0x486C JUMP JUMPDEST JUMPDEST PUSH1 0x20 MUL PUSH1 0x20 ADD ADD MLOAD PUSH1 0xE0 ADD MLOAD PUSH4 0x5F5E100 DUP6 DUP5 PUSH1 0xFF AND DUP2 MLOAD DUP2 LT PUSH2 0x23F0 JUMPI PUSH2 0x23EF PUSH2 0x486C JUMP JUMPDEST JUMPDEST PUSH1 0x20 MUL PUSH1 0x20 ADD ADD MLOAD PUSH2 0x2402 SWAP2 SWAP1 PUSH2 0x4418 JUMP JUMPDEST PUSH2 0x240C SWAP2 SWAP1 PUSH2 0x420C JUMP JUMPDEST PUSH2 0x2416 SWAP2 SWAP1 PUSH2 0x420C JUMP JUMPDEST DUP4 DUP3 PUSH1 0xFF AND DUP2 MLOAD DUP2 LT PUSH2 0x242C JUMPI PUSH2 0x242B PUSH2 0x486C JUMP JUMPDEST JUMPDEST PUSH1 0x20 MUL PUSH1 0x20 ADD ADD DUP2 DUP2 MSTORE POP POP PUSH2 0x25C4 JUMP JUMPDEST PUSH2 0x2467 DUP13 DUP7 PUSH1 0xFF AND DUP2 MLOAD DUP2 LT PUSH2 0x2456 JUMPI PUSH2 0x2455 PUSH2 0x486C JUMP JUMPDEST JUMPDEST PUSH1 0x20 MUL PUSH1 0x20 ADD ADD MLOAD PUSH1 0xC0 ADD MLOAD PUSH2 0x3414 JUMP JUMPDEST DUP4 DUP3 PUSH1 0xFF AND DUP2 MLOAD DUP2 LT PUSH2 0x247D JUMPI PUSH2 0x247C PUSH2 0x486C JUMP JUMPDEST JUMPDEST PUSH1 0x20 MUL PUSH1 0x20 ADD ADD DUP2 DUP2 MSTORE POP POP DUP3 DUP2 PUSH1 0xFF AND DUP2 MLOAD DUP2 LT PUSH2 0x249F JUMPI PUSH2 0x249E PUSH2 0x486C JUMP JUMPDEST JUMPDEST PUSH1 0x20 MUL PUSH1 0x20 ADD ADD MLOAD DUP13 DUP6 PUSH1 0xFF AND DUP2 MLOAD DUP2 LT PUSH2 0x24BD JUMPI PUSH2 0x24BC PUSH2 0x486C JUMP JUMPDEST JUMPDEST PUSH1 0x20 MUL PUSH1 0x20 ADD ADD MLOAD PUSH1 0xC0 ADD DUP2 DUP2 MLOAD PUSH2 0x24D5 SWAP2 SWAP1 PUSH2 0x40EB JUMP JUMPDEST SWAP2 POP DUP2 DUP2 MSTORE POP POP PUSH1 0x0 DUP13 DUP7 PUSH1 0xFF AND DUP2 MLOAD DUP2 LT PUSH2 0x24F4 JUMPI PUSH2 0x24F3 PUSH2 0x486C JUMP JUMPDEST JUMPDEST PUSH1 0x20 MUL PUSH1 0x20 ADD ADD MLOAD PUSH1 0xC0 ADD DUP2 DUP2 MSTORE POP POP DUP12 DUP6 PUSH1 0xFF AND DUP2 MLOAD DUP2 LT PUSH2 0x251A JUMPI PUSH2 0x2519 PUSH2 0x486C JUMP JUMPDEST JUMPDEST PUSH1 0x20 MUL PUSH1 0x20 ADD ADD MLOAD PUSH1 0x60 ADD MLOAD PUSH1 0x12 PUSH2 0x2532 SWAP2 SWAP1 PUSH2 0x4658 JUMP JUMPDEST PUSH1 0xA PUSH2 0x253E SWAP2 SWAP1 PUSH2 0x42FA JUMP JUMPDEST DUP13 DUP7 PUSH1 0xFF AND DUP2 MLOAD DUP2 LT PUSH2 0x2554 JUMPI PUSH2 0x2553 PUSH2 0x486C JUMP JUMPDEST JUMPDEST PUSH1 0x20 MUL PUSH1 0x20 ADD ADD MLOAD PUSH1 0xE0 ADD MLOAD PUSH4 0x5F5E100 DUP6 DUP5 PUSH1 0xFF AND DUP2 MLOAD DUP2 LT PUSH2 0x257B JUMPI PUSH2 0x257A PUSH2 0x486C JUMP JUMPDEST JUMPDEST PUSH1 0x20 MUL PUSH1 0x20 ADD ADD MLOAD PUSH2 0x258D SWAP2 SWAP1 PUSH2 0x4418 JUMP JUMPDEST PUSH2 0x2597 SWAP2 SWAP1 PUSH2 0x420C JUMP JUMPDEST PUSH2 0x25A1 SWAP2 SWAP1 PUSH2 0x420C JUMP JUMPDEST DUP4 DUP3 PUSH1 0xFF AND DUP2 MLOAD DUP2 LT PUSH2 0x25B7 JUMPI PUSH2 0x25B6 PUSH2 0x486C JUMP JUMPDEST JUMPDEST PUSH1 0x20 MUL PUSH1 0x20 ADD ADD DUP2 DUP2 MSTORE POP POP JUMPDEST DUP12 DUP6 PUSH1 0xFF AND DUP2 MLOAD DUP2 LT PUSH2 0x25DA JUMPI PUSH2 0x25D9 PUSH2 0x486C JUMP JUMPDEST JUMPDEST PUSH1 0x20 MUL PUSH1 0x20 ADD ADD MLOAD PUSH1 0x20 ADD MLOAD DUP3 DUP3 PUSH1 0x2 PUSH2 0x25F4 SWAP2 SWAP1 PUSH2 0x4589 JUMP JUMPDEST PUSH1 0xFF AND DUP2 MLOAD DUP2 LT PUSH2 0x2608 JUMPI PUSH2 0x2607 PUSH2 0x486C JUMP JUMPDEST JUMPDEST PUSH1 0x20 MUL PUSH1 0x20 ADD ADD SWAP1 PUSH20 0xFFFFFFFFFFFFFFFFFFFFFFFFFFFFFFFFFFFFFFFF AND SWAP1 DUP2 PUSH20 0xFFFFFFFFFFFFFFFFFFFFFFFFFFFFFFFFFFFFFFFF AND DUP2 MSTORE POP POP DUP12 DUP5 PUSH1 0xFF AND DUP2 MLOAD DUP2 LT PUSH2 0x2658 JUMPI PUSH2 0x2657 PUSH2 0x486C JUMP JUMPDEST JUMPDEST PUSH1 0x20 MUL PUSH1 0x20 ADD ADD MLOAD PUSH1 0x20 ADD MLOAD DUP3 PUSH1 0x1 DUP4 PUSH1 0x2 PUSH2 0x2674 SWAP2 SWAP1 PUSH2 0x4589 JUMP JUMPDEST PUSH2 0x267E SWAP2 SWAP1 PUSH2 0x41D5 JUMP JUMPDEST PUSH1 0xFF AND DUP2 MLOAD DUP2 LT PUSH2 0x2692 JUMPI PUSH2 0x2691 PUSH2 0x486C JUMP JUMPDEST JUMPDEST PUSH1 0x20 MUL PUSH1 0x20 ADD ADD SWAP1 PUSH20 0xFFFFFFFFFFFFFFFFFFFFFFFFFFFFFFFFFFFFFFFF AND SWAP1 DUP2 PUSH20 0xFFFFFFFFFFFFFFFFFFFFFFFFFFFFFFFFFFFFFFFF AND DUP2 MSTORE POP POP DUP1 DUP1 PUSH2 0x26D7 SWAP1 PUSH2 0x479B JUMP JUMPDEST SWAP2 POP POP PUSH2 0x20E1 JUMP JUMPDEST POP DUP1 DUP3 PUSH1 0x40 MLOAD PUSH1 0x20 ADD PUSH2 0x26F3 SWAP3 SWAP2 SWAP1 PUSH2 0x3E9D JUMP JUMPDEST PUSH1 0x40 MLOAD PUSH1 0x20 DUP2 DUP4 SUB SUB DUP2 MSTORE SWAP1 PUSH1 0x40 MSTORE SWAP12 POP POP POP POP POP POP POP POP POP POP POP POP SWAP3 POP SWAP3 SWAP1 POP JUMP JUMPDEST PUSH20 0xF9680D99D6C9589E2A93A78A04A279E509205945 DUP2 JUMP JUMPDEST PUSH1 0x0 DUP3 DUP3 DUP9 PUSH2 0x273D SWAP2 SWAP1 PUSH2 0x452F JUMP JUMPDEST PUSH2 0x2747 SWAP2 SWAP1 PUSH2 0x4276 JUMP JUMPDEST SWAP1 POP PUSH1 0x0 DUP4 DUP4 DUP9 PUSH2 0x2758 SWAP2 SWAP1 PUSH2 0x452F JUMP JUMPDEST PUSH2 0x2762 SWAP2 SWAP1 PUSH2 0x4276 JUMP JUMPDEST SWAP1 POP PUSH1 0x0 DUP5 DUP5 DUP9 PUSH2 0x2773 SWAP2 SWAP1 PUSH2 0x452F JUMP JUMPDEST PUSH2 0x277D SWAP2 SWAP1 PUSH2 0x4276 JUMP JUMPDEST SWAP1 POP PUSH1 0x0 DUP6 DUP6 DUP9 PUSH2 0x278E SWAP2 SWAP1 PUSH2 0x452F JUMP JUMPDEST PUSH2 0x2798 SWAP2 SWAP1 PUSH2 0x4276 JUMP JUMPDEST SWAP1 POP PUSH2 0x2832 DUP5 PUSH1 0x0 DUP1 DUP1 SLOAD DUP1 PUSH1 0x20 MUL PUSH1 0x20 ADD PUSH1 0x40 MLOAD SWAP1 DUP2 ADD PUSH1 0x40 MSTORE DUP1 SWAP3 SWAP2 SWAP1 DUP2 DUP2 MSTORE PUSH1 0x20 ADD DUP3 DUP1 SLOAD DUP1 ISZERO PUSH2 0x2821 JUMPI PUSH1 0x20 MUL DUP3 ADD SWAP2 SWAP1 PUSH1 0x0 MSTORE PUSH1 0x20 PUSH1 0x0 KECCAK256 SWAP1 JUMPDEST DUP2 PUSH1 0x0 SWAP1 SLOAD SWAP1 PUSH2 0x100 EXP SWAP1 DIV PUSH20 0xFFFFFFFFFFFFFFFFFFFFFFFFFFFFFFFFFFFFFFFF AND PUSH20 0xFFFFFFFFFFFFFFFFFFFFFFFFFFFFFFFFFFFFFFFF AND DUP2 MSTORE PUSH1 0x20 ADD SWAP1 PUSH1 0x1 ADD SWAP1 DUP1 DUP4 GT PUSH2 0x27D7 JUMPI JUMPDEST POP POP POP POP POP ADDRESS PUSH5 0x174876E7FF PUSH2 0x2CB7 JUMP JUMPDEST PUSH2 0x28CB DUP4 PUSH1 0x0 PUSH1 0x1 DUP1 SLOAD DUP1 PUSH1 0x20 MUL PUSH1 0x20 ADD PUSH1 0x40 MLOAD SWAP1 DUP2 ADD PUSH1 0x40 MSTORE DUP1 SWAP3 SWAP2 SWAP1 DUP2 DUP2 MSTORE PUSH1 0x20 ADD DUP3 DUP1 SLOAD DUP1 ISZERO PUSH2 0x28BA JUMPI PUSH1 0x20 MUL DUP3 ADD SWAP2 SWAP1 PUSH1 0x0 MSTORE PUSH1 0x20 PUSH1 0x0 KECCAK256 SWAP1 JUMPDEST DUP2 PUSH1 0x0 SWAP1 SLOAD SWAP1 PUSH2 0x100 EXP SWAP1 DIV PUSH20 0xFFFFFFFFFFFFFFFFFFFFFFFFFFFFFFFFFFFFFFFF AND PUSH20 0xFFFFFFFFFFFFFFFFFFFFFFFFFFFFFFFFFFFFFFFF AND DUP2 MSTORE PUSH1 0x20 ADD SWAP1 PUSH1 0x1 ADD SWAP1 DUP1 DUP4 GT PUSH2 0x2870 JUMPI JUMPDEST POP POP POP POP POP ADDRESS PUSH5 0x174876E7FF PUSH2 0x2CB7 JUMP JUMPDEST PUSH2 0x2964 DUP3 PUSH1 0x0 PUSH1 0x2 DUP1 SLOAD DUP1 PUSH1 0x20 MUL PUSH1 0x20 ADD PUSH1 0x40 MLOAD SWAP1 DUP2 ADD PUSH1 0x40 MSTORE DUP1 SWAP3 SWAP2 SWAP1 DUP2 DUP2 MSTORE PUSH1 0x20 ADD DUP3 DUP1 SLOAD DUP1 ISZERO PUSH2 0x2953 JUMPI PUSH1 0x20 MUL DUP3 ADD SWAP2 SWAP1 PUSH1 0x0 MSTORE PUSH1 0x20 PUSH1 0x0 KECCAK256 SWAP1 JUMPDEST DUP2 PUSH1 0x0 SWAP1 SLOAD SWAP1 PUSH2 0x100 EXP SWAP1 DIV PUSH20 0xFFFFFFFFFFFFFFFFFFFFFFFFFFFFFFFFFFFFFFFF AND PUSH20 0xFFFFFFFFFFFFFFFFFFFFFFFFFFFFFFFFFFFFFFFF AND DUP2 MSTORE PUSH1 0x20 ADD SWAP1 PUSH1 0x1 ADD SWAP1 DUP1 DUP4 GT PUSH2 0x2909 JUMPI JUMPDEST POP POP POP POP POP ADDRESS PUSH5 0x174876E7FF PUSH2 0x2CB7 JUMP JUMPDEST PUSH2 0x29FD DUP2 PUSH1 0x0 PUSH1 0x3 DUP1 SLOAD DUP1 PUSH1 0x20 MUL PUSH1 0x20 ADD PUSH1 0x40 MLOAD SWAP1 DUP2 ADD PUSH1 0x40 MSTORE DUP1 SWAP3 SWAP2 SWAP1 DUP2 DUP2 MSTORE PUSH1 0x20 ADD DUP3 DUP1 SLOAD DUP1 ISZERO PUSH2 0x29EC JUMPI PUSH1 0x20 MUL DUP3 ADD SWAP2 SWAP1 PUSH1 0x0 MSTORE PUSH1 0x20 PUSH1 0x0 KECCAK256 SWAP1 JUMPDEST DUP2 PUSH1 0x0 SWAP1 SLOAD SWAP1 PUSH2 0x100 EXP SWAP1 DIV PUSH20 0xFFFFFFFFFFFFFFFFFFFFFFFFFFFFFFFFFFFFFFFF AND PUSH20 0xFFFFFFFFFFFFFFFFFFFFFFFFFFFFFFFFFFFFFFFF AND DUP2 MSTORE PUSH1 0x20 ADD SWAP1 PUSH1 0x1 ADD SWAP1 DUP1 DUP4 GT PUSH2 0x29A2 JUMPI JUMPDEST POP POP POP POP POP ADDRESS PUSH5 0x174876E7FF PUSH2 0x2CB7 JUMP JUMPDEST POP POP POP POP POP POP POP POP POP POP JUMP JUMPDEST PUSH2 0x2AAD PUSH1 0x4 DUP3 PUSH2 0x2A19 SWAP2 SWAP1 PUSH2 0x4276 JUMP JUMPDEST PUSH1 0x0 DUP1 DUP1 SLOAD DUP1 PUSH1 0x20 MUL PUSH1 0x20 ADD PUSH1 0x40 MLOAD SWAP1 DUP2 ADD PUSH1 0x40 MSTORE DUP1 SWAP3 SWAP2 SWAP1 DUP2 DUP2 MSTORE PUSH1 0x20 ADD DUP3 DUP1 SLOAD DUP1 ISZERO PUSH2 0x2A9C JUMPI PUSH1 0x20 MUL DUP3 ADD SWAP2 SWAP1 PUSH1 0x0 MSTORE PUSH1 0x20 PUSH1 0x0 KECCAK256 SWAP1 JUMPDEST DUP2 PUSH1 0x0 SWAP1 SLOAD SWAP1 PUSH2 0x100 EXP SWAP1 DIV PUSH20 0xFFFFFFFFFFFFFFFFFFFFFFFFFFFFFFFFFFFFFFFF AND PUSH20 0xFFFFFFFFFFFFFFFFFFFFFFFFFFFFFFFFFFFFFFFF AND DUP2 MSTORE PUSH1 0x20 ADD SWAP1 PUSH1 0x1 ADD SWAP1 DUP1 DUP4 GT PUSH2 0x2A52 JUMPI JUMPDEST POP POP POP POP POP ADDRESS PUSH5 0x174876E7FF PUSH2 0x2CB7 JUMP JUMPDEST PUSH2 0x2B52 PUSH1 0x4 DUP3 PUSH2 0x2ABD SWAP2 SWAP1 PUSH2 0x4276 JUMP JUMPDEST PUSH1 0x0 PUSH1 0x1 DUP1 SLOAD DUP1 PUSH1 0x20 MUL PUSH1 0x20 ADD PUSH1 0x40 MLOAD SWAP1 DUP2 ADD PUSH1 0x40 MSTORE DUP1 SWAP3 SWAP2 SWAP1 DUP2 DUP2 MSTORE PUSH1 0x20 ADD DUP3 DUP1 SLOAD DUP1 ISZERO PUSH2 0x2B41 JUMPI PUSH1 0x20 MUL DUP3 ADD SWAP2 SWAP1 PUSH1 0x0 MSTORE PUSH1 0x20 PUSH1 0x0 KECCAK256 SWAP1 JUMPDEST DUP2 PUSH1 0x0 SWAP1 SLOAD SWAP1 PUSH2 0x100 EXP SWAP1 DIV PUSH20 0xFFFFFFFFFFFFFFFFFFFFFFFFFFFFFFFFFFFFFFFF AND PUSH20 0xFFFFFFFFFFFFFFFFFFFFFFFFFFFFFFFFFFFFFFFF AND DUP2 MSTORE PUSH1 0x20 ADD SWAP1 PUSH1 0x1 ADD SWAP1 DUP1 DUP4 GT PUSH2 0x2AF7 JUMPI JUMPDEST POP POP POP POP POP ADDRESS PUSH5 0x174876E7FF PUSH2 0x2CB7 JUMP JUMPDEST PUSH2 0x2BF7 PUSH1 0x4 DUP3 PUSH2 0x2B62 SWAP2 SWAP1 PUSH2 0x4276 JUMP JUMPDEST PUSH1 0x0 PUSH1 0x2 DUP1 SLOAD DUP1 PUSH1 0x20 MUL PUSH1 0x20 ADD PUSH1 0x40 MLOAD SWAP1 DUP2 ADD PUSH1 0x40 MSTORE DUP1 SWAP3 SWAP2 SWAP1 DUP2 DUP2 MSTORE PUSH1 0x20 ADD DUP3 DUP1 SLOAD DUP1 ISZERO PUSH2 0x2BE6 JUMPI PUSH1 0x20 MUL DUP3 ADD SWAP2 SWAP1 PUSH1 0x0 MSTORE PUSH1 0x20 PUSH1 0x0 KECCAK256 SWAP1 JUMPDEST DUP2 PUSH1 0x0 SWAP1 SLOAD SWAP1 PUSH2 0x100 EXP SWAP1 DIV PUSH20 0xFFFFFFFFFFFFFFFFFFFFFFFFFFFFFFFFFFFFFFFF AND PUSH20 0xFFFFFFFFFFFFFFFFFFFFFFFFFFFFFFFFFFFFFFFF AND DUP2 MSTORE PUSH1 0x20 ADD SWAP1 PUSH1 0x1 ADD SWAP1 DUP1 DUP4 GT PUSH2 0x2B9C JUMPI JUMPDEST POP POP POP POP POP ADDRESS PUSH5 0x174876E7FF PUSH2 0x2CB7 JUMP JUMPDEST PUSH2 0x2C9C PUSH1 0x4 DUP3 PUSH2 0x2C07 SWAP2 SWAP1 PUSH2 0x4276 JUMP JUMPDEST PUSH1 0x0 PUSH1 0x3 DUP1 SLOAD DUP1 PUSH1 0x20 MUL PUSH1 0x20 ADD PUSH1 0x40 MLOAD SWAP1 DUP2 ADD PUSH1 0x40 MSTORE DUP1 SWAP3 SWAP2 SWAP1 DUP2 DUP2 MSTORE PUSH1 0x20 ADD DUP3 DUP1 SLOAD DUP1 ISZERO PUSH2 0x2C8B JUMPI PUSH1 0x20 MUL DUP3 ADD SWAP2 SWAP1 PUSH1 0x0 MSTORE PUSH1 0x20 PUSH1 0x0 KECCAK256 SWAP1 JUMPDEST DUP2 PUSH1 0x0 SWAP1 SLOAD SWAP1 PUSH2 0x100 EXP SWAP1 DIV PUSH20 0xFFFFFFFFFFFFFFFFFFFFFFFFFFFFFFFFFFFFFFFF AND PUSH20 0xFFFFFFFFFFFFFFFFFFFFFFFFFFFFFFFFFFFFFFFF AND DUP2 MSTORE PUSH1 0x20 ADD SWAP1 PUSH1 0x1 ADD SWAP1 DUP1 DUP4 GT PUSH2 0x2C41 JUMPI JUMPDEST POP POP POP POP POP ADDRESS PUSH5 0x174876E7FF PUSH2 0x2CB7 JUMP JUMPDEST POP JUMP JUMPDEST PUSH20 0xAB594600376EC9FD91F8E885DADF0CE036862DE0 DUP2 JUMP JUMPDEST PUSH1 0xC PUSH1 0x0 SWAP1 SLOAD SWAP1 PUSH2 0x100 EXP SWAP1 DIV PUSH20 0xFFFFFFFFFFFFFFFFFFFFFFFFFFFFFFFFFFFFFFFF AND PUSH20 0xFFFFFFFFFFFFFFFFFFFFFFFFFFFFFFFFFFFFFFFF AND PUSH4 0x38ED1739 DUP7 DUP7 DUP7 DUP7 DUP7 PUSH1 0x40 MLOAD DUP7 PUSH4 0xFFFFFFFF AND PUSH1 0xE0 SHL DUP2 MSTORE PUSH1 0x4 ADD PUSH2 0x2D1A SWAP6 SWAP5 SWAP4 SWAP3 SWAP2 SWAP1 PUSH2 0x3F75 JUMP JUMPDEST PUSH1 0x0 PUSH1 0x40 MLOAD DUP1 DUP4 SUB DUP2 PUSH1 0x0 DUP8 DUP1 EXTCODESIZE ISZERO DUP1 ISZERO PUSH2 0x2D34 JUMPI PUSH1 0x0 DUP1 REVERT JUMPDEST POP GAS CALL ISZERO DUP1 ISZERO PUSH2 0x2D48 JUMPI RETURNDATASIZE PUSH1 0x0 DUP1 RETURNDATACOPY RETURNDATASIZE PUSH1 0x0 REVERT JUMPDEST POP POP POP POP PUSH1 0x40 MLOAD RETURNDATASIZE PUSH1 0x0 DUP3 RETURNDATACOPY RETURNDATASIZE PUSH1 0x1F NOT PUSH1 0x1F DUP3 ADD AND DUP3 ADD DUP1 PUSH1 0x40 MSTORE POP DUP2 ADD SWAP1 PUSH2 0x2D71 SWAP2 SWAP1 PUSH2 0x3935 JUMP JUMPDEST POP POP POP POP POP POP JUMP JUMPDEST PUSH1 0xA SLOAD DUP2 JUMP JUMPDEST PUSH1 0x3 DUP2 DUP2 SLOAD DUP2 LT PUSH2 0x2D8F JUMPI PUSH1 0x0 DUP1 REVERT JUMPDEST SWAP1 PUSH1 0x0 MSTORE PUSH1 0x20 PUSH1 0x0 KECCAK256 ADD PUSH1 0x0 SWAP2 POP SLOAD SWAP1 PUSH2 0x100 EXP SWAP1 DIV PUSH20 0xFFFFFFFFFFFFFFFFFFFFFFFFFFFFFFFFFFFFFFFF AND DUP2 JUMP JUMPDEST PUSH1 0x5 DUP2 DUP2 SLOAD DUP2 LT PUSH2 0x2DCE JUMPI PUSH1 0x0 DUP1 REVERT JUMPDEST SWAP1 PUSH1 0x0 MSTORE PUSH1 0x20 PUSH1 0x0 KECCAK256 ADD PUSH1 0x0 SWAP2 POP SLOAD SWAP1 PUSH2 0x100 EXP SWAP1 DIV PUSH20 0xFFFFFFFFFFFFFFFFFFFFFFFFFFFFFFFFFFFFFFFF AND DUP2 JUMP JUMPDEST PUSH1 0x0 DUP3 PUSH20 0xFFFFFFFFFFFFFFFFFFFFFFFFFFFFFFFFFFFFFFFF AND PUSH4 0x70A08231 ADDRESS PUSH1 0x40 MLOAD DUP3 PUSH4 0xFFFFFFFF AND PUSH1 0xE0 SHL DUP2 MSTORE PUSH1 0x4 ADD PUSH2 0x2E38 SWAP2 SWAP1 PUSH2 0x3E22 JUMP JUMPDEST PUSH1 0x20 PUSH1 0x40 MLOAD DUP1 DUP4 SUB DUP2 DUP7 DUP1 EXTCODESIZE ISZERO DUP1 ISZERO PUSH2 0x2E50 JUMPI PUSH1 0x0 DUP1 REVERT JUMPDEST POP GAS STATICCALL ISZERO DUP1 ISZERO PUSH2 0x2E64 JUMPI RETURNDATASIZE PUSH1 0x0 DUP1 RETURNDATACOPY RETURNDATASIZE PUSH1 0x0 REVERT JUMPDEST POP POP POP POP PUSH1 0x40 MLOAD RETURNDATASIZE PUSH1 0x1F NOT PUSH1 0x1F DUP3 ADD AND DUP3 ADD DUP1 PUSH1 0x40 MSTORE POP DUP2 ADD SWAP1 PUSH2 0x2E88 SWAP2 SWAP1 PUSH2 0x3A25 JUMP JUMPDEST SWAP1 POP PUSH2 0x2E95 DUP4 DUP4 DUP4 PUSH2 0xF61 JUMP JUMPDEST POP POP POP JUMP JUMPDEST PUSH1 0x0 DUP3 SWAP1 POP DUP1 PUSH20 0xFFFFFFFFFFFFFFFFFFFFFFFFFFFFFFFFFFFFFFFF AND PUSH4 0xA9059CBB DUP4 DUP7 PUSH1 0x40 MLOAD DUP4 PUSH4 0xFFFFFFFF AND PUSH1 0xE0 SHL DUP2 MSTORE PUSH1 0x4 ADD PUSH2 0x2EDA SWAP3 SWAP2 SWAP1 PUSH2 0x3E74 JUMP JUMPDEST PUSH1 0x20 PUSH1 0x40 MLOAD DUP1 DUP4 SUB DUP2 PUSH1 0x0 DUP8 DUP1 EXTCODESIZE ISZERO DUP1 ISZERO PUSH2 0x2EF4 JUMPI PUSH1 0x0 DUP1 REVERT JUMPDEST POP GAS CALL ISZERO DUP1 ISZERO PUSH2 0x2F08 JUMPI RETURNDATASIZE PUSH1 0x0 DUP1 RETURNDATACOPY RETURNDATASIZE PUSH1 0x0 REVERT JUMPDEST POP POP POP POP PUSH1 0x40 MLOAD RETURNDATASIZE PUSH1 0x1F NOT PUSH1 0x1F DUP3 ADD AND DUP3 ADD DUP1 PUSH1 0x40 MSTORE POP DUP2 ADD SWAP1 PUSH2 0x2F2C SWAP2 SWAP1 PUSH2 0x397E JUMP JUMPDEST POP POP POP POP POP JUMP JUMPDEST PUSH20 0xC907E116054AD103354F2D350FD2514433D57F6F DUP2 JUMP JUMPDEST PUSH1 0x0 PUSH1 0xB PUSH1 0x0 DUP4 PUSH20 0xFFFFFFFFFFFFFFFFFFFFFFFFFFFFFFFFFFFFFFFF AND PUSH20 0xFFFFFFFFFFFFFFFFFFFFFFFFFFFFFFFFFFFFFFFF AND DUP2 MSTORE PUSH1 0x20 ADD SWAP1 DUP2 MSTORE PUSH1 0x20 ADD PUSH1 0x0 KECCAK256 SLOAD SWAP1 POP SWAP2 SWAP1 POP JUMP JUMPDEST PUSH20 0x2791BCA1F2DE4661ED88A30C99A7A9449AA84174 DUP2 JUMP JUMPDEST PUSH20 0x1BFD67037B42CF73ACF2047067BD4F2C47D9BFD6 DUP2 JUMP JUMPDEST PUSH1 0x8 SLOAD DUP2 JUMP JUMPDEST PUSH20 0x2791BCA1F2DE4661ED88A30C99A7A9449AA84174 PUSH20 0xFFFFFFFFFFFFFFFFFFFFFFFFFFFFFFFFFFFFFFFF AND PUSH4 0x23B872DD CALLER ADDRESS DUP5 PUSH1 0x40 MLOAD DUP5 PUSH4 0xFFFFFFFF AND PUSH1 0xE0 SHL DUP2 MSTORE PUSH1 0x4 ADD PUSH2 0x301B SWAP4 SWAP3 SWAP2 SWAP1 PUSH2 0x3E3D JUMP JUMPDEST PUSH1 0x20 PUSH1 0x40 MLOAD DUP1 DUP4 SUB DUP2 PUSH1 0x0 DUP8 DUP1 EXTCODESIZE ISZERO DUP1 ISZERO PUSH2 0x3035 JUMPI PUSH1 0x0 DUP1 REVERT JUMPDEST POP GAS CALL ISZERO DUP1 ISZERO PUSH2 0x3049 JUMPI RETURNDATASIZE PUSH1 0x0 DUP1 RETURNDATACOPY RETURNDATASIZE PUSH1 0x0 REVERT JUMPDEST POP POP POP POP PUSH1 0x40 MLOAD RETURNDATASIZE PUSH1 0x1F NOT PUSH1 0x1F DUP3 ADD AND DUP3 ADD DUP1 PUSH1 0x40 MSTORE POP DUP2 ADD SWAP1 PUSH2 0x306D SWAP2 SWAP1 PUSH2 0x397E JUMP JUMPDEST POP PUSH1 0x0 PUSH2 0x30A4 PUSH20 0xD500B1D8E8EF31E21C99D1DB9A6444D3ADF1270 PUSH20 0xAB594600376EC9FD91F8E885DADF0CE036862DE0 PUSH1 0x12 PUSH2 0x17E0 JUMP JUMPDEST SWAP1 POP PUSH1 0x0 PUSH2 0x30DC PUSH20 0xBBBA073C31BF03B8ACF7C28EF0738DECF3695683 PUSH20 0x3D49406EDD4D52FB7FFD25485F32E073B529C924 PUSH1 0x12 PUSH2 0x17E0 JUMP JUMPDEST SWAP1 POP PUSH1 0x0 PUSH2 0x3114 PUSH20 0x7CEB23FD6BC0ADD59E62AC25578270CFF1B9F619 PUSH20 0xF9680D99D6C9589E2A93A78A04A279E509205945 PUSH1 0x12 PUSH2 0x17E0 JUMP JUMPDEST SWAP1 POP PUSH1 0x0 PUSH2 0x314C PUSH20 0x1BFD67037B42CF73ACF2047067BD4F2C47D9BFD6 PUSH20 0xC907E116054AD103354F2D350FD2514433D57F6F PUSH1 0x8 PUSH2 0x17E0 JUMP JUMPDEST SWAP1 POP PUSH1 0x0 DUP2 DUP4 DUP6 DUP8 PUSH2 0x315E SWAP2 SWAP1 PUSH2 0x417F JUMP JUMPDEST PUSH2 0x3168 SWAP2 SWAP1 PUSH2 0x417F JUMP JUMPDEST PUSH2 0x3172 SWAP2 SWAP1 PUSH2 0x417F JUMP JUMPDEST SWAP1 POP PUSH2 0x31A7 PUSH20 0x2791BCA1F2DE4661ED88A30C99A7A9449AA84174 PUSH20 0xA5E0829CACED8FFDD4DE3C43696C57F7D7A678FF DUP9 PUSH2 0xF61 JUMP JUMPDEST PUSH1 0x0 DUP2 GT ISZERO PUSH2 0x31C3 JUMPI PUSH2 0x31BE DUP6 DUP6 DUP6 DUP6 DUP6 DUP12 PUSH2 0x272E JUMP JUMPDEST PUSH2 0x31CD JUMP JUMPDEST PUSH2 0x31CC DUP7 PUSH2 0x2A09 JUMP JUMPDEST JUMPDEST PUSH1 0x0 DUP2 GT ISZERO PUSH2 0x31E6 JUMPI PUSH2 0x31E1 CALLER DUP3 DUP9 PUSH2 0x1012 JUMP JUMPDEST PUSH2 0x31F0 JUMP JUMPDEST PUSH2 0x31EF CALLER PUSH2 0x182B JUMP JUMPDEST JUMPDEST POP POP POP POP POP POP JUMP JUMPDEST PUSH1 0x7 DUP2 DUP2 SLOAD DUP2 LT PUSH2 0x3208 JUMPI PUSH1 0x0 DUP1 REVERT JUMPDEST SWAP1 PUSH1 0x0 MSTORE PUSH1 0x20 PUSH1 0x0 KECCAK256 ADD PUSH1 0x0 SWAP2 POP SLOAD SWAP1 PUSH2 0x100 EXP SWAP1 DIV PUSH20 0xFFFFFFFFFFFFFFFFFFFFFFFFFFFFFFFFFFFFFFFF AND DUP2 JUMP JUMPDEST PUSH1 0x2 DUP2 DUP2 SLOAD DUP2 LT PUSH2 0x3247 JUMPI PUSH1 0x0 DUP1 REVERT JUMPDEST SWAP1 PUSH1 0x0 MSTORE PUSH1 0x20 PUSH1 0x0 KECCAK256 ADD PUSH1 0x0 SWAP2 POP SLOAD SWAP1 PUSH2 0x100 EXP SWAP1 DIV PUSH20 0xFFFFFFFFFFFFFFFFFFFFFFFFFFFFFFFFFFFFFFFF AND DUP2 JUMP JUMPDEST PUSH20 0x3D49406EDD4D52FB7FFD25485F32E073B529C924 DUP2 JUMP JUMPDEST PUSH1 0x0 PUSH1 0x2 PUSH8 0xFFFFFFFFFFFFFFFF DUP2 GT ISZERO PUSH2 0x32AB JUMPI PUSH2 0x32AA PUSH2 0x489B JUMP JUMPDEST JUMPDEST PUSH1 0x40 MLOAD SWAP1 DUP1 DUP3 MSTORE DUP1 PUSH1 0x20 MUL PUSH1 0x20 ADD DUP3 ADD PUSH1 0x40 MSTORE DUP1 ISZERO PUSH2 0x32D9 JUMPI DUP2 PUSH1 0x20 ADD PUSH1 0x20 DUP3 MUL DUP1 CALLDATASIZE DUP4 CALLDATACOPY DUP1 DUP3 ADD SWAP2 POP POP SWAP1 POP JUMPDEST POP SWAP1 POP DUP3 DUP2 PUSH1 0x0 DUP2 MLOAD DUP2 LT PUSH2 0x32F1 JUMPI PUSH2 0x32F0 PUSH2 0x486C JUMP JUMPDEST JUMPDEST PUSH1 0x20 MUL PUSH1 0x20 ADD ADD SWAP1 PUSH20 0xFFFFFFFFFFFFFFFFFFFFFFFFFFFFFFFFFFFFFFFF AND SWAP1 DUP2 PUSH20 0xFFFFFFFFFFFFFFFFFFFFFFFFFFFFFFFFFFFFFFFF AND DUP2 MSTORE POP POP PUSH20 0x2791BCA1F2DE4661ED88A30C99A7A9449AA84174 DUP2 PUSH1 0x1 DUP2 MLOAD DUP2 LT PUSH2 0x3354 JUMPI PUSH2 0x3353 PUSH2 0x486C JUMP JUMPDEST JUMPDEST PUSH1 0x20 MUL PUSH1 0x20 ADD ADD SWAP1 PUSH20 0xFFFFFFFFFFFFFFFFFFFFFFFFFFFFFFFFFFFFFFFF AND SWAP1 DUP2 PUSH20 0xFFFFFFFFFFFFFFFFFFFFFFFFFFFFFFFFFFFFFFFF AND DUP2 MSTORE POP POP PUSH2 0x33A1 DUP3 PUSH1 0x0 DUP4 ADDRESS PUSH5 0x174876E7FF PUSH2 0x2CB7 JUMP JUMPDEST POP POP POP JUMP JUMPDEST PUSH20 0xA5E0829CACED8FFDD4DE3C43696C57F7D7A678FF DUP2 JUMP JUMPDEST PUSH1 0xC PUSH1 0x0 SWAP1 SLOAD SWAP1 PUSH2 0x100 EXP SWAP1 DIV PUSH20 0xFFFFFFFFFFFFFFFFFFFFFFFFFFFFFFFFFFFFFFFF AND DUP2 JUMP JUMPDEST PUSH20 0xD500B1D8E8EF31E21C99D1DB9A6444D3ADF1270 DUP2 JUMP JUMPDEST PUSH1 0xB PUSH1 0x20 MSTORE DUP1 PUSH1 0x0 MSTORE PUSH1 0x40 PUSH1 0x0 KECCAK256 PUSH1 0x0 SWAP2 POP SWAP1 POP SLOAD DUP2 JUMP JUMPDEST PUSH1 0x0 DUP1 DUP3 SLT ISZERO PUSH2 0x342D JUMPI DUP2 PUSH2 0x3428 SWAP1 PUSH2 0x47C5 JUMP JUMPDEST PUSH2 0x342F JUMP JUMPDEST DUP2 JUMPDEST SWAP1 POP SWAP2 SWAP1 POP JUMP JUMPDEST PUSH1 0x40 MLOAD DUP1 PUSH2 0x100 ADD PUSH1 0x40 MSTORE DUP1 PUSH1 0x60 DUP2 MSTORE PUSH1 0x20 ADD PUSH1 0x0 PUSH20 0xFFFFFFFFFFFFFFFFFFFFFFFFFFFFFFFFFFFFFFFF AND DUP2 MSTORE PUSH1 0x20 ADD PUSH1 0x0 PUSH20 0xFFFFFFFFFFFFFFFFFFFFFFFFFFFFFFFFFFFFFFFF AND DUP2 MSTORE PUSH1 0x20 ADD PUSH1 0x0 DUP2 MSTORE PUSH1 0x20 ADD PUSH1 0x0 DUP2 MSTORE PUSH1 0x20 ADD PUSH1 0x0 DUP2 MSTORE PUSH1 0x20 ADD PUSH1 0x0 DUP2 MSTORE PUSH1 0x20 ADD PUSH1 0x0 DUP2 MSTORE POP SWAP1 JUMP JUMPDEST PUSH1 0x0 PUSH2 0x34BA PUSH2 0x34B5 DUP5 PUSH2 0x3FF4 JUMP JUMPDEST PUSH2 0x3FCF JUMP JUMPDEST SWAP1 POP DUP1 DUP4 DUP3 MSTORE PUSH1 0x20 DUP3 ADD SWAP1 POP DUP3 DUP6 PUSH1 0x20 DUP7 MUL DUP3 ADD GT ISZERO PUSH2 0x34DD JUMPI PUSH2 0x34DC PUSH2 0x48D4 JUMP JUMPDEST JUMPDEST PUSH1 0x0 JUMPDEST DUP6 DUP2 LT ISZERO PUSH2 0x350D JUMPI DUP2 PUSH2 0x34F3 DUP9 DUP3 PUSH2 0x35F7 JUMP JUMPDEST DUP5 MSTORE PUSH1 0x20 DUP5 ADD SWAP4 POP PUSH1 0x20 DUP4 ADD SWAP3 POP POP PUSH1 0x1 DUP2 ADD SWAP1 POP PUSH2 0x34E0 JUMP JUMPDEST POP POP POP SWAP4 SWAP3 POP POP POP JUMP JUMPDEST PUSH1 0x0 PUSH2 0x352A PUSH2 0x3525 DUP5 PUSH2 0x4020 JUMP JUMPDEST PUSH2 0x3FCF JUMP JUMPDEST SWAP1 POP DUP1 DUP4 DUP3 MSTORE PUSH1 0x20 DUP3 ADD SWAP1 POP DUP3 DUP6 PUSH1 0x20 DUP7 MUL DUP3 ADD GT ISZERO PUSH2 0x354D JUMPI PUSH2 0x354C PUSH2 0x48D4 JUMP JUMPDEST JUMPDEST PUSH1 0x0 JUMPDEST DUP6 DUP2 LT ISZERO PUSH2 0x357D JUMPI DUP2 PUSH2 0x3563 DUP9 DUP3 PUSH2 0x3716 JUMP JUMPDEST DUP5 MSTORE PUSH1 0x20 DUP5 ADD SWAP4 POP PUSH1 0x20 DUP4 ADD SWAP3 POP POP PUSH1 0x1 DUP2 ADD SWAP1 POP PUSH2 0x3550 JUMP JUMPDEST POP POP POP SWAP4 SWAP3 POP POP POP JUMP JUMPDEST PUSH1 0x0 PUSH2 0x359A PUSH2 0x3595 DUP5 PUSH2 0x4020 JUMP JUMPDEST PUSH2 0x3FCF JUMP JUMPDEST SWAP1 POP DUP1 DUP4 DUP3 MSTORE PUSH1 0x20 DUP3 ADD SWAP1 POP DUP3 DUP6 PUSH1 0x20 DUP7 MUL DUP3 ADD GT ISZERO PUSH2 0x35BD JUMPI PUSH2 0x35BC PUSH2 0x48D4 JUMP JUMPDEST JUMPDEST PUSH1 0x0 JUMPDEST DUP6 DUP2 LT ISZERO PUSH2 0x35ED JUMPI DUP2 PUSH2 0x35D3 DUP9 DUP3 PUSH2 0x372B JUMP JUMPDEST DUP5 MSTORE PUSH1 0x20 DUP5 ADD SWAP4 POP PUSH1 0x20 DUP4 ADD SWAP3 POP POP PUSH1 0x1 DUP2 ADD SWAP1 POP PUSH2 0x35C0 JUMP JUMPDEST POP POP POP SWAP4 SWAP3 POP POP POP JUMP JUMPDEST PUSH1 0x0 DUP2 CALLDATALOAD SWAP1 POP PUSH2 0x3606 DUP2 PUSH2 0x492A JUMP JUMPDEST SWAP3 SWAP2 POP POP JUMP JUMPDEST PUSH1 0x0 DUP3 PUSH1 0x1F DUP4 ADD SLT PUSH2 0x3621 JUMPI PUSH2 0x3620 PUSH2 0x48CF JUMP JUMPDEST JUMPDEST DUP2 CALLDATALOAD PUSH2 0x3631 DUP5 DUP3 PUSH1 0x20 DUP7 ADD PUSH2 0x34A7 JUMP JUMPDEST SWAP2 POP POP SWAP3 SWAP2 POP POP JUMP JUMPDEST PUSH1 0x0 DUP3 PUSH1 0x1F DUP4 ADD SLT PUSH2 0x364F JUMPI PUSH2 0x364E PUSH2 0x48CF JUMP JUMPDEST JUMPDEST DUP2 CALLDATALOAD PUSH2 0x365F DUP5 DUP3 PUSH1 0x20 DUP7 ADD PUSH2 0x3517 JUMP JUMPDEST SWAP2 POP POP SWAP3 SWAP2 POP POP JUMP JUMPDEST PUSH1 0x0 DUP3 PUSH1 0x1F DUP4 ADD SLT PUSH2 0x367D JUMPI PUSH2 0x367C PUSH2 0x48CF JUMP JUMPDEST JUMPDEST DUP2 MLOAD PUSH2 0x368D DUP5 DUP3 PUSH1 0x20 DUP7 ADD PUSH2 0x3587 JUMP JUMPDEST SWAP2 POP POP SWAP3 SWAP2 POP POP JUMP JUMPDEST PUSH1 0x0 DUP2 MLOAD SWAP1 POP PUSH2 0x36A5 DUP2 PUSH2 0x4941 JUMP JUMPDEST SWAP3 SWAP2 POP POP JUMP JUMPDEST PUSH1 0x0 DUP1 DUP4 PUSH1 0x1F DUP5 ADD SLT PUSH2 0x36C1 JUMPI PUSH2 0x36C0 PUSH2 0x48CF JUMP JUMPDEST JUMPDEST DUP3 CALLDATALOAD SWAP1 POP PUSH8 0xFFFFFFFFFFFFFFFF DUP2 GT ISZERO PUSH2 0x36DE JUMPI PUSH2 0x36DD PUSH2 0x48CA JUMP JUMPDEST JUMPDEST PUSH1 0x20 DUP4 ADD SWAP2 POP DUP4 PUSH1 0x1 DUP3 MUL DUP4 ADD GT ISZERO PUSH2 0x36FA JUMPI PUSH2 0x36F9 PUSH2 0x48D4 JUMP JUMPDEST JUMPDEST SWAP3 POP SWAP3 SWAP1 POP JUMP JUMPDEST PUSH1 0x0 DUP2 MLOAD SWAP1 POP PUSH2 0x3710 DUP2 PUSH2 0x4958 JUMP JUMPDEST SWAP3 SWAP2 POP POP JUMP JUMPDEST PUSH1 0x0 DUP2 CALLDATALOAD SWAP1 POP PUSH2 0x3725 DUP2 PUSH2 0x496F JUMP JUMPDEST SWAP3 SWAP2 POP POP JUMP JUMPDEST PUSH1 0x0 DUP2 MLOAD SWAP1 POP PUSH2 0x373A DUP2 PUSH2 0x496F JUMP JUMPDEST SWAP3 SWAP2 POP POP JUMP JUMPDEST PUSH1 0x0 DUP2 MLOAD SWAP1 POP PUSH2 0x374F DUP2 PUSH2 0x499D JUMP JUMPDEST SWAP3 SWAP2 POP POP JUMP JUMPDEST PUSH1 0x0 DUP2 MLOAD SWAP1 POP PUSH2 0x3764 DUP2 PUSH2 0x4986 JUMP JUMPDEST SWAP3 SWAP2 POP POP JUMP JUMPDEST PUSH1 0x0 PUSH1 0x20 DUP3 DUP5 SUB SLT ISZERO PUSH2 0x3780 JUMPI PUSH2 0x377F PUSH2 0x48DE JUMP JUMPDEST JUMPDEST PUSH1 0x0 PUSH2 0x378E DUP5 DUP3 DUP6 ADD PUSH2 0x35F7 JUMP JUMPDEST SWAP2 POP POP SWAP3 SWAP2 POP POP JUMP JUMPDEST PUSH1 0x0 DUP1 PUSH1 0x40 DUP4 DUP6 SUB SLT ISZERO PUSH2 0x37AE JUMPI PUSH2 0x37AD PUSH2 0x48DE JUMP JUMPDEST JUMPDEST PUSH1 0x0 PUSH2 0x37BC DUP6 DUP3 DUP7 ADD PUSH2 0x35F7 JUMP JUMPDEST SWAP3 POP POP PUSH1 0x20 PUSH2 0x37CD DUP6 DUP3 DUP7 ADD PUSH2 0x35F7 JUMP JUMPDEST SWAP2 POP POP SWAP3 POP SWAP3 SWAP1 POP JUMP JUMPDEST PUSH1 0x0 DUP1 PUSH1 0x0 PUSH1 0x60 DUP5 DUP7 SUB SLT ISZERO PUSH2 0x37F0 JUMPI PUSH2 0x37EF PUSH2 0x48DE JUMP JUMPDEST JUMPDEST PUSH1 0x0 PUSH2 0x37FE DUP7 DUP3 DUP8 ADD PUSH2 0x35F7 JUMP JUMPDEST SWAP4 POP POP PUSH1 0x20 PUSH2 0x380F DUP7 DUP3 DUP8 ADD PUSH2 0x35F7 JUMP JUMPDEST SWAP3 POP POP PUSH1 0x40 PUSH2 0x3820 DUP7 DUP3 DUP8 ADD PUSH2 0x3716 JUMP JUMPDEST SWAP2 POP POP SWAP3 POP SWAP3 POP SWAP3 JUMP JUMPDEST PUSH1 0x0 DUP1 PUSH1 0x40 DUP4 DUP6 SUB SLT ISZERO PUSH2 0x3841 JUMPI PUSH2 0x3840 PUSH2 0x48DE JUMP JUMPDEST JUMPDEST PUSH1 0x0 PUSH2 0x384F DUP6 DUP3 DUP7 ADD PUSH2 0x35F7 JUMP JUMPDEST SWAP3 POP POP PUSH1 0x20 PUSH2 0x3860 DUP6 DUP3 DUP7 ADD PUSH2 0x3716 JUMP JUMPDEST SWAP2 POP POP SWAP3 POP SWAP3 SWAP1 POP JUMP JUMPDEST PUSH1 0x0 DUP1 PUSH1 0x0 PUSH1 0x60 DUP5 DUP7 SUB SLT ISZERO PUSH2 0x3883 JUMPI PUSH2 0x3882 PUSH2 0x48DE JUMP JUMPDEST JUMPDEST PUSH1 0x0 PUSH2 0x3891 DUP7 DUP3 DUP8 ADD PUSH2 0x35F7 JUMP JUMPDEST SWAP4 POP POP PUSH1 0x20 PUSH2 0x38A2 DUP7 DUP3 DUP8 ADD PUSH2 0x3716 JUMP JUMPDEST SWAP3 POP POP PUSH1 0x40 PUSH2 0x38B3 DUP7 DUP3 DUP8 ADD PUSH2 0x3716 JUMP JUMPDEST SWAP2 POP POP SWAP3 POP SWAP3 POP SWAP3 JUMP JUMPDEST PUSH1 0x0 DUP1 PUSH1 0x40 DUP4 DUP6 SUB SLT ISZERO PUSH2 0x38D4 JUMPI PUSH2 0x38D3 PUSH2 0x48DE JUMP JUMPDEST JUMPDEST PUSH1 0x0 DUP4 ADD CALLDATALOAD PUSH8 0xFFFFFFFFFFFFFFFF DUP2 GT ISZERO PUSH2 0x38F2 JUMPI PUSH2 0x38F1 PUSH2 0x48D9 JUMP JUMPDEST JUMPDEST PUSH2 0x38FE DUP6 DUP3 DUP7 ADD PUSH2 0x360C JUMP JUMPDEST SWAP3 POP POP PUSH1 0x20 DUP4 ADD CALLDATALOAD PUSH8 0xFFFFFFFFFFFFFFFF DUP2 GT ISZERO PUSH2 0x391F JUMPI PUSH2 0x391E PUSH2 0x48D9 JUMP JUMPDEST JUMPDEST PUSH2 0x392B DUP6 DUP3 DUP7 ADD PUSH2 0x363A JUMP JUMPDEST SWAP2 POP POP SWAP3 POP SWAP3 SWAP1 POP JUMP JUMPDEST PUSH1 0x0 PUSH1 0x20 DUP3 DUP5 SUB SLT ISZERO PUSH2 0x394B JUMPI PUSH2 0x394A PUSH2 0x48DE JUMP JUMPDEST JUMPDEST PUSH1 0x0 DUP3 ADD MLOAD PUSH8 0xFFFFFFFFFFFFFFFF DUP2 GT ISZERO PUSH2 0x3969 JUMPI PUSH2 0x3968 PUSH2 0x48D9 JUMP JUMPDEST JUMPDEST PUSH2 0x3975 DUP5 DUP3 DUP6 ADD PUSH2 0x3668 JUMP JUMPDEST SWAP2 POP POP SWAP3 SWAP2 POP POP JUMP JUMPDEST PUSH1 0x0 PUSH1 0x20 DUP3 DUP5 SUB SLT ISZERO PUSH2 0x3994 JUMPI PUSH2 0x3993 PUSH2 0x48DE JUMP JUMPDEST JUMPDEST PUSH1 0x0 PUSH2 0x39A2 DUP5 DUP3 DUP6 ADD PUSH2 0x3696 JUMP JUMPDEST SWAP2 POP POP SWAP3 SWAP2 POP POP JUMP JUMPDEST PUSH1 0x0 DUP1 PUSH1 0x20 DUP4 DUP6 SUB SLT ISZERO PUSH2 0x39C2 JUMPI PUSH2 0x39C1 PUSH2 0x48DE JUMP JUMPDEST JUMPDEST PUSH1 0x0 DUP4 ADD CALLDATALOAD PUSH8 0xFFFFFFFFFFFFFFFF DUP2 GT ISZERO PUSH2 0x39E0 JUMPI PUSH2 0x39DF PUSH2 0x48D9 JUMP JUMPDEST JUMPDEST PUSH2 0x39EC DUP6 DUP3 DUP7 ADD PUSH2 0x36AB JUMP JUMPDEST SWAP3 POP SWAP3 POP POP SWAP3 POP SWAP3 SWAP1 POP JUMP JUMPDEST PUSH1 0x0 PUSH1 0x20 DUP3 DUP5 SUB SLT ISZERO PUSH2 0x3A0E JUMPI PUSH2 0x3A0D PUSH2 0x48DE JUMP JUMPDEST JUMPDEST PUSH1 0x0 PUSH2 0x3A1C DUP5 DUP3 DUP6 ADD PUSH2 0x3716 JUMP JUMPDEST SWAP2 POP POP SWAP3 SWAP2 POP POP JUMP JUMPDEST PUSH1 0x0 PUSH1 0x20 DUP3 DUP5 SUB SLT ISZERO PUSH2 0x3A3B JUMPI PUSH2 0x3A3A PUSH2 0x48DE JUMP JUMPDEST JUMPDEST PUSH1 0x0 PUSH2 0x3A49 DUP5 DUP3 DUP6 ADD PUSH2 0x372B JUMP JUMPDEST SWAP2 POP POP SWAP3 SWAP2 POP POP JUMP JUMPDEST PUSH1 0x0 DUP1 PUSH1 0x0 PUSH1 0x60 DUP5 DUP7 SUB SLT ISZERO PUSH2 0x3A6B JUMPI PUSH2 0x3A6A PUSH2 0x48DE JUMP JUMPDEST JUMPDEST PUSH1 0x0 PUSH2 0x3A79 DUP7 DUP3 DUP8 ADD PUSH2 0x3716 JUMP JUMPDEST SWAP4 POP POP PUSH1 0x20 PUSH2 0x3A8A DUP7 DUP3 DUP8 ADD PUSH2 0x35F7 JUMP JUMPDEST SWAP3 POP POP PUSH1 0x40 PUSH2 0x3A9B DUP7 DUP3 DUP8 ADD PUSH2 0x35F7 JUMP JUMPDEST SWAP2 POP POP SWAP3 POP SWAP3 POP SWAP3 JUMP JUMPDEST PUSH1 0x0 DUP1 PUSH1 0x0 DUP1 PUSH1 0x0 PUSH1 0xA0 DUP7 DUP9 SUB SLT ISZERO PUSH2 0x3AC1 JUMPI PUSH2 0x3AC0 PUSH2 0x48DE JUMP JUMPDEST JUMPDEST PUSH1 0x0 PUSH2 0x3ACF DUP9 DUP3 DUP10 ADD PUSH2 0x3716 JUMP JUMPDEST SWAP6 POP POP PUSH1 0x20 PUSH2 0x3AE0 DUP9 DUP3 DUP10 ADD PUSH2 0x3716 JUMP JUMPDEST SWAP5 POP POP PUSH1 0x40 DUP7 ADD CALLDATALOAD PUSH8 0xFFFFFFFFFFFFFFFF DUP2 GT ISZERO PUSH2 0x3B01 JUMPI PUSH2 0x3B00 PUSH2 0x48D9 JUMP JUMPDEST JUMPDEST PUSH2 0x3B0D DUP9 DUP3 DUP10 ADD PUSH2 0x360C JUMP JUMPDEST SWAP4 POP POP PUSH1 0x60 PUSH2 0x3B1E DUP9 DUP3 DUP10 ADD PUSH2 0x35F7 JUMP JUMPDEST SWAP3 POP POP PUSH1 0x80 PUSH2 0x3B2F DUP9 DUP3 DUP10 ADD PUSH2 0x3716 JUMP JUMPDEST SWAP2 POP POP SWAP3 SWAP6 POP SWAP3 SWAP6 SWAP1 SWAP4 POP JUMP JUMPDEST PUSH1 0x0 DUP1 PUSH1 0x0 DUP1 PUSH1 0x0 DUP1 PUSH1 0xC0 DUP8 DUP10 SUB SLT ISZERO PUSH2 0x3B59 JUMPI PUSH2 0x3B58 PUSH2 0x48DE JUMP JUMPDEST JUMPDEST PUSH1 0x0 PUSH2 0x3B67 DUP10 DUP3 DUP11 ADD PUSH2 0x3716 JUMP JUMPDEST SWAP7 POP POP PUSH1 0x20 PUSH2 0x3B78 DUP10 DUP3 DUP11 ADD PUSH2 0x3716 JUMP JUMPDEST SWAP6 POP POP PUSH1 0x40 PUSH2 0x3B89 DUP10 DUP3 DUP11 ADD PUSH2 0x3716 JUMP JUMPDEST SWAP5 POP POP PUSH1 0x60 PUSH2 0x3B9A DUP10 DUP3 DUP11 ADD PUSH2 0x3716 JUMP JUMPDEST SWAP4 POP POP PUSH1 0x80 PUSH2 0x3BAB DUP10 DUP3 DUP11 ADD PUSH2 0x3716 JUMP JUMPDEST SWAP3 POP POP PUSH1 0xA0 PUSH2 0x3BBC DUP10 DUP3 DUP11 ADD PUSH2 0x3716 JUMP JUMPDEST SWAP2 POP POP SWAP3 SWAP6 POP SWAP3 SWAP6 POP SWAP3 SWAP6 JUMP JUMPDEST PUSH1 0x0 DUP1 PUSH1 0x0 DUP1 PUSH1 0x0 PUSH1 0xA0 DUP7 DUP9 SUB SLT ISZERO PUSH2 0x3BE5 JUMPI PUSH2 0x3BE4 PUSH2 0x48DE JUMP JUMPDEST JUMPDEST PUSH1 0x0 PUSH2 0x3BF3 DUP9 DUP3 DUP10 ADD PUSH2 0x3740 JUMP JUMPDEST SWAP6 POP POP PUSH1 0x20 PUSH2 0x3C04 DUP9 DUP3 DUP10 ADD PUSH2 0x3701 JUMP JUMPDEST SWAP5 POP POP PUSH1 0x40 PUSH2 0x3C15 DUP9 DUP3 DUP10 ADD PUSH2 0x372B JUMP JUMPDEST SWAP4 POP POP PUSH1 0x60 PUSH2 0x3C26 DUP9 DUP3 DUP10 ADD PUSH2 0x372B JUMP JUMPDEST SWAP3 POP POP PUSH1 0x80 PUSH2 0x3C37 DUP9 DUP3 DUP10 ADD PUSH2 0x3740 JUMP JUMPDEST SWAP2 POP POP SWAP3 SWAP6 POP SWAP3 SWAP6 SWAP1 SWAP4 POP JUMP JUMPDEST PUSH1 0x0 PUSH1 0x20 DUP3 DUP5 SUB SLT ISZERO PUSH2 0x3C5A JUMPI PUSH2 0x3C59 PUSH2 0x48DE JUMP JUMPDEST JUMPDEST PUSH1 0x0 PUSH2 0x3C68 DUP5 DUP3 DUP6 ADD PUSH2 0x3755 JUMP JUMPDEST SWAP2 POP POP SWAP3 SWAP2 POP POP JUMP JUMPDEST PUSH1 0x0 PUSH2 0x3C7D DUP4 DUP4 PUSH2 0x3CA1 JUMP JUMPDEST PUSH1 0x20 DUP4 ADD SWAP1 POP SWAP3 SWAP2 POP POP JUMP JUMPDEST PUSH1 0x0 PUSH2 0x3C95 DUP4 DUP4 PUSH2 0x3DD2 JUMP JUMPDEST PUSH1 0x20 DUP4 ADD SWAP1 POP SWAP3 SWAP2 POP POP JUMP JUMPDEST PUSH2 0x3CAA DUP2 PUSH2 0x468C JUMP JUMPDEST DUP3 MSTORE POP POP JUMP JUMPDEST PUSH2 0x3CB9 DUP2 PUSH2 0x468C JUMP JUMPDEST DUP3 MSTORE POP POP JUMP JUMPDEST PUSH1 0x0 PUSH2 0x3CCA DUP3 PUSH2 0x406C JUMP JUMPDEST PUSH2 0x3CD4 DUP2 DUP6 PUSH2 0x40A7 JUMP JUMPDEST SWAP4 POP PUSH2 0x3CDF DUP4 PUSH2 0x404C JUMP JUMPDEST DUP1 PUSH1 0x0 JUMPDEST DUP4 DUP2 LT ISZERO PUSH2 0x3D10 JUMPI DUP2 MLOAD PUSH2 0x3CF7 DUP9 DUP3 PUSH2 0x3C71 JUMP JUMPDEST SWAP8 POP PUSH2 0x3D02 DUP4 PUSH2 0x408D JUMP JUMPDEST SWAP3 POP POP PUSH1 0x1 DUP2 ADD SWAP1 POP PUSH2 0x3CE3 JUMP JUMPDEST POP DUP6 SWAP4 POP POP POP POP SWAP3 SWAP2 POP POP JUMP JUMPDEST PUSH1 0x0 PUSH2 0x3D28 DUP3 PUSH2 0x4077 JUMP JUMPDEST PUSH2 0x3D32 DUP2 DUP6 PUSH2 0x40B8 JUMP JUMPDEST SWAP4 POP PUSH2 0x3D3D DUP4 PUSH2 0x405C JUMP JUMPDEST DUP1 PUSH1 0x0 JUMPDEST DUP4 DUP2 LT ISZERO PUSH2 0x3D6E JUMPI DUP2 MLOAD PUSH2 0x3D55 DUP9 DUP3 PUSH2 0x3C89 JUMP JUMPDEST SWAP8 POP PUSH2 0x3D60 DUP4 PUSH2 0x409A JUMP JUMPDEST SWAP3 POP POP PUSH1 0x1 DUP2 ADD SWAP1 POP PUSH2 0x3D41 JUMP JUMPDEST POP DUP6 SWAP4 POP POP POP POP SWAP3 SWAP2 POP POP JUMP JUMPDEST PUSH2 0x3D84 DUP2 PUSH2 0x469E JUMP JUMPDEST DUP3 MSTORE POP POP JUMP JUMPDEST PUSH1 0x0 PUSH2 0x3D95 DUP3 PUSH2 0x4082 JUMP JUMPDEST PUSH2 0x3D9F DUP2 DUP6 PUSH2 0x40C9 JUMP JUMPDEST SWAP4 POP PUSH2 0x3DAF DUP2 DUP6 PUSH1 0x20 DUP7 ADD PUSH2 0x4737 JUMP JUMPDEST PUSH2 0x3DB8 DUP2 PUSH2 0x48E3 JUMP JUMPDEST DUP5 ADD SWAP2 POP POP SWAP3 SWAP2 POP POP JUMP JUMPDEST PUSH2 0x3DCC DUP2 PUSH2 0x4701 JUMP JUMPDEST DUP3 MSTORE POP POP JUMP JUMPDEST PUSH2 0x3DDB DUP2 PUSH2 0x46AA JUMP JUMPDEST DUP3 MSTORE POP POP JUMP JUMPDEST PUSH2 0x3DEA DUP2 PUSH2 0x46AA JUMP JUMPDEST DUP3 MSTORE POP POP JUMP JUMPDEST PUSH1 0x0 PUSH2 0x3DFD PUSH1 0x1F DUP4 PUSH2 0x40DA JUMP JUMPDEST SWAP2 POP PUSH2 0x3E08 DUP3 PUSH2 0x4901 JUMP JUMPDEST PUSH1 0x20 DUP3 ADD SWAP1 POP SWAP2 SWAP1 POP JUMP JUMPDEST PUSH2 0x3E1C DUP2 PUSH2 0x46D4 JUMP JUMPDEST DUP3 MSTORE POP POP JUMP JUMPDEST PUSH1 0x0 PUSH1 0x20 DUP3 ADD SWAP1 POP PUSH2 0x3E37 PUSH1 0x0 DUP4 ADD DUP5 PUSH2 0x3CB0 JUMP JUMPDEST SWAP3 SWAP2 POP POP JUMP JUMPDEST PUSH1 0x0 PUSH1 0x60 DUP3 ADD SWAP1 POP PUSH2 0x3E52 PUSH1 0x0 DUP4 ADD DUP7 PUSH2 0x3CB0 JUMP JUMPDEST PUSH2 0x3E5F PUSH1 0x20 DUP4 ADD DUP6 PUSH2 0x3CB0 JUMP JUMPDEST PUSH2 0x3E6C PUSH1 0x40 DUP4 ADD DUP5 PUSH2 0x3E13 JUMP JUMPDEST SWAP5 SWAP4 POP POP POP POP JUMP JUMPDEST PUSH1 0x0 PUSH1 0x40 DUP3 ADD SWAP1 POP PUSH2 0x3E89 PUSH1 0x0 DUP4 ADD DUP6 PUSH2 0x3CB0 JUMP JUMPDEST PUSH2 0x3E96 PUSH1 0x20 DUP4 ADD DUP5 PUSH2 0x3E13 JUMP JUMPDEST SWAP4 SWAP3 POP POP POP JUMP JUMPDEST PUSH1 0x0 PUSH1 0x40 DUP3 ADD SWAP1 POP DUP2 DUP2 SUB PUSH1 0x0 DUP4 ADD MSTORE PUSH2 0x3EB7 DUP2 DUP6 PUSH2 0x3CBF JUMP JUMPDEST SWAP1 POP DUP2 DUP2 SUB PUSH1 0x20 DUP4 ADD MSTORE PUSH2 0x3ECB DUP2 DUP5 PUSH2 0x3D1D JUMP JUMPDEST SWAP1 POP SWAP4 SWAP3 POP POP POP JUMP JUMPDEST PUSH1 0x0 PUSH1 0x40 DUP3 ADD SWAP1 POP PUSH2 0x3EE9 PUSH1 0x0 DUP4 ADD DUP6 PUSH2 0x3D7B JUMP JUMPDEST DUP2 DUP2 SUB PUSH1 0x20 DUP4 ADD MSTORE PUSH2 0x3EFB DUP2 DUP5 PUSH2 0x3D8A JUMP JUMPDEST SWAP1 POP SWAP4 SWAP3 POP POP POP JUMP JUMPDEST PUSH1 0x0 PUSH1 0x20 DUP3 ADD SWAP1 POP PUSH2 0x3F19 PUSH1 0x0 DUP4 ADD DUP5 PUSH2 0x3DC3 JUMP JUMPDEST SWAP3 SWAP2 POP POP JUMP JUMPDEST PUSH1 0x0 PUSH1 0x20 DUP3 ADD SWAP1 POP PUSH2 0x3F34 PUSH1 0x0 DUP4 ADD DUP5 PUSH2 0x3DE1 JUMP JUMPDEST SWAP3 SWAP2 POP POP JUMP JUMPDEST PUSH1 0x0 PUSH1 0x20 DUP3 ADD SWAP1 POP DUP2 DUP2 SUB PUSH1 0x0 DUP4 ADD MSTORE PUSH2 0x3F53 DUP2 PUSH2 0x3DF0 JUMP JUMPDEST SWAP1 POP SWAP2 SWAP1 POP JUMP JUMPDEST PUSH1 0x0 PUSH1 0x20 DUP3 ADD SWAP1 POP PUSH2 0x3F6F PUSH1 0x0 DUP4 ADD DUP5 PUSH2 0x3E13 JUMP JUMPDEST SWAP3 SWAP2 POP POP JUMP JUMPDEST PUSH1 0x0 PUSH1 0xA0 DUP3 ADD SWAP1 POP PUSH2 0x3F8A PUSH1 0x0 DUP4 ADD DUP9 PUSH2 0x3E13 JUMP JUMPDEST PUSH2 0x3F97 PUSH1 0x20 DUP4 ADD DUP8 PUSH2 0x3E13 JUMP JUMPDEST DUP2 DUP2 SUB PUSH1 0x40 DUP4 ADD MSTORE PUSH2 0x3FA9 DUP2 DUP7 PUSH2 0x3CBF JUMP JUMPDEST SWAP1 POP PUSH2 0x3FB8 PUSH1 0x60 DUP4 ADD DUP6 PUSH2 0x3CB0 JUMP JUMPDEST PUSH2 0x3FC5 PUSH1 0x80 DUP4 ADD DUP5 PUSH2 0x3E13 JUMP JUMPDEST SWAP7 SWAP6 POP POP POP POP POP POP JUMP JUMPDEST PUSH1 0x0 PUSH2 0x3FD9 PUSH2 0x3FEA JUMP JUMPDEST SWAP1 POP PUSH2 0x3FE5 DUP3 DUP3 PUSH2 0x476A JUMP JUMPDEST SWAP2 SWAP1 POP JUMP JUMPDEST PUSH1 0x0 PUSH1 0x40 MLOAD SWAP1 POP SWAP1 JUMP JUMPDEST PUSH1 0x0 PUSH8 0xFFFFFFFFFFFFFFFF DUP3 GT ISZERO PUSH2 0x400F JUMPI PUSH2 0x400E PUSH2 0x489B JUMP JUMPDEST JUMPDEST PUSH1 0x20 DUP3 MUL SWAP1 POP PUSH1 0x20 DUP2 ADD SWAP1 POP SWAP2 SWAP1 POP JUMP JUMPDEST PUSH1 0x0 PUSH8 0xFFFFFFFFFFFFFFFF DUP3 GT ISZERO PUSH2 0x403B JUMPI PUSH2 0x403A PUSH2 0x489B JUMP JUMPDEST JUMPDEST PUSH1 0x20 DUP3 MUL SWAP1 POP PUSH1 0x20 DUP2 ADD SWAP1 POP SWAP2 SWAP1 POP JUMP JUMPDEST PUSH1 0x0 DUP2 SWAP1 POP PUSH1 0x20 DUP3 ADD SWAP1 POP SWAP2 SWAP1 POP JUMP JUMPDEST PUSH1 0x0 DUP2 SWAP1 POP PUSH1 0x20 DUP3 ADD SWAP1 POP SWAP2 SWAP1 POP JUMP JUMPDEST PUSH1 0x0 DUP2 MLOAD SWAP1 POP SWAP2 SWAP1 POP JUMP JUMPDEST PUSH1 0x0 DUP2 MLOAD SWAP1 POP SWAP2 SWAP1 POP JUMP JUMPDEST PUSH1 0x0 DUP2 MLOAD SWAP1 POP SWAP2 SWAP1 POP JUMP JUMPDEST PUSH1 0x0 PUSH1 0x20 DUP3 ADD SWAP1 POP SWAP2 SWAP1 POP JUMP JUMPDEST PUSH1 0x0 PUSH1 0x20 DUP3 ADD SWAP1 POP SWAP2 SWAP1 POP JUMP JUMPDEST PUSH1 0x0 DUP3 DUP3 MSTORE PUSH1 0x20 DUP3 ADD SWAP1 POP SWAP3 SWAP2 POP POP JUMP JUMPDEST PUSH1 0x0 DUP3 DUP3 MSTORE PUSH1 0x20 DUP3 ADD SWAP1 POP SWAP3 SWAP2 POP POP JUMP JUMPDEST PUSH1 0x0 DUP3 DUP3 MSTORE PUSH1 0x20 DUP3 ADD SWAP1 POP SWAP3 SWAP2 POP POP JUMP JUMPDEST PUSH1 0x0 DUP3 DUP3 MSTORE PUSH1 0x20 DUP3 ADD SWAP1 POP SWAP3 SWAP2 POP POP JUMP JUMPDEST PUSH1 0x0 PUSH2 0x40F6 DUP3 PUSH2 0x46AA JUMP JUMPDEST SWAP2 POP PUSH2 0x4101 DUP4 PUSH2 0x46AA JUMP JUMPDEST SWAP3 POP DUP2 PUSH32 0x7FFFFFFFFFFFFFFFFFFFFFFFFFFFFFFFFFFFFFFFFFFFFFFFFFFFFFFFFFFFFFFF SUB DUP4 SGT PUSH1 0x0 DUP4 SLT ISZERO AND ISZERO PUSH2 0x413C JUMPI PUSH2 0x413B PUSH2 0x480E JUMP JUMPDEST JUMPDEST DUP2 PUSH32 0x8000000000000000000000000000000000000000000000000000000000000000 SUB DUP4 SLT PUSH1 0x0 DUP4 SLT AND ISZERO PUSH2 0x4174 JUMPI PUSH2 0x4173 PUSH2 0x480E JUMP JUMPDEST JUMPDEST DUP3 DUP3 ADD SWAP1 POP SWAP3 SWAP2 POP POP JUMP JUMPDEST PUSH1 0x0 PUSH2 0x418A DUP3 PUSH2 0x46D4 JUMP JUMPDEST SWAP2 POP PUSH2 0x4195 DUP4 PUSH2 0x46D4 JUMP JUMPDEST SWAP3 POP DUP3 PUSH32 0xFFFFFFFFFFFFFFFFFFFFFFFFFFFFFFFFFFFFFFFFFFFFFFFFFFFFFFFFFFFFFFFF SUB DUP3 GT ISZERO PUSH2 0x41CA JUMPI PUSH2 0x41C9 PUSH2 0x480E JUMP JUMPDEST JUMPDEST DUP3 DUP3 ADD SWAP1 POP SWAP3 SWAP2 POP POP JUMP JUMPDEST PUSH1 0x0 PUSH2 0x41E0 DUP3 PUSH2 0x46DE JUMP JUMPDEST SWAP2 POP PUSH2 0x41EB DUP4 PUSH2 0x46DE JUMP JUMPDEST SWAP3 POP DUP3 PUSH1 0xFF SUB DUP3 GT ISZERO PUSH2 0x4201 JUMPI PUSH2 0x4200 PUSH2 0x480E JUMP JUMPDEST JUMPDEST DUP3 DUP3 ADD SWAP1 POP SWAP3 SWAP2 POP POP JUMP JUMPDEST PUSH1 0x0 PUSH2 0x4217 DUP3 PUSH2 0x46AA JUMP JUMPDEST SWAP2 POP PUSH2 0x4222 DUP4 PUSH2 0x46AA JUMP JUMPDEST SWAP3 POP DUP3 PUSH2 0x4232 JUMPI PUSH2 0x4231 PUSH2 0x483D JUMP JUMPDEST JUMPDEST PUSH1 0x1 PUSH1 0x0 SUB DUP4 EQ PUSH32 0x8000000000000000000000000000000000000000000000000000000000000000 DUP4 EQ AND ISZERO PUSH2 0x426B JUMPI PUSH2 0x426A PUSH2 0x480E JUMP JUMPDEST JUMPDEST DUP3 DUP3 SDIV SWAP1 POP SWAP3 SWAP2 POP POP JUMP JUMPDEST PUSH1 0x0 PUSH2 0x4281 DUP3 PUSH2 0x46D4 JUMP JUMPDEST SWAP2 POP PUSH2 0x428C DUP4 PUSH2 0x46D4 JUMP JUMPDEST SWAP3 POP DUP3 PUSH2 0x429C JUMPI PUSH2 0x429B PUSH2 0x483D JUMP JUMPDEST JUMPDEST DUP3 DUP3 DIV SWAP1 POP SWAP3 SWAP2 POP POP JUMP JUMPDEST PUSH1 0x0 DUP1 DUP3 SWAP2 POP DUP4 SWAP1 POP JUMPDEST PUSH1 0x1 DUP6 GT ISZERO PUSH2 0x42F1 JUMPI DUP1 DUP7 DIV DUP2 GT ISZERO PUSH2 0x42CD JUMPI PUSH2 0x42CC PUSH2 0x480E JUMP JUMPDEST JUMPDEST PUSH1 0x1 DUP6 AND ISZERO PUSH2 0x42DC JUMPI DUP1 DUP3 MUL SWAP2 POP JUMPDEST DUP1 DUP2 MUL SWAP1 POP PUSH2 0x42EA DUP6 PUSH2 0x48F4 JUMP JUMPDEST SWAP5 POP PUSH2 0x42B1 JUMP JUMPDEST SWAP5 POP SWAP5 SWAP3 POP POP POP JUMP JUMPDEST PUSH1 0x0 PUSH2 0x4305 DUP3 PUSH2 0x46D4 JUMP JUMPDEST SWAP2 POP PUSH2 0x4310 DUP4 PUSH2 0x46D4 JUMP JUMPDEST SWAP3 POP PUSH2 0x433D PUSH32 0xFFFFFFFFFFFFFFFFFFFFFFFFFFFFFFFFFFFFFFFFFFFFFFFFFFFFFFFFFFFFFFFF DUP5 DUP5 PUSH2 0x4345 JUMP JUMPDEST SWAP1 POP SWAP3 SWAP2 POP POP JUMP JUMPDEST PUSH1 0x0 DUP3 PUSH2 0x4355 JUMPI PUSH1 0x1 SWAP1 POP PUSH2 0x4411 JUMP JUMPDEST DUP2 PUSH2 0x4363 JUMPI PUSH1 0x0 SWAP1 POP PUSH2 0x4411 JUMP JUMPDEST DUP2 PUSH1 0x1 DUP2 EQ PUSH2 0x4379 JUMPI PUSH1 0x2 DUP2 EQ PUSH2 0x4383 JUMPI PUSH2 0x43B2 JUMP JUMPDEST PUSH1 0x1 SWAP2 POP POP PUSH2 0x4411 JUMP JUMPDEST PUSH1 0xFF DUP5 GT ISZERO PUSH2 0x4395 JUMPI PUSH2 0x4394 PUSH2 0x480E JUMP JUMPDEST JUMPDEST DUP4 PUSH1 0x2 EXP SWAP2 POP DUP5 DUP3 GT ISZERO PUSH2 0x43AC JUMPI PUSH2 0x43AB PUSH2 0x480E JUMP JUMPDEST JUMPDEST POP PUSH2 0x4411 JUMP JUMPDEST POP PUSH1 0x20 DUP4 LT PUSH2 0x133 DUP4 LT AND PUSH1 0x4E DUP5 LT PUSH1 0xB DUP5 LT AND OR ISZERO PUSH2 0x43E7 JUMPI DUP3 DUP3 EXP SWAP1 POP DUP4 DUP2 GT ISZERO PUSH2 0x43E2 JUMPI PUSH2 0x43E1 PUSH2 0x480E JUMP JUMPDEST JUMPDEST PUSH2 0x4411 JUMP JUMPDEST PUSH2 0x43F4 DUP5 DUP5 DUP5 PUSH1 0x1 PUSH2 0x42A7 JUMP JUMPDEST SWAP3 POP SWAP1 POP DUP2 DUP5 DIV DUP2 GT ISZERO PUSH2 0x440B JUMPI PUSH2 0x440A PUSH2 0x480E JUMP JUMPDEST JUMPDEST DUP2 DUP2 MUL SWAP1 POP JUMPDEST SWAP4 SWAP3 POP POP POP JUMP JUMPDEST PUSH1 0x0 PUSH2 0x4423 DUP3 PUSH2 0x46AA JUMP JUMPDEST SWAP2 POP PUSH2 0x442E DUP4 PUSH2 0x46AA JUMP JUMPDEST SWAP3 POP DUP3 PUSH32 0x7FFFFFFFFFFFFFFFFFFFFFFFFFFFFFFFFFFFFFFFFFFFFFFFFFFFFFFFFFFFFFFF DIV DUP3 GT PUSH1 0x0 DUP5 SGT PUSH1 0x0 DUP5 SGT AND AND ISZERO PUSH2 0x446D JUMPI PUSH2 0x446C PUSH2 0x480E JUMP JUMPDEST JUMPDEST DUP2 PUSH32 0x8000000000000000000000000000000000000000000000000000000000000000 SDIV DUP4 SLT PUSH1 0x0 DUP5 SLT PUSH1 0x0 DUP5 SGT AND AND ISZERO PUSH2 0x44AA JUMPI PUSH2 0x44A9 PUSH2 0x480E JUMP JUMPDEST JUMPDEST DUP3 PUSH32 0x8000000000000000000000000000000000000000000000000000000000000000 SDIV DUP3 SLT PUSH1 0x0 DUP5 SGT PUSH1 0x0 DUP5 SLT AND AND ISZERO PUSH2 0x44E7 JUMPI PUSH2 0x44E6 PUSH2 0x480E JUMP JUMPDEST JUMPDEST DUP3 PUSH32 0x7FFFFFFFFFFFFFFFFFFFFFFFFFFFFFFFFFFFFFFFFFFFFFFFFFFFFFFFFFFFFFFF SDIV DUP3 SLT PUSH1 0x0 DUP5 SLT PUSH1 0x0 DUP5 SLT AND AND ISZERO PUSH2 0x4524 JUMPI PUSH2 0x4523 PUSH2 0x480E JUMP JUMPDEST JUMPDEST DUP3 DUP3 MUL SWAP1 POP SWAP3 SWAP2 POP POP JUMP JUMPDEST PUSH1 0x0 PUSH2 0x453A DUP3 PUSH2 0x46D4 JUMP JUMPDEST SWAP2 POP PUSH2 0x4545 DUP4 PUSH2 0x46D4 JUMP JUMPDEST SWAP3 POP DUP2 PUSH32 0xFFFFFFFFFFFFFFFFFFFFFFFFFFFFFFFFFFFFFFFFFFFFFFFFFFFFFFFFFFFFFFFF DIV DUP4 GT DUP3 ISZERO ISZERO AND ISZERO PUSH2 0x457E JUMPI PUSH2 0x457D PUSH2 0x480E JUMP JUMPDEST JUMPDEST DUP3 DUP3 MUL SWAP1 POP SWAP3 SWAP2 POP POP JUMP JUMPDEST PUSH1 0x0 PUSH2 0x4594 DUP3 PUSH2 0x46DE JUMP JUMPDEST SWAP2 POP PUSH2 0x459F DUP4 PUSH2 0x46DE JUMP JUMPDEST SWAP3 POP DUP2 PUSH1 0xFF DIV DUP4 GT DUP3 ISZERO ISZERO AND ISZERO PUSH2 0x45B9 JUMPI PUSH2 0x45B8 PUSH2 0x480E JUMP JUMPDEST JUMPDEST DUP3 DUP3 MUL SWAP1 POP SWAP3 SWAP2 POP POP JUMP JUMPDEST PUSH1 0x0 PUSH2 0x45CF DUP3 PUSH2 0x46AA JUMP JUMPDEST SWAP2 POP PUSH2 0x45DA DUP4 PUSH2 0x46AA JUMP JUMPDEST SWAP3 POP DUP3 PUSH32 0x8000000000000000000000000000000000000000000000000000000000000000 ADD DUP3 SLT PUSH1 0x0 DUP5 SLT ISZERO AND ISZERO PUSH2 0x4615 JUMPI PUSH2 0x4614 PUSH2 0x480E JUMP JUMPDEST JUMPDEST DUP3 PUSH32 0x7FFFFFFFFFFFFFFFFFFFFFFFFFFFFFFFFFFFFFFFFFFFFFFFFFFFFFFFFFFFFFFF ADD DUP3 SGT PUSH1 0x0 DUP5 SLT AND ISZERO PUSH2 0x464D JUMPI PUSH2 0x464C PUSH2 0x480E JUMP JUMPDEST JUMPDEST DUP3 DUP3 SUB SWAP1 POP SWAP3 SWAP2 POP POP JUMP JUMPDEST PUSH1 0x0 PUSH2 0x4663 DUP3 PUSH2 0x46D4 JUMP JUMPDEST SWAP2 POP PUSH2 0x466E DUP4 PUSH2 0x46D4 JUMP JUMPDEST SWAP3 POP DUP3 DUP3 LT ISZERO PUSH2 0x4681 JUMPI PUSH2 0x4680 PUSH2 0x480E JUMP JUMPDEST JUMPDEST DUP3 DUP3 SUB SWAP1 POP SWAP3 SWAP2 POP POP JUMP JUMPDEST PUSH1 0x0 PUSH2 0x4697 DUP3 PUSH2 0x46B4 JUMP JUMPDEST SWAP1 POP SWAP2 SWAP1 POP JUMP JUMPDEST PUSH1 0x0 DUP2 ISZERO ISZERO SWAP1 POP SWAP2 SWAP1 POP JUMP JUMPDEST PUSH1 0x0 DUP2 SWAP1 POP SWAP2 SWAP1 POP JUMP JUMPDEST PUSH1 0x0 PUSH20 0xFFFFFFFFFFFFFFFFFFFFFFFFFFFFFFFFFFFFFFFF DUP3 AND SWAP1 POP SWAP2 SWAP1 POP JUMP JUMPDEST PUSH1 0x0 DUP2 SWAP1 POP SWAP2 SWAP1 POP JUMP JUMPDEST PUSH1 0x0 PUSH1 0xFF DUP3 AND SWAP1 POP SWAP2 SWAP1 POP JUMP JUMPDEST PUSH1 0x0 PUSH10 0xFFFFFFFFFFFFFFFFFFFF DUP3 AND SWAP1 POP SWAP2 SWAP1 POP JUMP JUMPDEST PUSH1 0x0 PUSH2 0x470C DUP3 PUSH2 0x4713 JUMP JUMPDEST SWAP1 POP SWAP2 SWAP1 POP JUMP JUMPDEST PUSH1 0x0 PUSH2 0x471E DUP3 PUSH2 0x4725 JUMP JUMPDEST SWAP1 POP SWAP2 SWAP1 POP JUMP JUMPDEST PUSH1 0x0 PUSH2 0x4730 DUP3 PUSH2 0x46B4 JUMP JUMPDEST SWAP1 POP SWAP2 SWAP1 POP JUMP JUMPDEST PUSH1 0x0 JUMPDEST DUP4 DUP2 LT ISZERO PUSH2 0x4755 JUMPI DUP1 DUP3 ADD MLOAD DUP2 DUP5 ADD MSTORE PUSH1 0x20 DUP2 ADD SWAP1 POP PUSH2 0x473A JUMP JUMPDEST DUP4 DUP2 GT ISZERO PUSH2 0x4764 JUMPI PUSH1 0x0 DUP5 DUP5 ADD MSTORE JUMPDEST POP POP POP POP JUMP JUMPDEST PUSH2 0x4773 DUP3 PUSH2 0x48E3 JUMP JUMPDEST DUP2 ADD DUP2 DUP2 LT PUSH8 0xFFFFFFFFFFFFFFFF DUP3 GT OR ISZERO PUSH2 0x4792 JUMPI PUSH2 0x4791 PUSH2 0x489B JUMP JUMPDEST JUMPDEST DUP1 PUSH1 0x40 MSTORE POP POP POP JUMP JUMPDEST PUSH1 0x0 PUSH2 0x47A6 DUP3 PUSH2 0x46DE JUMP JUMPDEST SWAP2 POP PUSH1 0xFF DUP3 EQ ISZERO PUSH2 0x47BA JUMPI PUSH2 0x47B9 PUSH2 0x480E JUMP JUMPDEST JUMPDEST PUSH1 0x1 DUP3 ADD SWAP1 POP SWAP2 SWAP1 POP JUMP JUMPDEST PUSH1 0x0 PUSH2 0x47D0 DUP3 PUSH2 0x46AA JUMP JUMPDEST SWAP2 POP PUSH32 0x8000000000000000000000000000000000000000000000000000000000000000 DUP3 EQ ISZERO PUSH2 0x4803 JUMPI PUSH2 0x4802 PUSH2 0x480E JUMP JUMPDEST JUMPDEST DUP2 PUSH1 0x0 SUB SWAP1 POP SWAP2 SWAP1 POP JUMP JUMPDEST PUSH32 0x4E487B7100000000000000000000000000000000000000000000000000000000 PUSH1 0x0 MSTORE PUSH1 0x11 PUSH1 0x4 MSTORE PUSH1 0x24 PUSH1 0x0 REVERT JUMPDEST PUSH32 0x4E487B7100000000000000000000000000000000000000000000000000000000 PUSH1 0x0 MSTORE PUSH1 0x12 PUSH1 0x4 MSTORE PUSH1 0x24 PUSH1 0x0 REVERT JUMPDEST PUSH32 0x4E487B7100000000000000000000000000000000000000000000000000000000 PUSH1 0x0 MSTORE PUSH1 0x32 PUSH1 0x4 MSTORE PUSH1 0x24 PUSH1 0x0 REVERT JUMPDEST PUSH32 0x4E487B7100000000000000000000000000000000000000000000000000000000 PUSH1 0x0 MSTORE PUSH1 0x41 PUSH1 0x4 MSTORE PUSH1 0x24 PUSH1 0x0 REVERT JUMPDEST PUSH1 0x0 DUP1 REVERT JUMPDEST PUSH1 0x0 DUP1 REVERT JUMPDEST PUSH1 0x0 DUP1 REVERT JUMPDEST PUSH1 0x0 DUP1 REVERT JUMPDEST PUSH1 0x0 DUP1 REVERT JUMPDEST PUSH1 0x0 PUSH1 0x1F NOT PUSH1 0x1F DUP4 ADD AND SWAP1 POP SWAP2 SWAP1 POP JUMP JUMPDEST PUSH1 0x0 DUP2 PUSH1 0x1 SHR SWAP1 POP SWAP2 SWAP1 POP JUMP JUMPDEST PUSH32 0x4572726F72202D2054686973207573657220686173206E6F2073686172657300 PUSH1 0x0 DUP3 ADD MSTORE POP JUMP JUMPDEST PUSH2 0x4933 DUP2 PUSH2 0x468C JUMP JUMPDEST DUP2 EQ PUSH2 0x493E JUMPI PUSH1 0x0 DUP1 REVERT JUMPDEST POP JUMP JUMPDEST PUSH2 0x494A DUP2 PUSH2 0x469E JUMP JUMPDEST DUP2 EQ PUSH2 0x4955 JUMPI PUSH1 0x0 DUP1 REVERT JUMPDEST POP JUMP JUMPDEST PUSH2 0x4961 DUP2 PUSH2 0x46AA JUMP JUMPDEST DUP2 EQ PUSH2 0x496C JUMPI PUSH1 0x0 DUP1 REVERT JUMPDEST POP JUMP JUMPDEST PUSH2 0x4978 DUP2 PUSH2 0x46D4 JUMP JUMPDEST DUP2 EQ PUSH2 0x4983 JUMPI PUSH1 0x0 DUP1 REVERT JUMPDEST POP JUMP JUMPDEST PUSH2 0x498F DUP2 PUSH2 0x46DE JUMP JUMPDEST DUP2 EQ PUSH2 0x499A JUMPI PUSH1 0x0 DUP1 REVERT JUMPDEST POP JUMP JUMPDEST PUSH2 0x49A6 DUP2 PUSH2 0x46EB JUMP JUMPDEST DUP2 EQ PUSH2 0x49B1 JUMPI PUSH1 0x0 DUP1 REVERT JUMPDEST POP JUMP INVALID LOG2 PUSH5 0x6970667358 0x22 SLT KECCAK256 LOG0 SWAP5 PUSH20 0x65BAB5E4C9B5B6E49E18F26D6EEB5B41DC6FD353 LT 0x5F SLT 0x4B 0xBA 0xD6 0xBB MOD 0x21 PUSH5 0x736F6C6343 STOP ADDMOD SMOD STOP CALLER "
		},
		"gasEstimates": {
			"creation": {
				"codeDepositCost": "3784400",
				"executionCost": "infinite",
				"totalCost": "infinite"
			},
			"external": {
				"BTC_USD_ORACLE()": "467",
				"ETH_USD_ORACLE()": "489",
				"MATIC_USD_ORACLE()": "424",
				"QUICKSWAP_ROUTER()": "466",
				"SANDToUSDCPath(uint256)": "5090",
				"SAND_ADDRESS()": "468",
				"SAND_USD_ORACLE()": "422",
				"USDCToSANDPath(uint256)": "5091",
				"USDCToWBTCPath(uint256)": "5068",
				"USDCToWETHPath(uint256)": "5089",
				"USDCToWMATICPath(uint256)": "5023",
				"USDC_ADDRESS()": "511",
				"WBTCToUSDCPath(uint256)": "5067",
				"WBTC_ADDRESS()": "423",
				"WETHToUSDCPath(uint256)": "5002",
				"WETH_ADDRESS()": "425",
				"WMATICToUSDCPath(uint256)": "5001",
				"WMATIC_ADDRESS()": "510",
				"approveSpendingWholeBalance(address,address)": "infinite",
				"approve_spending(address,address,uint256)": "infinite",
				"checkUpkeep(bytes)": "infinite",
				"depositUserFunds(uint256)": "infinite",
				"getLatestPrice(address)": "infinite",
				"getUSDTokenBalanceOf(address,address,uint256)": "infinite",
				"getUserShares(address)": "2952",
				"interval()": "2519",
				"lastTimeStamp()": "2541",
				"performUpkeep(bytes)": "infinite",
				"quickSwapRouter()": "2710",
				"setInterval(uint256)": "22633",
				"setSharesFirstTime(address)": "47097",
				"swap(uint256,uint256,address[],address,uint256)": "infinite",
				"swapBackToUSDC(address,uint256)": "infinite",
				"swapIntoFourEqualParts(uint256)": "infinite",
				"swapProportionately(uint256,uint256,uint256,uint256,uint256,uint256)": "infinite",
				"tokenBalanceOf(address,address)": "infinite",
				"totalNumberOfShares()": "2496",
				"updateSharesOnDeposit(address,uint256,uint256)": "infinite",
				"updateSharesOnWithdrawal(address)": "infinite",
				"userNumberOfShares(address)": "2968",
				"withdraw(uint256,address,address)": "infinite",
				"withdrawUserFunds(address)": "infinite"
			},
			"internal": {
				"abs(int256)": "194",
				"find_max(struct autoBalancer.Coin memory[] memory)": "infinite",
				"find_min(struct autoBalancer.Coin memory[] memory)": "infinite"
			}
		},
		"methodIdentifiers": {
			"BTC_USD_ORACLE()": "b6e20a6a",
			"ETH_USD_ORACLE()": "718176e5",
			"MATIC_USD_ORACLE()": "8db9f39a",
			"QUICKSWAP_ROUTER()": "d0919116",
			"SANDToUSDCPath(uint256)": "a48ce279",
			"SAND_ADDRESS()": "2d365d31",
			"SAND_USD_ORACLE()": "cd3f5b53",
			"USDCToSANDPath(uint256)": "23aad7af",
			"USDCToWBTCPath(uint256)": "a15c7d10",
			"USDCToWETHPath(uint256)": "cb3601b1",
			"USDCToWMATICPath(uint256)": "69bc4388",
			"USDC_ADDRESS()": "bb09d9b7",
			"WBTCToUSDCPath(uint256)": "ca970905",
			"WBTC_ADDRESS()": "bdd5915f",
			"WETHToUSDCPath(uint256)": "44345f23",
			"WETH_ADDRESS()": "040141e5",
			"WMATICToUSDCPath(uint256)": "681bcf13",
			"WMATIC_ADDRESS()": "e95d8328",
			"approveSpendingWholeBalance(address,address)": "aa5a7aa3",
			"approve_spending(address,address,uint256)": "29a97ec2",
			"checkUpkeep(bytes)": "6e04ff0d",
			"depositUserFunds(uint256)": "c5764eec",
			"getLatestPrice(address)": "16345f18",
			"getUSDTokenBalanceOf(address,address,uint256)": "51f54887",
			"getUserShares(address)": "ba0cb22b",
			"interval()": "947a36fb",
			"lastTimeStamp()": "3f3b3b27",
			"performUpkeep(bytes)": "4585e33b",
			"quickSwapRouter()": "e189eb42",
			"setInterval(uint256)": "22a90082",
			"setSharesFirstTime(address)": "6583530f",
			"swap(uint256,uint256,address[],address,uint256)": "90f11e84",
			"swapBackToUSDC(address,uint256)": "cf412810",
			"swapIntoFourEqualParts(uint256)": "88e42b08",
			"swapProportionately(uint256,uint256,uint256,uint256,uint256,uint256)": "764f96f9",
			"tokenBalanceOf(address,address)": "1bea8006",
			"totalNumberOfShares()": "c3f5a305",
			"updateSharesOnDeposit(address,uint256,uint256)": "44250955",
			"updateSharesOnWithdrawal(address)": "4690738c",
			"userNumberOfShares(address)": "ef455bad",
			"withdraw(uint256,address,address)": "b460af94",
			"withdrawUserFunds(address)": "24e2e7bb"
		}
	},
	"abi": [
		{
			"inputs": [],
			"name": "BTC_USD_ORACLE",
			"outputs": [
				{
					"internalType": "address",
					"name": "",
					"type": "address"
				}
			],
			"stateMutability": "view",
			"type": "function"
		},
		{
			"inputs": [],
			"name": "ETH_USD_ORACLE",
			"outputs": [
				{
					"internalType": "address",
					"name": "",
					"type": "address"
				}
			],
			"stateMutability": "view",
			"type": "function"
		},
		{
			"inputs": [],
			"name": "MATIC_USD_ORACLE",
			"outputs": [
				{
					"internalType": "address",
					"name": "",
					"type": "address"
				}
			],
			"stateMutability": "view",
			"type": "function"
		},
		{
			"inputs": [],
			"name": "QUICKSWAP_ROUTER",
			"outputs": [
				{
					"internalType": "address",
					"name": "",
					"type": "address"
				}
			],
			"stateMutability": "view",
			"type": "function"
		},
		{
			"inputs": [
				{
					"internalType": "uint256",
					"name": "",
					"type": "uint256"
				}
			],
			"name": "SANDToUSDCPath",
			"outputs": [
				{
					"internalType": "address",
					"name": "",
					"type": "address"
				}
			],
			"stateMutability": "view",
			"type": "function"
		},
		{
			"inputs": [],
			"name": "SAND_ADDRESS",
			"outputs": [
				{
					"internalType": "address",
					"name": "",
					"type": "address"
				}
			],
			"stateMutability": "view",
			"type": "function"
		},
		{
			"inputs": [],
			"name": "SAND_USD_ORACLE",
			"outputs": [
				{
					"internalType": "address",
					"name": "",
					"type": "address"
				}
			],
			"stateMutability": "view",
			"type": "function"
		},
		{
			"inputs": [
				{
					"internalType": "uint256",
					"name": "",
					"type": "uint256"
				}
			],
			"name": "USDCToSANDPath",
			"outputs": [
				{
					"internalType": "address",
					"name": "",
					"type": "address"
				}
			],
			"stateMutability": "view",
			"type": "function"
		},
		{
			"inputs": [
				{
					"internalType": "uint256",
					"name": "",
					"type": "uint256"
				}
			],
			"name": "USDCToWBTCPath",
			"outputs": [
				{
					"internalType": "address",
					"name": "",
					"type": "address"
				}
			],
			"stateMutability": "view",
			"type": "function"
		},
		{
			"inputs": [
				{
					"internalType": "uint256",
					"name": "",
					"type": "uint256"
				}
			],
			"name": "USDCToWETHPath",
			"outputs": [
				{
					"internalType": "address",
					"name": "",
					"type": "address"
				}
			],
			"stateMutability": "view",
			"type": "function"
		},
		{
			"inputs": [
				{
					"internalType": "uint256",
					"name": "",
					"type": "uint256"
				}
			],
			"name": "USDCToWMATICPath",
			"outputs": [
				{
					"internalType": "address",
					"name": "",
					"type": "address"
				}
			],
			"stateMutability": "view",
			"type": "function"
		},
		{
			"inputs": [],
			"name": "USDC_ADDRESS",
			"outputs": [
				{
					"internalType": "address",
					"name": "",
					"type": "address"
				}
			],
			"stateMutability": "view",
			"type": "function"
		},
		{
			"inputs": [
				{
					"internalType": "uint256",
					"name": "",
					"type": "uint256"
				}
			],
			"name": "WBTCToUSDCPath",
			"outputs": [
				{
					"internalType": "address",
					"name": "",
					"type": "address"
				}
			],
			"stateMutability": "view",
			"type": "function"
		},
		{
			"inputs": [],
			"name": "WBTC_ADDRESS",
			"outputs": [
				{
					"internalType": "address",
					"name": "",
					"type": "address"
				}
			],
			"stateMutability": "view",
			"type": "function"
		},
		{
			"inputs": [
				{
					"internalType": "uint256",
					"name": "",
					"type": "uint256"
				}
			],
			"name": "WETHToUSDCPath",
			"outputs": [
				{
					"internalType": "address",
					"name": "",
					"type": "address"
				}
			],
			"stateMutability": "view",
			"type": "function"
		},
		{
			"inputs": [],
			"name": "WETH_ADDRESS",
			"outputs": [
				{
					"internalType": "address",
					"name": "",
					"type": "address"
				}
			],
			"stateMutability": "view",
			"type": "function"
		},
		{
			"inputs": [
				{
					"internalType": "uint256",
					"name": "",
					"type": "uint256"
				}
			],
			"name": "WMATICToUSDCPath",
			"outputs": [
				{
					"internalType": "address",
					"name": "",
					"type": "address"
				}
			],
			"stateMutability": "view",
			"type": "function"
		},
		{
			"inputs": [],
			"name": "WMATIC_ADDRESS",
			"outputs": [
				{
					"internalType": "address",
					"name": "",
					"type": "address"
				}
			],
			"stateMutability": "view",
			"type": "function"
		},
		{
			"inputs": [
				{
					"internalType": "address",
					"name": "_token",
					"type": "address"
				},
				{
					"internalType": "address",
					"name": "_spender",
					"type": "address"
				}
			],
			"name": "approveSpendingWholeBalance",
			"outputs": [],
			"stateMutability": "nonpayable",
			"type": "function"
		},
		{
			"inputs": [
				{
					"internalType": "address",
					"name": "token_address",
					"type": "address"
				},
				{
					"internalType": "address",
					"name": "spender_address",
					"type": "address"
				},
				{
					"internalType": "uint256",
					"name": "amount_to_approve",
					"type": "uint256"
				}
			],
			"name": "approve_spending",
			"outputs": [],
			"stateMutability": "nonpayable",
			"type": "function"
		},
		{
			"inputs": [
				{
					"internalType": "bytes",
					"name": "",
					"type": "bytes"
				}
			],
			"name": "checkUpkeep",
			"outputs": [
				{
					"internalType": "bool",
					"name": "upkeepNeeded",
					"type": "bool"
				},
				{
					"internalType": "bytes",
					"name": "performData",
					"type": "bytes"
				}
			],
			"stateMutability": "view",
			"type": "function"
		},
		{
			"inputs": [
				{
					"internalType": "uint256",
					"name": "amount_",
					"type": "uint256"
				}
			],
			"name": "depositUserFunds",
			"outputs": [],
			"stateMutability": "nonpayable",
			"type": "function"
		},
		{
			"inputs": [
				{
					"internalType": "address",
					"name": "_oracle_address",
					"type": "address"
				}
			],
			"name": "getLatestPrice",
			"outputs": [
				{
					"internalType": "int256",
					"name": "",
					"type": "int256"
				}
			],
			"stateMutability": "view",
			"type": "function"
		},
		{
			"inputs": [
				{
					"internalType": "address",
					"name": "token_address",
					"type": "address"
				},
				{
					"internalType": "address",
					"name": "oracle_address",
					"type": "address"
				},
				{
					"internalType": "uint256",
					"name": "token_decimals",
					"type": "uint256"
				}
			],
			"name": "getUSDTokenBalanceOf",
			"outputs": [
				{
					"internalType": "uint256",
					"name": "",
					"type": "uint256"
				}
			],
			"stateMutability": "view",
			"type": "function"
		},
		{
			"inputs": [
				{
					"internalType": "address",
					"name": "user",
					"type": "address"
				}
			],
			"name": "getUserShares",
			"outputs": [
				{
					"internalType": "uint256",
					"name": "userShares",
					"type": "uint256"
				}
			],
			"stateMutability": "view",
			"type": "function"
		},
		{
			"inputs": [],
			"name": "interval",
			"outputs": [
				{
					"internalType": "uint256",
					"name": "",
					"type": "uint256"
				}
			],
			"stateMutability": "view",
			"type": "function"
		},
		{
			"inputs": [],
			"name": "lastTimeStamp",
			"outputs": [
				{
					"internalType": "uint256",
					"name": "",
					"type": "uint256"
				}
			],
			"stateMutability": "view",
			"type": "function"
		},
		{
			"inputs": [
				{
					"internalType": "bytes",
					"name": "performData",
					"type": "bytes"
				}
			],
			"name": "performUpkeep",
			"outputs": [],
			"stateMutability": "nonpayable",
			"type": "function"
		},
		{
			"inputs": [],
			"name": "quickSwapRouter",
			"outputs": [
				{
					"internalType": "contract IUniswapV2Router02",
					"name": "",
					"type": "address"
				}
			],
			"stateMutability": "view",
			"type": "function"
		},
		{
			"inputs": [
				{
					"internalType": "uint256",
					"name": "new_interval",
					"type": "uint256"
				}
			],
			"name": "setInterval",
			"outputs": [],
			"stateMutability": "nonpayable",
			"type": "function"
		},
		{
			"inputs": [
				{
					"internalType": "address",
					"name": "user",
					"type": "address"
				}
			],
			"name": "setSharesFirstTime",
			"outputs": [],
			"stateMutability": "nonpayable",
			"type": "function"
		},
		{
			"inputs": [
				{
					"internalType": "uint256",
					"name": "_amountIn",
					"type": "uint256"
				},
				{
					"internalType": "uint256",
					"name": "_amountOutMin",
					"type": "uint256"
				},
				{
					"internalType": "address[]",
					"name": "_path",
					"type": "address[]"
				},
				{
					"internalType": "address",
					"name": "_acct",
					"type": "address"
				},
				{
					"internalType": "uint256",
					"name": "_deadline",
					"type": "uint256"
				}
			],
			"name": "swap",
			"outputs": [],
			"stateMutability": "nonpayable",
			"type": "function"
		},
		{
			"inputs": [
				{
					"internalType": "address",
					"name": "_token",
					"type": "address"
				},
				{
					"internalType": "uint256",
					"name": "_amount",
					"type": "uint256"
				}
			],
			"name": "swapBackToUSDC",
			"outputs": [],
			"stateMutability": "nonpayable",
			"type": "function"
		},
		{
			"inputs": [
				{
					"internalType": "uint256",
					"name": "amount",
					"type": "uint256"
				}
			],
			"name": "swapIntoFourEqualParts",
			"outputs": [],
			"stateMutability": "nonpayable",
			"type": "function"
		},
		{
			"inputs": [
				{
					"internalType": "uint256",
					"name": "WMATIC_amount",
					"type": "uint256"
				},
				{
					"internalType": "uint256",
					"name": "SAND_amount",
					"type": "uint256"
				},
				{
					"internalType": "uint256",
					"name": "WETH_amount",
					"type": "uint256"
				},
				{
					"internalType": "uint256",
					"name": "WBTC_amount",
					"type": "uint256"
				},
				{
					"internalType": "uint256",
					"name": "totalUSDAmount",
					"type": "uint256"
				},
				{
					"internalType": "uint256",
					"name": "depositAmount",
					"type": "uint256"
				}
			],
			"name": "swapProportionately",
			"outputs": [],
			"stateMutability": "nonpayable",
			"type": "function"
		},
		{
			"inputs": [
				{
					"internalType": "address",
					"name": "token_address",
					"type": "address"
				},
				{
					"internalType": "address",
					"name": "user_address",
					"type": "address"
				}
			],
			"name": "tokenBalanceOf",
			"outputs": [
				{
					"internalType": "uint256",
					"name": "token_balance",
					"type": "uint256"
				}
			],
			"stateMutability": "view",
			"type": "function"
		},
		{
			"inputs": [],
			"name": "totalNumberOfShares",
			"outputs": [
				{
					"internalType": "uint256",
					"name": "",
					"type": "uint256"
				}
			],
			"stateMutability": "view",
			"type": "function"
		},
		{
			"inputs": [
				{
					"internalType": "address",
					"name": "user",
					"type": "address"
				},
				{
					"internalType": "uint256",
					"name": "total_in_USD",
					"type": "uint256"
				},
				{
					"internalType": "uint256",
					"name": "deposit_amount",
					"type": "uint256"
				}
			],
			"name": "updateSharesOnDeposit",
			"outputs": [],
			"stateMutability": "nonpayable",
			"type": "function"
		},
		{
			"inputs": [
				{
					"internalType": "address",
					"name": "user",
					"type": "address"
				}
			],
			"name": "updateSharesOnWithdrawal",
			"outputs": [],
			"stateMutability": "nonpayable",
			"type": "function"
		},
		{
			"inputs": [
				{
					"internalType": "address",
					"name": "",
					"type": "address"
				}
			],
			"name": "userNumberOfShares",
			"outputs": [
				{
					"internalType": "uint256",
					"name": "",
					"type": "uint256"
				}
			],
			"stateMutability": "view",
			"type": "function"
		},
		{
			"inputs": [
				{
					"internalType": "uint256",
					"name": "amount_",
					"type": "uint256"
				},
				{
					"internalType": "address",
					"name": "token_address",
					"type": "address"
				},
				{
					"internalType": "address",
					"name": "address_to",
					"type": "address"
				}
			],
			"name": "withdraw",
			"outputs": [],
			"stateMutability": "nonpayable",
			"type": "function"
		},
		{
			"inputs": [
				{
					"internalType": "address",
					"name": "user",
					"type": "address"
				}
			],
			"name": "withdrawUserFunds",
			"outputs": [],
			"stateMutability": "nonpayable",
			"type": "function"
		},
		{
			"stateMutability": "payable",
			"type": "receive"
		}
	]
}