{
  "contractName": "autoBalancer",
  "abi": [
    {
      "inputs": [],
      "stateMutability": "nonpayable",
      "type": "constructor"
    },
    {
      "anonymous": false,
      "inputs": [
        {
          "indexed": true,
          "internalType": "address",
          "name": "owner",
          "type": "address"
        },
        {
          "indexed": true,
          "internalType": "address",
          "name": "spender",
          "type": "address"
        },
        {
          "indexed": false,
          "internalType": "uint256",
          "name": "value",
          "type": "uint256"
        }
      ],
      "name": "Approval",
      "type": "event"
    },
    {
      "anonymous": false,
      "inputs": [
        {
          "indexed": true,
          "internalType": "address",
          "name": "from",
          "type": "address"
        },
        {
          "indexed": true,
          "internalType": "address",
          "name": "to",
          "type": "address"
        },
        {
          "indexed": false,
          "internalType": "uint256",
          "name": "value",
          "type": "uint256"
        }
      ],
      "name": "Transfer",
      "type": "event"
    },
    {
      "inputs": [],
      "name": "BTC_USD_ORACLE",
      "outputs": [
        {
          "internalType": "address",
          "name": "",
          "type": "address"
        }
      ],
      "stateMutability": "view",
      "type": "function"
    },
    {
      "inputs": [],
      "name": "ETH_USD_ORACLE",
      "outputs": [
        {
          "internalType": "address",
          "name": "",
          "type": "address"
        }
      ],
      "stateMutability": "view",
      "type": "function"
    },
    {
      "inputs": [],
      "name": "MATIC_USD_ORACLE",
      "outputs": [
        {
          "internalType": "address",
          "name": "",
          "type": "address"
        }
      ],
      "stateMutability": "view",
      "type": "function"
    },
    {
      "inputs": [],
      "name": "QUICKSWAP_ROUTER",
      "outputs": [
        {
          "internalType": "address",
          "name": "",
          "type": "address"
        }
      ],
      "stateMutability": "view",
      "type": "function"
    },
    {
      "inputs": [
        {
          "internalType": "uint256",
          "name": "",
          "type": "uint256"
        }
      ],
      "name": "SANDToUSDCPath",
      "outputs": [
        {
          "internalType": "address",
          "name": "",
          "type": "address"
        }
      ],
      "stateMutability": "view",
      "type": "function"
    },
    {
      "inputs": [],
      "name": "SAND_ADDRESS",
      "outputs": [
        {
          "internalType": "address",
          "name": "",
          "type": "address"
        }
      ],
      "stateMutability": "view",
      "type": "function"
    },
    {
      "inputs": [],
      "name": "SAND_USD_ORACLE",
      "outputs": [
        {
          "internalType": "address",
          "name": "",
          "type": "address"
        }
      ],
      "stateMutability": "view",
      "type": "function"
    },
    {
      "inputs": [
        {
          "internalType": "uint256",
          "name": "",
          "type": "uint256"
        }
      ],
      "name": "USDCToSANDPath",
      "outputs": [
        {
          "internalType": "address",
          "name": "",
          "type": "address"
        }
      ],
      "stateMutability": "view",
      "type": "function"
    },
    {
      "inputs": [
        {
          "internalType": "uint256",
          "name": "",
          "type": "uint256"
        }
      ],
      "name": "USDCToWBTCPath",
      "outputs": [
        {
          "internalType": "address",
          "name": "",
          "type": "address"
        }
      ],
      "stateMutability": "view",
      "type": "function"
    },
    {
      "inputs": [
        {
          "internalType": "uint256",
          "name": "",
          "type": "uint256"
        }
      ],
      "name": "USDCToWETHPath",
      "outputs": [
        {
          "internalType": "address",
          "name": "",
          "type": "address"
        }
      ],
      "stateMutability": "view",
      "type": "function"
    },
    {
      "inputs": [
        {
          "internalType": "uint256",
          "name": "",
          "type": "uint256"
        }
      ],
      "name": "USDCToWMATICPath",
      "outputs": [
        {
          "internalType": "address",
          "name": "",
          "type": "address"
        }
      ],
      "stateMutability": "view",
      "type": "function"
    },
    {
      "inputs": [],
      "name": "USDC_ADDRESS",
      "outputs": [
        {
          "internalType": "address",
          "name": "",
          "type": "address"
        }
      ],
      "stateMutability": "view",
      "type": "function"
    },
    {
      "inputs": [
        {
          "internalType": "uint256",
          "name": "",
          "type": "uint256"
        }
      ],
      "name": "WBTCToUSDCPath",
      "outputs": [
        {
          "internalType": "address",
          "name": "",
          "type": "address"
        }
      ],
      "stateMutability": "view",
      "type": "function"
    },
    {
      "inputs": [],
      "name": "WBTC_ADDRESS",
      "outputs": [
        {
          "internalType": "address",
          "name": "",
          "type": "address"
        }
      ],
      "stateMutability": "view",
      "type": "function"
    },
    {
      "inputs": [
        {
          "internalType": "uint256",
          "name": "",
          "type": "uint256"
        }
      ],
      "name": "WETHToUSDCPath",
      "outputs": [
        {
          "internalType": "address",
          "name": "",
          "type": "address"
        }
      ],
      "stateMutability": "view",
      "type": "function"
    },
    {
      "inputs": [],
      "name": "WETH_ADDRESS",
      "outputs": [
        {
          "internalType": "address",
          "name": "",
          "type": "address"
        }
      ],
      "stateMutability": "view",
      "type": "function"
    },
    {
      "inputs": [
        {
          "internalType": "uint256",
          "name": "",
          "type": "uint256"
        }
      ],
      "name": "WMATICToUSDCPath",
      "outputs": [
        {
          "internalType": "address",
          "name": "",
          "type": "address"
        }
      ],
      "stateMutability": "view",
      "type": "function"
    },
    {
      "inputs": [],
      "name": "WMATIC_ADDRESS",
      "outputs": [
        {
          "internalType": "address",
          "name": "",
          "type": "address"
        }
      ],
      "stateMutability": "view",
      "type": "function"
    },
    {
      "inputs": [
        {
          "internalType": "address",
          "name": "owner",
          "type": "address"
        },
        {
          "internalType": "address",
          "name": "spender",
          "type": "address"
        }
      ],
      "name": "allowance",
      "outputs": [
        {
          "internalType": "uint256",
          "name": "",
          "type": "uint256"
        }
      ],
      "stateMutability": "view",
      "type": "function"
    },
    {
      "inputs": [
        {
          "internalType": "address",
          "name": "spender",
          "type": "address"
        },
        {
          "internalType": "uint256",
          "name": "amount",
          "type": "uint256"
        }
      ],
      "name": "approve",
      "outputs": [
        {
          "internalType": "bool",
          "name": "",
          "type": "bool"
        }
      ],
      "stateMutability": "nonpayable",
      "type": "function"
    },
    {
      "inputs": [
        {
          "internalType": "address",
          "name": "account",
          "type": "address"
        }
      ],
      "name": "balanceOf",
      "outputs": [
        {
          "internalType": "uint256",
          "name": "",
          "type": "uint256"
        }
      ],
      "stateMutability": "view",
      "type": "function"
    },
    {
      "inputs": [],
      "name": "decimals",
      "outputs": [
        {
          "internalType": "uint8",
          "name": "",
          "type": "uint8"
        }
      ],
      "stateMutability": "view",
      "type": "function"
    },
    {
      "inputs": [
        {
          "internalType": "address",
          "name": "spender",
          "type": "address"
        },
        {
          "internalType": "uint256",
          "name": "subtractedValue",
          "type": "uint256"
        }
      ],
      "name": "decreaseAllowance",
      "outputs": [
        {
          "internalType": "bool",
          "name": "",
          "type": "bool"
        }
      ],
      "stateMutability": "nonpayable",
      "type": "function"
    },
    {
      "inputs": [
        {
          "internalType": "address",
          "name": "spender",
          "type": "address"
        },
        {
          "internalType": "uint256",
          "name": "addedValue",
          "type": "uint256"
        }
      ],
      "name": "increaseAllowance",
      "outputs": [
        {
          "internalType": "bool",
          "name": "",
          "type": "bool"
        }
      ],
      "stateMutability": "nonpayable",
      "type": "function"
    },
    {
      "inputs": [],
      "name": "interval",
      "outputs": [
        {
          "internalType": "uint256",
          "name": "",
          "type": "uint256"
        }
      ],
      "stateMutability": "view",
      "type": "function"
    },
    {
      "inputs": [],
      "name": "lastTimeStamp",
      "outputs": [
        {
          "internalType": "uint256",
          "name": "",
          "type": "uint256"
        }
      ],
      "stateMutability": "view",
      "type": "function"
    },
    {
      "inputs": [],
      "name": "name",
      "outputs": [
        {
          "internalType": "string",
          "name": "",
          "type": "string"
        }
      ],
      "stateMutability": "view",
      "type": "function"
    },
    {
      "inputs": [],
      "name": "quickSwapRouter",
      "outputs": [
        {
          "internalType": "contract IUniswapV2Router02",
          "name": "",
          "type": "address"
        }
      ],
      "stateMutability": "view",
      "type": "function"
    },
    {
      "inputs": [],
      "name": "symbol",
      "outputs": [
        {
          "internalType": "string",
          "name": "",
          "type": "string"
        }
      ],
      "stateMutability": "view",
      "type": "function"
    },
    {
      "inputs": [],
      "name": "totalSupply",
      "outputs": [
        {
          "internalType": "uint256",
          "name": "",
          "type": "uint256"
        }
      ],
      "stateMutability": "view",
      "type": "function"
    },
    {
      "inputs": [
        {
          "internalType": "address",
          "name": "to",
          "type": "address"
        },
        {
          "internalType": "uint256",
          "name": "amount",
          "type": "uint256"
        }
      ],
      "name": "transfer",
      "outputs": [
        {
          "internalType": "bool",
          "name": "",
          "type": "bool"
        }
      ],
      "stateMutability": "nonpayable",
      "type": "function"
    },
    {
      "inputs": [
        {
          "internalType": "address",
          "name": "from",
          "type": "address"
        },
        {
          "internalType": "address",
          "name": "to",
          "type": "address"
        },
        {
          "internalType": "uint256",
          "name": "amount",
          "type": "uint256"
        }
      ],
      "name": "transferFrom",
      "outputs": [
        {
          "internalType": "bool",
          "name": "",
          "type": "bool"
        }
      ],
      "stateMutability": "nonpayable",
      "type": "function"
    },
    {
      "stateMutability": "payable",
      "type": "receive"
    },
    {
      "inputs": [
        {
          "internalType": "uint256",
          "name": "new_interval",
          "type": "uint256"
        }
      ],
      "name": "setInterval",
      "outputs": [],
      "stateMutability": "nonpayable",
      "type": "function"
    },
    {
      "inputs": [
        {
          "internalType": "address",
          "name": "_oracle_address",
          "type": "address"
        }
      ],
      "name": "getLatestPrice",
      "outputs": [
        {
          "internalType": "int256",
          "name": "",
          "type": "int256"
        }
      ],
      "stateMutability": "view",
      "type": "function"
    },
    {
      "inputs": [
        {
          "internalType": "bytes",
          "name": "",
          "type": "bytes"
        }
      ],
      "name": "checkUpkeep",
      "outputs": [
        {
          "internalType": "bool",
          "name": "upkeepNeeded",
          "type": "bool"
        },
        {
          "internalType": "bytes",
          "name": "performData",
          "type": "bytes"
        }
      ],
      "stateMutability": "view",
      "type": "function"
    },
    {
      "inputs": [
        {
          "internalType": "bytes",
          "name": "performData",
          "type": "bytes"
        }
      ],
      "name": "performUpkeep",
      "outputs": [],
      "stateMutability": "nonpayable",
      "type": "function"
    },
    {
      "inputs": [
        {
          "internalType": "address",
          "name": "token_address",
          "type": "address"
        },
        {
          "internalType": "address",
          "name": "spender_address",
          "type": "address"
        },
        {
          "internalType": "uint256",
          "name": "amount_to_approve",
          "type": "uint256"
        }
      ],
      "name": "approve_spending",
      "outputs": [],
      "stateMutability": "nonpayable",
      "type": "function"
    },
    {
      "inputs": [
        {
          "internalType": "uint256",
          "name": "amount_",
          "type": "uint256"
        }
      ],
      "name": "depositUserFunds",
      "outputs": [],
      "stateMutability": "nonpayable",
      "type": "function"
    },
    {
      "inputs": [
        {
          "internalType": "address",
          "name": "token_address",
          "type": "address"
        },
        {
          "internalType": "address",
          "name": "oracle_address",
          "type": "address"
        },
        {
          "internalType": "uint256",
          "name": "token_decimals",
          "type": "uint256"
        }
      ],
      "name": "getUSDTokenBalanceOf",
      "outputs": [
        {
          "internalType": "uint256",
          "name": "",
          "type": "uint256"
        }
      ],
      "stateMutability": "view",
      "type": "function"
    },
    {
      "inputs": [
        {
          "internalType": "uint256",
          "name": "WMATIC_amount",
          "type": "uint256"
        },
        {
          "internalType": "uint256",
          "name": "SAND_amount",
          "type": "uint256"
        },
        {
          "internalType": "uint256",
          "name": "WETH_amount",
          "type": "uint256"
        },
        {
          "internalType": "uint256",
          "name": "WBTC_amount",
          "type": "uint256"
        },
        {
          "internalType": "uint256",
          "name": "totalUSDAmount",
          "type": "uint256"
        },
        {
          "internalType": "uint256",
          "name": "depositAmount",
          "type": "uint256"
        }
      ],
      "name": "swapProportionately",
      "outputs": [],
      "stateMutability": "nonpayable",
      "type": "function"
    },
    {
      "inputs": [
        {
          "internalType": "uint256",
          "name": "amount",
          "type": "uint256"
        }
      ],
      "name": "swapIntoFourEqualParts",
      "outputs": [],
      "stateMutability": "nonpayable",
      "type": "function"
    },
    {
      "inputs": [
        {
          "internalType": "address",
          "name": "user",
          "type": "address"
        },
        {
          "internalType": "uint256",
          "name": "deposit_amount",
          "type": "uint256"
        }
      ],
      "name": "mintOnFirstDeposit",
      "outputs": [],
      "stateMutability": "nonpayable",
      "type": "function"
    },
    {
      "inputs": [
        {
          "internalType": "address",
          "name": "user",
          "type": "address"
        },
        {
          "internalType": "uint256",
          "name": "total_in_USD",
          "type": "uint256"
        },
        {
          "internalType": "uint256",
          "name": "deposit_amount",
          "type": "uint256"
        }
      ],
      "name": "mintOnDeposit",
      "outputs": [],
      "stateMutability": "nonpayable",
      "type": "function"
    },
    {
      "inputs": [
        {
          "internalType": "address",
          "name": "user",
          "type": "address"
        }
      ],
      "name": "withdrawUserFunds",
      "outputs": [],
      "stateMutability": "nonpayable",
      "type": "function"
    },
    {
      "inputs": [
        {
          "internalType": "uint256",
          "name": "amount_",
          "type": "uint256"
        },
        {
          "internalType": "address",
          "name": "token_address",
          "type": "address"
        },
        {
          "internalType": "address",
          "name": "address_to",
          "type": "address"
        }
      ],
      "name": "withdraw",
      "outputs": [],
      "stateMutability": "nonpayable",
      "type": "function"
    },
    {
      "inputs": [
        {
          "internalType": "address",
          "name": "_token",
          "type": "address"
        },
        {
          "internalType": "address",
          "name": "_spender",
          "type": "address"
        }
      ],
      "name": "approveSpendingWholeBalance",
      "outputs": [],
      "stateMutability": "nonpayable",
      "type": "function"
    },
    {
      "inputs": [
        {
          "internalType": "address",
          "name": "_token",
          "type": "address"
        },
        {
          "internalType": "uint256",
          "name": "_amount",
          "type": "uint256"
        }
      ],
      "name": "swapBackToUSDC",
      "outputs": [],
      "stateMutability": "nonpayable",
      "type": "function"
    },
    {
      "inputs": [
        {
          "internalType": "address",
          "name": "token_address",
          "type": "address"
        },
        {
          "internalType": "address",
          "name": "user_address",
          "type": "address"
        }
      ],
      "name": "tokenBalanceOf",
      "outputs": [
        {
          "internalType": "uint256",
          "name": "token_balance",
          "type": "uint256"
        }
      ],
      "stateMutability": "view",
      "type": "function"
    },
    {
      "inputs": [
        {
          "internalType": "uint256",
          "name": "_amountIn",
          "type": "uint256"
        },
        {
          "internalType": "uint256",
          "name": "_amountOutMin",
          "type": "uint256"
        },
        {
          "internalType": "address[]",
          "name": "_path",
          "type": "address[]"
        },
        {
          "internalType": "address",
          "name": "_acct",
          "type": "address"
        },
        {
          "internalType": "uint256",
          "name": "_deadline",
          "type": "uint256"
        }
      ],
      "name": "swap",
      "outputs": [],
      "stateMutability": "nonpayable",
      "type": "function"
    }
  ],
  "bytecode": "0x60806040526040518060400160405280732791bca1f2de4661ed88a30c99a7a9449aa8417473ffffffffffffffffffffffffffffffffffffffff1673ffffffffffffffffffffffffffffffffffffffff168152602001730d500b1d8e8ef31e21c99d1db9a6444d3adf127073ffffffffffffffffffffffffffffffffffffffff1673ffffffffffffffffffffffffffffffffffffffff168152506005906002620000ab92919062000645565b506040518060400160405280732791bca1f2de4661ed88a30c99a7a9449aa8417473ffffffffffffffffffffffffffffffffffffffff1673ffffffffffffffffffffffffffffffffffffffff16815260200173bbba073c31bf03b8acf7c28ef0738decf369568373ffffffffffffffffffffffffffffffffffffffff1673ffffffffffffffffffffffffffffffffffffffff1681525060069060026200015392919062000645565b506040518060400160405280732791bca1f2de4661ed88a30c99a7a9449aa8417473ffffffffffffffffffffffffffffffffffffffff1673ffffffffffffffffffffffffffffffffffffffff168152602001737ceb23fd6bc0add59e62ac25578270cff1b9f61973ffffffffffffffffffffffffffffffffffffffff1673ffffffffffffffffffffffffffffffffffffffff168152506007906002620001fb92919062000645565b506040518060400160405280732791bca1f2de4661ed88a30c99a7a9449aa8417473ffffffffffffffffffffffffffffffffffffffff1673ffffffffffffffffffffffffffffffffffffffff168152602001731bfd67037b42cf73acf2047067bd4f2c47d9bfd673ffffffffffffffffffffffffffffffffffffffff1673ffffffffffffffffffffffffffffffffffffffff168152506008906002620002a392919062000645565b506040518060400160405280730d500b1d8e8ef31e21c99d1db9a6444d3adf127073ffffffffffffffffffffffffffffffffffffffff1673ffffffffffffffffffffffffffffffffffffffff168152602001732791bca1f2de4661ed88a30c99a7a9449aa8417473ffffffffffffffffffffffffffffffffffffffff1673ffffffffffffffffffffffffffffffffffffffff1681525060099060026200034b92919062000645565b50604051806040016040528073bbba073c31bf03b8acf7c28ef0738decf369568373ffffffffffffffffffffffffffffffffffffffff1673ffffffffffffffffffffffffffffffffffffffff168152602001732791bca1f2de4661ed88a30c99a7a9449aa8417473ffffffffffffffffffffffffffffffffffffffff1673ffffffffffffffffffffffffffffffffffffffff16815250600a906002620003f392919062000645565b506040518060400160405280737ceb23fd6bc0add59e62ac25578270cff1b9f61973ffffffffffffffffffffffffffffffffffffffff1673ffffffffffffffffffffffffffffffffffffffff168152602001732791bca1f2de4661ed88a30c99a7a9449aa8417473ffffffffffffffffffffffffffffffffffffffff1673ffffffffffffffffffffffffffffffffffffffff16815250600b9060026200049b92919062000645565b506040518060400160405280731bfd67037b42cf73acf2047067bd4f2c47d9bfd673ffffffffffffffffffffffffffffffffffffffff1673ffffffffffffffffffffffffffffffffffffffff168152602001732791bca1f2de4661ed88a30c99a7a9449aa8417473ffffffffffffffffffffffffffffffffffffffff1673ffffffffffffffffffffffffffffffffffffffff16815250600c9060026200054392919062000645565b50610e10600e5573a5e0829caced8ffdd4de3c43696c57f7d7a678ff600f60006101000a81548173ffffffffffffffffffffffffffffffffffffffff021916908373ffffffffffffffffffffffffffffffffffffffff160217905550348015620005ac57600080fd5b506040518060400160405280600c81526020017f6175746f42616c616e63657200000000000000000000000000000000000000008152506040518060400160405280600381526020017f414241000000000000000000000000000000000000000000000000000000000081525081600390816200062a91906200096d565b5080600490816200063c91906200096d565b50505062000a54565b828054828255906000526020600020908101928215620006c1579160200282015b82811115620006c05782518260006101000a81548173ffffffffffffffffffffffffffffffffffffffff021916908373ffffffffffffffffffffffffffffffffffffffff1602179055509160200191906001019062000666565b5b509050620006d09190620006d4565b5090565b5b80821115620006ef576000816000905550600101620006d5565b5090565b600081519050919050565b7f4e487b7100000000000000000000000000000000000000000000000000000000600052604160045260246000fd5b7f4e487b7100000000000000000000000000000000000000000000000000000000600052602260045260246000fd5b600060028204905060018216806200077557607f821691505b6020821081036200078b576200078a6200072d565b5b50919050565b60008190508160005260206000209050919050565b60006020601f8301049050919050565b600082821b905092915050565b600060088302620007f57fffffffffffffffffffffffffffffffffffffffffffffffffffffffffffffffff82620007b6565b620008018683620007b6565b95508019841693508086168417925050509392505050565b6000819050919050565b6000819050919050565b60006200084e62000848620008428462000819565b62000823565b62000819565b9050919050565b6000819050919050565b6200086a836200082d565b62000882620008798262000855565b848454620007c3565b825550505050565b600090565b620008996200088a565b620008a68184846200085f565b505050565b5b81811015620008ce57620008c26000826200088f565b600181019050620008ac565b5050565b601f8211156200091d57620008e78162000791565b620008f284620007a6565b8101602085101562000902578190505b6200091a6200091185620007a6565b830182620008ab565b50505b505050565b600082821c905092915050565b6000620009426000198460080262000922565b1980831691505092915050565b60006200095d83836200092f565b9150826002028217905092915050565b6200097882620006f3565b67ffffffffffffffff811115620009945762000993620006fe565b5b620009a082546200075c565b620009ad828285620008d2565b600060209050601f831160018114620009e55760008415620009d0578287015190505b620009dc85826200094f565b86555062000a4c565b601f198416620009f58662000791565b60005b8281101562000a1f57848901518255600182019150602085019450602081019050620009f8565b8683101562000a3f578489015162000a3b601f8916826200092f565b8355505b6001600288020188555050505b505050505050565b6157278062000a646000396000f3fe6080604052600436106102b25760003560e01c8063764f96f911610175578063b6e20a6a116100dc578063cd3f5b5311610095578063dd62ed3e1161006f578063dd62ed3e14610b7a578063e189eb4214610bb7578063e95d832814610be2578063f8c0f6b414610c0d576102b9565b8063cd3f5b5314610afb578063cf41281014610b26578063d091911614610b4f576102b9565b8063b6e20a6a146109d7578063bb09d9b714610a02578063bdd5915f14610a2d578063c5764eec14610a58578063ca97090514610a81578063cb3601b114610abe576102b9565b8063a15c7d101161012e578063a15c7d1014610891578063a457c2d7146108ce578063a48ce2791461090b578063a9059cbb14610948578063aa5a7aa314610985578063b460af94146109ae576102b9565b8063764f96f91461079557806388e42b08146107be5780638db9f39a146107e757806390f11e8414610812578063947a36fb1461083b57806395d89b4114610866576102b9565b80632d365d311161021957806351f54887116101d257806351f5488714610638578063681bcf131461067557806369bc4388146106b25780636e04ff0d146106ef57806370a082311461072d578063718176e51461076a576102b9565b80632d365d3114610514578063313ce5671461053f578063395093511461056a5780633f3b3b27146105a757806344345f23146105d25780634585e33b1461060f576102b9565b80631bea80061161026b5780631bea8006146103e257806322a900821461041f57806323aad7af1461044857806323b872dd1461048557806324e2e7bb146104c257806329a97ec2146104eb576102b9565b806301f10d2a146102be578063040141e5146102e757806306fdde0314610312578063095ea7b31461033d57806316345f181461037a57806318160ddd146103b7576102b9565b366102b957005b600080fd5b3480156102ca57600080fd5b506102e560048036038101906102e09190613e05565b610c36565b005b3480156102f357600080fd5b506102fc610c68565b6040516103099190613e67565b60405180910390f35b34801561031e57600080fd5b50610327610c80565b6040516103349190613f12565b60405180910390f35b34801561034957600080fd5b50610364600480360381019061035f9190613f34565b610d12565b6040516103719190613f8f565b60405180910390f35b34801561038657600080fd5b506103a1600480360381019061039c9190613faa565b610d35565b6040516103ae9190613ff0565b60405180910390f35b3480156103c357600080fd5b506103cc610dc4565b6040516103d9919061401a565b60405180910390f35b3480156103ee57600080fd5b5061040960048036038101906104049190614035565b610dce565b604051610416919061401a565b60405180910390f35b34801561042b57600080fd5b5061044660048036038101906104419190614075565b610e57565b005b34801561045457600080fd5b5061046f600480360381019061046a9190614075565b610e61565b60405161047c9190613e67565b60405180910390f35b34801561049157600080fd5b506104ac60048036038101906104a791906140a2565b610ea0565b6040516104b99190613f8f565b60405180910390f35b3480156104ce57600080fd5b506104e960048036038101906104e49190613faa565b610ecf565b005b3480156104f757600080fd5b50610512600480360381019061050d91906140a2565b61118a565b005b34801561052057600080fd5b5061052961120e565b6040516105369190613e67565b60405180910390f35b34801561054b57600080fd5b50610554611226565b6040516105619190614111565b60405180910390f35b34801561057657600080fd5b50610591600480360381019061058c9190613f34565b61122f565b60405161059e9190613f8f565b60405180910390f35b3480156105b357600080fd5b506105bc611266565b6040516105c9919061401a565b60405180910390f35b3480156105de57600080fd5b506105f960048036038101906105f49190614075565b61126c565b6040516106069190613e67565b60405180910390f35b34801561061b57600080fd5b5061063660048036038101906106319190614191565b6112ab565b005b34801561064457600080fd5b5061065f600480360381019061065a91906140a2565b6117c1565b60405161066c919061401a565b60405180910390f35b34801561068157600080fd5b5061069c60048036038101906106979190614075565b61180c565b6040516106a99190613e67565b60405180910390f35b3480156106be57600080fd5b506106d960048036038101906106d49190614075565b61184b565b6040516106e69190613e67565b60405180910390f35b3480156106fb57600080fd5b5061071660048036038101906107119190614191565b61188a565b604051610724929190614233565b60405180910390f35b34801561073957600080fd5b50610754600480360381019061074f9190613faa565b612648565b604051610761919061401a565b60405180910390f35b34801561077657600080fd5b5061077f612690565b60405161078c9190613e67565b60405180910390f35b3480156107a157600080fd5b506107bc60048036038101906107b79190614263565b6126a8565b005b3480156107ca57600080fd5b506107e560048036038101906107e09190614075565b612984565b005b3480156107f357600080fd5b506107fc612c1b565b6040516108099190613e67565b60405180910390f35b34801561081e57600080fd5b506108396004803603810190610834919061442e565b612c33565b005b34801561084757600080fd5b50610850612ce6565b60405161085d919061401a565b60405180910390f35b34801561087257600080fd5b5061087b612cec565b6040516108889190613f12565b60405180910390f35b34801561089d57600080fd5b506108b860048036038101906108b39190614075565b612d7e565b6040516108c59190613e67565b60405180910390f35b3480156108da57600080fd5b506108f560048036038101906108f09190613f34565b612dbd565b6040516109029190613f8f565b60405180910390f35b34801561091757600080fd5b50610932600480360381019061092d9190614075565b612e34565b60405161093f9190613e67565b60405180910390f35b34801561095457600080fd5b5061096f600480360381019061096a9190613f34565b612e73565b60405161097c9190613f8f565b60405180910390f35b34801561099157600080fd5b506109ac60048036038101906109a79190614035565b612e96565b005b3480156109ba57600080fd5b506109d560048036038101906109d091906144c5565b612f24565b005b3480156109e357600080fd5b506109ec612fae565b6040516109f99190613e67565b60405180910390f35b348015610a0e57600080fd5b50610a17612fc6565b604051610a249190613e67565b60405180910390f35b348015610a3957600080fd5b50610a42612fde565b604051610a4f9190613e67565b60405180910390f35b348015610a6457600080fd5b50610a7f6004803603810190610a7a9190614075565b612ff6565b005b348015610a8d57600080fd5b50610aa86004803603810190610aa39190614075565b613216565b604051610ab59190613e67565b60405180910390f35b348015610aca57600080fd5b50610ae56004803603810190610ae09190614075565b613255565b604051610af29190613e67565b60405180910390f35b348015610b0757600080fd5b50610b10613294565b604051610b1d9190613e67565b60405180910390f35b348015610b3257600080fd5b50610b4d6004803603810190610b489190613f34565b6132ac565b005b348015610b5b57600080fd5b50610b646133c4565b604051610b719190613e67565b60405180910390f35b348015610b8657600080fd5b50610ba16004803603810190610b9c9190614035565b6133dc565b604051610bae919061401a565b60405180910390f35b348015610bc357600080fd5b50610bcc613463565b604051610bd99190614577565b60405180910390f35b348015610bee57600080fd5b50610bf7613489565b604051610c049190613e67565b60405180910390f35b348015610c1957600080fd5b50610c346004803603810190610c2f9190613f34565b6134a1565b005b600082610c41610dc4565b83610c4c91906145c1565b610c569190614632565b9050610c6284826134af565b50505050565b737ceb23fd6bc0add59e62ac25578270cff1b9f61981565b606060038054610c8f90614692565b80601f0160208091040260200160405190810160405280929190818152602001828054610cbb90614692565b8015610d085780601f10610cdd57610100808354040283529160200191610d08565b820191906000526020600020905b815481529060010190602001808311610ceb57829003601f168201915b5050505050905090565b600080610d1d61360e565b9050610d2a818585613616565b600191505092915050565b6000806000806000808673ffffffffffffffffffffffffffffffffffffffff1663feaf968c6040518163ffffffff1660e01b815260040160a060405180830381865afa158015610d89573d6000803e3d6000fd5b505050506040513d601f19601f82011682018060405250810190610dad9190614746565b945094509450945094508395505050505050919050565b6000600254905090565b6000808390508073ffffffffffffffffffffffffffffffffffffffff166370a08231846040518263ffffffff1660e01b8152600401610e0d9190613e67565b602060405180830381865afa158015610e2a573d6000803e3d6000fd5b505050506040513d601f19601f82011682018060405250810190610e4e91906147c1565b91505092915050565b80600e8190555050565b60068181548110610e7157600080fd5b906000526020600020016000915054906101000a900473ffffffffffffffffffffffffffffffffffffffff1681565b600080610eab61360e565b9050610eb88582856137df565b610ec385858561386b565b60019150509392505050565b6000610ed9610dc4565b610ef7730d500b1d8e8ef31e21c99d1db9a6444d3adf127030610dce565b610f0084612648565b610f0a91906145c1565b610f149190614632565b90506000610f20610dc4565b610f3e73bbba073c31bf03b8acf7c28ef0738decf369568330610dce565b610f4785612648565b610f5191906145c1565b610f5b9190614632565b90506000610f67610dc4565b610f85737ceb23fd6bc0add59e62ac25578270cff1b9f61930610dce565b610f8e86612648565b610f9891906145c1565b610fa29190614632565b90506000610fae610dc4565b610fcc731bfd67037b42cf73acf2047067bd4f2c47d9bfd630610dce565b610fd587612648565b610fdf91906145c1565b610fe99190614632565b905061101e730d500b1d8e8ef31e21c99d1db9a6444d3adf127073a5e0829caced8ffdd4de3c43696c57f7d7a678ff8661118a565b61105173bbba073c31bf03b8acf7c28ef0738decf369568373a5e0829caced8ffdd4de3c43696c57f7d7a678ff8561118a565b611084737ceb23fd6bc0add59e62ac25578270cff1b9f61973a5e0829caced8ffdd4de3c43696c57f7d7a678ff8461118a565b6110b7731bfd67037b42cf73acf2047067bd4f2c47d9bfd673a5e0829caced8ffdd4de3c43696c57f7d7a678ff8361118a565b6110d5730d500b1d8e8ef31e21c99d1db9a6444d3adf1270856132ac565b6110f373bbba073c31bf03b8acf7c28ef0738decf3695683846132ac565b611111737ceb23fd6bc0add59e62ac25578270cff1b9f619836132ac565b61112f731bfd67037b42cf73acf2047067bd4f2c47d9bfd6826132ac565b600061114f732791bca1f2de4661ed88a30c99a7a9449aa8417430610dce565b905061117081732791bca1f2de4661ed88a30c99a7a9449aa8417488612f24565b6111828661117d88612648565b613aea565b505050505050565b8273ffffffffffffffffffffffffffffffffffffffff1663095ea7b383836040518363ffffffff1660e01b81526004016111c59291906147ee565b6020604051808303816000875af11580156111e4573d6000803e3d6000fd5b505050506040513d601f19601f820116820180604052508101906112089190614843565b50505050565b73bbba073c31bf03b8acf7c28ef0738decf369568381565b60006012905090565b60008061123a61360e565b905061125b81858561124c85896133dc565b6112569190614870565b613616565b600191505092915050565b600d5481565b600b818154811061127c57600080fd5b906000526020600020016000915054906101000a900473ffffffffffffffffffffffffffffffffffffffff1681565b600e54600d54426112bc91906148a4565b11156117bd5742600d819055506060806000600267ffffffffffffffff8111156112e9576112e86142f0565b5b6040519080825280602002602001820160405280156113175781602001602082028036833780820191505090505b5090506000600367ffffffffffffffff811115611337576113366142f0565b5b6040519080825280602002602001820160405280156113655781602001602082028036833780820191505090505b5090508585810190611377919061499b565b809450819550505060005b83518160ff1610156117b7576113f38582600261139f9190614a13565b60ff16815181106113b3576113b2614a50565b5b602002602001015173a5e0829caced8ffdd4de3c43696c57f7d7a678ff868460ff16815181106113e6576113e5614a50565b5b602002602001015161118a565b730d500b1d8e8ef31e21c99d1db9a6444d3adf127073ffffffffffffffffffffffffffffffffffffffff168582600261142c9190614a13565b60ff16815181106114405761143f614a50565b5b602002602001015173ffffffffffffffffffffffffffffffffffffffff1614806114de5750730d500b1d8e8ef31e21c99d1db9a6444d3adf127073ffffffffffffffffffffffffffffffffffffffff168560018360026114a09190614a13565b6114aa9190614a7f565b60ff16815181106114be576114bd614a50565b5b602002602001015173ffffffffffffffffffffffffffffffffffffffff16145b1561161457848160026114f19190614a13565b60ff168151811061150557611504614a50565b5b60200260200101518360008151811061152157611520614a50565b5b602002602001019073ffffffffffffffffffffffffffffffffffffffff16908173ffffffffffffffffffffffffffffffffffffffff168152505084600182600261156b9190614a13565b6115759190614a7f565b60ff168151811061158957611588614a50565b5b6020026020010151836001815181106115a5576115a4614a50565b5b602002602001019073ffffffffffffffffffffffffffffffffffffffff16908173ffffffffffffffffffffffffffffffffffffffff168152505061160f848260ff16815181106115f8576115f7614a50565b5b60200260200101516000853064174876e7ff612c33565b6117a4565b848160026116229190614a13565b60ff168151811061163657611635614a50565b5b60200260200101518260008151811061165257611651614a50565b5b602002602001019073ffffffffffffffffffffffffffffffffffffffff16908173ffffffffffffffffffffffffffffffffffffffff1681525050730d500b1d8e8ef31e21c99d1db9a6444d3adf1270826001815181106116b5576116b4614a50565b5b602002602001019073ffffffffffffffffffffffffffffffffffffffff16908173ffffffffffffffffffffffffffffffffffffffff16815250508460018260026116ff9190614a13565b6117099190614a7f565b60ff168151811061171d5761171c614a50565b5b60200260200101518260028151811061173957611738614a50565b5b602002602001019073ffffffffffffffffffffffffffffffffffffffff16908173ffffffffffffffffffffffffffffffffffffffff16815250506117a3848260ff168151811061178c5761178b614a50565b5b60200260200101516000843064174876e7ff612c33565b5b80806117af90614ab4565b915050611382565b50505050505b5050565b60006002826117d09190614870565b600a6117dc9190614c10565b6117e584610d35565b6117ef8630610dce565b6117f991906145c1565b6118039190614632565b90509392505050565b6009818154811061181c57600080fd5b906000526020600020016000915054906101000a900473ffffffffffffffffffffffffffffffffffffffff1681565b6005818154811061185b57600080fd5b906000526020600020016000915054906101000a900473ffffffffffffffffffffffffffffffffffffffff1681565b60006060600e54600d544261189f91906148a4565b1191506000600467ffffffffffffffff8111156118bf576118be6142f0565b5b6040519080825280602002602001820160405280156118f857816020015b6118e5613cec565b8152602001906001900390816118dd5790505b509050611903613cec565b730d500b1d8e8ef31e21c99d1db9a6444d3adf1270816020019073ffffffffffffffffffffffffffffffffffffffff16908173ffffffffffffffffffffffffffffffffffffffff168152505073ab594600376ec9fd91f8e885dadf0ce036862de0816040019073ffffffffffffffffffffffffffffffffffffffff16908173ffffffffffffffffffffffffffffffffffffffff16815250506119a3613cec565b73bbba073c31bf03b8acf7c28ef0738decf3695683816020019073ffffffffffffffffffffffffffffffffffffffff16908173ffffffffffffffffffffffffffffffffffffffff1681525050733d49406edd4d52fb7ffd25485f32e073b529c924816040019073ffffffffffffffffffffffffffffffffffffffff16908173ffffffffffffffffffffffffffffffffffffffff1681525050611a43613cec565b731bfd67037b42cf73acf2047067bd4f2c47d9bfd6816020019073ffffffffffffffffffffffffffffffffffffffff16908173ffffffffffffffffffffffffffffffffffffffff168152505073c907e116054ad103354f2d350fd2514433d57f6f816040019073ffffffffffffffffffffffffffffffffffffffff16908173ffffffffffffffffffffffffffffffffffffffff1681525050611ae3613cec565b737ceb23fd6bc0add59e62ac25578270cff1b9f619816020019073ffffffffffffffffffffffffffffffffffffffff16908173ffffffffffffffffffffffffffffffffffffffff168152505073f9680d99d6c9589e2a93a78a04a279e509205945816040019073ffffffffffffffffffffffffffffffffffffffff16908173ffffffffffffffffffffffffffffffffffffffff16815250508385600081518110611b9057611b8f614a50565b5b60200260200101819052508285600181518110611bb057611baf614a50565b5b60200260200101819052508185600281518110611bd057611bcf614a50565b5b60200260200101819052508085600381518110611bf057611bef614a50565b5b60200260200101819052506000805b86518160ff161015611ec9576000878260ff1681518110611c2357611c22614a50565b5b60200260200101516020015190508073ffffffffffffffffffffffffffffffffffffffff166370a08231306040518263ffffffff1660e01b8152600401611c6a9190613e67565b602060405180830381865afa158015611c87573d6000803e3d6000fd5b505050506040513d601f19601f82011682018060405250810190611cab91906147c1565b888360ff1681518110611cc157611cc0614a50565b5b60200260200101516080018181525050611cfb888360ff1681518110611cea57611ce9614a50565b5b602002602001015160400151610d35565b888360ff1681518110611d1157611d10614a50565b5b602002602001015160e00181815250508073ffffffffffffffffffffffffffffffffffffffff1663313ce5676040518163ffffffff1660e01b8152600401602060405180830381865afa158015611d6c573d6000803e3d6000fd5b505050506040513d601f19601f82011682018060405250810190611d909190614c87565b60ff16888360ff1681518110611da957611da8614a50565b5b602002602001015160600181815250506000888360ff1681518110611dd157611dd0614a50565b5b6020026020010151606001516012611de991906148a4565b90506305f5e10081600a611dfd9190614c10565b8a8560ff1681518110611e1357611e12614a50565b5b602002602001015160e001518b8660ff1681518110611e3557611e34614a50565b5b602002602001015160800151611e4b91906145c1565b611e5591906145c1565b611e5f9190614632565b898460ff1681518110611e7557611e74614a50565b5b602002602001015160a0018181525050888360ff1681518110611e9b57611e9a614a50565b5b602002602001015160a0015184611eb29190614870565b935050508080611ec190614ab4565b915050611bff565b5060005b86518160ff161015611f4b57865182611ee69190614632565b878260ff1681518110611efc57611efb614a50565b5b602002602001015160a00151611f129190614cb4565b878260ff1681518110611f2857611f27614a50565b5b602002602001015160c00181815250508080611f4390614ab4565b915050611ecd565b5060008060008060018a51611f6091906148a4565b67ffffffffffffffff811115611f7957611f786142f0565b5b604051908082528060200260200182016040528015611fa75781602001602082028036833780820191505090505b509050600060018b51611fba91906148a4565b6002611fc691906145c1565b67ffffffffffffffff811115611fdf57611fde6142f0565b5b60405190808252806020026020018201604052801561200d5781602001602082028036833780820191505090505b50905060005b60018c5161202191906148a4565b8160ff1610156126115760005b8c518160ff1610156120cc5760008d8260ff168151811061205257612051614a50565b5b602002602001015160c001511415801561208c5750868d8260ff168151811061207e5761207d614a50565b5b602002602001015160c00151135b156120b9578095508c8160ff16815181106120aa576120a9614a50565b5b602002602001015160c0015196505b80806120c490614ab4565b91505061202e565b507f7fffffffffffffffffffffffffffffffffffffffffffffffffffffffffffffff955060005b8c518160ff1610156121915760008d8260ff168151811061211757612116614a50565b5b602002602001015160c00151141580156121515750868d8260ff168151811061214357612142614a50565b5b602002602001015160c00151125b1561217e578094508c8160ff168151811061216f5761216e614a50565b5b602002602001015160c0015196505b808061218990614ab4565b9150506120f3565b506121bc8c8560ff16815181106121ab576121aa614a50565b5b602002602001015160c00151613cc0565b8c8660ff16815181106121d2576121d1614a50565b5b602002602001015160c00151131561236f5761220e8c8560ff16815181106121fd576121fc614a50565b5b602002602001015160c00151613cc0565b838260ff168151811061222457612223614a50565b5b602002602001018181525050828160ff168151811061224657612245614a50565b5b60200260200101518c8660ff168151811061226457612263614a50565b5b602002602001015160c00181815161227c9190614cb4565b9150818152505060008c8560ff168151811061229b5761229a614a50565b5b602002602001015160c00181815250508b8560ff16815181106122c1576122c0614a50565b5b60200260200101516060015160126122d991906148a4565b600a6122e59190614c10565b8c8660ff16815181106122fb576122fa614a50565b5b602002602001015160e001516305f5e100858460ff168151811061232257612321614a50565b5b60200260200101516123349190614cf7565b61233e9190614d6f565b6123489190614d6f565b838260ff168151811061235e5761235d614a50565b5b6020026020010181815250506124f6565b6123998c8660ff168151811061238857612387614a50565b5b602002602001015160c00151613cc0565b838260ff16815181106123af576123ae614a50565b5b602002602001018181525050828160ff16815181106123d1576123d0614a50565b5b60200260200101518c8560ff16815181106123ef576123ee614a50565b5b602002602001015160c0018181516124079190614dd9565b9150818152505060008c8660ff168151811061242657612425614a50565b5b602002602001015160c00181815250508b8560ff168151811061244c5761244b614a50565b5b602002602001015160600151601261246491906148a4565b600a6124709190614c10565b8c8660ff168151811061248657612485614a50565b5b602002602001015160e001516305f5e100858460ff16815181106124ad576124ac614a50565b5b60200260200101516124bf9190614cf7565b6124c99190614d6f565b6124d39190614d6f565b838260ff16815181106124e9576124e8614a50565b5b6020026020010181815250505b8b8560ff168151811061250c5761250b614a50565b5b602002602001015160200151828260026125269190614a13565b60ff168151811061253a57612539614a50565b5b602002602001019073ffffffffffffffffffffffffffffffffffffffff16908173ffffffffffffffffffffffffffffffffffffffff16815250508b8460ff168151811061258a57612589614a50565b5b6020026020010151602001518260018360026125a69190614a13565b6125b09190614a7f565b60ff16815181106125c4576125c3614a50565b5b602002602001019073ffffffffffffffffffffffffffffffffffffffff16908173ffffffffffffffffffffffffffffffffffffffff1681525050808061260990614ab4565b915050612013565b508082604051602001612625929190614f99565b6040516020818303038152906040529b5050505050505050505050509250929050565b60008060008373ffffffffffffffffffffffffffffffffffffffff1673ffffffffffffffffffffffffffffffffffffffff168152602001908152602001600020549050919050565b73f9680d99d6c9589e2a93a78a04a279e50920594581565b60008282886126b791906145c1565b6126c19190614632565b905060008383886126d291906145c1565b6126dc9190614632565b905060008484886126ed91906145c1565b6126f79190614632565b9050600085858861270891906145c1565b6127129190614632565b90506127ad846000600580548060200260200160405190810160405280929190818152602001828054801561279c57602002820191906000526020600020905b8160009054906101000a900473ffffffffffffffffffffffffffffffffffffffff1673ffffffffffffffffffffffffffffffffffffffff1681526020019060010190808311612752575b50505050503064174876e7ff612c33565b612846836000600680548060200260200160405190810160405280929190818152602001828054801561283557602002820191906000526020600020905b8160009054906101000a900473ffffffffffffffffffffffffffffffffffffffff1673ffffffffffffffffffffffffffffffffffffffff16815260200190600101908083116127eb575b50505050503064174876e7ff612c33565b6128df82600060078054806020026020016040519081016040528092919081815260200182805480156128ce57602002820191906000526020600020905b8160009054906101000a900473ffffffffffffffffffffffffffffffffffffffff1673ffffffffffffffffffffffffffffffffffffffff1681526020019060010190808311612884575b50505050503064174876e7ff612c33565b612978816000600880548060200260200160405190810160405280929190818152602001828054801561296757602002820191906000526020600020905b8160009054906101000a900473ffffffffffffffffffffffffffffffffffffffff1673ffffffffffffffffffffffffffffffffffffffff168152602001906001019080831161291d575b50505050503064174876e7ff612c33565b50505050505050505050565b612a296004826129949190614632565b60006005805480602002602001604051908101604052809291908181526020018280548015612a1857602002820191906000526020600020905b8160009054906101000a900473ffffffffffffffffffffffffffffffffffffffff1673ffffffffffffffffffffffffffffffffffffffff16815260200190600101908083116129ce575b50505050503064174876e7ff612c33565b612ace600482612a399190614632565b60006006805480602002602001604051908101604052809291908181526020018280548015612abd57602002820191906000526020600020905b8160009054906101000a900473ffffffffffffffffffffffffffffffffffffffff1673ffffffffffffffffffffffffffffffffffffffff1681526020019060010190808311612a73575b50505050503064174876e7ff612c33565b612b73600482612ade9190614632565b60006007805480602002602001604051908101604052809291908181526020018280548015612b6257602002820191906000526020600020905b8160009054906101000a900473ffffffffffffffffffffffffffffffffffffffff1673ffffffffffffffffffffffffffffffffffffffff1681526020019060010190808311612b18575b50505050503064174876e7ff612c33565b612c18600482612b839190614632565b60006008805480602002602001604051908101604052809291908181526020018280548015612c0757602002820191906000526020600020905b8160009054906101000a900473ffffffffffffffffffffffffffffffffffffffff1673ffffffffffffffffffffffffffffffffffffffff1681526020019060010190808311612bbd575b50505050503064174876e7ff612c33565b50565b73ab594600376ec9fd91f8e885dadf0ce036862de081565b600f60009054906101000a900473ffffffffffffffffffffffffffffffffffffffff1673ffffffffffffffffffffffffffffffffffffffff166338ed173986868686866040518663ffffffff1660e01b8152600401612c96959493929190614fd0565b6000604051808303816000875af1158015612cb5573d6000803e3d6000fd5b505050506040513d6000823e3d601f19601f82011682018060405250810190612cde91906150c1565b505050505050565b600e5481565b606060048054612cfb90614692565b80601f0160208091040260200160405190810160405280929190818152602001828054612d2790614692565b8015612d745780601f10612d4957610100808354040283529160200191612d74565b820191906000526020600020905b815481529060010190602001808311612d5757829003601f168201915b5050505050905090565b60088181548110612d8e57600080fd5b906000526020600020016000915054906101000a900473ffffffffffffffffffffffffffffffffffffffff1681565b600080612dc861360e565b90506000612dd682866133dc565b905083811015612e1b576040517f08c379a0000000000000000000000000000000000000000000000000000000008152600401612e129061517c565b60405180910390fd5b612e288286868403613616565b60019250505092915050565b600a8181548110612e4457600080fd5b906000526020600020016000915054906101000a900473ffffffffffffffffffffffffffffffffffffffff1681565b600080612e7e61360e565b9050612e8b81858561386b565b600191505092915050565b60008273ffffffffffffffffffffffffffffffffffffffff166370a08231306040518263ffffffff1660e01b8152600401612ed19190613e67565b602060405180830381865afa158015612eee573d6000803e3d6000fd5b505050506040513d601f19601f82011682018060405250810190612f1291906147c1565b9050612f1f83838361118a565b505050565b60008290508073ffffffffffffffffffffffffffffffffffffffff1663a9059cbb83866040518363ffffffff1660e01b8152600401612f649291906147ee565b6020604051808303816000875af1158015612f83573d6000803e3d6000fd5b505050506040513d601f19601f82011682018060405250810190612fa79190614843565b5050505050565b73c907e116054ad103354f2d350fd2514433d57f6f81565b732791bca1f2de4661ed88a30c99a7a9449aa8417481565b731bfd67037b42cf73acf2047067bd4f2c47d9bfd681565b732791bca1f2de4661ed88a30c99a7a9449aa8417473ffffffffffffffffffffffffffffffffffffffff166323b872dd3330846040518463ffffffff1660e01b81526004016130479392919061519c565b6020604051808303816000875af1158015613066573d6000803e3d6000fd5b505050506040513d601f19601f8201168201806040525081019061308a9190614843565b5060006130c1730d500b1d8e8ef31e21c99d1db9a6444d3adf127073ab594600376ec9fd91f8e885dadf0ce036862de060126117c1565b905060006130f973bbba073c31bf03b8acf7c28ef0738decf3695683733d49406edd4d52fb7ffd25485f32e073b529c92460126117c1565b90506000613131737ceb23fd6bc0add59e62ac25578270cff1b9f61973f9680d99d6c9589e2a93a78a04a279e50920594560126117c1565b90506000613169731bfd67037b42cf73acf2047067bd4f2c47d9bfd673c907e116054ad103354f2d350fd2514433d57f6f60086117c1565b905060008183858761317b9190614870565b6131859190614870565b61318f9190614870565b90506131c4732791bca1f2de4661ed88a30c99a7a9449aa8417473a5e0829caced8ffdd4de3c43696c57f7d7a678ff8861118a565b60008111156131e0576131db85858585858b6126a8565b6131ea565b6131e986612984565b5b6000811115613203576131fe338288610c36565b61320e565b61320d33876134a1565b5b505050505050565b600c818154811061322657600080fd5b906000526020600020016000915054906101000a900473ffffffffffffffffffffffffffffffffffffffff1681565b6007818154811061326557600080fd5b906000526020600020016000915054906101000a900473ffffffffffffffffffffffffffffffffffffffff1681565b733d49406edd4d52fb7ffd25485f32e073b529c92481565b6000600267ffffffffffffffff8111156132c9576132c86142f0565b5b6040519080825280602002602001820160405280156132f75781602001602082028036833780820191505090505b509050828160008151811061330f5761330e614a50565b5b602002602001019073ffffffffffffffffffffffffffffffffffffffff16908173ffffffffffffffffffffffffffffffffffffffff1681525050732791bca1f2de4661ed88a30c99a7a9449aa841748160018151811061337257613371614a50565b5b602002602001019073ffffffffffffffffffffffffffffffffffffffff16908173ffffffffffffffffffffffffffffffffffffffff16815250506133bf826000833064174876e7ff612c33565b505050565b73a5e0829caced8ffdd4de3c43696c57f7d7a678ff81565b6000600160008473ffffffffffffffffffffffffffffffffffffffff1673ffffffffffffffffffffffffffffffffffffffff16815260200190815260200160002060008373ffffffffffffffffffffffffffffffffffffffff1673ffffffffffffffffffffffffffffffffffffffff16815260200190815260200160002054905092915050565b600f60009054906101000a900473ffffffffffffffffffffffffffffffffffffffff1681565b730d500b1d8e8ef31e21c99d1db9a6444d3adf127081565b6134ab82826134af565b5050565b600073ffffffffffffffffffffffffffffffffffffffff168273ffffffffffffffffffffffffffffffffffffffff160361351e576040517f08c379a00000000000000000000000000000000000000000000000000000000081526004016135159061521f565b60405180910390fd5b61352a60008383613ce2565b806002600082825461353c9190614870565b92505081905550806000808473ffffffffffffffffffffffffffffffffffffffff1673ffffffffffffffffffffffffffffffffffffffff16815260200190815260200160002060008282546135919190614870565b925050819055508173ffffffffffffffffffffffffffffffffffffffff16600073ffffffffffffffffffffffffffffffffffffffff167fddf252ad1be2c89b69c2b068fc378daa952ba7f163c4a11628f55a4df523b3ef836040516135f6919061401a565b60405180910390a361360a60008383613ce7565b5050565b600033905090565b600073ffffffffffffffffffffffffffffffffffffffff168373ffffffffffffffffffffffffffffffffffffffff1603613685576040517f08c379a000000000000000000000000000000000000000000000000000000000815260040161367c906152b1565b60405180910390fd5b600073ffffffffffffffffffffffffffffffffffffffff168273ffffffffffffffffffffffffffffffffffffffff16036136f4576040517f08c379a00000000000000000000000000000000000000000000000000000000081526004016136eb90615343565b60405180910390fd5b80600160008573ffffffffffffffffffffffffffffffffffffffff1673ffffffffffffffffffffffffffffffffffffffff16815260200190815260200160002060008473ffffffffffffffffffffffffffffffffffffffff1673ffffffffffffffffffffffffffffffffffffffff168152602001908152602001600020819055508173ffffffffffffffffffffffffffffffffffffffff168373ffffffffffffffffffffffffffffffffffffffff167f8c5be1e5ebec7d5bd14f71427d1e84f3dd0314c0f7b2291e5b200ac8c7c3b925836040516137d2919061401a565b60405180910390a3505050565b60006137eb84846133dc565b90507fffffffffffffffffffffffffffffffffffffffffffffffffffffffffffffffff81146138655781811015613857576040517f08c379a000000000000000000000000000000000000000000000000000000000815260040161384e906153af565b60405180910390fd5b6138648484848403613616565b5b50505050565b600073ffffffffffffffffffffffffffffffffffffffff168373ffffffffffffffffffffffffffffffffffffffff16036138da576040517f08c379a00000000000000000000000000000000000000000000000000000000081526004016138d190615441565b60405180910390fd5b600073ffffffffffffffffffffffffffffffffffffffff168273ffffffffffffffffffffffffffffffffffffffff1603613949576040517f08c379a0000000000000000000000000000000000000000000000000000000008152600401613940906154d3565b60405180910390fd5b613954838383613ce2565b60008060008573ffffffffffffffffffffffffffffffffffffffff1673ffffffffffffffffffffffffffffffffffffffff168152602001908152602001600020549050818110156139da576040517f08c379a00000000000000000000000000000000000000000000000000000000081526004016139d190615565565b60405180910390fd5b8181036000808673ffffffffffffffffffffffffffffffffffffffff1673ffffffffffffffffffffffffffffffffffffffff16815260200190815260200160002081905550816000808573ffffffffffffffffffffffffffffffffffffffff1673ffffffffffffffffffffffffffffffffffffffff1681526020019081526020016000206000828254613a6d9190614870565b925050819055508273ffffffffffffffffffffffffffffffffffffffff168473ffffffffffffffffffffffffffffffffffffffff167fddf252ad1be2c89b69c2b068fc378daa952ba7f163c4a11628f55a4df523b3ef84604051613ad1919061401a565b60405180910390a3613ae4848484613ce7565b50505050565b600073ffffffffffffffffffffffffffffffffffffffff168273ffffffffffffffffffffffffffffffffffffffff1603613b59576040517f08c379a0000000000000000000000000000000000000000000000000000000008152600401613b50906155f7565b60405180910390fd5b613b6582600083613ce2565b60008060008473ffffffffffffffffffffffffffffffffffffffff1673ffffffffffffffffffffffffffffffffffffffff16815260200190815260200160002054905081811015613beb576040517f08c379a0000000000000000000000000000000000000000000000000000000008152600401613be290615689565b60405180910390fd5b8181036000808573ffffffffffffffffffffffffffffffffffffffff1673ffffffffffffffffffffffffffffffffffffffff168152602001908152602001600020819055508160026000828254613c4291906148a4565b92505081905550600073ffffffffffffffffffffffffffffffffffffffff168373ffffffffffffffffffffffffffffffffffffffff167fddf252ad1be2c89b69c2b068fc378daa952ba7f163c4a11628f55a4df523b3ef84604051613ca7919061401a565b60405180910390a3613cbb83600084613ce7565b505050565b600080821215613cd95781613cd4906156a9565b613cdb565b815b9050919050565b505050565b505050565b60405180610100016040528060608152602001600073ffffffffffffffffffffffffffffffffffffffff168152602001600073ffffffffffffffffffffffffffffffffffffffff16815260200160008152602001600081526020016000815260200160008152602001600081525090565b6000604051905090565b600080fd5b600080fd5b600073ffffffffffffffffffffffffffffffffffffffff82169050919050565b6000613d9c82613d71565b9050919050565b613dac81613d91565b8114613db757600080fd5b50565b600081359050613dc981613da3565b92915050565b6000819050919050565b613de281613dcf565b8114613ded57600080fd5b50565b600081359050613dff81613dd9565b92915050565b600080600060608486031215613e1e57613e1d613d67565b5b6000613e2c86828701613dba565b9350506020613e3d86828701613df0565b9250506040613e4e86828701613df0565b9150509250925092565b613e6181613d91565b82525050565b6000602082019050613e7c6000830184613e58565b92915050565b600081519050919050565b600082825260208201905092915050565b60005b83811015613ebc578082015181840152602081019050613ea1565b60008484015250505050565b6000601f19601f8301169050919050565b6000613ee482613e82565b613eee8185613e8d565b9350613efe818560208601613e9e565b613f0781613ec8565b840191505092915050565b60006020820190508181036000830152613f2c8184613ed9565b905092915050565b60008060408385031215613f4b57613f4a613d67565b5b6000613f5985828601613dba565b9250506020613f6a85828601613df0565b9150509250929050565b60008115159050919050565b613f8981613f74565b82525050565b6000602082019050613fa46000830184613f80565b92915050565b600060208284031215613fc057613fbf613d67565b5b6000613fce84828501613dba565b91505092915050565b6000819050919050565b613fea81613fd7565b82525050565b60006020820190506140056000830184613fe1565b92915050565b61401481613dcf565b82525050565b600060208201905061402f600083018461400b565b92915050565b6000806040838503121561404c5761404b613d67565b5b600061405a85828601613dba565b925050602061406b85828601613dba565b9150509250929050565b60006020828403121561408b5761408a613d67565b5b600061409984828501613df0565b91505092915050565b6000806000606084860312156140bb576140ba613d67565b5b60006140c986828701613dba565b93505060206140da86828701613dba565b92505060406140eb86828701613df0565b9150509250925092565b600060ff82169050919050565b61410b816140f5565b82525050565b60006020820190506141266000830184614102565b92915050565b600080fd5b600080fd5b600080fd5b60008083601f8401126141515761415061412c565b5b8235905067ffffffffffffffff81111561416e5761416d614131565b5b60208301915083600182028301111561418a57614189614136565b5b9250929050565b600080602083850312156141a8576141a7613d67565b5b600083013567ffffffffffffffff8111156141c6576141c5613d6c565b5b6141d28582860161413b565b92509250509250929050565b600081519050919050565b600082825260208201905092915050565b6000614205826141de565b61420f81856141e9565b935061421f818560208601613e9e565b61422881613ec8565b840191505092915050565b60006040820190506142486000830185613f80565b818103602083015261425a81846141fa565b90509392505050565b60008060008060008060c087890312156142805761427f613d67565b5b600061428e89828a01613df0565b965050602061429f89828a01613df0565b95505060406142b089828a01613df0565b94505060606142c189828a01613df0565b93505060806142d289828a01613df0565b92505060a06142e389828a01613df0565b9150509295509295509295565b7f4e487b7100000000000000000000000000000000000000000000000000000000600052604160045260246000fd5b61432882613ec8565b810181811067ffffffffffffffff82111715614347576143466142f0565b5b80604052505050565b600061435a613d5d565b9050614366828261431f565b919050565b600067ffffffffffffffff821115614386576143856142f0565b5b602082029050602081019050919050565b60006143aa6143a58461436b565b614350565b905080838252602082019050602084028301858111156143cd576143cc614136565b5b835b818110156143f657806143e28882613dba565b8452602084019350506020810190506143cf565b5050509392505050565b600082601f8301126144155761441461412c565b5b8135614425848260208601614397565b91505092915050565b600080600080600060a0868803121561444a57614449613d67565b5b600061445888828901613df0565b955050602061446988828901613df0565b945050604086013567ffffffffffffffff81111561448a57614489613d6c565b5b61449688828901614400565b93505060606144a788828901613dba565b92505060806144b888828901613df0565b9150509295509295909350565b6000806000606084860312156144de576144dd613d67565b5b60006144ec86828701613df0565b93505060206144fd86828701613dba565b925050604061450e86828701613dba565b9150509250925092565b6000819050919050565b600061453d61453861453384613d71565b614518565b613d71565b9050919050565b600061454f82614522565b9050919050565b600061456182614544565b9050919050565b61457181614556565b82525050565b600060208201905061458c6000830184614568565b92915050565b7f4e487b7100000000000000000000000000000000000000000000000000000000600052601160045260246000fd5b60006145cc82613dcf565b91506145d783613dcf565b92508282026145e581613dcf565b915082820484148315176145fc576145fb614592565b5b5092915050565b7f4e487b7100000000000000000000000000000000000000000000000000000000600052601260045260246000fd5b600061463d82613dcf565b915061464883613dcf565b92508261465857614657614603565b5b828204905092915050565b7f4e487b7100000000000000000000000000000000000000000000000000000000600052602260045260246000fd5b600060028204905060018216806146aa57607f821691505b6020821081036146bd576146bc614663565b5b50919050565b600069ffffffffffffffffffff82169050919050565b6146e2816146c3565b81146146ed57600080fd5b50565b6000815190506146ff816146d9565b92915050565b61470e81613fd7565b811461471957600080fd5b50565b60008151905061472b81614705565b92915050565b60008151905061474081613dd9565b92915050565b600080600080600060a0868803121561476257614761613d67565b5b6000614770888289016146f0565b95505060206147818882890161471c565b945050604061479288828901614731565b93505060606147a388828901614731565b92505060806147b4888289016146f0565b9150509295509295909350565b6000602082840312156147d7576147d6613d67565b5b60006147e584828501614731565b91505092915050565b60006040820190506148036000830185613e58565b614810602083018461400b565b9392505050565b61482081613f74565b811461482b57600080fd5b50565b60008151905061483d81614817565b92915050565b60006020828403121561485957614858613d67565b5b60006148678482850161482e565b91505092915050565b600061487b82613dcf565b915061488683613dcf565b925082820190508082111561489e5761489d614592565b5b92915050565b60006148af82613dcf565b91506148ba83613dcf565b92508282039050818111156148d2576148d1614592565b5b92915050565b600067ffffffffffffffff8211156148f3576148f26142f0565b5b602082029050602081019050919050565b6000614917614912846148d8565b614350565b9050808382526020820190506020840283018581111561493a57614939614136565b5b835b81811015614963578061494f8882613df0565b84526020840193505060208101905061493c565b5050509392505050565b600082601f8301126149825761498161412c565b5b8135614992848260208601614904565b91505092915050565b600080604083850312156149b2576149b1613d67565b5b600083013567ffffffffffffffff8111156149d0576149cf613d6c565b5b6149dc85828601614400565b925050602083013567ffffffffffffffff8111156149fd576149fc613d6c565b5b614a098582860161496d565b9150509250929050565b6000614a1e826140f5565b9150614a29836140f5565b9250828202614a37816140f5565b9150808214614a4957614a48614592565b5b5092915050565b7f4e487b7100000000000000000000000000000000000000000000000000000000600052603260045260246000fd5b6000614a8a826140f5565b9150614a95836140f5565b9250828201905060ff811115614aae57614aad614592565b5b92915050565b6000614abf826140f5565b915060ff8203614ad257614ad1614592565b5b600182019050919050565b60008160011c9050919050565b6000808291508390505b6001851115614b3457808604811115614b1057614b0f614592565b5b6001851615614b1f5780820291505b8081029050614b2d85614add565b9450614af4565b94509492505050565b600082614b4d5760019050614c09565b81614b5b5760009050614c09565b8160018114614b715760028114614b7b57614baa565b6001915050614c09565b60ff841115614b8d57614b8c614592565b5b8360020a915084821115614ba457614ba3614592565b5b50614c09565b5060208310610133831016604e8410600b8410161715614bdf5782820a905083811115614bda57614bd9614592565b5b614c09565b614bec8484846001614aea565b92509050818404811115614c0357614c02614592565b5b81810290505b9392505050565b6000614c1b82613dcf565b9150614c2683613dcf565b9250614c537fffffffffffffffffffffffffffffffffffffffffffffffffffffffffffffffff8484614b3d565b905092915050565b614c64816140f5565b8114614c6f57600080fd5b50565b600081519050614c8181614c5b565b92915050565b600060208284031215614c9d57614c9c613d67565b5b6000614cab84828501614c72565b91505092915050565b6000614cbf82613fd7565b9150614cca83613fd7565b9250828203905081811260008412168282136000851215161715614cf157614cf0614592565b5b92915050565b6000614d0282613fd7565b9150614d0d83613fd7565b9250828202614d1b81613fd7565b91507f80000000000000000000000000000000000000000000000000000000000000008414600084121615614d5357614d52614592565b5b8282058414831517614d6857614d67614592565b5b5092915050565b6000614d7a82613fd7565b9150614d8583613fd7565b925082614d9557614d94614603565b5b600160000383147f800000000000000000000000000000000000000000000000000000000000000083141615614dce57614dcd614592565b5b828205905092915050565b6000614de482613fd7565b9150614def83613fd7565b925082820190508281121560008312168382126000841215161715614e1757614e16614592565b5b92915050565b600081519050919050565b600082825260208201905092915050565b6000819050602082019050919050565b614e5281613d91565b82525050565b6000614e648383614e49565b60208301905092915050565b6000602082019050919050565b6000614e8882614e1d565b614e928185614e28565b9350614e9d83614e39565b8060005b83811015614ece578151614eb58882614e58565b9750614ec083614e70565b925050600181019050614ea1565b5085935050505092915050565b600081519050919050565b600082825260208201905092915050565b6000819050602082019050919050565b614f1081613fd7565b82525050565b6000614f228383614f07565b60208301905092915050565b6000602082019050919050565b6000614f4682614edb565b614f508185614ee6565b9350614f5b83614ef7565b8060005b83811015614f8c578151614f738882614f16565b9750614f7e83614f2e565b925050600181019050614f5f565b5085935050505092915050565b60006040820190508181036000830152614fb38185614e7d565b90508181036020830152614fc78184614f3b565b90509392505050565b600060a082019050614fe5600083018861400b565b614ff2602083018761400b565b81810360408301526150048186614e7d565b90506150136060830185613e58565b615020608083018461400b565b9695505050505050565b600061503d615038846148d8565b614350565b905080838252602082019050602084028301858111156150605761505f614136565b5b835b8181101561508957806150758882614731565b845260208401935050602081019050615062565b5050509392505050565b600082601f8301126150a8576150a761412c565b5b81516150b884826020860161502a565b91505092915050565b6000602082840312156150d7576150d6613d67565b5b600082015167ffffffffffffffff8111156150f5576150f4613d6c565b5b61510184828501615093565b91505092915050565b7f45524332303a2064656372656173656420616c6c6f77616e63652062656c6f7760008201527f207a65726f000000000000000000000000000000000000000000000000000000602082015250565b6000615166602583613e8d565b91506151718261510a565b604082019050919050565b6000602082019050818103600083015261519581615159565b9050919050565b60006060820190506151b16000830186613e58565b6151be6020830185613e58565b6151cb604083018461400b565b949350505050565b7f45524332303a206d696e7420746f20746865207a65726f206164647265737300600082015250565b6000615209601f83613e8d565b9150615214826151d3565b602082019050919050565b60006020820190508181036000830152615238816151fc565b9050919050565b7f45524332303a20617070726f76652066726f6d20746865207a65726f2061646460008201527f7265737300000000000000000000000000000000000000000000000000000000602082015250565b600061529b602483613e8d565b91506152a68261523f565b604082019050919050565b600060208201905081810360008301526152ca8161528e565b9050919050565b7f45524332303a20617070726f766520746f20746865207a65726f20616464726560008201527f7373000000000000000000000000000000000000000000000000000000000000602082015250565b600061532d602283613e8d565b9150615338826152d1565b604082019050919050565b6000602082019050818103600083015261535c81615320565b9050919050565b7f45524332303a20696e73756666696369656e7420616c6c6f77616e6365000000600082015250565b6000615399601d83613e8d565b91506153a482615363565b602082019050919050565b600060208201905081810360008301526153c88161538c565b9050919050565b7f45524332303a207472616e736665722066726f6d20746865207a65726f20616460008201527f6472657373000000000000000000000000000000000000000000000000000000602082015250565b600061542b602583613e8d565b9150615436826153cf565b604082019050919050565b6000602082019050818103600083015261545a8161541e565b9050919050565b7f45524332303a207472616e7366657220746f20746865207a65726f206164647260008201527f6573730000000000000000000000000000000000000000000000000000000000602082015250565b60006154bd602383613e8d565b91506154c882615461565b604082019050919050565b600060208201905081810360008301526154ec816154b0565b9050919050565b7f45524332303a207472616e7366657220616d6f756e742065786365656473206260008201527f616c616e63650000000000000000000000000000000000000000000000000000602082015250565b600061554f602683613e8d565b915061555a826154f3565b604082019050919050565b6000602082019050818103600083015261557e81615542565b9050919050565b7f45524332303a206275726e2066726f6d20746865207a65726f2061646472657360008201527f7300000000000000000000000000000000000000000000000000000000000000602082015250565b60006155e1602183613e8d565b91506155ec82615585565b604082019050919050565b60006020820190508181036000830152615610816155d4565b9050919050565b7f45524332303a206275726e20616d6f756e7420657863656564732062616c616e60008201527f6365000000000000000000000000000000000000000000000000000000000000602082015250565b6000615673602283613e8d565b915061567e82615617565b604082019050919050565b600060208201905081810360008301526156a281615666565b9050919050565b60006156b482613fd7565b91507f800000000000000000000000000000000000000000000000000000000000000082036156e6576156e5614592565b5b81600003905091905056fea26469706673582212200eddaf953b0ab8563db402033fe933a3c10b9ab93cb0f970d7bcf24d57e8968464736f6c63430008110033",
  "immutableReferences": {},
  "source": "pragma solidity ^0.8.0;\npragma experimental ABIEncoderV2;\n//import statements go here\nimport \"./interfaces/IUniswapV2Router02.sol\";\nimport \"./interfaces/IUniswapV2Router01.sol\";\nimport \"@openzeppelin/contracts/token/ERC20/ERC20.sol\";\nimport \"@chainlink/contracts/src/v0.8/interfaces/AggregatorV3Interface.sol\";\nimport \"@chainlink/contracts/src/v0.8/KeeperCompatible.sol\";\n\ncontract autoBalancer is ERC20, KeeperCompatibleInterface {\n    address public constant USDC_ADDRESS =\n        0x2791Bca1f2de4661ED88A30C99A7a9449Aa84174;\n\n    address public constant WMATIC_ADDRESS =\n        0x0d500B1d8E8eF31E21C99d1Db9A6444d3ADf1270;\n    address public constant SAND_ADDRESS =\n        0xBbba073C31bF03b8ACf7c28EF0738DeCF3695683;\n    address public constant WETH_ADDRESS =\n        0x7ceB23fD6bC0adD59E62ac25578270cFf1b9f619;\n    address public constant WBTC_ADDRESS =\n        0x1BFD67037B42Cf73acF2047067bd4F2C47D9BfD6;\n\n    address public constant MATIC_USD_ORACLE =\n        0xAB594600376Ec9fD91F8e885dADF0CE036862dE0;\n    address public constant BTC_USD_ORACLE =\n        0xc907E116054Ad103354f2D350FD2514433D57F6f;\n    address public constant ETH_USD_ORACLE =\n        0xF9680D99D6C9589e2a93a78A04A279e509205945;\n    address public constant SAND_USD_ORACLE =\n        0x3D49406EDd4D52Fb7FFd25485f32E073b529C924;\n\n    address[] public USDCToWMATICPath = [USDC_ADDRESS, WMATIC_ADDRESS];\n    address[] public USDCToSANDPath = [USDC_ADDRESS, SAND_ADDRESS];\n    address[] public USDCToWETHPath = [USDC_ADDRESS, WETH_ADDRESS];\n    address[] public USDCToWBTCPath = [USDC_ADDRESS, WBTC_ADDRESS];\n\n    address[] public WMATICToUSDCPath = [WMATIC_ADDRESS, USDC_ADDRESS];\n    address[] public SANDToUSDCPath = [SAND_ADDRESS, USDC_ADDRESS];\n    address[] public WETHToUSDCPath = [WETH_ADDRESS, USDC_ADDRESS];\n    address[] public WBTCToUSDCPath = [WBTC_ADDRESS, USDC_ADDRESS];\n\n    address public constant QUICKSWAP_ROUTER =\n        0xa5E0829CaCEd8fFDD4De3c43696c57F7D7A678ff;\n\n    uint256 public lastTimeStamp;\n    uint256 public interval = 3600;\n\n    IUniswapV2Router02 public quickSwapRouter =\n        IUniswapV2Router02(QUICKSWAP_ROUTER);\n\n    struct Coin {\n        string symbol;\n        address tokenAddress;\n        address oracleAddress;\n        uint256 decimals;\n        uint256 balance;\n        uint256 usd_balance;\n        int256 diff_from_average;\n        uint256 usd_exchange_rate;\n    }\n\n    constructor() ERC20(\"autoBalancer\", \"ABA\") {}\n\n    function setInterval(uint256 new_interval) public {\n        interval = new_interval;\n    }\n\n    /**\n     * Returns the latest price\n     */\n    function getLatestPrice(address _oracle_address)\n        public\n        view\n        returns (int256)\n    {\n        (\n            uint80 roundID,\n            int256 price,\n            uint256 startedAt,\n            uint256 timeStamp,\n            uint80 answeredInRound\n        ) = AggregatorV3Interface(_oracle_address).latestRoundData();\n        return price;\n    }\n\n    function checkUpkeep(\n        bytes calldata /* checkData */\n    )\n        external\n        view\n        override\n        returns (bool upkeepNeeded, bytes memory performData)\n    {\n        upkeepNeeded = (block.timestamp - lastTimeStamp) > interval;\n        //we create the coin array and coin objects\n        Coin[] memory array_coins = new Coin[](4);\n\n        Coin memory wmatic;\n        wmatic.tokenAddress = WMATIC_ADDRESS;\n        wmatic.oracleAddress = MATIC_USD_ORACLE;\n        Coin memory sand;\n        sand.tokenAddress = SAND_ADDRESS;\n        sand.oracleAddress = SAND_USD_ORACLE;\n        Coin memory wbtc;\n        wbtc.tokenAddress = WBTC_ADDRESS;\n        wbtc.oracleAddress = BTC_USD_ORACLE;\n        Coin memory weth;\n        weth.tokenAddress = WETH_ADDRESS;\n        weth.oracleAddress = ETH_USD_ORACLE;\n\n        array_coins[0] = wmatic;\n        array_coins[1] = sand;\n        array_coins[2] = wbtc;\n        array_coins[3] = weth;\n\n        uint256 total_in_usd = 0;\n\n        for (uint8 i = 0; i < array_coins.length; i++) {\n            ERC20 coin_instance = ERC20(array_coins[i].tokenAddress);\n            array_coins[i].balance = coin_instance.balanceOf(address(this));\n            array_coins[i].usd_exchange_rate = uint256(\n                getLatestPrice(array_coins[i].oracleAddress)\n            );\n            array_coins[i].decimals = uint256(coin_instance.decimals());\n            uint256 decimal_conversion = 18 - array_coins[i].decimals;\n            array_coins[i].usd_balance =\n                (uint256(\n                    array_coins[i].balance * array_coins[i].usd_exchange_rate\n                ) * (10**decimal_conversion)) /\n                (10**8);\n            total_in_usd += array_coins[i].usd_balance;\n        }\n\n        for (uint8 i = 0; i < array_coins.length; i++) {\n            array_coins[i].diff_from_average =\n                int256(array_coins[i].usd_balance) -\n                int256(total_in_usd / (array_coins.length));\n        }\n\n        int256 comparison_variable; // default 0, the lowest value of `uint256`\n        uint8 maxCoin_index;\n        uint8 minCoin_index;\n        int256[] memory amounts = new int256[](array_coins.length - 1);\n        address[] memory paths = new address[](2 * (array_coins.length - 1)); //this will take all n-1 paths eventually\n\n        for (uint8 j = 0; j < array_coins.length - 1; j++) {\n            // Coin memory max_coin = find_max(array_coins);\n            for (uint8 i = 0; i < array_coins.length; i++) {\n                if (\n                    array_coins[i].diff_from_average != 0 &&\n                    array_coins[i].diff_from_average > comparison_variable\n                ) {\n                    maxCoin_index = i;\n                    comparison_variable = array_coins[i].diff_from_average;\n                }\n            }\n            // Coin memory min_coin = find_min(array_coins);\n            comparison_variable = type(int256).max; // the highest value of int256\n            for (uint8 i = 0; i < array_coins.length; i++) {\n                if (\n                    array_coins[i].diff_from_average != 0 &&\n                    array_coins[i].diff_from_average < comparison_variable\n                ) {\n                    minCoin_index = i;\n                    comparison_variable = array_coins[i].diff_from_average;\n                }\n            }\n            // we calculate the amount to be swapped, depending on which coin is further from average\n            if (\n                array_coins[maxCoin_index].diff_from_average >\n                abs(array_coins[minCoin_index].diff_from_average) //maxCoin is further from average than minCoin\n            ) {\n                // so the amount we swap is minCoin's diff_from_average\n                amounts[j] = abs(array_coins[minCoin_index].diff_from_average);\n                // so we decrease maxCoin's average by that amount\n                array_coins[maxCoin_index].diff_from_average -= amounts[j];\n                // and set minCoin's diff to zero, so that it will be excluded from future loops\n                array_coins[minCoin_index].diff_from_average = 0;\n                // then we convert amounts[j] from usd to maxCoin currency (because we're always swapping from maxCoin)\n                amounts[j] =\n                    (amounts[j] * int256(10**8)) /\n                    int256(array_coins[maxCoin_index].usd_exchange_rate) /\n                    int256(\n                        10**(18 - uint256(array_coins[maxCoin_index].decimals))\n                    );\n            } else {\n                amounts[j] = abs(array_coins[maxCoin_index].diff_from_average);\n                array_coins[minCoin_index].diff_from_average += amounts[j];\n                array_coins[maxCoin_index].diff_from_average = 0;\n\n                amounts[j] =\n                    (amounts[j] * int256(10**8)) /\n                    int256(array_coins[maxCoin_index].usd_exchange_rate) /\n                    int256(\n                        10**(18 - uint256(array_coins[maxCoin_index].decimals))\n                    );\n            }\n\n            //we determine the paths that the swap will take (beginning and end)\n            paths[2 * j] = array_coins[maxCoin_index].tokenAddress;\n            paths[2 * j + 1] = array_coins[minCoin_index].tokenAddress;\n        }\n\n        performData = abi.encode(paths, amounts);\n        // We don't use the checkData in this example. The checkData is defined when the Upkeep was registered.\n        return (upkeepNeeded, performData);\n    }\n\n    function performUpkeep(bytes calldata performData) external override {\n        //We highly recommend revalidating the upkeep in the performUpkeep function\n        if ((block.timestamp - lastTimeStamp) > interval) {\n            lastTimeStamp = block.timestamp;\n            address[] memory paths;\n            uint256[] memory amounts;\n            address[] memory path_short = new address[](2);\n            address[] memory path_long = new address[](3);\n\n            (paths, amounts) = abi.decode(performData, (address[], uint256[]));\n            for (uint8 i = 0; i < amounts.length; i++) {\n                approve_spending(paths[2 * i], QUICKSWAP_ROUTER, amounts[i]);\n                if (\n                    paths[2 * i] == WMATIC_ADDRESS ||\n                    paths[2 * i + 1] == WMATIC_ADDRESS\n                ) {\n                    path_short[0] = paths[2 * i];\n                    path_short[1] = paths[2 * i + 1];\n                    swap(\n                        amounts[i],\n                        uint256(0),\n                        path_short,\n                        address(this),\n                        99999999999\n                    );\n                } else {\n                    path_long[0] = paths[2 * i];\n                    path_long[1] = WMATIC_ADDRESS;\n                    path_long[2] = paths[2 * i + 1];\n                    swap(\n                        amounts[i],\n                        uint256(0),\n                        path_long,\n                        address(this),\n                        99999999999\n                    );\n                }\n            }\n        }\n        // The performData is generated by the Keeper's call to your checkUpkeep function\n    }\n\n    function find_max(Coin[] memory coin_array)\n        internal\n        pure\n        returns (Coin memory maxCoin)\n    {\n        require(coin_array.length > 0); // throw an exception if the condition is not met\n        int256 maxDiff; // default 0, the lowest value of `uint256`\n\n        for (uint256 i = 0; i < coin_array.length; i++) {\n            if (coin_array[i].diff_from_average > maxDiff) {\n                maxCoin = coin_array[i];\n            }\n        }\n        return maxCoin;\n    }\n\n    function find_min(Coin[] memory coin_array)\n        internal\n        pure\n        returns (Coin memory minCoin)\n    {\n        require(coin_array.length > 0); // throw an exception if the condition is not met\n        int256 minDiff = type(int256).max; // default 0, the lowest value of `uint256`\n\n        for (uint256 i = 0; i < coin_array.length; i++) {\n            if (coin_array[i].diff_from_average < minDiff) {\n                minCoin = coin_array[i];\n            }\n        }\n        return minCoin;\n    }\n\n    function abs(int256 x) private pure returns (int256) {\n        return x >= 0 ? x : -x;\n    }\n\n    function approve_spending(\n        address token_address,\n        address spender_address,\n        uint256 amount_to_approve\n    ) public {\n        ERC20(token_address).approve(spender_address, amount_to_approve);\n    }\n\n    receive() external payable {}\n\n    function depositUserFunds(uint256 amount_) public {\n        ERC20(USDC_ADDRESS).transferFrom(msg.sender, address(this), amount_);\n\n        uint256 WMATIC_balanceInUSD = getUSDTokenBalanceOf(\n            WMATIC_ADDRESS,\n            MATIC_USD_ORACLE,\n            18\n        );\n        uint256 SAND_balanceInUSD = getUSDTokenBalanceOf(\n            SAND_ADDRESS,\n            SAND_USD_ORACLE,\n            18\n        );\n        uint256 WETH_balanceInUSD = getUSDTokenBalanceOf(\n            WETH_ADDRESS,\n            ETH_USD_ORACLE,\n            18\n        );\n        uint256 WBTC_balanceInUSD = getUSDTokenBalanceOf(\n            WBTC_ADDRESS,\n            BTC_USD_ORACLE,\n            8\n        );\n\n        uint256 Total_in_USD = WMATIC_balanceInUSD +\n            SAND_balanceInUSD +\n            WETH_balanceInUSD +\n            WBTC_balanceInUSD;\n\n        approve_spending(USDC_ADDRESS, QUICKSWAP_ROUTER, amount_);\n\n        if (Total_in_USD > 0) {\n            swapProportionately(\n                WMATIC_balanceInUSD,\n                SAND_balanceInUSD,\n                WETH_balanceInUSD,\n                WBTC_balanceInUSD,\n                Total_in_USD,\n                amount_\n            );\n        } else {\n            swapIntoFourEqualParts(amount_);\n        }\n\n        if (Total_in_USD > 0) {\n            mintOnDeposit(msg.sender, Total_in_USD, amount_);\n        } else {\n            mintOnFirstDeposit(msg.sender, amount_);\n        }\n    }\n\n    function getUSDTokenBalanceOf(\n        address token_address,\n        address oracle_address,\n        uint256 token_decimals\n    ) public view returns (uint256) {\n        // uint256 token_decimals = ERC20(token_address).decimals();\n        return\n            (tokenBalanceOf(token_address, address(this)) *\n                (uint256(getLatestPrice(oracle_address)))) /\n            (10**(token_decimals + 2));\n    }\n\n    function swapProportionately(\n        uint256 WMATIC_amount,\n        uint256 SAND_amount,\n        uint256 WETH_amount,\n        uint256 WBTC_amount,\n        uint256 totalUSDAmount,\n        uint256 depositAmount\n    ) public {\n        uint256 WMATIC_share = (WMATIC_amount * (depositAmount)) /\n            (totalUSDAmount);\n        uint256 SAND_share = (SAND_amount * (depositAmount)) / (totalUSDAmount);\n        uint256 WETH_share = (WETH_amount * (depositAmount)) / (totalUSDAmount);\n        uint256 WBTC_share = (WBTC_amount * (depositAmount)) / (totalUSDAmount);\n\n        swap(\n            WMATIC_share,\n            uint256(0),\n            USDCToWMATICPath,\n            address(this),\n            99999999999\n        );\n        swap(\n            SAND_share,\n            uint256(0),\n            USDCToSANDPath,\n            address(this),\n            99999999999\n        );\n        swap(\n            WETH_share,\n            uint256(0),\n            USDCToWETHPath,\n            address(this),\n            99999999999\n        );\n        swap(\n            WBTC_share,\n            uint256(0),\n            USDCToWBTCPath,\n            address(this),\n            99999999999\n        );\n    }\n\n    function swapIntoFourEqualParts(uint256 amount) public {\n        swap(\n            amount / 4,\n            uint256(0),\n            USDCToWMATICPath,\n            address(this),\n            99999999999\n        );\n        swap(\n            amount / 4,\n            uint256(0),\n            USDCToSANDPath,\n            address(this),\n            99999999999\n        );\n        swap(\n            amount / 4,\n            uint256(0),\n            USDCToWETHPath,\n            address(this),\n            99999999999\n        );\n        swap(\n            amount / 4,\n            uint256(0),\n            USDCToWBTCPath,\n            address(this),\n            99999999999\n        );\n    }\n\n    function mintOnFirstDeposit(address user, uint256 deposit_amount) public {\n        _mint(user, deposit_amount);\n    }\n\n    function mintOnDeposit(\n        address user,\n        uint256 total_in_USD,\n        uint256 deposit_amount\n    ) public {\n        //make this ownable - only contract itself can update this?\n        uint256 mintAmount = (deposit_amount * (totalSupply())) /\n            (total_in_USD);\n        _mint(user, mintAmount);\n    }\n\n    function withdrawUserFunds(address user) public {\n        //do I need an approval here?\n\n        uint256 WMATIC_amount = (balanceOf(user) *\n            (tokenBalanceOf(WMATIC_ADDRESS, address(this)))) / (totalSupply());\n        uint256 SAND_amount = (balanceOf(user) *\n            (tokenBalanceOf(SAND_ADDRESS, address(this)))) / (totalSupply());\n        uint256 WETH_amount = (balanceOf(user) *\n            (tokenBalanceOf(WETH_ADDRESS, address(this)))) / (totalSupply());\n        uint256 WBTC_amount = (balanceOf(user) *\n            (tokenBalanceOf(WBTC_ADDRESS, address(this)))) / (totalSupply());\n\n        approve_spending(WMATIC_ADDRESS, QUICKSWAP_ROUTER, WMATIC_amount);\n        approve_spending(SAND_ADDRESS, QUICKSWAP_ROUTER, SAND_amount);\n        approve_spending(WETH_ADDRESS, QUICKSWAP_ROUTER, WETH_amount);\n        approve_spending(WBTC_ADDRESS, QUICKSWAP_ROUTER, WBTC_amount);\n\n        swapBackToUSDC(WMATIC_ADDRESS, WMATIC_amount);\n        swapBackToUSDC(SAND_ADDRESS, SAND_amount);\n        swapBackToUSDC(WETH_ADDRESS, WETH_amount);\n        swapBackToUSDC(WBTC_ADDRESS, WBTC_amount);\n\n        // approveSpendingWholeBalance(USDC_ADDRESS, BENTOBOX_MASTER_CONTRACT_ADDRESS);\n\n        uint256 USDC_amount = tokenBalanceOf(USDC_ADDRESS, address(this));\n        withdraw(USDC_amount, USDC_ADDRESS, user);\n\n        _burn(user, balanceOf(user));\n    }\n\n    function withdraw(\n        uint256 amount_,\n        address token_address,\n        address address_to\n    ) public {\n        ERC20 token_ = ERC20(token_address); //is this right?\n\n        token_.transfer(address_to, amount_);\n    }\n\n    function approveSpendingWholeBalance(address _token, address _spender)\n        public\n    {\n        uint256 tokenBalance = ERC20(_token).balanceOf(address(this));\n        approve_spending(_token, _spender, tokenBalance);\n    }\n\n    function swapBackToUSDC(address _token, uint256 _amount) public {\n        address[] memory path = new address[](2);\n        path[0] = _token;\n        path[1] = USDC_ADDRESS;\n        swap(_amount, uint256(0), path, address(this), 99999999999);\n    }\n\n    // function withdraw_matic(uint256 amount_) public payable {\n    //     transfer(msg.sender, amount_);\n    // }\n\n    function tokenBalanceOf(address token_address, address user_address)\n        public\n        view\n        returns (uint256 token_balance)\n    {\n        ERC20 _token = ERC20(token_address);\n        token_balance = _token.balanceOf(user_address);\n        return token_balance;\n    }\n\n    function swap(\n        uint256 _amountIn,\n        uint256 _amountOutMin,\n        address[] memory _path,\n        address _acct,\n        uint256 _deadline\n    ) public {\n        quickSwapRouter.swapExactTokensForTokens(\n            _amountIn,\n            _amountOutMin,\n            _path,\n            _acct,\n            _deadline\n        );\n    }\n}\n",
  "sourcePath": "/Users/richardjamieson/Documents/GitHub/BentoBoxBalancer/contracts/autoBalancer.sol",
  "compiler": {
    "name": "solc",
    "version": "0.8.17+commit.8df45f5f.Emscripten.clang"
  },
  "schemaVersion": "3.4.9",
  "updatedAt": "2022-09-20T16:37:46.433Z",
  "devdoc": {
    "kind": "dev",
    "methods": {
      "allowance(address,address)": {
        "details": "See {IERC20-allowance}."
      },
      "approve(address,uint256)": {
        "details": "See {IERC20-approve}. NOTE: If `amount` is the maximum `uint256`, the allowance is not updated on `transferFrom`. This is semantically equivalent to an infinite approval. Requirements: - `spender` cannot be the zero address."
      },
      "balanceOf(address)": {
        "details": "See {IERC20-balanceOf}."
      },
      "decimals()": {
        "details": "Returns the number of decimals used to get its user representation. For example, if `decimals` equals `2`, a balance of `505` tokens should be displayed to a user as `5.05` (`505 / 10 ** 2`). Tokens usually opt for a value of 18, imitating the relationship between Ether and Wei. This is the value {ERC20} uses, unless this function is overridden; NOTE: This information is only used for _display_ purposes: it in no way affects any of the arithmetic of the contract, including {IERC20-balanceOf} and {IERC20-transfer}."
      },
      "decreaseAllowance(address,uint256)": {
        "details": "Atomically decreases the allowance granted to `spender` by the caller. This is an alternative to {approve} that can be used as a mitigation for problems described in {IERC20-approve}. Emits an {Approval} event indicating the updated allowance. Requirements: - `spender` cannot be the zero address. - `spender` must have allowance for the caller of at least `subtractedValue`."
      },
      "increaseAllowance(address,uint256)": {
        "details": "Atomically increases the allowance granted to `spender` by the caller. This is an alternative to {approve} that can be used as a mitigation for problems described in {IERC20-approve}. Emits an {Approval} event indicating the updated allowance. Requirements: - `spender` cannot be the zero address."
      },
      "name()": {
        "details": "Returns the name of the token."
      },
      "performUpkeep(bytes)": {
        "details": "The input to this method should not be trusted, and the caller of the method should not even be restricted to any single registry. Anyone should be able call it, and the input should be validated, there is no guarantee that the data passed in is the performData returned from checkUpkeep. This could happen due to malicious keepers, racing keepers, or simply a state change while the performUpkeep transaction is waiting for confirmation. Always validate the data passed in.",
        "params": {
          "performData": "is the data which was passed back from the checkData simulation. If it is encoded, it can easily be decoded into other types by calling `abi.decode`. This data should not be trusted, and should be validated against the contract's current state."
        }
      },
      "symbol()": {
        "details": "Returns the symbol of the token, usually a shorter version of the name."
      },
      "totalSupply()": {
        "details": "See {IERC20-totalSupply}."
      },
      "transfer(address,uint256)": {
        "details": "See {IERC20-transfer}. Requirements: - `to` cannot be the zero address. - the caller must have a balance of at least `amount`."
      },
      "transferFrom(address,address,uint256)": {
        "details": "See {IERC20-transferFrom}. Emits an {Approval} event indicating the updated allowance. This is not required by the EIP. See the note at the beginning of {ERC20}. NOTE: Does not update the allowance if the current allowance is the maximum `uint256`. Requirements: - `from` and `to` cannot be the zero address. - `from` must have a balance of at least `amount`. - the caller must have allowance for ``from``'s tokens of at least `amount`."
      }
    },
    "version": 1
  },
  "userdoc": {
    "kind": "user",
    "methods": {
      "getLatestPrice(address)": {
        "notice": "Returns the latest price"
      },
      "performUpkeep(bytes)": {
        "notice": "method that is actually executed by the keepers, via the registry. The data returned by the checkUpkeep simulation will be passed into this method to actually be executed."
      }
    },
    "version": 1
  }
}