{
  "contractName": "autoBalancer",
  "abi": [
    {
      "inputs": [],
      "name": "BTC_USD_ORACLE",
      "outputs": [
        {
          "internalType": "address",
          "name": "",
          "type": "address"
        }
      ],
      "stateMutability": "view",
      "type": "function",
      "constant": true
    },
    {
      "inputs": [],
      "name": "ETH_USD_ORACLE",
      "outputs": [
        {
          "internalType": "address",
          "name": "",
          "type": "address"
        }
      ],
      "stateMutability": "view",
      "type": "function",
      "constant": true
    },
    {
      "inputs": [],
      "name": "MATIC_USD_ORACLE",
      "outputs": [
        {
          "internalType": "address",
          "name": "",
          "type": "address"
        }
      ],
      "stateMutability": "view",
      "type": "function",
      "constant": true
    },
    {
      "inputs": [],
      "name": "QUICKSWAP_ROUTER",
      "outputs": [
        {
          "internalType": "address",
          "name": "",
          "type": "address"
        }
      ],
      "stateMutability": "view",
      "type": "function",
      "constant": true
    },
    {
      "inputs": [
        {
          "internalType": "uint256",
          "name": "",
          "type": "uint256"
        }
      ],
      "name": "SANDToUSDCPath",
      "outputs": [
        {
          "internalType": "address",
          "name": "",
          "type": "address"
        }
      ],
      "stateMutability": "view",
      "type": "function",
      "constant": true
    },
    {
      "inputs": [],
      "name": "SAND_ADDRESS",
      "outputs": [
        {
          "internalType": "address",
          "name": "",
          "type": "address"
        }
      ],
      "stateMutability": "view",
      "type": "function",
      "constant": true
    },
    {
      "inputs": [],
      "name": "SAND_USD_ORACLE",
      "outputs": [
        {
          "internalType": "address",
          "name": "",
          "type": "address"
        }
      ],
      "stateMutability": "view",
      "type": "function",
      "constant": true
    },
    {
      "inputs": [
        {
          "internalType": "uint256",
          "name": "",
          "type": "uint256"
        }
      ],
      "name": "USDCToSANDPath",
      "outputs": [
        {
          "internalType": "address",
          "name": "",
          "type": "address"
        }
      ],
      "stateMutability": "view",
      "type": "function",
      "constant": true
    },
    {
      "inputs": [
        {
          "internalType": "uint256",
          "name": "",
          "type": "uint256"
        }
      ],
      "name": "USDCToWBTCPath",
      "outputs": [
        {
          "internalType": "address",
          "name": "",
          "type": "address"
        }
      ],
      "stateMutability": "view",
      "type": "function",
      "constant": true
    },
    {
      "inputs": [
        {
          "internalType": "uint256",
          "name": "",
          "type": "uint256"
        }
      ],
      "name": "USDCToWETHPath",
      "outputs": [
        {
          "internalType": "address",
          "name": "",
          "type": "address"
        }
      ],
      "stateMutability": "view",
      "type": "function",
      "constant": true
    },
    {
      "inputs": [
        {
          "internalType": "uint256",
          "name": "",
          "type": "uint256"
        }
      ],
      "name": "USDCToWMATICPath",
      "outputs": [
        {
          "internalType": "address",
          "name": "",
          "type": "address"
        }
      ],
      "stateMutability": "view",
      "type": "function",
      "constant": true
    },
    {
      "inputs": [],
      "name": "USDC_ADDRESS",
      "outputs": [
        {
          "internalType": "address",
          "name": "",
          "type": "address"
        }
      ],
      "stateMutability": "view",
      "type": "function",
      "constant": true
    },
    {
      "inputs": [
        {
          "internalType": "uint256",
          "name": "",
          "type": "uint256"
        }
      ],
      "name": "WBTCToUSDCPath",
      "outputs": [
        {
          "internalType": "address",
          "name": "",
          "type": "address"
        }
      ],
      "stateMutability": "view",
      "type": "function",
      "constant": true
    },
    {
      "inputs": [],
      "name": "WBTC_ADDRESS",
      "outputs": [
        {
          "internalType": "address",
          "name": "",
          "type": "address"
        }
      ],
      "stateMutability": "view",
      "type": "function",
      "constant": true
    },
    {
      "inputs": [
        {
          "internalType": "uint256",
          "name": "",
          "type": "uint256"
        }
      ],
      "name": "WETHToUSDCPath",
      "outputs": [
        {
          "internalType": "address",
          "name": "",
          "type": "address"
        }
      ],
      "stateMutability": "view",
      "type": "function",
      "constant": true
    },
    {
      "inputs": [],
      "name": "WETH_ADDRESS",
      "outputs": [
        {
          "internalType": "address",
          "name": "",
          "type": "address"
        }
      ],
      "stateMutability": "view",
      "type": "function",
      "constant": true
    },
    {
      "inputs": [
        {
          "internalType": "uint256",
          "name": "",
          "type": "uint256"
        }
      ],
      "name": "WMATICToUSDCPath",
      "outputs": [
        {
          "internalType": "address",
          "name": "",
          "type": "address"
        }
      ],
      "stateMutability": "view",
      "type": "function",
      "constant": true
    },
    {
      "inputs": [],
      "name": "WMATIC_ADDRESS",
      "outputs": [
        {
          "internalType": "address",
          "name": "",
          "type": "address"
        }
      ],
      "stateMutability": "view",
      "type": "function",
      "constant": true
    },
    {
      "inputs": [],
      "name": "interval",
      "outputs": [
        {
          "internalType": "uint256",
          "name": "",
          "type": "uint256"
        }
      ],
      "stateMutability": "view",
      "type": "function",
      "constant": true
    },
    {
      "inputs": [],
      "name": "lastTimeStamp",
      "outputs": [
        {
          "internalType": "uint256",
          "name": "",
          "type": "uint256"
        }
      ],
      "stateMutability": "view",
      "type": "function",
      "constant": true
    },
    {
      "inputs": [],
      "name": "quickSwapRouter",
      "outputs": [
        {
          "internalType": "contract IUniswapV2Router02",
          "name": "",
          "type": "address"
        }
      ],
      "stateMutability": "view",
      "type": "function",
      "constant": true
    },
    {
      "inputs": [],
      "name": "totalNumberOfShares",
      "outputs": [
        {
          "internalType": "uint256",
          "name": "",
          "type": "uint256"
        }
      ],
      "stateMutability": "view",
      "type": "function",
      "constant": true
    },
    {
      "inputs": [
        {
          "internalType": "address",
          "name": "",
          "type": "address"
        }
      ],
      "name": "userNumberOfShares",
      "outputs": [
        {
          "internalType": "uint256",
          "name": "",
          "type": "uint256"
        }
      ],
      "stateMutability": "view",
      "type": "function",
      "constant": true
    },
    {
      "stateMutability": "payable",
      "type": "receive",
      "payable": true
    },
    {
      "inputs": [
        {
          "internalType": "uint256",
          "name": "new_interval",
          "type": "uint256"
        }
      ],
      "name": "setInterval",
      "outputs": [],
      "stateMutability": "nonpayable",
      "type": "function"
    },
    {
      "inputs": [
        {
          "internalType": "address",
          "name": "_oracle_address",
          "type": "address"
        }
      ],
      "name": "getLatestPrice",
      "outputs": [
        {
          "internalType": "int256",
          "name": "",
          "type": "int256"
        }
      ],
      "stateMutability": "view",
      "type": "function",
      "constant": true
    },
    {
      "inputs": [
        {
          "internalType": "bytes",
          "name": "",
          "type": "bytes"
        }
      ],
      "name": "checkUpkeep",
      "outputs": [
        {
          "internalType": "bool",
          "name": "upkeepNeeded",
          "type": "bool"
        },
        {
          "internalType": "bytes",
          "name": "performData",
          "type": "bytes"
        }
      ],
      "stateMutability": "view",
      "type": "function",
      "constant": true
    },
    {
      "inputs": [
        {
          "internalType": "bytes",
          "name": "performData",
          "type": "bytes"
        }
      ],
      "name": "performUpkeep",
      "outputs": [],
      "stateMutability": "nonpayable",
      "type": "function"
    },
    {
      "inputs": [
        {
          "internalType": "address",
          "name": "user",
          "type": "address"
        }
      ],
      "name": "updateSharesOnWithdrawal",
      "outputs": [],
      "stateMutability": "nonpayable",
      "type": "function"
    },
    {
      "inputs": [
        {
          "internalType": "address",
          "name": "user",
          "type": "address"
        }
      ],
      "name": "getUserShares",
      "outputs": [
        {
          "internalType": "uint256",
          "name": "userShares",
          "type": "uint256"
        }
      ],
      "stateMutability": "view",
      "type": "function",
      "constant": true
    },
    {
      "inputs": [
        {
          "internalType": "address",
          "name": "token_address",
          "type": "address"
        },
        {
          "internalType": "address",
          "name": "spender_address",
          "type": "address"
        },
        {
          "internalType": "uint256",
          "name": "amount_to_approve",
          "type": "uint256"
        }
      ],
      "name": "approve_spending",
      "outputs": [],
      "stateMutability": "nonpayable",
      "type": "function"
    },
    {
      "inputs": [
        {
          "internalType": "uint256",
          "name": "amount_",
          "type": "uint256"
        }
      ],
      "name": "depositUserFunds",
      "outputs": [],
      "stateMutability": "nonpayable",
      "type": "function"
    },
    {
      "inputs": [
        {
          "internalType": "address",
          "name": "token_address",
          "type": "address"
        },
        {
          "internalType": "address",
          "name": "oracle_address",
          "type": "address"
        },
        {
          "internalType": "uint256",
          "name": "token_decimals",
          "type": "uint256"
        }
      ],
      "name": "getUSDTokenBalanceOf",
      "outputs": [
        {
          "internalType": "uint256",
          "name": "",
          "type": "uint256"
        }
      ],
      "stateMutability": "view",
      "type": "function",
      "constant": true
    },
    {
      "inputs": [
        {
          "internalType": "uint256",
          "name": "WMATIC_amount",
          "type": "uint256"
        },
        {
          "internalType": "uint256",
          "name": "SAND_amount",
          "type": "uint256"
        },
        {
          "internalType": "uint256",
          "name": "WETH_amount",
          "type": "uint256"
        },
        {
          "internalType": "uint256",
          "name": "WBTC_amount",
          "type": "uint256"
        },
        {
          "internalType": "uint256",
          "name": "totalUSDAmount",
          "type": "uint256"
        },
        {
          "internalType": "uint256",
          "name": "depositAmount",
          "type": "uint256"
        }
      ],
      "name": "swapProportionately",
      "outputs": [],
      "stateMutability": "nonpayable",
      "type": "function"
    },
    {
      "inputs": [
        {
          "internalType": "uint256",
          "name": "amount",
          "type": "uint256"
        }
      ],
      "name": "swapIntoFourEqualParts",
      "outputs": [],
      "stateMutability": "nonpayable",
      "type": "function"
    },
    {
      "inputs": [
        {
          "internalType": "address",
          "name": "user",
          "type": "address"
        }
      ],
      "name": "setSharesFirstTime",
      "outputs": [],
      "stateMutability": "nonpayable",
      "type": "function"
    },
    {
      "inputs": [
        {
          "internalType": "address",
          "name": "user",
          "type": "address"
        },
        {
          "internalType": "uint256",
          "name": "total_in_USD",
          "type": "uint256"
        },
        {
          "internalType": "uint256",
          "name": "deposit_amount",
          "type": "uint256"
        }
      ],
      "name": "updateSharesOnDeposit",
      "outputs": [],
      "stateMutability": "nonpayable",
      "type": "function"
    },
    {
      "inputs": [
        {
          "internalType": "address",
          "name": "user",
          "type": "address"
        }
      ],
      "name": "withdrawUserFunds",
      "outputs": [],
      "stateMutability": "nonpayable",
      "type": "function"
    },
    {
      "inputs": [
        {
          "internalType": "uint256",
          "name": "amount_",
          "type": "uint256"
        },
        {
          "internalType": "address",
          "name": "token_address",
          "type": "address"
        },
        {
          "internalType": "address",
          "name": "address_to",
          "type": "address"
        }
      ],
      "name": "withdraw",
      "outputs": [],
      "stateMutability": "nonpayable",
      "type": "function"
    },
    {
      "inputs": [
        {
          "internalType": "address",
          "name": "_token",
          "type": "address"
        },
        {
          "internalType": "address",
          "name": "_spender",
          "type": "address"
        }
      ],
      "name": "approveSpendingWholeBalance",
      "outputs": [],
      "stateMutability": "nonpayable",
      "type": "function"
    },
    {
      "inputs": [
        {
          "internalType": "address",
          "name": "_token",
          "type": "address"
        },
        {
          "internalType": "uint256",
          "name": "_amount",
          "type": "uint256"
        }
      ],
      "name": "swapBackToUSDC",
      "outputs": [],
      "stateMutability": "nonpayable",
      "type": "function"
    },
    {
      "inputs": [
        {
          "internalType": "address",
          "name": "token_address",
          "type": "address"
        },
        {
          "internalType": "address",
          "name": "user_address",
          "type": "address"
        }
      ],
      "name": "tokenBalanceOf",
      "outputs": [
        {
          "internalType": "uint256",
          "name": "token_balance",
          "type": "uint256"
        }
      ],
      "stateMutability": "view",
      "type": "function",
      "constant": true
    },
    {
      "inputs": [
        {
          "internalType": "uint256",
          "name": "_amountIn",
          "type": "uint256"
        },
        {
          "internalType": "uint256",
          "name": "_amountOutMin",
          "type": "uint256"
        },
        {
          "internalType": "address[]",
          "name": "_path",
          "type": "address[]"
        },
        {
          "internalType": "address",
          "name": "_acct",
          "type": "address"
        },
        {
          "internalType": "uint256",
          "name": "_deadline",
          "type": "uint256"
        }
      ],
      "name": "swap",
      "outputs": [],
      "stateMutability": "nonpayable",
      "type": "function"
    }
  ],
  "bytecode": "0x60806040526040518060400160405280732791bca1f2de4661ed88a30c99a7a9449aa8417473ffffffffffffffffffffffffffffffffffffffff1673ffffffffffffffffffffffffffffffffffffffff168152602001730d500b1d8e8ef31e21c99d1db9a6444d3adf127073ffffffffffffffffffffffffffffffffffffffff1673ffffffffffffffffffffffffffffffffffffffff168152506000906002620000ab929190620005b2565b506040518060400160405280732791bca1f2de4661ed88a30c99a7a9449aa8417473ffffffffffffffffffffffffffffffffffffffff1673ffffffffffffffffffffffffffffffffffffffff16815260200173bbba073c31bf03b8acf7c28ef0738decf369568373ffffffffffffffffffffffffffffffffffffffff1673ffffffffffffffffffffffffffffffffffffffff16815250600190600262000153929190620005b2565b506040518060400160405280732791bca1f2de4661ed88a30c99a7a9449aa8417473ffffffffffffffffffffffffffffffffffffffff1673ffffffffffffffffffffffffffffffffffffffff168152602001737ceb23fd6bc0add59e62ac25578270cff1b9f61973ffffffffffffffffffffffffffffffffffffffff1673ffffffffffffffffffffffffffffffffffffffff168152506002906002620001fb929190620005b2565b506040518060400160405280732791bca1f2de4661ed88a30c99a7a9449aa8417473ffffffffffffffffffffffffffffffffffffffff1673ffffffffffffffffffffffffffffffffffffffff168152602001731bfd67037b42cf73acf2047067bd4f2c47d9bfd673ffffffffffffffffffffffffffffffffffffffff1673ffffffffffffffffffffffffffffffffffffffff168152506003906002620002a3929190620005b2565b506040518060400160405280730d500b1d8e8ef31e21c99d1db9a6444d3adf127073ffffffffffffffffffffffffffffffffffffffff1673ffffffffffffffffffffffffffffffffffffffff168152602001732791bca1f2de4661ed88a30c99a7a9449aa8417473ffffffffffffffffffffffffffffffffffffffff1673ffffffffffffffffffffffffffffffffffffffff1681525060049060026200034b929190620005b2565b50604051806040016040528073bbba073c31bf03b8acf7c28ef0738decf369568373ffffffffffffffffffffffffffffffffffffffff1673ffffffffffffffffffffffffffffffffffffffff168152602001732791bca1f2de4661ed88a30c99a7a9449aa8417473ffffffffffffffffffffffffffffffffffffffff1673ffffffffffffffffffffffffffffffffffffffff168152506005906002620003f3929190620005b2565b506040518060400160405280737ceb23fd6bc0add59e62ac25578270cff1b9f61973ffffffffffffffffffffffffffffffffffffffff1673ffffffffffffffffffffffffffffffffffffffff168152602001732791bca1f2de4661ed88a30c99a7a9449aa8417473ffffffffffffffffffffffffffffffffffffffff1673ffffffffffffffffffffffffffffffffffffffff1681525060069060026200049b929190620005b2565b506040518060400160405280731bfd67037b42cf73acf2047067bd4f2c47d9bfd673ffffffffffffffffffffffffffffffffffffffff1673ffffffffffffffffffffffffffffffffffffffff168152602001732791bca1f2de4661ed88a30c99a7a9449aa8417473ffffffffffffffffffffffffffffffffffffffff1673ffffffffffffffffffffffffffffffffffffffff16815250600790600262000543929190620005b2565b50603c600a5573a5e0829caced8ffdd4de3c43696c57f7d7a678ff600c60006101000a81548173ffffffffffffffffffffffffffffffffffffffff021916908373ffffffffffffffffffffffffffffffffffffffff160217905550348015620005ab57600080fd5b5062000660565b8280548282559060005260206000209081019282156200062e579160200282015b828111156200062d5782518260006101000a81548173ffffffffffffffffffffffffffffffffffffffff021916908373ffffffffffffffffffffffffffffffffffffffff16021790555091602001919060010190620005d3565b5b5090506200063d919062000641565b5090565b5b808211156200065c57600081600090555060010162000642565b5090565b61404580620006706000396000f3fe6080604052600436106102555760003560e01c80638db9f39a11610139578063bdd5915f116100b6578063cd3f5b531161007a578063cd3f5b531461093e578063cf41281014610969578063d091911614610992578063e189eb42146109bd578063e95d8328146109e8578063ef455bad14610a135761025c565b8063bdd5915f14610845578063c3f5a30514610870578063c5764eec1461089b578063ca970905146108c4578063cb3601b1146109015761025c565b8063aa5a7aa3116100fd578063aa5a7aa314610760578063b460af9414610789578063b6e20a6a146107b2578063ba0cb22b146107dd578063bb09d9b71461081a5761025c565b80638db9f39a1461066757806390f11e8414610692578063947a36fb146106bb578063a15c7d10146106e6578063a48ce279146107235761025c565b806344345f23116101d2578063681bcf1311610196578063681bcf131461053257806369bc43881461056f5780636e04ff0d146105ac578063718176e5146105ea578063764f96f91461061557806388e42b081461063e5761025c565b806344345f231461043d5780634585e33b1461047a5780634690738c146104a357806351f54887146104cc5780636583530f146105095761025c565b806324e2e7bb1161021957806324e2e7bb1461036c57806329a97ec2146103955780632d365d31146103be5780633f3b3b27146103e957806344250955146104145761025c565b8063040141e51461026157806316345f181461028c5780631bea8006146102c957806322a900821461030657806323aad7af1461032f5761025c565b3661025c57005b600080fd5b34801561026d57600080fd5b50610276610a50565b6040516102839190612e07565b60405180910390f35b34801561029857600080fd5b506102b360048036038101906102ae9190612e62565b610a68565b6040516102c09190612ea8565b60405180910390f35b3480156102d557600080fd5b506102f060048036038101906102eb9190612ec3565b610af7565b6040516102fd9190612f1c565b60405180910390f35b34801561031257600080fd5b5061032d60048036038101906103289190612f63565b610b80565b005b34801561033b57600080fd5b5061035660048036038101906103519190612f63565b610b8a565b6040516103639190612e07565b60405180910390f35b34801561037857600080fd5b50610393600480360381019061038e9190612e62565b610bc9565b005b3480156103a157600080fd5b506103bc60048036038101906103b79190612f90565b610f43565b005b3480156103ca57600080fd5b506103d3610fc7565b6040516103e09190612e07565b60405180910390f35b3480156103f557600080fd5b506103fe610fdf565b60405161040b9190612f1c565b60405180910390f35b34801561042057600080fd5b5061043b60048036038101906104369190612fe3565b610fe5565b005b34801561044957600080fd5b50610464600480360381019061045f9190612f63565b61113c565b6040516104719190612e07565b60405180910390f35b34801561048657600080fd5b506104a1600480360381019061049c919061309b565b61117b565b005b3480156104af57600080fd5b506104ca60048036038101906104c59190612e62565b611208565b005b3480156104d857600080fd5b506104f360048036038101906104ee9190612f90565b61132a565b6040516105009190612f1c565b60405180910390f35b34801561051557600080fd5b50610530600480360381019061052b9190612e62565b611375565b005b34801561053e57600080fd5b5061055960048036038101906105549190612f63565b611406565b6040516105669190612e07565b60405180910390f35b34801561057b57600080fd5b5061059660048036038101906105919190612f63565b611445565b6040516105a39190612e07565b60405180910390f35b3480156105b857600080fd5b506105d360048036038101906105ce919061309b565b611484565b6040516105e1929190613193565b60405180910390f35b3480156105f657600080fd5b506105ff612079565b60405161060c9190612e07565b60405180910390f35b34801561062157600080fd5b5061063c600480360381019061063791906131c3565b612091565b005b34801561064a57600080fd5b5061066560048036038101906106609190612f63565b61236c565b005b34801561067357600080fd5b5061067c612602565b6040516106899190612e07565b60405180910390f35b34801561069e57600080fd5b506106b960048036038101906106b4919061338e565b61261a565b005b3480156106c757600080fd5b506106d06126cd565b6040516106dd9190612f1c565b60405180910390f35b3480156106f257600080fd5b5061070d60048036038101906107089190612f63565b6126d3565b60405161071a9190612e07565b60405180910390f35b34801561072f57600080fd5b5061074a60048036038101906107459190612f63565b612712565b6040516107579190612e07565b60405180910390f35b34801561076c57600080fd5b5061078760048036038101906107829190612ec3565b612751565b005b34801561079557600080fd5b506107b060048036038101906107ab9190613425565b6127df565b005b3480156107be57600080fd5b506107c7612869565b6040516107d49190612e07565b60405180910390f35b3480156107e957600080fd5b5061080460048036038101906107ff9190612e62565b612881565b6040516108119190612f1c565b60405180910390f35b34801561082657600080fd5b5061082f6128ca565b60405161083c9190612e07565b60405180910390f35b34801561085157600080fd5b5061085a6128e2565b6040516108679190612e07565b60405180910390f35b34801561087c57600080fd5b506108856128fa565b6040516108929190612f1c565b60405180910390f35b3480156108a757600080fd5b506108c260048036038101906108bd9190612f63565b612900565b005b3480156108d057600080fd5b506108eb60048036038101906108e69190612f63565b612b1f565b6040516108f89190612e07565b60405180910390f35b34801561090d57600080fd5b5061092860048036038101906109239190612f63565b612b5e565b6040516109359190612e07565b60405180910390f35b34801561094a57600080fd5b50610953612b9d565b6040516109609190612e07565b60405180910390f35b34801561097557600080fd5b50610990600480360381019061098b9190613478565b612bb5565b005b34801561099e57600080fd5b506109a7612ccd565b6040516109b49190612e07565b60405180910390f35b3480156109c957600080fd5b506109d2612ce5565b6040516109df9190613517565b60405180910390f35b3480156109f457600080fd5b506109fd612d0b565b604051610a0a9190612e07565b60405180910390f35b348015610a1f57600080fd5b50610a3a6004803603810190610a359190612e62565b612d23565b604051610a479190612f1c565b60405180910390f35b737ceb23fd6bc0add59e62ac25578270cff1b9f61981565b6000806000806000808673ffffffffffffffffffffffffffffffffffffffff1663feaf968c6040518163ffffffff1660e01b815260040160a060405180830381865afa158015610abc573d6000803e3d6000fd5b505050506040513d601f19601f82011682018060405250810190610ae091906135b5565b945094509450945094508395505050505050919050565b6000808390508073ffffffffffffffffffffffffffffffffffffffff166370a08231846040518263ffffffff1660e01b8152600401610b369190612e07565b602060405180830381865afa158015610b53573d6000803e3d6000fd5b505050506040513d601f19601f82011682018060405250810190610b779190613630565b91505092915050565b80600a8190555050565b60018181548110610b9a57600080fd5b906000526020600020016000915054906101000a900473ffffffffffffffffffffffffffffffffffffffff1681565b6000600854610bec730d500b1d8e8ef31e21c99d1db9a6444d3adf127030610af7565b600b60008573ffffffffffffffffffffffffffffffffffffffff1673ffffffffffffffffffffffffffffffffffffffff16815260200190815260200160002054610c36919061368c565b610c409190613715565b90506000600854610c6573bbba073c31bf03b8acf7c28ef0738decf369568330610af7565b600b60008673ffffffffffffffffffffffffffffffffffffffff1673ffffffffffffffffffffffffffffffffffffffff16815260200190815260200160002054610caf919061368c565b610cb99190613715565b90506000600854610cde737ceb23fd6bc0add59e62ac25578270cff1b9f61930610af7565b600b60008773ffffffffffffffffffffffffffffffffffffffff1673ffffffffffffffffffffffffffffffffffffffff16815260200190815260200160002054610d28919061368c565b610d329190613715565b90506000600854610d57731bfd67037b42cf73acf2047067bd4f2c47d9bfd630610af7565b600b60008873ffffffffffffffffffffffffffffffffffffffff1673ffffffffffffffffffffffffffffffffffffffff16815260200190815260200160002054610da1919061368c565b610dab9190613715565b9050610de0730d500b1d8e8ef31e21c99d1db9a6444d3adf127073a5e0829caced8ffdd4de3c43696c57f7d7a678ff86610f43565b610e1373bbba073c31bf03b8acf7c28ef0738decf369568373a5e0829caced8ffdd4de3c43696c57f7d7a678ff85610f43565b610e46737ceb23fd6bc0add59e62ac25578270cff1b9f61973a5e0829caced8ffdd4de3c43696c57f7d7a678ff84610f43565b610e79731bfd67037b42cf73acf2047067bd4f2c47d9bfd673a5e0829caced8ffdd4de3c43696c57f7d7a678ff83610f43565b610e97730d500b1d8e8ef31e21c99d1db9a6444d3adf127085612bb5565b610eb573bbba073c31bf03b8acf7c28ef0738decf369568384612bb5565b610ed3737ceb23fd6bc0add59e62ac25578270cff1b9f61983612bb5565b610ef1731bfd67037b42cf73acf2047067bd4f2c47d9bfd682612bb5565b6000610f11732791bca1f2de4661ed88a30c99a7a9449aa8417430610af7565b9050610f3281732791bca1f2de4661ed88a30c99a7a9449aa84174886127df565b610f3b86611208565b505050505050565b8273ffffffffffffffffffffffffffffffffffffffff1663095ea7b383836040518363ffffffff1660e01b8152600401610f7e929190613746565b6020604051808303816000875af1158015610f9d573d6000803e3d6000fd5b505050506040513d601f19601f82011682018060405250810190610fc1919061379b565b50505050565b73bbba073c31bf03b8acf7c28ef0738decf369568381565b60095481565b60008260085483610ff6919061368c565b6110009190613715565b90508060085461101091906137c8565b6008819055506000600b60008673ffffffffffffffffffffffffffffffffffffffff1673ffffffffffffffffffffffffffffffffffffffff1681526020019081526020016000205411156110f15780600b60008673ffffffffffffffffffffffffffffffffffffffff1673ffffffffffffffffffffffffffffffffffffffff168152602001908152602001600020546110a991906137c8565b600b60008673ffffffffffffffffffffffffffffffffffffffff1673ffffffffffffffffffffffffffffffffffffffff16815260200190815260200160002081905550611136565b80600b60008673ffffffffffffffffffffffffffffffffffffffff1673ffffffffffffffffffffffffffffffffffffffff168152602001908152602001600020819055505b50505050565b6006818154811061114c57600080fd5b906000526020600020016000915054906101000a900473ffffffffffffffffffffffffffffffffffffffff1681565b600a546009544261118c91906137fc565b111561120457426009819055506060600083838101906111ac9190613830565b80925081935050506111ee826000815181106111cb576111ca61388c565b5b602002602001015173a5e0829caced8ffdd4de3c43696c57f7d7a678ff83610f43565b611201816000843064174876e7ff61261a565b50505b5050565b6000600b60008373ffffffffffffffffffffffffffffffffffffffff1673ffffffffffffffffffffffffffffffffffffffff168152602001908152602001600020541161128a576040517f08c379a000000000000000000000000000000000000000000000000000000000815260040161128190613918565b60405180910390fd5b600b60008273ffffffffffffffffffffffffffffffffffffffff1673ffffffffffffffffffffffffffffffffffffffff16815260200190815260200160002054600860008282546112db91906137fc565b925050819055506000600b60008373ffffffffffffffffffffffffffffffffffffffff1673ffffffffffffffffffffffffffffffffffffffff1681526020019081526020016000208190555050565b600060028261133991906137c8565b600a6113459190613a6b565b61134e84610a68565b6113588630610af7565b611362919061368c565b61136c9190613715565b90509392505050565b6305f5e100600b60008373ffffffffffffffffffffffffffffffffffffffff1673ffffffffffffffffffffffffffffffffffffffff16815260200190815260200160002081905550600b60008273ffffffffffffffffffffffffffffffffffffffff1673ffffffffffffffffffffffffffffffffffffffff1681526020019081526020016000205460088190555050565b6004818154811061141657600080fd5b906000526020600020016000915054906101000a900473ffffffffffffffffffffffffffffffffffffffff1681565b6000818154811061145557600080fd5b906000526020600020016000915054906101000a900473ffffffffffffffffffffffffffffffffffffffff1681565b60006060600a546009544261149991906137fc565b1191506000600467ffffffffffffffff8111156114b9576114b8613250565b5b6040519080825280602002602001820160405280156114f257816020015b6114df612d5d565b8152602001906001900390816114d75790505b5090506114fd612d5d565b730d500b1d8e8ef31e21c99d1db9a6444d3adf1270816020019073ffffffffffffffffffffffffffffffffffffffff16908173ffffffffffffffffffffffffffffffffffffffff168152505073ab594600376ec9fd91f8e885dadf0ce036862de0816040019073ffffffffffffffffffffffffffffffffffffffff16908173ffffffffffffffffffffffffffffffffffffffff168152505061159d612d5d565b73bbba073c31bf03b8acf7c28ef0738decf3695683816020019073ffffffffffffffffffffffffffffffffffffffff16908173ffffffffffffffffffffffffffffffffffffffff1681525050733d49406edd4d52fb7ffd25485f32e073b529c924816040019073ffffffffffffffffffffffffffffffffffffffff16908173ffffffffffffffffffffffffffffffffffffffff168152505061163d612d5d565b731bfd67037b42cf73acf2047067bd4f2c47d9bfd6816020019073ffffffffffffffffffffffffffffffffffffffff16908173ffffffffffffffffffffffffffffffffffffffff168152505073c907e116054ad103354f2d350fd2514433d57f6f816040019073ffffffffffffffffffffffffffffffffffffffff16908173ffffffffffffffffffffffffffffffffffffffff16815250506116dd612d5d565b737ceb23fd6bc0add59e62ac25578270cff1b9f619816020019073ffffffffffffffffffffffffffffffffffffffff16908173ffffffffffffffffffffffffffffffffffffffff168152505073f9680d99d6c9589e2a93a78a04a279e509205945816040019073ffffffffffffffffffffffffffffffffffffffff16908173ffffffffffffffffffffffffffffffffffffffff1681525050838560008151811061178a5761178961388c565b5b602002602001018190525082856001815181106117aa576117a961388c565b5b602002602001018190525081856002815181106117ca576117c961388c565b5b602002602001018190525080856003815181106117ea576117e961388c565b5b60200260200101819052506000808651905060005b87518110156119cc57600088828151811061181d5761181c61388c565b5b60200260200101516020015190508073ffffffffffffffffffffffffffffffffffffffff166370a08231306040518263ffffffff1660e01b81526004016118649190612e07565b602060405180830381865afa158015611881573d6000803e3d6000fd5b505050506040513d601f19601f820116820180604052508101906118a59190613630565b8983815181106118b8576118b761388c565b5b602002602001015160600181815250506118ef8983815181106118de576118dd61388c565b5b602002602001015160400151610a68565b8983815181106119025761190161388c565b5b602002602001015160c00181815250506305f5e10089838151811061192a5761192961388c565b5b602002602001015160c001518a84815181106119495761194861388c565b5b60200260200101516060015161195f9190613ab6565b6119699190613bcd565b89838151811061197c5761197b61388c565b5b6020026020010151608001818152505088828151811061199f5761199e61388c565b5b602002602001015160800151846119b69190613c37565b93505080806119c490613c7b565b9150506117ff565b50600081836119db9190613bcd565b905060005b8851811015611a4957818982815181106119fd576119fc61388c565b5b602002602001015160800151611a139190613cc3565b898281518110611a2657611a2561388c565b5b602002602001015160a00181815250508080611a4190613c7b565b9150506119e0565b5060008060005b8a518160ff161015611ac057828b8260ff1681518110611a7357611a7261388c565b5b602002602001015160a001511315611aad578091508a8160ff1681518110611a9e57611a9d61388c565b5b602002602001015160a0015192505b8080611ab890613d13565b915050611a50565b507f7fffffffffffffffffffffffffffffffffffffffffffffffffffffffffffffff9150600080600090505b8b518160ff161015611b5c57838c8260ff1681518110611b0f57611b0e61388c565b5b602002602001015160a001511215611b49578091508b8160ff1681518110611b3a57611b3961388c565b5b602002602001015160a0015193505b8080611b5490613d13565b915050611aec565b506000611b898c8360ff1681518110611b7857611b7761388c565b5b602002602001015160a00151612d3b565b8c8460ff1681518110611b9f57611b9e61388c565b5b602002602001015160a001511315611c2057611bdb8c8360ff1681518110611bca57611bc961388c565b5b602002602001015160a00151612d3b565b90508b8260ff1681518110611bf357611bf261388c565b5b602002602001015160c001516305f5e10082611c0f9190613ab6565b611c199190613bcd565b9050611c83565b8b8360ff1681518110611c3657611c3561388c565b5b602002602001015160a0015190508b8360ff1681518110611c5a57611c5961388c565b5b602002602001015160c001516305f5e10082611c769190613ab6565b611c809190613bcd565b90505b6000600267ffffffffffffffff811115611ca057611c9f613250565b5b604051908082528060200260200182016040528015611cce5781602001602082028036833780820191505090505b5090506000600367ffffffffffffffff811115611cee57611ced613250565b5b604051908082528060200260200182016040528015611d1c5781602001602082028036833780820191505090505b509050730d500b1d8e8ef31e21c99d1db9a6444d3adf127073ffffffffffffffffffffffffffffffffffffffff168e8660ff1681518110611d6057611d5f61388c565b5b60200260200101516020015173ffffffffffffffffffffffffffffffffffffffff161480611dee5750730d500b1d8e8ef31e21c99d1db9a6444d3adf127073ffffffffffffffffffffffffffffffffffffffff168e8560ff1681518110611dca57611dc961388c565b5b60200260200101516020015173ffffffffffffffffffffffffffffffffffffffff16145b15611efc578d8560ff1681518110611e0957611e0861388c565b5b60200260200101516020015182600081518110611e2957611e2861388c565b5b602002602001019073ffffffffffffffffffffffffffffffffffffffff16908173ffffffffffffffffffffffffffffffffffffffff16815250508d8460ff1681518110611e7957611e7861388c565b5b60200260200101516020015182600181518110611e9957611e9861388c565b5b602002602001019073ffffffffffffffffffffffffffffffffffffffff16908173ffffffffffffffffffffffffffffffffffffffff16815250508183604051602001611ee6929190613dfa565b6040516020818303038152906040529e50612064565b8d8560ff1681518110611f1257611f1161388c565b5b60200260200101516020015181600081518110611f3257611f3161388c565b5b602002602001019073ffffffffffffffffffffffffffffffffffffffff16908173ffffffffffffffffffffffffffffffffffffffff1681525050730d500b1d8e8ef31e21c99d1db9a6444d3adf127081600181518110611f9557611f9461388c565b5b602002602001019073ffffffffffffffffffffffffffffffffffffffff16908173ffffffffffffffffffffffffffffffffffffffff16815250508d8460ff1681518110611fe557611fe461388c565b5b602002602001015160200151816002815181106120055761200461388c565b5b602002602001019073ffffffffffffffffffffffffffffffffffffffff16908173ffffffffffffffffffffffffffffffffffffffff16815250508083604051602001612052929190613dfa565b6040516020818303038152906040529e505b50505050505050505050505050509250929050565b73f9680d99d6c9589e2a93a78a04a279e50920594581565b60008282886120a0919061368c565b6120aa9190613715565b905060008383886120bb919061368c565b6120c59190613715565b905060008484886120d6919061368c565b6120e09190613715565b905060008585886120f1919061368c565b6120fb9190613715565b90506121958460008080548060200260200160405190810160405280929190818152602001828054801561218457602002820191906000526020600020905b8160009054906101000a900473ffffffffffffffffffffffffffffffffffffffff1673ffffffffffffffffffffffffffffffffffffffff168152602001906001019080831161213a575b50505050503064174876e7ff61261a565b61222e836000600180548060200260200160405190810160405280929190818152602001828054801561221d57602002820191906000526020600020905b8160009054906101000a900473ffffffffffffffffffffffffffffffffffffffff1673ffffffffffffffffffffffffffffffffffffffff16815260200190600101908083116121d3575b50505050503064174876e7ff61261a565b6122c782600060028054806020026020016040519081016040528092919081815260200182805480156122b657602002820191906000526020600020905b8160009054906101000a900473ffffffffffffffffffffffffffffffffffffffff1673ffffffffffffffffffffffffffffffffffffffff168152602001906001019080831161226c575b50505050503064174876e7ff61261a565b612360816000600380548060200260200160405190810160405280929190818152602001828054801561234f57602002820191906000526020600020905b8160009054906101000a900473ffffffffffffffffffffffffffffffffffffffff1673ffffffffffffffffffffffffffffffffffffffff1681526020019060010190808311612305575b50505050503064174876e7ff61261a565b50505050505050505050565b61241060048261237c9190613715565b6000808054806020026020016040519081016040528092919081815260200182805480156123ff57602002820191906000526020600020905b8160009054906101000a900473ffffffffffffffffffffffffffffffffffffffff1673ffffffffffffffffffffffffffffffffffffffff16815260200190600101908083116123b5575b50505050503064174876e7ff61261a565b6124b56004826124209190613715565b600060018054806020026020016040519081016040528092919081815260200182805480156124a457602002820191906000526020600020905b8160009054906101000a900473ffffffffffffffffffffffffffffffffffffffff1673ffffffffffffffffffffffffffffffffffffffff168152602001906001019080831161245a575b50505050503064174876e7ff61261a565b61255a6004826124c59190613715565b6000600280548060200260200160405190810160405280929190818152602001828054801561254957602002820191906000526020600020905b8160009054906101000a900473ffffffffffffffffffffffffffffffffffffffff1673ffffffffffffffffffffffffffffffffffffffff16815260200190600101908083116124ff575b50505050503064174876e7ff61261a565b6125ff60048261256a9190613715565b600060038054806020026020016040519081016040528092919081815260200182805480156125ee57602002820191906000526020600020905b8160009054906101000a900473ffffffffffffffffffffffffffffffffffffffff1673ffffffffffffffffffffffffffffffffffffffff16815260200190600101908083116125a4575b50505050503064174876e7ff61261a565b50565b73ab594600376ec9fd91f8e885dadf0ce036862de081565b600c60009054906101000a900473ffffffffffffffffffffffffffffffffffffffff1673ffffffffffffffffffffffffffffffffffffffff166338ed173986868686866040518663ffffffff1660e01b815260040161267d959493929190613e2a565b6000604051808303816000875af115801561269c573d6000803e3d6000fd5b505050506040513d6000823e3d601f19601f820116820180604052508101906126c59190613f47565b505050505050565b600a5481565b600381815481106126e357600080fd5b906000526020600020016000915054906101000a900473ffffffffffffffffffffffffffffffffffffffff1681565b6005818154811061272257600080fd5b906000526020600020016000915054906101000a900473ffffffffffffffffffffffffffffffffffffffff1681565b60008273ffffffffffffffffffffffffffffffffffffffff166370a08231306040518263ffffffff1660e01b815260040161278c9190612e07565b602060405180830381865afa1580156127a9573d6000803e3d6000fd5b505050506040513d601f19601f820116820180604052508101906127cd9190613630565b90506127da838383610f43565b505050565b60008290508073ffffffffffffffffffffffffffffffffffffffff1663a9059cbb83866040518363ffffffff1660e01b815260040161281f929190613746565b6020604051808303816000875af115801561283e573d6000803e3d6000fd5b505050506040513d601f19601f82011682018060405250810190612862919061379b565b5050505050565b73c907e116054ad103354f2d350fd2514433d57f6f81565b6000600b60008373ffffffffffffffffffffffffffffffffffffffff1673ffffffffffffffffffffffffffffffffffffffff168152602001908152602001600020549050919050565b732791bca1f2de4661ed88a30c99a7a9449aa8417481565b731bfd67037b42cf73acf2047067bd4f2c47d9bfd681565b60085481565b732791bca1f2de4661ed88a30c99a7a9449aa8417473ffffffffffffffffffffffffffffffffffffffff166323b872dd3330846040518463ffffffff1660e01b815260040161295193929190613f90565b6020604051808303816000875af1158015612970573d6000803e3d6000fd5b505050506040513d601f19601f82011682018060405250810190612994919061379b565b5060006129cb730d500b1d8e8ef31e21c99d1db9a6444d3adf127073ab594600376ec9fd91f8e885dadf0ce036862de0601261132a565b90506000612a0373bbba073c31bf03b8acf7c28ef0738decf3695683733d49406edd4d52fb7ffd25485f32e073b529c924601261132a565b90506000612a3b737ceb23fd6bc0add59e62ac25578270cff1b9f61973f9680d99d6c9589e2a93a78a04a279e509205945601261132a565b90506000612a73731bfd67037b42cf73acf2047067bd4f2c47d9bfd673c907e116054ad103354f2d350fd2514433d57f6f600861132a565b9050600081838587612a8591906137c8565b612a8f91906137c8565b612a9991906137c8565b9050612ace732791bca1f2de4661ed88a30c99a7a9449aa8417473a5e0829caced8ffdd4de3c43696c57f7d7a678ff88610f43565b6000811115612aea57612ae585858585858b612091565b612af4565b612af38661236c565b5b6000811115612b0d57612b08338288610fe5565b612b17565b612b1633611375565b5b505050505050565b60078181548110612b2f57600080fd5b906000526020600020016000915054906101000a900473ffffffffffffffffffffffffffffffffffffffff1681565b60028181548110612b6e57600080fd5b906000526020600020016000915054906101000a900473ffffffffffffffffffffffffffffffffffffffff1681565b733d49406edd4d52fb7ffd25485f32e073b529c92481565b6000600267ffffffffffffffff811115612bd257612bd1613250565b5b604051908082528060200260200182016040528015612c005781602001602082028036833780820191505090505b5090508281600081518110612c1857612c1761388c565b5b602002602001019073ffffffffffffffffffffffffffffffffffffffff16908173ffffffffffffffffffffffffffffffffffffffff1681525050732791bca1f2de4661ed88a30c99a7a9449aa8417481600181518110612c7b57612c7a61388c565b5b602002602001019073ffffffffffffffffffffffffffffffffffffffff16908173ffffffffffffffffffffffffffffffffffffffff1681525050612cc8826000833064174876e7ff61261a565b505050565b73a5e0829caced8ffdd4de3c43696c57f7d7a678ff81565b600c60009054906101000a900473ffffffffffffffffffffffffffffffffffffffff1681565b730d500b1d8e8ef31e21c99d1db9a6444d3adf127081565b600b6020528060005260406000206000915090505481565b600080821215612d545781612d4f90613fc7565b612d56565b815b9050919050565b6040518060e0016040528060608152602001600073ffffffffffffffffffffffffffffffffffffffff168152602001600073ffffffffffffffffffffffffffffffffffffffff168152602001600081526020016000815260200160008152602001600081525090565b600073ffffffffffffffffffffffffffffffffffffffff82169050919050565b6000612df182612dc6565b9050919050565b612e0181612de6565b82525050565b6000602082019050612e1c6000830184612df8565b92915050565b6000604051905090565b600080fd5b600080fd5b612e3f81612de6565b8114612e4a57600080fd5b50565b600081359050612e5c81612e36565b92915050565b600060208284031215612e7857612e77612e2c565b5b6000612e8684828501612e4d565b91505092915050565b6000819050919050565b612ea281612e8f565b82525050565b6000602082019050612ebd6000830184612e99565b92915050565b60008060408385031215612eda57612ed9612e2c565b5b6000612ee885828601612e4d565b9250506020612ef985828601612e4d565b9150509250929050565b6000819050919050565b612f1681612f03565b82525050565b6000602082019050612f316000830184612f0d565b92915050565b612f4081612f03565b8114612f4b57600080fd5b50565b600081359050612f5d81612f37565b92915050565b600060208284031215612f7957612f78612e2c565b5b6000612f8784828501612f4e565b91505092915050565b600080600060608486031215612fa957612fa8612e2c565b5b6000612fb786828701612e4d565b9350506020612fc886828701612e4d565b9250506040612fd986828701612f4e565b9150509250925092565b600080600060608486031215612ffc57612ffb612e2c565b5b600061300a86828701612e4d565b935050602061301b86828701612f4e565b925050604061302c86828701612f4e565b9150509250925092565b600080fd5b600080fd5b600080fd5b60008083601f84011261305b5761305a613036565b5b8235905067ffffffffffffffff8111156130785761307761303b565b5b60208301915083600182028301111561309457613093613040565b5b9250929050565b600080602083850312156130b2576130b1612e2c565b5b600083013567ffffffffffffffff8111156130d0576130cf612e31565b5b6130dc85828601613045565b92509250509250929050565b60008115159050919050565b6130fd816130e8565b82525050565b600081519050919050565b600082825260208201905092915050565b60005b8381101561313d578082015181840152602081019050613122565b60008484015250505050565b6000601f19601f8301169050919050565b600061316582613103565b61316f818561310e565b935061317f81856020860161311f565b61318881613149565b840191505092915050565b60006040820190506131a860008301856130f4565b81810360208301526131ba818461315a565b90509392505050565b60008060008060008060c087890312156131e0576131df612e2c565b5b60006131ee89828a01612f4e565b96505060206131ff89828a01612f4e565b955050604061321089828a01612f4e565b945050606061322189828a01612f4e565b935050608061323289828a01612f4e565b92505060a061324389828a01612f4e565b9150509295509295509295565b7f4e487b7100000000000000000000000000000000000000000000000000000000600052604160045260246000fd5b61328882613149565b810181811067ffffffffffffffff821117156132a7576132a6613250565b5b80604052505050565b60006132ba612e22565b90506132c6828261327f565b919050565b600067ffffffffffffffff8211156132e6576132e5613250565b5b602082029050602081019050919050565b600061330a613305846132cb565b6132b0565b9050808382526020820190506020840283018581111561332d5761332c613040565b5b835b8181101561335657806133428882612e4d565b84526020840193505060208101905061332f565b5050509392505050565b600082601f83011261337557613374613036565b5b81356133858482602086016132f7565b91505092915050565b600080600080600060a086880312156133aa576133a9612e2c565b5b60006133b888828901612f4e565b95505060206133c988828901612f4e565b945050604086013567ffffffffffffffff8111156133ea576133e9612e31565b5b6133f688828901613360565b935050606061340788828901612e4d565b925050608061341888828901612f4e565b9150509295509295909350565b60008060006060848603121561343e5761343d612e2c565b5b600061344c86828701612f4e565b935050602061345d86828701612e4d565b925050604061346e86828701612e4d565b9150509250925092565b6000806040838503121561348f5761348e612e2c565b5b600061349d85828601612e4d565b92505060206134ae85828601612f4e565b9150509250929050565b6000819050919050565b60006134dd6134d86134d384612dc6565b6134b8565b612dc6565b9050919050565b60006134ef826134c2565b9050919050565b6000613501826134e4565b9050919050565b613511816134f6565b82525050565b600060208201905061352c6000830184613508565b92915050565b600069ffffffffffffffffffff82169050919050565b61355181613532565b811461355c57600080fd5b50565b60008151905061356e81613548565b92915050565b61357d81612e8f565b811461358857600080fd5b50565b60008151905061359a81613574565b92915050565b6000815190506135af81612f37565b92915050565b600080600080600060a086880312156135d1576135d0612e2c565b5b60006135df8882890161355f565b95505060206135f08882890161358b565b9450506040613601888289016135a0565b9350506060613612888289016135a0565b92505060806136238882890161355f565b9150509295509295909350565b60006020828403121561364657613645612e2c565b5b6000613654848285016135a0565b91505092915050565b7f4e487b7100000000000000000000000000000000000000000000000000000000600052601160045260246000fd5b600061369782612f03565b91506136a283612f03565b9250817fffffffffffffffffffffffffffffffffffffffffffffffffffffffffffffffff04831182151516156136db576136da61365d565b5b828202905092915050565b7f4e487b7100000000000000000000000000000000000000000000000000000000600052601260045260246000fd5b600061372082612f03565b915061372b83612f03565b92508261373b5761373a6136e6565b5b828204905092915050565b600060408201905061375b6000830185612df8565b6137686020830184612f0d565b9392505050565b613778816130e8565b811461378357600080fd5b50565b6000815190506137958161376f565b92915050565b6000602082840312156137b1576137b0612e2c565b5b60006137bf84828501613786565b91505092915050565b60006137d382612f03565b91506137de83612f03565b92508282019050808211156137f6576137f561365d565b5b92915050565b600061380782612f03565b915061381283612f03565b925082820390508181111561382a5761382961365d565b5b92915050565b6000806040838503121561384757613846612e2c565b5b600083013567ffffffffffffffff81111561386557613864612e31565b5b61387185828601613360565b925050602061388285828601612f4e565b9150509250929050565b7f4e487b7100000000000000000000000000000000000000000000000000000000600052603260045260246000fd5b600082825260208201905092915050565b7f4572726f72202d2054686973207573657220686173206e6f2073686172657300600082015250565b6000613902601f836138bb565b915061390d826138cc565b602082019050919050565b60006020820190508181036000830152613931816138f5565b9050919050565b60008160011c9050919050565b6000808291508390505b600185111561398f5780860481111561396b5761396a61365d565b5b600185161561397a5780820291505b808102905061398885613938565b945061394f565b94509492505050565b6000826139a85760019050613a64565b816139b65760009050613a64565b81600181146139cc57600281146139d657613a05565b6001915050613a64565b60ff8411156139e8576139e761365d565b5b8360020a9150848211156139ff576139fe61365d565b5b50613a64565b5060208310610133831016604e8410600b8410161715613a3a5782820a905083811115613a3557613a3461365d565b5b613a64565b613a478484846001613945565b92509050818404811115613a5e57613a5d61365d565b5b81810290505b9392505050565b6000613a7682612f03565b9150613a8183612f03565b9250613aae7fffffffffffffffffffffffffffffffffffffffffffffffffffffffffffffffff8484613998565b905092915050565b6000613ac182612e8f565b9150613acc83612e8f565b9250827f7fffffffffffffffffffffffffffffffffffffffffffffffffffffffffffffff0482116000841360008413161615613b0b57613b0a61365d565b5b817f80000000000000000000000000000000000000000000000000000000000000000583126000841260008413161615613b4857613b4761365d565b5b827f80000000000000000000000000000000000000000000000000000000000000000582126000841360008412161615613b8557613b8461365d565b5b827f7fffffffffffffffffffffffffffffffffffffffffffffffffffffffffffffff0582126000841260008412161615613bc257613bc161365d565b5b828202905092915050565b6000613bd882612e8f565b9150613be383612e8f565b925082613bf357613bf26136e6565b5b600160000383147f800000000000000000000000000000000000000000000000000000000000000083141615613c2c57613c2b61365d565b5b828205905092915050565b6000613c4282612e8f565b9150613c4d83612e8f565b925082820190508281121560008312168382126000841215161715613c7557613c7461365d565b5b92915050565b6000613c8682612f03565b91507fffffffffffffffffffffffffffffffffffffffffffffffffffffffffffffffff8203613cb857613cb761365d565b5b600182019050919050565b6000613cce82612e8f565b9150613cd983612e8f565b9250828203905081811260008412168282136000851215161715613d0057613cff61365d565b5b92915050565b600060ff82169050919050565b6000613d1e82613d06565b915060ff8203613d3157613d3061365d565b5b600182019050919050565b600081519050919050565b600082825260208201905092915050565b6000819050602082019050919050565b613d7181612de6565b82525050565b6000613d838383613d68565b60208301905092915050565b6000602082019050919050565b6000613da782613d3c565b613db18185613d47565b9350613dbc83613d58565b8060005b83811015613ded578151613dd48882613d77565b9750613ddf83613d8f565b925050600181019050613dc0565b5085935050505092915050565b60006040820190508181036000830152613e148185613d9c565b9050613e236020830184612e99565b9392505050565b600060a082019050613e3f6000830188612f0d565b613e4c6020830187612f0d565b8181036040830152613e5e8186613d9c565b9050613e6d6060830185612df8565b613e7a6080830184612f0d565b9695505050505050565b600067ffffffffffffffff821115613e9f57613e9e613250565b5b602082029050602081019050919050565b6000613ec3613ebe84613e84565b6132b0565b90508083825260208201905060208402830185811115613ee657613ee5613040565b5b835b81811015613f0f5780613efb88826135a0565b845260208401935050602081019050613ee8565b5050509392505050565b600082601f830112613f2e57613f2d613036565b5b8151613f3e848260208601613eb0565b91505092915050565b600060208284031215613f5d57613f5c612e2c565b5b600082015167ffffffffffffffff811115613f7b57613f7a612e31565b5b613f8784828501613f19565b91505092915050565b6000606082019050613fa56000830186612df8565b613fb26020830185612df8565b613fbf6040830184612f0d565b949350505050565b6000613fd282612e8f565b91507f800000000000000000000000000000000000000000000000000000000000000082036140045761400361365d565b5b81600003905091905056fea2646970667358221220fd485b03faa90ef17998e397e34de3f5131a3cc513eec785da3f3e847f302c5764736f6c63430008100033",
  "immutableReferences": {},
  "source": "pragma solidity ^0.8.0;\npragma experimental ABIEncoderV2;\n//import statements go here\nimport \"./interfaces/IUniswapV2Router02.sol\";\nimport \"./interfaces/IUniswapV2Router01.sol\";\nimport \"./interfaces/IERC20.sol\";\nimport \"@chainlink/contracts/src/v0.8/interfaces/AggregatorV3Interface.sol\";\n// KeeperCompatible.sol imports the functions from both ./KeeperBase.sol and\n// ./interfaces/KeeperCompatibleInterface.sol\nimport \"@chainlink/contracts/src/v0.8/KeeperCompatible.sol\";\n\ncontract autoBalancer is KeeperCompatibleInterface {\n    address public constant USDC_ADDRESS =\n        0x2791Bca1f2de4661ED88A30C99A7a9449Aa84174;\n\n    address public constant WMATIC_ADDRESS =\n        0x0d500B1d8E8eF31E21C99d1Db9A6444d3ADf1270;\n    address public constant SAND_ADDRESS =\n        0xBbba073C31bF03b8ACf7c28EF0738DeCF3695683;\n    address public constant WETH_ADDRESS =\n        0x7ceB23fD6bC0adD59E62ac25578270cFf1b9f619;\n    address public constant WBTC_ADDRESS =\n        0x1BFD67037B42Cf73acF2047067bd4F2C47D9BfD6;\n\n    address public constant MATIC_USD_ORACLE =\n        0xAB594600376Ec9fD91F8e885dADF0CE036862dE0;\n    address public constant BTC_USD_ORACLE =\n        0xc907E116054Ad103354f2D350FD2514433D57F6f;\n    address public constant ETH_USD_ORACLE =\n        0xF9680D99D6C9589e2a93a78A04A279e509205945;\n    address public constant SAND_USD_ORACLE =\n        0x3D49406EDd4D52Fb7FFd25485f32E073b529C924;\n\n    address[] public USDCToWMATICPath = [USDC_ADDRESS, WMATIC_ADDRESS];\n    address[] public USDCToSANDPath = [USDC_ADDRESS, SAND_ADDRESS];\n    address[] public USDCToWETHPath = [USDC_ADDRESS, WETH_ADDRESS];\n    address[] public USDCToWBTCPath = [USDC_ADDRESS, WBTC_ADDRESS];\n\n    address[] public WMATICToUSDCPath = [WMATIC_ADDRESS, USDC_ADDRESS];\n    address[] public SANDToUSDCPath = [SAND_ADDRESS, USDC_ADDRESS];\n    address[] public WETHToUSDCPath = [WETH_ADDRESS, USDC_ADDRESS];\n    address[] public WBTCToUSDCPath = [WBTC_ADDRESS, USDC_ADDRESS];\n\n    address public constant QUICKSWAP_ROUTER =\n        0xa5E0829CaCEd8fFDD4De3c43696c57F7D7A678ff;\n\n    uint256 public totalNumberOfShares;\n\n    uint256 public lastTimeStamp;\n    uint256 public interval = 60;\n\n    mapping(address => uint256) public userNumberOfShares;\n\n    IUniswapV2Router02 public quickSwapRouter =\n        IUniswapV2Router02(QUICKSWAP_ROUTER);\n\n    struct Coin {\n        string symbol;\n        address tokenAddress;\n        address oracleAddress;\n        // uint256 decimals;\n        int256 balance;\n        int256 usd_balance;\n        int256 diff_from_average;\n        int256 usd_exchange_rate;\n    }\n\n    function setInterval(uint256 new_interval) public {\n        interval = new_interval;\n    }\n\n    /**\n     * Returns the latest price\n     */\n    function getLatestPrice(address _oracle_address)\n        public\n        view\n        returns (int256)\n    {\n        (\n            uint80 roundID,\n            int256 price,\n            uint256 startedAt,\n            uint256 timeStamp,\n            uint80 answeredInRound\n        ) = AggregatorV3Interface(_oracle_address).latestRoundData();\n        return price;\n    }\n\n    function checkUpkeep(\n        bytes calldata /* checkData */\n    )\n        external\n        view\n        override\n        returns (bool upkeepNeeded, bytes memory performData)\n    {\n        upkeepNeeded = (block.timestamp - lastTimeStamp) > interval;\n\n        Coin[] memory array_coins = new Coin[](4);\n\n        Coin memory wmatic;\n        wmatic.tokenAddress = WMATIC_ADDRESS;\n        wmatic.oracleAddress = MATIC_USD_ORACLE;\n        Coin memory sand;\n        sand.tokenAddress = SAND_ADDRESS;\n        sand.oracleAddress = SAND_USD_ORACLE;\n        Coin memory wbtc;\n        wbtc.tokenAddress = WBTC_ADDRESS;\n        wbtc.oracleAddress = BTC_USD_ORACLE;\n        Coin memory weth;\n        weth.tokenAddress = WETH_ADDRESS;\n        weth.oracleAddress = ETH_USD_ORACLE;\n\n        array_coins[0] = wmatic;\n        array_coins[1] = sand;\n        array_coins[2] = wbtc;\n        array_coins[3] = weth;\n\n        int256 total_in_usd = 0;\n        int256 no_of_assets = int256(array_coins.length);\n\n        for (uint256 i = 0; i < array_coins.length; i++) {\n            IERC20 coin_instance = IERC20(array_coins[i].tokenAddress);\n            array_coins[i].balance = int256(\n                coin_instance.balanceOf(address(this))\n            );\n            array_coins[i].usd_exchange_rate = getLatestPrice(\n                array_coins[i].oracleAddress\n            );\n            // array_coins[i].decimals = getDecimals(array_coins[i].address);\n            array_coins[i].usd_balance =\n                (array_coins[i].balance * array_coins[i].usd_exchange_rate) /\n                (10**8); //do I need to reintroduce decimals here?\n            total_in_usd += array_coins[i].usd_balance;\n        }\n\n        int256 target_per_asset = total_in_usd / no_of_assets;\n\n        for (uint256 i = 0; i < array_coins.length; i++) {\n            array_coins[i].diff_from_average =\n                array_coins[i].usd_balance -\n                target_per_asset;\n        }\n\n        // Coin memory max_coin = find_max(array_coins);\n        int256 comparison_variable; // default 0, the lowest value of `uint256`\n        uint8 maxCoin_index;\n        for (uint8 i = 0; i < array_coins.length; i++) {\n            if (array_coins[i].diff_from_average > comparison_variable) {\n                maxCoin_index = i;\n                comparison_variable = array_coins[i].diff_from_average;\n            }\n        }\n        // Coin memory min_coin = find_min(array_coins);\n        comparison_variable = type(int256).max; // the highest value of int256\n        uint8 minCoin_index;\n        for (uint8 i = 0; i < array_coins.length; i++) {\n            if (array_coins[i].diff_from_average < comparison_variable) {\n                minCoin_index = i;\n                comparison_variable = array_coins[i].diff_from_average;\n            }\n        }\n\n        int256 amount1;\n        if (\n            array_coins[maxCoin_index].diff_from_average >\n            abs(array_coins[minCoin_index].diff_from_average)\n        ) {\n            amount1 = abs(array_coins[minCoin_index].diff_from_average);\n            amount1 =\n                (amount1 * (10**8)) /\n                array_coins[minCoin_index].usd_exchange_rate;\n        } else {\n            amount1 = array_coins[maxCoin_index].diff_from_average;\n            amount1 =\n                (amount1 * (10**8)) /\n                array_coins[maxCoin_index].usd_exchange_rate;\n        }\n\n        address[] memory path_short = new address[](2);\n        address[] memory path_long = new address[](3);\n\n        if (\n            array_coins[maxCoin_index].tokenAddress == WMATIC_ADDRESS ||\n            array_coins[minCoin_index].tokenAddress == WMATIC_ADDRESS\n        ) {\n            path_short[0] = array_coins[maxCoin_index].tokenAddress;\n            path_short[1] = array_coins[minCoin_index].tokenAddress;\n            performData = abi.encode(path_short, amount1); //, path2, amount2, path3, amount3\n        } else {\n            path_long[0] = array_coins[maxCoin_index].tokenAddress;\n            path_long[1] = WMATIC_ADDRESS;\n            path_long[2] = array_coins[minCoin_index].tokenAddress;\n            performData = abi.encode(path_long, amount1); //, path2, amount2, path3, amount3\n        }\n        // We don't use the checkData in this example. The checkData is defined when the Upkeep was registered.\n        return (upkeepNeeded, performData);\n    }\n\n    function performUpkeep(bytes calldata performData) external override {\n        //We highly recommend revalidating the upkeep in the performUpkeep function\n        if ((block.timestamp - lastTimeStamp) > interval) {\n            lastTimeStamp = block.timestamp;\n            // this is where I actually do the rebalance on chain\n            address[] memory path1;\n            uint256 amount1;\n            (path1, amount1) = abi.decode(performData, (address[], uint256)); //, path2, amount2, path3, amount3\n            approve_spending(path1[0], QUICKSWAP_ROUTER, amount1);\n            swap(amount1, uint256(0), path1, address(this), 99999999999);\n        }\n        // The performData is generated by the Keeper's call to your checkUpkeep function\n    }\n\n    function find_max(Coin[] memory coin_array)\n        internal\n        pure\n        returns (Coin memory maxCoin)\n    {\n        require(coin_array.length > 0); // throw an exception if the condition is not met\n        int256 maxDiff; // default 0, the lowest value of `uint256`\n\n        for (uint256 i = 0; i < coin_array.length; i++) {\n            if (coin_array[i].diff_from_average > maxDiff) {\n                maxCoin = coin_array[i];\n            }\n        }\n        return maxCoin;\n    }\n\n    function find_min(Coin[] memory coin_array)\n        internal\n        pure\n        returns (Coin memory minCoin)\n    {\n        require(coin_array.length > 0); // throw an exception if the condition is not met\n        int256 minDiff = type(int256).max; // default 0, the lowest value of `uint256`\n\n        for (uint256 i = 0; i < coin_array.length; i++) {\n            if (coin_array[i].diff_from_average < minDiff) {\n                minCoin = coin_array[i];\n            }\n        }\n        return minCoin;\n    }\n\n    function abs(int256 x) private pure returns (int256) {\n        return x >= 0 ? x : -x;\n    }\n\n    function updateSharesOnWithdrawal(address user) public {\n        //make this ownable - only contract itself can update this?\n        require(\n            userNumberOfShares[user] > 0,\n            \"Error - This user has no shares\"\n        );\n        totalNumberOfShares -= userNumberOfShares[user];\n        userNumberOfShares[user] = 0;\n    }\n\n    function getUserShares(address user)\n        public\n        view\n        returns (uint256 userShares)\n    {\n        return userNumberOfShares[user];\n    }\n\n    function approve_spending(\n        address token_address,\n        address spender_address,\n        uint256 amount_to_approve\n    ) public {\n        IERC20(token_address).approve(spender_address, amount_to_approve);\n    }\n\n    receive() external payable {}\n\n    function depositUserFunds(uint256 amount_) public {\n        IERC20(USDC_ADDRESS).transferFrom(msg.sender, address(this), amount_);\n\n        uint256 WMATIC_balanceInUSD = getUSDTokenBalanceOf(\n            WMATIC_ADDRESS,\n            MATIC_USD_ORACLE,\n            18\n        );\n        uint256 SAND_balanceInUSD = getUSDTokenBalanceOf(\n            SAND_ADDRESS,\n            SAND_USD_ORACLE,\n            18\n        );\n        uint256 WETH_balanceInUSD = getUSDTokenBalanceOf(\n            WETH_ADDRESS,\n            ETH_USD_ORACLE,\n            18\n        );\n        uint256 WBTC_balanceInUSD = getUSDTokenBalanceOf(\n            WBTC_ADDRESS,\n            BTC_USD_ORACLE,\n            8\n        );\n\n        uint256 Total_in_USD = WMATIC_balanceInUSD +\n            SAND_balanceInUSD +\n            WETH_balanceInUSD +\n            WBTC_balanceInUSD;\n\n        approve_spending(USDC_ADDRESS, QUICKSWAP_ROUTER, amount_);\n\n        if (Total_in_USD > 0) {\n            swapProportionately(\n                WMATIC_balanceInUSD,\n                SAND_balanceInUSD,\n                WETH_balanceInUSD,\n                WBTC_balanceInUSD,\n                Total_in_USD,\n                amount_\n            );\n        } else {\n            swapIntoFourEqualParts(amount_);\n        }\n\n        if (Total_in_USD > 0) {\n            updateSharesOnDeposit(msg.sender, Total_in_USD, amount_);\n        } else {\n            setSharesFirstTime(msg.sender);\n        }\n    }\n\n    function getUSDTokenBalanceOf(\n        address token_address,\n        address oracle_address,\n        uint256 token_decimals\n    ) public view returns (uint256) {\n        // uint256 token_decimals = ERC20(token_address).decimals();\n        return\n            (tokenBalanceOf(token_address, address(this)) *\n                (uint256(getLatestPrice(oracle_address)))) /\n            (10**(token_decimals + 2));\n    }\n\n    function swapProportionately(\n        uint256 WMATIC_amount,\n        uint256 SAND_amount,\n        uint256 WETH_amount,\n        uint256 WBTC_amount,\n        uint256 totalUSDAmount,\n        uint256 depositAmount\n    ) public {\n        uint256 WMATIC_share = (WMATIC_amount * (depositAmount)) /\n            (totalUSDAmount);\n        uint256 SAND_share = (SAND_amount * (depositAmount)) / (totalUSDAmount);\n        uint256 WETH_share = (WETH_amount * (depositAmount)) / (totalUSDAmount);\n        uint256 WBTC_share = (WBTC_amount * (depositAmount)) / (totalUSDAmount);\n\n        swap(\n            WMATIC_share,\n            uint256(0),\n            USDCToWMATICPath,\n            address(this),\n            99999999999\n        );\n        swap(\n            SAND_share,\n            uint256(0),\n            USDCToSANDPath,\n            address(this),\n            99999999999\n        );\n        swap(\n            WETH_share,\n            uint256(0),\n            USDCToWETHPath,\n            address(this),\n            99999999999\n        );\n        swap(\n            WBTC_share,\n            uint256(0),\n            USDCToWBTCPath,\n            address(this),\n            99999999999\n        );\n    }\n\n    function swapIntoFourEqualParts(uint256 amount) public {\n        swap(\n            amount / 4,\n            uint256(0),\n            USDCToWMATICPath,\n            address(this),\n            99999999999\n        );\n        swap(\n            amount / 4,\n            uint256(0),\n            USDCToSANDPath,\n            address(this),\n            99999999999\n        );\n        swap(\n            amount / 4,\n            uint256(0),\n            USDCToWETHPath,\n            address(this),\n            99999999999\n        );\n        swap(\n            amount / 4,\n            uint256(0),\n            USDCToWBTCPath,\n            address(this),\n            99999999999\n        );\n    }\n\n    function setSharesFirstTime(address user) public {\n        userNumberOfShares[user] = 100000000;\n        totalNumberOfShares = userNumberOfShares[user];\n    }\n\n    function updateSharesOnDeposit(\n        address user,\n        uint256 total_in_USD,\n        uint256 deposit_amount\n    ) public {\n        //make this ownable - only contract itself can update this?\n        uint256 newSharesForUser = (deposit_amount * (totalNumberOfShares)) /\n            (total_in_USD);\n        totalNumberOfShares = totalNumberOfShares + newSharesForUser;\n        if (userNumberOfShares[user] > 0) {\n            userNumberOfShares[user] =\n                userNumberOfShares[user] +\n                newSharesForUser;\n        } else {\n            userNumberOfShares[user] = newSharesForUser;\n        }\n    }\n\n    function withdrawUserFunds(address user) public {\n        //do I need an approval here?\n\n        uint256 WMATIC_amount = (userNumberOfShares[user] *\n            (tokenBalanceOf(WMATIC_ADDRESS, address(this)))) /\n            (totalNumberOfShares);\n        uint256 SAND_amount = (userNumberOfShares[user] *\n            (tokenBalanceOf(SAND_ADDRESS, address(this)))) /\n            (totalNumberOfShares);\n        uint256 WETH_amount = (userNumberOfShares[user] *\n            (tokenBalanceOf(WETH_ADDRESS, address(this)))) /\n            (totalNumberOfShares);\n        uint256 WBTC_amount = (userNumberOfShares[user] *\n            (tokenBalanceOf(WBTC_ADDRESS, address(this)))) /\n            (totalNumberOfShares);\n\n        approve_spending(WMATIC_ADDRESS, QUICKSWAP_ROUTER, WMATIC_amount);\n        approve_spending(SAND_ADDRESS, QUICKSWAP_ROUTER, SAND_amount);\n        approve_spending(WETH_ADDRESS, QUICKSWAP_ROUTER, WETH_amount);\n        approve_spending(WBTC_ADDRESS, QUICKSWAP_ROUTER, WBTC_amount);\n\n        swapBackToUSDC(WMATIC_ADDRESS, WMATIC_amount);\n        swapBackToUSDC(SAND_ADDRESS, SAND_amount);\n        swapBackToUSDC(WETH_ADDRESS, WETH_amount);\n        swapBackToUSDC(WBTC_ADDRESS, WBTC_amount);\n\n        // approveSpendingWholeBalance(USDC_ADDRESS, BENTOBOX_MASTER_CONTRACT_ADDRESS);\n\n        uint256 USDC_amount = tokenBalanceOf(USDC_ADDRESS, address(this));\n        withdraw(USDC_amount, USDC_ADDRESS, user);\n\n        updateSharesOnWithdrawal(user);\n    }\n\n    function withdraw(\n        uint256 amount_,\n        address token_address,\n        address address_to\n    ) public {\n        IERC20 token_ = IERC20(token_address); //is this right?\n\n        token_.transfer(address_to, amount_);\n    }\n\n    function approveSpendingWholeBalance(address _token, address _spender)\n        public\n    {\n        uint256 tokenBalance = IERC20(_token).balanceOf(address(this));\n        approve_spending(_token, _spender, tokenBalance);\n    }\n\n    function swapBackToUSDC(address _token, uint256 _amount) public {\n        address[] memory path = new address[](2);\n        path[0] = _token;\n        path[1] = USDC_ADDRESS;\n        swap(_amount, uint256(0), path, address(this), 99999999999);\n    }\n\n    // function withdraw_matic(uint256 amount_) public payable {\n    //     transfer(msg.sender, amount_);\n    // }\n\n    function tokenBalanceOf(address token_address, address user_address)\n        public\n        view\n        returns (uint256 token_balance)\n    {\n        IERC20 _token = IERC20(token_address);\n        token_balance = _token.balanceOf(user_address);\n        return token_balance;\n    }\n\n    function swap(\n        uint256 _amountIn,\n        uint256 _amountOutMin,\n        address[] memory _path,\n        address _acct,\n        uint256 _deadline\n    ) public {\n        quickSwapRouter.swapExactTokensForTokens(\n            _amountIn,\n            _amountOutMin,\n            _path,\n            _acct,\n            _deadline\n        );\n    }\n}\n",
  "sourcePath": "/Users/richardjamieson/Documents/GitHub/BentoBoxBalancer/contracts/autoBalancer.sol",
  "compiler": {
    "name": "solc",
    "version": "0.8.16+commit.07a7930e.Emscripten.clang"
  },
  "schemaVersion": "3.4.9",
  "updatedAt": "2022-08-19T12:00:28.430Z",
  "networkType": "ethereum",
  "devdoc": {
    "kind": "dev",
    "methods": {
      "performUpkeep(bytes)": {
        "details": "The input to this method should not be trusted, and the caller of the method should not even be restricted to any single registry. Anyone should be able call it, and the input should be validated, there is no guarantee that the data passed in is the performData returned from checkUpkeep. This could happen due to malicious keepers, racing keepers, or simply a state change while the performUpkeep transaction is waiting for confirmation. Always validate the data passed in.",
        "params": {
          "performData": "is the data which was passed back from the checkData simulation. If it is encoded, it can easily be decoded into other types by calling `abi.decode`. This data should not be trusted, and should be validated against the contract's current state."
        }
      }
    },
    "version": 1
  },
  "userdoc": {
    "kind": "user",
    "methods": {
      "getLatestPrice(address)": {
        "notice": "Returns the latest price"
      },
      "performUpkeep(bytes)": {
        "notice": "method that is actually executed by the keepers, via the registry. The data returned by the checkUpkeep simulation will be passed into this method to actually be executed."
      }
    },
    "version": 1
  }
}