{
  "contractName": "autoBalancer",
  "abi": [
    {
      "inputs": [],
      "name": "BTC_USD_ORACLE",
      "outputs": [
        {
          "internalType": "address",
          "name": "",
          "type": "address"
        }
      ],
      "stateMutability": "view",
      "type": "function",
      "constant": true
    },
    {
      "inputs": [],
      "name": "ETH_USD_ORACLE",
      "outputs": [
        {
          "internalType": "address",
          "name": "",
          "type": "address"
        }
      ],
      "stateMutability": "view",
      "type": "function",
      "constant": true
    },
    {
      "inputs": [
        {
          "internalType": "uint256",
          "name": "",
          "type": "uint256"
        }
      ],
      "name": "LINKToUSDCPath",
      "outputs": [
        {
          "internalType": "address",
          "name": "",
          "type": "address"
        }
      ],
      "stateMutability": "view",
      "type": "function",
      "constant": true
    },
    {
      "inputs": [],
      "name": "LINK_ADDRESS",
      "outputs": [
        {
          "internalType": "address",
          "name": "",
          "type": "address"
        }
      ],
      "stateMutability": "view",
      "type": "function",
      "constant": true
    },
    {
      "inputs": [],
      "name": "LINK_USD_ORACLE",
      "outputs": [
        {
          "internalType": "address",
          "name": "",
          "type": "address"
        }
      ],
      "stateMutability": "view",
      "type": "function",
      "constant": true
    },
    {
      "inputs": [],
      "name": "MATIC_USD_ORACLE",
      "outputs": [
        {
          "internalType": "address",
          "name": "",
          "type": "address"
        }
      ],
      "stateMutability": "view",
      "type": "function",
      "constant": true
    },
    {
      "inputs": [],
      "name": "QUICKSWAP_ROUTER",
      "outputs": [
        {
          "internalType": "address",
          "name": "",
          "type": "address"
        }
      ],
      "stateMutability": "view",
      "type": "function",
      "constant": true
    },
    {
      "inputs": [
        {
          "internalType": "uint256",
          "name": "",
          "type": "uint256"
        }
      ],
      "name": "USDCToLINKPath",
      "outputs": [
        {
          "internalType": "address",
          "name": "",
          "type": "address"
        }
      ],
      "stateMutability": "view",
      "type": "function",
      "constant": true
    },
    {
      "inputs": [
        {
          "internalType": "uint256",
          "name": "",
          "type": "uint256"
        }
      ],
      "name": "USDCToWBTCPath",
      "outputs": [
        {
          "internalType": "address",
          "name": "",
          "type": "address"
        }
      ],
      "stateMutability": "view",
      "type": "function",
      "constant": true
    },
    {
      "inputs": [
        {
          "internalType": "uint256",
          "name": "",
          "type": "uint256"
        }
      ],
      "name": "USDCToWETHPath",
      "outputs": [
        {
          "internalType": "address",
          "name": "",
          "type": "address"
        }
      ],
      "stateMutability": "view",
      "type": "function",
      "constant": true
    },
    {
      "inputs": [
        {
          "internalType": "uint256",
          "name": "",
          "type": "uint256"
        }
      ],
      "name": "USDCToWMATICPath",
      "outputs": [
        {
          "internalType": "address",
          "name": "",
          "type": "address"
        }
      ],
      "stateMutability": "view",
      "type": "function",
      "constant": true
    },
    {
      "inputs": [],
      "name": "USDC_ADDRESS",
      "outputs": [
        {
          "internalType": "address",
          "name": "",
          "type": "address"
        }
      ],
      "stateMutability": "view",
      "type": "function",
      "constant": true
    },
    {
      "inputs": [
        {
          "internalType": "uint256",
          "name": "",
          "type": "uint256"
        }
      ],
      "name": "WBTCToUSDCPath",
      "outputs": [
        {
          "internalType": "address",
          "name": "",
          "type": "address"
        }
      ],
      "stateMutability": "view",
      "type": "function",
      "constant": true
    },
    {
      "inputs": [],
      "name": "WBTC_ADDRESS",
      "outputs": [
        {
          "internalType": "address",
          "name": "",
          "type": "address"
        }
      ],
      "stateMutability": "view",
      "type": "function",
      "constant": true
    },
    {
      "inputs": [
        {
          "internalType": "uint256",
          "name": "",
          "type": "uint256"
        }
      ],
      "name": "WETHToUSDCPath",
      "outputs": [
        {
          "internalType": "address",
          "name": "",
          "type": "address"
        }
      ],
      "stateMutability": "view",
      "type": "function",
      "constant": true
    },
    {
      "inputs": [],
      "name": "WETH_ADDRESS",
      "outputs": [
        {
          "internalType": "address",
          "name": "",
          "type": "address"
        }
      ],
      "stateMutability": "view",
      "type": "function",
      "constant": true
    },
    {
      "inputs": [
        {
          "internalType": "uint256",
          "name": "",
          "type": "uint256"
        }
      ],
      "name": "WMATICToUSDCPath",
      "outputs": [
        {
          "internalType": "address",
          "name": "",
          "type": "address"
        }
      ],
      "stateMutability": "view",
      "type": "function",
      "constant": true
    },
    {
      "inputs": [],
      "name": "WMATIC_ADDRESS",
      "outputs": [
        {
          "internalType": "address",
          "name": "",
          "type": "address"
        }
      ],
      "stateMutability": "view",
      "type": "function",
      "constant": true
    },
    {
      "inputs": [],
      "name": "counter",
      "outputs": [
        {
          "internalType": "uint256",
          "name": "",
          "type": "uint256"
        }
      ],
      "stateMutability": "view",
      "type": "function",
      "constant": true
    },
    {
      "inputs": [],
      "name": "interval",
      "outputs": [
        {
          "internalType": "uint256",
          "name": "",
          "type": "uint256"
        }
      ],
      "stateMutability": "view",
      "type": "function",
      "constant": true
    },
    {
      "inputs": [],
      "name": "lastTimeStamp",
      "outputs": [
        {
          "internalType": "uint256",
          "name": "",
          "type": "uint256"
        }
      ],
      "stateMutability": "view",
      "type": "function",
      "constant": true
    },
    {
      "inputs": [],
      "name": "quickSwapRouter",
      "outputs": [
        {
          "internalType": "contract IUniswapV2Router02",
          "name": "",
          "type": "address"
        }
      ],
      "stateMutability": "view",
      "type": "function",
      "constant": true
    },
    {
      "inputs": [],
      "name": "totalNumberOfShares",
      "outputs": [
        {
          "internalType": "uint256",
          "name": "",
          "type": "uint256"
        }
      ],
      "stateMutability": "view",
      "type": "function",
      "constant": true
    },
    {
      "inputs": [
        {
          "internalType": "address",
          "name": "",
          "type": "address"
        }
      ],
      "name": "userNumberOfShares",
      "outputs": [
        {
          "internalType": "uint256",
          "name": "",
          "type": "uint256"
        }
      ],
      "stateMutability": "view",
      "type": "function",
      "constant": true
    },
    {
      "stateMutability": "payable",
      "type": "receive",
      "payable": true
    },
    {
      "inputs": [
        {
          "internalType": "address",
          "name": "_oracle_address",
          "type": "address"
        }
      ],
      "name": "getLatestPrice",
      "outputs": [
        {
          "internalType": "int256",
          "name": "",
          "type": "int256"
        }
      ],
      "stateMutability": "view",
      "type": "function",
      "constant": true
    },
    {
      "inputs": [
        {
          "internalType": "bytes",
          "name": "",
          "type": "bytes"
        }
      ],
      "name": "checkUpkeep",
      "outputs": [
        {
          "internalType": "bool",
          "name": "upkeepNeeded",
          "type": "bool"
        },
        {
          "internalType": "bytes",
          "name": "performData",
          "type": "bytes"
        }
      ],
      "stateMutability": "view",
      "type": "function",
      "constant": true
    },
    {
      "inputs": [
        {
          "internalType": "bytes",
          "name": "performData",
          "type": "bytes"
        }
      ],
      "name": "performUpkeep",
      "outputs": [],
      "stateMutability": "nonpayable",
      "type": "function"
    },
    {
      "inputs": [
        {
          "internalType": "address",
          "name": "user",
          "type": "address"
        }
      ],
      "name": "updateSharesOnWithdrawal",
      "outputs": [],
      "stateMutability": "nonpayable",
      "type": "function"
    },
    {
      "inputs": [
        {
          "internalType": "address",
          "name": "user",
          "type": "address"
        }
      ],
      "name": "getUserShares",
      "outputs": [
        {
          "internalType": "uint256",
          "name": "userShares",
          "type": "uint256"
        }
      ],
      "stateMutability": "view",
      "type": "function",
      "constant": true
    },
    {
      "inputs": [
        {
          "internalType": "address",
          "name": "token_address",
          "type": "address"
        },
        {
          "internalType": "address",
          "name": "spender_address",
          "type": "address"
        },
        {
          "internalType": "uint256",
          "name": "amount_to_approve",
          "type": "uint256"
        }
      ],
      "name": "approve_spending",
      "outputs": [],
      "stateMutability": "nonpayable",
      "type": "function"
    },
    {
      "inputs": [
        {
          "internalType": "uint256",
          "name": "amount_",
          "type": "uint256"
        }
      ],
      "name": "depositUserFunds",
      "outputs": [],
      "stateMutability": "nonpayable",
      "type": "function"
    },
    {
      "inputs": [
        {
          "internalType": "address",
          "name": "token_address",
          "type": "address"
        },
        {
          "internalType": "address",
          "name": "oracle_address",
          "type": "address"
        },
        {
          "internalType": "uint256",
          "name": "token_decimals",
          "type": "uint256"
        }
      ],
      "name": "getUSDTokenBalanceOf",
      "outputs": [
        {
          "internalType": "uint256",
          "name": "",
          "type": "uint256"
        }
      ],
      "stateMutability": "view",
      "type": "function",
      "constant": true
    },
    {
      "inputs": [
        {
          "internalType": "uint256",
          "name": "WMATIC_amount",
          "type": "uint256"
        },
        {
          "internalType": "uint256",
          "name": "LINK_amount",
          "type": "uint256"
        },
        {
          "internalType": "uint256",
          "name": "WETH_amount",
          "type": "uint256"
        },
        {
          "internalType": "uint256",
          "name": "WBTC_amount",
          "type": "uint256"
        },
        {
          "internalType": "uint256",
          "name": "totalUSDAmount",
          "type": "uint256"
        },
        {
          "internalType": "uint256",
          "name": "depositAmount",
          "type": "uint256"
        }
      ],
      "name": "swapProportionately",
      "outputs": [],
      "stateMutability": "nonpayable",
      "type": "function"
    },
    {
      "inputs": [
        {
          "internalType": "uint256",
          "name": "amount",
          "type": "uint256"
        }
      ],
      "name": "swapIntoFourEqualParts",
      "outputs": [],
      "stateMutability": "nonpayable",
      "type": "function"
    },
    {
      "inputs": [
        {
          "internalType": "address",
          "name": "user",
          "type": "address"
        }
      ],
      "name": "setSharesFirstTime",
      "outputs": [],
      "stateMutability": "nonpayable",
      "type": "function"
    },
    {
      "inputs": [
        {
          "internalType": "address",
          "name": "user",
          "type": "address"
        },
        {
          "internalType": "uint256",
          "name": "total_in_USD",
          "type": "uint256"
        },
        {
          "internalType": "uint256",
          "name": "deposit_amount",
          "type": "uint256"
        }
      ],
      "name": "updateSharesOnDeposit",
      "outputs": [],
      "stateMutability": "nonpayable",
      "type": "function"
    },
    {
      "inputs": [
        {
          "internalType": "address",
          "name": "user",
          "type": "address"
        }
      ],
      "name": "withdrawUserFunds",
      "outputs": [],
      "stateMutability": "nonpayable",
      "type": "function"
    },
    {
      "inputs": [
        {
          "internalType": "uint256",
          "name": "amount_",
          "type": "uint256"
        },
        {
          "internalType": "address",
          "name": "token_address",
          "type": "address"
        },
        {
          "internalType": "address",
          "name": "address_to",
          "type": "address"
        }
      ],
      "name": "withdraw",
      "outputs": [],
      "stateMutability": "nonpayable",
      "type": "function"
    },
    {
      "inputs": [
        {
          "internalType": "address",
          "name": "_token",
          "type": "address"
        },
        {
          "internalType": "address",
          "name": "_spender",
          "type": "address"
        }
      ],
      "name": "approveSpendingWholeBalance",
      "outputs": [],
      "stateMutability": "nonpayable",
      "type": "function"
    },
    {
      "inputs": [
        {
          "internalType": "address",
          "name": "_token",
          "type": "address"
        },
        {
          "internalType": "uint256",
          "name": "_amount",
          "type": "uint256"
        }
      ],
      "name": "swapBackToUSDC",
      "outputs": [],
      "stateMutability": "nonpayable",
      "type": "function"
    },
    {
      "inputs": [
        {
          "internalType": "address",
          "name": "token_address",
          "type": "address"
        },
        {
          "internalType": "address",
          "name": "user_address",
          "type": "address"
        }
      ],
      "name": "tokenBalanceOf",
      "outputs": [
        {
          "internalType": "uint256",
          "name": "token_balance",
          "type": "uint256"
        }
      ],
      "stateMutability": "view",
      "type": "function",
      "constant": true
    },
    {
      "inputs": [
        {
          "internalType": "uint256",
          "name": "_amountIn",
          "type": "uint256"
        },
        {
          "internalType": "uint256",
          "name": "_amountOutMin",
          "type": "uint256"
        },
        {
          "internalType": "address[]",
          "name": "_path",
          "type": "address[]"
        },
        {
          "internalType": "address",
          "name": "_acct",
          "type": "address"
        },
        {
          "internalType": "uint256",
          "name": "_deadline",
          "type": "uint256"
        }
      ],
      "name": "swap",
      "outputs": [],
      "stateMutability": "nonpayable",
      "type": "function"
    }
  ],
  "bytecode": "0x60806040526040518060400160405280732791bca1f2de4661ed88a30c99a7a9449aa8417473ffffffffffffffffffffffffffffffffffffffff1673ffffffffffffffffffffffffffffffffffffffff168152602001730d500b1d8e8ef31e21c99d1db9a6444d3adf127073ffffffffffffffffffffffffffffffffffffffff1673ffffffffffffffffffffffffffffffffffffffff168152506000906002620000ab929190620005ad565b506040518060400160405280732791bca1f2de4661ed88a30c99a7a9449aa8417473ffffffffffffffffffffffffffffffffffffffff1673ffffffffffffffffffffffffffffffffffffffff16815260200173b0897686c545045afc77cf20ec7a532e3120e0f173ffffffffffffffffffffffffffffffffffffffff1673ffffffffffffffffffffffffffffffffffffffff16815250600190600262000153929190620005ad565b506040518060400160405280732791bca1f2de4661ed88a30c99a7a9449aa8417473ffffffffffffffffffffffffffffffffffffffff1673ffffffffffffffffffffffffffffffffffffffff168152602001737ceb23fd6bc0add59e62ac25578270cff1b9f61973ffffffffffffffffffffffffffffffffffffffff1673ffffffffffffffffffffffffffffffffffffffff168152506002906002620001fb929190620005ad565b506040518060400160405280732791bca1f2de4661ed88a30c99a7a9449aa8417473ffffffffffffffffffffffffffffffffffffffff1673ffffffffffffffffffffffffffffffffffffffff168152602001731bfd67037b42cf73acf2047067bd4f2c47d9bfd673ffffffffffffffffffffffffffffffffffffffff1673ffffffffffffffffffffffffffffffffffffffff168152506003906002620002a3929190620005ad565b506040518060400160405280730d500b1d8e8ef31e21c99d1db9a6444d3adf127073ffffffffffffffffffffffffffffffffffffffff1673ffffffffffffffffffffffffffffffffffffffff168152602001732791bca1f2de4661ed88a30c99a7a9449aa8417473ffffffffffffffffffffffffffffffffffffffff1673ffffffffffffffffffffffffffffffffffffffff1681525060049060026200034b929190620005ad565b50604051806040016040528073b0897686c545045afc77cf20ec7a532e3120e0f173ffffffffffffffffffffffffffffffffffffffff1673ffffffffffffffffffffffffffffffffffffffff168152602001732791bca1f2de4661ed88a30c99a7a9449aa8417473ffffffffffffffffffffffffffffffffffffffff1673ffffffffffffffffffffffffffffffffffffffff168152506005906002620003f3929190620005ad565b506040518060400160405280737ceb23fd6bc0add59e62ac25578270cff1b9f61973ffffffffffffffffffffffffffffffffffffffff1673ffffffffffffffffffffffffffffffffffffffff168152602001732791bca1f2de4661ed88a30c99a7a9449aa8417473ffffffffffffffffffffffffffffffffffffffff1673ffffffffffffffffffffffffffffffffffffffff1681525060069060026200049b929190620005ad565b506040518060400160405280731bfd67037b42cf73acf2047067bd4f2c47d9bfd673ffffffffffffffffffffffffffffffffffffffff1673ffffffffffffffffffffffffffffffffffffffff168152602001732791bca1f2de4661ed88a30c99a7a9449aa8417473ffffffffffffffffffffffffffffffffffffffff1673ffffffffffffffffffffffffffffffffffffffff16815250600790600262000543929190620005ad565b5073a5e0829caced8ffdd4de3c43696c57f7d7a678ff600d60006101000a81548173ffffffffffffffffffffffffffffffffffffffff021916908373ffffffffffffffffffffffffffffffffffffffff160217905550348015620005a657600080fd5b506200065b565b82805482825590600052602060002090810192821562000629579160200282015b82811115620006285782518260006101000a81548173ffffffffffffffffffffffffffffffffffffffff021916908373ffffffffffffffffffffffffffffffffffffffff16021790555091602001919060010190620005ce565b5b5090506200063891906200063c565b5090565b5b80821115620006575760008160009055506001016200063d565b5090565b613d95806200066b6000396000f3fe6080604052600436106102555760003560e01c806388e42b0811610139578063bdd5915f116100b6578063cf4128101161007a578063cf41281014610940578063d091911614610969578063e189eb4214610994578063e95d8328146109bf578063ed08d8eb146109ea578063ef455bad14610a155761025c565b8063bdd5915f14610847578063c3f5a30514610872578063c5764eec1461089d578063ca970905146108c6578063cb3601b1146109035761025c565b8063aa5a7aa3116100fd578063aa5a7aa314610762578063b460af941461078b578063b6e20a6a146107b4578063ba0cb22b146107df578063bb09d9b71461081c5761025c565b806388e42b081461067d5780638db9f39a146106a657806390f11e84146106d1578063947a36fb146106fa578063a15c7d10146107255761025c565b80634690738c116101d2578063681bcf1311610196578063681bcf131461053457806369bc4388146105715780636c383e4e146105ae5780636e04ff0d146105eb578063718176e514610629578063764f96f9146106545761025c565b80634690738c1461043d5780634fabd42f1461046657806351f54887146104a357806361bc221a146104e05780636583530f1461050b5761025c565b80633f3b3b27116102195780633f3b3b2714610358578063442509551461038357806344345f23146103ac57806345640929146103e95780634585e33b146104145761025c565b8063040141e51461026157806316345f181461028c5780631bea8006146102c957806324e2e7bb1461030657806329a97ec21461032f5761025c565b3661025c57005b600080fd5b34801561026d57600080fd5b50610276610a52565b6040516102839190612b57565b60405180910390f35b34801561029857600080fd5b506102b360048036038101906102ae9190612bb2565b610a6a565b6040516102c09190612bf8565b60405180910390f35b3480156102d557600080fd5b506102f060048036038101906102eb9190612c13565b610af9565b6040516102fd9190612c6c565b60405180910390f35b34801561031257600080fd5b5061032d60048036038101906103289190612bb2565b610b82565b005b34801561033b57600080fd5b5061035660048036038101906103519190612cb3565b610efc565b005b34801561036457600080fd5b5061036d610f80565b60405161037a9190612c6c565b60405180910390f35b34801561038f57600080fd5b506103aa60048036038101906103a59190612d06565b610f86565b005b3480156103b857600080fd5b506103d360048036038101906103ce9190612d59565b6110dd565b6040516103e09190612b57565b60405180910390f35b3480156103f557600080fd5b506103fe61111c565b60405161040b9190612b57565b60405180910390f35b34801561042057600080fd5b5061043b60048036038101906104369190612deb565b611134565b005b34801561044957600080fd5b50610464600480360381019061045f9190612bb2565b6111e8565b005b34801561047257600080fd5b5061048d60048036038101906104889190612d59565b61130a565b60405161049a9190612b57565b60405180910390f35b3480156104af57600080fd5b506104ca60048036038101906104c59190612cb3565b611349565b6040516104d79190612c6c565b60405180910390f35b3480156104ec57600080fd5b506104f5611394565b6040516105029190612c6c565b60405180910390f35b34801561051757600080fd5b50610532600480360381019061052d9190612bb2565b61139a565b005b34801561054057600080fd5b5061055b60048036038101906105569190612d59565b61142b565b6040516105689190612b57565b60405180910390f35b34801561057d57600080fd5b5061059860048036038101906105939190612d59565b61146a565b6040516105a59190612b57565b60405180910390f35b3480156105ba57600080fd5b506105d560048036038101906105d09190612d59565b6114a9565b6040516105e29190612b57565b60405180910390f35b3480156105f757600080fd5b50610612600480360381019061060d9190612deb565b6114e8565b604051610620929190612ee3565b60405180910390f35b34801561063557600080fd5b5061063e611e08565b60405161064b9190612b57565b60405180910390f35b34801561066057600080fd5b5061067b60048036038101906106769190612f13565b611e20565b005b34801561068957600080fd5b506106a4600480360381019061069f9190612d59565b6120fb565b005b3480156106b257600080fd5b506106bb612391565b6040516106c89190612b57565b60405180910390f35b3480156106dd57600080fd5b506106f860048036038101906106f391906130de565b6123a9565b005b34801561070657600080fd5b5061070f61245c565b60405161071c9190612c6c565b60405180910390f35b34801561073157600080fd5b5061074c60048036038101906107479190612d59565b612462565b6040516107599190612b57565b60405180910390f35b34801561076e57600080fd5b5061078960048036038101906107849190612c13565b6124a1565b005b34801561079757600080fd5b506107b260048036038101906107ad9190613175565b61252f565b005b3480156107c057600080fd5b506107c96125b9565b6040516107d69190612b57565b60405180910390f35b3480156107eb57600080fd5b5061080660048036038101906108019190612bb2565b6125d1565b6040516108139190612c6c565b60405180910390f35b34801561082857600080fd5b5061083161261a565b60405161083e9190612b57565b60405180910390f35b34801561085357600080fd5b5061085c612632565b6040516108699190612b57565b60405180910390f35b34801561087e57600080fd5b5061088761264a565b6040516108949190612c6c565b60405180910390f35b3480156108a957600080fd5b506108c460048036038101906108bf9190612d59565b612650565b005b3480156108d257600080fd5b506108ed60048036038101906108e89190612d59565b61286f565b6040516108fa9190612b57565b60405180910390f35b34801561090f57600080fd5b5061092a60048036038101906109259190612d59565b6128ae565b6040516109379190612b57565b60405180910390f35b34801561094c57600080fd5b50610967600480360381019061096291906131c8565b6128ed565b005b34801561097557600080fd5b5061097e612a05565b60405161098b9190612b57565b60405180910390f35b3480156109a057600080fd5b506109a9612a1d565b6040516109b69190613267565b60405180910390f35b3480156109cb57600080fd5b506109d4612a43565b6040516109e19190612b57565b60405180910390f35b3480156109f657600080fd5b506109ff612a5b565b604051610a0c9190612b57565b60405180910390f35b348015610a2157600080fd5b50610a3c6004803603810190610a379190612bb2565b612a73565b604051610a499190612c6c565b60405180910390f35b737ceb23fd6bc0add59e62ac25578270cff1b9f61981565b6000806000806000808673ffffffffffffffffffffffffffffffffffffffff1663feaf968c6040518163ffffffff1660e01b815260040160a060405180830381865afa158015610abe573d6000803e3d6000fd5b505050506040513d601f19601f82011682018060405250810190610ae29190613305565b945094509450945094508395505050505050919050565b6000808390508073ffffffffffffffffffffffffffffffffffffffff166370a08231846040518263ffffffff1660e01b8152600401610b389190612b57565b602060405180830381865afa158015610b55573d6000803e3d6000fd5b505050506040513d601f19601f82011682018060405250810190610b799190613380565b91505092915050565b6000600854610ba5730d500b1d8e8ef31e21c99d1db9a6444d3adf127030610af9565b600c60008573ffffffffffffffffffffffffffffffffffffffff1673ffffffffffffffffffffffffffffffffffffffff16815260200190815260200160002054610bef91906133dc565b610bf99190613465565b90506000600854610c1e73b0897686c545045afc77cf20ec7a532e3120e0f130610af9565b600c60008673ffffffffffffffffffffffffffffffffffffffff1673ffffffffffffffffffffffffffffffffffffffff16815260200190815260200160002054610c6891906133dc565b610c729190613465565b90506000600854610c97737ceb23fd6bc0add59e62ac25578270cff1b9f61930610af9565b600c60008773ffffffffffffffffffffffffffffffffffffffff1673ffffffffffffffffffffffffffffffffffffffff16815260200190815260200160002054610ce191906133dc565b610ceb9190613465565b90506000600854610d10731bfd67037b42cf73acf2047067bd4f2c47d9bfd630610af9565b600c60008873ffffffffffffffffffffffffffffffffffffffff1673ffffffffffffffffffffffffffffffffffffffff16815260200190815260200160002054610d5a91906133dc565b610d649190613465565b9050610d99730d500b1d8e8ef31e21c99d1db9a6444d3adf127073a5e0829caced8ffdd4de3c43696c57f7d7a678ff86610efc565b610dcc73b0897686c545045afc77cf20ec7a532e3120e0f173a5e0829caced8ffdd4de3c43696c57f7d7a678ff85610efc565b610dff737ceb23fd6bc0add59e62ac25578270cff1b9f61973a5e0829caced8ffdd4de3c43696c57f7d7a678ff84610efc565b610e32731bfd67037b42cf73acf2047067bd4f2c47d9bfd673a5e0829caced8ffdd4de3c43696c57f7d7a678ff83610efc565b610e50730d500b1d8e8ef31e21c99d1db9a6444d3adf1270856128ed565b610e6e73b0897686c545045afc77cf20ec7a532e3120e0f1846128ed565b610e8c737ceb23fd6bc0add59e62ac25578270cff1b9f619836128ed565b610eaa731bfd67037b42cf73acf2047067bd4f2c47d9bfd6826128ed565b6000610eca732791bca1f2de4661ed88a30c99a7a9449aa8417430610af9565b9050610eeb81732791bca1f2de4661ed88a30c99a7a9449aa841748861252f565b610ef4866111e8565b505050505050565b8273ffffffffffffffffffffffffffffffffffffffff1663095ea7b383836040518363ffffffff1660e01b8152600401610f37929190613496565b6020604051808303816000875af1158015610f56573d6000803e3d6000fd5b505050506040513d601f19601f82011682018060405250810190610f7a91906134eb565b50505050565b60095481565b60008260085483610f9791906133dc565b610fa19190613465565b905080600854610fb19190613518565b6008819055506000600c60008673ffffffffffffffffffffffffffffffffffffffff1673ffffffffffffffffffffffffffffffffffffffff1681526020019081526020016000205411156110925780600c60008673ffffffffffffffffffffffffffffffffffffffff1673ffffffffffffffffffffffffffffffffffffffff1681526020019081526020016000205461104a9190613518565b600c60008673ffffffffffffffffffffffffffffffffffffffff1673ffffffffffffffffffffffffffffffffffffffff168152602001908152602001600020819055506110d7565b80600c60008673ffffffffffffffffffffffffffffffffffffffff1673ffffffffffffffffffffffffffffffffffffffff168152602001908152602001600020819055505b50505050565b600681815481106110ed57600080fd5b906000526020600020016000915054906101000a900473ffffffffffffffffffffffffffffffffffffffff1681565b73d9ffdb71ebe7496cc440152d43986aae0ab7666581565b600a5460095442611145919061354c565b11156111e457426009819055506001600b546111619190613518565b600b819055506000600267ffffffffffffffff81111561118457611183612fa0565b5b6040519080825280602002602001820160405280156111b25781602001602082028036833780820191505090505b509050600083838101906111c69190613580565b80925081935050506111e1816000843064174876e7ff6123a9565b50505b5050565b6000600c60008373ffffffffffffffffffffffffffffffffffffffff1673ffffffffffffffffffffffffffffffffffffffff168152602001908152602001600020541161126a576040517f08c379a000000000000000000000000000000000000000000000000000000000815260040161126190613639565b60405180910390fd5b600c60008273ffffffffffffffffffffffffffffffffffffffff1673ffffffffffffffffffffffffffffffffffffffff16815260200190815260200160002054600860008282546112bb919061354c565b925050819055506000600c60008373ffffffffffffffffffffffffffffffffffffffff1673ffffffffffffffffffffffffffffffffffffffff1681526020019081526020016000208190555050565b6005818154811061131a57600080fd5b906000526020600020016000915054906101000a900473ffffffffffffffffffffffffffffffffffffffff1681565b60006002826113589190613518565b600a611364919061378c565b61136d84610a6a565b6113778630610af9565b61138191906133dc565b61138b9190613465565b90509392505050565b600b5481565b6305f5e100600c60008373ffffffffffffffffffffffffffffffffffffffff1673ffffffffffffffffffffffffffffffffffffffff16815260200190815260200160002081905550600c60008273ffffffffffffffffffffffffffffffffffffffff1673ffffffffffffffffffffffffffffffffffffffff1681526020019081526020016000205460088190555050565b6004818154811061143b57600080fd5b906000526020600020016000915054906101000a900473ffffffffffffffffffffffffffffffffffffffff1681565b6000818154811061147a57600080fd5b906000526020600020016000915054906101000a900473ffffffffffffffffffffffffffffffffffffffff1681565b600181815481106114b957600080fd5b906000526020600020016000915054906101000a900473ffffffffffffffffffffffffffffffffffffffff1681565b60006060600a54600954426114fd919061354c565b1191506000600467ffffffffffffffff81111561151d5761151c612fa0565b5b60405190808252806020026020018201604052801561155657816020015b611543612aad565b81526020019060019003908161153b5790505b509050611561612aad565b730d500b1d8e8ef31e21c99d1db9a6444d3adf1270816020019073ffffffffffffffffffffffffffffffffffffffff16908173ffffffffffffffffffffffffffffffffffffffff168152505073ab594600376ec9fd91f8e885dadf0ce036862de0816040019073ffffffffffffffffffffffffffffffffffffffff16908173ffffffffffffffffffffffffffffffffffffffff1681525050611601612aad565b73b0897686c545045afc77cf20ec7a532e3120e0f1816020019073ffffffffffffffffffffffffffffffffffffffff16908173ffffffffffffffffffffffffffffffffffffffff168152505073d9ffdb71ebe7496cc440152d43986aae0ab76665816040019073ffffffffffffffffffffffffffffffffffffffff16908173ffffffffffffffffffffffffffffffffffffffff16815250506116a1612aad565b731bfd67037b42cf73acf2047067bd4f2c47d9bfd6816020019073ffffffffffffffffffffffffffffffffffffffff16908173ffffffffffffffffffffffffffffffffffffffff168152505073c907e116054ad103354f2d350fd2514433d57f6f816040019073ffffffffffffffffffffffffffffffffffffffff16908173ffffffffffffffffffffffffffffffffffffffff1681525050611741612aad565b737ceb23fd6bc0add59e62ac25578270cff1b9f619816020019073ffffffffffffffffffffffffffffffffffffffff16908173ffffffffffffffffffffffffffffffffffffffff168152505073f9680d99d6c9589e2a93a78a04a279e509205945816040019073ffffffffffffffffffffffffffffffffffffffff16908173ffffffffffffffffffffffffffffffffffffffff168152505083856000815181106117ee576117ed6137d7565b5b6020026020010181905250828560018151811061180e5761180d6137d7565b5b6020026020010181905250818560028151811061182e5761182d6137d7565b5b6020026020010181905250808560038151811061184e5761184d6137d7565b5b60200260200101819052506000808651905060005b8751811015611a30576000888281518110611881576118806137d7565b5b60200260200101516020015190508073ffffffffffffffffffffffffffffffffffffffff166370a08231306040518263ffffffff1660e01b81526004016118c89190612b57565b602060405180830381865afa1580156118e5573d6000803e3d6000fd5b505050506040513d601f19601f820116820180604052508101906119099190613380565b89838151811061191c5761191b6137d7565b5b60200260200101516060018181525050611953898381518110611942576119416137d7565b5b602002602001015160400151610a6a565b898381518110611966576119656137d7565b5b602002602001015160c00181815250506305f5e10089838151811061198e5761198d6137d7565b5b602002602001015160c001518a84815181106119ad576119ac6137d7565b5b6020026020010151606001516119c39190613806565b6119cd919061391d565b8983815181106119e0576119df6137d7565b5b60200260200101516080018181525050888281518110611a0357611a026137d7565b5b60200260200101516080015184611a1a9190613987565b9350508080611a28906139cb565b915050611863565b5060008183611a3f919061391d565b905060005b8851811015611aad5781898281518110611a6157611a606137d7565b5b602002602001015160800151611a779190613a13565b898281518110611a8a57611a896137d7565b5b602002602001015160a00181815250508080611aa5906139cb565b915050611a44565b5060008060005b8a518160ff161015611b0057828b8260ff1681518110611ad757611ad66137d7565b5b602002602001015160a001511315611aed578091505b8080611af890613a63565b915050611ab4565b5060007f7fffffffffffffffffffffffffffffffffffffffffffffffffffffffffffffff9050600080600090505b8c518160ff161015611b7a57828d8260ff1681518110611b5157611b506137d7565b5b602002602001015160a001511215611b67578091505b8080611b7290613a63565b915050611b2e565b506000600267ffffffffffffffff811115611b9857611b97612fa0565b5b604051908082528060200260200182016040528015611bc65781602001602082028036833780820191505090505b5090508c8460ff1681518110611bdf57611bde6137d7565b5b60200260200101516020015181600081518110611bff57611bfe6137d7565b5b602002602001019073ffffffffffffffffffffffffffffffffffffffff16908173ffffffffffffffffffffffffffffffffffffffff16815250508c8260ff1681518110611c4f57611c4e6137d7565b5b60200260200101516020015181600181518110611c6f57611c6e6137d7565b5b602002602001019073ffffffffffffffffffffffffffffffffffffffff16908173ffffffffffffffffffffffffffffffffffffffff16815250506000611cd58e8460ff1681518110611cc457611cc36137d7565b5b602002602001015160a00151612a8b565b8e8660ff1681518110611ceb57611cea6137d7565b5b602002602001015160a001511315611d6c57611d278e8460ff1681518110611d1657611d156137d7565b5b602002602001015160a00151612a8b565b90508d8360ff1681518110611d3f57611d3e6137d7565b5b602002602001015160c001516305f5e10082611d5b9190613806565b611d65919061391d565b9050611dcf565b8d8560ff1681518110611d8257611d816137d7565b5b602002602001015160a0015190508d8560ff1681518110611da657611da56137d7565b5b602002602001015160c001516305f5e10082611dc29190613806565b611dcc919061391d565b90505b8181604051602001611de2929190613b4a565b6040516020818303038152906040529e5050505050505050505050505050509250929050565b73f9680d99d6c9589e2a93a78a04a279e50920594581565b6000828288611e2f91906133dc565b611e399190613465565b90506000838388611e4a91906133dc565b611e549190613465565b90506000848488611e6591906133dc565b611e6f9190613465565b90506000858588611e8091906133dc565b611e8a9190613465565b9050611f2484600080805480602002602001604051908101604052809291908181526020018280548015611f1357602002820191906000526020600020905b8160009054906101000a900473ffffffffffffffffffffffffffffffffffffffff1673ffffffffffffffffffffffffffffffffffffffff1681526020019060010190808311611ec9575b50505050503064174876e7ff6123a9565b611fbd8360006001805480602002602001604051908101604052809291908181526020018280548015611fac57602002820191906000526020600020905b8160009054906101000a900473ffffffffffffffffffffffffffffffffffffffff1673ffffffffffffffffffffffffffffffffffffffff1681526020019060010190808311611f62575b50505050503064174876e7ff6123a9565b612056826000600280548060200260200160405190810160405280929190818152602001828054801561204557602002820191906000526020600020905b8160009054906101000a900473ffffffffffffffffffffffffffffffffffffffff1673ffffffffffffffffffffffffffffffffffffffff1681526020019060010190808311611ffb575b50505050503064174876e7ff6123a9565b6120ef81600060038054806020026020016040519081016040528092919081815260200182805480156120de57602002820191906000526020600020905b8160009054906101000a900473ffffffffffffffffffffffffffffffffffffffff1673ffffffffffffffffffffffffffffffffffffffff1681526020019060010190808311612094575b50505050503064174876e7ff6123a9565b50505050505050505050565b61219f60048261210b9190613465565b60008080548060200260200160405190810160405280929190818152602001828054801561218e57602002820191906000526020600020905b8160009054906101000a900473ffffffffffffffffffffffffffffffffffffffff1673ffffffffffffffffffffffffffffffffffffffff1681526020019060010190808311612144575b50505050503064174876e7ff6123a9565b6122446004826121af9190613465565b6000600180548060200260200160405190810160405280929190818152602001828054801561223357602002820191906000526020600020905b8160009054906101000a900473ffffffffffffffffffffffffffffffffffffffff1673ffffffffffffffffffffffffffffffffffffffff16815260200190600101908083116121e9575b50505050503064174876e7ff6123a9565b6122e96004826122549190613465565b600060028054806020026020016040519081016040528092919081815260200182805480156122d857602002820191906000526020600020905b8160009054906101000a900473ffffffffffffffffffffffffffffffffffffffff1673ffffffffffffffffffffffffffffffffffffffff168152602001906001019080831161228e575b50505050503064174876e7ff6123a9565b61238e6004826122f99190613465565b6000600380548060200260200160405190810160405280929190818152602001828054801561237d57602002820191906000526020600020905b8160009054906101000a900473ffffffffffffffffffffffffffffffffffffffff1673ffffffffffffffffffffffffffffffffffffffff1681526020019060010190808311612333575b50505050503064174876e7ff6123a9565b50565b73ab594600376ec9fd91f8e885dadf0ce036862de081565b600d60009054906101000a900473ffffffffffffffffffffffffffffffffffffffff1673ffffffffffffffffffffffffffffffffffffffff166338ed173986868686866040518663ffffffff1660e01b815260040161240c959493929190613b7a565b6000604051808303816000875af115801561242b573d6000803e3d6000fd5b505050506040513d6000823e3d601f19601f820116820180604052508101906124549190613c97565b505050505050565b600a5481565b6003818154811061247257600080fd5b906000526020600020016000915054906101000a900473ffffffffffffffffffffffffffffffffffffffff1681565b60008273ffffffffffffffffffffffffffffffffffffffff166370a08231306040518263ffffffff1660e01b81526004016124dc9190612b57565b602060405180830381865afa1580156124f9573d6000803e3d6000fd5b505050506040513d601f19601f8201168201806040525081019061251d9190613380565b905061252a838383610efc565b505050565b60008290508073ffffffffffffffffffffffffffffffffffffffff1663a9059cbb83866040518363ffffffff1660e01b815260040161256f929190613496565b6020604051808303816000875af115801561258e573d6000803e3d6000fd5b505050506040513d601f19601f820116820180604052508101906125b291906134eb565b5050505050565b73c907e116054ad103354f2d350fd2514433d57f6f81565b6000600c60008373ffffffffffffffffffffffffffffffffffffffff1673ffffffffffffffffffffffffffffffffffffffff168152602001908152602001600020549050919050565b732791bca1f2de4661ed88a30c99a7a9449aa8417481565b731bfd67037b42cf73acf2047067bd4f2c47d9bfd681565b60085481565b732791bca1f2de4661ed88a30c99a7a9449aa8417473ffffffffffffffffffffffffffffffffffffffff166323b872dd3330846040518463ffffffff1660e01b81526004016126a193929190613ce0565b6020604051808303816000875af11580156126c0573d6000803e3d6000fd5b505050506040513d601f19601f820116820180604052508101906126e491906134eb565b50600061271b730d500b1d8e8ef31e21c99d1db9a6444d3adf127073ab594600376ec9fd91f8e885dadf0ce036862de06012611349565b9050600061275373b0897686c545045afc77cf20ec7a532e3120e0f173d9ffdb71ebe7496cc440152d43986aae0ab766656012611349565b9050600061278b737ceb23fd6bc0add59e62ac25578270cff1b9f61973f9680d99d6c9589e2a93a78a04a279e5092059456012611349565b905060006127c3731bfd67037b42cf73acf2047067bd4f2c47d9bfd673c907e116054ad103354f2d350fd2514433d57f6f6008611349565b90506000818385876127d59190613518565b6127df9190613518565b6127e99190613518565b905061281e732791bca1f2de4661ed88a30c99a7a9449aa8417473a5e0829caced8ffdd4de3c43696c57f7d7a678ff88610efc565b600081111561283a5761283585858585858b611e20565b612844565b612843866120fb565b5b600081111561285d57612858338288610f86565b612867565b6128663361139a565b5b505050505050565b6007818154811061287f57600080fd5b906000526020600020016000915054906101000a900473ffffffffffffffffffffffffffffffffffffffff1681565b600281815481106128be57600080fd5b906000526020600020016000915054906101000a900473ffffffffffffffffffffffffffffffffffffffff1681565b6000600267ffffffffffffffff81111561290a57612909612fa0565b5b6040519080825280602002602001820160405280156129385781602001602082028036833780820191505090505b50905082816000815181106129505761294f6137d7565b5b602002602001019073ffffffffffffffffffffffffffffffffffffffff16908173ffffffffffffffffffffffffffffffffffffffff1681525050732791bca1f2de4661ed88a30c99a7a9449aa84174816001815181106129b3576129b26137d7565b5b602002602001019073ffffffffffffffffffffffffffffffffffffffff16908173ffffffffffffffffffffffffffffffffffffffff1681525050612a00826000833064174876e7ff6123a9565b505050565b73a5e0829caced8ffdd4de3c43696c57f7d7a678ff81565b600d60009054906101000a900473ffffffffffffffffffffffffffffffffffffffff1681565b730d500b1d8e8ef31e21c99d1db9a6444d3adf127081565b73b0897686c545045afc77cf20ec7a532e3120e0f181565b600c6020528060005260406000206000915090505481565b600080821215612aa45781612a9f90613d17565b612aa6565b815b9050919050565b6040518060e0016040528060608152602001600073ffffffffffffffffffffffffffffffffffffffff168152602001600073ffffffffffffffffffffffffffffffffffffffff168152602001600081526020016000815260200160008152602001600081525090565b600073ffffffffffffffffffffffffffffffffffffffff82169050919050565b6000612b4182612b16565b9050919050565b612b5181612b36565b82525050565b6000602082019050612b6c6000830184612b48565b92915050565b6000604051905090565b600080fd5b600080fd5b612b8f81612b36565b8114612b9a57600080fd5b50565b600081359050612bac81612b86565b92915050565b600060208284031215612bc857612bc7612b7c565b5b6000612bd684828501612b9d565b91505092915050565b6000819050919050565b612bf281612bdf565b82525050565b6000602082019050612c0d6000830184612be9565b92915050565b60008060408385031215612c2a57612c29612b7c565b5b6000612c3885828601612b9d565b9250506020612c4985828601612b9d565b9150509250929050565b6000819050919050565b612c6681612c53565b82525050565b6000602082019050612c816000830184612c5d565b92915050565b612c9081612c53565b8114612c9b57600080fd5b50565b600081359050612cad81612c87565b92915050565b600080600060608486031215612ccc57612ccb612b7c565b5b6000612cda86828701612b9d565b9350506020612ceb86828701612b9d565b9250506040612cfc86828701612c9e565b9150509250925092565b600080600060608486031215612d1f57612d1e612b7c565b5b6000612d2d86828701612b9d565b9350506020612d3e86828701612c9e565b9250506040612d4f86828701612c9e565b9150509250925092565b600060208284031215612d6f57612d6e612b7c565b5b6000612d7d84828501612c9e565b91505092915050565b600080fd5b600080fd5b600080fd5b60008083601f840112612dab57612daa612d86565b5b8235905067ffffffffffffffff811115612dc857612dc7612d8b565b5b602083019150836001820283011115612de457612de3612d90565b5b9250929050565b60008060208385031215612e0257612e01612b7c565b5b600083013567ffffffffffffffff811115612e2057612e1f612b81565b5b612e2c85828601612d95565b92509250509250929050565b60008115159050919050565b612e4d81612e38565b82525050565b600081519050919050565b600082825260208201905092915050565b60005b83811015612e8d578082015181840152602081019050612e72565b60008484015250505050565b6000601f19601f8301169050919050565b6000612eb582612e53565b612ebf8185612e5e565b9350612ecf818560208601612e6f565b612ed881612e99565b840191505092915050565b6000604082019050612ef86000830185612e44565b8181036020830152612f0a8184612eaa565b90509392505050565b60008060008060008060c08789031215612f3057612f2f612b7c565b5b6000612f3e89828a01612c9e565b9650506020612f4f89828a01612c9e565b9550506040612f6089828a01612c9e565b9450506060612f7189828a01612c9e565b9350506080612f8289828a01612c9e565b92505060a0612f9389828a01612c9e565b9150509295509295509295565b7f4e487b7100000000000000000000000000000000000000000000000000000000600052604160045260246000fd5b612fd882612e99565b810181811067ffffffffffffffff82111715612ff757612ff6612fa0565b5b80604052505050565b600061300a612b72565b90506130168282612fcf565b919050565b600067ffffffffffffffff82111561303657613035612fa0565b5b602082029050602081019050919050565b600061305a6130558461301b565b613000565b9050808382526020820190506020840283018581111561307d5761307c612d90565b5b835b818110156130a657806130928882612b9d565b84526020840193505060208101905061307f565b5050509392505050565b600082601f8301126130c5576130c4612d86565b5b81356130d5848260208601613047565b91505092915050565b600080600080600060a086880312156130fa576130f9612b7c565b5b600061310888828901612c9e565b955050602061311988828901612c9e565b945050604086013567ffffffffffffffff81111561313a57613139612b81565b5b613146888289016130b0565b935050606061315788828901612b9d565b925050608061316888828901612c9e565b9150509295509295909350565b60008060006060848603121561318e5761318d612b7c565b5b600061319c86828701612c9e565b93505060206131ad86828701612b9d565b92505060406131be86828701612b9d565b9150509250925092565b600080604083850312156131df576131de612b7c565b5b60006131ed85828601612b9d565b92505060206131fe85828601612c9e565b9150509250929050565b6000819050919050565b600061322d61322861322384612b16565b613208565b612b16565b9050919050565b600061323f82613212565b9050919050565b600061325182613234565b9050919050565b61326181613246565b82525050565b600060208201905061327c6000830184613258565b92915050565b600069ffffffffffffffffffff82169050919050565b6132a181613282565b81146132ac57600080fd5b50565b6000815190506132be81613298565b92915050565b6132cd81612bdf565b81146132d857600080fd5b50565b6000815190506132ea816132c4565b92915050565b6000815190506132ff81612c87565b92915050565b600080600080600060a0868803121561332157613320612b7c565b5b600061332f888289016132af565b9550506020613340888289016132db565b9450506040613351888289016132f0565b9350506060613362888289016132f0565b9250506080613373888289016132af565b9150509295509295909350565b60006020828403121561339657613395612b7c565b5b60006133a4848285016132f0565b91505092915050565b7f4e487b7100000000000000000000000000000000000000000000000000000000600052601160045260246000fd5b60006133e782612c53565b91506133f283612c53565b9250817fffffffffffffffffffffffffffffffffffffffffffffffffffffffffffffffff048311821515161561342b5761342a6133ad565b5b828202905092915050565b7f4e487b7100000000000000000000000000000000000000000000000000000000600052601260045260246000fd5b600061347082612c53565b915061347b83612c53565b92508261348b5761348a613436565b5b828204905092915050565b60006040820190506134ab6000830185612b48565b6134b86020830184612c5d565b9392505050565b6134c881612e38565b81146134d357600080fd5b50565b6000815190506134e5816134bf565b92915050565b60006020828403121561350157613500612b7c565b5b600061350f848285016134d6565b91505092915050565b600061352382612c53565b915061352e83612c53565b9250828201905080821115613546576135456133ad565b5b92915050565b600061355782612c53565b915061356283612c53565b925082820390508181111561357a576135796133ad565b5b92915050565b6000806040838503121561359757613596612b7c565b5b600083013567ffffffffffffffff8111156135b5576135b4612b81565b5b6135c1858286016130b0565b92505060206135d285828601612c9e565b9150509250929050565b600082825260208201905092915050565b7f4572726f72202d2054686973207573657220686173206e6f2073686172657300600082015250565b6000613623601f836135dc565b915061362e826135ed565b602082019050919050565b6000602082019050818103600083015261365281613616565b9050919050565b60008160011c9050919050565b6000808291508390505b60018511156136b05780860481111561368c5761368b6133ad565b5b600185161561369b5780820291505b80810290506136a985613659565b9450613670565b94509492505050565b6000826136c95760019050613785565b816136d75760009050613785565b81600181146136ed57600281146136f757613726565b6001915050613785565b60ff841115613709576137086133ad565b5b8360020a9150848211156137205761371f6133ad565b5b50613785565b5060208310610133831016604e8410600b841016171561375b5782820a905083811115613756576137556133ad565b5b613785565b6137688484846001613666565b9250905081840481111561377f5761377e6133ad565b5b81810290505b9392505050565b600061379782612c53565b91506137a283612c53565b92506137cf7fffffffffffffffffffffffffffffffffffffffffffffffffffffffffffffffff84846136b9565b905092915050565b7f4e487b7100000000000000000000000000000000000000000000000000000000600052603260045260246000fd5b600061381182612bdf565b915061381c83612bdf565b9250827f7fffffffffffffffffffffffffffffffffffffffffffffffffffffffffffffff048211600084136000841316161561385b5761385a6133ad565b5b817f80000000000000000000000000000000000000000000000000000000000000000583126000841260008413161615613898576138976133ad565b5b827f800000000000000000000000000000000000000000000000000000000000000005821260008413600084121616156138d5576138d46133ad565b5b827f7fffffffffffffffffffffffffffffffffffffffffffffffffffffffffffffff0582126000841260008412161615613912576139116133ad565b5b828202905092915050565b600061392882612bdf565b915061393383612bdf565b92508261394357613942613436565b5b600160000383147f80000000000000000000000000000000000000000000000000000000000000008314161561397c5761397b6133ad565b5b828205905092915050565b600061399282612bdf565b915061399d83612bdf565b9250828201905082811215600083121683821260008412151617156139c5576139c46133ad565b5b92915050565b60006139d682612c53565b91507fffffffffffffffffffffffffffffffffffffffffffffffffffffffffffffffff8203613a0857613a076133ad565b5b600182019050919050565b6000613a1e82612bdf565b9150613a2983612bdf565b9250828203905081811260008412168282136000851215161715613a5057613a4f6133ad565b5b92915050565b600060ff82169050919050565b6000613a6e82613a56565b915060ff8203613a8157613a806133ad565b5b600182019050919050565b600081519050919050565b600082825260208201905092915050565b6000819050602082019050919050565b613ac181612b36565b82525050565b6000613ad38383613ab8565b60208301905092915050565b6000602082019050919050565b6000613af782613a8c565b613b018185613a97565b9350613b0c83613aa8565b8060005b83811015613b3d578151613b248882613ac7565b9750613b2f83613adf565b925050600181019050613b10565b5085935050505092915050565b60006040820190508181036000830152613b648185613aec565b9050613b736020830184612be9565b9392505050565b600060a082019050613b8f6000830188612c5d565b613b9c6020830187612c5d565b8181036040830152613bae8186613aec565b9050613bbd6060830185612b48565b613bca6080830184612c5d565b9695505050505050565b600067ffffffffffffffff821115613bef57613bee612fa0565b5b602082029050602081019050919050565b6000613c13613c0e84613bd4565b613000565b90508083825260208201905060208402830185811115613c3657613c35612d90565b5b835b81811015613c5f5780613c4b88826132f0565b845260208401935050602081019050613c38565b5050509392505050565b600082601f830112613c7e57613c7d612d86565b5b8151613c8e848260208601613c00565b91505092915050565b600060208284031215613cad57613cac612b7c565b5b600082015167ffffffffffffffff811115613ccb57613cca612b81565b5b613cd784828501613c69565b91505092915050565b6000606082019050613cf56000830186612b48565b613d026020830185612b48565b613d0f6040830184612c5d565b949350505050565b6000613d2282612bdf565b91507f80000000000000000000000000000000000000000000000000000000000000008203613d5457613d536133ad565b5b81600003905091905056fea264697066735822122097fdebf1b7db899020506258f5ae45fc553539386eb6e0d04ea4db5c2009e5a964736f6c63430008100033",
  "immutableReferences": {},
  "source": "pragma solidity ^0.8.0;\npragma experimental ABIEncoderV2;\n//import statements go here\nimport \"./interfaces/IUniswapV2Router02.sol\";\nimport \"./interfaces/IUniswapV2Router01.sol\";\nimport \"./interfaces/IERC20.sol\";\nimport \"@chainlink/contracts/src/v0.8/interfaces/AggregatorV3Interface.sol\";\n// KeeperCompatible.sol imports the functions from both ./KeeperBase.sol and\n// ./interfaces/KeeperCompatibleInterface.sol\nimport \"@chainlink/contracts/src/v0.8/KeeperCompatible.sol\";\n\ncontract autoBalancer is KeeperCompatibleInterface {\n    address public constant USDC_ADDRESS = 0x2791Bca1f2de4661ED88A30C99A7a9449Aa84174;\n    \n    address public constant WMATIC_ADDRESS = 0x0d500B1d8E8eF31E21C99d1Db9A6444d3ADf1270;\n    address public constant LINK_ADDRESS = 0xb0897686c545045aFc77CF20eC7A532E3120E0F1;\n    address public constant WETH_ADDRESS = 0x7ceB23fD6bC0adD59E62ac25578270cFf1b9f619;\n    address public constant WBTC_ADDRESS = 0x1BFD67037B42Cf73acF2047067bd4F2C47D9BfD6;\n\n    address public constant MATIC_USD_ORACLE = 0xAB594600376Ec9fD91F8e885dADF0CE036862dE0;\n    address public constant BTC_USD_ORACLE = 0xc907E116054Ad103354f2D350FD2514433D57F6f;\n    address public constant ETH_USD_ORACLE = 0xF9680D99D6C9589e2a93a78A04A279e509205945;\n    address public constant LINK_USD_ORACLE = 0xd9FFdb71EbE7496cC440152d43986Aae0AB76665;\n\n    address[] public USDCToWMATICPath = [USDC_ADDRESS, WMATIC_ADDRESS];\n    address[] public USDCToLINKPath = [USDC_ADDRESS, LINK_ADDRESS];\n    address[] public USDCToWETHPath = [USDC_ADDRESS, WETH_ADDRESS];\n    address[] public USDCToWBTCPath = [USDC_ADDRESS, WBTC_ADDRESS];\n\n    address[] public WMATICToUSDCPath = [WMATIC_ADDRESS, USDC_ADDRESS];\n    address[] public LINKToUSDCPath = [LINK_ADDRESS, USDC_ADDRESS];\n    address[] public WETHToUSDCPath = [WETH_ADDRESS, USDC_ADDRESS];\n    address[] public WBTCToUSDCPath = [WBTC_ADDRESS, USDC_ADDRESS];\n\n    address public constant QUICKSWAP_ROUTER = 0xa5E0829CaCEd8fFDD4De3c43696c57F7D7A678ff;\n    \n    uint256 public totalNumberOfShares;\n    uint256 public lastTimeStamp;\n    uint256 public interval;\n    uint256 public counter;\n\n    mapping(address => uint256) public userNumberOfShares; \n\n    IUniswapV2Router02 public quickSwapRouter = IUniswapV2Router02(QUICKSWAP_ROUTER);\n\n    struct Coin {\n        string symbol;\n        address tokenAddress;\n        address oracleAddress;\n        // uint256 decimals;\n        int256 balance;\n        int256 usd_balance;\n        int256 diff_from_average;\n        int256 usd_exchange_rate;\n    }\n\n    /**\n     * Returns the latest price\n     */\n    function getLatestPrice(address _oracle_address) public view returns (int) {\n        (\n            uint80 roundID, \n            int price,\n            uint startedAt,\n            uint timeStamp,\n            uint80 answeredInRound\n        ) = AggregatorV3Interface(_oracle_address).latestRoundData();\n        return price;\n    }\n\n    function checkUpkeep(bytes calldata /* checkData */) external view override returns (bool upkeepNeeded, bytes memory performData) {\n        upkeepNeeded = (block.timestamp - lastTimeStamp) > interval;\n        // this is where I need to do off chain calcs to be fed into the rebalance\n        Coin[] memory array_coins = new Coin[](4);\n    \n        Coin memory wmatic;\n        wmatic.tokenAddress = WMATIC_ADDRESS;\n        wmatic.oracleAddress = MATIC_USD_ORACLE;\n        Coin memory link;\n        link.tokenAddress = LINK_ADDRESS;\n        link.oracleAddress = LINK_USD_ORACLE;\n        Coin memory wbtc;\n        wbtc.tokenAddress = WBTC_ADDRESS;\n        wbtc.oracleAddress = BTC_USD_ORACLE;\n        Coin memory weth;\n        weth.tokenAddress = WETH_ADDRESS;\n        weth.oracleAddress = ETH_USD_ORACLE;\n\n        array_coins[0] = wmatic;\n        array_coins[1] = link;\n        array_coins[2] = wbtc;\n        array_coins[3] = weth;\n        \n        int256 total_in_usd = 0;\n        int no_of_assets = int256(array_coins.length);\n\n        for (uint i = 0; i < array_coins.length; i++) {\n            IERC20 coin_instance = IERC20(array_coins[i].tokenAddress);\n            array_coins[i].balance = int256(coin_instance.balanceOf(address(this)));\n            array_coins[i].usd_exchange_rate = getLatestPrice(array_coins[i].oracleAddress);\n            // array_coins[i].decimals = getDecimals(array_coins[i].address);\n            array_coins[i].usd_balance = array_coins[i].balance * array_coins[i].usd_exchange_rate / (10 ** 8); //do I need to reintroduce decimals here?\n            total_in_usd += array_coins[i].usd_balance;\n        }\n\n        int256 target_per_asset = total_in_usd / no_of_assets;\n\n        for (uint i = 0; i < array_coins.length; i++) {\n            array_coins[i].diff_from_average = array_coins[i].usd_balance - target_per_asset;\n        }\n\n        // Coin memory max_coin = find_max(array_coins);\n        int256 maxDiff; // default 0, the lowest value of `uint256`\n        uint8 maxCoin_index;\n        for (uint8 i = 0; i < array_coins.length; i++) {\n            if (array_coins[i].diff_from_average > maxDiff) {\n                maxCoin_index = i;\n            }\n        }\n        // Coin memory min_coin = find_min(array_coins);\n        int256 minDiff = type(int256).max; // the highest value of int256\n        uint8 minCoin_index;\n        for (uint8 i = 0; i < array_coins.length; i++) {\n            if (array_coins[i].diff_from_average < minDiff) {\n                minCoin_index = i;\n            }\n        }\n\n        address[] memory path1 = new address[](2);\n        path1[0] = array_coins[maxCoin_index].tokenAddress;\n        path1[1] = array_coins[minCoin_index].tokenAddress;\n        int256 amount1;\n        if (array_coins[maxCoin_index].diff_from_average > abs(array_coins[minCoin_index].diff_from_average)) {\n            amount1 = abs(array_coins[minCoin_index].diff_from_average);\n            amount1 = amount1 * (10 ** 8) / array_coins[minCoin_index].usd_exchange_rate;\n        } else {\n            amount1 = array_coins[maxCoin_index].diff_from_average;\n            amount1 = amount1 * (10 ** 8) / array_coins[maxCoin_index].usd_exchange_rate;\n        }\n\n        performData = abi.encode(path1, amount1); //, path2, amount2, path3, amount3\n        // We don't use the checkData in this example. The checkData is defined when the Upkeep was registered.\n        return (upkeepNeeded, performData);\n    }\n\n    function performUpkeep(bytes calldata performData) external override {\n        //We highly recommend revalidating the upkeep in the performUpkeep function\n        if ((block.timestamp - lastTimeStamp) > interval ) {\n            lastTimeStamp = block.timestamp;\n            counter = counter + 1;\n            // this is where I actually do the rebalance on chain\n            address[] memory path1 = new address[](2);\n            uint256 amount1;\n            (path1, amount1)= abi.decode(performData, (address[], uint256)); //, path2, amount2, path3, amount3\n            swap(amount1, uint256(0), path1, address(this), 99999999999);\n            }\n            // The performData is generated by the Keeper's call to your checkUpkeep function\n    }\n\n    function find_max(Coin[] memory coin_array) internal pure returns (Coin memory maxCoin) {\n                require(coin_array.length > 0); // throw an exception if the condition is not met\n                int256 maxDiff; // default 0, the lowest value of `uint256`\n\n                for (uint256 i = 0; i < coin_array.length; i++) {\n                    if (coin_array[i].diff_from_average > maxDiff) {\n                        maxCoin = coin_array[i];\n                    }\n                }\n                return maxCoin;\n            }\n\n    function find_min(Coin[] memory coin_array) internal pure returns (Coin memory minCoin) {\n                require(coin_array.length > 0); // throw an exception if the condition is not met\n                int256 minDiff = type(int256).max; // default 0, the lowest value of `uint256`\n\n                for (uint256 i = 0; i < coin_array.length; i++) {\n                    if (coin_array[i].diff_from_average < minDiff) {\n                        minCoin = coin_array[i];\n                    }\n                }\n                return minCoin;\n            }\n\n    function abs(int x) private pure returns (int) {\n        return x >= 0 ? x : -x;\n    }\n\n    function updateSharesOnWithdrawal(address user) public { //make this ownable - only contract itself can update this?\n        require (userNumberOfShares[user] > 0, \"Error - This user has no shares\");\n        totalNumberOfShares -= userNumberOfShares[user];\n        userNumberOfShares[user] = 0;\n    }\n\n    function getUserShares(address user) public view returns (uint256 userShares) {\n        return userNumberOfShares[user];\n    }\n\n    function approve_spending (address token_address, address spender_address, uint256 amount_to_approve) public {\n            IERC20(token_address).approve(spender_address, amount_to_approve);\n    }\n    \n    receive() external payable {\n    }\n\n    function depositUserFunds (uint256 amount_) public  {\n        IERC20(USDC_ADDRESS).transferFrom(msg.sender, address(this), amount_);\n\n        uint256 WMATIC_balanceInUSD = getUSDTokenBalanceOf(WMATIC_ADDRESS, MATIC_USD_ORACLE, 18);\n        uint256 LINK_balanceInUSD = getUSDTokenBalanceOf(LINK_ADDRESS, LINK_USD_ORACLE, 18);\n        uint256 WETH_balanceInUSD = getUSDTokenBalanceOf(WETH_ADDRESS, ETH_USD_ORACLE, 18);\n        uint256 WBTC_balanceInUSD = getUSDTokenBalanceOf(WBTC_ADDRESS, BTC_USD_ORACLE, 8);\n\n        uint256 Total_in_USD = WMATIC_balanceInUSD + LINK_balanceInUSD + WETH_balanceInUSD + WBTC_balanceInUSD;\n        \n        approve_spending(USDC_ADDRESS, QUICKSWAP_ROUTER, amount_);\n\n        if (Total_in_USD > 0) {\n            swapProportionately(WMATIC_balanceInUSD, LINK_balanceInUSD, WETH_balanceInUSD, WBTC_balanceInUSD, Total_in_USD, amount_);\n        } else {\n            swapIntoFourEqualParts(amount_);\n        }\n        \n        if (Total_in_USD > 0) {\n            updateSharesOnDeposit(msg.sender, Total_in_USD, amount_);\n        } else {\n            setSharesFirstTime(msg.sender);\n        }\n    }\n\n    function getUSDTokenBalanceOf(address token_address, address oracle_address, uint256 token_decimals) public view returns (uint256) {\n        // uint256 token_decimals = ERC20(token_address).decimals();\n        return tokenBalanceOf(token_address, address(this))\n         * (uint256(getLatestPrice(oracle_address)))\n         / (10**(token_decimals+2));\n    }\n\n    function swapProportionately(uint256 WMATIC_amount, uint256 LINK_amount, uint256 WETH_amount, uint256 WBTC_amount, uint256 totalUSDAmount, uint256 depositAmount) public {\n        uint256 WMATIC_share = WMATIC_amount * (depositAmount) / (totalUSDAmount); \n        uint256 LINK_share = LINK_amount * (depositAmount) / (totalUSDAmount);\n        uint256 WETH_share = WETH_amount * (depositAmount) / (totalUSDAmount);\n        uint256 WBTC_share = WBTC_amount * (depositAmount) / (totalUSDAmount);\n\n        swap(WMATIC_share, uint256(0), USDCToWMATICPath, address(this), 99999999999);\n        swap(LINK_share, uint256(0), USDCToLINKPath, address(this), 99999999999);\n        swap(WETH_share, uint256(0), USDCToWETHPath, address(this), 99999999999);\n        swap(WBTC_share, uint256(0), USDCToWBTCPath, address(this), 99999999999);\n    }\n\n    function swapIntoFourEqualParts(uint256 amount) public {\n        swap(amount / 4, uint256(0), USDCToWMATICPath, address(this), 99999999999);\n        swap(amount / 4, uint256(0), USDCToLINKPath, address(this), 99999999999);\n        swap(amount / 4, uint256(0), USDCToWETHPath, address(this), 99999999999);\n        swap(amount / 4, uint256(0), USDCToWBTCPath, address(this), 99999999999);\n    }\n\n    function setSharesFirstTime(address user) public {\n        userNumberOfShares[user] = 100000000;\n        totalNumberOfShares = userNumberOfShares[user];\n    }\n\n    function updateSharesOnDeposit(address user, uint256 total_in_USD, uint256 deposit_amount) public { //make this ownable - only contract itself can update this?\n        uint256 newSharesForUser = deposit_amount * (totalNumberOfShares) / (total_in_USD);\n        totalNumberOfShares = totalNumberOfShares + newSharesForUser;\n        if (userNumberOfShares[user] > 0) {\n            userNumberOfShares[user] = userNumberOfShares[user] + newSharesForUser;\n        } else {\n            userNumberOfShares[user] = newSharesForUser;\n        }\n    }\n\n    function withdrawUserFunds(address user) public {\n        //do I need an approval here?\n\n        uint256 WMATIC_amount = userNumberOfShares[user] * (tokenBalanceOf(WMATIC_ADDRESS, address(this))) / (totalNumberOfShares);\n        uint256 LINK_amount = userNumberOfShares[user] * (tokenBalanceOf(LINK_ADDRESS, address(this))) / (totalNumberOfShares);\n        uint256 WETH_amount = userNumberOfShares[user] * (tokenBalanceOf(WETH_ADDRESS, address(this))) / (totalNumberOfShares);\n        uint256 WBTC_amount = userNumberOfShares[user] * (tokenBalanceOf(WBTC_ADDRESS, address(this))) / (totalNumberOfShares);\n\n        approve_spending(WMATIC_ADDRESS, QUICKSWAP_ROUTER, WMATIC_amount);\n        approve_spending(LINK_ADDRESS, QUICKSWAP_ROUTER, LINK_amount);\n        approve_spending(WETH_ADDRESS, QUICKSWAP_ROUTER, WETH_amount);\n        approve_spending(WBTC_ADDRESS, QUICKSWAP_ROUTER, WBTC_amount);\n\n        swapBackToUSDC(WMATIC_ADDRESS, WMATIC_amount);\n        swapBackToUSDC(LINK_ADDRESS, LINK_amount);\n        swapBackToUSDC(WETH_ADDRESS, WETH_amount);\n        swapBackToUSDC(WBTC_ADDRESS, WBTC_amount);\n\n        // approveSpendingWholeBalance(USDC_ADDRESS, BENTOBOX_MASTER_CONTRACT_ADDRESS);\n\n        uint256 USDC_amount = tokenBalanceOf(USDC_ADDRESS, address(this));\n        withdraw(USDC_amount, USDC_ADDRESS, user);\n\n        updateSharesOnWithdrawal(user);\n    }\n\n    function withdraw(uint256 amount_, address token_address, address address_to) public  {\n        IERC20 token_ = IERC20(token_address); //is this right?\n\n        token_.transfer(address_to, amount_);\n    }\n\n    function approveSpendingWholeBalance(address _token, address _spender) public {\n        uint256 tokenBalance = IERC20(_token).balanceOf(address(this));\n        approve_spending(_token, _spender, tokenBalance);\n    }\n\n    function swapBackToUSDC(address _token, uint256 _amount) public {\n        address[] memory path = new address[](2);\n        path[0] = _token;\n        path[1] = USDC_ADDRESS;\n        swap(_amount, uint256(0), path, address(this), 99999999999);\n    }\n    \n    // function withdraw_matic(uint256 amount_) public payable {\n    //     transfer(msg.sender, amount_);\n    // }\n\n    function tokenBalanceOf(address token_address, address user_address) public view returns (uint256 token_balance) {\n        IERC20 _token = IERC20(token_address);\n        token_balance = _token.balanceOf(user_address);\n        return token_balance;\n    }\n    \n    function swap(uint256 _amountIn, uint256 _amountOutMin, address[] memory _path, address _acct, uint256 _deadline) public {\n        \n       quickSwapRouter.swapExactTokensForTokens(\n            _amountIn,\n            _amountOutMin,\n            _path,\n            _acct,\n            _deadline);\n        }\n        \n    }\n    \n\n    ",
  "sourcePath": "/Users/richardjamieson/Documents/GitHub/BentoBoxBalancer/contracts/autoBalancer.sol",
  "compiler": {
    "name": "solc",
    "version": "0.8.16+commit.07a7930e.Emscripten.clang"
  },
  "schemaVersion": "3.4.9",
  "updatedAt": "2022-08-17T18:20:24.587Z",
  "networkType": "ethereum",
  "devdoc": {
    "kind": "dev",
    "methods": {
      "performUpkeep(bytes)": {
        "details": "The input to this method should not be trusted, and the caller of the method should not even be restricted to any single registry. Anyone should be able call it, and the input should be validated, there is no guarantee that the data passed in is the performData returned from checkUpkeep. This could happen due to malicious keepers, racing keepers, or simply a state change while the performUpkeep transaction is waiting for confirmation. Always validate the data passed in.",
        "params": {
          "performData": "is the data which was passed back from the checkData simulation. If it is encoded, it can easily be decoded into other types by calling `abi.decode`. This data should not be trusted, and should be validated against the contract's current state."
        }
      }
    },
    "version": 1
  },
  "userdoc": {
    "kind": "user",
    "methods": {
      "getLatestPrice(address)": {
        "notice": "Returns the latest price"
      },
      "performUpkeep(bytes)": {
        "notice": "method that is actually executed by the keepers, via the registry. The data returned by the checkUpkeep simulation will be passed into this method to actually be executed."
      }
    },
    "version": 1
  }
}