{
  "contractName": "autoBalancer",
  "abi": [
    {
      "inputs": [],
      "stateMutability": "nonpayable",
      "type": "constructor"
    },
    {
      "anonymous": false,
      "inputs": [
        {
          "indexed": true,
          "internalType": "address",
          "name": "owner",
          "type": "address"
        },
        {
          "indexed": true,
          "internalType": "address",
          "name": "spender",
          "type": "address"
        },
        {
          "indexed": false,
          "internalType": "uint256",
          "name": "value",
          "type": "uint256"
        }
      ],
      "name": "Approval",
      "type": "event"
    },
    {
      "anonymous": false,
      "inputs": [
        {
          "indexed": true,
          "internalType": "address",
          "name": "from",
          "type": "address"
        },
        {
          "indexed": true,
          "internalType": "address",
          "name": "to",
          "type": "address"
        },
        {
          "indexed": false,
          "internalType": "uint256",
          "name": "value",
          "type": "uint256"
        }
      ],
      "name": "Transfer",
      "type": "event"
    },
    {
      "inputs": [],
      "name": "BTC_USD_ORACLE",
      "outputs": [
        {
          "internalType": "address",
          "name": "",
          "type": "address"
        }
      ],
      "stateMutability": "view",
      "type": "function",
      "constant": true
    },
    {
      "inputs": [],
      "name": "ETH_USD_ORACLE",
      "outputs": [
        {
          "internalType": "address",
          "name": "",
          "type": "address"
        }
      ],
      "stateMutability": "view",
      "type": "function",
      "constant": true
    },
    {
      "inputs": [],
      "name": "MATIC_USD_ORACLE",
      "outputs": [
        {
          "internalType": "address",
          "name": "",
          "type": "address"
        }
      ],
      "stateMutability": "view",
      "type": "function",
      "constant": true
    },
    {
      "inputs": [],
      "name": "QUICKSWAP_ROUTER",
      "outputs": [
        {
          "internalType": "address",
          "name": "",
          "type": "address"
        }
      ],
      "stateMutability": "view",
      "type": "function",
      "constant": true
    },
    {
      "inputs": [
        {
          "internalType": "uint256",
          "name": "",
          "type": "uint256"
        }
      ],
      "name": "SANDToUSDCPath",
      "outputs": [
        {
          "internalType": "address",
          "name": "",
          "type": "address"
        }
      ],
      "stateMutability": "view",
      "type": "function",
      "constant": true
    },
    {
      "inputs": [],
      "name": "SAND_ADDRESS",
      "outputs": [
        {
          "internalType": "address",
          "name": "",
          "type": "address"
        }
      ],
      "stateMutability": "view",
      "type": "function",
      "constant": true
    },
    {
      "inputs": [],
      "name": "SAND_USD_ORACLE",
      "outputs": [
        {
          "internalType": "address",
          "name": "",
          "type": "address"
        }
      ],
      "stateMutability": "view",
      "type": "function",
      "constant": true
    },
    {
      "inputs": [
        {
          "internalType": "uint256",
          "name": "",
          "type": "uint256"
        }
      ],
      "name": "USDCToSANDPath",
      "outputs": [
        {
          "internalType": "address",
          "name": "",
          "type": "address"
        }
      ],
      "stateMutability": "view",
      "type": "function",
      "constant": true
    },
    {
      "inputs": [
        {
          "internalType": "uint256",
          "name": "",
          "type": "uint256"
        }
      ],
      "name": "USDCToWBTCPath",
      "outputs": [
        {
          "internalType": "address",
          "name": "",
          "type": "address"
        }
      ],
      "stateMutability": "view",
      "type": "function",
      "constant": true
    },
    {
      "inputs": [
        {
          "internalType": "uint256",
          "name": "",
          "type": "uint256"
        }
      ],
      "name": "USDCToWETHPath",
      "outputs": [
        {
          "internalType": "address",
          "name": "",
          "type": "address"
        }
      ],
      "stateMutability": "view",
      "type": "function",
      "constant": true
    },
    {
      "inputs": [
        {
          "internalType": "uint256",
          "name": "",
          "type": "uint256"
        }
      ],
      "name": "USDCToWMATICPath",
      "outputs": [
        {
          "internalType": "address",
          "name": "",
          "type": "address"
        }
      ],
      "stateMutability": "view",
      "type": "function",
      "constant": true
    },
    {
      "inputs": [],
      "name": "USDC_ADDRESS",
      "outputs": [
        {
          "internalType": "address",
          "name": "",
          "type": "address"
        }
      ],
      "stateMutability": "view",
      "type": "function",
      "constant": true
    },
    {
      "inputs": [
        {
          "internalType": "uint256",
          "name": "",
          "type": "uint256"
        }
      ],
      "name": "WBTCToUSDCPath",
      "outputs": [
        {
          "internalType": "address",
          "name": "",
          "type": "address"
        }
      ],
      "stateMutability": "view",
      "type": "function",
      "constant": true
    },
    {
      "inputs": [],
      "name": "WBTC_ADDRESS",
      "outputs": [
        {
          "internalType": "address",
          "name": "",
          "type": "address"
        }
      ],
      "stateMutability": "view",
      "type": "function",
      "constant": true
    },
    {
      "inputs": [
        {
          "internalType": "uint256",
          "name": "",
          "type": "uint256"
        }
      ],
      "name": "WETHToUSDCPath",
      "outputs": [
        {
          "internalType": "address",
          "name": "",
          "type": "address"
        }
      ],
      "stateMutability": "view",
      "type": "function",
      "constant": true
    },
    {
      "inputs": [],
      "name": "WETH_ADDRESS",
      "outputs": [
        {
          "internalType": "address",
          "name": "",
          "type": "address"
        }
      ],
      "stateMutability": "view",
      "type": "function",
      "constant": true
    },
    {
      "inputs": [
        {
          "internalType": "uint256",
          "name": "",
          "type": "uint256"
        }
      ],
      "name": "WMATICToUSDCPath",
      "outputs": [
        {
          "internalType": "address",
          "name": "",
          "type": "address"
        }
      ],
      "stateMutability": "view",
      "type": "function",
      "constant": true
    },
    {
      "inputs": [],
      "name": "WMATIC_ADDRESS",
      "outputs": [
        {
          "internalType": "address",
          "name": "",
          "type": "address"
        }
      ],
      "stateMutability": "view",
      "type": "function",
      "constant": true
    },
    {
      "inputs": [
        {
          "internalType": "address",
          "name": "owner",
          "type": "address"
        },
        {
          "internalType": "address",
          "name": "spender",
          "type": "address"
        }
      ],
      "name": "allowance",
      "outputs": [
        {
          "internalType": "uint256",
          "name": "",
          "type": "uint256"
        }
      ],
      "stateMutability": "view",
      "type": "function",
      "constant": true
    },
    {
      "inputs": [
        {
          "internalType": "address",
          "name": "spender",
          "type": "address"
        },
        {
          "internalType": "uint256",
          "name": "amount",
          "type": "uint256"
        }
      ],
      "name": "approve",
      "outputs": [
        {
          "internalType": "bool",
          "name": "",
          "type": "bool"
        }
      ],
      "stateMutability": "nonpayable",
      "type": "function"
    },
    {
      "inputs": [
        {
          "internalType": "address",
          "name": "account",
          "type": "address"
        }
      ],
      "name": "balanceOf",
      "outputs": [
        {
          "internalType": "uint256",
          "name": "",
          "type": "uint256"
        }
      ],
      "stateMutability": "view",
      "type": "function",
      "constant": true
    },
    {
      "inputs": [],
      "name": "decimals",
      "outputs": [
        {
          "internalType": "uint8",
          "name": "",
          "type": "uint8"
        }
      ],
      "stateMutability": "view",
      "type": "function",
      "constant": true
    },
    {
      "inputs": [
        {
          "internalType": "address",
          "name": "spender",
          "type": "address"
        },
        {
          "internalType": "uint256",
          "name": "subtractedValue",
          "type": "uint256"
        }
      ],
      "name": "decreaseAllowance",
      "outputs": [
        {
          "internalType": "bool",
          "name": "",
          "type": "bool"
        }
      ],
      "stateMutability": "nonpayable",
      "type": "function"
    },
    {
      "inputs": [
        {
          "internalType": "address",
          "name": "spender",
          "type": "address"
        },
        {
          "internalType": "uint256",
          "name": "addedValue",
          "type": "uint256"
        }
      ],
      "name": "increaseAllowance",
      "outputs": [
        {
          "internalType": "bool",
          "name": "",
          "type": "bool"
        }
      ],
      "stateMutability": "nonpayable",
      "type": "function"
    },
    {
      "inputs": [],
      "name": "interval",
      "outputs": [
        {
          "internalType": "uint256",
          "name": "",
          "type": "uint256"
        }
      ],
      "stateMutability": "view",
      "type": "function",
      "constant": true
    },
    {
      "inputs": [],
      "name": "lastTimeStamp",
      "outputs": [
        {
          "internalType": "uint256",
          "name": "",
          "type": "uint256"
        }
      ],
      "stateMutability": "view",
      "type": "function",
      "constant": true
    },
    {
      "inputs": [],
      "name": "name",
      "outputs": [
        {
          "internalType": "string",
          "name": "",
          "type": "string"
        }
      ],
      "stateMutability": "view",
      "type": "function",
      "constant": true
    },
    {
      "inputs": [],
      "name": "quickSwapRouter",
      "outputs": [
        {
          "internalType": "contract IUniswapV2Router02",
          "name": "",
          "type": "address"
        }
      ],
      "stateMutability": "view",
      "type": "function",
      "constant": true
    },
    {
      "inputs": [],
      "name": "symbol",
      "outputs": [
        {
          "internalType": "string",
          "name": "",
          "type": "string"
        }
      ],
      "stateMutability": "view",
      "type": "function",
      "constant": true
    },
    {
      "inputs": [],
      "name": "totalNumberOfShares",
      "outputs": [
        {
          "internalType": "uint256",
          "name": "",
          "type": "uint256"
        }
      ],
      "stateMutability": "view",
      "type": "function",
      "constant": true
    },
    {
      "inputs": [],
      "name": "totalSupply",
      "outputs": [
        {
          "internalType": "uint256",
          "name": "",
          "type": "uint256"
        }
      ],
      "stateMutability": "view",
      "type": "function",
      "constant": true
    },
    {
      "inputs": [
        {
          "internalType": "address",
          "name": "to",
          "type": "address"
        },
        {
          "internalType": "uint256",
          "name": "amount",
          "type": "uint256"
        }
      ],
      "name": "transfer",
      "outputs": [
        {
          "internalType": "bool",
          "name": "",
          "type": "bool"
        }
      ],
      "stateMutability": "nonpayable",
      "type": "function"
    },
    {
      "inputs": [
        {
          "internalType": "address",
          "name": "from",
          "type": "address"
        },
        {
          "internalType": "address",
          "name": "to",
          "type": "address"
        },
        {
          "internalType": "uint256",
          "name": "amount",
          "type": "uint256"
        }
      ],
      "name": "transferFrom",
      "outputs": [
        {
          "internalType": "bool",
          "name": "",
          "type": "bool"
        }
      ],
      "stateMutability": "nonpayable",
      "type": "function"
    },
    {
      "inputs": [
        {
          "internalType": "address",
          "name": "",
          "type": "address"
        }
      ],
      "name": "userNumberOfShares",
      "outputs": [
        {
          "internalType": "uint256",
          "name": "",
          "type": "uint256"
        }
      ],
      "stateMutability": "view",
      "type": "function",
      "constant": true
    },
    {
      "stateMutability": "payable",
      "type": "receive",
      "payable": true
    },
    {
      "inputs": [
        {
          "internalType": "uint256",
          "name": "new_interval",
          "type": "uint256"
        }
      ],
      "name": "setInterval",
      "outputs": [],
      "stateMutability": "nonpayable",
      "type": "function"
    },
    {
      "inputs": [
        {
          "internalType": "address",
          "name": "_oracle_address",
          "type": "address"
        }
      ],
      "name": "getLatestPrice",
      "outputs": [
        {
          "internalType": "int256",
          "name": "",
          "type": "int256"
        }
      ],
      "stateMutability": "view",
      "type": "function",
      "constant": true
    },
    {
      "inputs": [
        {
          "internalType": "bytes",
          "name": "",
          "type": "bytes"
        }
      ],
      "name": "checkUpkeep",
      "outputs": [
        {
          "internalType": "bool",
          "name": "upkeepNeeded",
          "type": "bool"
        },
        {
          "internalType": "bytes",
          "name": "performData",
          "type": "bytes"
        }
      ],
      "stateMutability": "view",
      "type": "function",
      "constant": true
    },
    {
      "inputs": [
        {
          "internalType": "bytes",
          "name": "performData",
          "type": "bytes"
        }
      ],
      "name": "performUpkeep",
      "outputs": [],
      "stateMutability": "nonpayable",
      "type": "function"
    },
    {
      "inputs": [
        {
          "internalType": "address",
          "name": "user",
          "type": "address"
        }
      ],
      "name": "updateSharesOnWithdrawal",
      "outputs": [],
      "stateMutability": "nonpayable",
      "type": "function"
    },
    {
      "inputs": [
        {
          "internalType": "address",
          "name": "user",
          "type": "address"
        }
      ],
      "name": "getUserShares",
      "outputs": [
        {
          "internalType": "uint256",
          "name": "userShares",
          "type": "uint256"
        }
      ],
      "stateMutability": "view",
      "type": "function",
      "constant": true
    },
    {
      "inputs": [
        {
          "internalType": "address",
          "name": "token_address",
          "type": "address"
        },
        {
          "internalType": "address",
          "name": "spender_address",
          "type": "address"
        },
        {
          "internalType": "uint256",
          "name": "amount_to_approve",
          "type": "uint256"
        }
      ],
      "name": "approve_spending",
      "outputs": [],
      "stateMutability": "nonpayable",
      "type": "function"
    },
    {
      "inputs": [
        {
          "internalType": "uint256",
          "name": "amount_",
          "type": "uint256"
        }
      ],
      "name": "depositUserFunds",
      "outputs": [],
      "stateMutability": "nonpayable",
      "type": "function"
    },
    {
      "inputs": [
        {
          "internalType": "address",
          "name": "token_address",
          "type": "address"
        },
        {
          "internalType": "address",
          "name": "oracle_address",
          "type": "address"
        },
        {
          "internalType": "uint256",
          "name": "token_decimals",
          "type": "uint256"
        }
      ],
      "name": "getUSDTokenBalanceOf",
      "outputs": [
        {
          "internalType": "uint256",
          "name": "",
          "type": "uint256"
        }
      ],
      "stateMutability": "view",
      "type": "function",
      "constant": true
    },
    {
      "inputs": [
        {
          "internalType": "uint256",
          "name": "WMATIC_amount",
          "type": "uint256"
        },
        {
          "internalType": "uint256",
          "name": "SAND_amount",
          "type": "uint256"
        },
        {
          "internalType": "uint256",
          "name": "WETH_amount",
          "type": "uint256"
        },
        {
          "internalType": "uint256",
          "name": "WBTC_amount",
          "type": "uint256"
        },
        {
          "internalType": "uint256",
          "name": "totalUSDAmount",
          "type": "uint256"
        },
        {
          "internalType": "uint256",
          "name": "depositAmount",
          "type": "uint256"
        }
      ],
      "name": "swapProportionately",
      "outputs": [],
      "stateMutability": "nonpayable",
      "type": "function"
    },
    {
      "inputs": [
        {
          "internalType": "uint256",
          "name": "amount",
          "type": "uint256"
        }
      ],
      "name": "swapIntoFourEqualParts",
      "outputs": [],
      "stateMutability": "nonpayable",
      "type": "function"
    },
    {
      "inputs": [
        {
          "internalType": "address",
          "name": "user",
          "type": "address"
        },
        {
          "internalType": "uint256",
          "name": "deposit_amount",
          "type": "uint256"
        }
      ],
      "name": "setSharesFirstTime",
      "outputs": [],
      "stateMutability": "nonpayable",
      "type": "function"
    },
    {
      "inputs": [
        {
          "internalType": "address",
          "name": "user",
          "type": "address"
        },
        {
          "internalType": "uint256",
          "name": "total_in_USD",
          "type": "uint256"
        },
        {
          "internalType": "uint256",
          "name": "deposit_amount",
          "type": "uint256"
        }
      ],
      "name": "updateSharesOnDeposit",
      "outputs": [],
      "stateMutability": "nonpayable",
      "type": "function"
    },
    {
      "inputs": [
        {
          "internalType": "address",
          "name": "user",
          "type": "address"
        }
      ],
      "name": "withdrawUserFunds",
      "outputs": [],
      "stateMutability": "nonpayable",
      "type": "function"
    },
    {
      "inputs": [
        {
          "internalType": "uint256",
          "name": "amount_",
          "type": "uint256"
        },
        {
          "internalType": "address",
          "name": "token_address",
          "type": "address"
        },
        {
          "internalType": "address",
          "name": "address_to",
          "type": "address"
        }
      ],
      "name": "withdraw",
      "outputs": [],
      "stateMutability": "nonpayable",
      "type": "function"
    },
    {
      "inputs": [
        {
          "internalType": "address",
          "name": "_token",
          "type": "address"
        },
        {
          "internalType": "address",
          "name": "_spender",
          "type": "address"
        }
      ],
      "name": "approveSpendingWholeBalance",
      "outputs": [],
      "stateMutability": "nonpayable",
      "type": "function"
    },
    {
      "inputs": [
        {
          "internalType": "address",
          "name": "_token",
          "type": "address"
        },
        {
          "internalType": "uint256",
          "name": "_amount",
          "type": "uint256"
        }
      ],
      "name": "swapBackToUSDC",
      "outputs": [],
      "stateMutability": "nonpayable",
      "type": "function"
    },
    {
      "inputs": [
        {
          "internalType": "address",
          "name": "token_address",
          "type": "address"
        },
        {
          "internalType": "address",
          "name": "user_address",
          "type": "address"
        }
      ],
      "name": "tokenBalanceOf",
      "outputs": [
        {
          "internalType": "uint256",
          "name": "token_balance",
          "type": "uint256"
        }
      ],
      "stateMutability": "view",
      "type": "function",
      "constant": true
    },
    {
      "inputs": [
        {
          "internalType": "uint256",
          "name": "_amountIn",
          "type": "uint256"
        },
        {
          "internalType": "uint256",
          "name": "_amountOutMin",
          "type": "uint256"
        },
        {
          "internalType": "address[]",
          "name": "_path",
          "type": "address[]"
        },
        {
          "internalType": "address",
          "name": "_acct",
          "type": "address"
        },
        {
          "internalType": "uint256",
          "name": "_deadline",
          "type": "uint256"
        }
      ],
      "name": "swap",
      "outputs": [],
      "stateMutability": "nonpayable",
      "type": "function"
    }
  ],
  "bytecode": "0x60806040526040518060400160405280732791bca1f2de4661ed88a30c99a7a9449aa8417473ffffffffffffffffffffffffffffffffffffffff1673ffffffffffffffffffffffffffffffffffffffff168152602001730d500b1d8e8ef31e21c99d1db9a6444d3adf127073ffffffffffffffffffffffffffffffffffffffff1673ffffffffffffffffffffffffffffffffffffffff168152506005906002620000ab92919062000645565b506040518060400160405280732791bca1f2de4661ed88a30c99a7a9449aa8417473ffffffffffffffffffffffffffffffffffffffff1673ffffffffffffffffffffffffffffffffffffffff16815260200173bbba073c31bf03b8acf7c28ef0738decf369568373ffffffffffffffffffffffffffffffffffffffff1673ffffffffffffffffffffffffffffffffffffffff1681525060069060026200015392919062000645565b506040518060400160405280732791bca1f2de4661ed88a30c99a7a9449aa8417473ffffffffffffffffffffffffffffffffffffffff1673ffffffffffffffffffffffffffffffffffffffff168152602001737ceb23fd6bc0add59e62ac25578270cff1b9f61973ffffffffffffffffffffffffffffffffffffffff1673ffffffffffffffffffffffffffffffffffffffff168152506007906002620001fb92919062000645565b506040518060400160405280732791bca1f2de4661ed88a30c99a7a9449aa8417473ffffffffffffffffffffffffffffffffffffffff1673ffffffffffffffffffffffffffffffffffffffff168152602001731bfd67037b42cf73acf2047067bd4f2c47d9bfd673ffffffffffffffffffffffffffffffffffffffff1673ffffffffffffffffffffffffffffffffffffffff168152506008906002620002a392919062000645565b506040518060400160405280730d500b1d8e8ef31e21c99d1db9a6444d3adf127073ffffffffffffffffffffffffffffffffffffffff1673ffffffffffffffffffffffffffffffffffffffff168152602001732791bca1f2de4661ed88a30c99a7a9449aa8417473ffffffffffffffffffffffffffffffffffffffff1673ffffffffffffffffffffffffffffffffffffffff1681525060099060026200034b92919062000645565b50604051806040016040528073bbba073c31bf03b8acf7c28ef0738decf369568373ffffffffffffffffffffffffffffffffffffffff1673ffffffffffffffffffffffffffffffffffffffff168152602001732791bca1f2de4661ed88a30c99a7a9449aa8417473ffffffffffffffffffffffffffffffffffffffff1673ffffffffffffffffffffffffffffffffffffffff16815250600a906002620003f392919062000645565b506040518060400160405280737ceb23fd6bc0add59e62ac25578270cff1b9f61973ffffffffffffffffffffffffffffffffffffffff1673ffffffffffffffffffffffffffffffffffffffff168152602001732791bca1f2de4661ed88a30c99a7a9449aa8417473ffffffffffffffffffffffffffffffffffffffff1673ffffffffffffffffffffffffffffffffffffffff16815250600b9060026200049b92919062000645565b506040518060400160405280731bfd67037b42cf73acf2047067bd4f2c47d9bfd673ffffffffffffffffffffffffffffffffffffffff1673ffffffffffffffffffffffffffffffffffffffff168152602001732791bca1f2de4661ed88a30c99a7a9449aa8417473ffffffffffffffffffffffffffffffffffffffff1673ffffffffffffffffffffffffffffffffffffffff16815250600c9060026200054392919062000645565b50610e10600f5573a5e0829caced8ffdd4de3c43696c57f7d7a678ff601160006101000a81548173ffffffffffffffffffffffffffffffffffffffff021916908373ffffffffffffffffffffffffffffffffffffffff160217905550348015620005ac57600080fd5b506040518060400160405280600c81526020017f6175746f42616c616e63657200000000000000000000000000000000000000008152506040518060400160405280600381526020017f414241000000000000000000000000000000000000000000000000000000000081525081600390816200062a91906200096d565b5080600490816200063c91906200096d565b50505062000a54565b828054828255906000526020600020908101928215620006c1579160200282015b82811115620006c05782518260006101000a81548173ffffffffffffffffffffffffffffffffffffffff021916908373ffffffffffffffffffffffffffffffffffffffff1602179055509160200191906001019062000666565b5b509050620006d09190620006d4565b5090565b5b80821115620006ef576000816000905550600101620006d5565b5090565b600081519050919050565b7f4e487b7100000000000000000000000000000000000000000000000000000000600052604160045260246000fd5b7f4e487b7100000000000000000000000000000000000000000000000000000000600052602260045260246000fd5b600060028204905060018216806200077557607f821691505b6020821081036200078b576200078a6200072d565b5b50919050565b60008190508160005260206000209050919050565b60006020601f8301049050919050565b600082821b905092915050565b600060088302620007f57fffffffffffffffffffffffffffffffffffffffffffffffffffffffffffffffff82620007b6565b620008018683620007b6565b95508019841693508086168417925050509392505050565b6000819050919050565b6000819050919050565b60006200084e62000848620008428462000819565b62000823565b62000819565b9050919050565b6000819050919050565b6200086a836200082d565b62000882620008798262000855565b848454620007c3565b825550505050565b600090565b620008996200088a565b620008a68184846200085f565b505050565b5b81811015620008ce57620008c26000826200088f565b600181019050620008ac565b5050565b601f8211156200091d57620008e78162000791565b620008f284620007a6565b8101602085101562000902578190505b6200091a6200091185620007a6565b830182620008ab565b50505b505050565b600082821c905092915050565b6000620009426000198460080262000922565b1980831691505092915050565b60006200095d83836200092f565b9150826002028217905092915050565b6200097882620006f3565b67ffffffffffffffff811115620009945762000993620006fe565b5b620009a082546200075c565b620009ad828285620008d2565b600060209050601f831160018114620009e55760008415620009d0578287015190505b620009dc85826200094f565b86555062000a4c565b601f198416620009f58662000791565b60005b8281101562000a1f57848901518255600182019150602085019450602081019050620009f8565b8683101562000a3f578489015162000a3b601f8916826200092f565b8355505b6001600288020188555050505b505050505050565b61599c8062000a646000396000f3fe60806040526004361061031e5760003560e01c8063764f96f9116101ab578063ba0cb22b116100f7578063cd3f5b5311610095578063dd62ed3e1161006f578063dd62ed3e14610ca0578063e189eb4214610cdd578063e95d832814610d08578063ef455bad14610d3357610325565b8063cd3f5b5314610c21578063cf41281014610c4c578063d091911614610c7557610325565b8063c3f5a305116100d1578063c3f5a30514610b53578063c5764eec14610b7e578063ca97090514610ba7578063cb3601b114610be457610325565b8063ba0cb22b14610ac0578063bb09d9b714610afd578063bdd5915f14610b2857610325565b8063a15c7d1011610164578063a9059cbb1161013e578063a9059cbb14610a06578063aa5a7aa314610a43578063b460af9414610a6c578063b6e20a6a14610a9557610325565b8063a15c7d101461094f578063a457c2d71461098c578063a48ce279146109c957610325565b8063764f96f91461085357806388e42b081461087c5780638db9f39a146108a557806390f11e84146108d0578063947a36fb146108f957806395d89b411461092457610325565b8063313ce5671161026a5780634690738c1161022357806369bc4388116101fd57806369bc4388146107705780636e04ff0d146107ad57806370a08231146107eb578063718176e51461082857610325565b80634690738c146106cd57806351f54887146106f6578063681bcf131461073357610325565b8063313ce567146105ab57806339509351146105d65780633f3b3b2714610613578063442509551461063e57806344345f23146106675780634585e33b146106a457610325565b806322a90082116102d757806324484306116102b1578063244843061461050557806324e2e7bb1461052e57806329a97ec2146105575780632d365d311461058057610325565b806322a900821461046257806323aad7af1461048b57806323b872dd146104c857610325565b8063040141e51461032a57806306fdde0314610355578063095ea7b31461038057806316345f18146103bd57806318160ddd146103fa5780631bea80061461042557610325565b3661032557005b600080fd5b34801561033657600080fd5b5061033f610d70565b60405161034c9190614013565b60405180910390f35b34801561036157600080fd5b5061036a610d88565b60405161037791906140be565b60405180910390f35b34801561038c57600080fd5b506103a760048036038101906103a29190614156565b610e1a565b6040516103b491906141b1565b60405180910390f35b3480156103c957600080fd5b506103e460048036038101906103df91906141cc565b610e3d565b6040516103f19190614212565b60405180910390f35b34801561040657600080fd5b5061040f610ecc565b60405161041c919061423c565b60405180910390f35b34801561043157600080fd5b5061044c60048036038101906104479190614257565b610ed6565b604051610459919061423c565b60405180910390f35b34801561046e57600080fd5b5061048960048036038101906104849190614297565b610f5f565b005b34801561049757600080fd5b506104b260048036038101906104ad9190614297565b610f69565b6040516104bf9190614013565b60405180910390f35b3480156104d457600080fd5b506104ef60048036038101906104ea91906142c4565b610fa8565b6040516104fc91906141b1565b60405180910390f35b34801561051157600080fd5b5061052c60048036038101906105279190614156565b610fd7565b005b34801561053a57600080fd5b50610555600480360381019061055091906141cc565b610fe5565b005b34801561056357600080fd5b5061057e600480360381019061057991906142c4565b61135f565b005b34801561058c57600080fd5b506105956113e3565b6040516105a29190614013565b60405180910390f35b3480156105b757600080fd5b506105c06113fb565b6040516105cd9190614333565b60405180910390f35b3480156105e257600080fd5b506105fd60048036038101906105f89190614156565b611404565b60405161060a91906141b1565b60405180910390f35b34801561061f57600080fd5b5061062861143b565b604051610635919061423c565b60405180910390f35b34801561064a57600080fd5b506106656004803603810190610660919061434e565b611441565b005b34801561067357600080fd5b5061068e60048036038101906106899190614297565b611473565b60405161069b9190614013565b60405180910390f35b3480156106b057600080fd5b506106cb60048036038101906106c69190614406565b6114b2565b005b3480156106d957600080fd5b506106f460048036038101906106ef91906141cc565b6119c8565b005b34801561070257600080fd5b5061071d600480360381019061071891906142c4565b6119dd565b60405161072a919061423c565b60405180910390f35b34801561073f57600080fd5b5061075a60048036038101906107559190614297565b611a28565b6040516107679190614013565b60405180910390f35b34801561077c57600080fd5b5061079760048036038101906107929190614297565b611a67565b6040516107a49190614013565b60405180910390f35b3480156107b957600080fd5b506107d460048036038101906107cf9190614406565b611aa6565b6040516107e29291906144a8565b60405180910390f35b3480156107f757600080fd5b50610812600480360381019061080d91906141cc565b612864565b60405161081f919061423c565b60405180910390f35b34801561083457600080fd5b5061083d6128ac565b60405161084a9190614013565b60405180910390f35b34801561085f57600080fd5b5061087a600480360381019061087591906144d8565b6128c4565b005b34801561088857600080fd5b506108a3600480360381019061089e9190614297565b612ba0565b005b3480156108b157600080fd5b506108ba612e37565b6040516108c79190614013565b60405180910390f35b3480156108dc57600080fd5b506108f760048036038101906108f291906146a3565b612e4f565b005b34801561090557600080fd5b5061090e612f02565b60405161091b919061423c565b60405180910390f35b34801561093057600080fd5b50610939612f08565b60405161094691906140be565b60405180910390f35b34801561095b57600080fd5b5061097660048036038101906109719190614297565b612f9a565b6040516109839190614013565b60405180910390f35b34801561099857600080fd5b506109b360048036038101906109ae9190614156565b612fd9565b6040516109c091906141b1565b60405180910390f35b3480156109d557600080fd5b506109f060048036038101906109eb9190614297565b613050565b6040516109fd9190614013565b60405180910390f35b348015610a1257600080fd5b50610a2d6004803603810190610a289190614156565b61308f565b604051610a3a91906141b1565b60405180910390f35b348015610a4f57600080fd5b50610a6a6004803603810190610a659190614257565b6130b2565b005b348015610a7857600080fd5b50610a936004803603810190610a8e919061473a565b613140565b005b348015610aa157600080fd5b50610aaa6131ca565b604051610ab79190614013565b60405180910390f35b348015610acc57600080fd5b50610ae76004803603810190610ae291906141cc565b6131e2565b604051610af4919061423c565b60405180910390f35b348015610b0957600080fd5b50610b1261322b565b604051610b1f9190614013565b60405180910390f35b348015610b3457600080fd5b50610b3d613243565b604051610b4a9190614013565b60405180910390f35b348015610b5f57600080fd5b50610b6861325b565b604051610b75919061423c565b60405180910390f35b348015610b8a57600080fd5b50610ba56004803603810190610ba09190614297565b613261565b005b348015610bb357600080fd5b50610bce6004803603810190610bc99190614297565b613481565b604051610bdb9190614013565b60405180910390f35b348015610bf057600080fd5b50610c0b6004803603810190610c069190614297565b6134c0565b604051610c189190614013565b60405180910390f35b348015610c2d57600080fd5b50610c366134ff565b604051610c439190614013565b60405180910390f35b348015610c5857600080fd5b50610c736004803603810190610c6e9190614156565b613517565b005b348015610c8157600080fd5b50610c8a61362f565b604051610c979190614013565b60405180910390f35b348015610cac57600080fd5b50610cc76004803603810190610cc29190614257565b613647565b604051610cd4919061423c565b60405180910390f35b348015610ce957600080fd5b50610cf26136ce565b604051610cff91906147ec565b60405180910390f35b348015610d1457600080fd5b50610d1d6136f4565b604051610d2a9190614013565b60405180910390f35b348015610d3f57600080fd5b50610d5a6004803603810190610d5591906141cc565b61370c565b604051610d67919061423c565b60405180910390f35b737ceb23fd6bc0add59e62ac25578270cff1b9f61981565b606060038054610d9790614836565b80601f0160208091040260200160405190810160405280929190818152602001828054610dc390614836565b8015610e105780601f10610de557610100808354040283529160200191610e10565b820191906000526020600020905b815481529060010190602001808311610df357829003601f168201915b5050505050905090565b600080610e25613724565b9050610e3281858561372c565b600191505092915050565b6000806000806000808673ffffffffffffffffffffffffffffffffffffffff1663feaf968c6040518163ffffffff1660e01b815260040160a060405180830381865afa158015610e91573d6000803e3d6000fd5b505050506040513d601f19601f82011682018060405250810190610eb591906148ea565b945094509450945094508395505050505050919050565b6000600254905090565b6000808390508073ffffffffffffffffffffffffffffffffffffffff166370a08231846040518263ffffffff1660e01b8152600401610f159190614013565b602060405180830381865afa158015610f32573d6000803e3d6000fd5b505050506040513d601f19601f82011682018060405250810190610f569190614965565b91505092915050565b80600f8190555050565b60068181548110610f7957600080fd5b906000526020600020016000915054906101000a900473ffffffffffffffffffffffffffffffffffffffff1681565b600080610fb3613724565b9050610fc08582856138f5565b610fcb858585613981565b60019150509392505050565b610fe18282613c00565b5050565b6000600d54611008730d500b1d8e8ef31e21c99d1db9a6444d3adf127030610ed6565b601060008573ffffffffffffffffffffffffffffffffffffffff1673ffffffffffffffffffffffffffffffffffffffff1681526020019081526020016000205461105291906149c1565b61105c9190614a32565b90506000600d5461108173bbba073c31bf03b8acf7c28ef0738decf369568330610ed6565b601060008673ffffffffffffffffffffffffffffffffffffffff1673ffffffffffffffffffffffffffffffffffffffff168152602001908152602001600020546110cb91906149c1565b6110d59190614a32565b90506000600d546110fa737ceb23fd6bc0add59e62ac25578270cff1b9f61930610ed6565b601060008773ffffffffffffffffffffffffffffffffffffffff1673ffffffffffffffffffffffffffffffffffffffff1681526020019081526020016000205461114491906149c1565b61114e9190614a32565b90506000600d54611173731bfd67037b42cf73acf2047067bd4f2c47d9bfd630610ed6565b601060008873ffffffffffffffffffffffffffffffffffffffff1673ffffffffffffffffffffffffffffffffffffffff168152602001908152602001600020546111bd91906149c1565b6111c79190614a32565b90506111fc730d500b1d8e8ef31e21c99d1db9a6444d3adf127073a5e0829caced8ffdd4de3c43696c57f7d7a678ff8661135f565b61122f73bbba073c31bf03b8acf7c28ef0738decf369568373a5e0829caced8ffdd4de3c43696c57f7d7a678ff8561135f565b611262737ceb23fd6bc0add59e62ac25578270cff1b9f61973a5e0829caced8ffdd4de3c43696c57f7d7a678ff8461135f565b611295731bfd67037b42cf73acf2047067bd4f2c47d9bfd673a5e0829caced8ffdd4de3c43696c57f7d7a678ff8361135f565b6112b3730d500b1d8e8ef31e21c99d1db9a6444d3adf127085613517565b6112d173bbba073c31bf03b8acf7c28ef0738decf369568384613517565b6112ef737ceb23fd6bc0add59e62ac25578270cff1b9f61983613517565b61130d731bfd67037b42cf73acf2047067bd4f2c47d9bfd682613517565b600061132d732791bca1f2de4661ed88a30c99a7a9449aa8417430610ed6565b905061134e81732791bca1f2de4661ed88a30c99a7a9449aa8417488613140565b611357866119c8565b505050505050565b8273ffffffffffffffffffffffffffffffffffffffff1663095ea7b383836040518363ffffffff1660e01b815260040161139a929190614a63565b6020604051808303816000875af11580156113b9573d6000803e3d6000fd5b505050506040513d601f19601f820116820180604052508101906113dd9190614ab8565b50505050565b73bbba073c31bf03b8acf7c28ef0738decf369568381565b60006012905090565b60008061140f613724565b90506114308185856114218589613647565b61142b9190614ae5565b61372c565b600191505092915050565b600e5481565b60008261144c610ecc565b8361145791906149c1565b6114619190614a32565b905061146d8482613c00565b50505050565b600b818154811061148357600080fd5b906000526020600020016000915054906101000a900473ffffffffffffffffffffffffffffffffffffffff1681565b600f54600e54426114c39190614b19565b11156119c45742600e819055506060806000600267ffffffffffffffff8111156114f0576114ef614565565b5b60405190808252806020026020018201604052801561151e5781602001602082028036833780820191505090505b5090506000600367ffffffffffffffff81111561153e5761153d614565565b5b60405190808252806020026020018201604052801561156c5781602001602082028036833780820191505090505b509050858581019061157e9190614c10565b809450819550505060005b83518160ff1610156119be576115fa858260026115a69190614c88565b60ff16815181106115ba576115b9614cc5565b5b602002602001015173a5e0829caced8ffdd4de3c43696c57f7d7a678ff868460ff16815181106115ed576115ec614cc5565b5b602002602001015161135f565b730d500b1d8e8ef31e21c99d1db9a6444d3adf127073ffffffffffffffffffffffffffffffffffffffff16858260026116339190614c88565b60ff168151811061164757611646614cc5565b5b602002602001015173ffffffffffffffffffffffffffffffffffffffff1614806116e55750730d500b1d8e8ef31e21c99d1db9a6444d3adf127073ffffffffffffffffffffffffffffffffffffffff168560018360026116a79190614c88565b6116b19190614cf4565b60ff16815181106116c5576116c4614cc5565b5b602002602001015173ffffffffffffffffffffffffffffffffffffffff16145b1561181b57848160026116f89190614c88565b60ff168151811061170c5761170b614cc5565b5b60200260200101518360008151811061172857611727614cc5565b5b602002602001019073ffffffffffffffffffffffffffffffffffffffff16908173ffffffffffffffffffffffffffffffffffffffff16815250508460018260026117729190614c88565b61177c9190614cf4565b60ff16815181106117905761178f614cc5565b5b6020026020010151836001815181106117ac576117ab614cc5565b5b602002602001019073ffffffffffffffffffffffffffffffffffffffff16908173ffffffffffffffffffffffffffffffffffffffff1681525050611816848260ff16815181106117ff576117fe614cc5565b5b60200260200101516000853064174876e7ff612e4f565b6119ab565b848160026118299190614c88565b60ff168151811061183d5761183c614cc5565b5b60200260200101518260008151811061185957611858614cc5565b5b602002602001019073ffffffffffffffffffffffffffffffffffffffff16908173ffffffffffffffffffffffffffffffffffffffff1681525050730d500b1d8e8ef31e21c99d1db9a6444d3adf1270826001815181106118bc576118bb614cc5565b5b602002602001019073ffffffffffffffffffffffffffffffffffffffff16908173ffffffffffffffffffffffffffffffffffffffff16815250508460018260026119069190614c88565b6119109190614cf4565b60ff168151811061192457611923614cc5565b5b6020026020010151826002815181106119405761193f614cc5565b5b602002602001019073ffffffffffffffffffffffffffffffffffffffff16908173ffffffffffffffffffffffffffffffffffffffff16815250506119aa848260ff168151811061199357611992614cc5565b5b60200260200101516000843064174876e7ff612e4f565b5b80806119b690614d29565b915050611589565b50505050505b5050565b6119da816119d583612864565b613d5f565b50565b60006002826119ec9190614ae5565b600a6119f89190614e85565b611a0184610e3d565b611a0b8630610ed6565b611a1591906149c1565b611a1f9190614a32565b90509392505050565b60098181548110611a3857600080fd5b906000526020600020016000915054906101000a900473ffffffffffffffffffffffffffffffffffffffff1681565b60058181548110611a7757600080fd5b906000526020600020016000915054906101000a900473ffffffffffffffffffffffffffffffffffffffff1681565b60006060600f54600e5442611abb9190614b19565b1191506000600467ffffffffffffffff811115611adb57611ada614565565b5b604051908082528060200260200182016040528015611b1457816020015b611b01613f61565b815260200190600190039081611af95790505b509050611b1f613f61565b730d500b1d8e8ef31e21c99d1db9a6444d3adf1270816020019073ffffffffffffffffffffffffffffffffffffffff16908173ffffffffffffffffffffffffffffffffffffffff168152505073ab594600376ec9fd91f8e885dadf0ce036862de0816040019073ffffffffffffffffffffffffffffffffffffffff16908173ffffffffffffffffffffffffffffffffffffffff1681525050611bbf613f61565b73bbba073c31bf03b8acf7c28ef0738decf3695683816020019073ffffffffffffffffffffffffffffffffffffffff16908173ffffffffffffffffffffffffffffffffffffffff1681525050733d49406edd4d52fb7ffd25485f32e073b529c924816040019073ffffffffffffffffffffffffffffffffffffffff16908173ffffffffffffffffffffffffffffffffffffffff1681525050611c5f613f61565b731bfd67037b42cf73acf2047067bd4f2c47d9bfd6816020019073ffffffffffffffffffffffffffffffffffffffff16908173ffffffffffffffffffffffffffffffffffffffff168152505073c907e116054ad103354f2d350fd2514433d57f6f816040019073ffffffffffffffffffffffffffffffffffffffff16908173ffffffffffffffffffffffffffffffffffffffff1681525050611cff613f61565b737ceb23fd6bc0add59e62ac25578270cff1b9f619816020019073ffffffffffffffffffffffffffffffffffffffff16908173ffffffffffffffffffffffffffffffffffffffff168152505073f9680d99d6c9589e2a93a78a04a279e509205945816040019073ffffffffffffffffffffffffffffffffffffffff16908173ffffffffffffffffffffffffffffffffffffffff16815250508385600081518110611dac57611dab614cc5565b5b60200260200101819052508285600181518110611dcc57611dcb614cc5565b5b60200260200101819052508185600281518110611dec57611deb614cc5565b5b60200260200101819052508085600381518110611e0c57611e0b614cc5565b5b60200260200101819052506000805b86518160ff1610156120e5576000878260ff1681518110611e3f57611e3e614cc5565b5b60200260200101516020015190508073ffffffffffffffffffffffffffffffffffffffff166370a08231306040518263ffffffff1660e01b8152600401611e869190614013565b602060405180830381865afa158015611ea3573d6000803e3d6000fd5b505050506040513d601f19601f82011682018060405250810190611ec79190614965565b888360ff1681518110611edd57611edc614cc5565b5b60200260200101516080018181525050611f17888360ff1681518110611f0657611f05614cc5565b5b602002602001015160400151610e3d565b888360ff1681518110611f2d57611f2c614cc5565b5b602002602001015160e00181815250508073ffffffffffffffffffffffffffffffffffffffff1663313ce5676040518163ffffffff1660e01b8152600401602060405180830381865afa158015611f88573d6000803e3d6000fd5b505050506040513d601f19601f82011682018060405250810190611fac9190614efc565b60ff16888360ff1681518110611fc557611fc4614cc5565b5b602002602001015160600181815250506000888360ff1681518110611fed57611fec614cc5565b5b60200260200101516060015160126120059190614b19565b90506305f5e10081600a6120199190614e85565b8a8560ff168151811061202f5761202e614cc5565b5b602002602001015160e001518b8660ff168151811061205157612050614cc5565b5b60200260200101516080015161206791906149c1565b61207191906149c1565b61207b9190614a32565b898460ff168151811061209157612090614cc5565b5b602002602001015160a0018181525050888360ff16815181106120b7576120b6614cc5565b5b602002602001015160a00151846120ce9190614ae5565b9350505080806120dd90614d29565b915050611e1b565b5060005b86518160ff161015612167578651826121029190614a32565b878260ff168151811061211857612117614cc5565b5b602002602001015160a0015161212e9190614f29565b878260ff168151811061214457612143614cc5565b5b602002602001015160c0018181525050808061215f90614d29565b9150506120e9565b5060008060008060018a5161217c9190614b19565b67ffffffffffffffff81111561219557612194614565565b5b6040519080825280602002602001820160405280156121c35781602001602082028036833780820191505090505b509050600060018b516121d69190614b19565b60026121e291906149c1565b67ffffffffffffffff8111156121fb576121fa614565565b5b6040519080825280602002602001820160405280156122295781602001602082028036833780820191505090505b50905060005b60018c5161223d9190614b19565b8160ff16101561282d5760005b8c518160ff1610156122e85760008d8260ff168151811061226e5761226d614cc5565b5b602002602001015160c00151141580156122a85750868d8260ff168151811061229a57612299614cc5565b5b602002602001015160c00151135b156122d5578095508c8160ff16815181106122c6576122c5614cc5565b5b602002602001015160c0015196505b80806122e090614d29565b91505061224a565b507f7fffffffffffffffffffffffffffffffffffffffffffffffffffffffffffffff955060005b8c518160ff1610156123ad5760008d8260ff168151811061233357612332614cc5565b5b602002602001015160c001511415801561236d5750868d8260ff168151811061235f5761235e614cc5565b5b602002602001015160c00151125b1561239a578094508c8160ff168151811061238b5761238a614cc5565b5b602002602001015160c0015196505b80806123a590614d29565b91505061230f565b506123d88c8560ff16815181106123c7576123c6614cc5565b5b602002602001015160c00151613f35565b8c8660ff16815181106123ee576123ed614cc5565b5b602002602001015160c00151131561258b5761242a8c8560ff168151811061241957612418614cc5565b5b602002602001015160c00151613f35565b838260ff16815181106124405761243f614cc5565b5b602002602001018181525050828160ff168151811061246257612461614cc5565b5b60200260200101518c8660ff16815181106124805761247f614cc5565b5b602002602001015160c0018181516124989190614f29565b9150818152505060008c8560ff16815181106124b7576124b6614cc5565b5b602002602001015160c00181815250508b8560ff16815181106124dd576124dc614cc5565b5b60200260200101516060015160126124f59190614b19565b600a6125019190614e85565b8c8660ff168151811061251757612516614cc5565b5b602002602001015160e001516305f5e100858460ff168151811061253e5761253d614cc5565b5b60200260200101516125509190614f6c565b61255a9190614fe4565b6125649190614fe4565b838260ff168151811061257a57612579614cc5565b5b602002602001018181525050612712565b6125b58c8660ff16815181106125a4576125a3614cc5565b5b602002602001015160c00151613f35565b838260ff16815181106125cb576125ca614cc5565b5b602002602001018181525050828160ff16815181106125ed576125ec614cc5565b5b60200260200101518c8560ff168151811061260b5761260a614cc5565b5b602002602001015160c001818151612623919061504e565b9150818152505060008c8660ff168151811061264257612641614cc5565b5b602002602001015160c00181815250508b8560ff168151811061266857612667614cc5565b5b60200260200101516060015160126126809190614b19565b600a61268c9190614e85565b8c8660ff16815181106126a2576126a1614cc5565b5b602002602001015160e001516305f5e100858460ff16815181106126c9576126c8614cc5565b5b60200260200101516126db9190614f6c565b6126e59190614fe4565b6126ef9190614fe4565b838260ff168151811061270557612704614cc5565b5b6020026020010181815250505b8b8560ff168151811061272857612727614cc5565b5b602002602001015160200151828260026127429190614c88565b60ff168151811061275657612755614cc5565b5b602002602001019073ffffffffffffffffffffffffffffffffffffffff16908173ffffffffffffffffffffffffffffffffffffffff16815250508b8460ff16815181106127a6576127a5614cc5565b5b6020026020010151602001518260018360026127c29190614c88565b6127cc9190614cf4565b60ff16815181106127e0576127df614cc5565b5b602002602001019073ffffffffffffffffffffffffffffffffffffffff16908173ffffffffffffffffffffffffffffffffffffffff1681525050808061282590614d29565b91505061222f565b50808260405160200161284192919061520e565b6040516020818303038152906040529b5050505050505050505050509250929050565b60008060008373ffffffffffffffffffffffffffffffffffffffff1673ffffffffffffffffffffffffffffffffffffffff168152602001908152602001600020549050919050565b73f9680d99d6c9589e2a93a78a04a279e50920594581565b60008282886128d391906149c1565b6128dd9190614a32565b905060008383886128ee91906149c1565b6128f89190614a32565b9050600084848861290991906149c1565b6129139190614a32565b9050600085858861292491906149c1565b61292e9190614a32565b90506129c984600060058054806020026020016040519081016040528092919081815260200182805480156129b857602002820191906000526020600020905b8160009054906101000a900473ffffffffffffffffffffffffffffffffffffffff1673ffffffffffffffffffffffffffffffffffffffff168152602001906001019080831161296e575b50505050503064174876e7ff612e4f565b612a628360006006805480602002602001604051908101604052809291908181526020018280548015612a5157602002820191906000526020600020905b8160009054906101000a900473ffffffffffffffffffffffffffffffffffffffff1673ffffffffffffffffffffffffffffffffffffffff1681526020019060010190808311612a07575b50505050503064174876e7ff612e4f565b612afb8260006007805480602002602001604051908101604052809291908181526020018280548015612aea57602002820191906000526020600020905b8160009054906101000a900473ffffffffffffffffffffffffffffffffffffffff1673ffffffffffffffffffffffffffffffffffffffff1681526020019060010190808311612aa0575b50505050503064174876e7ff612e4f565b612b948160006008805480602002602001604051908101604052809291908181526020018280548015612b8357602002820191906000526020600020905b8160009054906101000a900473ffffffffffffffffffffffffffffffffffffffff1673ffffffffffffffffffffffffffffffffffffffff1681526020019060010190808311612b39575b50505050503064174876e7ff612e4f565b50505050505050505050565b612c45600482612bb09190614a32565b60006005805480602002602001604051908101604052809291908181526020018280548015612c3457602002820191906000526020600020905b8160009054906101000a900473ffffffffffffffffffffffffffffffffffffffff1673ffffffffffffffffffffffffffffffffffffffff1681526020019060010190808311612bea575b50505050503064174876e7ff612e4f565b612cea600482612c559190614a32565b60006006805480602002602001604051908101604052809291908181526020018280548015612cd957602002820191906000526020600020905b8160009054906101000a900473ffffffffffffffffffffffffffffffffffffffff1673ffffffffffffffffffffffffffffffffffffffff1681526020019060010190808311612c8f575b50505050503064174876e7ff612e4f565b612d8f600482612cfa9190614a32565b60006007805480602002602001604051908101604052809291908181526020018280548015612d7e57602002820191906000526020600020905b8160009054906101000a900473ffffffffffffffffffffffffffffffffffffffff1673ffffffffffffffffffffffffffffffffffffffff1681526020019060010190808311612d34575b50505050503064174876e7ff612e4f565b612e34600482612d9f9190614a32565b60006008805480602002602001604051908101604052809291908181526020018280548015612e2357602002820191906000526020600020905b8160009054906101000a900473ffffffffffffffffffffffffffffffffffffffff1673ffffffffffffffffffffffffffffffffffffffff1681526020019060010190808311612dd9575b50505050503064174876e7ff612e4f565b50565b73ab594600376ec9fd91f8e885dadf0ce036862de081565b601160009054906101000a900473ffffffffffffffffffffffffffffffffffffffff1673ffffffffffffffffffffffffffffffffffffffff166338ed173986868686866040518663ffffffff1660e01b8152600401612eb2959493929190615245565b6000604051808303816000875af1158015612ed1573d6000803e3d6000fd5b505050506040513d6000823e3d601f19601f82011682018060405250810190612efa9190615336565b505050505050565b600f5481565b606060048054612f1790614836565b80601f0160208091040260200160405190810160405280929190818152602001828054612f4390614836565b8015612f905780601f10612f6557610100808354040283529160200191612f90565b820191906000526020600020905b815481529060010190602001808311612f7357829003601f168201915b5050505050905090565b60088181548110612faa57600080fd5b906000526020600020016000915054906101000a900473ffffffffffffffffffffffffffffffffffffffff1681565b600080612fe4613724565b90506000612ff28286613647565b905083811015613037576040517f08c379a000000000000000000000000000000000000000000000000000000000815260040161302e906153f1565b60405180910390fd5b613044828686840361372c565b60019250505092915050565b600a818154811061306057600080fd5b906000526020600020016000915054906101000a900473ffffffffffffffffffffffffffffffffffffffff1681565b60008061309a613724565b90506130a7818585613981565b600191505092915050565b60008273ffffffffffffffffffffffffffffffffffffffff166370a08231306040518263ffffffff1660e01b81526004016130ed9190614013565b602060405180830381865afa15801561310a573d6000803e3d6000fd5b505050506040513d601f19601f8201168201806040525081019061312e9190614965565b905061313b83838361135f565b505050565b60008290508073ffffffffffffffffffffffffffffffffffffffff1663a9059cbb83866040518363ffffffff1660e01b8152600401613180929190614a63565b6020604051808303816000875af115801561319f573d6000803e3d6000fd5b505050506040513d601f19601f820116820180604052508101906131c39190614ab8565b5050505050565b73c907e116054ad103354f2d350fd2514433d57f6f81565b6000601060008373ffffffffffffffffffffffffffffffffffffffff1673ffffffffffffffffffffffffffffffffffffffff168152602001908152602001600020549050919050565b732791bca1f2de4661ed88a30c99a7a9449aa8417481565b731bfd67037b42cf73acf2047067bd4f2c47d9bfd681565b600d5481565b732791bca1f2de4661ed88a30c99a7a9449aa8417473ffffffffffffffffffffffffffffffffffffffff166323b872dd3330846040518463ffffffff1660e01b81526004016132b293929190615411565b6020604051808303816000875af11580156132d1573d6000803e3d6000fd5b505050506040513d601f19601f820116820180604052508101906132f59190614ab8565b50600061332c730d500b1d8e8ef31e21c99d1db9a6444d3adf127073ab594600376ec9fd91f8e885dadf0ce036862de060126119dd565b9050600061336473bbba073c31bf03b8acf7c28ef0738decf3695683733d49406edd4d52fb7ffd25485f32e073b529c92460126119dd565b9050600061339c737ceb23fd6bc0add59e62ac25578270cff1b9f61973f9680d99d6c9589e2a93a78a04a279e50920594560126119dd565b905060006133d4731bfd67037b42cf73acf2047067bd4f2c47d9bfd673c907e116054ad103354f2d350fd2514433d57f6f60086119dd565b90506000818385876133e69190614ae5565b6133f09190614ae5565b6133fa9190614ae5565b905061342f732791bca1f2de4661ed88a30c99a7a9449aa8417473a5e0829caced8ffdd4de3c43696c57f7d7a678ff8861135f565b600081111561344b5761344685858585858b6128c4565b613455565b61345486612ba0565b5b600081111561346e57613469338288611441565b613479565b6134783387610fd7565b5b505050505050565b600c818154811061349157600080fd5b906000526020600020016000915054906101000a900473ffffffffffffffffffffffffffffffffffffffff1681565b600781815481106134d057600080fd5b906000526020600020016000915054906101000a900473ffffffffffffffffffffffffffffffffffffffff1681565b733d49406edd4d52fb7ffd25485f32e073b529c92481565b6000600267ffffffffffffffff81111561353457613533614565565b5b6040519080825280602002602001820160405280156135625781602001602082028036833780820191505090505b509050828160008151811061357a57613579614cc5565b5b602002602001019073ffffffffffffffffffffffffffffffffffffffff16908173ffffffffffffffffffffffffffffffffffffffff1681525050732791bca1f2de4661ed88a30c99a7a9449aa84174816001815181106135dd576135dc614cc5565b5b602002602001019073ffffffffffffffffffffffffffffffffffffffff16908173ffffffffffffffffffffffffffffffffffffffff168152505061362a826000833064174876e7ff612e4f565b505050565b73a5e0829caced8ffdd4de3c43696c57f7d7a678ff81565b6000600160008473ffffffffffffffffffffffffffffffffffffffff1673ffffffffffffffffffffffffffffffffffffffff16815260200190815260200160002060008373ffffffffffffffffffffffffffffffffffffffff1673ffffffffffffffffffffffffffffffffffffffff16815260200190815260200160002054905092915050565b601160009054906101000a900473ffffffffffffffffffffffffffffffffffffffff1681565b730d500b1d8e8ef31e21c99d1db9a6444d3adf127081565b60106020528060005260406000206000915090505481565b600033905090565b600073ffffffffffffffffffffffffffffffffffffffff168373ffffffffffffffffffffffffffffffffffffffff160361379b576040517f08c379a0000000000000000000000000000000000000000000000000000000008152600401613792906154ba565b60405180910390fd5b600073ffffffffffffffffffffffffffffffffffffffff168273ffffffffffffffffffffffffffffffffffffffff160361380a576040517f08c379a00000000000000000000000000000000000000000000000000000000081526004016138019061554c565b60405180910390fd5b80600160008573ffffffffffffffffffffffffffffffffffffffff1673ffffffffffffffffffffffffffffffffffffffff16815260200190815260200160002060008473ffffffffffffffffffffffffffffffffffffffff1673ffffffffffffffffffffffffffffffffffffffff168152602001908152602001600020819055508173ffffffffffffffffffffffffffffffffffffffff168373ffffffffffffffffffffffffffffffffffffffff167f8c5be1e5ebec7d5bd14f71427d1e84f3dd0314c0f7b2291e5b200ac8c7c3b925836040516138e8919061423c565b60405180910390a3505050565b60006139018484613647565b90507fffffffffffffffffffffffffffffffffffffffffffffffffffffffffffffffff811461397b578181101561396d576040517f08c379a0000000000000000000000000000000000000000000000000000000008152600401613964906155b8565b60405180910390fd5b61397a848484840361372c565b5b50505050565b600073ffffffffffffffffffffffffffffffffffffffff168373ffffffffffffffffffffffffffffffffffffffff16036139f0576040517f08c379a00000000000000000000000000000000000000000000000000000000081526004016139e79061564a565b60405180910390fd5b600073ffffffffffffffffffffffffffffffffffffffff168273ffffffffffffffffffffffffffffffffffffffff1603613a5f576040517f08c379a0000000000000000000000000000000000000000000000000000000008152600401613a56906156dc565b60405180910390fd5b613a6a838383613f57565b60008060008573ffffffffffffffffffffffffffffffffffffffff1673ffffffffffffffffffffffffffffffffffffffff16815260200190815260200160002054905081811015613af0576040517f08c379a0000000000000000000000000000000000000000000000000000000008152600401613ae79061576e565b60405180910390fd5b8181036000808673ffffffffffffffffffffffffffffffffffffffff1673ffffffffffffffffffffffffffffffffffffffff16815260200190815260200160002081905550816000808573ffffffffffffffffffffffffffffffffffffffff1673ffffffffffffffffffffffffffffffffffffffff1681526020019081526020016000206000828254613b839190614ae5565b925050819055508273ffffffffffffffffffffffffffffffffffffffff168473ffffffffffffffffffffffffffffffffffffffff167fddf252ad1be2c89b69c2b068fc378daa952ba7f163c4a11628f55a4df523b3ef84604051613be7919061423c565b60405180910390a3613bfa848484613f5c565b50505050565b600073ffffffffffffffffffffffffffffffffffffffff168273ffffffffffffffffffffffffffffffffffffffff1603613c6f576040517f08c379a0000000000000000000000000000000000000000000000000000000008152600401613c66906157da565b60405180910390fd5b613c7b60008383613f57565b8060026000828254613c8d9190614ae5565b92505081905550806000808473ffffffffffffffffffffffffffffffffffffffff1673ffffffffffffffffffffffffffffffffffffffff1681526020019081526020016000206000828254613ce29190614ae5565b925050819055508173ffffffffffffffffffffffffffffffffffffffff16600073ffffffffffffffffffffffffffffffffffffffff167fddf252ad1be2c89b69c2b068fc378daa952ba7f163c4a11628f55a4df523b3ef83604051613d47919061423c565b60405180910390a3613d5b60008383613f5c565b5050565b600073ffffffffffffffffffffffffffffffffffffffff168273ffffffffffffffffffffffffffffffffffffffff1603613dce576040517f08c379a0000000000000000000000000000000000000000000000000000000008152600401613dc59061586c565b60405180910390fd5b613dda82600083613f57565b60008060008473ffffffffffffffffffffffffffffffffffffffff1673ffffffffffffffffffffffffffffffffffffffff16815260200190815260200160002054905081811015613e60576040517f08c379a0000000000000000000000000000000000000000000000000000000008152600401613e57906158fe565b60405180910390fd5b8181036000808573ffffffffffffffffffffffffffffffffffffffff1673ffffffffffffffffffffffffffffffffffffffff168152602001908152602001600020819055508160026000828254613eb79190614b19565b92505081905550600073ffffffffffffffffffffffffffffffffffffffff168373ffffffffffffffffffffffffffffffffffffffff167fddf252ad1be2c89b69c2b068fc378daa952ba7f163c4a11628f55a4df523b3ef84604051613f1c919061423c565b60405180910390a3613f3083600084613f5c565b505050565b600080821215613f4e5781613f499061591e565b613f50565b815b9050919050565b505050565b505050565b60405180610100016040528060608152602001600073ffffffffffffffffffffffffffffffffffffffff168152602001600073ffffffffffffffffffffffffffffffffffffffff16815260200160008152602001600081526020016000815260200160008152602001600081525090565b600073ffffffffffffffffffffffffffffffffffffffff82169050919050565b6000613ffd82613fd2565b9050919050565b61400d81613ff2565b82525050565b60006020820190506140286000830184614004565b92915050565b600081519050919050565b600082825260208201905092915050565b60005b8381101561406857808201518184015260208101905061404d565b60008484015250505050565b6000601f19601f8301169050919050565b60006140908261402e565b61409a8185614039565b93506140aa81856020860161404a565b6140b381614074565b840191505092915050565b600060208201905081810360008301526140d88184614085565b905092915050565b6000604051905090565b600080fd5b600080fd5b6140fd81613ff2565b811461410857600080fd5b50565b60008135905061411a816140f4565b92915050565b6000819050919050565b61413381614120565b811461413e57600080fd5b50565b6000813590506141508161412a565b92915050565b6000806040838503121561416d5761416c6140ea565b5b600061417b8582860161410b565b925050602061418c85828601614141565b9150509250929050565b60008115159050919050565b6141ab81614196565b82525050565b60006020820190506141c660008301846141a2565b92915050565b6000602082840312156141e2576141e16140ea565b5b60006141f08482850161410b565b91505092915050565b6000819050919050565b61420c816141f9565b82525050565b60006020820190506142276000830184614203565b92915050565b61423681614120565b82525050565b6000602082019050614251600083018461422d565b92915050565b6000806040838503121561426e5761426d6140ea565b5b600061427c8582860161410b565b925050602061428d8582860161410b565b9150509250929050565b6000602082840312156142ad576142ac6140ea565b5b60006142bb84828501614141565b91505092915050565b6000806000606084860312156142dd576142dc6140ea565b5b60006142eb8682870161410b565b93505060206142fc8682870161410b565b925050604061430d86828701614141565b9150509250925092565b600060ff82169050919050565b61432d81614317565b82525050565b60006020820190506143486000830184614324565b92915050565b600080600060608486031215614367576143666140ea565b5b60006143758682870161410b565b935050602061438686828701614141565b925050604061439786828701614141565b9150509250925092565b600080fd5b600080fd5b600080fd5b60008083601f8401126143c6576143c56143a1565b5b8235905067ffffffffffffffff8111156143e3576143e26143a6565b5b6020830191508360018202830111156143ff576143fe6143ab565b5b9250929050565b6000806020838503121561441d5761441c6140ea565b5b600083013567ffffffffffffffff81111561443b5761443a6140ef565b5b614447858286016143b0565b92509250509250929050565b600081519050919050565b600082825260208201905092915050565b600061447a82614453565b614484818561445e565b935061449481856020860161404a565b61449d81614074565b840191505092915050565b60006040820190506144bd60008301856141a2565b81810360208301526144cf818461446f565b90509392505050565b60008060008060008060c087890312156144f5576144f46140ea565b5b600061450389828a01614141565b965050602061451489828a01614141565b955050604061452589828a01614141565b945050606061453689828a01614141565b935050608061454789828a01614141565b92505060a061455889828a01614141565b9150509295509295509295565b7f4e487b7100000000000000000000000000000000000000000000000000000000600052604160045260246000fd5b61459d82614074565b810181811067ffffffffffffffff821117156145bc576145bb614565565b5b80604052505050565b60006145cf6140e0565b90506145db8282614594565b919050565b600067ffffffffffffffff8211156145fb576145fa614565565b5b602082029050602081019050919050565b600061461f61461a846145e0565b6145c5565b90508083825260208201905060208402830185811115614642576146416143ab565b5b835b8181101561466b5780614657888261410b565b845260208401935050602081019050614644565b5050509392505050565b600082601f83011261468a576146896143a1565b5b813561469a84826020860161460c565b91505092915050565b600080600080600060a086880312156146bf576146be6140ea565b5b60006146cd88828901614141565b95505060206146de88828901614141565b945050604086013567ffffffffffffffff8111156146ff576146fe6140ef565b5b61470b88828901614675565b935050606061471c8882890161410b565b925050608061472d88828901614141565b9150509295509295909350565b600080600060608486031215614753576147526140ea565b5b600061476186828701614141565b93505060206147728682870161410b565b92505060406147838682870161410b565b9150509250925092565b6000819050919050565b60006147b26147ad6147a884613fd2565b61478d565b613fd2565b9050919050565b60006147c482614797565b9050919050565b60006147d6826147b9565b9050919050565b6147e6816147cb565b82525050565b600060208201905061480160008301846147dd565b92915050565b7f4e487b7100000000000000000000000000000000000000000000000000000000600052602260045260246000fd5b6000600282049050600182168061484e57607f821691505b60208210810361486157614860614807565b5b50919050565b600069ffffffffffffffffffff82169050919050565b61488681614867565b811461489157600080fd5b50565b6000815190506148a38161487d565b92915050565b6148b2816141f9565b81146148bd57600080fd5b50565b6000815190506148cf816148a9565b92915050565b6000815190506148e48161412a565b92915050565b600080600080600060a08688031215614906576149056140ea565b5b600061491488828901614894565b9550506020614925888289016148c0565b9450506040614936888289016148d5565b9350506060614947888289016148d5565b925050608061495888828901614894565b9150509295509295909350565b60006020828403121561497b5761497a6140ea565b5b6000614989848285016148d5565b91505092915050565b7f4e487b7100000000000000000000000000000000000000000000000000000000600052601160045260246000fd5b60006149cc82614120565b91506149d783614120565b92508282026149e581614120565b915082820484148315176149fc576149fb614992565b5b5092915050565b7f4e487b7100000000000000000000000000000000000000000000000000000000600052601260045260246000fd5b6000614a3d82614120565b9150614a4883614120565b925082614a5857614a57614a03565b5b828204905092915050565b6000604082019050614a786000830185614004565b614a85602083018461422d565b9392505050565b614a9581614196565b8114614aa057600080fd5b50565b600081519050614ab281614a8c565b92915050565b600060208284031215614ace57614acd6140ea565b5b6000614adc84828501614aa3565b91505092915050565b6000614af082614120565b9150614afb83614120565b9250828201905080821115614b1357614b12614992565b5b92915050565b6000614b2482614120565b9150614b2f83614120565b9250828203905081811115614b4757614b46614992565b5b92915050565b600067ffffffffffffffff821115614b6857614b67614565565b5b602082029050602081019050919050565b6000614b8c614b8784614b4d565b6145c5565b90508083825260208201905060208402830185811115614baf57614bae6143ab565b5b835b81811015614bd85780614bc48882614141565b845260208401935050602081019050614bb1565b5050509392505050565b600082601f830112614bf757614bf66143a1565b5b8135614c07848260208601614b79565b91505092915050565b60008060408385031215614c2757614c266140ea565b5b600083013567ffffffffffffffff811115614c4557614c446140ef565b5b614c5185828601614675565b925050602083013567ffffffffffffffff811115614c7257614c716140ef565b5b614c7e85828601614be2565b9150509250929050565b6000614c9382614317565b9150614c9e83614317565b9250828202614cac81614317565b9150808214614cbe57614cbd614992565b5b5092915050565b7f4e487b7100000000000000000000000000000000000000000000000000000000600052603260045260246000fd5b6000614cff82614317565b9150614d0a83614317565b9250828201905060ff811115614d2357614d22614992565b5b92915050565b6000614d3482614317565b915060ff8203614d4757614d46614992565b5b600182019050919050565b60008160011c9050919050565b6000808291508390505b6001851115614da957808604811115614d8557614d84614992565b5b6001851615614d945780820291505b8081029050614da285614d52565b9450614d69565b94509492505050565b600082614dc25760019050614e7e565b81614dd05760009050614e7e565b8160018114614de65760028114614df057614e1f565b6001915050614e7e565b60ff841115614e0257614e01614992565b5b8360020a915084821115614e1957614e18614992565b5b50614e7e565b5060208310610133831016604e8410600b8410161715614e545782820a905083811115614e4f57614e4e614992565b5b614e7e565b614e618484846001614d5f565b92509050818404811115614e7857614e77614992565b5b81810290505b9392505050565b6000614e9082614120565b9150614e9b83614120565b9250614ec87fffffffffffffffffffffffffffffffffffffffffffffffffffffffffffffffff8484614db2565b905092915050565b614ed981614317565b8114614ee457600080fd5b50565b600081519050614ef681614ed0565b92915050565b600060208284031215614f1257614f116140ea565b5b6000614f2084828501614ee7565b91505092915050565b6000614f34826141f9565b9150614f3f836141f9565b9250828203905081811260008412168282136000851215161715614f6657614f65614992565b5b92915050565b6000614f77826141f9565b9150614f82836141f9565b9250828202614f90816141f9565b91507f80000000000000000000000000000000000000000000000000000000000000008414600084121615614fc857614fc7614992565b5b8282058414831517614fdd57614fdc614992565b5b5092915050565b6000614fef826141f9565b9150614ffa836141f9565b92508261500a57615009614a03565b5b600160000383147f80000000000000000000000000000000000000000000000000000000000000008314161561504357615042614992565b5b828205905092915050565b6000615059826141f9565b9150615064836141f9565b92508282019050828112156000831216838212600084121516171561508c5761508b614992565b5b92915050565b600081519050919050565b600082825260208201905092915050565b6000819050602082019050919050565b6150c781613ff2565b82525050565b60006150d983836150be565b60208301905092915050565b6000602082019050919050565b60006150fd82615092565b615107818561509d565b9350615112836150ae565b8060005b8381101561514357815161512a88826150cd565b9750615135836150e5565b925050600181019050615116565b5085935050505092915050565b600081519050919050565b600082825260208201905092915050565b6000819050602082019050919050565b615185816141f9565b82525050565b6000615197838361517c565b60208301905092915050565b6000602082019050919050565b60006151bb82615150565b6151c5818561515b565b93506151d08361516c565b8060005b838110156152015781516151e8888261518b565b97506151f3836151a3565b9250506001810190506151d4565b5085935050505092915050565b6000604082019050818103600083015261522881856150f2565b9050818103602083015261523c81846151b0565b90509392505050565b600060a08201905061525a600083018861422d565b615267602083018761422d565b818103604083015261527981866150f2565b90506152886060830185614004565b615295608083018461422d565b9695505050505050565b60006152b26152ad84614b4d565b6145c5565b905080838252602082019050602084028301858111156152d5576152d46143ab565b5b835b818110156152fe57806152ea88826148d5565b8452602084019350506020810190506152d7565b5050509392505050565b600082601f83011261531d5761531c6143a1565b5b815161532d84826020860161529f565b91505092915050565b60006020828403121561534c5761534b6140ea565b5b600082015167ffffffffffffffff81111561536a576153696140ef565b5b61537684828501615308565b91505092915050565b7f45524332303a2064656372656173656420616c6c6f77616e63652062656c6f7760008201527f207a65726f000000000000000000000000000000000000000000000000000000602082015250565b60006153db602583614039565b91506153e68261537f565b604082019050919050565b6000602082019050818103600083015261540a816153ce565b9050919050565b60006060820190506154266000830186614004565b6154336020830185614004565b615440604083018461422d565b949350505050565b7f45524332303a20617070726f76652066726f6d20746865207a65726f2061646460008201527f7265737300000000000000000000000000000000000000000000000000000000602082015250565b60006154a4602483614039565b91506154af82615448565b604082019050919050565b600060208201905081810360008301526154d381615497565b9050919050565b7f45524332303a20617070726f766520746f20746865207a65726f20616464726560008201527f7373000000000000000000000000000000000000000000000000000000000000602082015250565b6000615536602283614039565b9150615541826154da565b604082019050919050565b6000602082019050818103600083015261556581615529565b9050919050565b7f45524332303a20696e73756666696369656e7420616c6c6f77616e6365000000600082015250565b60006155a2601d83614039565b91506155ad8261556c565b602082019050919050565b600060208201905081810360008301526155d181615595565b9050919050565b7f45524332303a207472616e736665722066726f6d20746865207a65726f20616460008201527f6472657373000000000000000000000000000000000000000000000000000000602082015250565b6000615634602583614039565b915061563f826155d8565b604082019050919050565b6000602082019050818103600083015261566381615627565b9050919050565b7f45524332303a207472616e7366657220746f20746865207a65726f206164647260008201527f6573730000000000000000000000000000000000000000000000000000000000602082015250565b60006156c6602383614039565b91506156d18261566a565b604082019050919050565b600060208201905081810360008301526156f5816156b9565b9050919050565b7f45524332303a207472616e7366657220616d6f756e742065786365656473206260008201527f616c616e63650000000000000000000000000000000000000000000000000000602082015250565b6000615758602683614039565b9150615763826156fc565b604082019050919050565b600060208201905081810360008301526157878161574b565b9050919050565b7f45524332303a206d696e7420746f20746865207a65726f206164647265737300600082015250565b60006157c4601f83614039565b91506157cf8261578e565b602082019050919050565b600060208201905081810360008301526157f3816157b7565b9050919050565b7f45524332303a206275726e2066726f6d20746865207a65726f2061646472657360008201527f7300000000000000000000000000000000000000000000000000000000000000602082015250565b6000615856602183614039565b9150615861826157fa565b604082019050919050565b6000602082019050818103600083015261588581615849565b9050919050565b7f45524332303a206275726e20616d6f756e7420657863656564732062616c616e60008201527f6365000000000000000000000000000000000000000000000000000000000000602082015250565b60006158e8602283614039565b91506158f38261588c565b604082019050919050565b60006020820190508181036000830152615917816158db565b9050919050565b6000615929826141f9565b91507f8000000000000000000000000000000000000000000000000000000000000000820361595b5761595a614992565b5b81600003905091905056fea2646970667358221220522e9552726e1327bae579d0c638504c3ac5d2c00d7b9e538f2c444e0a2f14eb64736f6c63430008110033",
  "immutableReferences": {},
  "source": "pragma solidity ^0.8.0;\npragma experimental ABIEncoderV2;\n//import statements go here\nimport \"./interfaces/IUniswapV2Router02.sol\";\nimport \"./interfaces/IUniswapV2Router01.sol\";\nimport \"@openzeppelin/contracts/token/ERC20/ERC20.sol\";\nimport \"@chainlink/contracts/src/v0.8/interfaces/AggregatorV3Interface.sol\";\n// KeeperCompatible.sol imports the functions from both ./KeeperBase.sol and\n// ./interfaces/KeeperCompatibleInterface.sol\nimport \"@chainlink/contracts/src/v0.8/KeeperCompatible.sol\";\n\ncontract autoBalancer is ERC20, KeeperCompatibleInterface {\n    address public constant USDC_ADDRESS =\n        0x2791Bca1f2de4661ED88A30C99A7a9449Aa84174;\n\n    address public constant WMATIC_ADDRESS =\n        0x0d500B1d8E8eF31E21C99d1Db9A6444d3ADf1270;\n    address public constant SAND_ADDRESS =\n        0xBbba073C31bF03b8ACf7c28EF0738DeCF3695683;\n    address public constant WETH_ADDRESS =\n        0x7ceB23fD6bC0adD59E62ac25578270cFf1b9f619;\n    address public constant WBTC_ADDRESS =\n        0x1BFD67037B42Cf73acF2047067bd4F2C47D9BfD6;\n\n    address public constant MATIC_USD_ORACLE =\n        0xAB594600376Ec9fD91F8e885dADF0CE036862dE0;\n    address public constant BTC_USD_ORACLE =\n        0xc907E116054Ad103354f2D350FD2514433D57F6f;\n    address public constant ETH_USD_ORACLE =\n        0xF9680D99D6C9589e2a93a78A04A279e509205945;\n    address public constant SAND_USD_ORACLE =\n        0x3D49406EDd4D52Fb7FFd25485f32E073b529C924;\n\n    address[] public USDCToWMATICPath = [USDC_ADDRESS, WMATIC_ADDRESS];\n    address[] public USDCToSANDPath = [USDC_ADDRESS, SAND_ADDRESS];\n    address[] public USDCToWETHPath = [USDC_ADDRESS, WETH_ADDRESS];\n    address[] public USDCToWBTCPath = [USDC_ADDRESS, WBTC_ADDRESS];\n\n    address[] public WMATICToUSDCPath = [WMATIC_ADDRESS, USDC_ADDRESS];\n    address[] public SANDToUSDCPath = [SAND_ADDRESS, USDC_ADDRESS];\n    address[] public WETHToUSDCPath = [WETH_ADDRESS, USDC_ADDRESS];\n    address[] public WBTCToUSDCPath = [WBTC_ADDRESS, USDC_ADDRESS];\n\n    address public constant QUICKSWAP_ROUTER =\n        0xa5E0829CaCEd8fFDD4De3c43696c57F7D7A678ff;\n\n    uint256 public totalNumberOfShares;\n\n    uint256 public lastTimeStamp;\n    uint256 public interval = 3600;\n\n    mapping(address => uint256) public userNumberOfShares;\n\n    IUniswapV2Router02 public quickSwapRouter =\n        IUniswapV2Router02(QUICKSWAP_ROUTER);\n\n    struct Coin {\n        string symbol;\n        address tokenAddress;\n        address oracleAddress;\n        uint256 decimals;\n        uint256 balance;\n        uint256 usd_balance;\n        int256 diff_from_average;\n        uint256 usd_exchange_rate;\n    }\n\n    constructor() ERC20(\"autoBalancer\", \"ABA\") {}\n\n    function setInterval(uint256 new_interval) public {\n        interval = new_interval;\n    }\n\n    /**\n     * Returns the latest price\n     */\n    function getLatestPrice(address _oracle_address)\n        public\n        view\n        returns (int256)\n    {\n        (\n            uint80 roundID,\n            int256 price,\n            uint256 startedAt,\n            uint256 timeStamp,\n            uint80 answeredInRound\n        ) = AggregatorV3Interface(_oracle_address).latestRoundData();\n        return price;\n    }\n\n    function checkUpkeep(\n        bytes calldata /* checkData */\n    )\n        external\n        view\n        override\n        returns (bool upkeepNeeded, bytes memory performData)\n    {\n        upkeepNeeded = (block.timestamp - lastTimeStamp) > interval;\n        //we create the coin array and coin objects\n        Coin[] memory array_coins = new Coin[](4);\n\n        Coin memory wmatic;\n        wmatic.tokenAddress = WMATIC_ADDRESS;\n        wmatic.oracleAddress = MATIC_USD_ORACLE;\n        Coin memory sand;\n        sand.tokenAddress = SAND_ADDRESS;\n        sand.oracleAddress = SAND_USD_ORACLE;\n        Coin memory wbtc;\n        wbtc.tokenAddress = WBTC_ADDRESS;\n        wbtc.oracleAddress = BTC_USD_ORACLE;\n        Coin memory weth;\n        weth.tokenAddress = WETH_ADDRESS;\n        weth.oracleAddress = ETH_USD_ORACLE;\n\n        array_coins[0] = wmatic;\n        array_coins[1] = sand;\n        array_coins[2] = wbtc;\n        array_coins[3] = weth;\n\n        uint256 total_in_usd = 0;\n\n        for (uint8 i = 0; i < array_coins.length; i++) {\n            ERC20 coin_instance = ERC20(array_coins[i].tokenAddress);\n            array_coins[i].balance = coin_instance.balanceOf(address(this));\n            array_coins[i].usd_exchange_rate = uint256(\n                getLatestPrice(array_coins[i].oracleAddress)\n            );\n            array_coins[i].decimals = uint256(coin_instance.decimals());\n            uint256 decimal_conversion = 18 - array_coins[i].decimals;\n            array_coins[i].usd_balance =\n                (uint256(\n                    array_coins[i].balance * array_coins[i].usd_exchange_rate\n                ) * (10**decimal_conversion)) /\n                (10**8);\n            total_in_usd += array_coins[i].usd_balance;\n        }\n\n        for (uint8 i = 0; i < array_coins.length; i++) {\n            array_coins[i].diff_from_average =\n                int256(array_coins[i].usd_balance) -\n                int256(total_in_usd / (array_coins.length));\n        }\n\n        int256 comparison_variable; // default 0, the lowest value of `uint256`\n        uint8 maxCoin_index;\n        uint8 minCoin_index;\n        int256[] memory amounts = new int256[](array_coins.length - 1);\n        address[] memory paths = new address[](2 * (array_coins.length - 1)); //this will take all n-1 paths eventually\n\n        for (uint8 j = 0; j < array_coins.length - 1; j++) {\n            // Coin memory max_coin = find_max(array_coins);\n            for (uint8 i = 0; i < array_coins.length; i++) {\n                if (\n                    array_coins[i].diff_from_average != 0 &&\n                    array_coins[i].diff_from_average > comparison_variable\n                ) {\n                    maxCoin_index = i;\n                    comparison_variable = array_coins[i].diff_from_average;\n                }\n            }\n            // Coin memory min_coin = find_min(array_coins);\n            comparison_variable = type(int256).max; // the highest value of int256\n            for (uint8 i = 0; i < array_coins.length; i++) {\n                if (\n                    array_coins[i].diff_from_average != 0 &&\n                    array_coins[i].diff_from_average < comparison_variable\n                ) {\n                    minCoin_index = i;\n                    comparison_variable = array_coins[i].diff_from_average;\n                }\n            }\n            // we calculate the amount to be swapped, depending on which coin is further from average\n            if (\n                array_coins[maxCoin_index].diff_from_average >\n                abs(array_coins[minCoin_index].diff_from_average) //maxCoin is further from average than minCoin\n            ) {\n                // so the amount we swap is minCoin's diff_from_average\n                amounts[j] = abs(array_coins[minCoin_index].diff_from_average);\n                // so we decrease maxCoin's average by that amount\n                array_coins[maxCoin_index].diff_from_average -= amounts[j];\n                // and set minCoin's diff to zero, so that it will be excluded from future loops\n                array_coins[minCoin_index].diff_from_average = 0;\n                // then we convert amounts[j] from usd to maxCoin currency (because we're always swapping from maxCoin)\n                amounts[j] =\n                    (amounts[j] * int256(10**8)) /\n                    int256(array_coins[maxCoin_index].usd_exchange_rate) /\n                    int256(\n                        10**(18 - uint256(array_coins[maxCoin_index].decimals))\n                    );\n            } else {\n                amounts[j] = abs(array_coins[maxCoin_index].diff_from_average);\n                array_coins[minCoin_index].diff_from_average += amounts[j];\n                array_coins[maxCoin_index].diff_from_average = 0;\n\n                amounts[j] =\n                    (amounts[j] * int256(10**8)) /\n                    int256(array_coins[maxCoin_index].usd_exchange_rate) /\n                    int256(\n                        10**(18 - uint256(array_coins[maxCoin_index].decimals))\n                    );\n            }\n\n            //we determine the paths that the swap will take (beginning and end)\n            paths[2 * j] = array_coins[maxCoin_index].tokenAddress;\n            paths[2 * j + 1] = array_coins[minCoin_index].tokenAddress;\n        }\n\n        performData = abi.encode(paths, amounts);\n        // We don't use the checkData in this example. The checkData is defined when the Upkeep was registered.\n        return (upkeepNeeded, performData);\n    }\n\n    function performUpkeep(bytes calldata performData) external override {\n        //We highly recommend revalidating the upkeep in the performUpkeep function\n        if ((block.timestamp - lastTimeStamp) > interval) {\n            lastTimeStamp = block.timestamp;\n            address[] memory paths;\n            uint256[] memory amounts;\n            address[] memory path_short = new address[](2);\n            address[] memory path_long = new address[](3);\n\n            (paths, amounts) = abi.decode(performData, (address[], uint256[]));\n            for (uint8 i = 0; i < amounts.length; i++) {\n                approve_spending(paths[2 * i], QUICKSWAP_ROUTER, amounts[i]);\n                if (\n                    paths[2 * i] == WMATIC_ADDRESS ||\n                    paths[2 * i + 1] == WMATIC_ADDRESS\n                ) {\n                    path_short[0] = paths[2 * i];\n                    path_short[1] = paths[2 * i + 1];\n                    swap(\n                        amounts[i],\n                        uint256(0),\n                        path_short,\n                        address(this),\n                        99999999999\n                    );\n                } else {\n                    path_long[0] = paths[2 * i];\n                    path_long[1] = WMATIC_ADDRESS;\n                    path_long[2] = paths[2 * i + 1];\n                    swap(\n                        amounts[i],\n                        uint256(0),\n                        path_long,\n                        address(this),\n                        99999999999\n                    );\n                }\n            }\n        }\n        // The performData is generated by the Keeper's call to your checkUpkeep function\n    }\n\n    function find_max(Coin[] memory coin_array)\n        internal\n        pure\n        returns (Coin memory maxCoin)\n    {\n        require(coin_array.length > 0); // throw an exception if the condition is not met\n        int256 maxDiff; // default 0, the lowest value of `uint256`\n\n        for (uint256 i = 0; i < coin_array.length; i++) {\n            if (coin_array[i].diff_from_average > maxDiff) {\n                maxCoin = coin_array[i];\n            }\n        }\n        return maxCoin;\n    }\n\n    function find_min(Coin[] memory coin_array)\n        internal\n        pure\n        returns (Coin memory minCoin)\n    {\n        require(coin_array.length > 0); // throw an exception if the condition is not met\n        int256 minDiff = type(int256).max; // default 0, the lowest value of `uint256`\n\n        for (uint256 i = 0; i < coin_array.length; i++) {\n            if (coin_array[i].diff_from_average < minDiff) {\n                minCoin = coin_array[i];\n            }\n        }\n        return minCoin;\n    }\n\n    function abs(int256 x) private pure returns (int256) {\n        return x >= 0 ? x : -x;\n    }\n\n    function updateSharesOnWithdrawal(address user) public {\n        //make this ownable - only contract itself can update this?\n        _burn(user, balanceOf(user));\n    }\n\n    function getUserShares(address user)\n        public\n        view\n        returns (uint256 userShares)\n    {\n        return userNumberOfShares[user];\n    }\n\n    function approve_spending(\n        address token_address,\n        address spender_address,\n        uint256 amount_to_approve\n    ) public {\n        ERC20(token_address).approve(spender_address, amount_to_approve);\n    }\n\n    receive() external payable {}\n\n    function depositUserFunds(uint256 amount_) public {\n        ERC20(USDC_ADDRESS).transferFrom(msg.sender, address(this), amount_);\n\n        uint256 WMATIC_balanceInUSD = getUSDTokenBalanceOf(\n            WMATIC_ADDRESS,\n            MATIC_USD_ORACLE,\n            18\n        );\n        uint256 SAND_balanceInUSD = getUSDTokenBalanceOf(\n            SAND_ADDRESS,\n            SAND_USD_ORACLE,\n            18\n        );\n        uint256 WETH_balanceInUSD = getUSDTokenBalanceOf(\n            WETH_ADDRESS,\n            ETH_USD_ORACLE,\n            18\n        );\n        uint256 WBTC_balanceInUSD = getUSDTokenBalanceOf(\n            WBTC_ADDRESS,\n            BTC_USD_ORACLE,\n            8\n        );\n\n        uint256 Total_in_USD = WMATIC_balanceInUSD +\n            SAND_balanceInUSD +\n            WETH_balanceInUSD +\n            WBTC_balanceInUSD;\n\n        approve_spending(USDC_ADDRESS, QUICKSWAP_ROUTER, amount_);\n\n        if (Total_in_USD > 0) {\n            swapProportionately(\n                WMATIC_balanceInUSD,\n                SAND_balanceInUSD,\n                WETH_balanceInUSD,\n                WBTC_balanceInUSD,\n                Total_in_USD,\n                amount_\n            );\n        } else {\n            swapIntoFourEqualParts(amount_);\n        }\n\n        if (Total_in_USD > 0) {\n            updateSharesOnDeposit(msg.sender, Total_in_USD, amount_);\n        } else {\n            setSharesFirstTime(msg.sender, amount_);\n        }\n    }\n\n    function getUSDTokenBalanceOf(\n        address token_address,\n        address oracle_address,\n        uint256 token_decimals\n    ) public view returns (uint256) {\n        // uint256 token_decimals = ERC20(token_address).decimals();\n        return\n            (tokenBalanceOf(token_address, address(this)) *\n                (uint256(getLatestPrice(oracle_address)))) /\n            (10**(token_decimals + 2));\n    }\n\n    function swapProportionately(\n        uint256 WMATIC_amount,\n        uint256 SAND_amount,\n        uint256 WETH_amount,\n        uint256 WBTC_amount,\n        uint256 totalUSDAmount,\n        uint256 depositAmount\n    ) public {\n        uint256 WMATIC_share = (WMATIC_amount * (depositAmount)) /\n            (totalUSDAmount);\n        uint256 SAND_share = (SAND_amount * (depositAmount)) / (totalUSDAmount);\n        uint256 WETH_share = (WETH_amount * (depositAmount)) / (totalUSDAmount);\n        uint256 WBTC_share = (WBTC_amount * (depositAmount)) / (totalUSDAmount);\n\n        swap(\n            WMATIC_share,\n            uint256(0),\n            USDCToWMATICPath,\n            address(this),\n            99999999999\n        );\n        swap(\n            SAND_share,\n            uint256(0),\n            USDCToSANDPath,\n            address(this),\n            99999999999\n        );\n        swap(\n            WETH_share,\n            uint256(0),\n            USDCToWETHPath,\n            address(this),\n            99999999999\n        );\n        swap(\n            WBTC_share,\n            uint256(0),\n            USDCToWBTCPath,\n            address(this),\n            99999999999\n        );\n    }\n\n    function swapIntoFourEqualParts(uint256 amount) public {\n        swap(\n            amount / 4,\n            uint256(0),\n            USDCToWMATICPath,\n            address(this),\n            99999999999\n        );\n        swap(\n            amount / 4,\n            uint256(0),\n            USDCToSANDPath,\n            address(this),\n            99999999999\n        );\n        swap(\n            amount / 4,\n            uint256(0),\n            USDCToWETHPath,\n            address(this),\n            99999999999\n        );\n        swap(\n            amount / 4,\n            uint256(0),\n            USDCToWBTCPath,\n            address(this),\n            99999999999\n        );\n    }\n\n    function setSharesFirstTime(address user, uint256 deposit_amount) public {\n        _mint(user, deposit_amount);\n    }\n\n    function updateSharesOnDeposit(\n        address user,\n        uint256 total_in_USD,\n        uint256 deposit_amount\n    ) public {\n        //make this ownable - only contract itself can update this?\n        uint256 newSharesForUser = (deposit_amount * (totalSupply())) /\n            (total_in_USD);\n        _mint(user, newSharesForUser);\n    }\n\n    function withdrawUserFunds(address user) public {\n        //do I need an approval here?\n\n        uint256 WMATIC_amount = (userNumberOfShares[user] *\n            (tokenBalanceOf(WMATIC_ADDRESS, address(this)))) /\n            (totalNumberOfShares);\n        uint256 SAND_amount = (userNumberOfShares[user] *\n            (tokenBalanceOf(SAND_ADDRESS, address(this)))) /\n            (totalNumberOfShares);\n        uint256 WETH_amount = (userNumberOfShares[user] *\n            (tokenBalanceOf(WETH_ADDRESS, address(this)))) /\n            (totalNumberOfShares);\n        uint256 WBTC_amount = (userNumberOfShares[user] *\n            (tokenBalanceOf(WBTC_ADDRESS, address(this)))) /\n            (totalNumberOfShares);\n\n        approve_spending(WMATIC_ADDRESS, QUICKSWAP_ROUTER, WMATIC_amount);\n        approve_spending(SAND_ADDRESS, QUICKSWAP_ROUTER, SAND_amount);\n        approve_spending(WETH_ADDRESS, QUICKSWAP_ROUTER, WETH_amount);\n        approve_spending(WBTC_ADDRESS, QUICKSWAP_ROUTER, WBTC_amount);\n\n        swapBackToUSDC(WMATIC_ADDRESS, WMATIC_amount);\n        swapBackToUSDC(SAND_ADDRESS, SAND_amount);\n        swapBackToUSDC(WETH_ADDRESS, WETH_amount);\n        swapBackToUSDC(WBTC_ADDRESS, WBTC_amount);\n\n        // approveSpendingWholeBalance(USDC_ADDRESS, BENTOBOX_MASTER_CONTRACT_ADDRESS);\n\n        uint256 USDC_amount = tokenBalanceOf(USDC_ADDRESS, address(this));\n        withdraw(USDC_amount, USDC_ADDRESS, user);\n\n        updateSharesOnWithdrawal(user);\n    }\n\n    function withdraw(\n        uint256 amount_,\n        address token_address,\n        address address_to\n    ) public {\n        ERC20 token_ = ERC20(token_address); //is this right?\n\n        token_.transfer(address_to, amount_);\n    }\n\n    function approveSpendingWholeBalance(address _token, address _spender)\n        public\n    {\n        uint256 tokenBalance = ERC20(_token).balanceOf(address(this));\n        approve_spending(_token, _spender, tokenBalance);\n    }\n\n    function swapBackToUSDC(address _token, uint256 _amount) public {\n        address[] memory path = new address[](2);\n        path[0] = _token;\n        path[1] = USDC_ADDRESS;\n        swap(_amount, uint256(0), path, address(this), 99999999999);\n    }\n\n    // function withdraw_matic(uint256 amount_) public payable {\n    //     transfer(msg.sender, amount_);\n    // }\n\n    function tokenBalanceOf(address token_address, address user_address)\n        public\n        view\n        returns (uint256 token_balance)\n    {\n        ERC20 _token = ERC20(token_address);\n        token_balance = _token.balanceOf(user_address);\n        return token_balance;\n    }\n\n    function swap(\n        uint256 _amountIn,\n        uint256 _amountOutMin,\n        address[] memory _path,\n        address _acct,\n        uint256 _deadline\n    ) public {\n        quickSwapRouter.swapExactTokensForTokens(\n            _amountIn,\n            _amountOutMin,\n            _path,\n            _acct,\n            _deadline\n        );\n    }\n\n    // function _mint(address account, uint256 amount) internal override {\n    //     require(account != address(0), \"ERC20: mint to the zero address\");\n\n    //     _beforeTokenTransfer(address(0), account, amount);\n\n    //     _totalSupply = _totalSupply.add(amount);\n    //     _balances[account] = _balances[account].add(amount);\n    //     emit Transfer(address(0), account, amount);\n    // }\n\n    // function _burn(address account, uint256 amount) internal override {\n    //     require(account != address(0), \"ERC20: burn from the zero address\");\n\n    //     _beforeTokenTransfer(account, address(0), amount);\n\n    //     _balances[account] = _balances[account].sub(\n    //         amount,\n    //         \"ERC20: burn amount exceeds balance\"\n    //     );\n    //     _totalSupply = _totalSupply.sub(amount);\n    //     emit Transfer(account, address(0), amount);\n    // }\n}\n",
  "sourcePath": "/Users/richardjamieson/Documents/GitHub/BentoBoxBalancer/contracts/autoBalancer.sol",
  "compiler": {
    "name": "solc",
    "version": "0.8.17+commit.8df45f5f.Emscripten.clang"
  },
  "schemaVersion": "3.4.9",
  "updatedAt": "2022-09-10T19:21:18.752Z",
  "networkType": "ethereum",
  "devdoc": {
    "kind": "dev",
    "methods": {
      "allowance(address,address)": {
        "details": "See {IERC20-allowance}."
      },
      "approve(address,uint256)": {
        "details": "See {IERC20-approve}. NOTE: If `amount` is the maximum `uint256`, the allowance is not updated on `transferFrom`. This is semantically equivalent to an infinite approval. Requirements: - `spender` cannot be the zero address."
      },
      "balanceOf(address)": {
        "details": "See {IERC20-balanceOf}."
      },
      "decimals()": {
        "details": "Returns the number of decimals used to get its user representation. For example, if `decimals` equals `2`, a balance of `505` tokens should be displayed to a user as `5.05` (`505 / 10 ** 2`). Tokens usually opt for a value of 18, imitating the relationship between Ether and Wei. This is the value {ERC20} uses, unless this function is overridden; NOTE: This information is only used for _display_ purposes: it in no way affects any of the arithmetic of the contract, including {IERC20-balanceOf} and {IERC20-transfer}."
      },
      "decreaseAllowance(address,uint256)": {
        "details": "Atomically decreases the allowance granted to `spender` by the caller. This is an alternative to {approve} that can be used as a mitigation for problems described in {IERC20-approve}. Emits an {Approval} event indicating the updated allowance. Requirements: - `spender` cannot be the zero address. - `spender` must have allowance for the caller of at least `subtractedValue`."
      },
      "increaseAllowance(address,uint256)": {
        "details": "Atomically increases the allowance granted to `spender` by the caller. This is an alternative to {approve} that can be used as a mitigation for problems described in {IERC20-approve}. Emits an {Approval} event indicating the updated allowance. Requirements: - `spender` cannot be the zero address."
      },
      "name()": {
        "details": "Returns the name of the token."
      },
      "performUpkeep(bytes)": {
        "details": "The input to this method should not be trusted, and the caller of the method should not even be restricted to any single registry. Anyone should be able call it, and the input should be validated, there is no guarantee that the data passed in is the performData returned from checkUpkeep. This could happen due to malicious keepers, racing keepers, or simply a state change while the performUpkeep transaction is waiting for confirmation. Always validate the data passed in.",
        "params": {
          "performData": "is the data which was passed back from the checkData simulation. If it is encoded, it can easily be decoded into other types by calling `abi.decode`. This data should not be trusted, and should be validated against the contract's current state."
        }
      },
      "symbol()": {
        "details": "Returns the symbol of the token, usually a shorter version of the name."
      },
      "totalSupply()": {
        "details": "See {IERC20-totalSupply}."
      },
      "transfer(address,uint256)": {
        "details": "See {IERC20-transfer}. Requirements: - `to` cannot be the zero address. - the caller must have a balance of at least `amount`."
      },
      "transferFrom(address,address,uint256)": {
        "details": "See {IERC20-transferFrom}. Emits an {Approval} event indicating the updated allowance. This is not required by the EIP. See the note at the beginning of {ERC20}. NOTE: Does not update the allowance if the current allowance is the maximum `uint256`. Requirements: - `from` and `to` cannot be the zero address. - `from` must have a balance of at least `amount`. - the caller must have allowance for ``from``'s tokens of at least `amount`."
      }
    },
    "version": 1
  },
  "userdoc": {
    "kind": "user",
    "methods": {
      "getLatestPrice(address)": {
        "notice": "Returns the latest price"
      },
      "performUpkeep(bytes)": {
        "notice": "method that is actually executed by the keepers, via the registry. The data returned by the checkUpkeep simulation will be passed into this method to actually be executed."
      }
    },
    "version": 1
  }
}