{
  "contractName": "autoBalancer",
  "abi": [
    {
      "inputs": [],
      "name": "BTC_USD_ORACLE",
      "outputs": [
        {
          "internalType": "address",
          "name": "",
          "type": "address"
        }
      ],
      "stateMutability": "view",
      "type": "function",
      "constant": true
    },
    {
      "inputs": [],
      "name": "ETH_USD_ORACLE",
      "outputs": [
        {
          "internalType": "address",
          "name": "",
          "type": "address"
        }
      ],
      "stateMutability": "view",
      "type": "function",
      "constant": true
    },
    {
      "inputs": [],
      "name": "MATIC_USD_ORACLE",
      "outputs": [
        {
          "internalType": "address",
          "name": "",
          "type": "address"
        }
      ],
      "stateMutability": "view",
      "type": "function",
      "constant": true
    },
    {
      "inputs": [],
      "name": "QUICKSWAP_ROUTER",
      "outputs": [
        {
          "internalType": "address",
          "name": "",
          "type": "address"
        }
      ],
      "stateMutability": "view",
      "type": "function",
      "constant": true
    },
    {
      "inputs": [
        {
          "internalType": "uint256",
          "name": "",
          "type": "uint256"
        }
      ],
      "name": "QUICKToUSDCPath",
      "outputs": [
        {
          "internalType": "address",
          "name": "",
          "type": "address"
        }
      ],
      "stateMutability": "view",
      "type": "function",
      "constant": true
    },
    {
      "inputs": [],
      "name": "QUICK_ADDRESS",
      "outputs": [
        {
          "internalType": "address",
          "name": "",
          "type": "address"
        }
      ],
      "stateMutability": "view",
      "type": "function",
      "constant": true
    },
    {
      "inputs": [],
      "name": "QUICK_USD_ORACLE",
      "outputs": [
        {
          "internalType": "address",
          "name": "",
          "type": "address"
        }
      ],
      "stateMutability": "view",
      "type": "function",
      "constant": true
    },
    {
      "inputs": [
        {
          "internalType": "uint256",
          "name": "",
          "type": "uint256"
        }
      ],
      "name": "USDCToQUICKPath",
      "outputs": [
        {
          "internalType": "address",
          "name": "",
          "type": "address"
        }
      ],
      "stateMutability": "view",
      "type": "function",
      "constant": true
    },
    {
      "inputs": [
        {
          "internalType": "uint256",
          "name": "",
          "type": "uint256"
        }
      ],
      "name": "USDCToWBTCPath",
      "outputs": [
        {
          "internalType": "address",
          "name": "",
          "type": "address"
        }
      ],
      "stateMutability": "view",
      "type": "function",
      "constant": true
    },
    {
      "inputs": [
        {
          "internalType": "uint256",
          "name": "",
          "type": "uint256"
        }
      ],
      "name": "USDCToWETHPath",
      "outputs": [
        {
          "internalType": "address",
          "name": "",
          "type": "address"
        }
      ],
      "stateMutability": "view",
      "type": "function",
      "constant": true
    },
    {
      "inputs": [
        {
          "internalType": "uint256",
          "name": "",
          "type": "uint256"
        }
      ],
      "name": "USDCToWMATICPath",
      "outputs": [
        {
          "internalType": "address",
          "name": "",
          "type": "address"
        }
      ],
      "stateMutability": "view",
      "type": "function",
      "constant": true
    },
    {
      "inputs": [],
      "name": "USDC_ADDRESS",
      "outputs": [
        {
          "internalType": "address",
          "name": "",
          "type": "address"
        }
      ],
      "stateMutability": "view",
      "type": "function",
      "constant": true
    },
    {
      "inputs": [
        {
          "internalType": "uint256",
          "name": "",
          "type": "uint256"
        }
      ],
      "name": "WBTCToUSDCPath",
      "outputs": [
        {
          "internalType": "address",
          "name": "",
          "type": "address"
        }
      ],
      "stateMutability": "view",
      "type": "function",
      "constant": true
    },
    {
      "inputs": [],
      "name": "WBTC_ADDRESS",
      "outputs": [
        {
          "internalType": "address",
          "name": "",
          "type": "address"
        }
      ],
      "stateMutability": "view",
      "type": "function",
      "constant": true
    },
    {
      "inputs": [
        {
          "internalType": "uint256",
          "name": "",
          "type": "uint256"
        }
      ],
      "name": "WETHToUSDCPath",
      "outputs": [
        {
          "internalType": "address",
          "name": "",
          "type": "address"
        }
      ],
      "stateMutability": "view",
      "type": "function",
      "constant": true
    },
    {
      "inputs": [],
      "name": "WETH_ADDRESS",
      "outputs": [
        {
          "internalType": "address",
          "name": "",
          "type": "address"
        }
      ],
      "stateMutability": "view",
      "type": "function",
      "constant": true
    },
    {
      "inputs": [
        {
          "internalType": "uint256",
          "name": "",
          "type": "uint256"
        }
      ],
      "name": "WMATICToUSDCPath",
      "outputs": [
        {
          "internalType": "address",
          "name": "",
          "type": "address"
        }
      ],
      "stateMutability": "view",
      "type": "function",
      "constant": true
    },
    {
      "inputs": [],
      "name": "WMATIC_ADDRESS",
      "outputs": [
        {
          "internalType": "address",
          "name": "",
          "type": "address"
        }
      ],
      "stateMutability": "view",
      "type": "function",
      "constant": true
    },
    {
      "inputs": [],
      "name": "counter",
      "outputs": [
        {
          "internalType": "uint256",
          "name": "",
          "type": "uint256"
        }
      ],
      "stateMutability": "view",
      "type": "function",
      "constant": true
    },
    {
      "inputs": [],
      "name": "interval",
      "outputs": [
        {
          "internalType": "uint256",
          "name": "",
          "type": "uint256"
        }
      ],
      "stateMutability": "view",
      "type": "function",
      "constant": true
    },
    {
      "inputs": [],
      "name": "lastTimeStamp",
      "outputs": [
        {
          "internalType": "uint256",
          "name": "",
          "type": "uint256"
        }
      ],
      "stateMutability": "view",
      "type": "function",
      "constant": true
    },
    {
      "inputs": [],
      "name": "quickSwapRouter",
      "outputs": [
        {
          "internalType": "contract IUniswapV2Router02",
          "name": "",
          "type": "address"
        }
      ],
      "stateMutability": "view",
      "type": "function",
      "constant": true
    },
    {
      "inputs": [],
      "name": "totalNumberOfShares",
      "outputs": [
        {
          "internalType": "uint256",
          "name": "",
          "type": "uint256"
        }
      ],
      "stateMutability": "view",
      "type": "function",
      "constant": true
    },
    {
      "inputs": [
        {
          "internalType": "address",
          "name": "",
          "type": "address"
        }
      ],
      "name": "userNumberOfShares",
      "outputs": [
        {
          "internalType": "uint256",
          "name": "",
          "type": "uint256"
        }
      ],
      "stateMutability": "view",
      "type": "function",
      "constant": true
    },
    {
      "stateMutability": "payable",
      "type": "receive",
      "payable": true
    },
    {
      "inputs": [
        {
          "internalType": "address",
          "name": "_oracle_address",
          "type": "address"
        }
      ],
      "name": "getLatestPrice",
      "outputs": [
        {
          "internalType": "int256",
          "name": "",
          "type": "int256"
        }
      ],
      "stateMutability": "view",
      "type": "function",
      "constant": true
    },
    {
      "inputs": [
        {
          "internalType": "bytes",
          "name": "",
          "type": "bytes"
        }
      ],
      "name": "checkUpkeep",
      "outputs": [
        {
          "internalType": "bool",
          "name": "upkeepNeeded",
          "type": "bool"
        },
        {
          "internalType": "bytes",
          "name": "performData",
          "type": "bytes"
        }
      ],
      "stateMutability": "view",
      "type": "function",
      "constant": true
    },
    {
      "inputs": [
        {
          "internalType": "bytes",
          "name": "performData",
          "type": "bytes"
        }
      ],
      "name": "performUpkeep",
      "outputs": [],
      "stateMutability": "nonpayable",
      "type": "function"
    },
    {
      "inputs": [
        {
          "internalType": "address",
          "name": "user",
          "type": "address"
        }
      ],
      "name": "updateSharesOnWithdrawal",
      "outputs": [],
      "stateMutability": "nonpayable",
      "type": "function"
    },
    {
      "inputs": [
        {
          "internalType": "address",
          "name": "user",
          "type": "address"
        }
      ],
      "name": "getUserShares",
      "outputs": [
        {
          "internalType": "uint256",
          "name": "userShares",
          "type": "uint256"
        }
      ],
      "stateMutability": "view",
      "type": "function",
      "constant": true
    },
    {
      "inputs": [
        {
          "internalType": "address",
          "name": "token_address",
          "type": "address"
        },
        {
          "internalType": "address",
          "name": "spender_address",
          "type": "address"
        },
        {
          "internalType": "uint256",
          "name": "amount_to_approve",
          "type": "uint256"
        }
      ],
      "name": "approve_spending",
      "outputs": [],
      "stateMutability": "nonpayable",
      "type": "function"
    },
    {
      "inputs": [
        {
          "internalType": "uint256",
          "name": "amount_",
          "type": "uint256"
        }
      ],
      "name": "depositUserFunds",
      "outputs": [],
      "stateMutability": "nonpayable",
      "type": "function"
    },
    {
      "inputs": [
        {
          "internalType": "address",
          "name": "token_address",
          "type": "address"
        },
        {
          "internalType": "address",
          "name": "oracle_address",
          "type": "address"
        },
        {
          "internalType": "uint256",
          "name": "token_decimals",
          "type": "uint256"
        }
      ],
      "name": "getUSDTokenBalanceOf",
      "outputs": [
        {
          "internalType": "uint256",
          "name": "",
          "type": "uint256"
        }
      ],
      "stateMutability": "view",
      "type": "function",
      "constant": true
    },
    {
      "inputs": [
        {
          "internalType": "uint256",
          "name": "WMATIC_amount",
          "type": "uint256"
        },
        {
          "internalType": "uint256",
          "name": "QUICK_amount",
          "type": "uint256"
        },
        {
          "internalType": "uint256",
          "name": "WETH_amount",
          "type": "uint256"
        },
        {
          "internalType": "uint256",
          "name": "WBTC_amount",
          "type": "uint256"
        },
        {
          "internalType": "uint256",
          "name": "totalUSDAmount",
          "type": "uint256"
        },
        {
          "internalType": "uint256",
          "name": "depositAmount",
          "type": "uint256"
        }
      ],
      "name": "swapProportionately",
      "outputs": [],
      "stateMutability": "nonpayable",
      "type": "function"
    },
    {
      "inputs": [
        {
          "internalType": "uint256",
          "name": "amount",
          "type": "uint256"
        }
      ],
      "name": "swapIntoFourEqualParts",
      "outputs": [],
      "stateMutability": "nonpayable",
      "type": "function"
    },
    {
      "inputs": [
        {
          "internalType": "address",
          "name": "user",
          "type": "address"
        }
      ],
      "name": "setSharesFirstTime",
      "outputs": [],
      "stateMutability": "nonpayable",
      "type": "function"
    },
    {
      "inputs": [
        {
          "internalType": "address",
          "name": "user",
          "type": "address"
        },
        {
          "internalType": "uint256",
          "name": "total_in_USD",
          "type": "uint256"
        },
        {
          "internalType": "uint256",
          "name": "deposit_amount",
          "type": "uint256"
        }
      ],
      "name": "updateSharesOnDeposit",
      "outputs": [],
      "stateMutability": "nonpayable",
      "type": "function"
    },
    {
      "inputs": [
        {
          "internalType": "address",
          "name": "user",
          "type": "address"
        }
      ],
      "name": "withdrawUserFunds",
      "outputs": [],
      "stateMutability": "nonpayable",
      "type": "function"
    },
    {
      "inputs": [
        {
          "internalType": "uint256",
          "name": "amount_",
          "type": "uint256"
        },
        {
          "internalType": "address",
          "name": "token_address",
          "type": "address"
        },
        {
          "internalType": "address",
          "name": "address_to",
          "type": "address"
        }
      ],
      "name": "withdraw",
      "outputs": [],
      "stateMutability": "nonpayable",
      "type": "function"
    },
    {
      "inputs": [
        {
          "internalType": "address",
          "name": "_token",
          "type": "address"
        },
        {
          "internalType": "address",
          "name": "_spender",
          "type": "address"
        }
      ],
      "name": "approveSpendingWholeBalance",
      "outputs": [],
      "stateMutability": "nonpayable",
      "type": "function"
    },
    {
      "inputs": [
        {
          "internalType": "address",
          "name": "_token",
          "type": "address"
        },
        {
          "internalType": "uint256",
          "name": "_amount",
          "type": "uint256"
        }
      ],
      "name": "swapBackToUSDC",
      "outputs": [],
      "stateMutability": "nonpayable",
      "type": "function"
    },
    {
      "inputs": [
        {
          "internalType": "address",
          "name": "token_address",
          "type": "address"
        },
        {
          "internalType": "address",
          "name": "user_address",
          "type": "address"
        }
      ],
      "name": "tokenBalanceOf",
      "outputs": [
        {
          "internalType": "uint256",
          "name": "token_balance",
          "type": "uint256"
        }
      ],
      "stateMutability": "view",
      "type": "function",
      "constant": true
    },
    {
      "inputs": [
        {
          "internalType": "uint256",
          "name": "_amountIn",
          "type": "uint256"
        },
        {
          "internalType": "uint256",
          "name": "_amountOutMin",
          "type": "uint256"
        },
        {
          "internalType": "address[]",
          "name": "_path",
          "type": "address[]"
        },
        {
          "internalType": "address",
          "name": "_acct",
          "type": "address"
        },
        {
          "internalType": "uint256",
          "name": "_deadline",
          "type": "uint256"
        }
      ],
      "name": "swap",
      "outputs": [],
      "stateMutability": "nonpayable",
      "type": "function"
    }
  ],
  "bytecode": "0x60806040526040518060400160405280732791bca1f2de4661ed88a30c99a7a9449aa8417473ffffffffffffffffffffffffffffffffffffffff1673ffffffffffffffffffffffffffffffffffffffff168152602001730d500b1d8e8ef31e21c99d1db9a6444d3adf127073ffffffffffffffffffffffffffffffffffffffff1673ffffffffffffffffffffffffffffffffffffffff168152506000906002620000ab929190620005ad565b506040518060400160405280732791bca1f2de4661ed88a30c99a7a9449aa8417473ffffffffffffffffffffffffffffffffffffffff1673ffffffffffffffffffffffffffffffffffffffff16815260200173b5c064f955d8e7f38fe0460c556a72987494ee1773ffffffffffffffffffffffffffffffffffffffff1673ffffffffffffffffffffffffffffffffffffffff16815250600190600262000153929190620005ad565b506040518060400160405280732791bca1f2de4661ed88a30c99a7a9449aa8417473ffffffffffffffffffffffffffffffffffffffff1673ffffffffffffffffffffffffffffffffffffffff168152602001737ceb23fd6bc0add59e62ac25578270cff1b9f61973ffffffffffffffffffffffffffffffffffffffff1673ffffffffffffffffffffffffffffffffffffffff168152506002906002620001fb929190620005ad565b506040518060400160405280732791bca1f2de4661ed88a30c99a7a9449aa8417473ffffffffffffffffffffffffffffffffffffffff1673ffffffffffffffffffffffffffffffffffffffff168152602001731bfd67037b42cf73acf2047067bd4f2c47d9bfd673ffffffffffffffffffffffffffffffffffffffff1673ffffffffffffffffffffffffffffffffffffffff168152506003906002620002a3929190620005ad565b506040518060400160405280730d500b1d8e8ef31e21c99d1db9a6444d3adf127073ffffffffffffffffffffffffffffffffffffffff1673ffffffffffffffffffffffffffffffffffffffff168152602001732791bca1f2de4661ed88a30c99a7a9449aa8417473ffffffffffffffffffffffffffffffffffffffff1673ffffffffffffffffffffffffffffffffffffffff1681525060049060026200034b929190620005ad565b50604051806040016040528073b5c064f955d8e7f38fe0460c556a72987494ee1773ffffffffffffffffffffffffffffffffffffffff1673ffffffffffffffffffffffffffffffffffffffff168152602001732791bca1f2de4661ed88a30c99a7a9449aa8417473ffffffffffffffffffffffffffffffffffffffff1673ffffffffffffffffffffffffffffffffffffffff168152506005906002620003f3929190620005ad565b506040518060400160405280737ceb23fd6bc0add59e62ac25578270cff1b9f61973ffffffffffffffffffffffffffffffffffffffff1673ffffffffffffffffffffffffffffffffffffffff168152602001732791bca1f2de4661ed88a30c99a7a9449aa8417473ffffffffffffffffffffffffffffffffffffffff1673ffffffffffffffffffffffffffffffffffffffff1681525060069060026200049b929190620005ad565b506040518060400160405280731bfd67037b42cf73acf2047067bd4f2c47d9bfd673ffffffffffffffffffffffffffffffffffffffff1673ffffffffffffffffffffffffffffffffffffffff168152602001732791bca1f2de4661ed88a30c99a7a9449aa8417473ffffffffffffffffffffffffffffffffffffffff1673ffffffffffffffffffffffffffffffffffffffff16815250600790600262000543929190620005ad565b5073a5e0829caced8ffdd4de3c43696c57f7d7a678ff600d60006101000a81548173ffffffffffffffffffffffffffffffffffffffff021916908373ffffffffffffffffffffffffffffffffffffffff160217905550348015620005a657600080fd5b506200065b565b82805482825590600052602060002090810192821562000629579160200282015b82811115620006285782518260006101000a81548173ffffffffffffffffffffffffffffffffffffffff021916908373ffffffffffffffffffffffffffffffffffffffff16021790555091602001919060010190620005ce565b5b5090506200063891906200063c565b5090565b5b80821115620006575760008160009055506001016200063d565b5090565b613d19806200066b6000396000f3fe6080604052600436106102555760003560e01c80638db9f39a11610139578063bdd5915f116100b6578063cb3601b11161007a578063cb3601b11461092e578063cf4128101461096b578063d091911614610994578063e189eb42146109bf578063e95d8328146109ea578063ef455bad14610a155761025c565b8063bdd5915f14610835578063c3f5a30514610860578063c4ca0f0f1461088b578063c5764eec146108c8578063ca970905146108f15761025c565b8063aa5a7aa3116100fd578063aa5a7aa314610750578063b460af9414610779578063b6e20a6a146107a2578063ba0cb22b146107cd578063bb09d9b71461080a5761025c565b80638db9f39a1461066957806390f11e8414610694578063947a36fb146106bd578063a15c7d10146106e8578063a6c442e4146107255761025c565b80634690738c116101d257806369bc43881161019657806369bc4388146105345780636e04ff0d14610571578063718176e5146105af57806372ef071e146105da578063764f96f91461061757806388e42b08146106405761025c565b80634690738c1461043d57806351f548871461046657806361bc221a146104a35780636583530f146104ce578063681bcf13146104f75761025c565b80633f3b3b27116102195780633f3b3b271461035857806342a323641461038357806344250955146103ae57806344345f23146103d75780634585e33b146104145761025c565b8063040141e51461026157806316345f181461028c5780631bea8006146102c957806324e2e7bb1461030657806329a97ec21461032f5761025c565b3661025c57005b600080fd5b34801561026d57600080fd5b50610276610a52565b6040516102839190612adb565b60405180910390f35b34801561029857600080fd5b506102b360048036038101906102ae9190612b36565b610a6a565b6040516102c09190612b7c565b60405180910390f35b3480156102d557600080fd5b506102f060048036038101906102eb9190612b97565b610af9565b6040516102fd9190612bf0565b60405180910390f35b34801561031257600080fd5b5061032d60048036038101906103289190612b36565b610b82565b005b34801561033b57600080fd5b5061035660048036038101906103519190612c37565b610efc565b005b34801561036457600080fd5b5061036d610f80565b60405161037a9190612bf0565b60405180910390f35b34801561038f57600080fd5b50610398610f86565b6040516103a59190612adb565b60405180910390f35b3480156103ba57600080fd5b506103d560048036038101906103d09190612c8a565b610f9e565b005b3480156103e357600080fd5b506103fe60048036038101906103f99190612cdd565b6110f5565b60405161040b9190612adb565b60405180910390f35b34801561042057600080fd5b5061043b60048036038101906104369190612d6f565b611134565b005b34801561044957600080fd5b50610464600480360381019061045f9190612b36565b6111e8565b005b34801561047257600080fd5b5061048d60048036038101906104889190612c37565b61130a565b60405161049a9190612bf0565b60405180910390f35b3480156104af57600080fd5b506104b8611355565b6040516104c59190612bf0565b60405180910390f35b3480156104da57600080fd5b506104f560048036038101906104f09190612b36565b61135b565b005b34801561050357600080fd5b5061051e60048036038101906105199190612cdd565b6113ec565b60405161052b9190612adb565b60405180910390f35b34801561054057600080fd5b5061055b60048036038101906105569190612cdd565b61142b565b6040516105689190612adb565b60405180910390f35b34801561057d57600080fd5b5061059860048036038101906105939190612d6f565b61146a565b6040516105a6929190612e67565b60405180910390f35b3480156105bb57600080fd5b506105c4611d0e565b6040516105d19190612adb565b60405180910390f35b3480156105e657600080fd5b5061060160048036038101906105fc9190612cdd565b611d26565b60405161060e9190612adb565b60405180910390f35b34801561062357600080fd5b5061063e60048036038101906106399190612e97565b611d65565b005b34801561064c57600080fd5b5061066760048036038101906106629190612cdd565b612040565b005b34801561067557600080fd5b5061067e6122d6565b60405161068b9190612adb565b60405180910390f35b3480156106a057600080fd5b506106bb60048036038101906106b69190613062565b6122ee565b005b3480156106c957600080fd5b506106d26123a1565b6040516106df9190612bf0565b60405180910390f35b3480156106f457600080fd5b5061070f600480360381019061070a9190612cdd565b6123a7565b60405161071c9190612adb565b60405180910390f35b34801561073157600080fd5b5061073a6123e6565b6040516107479190612adb565b60405180910390f35b34801561075c57600080fd5b5061077760048036038101906107729190612b97565b6123fe565b005b34801561078557600080fd5b506107a0600480360381019061079b91906130f9565b61248c565b005b3480156107ae57600080fd5b506107b7612516565b6040516107c49190612adb565b60405180910390f35b3480156107d957600080fd5b506107f460048036038101906107ef9190612b36565b61252e565b6040516108019190612bf0565b60405180910390f35b34801561081657600080fd5b5061081f612577565b60405161082c9190612adb565b60405180910390f35b34801561084157600080fd5b5061084a61258f565b6040516108579190612adb565b60405180910390f35b34801561086c57600080fd5b506108756125a7565b6040516108829190612bf0565b60405180910390f35b34801561089757600080fd5b506108b260048036038101906108ad9190612cdd565b6125ad565b6040516108bf9190612adb565b60405180910390f35b3480156108d457600080fd5b506108ef60048036038101906108ea9190612cdd565b6125ec565b005b3480156108fd57600080fd5b5061091860048036038101906109139190612cdd565b61280b565b6040516109259190612adb565b60405180910390f35b34801561093a57600080fd5b5061095560048036038101906109509190612cdd565b61284a565b6040516109629190612adb565b60405180910390f35b34801561097757600080fd5b50610992600480360381019061098d919061314c565b612889565b005b3480156109a057600080fd5b506109a96129a1565b6040516109b69190612adb565b60405180910390f35b3480156109cb57600080fd5b506109d46129b9565b6040516109e191906131eb565b60405180910390f35b3480156109f657600080fd5b506109ff6129df565b604051610a0c9190612adb565b60405180910390f35b348015610a2157600080fd5b50610a3c6004803603810190610a379190612b36565b6129f7565b604051610a499190612bf0565b60405180910390f35b737ceb23fd6bc0add59e62ac25578270cff1b9f61981565b6000806000806000808673ffffffffffffffffffffffffffffffffffffffff1663feaf968c6040518163ffffffff1660e01b815260040160a060405180830381865afa158015610abe573d6000803e3d6000fd5b505050506040513d601f19601f82011682018060405250810190610ae29190613289565b945094509450945094508395505050505050919050565b6000808390508073ffffffffffffffffffffffffffffffffffffffff166370a08231846040518263ffffffff1660e01b8152600401610b389190612adb565b602060405180830381865afa158015610b55573d6000803e3d6000fd5b505050506040513d601f19601f82011682018060405250810190610b799190613304565b91505092915050565b6000600854610ba5730d500b1d8e8ef31e21c99d1db9a6444d3adf127030610af9565b600c60008573ffffffffffffffffffffffffffffffffffffffff1673ffffffffffffffffffffffffffffffffffffffff16815260200190815260200160002054610bef9190613360565b610bf991906133e9565b90506000600854610c1e73b5c064f955d8e7f38fe0460c556a72987494ee1730610af9565b600c60008673ffffffffffffffffffffffffffffffffffffffff1673ffffffffffffffffffffffffffffffffffffffff16815260200190815260200160002054610c689190613360565b610c7291906133e9565b90506000600854610c97737ceb23fd6bc0add59e62ac25578270cff1b9f61930610af9565b600c60008773ffffffffffffffffffffffffffffffffffffffff1673ffffffffffffffffffffffffffffffffffffffff16815260200190815260200160002054610ce19190613360565b610ceb91906133e9565b90506000600854610d10731bfd67037b42cf73acf2047067bd4f2c47d9bfd630610af9565b600c60008873ffffffffffffffffffffffffffffffffffffffff1673ffffffffffffffffffffffffffffffffffffffff16815260200190815260200160002054610d5a9190613360565b610d6491906133e9565b9050610d99730d500b1d8e8ef31e21c99d1db9a6444d3adf127073a5e0829caced8ffdd4de3c43696c57f7d7a678ff86610efc565b610dcc73b5c064f955d8e7f38fe0460c556a72987494ee1773a5e0829caced8ffdd4de3c43696c57f7d7a678ff85610efc565b610dff737ceb23fd6bc0add59e62ac25578270cff1b9f61973a5e0829caced8ffdd4de3c43696c57f7d7a678ff84610efc565b610e32731bfd67037b42cf73acf2047067bd4f2c47d9bfd673a5e0829caced8ffdd4de3c43696c57f7d7a678ff83610efc565b610e50730d500b1d8e8ef31e21c99d1db9a6444d3adf127085612889565b610e6e73b5c064f955d8e7f38fe0460c556a72987494ee1784612889565b610e8c737ceb23fd6bc0add59e62ac25578270cff1b9f61983612889565b610eaa731bfd67037b42cf73acf2047067bd4f2c47d9bfd682612889565b6000610eca732791bca1f2de4661ed88a30c99a7a9449aa8417430610af9565b9050610eeb81732791bca1f2de4661ed88a30c99a7a9449aa841748861248c565b610ef4866111e8565b505050505050565b8273ffffffffffffffffffffffffffffffffffffffff1663095ea7b383836040518363ffffffff1660e01b8152600401610f3792919061341a565b6020604051808303816000875af1158015610f56573d6000803e3d6000fd5b505050506040513d601f19601f82011682018060405250810190610f7a919061346f565b50505050565b60095481565b73b5c064f955d8e7f38fe0460c556a72987494ee1781565b60008260085483610faf9190613360565b610fb991906133e9565b905080600854610fc9919061349c565b6008819055506000600c60008673ffffffffffffffffffffffffffffffffffffffff1673ffffffffffffffffffffffffffffffffffffffff1681526020019081526020016000205411156110aa5780600c60008673ffffffffffffffffffffffffffffffffffffffff1673ffffffffffffffffffffffffffffffffffffffff16815260200190815260200160002054611062919061349c565b600c60008673ffffffffffffffffffffffffffffffffffffffff1673ffffffffffffffffffffffffffffffffffffffff168152602001908152602001600020819055506110ef565b80600c60008673ffffffffffffffffffffffffffffffffffffffff1673ffffffffffffffffffffffffffffffffffffffff168152602001908152602001600020819055505b50505050565b6006818154811061110557600080fd5b906000526020600020016000915054906101000a900473ffffffffffffffffffffffffffffffffffffffff1681565b600a546009544261114591906134d0565b11156111e457426009819055506001600b54611161919061349c565b600b819055506000600267ffffffffffffffff81111561118457611183612f24565b5b6040519080825280602002602001820160405280156111b25781602001602082028036833780820191505090505b509050600083838101906111c69190613504565b80925081935050506111e1816000843064174876e7ff6122ee565b50505b5050565b6000600c60008373ffffffffffffffffffffffffffffffffffffffff1673ffffffffffffffffffffffffffffffffffffffff168152602001908152602001600020541161126a576040517f08c379a0000000000000000000000000000000000000000000000000000000008152600401611261906135bd565b60405180910390fd5b600c60008273ffffffffffffffffffffffffffffffffffffffff1673ffffffffffffffffffffffffffffffffffffffff16815260200190815260200160002054600860008282546112bb91906134d0565b925050819055506000600c60008373ffffffffffffffffffffffffffffffffffffffff1673ffffffffffffffffffffffffffffffffffffffff1681526020019081526020016000208190555050565b6000600282611319919061349c565b600a6113259190613710565b61132e84610a6a565b6113388630610af9565b6113429190613360565b61134c91906133e9565b90509392505050565b600b5481565b6305f5e100600c60008373ffffffffffffffffffffffffffffffffffffffff1673ffffffffffffffffffffffffffffffffffffffff16815260200190815260200160002081905550600c60008273ffffffffffffffffffffffffffffffffffffffff1673ffffffffffffffffffffffffffffffffffffffff1681526020019081526020016000205460088190555050565b600481815481106113fc57600080fd5b906000526020600020016000915054906101000a900473ffffffffffffffffffffffffffffffffffffffff1681565b6000818154811061143b57600080fd5b906000526020600020016000915054906101000a900473ffffffffffffffffffffffffffffffffffffffff1681565b60006060600a546009544261147f91906134d0565b1191506000600467ffffffffffffffff81111561149f5761149e612f24565b5b6040519080825280602002602001820160405280156114d857816020015b6114c5612a31565b8152602001906001900390816114bd5790505b5090506114e3612a31565b730d500b1d8e8ef31e21c99d1db9a6444d3adf1270816020019073ffffffffffffffffffffffffffffffffffffffff16908173ffffffffffffffffffffffffffffffffffffffff168152505073ab594600376ec9fd91f8e885dadf0ce036862de0816040019073ffffffffffffffffffffffffffffffffffffffff16908173ffffffffffffffffffffffffffffffffffffffff1681525050611583612a31565b73b5c064f955d8e7f38fe0460c556a72987494ee17816020019073ffffffffffffffffffffffffffffffffffffffff16908173ffffffffffffffffffffffffffffffffffffffff168152505073a058689f4bca95208bba3f265674ae95ded75b6d816040019073ffffffffffffffffffffffffffffffffffffffff16908173ffffffffffffffffffffffffffffffffffffffff1681525050611623612a31565b731bfd67037b42cf73acf2047067bd4f2c47d9bfd6816020019073ffffffffffffffffffffffffffffffffffffffff16908173ffffffffffffffffffffffffffffffffffffffff168152505073c907e116054ad103354f2d350fd2514433d57f6f816040019073ffffffffffffffffffffffffffffffffffffffff16908173ffffffffffffffffffffffffffffffffffffffff16815250506116c3612a31565b737ceb23fd6bc0add59e62ac25578270cff1b9f619816020019073ffffffffffffffffffffffffffffffffffffffff16908173ffffffffffffffffffffffffffffffffffffffff168152505073f9680d99d6c9589e2a93a78a04a279e509205945816040019073ffffffffffffffffffffffffffffffffffffffff16908173ffffffffffffffffffffffffffffffffffffffff168152505083856000815181106117705761176f61375b565b5b602002602001018190525082856001815181106117905761178f61375b565b5b602002602001018190525081856002815181106117b0576117af61375b565b5b602002602001018190525080856003815181106117d0576117cf61375b565b5b60200260200101819052506000808651905060005b87518110156119b25760008882815181106118035761180261375b565b5b60200260200101516020015190508073ffffffffffffffffffffffffffffffffffffffff166370a08231306040518263ffffffff1660e01b815260040161184a9190612adb565b602060405180830381865afa158015611867573d6000803e3d6000fd5b505050506040513d601f19601f8201168201806040525081019061188b9190613304565b89838151811061189e5761189d61375b565b5b602002602001015160600181815250506118d58983815181106118c4576118c361375b565b5b602002602001015160400151610a6a565b8983815181106118e8576118e761375b565b5b602002602001015160c00181815250506305f5e1008983815181106119105761190f61375b565b5b602002602001015160c001518a848151811061192f5761192e61375b565b5b602002602001015160600151611945919061378a565b61194f91906138a1565b8983815181106119625761196161375b565b5b602002602001015160800181815250508882815181106119855761198461375b565b5b6020026020010151608001518461199c919061390b565b93505080806119aa9061394f565b9150506117e5565b50600081836119c191906138a1565b905060005b8851811015611a2f57818982815181106119e3576119e261375b565b5b6020026020010151608001516119f99190613997565b898281518110611a0c57611a0b61375b565b5b602002602001015160a00181815250508080611a279061394f565b9150506119c6565b5060008060005b8a518160ff161015611a8257828b8260ff1681518110611a5957611a5861375b565b5b602002602001015160a001511315611a6f578091505b8080611a7a906139e7565b915050611a36565b5060007f7fffffffffffffffffffffffffffffffffffffffffffffffffffffffffffffff9050600080600090505b8c518160ff161015611afc57828d8260ff1681518110611ad357611ad261375b565b5b602002602001015160a001511215611ae9578091505b8080611af4906139e7565b915050611ab0565b506000600267ffffffffffffffff811115611b1a57611b19612f24565b5b604051908082528060200260200182016040528015611b485781602001602082028036833780820191505090505b5090508c8460ff1681518110611b6157611b6061375b565b5b60200260200101516020015181600081518110611b8157611b8061375b565b5b602002602001019073ffffffffffffffffffffffffffffffffffffffff16908173ffffffffffffffffffffffffffffffffffffffff16815250508c8260ff1681518110611bd157611bd061375b565b5b60200260200101516020015181600181518110611bf157611bf061375b565b5b602002602001019073ffffffffffffffffffffffffffffffffffffffff16908173ffffffffffffffffffffffffffffffffffffffff16815250506000611c578e8460ff1681518110611c4657611c4561375b565b5b602002602001015160a00151612a0f565b8e8660ff1681518110611c6d57611c6c61375b565b5b602002602001015160a001511315611cb057611ca98e8460ff1681518110611c9857611c9761375b565b5b602002602001015160a00151612a0f565b9050611cd5565b8d8560ff1681518110611cc657611cc561375b565b5b602002602001015160a0015190505b8181604051602001611ce8929190613ace565b6040516020818303038152906040529e5050505050505050505050505050509250929050565b73f9680d99d6c9589e2a93a78a04a279e50920594581565b60058181548110611d3657600080fd5b906000526020600020016000915054906101000a900473ffffffffffffffffffffffffffffffffffffffff1681565b6000828288611d749190613360565b611d7e91906133e9565b90506000838388611d8f9190613360565b611d9991906133e9565b90506000848488611daa9190613360565b611db491906133e9565b90506000858588611dc59190613360565b611dcf91906133e9565b9050611e6984600080805480602002602001604051908101604052809291908181526020018280548015611e5857602002820191906000526020600020905b8160009054906101000a900473ffffffffffffffffffffffffffffffffffffffff1673ffffffffffffffffffffffffffffffffffffffff1681526020019060010190808311611e0e575b50505050503064174876e7ff6122ee565b611f028360006001805480602002602001604051908101604052809291908181526020018280548015611ef157602002820191906000526020600020905b8160009054906101000a900473ffffffffffffffffffffffffffffffffffffffff1673ffffffffffffffffffffffffffffffffffffffff1681526020019060010190808311611ea7575b50505050503064174876e7ff6122ee565b611f9b8260006002805480602002602001604051908101604052809291908181526020018280548015611f8a57602002820191906000526020600020905b8160009054906101000a900473ffffffffffffffffffffffffffffffffffffffff1673ffffffffffffffffffffffffffffffffffffffff1681526020019060010190808311611f40575b50505050503064174876e7ff6122ee565b612034816000600380548060200260200160405190810160405280929190818152602001828054801561202357602002820191906000526020600020905b8160009054906101000a900473ffffffffffffffffffffffffffffffffffffffff1673ffffffffffffffffffffffffffffffffffffffff1681526020019060010190808311611fd9575b50505050503064174876e7ff6122ee565b50505050505050505050565b6120e460048261205091906133e9565b6000808054806020026020016040519081016040528092919081815260200182805480156120d357602002820191906000526020600020905b8160009054906101000a900473ffffffffffffffffffffffffffffffffffffffff1673ffffffffffffffffffffffffffffffffffffffff1681526020019060010190808311612089575b50505050503064174876e7ff6122ee565b6121896004826120f491906133e9565b6000600180548060200260200160405190810160405280929190818152602001828054801561217857602002820191906000526020600020905b8160009054906101000a900473ffffffffffffffffffffffffffffffffffffffff1673ffffffffffffffffffffffffffffffffffffffff168152602001906001019080831161212e575b50505050503064174876e7ff6122ee565b61222e60048261219991906133e9565b6000600280548060200260200160405190810160405280929190818152602001828054801561221d57602002820191906000526020600020905b8160009054906101000a900473ffffffffffffffffffffffffffffffffffffffff1673ffffffffffffffffffffffffffffffffffffffff16815260200190600101908083116121d3575b50505050503064174876e7ff6122ee565b6122d360048261223e91906133e9565b600060038054806020026020016040519081016040528092919081815260200182805480156122c257602002820191906000526020600020905b8160009054906101000a900473ffffffffffffffffffffffffffffffffffffffff1673ffffffffffffffffffffffffffffffffffffffff1681526020019060010190808311612278575b50505050503064174876e7ff6122ee565b50565b73ab594600376ec9fd91f8e885dadf0ce036862de081565b600d60009054906101000a900473ffffffffffffffffffffffffffffffffffffffff1673ffffffffffffffffffffffffffffffffffffffff166338ed173986868686866040518663ffffffff1660e01b8152600401612351959493929190613afe565b6000604051808303816000875af1158015612370573d6000803e3d6000fd5b505050506040513d6000823e3d601f19601f820116820180604052508101906123999190613c1b565b505050505050565b600a5481565b600381815481106123b757600080fd5b906000526020600020016000915054906101000a900473ffffffffffffffffffffffffffffffffffffffff1681565b73a058689f4bca95208bba3f265674ae95ded75b6d81565b60008273ffffffffffffffffffffffffffffffffffffffff166370a08231306040518263ffffffff1660e01b81526004016124399190612adb565b602060405180830381865afa158015612456573d6000803e3d6000fd5b505050506040513d601f19601f8201168201806040525081019061247a9190613304565b9050612487838383610efc565b505050565b60008290508073ffffffffffffffffffffffffffffffffffffffff1663a9059cbb83866040518363ffffffff1660e01b81526004016124cc92919061341a565b6020604051808303816000875af11580156124eb573d6000803e3d6000fd5b505050506040513d601f19601f8201168201806040525081019061250f919061346f565b5050505050565b73c907e116054ad103354f2d350fd2514433d57f6f81565b6000600c60008373ffffffffffffffffffffffffffffffffffffffff1673ffffffffffffffffffffffffffffffffffffffff168152602001908152602001600020549050919050565b732791bca1f2de4661ed88a30c99a7a9449aa8417481565b731bfd67037b42cf73acf2047067bd4f2c47d9bfd681565b60085481565b600181815481106125bd57600080fd5b906000526020600020016000915054906101000a900473ffffffffffffffffffffffffffffffffffffffff1681565b732791bca1f2de4661ed88a30c99a7a9449aa8417473ffffffffffffffffffffffffffffffffffffffff166323b872dd3330846040518463ffffffff1660e01b815260040161263d93929190613c64565b6020604051808303816000875af115801561265c573d6000803e3d6000fd5b505050506040513d601f19601f82011682018060405250810190612680919061346f565b5060006126b7730d500b1d8e8ef31e21c99d1db9a6444d3adf127073ab594600376ec9fd91f8e885dadf0ce036862de0601261130a565b905060006126ef73b5c064f955d8e7f38fe0460c556a72987494ee1773a058689f4bca95208bba3f265674ae95ded75b6d601261130a565b90506000612727737ceb23fd6bc0add59e62ac25578270cff1b9f61973f9680d99d6c9589e2a93a78a04a279e509205945601261130a565b9050600061275f731bfd67037b42cf73acf2047067bd4f2c47d9bfd673c907e116054ad103354f2d350fd2514433d57f6f600861130a565b9050600081838587612771919061349c565b61277b919061349c565b612785919061349c565b90506127ba732791bca1f2de4661ed88a30c99a7a9449aa8417473a5e0829caced8ffdd4de3c43696c57f7d7a678ff88610efc565b60008111156127d6576127d185858585858b611d65565b6127e0565b6127df86612040565b5b60008111156127f9576127f4338288610f9e565b612803565b6128023361135b565b5b505050505050565b6007818154811061281b57600080fd5b906000526020600020016000915054906101000a900473ffffffffffffffffffffffffffffffffffffffff1681565b6002818154811061285a57600080fd5b906000526020600020016000915054906101000a900473ffffffffffffffffffffffffffffffffffffffff1681565b6000600267ffffffffffffffff8111156128a6576128a5612f24565b5b6040519080825280602002602001820160405280156128d45781602001602082028036833780820191505090505b50905082816000815181106128ec576128eb61375b565b5b602002602001019073ffffffffffffffffffffffffffffffffffffffff16908173ffffffffffffffffffffffffffffffffffffffff1681525050732791bca1f2de4661ed88a30c99a7a9449aa841748160018151811061294f5761294e61375b565b5b602002602001019073ffffffffffffffffffffffffffffffffffffffff16908173ffffffffffffffffffffffffffffffffffffffff168152505061299c826000833064174876e7ff6122ee565b505050565b73a5e0829caced8ffdd4de3c43696c57f7d7a678ff81565b600d60009054906101000a900473ffffffffffffffffffffffffffffffffffffffff1681565b730d500b1d8e8ef31e21c99d1db9a6444d3adf127081565b600c6020528060005260406000206000915090505481565b600080821215612a285781612a2390613c9b565b612a2a565b815b9050919050565b6040518060e0016040528060608152602001600073ffffffffffffffffffffffffffffffffffffffff168152602001600073ffffffffffffffffffffffffffffffffffffffff168152602001600081526020016000815260200160008152602001600081525090565b600073ffffffffffffffffffffffffffffffffffffffff82169050919050565b6000612ac582612a9a565b9050919050565b612ad581612aba565b82525050565b6000602082019050612af06000830184612acc565b92915050565b6000604051905090565b600080fd5b600080fd5b612b1381612aba565b8114612b1e57600080fd5b50565b600081359050612b3081612b0a565b92915050565b600060208284031215612b4c57612b4b612b00565b5b6000612b5a84828501612b21565b91505092915050565b6000819050919050565b612b7681612b63565b82525050565b6000602082019050612b916000830184612b6d565b92915050565b60008060408385031215612bae57612bad612b00565b5b6000612bbc85828601612b21565b9250506020612bcd85828601612b21565b9150509250929050565b6000819050919050565b612bea81612bd7565b82525050565b6000602082019050612c056000830184612be1565b92915050565b612c1481612bd7565b8114612c1f57600080fd5b50565b600081359050612c3181612c0b565b92915050565b600080600060608486031215612c5057612c4f612b00565b5b6000612c5e86828701612b21565b9350506020612c6f86828701612b21565b9250506040612c8086828701612c22565b9150509250925092565b600080600060608486031215612ca357612ca2612b00565b5b6000612cb186828701612b21565b9350506020612cc286828701612c22565b9250506040612cd386828701612c22565b9150509250925092565b600060208284031215612cf357612cf2612b00565b5b6000612d0184828501612c22565b91505092915050565b600080fd5b600080fd5b600080fd5b60008083601f840112612d2f57612d2e612d0a565b5b8235905067ffffffffffffffff811115612d4c57612d4b612d0f565b5b602083019150836001820283011115612d6857612d67612d14565b5b9250929050565b60008060208385031215612d8657612d85612b00565b5b600083013567ffffffffffffffff811115612da457612da3612b05565b5b612db085828601612d19565b92509250509250929050565b60008115159050919050565b612dd181612dbc565b82525050565b600081519050919050565b600082825260208201905092915050565b60005b83811015612e11578082015181840152602081019050612df6565b60008484015250505050565b6000601f19601f8301169050919050565b6000612e3982612dd7565b612e438185612de2565b9350612e53818560208601612df3565b612e5c81612e1d565b840191505092915050565b6000604082019050612e7c6000830185612dc8565b8181036020830152612e8e8184612e2e565b90509392505050565b60008060008060008060c08789031215612eb457612eb3612b00565b5b6000612ec289828a01612c22565b9650506020612ed389828a01612c22565b9550506040612ee489828a01612c22565b9450506060612ef589828a01612c22565b9350506080612f0689828a01612c22565b92505060a0612f1789828a01612c22565b9150509295509295509295565b7f4e487b7100000000000000000000000000000000000000000000000000000000600052604160045260246000fd5b612f5c82612e1d565b810181811067ffffffffffffffff82111715612f7b57612f7a612f24565b5b80604052505050565b6000612f8e612af6565b9050612f9a8282612f53565b919050565b600067ffffffffffffffff821115612fba57612fb9612f24565b5b602082029050602081019050919050565b6000612fde612fd984612f9f565b612f84565b9050808382526020820190506020840283018581111561300157613000612d14565b5b835b8181101561302a57806130168882612b21565b845260208401935050602081019050613003565b5050509392505050565b600082601f83011261304957613048612d0a565b5b8135613059848260208601612fcb565b91505092915050565b600080600080600060a0868803121561307e5761307d612b00565b5b600061308c88828901612c22565b955050602061309d88828901612c22565b945050604086013567ffffffffffffffff8111156130be576130bd612b05565b5b6130ca88828901613034565b93505060606130db88828901612b21565b92505060806130ec88828901612c22565b9150509295509295909350565b60008060006060848603121561311257613111612b00565b5b600061312086828701612c22565b935050602061313186828701612b21565b925050604061314286828701612b21565b9150509250925092565b6000806040838503121561316357613162612b00565b5b600061317185828601612b21565b925050602061318285828601612c22565b9150509250929050565b6000819050919050565b60006131b16131ac6131a784612a9a565b61318c565b612a9a565b9050919050565b60006131c382613196565b9050919050565b60006131d5826131b8565b9050919050565b6131e5816131ca565b82525050565b600060208201905061320060008301846131dc565b92915050565b600069ffffffffffffffffffff82169050919050565b61322581613206565b811461323057600080fd5b50565b6000815190506132428161321c565b92915050565b61325181612b63565b811461325c57600080fd5b50565b60008151905061326e81613248565b92915050565b60008151905061328381612c0b565b92915050565b600080600080600060a086880312156132a5576132a4612b00565b5b60006132b388828901613233565b95505060206132c48882890161325f565b94505060406132d588828901613274565b93505060606132e688828901613274565b92505060806132f788828901613233565b9150509295509295909350565b60006020828403121561331a57613319612b00565b5b600061332884828501613274565b91505092915050565b7f4e487b7100000000000000000000000000000000000000000000000000000000600052601160045260246000fd5b600061336b82612bd7565b915061337683612bd7565b9250817fffffffffffffffffffffffffffffffffffffffffffffffffffffffffffffffff04831182151516156133af576133ae613331565b5b828202905092915050565b7f4e487b7100000000000000000000000000000000000000000000000000000000600052601260045260246000fd5b60006133f482612bd7565b91506133ff83612bd7565b92508261340f5761340e6133ba565b5b828204905092915050565b600060408201905061342f6000830185612acc565b61343c6020830184612be1565b9392505050565b61344c81612dbc565b811461345757600080fd5b50565b60008151905061346981613443565b92915050565b60006020828403121561348557613484612b00565b5b60006134938482850161345a565b91505092915050565b60006134a782612bd7565b91506134b283612bd7565b92508282019050808211156134ca576134c9613331565b5b92915050565b60006134db82612bd7565b91506134e683612bd7565b92508282039050818111156134fe576134fd613331565b5b92915050565b6000806040838503121561351b5761351a612b00565b5b600083013567ffffffffffffffff81111561353957613538612b05565b5b61354585828601613034565b925050602061355685828601612c22565b9150509250929050565b600082825260208201905092915050565b7f4572726f72202d2054686973207573657220686173206e6f2073686172657300600082015250565b60006135a7601f83613560565b91506135b282613571565b602082019050919050565b600060208201905081810360008301526135d68161359a565b9050919050565b60008160011c9050919050565b6000808291508390505b6001851115613634578086048111156136105761360f613331565b5b600185161561361f5780820291505b808102905061362d856135dd565b94506135f4565b94509492505050565b60008261364d5760019050613709565b8161365b5760009050613709565b8160018114613671576002811461367b576136aa565b6001915050613709565b60ff84111561368d5761368c613331565b5b8360020a9150848211156136a4576136a3613331565b5b50613709565b5060208310610133831016604e8410600b84101617156136df5782820a9050838111156136da576136d9613331565b5b613709565b6136ec84848460016135ea565b9250905081840481111561370357613702613331565b5b81810290505b9392505050565b600061371b82612bd7565b915061372683612bd7565b92506137537fffffffffffffffffffffffffffffffffffffffffffffffffffffffffffffffff848461363d565b905092915050565b7f4e487b7100000000000000000000000000000000000000000000000000000000600052603260045260246000fd5b600061379582612b63565b91506137a083612b63565b9250827f7fffffffffffffffffffffffffffffffffffffffffffffffffffffffffffffff04821160008413600084131616156137df576137de613331565b5b817f8000000000000000000000000000000000000000000000000000000000000000058312600084126000841316161561381c5761381b613331565b5b827f8000000000000000000000000000000000000000000000000000000000000000058212600084136000841216161561385957613858613331565b5b827f7fffffffffffffffffffffffffffffffffffffffffffffffffffffffffffffff058212600084126000841216161561389657613895613331565b5b828202905092915050565b60006138ac82612b63565b91506138b783612b63565b9250826138c7576138c66133ba565b5b600160000383147f800000000000000000000000000000000000000000000000000000000000000083141615613900576138ff613331565b5b828205905092915050565b600061391682612b63565b915061392183612b63565b92508282019050828112156000831216838212600084121516171561394957613948613331565b5b92915050565b600061395a82612bd7565b91507fffffffffffffffffffffffffffffffffffffffffffffffffffffffffffffffff820361398c5761398b613331565b5b600182019050919050565b60006139a282612b63565b91506139ad83612b63565b92508282039050818112600084121682821360008512151617156139d4576139d3613331565b5b92915050565b600060ff82169050919050565b60006139f2826139da565b915060ff8203613a0557613a04613331565b5b600182019050919050565b600081519050919050565b600082825260208201905092915050565b6000819050602082019050919050565b613a4581612aba565b82525050565b6000613a578383613a3c565b60208301905092915050565b6000602082019050919050565b6000613a7b82613a10565b613a858185613a1b565b9350613a9083613a2c565b8060005b83811015613ac1578151613aa88882613a4b565b9750613ab383613a63565b925050600181019050613a94565b5085935050505092915050565b60006040820190508181036000830152613ae88185613a70565b9050613af76020830184612b6d565b9392505050565b600060a082019050613b136000830188612be1565b613b206020830187612be1565b8181036040830152613b328186613a70565b9050613b416060830185612acc565b613b4e6080830184612be1565b9695505050505050565b600067ffffffffffffffff821115613b7357613b72612f24565b5b602082029050602081019050919050565b6000613b97613b9284613b58565b612f84565b90508083825260208201905060208402830185811115613bba57613bb9612d14565b5b835b81811015613be35780613bcf8882613274565b845260208401935050602081019050613bbc565b5050509392505050565b600082601f830112613c0257613c01612d0a565b5b8151613c12848260208601613b84565b91505092915050565b600060208284031215613c3157613c30612b00565b5b600082015167ffffffffffffffff811115613c4f57613c4e612b05565b5b613c5b84828501613bed565b91505092915050565b6000606082019050613c796000830186612acc565b613c866020830185612acc565b613c936040830184612be1565b949350505050565b6000613ca682612b63565b91507f80000000000000000000000000000000000000000000000000000000000000008203613cd857613cd7613331565b5b81600003905091905056fea26469706673582212201abfbc3a84c02569731c3dd73dbe476bf45c56e282422731c9d2919160d13d3464736f6c63430008100033",
  "immutableReferences": {},
  "source": "pragma solidity ^0.8.0;\npragma experimental ABIEncoderV2;\n//import statements go here\nimport \"./interfaces/IUniswapV2Router02.sol\";\nimport \"./interfaces/IUniswapV2Router01.sol\";\nimport \"./interfaces/IERC20.sol\";\nimport \"@chainlink/contracts/src/v0.8/interfaces/AggregatorV3Interface.sol\";\n// KeeperCompatible.sol imports the functions from both ./KeeperBase.sol and\n// ./interfaces/KeeperCompatibleInterface.sol\nimport \"@chainlink/contracts/src/v0.8/KeeperCompatible.sol\";\n\ncontract autoBalancer is KeeperCompatibleInterface {\n    address public constant USDC_ADDRESS = 0x2791Bca1f2de4661ED88A30C99A7a9449Aa84174;\n    \n    address public constant WMATIC_ADDRESS = 0x0d500B1d8E8eF31E21C99d1Db9A6444d3ADf1270;\n    address public constant QUICK_ADDRESS = 0xB5C064F955D8e7F38fE0460C556a72987494eE17;\n    address public constant WETH_ADDRESS = 0x7ceB23fD6bC0adD59E62ac25578270cFf1b9f619;\n    address public constant WBTC_ADDRESS = 0x1BFD67037B42Cf73acF2047067bd4F2C47D9BfD6;\n\n    address public constant MATIC_USD_ORACLE = 0xAB594600376Ec9fD91F8e885dADF0CE036862dE0;\n    address public constant BTC_USD_ORACLE = 0xc907E116054Ad103354f2D350FD2514433D57F6f;\n    address public constant ETH_USD_ORACLE = 0xF9680D99D6C9589e2a93a78A04A279e509205945;\n    address public constant QUICK_USD_ORACLE = 0xa058689f4bCa95208bba3F265674AE95dED75B6D;\n\n    address[] public USDCToWMATICPath = [USDC_ADDRESS, WMATIC_ADDRESS];\n    address[] public USDCToQUICKPath = [USDC_ADDRESS, QUICK_ADDRESS];\n    address[] public USDCToWETHPath = [USDC_ADDRESS, WETH_ADDRESS];\n    address[] public USDCToWBTCPath = [USDC_ADDRESS, WBTC_ADDRESS];\n\n    address[] public WMATICToUSDCPath = [WMATIC_ADDRESS, USDC_ADDRESS];\n    address[] public QUICKToUSDCPath = [QUICK_ADDRESS, USDC_ADDRESS];\n    address[] public WETHToUSDCPath = [WETH_ADDRESS, USDC_ADDRESS];\n    address[] public WBTCToUSDCPath = [WBTC_ADDRESS, USDC_ADDRESS];\n\n    address public constant QUICKSWAP_ROUTER = 0xa5E0829CaCEd8fFDD4De3c43696c57F7D7A678ff;\n    \n    uint256 public totalNumberOfShares;\n    uint256 public lastTimeStamp;\n    uint256 public interval;\n    uint256 public counter;\n\n    mapping(address => uint256) public userNumberOfShares; \n\n    IUniswapV2Router02 public quickSwapRouter = IUniswapV2Router02(QUICKSWAP_ROUTER);\n\n    struct Coin {\n        string symbol;\n        address tokenAddress;\n        address oracleAddress;\n        // uint256 decimals;\n        int256 balance;\n        int256 usd_balance;\n        int256 diff_from_average;\n        int256 usd_exchange_rate;\n    }\n\n    /**\n     * Returns the latest price\n     */\n    function getLatestPrice(address _oracle_address) public view returns (int) {\n        (\n            uint80 roundID, \n            int price,\n            uint startedAt,\n            uint timeStamp,\n            uint80 answeredInRound\n        ) = AggregatorV3Interface(_oracle_address).latestRoundData();\n        return price;\n    }\n\n    function checkUpkeep(bytes calldata /* checkData */) external view override returns (bool upkeepNeeded, bytes memory performData) {\n        upkeepNeeded = (block.timestamp - lastTimeStamp) > interval;\n        // this is where I need to do off chain calcs to be fed into the rebalance\n        Coin[] memory array_coins = new Coin[](4);\n    \n        Coin memory wmatic;\n        wmatic.tokenAddress = WMATIC_ADDRESS;\n        wmatic.oracleAddress = MATIC_USD_ORACLE;\n        Coin memory quick;\n        quick.tokenAddress = QUICK_ADDRESS;\n        quick.oracleAddress = QUICK_USD_ORACLE;\n        Coin memory wbtc;\n        wbtc.tokenAddress = WBTC_ADDRESS;\n        wbtc.oracleAddress = BTC_USD_ORACLE;\n        Coin memory weth;\n        weth.tokenAddress = WETH_ADDRESS;\n        weth.oracleAddress = ETH_USD_ORACLE;\n\n        array_coins[0] = wmatic;\n        array_coins[1] = quick;\n        array_coins[2] = wbtc;\n        array_coins[3] = weth;\n        \n        int256 total_in_usd = 0;\n        int no_of_assets = int256(array_coins.length);\n\n        for (uint i = 0; i < array_coins.length; i++) {\n            IERC20 coin_instance = IERC20(array_coins[i].tokenAddress);\n            array_coins[i].balance = int256(coin_instance.balanceOf(address(this)));\n            array_coins[i].usd_exchange_rate = getLatestPrice(array_coins[i].oracleAddress);\n            // array_coins[i].decimals = getDecimals(array_coins[i].address);\n            array_coins[i].usd_balance = array_coins[i].balance * array_coins[i].usd_exchange_rate / (10 ** 8); //do I need to reintroduce decimals here?\n            total_in_usd += array_coins[i].usd_balance;\n        }\n\n        int256 target_per_asset = total_in_usd / no_of_assets;\n\n        for (uint i = 0; i < array_coins.length; i++) {\n            array_coins[i].diff_from_average = array_coins[i].usd_balance - target_per_asset;\n        }\n\n        // Coin memory max_coin = find_max(array_coins);\n        int256 maxDiff; // default 0, the lowest value of `uint256`\n        uint8 maxCoin_index;\n        for (uint8 i = 0; i < array_coins.length; i++) {\n            if (array_coins[i].diff_from_average > maxDiff) {\n                maxCoin_index = i;\n            }\n        }\n        // Coin memory min_coin = find_min(array_coins);\n        int256 minDiff = type(int256).max; // the highest value of int256\n        uint8 minCoin_index;\n        for (uint8 i = 0; i < array_coins.length; i++) {\n            if (array_coins[i].diff_from_average < minDiff) {\n                minCoin_index = i;\n            }\n        }\n\n        address[] memory path1 = new address[](2);\n        path1[0] = array_coins[maxCoin_index].tokenAddress;\n        path1[1] = array_coins[minCoin_index].tokenAddress;\n        int256 amount1;\n        if (array_coins[maxCoin_index].diff_from_average > abs(array_coins[minCoin_index].diff_from_average)) {\n            amount1 = abs(array_coins[minCoin_index].diff_from_average);\n        } else {\n            amount1 = array_coins[maxCoin_index].diff_from_average;\n        }\n\n        performData = abi.encode(path1, amount1); //, path2, amount2, path3, amount3\n        // We don't use the checkData in this example. The checkData is defined when the Upkeep was registered.\n        return (upkeepNeeded, performData);\n    }\n\n    function performUpkeep(bytes calldata performData) external override {\n        //We highly recommend revalidating the upkeep in the performUpkeep function\n        if ((block.timestamp - lastTimeStamp) > interval ) {\n            lastTimeStamp = block.timestamp;\n            counter = counter + 1;\n            // this is where I actually do the rebalance on chain\n            address[] memory path1 = new address[](2);\n            uint256 amount1;\n            (path1, amount1)= abi.decode(performData, (address[], uint256)); //, path2, amount2, path3, amount3\n            swap(amount1, uint256(0), path1, address(this), 99999999999);\n            }\n            // The performData is generated by the Keeper's call to your checkUpkeep function\n    }\n\n    function find_max(Coin[] memory coin_array) internal pure returns (Coin memory maxCoin) {\n                require(coin_array.length > 0); // throw an exception if the condition is not met\n                int256 maxDiff; // default 0, the lowest value of `uint256`\n\n                for (uint256 i = 0; i < coin_array.length; i++) {\n                    if (coin_array[i].diff_from_average > maxDiff) {\n                        maxCoin = coin_array[i];\n                    }\n                }\n                return maxCoin;\n            }\n\n    function find_min(Coin[] memory coin_array) internal pure returns (Coin memory minCoin) {\n                require(coin_array.length > 0); // throw an exception if the condition is not met\n                int256 minDiff = type(int256).max; // default 0, the lowest value of `uint256`\n\n                for (uint256 i = 0; i < coin_array.length; i++) {\n                    if (coin_array[i].diff_from_average < minDiff) {\n                        minCoin = coin_array[i];\n                    }\n                }\n                return minCoin;\n            }\n\n    function abs(int x) private pure returns (int) {\n        return x >= 0 ? x : -x;\n    }\n\n    function updateSharesOnWithdrawal(address user) public { //make this ownable - only contract itself can update this?\n        require (userNumberOfShares[user] > 0, \"Error - This user has no shares\");\n        totalNumberOfShares -= userNumberOfShares[user];\n        userNumberOfShares[user] = 0;\n    }\n\n    function getUserShares(address user) public view returns (uint256 userShares) {\n        return userNumberOfShares[user];\n    }\n\n    function approve_spending (address token_address, address spender_address, uint256 amount_to_approve) public {\n            IERC20(token_address).approve(spender_address, amount_to_approve);\n    }\n    \n    receive() external payable {\n    }\n\n    function depositUserFunds (uint256 amount_) public  {\n        IERC20(USDC_ADDRESS).transferFrom(msg.sender, address(this), amount_);\n\n        uint256 WMATIC_balanceInUSD = getUSDTokenBalanceOf(WMATIC_ADDRESS, MATIC_USD_ORACLE, 18);\n        uint256 QUICK_balanceInUSD = getUSDTokenBalanceOf(QUICK_ADDRESS, QUICK_USD_ORACLE, 18);\n        uint256 WETH_balanceInUSD = getUSDTokenBalanceOf(WETH_ADDRESS, ETH_USD_ORACLE, 18);\n        uint256 WBTC_balanceInUSD = getUSDTokenBalanceOf(WBTC_ADDRESS, BTC_USD_ORACLE, 8);\n\n        uint256 Total_in_USD = WMATIC_balanceInUSD + QUICK_balanceInUSD + WETH_balanceInUSD + WBTC_balanceInUSD;\n        \n        approve_spending(USDC_ADDRESS, QUICKSWAP_ROUTER, amount_);\n\n        if (Total_in_USD > 0) {\n            swapProportionately(WMATIC_balanceInUSD, QUICK_balanceInUSD, WETH_balanceInUSD, WBTC_balanceInUSD, Total_in_USD, amount_);\n        } else {\n            swapIntoFourEqualParts(amount_);\n        }\n        \n        if (Total_in_USD > 0) {\n            updateSharesOnDeposit(msg.sender, Total_in_USD, amount_);\n        } else {\n            setSharesFirstTime(msg.sender);\n        }\n    }\n\n    function getUSDTokenBalanceOf(address token_address, address oracle_address, uint256 token_decimals) public view returns (uint256) {\n        // uint256 token_decimals = ERC20(token_address).decimals();\n        return tokenBalanceOf(token_address, address(this))\n         * (uint256(getLatestPrice(oracle_address)))\n         / (10**(token_decimals+2));\n    }\n\n    function swapProportionately(uint256 WMATIC_amount, uint256 QUICK_amount, uint256 WETH_amount, uint256 WBTC_amount, uint256 totalUSDAmount, uint256 depositAmount) public {\n        uint256 WMATIC_share = WMATIC_amount * (depositAmount) / (totalUSDAmount); \n        uint256 QUICK_share = QUICK_amount * (depositAmount) / (totalUSDAmount);\n        uint256 WETH_share = WETH_amount * (depositAmount) / (totalUSDAmount);\n        uint256 WBTC_share = WBTC_amount * (depositAmount) / (totalUSDAmount);\n\n        swap(WMATIC_share, uint256(0), USDCToWMATICPath, address(this), 99999999999);\n        swap(QUICK_share, uint256(0), USDCToQUICKPath, address(this), 99999999999);\n        swap(WETH_share, uint256(0), USDCToWETHPath, address(this), 99999999999);\n        swap(WBTC_share, uint256(0), USDCToWBTCPath, address(this), 99999999999);\n    }\n\n    function swapIntoFourEqualParts(uint256 amount) public {\n        swap(amount / 4, uint256(0), USDCToWMATICPath, address(this), 99999999999);\n        swap(amount / 4, uint256(0), USDCToQUICKPath, address(this), 99999999999);\n        swap(amount / 4, uint256(0), USDCToWETHPath, address(this), 99999999999);\n        swap(amount / 4, uint256(0), USDCToWBTCPath, address(this), 99999999999);\n    }\n\n    function setSharesFirstTime(address user) public {\n        userNumberOfShares[user] = 100000000;\n        totalNumberOfShares = userNumberOfShares[user];\n    }\n\n    function updateSharesOnDeposit(address user, uint256 total_in_USD, uint256 deposit_amount) public { //make this ownable - only contract itself can update this?\n        uint256 newSharesForUser = deposit_amount * (totalNumberOfShares) / (total_in_USD);\n        totalNumberOfShares = totalNumberOfShares + newSharesForUser;\n        if (userNumberOfShares[user] > 0) {\n            userNumberOfShares[user] = userNumberOfShares[user] + newSharesForUser;\n        } else {\n            userNumberOfShares[user] = newSharesForUser;\n        }\n    }\n\n    function withdrawUserFunds(address user) public {\n        //do I need an approval here?\n\n        uint256 WMATIC_amount = userNumberOfShares[user] * (tokenBalanceOf(WMATIC_ADDRESS, address(this))) / (totalNumberOfShares);\n        uint256 QUICK_amount = userNumberOfShares[user] * (tokenBalanceOf(QUICK_ADDRESS, address(this))) / (totalNumberOfShares);\n        uint256 WETH_amount = userNumberOfShares[user] * (tokenBalanceOf(WETH_ADDRESS, address(this))) / (totalNumberOfShares);\n        uint256 WBTC_amount = userNumberOfShares[user] * (tokenBalanceOf(WBTC_ADDRESS, address(this))) / (totalNumberOfShares);\n\n        approve_spending(WMATIC_ADDRESS, QUICKSWAP_ROUTER, WMATIC_amount);\n        approve_spending(QUICK_ADDRESS, QUICKSWAP_ROUTER, QUICK_amount);\n        approve_spending(WETH_ADDRESS, QUICKSWAP_ROUTER, WETH_amount);\n        approve_spending(WBTC_ADDRESS, QUICKSWAP_ROUTER, WBTC_amount);\n\n        swapBackToUSDC(WMATIC_ADDRESS, WMATIC_amount);\n        swapBackToUSDC(QUICK_ADDRESS, QUICK_amount);\n        swapBackToUSDC(WETH_ADDRESS, WETH_amount);\n        swapBackToUSDC(WBTC_ADDRESS, WBTC_amount);\n\n        // approveSpendingWholeBalance(USDC_ADDRESS, BENTOBOX_MASTER_CONTRACT_ADDRESS);\n\n        uint256 USDC_amount = tokenBalanceOf(USDC_ADDRESS, address(this));\n        withdraw(USDC_amount, USDC_ADDRESS, user);\n\n        updateSharesOnWithdrawal(user);\n    }\n\n    function withdraw(uint256 amount_, address token_address, address address_to) public  {\n        IERC20 token_ = IERC20(token_address); //is this right?\n\n        token_.transfer(address_to, amount_);\n    }\n\n    function approveSpendingWholeBalance(address _token, address _spender) public {\n        uint256 tokenBalance = IERC20(_token).balanceOf(address(this));\n        approve_spending(_token, _spender, tokenBalance);\n    }\n\n    function swapBackToUSDC(address _token, uint256 _amount) public {\n        address[] memory path = new address[](2);\n        path[0] = _token;\n        path[1] = USDC_ADDRESS;\n        swap(_amount, uint256(0), path, address(this), 99999999999);\n    }\n    \n    // function withdraw_matic(uint256 amount_) public payable {\n    //     transfer(msg.sender, amount_);\n    // }\n\n    function tokenBalanceOf(address token_address, address user_address) public view returns (uint256 token_balance) {\n        IERC20 _token = IERC20(token_address);\n        token_balance = _token.balanceOf(user_address);\n        return token_balance;\n    }\n    \n    function swap(uint256 _amountIn, uint256 _amountOutMin, address[] memory _path, address _acct, uint256 _deadline) public {\n        \n       quickSwapRouter.swapExactTokensForTokens(\n            _amountIn,\n            _amountOutMin,\n            _path,\n            _acct,\n            _deadline);\n        }\n        \n    }\n    \n\n    ",
  "sourcePath": "/Users/richardjamieson/Documents/GitHub/BentoBoxBalancer/contracts/autoBalancer.sol",
  "compiler": {
    "name": "solc",
    "version": "0.8.16+commit.07a7930e.Emscripten.clang"
  },
  "schemaVersion": "3.4.9",
  "updatedAt": "2022-08-14T16:20:44.099Z",
  "networkType": "ethereum",
  "devdoc": {
    "kind": "dev",
    "methods": {
      "performUpkeep(bytes)": {
        "details": "The input to this method should not be trusted, and the caller of the method should not even be restricted to any single registry. Anyone should be able call it, and the input should be validated, there is no guarantee that the data passed in is the performData returned from checkUpkeep. This could happen due to malicious keepers, racing keepers, or simply a state change while the performUpkeep transaction is waiting for confirmation. Always validate the data passed in.",
        "params": {
          "performData": "is the data which was passed back from the checkData simulation. If it is encoded, it can easily be decoded into other types by calling `abi.decode`. This data should not be trusted, and should be validated against the contract's current state."
        }
      }
    },
    "version": 1
  },
  "userdoc": {
    "kind": "user",
    "methods": {
      "getLatestPrice(address)": {
        "notice": "Returns the latest price"
      },
      "performUpkeep(bytes)": {
        "notice": "method that is actually executed by the keepers, via the registry. The data returned by the checkUpkeep simulation will be passed into this method to actually be executed."
      }
    },
    "version": 1
  }
}