{
  "contractName": "autoBalancer",
  "abi": [
    {
      "inputs": [],
      "name": "BTC_USD_ORACLE",
      "outputs": [
        {
          "internalType": "address",
          "name": "",
          "type": "address"
        }
      ],
      "stateMutability": "view",
      "type": "function",
      "constant": true
    },
    {
      "inputs": [],
      "name": "ETH_USD_ORACLE",
      "outputs": [
        {
          "internalType": "address",
          "name": "",
          "type": "address"
        }
      ],
      "stateMutability": "view",
      "type": "function",
      "constant": true
    },
    {
      "inputs": [],
      "name": "MATIC_USD_ORACLE",
      "outputs": [
        {
          "internalType": "address",
          "name": "",
          "type": "address"
        }
      ],
      "stateMutability": "view",
      "type": "function",
      "constant": true
    },
    {
      "inputs": [],
      "name": "SUSHISWAP_ROUTER",
      "outputs": [
        {
          "internalType": "address",
          "name": "",
          "type": "address"
        }
      ],
      "stateMutability": "view",
      "type": "function",
      "constant": true
    },
    {
      "inputs": [
        {
          "internalType": "uint256",
          "name": "",
          "type": "uint256"
        }
      ],
      "name": "SUSHIToUSDCPath",
      "outputs": [
        {
          "internalType": "address",
          "name": "",
          "type": "address"
        }
      ],
      "stateMutability": "view",
      "type": "function",
      "constant": true
    },
    {
      "inputs": [],
      "name": "SUSHI_ADDRESS",
      "outputs": [
        {
          "internalType": "address",
          "name": "",
          "type": "address"
        }
      ],
      "stateMutability": "view",
      "type": "function",
      "constant": true
    },
    {
      "inputs": [],
      "name": "SUSHI_USD_ORACLE",
      "outputs": [
        {
          "internalType": "address",
          "name": "",
          "type": "address"
        }
      ],
      "stateMutability": "view",
      "type": "function",
      "constant": true
    },
    {
      "inputs": [
        {
          "internalType": "uint256",
          "name": "",
          "type": "uint256"
        }
      ],
      "name": "USDCToSUSHIPath",
      "outputs": [
        {
          "internalType": "address",
          "name": "",
          "type": "address"
        }
      ],
      "stateMutability": "view",
      "type": "function",
      "constant": true
    },
    {
      "inputs": [
        {
          "internalType": "uint256",
          "name": "",
          "type": "uint256"
        }
      ],
      "name": "USDCToWBTCPath",
      "outputs": [
        {
          "internalType": "address",
          "name": "",
          "type": "address"
        }
      ],
      "stateMutability": "view",
      "type": "function",
      "constant": true
    },
    {
      "inputs": [
        {
          "internalType": "uint256",
          "name": "",
          "type": "uint256"
        }
      ],
      "name": "USDCToWETHPath",
      "outputs": [
        {
          "internalType": "address",
          "name": "",
          "type": "address"
        }
      ],
      "stateMutability": "view",
      "type": "function",
      "constant": true
    },
    {
      "inputs": [
        {
          "internalType": "uint256",
          "name": "",
          "type": "uint256"
        }
      ],
      "name": "USDCToWMATICPath",
      "outputs": [
        {
          "internalType": "address",
          "name": "",
          "type": "address"
        }
      ],
      "stateMutability": "view",
      "type": "function",
      "constant": true
    },
    {
      "inputs": [],
      "name": "USDC_ADDRESS",
      "outputs": [
        {
          "internalType": "address",
          "name": "",
          "type": "address"
        }
      ],
      "stateMutability": "view",
      "type": "function",
      "constant": true
    },
    {
      "inputs": [
        {
          "internalType": "uint256",
          "name": "",
          "type": "uint256"
        }
      ],
      "name": "WBTCToUSDCPath",
      "outputs": [
        {
          "internalType": "address",
          "name": "",
          "type": "address"
        }
      ],
      "stateMutability": "view",
      "type": "function",
      "constant": true
    },
    {
      "inputs": [],
      "name": "WBTC_ADDRESS",
      "outputs": [
        {
          "internalType": "address",
          "name": "",
          "type": "address"
        }
      ],
      "stateMutability": "view",
      "type": "function",
      "constant": true
    },
    {
      "inputs": [
        {
          "internalType": "uint256",
          "name": "",
          "type": "uint256"
        }
      ],
      "name": "WETHToUSDCPath",
      "outputs": [
        {
          "internalType": "address",
          "name": "",
          "type": "address"
        }
      ],
      "stateMutability": "view",
      "type": "function",
      "constant": true
    },
    {
      "inputs": [],
      "name": "WETH_ADDRESS",
      "outputs": [
        {
          "internalType": "address",
          "name": "",
          "type": "address"
        }
      ],
      "stateMutability": "view",
      "type": "function",
      "constant": true
    },
    {
      "inputs": [
        {
          "internalType": "uint256",
          "name": "",
          "type": "uint256"
        }
      ],
      "name": "WMATICToUSDCPath",
      "outputs": [
        {
          "internalType": "address",
          "name": "",
          "type": "address"
        }
      ],
      "stateMutability": "view",
      "type": "function",
      "constant": true
    },
    {
      "inputs": [],
      "name": "WMATIC_ADDRESS",
      "outputs": [
        {
          "internalType": "address",
          "name": "",
          "type": "address"
        }
      ],
      "stateMutability": "view",
      "type": "function",
      "constant": true
    },
    {
      "inputs": [],
      "name": "counter",
      "outputs": [
        {
          "internalType": "uint256",
          "name": "",
          "type": "uint256"
        }
      ],
      "stateMutability": "view",
      "type": "function",
      "constant": true
    },
    {
      "inputs": [],
      "name": "interval",
      "outputs": [
        {
          "internalType": "uint256",
          "name": "",
          "type": "uint256"
        }
      ],
      "stateMutability": "view",
      "type": "function",
      "constant": true
    },
    {
      "inputs": [],
      "name": "lastTimeStamp",
      "outputs": [
        {
          "internalType": "uint256",
          "name": "",
          "type": "uint256"
        }
      ],
      "stateMutability": "view",
      "type": "function",
      "constant": true
    },
    {
      "inputs": [],
      "name": "sushiSwapRouter",
      "outputs": [
        {
          "internalType": "contract IUniswapV2Router02",
          "name": "",
          "type": "address"
        }
      ],
      "stateMutability": "view",
      "type": "function",
      "constant": true
    },
    {
      "inputs": [],
      "name": "totalNumberOfShares",
      "outputs": [
        {
          "internalType": "uint256",
          "name": "",
          "type": "uint256"
        }
      ],
      "stateMutability": "view",
      "type": "function",
      "constant": true
    },
    {
      "inputs": [
        {
          "internalType": "address",
          "name": "",
          "type": "address"
        }
      ],
      "name": "userNumberOfShares",
      "outputs": [
        {
          "internalType": "uint256",
          "name": "",
          "type": "uint256"
        }
      ],
      "stateMutability": "view",
      "type": "function",
      "constant": true
    },
    {
      "stateMutability": "payable",
      "type": "receive",
      "payable": true
    },
    {
      "inputs": [
        {
          "internalType": "address",
          "name": "_oracle_address",
          "type": "address"
        }
      ],
      "name": "getLatestPrice",
      "outputs": [
        {
          "internalType": "int256",
          "name": "",
          "type": "int256"
        }
      ],
      "stateMutability": "view",
      "type": "function",
      "constant": true
    },
    {
      "inputs": [
        {
          "internalType": "bytes",
          "name": "",
          "type": "bytes"
        }
      ],
      "name": "checkUpkeep",
      "outputs": [
        {
          "internalType": "bool",
          "name": "upkeepNeeded",
          "type": "bool"
        },
        {
          "internalType": "bytes",
          "name": "performData",
          "type": "bytes"
        }
      ],
      "stateMutability": "view",
      "type": "function",
      "constant": true
    },
    {
      "inputs": [
        {
          "internalType": "bytes",
          "name": "performData",
          "type": "bytes"
        }
      ],
      "name": "performUpkeep",
      "outputs": [],
      "stateMutability": "nonpayable",
      "type": "function"
    },
    {
      "inputs": [
        {
          "internalType": "address",
          "name": "user",
          "type": "address"
        }
      ],
      "name": "updateSharesOnWithdrawal",
      "outputs": [],
      "stateMutability": "nonpayable",
      "type": "function"
    },
    {
      "inputs": [
        {
          "internalType": "address",
          "name": "user",
          "type": "address"
        }
      ],
      "name": "getUserShares",
      "outputs": [
        {
          "internalType": "uint256",
          "name": "userShares",
          "type": "uint256"
        }
      ],
      "stateMutability": "view",
      "type": "function",
      "constant": true
    },
    {
      "inputs": [
        {
          "internalType": "address",
          "name": "token_address",
          "type": "address"
        },
        {
          "internalType": "address",
          "name": "spender_address",
          "type": "address"
        },
        {
          "internalType": "uint256",
          "name": "amount_to_approve",
          "type": "uint256"
        }
      ],
      "name": "approve_spending",
      "outputs": [],
      "stateMutability": "nonpayable",
      "type": "function"
    },
    {
      "inputs": [
        {
          "internalType": "uint256",
          "name": "amount_",
          "type": "uint256"
        },
        {
          "internalType": "address",
          "name": "address_from",
          "type": "address"
        }
      ],
      "name": "depositUserFunds",
      "outputs": [],
      "stateMutability": "nonpayable",
      "type": "function"
    },
    {
      "inputs": [
        {
          "internalType": "address",
          "name": "token_address",
          "type": "address"
        },
        {
          "internalType": "address",
          "name": "oracle_address",
          "type": "address"
        },
        {
          "internalType": "uint256",
          "name": "token_decimals",
          "type": "uint256"
        }
      ],
      "name": "getUSDTokenBalanceOf",
      "outputs": [
        {
          "internalType": "uint256",
          "name": "",
          "type": "uint256"
        }
      ],
      "stateMutability": "view",
      "type": "function",
      "constant": true
    },
    {
      "inputs": [
        {
          "internalType": "uint256",
          "name": "WMATIC_amount",
          "type": "uint256"
        },
        {
          "internalType": "uint256",
          "name": "SUSHI_amount",
          "type": "uint256"
        },
        {
          "internalType": "uint256",
          "name": "WETH_amount",
          "type": "uint256"
        },
        {
          "internalType": "uint256",
          "name": "WBTC_amount",
          "type": "uint256"
        },
        {
          "internalType": "uint256",
          "name": "totalUSDAmount",
          "type": "uint256"
        },
        {
          "internalType": "uint256",
          "name": "depositAmount",
          "type": "uint256"
        }
      ],
      "name": "swapProportionately",
      "outputs": [],
      "stateMutability": "nonpayable",
      "type": "function"
    },
    {
      "inputs": [
        {
          "internalType": "uint256",
          "name": "amount",
          "type": "uint256"
        }
      ],
      "name": "swapIntoFourEqualParts",
      "outputs": [],
      "stateMutability": "nonpayable",
      "type": "function"
    },
    {
      "inputs": [
        {
          "internalType": "address",
          "name": "user",
          "type": "address"
        }
      ],
      "name": "setSharesFirstTime",
      "outputs": [],
      "stateMutability": "nonpayable",
      "type": "function"
    },
    {
      "inputs": [
        {
          "internalType": "address",
          "name": "user",
          "type": "address"
        },
        {
          "internalType": "uint256",
          "name": "total_in_USD",
          "type": "uint256"
        },
        {
          "internalType": "uint256",
          "name": "deposit_amount",
          "type": "uint256"
        }
      ],
      "name": "updateSharesOnDeposit",
      "outputs": [],
      "stateMutability": "nonpayable",
      "type": "function"
    },
    {
      "inputs": [
        {
          "internalType": "address",
          "name": "user",
          "type": "address"
        }
      ],
      "name": "withdrawUserFunds",
      "outputs": [],
      "stateMutability": "nonpayable",
      "type": "function"
    },
    {
      "inputs": [
        {
          "internalType": "uint256",
          "name": "amount_",
          "type": "uint256"
        },
        {
          "internalType": "address",
          "name": "token_address",
          "type": "address"
        },
        {
          "internalType": "address",
          "name": "address_to",
          "type": "address"
        }
      ],
      "name": "withdraw",
      "outputs": [],
      "stateMutability": "nonpayable",
      "type": "function"
    },
    {
      "inputs": [
        {
          "internalType": "address",
          "name": "_token",
          "type": "address"
        },
        {
          "internalType": "address",
          "name": "_spender",
          "type": "address"
        }
      ],
      "name": "approveSpendingWholeBalance",
      "outputs": [],
      "stateMutability": "nonpayable",
      "type": "function"
    },
    {
      "inputs": [
        {
          "internalType": "address",
          "name": "_token",
          "type": "address"
        },
        {
          "internalType": "uint256",
          "name": "_amount",
          "type": "uint256"
        }
      ],
      "name": "swapBackToUSDC",
      "outputs": [],
      "stateMutability": "nonpayable",
      "type": "function"
    },
    {
      "inputs": [
        {
          "internalType": "address",
          "name": "token_address",
          "type": "address"
        },
        {
          "internalType": "address",
          "name": "user_address",
          "type": "address"
        }
      ],
      "name": "tokenBalanceOf",
      "outputs": [
        {
          "internalType": "uint256",
          "name": "token_balance",
          "type": "uint256"
        }
      ],
      "stateMutability": "view",
      "type": "function",
      "constant": true
    },
    {
      "inputs": [
        {
          "internalType": "uint256",
          "name": "_amountIn",
          "type": "uint256"
        },
        {
          "internalType": "uint256",
          "name": "_amountOutMin",
          "type": "uint256"
        },
        {
          "internalType": "address[]",
          "name": "_path",
          "type": "address[]"
        },
        {
          "internalType": "address",
          "name": "_acct",
          "type": "address"
        },
        {
          "internalType": "uint256",
          "name": "_deadline",
          "type": "uint256"
        }
      ],
      "name": "swap",
      "outputs": [],
      "stateMutability": "nonpayable",
      "type": "function"
    }
  ],
  "bytecode": "0x60806040526040518060400160405280732791bca1f2de4661ed88a30c99a7a9449aa8417473ffffffffffffffffffffffffffffffffffffffff1673ffffffffffffffffffffffffffffffffffffffff168152602001730d500b1d8e8ef31e21c99d1db9a6444d3adf127073ffffffffffffffffffffffffffffffffffffffff1673ffffffffffffffffffffffffffffffffffffffff168152506000906002620000ab929190620005ad565b506040518060400160405280732791bca1f2de4661ed88a30c99a7a9449aa8417473ffffffffffffffffffffffffffffffffffffffff1673ffffffffffffffffffffffffffffffffffffffff168152602001730b3f868e0be5597d5db7feb59e1cadbb0fdda50a73ffffffffffffffffffffffffffffffffffffffff1673ffffffffffffffffffffffffffffffffffffffff16815250600190600262000153929190620005ad565b506040518060400160405280732791bca1f2de4661ed88a30c99a7a9449aa8417473ffffffffffffffffffffffffffffffffffffffff1673ffffffffffffffffffffffffffffffffffffffff168152602001737ceb23fd6bc0add59e62ac25578270cff1b9f61973ffffffffffffffffffffffffffffffffffffffff1673ffffffffffffffffffffffffffffffffffffffff168152506002906002620001fb929190620005ad565b506040518060400160405280732791bca1f2de4661ed88a30c99a7a9449aa8417473ffffffffffffffffffffffffffffffffffffffff1673ffffffffffffffffffffffffffffffffffffffff168152602001731bfd67037b42cf73acf2047067bd4f2c47d9bfd673ffffffffffffffffffffffffffffffffffffffff1673ffffffffffffffffffffffffffffffffffffffff168152506003906002620002a3929190620005ad565b506040518060400160405280730d500b1d8e8ef31e21c99d1db9a6444d3adf127073ffffffffffffffffffffffffffffffffffffffff1673ffffffffffffffffffffffffffffffffffffffff168152602001732791bca1f2de4661ed88a30c99a7a9449aa8417473ffffffffffffffffffffffffffffffffffffffff1673ffffffffffffffffffffffffffffffffffffffff1681525060049060026200034b929190620005ad565b506040518060400160405280730b3f868e0be5597d5db7feb59e1cadbb0fdda50a73ffffffffffffffffffffffffffffffffffffffff1673ffffffffffffffffffffffffffffffffffffffff168152602001732791bca1f2de4661ed88a30c99a7a9449aa8417473ffffffffffffffffffffffffffffffffffffffff1673ffffffffffffffffffffffffffffffffffffffff168152506005906002620003f3929190620005ad565b506040518060400160405280737ceb23fd6bc0add59e62ac25578270cff1b9f61973ffffffffffffffffffffffffffffffffffffffff1673ffffffffffffffffffffffffffffffffffffffff168152602001732791bca1f2de4661ed88a30c99a7a9449aa8417473ffffffffffffffffffffffffffffffffffffffff1673ffffffffffffffffffffffffffffffffffffffff1681525060069060026200049b929190620005ad565b506040518060400160405280731bfd67037b42cf73acf2047067bd4f2c47d9bfd673ffffffffffffffffffffffffffffffffffffffff1673ffffffffffffffffffffffffffffffffffffffff168152602001732791bca1f2de4661ed88a30c99a7a9449aa8417473ffffffffffffffffffffffffffffffffffffffff1673ffffffffffffffffffffffffffffffffffffffff16815250600790600262000543929190620005ad565b50731b02da8cb0d097eb8d57a175b88c7d8b47997506600d60006101000a81548173ffffffffffffffffffffffffffffffffffffffff021916908373ffffffffffffffffffffffffffffffffffffffff160217905550348015620005a657600080fd5b506200065b565b82805482825590600052602060002090810192821562000629579160200282015b82811115620006285782518260006101000a81548173ffffffffffffffffffffffffffffffffffffffff021916908373ffffffffffffffffffffffffffffffffffffffff16021790555091602001919060010190620005ce565b5b5090506200063891906200063c565b5090565b5b80821115620006575760008160009055506001016200063d565b5090565b613c8e806200066b6000396000f3fe6080604052600436106102555760003560e01c806388e42b0811610139578063bb09d9b7116100b6578063cf4128101161007a578063cf4128101461092e578063e66c528f14610957578063e93ef21a14610982578063e95d8328146109bf578063ef455bad146109ea578063fd829a2314610a275761025c565b8063bb09d9b714610833578063bdd5915f1461085e578063c3f5a30514610889578063ca970905146108b4578063cb3601b1146108f15761025c565b8063aa5a7aa3116100fd578063aa5a7aa314610750578063b460af9414610779578063b6e20a6a146107a2578063b8ba8ef2146107cd578063ba0cb22b146107f65761025c565b806388e42b081461066b5780638db9f39a1461069457806390f11e84146106bf578063947a36fb146106e8578063a15c7d10146107135761025c565b806344345f23116101d25780636583530f116101965780636583530f14610536578063681bcf131461055f57806369bc43881461059c5780636e04ff0d146105d9578063718176e514610617578063764f96f9146106425761025c565b806344345f231461043f5780634585e33b1461047c5780634690738c146104a557806351f54887146104ce57806361bc221a1461050b5761025c565b8063277754ed11610219578063277754ed1461035a57806329a97ec2146103855780633f3b3b27146103ae5780633f5b948b146103d957806344250955146104165761025c565b8063040141e5146102615780630a51faba1461028c57806316345f18146102b75780631bea8006146102f457806324e2e7bb146103315761025c565b3661025c57005b600080fd5b34801561026d57600080fd5b50610276610a52565b6040516102839190612a47565b60405180910390f35b34801561029857600080fd5b506102a1610a6a565b6040516102ae9190612a47565b60405180910390f35b3480156102c357600080fd5b506102de60048036038101906102d99190612aa2565b610a82565b6040516102eb9190612ae8565b60405180910390f35b34801561030057600080fd5b5061031b60048036038101906103169190612b03565b610b11565b6040516103289190612b5c565b60405180910390f35b34801561033d57600080fd5b5061035860048036038101906103539190612aa2565b610b9a565b005b34801561036657600080fd5b5061036f610f14565b60405161037c9190612a47565b60405180910390f35b34801561039157600080fd5b506103ac60048036038101906103a79190612ba3565b610f2c565b005b3480156103ba57600080fd5b506103c3610fb0565b6040516103d09190612b5c565b60405180910390f35b3480156103e557600080fd5b5061040060048036038101906103fb9190612bf6565b610fb6565b60405161040d9190612a47565b60405180910390f35b34801561042257600080fd5b5061043d60048036038101906104389190612c23565b610ff5565b005b34801561044b57600080fd5b5061046660048036038101906104619190612bf6565b61114c565b6040516104739190612a47565b60405180910390f35b34801561048857600080fd5b506104a3600480360381019061049e9190612cdb565b61118b565b005b3480156104b157600080fd5b506104cc60048036038101906104c79190612aa2565b61123f565b005b3480156104da57600080fd5b506104f560048036038101906104f09190612ba3565b611361565b6040516105029190612b5c565b60405180910390f35b34801561051757600080fd5b506105206113ac565b60405161052d9190612b5c565b60405180910390f35b34801561054257600080fd5b5061055d60048036038101906105589190612aa2565b6113b2565b005b34801561056b57600080fd5b5061058660048036038101906105819190612bf6565b611443565b6040516105939190612a47565b60405180910390f35b3480156105a857600080fd5b506105c360048036038101906105be9190612bf6565b611482565b6040516105d09190612a47565b60405180910390f35b3480156105e557600080fd5b5061060060048036038101906105fb9190612cdb565b6114c1565b60405161060e929190612dd3565b60405180910390f35b34801561062357600080fd5b5061062c611d65565b6040516106399190612a47565b60405180910390f35b34801561064e57600080fd5b5061066960048036038101906106649190612e03565b611d7d565b005b34801561067757600080fd5b50610692600480360381019061068d9190612bf6565b612058565b005b3480156106a057600080fd5b506106a96122ee565b6040516106b69190612a47565b60405180910390f35b3480156106cb57600080fd5b506106e660048036038101906106e19190612fce565b612306565b005b3480156106f457600080fd5b506106fd6123b9565b60405161070a9190612b5c565b60405180910390f35b34801561071f57600080fd5b5061073a60048036038101906107359190612bf6565b6123bf565b6040516107479190612a47565b60405180910390f35b34801561075c57600080fd5b5061077760048036038101906107729190612b03565b6123fe565b005b34801561078557600080fd5b506107a0600480360381019061079b9190613065565b61248c565b005b3480156107ae57600080fd5b506107b7612516565b6040516107c49190612a47565b60405180910390f35b3480156107d957600080fd5b506107f460048036038101906107ef91906130b8565b61252e565b005b34801561080257600080fd5b5061081d60048036038101906108189190612aa2565b6126b9565b60405161082a9190612b5c565b60405180910390f35b34801561083f57600080fd5b50610848612702565b6040516108559190612a47565b60405180910390f35b34801561086a57600080fd5b5061087361271a565b6040516108809190612a47565b60405180910390f35b34801561089557600080fd5b5061089e612732565b6040516108ab9190612b5c565b60405180910390f35b3480156108c057600080fd5b506108db60048036038101906108d69190612bf6565b612738565b6040516108e89190612a47565b60405180910390f35b3480156108fd57600080fd5b5061091860048036038101906109139190612bf6565b612777565b6040516109259190612a47565b60405180910390f35b34801561093a57600080fd5b50610955600480360381019061095091906130f8565b6127b6565b005b34801561096357600080fd5b5061096c6128ce565b6040516109799190612a47565b60405180910390f35b34801561098e57600080fd5b506109a960048036038101906109a49190612bf6565b6128e6565b6040516109b69190612a47565b60405180910390f35b3480156109cb57600080fd5b506109d4612925565b6040516109e19190612a47565b60405180910390f35b3480156109f657600080fd5b50610a116004803603810190610a0c9190612aa2565b61293d565b604051610a1e9190612b5c565b60405180910390f35b348015610a3357600080fd5b50610a3c612955565b604051610a499190613197565b60405180910390f35b737ceb23fd6bc0add59e62ac25578270cff1b9f61981565b730b3f868e0be5597d5db7feb59e1cadbb0fdda50a81565b6000806000806000808673ffffffffffffffffffffffffffffffffffffffff1663feaf968c6040518163ffffffff1660e01b815260040160a060405180830381865afa158015610ad6573d6000803e3d6000fd5b505050506040513d601f19601f82011682018060405250810190610afa9190613235565b945094509450945094508395505050505050919050565b6000808390508073ffffffffffffffffffffffffffffffffffffffff166370a08231846040518263ffffffff1660e01b8152600401610b509190612a47565b602060405180830381865afa158015610b6d573d6000803e3d6000fd5b505050506040513d601f19601f82011682018060405250810190610b9191906132b0565b91505092915050565b6000600854610bbd730d500b1d8e8ef31e21c99d1db9a6444d3adf127030610b11565b600c60008573ffffffffffffffffffffffffffffffffffffffff1673ffffffffffffffffffffffffffffffffffffffff16815260200190815260200160002054610c07919061330c565b610c119190613395565b90506000600854610c36730b3f868e0be5597d5db7feb59e1cadbb0fdda50a30610b11565b600c60008673ffffffffffffffffffffffffffffffffffffffff1673ffffffffffffffffffffffffffffffffffffffff16815260200190815260200160002054610c80919061330c565b610c8a9190613395565b90506000600854610caf737ceb23fd6bc0add59e62ac25578270cff1b9f61930610b11565b600c60008773ffffffffffffffffffffffffffffffffffffffff1673ffffffffffffffffffffffffffffffffffffffff16815260200190815260200160002054610cf9919061330c565b610d039190613395565b90506000600854610d28731bfd67037b42cf73acf2047067bd4f2c47d9bfd630610b11565b600c60008873ffffffffffffffffffffffffffffffffffffffff1673ffffffffffffffffffffffffffffffffffffffff16815260200190815260200160002054610d72919061330c565b610d7c9190613395565b9050610db1730d500b1d8e8ef31e21c99d1db9a6444d3adf1270731b02da8cb0d097eb8d57a175b88c7d8b4799750686610f2c565b610de4730b3f868e0be5597d5db7feb59e1cadbb0fdda50a731b02da8cb0d097eb8d57a175b88c7d8b4799750685610f2c565b610e17737ceb23fd6bc0add59e62ac25578270cff1b9f619731b02da8cb0d097eb8d57a175b88c7d8b4799750684610f2c565b610e4a731bfd67037b42cf73acf2047067bd4f2c47d9bfd6731b02da8cb0d097eb8d57a175b88c7d8b4799750683610f2c565b610e68730d500b1d8e8ef31e21c99d1db9a6444d3adf1270856127b6565b610e86730b3f868e0be5597d5db7feb59e1cadbb0fdda50a846127b6565b610ea4737ceb23fd6bc0add59e62ac25578270cff1b9f619836127b6565b610ec2731bfd67037b42cf73acf2047067bd4f2c47d9bfd6826127b6565b6000610ee2732791bca1f2de4661ed88a30c99a7a9449aa8417430610b11565b9050610f0381732791bca1f2de4661ed88a30c99a7a9449aa841748861248c565b610f0c8661123f565b505050505050565b731b02da8cb0d097eb8d57a175b88c7d8b4799750681565b8273ffffffffffffffffffffffffffffffffffffffff1663095ea7b383836040518363ffffffff1660e01b8152600401610f679291906133c6565b6020604051808303816000875af1158015610f86573d6000803e3d6000fd5b505050506040513d601f19601f82011682018060405250810190610faa919061341b565b50505050565b60095481565b60058181548110610fc657600080fd5b906000526020600020016000915054906101000a900473ffffffffffffffffffffffffffffffffffffffff1681565b60008260085483611006919061330c565b6110109190613395565b9050806008546110209190613448565b6008819055506000600c60008673ffffffffffffffffffffffffffffffffffffffff1673ffffffffffffffffffffffffffffffffffffffff1681526020019081526020016000205411156111015780600c60008673ffffffffffffffffffffffffffffffffffffffff1673ffffffffffffffffffffffffffffffffffffffff168152602001908152602001600020546110b99190613448565b600c60008673ffffffffffffffffffffffffffffffffffffffff1673ffffffffffffffffffffffffffffffffffffffff16815260200190815260200160002081905550611146565b80600c60008673ffffffffffffffffffffffffffffffffffffffff1673ffffffffffffffffffffffffffffffffffffffff168152602001908152602001600020819055505b50505050565b6006818154811061115c57600080fd5b906000526020600020016000915054906101000a900473ffffffffffffffffffffffffffffffffffffffff1681565b600a546009544261119c919061347c565b111561123b57426009819055506001600b546111b89190613448565b600b819055506000600267ffffffffffffffff8111156111db576111da612e90565b5b6040519080825280602002602001820160405280156112095781602001602082028036833780820191505090505b5090506000838381019061121d91906134b0565b8092508193505050611238816000843064174876e7ff612306565b50505b5050565b6000600c60008373ffffffffffffffffffffffffffffffffffffffff1673ffffffffffffffffffffffffffffffffffffffff16815260200190815260200160002054116112c1576040517f08c379a00000000000000000000000000000000000000000000000000000000081526004016112b890613569565b60405180910390fd5b600c60008273ffffffffffffffffffffffffffffffffffffffff1673ffffffffffffffffffffffffffffffffffffffff1681526020019081526020016000205460086000828254611312919061347c565b925050819055506000600c60008373ffffffffffffffffffffffffffffffffffffffff1673ffffffffffffffffffffffffffffffffffffffff1681526020019081526020016000208190555050565b60006002826113709190613448565b600a61137c91906136bc565b61138584610a82565b61138f8630610b11565b611399919061330c565b6113a39190613395565b90509392505050565b600b5481565b6305f5e100600c60008373ffffffffffffffffffffffffffffffffffffffff1673ffffffffffffffffffffffffffffffffffffffff16815260200190815260200160002081905550600c60008273ffffffffffffffffffffffffffffffffffffffff1673ffffffffffffffffffffffffffffffffffffffff1681526020019081526020016000205460088190555050565b6004818154811061145357600080fd5b906000526020600020016000915054906101000a900473ffffffffffffffffffffffffffffffffffffffff1681565b6000818154811061149257600080fd5b906000526020600020016000915054906101000a900473ffffffffffffffffffffffffffffffffffffffff1681565b60006060600a54600954426114d6919061347c565b1191506000600467ffffffffffffffff8111156114f6576114f5612e90565b5b60405190808252806020026020018201604052801561152f57816020015b61151c61299d565b8152602001906001900390816115145790505b50905061153a61299d565b730d500b1d8e8ef31e21c99d1db9a6444d3adf1270816020019073ffffffffffffffffffffffffffffffffffffffff16908173ffffffffffffffffffffffffffffffffffffffff168152505073ab594600376ec9fd91f8e885dadf0ce036862de0816040019073ffffffffffffffffffffffffffffffffffffffff16908173ffffffffffffffffffffffffffffffffffffffff16815250506115da61299d565b730b3f868e0be5597d5db7feb59e1cadbb0fdda50a816020019073ffffffffffffffffffffffffffffffffffffffff16908173ffffffffffffffffffffffffffffffffffffffff16815250507349b0c695039243bbfeb8ecd054eb70061fd54aa0816040019073ffffffffffffffffffffffffffffffffffffffff16908173ffffffffffffffffffffffffffffffffffffffff168152505061167a61299d565b731bfd67037b42cf73acf2047067bd4f2c47d9bfd6816020019073ffffffffffffffffffffffffffffffffffffffff16908173ffffffffffffffffffffffffffffffffffffffff168152505073c907e116054ad103354f2d350fd2514433d57f6f816040019073ffffffffffffffffffffffffffffffffffffffff16908173ffffffffffffffffffffffffffffffffffffffff168152505061171a61299d565b737ceb23fd6bc0add59e62ac25578270cff1b9f619816020019073ffffffffffffffffffffffffffffffffffffffff16908173ffffffffffffffffffffffffffffffffffffffff168152505073f9680d99d6c9589e2a93a78a04a279e509205945816040019073ffffffffffffffffffffffffffffffffffffffff16908173ffffffffffffffffffffffffffffffffffffffff168152505083856000815181106117c7576117c6613707565b5b602002602001018190525082856001815181106117e7576117e6613707565b5b6020026020010181905250818560028151811061180757611806613707565b5b6020026020010181905250808560038151811061182757611826613707565b5b60200260200101819052506000808651905060005b8751811015611a0957600088828151811061185a57611859613707565b5b60200260200101516020015190508073ffffffffffffffffffffffffffffffffffffffff166370a08231306040518263ffffffff1660e01b81526004016118a19190612a47565b602060405180830381865afa1580156118be573d6000803e3d6000fd5b505050506040513d601f19601f820116820180604052508101906118e291906132b0565b8983815181106118f5576118f4613707565b5b6020026020010151606001818152505061192c89838151811061191b5761191a613707565b5b602002602001015160400151610a82565b89838151811061193f5761193e613707565b5b602002602001015160c00181815250506305f5e10089838151811061196757611966613707565b5b602002602001015160c001518a848151811061198657611985613707565b5b60200260200101516060015161199c9190613736565b6119a6919061384d565b8983815181106119b9576119b8613707565b5b602002602001015160800181815250508882815181106119dc576119db613707565b5b602002602001015160800151846119f391906138b7565b9350508080611a01906138fb565b91505061183c565b5060008183611a18919061384d565b905060005b8851811015611a865781898281518110611a3a57611a39613707565b5b602002602001015160800151611a509190613943565b898281518110611a6357611a62613707565b5b602002602001015160a00181815250508080611a7e906138fb565b915050611a1d565b5060008060005b8a518160ff161015611ad957828b8260ff1681518110611ab057611aaf613707565b5b602002602001015160a001511315611ac6578091505b8080611ad190613993565b915050611a8d565b5060007f7fffffffffffffffffffffffffffffffffffffffffffffffffffffffffffffff9050600080600090505b8c518160ff161015611b5357828d8260ff1681518110611b2a57611b29613707565b5b602002602001015160a001511215611b40578091505b8080611b4b90613993565b915050611b07565b506000600267ffffffffffffffff811115611b7157611b70612e90565b5b604051908082528060200260200182016040528015611b9f5781602001602082028036833780820191505090505b5090508c8460ff1681518110611bb857611bb7613707565b5b60200260200101516020015181600081518110611bd857611bd7613707565b5b602002602001019073ffffffffffffffffffffffffffffffffffffffff16908173ffffffffffffffffffffffffffffffffffffffff16815250508c8260ff1681518110611c2857611c27613707565b5b60200260200101516020015181600181518110611c4857611c47613707565b5b602002602001019073ffffffffffffffffffffffffffffffffffffffff16908173ffffffffffffffffffffffffffffffffffffffff16815250506000611cae8e8460ff1681518110611c9d57611c9c613707565b5b602002602001015160a0015161297b565b8e8660ff1681518110611cc457611cc3613707565b5b602002602001015160a001511315611d0757611d008e8460ff1681518110611cef57611cee613707565b5b602002602001015160a0015161297b565b9050611d2c565b8d8560ff1681518110611d1d57611d1c613707565b5b602002602001015160a0015190505b8181604051602001611d3f929190613a7a565b6040516020818303038152906040529e5050505050505050505050505050509250929050565b73f9680d99d6c9589e2a93a78a04a279e50920594581565b6000828288611d8c919061330c565b611d969190613395565b90506000838388611da7919061330c565b611db19190613395565b90506000848488611dc2919061330c565b611dcc9190613395565b90506000858588611ddd919061330c565b611de79190613395565b9050611e8184600080805480602002602001604051908101604052809291908181526020018280548015611e7057602002820191906000526020600020905b8160009054906101000a900473ffffffffffffffffffffffffffffffffffffffff1673ffffffffffffffffffffffffffffffffffffffff1681526020019060010190808311611e26575b50505050503064174876e7ff612306565b611f1a8360006001805480602002602001604051908101604052809291908181526020018280548015611f0957602002820191906000526020600020905b8160009054906101000a900473ffffffffffffffffffffffffffffffffffffffff1673ffffffffffffffffffffffffffffffffffffffff1681526020019060010190808311611ebf575b50505050503064174876e7ff612306565b611fb38260006002805480602002602001604051908101604052809291908181526020018280548015611fa257602002820191906000526020600020905b8160009054906101000a900473ffffffffffffffffffffffffffffffffffffffff1673ffffffffffffffffffffffffffffffffffffffff1681526020019060010190808311611f58575b50505050503064174876e7ff612306565b61204c816000600380548060200260200160405190810160405280929190818152602001828054801561203b57602002820191906000526020600020905b8160009054906101000a900473ffffffffffffffffffffffffffffffffffffffff1673ffffffffffffffffffffffffffffffffffffffff1681526020019060010190808311611ff1575b50505050503064174876e7ff612306565b50505050505050505050565b6120fc6004826120689190613395565b6000808054806020026020016040519081016040528092919081815260200182805480156120eb57602002820191906000526020600020905b8160009054906101000a900473ffffffffffffffffffffffffffffffffffffffff1673ffffffffffffffffffffffffffffffffffffffff16815260200190600101908083116120a1575b50505050503064174876e7ff612306565b6121a160048261210c9190613395565b6000600180548060200260200160405190810160405280929190818152602001828054801561219057602002820191906000526020600020905b8160009054906101000a900473ffffffffffffffffffffffffffffffffffffffff1673ffffffffffffffffffffffffffffffffffffffff1681526020019060010190808311612146575b50505050503064174876e7ff612306565b6122466004826121b19190613395565b6000600280548060200260200160405190810160405280929190818152602001828054801561223557602002820191906000526020600020905b8160009054906101000a900473ffffffffffffffffffffffffffffffffffffffff1673ffffffffffffffffffffffffffffffffffffffff16815260200190600101908083116121eb575b50505050503064174876e7ff612306565b6122eb6004826122569190613395565b600060038054806020026020016040519081016040528092919081815260200182805480156122da57602002820191906000526020600020905b8160009054906101000a900473ffffffffffffffffffffffffffffffffffffffff1673ffffffffffffffffffffffffffffffffffffffff1681526020019060010190808311612290575b50505050503064174876e7ff612306565b50565b73ab594600376ec9fd91f8e885dadf0ce036862de081565b600d60009054906101000a900473ffffffffffffffffffffffffffffffffffffffff1673ffffffffffffffffffffffffffffffffffffffff166338ed173986868686866040518663ffffffff1660e01b8152600401612369959493929190613aaa565b6000604051808303816000875af1158015612388573d6000803e3d6000fd5b505050506040513d6000823e3d601f19601f820116820180604052508101906123b19190613bc7565b505050505050565b600a5481565b600381815481106123cf57600080fd5b906000526020600020016000915054906101000a900473ffffffffffffffffffffffffffffffffffffffff1681565b60008273ffffffffffffffffffffffffffffffffffffffff166370a08231306040518263ffffffff1660e01b81526004016124399190612a47565b602060405180830381865afa158015612456573d6000803e3d6000fd5b505050506040513d601f19601f8201168201806040525081019061247a91906132b0565b9050612487838383610f2c565b505050565b60008290508073ffffffffffffffffffffffffffffffffffffffff1663a9059cbb83866040518363ffffffff1660e01b81526004016124cc9291906133c6565b6020604051808303816000875af11580156124eb573d6000803e3d6000fd5b505050506040513d601f19601f8201168201806040525081019061250f919061341b565b5050505050565b73c907e116054ad103354f2d350fd2514433d57f6f81565b612561732791bca1f2de4661ed88a30c99a7a9449aa84174731b02da8cb0d097eb8d57a175b88c7d8b4799750684610f2c565b6000612597730d500b1d8e8ef31e21c99d1db9a6444d3adf127073ab594600376ec9fd91f8e885dadf0ce036862de06012611361565b905060006125cf730b3f868e0be5597d5db7feb59e1cadbb0fdda50a7349b0c695039243bbfeb8ecd054eb70061fd54aa06012611361565b90506000612607737ceb23fd6bc0add59e62ac25578270cff1b9f61973f9680d99d6c9589e2a93a78a04a279e5092059456012611361565b9050600061263f731bfd67037b42cf73acf2047067bd4f2c47d9bfd673c907e116054ad103354f2d350fd2514433d57f6f6008611361565b90506000818385876126519190613448565b61265b9190613448565b6126659190613448565b905060008111156126835761267e85858585858c611d7d565b61268d565b61268c87612058565b5b60008111156126a6576126a1868289610ff5565b6126b0565b6126af866113b2565b5b50505050505050565b6000600c60008373ffffffffffffffffffffffffffffffffffffffff1673ffffffffffffffffffffffffffffffffffffffff168152602001908152602001600020549050919050565b732791bca1f2de4661ed88a30c99a7a9449aa8417481565b731bfd67037b42cf73acf2047067bd4f2c47d9bfd681565b60085481565b6007818154811061274857600080fd5b906000526020600020016000915054906101000a900473ffffffffffffffffffffffffffffffffffffffff1681565b6002818154811061278757600080fd5b906000526020600020016000915054906101000a900473ffffffffffffffffffffffffffffffffffffffff1681565b6000600267ffffffffffffffff8111156127d3576127d2612e90565b5b6040519080825280602002602001820160405280156128015781602001602082028036833780820191505090505b509050828160008151811061281957612818613707565b5b602002602001019073ffffffffffffffffffffffffffffffffffffffff16908173ffffffffffffffffffffffffffffffffffffffff1681525050732791bca1f2de4661ed88a30c99a7a9449aa841748160018151811061287c5761287b613707565b5b602002602001019073ffffffffffffffffffffffffffffffffffffffff16908173ffffffffffffffffffffffffffffffffffffffff16815250506128c9826000833064174876e7ff612306565b505050565b7349b0c695039243bbfeb8ecd054eb70061fd54aa081565b600181815481106128f657600080fd5b906000526020600020016000915054906101000a900473ffffffffffffffffffffffffffffffffffffffff1681565b730d500b1d8e8ef31e21c99d1db9a6444d3adf127081565b600c6020528060005260406000206000915090505481565b600d60009054906101000a900473ffffffffffffffffffffffffffffffffffffffff1681565b600080821215612994578161298f90613c10565b612996565b815b9050919050565b6040518060e0016040528060608152602001600073ffffffffffffffffffffffffffffffffffffffff168152602001600073ffffffffffffffffffffffffffffffffffffffff168152602001600081526020016000815260200160008152602001600081525090565b600073ffffffffffffffffffffffffffffffffffffffff82169050919050565b6000612a3182612a06565b9050919050565b612a4181612a26565b82525050565b6000602082019050612a5c6000830184612a38565b92915050565b6000604051905090565b600080fd5b600080fd5b612a7f81612a26565b8114612a8a57600080fd5b50565b600081359050612a9c81612a76565b92915050565b600060208284031215612ab857612ab7612a6c565b5b6000612ac684828501612a8d565b91505092915050565b6000819050919050565b612ae281612acf565b82525050565b6000602082019050612afd6000830184612ad9565b92915050565b60008060408385031215612b1a57612b19612a6c565b5b6000612b2885828601612a8d565b9250506020612b3985828601612a8d565b9150509250929050565b6000819050919050565b612b5681612b43565b82525050565b6000602082019050612b716000830184612b4d565b92915050565b612b8081612b43565b8114612b8b57600080fd5b50565b600081359050612b9d81612b77565b92915050565b600080600060608486031215612bbc57612bbb612a6c565b5b6000612bca86828701612a8d565b9350506020612bdb86828701612a8d565b9250506040612bec86828701612b8e565b9150509250925092565b600060208284031215612c0c57612c0b612a6c565b5b6000612c1a84828501612b8e565b91505092915050565b600080600060608486031215612c3c57612c3b612a6c565b5b6000612c4a86828701612a8d565b9350506020612c5b86828701612b8e565b9250506040612c6c86828701612b8e565b9150509250925092565b600080fd5b600080fd5b600080fd5b60008083601f840112612c9b57612c9a612c76565b5b8235905067ffffffffffffffff811115612cb857612cb7612c7b565b5b602083019150836001820283011115612cd457612cd3612c80565b5b9250929050565b60008060208385031215612cf257612cf1612a6c565b5b600083013567ffffffffffffffff811115612d1057612d0f612a71565b5b612d1c85828601612c85565b92509250509250929050565b60008115159050919050565b612d3d81612d28565b82525050565b600081519050919050565b600082825260208201905092915050565b60005b83811015612d7d578082015181840152602081019050612d62565b60008484015250505050565b6000601f19601f8301169050919050565b6000612da582612d43565b612daf8185612d4e565b9350612dbf818560208601612d5f565b612dc881612d89565b840191505092915050565b6000604082019050612de86000830185612d34565b8181036020830152612dfa8184612d9a565b90509392505050565b60008060008060008060c08789031215612e2057612e1f612a6c565b5b6000612e2e89828a01612b8e565b9650506020612e3f89828a01612b8e565b9550506040612e5089828a01612b8e565b9450506060612e6189828a01612b8e565b9350506080612e7289828a01612b8e565b92505060a0612e8389828a01612b8e565b9150509295509295509295565b7f4e487b7100000000000000000000000000000000000000000000000000000000600052604160045260246000fd5b612ec882612d89565b810181811067ffffffffffffffff82111715612ee757612ee6612e90565b5b80604052505050565b6000612efa612a62565b9050612f068282612ebf565b919050565b600067ffffffffffffffff821115612f2657612f25612e90565b5b602082029050602081019050919050565b6000612f4a612f4584612f0b565b612ef0565b90508083825260208201905060208402830185811115612f6d57612f6c612c80565b5b835b81811015612f965780612f828882612a8d565b845260208401935050602081019050612f6f565b5050509392505050565b600082601f830112612fb557612fb4612c76565b5b8135612fc5848260208601612f37565b91505092915050565b600080600080600060a08688031215612fea57612fe9612a6c565b5b6000612ff888828901612b8e565b955050602061300988828901612b8e565b945050604086013567ffffffffffffffff81111561302a57613029612a71565b5b61303688828901612fa0565b935050606061304788828901612a8d565b925050608061305888828901612b8e565b9150509295509295909350565b60008060006060848603121561307e5761307d612a6c565b5b600061308c86828701612b8e565b935050602061309d86828701612a8d565b92505060406130ae86828701612a8d565b9150509250925092565b600080604083850312156130cf576130ce612a6c565b5b60006130dd85828601612b8e565b92505060206130ee85828601612a8d565b9150509250929050565b6000806040838503121561310f5761310e612a6c565b5b600061311d85828601612a8d565b925050602061312e85828601612b8e565b9150509250929050565b6000819050919050565b600061315d61315861315384612a06565b613138565b612a06565b9050919050565b600061316f82613142565b9050919050565b600061318182613164565b9050919050565b61319181613176565b82525050565b60006020820190506131ac6000830184613188565b92915050565b600069ffffffffffffffffffff82169050919050565b6131d1816131b2565b81146131dc57600080fd5b50565b6000815190506131ee816131c8565b92915050565b6131fd81612acf565b811461320857600080fd5b50565b60008151905061321a816131f4565b92915050565b60008151905061322f81612b77565b92915050565b600080600080600060a0868803121561325157613250612a6c565b5b600061325f888289016131df565b95505060206132708882890161320b565b945050604061328188828901613220565b935050606061329288828901613220565b92505060806132a3888289016131df565b9150509295509295909350565b6000602082840312156132c6576132c5612a6c565b5b60006132d484828501613220565b91505092915050565b7f4e487b7100000000000000000000000000000000000000000000000000000000600052601160045260246000fd5b600061331782612b43565b915061332283612b43565b9250817fffffffffffffffffffffffffffffffffffffffffffffffffffffffffffffffff048311821515161561335b5761335a6132dd565b5b828202905092915050565b7f4e487b7100000000000000000000000000000000000000000000000000000000600052601260045260246000fd5b60006133a082612b43565b91506133ab83612b43565b9250826133bb576133ba613366565b5b828204905092915050565b60006040820190506133db6000830185612a38565b6133e86020830184612b4d565b9392505050565b6133f881612d28565b811461340357600080fd5b50565b600081519050613415816133ef565b92915050565b60006020828403121561343157613430612a6c565b5b600061343f84828501613406565b91505092915050565b600061345382612b43565b915061345e83612b43565b9250828201905080821115613476576134756132dd565b5b92915050565b600061348782612b43565b915061349283612b43565b92508282039050818111156134aa576134a96132dd565b5b92915050565b600080604083850312156134c7576134c6612a6c565b5b600083013567ffffffffffffffff8111156134e5576134e4612a71565b5b6134f185828601612fa0565b925050602061350285828601612b8e565b9150509250929050565b600082825260208201905092915050565b7f4572726f72202d2054686973207573657220686173206e6f2073686172657300600082015250565b6000613553601f8361350c565b915061355e8261351d565b602082019050919050565b6000602082019050818103600083015261358281613546565b9050919050565b60008160011c9050919050565b6000808291508390505b60018511156135e0578086048111156135bc576135bb6132dd565b5b60018516156135cb5780820291505b80810290506135d985613589565b94506135a0565b94509492505050565b6000826135f957600190506136b5565b8161360757600090506136b5565b816001811461361d576002811461362757613656565b60019150506136b5565b60ff841115613639576136386132dd565b5b8360020a9150848211156136505761364f6132dd565b5b506136b5565b5060208310610133831016604e8410600b841016171561368b5782820a905083811115613686576136856132dd565b5b6136b5565b6136988484846001613596565b925090508184048111156136af576136ae6132dd565b5b81810290505b9392505050565b60006136c782612b43565b91506136d283612b43565b92506136ff7fffffffffffffffffffffffffffffffffffffffffffffffffffffffffffffffff84846135e9565b905092915050565b7f4e487b7100000000000000000000000000000000000000000000000000000000600052603260045260246000fd5b600061374182612acf565b915061374c83612acf565b9250827f7fffffffffffffffffffffffffffffffffffffffffffffffffffffffffffffff048211600084136000841316161561378b5761378a6132dd565b5b817f800000000000000000000000000000000000000000000000000000000000000005831260008412600084131616156137c8576137c76132dd565b5b827f80000000000000000000000000000000000000000000000000000000000000000582126000841360008412161615613805576138046132dd565b5b827f7fffffffffffffffffffffffffffffffffffffffffffffffffffffffffffffff0582126000841260008412161615613842576138416132dd565b5b828202905092915050565b600061385882612acf565b915061386383612acf565b92508261387357613872613366565b5b600160000383147f8000000000000000000000000000000000000000000000000000000000000000831416156138ac576138ab6132dd565b5b828205905092915050565b60006138c282612acf565b91506138cd83612acf565b9250828201905082811215600083121683821260008412151617156138f5576138f46132dd565b5b92915050565b600061390682612b43565b91507fffffffffffffffffffffffffffffffffffffffffffffffffffffffffffffffff8203613938576139376132dd565b5b600182019050919050565b600061394e82612acf565b915061395983612acf565b92508282039050818112600084121682821360008512151617156139805761397f6132dd565b5b92915050565b600060ff82169050919050565b600061399e82613986565b915060ff82036139b1576139b06132dd565b5b600182019050919050565b600081519050919050565b600082825260208201905092915050565b6000819050602082019050919050565b6139f181612a26565b82525050565b6000613a0383836139e8565b60208301905092915050565b6000602082019050919050565b6000613a27826139bc565b613a3181856139c7565b9350613a3c836139d8565b8060005b83811015613a6d578151613a5488826139f7565b9750613a5f83613a0f565b925050600181019050613a40565b5085935050505092915050565b60006040820190508181036000830152613a948185613a1c565b9050613aa36020830184612ad9565b9392505050565b600060a082019050613abf6000830188612b4d565b613acc6020830187612b4d565b8181036040830152613ade8186613a1c565b9050613aed6060830185612a38565b613afa6080830184612b4d565b9695505050505050565b600067ffffffffffffffff821115613b1f57613b1e612e90565b5b602082029050602081019050919050565b6000613b43613b3e84613b04565b612ef0565b90508083825260208201905060208402830185811115613b6657613b65612c80565b5b835b81811015613b8f5780613b7b8882613220565b845260208401935050602081019050613b68565b5050509392505050565b600082601f830112613bae57613bad612c76565b5b8151613bbe848260208601613b30565b91505092915050565b600060208284031215613bdd57613bdc612a6c565b5b600082015167ffffffffffffffff811115613bfb57613bfa612a71565b5b613c0784828501613b99565b91505092915050565b6000613c1b82612acf565b91507f80000000000000000000000000000000000000000000000000000000000000008203613c4d57613c4c6132dd565b5b81600003905091905056fea26469706673582212207594efaa0de368f8f8e68d6b7ff9687ec6ff2c5a9a930d1115844e280e0c54bf64736f6c63430008100033",
  "immutableReferences": {},
  "source": "pragma solidity ^0.8.0;\npragma experimental ABIEncoderV2;\n//import statements go here\nimport \"./interfaces/IUniswapV2Router02.sol\";\nimport \"./interfaces/IUniswapV2Router01.sol\";\nimport \"./interfaces/IERC20.sol\";\nimport \"@chainlink/contracts/src/v0.8/interfaces/AggregatorV3Interface.sol\";\n// KeeperCompatible.sol imports the functions from both ./KeeperBase.sol and\n// ./interfaces/KeeperCompatibleInterface.sol\nimport \"@chainlink/contracts/src/v0.8/KeeperCompatible.sol\";\n\ncontract autoBalancer is KeeperCompatibleInterface {\n    address public constant USDC_ADDRESS = 0x2791Bca1f2de4661ED88A30C99A7a9449Aa84174;\n    \n    address public constant WMATIC_ADDRESS = 0x0d500B1d8E8eF31E21C99d1Db9A6444d3ADf1270;\n    address public constant SUSHI_ADDRESS = 0x0b3F868E0BE5597D5DB7fEB59E1CADBb0fdDa50a;\n    address public constant WETH_ADDRESS = 0x7ceB23fD6bC0adD59E62ac25578270cFf1b9f619;\n    address public constant WBTC_ADDRESS = 0x1BFD67037B42Cf73acF2047067bd4F2C47D9BfD6;\n\n    address public constant MATIC_USD_ORACLE = 0xAB594600376Ec9fD91F8e885dADF0CE036862dE0;\n    address public constant BTC_USD_ORACLE = 0xc907E116054Ad103354f2D350FD2514433D57F6f;\n    address public constant ETH_USD_ORACLE = 0xF9680D99D6C9589e2a93a78A04A279e509205945;\n    address public constant SUSHI_USD_ORACLE = 0x49B0c695039243BBfEb8EcD054EB70061fd54aa0;\n\n    address[] public USDCToWMATICPath = [USDC_ADDRESS, WMATIC_ADDRESS];\n    address[] public USDCToSUSHIPath = [USDC_ADDRESS, SUSHI_ADDRESS];\n    address[] public USDCToWETHPath = [USDC_ADDRESS, WETH_ADDRESS];\n    address[] public USDCToWBTCPath = [USDC_ADDRESS, WBTC_ADDRESS];\n\n    address[] public WMATICToUSDCPath = [WMATIC_ADDRESS, USDC_ADDRESS];\n    address[] public SUSHIToUSDCPath = [SUSHI_ADDRESS, USDC_ADDRESS];\n    address[] public WETHToUSDCPath = [WETH_ADDRESS, USDC_ADDRESS];\n    address[] public WBTCToUSDCPath = [WBTC_ADDRESS, USDC_ADDRESS];\n\n    address public constant SUSHISWAP_ROUTER = 0x1b02dA8Cb0d097eB8D57A175b88c7D8b47997506;\n    \n    uint256 public totalNumberOfShares;\n    uint256 public lastTimeStamp;\n    uint256 public interval;\n    uint256 public counter;\n\n    mapping(address => uint256) public userNumberOfShares; \n\n    IUniswapV2Router02 public sushiSwapRouter = IUniswapV2Router02(SUSHISWAP_ROUTER);\n\n    struct Coin {\n        string symbol;\n        address tokenAddress;\n        address oracleAddress;\n        // uint256 decimals;\n        int256 balance;\n        int256 usd_balance;\n        int256 diff_from_average;\n        int256 usd_exchange_rate;\n    }\n\n    /**\n     * Returns the latest price\n     */\n    function getLatestPrice(address _oracle_address) public view returns (int) {\n        (\n            uint80 roundID, \n            int price,\n            uint startedAt,\n            uint timeStamp,\n            uint80 answeredInRound\n        ) = AggregatorV3Interface(_oracle_address).latestRoundData();\n        return price;\n    }\n\n    function checkUpkeep(bytes calldata /* checkData */) external view override returns (bool upkeepNeeded, bytes memory performData) {\n        upkeepNeeded = (block.timestamp - lastTimeStamp) > interval;\n        // this is where I need to do off chain calcs to be fed into the rebalance\n        Coin[] memory array_coins = new Coin[](4);\n    \n        Coin memory wmatic;\n        wmatic.tokenAddress = WMATIC_ADDRESS;\n        wmatic.oracleAddress = MATIC_USD_ORACLE;\n        Coin memory sushi;\n        sushi.tokenAddress = SUSHI_ADDRESS;\n        sushi.oracleAddress = SUSHI_USD_ORACLE;\n        Coin memory wbtc;\n        wbtc.tokenAddress = WBTC_ADDRESS;\n        wbtc.oracleAddress = BTC_USD_ORACLE;\n        Coin memory weth;\n        weth.tokenAddress = WETH_ADDRESS;\n        weth.oracleAddress = ETH_USD_ORACLE;\n\n        array_coins[0] = wmatic;\n        array_coins[1] = sushi;\n        array_coins[2] = wbtc;\n        array_coins[3] = weth;\n        \n        int256 total_in_usd = 0;\n        int no_of_assets = int256(array_coins.length);\n\n        for (uint i = 0; i < array_coins.length; i++) {\n            IERC20 coin_instance = IERC20(array_coins[i].tokenAddress);\n            array_coins[i].balance = int256(coin_instance.balanceOf(address(this)));\n            array_coins[i].usd_exchange_rate = getLatestPrice(array_coins[i].oracleAddress);\n            // array_coins[i].decimals = getDecimals(array_coins[i].address);\n            array_coins[i].usd_balance = array_coins[i].balance * array_coins[i].usd_exchange_rate / (10 ** 8); //do I need to reintroduce decimals here?\n            total_in_usd += array_coins[i].usd_balance;\n        }\n\n        int256 target_per_asset = total_in_usd / no_of_assets;\n\n        for (uint i = 0; i < array_coins.length; i++) {\n            array_coins[i].diff_from_average = array_coins[i].usd_balance - target_per_asset;\n        }\n\n        // Coin memory max_coin = find_max(array_coins);\n        int256 maxDiff; // default 0, the lowest value of `uint256`\n        uint8 maxCoin_index;\n        for (uint8 i = 0; i < array_coins.length; i++) {\n            if (array_coins[i].diff_from_average > maxDiff) {\n                maxCoin_index = i;\n            }\n        }\n        // Coin memory min_coin = find_min(array_coins);\n        int256 minDiff = type(int256).max; // the highest value of int256\n        uint8 minCoin_index;\n        for (uint8 i = 0; i < array_coins.length; i++) {\n            if (array_coins[i].diff_from_average < minDiff) {\n                minCoin_index = i;\n            }\n        }\n\n        address[] memory path1 = new address[](2);\n        path1[0] = array_coins[maxCoin_index].tokenAddress;\n        path1[1] = array_coins[minCoin_index].tokenAddress;\n        int256 amount1;\n        if (array_coins[maxCoin_index].diff_from_average > abs(array_coins[minCoin_index].diff_from_average)) {\n            amount1 = abs(array_coins[minCoin_index].diff_from_average);\n        } else {\n            amount1 = array_coins[maxCoin_index].diff_from_average;\n        }\n\n        performData = abi.encode(path1, amount1); //, path2, amount2, path3, amount3\n        // We don't use the checkData in this example. The checkData is defined when the Upkeep was registered.\n        return (upkeepNeeded, performData);\n    }\n\n    function performUpkeep(bytes calldata performData) external override {\n        //We highly recommend revalidating the upkeep in the performUpkeep function\n        if ((block.timestamp - lastTimeStamp) > interval ) {\n            lastTimeStamp = block.timestamp;\n            counter = counter + 1;\n            // this is where I actually do the rebalance on chain\n            address[] memory path1 = new address[](2);\n            uint256 amount1;\n            (path1, amount1)= abi.decode(performData, (address[], uint256)); //, path2, amount2, path3, amount3\n            swap(amount1, uint256(0), path1, address(this), 99999999999);\n            }\n            // The performData is generated by the Keeper's call to your checkUpkeep function\n    }\n\n    function find_max(Coin[] memory coin_array) internal pure returns (Coin memory maxCoin) {\n                require(coin_array.length > 0); // throw an exception if the condition is not met\n                int256 maxDiff; // default 0, the lowest value of `uint256`\n\n                for (uint256 i = 0; i < coin_array.length; i++) {\n                    if (coin_array[i].diff_from_average > maxDiff) {\n                        maxCoin = coin_array[i];\n                    }\n                }\n                return maxCoin;\n            }\n\n    function find_min(Coin[] memory coin_array) internal pure returns (Coin memory minCoin) {\n                require(coin_array.length > 0); // throw an exception if the condition is not met\n                int256 minDiff = type(int256).max; // default 0, the lowest value of `uint256`\n\n                for (uint256 i = 0; i < coin_array.length; i++) {\n                    if (coin_array[i].diff_from_average < minDiff) {\n                        minCoin = coin_array[i];\n                    }\n                }\n                return minCoin;\n            }\n\n    function abs(int x) private pure returns (int) {\n        return x >= 0 ? x : -x;\n    }\n\n    function updateSharesOnWithdrawal(address user) public { //make this ownable - only contract itself can update this?\n        require (userNumberOfShares[user] > 0, \"Error - This user has no shares\");\n        totalNumberOfShares -= userNumberOfShares[user];\n        userNumberOfShares[user] = 0;\n    }\n\n    function getUserShares(address user) public view returns (uint256 userShares) {\n        return userNumberOfShares[user];\n    }\n\n    function approve_spending (address token_address, address spender_address, uint256 amount_to_approve) public {\n            IERC20(token_address).approve(spender_address, amount_to_approve);\n    }\n    \n     receive() external payable {\n    }\n\n    function depositUserFunds (uint256 amount_, address address_from) public  {\n        approve_spending(USDC_ADDRESS, SUSHISWAP_ROUTER, amount_);\n\n        uint256 WMATIC_balanceInUSD = getUSDTokenBalanceOf(WMATIC_ADDRESS, MATIC_USD_ORACLE, 18);\n        uint256 SUSHI_balanceInUSD = getUSDTokenBalanceOf(SUSHI_ADDRESS, SUSHI_USD_ORACLE, 18);\n        uint256 WETH_balanceInUSD = getUSDTokenBalanceOf(WETH_ADDRESS, ETH_USD_ORACLE, 18);\n        uint256 WBTC_balanceInUSD = getUSDTokenBalanceOf(WBTC_ADDRESS, BTC_USD_ORACLE, 8);\n\n        uint256 Total_in_USD = WMATIC_balanceInUSD + SUSHI_balanceInUSD + WETH_balanceInUSD + WBTC_balanceInUSD;\n        \n        if (Total_in_USD > 0) {\n            swapProportionately(WMATIC_balanceInUSD, SUSHI_balanceInUSD, WETH_balanceInUSD, WBTC_balanceInUSD, Total_in_USD, amount_);\n        } else {\n            swapIntoFourEqualParts(amount_);\n        }\n        \n        if (Total_in_USD > 0) {\n            updateSharesOnDeposit(address_from, Total_in_USD, amount_);\n        } else {\n            setSharesFirstTime(address_from);\n        }\n    }\n\n    function getUSDTokenBalanceOf(address token_address, address oracle_address, uint256 token_decimals) public view returns (uint256) {\n        // uint256 token_decimals = ERC20(token_address).decimals();\n        return tokenBalanceOf(token_address, address(this))\n         * (uint256(getLatestPrice(oracle_address)))\n         / (10**(token_decimals+2));\n    }\n\n    function swapProportionately(uint256 WMATIC_amount, uint256 SUSHI_amount, uint256 WETH_amount, uint256 WBTC_amount, uint256 totalUSDAmount, uint256 depositAmount) public {\n        uint256 WMATIC_share = WMATIC_amount * (depositAmount) / (totalUSDAmount); \n        uint256 SUSHI_share = SUSHI_amount * (depositAmount) / (totalUSDAmount);\n        uint256 WETH_share = WETH_amount * (depositAmount) / (totalUSDAmount);\n        uint256 WBTC_share = WBTC_amount * (depositAmount) / (totalUSDAmount);\n\n        swap(WMATIC_share, uint256(0), USDCToWMATICPath, address(this), 99999999999);\n        swap(SUSHI_share, uint256(0), USDCToSUSHIPath, address(this), 99999999999);\n        swap(WETH_share, uint256(0), USDCToWETHPath, address(this), 99999999999);\n        swap(WBTC_share, uint256(0), USDCToWBTCPath, address(this), 99999999999);\n    }\n\n    function swapIntoFourEqualParts(uint256 amount) public {\n        swap(amount / (4), uint256(0), USDCToWMATICPath, address(this), 99999999999);\n        swap(amount / (4), uint256(0), USDCToSUSHIPath, address(this), 99999999999);\n        swap(amount / (4), uint256(0), USDCToWETHPath, address(this), 99999999999);\n        swap(amount / (4), uint256(0), USDCToWBTCPath, address(this), 99999999999);\n    }\n\n    function setSharesFirstTime(address user) public {\n        userNumberOfShares[user] = 100000000;\n        totalNumberOfShares = userNumberOfShares[user];\n    }\n\n    function updateSharesOnDeposit(address user, uint256 total_in_USD, uint256 deposit_amount) public { //make this ownable - only contract itself can update this?\n        uint256 newSharesForUser = deposit_amount * (totalNumberOfShares) / (total_in_USD);\n        totalNumberOfShares = totalNumberOfShares + newSharesForUser;\n        if (userNumberOfShares[user] > 0) {\n            userNumberOfShares[user] = userNumberOfShares[user] + newSharesForUser;\n        } else {\n            userNumberOfShares[user] = newSharesForUser;\n        }\n    }\n\n    function withdrawUserFunds(address user) public {\n        //do I need an approval here?\n\n        uint256 WMATIC_amount = userNumberOfShares[user] * (tokenBalanceOf(WMATIC_ADDRESS, address(this))) / (totalNumberOfShares);\n        uint256 SUSHI_amount = userNumberOfShares[user] * (tokenBalanceOf(SUSHI_ADDRESS, address(this))) / (totalNumberOfShares);\n        uint256 WETH_amount = userNumberOfShares[user] * (tokenBalanceOf(WETH_ADDRESS, address(this))) / (totalNumberOfShares);\n        uint256 WBTC_amount = userNumberOfShares[user] * (tokenBalanceOf(WBTC_ADDRESS, address(this))) / (totalNumberOfShares);\n\n        approve_spending(WMATIC_ADDRESS, SUSHISWAP_ROUTER, WMATIC_amount);\n        approve_spending(SUSHI_ADDRESS, SUSHISWAP_ROUTER, SUSHI_amount);\n        approve_spending(WETH_ADDRESS, SUSHISWAP_ROUTER, WETH_amount);\n        approve_spending(WBTC_ADDRESS, SUSHISWAP_ROUTER, WBTC_amount);\n\n        swapBackToUSDC(WMATIC_ADDRESS, WMATIC_amount);\n        swapBackToUSDC(SUSHI_ADDRESS, SUSHI_amount);\n        swapBackToUSDC(WETH_ADDRESS, WETH_amount);\n        swapBackToUSDC(WBTC_ADDRESS, WBTC_amount);\n\n        // approveSpendingWholeBalance(USDC_ADDRESS, BENTOBOX_MASTER_CONTRACT_ADDRESS);\n\n        uint256 USDC_amount = tokenBalanceOf(USDC_ADDRESS, address(this));\n        withdraw(USDC_amount, USDC_ADDRESS, user);\n\n        updateSharesOnWithdrawal(user);\n    }\n\n    function withdraw(uint256 amount_, address token_address, address address_to) public  {\n        IERC20 token_ = IERC20(token_address); //is this right?\n\n        token_.transfer(address_to, amount_);\n    }\n\n    function approveSpendingWholeBalance(address _token, address _spender) public {\n        uint256 tokenBalance = IERC20(_token).balanceOf(address(this));\n        approve_spending(_token, _spender, tokenBalance);\n    }\n\n    function swapBackToUSDC(address _token, uint256 _amount) public {\n        address[] memory path = new address[](2);\n        path[0] = _token;\n        path[1] = USDC_ADDRESS;\n        swap(_amount, uint256(0), path, address(this), 99999999999);\n    }\n    \n    // function withdraw_matic(uint256 amount_) public payable {\n    //     transfer(msg.sender, amount_);\n    // }\n\n    function tokenBalanceOf(address token_address, address user_address) public view returns (uint256 token_balance) {\n        IERC20 _token = IERC20(token_address);\n        token_balance = _token.balanceOf(user_address);\n        return token_balance;\n    }\n    \n    function swap(uint256 _amountIn, uint256 _amountOutMin, address[] memory _path, address _acct, uint256 _deadline) public {\n        \n       sushiSwapRouter.swapExactTokensForTokens(\n            _amountIn,\n            _amountOutMin,\n            _path,\n            _acct,\n            _deadline);\n        }\n\n\n    // function rebalance() public {\n        \n\n        // coinArray\n\n\n\n        // somehow need to sort the four elements of the array by this one dimension (diff_from_average)\n        // _array_coins.sort((a, b) => { \n        //     return b.diff_from_average - a.diff_from_average;\n\n        // var swapInputs = getSwapInputs(array_coins); //this quite a big piece of logic as well I think\n        // var token_to_be_swapped_address = swapInputs[2][0];\n        // var amount_to_be_swapped = swapInputs[0];\n\n//                 var isApprovedForAmount = await checkIfApprovedForAmount(token_to_be_swapped_address, amount_to_be_swapped);\n//                 var tokenToBeSwappedContract = new ethers.Contract(token_to_be_swapped_address, token_abi, signer);\n\n//                 if (isApprovedForAmount) {\n//                     console.log(\"token already approved\");\n//                     confirmAndExecuteSwapAndUpdateArrayAndDoNextSwap(amount_to_be_swapped, swapInputs, array_coins, tokenToBeSwappedContract)\n//                         if (window.confirm(\"Confirm Swap\")) {\n//                         await executeDappSwap(_amount_to_be_swapped, _swapInputs[1], _swapInputs[2], BENTOBOX_BALANCER_DAPP_ADDRESS, Date.now() + 1111111111111);\n\n//                         updateArray(_array_coins);\n//                         if (_array_coins.length > 1) {\n//                         executeNextSwapOnceLastOneConfirms(_tokenToBeSwappedContract, _array_coins);\n//                             if (window.confirm(\"Swap Completed? Ready for next one?\")) {\n//                             // console.log(`${from} sent ${amount} to ${to}`);\n//                             await balanceAndRemoveOneCoin(_array_coins);\n//     }\n//   }\n//                 }\n\n//                 else {\n//                     console.log(\"token not already approved\");\n\n//                     askUserForApproval(token_to_be_swapped_address, amount_to_be_swapped);\n//                     //create a listener for the approval confirmation\n//                     var filterForApprovalEvent = tokenToBeSwappedContract.filters.Approval(BENTOBOX_BALANCER_DAPP_ADDRESS, null);\n//                     tokenToBeSwappedContract.once(filterForApprovalEvent, async (owner, spender, value, event) => {\n//                     console.log('Tokens approved');\n//                     confirmAndExecuteSwapAndUpdateArrayAndDoNextSwap(amount_to_be_swapped, swapInputs, array_coins, tokenToBeSwappedContract)\n//                         if (window.confirm(\"Confirm Swap\")) {\n//                         await executeDappSwap(_amount_to_be_swapped, _swapInputs[1], _swapInputs[2], BENTOBOX_BALANCER_DAPP_ADDRESS, Date.now() + 1111111111111);\n\n//                         updateArray(_array_coins);\n//                         if (_array_coins.length > 1) {\n//                         executeNextSwapOnceLastOneConfirms(_tokenToBeSwappedContract, _array_coins);\n//                             if (window.confirm(\"Swap Completed? Ready for next one?\")) {\n//                             // console.log(`${from} sent ${amount} to ${to}`);\n//                             await balanceAndRemoveOneCoin(_array_coins);\n//   }\n//                     })\n//                 }\n//                 }\n            \n    // })\n        \n\n        \n        \n        \n        \n        \n        \n        \n        \n        \n        \n        \n        \n        \n    //     uint256 WMATIC_amount = tokenBalanceOf(WMATIC_ADDRESS, address(this));\n    //     uint256 SUSHI_amount = tokenBalanceOf(SUSHI_ADDRESS, address(this));\n    //     uint256 WETH_amount = tokenBalanceOf(WETH_ADDRESS, address(this));\n    //     uint256 WBTC_amount = tokenBalanceOf(WBTC_ADDRESS, address(this));\n\n    //     withdrawAllFourTokensFromBento(WMATIC_amount, SUSHI_amount, WETH_amount, WBTC_amount);\n    //     }\n\n    // function rebalanceThree() public {\n    //     depositAllFourTokensBackToBento();\n    //     }\n        \n    }\n    \n\n    ",
  "sourcePath": "/Users/richardjamieson/Documents/GitHub/BentoBoxBalancer/contracts/autoBalancer.sol",
  "compiler": {
    "name": "solc",
    "version": "0.8.16+commit.07a7930e.Emscripten.clang"
  },
  "schemaVersion": "3.4.9",
  "updatedAt": "2022-08-14T15:01:24.296Z",
  "networkType": "ethereum",
  "devdoc": {
    "kind": "dev",
    "methods": {
      "performUpkeep(bytes)": {
        "details": "The input to this method should not be trusted, and the caller of the method should not even be restricted to any single registry. Anyone should be able call it, and the input should be validated, there is no guarantee that the data passed in is the performData returned from checkUpkeep. This could happen due to malicious keepers, racing keepers, or simply a state change while the performUpkeep transaction is waiting for confirmation. Always validate the data passed in.",
        "params": {
          "performData": "is the data which was passed back from the checkData simulation. If it is encoded, it can easily be decoded into other types by calling `abi.decode`. This data should not be trusted, and should be validated against the contract's current state."
        }
      }
    },
    "version": 1
  },
  "userdoc": {
    "kind": "user",
    "methods": {
      "getLatestPrice(address)": {
        "notice": "Returns the latest price"
      },
      "performUpkeep(bytes)": {
        "notice": "method that is actually executed by the keepers, via the registry. The data returned by the checkUpkeep simulation will be passed into this method to actually be executed."
      }
    },
    "version": 1
  }
}