{
  "contractName": "bentoboxDapp",
  "abi": [
    {
      "inputs": [],
      "name": "BENTOBOX_MASTER_CONTRACT_ADDRESS",
      "outputs": [
        {
          "internalType": "address",
          "name": "",
          "type": "address"
        }
      ],
      "stateMutability": "view",
      "type": "function",
      "constant": true
    },
    {
      "inputs": [],
      "name": "BTC_USD_ORACLE",
      "outputs": [
        {
          "internalType": "address",
          "name": "",
          "type": "address"
        }
      ],
      "stateMutability": "view",
      "type": "function",
      "constant": true
    },
    {
      "inputs": [],
      "name": "BentoMasterContract",
      "outputs": [
        {
          "internalType": "contract IBentoBoxV1",
          "name": "",
          "type": "address"
        }
      ],
      "stateMutability": "view",
      "type": "function",
      "constant": true
    },
    {
      "inputs": [],
      "name": "ETH_USD_ORACLE",
      "outputs": [
        {
          "internalType": "address",
          "name": "",
          "type": "address"
        }
      ],
      "stateMutability": "view",
      "type": "function",
      "constant": true
    },
    {
      "inputs": [],
      "name": "MATIC_USD_ORACLE",
      "outputs": [
        {
          "internalType": "address",
          "name": "",
          "type": "address"
        }
      ],
      "stateMutability": "view",
      "type": "function",
      "constant": true
    },
    {
      "inputs": [],
      "name": "SUSHISWAP_ROUTER",
      "outputs": [
        {
          "internalType": "address",
          "name": "",
          "type": "address"
        }
      ],
      "stateMutability": "view",
      "type": "function",
      "constant": true
    },
    {
      "inputs": [
        {
          "internalType": "uint256",
          "name": "",
          "type": "uint256"
        }
      ],
      "name": "SUSHIToUSDCPath",
      "outputs": [
        {
          "internalType": "address",
          "name": "",
          "type": "address"
        }
      ],
      "stateMutability": "view",
      "type": "function",
      "constant": true
    },
    {
      "inputs": [],
      "name": "SUSHI_ADDRESS",
      "outputs": [
        {
          "internalType": "address",
          "name": "",
          "type": "address"
        }
      ],
      "stateMutability": "view",
      "type": "function",
      "constant": true
    },
    {
      "inputs": [],
      "name": "SUSHI_USD_ORACLE",
      "outputs": [
        {
          "internalType": "address",
          "name": "",
          "type": "address"
        }
      ],
      "stateMutability": "view",
      "type": "function",
      "constant": true
    },
    {
      "inputs": [
        {
          "internalType": "uint256",
          "name": "",
          "type": "uint256"
        }
      ],
      "name": "USDCToSUSHIPath",
      "outputs": [
        {
          "internalType": "address",
          "name": "",
          "type": "address"
        }
      ],
      "stateMutability": "view",
      "type": "function",
      "constant": true
    },
    {
      "inputs": [
        {
          "internalType": "uint256",
          "name": "",
          "type": "uint256"
        }
      ],
      "name": "USDCToWBTCPath",
      "outputs": [
        {
          "internalType": "address",
          "name": "",
          "type": "address"
        }
      ],
      "stateMutability": "view",
      "type": "function",
      "constant": true
    },
    {
      "inputs": [
        {
          "internalType": "uint256",
          "name": "",
          "type": "uint256"
        }
      ],
      "name": "USDCToWETHPath",
      "outputs": [
        {
          "internalType": "address",
          "name": "",
          "type": "address"
        }
      ],
      "stateMutability": "view",
      "type": "function",
      "constant": true
    },
    {
      "inputs": [
        {
          "internalType": "uint256",
          "name": "",
          "type": "uint256"
        }
      ],
      "name": "USDCToWMATICPath",
      "outputs": [
        {
          "internalType": "address",
          "name": "",
          "type": "address"
        }
      ],
      "stateMutability": "view",
      "type": "function",
      "constant": true
    },
    {
      "inputs": [],
      "name": "USDC_ADDRESS",
      "outputs": [
        {
          "internalType": "address",
          "name": "",
          "type": "address"
        }
      ],
      "stateMutability": "view",
      "type": "function",
      "constant": true
    },
    {
      "inputs": [
        {
          "internalType": "uint256",
          "name": "",
          "type": "uint256"
        }
      ],
      "name": "WBTCToUSDCPath",
      "outputs": [
        {
          "internalType": "address",
          "name": "",
          "type": "address"
        }
      ],
      "stateMutability": "view",
      "type": "function",
      "constant": true
    },
    {
      "inputs": [],
      "name": "WBTC_ADDRESS",
      "outputs": [
        {
          "internalType": "address",
          "name": "",
          "type": "address"
        }
      ],
      "stateMutability": "view",
      "type": "function",
      "constant": true
    },
    {
      "inputs": [
        {
          "internalType": "uint256",
          "name": "",
          "type": "uint256"
        }
      ],
      "name": "WETHToUSDCPath",
      "outputs": [
        {
          "internalType": "address",
          "name": "",
          "type": "address"
        }
      ],
      "stateMutability": "view",
      "type": "function",
      "constant": true
    },
    {
      "inputs": [],
      "name": "WETH_ADDRESS",
      "outputs": [
        {
          "internalType": "address",
          "name": "",
          "type": "address"
        }
      ],
      "stateMutability": "view",
      "type": "function",
      "constant": true
    },
    {
      "inputs": [
        {
          "internalType": "uint256",
          "name": "",
          "type": "uint256"
        }
      ],
      "name": "WMATICToUSDCPath",
      "outputs": [
        {
          "internalType": "address",
          "name": "",
          "type": "address"
        }
      ],
      "stateMutability": "view",
      "type": "function",
      "constant": true
    },
    {
      "inputs": [],
      "name": "WMATIC_ADDRESS",
      "outputs": [
        {
          "internalType": "address",
          "name": "",
          "type": "address"
        }
      ],
      "stateMutability": "view",
      "type": "function",
      "constant": true
    },
    {
      "inputs": [],
      "name": "sushiSwapRouter",
      "outputs": [
        {
          "internalType": "contract IUniswapV2Router02",
          "name": "",
          "type": "address"
        }
      ],
      "stateMutability": "view",
      "type": "function",
      "constant": true
    },
    {
      "inputs": [],
      "name": "totalNumberOfShares",
      "outputs": [
        {
          "internalType": "uint256",
          "name": "",
          "type": "uint256"
        }
      ],
      "stateMutability": "view",
      "type": "function",
      "constant": true
    },
    {
      "inputs": [
        {
          "internalType": "address",
          "name": "",
          "type": "address"
        }
      ],
      "name": "userNumberOfShares",
      "outputs": [
        {
          "internalType": "uint256",
          "name": "",
          "type": "uint256"
        }
      ],
      "stateMutability": "view",
      "type": "function",
      "constant": true
    },
    {
      "stateMutability": "payable",
      "type": "receive",
      "payable": true
    },
    {
      "inputs": [],
      "name": "registerProtocol",
      "outputs": [],
      "stateMutability": "nonpayable",
      "type": "function"
    },
    {
      "inputs": [
        {
          "internalType": "address",
          "name": "_oracle_address",
          "type": "address"
        }
      ],
      "name": "getLatestPrice",
      "outputs": [
        {
          "internalType": "int256",
          "name": "",
          "type": "int256"
        }
      ],
      "stateMutability": "view",
      "type": "function",
      "constant": true
    },
    {
      "inputs": [
        {
          "internalType": "address",
          "name": "user",
          "type": "address"
        }
      ],
      "name": "updateSharesOnWithdrawal",
      "outputs": [],
      "stateMutability": "nonpayable",
      "type": "function"
    },
    {
      "inputs": [
        {
          "internalType": "address",
          "name": "user",
          "type": "address"
        }
      ],
      "name": "getUserShares",
      "outputs": [
        {
          "internalType": "uint256",
          "name": "userShares",
          "type": "uint256"
        }
      ],
      "stateMutability": "view",
      "type": "function",
      "constant": true
    },
    {
      "inputs": [
        {
          "internalType": "address",
          "name": "token_address",
          "type": "address"
        },
        {
          "internalType": "address",
          "name": "spender_address",
          "type": "address"
        },
        {
          "internalType": "uint256",
          "name": "amount_to_approve",
          "type": "uint256"
        }
      ],
      "name": "approve_spending",
      "outputs": [],
      "stateMutability": "nonpayable",
      "type": "function"
    },
    {
      "inputs": [
        {
          "internalType": "uint256",
          "name": "amount_",
          "type": "uint256"
        },
        {
          "internalType": "address",
          "name": "token_address",
          "type": "address"
        },
        {
          "internalType": "address",
          "name": "address_from",
          "type": "address"
        },
        {
          "internalType": "address",
          "name": "address_to",
          "type": "address"
        }
      ],
      "name": "depositToBento",
      "outputs": [],
      "stateMutability": "nonpayable",
      "type": "function"
    },
    {
      "inputs": [
        {
          "internalType": "uint256",
          "name": "amount_",
          "type": "uint256"
        },
        {
          "internalType": "address",
          "name": "token_address",
          "type": "address"
        },
        {
          "internalType": "address",
          "name": "address_from",
          "type": "address"
        },
        {
          "internalType": "address",
          "name": "address_to",
          "type": "address"
        }
      ],
      "name": "depositUserFunds",
      "outputs": [],
      "stateMutability": "nonpayable",
      "type": "function"
    },
    {
      "inputs": [
        {
          "internalType": "address",
          "name": "token_address",
          "type": "address"
        },
        {
          "internalType": "address",
          "name": "oracle_address",
          "type": "address"
        },
        {
          "internalType": "uint256",
          "name": "token_decimals",
          "type": "uint256"
        }
      ],
      "name": "getUSDBentoTokenBalanceOf",
      "outputs": [
        {
          "internalType": "uint256",
          "name": "",
          "type": "uint256"
        }
      ],
      "stateMutability": "view",
      "type": "function",
      "constant": true
    },
    {
      "inputs": [
        {
          "internalType": "uint256",
          "name": "WMATIC_amount",
          "type": "uint256"
        },
        {
          "internalType": "uint256",
          "name": "SUSHI_amount",
          "type": "uint256"
        },
        {
          "internalType": "uint256",
          "name": "WETH_amount",
          "type": "uint256"
        },
        {
          "internalType": "uint256",
          "name": "WBTC_amount",
          "type": "uint256"
        },
        {
          "internalType": "uint256",
          "name": "totalUSDAmount",
          "type": "uint256"
        },
        {
          "internalType": "uint256",
          "name": "depositAmount",
          "type": "uint256"
        }
      ],
      "name": "swapProportionately",
      "outputs": [],
      "stateMutability": "nonpayable",
      "type": "function"
    },
    {
      "inputs": [
        {
          "internalType": "uint256",
          "name": "amount",
          "type": "uint256"
        }
      ],
      "name": "swapIntoFourEqualParts",
      "outputs": [],
      "stateMutability": "nonpayable",
      "type": "function"
    },
    {
      "inputs": [],
      "name": "depositAllFourTokensBackToBento",
      "outputs": [],
      "stateMutability": "nonpayable",
      "type": "function"
    },
    {
      "inputs": [
        {
          "internalType": "address",
          "name": "user",
          "type": "address"
        }
      ],
      "name": "setSharesFirstTime",
      "outputs": [],
      "stateMutability": "nonpayable",
      "type": "function"
    },
    {
      "inputs": [
        {
          "internalType": "address",
          "name": "user",
          "type": "address"
        },
        {
          "internalType": "uint256",
          "name": "total_in_USD",
          "type": "uint256"
        },
        {
          "internalType": "uint256",
          "name": "deposit_amount",
          "type": "uint256"
        }
      ],
      "name": "updateSharesOnDeposit",
      "outputs": [],
      "stateMutability": "nonpayable",
      "type": "function"
    },
    {
      "inputs": [
        {
          "internalType": "address",
          "name": "token_address",
          "type": "address"
        },
        {
          "internalType": "address",
          "name": "address_from",
          "type": "address"
        },
        {
          "internalType": "address",
          "name": "address_to",
          "type": "address"
        }
      ],
      "name": "depositTokenBalanceToBento",
      "outputs": [],
      "stateMutability": "nonpayable",
      "type": "function"
    },
    {
      "inputs": [
        {
          "internalType": "address",
          "name": "user",
          "type": "address"
        }
      ],
      "name": "withdrawUserFunds",
      "outputs": [],
      "stateMutability": "nonpayable",
      "type": "function"
    },
    {
      "inputs": [
        {
          "internalType": "uint256",
          "name": "_WMATIC_amount",
          "type": "uint256"
        },
        {
          "internalType": "uint256",
          "name": "_SUSHI_amount",
          "type": "uint256"
        },
        {
          "internalType": "uint256",
          "name": "_WETH_amount",
          "type": "uint256"
        },
        {
          "internalType": "uint256",
          "name": "_WBTC_amount",
          "type": "uint256"
        }
      ],
      "name": "withdrawAllFourTokensFromBento",
      "outputs": [],
      "stateMutability": "nonpayable",
      "type": "function"
    },
    {
      "inputs": [
        {
          "internalType": "uint256",
          "name": "amount_",
          "type": "uint256"
        },
        {
          "internalType": "address",
          "name": "token_address",
          "type": "address"
        },
        {
          "internalType": "address",
          "name": "address_from",
          "type": "address"
        },
        {
          "internalType": "address",
          "name": "address_to",
          "type": "address"
        }
      ],
      "name": "withdraw",
      "outputs": [],
      "stateMutability": "nonpayable",
      "type": "function"
    },
    {
      "inputs": [
        {
          "internalType": "address",
          "name": "_token",
          "type": "address"
        },
        {
          "internalType": "address",
          "name": "_spender",
          "type": "address"
        }
      ],
      "name": "approveSpendingWholeBalance",
      "outputs": [],
      "stateMutability": "nonpayable",
      "type": "function"
    },
    {
      "inputs": [
        {
          "internalType": "address",
          "name": "_token",
          "type": "address"
        }
      ],
      "name": "swapWholeBalanceBackToUSDC",
      "outputs": [],
      "stateMutability": "nonpayable",
      "type": "function"
    },
    {
      "inputs": [
        {
          "internalType": "uint256",
          "name": "amount_",
          "type": "uint256"
        }
      ],
      "name": "withdraw_matic",
      "outputs": [],
      "stateMutability": "nonpayable",
      "type": "function"
    },
    {
      "inputs": [
        {
          "internalType": "address",
          "name": "token_address",
          "type": "address"
        },
        {
          "internalType": "uint256",
          "name": "_share",
          "type": "uint256"
        },
        {
          "internalType": "address",
          "name": "address_from",
          "type": "address"
        },
        {
          "internalType": "address",
          "name": "address_to",
          "type": "address"
        }
      ],
      "name": "transfer",
      "outputs": [],
      "stateMutability": "nonpayable",
      "type": "function"
    },
    {
      "inputs": [
        {
          "internalType": "address",
          "name": "token_address",
          "type": "address"
        },
        {
          "internalType": "address",
          "name": "user_address",
          "type": "address"
        }
      ],
      "name": "BentoTokenBalanceOf",
      "outputs": [
        {
          "internalType": "uint256",
          "name": "token_balance",
          "type": "uint256"
        }
      ],
      "stateMutability": "view",
      "type": "function",
      "constant": true
    },
    {
      "inputs": [
        {
          "internalType": "uint256",
          "name": "_amountIn",
          "type": "uint256"
        },
        {
          "internalType": "uint256",
          "name": "_amountOutMin",
          "type": "uint256"
        },
        {
          "internalType": "address[]",
          "name": "_path",
          "type": "address[]"
        },
        {
          "internalType": "address",
          "name": "_acct",
          "type": "address"
        },
        {
          "internalType": "uint256",
          "name": "_deadline",
          "type": "uint256"
        }
      ],
      "name": "swap",
      "outputs": [],
      "stateMutability": "nonpayable",
      "type": "function"
    }
  ],
  "bytecode": "0x60806040526040518060400160405280732791bca1f2de4661ed88a30c99a7a9449aa8417473ffffffffffffffffffffffffffffffffffffffff1673ffffffffffffffffffffffffffffffffffffffff168152602001730d500b1d8e8ef31e21c99d1db9a6444d3adf127073ffffffffffffffffffffffffffffffffffffffff1673ffffffffffffffffffffffffffffffffffffffff168152506000906002620000ab92919062000602565b506040518060400160405280732791bca1f2de4661ed88a30c99a7a9449aa8417473ffffffffffffffffffffffffffffffffffffffff1673ffffffffffffffffffffffffffffffffffffffff168152602001730b3f868e0be5597d5db7feb59e1cadbb0fdda50a73ffffffffffffffffffffffffffffffffffffffff1673ffffffffffffffffffffffffffffffffffffffff1681525060019060026200015392919062000602565b506040518060400160405280732791bca1f2de4661ed88a30c99a7a9449aa8417473ffffffffffffffffffffffffffffffffffffffff1673ffffffffffffffffffffffffffffffffffffffff168152602001737ceb23fd6bc0add59e62ac25578270cff1b9f61973ffffffffffffffffffffffffffffffffffffffff1673ffffffffffffffffffffffffffffffffffffffff168152506002906002620001fb92919062000602565b506040518060400160405280732791bca1f2de4661ed88a30c99a7a9449aa8417473ffffffffffffffffffffffffffffffffffffffff1673ffffffffffffffffffffffffffffffffffffffff168152602001731bfd67037b42cf73acf2047067bd4f2c47d9bfd673ffffffffffffffffffffffffffffffffffffffff1673ffffffffffffffffffffffffffffffffffffffff168152506003906002620002a392919062000602565b506040518060400160405280730d500b1d8e8ef31e21c99d1db9a6444d3adf127073ffffffffffffffffffffffffffffffffffffffff1673ffffffffffffffffffffffffffffffffffffffff168152602001732791bca1f2de4661ed88a30c99a7a9449aa8417473ffffffffffffffffffffffffffffffffffffffff1673ffffffffffffffffffffffffffffffffffffffff1681525060049060026200034b92919062000602565b506040518060400160405280730b3f868e0be5597d5db7feb59e1cadbb0fdda50a73ffffffffffffffffffffffffffffffffffffffff1673ffffffffffffffffffffffffffffffffffffffff168152602001732791bca1f2de4661ed88a30c99a7a9449aa8417473ffffffffffffffffffffffffffffffffffffffff1673ffffffffffffffffffffffffffffffffffffffff168152506005906002620003f392919062000602565b506040518060400160405280737ceb23fd6bc0add59e62ac25578270cff1b9f61973ffffffffffffffffffffffffffffffffffffffff1673ffffffffffffffffffffffffffffffffffffffff168152602001732791bca1f2de4661ed88a30c99a7a9449aa8417473ffffffffffffffffffffffffffffffffffffffff1673ffffffffffffffffffffffffffffffffffffffff1681525060069060026200049b92919062000602565b506040518060400160405280731bfd67037b42cf73acf2047067bd4f2c47d9bfd673ffffffffffffffffffffffffffffffffffffffff1673ffffffffffffffffffffffffffffffffffffffff168152602001732791bca1f2de4661ed88a30c99a7a9449aa8417473ffffffffffffffffffffffffffffffffffffffff1673ffffffffffffffffffffffffffffffffffffffff1681525060079060026200054392919062000602565b50730319000133d3ada02600f0875d2cf03d442c3367600a60006101000a81548173ffffffffffffffffffffffffffffffffffffffff021916908373ffffffffffffffffffffffffffffffffffffffff160217905550731b02da8cb0d097eb8d57a175b88c7d8b47997506600b60006101000a81548173ffffffffffffffffffffffffffffffffffffffff021916908373ffffffffffffffffffffffffffffffffffffffff160217905550348015620005fb57600080fd5b50620006ce565b8280548282559060005260206000209081019282156200067e579160200282015b828111156200067d5782518260006101000a81548173ffffffffffffffffffffffffffffffffffffffff021916908373ffffffffffffffffffffffffffffffffffffffff1602179055509160200191906001019062000623565b5b5090506200068d919062000691565b5090565b5b80821115620006ca57600081816101000a81549073ffffffffffffffffffffffffffffffffffffffff02191690555060010162000692565b5090565b6138a380620006de6000396000f3fe6080604052600436106102815760003560e01c806390f11e841161014f578063c3f5a305116100c1578063e93ef21a1161007a578063e93ef21a1461115d578063e95d8328146111c2578063ec8def8414611203578063edc46f3d14611288578063ef455bad146112c9578063fd829a231461132e57610288565b8063c3f5a30514610fab578063ca97090514610fd6578063cb3601b11461103b578063d58c5b0b146110a0578063d9155b11146110e1578063e66c528f1461111c57610288565b8063aa5a7aa311610113578063aa5a7aa314610dfb578063aee4d1b214610e6c578063b6e20a6a14610e83578063ba0cb22b14610ec4578063bb09d9b714610f29578063bdd5915f14610f6a57610288565b806390f11e8414610b5257806395e413d814610c55578063a15c7d1014610ce4578063a226635714610d49578063a6c4e46714610d6057610288565b806344250955116101f3578063681bcf13116101ac578063681bcf131461095e57806369bc4388146109c3578063718176e514610a28578063764f96f914610a6957806388e42b0814610ad65780638db9f39a14610b1157610288565b8063442509551461074857806344345f23146107ad57806345ab6647146108125780634690738c1461086b578063494df3a2146108bc5780636583530f1461090d57610288565b806323e103a81161024557806323e103a8146104a057806324e2e7bb1461053b578063277754ed1461058c57806329a97ec2146105cd57806335c67cd6146106485780633f5b948b146106e357610288565b8063040141e51461028d5780630a51faba146102ce5780630d36b76b1461030f578063123b1154146103a057806316345f181461043b57610288565b3661028857005b600080fd5b34801561029957600080fd5b506102a261136f565b604051808273ffffffffffffffffffffffffffffffffffffffff16815260200191505060405180910390f35b3480156102da57600080fd5b506102e3611387565b604051808273ffffffffffffffffffffffffffffffffffffffff16815260200191505060405180910390f35b34801561031b57600080fd5b5061039e6004803603606081101561033257600080fd5b81019080803573ffffffffffffffffffffffffffffffffffffffff169060200190929190803573ffffffffffffffffffffffffffffffffffffffff169060200190929190803573ffffffffffffffffffffffffffffffffffffffff16906020019092919050505061139f565b005b3480156103ac57600080fd5b50610439600480360360808110156103c357600080fd5b8101908080359060200190929190803573ffffffffffffffffffffffffffffffffffffffff169060200190929190803573ffffffffffffffffffffffffffffffffffffffff169060200190929190803573ffffffffffffffffffffffffffffffffffffffff16906020019092919050505061156f565b005b34801561044757600080fd5b5061048a6004803603602081101561045e57600080fd5b81019080803573ffffffffffffffffffffffffffffffffffffffff169060200190929190505050611849565b6040518082815260200191505060405180910390f35b3480156104ac57600080fd5b50610539600480360360808110156104c357600080fd5b8101908080359060200190929190803573ffffffffffffffffffffffffffffffffffffffff169060200190929190803573ffffffffffffffffffffffffffffffffffffffff169060200190929190803573ffffffffffffffffffffffffffffffffffffffff169060200190929190505050611912565b005b34801561054757600080fd5b5061058a6004803603602081101561055e57600080fd5b81019080803573ffffffffffffffffffffffffffffffffffffffff169060200190929190505050611a3c565b005b34801561059857600080fd5b506105a1611e44565b604051808273ffffffffffffffffffffffffffffffffffffffff16815260200191505060405180910390f35b3480156105d957600080fd5b50610646600480360360608110156105f057600080fd5b81019080803573ffffffffffffffffffffffffffffffffffffffff169060200190929190803573ffffffffffffffffffffffffffffffffffffffff16906020019092919080359060200190929190505050611e5c565b005b34801561065457600080fd5b506106e16004803603608081101561066b57600080fd5b8101908080359060200190929190803573ffffffffffffffffffffffffffffffffffffffff169060200190929190803573ffffffffffffffffffffffffffffffffffffffff169060200190929190803573ffffffffffffffffffffffffffffffffffffffff169060200190929190505050611f0e565b005b3480156106ef57600080fd5b5061071c6004803603602081101561070657600080fd5b8101908080359060200190929190505050612038565b604051808273ffffffffffffffffffffffffffffffffffffffff16815260200191505060405180910390f35b34801561075457600080fd5b506107ab6004803603606081101561076b57600080fd5b81019080803573ffffffffffffffffffffffffffffffffffffffff1690602001909291908035906020019092919080359060200190929190505050612074565b005b3480156107b957600080fd5b506107e6600480360360208110156107d057600080fd5b81019080803590602001909291905050506121e7565b604051808273ffffffffffffffffffffffffffffffffffffffff16815260200191505060405180910390f35b34801561081e57600080fd5b506108696004803603608081101561083557600080fd5b8101908080359060200190929190803590602001909291908035906020019092919080359060200190929190505050612223565b005b34801561087757600080fd5b506108ba6004803603602081101561088e57600080fd5b81019080803573ffffffffffffffffffffffffffffffffffffffff1690602001909291905050506122a9565b005b3480156108c857600080fd5b5061090b600480360360208110156108df57600080fd5b81019080803573ffffffffffffffffffffffffffffffffffffffff1690602001909291905050506123f5565b005b34801561091957600080fd5b5061095c6004803603602081101561093057600080fd5b81019080803573ffffffffffffffffffffffffffffffffffffffff1690602001909291905050506125be565b005b34801561096a57600080fd5b506109976004803603602081101561098157600080fd5b810190808035906020019092919050505061264f565b604051808273ffffffffffffffffffffffffffffffffffffffff16815260200191505060405180910390f35b3480156109cf57600080fd5b506109fc600480360360208110156109e657600080fd5b810190808035906020019092919050505061268b565b604051808273ffffffffffffffffffffffffffffffffffffffff16815260200191505060405180910390f35b348015610a3457600080fd5b50610a3d6126c7565b604051808273ffffffffffffffffffffffffffffffffffffffff16815260200191505060405180910390f35b348015610a7557600080fd5b50610ad4600480360360c0811015610a8c57600080fd5b810190808035906020019092919080359060200190929190803590602001909291908035906020019092919080359060200190929190803590602001909291905050506126df565b005b348015610ae257600080fd5b50610b0f60048036036020811015610af957600080fd5b8101908080359060200190929190505050612a5e565b005b348015610b1d57600080fd5b50610b26612d7c565b604051808273ffffffffffffffffffffffffffffffffffffffff16815260200191505060405180910390f35b348015610b5e57600080fd5b50610c53600480360360a0811015610b7557600080fd5b81019080803590602001909291908035906020019092919080359060200190640100000000811115610ba657600080fd5b820183602082011115610bb857600080fd5b80359060200191846020830284011164010000000083111715610bda57600080fd5b919080806020026020016040519081016040528093929190818152602001838360200280828437600081840152601f19601f820116905080830192505050505050509192919290803573ffffffffffffffffffffffffffffffffffffffff16906020019092919080359060200190929190505050612d94565b005b348015610c6157600080fd5b50610cce60048036036060811015610c7857600080fd5b81019080803573ffffffffffffffffffffffffffffffffffffffff169060200190929190803573ffffffffffffffffffffffffffffffffffffffff16906020019092919080359060200190929190505050612f5d565b6040518082815260200191505060405180910390f35b348015610cf057600080fd5b50610d1d60048036036020811015610d0757600080fd5b8101908080359060200190929190505050612fa4565b604051808273ffffffffffffffffffffffffffffffffffffffff16815260200191505060405180910390f35b348015610d5557600080fd5b50610d5e612fe0565b005b348015610d6c57600080fd5b50610df960048036036080811015610d8357600080fd5b81019080803573ffffffffffffffffffffffffffffffffffffffff16906020019092919080359060200190929190803573ffffffffffffffffffffffffffffffffffffffff169060200190929190803573ffffffffffffffffffffffffffffffffffffffff169060200190929190505050613156565b005b348015610e0757600080fd5b50610e6a60048036036040811015610e1e57600080fd5b81019080803573ffffffffffffffffffffffffffffffffffffffff169060200190929190803573ffffffffffffffffffffffffffffffffffffffff169060200190929190505050613249565b005b348015610e7857600080fd5b50610e816132ff565b005b348015610e8f57600080fd5b50610e98613383565b604051808273ffffffffffffffffffffffffffffffffffffffff16815260200191505060405180910390f35b348015610ed057600080fd5b50610f1360048036036020811015610ee757600080fd5b81019080803573ffffffffffffffffffffffffffffffffffffffff16906020019092919050505061339b565b6040518082815260200191505060405180910390f35b348015610f3557600080fd5b50610f3e6133e4565b604051808273ffffffffffffffffffffffffffffffffffffffff16815260200191505060405180910390f35b348015610f7657600080fd5b50610f7f6133fc565b604051808273ffffffffffffffffffffffffffffffffffffffff16815260200191505060405180910390f35b348015610fb757600080fd5b50610fc0613414565b6040518082815260200191505060405180910390f35b348015610fe257600080fd5b5061100f60048036036020811015610ff957600080fd5b810190808035906020019092919050505061341a565b604051808273ffffffffffffffffffffffffffffffffffffffff16815260200191505060405180910390f35b34801561104757600080fd5b506110746004803603602081101561105e57600080fd5b8101908080359060200190929190505050613456565b604051808273ffffffffffffffffffffffffffffffffffffffff16815260200191505060405180910390f35b3480156110ac57600080fd5b506110b5613492565b604051808273ffffffffffffffffffffffffffffffffffffffff16815260200191505060405180910390f35b3480156110ed57600080fd5b5061111a6004803603602081101561110457600080fd5b81019080803590602001909291905050506134b8565b005b34801561112857600080fd5b50611131613502565b604051808273ffffffffffffffffffffffffffffffffffffffff16815260200191505060405180910390f35b34801561116957600080fd5b506111966004803603602081101561118057600080fd5b810190808035906020019092919050505061351a565b604051808273ffffffffffffffffffffffffffffffffffffffff16815260200191505060405180910390f35b3480156111ce57600080fd5b506111d7613556565b604051808273ffffffffffffffffffffffffffffffffffffffff16815260200191505060405180910390f35b34801561120f57600080fd5b506112726004803603604081101561122657600080fd5b81019080803573ffffffffffffffffffffffffffffffffffffffff169060200190929190803573ffffffffffffffffffffffffffffffffffffffff16906020019092919050505061356e565b6040518082815260200191505060405180910390f35b34801561129457600080fd5b5061129d61365f565b604051808273ffffffffffffffffffffffffffffffffffffffff16815260200191505060405180910390f35b3480156112d557600080fd5b50611318600480360360208110156112ec57600080fd5b81019080803573ffffffffffffffffffffffffffffffffffffffff169060200190929190505050613677565b6040518082815260200191505060405180910390f35b34801561133a57600080fd5b5061134361368f565b604051808273ffffffffffffffffffffffffffffffffffffffff16815260200191505060405180910390f35b737ceb23fd6bc0add59e62ac25578270cff1b9f61981565b730b3f868e0be5597d5db7feb59e1cadbb0fdda50a81565b600083905060008173ffffffffffffffffffffffffffffffffffffffff166370a08231856040518263ffffffff1660e01b8152600401808273ffffffffffffffffffffffffffffffffffffffff16815260200191505060206040518083038186803b15801561140d57600080fd5b505afa158015611421573d6000803e3d6000fd5b505050506040513d602081101561143757600080fd5b81019080805190602001909291905050509050600a60009054906101000a900473ffffffffffffffffffffffffffffffffffffffff1673ffffffffffffffffffffffffffffffffffffffff166302b9446c8386868560006040518663ffffffff1660e01b8152600401808673ffffffffffffffffffffffffffffffffffffffff1681526020018573ffffffffffffffffffffffffffffffffffffffff1681526020018473ffffffffffffffffffffffffffffffffffffffff168152602001838152602001828152602001955050505050506040805180830381600087803b15801561152157600080fd5b505af1158015611535573d6000803e3d6000fd5b505050506040513d604081101561154b57600080fd5b81019080805190602001909291908051906020019092919050505050505050505050565b6000839050600a60009054906101000a900473ffffffffffffffffffffffffffffffffffffffff1673ffffffffffffffffffffffffffffffffffffffff166302b9446c8285858960006040518663ffffffff1660e01b8152600401808673ffffffffffffffffffffffffffffffffffffffff1681526020018573ffffffffffffffffffffffffffffffffffffffff1681526020018473ffffffffffffffffffffffffffffffffffffffff168152602001838152602001828152602001955050505050506040805180830381600087803b15801561164b57600080fd5b505af115801561165f573d6000803e3d6000fd5b505050506040513d604081101561167557600080fd5b810190808051906020019092919080519060200190929190505050505061169e85853030611912565b6116d1732791bca1f2de4661ed88a30c99a7a9449aa84174731b02da8cb0d097eb8d57a175b88c7d8b4799750687611e5c565b6000611707730d500b1d8e8ef31e21c99d1db9a6444d3adf127073ab594600376ec9fd91f8e885dadf0ce036862de06012612f5d565b9050600061173f730b3f868e0be5597d5db7feb59e1cadbb0fdda50a7349b0c695039243bbfeb8ecd054eb70061fd54aa06012612f5d565b90506000611777737ceb23fd6bc0add59e62ac25578270cff1b9f61973f9680d99d6c9589e2a93a78a04a279e5092059456012612f5d565b905060006117af731bfd67037b42cf73acf2047067bd4f2c47d9bfd673c907e116054ad103354f2d350fd2514433d57f6f6008612f5d565b905060006117ea826117dc856117ce888a6136b590919063ffffffff16565b6136b590919063ffffffff16565b6136b590919063ffffffff16565b905060008111156118085761180385858585858f6126df565b611812565b6118118a612a5e565b5b61181a612fe0565b60008111156118335761182e88828c612074565b61183d565b61183c886125be565b5b50505050505050505050565b6000806000806000808673ffffffffffffffffffffffffffffffffffffffff1663feaf968c6040518163ffffffff1660e01b815260040160a06040518083038186803b15801561189857600080fd5b505afa1580156118ac573d6000803e3d6000fd5b505050506040513d60a08110156118c257600080fd5b810190808051906020019092919080519060200190929190805190602001909291908051906020019092919080519060200190929190505050945094509450945094508395505050505050919050565b6000839050600a60009054906101000a900473ffffffffffffffffffffffffffffffffffffffff1673ffffffffffffffffffffffffffffffffffffffff166397da6d308285858960006040518663ffffffff1660e01b8152600401808673ffffffffffffffffffffffffffffffffffffffff1681526020018573ffffffffffffffffffffffffffffffffffffffff1681526020018473ffffffffffffffffffffffffffffffffffffffff168152602001838152602001828152602001955050505050506040805180830381600087803b1580156119ee57600080fd5b505af1158015611a02573d6000803e3d6000fd5b505050506040513d6040811015611a1857600080fd5b81019080805190602001909291908051906020019092919050505050505050505050565b6000611ac1600854611ab3611a65730d500b1d8e8ef31e21c99d1db9a6444d3adf12703061356e565b600960008773ffffffffffffffffffffffffffffffffffffffff1673ffffffffffffffffffffffffffffffffffffffff1681526020019081526020016000205461373d90919063ffffffff16565b6137c390919063ffffffff16565b90506000611b48600854611b3a611aec730b3f868e0be5597d5db7feb59e1cadbb0fdda50a3061356e565b600960008873ffffffffffffffffffffffffffffffffffffffff1673ffffffffffffffffffffffffffffffffffffffff1681526020019081526020016000205461373d90919063ffffffff16565b6137c390919063ffffffff16565b90506000611bcf600854611bc1611b73737ceb23fd6bc0add59e62ac25578270cff1b9f6193061356e565b600960008973ffffffffffffffffffffffffffffffffffffffff1673ffffffffffffffffffffffffffffffffffffffff1681526020019081526020016000205461373d90919063ffffffff16565b6137c390919063ffffffff16565b90506000611c56600854611c48611bfa731bfd67037b42cf73acf2047067bd4f2c47d9bfd63061356e565b600960008a73ffffffffffffffffffffffffffffffffffffffff1673ffffffffffffffffffffffffffffffffffffffff1681526020019081526020016000205461373d90919063ffffffff16565b6137c390919063ffffffff16565b9050611c6484848484612223565b611c96730d500b1d8e8ef31e21c99d1db9a6444d3adf1270731b02da8cb0d097eb8d57a175b88c7d8b47997506613249565b611cc8730b3f868e0be5597d5db7feb59e1cadbb0fdda50a731b02da8cb0d097eb8d57a175b88c7d8b47997506613249565b611cfa737ceb23fd6bc0add59e62ac25578270cff1b9f619731b02da8cb0d097eb8d57a175b88c7d8b47997506613249565b611d2c731bfd67037b42cf73acf2047067bd4f2c47d9bfd6731b02da8cb0d097eb8d57a175b88c7d8b47997506613249565b611d49730d500b1d8e8ef31e21c99d1db9a6444d3adf12706123f5565b611d66730b3f868e0be5597d5db7feb59e1cadbb0fdda50a6123f5565b611d83737ceb23fd6bc0add59e62ac25578270cff1b9f6196123f5565b611da0731bfd67037b42cf73acf2047067bd4f2c47d9bfd66123f5565b611dd2732791bca1f2de4661ed88a30c99a7a9449aa84174730319000133d3ada02600f0875d2cf03d442c3367613249565b611df1732791bca1f2de4661ed88a30c99a7a9449aa84174303061139f565b6000611e11732791bca1f2de4661ed88a30c99a7a9449aa841743061356e565b9050611e3381732791bca1f2de4661ed88a30c99a7a9449aa841743089611912565b611e3c866122a9565b505050505050565b731b02da8cb0d097eb8d57a175b88c7d8b4799750681565b8273ffffffffffffffffffffffffffffffffffffffff1663095ea7b383836040518363ffffffff1660e01b8152600401808373ffffffffffffffffffffffffffffffffffffffff16815260200182815260200192505050602060405180830381600087803b158015611ecd57600080fd5b505af1158015611ee1573d6000803e3d6000fd5b505050506040513d6020811015611ef757600080fd5b810190808051906020019092919050505050505050565b6000839050600a60009054906101000a900473ffffffffffffffffffffffffffffffffffffffff1673ffffffffffffffffffffffffffffffffffffffff166302b9446c8285858960006040518663ffffffff1660e01b8152600401808673ffffffffffffffffffffffffffffffffffffffff1681526020018573ffffffffffffffffffffffffffffffffffffffff1681526020018473ffffffffffffffffffffffffffffffffffffffff168152602001838152602001828152602001955050505050506040805180830381600087803b158015611fea57600080fd5b505af1158015611ffe573d6000803e3d6000fd5b505050506040513d604081101561201457600080fd5b81019080805190602001909291908051906020019092919050505050505050505050565b6005818154811061204557fe5b906000526020600020016000915054906101000a900473ffffffffffffffffffffffffffffffffffffffff1681565b600061209d8361208f6008548561373d90919063ffffffff16565b6137c390919063ffffffff16565b90506120b4816008546136b590919063ffffffff16565b6008819055506000600960008673ffffffffffffffffffffffffffffffffffffffff1673ffffffffffffffffffffffffffffffffffffffff16815260200190815260200160002054111561219c5761215481600960008773ffffffffffffffffffffffffffffffffffffffff1673ffffffffffffffffffffffffffffffffffffffff168152602001908152602001600020546136b590919063ffffffff16565b600960008673ffffffffffffffffffffffffffffffffffffffff1673ffffffffffffffffffffffffffffffffffffffff168152602001908152602001600020819055506121e1565b80600960008673ffffffffffffffffffffffffffffffffffffffff1673ffffffffffffffffffffffffffffffffffffffff168152602001908152602001600020819055505b50505050565b600681815481106121f457fe5b906000526020600020016000915054906101000a900473ffffffffffffffffffffffffffffffffffffffff1681565b61224384730d500b1d8e8ef31e21c99d1db9a6444d3adf12703030611912565b61226383730b3f868e0be5597d5db7feb59e1cadbb0fdda50a3030611912565b61228382737ceb23fd6bc0add59e62ac25578270cff1b9f6193030611912565b6122a381731bfd67037b42cf73acf2047067bd4f2c47d9bfd63030611912565b50505050565b6000600960008373ffffffffffffffffffffffffffffffffffffffff1673ffffffffffffffffffffffffffffffffffffffff168152602001908152602001600020541161235e576040517f08c379a000000000000000000000000000000000000000000000000000000000815260040180806020018281038252601f8152602001807f4572726f72202d2054686973207573657220686173206e6f207368617265730081525060200191505060405180910390fd5b600960008273ffffffffffffffffffffffffffffffffffffffff1673ffffffffffffffffffffffffffffffffffffffff168152602001908152602001600020546008600082825403925050819055506000600960008373ffffffffffffffffffffffffffffffffffffffff1673ffffffffffffffffffffffffffffffffffffffff1681526020019081526020016000208190555050565b60008173ffffffffffffffffffffffffffffffffffffffff166370a08231306040518263ffffffff1660e01b8152600401808273ffffffffffffffffffffffffffffffffffffffff16815260200191505060206040518083038186803b15801561245e57600080fd5b505afa158015612472573d6000803e3d6000fd5b505050506040513d602081101561248857600080fd5b810190808051906020019092919050505090506060600267ffffffffffffffff811180156124b557600080fd5b506040519080825280602002602001820160405280156124e45781602001602082028036833780820191505090505b50905082816000815181106124f557fe5b602002602001019073ffffffffffffffffffffffffffffffffffffffff16908173ffffffffffffffffffffffffffffffffffffffff1681525050732791bca1f2de4661ed88a30c99a7a9449aa841748160018151811061255157fe5b602002602001019073ffffffffffffffffffffffffffffffffffffffff16908173ffffffffffffffffffffffffffffffffffffffff16815250506125b982600083307fffffffffffffffffffffffffffffffffffffffffffffffffffffffffffffffff612d94565b505050565b6305f5e100600960008373ffffffffffffffffffffffffffffffffffffffff1673ffffffffffffffffffffffffffffffffffffffff16815260200190815260200160002081905550600960008273ffffffffffffffffffffffffffffffffffffffff1673ffffffffffffffffffffffffffffffffffffffff1681526020019081526020016000205460088190555050565b6004818154811061265c57fe5b906000526020600020016000915054906101000a900473ffffffffffffffffffffffffffffffffffffffff1681565b6000818154811061269857fe5b906000526020600020016000915054906101000a900473ffffffffffffffffffffffffffffffffffffffff1681565b73f9680d99d6c9589e2a93a78a04a279e50920594581565b6000612706836126f8848a61373d90919063ffffffff16565b6137c390919063ffffffff16565b9050600061272f84612721858a61373d90919063ffffffff16565b6137c390919063ffffffff16565b905060006127588561274a868a61373d90919063ffffffff16565b6137c390919063ffffffff16565b9050600061278186612773878a61373d90919063ffffffff16565b6137c390919063ffffffff16565b90506128368460008080548060200260200160405190810160405280929190818152602001828054801561280a57602002820191906000526020600020905b8160009054906101000a900473ffffffffffffffffffffffffffffffffffffffff1673ffffffffffffffffffffffffffffffffffffffff16815260200190600101908083116127c0575b5050505050307fffffffffffffffffffffffffffffffffffffffffffffffffffffffffffffffff612d94565b6128ea83600060018054806020026020016040519081016040528092919081815260200182805480156128be57602002820191906000526020600020905b8160009054906101000a900473ffffffffffffffffffffffffffffffffffffffff1673ffffffffffffffffffffffffffffffffffffffff1681526020019060010190808311612874575b5050505050307fffffffffffffffffffffffffffffffffffffffffffffffffffffffffffffffff612d94565b61299e826000600280548060200260200160405190810160405280929190818152602001828054801561297257602002820191906000526020600020905b8160009054906101000a900473ffffffffffffffffffffffffffffffffffffffff1673ffffffffffffffffffffffffffffffffffffffff1681526020019060010190808311612928575b5050505050307fffffffffffffffffffffffffffffffffffffffffffffffffffffffffffffffff612d94565b612a528160006003805480602002602001604051908101604052809291908181526020018280548015612a2657602002820191906000526020600020905b8160009054906101000a900473ffffffffffffffffffffffffffffffffffffffff1673ffffffffffffffffffffffffffffffffffffffff16815260200190600101908083116129dc575b5050505050307fffffffffffffffffffffffffffffffffffffffffffffffffffffffffffffffff612d94565b50505050505050505050565b612b24612a756004836137c390919063ffffffff16565b600080805480602002602001604051908101604052809291908181526020018280548015612af857602002820191906000526020600020905b8160009054906101000a900473ffffffffffffffffffffffffffffffffffffffff1673ffffffffffffffffffffffffffffffffffffffff1681526020019060010190808311612aae575b5050505050307fffffffffffffffffffffffffffffffffffffffffffffffffffffffffffffffff612d94565b612beb612b3b6004836137c390919063ffffffff16565b60006001805480602002602001604051908101604052809291908181526020018280548015612bbf57602002820191906000526020600020905b8160009054906101000a900473ffffffffffffffffffffffffffffffffffffffff1673ffffffffffffffffffffffffffffffffffffffff1681526020019060010190808311612b75575b5050505050307fffffffffffffffffffffffffffffffffffffffffffffffffffffffffffffffff612d94565b612cb2612c026004836137c390919063ffffffff16565b60006002805480602002602001604051908101604052809291908181526020018280548015612c8657602002820191906000526020600020905b8160009054906101000a900473ffffffffffffffffffffffffffffffffffffffff1673ffffffffffffffffffffffffffffffffffffffff1681526020019060010190808311612c3c575b5050505050307fffffffffffffffffffffffffffffffffffffffffffffffffffffffffffffffff612d94565b612d79612cc96004836137c390919063ffffffff16565b60006003805480602002602001604051908101604052809291908181526020018280548015612d4d57602002820191906000526020600020905b8160009054906101000a900473ffffffffffffffffffffffffffffffffffffffff1673ffffffffffffffffffffffffffffffffffffffff1681526020019060010190808311612d03575b5050505050307fffffffffffffffffffffffffffffffffffffffffffffffffffffffffffffffff612d94565b50565b73ab594600376ec9fd91f8e885dadf0ce036862de081565b600b60009054906101000a900473ffffffffffffffffffffffffffffffffffffffff1673ffffffffffffffffffffffffffffffffffffffff166338ed173986868686866040518663ffffffff1660e01b815260040180868152602001858152602001806020018473ffffffffffffffffffffffffffffffffffffffff168152602001838152602001828103825285818151815260200191508051906020019060200280838360005b83811015612e57578082015181840152602081019050612e3c565b505050509050019650505050505050600060405180830381600087803b158015612e8057600080fd5b505af1158015612e94573d6000803e3d6000fd5b505050506040513d6000823e3d601f19601f820116820180604052506020811015612ebe57600080fd5b8101908080516040519392919084640100000000821115612ede57600080fd5b83820191506020820185811115612ef457600080fd5b8251866020820283011164010000000082111715612f1157600080fd5b8083526020830192505050908051906020019060200280838360005b83811015612f48578082015181840152602081019050612f2d565b50505050905001604052505050505050505050565b6000612f9b60028301600a0a612f8d612f7586611849565b612f7f883061356e565b61373d90919063ffffffff16565b6137c390919063ffffffff16565b90509392505050565b60038181548110612fb157fe5b906000526020600020016000915054906101000a900473ffffffffffffffffffffffffffffffffffffffff1681565b61301e730d500b1d8e8ef31e21c99d1db9a6444d3adf1270730319000133d3ada02600f0875d2cf03d442c33676a0845951614014849ffffff611e5c565b61303d730d500b1d8e8ef31e21c99d1db9a6444d3adf1270303061139f565b61307b730b3f868e0be5597d5db7feb59e1cadbb0fdda50a730319000133d3ada02600f0875d2cf03d442c33676a0845951614014849ffffff611e5c565b61309a730b3f868e0be5597d5db7feb59e1cadbb0fdda50a303061139f565b6130d8737ceb23fd6bc0add59e62ac25578270cff1b9f619730319000133d3ada02600f0875d2cf03d442c33676a0845951614014849ffffff611e5c565b6130f7737ceb23fd6bc0add59e62ac25578270cff1b9f619303061139f565b613135731bfd67037b42cf73acf2047067bd4f2c47d9bfd6730319000133d3ada02600f0875d2cf03d442c33676a0845951614014849ffffff611e5c565b613154731bfd67037b42cf73acf2047067bd4f2c47d9bfd6303061139f565b565b6000849050600a60009054906101000a900473ffffffffffffffffffffffffffffffffffffffff1673ffffffffffffffffffffffffffffffffffffffff1663f18d03cc828585886040518563ffffffff1660e01b8152600401808573ffffffffffffffffffffffffffffffffffffffff1681526020018473ffffffffffffffffffffffffffffffffffffffff1681526020018373ffffffffffffffffffffffffffffffffffffffff168152602001828152602001945050505050600060405180830381600087803b15801561322a57600080fd5b505af115801561323e573d6000803e3d6000fd5b505050505050505050565b60008273ffffffffffffffffffffffffffffffffffffffff166370a08231306040518263ffffffff1660e01b8152600401808273ffffffffffffffffffffffffffffffffffffffff16815260200191505060206040518083038186803b1580156132b257600080fd5b505afa1580156132c6573d6000803e3d6000fd5b505050506040513d60208110156132dc57600080fd5b810190808051906020019092919050505090506132fa838383611e5c565b505050565b600a60009054906101000a900473ffffffffffffffffffffffffffffffffffffffff1673ffffffffffffffffffffffffffffffffffffffff1663aee4d1b26040518163ffffffff1660e01b8152600401600060405180830381600087803b15801561336957600080fd5b505af115801561337d573d6000803e3d6000fd5b50505050565b73c907e116054ad103354f2d350fd2514433d57f6f81565b6000600960008373ffffffffffffffffffffffffffffffffffffffff1673ffffffffffffffffffffffffffffffffffffffff168152602001908152602001600020549050919050565b732791bca1f2de4661ed88a30c99a7a9449aa8417481565b731bfd67037b42cf73acf2047067bd4f2c47d9bfd681565b60085481565b6007818154811061342757fe5b906000526020600020016000915054906101000a900473ffffffffffffffffffffffffffffffffffffffff1681565b6002818154811061346357fe5b906000526020600020016000915054906101000a900473ffffffffffffffffffffffffffffffffffffffff1681565b600a60009054906101000a900473ffffffffffffffffffffffffffffffffffffffff1681565b3373ffffffffffffffffffffffffffffffffffffffff166108fc829081150290604051600060405180830381858888f193505050501580156134fe573d6000803e3d6000fd5b5050565b7349b0c695039243bbfeb8ecd054eb70061fd54aa081565b6001818154811061352757fe5b906000526020600020016000915054906101000a900473ffffffffffffffffffffffffffffffffffffffff1681565b730d500b1d8e8ef31e21c99d1db9a6444d3adf127081565b600080839050600a60009054906101000a900473ffffffffffffffffffffffffffffffffffffffff1673ffffffffffffffffffffffffffffffffffffffff1663f7888aec82856040518363ffffffff1660e01b8152600401808373ffffffffffffffffffffffffffffffffffffffff1681526020018273ffffffffffffffffffffffffffffffffffffffff1681526020019250505060206040518083038186803b15801561361b57600080fd5b505afa15801561362f573d6000803e3d6000fd5b505050506040513d602081101561364557600080fd5b810190808051906020019092919050505091505092915050565b730319000133d3ada02600f0875d2cf03d442c336781565b60096020528060005260406000206000915090505481565b600b60009054906101000a900473ffffffffffffffffffffffffffffffffffffffff1681565b600080828401905083811015613733576040517f08c379a000000000000000000000000000000000000000000000000000000000815260040180806020018281038252601b8152602001807f536166654d6174683a206164646974696f6e206f766572666c6f77000000000081525060200191505060405180910390fd5b8091505092915050565b60008083141561375057600090506137bd565b600082840290508284828161376157fe5b04146137b8576040517f08c379a000000000000000000000000000000000000000000000000000000000815260040180806020018281038252602181526020018061384d6021913960400191505060405180910390fd5b809150505b92915050565b600080821161383a576040517f08c379a000000000000000000000000000000000000000000000000000000000815260040180806020018281038252601a8152602001807f536166654d6174683a206469766973696f6e206279207a65726f00000000000081525060200191505060405180910390fd5b81838161384357fe5b0490509291505056fe536166654d6174683a206d756c7469706c69636174696f6e206f766572666c6f77a2646970667358221220935139e07bd1bc189775d73b4519e11cde8fc85a6d9c7048840b04162bdba54c64736f6c634300060c0033",
  "immutableReferences": {},
  "source": "pragma solidity ^0.6.12;\n\n//import statements go here\nimport \"./interfaces/IBentoBoxV1.sol\";\nimport \"./interfaces/IUniswapV2Router02.sol\";\nimport \"./interfaces/IUniswapV2Router01.sol\";\nimport \"@openzeppelin/contracts/math/SafeMath.sol\";\nimport \"@chainlink/contracts/src/v0.6/interfaces/AggregatorV3Interface.sol\";\n\ncontract bentoboxDapp {\n    using SafeMath for uint256;\n\n    address public constant BENTOBOX_MASTER_CONTRACT_ADDRESS = 0x0319000133d3AdA02600f0875d2cf03D442C3367;\n\n    address public constant USDC_ADDRESS = 0x2791Bca1f2de4661ED88A30C99A7a9449Aa84174;\n    \n    address public constant WMATIC_ADDRESS = 0x0d500B1d8E8eF31E21C99d1Db9A6444d3ADf1270;\n    address public constant SUSHI_ADDRESS = 0x0b3F868E0BE5597D5DB7fEB59E1CADBb0fdDa50a;\n    address public constant WETH_ADDRESS = 0x7ceB23fD6bC0adD59E62ac25578270cFf1b9f619;\n    address public constant WBTC_ADDRESS = 0x1BFD67037B42Cf73acF2047067bd4F2C47D9BfD6;\n\n    address public constant MATIC_USD_ORACLE = 0xAB594600376Ec9fD91F8e885dADF0CE036862dE0;\n    address public constant BTC_USD_ORACLE = 0xc907E116054Ad103354f2D350FD2514433D57F6f;\n    address public constant ETH_USD_ORACLE = 0xF9680D99D6C9589e2a93a78A04A279e509205945;\n    address public constant SUSHI_USD_ORACLE = 0x49B0c695039243BBfEb8EcD054EB70061fd54aa0;\n\n    address[] public USDCToWMATICPath = [USDC_ADDRESS, WMATIC_ADDRESS];\n    address[] public USDCToSUSHIPath = [USDC_ADDRESS, SUSHI_ADDRESS];\n    address[] public USDCToWETHPath = [USDC_ADDRESS, WETH_ADDRESS];\n    address[] public USDCToWBTCPath = [USDC_ADDRESS, WBTC_ADDRESS];\n\n    address[] public WMATICToUSDCPath = [WMATIC_ADDRESS, USDC_ADDRESS];\n    address[] public SUSHIToUSDCPath = [SUSHI_ADDRESS, USDC_ADDRESS];\n    address[] public WETHToUSDCPath = [WETH_ADDRESS, USDC_ADDRESS];\n    address[] public WBTCToUSDCPath = [WBTC_ADDRESS, USDC_ADDRESS];\n\n    address public constant SUSHISWAP_ROUTER = 0x1b02dA8Cb0d097eB8D57A175b88c7D8b47997506;\n    \n    uint256 public totalNumberOfShares;\n    mapping(address => uint256) public userNumberOfShares; \n\n    IBentoBoxV1 public BentoMasterContract = IBentoBoxV1(BENTOBOX_MASTER_CONTRACT_ADDRESS);\n    IUniswapV2Router02 public sushiSwapRouter = IUniswapV2Router02(SUSHISWAP_ROUTER);\n    //more variables here\n    // constructor() autoBalancer public {\n    //     // BentoMasterContract = IBentoBoxV1(BENTOBOX_MASTER_CONTRACT_ADDRESS);\n    //     // BentoMasterContract.registerProtocol();\n    // } \n\n    function registerProtocol () public {\n        BentoMasterContract.registerProtocol();\n    }\n    \n    /**\n     * Returns the latest price\n     */\n    function getLatestPrice(address _oracle_address) public view returns (int) {\n        (\n            uint80 roundID, \n            int price,\n            uint startedAt,\n            uint timeStamp,\n            uint80 answeredInRound\n        ) = AggregatorV3Interface(_oracle_address).latestRoundData();\n        return price;\n    }\n\n    function updateSharesOnWithdrawal(address user) public { //make this ownable - only contract itself can update this?\n        require (userNumberOfShares[user] > 0, \"Error - This user has no shares\");\n        totalNumberOfShares -= userNumberOfShares[user];\n        userNumberOfShares[user] = 0;\n    }\n\n    function getUserShares(address user) public view returns (uint256 userShares) {\n        return userNumberOfShares[user];\n    }\n\n    function approve_spending (address token_address, address spender_address, uint256 amount_to_approve) public {\n            IERC20(token_address).approve(spender_address, amount_to_approve);\n    }\n    \n     receive() external payable {\n    }\n\n    function depositToBento (uint256 amount_, address token_address, address address_from, address address_to) public  {\n            IERC20 token_ = IERC20(token_address);\n\n            BentoMasterContract.deposit(\n            token_, //IERC20 token_ what is this? USDC contract address? no, I think it's the instantiation of an ERC20...\n            address_from, //from - this would be from the dapp\n            address_to, //to - this would be to bentobox?\n            amount_, //10USDC?\n            0 //leave blank I think...\n            );\n    }\n\n    function depositUserFunds (uint256 amount_, address token_address, address address_from, address address_to) public  {\n        IERC20 token_ = IERC20(token_address);\n\n        BentoMasterContract.deposit(\n        token_, //IERC20 token_ what is this? USDC contract address? no, I think it's the instantiation of an ERC20...\n        address_from, //from - this would be from the dapp\n        address_to, //to - this would be to bentobox?\n        amount_, //10USDC?\n        0 //leave blank I think...\n        );\n\n        withdraw(amount_, token_address, address(this), address(this));\n\n        approve_spending(USDC_ADDRESS, SUSHISWAP_ROUTER, amount_);\n\n        uint256 WMATIC_balanceInUSD = getUSDBentoTokenBalanceOf(WMATIC_ADDRESS, MATIC_USD_ORACLE, 18);\n        uint256 SUSHI_balanceInUSD = getUSDBentoTokenBalanceOf(SUSHI_ADDRESS, SUSHI_USD_ORACLE, 18);\n        uint256 WETH_balanceInUSD = getUSDBentoTokenBalanceOf(WETH_ADDRESS, ETH_USD_ORACLE, 18);\n        uint256 WBTC_balanceInUSD = getUSDBentoTokenBalanceOf(WBTC_ADDRESS, BTC_USD_ORACLE, 8);\n\n        uint256 Total_in_USD = WMATIC_balanceInUSD.add(SUSHI_balanceInUSD).add(WETH_balanceInUSD).add(WBTC_balanceInUSD);\n        \n        if (Total_in_USD > 0) {\n            swapProportionately(WMATIC_balanceInUSD, SUSHI_balanceInUSD, WETH_balanceInUSD, WBTC_balanceInUSD, Total_in_USD, amount_);\n        } else {\n            swapIntoFourEqualParts(amount_);\n        }\n        \n        depositAllFourTokensBackToBento();\n\n        if (Total_in_USD > 0) {\n            updateSharesOnDeposit(address_from, Total_in_USD, amount_);\n        } else {\n            setSharesFirstTime(address_from);\n        }\n    }\n    function getUSDBentoTokenBalanceOf(address token_address, address oracle_address, uint256 token_decimals) public view returns (uint256) {\n        // uint256 token_decimals = ERC20(token_address).decimals();\n        return BentoTokenBalanceOf(token_address, address(this))\n        .mul(uint256(getLatestPrice(oracle_address)))\n        .div(10**(token_decimals+2));\n    }\n\n\n\n    function swapProportionately(uint256 WMATIC_amount, uint256 SUSHI_amount, uint256 WETH_amount, uint256 WBTC_amount, uint256 totalUSDAmount, uint256 depositAmount) public {\n        uint256 WMATIC_share = WMATIC_amount.mul(depositAmount).div(totalUSDAmount); \n        uint256 SUSHI_share = SUSHI_amount.mul(depositAmount).div(totalUSDAmount);\n        uint256 WETH_share = WETH_amount.mul(depositAmount).div(totalUSDAmount);\n        uint256 WBTC_share = WBTC_amount.mul(depositAmount).div(totalUSDAmount);\n\n        swap(WMATIC_share, uint256(0), USDCToWMATICPath, address(this), uint256(-1));\n        swap(SUSHI_share, uint256(0), USDCToSUSHIPath, address(this), uint256(-1));\n        swap(WETH_share, uint256(0), USDCToWETHPath, address(this), uint256(-1));\n        swap(WBTC_share, uint256(0), USDCToWBTCPath, address(this), uint256(-1));\n    }\n\n    function swapIntoFourEqualParts(uint256 amount) public {\n        swap(amount.div(4), uint256(0), USDCToWMATICPath, address(this), uint256(-1));\n        swap(amount.div(4), uint256(0), USDCToSUSHIPath, address(this), uint256(-1));\n        swap(amount.div(4), uint256(0), USDCToWETHPath, address(this), uint256(-1));\n        swap(amount.div(4), uint256(0), USDCToWBTCPath, address(this), uint256(-1));\n    }\n\n    function depositAllFourTokensBackToBento() public {\n        approve_spending(WMATIC_ADDRESS, BENTOBOX_MASTER_CONTRACT_ADDRESS, 9999999999999999999999999);\n        depositTokenBalanceToBento(WMATIC_ADDRESS, address(this), address(this));\n        approve_spending(SUSHI_ADDRESS, BENTOBOX_MASTER_CONTRACT_ADDRESS, 9999999999999999999999999);\n        depositTokenBalanceToBento(SUSHI_ADDRESS, address(this), address(this));\n        approve_spending(WETH_ADDRESS, BENTOBOX_MASTER_CONTRACT_ADDRESS, 9999999999999999999999999);\n        depositTokenBalanceToBento(WETH_ADDRESS, address(this), address(this));\n        approve_spending(WBTC_ADDRESS, BENTOBOX_MASTER_CONTRACT_ADDRESS, 9999999999999999999999999);\n        depositTokenBalanceToBento(WBTC_ADDRESS, address(this), address(this));\n    }\n\n    function setSharesFirstTime(address user) public {\n        userNumberOfShares[user] = 100000000;\n        totalNumberOfShares = userNumberOfShares[user];\n    }\n\n    function updateSharesOnDeposit(address user, uint256 total_in_USD, uint256 deposit_amount) public { //make this ownable - only contract itself can update this?\n        uint256 newSharesForUser = deposit_amount.mul(totalNumberOfShares).div(total_in_USD);\n        totalNumberOfShares = totalNumberOfShares.add(newSharesForUser);\n        if (userNumberOfShares[user] > 0) {\n            userNumberOfShares[user] = userNumberOfShares[user].add(newSharesForUser);\n        } else {\n            userNumberOfShares[user] = newSharesForUser;\n        }\n    }\n\n    function depositTokenBalanceToBento (address token_address, address address_from, address address_to) public  {\n        IERC20 token_ = IERC20(token_address);\n        uint256 tokenBalance = token_.balanceOf(address_from);\n        \n        BentoMasterContract.deposit(\n        token_, //IERC20 token_ the instantiation of an ERC20...\n        address_from, //from - this would be from the dapp or the user\n        address_to, //to - this would be to bentobox\n        tokenBalance, //10USDC?\n        0 //leave blank I think...\n        );\n    }\n    function withdrawUserFunds(address user) public {\n        //do I need an approval here?\n\n        uint256 WMATIC_amount = userNumberOfShares[user].mul(BentoTokenBalanceOf(WMATIC_ADDRESS, address(this))).div(totalNumberOfShares);\n        uint256 SUSHI_amount = userNumberOfShares[user].mul(BentoTokenBalanceOf(SUSHI_ADDRESS, address(this))).div(totalNumberOfShares);\n        uint256 WETH_amount = userNumberOfShares[user].mul(BentoTokenBalanceOf(WETH_ADDRESS, address(this))).div(totalNumberOfShares);\n        uint256 WBTC_amount = userNumberOfShares[user].mul(BentoTokenBalanceOf(WBTC_ADDRESS, address(this))).div(totalNumberOfShares);\n\n        withdrawAllFourTokensFromBento(WMATIC_amount, SUSHI_amount, WETH_amount, WBTC_amount);\n\n        approveSpendingWholeBalance(WMATIC_ADDRESS, SUSHISWAP_ROUTER);\n        approveSpendingWholeBalance(SUSHI_ADDRESS, SUSHISWAP_ROUTER);\n        approveSpendingWholeBalance(WETH_ADDRESS, SUSHISWAP_ROUTER);\n        approveSpendingWholeBalance(WBTC_ADDRESS, SUSHISWAP_ROUTER);\n\n        swapWholeBalanceBackToUSDC(WMATIC_ADDRESS);\n        swapWholeBalanceBackToUSDC(SUSHI_ADDRESS);\n        swapWholeBalanceBackToUSDC(WETH_ADDRESS);\n        swapWholeBalanceBackToUSDC(WBTC_ADDRESS);\n\n        approveSpendingWholeBalance(USDC_ADDRESS, BENTOBOX_MASTER_CONTRACT_ADDRESS);\n        \n        depositTokenBalanceToBento(USDC_ADDRESS, address(this), address(this));\n\n        uint256 USDC_amount = BentoTokenBalanceOf(USDC_ADDRESS, address(this));\n        withdraw(USDC_amount, USDC_ADDRESS, address(this), user);\n\n        updateSharesOnWithdrawal(user);\n    }\n\n    function withdrawAllFourTokensFromBento(uint256 _WMATIC_amount, uint256 _SUSHI_amount, uint256 _WETH_amount, uint256 _WBTC_amount) public {\n        withdraw(_WMATIC_amount, WMATIC_ADDRESS, address(this), address(this));\n        withdraw(_SUSHI_amount, SUSHI_ADDRESS, address(this), address(this));\n        withdraw(_WETH_amount, WETH_ADDRESS, address(this), address(this));\n        withdraw(_WBTC_amount, WBTC_ADDRESS, address(this), address(this));\n    }\n\n    function withdraw(uint256 amount_, address token_address, address address_from, address address_to) public  {\n        IERC20 token_ = IERC20(token_address); //is this right?\n\n        BentoMasterContract.withdraw(\n        token_, \n        address_from, //address from - the bentobox master contract address??\n        address_to, //address to - the address of the dapp itself\n        amount_, //leave blank?\n        0 //uint256 share\n    );\n    }\n\n    function approveSpendingWholeBalance(address _token, address _spender) public {\n        uint256 tokenBalance = IERC20(_token).balanceOf(address(this));\n        approve_spending(_token, _spender, tokenBalance);\n    }\n\n    function swapWholeBalanceBackToUSDC(address _token) public {\n        uint256 tokenBalance = IERC20(_token).balanceOf(address(this));\n        address[] memory path = new address[](2);\n        path[0] = _token;\n        path[1] = USDC_ADDRESS;\n        swap(tokenBalance, uint256(0), path, address(this), uint256(-1));\n    }\n    \n    function withdraw_matic(uint256 amount_) public {\n        msg.sender.transfer(amount_);\n    }\n    \n    function transfer(address token_address, uint256 _share, address address_from, address address_to) public  {\n        IERC20 _token = IERC20(token_address);\n    // do I call this on bentomastercontract? I think so. But then it's the app making the call.\n    BentoMasterContract.transfer(\n        _token, //IERC20 token\n        address_from, //address from - a specified user address\n        address_to, //address to - the dapp itself receives the funds\n        _share //uint256 share\n        );\n    }\n\n    function BentoTokenBalanceOf(address token_address, address user_address) public view returns (uint256 token_balance) {\n        IERC20 _token = IERC20(token_address);\n        token_balance = BentoMasterContract.balanceOf(_token, user_address);\n        return token_balance;\n    }\n    \n    function swap(uint256 _amountIn, uint256 _amountOutMin, address[] memory _path, address _acct, uint256 _deadline) public {\n        \n       sushiSwapRouter.swapExactTokensForTokens(\n            _amountIn,\n            _amountOutMin,\n            _path,\n            _acct,\n            _deadline);\n        }\n    }\n    \n\n    ",
  "sourcePath": "/Users/richardjamieson/Documents/GitHub/BentoBoxBalancer/contracts/bentoboxDapp.sol",
  "compiler": {
    "name": "solc",
    "version": "0.6.12+commit.27d51765.Emscripten.clang"
  },
  "schemaVersion": "3.3.4",
  "updatedAt": "2021-09-09T15:01:38.346Z",
  "networkType": "ethereum",
  "devdoc": {
    "kind": "dev",
    "methods": {},
    "version": 1
  },
  "userdoc": {
    "kind": "user",
    "methods": {
      "getLatestPrice(address)": {
        "notice": "Returns the latest price"
      }
    },
    "version": 1
  }
}