{
  "contractName": "bentoboxDapp",
  "abi": [
    {
      "inputs": [],
      "name": "BENTOBOX_MASTER_CONTRACT_ADDRESS",
      "outputs": [
        {
          "internalType": "address",
          "name": "",
          "type": "address"
        }
      ],
      "stateMutability": "view",
      "type": "function",
      "constant": true
    },
    {
      "inputs": [],
      "name": "BentoMasterContract",
      "outputs": [
        {
          "internalType": "contract IBentoBoxV1",
          "name": "",
          "type": "address"
        }
      ],
      "stateMutability": "view",
      "type": "function",
      "constant": true
    },
    {
      "inputs": [],
      "name": "SUSHISWAP_ROUTER",
      "outputs": [
        {
          "internalType": "address",
          "name": "",
          "type": "address"
        }
      ],
      "stateMutability": "view",
      "type": "function",
      "constant": true
    },
    {
      "inputs": [],
      "name": "USDC_ADDRESS",
      "outputs": [
        {
          "internalType": "address",
          "name": "",
          "type": "address"
        }
      ],
      "stateMutability": "view",
      "type": "function",
      "constant": true
    },
    {
      "inputs": [],
      "name": "WETH_ADDRESS",
      "outputs": [
        {
          "internalType": "address",
          "name": "",
          "type": "address"
        }
      ],
      "stateMutability": "view",
      "type": "function",
      "constant": true
    },
    {
      "inputs": [],
      "name": "sushiSwapRouter",
      "outputs": [
        {
          "internalType": "contract IUniswapV2Router02",
          "name": "",
          "type": "address"
        }
      ],
      "stateMutability": "view",
      "type": "function",
      "constant": true
    },
    {
      "stateMutability": "payable",
      "type": "receive",
      "payable": true
    },
    {
      "inputs": [],
      "name": "registerProtocol",
      "outputs": [],
      "stateMutability": "nonpayable",
      "type": "function"
    },
    {
      "inputs": [
        {
          "internalType": "address",
          "name": "token_address",
          "type": "address"
        },
        {
          "internalType": "address",
          "name": "spender_address",
          "type": "address"
        },
        {
          "internalType": "uint256",
          "name": "amount_to_approve",
          "type": "uint256"
        }
      ],
      "name": "approve_spending",
      "outputs": [],
      "stateMutability": "nonpayable",
      "type": "function"
    },
    {
      "inputs": [
        {
          "internalType": "uint256",
          "name": "amount_",
          "type": "uint256"
        },
        {
          "internalType": "address",
          "name": "token_address",
          "type": "address"
        },
        {
          "internalType": "address",
          "name": "address_from",
          "type": "address"
        },
        {
          "internalType": "address",
          "name": "address_to",
          "type": "address"
        }
      ],
      "name": "depositToBento",
      "outputs": [],
      "stateMutability": "nonpayable",
      "type": "function"
    },
    {
      "inputs": [
        {
          "internalType": "address",
          "name": "token_address",
          "type": "address"
        },
        {
          "internalType": "address",
          "name": "address_from",
          "type": "address"
        },
        {
          "internalType": "address",
          "name": "address_to",
          "type": "address"
        }
      ],
      "name": "depositTokenBalanceToBento",
      "outputs": [],
      "stateMutability": "nonpayable",
      "type": "function"
    },
    {
      "inputs": [
        {
          "internalType": "uint256",
          "name": "amount_",
          "type": "uint256"
        },
        {
          "internalType": "address",
          "name": "token_address",
          "type": "address"
        },
        {
          "internalType": "address",
          "name": "address_from",
          "type": "address"
        },
        {
          "internalType": "address",
          "name": "address_to",
          "type": "address"
        }
      ],
      "name": "withdraw",
      "outputs": [],
      "stateMutability": "nonpayable",
      "type": "function"
    },
    {
      "inputs": [
        {
          "internalType": "uint256",
          "name": "amount_",
          "type": "uint256"
        }
      ],
      "name": "withdraw_matic",
      "outputs": [],
      "stateMutability": "nonpayable",
      "type": "function"
    },
    {
      "inputs": [
        {
          "internalType": "address",
          "name": "token_address",
          "type": "address"
        },
        {
          "internalType": "uint256",
          "name": "_share",
          "type": "uint256"
        },
        {
          "internalType": "address",
          "name": "address_from",
          "type": "address"
        },
        {
          "internalType": "address",
          "name": "address_to",
          "type": "address"
        }
      ],
      "name": "transfer",
      "outputs": [],
      "stateMutability": "nonpayable",
      "type": "function"
    },
    {
      "inputs": [
        {
          "internalType": "address",
          "name": "token_address",
          "type": "address"
        },
        {
          "internalType": "address",
          "name": "user_address",
          "type": "address"
        }
      ],
      "name": "BentoTokenBalanceOf",
      "outputs": [
        {
          "internalType": "uint256",
          "name": "token_balance",
          "type": "uint256"
        }
      ],
      "stateMutability": "view",
      "type": "function",
      "constant": true
    },
    {
      "inputs": [
        {
          "internalType": "uint256",
          "name": "_amountIn",
          "type": "uint256"
        },
        {
          "internalType": "uint256",
          "name": "_amountOutMin",
          "type": "uint256"
        },
        {
          "internalType": "address[]",
          "name": "_path",
          "type": "address[]"
        },
        {
          "internalType": "address",
          "name": "_acct",
          "type": "address"
        },
        {
          "internalType": "uint256",
          "name": "_deadline",
          "type": "uint256"
        }
      ],
      "name": "swap",
      "outputs": [],
      "stateMutability": "nonpayable",
      "type": "function"
    }
  ],
  "bytecode": "0x6080604052730319000133d3ada02600f0875d2cf03d442c33676000806101000a81548173ffffffffffffffffffffffffffffffffffffffff021916908373ffffffffffffffffffffffffffffffffffffffff160217905550731b02da8cb0d097eb8d57a175b88c7d8b47997506600160006101000a81548173ffffffffffffffffffffffffffffffffffffffff021916908373ffffffffffffffffffffffffffffffffffffffff1602179055503480156100b957600080fd5b50611110806100c96000396000f3fe6080604052600436106100ec5760003560e01c8063a6c4e4671161008a578063d9155b1111610059578063d9155b11146105ba578063ec8def84146105f5578063edc46f3d1461067a578063fd829a23146106bb576100f9565b8063a6c4e46714610486578063aee4d1b214610521578063bb09d9b714610538578063d58c5b0b14610579576100f9565b8063277754ed116100c6578063277754ed1461026b57806329a97ec2146102ac57806335c67cd61461032757806390f11e84146103c2576100f9565b8063040141e5146100fe5780630d36b76b1461013f57806323e103a8146101d0576100f9565b366100f957600034905050005b600080fd5b34801561010a57600080fd5b506101136106fc565b604051808273ffffffffffffffffffffffffffffffffffffffff16815260200191505060405180910390f35b34801561014b57600080fd5b506101ce6004803603606081101561016257600080fd5b81019080803573ffffffffffffffffffffffffffffffffffffffff169060200190929190803573ffffffffffffffffffffffffffffffffffffffff169060200190929190803573ffffffffffffffffffffffffffffffffffffffff169060200190929190505050610714565b005b3480156101dc57600080fd5b50610269600480360360808110156101f357600080fd5b8101908080359060200190929190803573ffffffffffffffffffffffffffffffffffffffff169060200190929190803573ffffffffffffffffffffffffffffffffffffffff169060200190929190803573ffffffffffffffffffffffffffffffffffffffff1690602001909291905050506108e2565b005b34801561027757600080fd5b50610280610a0a565b604051808273ffffffffffffffffffffffffffffffffffffffff16815260200191505060405180910390f35b3480156102b857600080fd5b50610325600480360360608110156102cf57600080fd5b81019080803573ffffffffffffffffffffffffffffffffffffffff169060200190929190803573ffffffffffffffffffffffffffffffffffffffff16906020019092919080359060200190929190505050610a22565b005b34801561033357600080fd5b506103c06004803603608081101561034a57600080fd5b8101908080359060200190929190803573ffffffffffffffffffffffffffffffffffffffff169060200190929190803573ffffffffffffffffffffffffffffffffffffffff169060200190929190803573ffffffffffffffffffffffffffffffffffffffff169060200190929190505050610ad4565b005b3480156103ce57600080fd5b50610484600480360360a08110156103e557600080fd5b8101908080359060200190929190803590602001909291908035906020019064010000000081111561041657600080fd5b82018360208201111561042857600080fd5b8035906020019184602083028401116401000000008311171561044a57600080fd5b9091929391929390803573ffffffffffffffffffffffffffffffffffffffff16906020019092919080359060200190929190505050610bfc565b005b34801561049257600080fd5b5061051f600480360360808110156104a957600080fd5b81019080803573ffffffffffffffffffffffffffffffffffffffff16906020019092919080359060200190929190803573ffffffffffffffffffffffffffffffffffffffff169060200190929190803573ffffffffffffffffffffffffffffffffffffffff169060200190929190505050610db4565b005b34801561052d57600080fd5b50610536610ea5565b005b34801561054457600080fd5b5061054d610f27565b604051808273ffffffffffffffffffffffffffffffffffffffff16815260200191505060405180910390f35b34801561058557600080fd5b5061058e610f3f565b604051808273ffffffffffffffffffffffffffffffffffffffff16815260200191505060405180910390f35b3480156105c657600080fd5b506105f3600480360360208110156105dd57600080fd5b8101908080359060200190929190505050610f63565b005b34801561060157600080fd5b506106646004803603604081101561061857600080fd5b81019080803573ffffffffffffffffffffffffffffffffffffffff169060200190929190803573ffffffffffffffffffffffffffffffffffffffff169060200190929190505050610fad565b6040518082815260200191505060405180910390f35b34801561068657600080fd5b5061068f61109c565b604051808273ffffffffffffffffffffffffffffffffffffffff16815260200191505060405180910390f35b3480156106c757600080fd5b506106d06110b4565b604051808273ffffffffffffffffffffffffffffffffffffffff16815260200191505060405180910390f35b737ceb23fd6bc0add59e62ac25578270cff1b9f61981565b600083905060008173ffffffffffffffffffffffffffffffffffffffff166370a08231856040518263ffffffff1660e01b8152600401808273ffffffffffffffffffffffffffffffffffffffff16815260200191505060206040518083038186803b15801561078257600080fd5b505afa158015610796573d6000803e3d6000fd5b505050506040513d60208110156107ac57600080fd5b8101908080519060200190929190505050905060008054906101000a900473ffffffffffffffffffffffffffffffffffffffff1673ffffffffffffffffffffffffffffffffffffffff166302b9446c8386868560006040518663ffffffff1660e01b8152600401808673ffffffffffffffffffffffffffffffffffffffff1681526020018573ffffffffffffffffffffffffffffffffffffffff1681526020018473ffffffffffffffffffffffffffffffffffffffff168152602001838152602001828152602001955050505050506040805180830381600087803b15801561089457600080fd5b505af11580156108a8573d6000803e3d6000fd5b505050506040513d60408110156108be57600080fd5b81019080805190602001909291908051906020019092919050505050505050505050565b600083905060008054906101000a900473ffffffffffffffffffffffffffffffffffffffff1673ffffffffffffffffffffffffffffffffffffffff166397da6d308285858960006040518663ffffffff1660e01b8152600401808673ffffffffffffffffffffffffffffffffffffffff1681526020018573ffffffffffffffffffffffffffffffffffffffff1681526020018473ffffffffffffffffffffffffffffffffffffffff168152602001838152602001828152602001955050505050506040805180830381600087803b1580156109bc57600080fd5b505af11580156109d0573d6000803e3d6000fd5b505050506040513d60408110156109e657600080fd5b81019080805190602001909291908051906020019092919050505050505050505050565b731b02da8cb0d097eb8d57a175b88c7d8b4799750681565b8273ffffffffffffffffffffffffffffffffffffffff1663095ea7b383836040518363ffffffff1660e01b8152600401808373ffffffffffffffffffffffffffffffffffffffff16815260200182815260200192505050602060405180830381600087803b158015610a9357600080fd5b505af1158015610aa7573d6000803e3d6000fd5b505050506040513d6020811015610abd57600080fd5b810190808051906020019092919050505050505050565b600083905060008054906101000a900473ffffffffffffffffffffffffffffffffffffffff1673ffffffffffffffffffffffffffffffffffffffff166302b9446c8285858960006040518663ffffffff1660e01b8152600401808673ffffffffffffffffffffffffffffffffffffffff1681526020018573ffffffffffffffffffffffffffffffffffffffff1681526020018473ffffffffffffffffffffffffffffffffffffffff168152602001838152602001828152602001955050505050506040805180830381600087803b158015610bae57600080fd5b505af1158015610bc2573d6000803e3d6000fd5b505050506040513d6040811015610bd857600080fd5b81019080805190602001909291908051906020019092919050505050505050505050565b600160009054906101000a900473ffffffffffffffffffffffffffffffffffffffff1673ffffffffffffffffffffffffffffffffffffffff166338ed17398787878787876040518763ffffffff1660e01b815260040180878152602001868152602001806020018473ffffffffffffffffffffffffffffffffffffffff1681526020018381526020018281038252868682818152602001925060200280828437600081840152601f19601f820116905080830192505050975050505050505050600060405180830381600087803b158015610cd657600080fd5b505af1158015610cea573d6000803e3d6000fd5b505050506040513d6000823e3d601f19601f820116820180604052506020811015610d1457600080fd5b8101908080516040519392919084640100000000821115610d3457600080fd5b83820191506020820185811115610d4a57600080fd5b8251866020820283011164010000000082111715610d6757600080fd5b8083526020830192505050908051906020019060200280838360005b83811015610d9e578082015181840152602081019050610d83565b5050505090500160405250505050505050505050565b600084905060008054906101000a900473ffffffffffffffffffffffffffffffffffffffff1673ffffffffffffffffffffffffffffffffffffffff1663f18d03cc828585886040518563ffffffff1660e01b8152600401808573ffffffffffffffffffffffffffffffffffffffff1681526020018473ffffffffffffffffffffffffffffffffffffffff1681526020018373ffffffffffffffffffffffffffffffffffffffff168152602001828152602001945050505050600060405180830381600087803b158015610e8657600080fd5b505af1158015610e9a573d6000803e3d6000fd5b505050505050505050565b60008054906101000a900473ffffffffffffffffffffffffffffffffffffffff1673ffffffffffffffffffffffffffffffffffffffff1663aee4d1b26040518163ffffffff1660e01b8152600401600060405180830381600087803b158015610f0d57600080fd5b505af1158015610f21573d6000803e3d6000fd5b50505050565b732791bca1f2de4661ed88a30c99a7a9449aa8417481565b60008054906101000a900473ffffffffffffffffffffffffffffffffffffffff1681565b3373ffffffffffffffffffffffffffffffffffffffff166108fc829081150290604051600060405180830381858888f19350505050158015610fa9573d6000803e3d6000fd5b5050565b60008083905060008054906101000a900473ffffffffffffffffffffffffffffffffffffffff1673ffffffffffffffffffffffffffffffffffffffff1663f7888aec82856040518363ffffffff1660e01b8152600401808373ffffffffffffffffffffffffffffffffffffffff1681526020018273ffffffffffffffffffffffffffffffffffffffff1681526020019250505060206040518083038186803b15801561105857600080fd5b505afa15801561106c573d6000803e3d6000fd5b505050506040513d602081101561108257600080fd5b810190808051906020019092919050505091505092915050565b730319000133d3ada02600f0875d2cf03d442c336781565b600160009054906101000a900473ffffffffffffffffffffffffffffffffffffffff168156fea2646970667358221220dc7d47f9db18433489c1558a68851d1190d2d1c3e61e73093428d87518a3e8bd64736f6c634300060c0033",
  "immutableReferences": {},
  "source": "pragma solidity ^0.6.12;\n\n//import statements go here\nimport \"./interfaces/IBentoBoxV1.sol\";\nimport \"./interfaces/IUniswapV2Router02.sol\";\nimport \"./interfaces/IUniswapV2Router01.sol\";\n\ncontract bentoboxDapp {\n    address public constant BENTOBOX_MASTER_CONTRACT_ADDRESS = 0x0319000133d3AdA02600f0875d2cf03D442C3367;\n    address public constant USDC_ADDRESS = 0x2791Bca1f2de4661ED88A30C99A7a9449Aa84174;\n    address public constant WETH_ADDRESS = 0x7ceB23fD6bC0adD59E62ac25578270cFf1b9f619;\n    address public constant SUSHISWAP_ROUTER = 0x1b02dA8Cb0d097eB8D57A175b88c7D8b47997506;\n    \n    IBentoBoxV1 public BentoMasterContract = IBentoBoxV1(BENTOBOX_MASTER_CONTRACT_ADDRESS);\n    IUniswapV2Router02 public sushiSwapRouter = IUniswapV2Router02(SUSHISWAP_ROUTER);\n    //more variables here\n    // constructor() autoBalancer public {\n    //     // BentoMasterContract = IBentoBoxV1(BENTOBOX_MASTER_CONTRACT_ADDRESS);\n    //     // BentoMasterContract.registerProtocol();\n    // } \n    \n    function registerProtocol () public {\n        BentoMasterContract.registerProtocol();\n    }\n    \n    function approve_spending (address token_address, address spender_address, uint256 amount_to_approve) public {\n            IERC20(token_address).approve(spender_address, amount_to_approve);\n    }\n    \n     receive() external payable {\n        uint256 value = msg.value; \n    }\n\n    function depositToBento (uint256 amount_, address token_address, address address_from, address address_to) public  {\n        IERC20 token_ = IERC20(token_address);\n\n        BentoMasterContract.deposit(\n        token_, //IERC20 token_ what is this? USDC contract address? no, I think it's the instantiation of an ERC20...\n        address_from, //from - this would be from the dapp\n        address_to, //to - this would be to bentobox?\n        amount_, //10USDC?\n        0 //leave blank I think...\n        );\n    }\n    \n    function depositTokenBalanceToBento (address token_address, address address_from, address address_to) public  {\n        IERC20 token_ = IERC20(token_address);\n        uint256 tokenBalance = token_.balanceOf(address_from);\n        \n        BentoMasterContract.deposit(\n        token_, //IERC20 token_ the instantiation of an ERC20...\n        address_from, //from - this would be from the dapp or the user\n        address_to, //to - this would be to bentobox\n        tokenBalance, //10USDC?\n        0 //leave blank I think...\n        );\n    }\n    \n    function withdraw(uint256 amount_, address token_address, address address_from, address address_to) public  {\n        IERC20 token_ = IERC20(token_address); //is this right?\n\n        BentoMasterContract.withdraw(\n        token_, \n        address_from, //address from - the bentobox master contract address??\n        address_to, //address to - the address of the dapp itself\n        amount_, //leave blank?\n        0 //uint256 share\n    );\n    }\n    \n    function withdraw_matic(uint256 amount_) public {\n        msg.sender.transfer(amount_);\n    }\n    \n    function transfer(address token_address, uint256 _share, address address_from, address address_to) public  {\n        IERC20 _token = IERC20(token_address);\n    // do I call this on bentomastercontract? I think so. But then it's the app making the call.\n    BentoMasterContract.transfer(\n        _token, //IERC20 token\n        address_from, //address from - a specified user address\n        address_to, //address to - the dapp itself receives the funds\n        _share //uint256 share\n        );\n    }\n\n    function BentoTokenBalanceOf(address token_address, address user_address) public view returns (uint256 token_balance) {\n        IERC20 _token = IERC20(token_address);\n        token_balance = BentoMasterContract.balanceOf(_token, user_address);\n        return token_balance;\n    }\n    \n    function swap(uint256 _amountIn, uint256 _amountOutMin, address[] calldata _path, address _acct, uint256 _deadline) public {\n        \n       sushiSwapRouter.swapExactTokensForTokens(\n            _amountIn,\n            _amountOutMin,\n            _path,\n            _acct,\n            _deadline);\n        }\n    }\n    \n\n    ",
  "sourcePath": "/Users/richardjamieson/Documents/GitHub/BentoBoxBalancer/contracts/bentoboxDapp.sol",
  "compiler": {
    "name": "solc",
    "version": "0.6.12+commit.27d51765.Emscripten.clang"
  },
  "schemaVersion": "3.3.4",
  "updatedAt": "2021-08-12T14:17:38.336Z",
  "networkType": "ethereum",
  "devdoc": {
    "kind": "dev",
    "methods": {},
    "version": 1
  },
  "userdoc": {
    "kind": "user",
    "methods": {},
    "version": 1
  }
}