{
  "contractName": "bentoboxDapp",
  "abi": [
    {
      "inputs": [],
      "name": "BENTOBOX_MASTER_CONTRACT_ADDRESS",
      "outputs": [
        {
          "internalType": "address",
          "name": "",
          "type": "address"
        }
      ],
      "stateMutability": "view",
      "type": "function",
      "constant": true
    },
    {
      "inputs": [],
      "name": "BTC_USD_ORACLE",
      "outputs": [
        {
          "internalType": "address",
          "name": "",
          "type": "address"
        }
      ],
      "stateMutability": "view",
      "type": "function",
      "constant": true
    },
    {
      "inputs": [],
      "name": "BentoMasterContract",
      "outputs": [
        {
          "internalType": "contract IBentoBoxV1",
          "name": "",
          "type": "address"
        }
      ],
      "stateMutability": "view",
      "type": "function",
      "constant": true
    },
    {
      "inputs": [],
      "name": "ETH_USD_ORACLE",
      "outputs": [
        {
          "internalType": "address",
          "name": "",
          "type": "address"
        }
      ],
      "stateMutability": "view",
      "type": "function",
      "constant": true
    },
    {
      "inputs": [],
      "name": "MATIC_USD_ORACLE",
      "outputs": [
        {
          "internalType": "address",
          "name": "",
          "type": "address"
        }
      ],
      "stateMutability": "view",
      "type": "function",
      "constant": true
    },
    {
      "inputs": [],
      "name": "SUSHISWAP_ROUTER",
      "outputs": [
        {
          "internalType": "address",
          "name": "",
          "type": "address"
        }
      ],
      "stateMutability": "view",
      "type": "function",
      "constant": true
    },
    {
      "inputs": [
        {
          "internalType": "uint256",
          "name": "",
          "type": "uint256"
        }
      ],
      "name": "SUSHIToUSDCPath",
      "outputs": [
        {
          "internalType": "address",
          "name": "",
          "type": "address"
        }
      ],
      "stateMutability": "view",
      "type": "function",
      "constant": true
    },
    {
      "inputs": [],
      "name": "SUSHI_ADDRESS",
      "outputs": [
        {
          "internalType": "address",
          "name": "",
          "type": "address"
        }
      ],
      "stateMutability": "view",
      "type": "function",
      "constant": true
    },
    {
      "inputs": [],
      "name": "SUSHI_USD_ORACLE",
      "outputs": [
        {
          "internalType": "address",
          "name": "",
          "type": "address"
        }
      ],
      "stateMutability": "view",
      "type": "function",
      "constant": true
    },
    {
      "inputs": [
        {
          "internalType": "uint256",
          "name": "",
          "type": "uint256"
        }
      ],
      "name": "USDCToSUSHIPath",
      "outputs": [
        {
          "internalType": "address",
          "name": "",
          "type": "address"
        }
      ],
      "stateMutability": "view",
      "type": "function",
      "constant": true
    },
    {
      "inputs": [
        {
          "internalType": "uint256",
          "name": "",
          "type": "uint256"
        }
      ],
      "name": "USDCToWBTCPath",
      "outputs": [
        {
          "internalType": "address",
          "name": "",
          "type": "address"
        }
      ],
      "stateMutability": "view",
      "type": "function",
      "constant": true
    },
    {
      "inputs": [
        {
          "internalType": "uint256",
          "name": "",
          "type": "uint256"
        }
      ],
      "name": "USDCToWETHPath",
      "outputs": [
        {
          "internalType": "address",
          "name": "",
          "type": "address"
        }
      ],
      "stateMutability": "view",
      "type": "function",
      "constant": true
    },
    {
      "inputs": [
        {
          "internalType": "uint256",
          "name": "",
          "type": "uint256"
        }
      ],
      "name": "USDCToWMATICPath",
      "outputs": [
        {
          "internalType": "address",
          "name": "",
          "type": "address"
        }
      ],
      "stateMutability": "view",
      "type": "function",
      "constant": true
    },
    {
      "inputs": [],
      "name": "USDC_ADDRESS",
      "outputs": [
        {
          "internalType": "address",
          "name": "",
          "type": "address"
        }
      ],
      "stateMutability": "view",
      "type": "function",
      "constant": true
    },
    {
      "inputs": [
        {
          "internalType": "uint256",
          "name": "",
          "type": "uint256"
        }
      ],
      "name": "WBTCToUSDCPath",
      "outputs": [
        {
          "internalType": "address",
          "name": "",
          "type": "address"
        }
      ],
      "stateMutability": "view",
      "type": "function",
      "constant": true
    },
    {
      "inputs": [],
      "name": "WBTC_ADDRESS",
      "outputs": [
        {
          "internalType": "address",
          "name": "",
          "type": "address"
        }
      ],
      "stateMutability": "view",
      "type": "function",
      "constant": true
    },
    {
      "inputs": [
        {
          "internalType": "uint256",
          "name": "",
          "type": "uint256"
        }
      ],
      "name": "WETHToUSDCPath",
      "outputs": [
        {
          "internalType": "address",
          "name": "",
          "type": "address"
        }
      ],
      "stateMutability": "view",
      "type": "function",
      "constant": true
    },
    {
      "inputs": [],
      "name": "WETH_ADDRESS",
      "outputs": [
        {
          "internalType": "address",
          "name": "",
          "type": "address"
        }
      ],
      "stateMutability": "view",
      "type": "function",
      "constant": true
    },
    {
      "inputs": [
        {
          "internalType": "uint256",
          "name": "",
          "type": "uint256"
        }
      ],
      "name": "WMATICToUSDCPath",
      "outputs": [
        {
          "internalType": "address",
          "name": "",
          "type": "address"
        }
      ],
      "stateMutability": "view",
      "type": "function",
      "constant": true
    },
    {
      "inputs": [],
      "name": "WMATIC_ADDRESS",
      "outputs": [
        {
          "internalType": "address",
          "name": "",
          "type": "address"
        }
      ],
      "stateMutability": "view",
      "type": "function",
      "constant": true
    },
    {
      "inputs": [],
      "name": "sushiSwapRouter",
      "outputs": [
        {
          "internalType": "contract IUniswapV2Router02",
          "name": "",
          "type": "address"
        }
      ],
      "stateMutability": "view",
      "type": "function",
      "constant": true
    },
    {
      "inputs": [],
      "name": "totalNumberOfShares",
      "outputs": [
        {
          "internalType": "uint256",
          "name": "",
          "type": "uint256"
        }
      ],
      "stateMutability": "view",
      "type": "function",
      "constant": true
    },
    {
      "inputs": [
        {
          "internalType": "address",
          "name": "",
          "type": "address"
        }
      ],
      "name": "userNumberOfShares",
      "outputs": [
        {
          "internalType": "uint256",
          "name": "",
          "type": "uint256"
        }
      ],
      "stateMutability": "view",
      "type": "function",
      "constant": true
    },
    {
      "stateMutability": "payable",
      "type": "receive",
      "payable": true
    },
    {
      "inputs": [],
      "name": "registerProtocol",
      "outputs": [],
      "stateMutability": "nonpayable",
      "type": "function"
    },
    {
      "inputs": [
        {
          "internalType": "address",
          "name": "token_address",
          "type": "address"
        }
      ],
      "name": "getLatestPrice",
      "outputs": [
        {
          "internalType": "int256",
          "name": "",
          "type": "int256"
        }
      ],
      "stateMutability": "nonpayable",
      "type": "function"
    },
    {
      "inputs": [
        {
          "internalType": "address",
          "name": "user",
          "type": "address"
        }
      ],
      "name": "updateSharesOnWithdrawal",
      "outputs": [],
      "stateMutability": "nonpayable",
      "type": "function"
    },
    {
      "inputs": [
        {
          "internalType": "address",
          "name": "user",
          "type": "address"
        }
      ],
      "name": "getUserShares",
      "outputs": [
        {
          "internalType": "uint256",
          "name": "userShares",
          "type": "uint256"
        }
      ],
      "stateMutability": "view",
      "type": "function",
      "constant": true
    },
    {
      "inputs": [
        {
          "internalType": "address",
          "name": "token_address",
          "type": "address"
        },
        {
          "internalType": "address",
          "name": "spender_address",
          "type": "address"
        },
        {
          "internalType": "uint256",
          "name": "amount_to_approve",
          "type": "uint256"
        }
      ],
      "name": "approve_spending",
      "outputs": [],
      "stateMutability": "nonpayable",
      "type": "function"
    },
    {
      "inputs": [
        {
          "internalType": "uint256",
          "name": "amount_",
          "type": "uint256"
        },
        {
          "internalType": "address",
          "name": "token_address",
          "type": "address"
        },
        {
          "internalType": "address",
          "name": "address_from",
          "type": "address"
        },
        {
          "internalType": "address",
          "name": "address_to",
          "type": "address"
        }
      ],
      "name": "depositToBento",
      "outputs": [],
      "stateMutability": "nonpayable",
      "type": "function"
    },
    {
      "inputs": [
        {
          "internalType": "uint256",
          "name": "amount_",
          "type": "uint256"
        },
        {
          "internalType": "address",
          "name": "token_address",
          "type": "address"
        },
        {
          "internalType": "address",
          "name": "address_from",
          "type": "address"
        },
        {
          "internalType": "address",
          "name": "address_to",
          "type": "address"
        }
      ],
      "name": "depositUserFunds",
      "outputs": [],
      "stateMutability": "nonpayable",
      "type": "function"
    },
    {
      "inputs": [
        {
          "internalType": "address",
          "name": "token_address",
          "type": "address"
        },
        {
          "internalType": "uint256",
          "name": "token_decimals",
          "type": "uint256"
        }
      ],
      "name": "getUSDBentoTokenBalanceOf",
      "outputs": [
        {
          "internalType": "uint256",
          "name": "",
          "type": "uint256"
        }
      ],
      "stateMutability": "nonpayable",
      "type": "function"
    },
    {
      "inputs": [
        {
          "internalType": "uint256",
          "name": "WMATIC_amount",
          "type": "uint256"
        },
        {
          "internalType": "uint256",
          "name": "SUSHI_amount",
          "type": "uint256"
        },
        {
          "internalType": "uint256",
          "name": "WETH_amount",
          "type": "uint256"
        },
        {
          "internalType": "uint256",
          "name": "WBTC_amount",
          "type": "uint256"
        },
        {
          "internalType": "uint256",
          "name": "totalUSDAmount",
          "type": "uint256"
        },
        {
          "internalType": "uint256",
          "name": "depositAmount",
          "type": "uint256"
        }
      ],
      "name": "swapProportionately",
      "outputs": [],
      "stateMutability": "nonpayable",
      "type": "function"
    },
    {
      "inputs": [
        {
          "internalType": "uint256",
          "name": "amount",
          "type": "uint256"
        }
      ],
      "name": "swapIntoFourEqualParts",
      "outputs": [],
      "stateMutability": "nonpayable",
      "type": "function"
    },
    {
      "inputs": [],
      "name": "depositAllFourTokensBackToBento",
      "outputs": [],
      "stateMutability": "nonpayable",
      "type": "function"
    },
    {
      "inputs": [
        {
          "internalType": "address",
          "name": "user",
          "type": "address"
        }
      ],
      "name": "setSharesFirstTime",
      "outputs": [],
      "stateMutability": "nonpayable",
      "type": "function"
    },
    {
      "inputs": [
        {
          "internalType": "address",
          "name": "user",
          "type": "address"
        },
        {
          "internalType": "uint256",
          "name": "total_in_USD",
          "type": "uint256"
        },
        {
          "internalType": "uint256",
          "name": "deposit_amount",
          "type": "uint256"
        }
      ],
      "name": "updateSharesOnDeposit",
      "outputs": [],
      "stateMutability": "nonpayable",
      "type": "function"
    },
    {
      "inputs": [
        {
          "internalType": "address",
          "name": "token_address",
          "type": "address"
        },
        {
          "internalType": "address",
          "name": "address_from",
          "type": "address"
        },
        {
          "internalType": "address",
          "name": "address_to",
          "type": "address"
        }
      ],
      "name": "depositTokenBalanceToBento",
      "outputs": [],
      "stateMutability": "nonpayable",
      "type": "function"
    },
    {
      "inputs": [
        {
          "internalType": "address",
          "name": "user",
          "type": "address"
        },
        {
          "internalType": "uint256",
          "name": "WMATIC_amount",
          "type": "uint256"
        },
        {
          "internalType": "uint256",
          "name": "SUSHI_amount",
          "type": "uint256"
        },
        {
          "internalType": "uint256",
          "name": "WETH_amount",
          "type": "uint256"
        },
        {
          "internalType": "uint256",
          "name": "WBTC_amount",
          "type": "uint256"
        }
      ],
      "name": "withdrawUserFunds",
      "outputs": [],
      "stateMutability": "nonpayable",
      "type": "function"
    },
    {
      "inputs": [
        {
          "internalType": "uint256",
          "name": "_WMATIC_amount",
          "type": "uint256"
        },
        {
          "internalType": "uint256",
          "name": "_SUSHI_amount",
          "type": "uint256"
        },
        {
          "internalType": "uint256",
          "name": "_WETH_amount",
          "type": "uint256"
        },
        {
          "internalType": "uint256",
          "name": "_WBTC_amount",
          "type": "uint256"
        }
      ],
      "name": "withdrawAllFourTokensFromBento",
      "outputs": [],
      "stateMutability": "nonpayable",
      "type": "function"
    },
    {
      "inputs": [
        {
          "internalType": "uint256",
          "name": "amount_",
          "type": "uint256"
        },
        {
          "internalType": "address",
          "name": "token_address",
          "type": "address"
        },
        {
          "internalType": "address",
          "name": "address_from",
          "type": "address"
        },
        {
          "internalType": "address",
          "name": "address_to",
          "type": "address"
        }
      ],
      "name": "withdraw",
      "outputs": [],
      "stateMutability": "nonpayable",
      "type": "function"
    },
    {
      "inputs": [
        {
          "internalType": "address",
          "name": "_token",
          "type": "address"
        },
        {
          "internalType": "address",
          "name": "_spender",
          "type": "address"
        }
      ],
      "name": "approveSpendingWholeBalance",
      "outputs": [],
      "stateMutability": "nonpayable",
      "type": "function"
    },
    {
      "inputs": [
        {
          "internalType": "address",
          "name": "_token",
          "type": "address"
        }
      ],
      "name": "swapWholeBalanceBackToUSDC",
      "outputs": [],
      "stateMutability": "nonpayable",
      "type": "function"
    },
    {
      "inputs": [
        {
          "internalType": "uint256",
          "name": "amount_",
          "type": "uint256"
        }
      ],
      "name": "withdraw_matic",
      "outputs": [],
      "stateMutability": "nonpayable",
      "type": "function"
    },
    {
      "inputs": [
        {
          "internalType": "address",
          "name": "token_address",
          "type": "address"
        },
        {
          "internalType": "uint256",
          "name": "_share",
          "type": "uint256"
        },
        {
          "internalType": "address",
          "name": "address_from",
          "type": "address"
        },
        {
          "internalType": "address",
          "name": "address_to",
          "type": "address"
        }
      ],
      "name": "transfer",
      "outputs": [],
      "stateMutability": "nonpayable",
      "type": "function"
    },
    {
      "inputs": [
        {
          "internalType": "address",
          "name": "token_address",
          "type": "address"
        },
        {
          "internalType": "address",
          "name": "user_address",
          "type": "address"
        }
      ],
      "name": "BentoTokenBalanceOf",
      "outputs": [
        {
          "internalType": "uint256",
          "name": "token_balance",
          "type": "uint256"
        }
      ],
      "stateMutability": "view",
      "type": "function",
      "constant": true
    },
    {
      "inputs": [
        {
          "internalType": "uint256",
          "name": "_amountIn",
          "type": "uint256"
        },
        {
          "internalType": "uint256",
          "name": "_amountOutMin",
          "type": "uint256"
        },
        {
          "internalType": "address[]",
          "name": "_path",
          "type": "address[]"
        },
        {
          "internalType": "address",
          "name": "_acct",
          "type": "address"
        },
        {
          "internalType": "uint256",
          "name": "_deadline",
          "type": "uint256"
        }
      ],
      "name": "swap",
      "outputs": [],
      "stateMutability": "nonpayable",
      "type": "function"
    }
  ],
  "bytecode": "0x60806040526040518060400160405280732791bca1f2de4661ed88a30c99a7a9449aa8417473ffffffffffffffffffffffffffffffffffffffff1673ffffffffffffffffffffffffffffffffffffffff168152602001730d500b1d8e8ef31e21c99d1db9a6444d3adf127073ffffffffffffffffffffffffffffffffffffffff1673ffffffffffffffffffffffffffffffffffffffff168152506000906002620000ab92919062000602565b506040518060400160405280732791bca1f2de4661ed88a30c99a7a9449aa8417473ffffffffffffffffffffffffffffffffffffffff1673ffffffffffffffffffffffffffffffffffffffff168152602001730b3f868e0be5597d5db7feb59e1cadbb0fdda50a73ffffffffffffffffffffffffffffffffffffffff1673ffffffffffffffffffffffffffffffffffffffff1681525060019060026200015392919062000602565b506040518060400160405280732791bca1f2de4661ed88a30c99a7a9449aa8417473ffffffffffffffffffffffffffffffffffffffff1673ffffffffffffffffffffffffffffffffffffffff168152602001737ceb23fd6bc0add59e62ac25578270cff1b9f61973ffffffffffffffffffffffffffffffffffffffff1673ffffffffffffffffffffffffffffffffffffffff168152506002906002620001fb92919062000602565b506040518060400160405280732791bca1f2de4661ed88a30c99a7a9449aa8417473ffffffffffffffffffffffffffffffffffffffff1673ffffffffffffffffffffffffffffffffffffffff168152602001731bfd67037b42cf73acf2047067bd4f2c47d9bfd673ffffffffffffffffffffffffffffffffffffffff1673ffffffffffffffffffffffffffffffffffffffff168152506003906002620002a392919062000602565b506040518060400160405280730d500b1d8e8ef31e21c99d1db9a6444d3adf127073ffffffffffffffffffffffffffffffffffffffff1673ffffffffffffffffffffffffffffffffffffffff168152602001732791bca1f2de4661ed88a30c99a7a9449aa8417473ffffffffffffffffffffffffffffffffffffffff1673ffffffffffffffffffffffffffffffffffffffff1681525060049060026200034b92919062000602565b506040518060400160405280730b3f868e0be5597d5db7feb59e1cadbb0fdda50a73ffffffffffffffffffffffffffffffffffffffff1673ffffffffffffffffffffffffffffffffffffffff168152602001732791bca1f2de4661ed88a30c99a7a9449aa8417473ffffffffffffffffffffffffffffffffffffffff1673ffffffffffffffffffffffffffffffffffffffff168152506005906002620003f392919062000602565b506040518060400160405280737ceb23fd6bc0add59e62ac25578270cff1b9f61973ffffffffffffffffffffffffffffffffffffffff1673ffffffffffffffffffffffffffffffffffffffff168152602001732791bca1f2de4661ed88a30c99a7a9449aa8417473ffffffffffffffffffffffffffffffffffffffff1673ffffffffffffffffffffffffffffffffffffffff1681525060069060026200049b92919062000602565b506040518060400160405280731bfd67037b42cf73acf2047067bd4f2c47d9bfd673ffffffffffffffffffffffffffffffffffffffff1673ffffffffffffffffffffffffffffffffffffffff168152602001732791bca1f2de4661ed88a30c99a7a9449aa8417473ffffffffffffffffffffffffffffffffffffffff1673ffffffffffffffffffffffffffffffffffffffff1681525060079060026200054392919062000602565b50730319000133d3ada02600f0875d2cf03d442c3367600b60006101000a81548173ffffffffffffffffffffffffffffffffffffffff021916908373ffffffffffffffffffffffffffffffffffffffff160217905550731b02da8cb0d097eb8d57a175b88c7d8b47997506600c60006101000a81548173ffffffffffffffffffffffffffffffffffffffff021916908373ffffffffffffffffffffffffffffffffffffffff160217905550348015620005fb57600080fd5b50620006ce565b8280548282559060005260206000209081019282156200067e579160200282015b828111156200067d5782518260006101000a81548173ffffffffffffffffffffffffffffffffffffffff021916908373ffffffffffffffffffffffffffffffffffffffff1602179055509160200191906001019062000623565b5b5090506200068d919062000691565b5090565b5b80821115620006ca57600081816101000a81549073ffffffffffffffffffffffffffffffffffffffff02191690555060010162000692565b5090565b6136aa80620006de6000396000f3fe6080604052600436106102815760003560e01c806390f11e841161014f578063ca970905116100c1578063e95d83281161007a578063e95d832814611151578063ec8def8414611192578063edc46f3d14611217578063ef455bad14611258578063fd829a23146112bd578063ff2ad39d146112fe57610288565b8063ca97090514610f65578063cb3601b114610fca578063d58c5b0b1461102f578063d9155b1114611070578063e66c528f146110ab578063e93ef21a146110ec57610288565b8063aee4d1b211610113578063aee4d1b214610dfb578063b6e20a6a14610e12578063ba0cb22b14610e53578063bb09d9b714610eb8578063bdd5915f14610ef9578063c3f5a30514610f3a57610288565b806390f11e8414610b70578063a15c7d1014610c73578063a226635714610cd8578063a6c4e46714610cef578063aa5a7aa314610d8a57610288565b806344345f23116101f357806369bc4388116101ac57806369bc438814610972578063718176e5146109d7578063764f96f914610a185780637c67516514610a8557806388e42b0814610af45780638db9f39a14610b2f57610288565b806344345f231461075c57806345ab6647146107c15780634690738c1461081a578063494df3a21461086b5780636583530f146108bc578063681bcf131461090d57610288565b806323e103a81161024557806323e103a8146104a0578063277754ed1461053b57806329a97ec21461057c57806335c67cd6146105f75780633f5b948b1461069257806344250955146106f757610288565b8063040141e51461028d5780630a51faba146102ce5780630d36b76b1461030f578063123b1154146103a057806316345f181461043b57610288565b3661028857005b600080fd5b34801561029957600080fd5b506102a2611377565b604051808273ffffffffffffffffffffffffffffffffffffffff16815260200191505060405180910390f35b3480156102da57600080fd5b506102e361138f565b604051808273ffffffffffffffffffffffffffffffffffffffff16815260200191505060405180910390f35b34801561031b57600080fd5b5061039e6004803603606081101561033257600080fd5b81019080803573ffffffffffffffffffffffffffffffffffffffff169060200190929190803573ffffffffffffffffffffffffffffffffffffffff169060200190929190803573ffffffffffffffffffffffffffffffffffffffff1690602001909291905050506113a7565b005b3480156103ac57600080fd5b50610439600480360360808110156103c357600080fd5b8101908080359060200190929190803573ffffffffffffffffffffffffffffffffffffffff169060200190929190803573ffffffffffffffffffffffffffffffffffffffff169060200190929190803573ffffffffffffffffffffffffffffffffffffffff169060200190929190505050611577565b005b34801561044757600080fd5b5061048a6004803603602081101561045e57600080fd5b81019080803573ffffffffffffffffffffffffffffffffffffffff1690602001909291905050506117fd565b6040518082815260200191505060405180910390f35b3480156104ac57600080fd5b50610539600480360360808110156104c357600080fd5b8101908080359060200190929190803573ffffffffffffffffffffffffffffffffffffffff169060200190929190803573ffffffffffffffffffffffffffffffffffffffff169060200190929190803573ffffffffffffffffffffffffffffffffffffffff16906020019092919050505061192a565b005b34801561054757600080fd5b50610550611a54565b604051808273ffffffffffffffffffffffffffffffffffffffff16815260200191505060405180910390f35b34801561058857600080fd5b506105f56004803603606081101561059f57600080fd5b81019080803573ffffffffffffffffffffffffffffffffffffffff169060200190929190803573ffffffffffffffffffffffffffffffffffffffff16906020019092919080359060200190929190505050611a6c565b005b34801561060357600080fd5b506106906004803603608081101561061a57600080fd5b8101908080359060200190929190803573ffffffffffffffffffffffffffffffffffffffff169060200190929190803573ffffffffffffffffffffffffffffffffffffffff169060200190929190803573ffffffffffffffffffffffffffffffffffffffff169060200190929190505050611b1e565b005b34801561069e57600080fd5b506106cb600480360360208110156106b557600080fd5b8101908080359060200190929190505050611c48565b604051808273ffffffffffffffffffffffffffffffffffffffff16815260200191505060405180910390f35b34801561070357600080fd5b5061075a6004803603606081101561071a57600080fd5b81019080803573ffffffffffffffffffffffffffffffffffffffff1690602001909291908035906020019092919080359060200190929190505050611c84565b005b34801561076857600080fd5b506107956004803603602081101561077f57600080fd5b8101908080359060200190929190505050611df7565b604051808273ffffffffffffffffffffffffffffffffffffffff16815260200191505060405180910390f35b3480156107cd57600080fd5b50610818600480360360808110156107e457600080fd5b8101908080359060200190929190803590602001909291908035906020019092919080359060200190929190505050611e33565b005b34801561082657600080fd5b506108696004803603602081101561083d57600080fd5b81019080803573ffffffffffffffffffffffffffffffffffffffff169060200190929190505050611eb9565b005b34801561087757600080fd5b506108ba6004803603602081101561088e57600080fd5b81019080803573ffffffffffffffffffffffffffffffffffffffff169060200190929190505050612005565b005b3480156108c857600080fd5b5061090b600480360360208110156108df57600080fd5b81019080803573ffffffffffffffffffffffffffffffffffffffff1690602001909291905050506121ce565b005b34801561091957600080fd5b506109466004803603602081101561093057600080fd5b810190808035906020019092919050505061225f565b604051808273ffffffffffffffffffffffffffffffffffffffff16815260200191505060405180910390f35b34801561097e57600080fd5b506109ab6004803603602081101561099557600080fd5b810190808035906020019092919050505061229b565b604051808273ffffffffffffffffffffffffffffffffffffffff16815260200191505060405180910390f35b3480156109e357600080fd5b506109ec6122d7565b604051808273ffffffffffffffffffffffffffffffffffffffff16815260200191505060405180910390f35b348015610a2457600080fd5b50610a83600480360360c0811015610a3b57600080fd5b810190808035906020019092919080359060200190929190803590602001909291908035906020019092919080359060200190929190803590602001909291905050506122ef565b005b348015610a9157600080fd5b50610ade60048036036040811015610aa857600080fd5b81019080803573ffffffffffffffffffffffffffffffffffffffff1690602001909291908035906020019092919050505061266e565b6040518082815260200191505060405180910390f35b348015610b0057600080fd5b50610b2d60048036036020811015610b1757600080fd5b81019080803590602001909291905050506126b4565b005b348015610b3b57600080fd5b50610b446129d2565b604051808273ffffffffffffffffffffffffffffffffffffffff16815260200191505060405180910390f35b348015610b7c57600080fd5b50610c71600480360360a0811015610b9357600080fd5b81019080803590602001909291908035906020019092919080359060200190640100000000811115610bc457600080fd5b820183602082011115610bd657600080fd5b80359060200191846020830284011164010000000083111715610bf857600080fd5b919080806020026020016040519081016040528093929190818152602001838360200280828437600081840152601f19601f820116905080830192505050505050509192919290803573ffffffffffffffffffffffffffffffffffffffff169060200190929190803590602001909291905050506129ea565b005b348015610c7f57600080fd5b50610cac60048036036020811015610c9657600080fd5b8101908080359060200190929190505050612bb3565b604051808273ffffffffffffffffffffffffffffffffffffffff16815260200191505060405180910390f35b348015610ce457600080fd5b50610ced612bef565b005b348015610cfb57600080fd5b50610d8860048036036080811015610d1257600080fd5b81019080803573ffffffffffffffffffffffffffffffffffffffff16906020019092919080359060200190929190803573ffffffffffffffffffffffffffffffffffffffff169060200190929190803573ffffffffffffffffffffffffffffffffffffffff169060200190929190505050612d65565b005b348015610d9657600080fd5b50610df960048036036040811015610dad57600080fd5b81019080803573ffffffffffffffffffffffffffffffffffffffff169060200190929190803573ffffffffffffffffffffffffffffffffffffffff169060200190929190505050612e58565b005b348015610e0757600080fd5b50610e10612f0e565b005b348015610e1e57600080fd5b50610e27612f92565b604051808273ffffffffffffffffffffffffffffffffffffffff16815260200191505060405180910390f35b348015610e5f57600080fd5b50610ea260048036036020811015610e7657600080fd5b81019080803573ffffffffffffffffffffffffffffffffffffffff169060200190929190505050612faa565b6040518082815260200191505060405180910390f35b348015610ec457600080fd5b50610ecd612ff3565b604051808273ffffffffffffffffffffffffffffffffffffffff16815260200191505060405180910390f35b348015610f0557600080fd5b50610f0e61300b565b604051808273ffffffffffffffffffffffffffffffffffffffff16815260200191505060405180910390f35b348015610f4657600080fd5b50610f4f613023565b6040518082815260200191505060405180910390f35b348015610f7157600080fd5b50610f9e60048036036020811015610f8857600080fd5b8101908080359060200190929190505050613029565b604051808273ffffffffffffffffffffffffffffffffffffffff16815260200191505060405180910390f35b348015610fd657600080fd5b5061100360048036036020811015610fed57600080fd5b8101908080359060200190929190505050613065565b604051808273ffffffffffffffffffffffffffffffffffffffff16815260200191505060405180910390f35b34801561103b57600080fd5b506110446130a1565b604051808273ffffffffffffffffffffffffffffffffffffffff16815260200191505060405180910390f35b34801561107c57600080fd5b506110a96004803603602081101561109357600080fd5b81019080803590602001909291905050506130c7565b005b3480156110b757600080fd5b506110c0613111565b604051808273ffffffffffffffffffffffffffffffffffffffff16815260200191505060405180910390f35b3480156110f857600080fd5b506111256004803603602081101561110f57600080fd5b8101908080359060200190929190505050613129565b604051808273ffffffffffffffffffffffffffffffffffffffff16815260200191505060405180910390f35b34801561115d57600080fd5b50611166613165565b604051808273ffffffffffffffffffffffffffffffffffffffff16815260200191505060405180910390f35b34801561119e57600080fd5b50611201600480360360408110156111b557600080fd5b81019080803573ffffffffffffffffffffffffffffffffffffffff169060200190929190803573ffffffffffffffffffffffffffffffffffffffff16906020019092919050505061317d565b6040518082815260200191505060405180910390f35b34801561122357600080fd5b5061122c61326e565b604051808273ffffffffffffffffffffffffffffffffffffffff16815260200191505060405180910390f35b34801561126457600080fd5b506112a76004803603602081101561127b57600080fd5b81019080803573ffffffffffffffffffffffffffffffffffffffff169060200190929190505050613286565b6040518082815260200191505060405180910390f35b3480156112c957600080fd5b506112d261329e565b604051808273ffffffffffffffffffffffffffffffffffffffff16815260200191505060405180910390f35b34801561130a57600080fd5b50611375600480360360a081101561132157600080fd5b81019080803573ffffffffffffffffffffffffffffffffffffffff169060200190929190803590602001909291908035906020019092919080359060200190929190803590602001909291905050506132c4565b005b737ceb23fd6bc0add59e62ac25578270cff1b9f61981565b730b3f868e0be5597d5db7feb59e1cadbb0fdda50a81565b600083905060008173ffffffffffffffffffffffffffffffffffffffff166370a08231856040518263ffffffff1660e01b8152600401808273ffffffffffffffffffffffffffffffffffffffff16815260200191505060206040518083038186803b15801561141557600080fd5b505afa158015611429573d6000803e3d6000fd5b505050506040513d602081101561143f57600080fd5b81019080805190602001909291905050509050600b60009054906101000a900473ffffffffffffffffffffffffffffffffffffffff1673ffffffffffffffffffffffffffffffffffffffff166302b9446c8386868560006040518663ffffffff1660e01b8152600401808673ffffffffffffffffffffffffffffffffffffffff1681526020018573ffffffffffffffffffffffffffffffffffffffff1681526020018473ffffffffffffffffffffffffffffffffffffffff168152602001838152602001828152602001955050505050506040805180830381600087803b15801561152957600080fd5b505af115801561153d573d6000803e3d6000fd5b505050506040513d604081101561155357600080fd5b81019080805190602001909291908051906020019092919050505050505050505050565b6000839050600b60009054906101000a900473ffffffffffffffffffffffffffffffffffffffff1673ffffffffffffffffffffffffffffffffffffffff166302b9446c8285858960006040518663ffffffff1660e01b8152600401808673ffffffffffffffffffffffffffffffffffffffff1681526020018573ffffffffffffffffffffffffffffffffffffffff1681526020018473ffffffffffffffffffffffffffffffffffffffff168152602001838152602001828152602001955050505050506040805180830381600087803b15801561165357600080fd5b505af1158015611667573d6000803e3d6000fd5b505050506040513d604081101561167d57600080fd5b81019080805190602001909291908051906020019092919050505050506116a68585303061192a565b6116d9732791bca1f2de4661ed88a30c99a7a9449aa84174731b02da8cb0d097eb8d57a175b88c7d8b4799750687611a6c565b60006116fa730d500b1d8e8ef31e21c99d1db9a6444d3adf1270601261266e565b9050600061171d730b3f868e0be5597d5db7feb59e1cadbb0fdda50a601261266e565b90506000611740737ceb23fd6bc0add59e62ac25578270cff1b9f619601261266e565b90506000611763731bfd67037b42cf73acf2047067bd4f2c47d9bfd6600861266e565b9050600061179e8261179085611782888a6134bc90919063ffffffff16565b6134bc90919063ffffffff16565b6134bc90919063ffffffff16565b905060008111156117bc576117b785858585858f6122ef565b6117c6565b6117c58a6126b4565b5b6117ce612bef565b60008111156117e7576117e288828c611c84565b6117f1565b6117f0886121ce565b5b50505050505050505050565b600081600860006101000a81548173ffffffffffffffffffffffffffffffffffffffff021916908373ffffffffffffffffffffffffffffffffffffffff1602179055506000806000806000600860009054906101000a900473ffffffffffffffffffffffffffffffffffffffff1673ffffffffffffffffffffffffffffffffffffffff1663feaf968c6040518163ffffffff1660e01b815260040160a06040518083038186803b1580156118b057600080fd5b505afa1580156118c4573d6000803e3d6000fd5b505050506040513d60a08110156118da57600080fd5b810190808051906020019092919080519060200190929190805190602001909291908051906020019092919080519060200190929190505050945094509450945094508395505050505050919050565b6000839050600b60009054906101000a900473ffffffffffffffffffffffffffffffffffffffff1673ffffffffffffffffffffffffffffffffffffffff166397da6d308285858960006040518663ffffffff1660e01b8152600401808673ffffffffffffffffffffffffffffffffffffffff1681526020018573ffffffffffffffffffffffffffffffffffffffff1681526020018473ffffffffffffffffffffffffffffffffffffffff168152602001838152602001828152602001955050505050506040805180830381600087803b158015611a0657600080fd5b505af1158015611a1a573d6000803e3d6000fd5b505050506040513d6040811015611a3057600080fd5b81019080805190602001909291908051906020019092919050505050505050505050565b731b02da8cb0d097eb8d57a175b88c7d8b4799750681565b8273ffffffffffffffffffffffffffffffffffffffff1663095ea7b383836040518363ffffffff1660e01b8152600401808373ffffffffffffffffffffffffffffffffffffffff16815260200182815260200192505050602060405180830381600087803b158015611add57600080fd5b505af1158015611af1573d6000803e3d6000fd5b505050506040513d6020811015611b0757600080fd5b810190808051906020019092919050505050505050565b6000839050600b60009054906101000a900473ffffffffffffffffffffffffffffffffffffffff1673ffffffffffffffffffffffffffffffffffffffff166302b9446c8285858960006040518663ffffffff1660e01b8152600401808673ffffffffffffffffffffffffffffffffffffffff1681526020018573ffffffffffffffffffffffffffffffffffffffff1681526020018473ffffffffffffffffffffffffffffffffffffffff168152602001838152602001828152602001955050505050506040805180830381600087803b158015611bfa57600080fd5b505af1158015611c0e573d6000803e3d6000fd5b505050506040513d6040811015611c2457600080fd5b81019080805190602001909291908051906020019092919050505050505050505050565b60058181548110611c5557fe5b906000526020600020016000915054906101000a900473ffffffffffffffffffffffffffffffffffffffff1681565b6000611cad600954611c9f858561354490919063ffffffff16565b6135cd90919063ffffffff16565b9050611cc4816009546134bc90919063ffffffff16565b6009819055506000600a60008673ffffffffffffffffffffffffffffffffffffffff1673ffffffffffffffffffffffffffffffffffffffff168152602001908152602001600020541115611dac57611d6481600a60008773ffffffffffffffffffffffffffffffffffffffff1673ffffffffffffffffffffffffffffffffffffffff168152602001908152602001600020546134bc90919063ffffffff16565b600a60008673ffffffffffffffffffffffffffffffffffffffff1673ffffffffffffffffffffffffffffffffffffffff16815260200190815260200160002081905550611df1565b80600a60008673ffffffffffffffffffffffffffffffffffffffff1673ffffffffffffffffffffffffffffffffffffffff168152602001908152602001600020819055505b50505050565b60068181548110611e0457fe5b906000526020600020016000915054906101000a900473ffffffffffffffffffffffffffffffffffffffff1681565b611e5384730d500b1d8e8ef31e21c99d1db9a6444d3adf1270303061192a565b611e7383730b3f868e0be5597d5db7feb59e1cadbb0fdda50a303061192a565b611e9382737ceb23fd6bc0add59e62ac25578270cff1b9f619303061192a565b611eb381731bfd67037b42cf73acf2047067bd4f2c47d9bfd6303061192a565b50505050565b6000600a60008373ffffffffffffffffffffffffffffffffffffffff1673ffffffffffffffffffffffffffffffffffffffff1681526020019081526020016000205411611f6e576040517f08c379a000000000000000000000000000000000000000000000000000000000815260040180806020018281038252601f8152602001807f4572726f72202d2054686973207573657220686173206e6f207368617265730081525060200191505060405180910390fd5b600a60008273ffffffffffffffffffffffffffffffffffffffff1673ffffffffffffffffffffffffffffffffffffffff168152602001908152602001600020546009600082825403925050819055506000600a60008373ffffffffffffffffffffffffffffffffffffffff1673ffffffffffffffffffffffffffffffffffffffff1681526020019081526020016000208190555050565b60008173ffffffffffffffffffffffffffffffffffffffff166370a08231306040518263ffffffff1660e01b8152600401808273ffffffffffffffffffffffffffffffffffffffff16815260200191505060206040518083038186803b15801561206e57600080fd5b505afa158015612082573d6000803e3d6000fd5b505050506040513d602081101561209857600080fd5b810190808051906020019092919050505090506060600267ffffffffffffffff811180156120c557600080fd5b506040519080825280602002602001820160405280156120f45781602001602082028036833780820191505090505b509050828160008151811061210557fe5b602002602001019073ffffffffffffffffffffffffffffffffffffffff16908173ffffffffffffffffffffffffffffffffffffffff1681525050732791bca1f2de4661ed88a30c99a7a9449aa841748160018151811061216157fe5b602002602001019073ffffffffffffffffffffffffffffffffffffffff16908173ffffffffffffffffffffffffffffffffffffffff16815250506121c982600083307fffffffffffffffffffffffffffffffffffffffffffffffffffffffffffffffff6129ea565b505050565b6305f5e100600a60008373ffffffffffffffffffffffffffffffffffffffff1673ffffffffffffffffffffffffffffffffffffffff16815260200190815260200160002081905550600a60008273ffffffffffffffffffffffffffffffffffffffff1673ffffffffffffffffffffffffffffffffffffffff1681526020019081526020016000205460098190555050565b6004818154811061226c57fe5b906000526020600020016000915054906101000a900473ffffffffffffffffffffffffffffffffffffffff1681565b600081815481106122a857fe5b906000526020600020016000915054906101000a900473ffffffffffffffffffffffffffffffffffffffff1681565b73f9680d99d6c9589e2a93a78a04a279e50920594581565b600061231682612308858a61354490919063ffffffff16565b6135cd90919063ffffffff16565b9050600061233f83612331868a61354490919063ffffffff16565b6135cd90919063ffffffff16565b905060006123688461235a878a61354490919063ffffffff16565b6135cd90919063ffffffff16565b9050600061239185612383888a61354490919063ffffffff16565b6135cd90919063ffffffff16565b90506124468460008080548060200260200160405190810160405280929190818152602001828054801561241a57602002820191906000526020600020905b8160009054906101000a900473ffffffffffffffffffffffffffffffffffffffff1673ffffffffffffffffffffffffffffffffffffffff16815260200190600101908083116123d0575b5050505050307fffffffffffffffffffffffffffffffffffffffffffffffffffffffffffffffff6129ea565b6124fa83600060018054806020026020016040519081016040528092919081815260200182805480156124ce57602002820191906000526020600020905b8160009054906101000a900473ffffffffffffffffffffffffffffffffffffffff1673ffffffffffffffffffffffffffffffffffffffff1681526020019060010190808311612484575b5050505050307fffffffffffffffffffffffffffffffffffffffffffffffffffffffffffffffff6129ea565b6125ae826000600280548060200260200160405190810160405280929190818152602001828054801561258257602002820191906000526020600020905b8160009054906101000a900473ffffffffffffffffffffffffffffffffffffffff1673ffffffffffffffffffffffffffffffffffffffff1681526020019060010190808311612538575b5050505050307fffffffffffffffffffffffffffffffffffffffffffffffffffffffffffffffff6129ea565b612662816000600380548060200260200160405190810160405280929190818152602001828054801561263657602002820191906000526020600020905b8160009054906101000a900473ffffffffffffffffffffffffffffffffffffffff1673ffffffffffffffffffffffffffffffffffffffff16815260200190600101908083116125ec575b5050505050307fffffffffffffffffffffffffffffffffffffffffffffffffffffffffffffffff6129ea565b50505050505050505050565b60006126ac60028301600a0a61269e612686866117fd565b612690873061317d565b6135cd90919063ffffffff16565b61354490919063ffffffff16565b905092915050565b61277a6126cb60048361354490919063ffffffff16565b60008080548060200260200160405190810160405280929190818152602001828054801561274e57602002820191906000526020600020905b8160009054906101000a900473ffffffffffffffffffffffffffffffffffffffff1673ffffffffffffffffffffffffffffffffffffffff1681526020019060010190808311612704575b5050505050307fffffffffffffffffffffffffffffffffffffffffffffffffffffffffffffffff6129ea565b61284161279160048361354490919063ffffffff16565b6000600180548060200260200160405190810160405280929190818152602001828054801561281557602002820191906000526020600020905b8160009054906101000a900473ffffffffffffffffffffffffffffffffffffffff1673ffffffffffffffffffffffffffffffffffffffff16815260200190600101908083116127cb575b5050505050307fffffffffffffffffffffffffffffffffffffffffffffffffffffffffffffffff6129ea565b61290861285860048361354490919063ffffffff16565b600060028054806020026020016040519081016040528092919081815260200182805480156128dc57602002820191906000526020600020905b8160009054906101000a900473ffffffffffffffffffffffffffffffffffffffff1673ffffffffffffffffffffffffffffffffffffffff1681526020019060010190808311612892575b5050505050307fffffffffffffffffffffffffffffffffffffffffffffffffffffffffffffffff6129ea565b6129cf61291f60048361354490919063ffffffff16565b600060038054806020026020016040519081016040528092919081815260200182805480156129a357602002820191906000526020600020905b8160009054906101000a900473ffffffffffffffffffffffffffffffffffffffff1673ffffffffffffffffffffffffffffffffffffffff1681526020019060010190808311612959575b5050505050307fffffffffffffffffffffffffffffffffffffffffffffffffffffffffffffffff6129ea565b50565b73ab594600376ec9fd91f8e885dadf0ce036862de081565b600c60009054906101000a900473ffffffffffffffffffffffffffffffffffffffff1673ffffffffffffffffffffffffffffffffffffffff166338ed173986868686866040518663ffffffff1660e01b815260040180868152602001858152602001806020018473ffffffffffffffffffffffffffffffffffffffff168152602001838152602001828103825285818151815260200191508051906020019060200280838360005b83811015612aad578082015181840152602081019050612a92565b505050509050019650505050505050600060405180830381600087803b158015612ad657600080fd5b505af1158015612aea573d6000803e3d6000fd5b505050506040513d6000823e3d601f19601f820116820180604052506020811015612b1457600080fd5b8101908080516040519392919084640100000000821115612b3457600080fd5b83820191506020820185811115612b4a57600080fd5b8251866020820283011164010000000082111715612b6757600080fd5b8083526020830192505050908051906020019060200280838360005b83811015612b9e578082015181840152602081019050612b83565b50505050905001604052505050505050505050565b60038181548110612bc057fe5b906000526020600020016000915054906101000a900473ffffffffffffffffffffffffffffffffffffffff1681565b612c2d730d500b1d8e8ef31e21c99d1db9a6444d3adf1270730319000133d3ada02600f0875d2cf03d442c33676a0845951614014849ffffff611a6c565b612c4c730d500b1d8e8ef31e21c99d1db9a6444d3adf127030306113a7565b612c8a730b3f868e0be5597d5db7feb59e1cadbb0fdda50a730319000133d3ada02600f0875d2cf03d442c33676a0845951614014849ffffff611a6c565b612ca9730b3f868e0be5597d5db7feb59e1cadbb0fdda50a30306113a7565b612ce7737ceb23fd6bc0add59e62ac25578270cff1b9f619730319000133d3ada02600f0875d2cf03d442c33676a0845951614014849ffffff611a6c565b612d06737ceb23fd6bc0add59e62ac25578270cff1b9f61930306113a7565b612d44731bfd67037b42cf73acf2047067bd4f2c47d9bfd6730319000133d3ada02600f0875d2cf03d442c33676a0845951614014849ffffff611a6c565b612d63731bfd67037b42cf73acf2047067bd4f2c47d9bfd630306113a7565b565b6000849050600b60009054906101000a900473ffffffffffffffffffffffffffffffffffffffff1673ffffffffffffffffffffffffffffffffffffffff1663f18d03cc828585886040518563ffffffff1660e01b8152600401808573ffffffffffffffffffffffffffffffffffffffff1681526020018473ffffffffffffffffffffffffffffffffffffffff1681526020018373ffffffffffffffffffffffffffffffffffffffff168152602001828152602001945050505050600060405180830381600087803b158015612e3957600080fd5b505af1158015612e4d573d6000803e3d6000fd5b505050505050505050565b60008273ffffffffffffffffffffffffffffffffffffffff166370a08231306040518263ffffffff1660e01b8152600401808273ffffffffffffffffffffffffffffffffffffffff16815260200191505060206040518083038186803b158015612ec157600080fd5b505afa158015612ed5573d6000803e3d6000fd5b505050506040513d6020811015612eeb57600080fd5b81019080805190602001909291905050509050612f09838383611a6c565b505050565b600b60009054906101000a900473ffffffffffffffffffffffffffffffffffffffff1673ffffffffffffffffffffffffffffffffffffffff1663aee4d1b26040518163ffffffff1660e01b8152600401600060405180830381600087803b158015612f7857600080fd5b505af1158015612f8c573d6000803e3d6000fd5b50505050565b73c907e116054ad103354f2d350fd2514433d57f6f81565b6000600a60008373ffffffffffffffffffffffffffffffffffffffff1673ffffffffffffffffffffffffffffffffffffffff168152602001908152602001600020549050919050565b732791bca1f2de4661ed88a30c99a7a9449aa8417481565b731bfd67037b42cf73acf2047067bd4f2c47d9bfd681565b60095481565b6007818154811061303657fe5b906000526020600020016000915054906101000a900473ffffffffffffffffffffffffffffffffffffffff1681565b6002818154811061307257fe5b906000526020600020016000915054906101000a900473ffffffffffffffffffffffffffffffffffffffff1681565b600b60009054906101000a900473ffffffffffffffffffffffffffffffffffffffff1681565b3373ffffffffffffffffffffffffffffffffffffffff166108fc829081150290604051600060405180830381858888f1935050505015801561310d573d6000803e3d6000fd5b5050565b7349b0c695039243bbfeb8ecd054eb70061fd54aa081565b6001818154811061313657fe5b906000526020600020016000915054906101000a900473ffffffffffffffffffffffffffffffffffffffff1681565b730d500b1d8e8ef31e21c99d1db9a6444d3adf127081565b600080839050600b60009054906101000a900473ffffffffffffffffffffffffffffffffffffffff1673ffffffffffffffffffffffffffffffffffffffff1663f7888aec82856040518363ffffffff1660e01b8152600401808373ffffffffffffffffffffffffffffffffffffffff1681526020018273ffffffffffffffffffffffffffffffffffffffff1681526020019250505060206040518083038186803b15801561322a57600080fd5b505afa15801561323e573d6000803e3d6000fd5b505050506040513d602081101561325457600080fd5b810190808051906020019092919050505091505092915050565b730319000133d3ada02600f0875d2cf03d442c336781565b600a6020528060005260406000206000915090505481565b600c60009054906101000a900473ffffffffffffffffffffffffffffffffffffffff1681565b6132d084848484611e33565b613302730d500b1d8e8ef31e21c99d1db9a6444d3adf1270731b02da8cb0d097eb8d57a175b88c7d8b47997506612e58565b613334730b3f868e0be5597d5db7feb59e1cadbb0fdda50a731b02da8cb0d097eb8d57a175b88c7d8b47997506612e58565b613366737ceb23fd6bc0add59e62ac25578270cff1b9f619731b02da8cb0d097eb8d57a175b88c7d8b47997506612e58565b613398731bfd67037b42cf73acf2047067bd4f2c47d9bfd6731b02da8cb0d097eb8d57a175b88c7d8b47997506612e58565b6133b5730d500b1d8e8ef31e21c99d1db9a6444d3adf1270612005565b6133d2730b3f868e0be5597d5db7feb59e1cadbb0fdda50a612005565b6133ef737ceb23fd6bc0add59e62ac25578270cff1b9f619612005565b61340c731bfd67037b42cf73acf2047067bd4f2c47d9bfd6612005565b61344a732791bca1f2de4661ed88a30c99a7a9449aa84174730319000133d3ada02600f0875d2cf03d442c33676a0845951614014849ffffff611a6c565b613469732791bca1f2de4661ed88a30c99a7a9449aa8417430306113a7565b6000613489732791bca1f2de4661ed88a30c99a7a9449aa841743061317d565b90506134ab81732791bca1f2de4661ed88a30c99a7a9449aa84174308961192a565b6134b486611eb9565b505050505050565b60008082840190508381101561353a576040517f08c379a000000000000000000000000000000000000000000000000000000000815260040180806020018281038252601b8152602001807f536166654d6174683a206164646974696f6e206f766572666c6f77000000000081525060200191505060405180910390fd5b8091505092915050565b60008082116135bb576040517f08c379a000000000000000000000000000000000000000000000000000000000815260040180806020018281038252601a8152602001807f536166654d6174683a206469766973696f6e206279207a65726f00000000000081525060200191505060405180910390fd5b8183816135c457fe5b04905092915050565b6000808314156135e0576000905061364d565b60008284029050828482816135f157fe5b0414613648576040517f08c379a00000000000000000000000000000000000000000000000000000000081526004018080602001828103825260218152602001806136546021913960400191505060405180910390fd5b809150505b9291505056fe536166654d6174683a206d756c7469706c69636174696f6e206f766572666c6f77a26469706673582212207e5607338e075e881f7e36d34856303dad401fe0d8e4dba73ff67a4a18c7c16364736f6c634300060c0033",
  "immutableReferences": {},
  "source": "pragma solidity ^0.6.12;\n\n//import statements go here\nimport \"./interfaces/IBentoBoxV1.sol\";\nimport \"./interfaces/IUniswapV2Router02.sol\";\nimport \"./interfaces/IUniswapV2Router01.sol\";\nimport \"@openzeppelin/contracts/math/SafeMath.sol\";\nimport \"@chainlink/contracts/src/v0.6/interfaces/AggregatorV3Interface.sol\";\n\ncontract bentoboxDapp {\n    using SafeMath for uint256;\n\n    address public constant BENTOBOX_MASTER_CONTRACT_ADDRESS = 0x0319000133d3AdA02600f0875d2cf03D442C3367;\n\n    address public constant USDC_ADDRESS = 0x2791Bca1f2de4661ED88A30C99A7a9449Aa84174;\n    \n    address public constant WMATIC_ADDRESS = 0x0d500B1d8E8eF31E21C99d1Db9A6444d3ADf1270;\n    address public constant SUSHI_ADDRESS = 0x0b3F868E0BE5597D5DB7fEB59E1CADBb0fdDa50a;\n    address public constant WETH_ADDRESS = 0x7ceB23fD6bC0adD59E62ac25578270cFf1b9f619;\n    address public constant WBTC_ADDRESS = 0x1BFD67037B42Cf73acF2047067bd4F2C47D9BfD6;\n\n    address public constant MATIC_USD_ORACLE = 0xAB594600376Ec9fD91F8e885dADF0CE036862dE0;\n    address public constant BTC_USD_ORACLE = 0xc907E116054Ad103354f2D350FD2514433D57F6f;\n    address public constant ETH_USD_ORACLE = 0xF9680D99D6C9589e2a93a78A04A279e509205945;\n    address public constant SUSHI_USD_ORACLE = 0x49B0c695039243BBfEb8EcD054EB70061fd54aa0;\n\n    address[] public USDCToWMATICPath = [USDC_ADDRESS, WMATIC_ADDRESS];\n    address[] public USDCToSUSHIPath = [USDC_ADDRESS, SUSHI_ADDRESS];\n    address[] public USDCToWETHPath = [USDC_ADDRESS, WETH_ADDRESS];\n    address[] public USDCToWBTCPath = [USDC_ADDRESS, WBTC_ADDRESS];\n\n    address[] public WMATICToUSDCPath = [WMATIC_ADDRESS, USDC_ADDRESS];\n    address[] public SUSHIToUSDCPath = [SUSHI_ADDRESS, USDC_ADDRESS];\n    address[] public WETHToUSDCPath = [WETH_ADDRESS, USDC_ADDRESS];\n    address[] public WBTCToUSDCPath = [WBTC_ADDRESS, USDC_ADDRESS];\n\n    address public constant SUSHISWAP_ROUTER = 0x1b02dA8Cb0d097eB8D57A175b88c7D8b47997506;\n    \n    AggregatorV3Interface internal priceFeed;\n\n    uint256 public totalNumberOfShares;\n    mapping(address => uint256) public userNumberOfShares; \n\n    IBentoBoxV1 public BentoMasterContract = IBentoBoxV1(BENTOBOX_MASTER_CONTRACT_ADDRESS);\n    IUniswapV2Router02 public sushiSwapRouter = IUniswapV2Router02(SUSHISWAP_ROUTER);\n    //more variables here\n    // constructor() autoBalancer public {\n    //     // BentoMasterContract = IBentoBoxV1(BENTOBOX_MASTER_CONTRACT_ADDRESS);\n    //     // BentoMasterContract.registerProtocol();\n    // } \n\n    function registerProtocol () public {\n        BentoMasterContract.registerProtocol();\n    }\n    \n    /**\n     * Returns the latest price\n     */\n    function getLatestPrice(address token_address) public returns (int) {\n        priceFeed = AggregatorV3Interface(token_address);\n        (\n            uint80 roundID, \n            int price,\n            uint startedAt,\n            uint timeStamp,\n            uint80 answeredInRound\n        ) = priceFeed.latestRoundData();\n        return price;\n    }\n\n    function updateSharesOnWithdrawal(address user) public { //make this ownable - only contract itself can update this?\n        require (userNumberOfShares[user] > 0, \"Error - This user has no shares\");\n        totalNumberOfShares -= userNumberOfShares[user];\n        userNumberOfShares[user] = 0;\n    }\n\n    function getUserShares(address user) public view returns (uint256 userShares) {\n        return userNumberOfShares[user];\n    }\n\n    function approve_spending (address token_address, address spender_address, uint256 amount_to_approve) public {\n            IERC20(token_address).approve(spender_address, amount_to_approve);\n    }\n    \n     receive() external payable {\n    }\n\n    function depositToBento (uint256 amount_, address token_address, address address_from, address address_to) public  {\n            IERC20 token_ = IERC20(token_address);\n\n            BentoMasterContract.deposit(\n            token_, //IERC20 token_ what is this? USDC contract address? no, I think it's the instantiation of an ERC20...\n            address_from, //from - this would be from the dapp\n            address_to, //to - this would be to bentobox?\n            amount_, //10USDC?\n            0 //leave blank I think...\n            );\n    }\n\n    function depositUserFunds (uint256 amount_, address token_address, address address_from, address address_to) public  {\n        IERC20 token_ = IERC20(token_address);\n\n        BentoMasterContract.deposit(\n        token_, //IERC20 token_ what is this? USDC contract address? no, I think it's the instantiation of an ERC20...\n        address_from, //from - this would be from the dapp\n        address_to, //to - this would be to bentobox?\n        amount_, //10USDC?\n        0 //leave blank I think...\n        );\n\n        withdraw(amount_, token_address, address(this), address(this));\n\n        approve_spending(USDC_ADDRESS, SUSHISWAP_ROUTER, amount_);\n\n        uint256 WMATIC_balanceInUSD = getUSDBentoTokenBalanceOf(WMATIC_ADDRESS, 18);\n        uint256 SUSHI_balanceInUSD = getUSDBentoTokenBalanceOf(SUSHI_ADDRESS, 18);\n        uint256 WETH_balanceInUSD = getUSDBentoTokenBalanceOf(WETH_ADDRESS, 18);\n        uint256 WBTC_balanceInUSD = getUSDBentoTokenBalanceOf(WBTC_ADDRESS, 8);\n\n        uint256 Total_in_USD = WMATIC_balanceInUSD.add(SUSHI_balanceInUSD).add(WETH_balanceInUSD).add(WBTC_balanceInUSD);\n        \n        if (Total_in_USD > 0) {\n            swapProportionately(WMATIC_balanceInUSD, SUSHI_balanceInUSD, WETH_balanceInUSD, WBTC_balanceInUSD, Total_in_USD, amount_);\n        } else {\n            swapIntoFourEqualParts(amount_);\n        }\n        \n        depositAllFourTokensBackToBento();\n\n        if (Total_in_USD > 0) {\n            updateSharesOnDeposit(address_from, Total_in_USD, amount_);\n        } else {\n            setSharesFirstTime(address_from);\n        }\n    }\n    function getUSDBentoTokenBalanceOf(address token_address, uint256 token_decimals) public returns (uint256) {\n        return BentoTokenBalanceOf(token_address, address(this))\n        .mul(uint256(getLatestPrice(token_address)))\n        .div(10**(token_decimals+2));\n    }\n\n    function swapProportionately(uint256 WMATIC_amount, uint256 SUSHI_amount, uint256 WETH_amount, uint256 WBTC_amount, uint256 totalUSDAmount, uint256 depositAmount) public {\n        uint256 WMATIC_share = WMATIC_amount.div(totalUSDAmount).mul(depositAmount); \n        uint256 SUSHI_share = SUSHI_amount.div(totalUSDAmount).mul(depositAmount);\n        uint256 WETH_share = WETH_amount.div(totalUSDAmount).mul(depositAmount);\n        uint256 WBTC_share = WBTC_amount.div(totalUSDAmount).mul(depositAmount);\n\n        swap(WMATIC_share, uint256(0), USDCToWMATICPath, address(this), uint256(-1));\n        swap(SUSHI_share, uint256(0), USDCToSUSHIPath, address(this), uint256(-1));\n        swap(WETH_share, uint256(0), USDCToWETHPath, address(this), uint256(-1));\n        swap(WBTC_share, uint256(0), USDCToWBTCPath, address(this), uint256(-1));\n    }\n\n    function swapIntoFourEqualParts(uint256 amount) public {\n        swap(amount.div(4), uint256(0), USDCToWMATICPath, address(this), uint256(-1));\n        swap(amount.div(4), uint256(0), USDCToSUSHIPath, address(this), uint256(-1));\n        swap(amount.div(4), uint256(0), USDCToWETHPath, address(this), uint256(-1));\n        swap(amount.div(4), uint256(0), USDCToWBTCPath, address(this), uint256(-1));\n    }\n\n    function depositAllFourTokensBackToBento() public {\n        approve_spending(WMATIC_ADDRESS, BENTOBOX_MASTER_CONTRACT_ADDRESS, 9999999999999999999999999);\n        depositTokenBalanceToBento(WMATIC_ADDRESS, address(this), address(this));\n        approve_spending(SUSHI_ADDRESS, BENTOBOX_MASTER_CONTRACT_ADDRESS, 9999999999999999999999999);\n        depositTokenBalanceToBento(SUSHI_ADDRESS, address(this), address(this));\n        approve_spending(WETH_ADDRESS, BENTOBOX_MASTER_CONTRACT_ADDRESS, 9999999999999999999999999);\n        depositTokenBalanceToBento(WETH_ADDRESS, address(this), address(this));\n        approve_spending(WBTC_ADDRESS, BENTOBOX_MASTER_CONTRACT_ADDRESS, 9999999999999999999999999);\n        depositTokenBalanceToBento(WBTC_ADDRESS, address(this), address(this));\n    }\n\n    function setSharesFirstTime(address user) public {\n        userNumberOfShares[user] = 100000000;\n        totalNumberOfShares = userNumberOfShares[user];\n    }\n\n    function updateSharesOnDeposit(address user, uint256 total_in_USD, uint256 deposit_amount) public { //make this ownable - only contract itself can update this?\n        uint256 newSharesForUser = deposit_amount.div(total_in_USD).mul(totalNumberOfShares);\n        totalNumberOfShares = totalNumberOfShares.add(newSharesForUser);\n        if (userNumberOfShares[user] > 0) {\n            userNumberOfShares[user] = userNumberOfShares[user].add(newSharesForUser);\n        } else {\n            userNumberOfShares[user] = newSharesForUser;\n        }\n    }\n\n    function depositTokenBalanceToBento (address token_address, address address_from, address address_to) public  {\n        IERC20 token_ = IERC20(token_address);\n        uint256 tokenBalance = token_.balanceOf(address_from);\n        \n        BentoMasterContract.deposit(\n        token_, //IERC20 token_ the instantiation of an ERC20...\n        address_from, //from - this would be from the dapp or the user\n        address_to, //to - this would be to bentobox\n        tokenBalance, //10USDC?\n        0 //leave blank I think...\n        );\n    }\n    function withdrawUserFunds(address user, uint256 WMATIC_amount, uint256 SUSHI_amount,uint256 WETH_amount,uint256 WBTC_amount) public {\n        //do I need an approval here?\n        withdrawAllFourTokensFromBento(WMATIC_amount, SUSHI_amount, WETH_amount, WBTC_amount);\n\n        approveSpendingWholeBalance(WMATIC_ADDRESS, SUSHISWAP_ROUTER);\n        approveSpendingWholeBalance(SUSHI_ADDRESS, SUSHISWAP_ROUTER);\n        approveSpendingWholeBalance(WETH_ADDRESS, SUSHISWAP_ROUTER);\n        approveSpendingWholeBalance(WBTC_ADDRESS, SUSHISWAP_ROUTER);\n\n        swapWholeBalanceBackToUSDC(WMATIC_ADDRESS);\n        swapWholeBalanceBackToUSDC(SUSHI_ADDRESS);\n        swapWholeBalanceBackToUSDC(WETH_ADDRESS);\n        swapWholeBalanceBackToUSDC(WBTC_ADDRESS);\n\n        approve_spending(USDC_ADDRESS, BENTOBOX_MASTER_CONTRACT_ADDRESS, 9999999999999999999999999);\n        \n        depositTokenBalanceToBento(USDC_ADDRESS, address(this), address(this));\n\n        uint256 USDC_amount = BentoTokenBalanceOf(USDC_ADDRESS, address(this));\n        withdraw(USDC_amount, USDC_ADDRESS, address(this), user);\n\n        updateSharesOnWithdrawal(user);\n    }\n\n    function withdrawAllFourTokensFromBento(uint256 _WMATIC_amount, uint256 _SUSHI_amount, uint256 _WETH_amount, uint256 _WBTC_amount) public {\n        withdraw(_WMATIC_amount, WMATIC_ADDRESS, address(this), address(this));\n        withdraw(_SUSHI_amount, SUSHI_ADDRESS, address(this), address(this));\n        withdraw(_WETH_amount, WETH_ADDRESS, address(this), address(this));\n        withdraw(_WBTC_amount, WBTC_ADDRESS, address(this), address(this));\n    }\n\n    function withdraw(uint256 amount_, address token_address, address address_from, address address_to) public  {\n        IERC20 token_ = IERC20(token_address); //is this right?\n\n        BentoMasterContract.withdraw(\n        token_, \n        address_from, //address from - the bentobox master contract address??\n        address_to, //address to - the address of the dapp itself\n        amount_, //leave blank?\n        0 //uint256 share\n    );\n    }\n\n    function approveSpendingWholeBalance(address _token, address _spender) public {\n        uint256 tokenBalance = IERC20(_token).balanceOf(address(this));\n        approve_spending(_token, _spender, tokenBalance);\n    }\n\n    function swapWholeBalanceBackToUSDC(address _token) public {\n        uint256 tokenBalance = IERC20(_token).balanceOf(address(this));\n        address[] memory path = new address[](2);\n        path[0] = _token;\n        path[1] = USDC_ADDRESS;\n        swap(tokenBalance, uint256(0), path, address(this), uint256(-1));\n    }\n    \n    function withdraw_matic(uint256 amount_) public {\n        msg.sender.transfer(amount_);\n    }\n    \n    function transfer(address token_address, uint256 _share, address address_from, address address_to) public  {\n        IERC20 _token = IERC20(token_address);\n    // do I call this on bentomastercontract? I think so. But then it's the app making the call.\n    BentoMasterContract.transfer(\n        _token, //IERC20 token\n        address_from, //address from - a specified user address\n        address_to, //address to - the dapp itself receives the funds\n        _share //uint256 share\n        );\n    }\n\n    function BentoTokenBalanceOf(address token_address, address user_address) public view returns (uint256 token_balance) {\n        IERC20 _token = IERC20(token_address);\n        token_balance = BentoMasterContract.balanceOf(_token, user_address);\n        return token_balance;\n    }\n    \n    function swap(uint256 _amountIn, uint256 _amountOutMin, address[] memory _path, address _acct, uint256 _deadline) public {\n        \n       sushiSwapRouter.swapExactTokensForTokens(\n            _amountIn,\n            _amountOutMin,\n            _path,\n            _acct,\n            _deadline);\n        }\n    }\n    \n\n    ",
  "sourcePath": "/Users/richardjamieson/Documents/GitHub/BentoBoxBalancer/contracts/bentoboxDapp.sol",
  "compiler": {
    "name": "solc",
    "version": "0.6.12+commit.27d51765.Emscripten.clang"
  },
  "schemaVersion": "3.3.4",
  "updatedAt": "2021-09-08T12:03:33.921Z",
  "networkType": "ethereum",
  "devdoc": {
    "kind": "dev",
    "methods": {},
    "version": 1
  },
  "userdoc": {
    "kind": "user",
    "methods": {
      "getLatestPrice(address)": {
        "notice": "Returns the latest price"
      }
    },
    "version": 1
  }
}