{
  "contractName": "bentoboxDapp",
  "abi": [
    {
      "inputs": [],
      "name": "BENTOBOX_MASTER_CONTRACT_ADDRESS",
      "outputs": [
        {
          "internalType": "address",
          "name": "",
          "type": "address"
        }
      ],
      "stateMutability": "view",
      "type": "function",
      "constant": true
    },
    {
      "inputs": [],
      "name": "BentoMasterContract",
      "outputs": [
        {
          "internalType": "contract IBentoBoxV1",
          "name": "",
          "type": "address"
        }
      ],
      "stateMutability": "view",
      "type": "function",
      "constant": true
    },
    {
      "inputs": [],
      "name": "SUSHISWAP_ROUTER",
      "outputs": [
        {
          "internalType": "address",
          "name": "",
          "type": "address"
        }
      ],
      "stateMutability": "view",
      "type": "function",
      "constant": true
    },
    {
      "inputs": [],
      "name": "USDC_ADDRESS",
      "outputs": [
        {
          "internalType": "address",
          "name": "",
          "type": "address"
        }
      ],
      "stateMutability": "view",
      "type": "function",
      "constant": true
    },
    {
      "inputs": [],
      "name": "WETH_ADDRESS",
      "outputs": [
        {
          "internalType": "address",
          "name": "",
          "type": "address"
        }
      ],
      "stateMutability": "view",
      "type": "function",
      "constant": true
    },
    {
      "inputs": [],
      "name": "sushiSwapRouter",
      "outputs": [
        {
          "internalType": "contract IUniswapV2Router02",
          "name": "",
          "type": "address"
        }
      ],
      "stateMutability": "view",
      "type": "function",
      "constant": true
    },
    {
      "inputs": [],
      "name": "totalNumberOfShares",
      "outputs": [
        {
          "internalType": "uint256",
          "name": "",
          "type": "uint256"
        }
      ],
      "stateMutability": "view",
      "type": "function",
      "constant": true
    },
    {
      "inputs": [
        {
          "internalType": "address",
          "name": "",
          "type": "address"
        }
      ],
      "name": "userNumberOfShares",
      "outputs": [
        {
          "internalType": "uint256",
          "name": "",
          "type": "uint256"
        }
      ],
      "stateMutability": "view",
      "type": "function",
      "constant": true
    },
    {
      "stateMutability": "payable",
      "type": "receive",
      "payable": true
    },
    {
      "inputs": [],
      "name": "registerProtocol",
      "outputs": [],
      "stateMutability": "nonpayable",
      "type": "function"
    },
    {
      "inputs": [
        {
          "internalType": "address",
          "name": "user",
          "type": "address"
        },
        {
          "internalType": "uint256",
          "name": "newSharesToBeAdded",
          "type": "uint256"
        }
      ],
      "name": "updateSharesOnDeposit",
      "outputs": [],
      "stateMutability": "nonpayable",
      "type": "function"
    },
    {
      "inputs": [
        {
          "internalType": "address",
          "name": "user",
          "type": "address"
        }
      ],
      "name": "updateSharesOnWithdrawal",
      "outputs": [],
      "stateMutability": "nonpayable",
      "type": "function"
    },
    {
      "inputs": [
        {
          "internalType": "address",
          "name": "user",
          "type": "address"
        }
      ],
      "name": "getUserShares",
      "outputs": [
        {
          "internalType": "uint256",
          "name": "userShares",
          "type": "uint256"
        }
      ],
      "stateMutability": "view",
      "type": "function",
      "constant": true
    },
    {
      "inputs": [],
      "name": "getTotalShares",
      "outputs": [
        {
          "internalType": "uint256",
          "name": "totalNumberOfShares",
          "type": "uint256"
        }
      ],
      "stateMutability": "view",
      "type": "function",
      "constant": true
    },
    {
      "inputs": [
        {
          "internalType": "address",
          "name": "token_address",
          "type": "address"
        },
        {
          "internalType": "address",
          "name": "spender_address",
          "type": "address"
        },
        {
          "internalType": "uint256",
          "name": "amount_to_approve",
          "type": "uint256"
        }
      ],
      "name": "approve_spending",
      "outputs": [],
      "stateMutability": "nonpayable",
      "type": "function"
    },
    {
      "inputs": [
        {
          "internalType": "uint256",
          "name": "amount_",
          "type": "uint256"
        },
        {
          "internalType": "address",
          "name": "token_address",
          "type": "address"
        },
        {
          "internalType": "address",
          "name": "address_from",
          "type": "address"
        },
        {
          "internalType": "address",
          "name": "address_to",
          "type": "address"
        }
      ],
      "name": "depositToBento",
      "outputs": [],
      "stateMutability": "nonpayable",
      "type": "function"
    },
    {
      "inputs": [
        {
          "internalType": "address",
          "name": "token_address",
          "type": "address"
        },
        {
          "internalType": "address",
          "name": "address_from",
          "type": "address"
        },
        {
          "internalType": "address",
          "name": "address_to",
          "type": "address"
        }
      ],
      "name": "depositTokenBalanceToBento",
      "outputs": [],
      "stateMutability": "nonpayable",
      "type": "function"
    },
    {
      "inputs": [
        {
          "internalType": "uint256",
          "name": "amount_",
          "type": "uint256"
        },
        {
          "internalType": "address",
          "name": "token_address",
          "type": "address"
        },
        {
          "internalType": "address",
          "name": "address_from",
          "type": "address"
        },
        {
          "internalType": "address",
          "name": "address_to",
          "type": "address"
        }
      ],
      "name": "withdraw",
      "outputs": [],
      "stateMutability": "nonpayable",
      "type": "function"
    },
    {
      "inputs": [
        {
          "internalType": "uint256",
          "name": "amount_",
          "type": "uint256"
        }
      ],
      "name": "withdraw_matic",
      "outputs": [],
      "stateMutability": "nonpayable",
      "type": "function"
    },
    {
      "inputs": [
        {
          "internalType": "address",
          "name": "token_address",
          "type": "address"
        },
        {
          "internalType": "uint256",
          "name": "_share",
          "type": "uint256"
        },
        {
          "internalType": "address",
          "name": "address_from",
          "type": "address"
        },
        {
          "internalType": "address",
          "name": "address_to",
          "type": "address"
        }
      ],
      "name": "transfer",
      "outputs": [],
      "stateMutability": "nonpayable",
      "type": "function"
    },
    {
      "inputs": [
        {
          "internalType": "address",
          "name": "token_address",
          "type": "address"
        },
        {
          "internalType": "address",
          "name": "user_address",
          "type": "address"
        }
      ],
      "name": "BentoTokenBalanceOf",
      "outputs": [
        {
          "internalType": "uint256",
          "name": "token_balance",
          "type": "uint256"
        }
      ],
      "stateMutability": "view",
      "type": "function",
      "constant": true
    },
    {
      "inputs": [
        {
          "internalType": "uint256",
          "name": "_amountIn",
          "type": "uint256"
        },
        {
          "internalType": "uint256",
          "name": "_amountOutMin",
          "type": "uint256"
        },
        {
          "internalType": "address[]",
          "name": "_path",
          "type": "address[]"
        },
        {
          "internalType": "address",
          "name": "_acct",
          "type": "address"
        },
        {
          "internalType": "uint256",
          "name": "_deadline",
          "type": "uint256"
        }
      ],
      "name": "swap",
      "outputs": [],
      "stateMutability": "nonpayable",
      "type": "function"
    }
  ],
  "bytecode": "0x6080604052730319000133d3ada02600f0875d2cf03d442c3367600260006101000a81548173ffffffffffffffffffffffffffffffffffffffff021916908373ffffffffffffffffffffffffffffffffffffffff160217905550731b02da8cb0d097eb8d57a175b88c7d8b47997506600360006101000a81548173ffffffffffffffffffffffffffffffffffffffff021916908373ffffffffffffffffffffffffffffffffffffffff1602179055503480156100ba57600080fd5b506115d5806100ca6000396000f3fe60806040526004361061012e5760003560e01c8063ba0cb22b116100ab578063d9155b111161006f578063d9155b1114610708578063ec8def8414610743578063edc46f3d146107c8578063ef455bad14610809578063efc89ee31461086e578063fd829a23146108c95761013b565b8063ba0cb22b146105cb578063bb09d9b714610630578063c3f5a30514610671578063d5002f2e1461069c578063d58c5b0b146106c75761013b565b806335c67cd6116100f257806335c67cd6146103695780634690738c1461040457806390f11e8414610455578063a6c4e46714610519578063aee4d1b2146105b45761013b565b8063040141e5146101405780630d36b76b1461018157806323e103a814610212578063277754ed146102ad57806329a97ec2146102ee5761013b565b3661013b57600034905050005b600080fd5b34801561014c57600080fd5b5061015561090a565b604051808273ffffffffffffffffffffffffffffffffffffffff16815260200191505060405180910390f35b34801561018d57600080fd5b50610210600480360360608110156101a457600080fd5b81019080803573ffffffffffffffffffffffffffffffffffffffff169060200190929190803573ffffffffffffffffffffffffffffffffffffffff169060200190929190803573ffffffffffffffffffffffffffffffffffffffff169060200190929190505050610922565b005b34801561021e57600080fd5b506102ab6004803603608081101561023557600080fd5b8101908080359060200190929190803573ffffffffffffffffffffffffffffffffffffffff169060200190929190803573ffffffffffffffffffffffffffffffffffffffff169060200190929190803573ffffffffffffffffffffffffffffffffffffffff169060200190929190505050610af2565b005b3480156102b957600080fd5b506102c2610c1c565b604051808273ffffffffffffffffffffffffffffffffffffffff16815260200191505060405180910390f35b3480156102fa57600080fd5b506103676004803603606081101561031157600080fd5b81019080803573ffffffffffffffffffffffffffffffffffffffff169060200190929190803573ffffffffffffffffffffffffffffffffffffffff16906020019092919080359060200190929190505050610c34565b005b34801561037557600080fd5b506104026004803603608081101561038c57600080fd5b8101908080359060200190929190803573ffffffffffffffffffffffffffffffffffffffff169060200190929190803573ffffffffffffffffffffffffffffffffffffffff169060200190929190803573ffffffffffffffffffffffffffffffffffffffff169060200190929190505050610ce6565b005b34801561041057600080fd5b506104536004803603602081101561042757600080fd5b81019080803573ffffffffffffffffffffffffffffffffffffffff169060200190929190505050610e10565b005b34801561046157600080fd5b50610517600480360360a081101561047857600080fd5b810190808035906020019092919080359060200190929190803590602001906401000000008111156104a957600080fd5b8201836020820111156104bb57600080fd5b803590602001918460208302840111640100000000831117156104dd57600080fd5b9091929391929390803573ffffffffffffffffffffffffffffffffffffffff16906020019092919080359060200190929190505050610f5b565b005b34801561052557600080fd5b506105b26004803603608081101561053c57600080fd5b81019080803573ffffffffffffffffffffffffffffffffffffffff16906020019092919080359060200190929190803573ffffffffffffffffffffffffffffffffffffffff169060200190929190803573ffffffffffffffffffffffffffffffffffffffff169060200190929190505050611113565b005b3480156105c057600080fd5b506105c9611206565b005b3480156105d757600080fd5b5061061a600480360360208110156105ee57600080fd5b81019080803573ffffffffffffffffffffffffffffffffffffffff16906020019092919050505061128a565b6040518082815260200191505060405180910390f35b34801561063c57600080fd5b506106456112d3565b604051808273ffffffffffffffffffffffffffffffffffffffff16815260200191505060405180910390f35b34801561067d57600080fd5b506106866112eb565b6040518082815260200191505060405180910390f35b3480156106a857600080fd5b506106b16112f1565b6040518082815260200191505060405180910390f35b3480156106d357600080fd5b506106dc6112f6565b604051808273ffffffffffffffffffffffffffffffffffffffff16815260200191505060405180910390f35b34801561071457600080fd5b506107416004803603602081101561072b57600080fd5b810190808035906020019092919050505061131c565b005b34801561074f57600080fd5b506107b26004803603604081101561076657600080fd5b81019080803573ffffffffffffffffffffffffffffffffffffffff169060200190929190803573ffffffffffffffffffffffffffffffffffffffff169060200190929190505050611366565b6040518082815260200191505060405180910390f35b3480156107d457600080fd5b506107dd611457565b604051808273ffffffffffffffffffffffffffffffffffffffff16815260200191505060405180910390f35b34801561081557600080fd5b506108586004803603602081101561082c57600080fd5b81019080803573ffffffffffffffffffffffffffffffffffffffff16906020019092919050505061146f565b6040518082815260200191505060405180910390f35b34801561087a57600080fd5b506108c76004803603604081101561089157600080fd5b81019080803573ffffffffffffffffffffffffffffffffffffffff16906020019092919080359060200190929190505050611487565b005b3480156108d557600080fd5b506108de611579565b604051808273ffffffffffffffffffffffffffffffffffffffff16815260200191505060405180910390f35b737ceb23fd6bc0add59e62ac25578270cff1b9f61981565b600083905060008173ffffffffffffffffffffffffffffffffffffffff166370a08231856040518263ffffffff1660e01b8152600401808273ffffffffffffffffffffffffffffffffffffffff16815260200191505060206040518083038186803b15801561099057600080fd5b505afa1580156109a4573d6000803e3d6000fd5b505050506040513d60208110156109ba57600080fd5b81019080805190602001909291905050509050600260009054906101000a900473ffffffffffffffffffffffffffffffffffffffff1673ffffffffffffffffffffffffffffffffffffffff166302b9446c8386868560006040518663ffffffff1660e01b8152600401808673ffffffffffffffffffffffffffffffffffffffff1681526020018573ffffffffffffffffffffffffffffffffffffffff1681526020018473ffffffffffffffffffffffffffffffffffffffff168152602001838152602001828152602001955050505050506040805180830381600087803b158015610aa457600080fd5b505af1158015610ab8573d6000803e3d6000fd5b505050506040513d6040811015610ace57600080fd5b81019080805190602001909291908051906020019092919050505050505050505050565b6000839050600260009054906101000a900473ffffffffffffffffffffffffffffffffffffffff1673ffffffffffffffffffffffffffffffffffffffff166397da6d308285858960006040518663ffffffff1660e01b8152600401808673ffffffffffffffffffffffffffffffffffffffff1681526020018573ffffffffffffffffffffffffffffffffffffffff1681526020018473ffffffffffffffffffffffffffffffffffffffff168152602001838152602001828152602001955050505050506040805180830381600087803b158015610bce57600080fd5b505af1158015610be2573d6000803e3d6000fd5b505050506040513d6040811015610bf857600080fd5b81019080805190602001909291908051906020019092919050505050505050505050565b731b02da8cb0d097eb8d57a175b88c7d8b4799750681565b8273ffffffffffffffffffffffffffffffffffffffff1663095ea7b383836040518363ffffffff1660e01b8152600401808373ffffffffffffffffffffffffffffffffffffffff16815260200182815260200192505050602060405180830381600087803b158015610ca557600080fd5b505af1158015610cb9573d6000803e3d6000fd5b505050506040513d6020811015610ccf57600080fd5b810190808051906020019092919050505050505050565b6000839050600260009054906101000a900473ffffffffffffffffffffffffffffffffffffffff1673ffffffffffffffffffffffffffffffffffffffff166302b9446c8285858960006040518663ffffffff1660e01b8152600401808673ffffffffffffffffffffffffffffffffffffffff1681526020018573ffffffffffffffffffffffffffffffffffffffff1681526020018473ffffffffffffffffffffffffffffffffffffffff168152602001838152602001828152602001955050505050506040805180830381600087803b158015610dc257600080fd5b505af1158015610dd6573d6000803e3d6000fd5b505050506040513d6040811015610dec57600080fd5b81019080805190602001909291908051906020019092919050505050505050505050565b6000600160008373ffffffffffffffffffffffffffffffffffffffff1673ffffffffffffffffffffffffffffffffffffffff1681526020019081526020016000205411610ec5576040517f08c379a000000000000000000000000000000000000000000000000000000000815260040180806020018281038252601f8152602001807f4572726f72202d2054686973207573657220686173206e6f207368617265730081525060200191505060405180910390fd5b600160008273ffffffffffffffffffffffffffffffffffffffff1673ffffffffffffffffffffffffffffffffffffffff1681526020019081526020016000205460008082825403925050819055506000600160008373ffffffffffffffffffffffffffffffffffffffff1673ffffffffffffffffffffffffffffffffffffffff1681526020019081526020016000208190555050565b600360009054906101000a900473ffffffffffffffffffffffffffffffffffffffff1673ffffffffffffffffffffffffffffffffffffffff166338ed17398787878787876040518763ffffffff1660e01b815260040180878152602001868152602001806020018473ffffffffffffffffffffffffffffffffffffffff1681526020018381526020018281038252868682818152602001925060200280828437600081840152601f19601f820116905080830192505050975050505050505050600060405180830381600087803b15801561103557600080fd5b505af1158015611049573d6000803e3d6000fd5b505050506040513d6000823e3d601f19601f82011682018060405250602081101561107357600080fd5b810190808051604051939291908464010000000082111561109357600080fd5b838201915060208201858111156110a957600080fd5b82518660208202830111640100000000821117156110c657600080fd5b8083526020830192505050908051906020019060200280838360005b838110156110fd5780820151818401526020810190506110e2565b5050505090500160405250505050505050505050565b6000849050600260009054906101000a900473ffffffffffffffffffffffffffffffffffffffff1673ffffffffffffffffffffffffffffffffffffffff1663f18d03cc828585886040518563ffffffff1660e01b8152600401808573ffffffffffffffffffffffffffffffffffffffff1681526020018473ffffffffffffffffffffffffffffffffffffffff1681526020018373ffffffffffffffffffffffffffffffffffffffff168152602001828152602001945050505050600060405180830381600087803b1580156111e757600080fd5b505af11580156111fb573d6000803e3d6000fd5b505050505050505050565b600260009054906101000a900473ffffffffffffffffffffffffffffffffffffffff1673ffffffffffffffffffffffffffffffffffffffff1663aee4d1b26040518163ffffffff1660e01b8152600401600060405180830381600087803b15801561127057600080fd5b505af1158015611284573d6000803e3d6000fd5b50505050565b6000600160008373ffffffffffffffffffffffffffffffffffffffff1673ffffffffffffffffffffffffffffffffffffffff168152602001908152602001600020549050919050565b732791bca1f2de4661ed88a30c99a7a9449aa8417481565b60005481565b600090565b600260009054906101000a900473ffffffffffffffffffffffffffffffffffffffff1681565b3373ffffffffffffffffffffffffffffffffffffffff166108fc829081150290604051600060405180830381858888f19350505050158015611362573d6000803e3d6000fd5b5050565b600080839050600260009054906101000a900473ffffffffffffffffffffffffffffffffffffffff1673ffffffffffffffffffffffffffffffffffffffff1663f7888aec82856040518363ffffffff1660e01b8152600401808373ffffffffffffffffffffffffffffffffffffffff1681526020018273ffffffffffffffffffffffffffffffffffffffff1681526020019250505060206040518083038186803b15801561141357600080fd5b505afa158015611427573d6000803e3d6000fd5b505050506040513d602081101561143d57600080fd5b810190808051906020019092919050505091505092915050565b730319000133d3ada02600f0875d2cf03d442c336781565b60016020528060005260406000206000915090505481565b6000600160008473ffffffffffffffffffffffffffffffffffffffff1673ffffffffffffffffffffffffffffffffffffffff1681526020019081526020016000205414156115185780600160008473ffffffffffffffffffffffffffffffffffffffff1673ffffffffffffffffffffffffffffffffffffffff16815260200190815260200160002081905550611566565b80600160008473ffffffffffffffffffffffffffffffffffffffff1673ffffffffffffffffffffffffffffffffffffffff168152602001908152602001600020600082825401925050819055505b8060008082825401925050819055505050565b600360009054906101000a900473ffffffffffffffffffffffffffffffffffffffff168156fea264697066735822122018552964a8347d117411a4c3d4e8808a8e5753e34b4ee0d0f5d8faf96947bcba64736f6c634300060c0033",
  "immutableReferences": {},
  "source": "pragma solidity ^0.6.12;\n\n//import statements go here\nimport \"./interfaces/IBentoBoxV1.sol\";\nimport \"./interfaces/IUniswapV2Router02.sol\";\nimport \"./interfaces/IUniswapV2Router01.sol\";\n\ncontract bentoboxDapp {\n    address public constant BENTOBOX_MASTER_CONTRACT_ADDRESS = 0x0319000133d3AdA02600f0875d2cf03D442C3367;\n    address public constant USDC_ADDRESS = 0x2791Bca1f2de4661ED88A30C99A7a9449Aa84174;\n    address public constant WETH_ADDRESS = 0x7ceB23fD6bC0adD59E62ac25578270cFf1b9f619;\n    address public constant SUSHISWAP_ROUTER = 0x1b02dA8Cb0d097eB8D57A175b88c7D8b47997506;\n    \n    uint256 public totalNumberOfShares;\n    mapping(address => uint256) public userNumberOfShares; \n\n    IBentoBoxV1 public BentoMasterContract = IBentoBoxV1(BENTOBOX_MASTER_CONTRACT_ADDRESS);\n    IUniswapV2Router02 public sushiSwapRouter = IUniswapV2Router02(SUSHISWAP_ROUTER);\n    //more variables here\n    // constructor() autoBalancer public {\n    //     // BentoMasterContract = IBentoBoxV1(BENTOBOX_MASTER_CONTRACT_ADDRESS);\n    //     // BentoMasterContract.registerProtocol();\n    // } \n    \n    function registerProtocol () public {\n        BentoMasterContract.registerProtocol();\n    }\n    \n    function updateSharesOnDeposit(address user, uint256 newSharesToBeAdded) public { //make this ownable - only contract itself can update this?\n        if (userNumberOfShares[user] ==0) {\n            userNumberOfShares[user] = newSharesToBeAdded; //use SafeMath here?\n        } else {\n            userNumberOfShares[user] += newSharesToBeAdded;\n        }\n        totalNumberOfShares += newSharesToBeAdded;\n    }\n\n    function updateSharesOnWithdrawal(address user) public { //make this ownable - only contract itself can update this?\n        require (userNumberOfShares[user] > 0, \"Error - This user has no shares\");\n        totalNumberOfShares -= userNumberOfShares[user];\n        userNumberOfShares[user] = 0;\n    }\n\n    function getUserShares(address user) public view returns (uint256 userShares) {\n        return userNumberOfShares[user];\n    }\n\n    function getTotalShares() public view returns (uint256 totalNumberOfShares) { //do I need this, if it's a public variable should be easy to get?\n        return totalNumberOfShares;\n    }\n\n    function approve_spending (address token_address, address spender_address, uint256 amount_to_approve) public {\n            IERC20(token_address).approve(spender_address, amount_to_approve);\n    }\n    \n     receive() external payable {\n        uint256 value = msg.value; \n    }\n\n    function depositToBento (uint256 amount_, address token_address, address address_from, address address_to) public  {\n        IERC20 token_ = IERC20(token_address);\n\n        BentoMasterContract.deposit(\n        token_, //IERC20 token_ what is this? USDC contract address? no, I think it's the instantiation of an ERC20...\n        address_from, //from - this would be from the dapp\n        address_to, //to - this would be to bentobox?\n        amount_, //10USDC?\n        0 //leave blank I think...\n        );\n    }\n    \n    function depositTokenBalanceToBento (address token_address, address address_from, address address_to) public  {\n        IERC20 token_ = IERC20(token_address);\n        uint256 tokenBalance = token_.balanceOf(address_from);\n        \n        BentoMasterContract.deposit(\n        token_, //IERC20 token_ the instantiation of an ERC20...\n        address_from, //from - this would be from the dapp or the user\n        address_to, //to - this would be to bentobox\n        tokenBalance, //10USDC?\n        0 //leave blank I think...\n        );\n    }\n    \n    function withdraw(uint256 amount_, address token_address, address address_from, address address_to) public  {\n        IERC20 token_ = IERC20(token_address); //is this right?\n\n        BentoMasterContract.withdraw(\n        token_, \n        address_from, //address from - the bentobox master contract address??\n        address_to, //address to - the address of the dapp itself\n        amount_, //leave blank?\n        0 //uint256 share\n    );\n    }\n    \n    function withdraw_matic(uint256 amount_) public {\n        msg.sender.transfer(amount_);\n    }\n    \n    function transfer(address token_address, uint256 _share, address address_from, address address_to) public  {\n        IERC20 _token = IERC20(token_address);\n    // do I call this on bentomastercontract? I think so. But then it's the app making the call.\n    BentoMasterContract.transfer(\n        _token, //IERC20 token\n        address_from, //address from - a specified user address\n        address_to, //address to - the dapp itself receives the funds\n        _share //uint256 share\n        );\n    }\n\n    function BentoTokenBalanceOf(address token_address, address user_address) public view returns (uint256 token_balance) {\n        IERC20 _token = IERC20(token_address);\n        token_balance = BentoMasterContract.balanceOf(_token, user_address);\n        return token_balance;\n    }\n    \n    function swap(uint256 _amountIn, uint256 _amountOutMin, address[] calldata _path, address _acct, uint256 _deadline) public {\n        \n       sushiSwapRouter.swapExactTokensForTokens(\n            _amountIn,\n            _amountOutMin,\n            _path,\n            _acct,\n            _deadline);\n        }\n    }\n    \n\n    ",
  "sourcePath": "/Users/richardjamieson/Documents/GitHub/BentoBoxBalancer/contracts/bentoboxDapp.sol",
  "compiler": {
    "name": "solc",
    "version": "0.6.12+commit.27d51765.Emscripten.clang"
  },
  "schemaVersion": "3.3.4",
  "updatedAt": "2021-08-15T10:31:41.500Z",
  "networkType": "ethereum",
  "devdoc": {
    "kind": "dev",
    "methods": {},
    "version": 1
  },
  "userdoc": {
    "kind": "user",
    "methods": {},
    "version": 1
  }
}